{
  "_format": "hh-sol-artifact-1",
  "contractName": "BLBToken",
  "sourceName": "contracts/BEP20/BLBToken.sol",
  "abi": [
    {
      "inputs": [
        {
          "internalType": "uint256",
          "name": "_periodTime",
          "type": "uint256"
        },
        {
          "internalType": "address",
          "name": "initialAdmin",
          "type": "address"
        }
      ],
      "stateMutability": "nonpayable",
      "type": "constructor"
    },
    {
      "anonymous": false,
      "inputs": [
        {
          "indexed": true,
          "internalType": "address",
          "name": "owner",
          "type": "address"
        },
        {
          "indexed": true,
          "internalType": "address",
          "name": "spender",
          "type": "address"
        },
        {
          "indexed": false,
          "internalType": "uint256",
          "name": "value",
          "type": "uint256"
        }
      ],
      "name": "Approval",
      "type": "event"
    },
    {
      "anonymous": false,
      "inputs": [
        {
          "indexed": false,
          "internalType": "address",
          "name": "addr",
          "type": "address"
        }
      ],
      "name": "District",
      "type": "event"
    },
    {
      "anonymous": false,
      "inputs": [
        {
          "indexed": false,
          "internalType": "address",
          "name": "addr",
          "type": "address"
        },
        {
          "indexed": false,
          "internalType": "uint256",
          "name": "amount",
          "type": "uint256"
        }
      ],
      "name": "Restrict",
      "type": "event"
    },
    {
      "anonymous": false,
      "inputs": [
        {
          "indexed": true,
          "internalType": "bytes32",
          "name": "role",
          "type": "bytes32"
        },
        {
          "indexed": true,
          "internalType": "bytes32",
          "name": "previousAdminRole",
          "type": "bytes32"
        },
        {
          "indexed": true,
          "internalType": "bytes32",
          "name": "newAdminRole",
          "type": "bytes32"
        }
      ],
      "name": "RoleAdminChanged",
      "type": "event"
    },
    {
      "anonymous": false,
      "inputs": [
        {
          "indexed": true,
          "internalType": "bytes32",
          "name": "role",
          "type": "bytes32"
        },
        {
          "indexed": true,
          "internalType": "address",
          "name": "account",
          "type": "address"
        },
        {
          "indexed": true,
          "internalType": "address",
          "name": "sender",
          "type": "address"
        }
      ],
      "name": "RoleGranted",
      "type": "event"
    },
    {
      "anonymous": false,
      "inputs": [
        {
          "indexed": true,
          "internalType": "bytes32",
          "name": "role",
          "type": "bytes32"
        },
        {
          "indexed": true,
          "internalType": "address",
          "name": "account",
          "type": "address"
        },
        {
          "indexed": true,
          "internalType": "address",
          "name": "sender",
          "type": "address"
        }
      ],
      "name": "RoleRevoked",
      "type": "event"
    },
    {
      "anonymous": false,
      "inputs": [
        {
          "indexed": false,
          "internalType": "uint256",
          "name": "fraction",
          "type": "uint256"
        }
      ],
      "name": "SetPeriodTransferLimit",
      "type": "event"
    },
    {
      "anonymous": false,
      "inputs": [
        {
          "indexed": false,
          "internalType": "uint256",
          "name": "_feeAmount",
          "type": "uint256"
        },
        {
          "indexed": false,
          "internalType": "uint256",
          "name": "_feeFraction",
          "type": "uint256"
        },
        {
          "indexed": false,
          "internalType": "address",
          "name": "_feeReceiver",
          "type": "address"
        }
      ],
      "name": "SetTransactionFee",
      "type": "event"
    },
    {
      "anonymous": false,
      "inputs": [
        {
          "indexed": true,
          "internalType": "address",
          "name": "from",
          "type": "address"
        },
        {
          "indexed": true,
          "internalType": "address",
          "name": "to",
          "type": "address"
        },
        {
          "indexed": false,
          "internalType": "uint256",
          "name": "value",
          "type": "uint256"
        }
      ],
      "name": "Transfer",
      "type": "event"
    },
    {
      "inputs": [],
      "name": "DEFAULT_ADMIN_ROLE",
      "outputs": [
        {
          "internalType": "bytes32",
          "name": "",
          "type": "bytes32"
        }
      ],
      "stateMutability": "view",
      "type": "function"
    },
    {
      "inputs": [],
      "name": "DOMAIN_SEPARATOR",
      "outputs": [
        {
          "internalType": "bytes32",
          "name": "",
          "type": "bytes32"
        }
      ],
      "stateMutability": "view",
      "type": "function"
    },
    {
      "inputs": [],
      "name": "MINTER_ROLE",
      "outputs": [
        {
          "internalType": "bytes32",
          "name": "",
          "type": "bytes32"
        }
      ],
      "stateMutability": "view",
      "type": "function"
    },
    {
      "inputs": [],
      "name": "RESTRICTOR_ROLE",
      "outputs": [
        {
          "internalType": "bytes32",
          "name": "",
          "type": "bytes32"
        }
      ],
      "stateMutability": "view",
      "type": "function"
    },
    {
      "inputs": [],
      "name": "TRANSACTION_FEE_SETTER",
      "outputs": [
        {
          "internalType": "bytes32",
          "name": "",
          "type": "bytes32"
        }
      ],
      "stateMutability": "view",
      "type": "function"
    },
    {
      "inputs": [],
      "name": "TRANSFER_LIMIT_SETTER",
      "outputs": [
        {
          "internalType": "bytes32",
          "name": "",
          "type": "bytes32"
        }
      ],
      "stateMutability": "view",
      "type": "function"
    },
    {
      "inputs": [
        {
          "internalType": "address",
          "name": "owner",
          "type": "address"
        },
        {
          "internalType": "address",
          "name": "spender",
          "type": "address"
        }
      ],
      "name": "allowance",
      "outputs": [
        {
          "internalType": "uint256",
          "name": "",
          "type": "uint256"
        }
      ],
      "stateMutability": "view",
      "type": "function"
    },
    {
      "inputs": [
        {
          "internalType": "address",
          "name": "spender",
          "type": "address"
        },
        {
          "internalType": "uint256",
          "name": "amount",
          "type": "uint256"
        }
      ],
      "name": "approve",
      "outputs": [
        {
          "internalType": "bool",
          "name": "",
          "type": "bool"
        }
      ],
      "stateMutability": "nonpayable",
      "type": "function"
    },
    {
      "inputs": [
        {
          "internalType": "address",
          "name": "account",
          "type": "address"
        }
      ],
      "name": "balanceOf",
      "outputs": [
        {
          "internalType": "uint256",
          "name": "",
          "type": "uint256"
        }
      ],
      "stateMutability": "view",
      "type": "function"
    },
    {
      "inputs": [
        {
          "internalType": "uint256",
          "name": "amount",
          "type": "uint256"
        }
      ],
      "name": "burn",
      "outputs": [],
      "stateMutability": "nonpayable",
      "type": "function"
    },
    {
      "inputs": [
        {
          "internalType": "address",
          "name": "account",
          "type": "address"
        },
        {
          "internalType": "uint256",
          "name": "amount",
          "type": "uint256"
        }
      ],
      "name": "burnFrom",
      "outputs": [],
      "stateMutability": "nonpayable",
      "type": "function"
    },
    {
      "inputs": [
        {
          "internalType": "address",
          "name": "addr",
          "type": "address"
        }
      ],
      "name": "canSpend",
      "outputs": [
        {
          "internalType": "uint256",
          "name": "amount",
          "type": "uint256"
        }
      ],
      "stateMutability": "view",
      "type": "function"
    },
    {
      "inputs": [],
      "name": "cap",
      "outputs": [
        {
          "internalType": "uint256",
          "name": "",
          "type": "uint256"
        }
      ],
      "stateMutability": "view",
      "type": "function"
    },
    {
      "inputs": [],
      "name": "decimals",
      "outputs": [
        {
          "internalType": "uint8",
          "name": "",
          "type": "uint8"
        }
      ],
      "stateMutability": "view",
      "type": "function"
    },
    {
      "inputs": [
        {
          "internalType": "address",
          "name": "spender",
          "type": "address"
        },
        {
          "internalType": "uint256",
          "name": "subtractedValue",
          "type": "uint256"
        }
      ],
      "name": "decreaseAllowance",
      "outputs": [
        {
          "internalType": "bool",
          "name": "",
          "type": "bool"
        }
      ],
      "stateMutability": "nonpayable",
      "type": "function"
    },
    {
      "inputs": [
        {
          "internalType": "address",
          "name": "addr",
          "type": "address"
        }
      ],
      "name": "district",
      "outputs": [],
      "stateMutability": "nonpayable",
      "type": "function"
    },
    {
      "inputs": [],
      "name": "feeDetails",
      "outputs": [
        {
          "internalType": "uint256",
          "name": "",
          "type": "uint256"
        },
        {
          "internalType": "uint256",
          "name": "",
          "type": "uint256"
        },
        {
          "internalType": "address",
          "name": "",
          "type": "address"
        }
      ],
      "stateMutability": "view",
      "type": "function"
    },
    {
      "inputs": [
        {
          "internalType": "bytes32",
          "name": "role",
          "type": "bytes32"
        }
      ],
      "name": "getRoleAdmin",
      "outputs": [
        {
          "internalType": "bytes32",
          "name": "",
          "type": "bytes32"
        }
      ],
      "stateMutability": "view",
      "type": "function"
    },
    {
      "inputs": [
        {
          "internalType": "bytes32",
          "name": "role",
          "type": "bytes32"
        },
        {
          "internalType": "uint256",
          "name": "index",
          "type": "uint256"
        }
      ],
      "name": "getRoleMember",
      "outputs": [
        {
          "internalType": "address",
          "name": "",
          "type": "address"
        }
      ],
      "stateMutability": "view",
      "type": "function"
    },
    {
      "inputs": [
        {
          "internalType": "bytes32",
          "name": "role",
          "type": "bytes32"
        }
      ],
      "name": "getRoleMemberCount",
      "outputs": [
        {
          "internalType": "uint256",
          "name": "",
          "type": "uint256"
        }
      ],
      "stateMutability": "view",
      "type": "function"
    },
    {
      "inputs": [
        {
          "internalType": "bytes32",
          "name": "role",
          "type": "bytes32"
        },
        {
          "internalType": "address",
          "name": "account",
          "type": "address"
        }
      ],
      "name": "grantRole",
      "outputs": [],
      "stateMutability": "nonpayable",
      "type": "function"
    },
    {
      "inputs": [
        {
          "internalType": "bytes32",
          "name": "role",
          "type": "bytes32"
        },
        {
          "internalType": "address",
          "name": "account",
          "type": "address"
        }
      ],
      "name": "hasRole",
      "outputs": [
        {
          "internalType": "bool",
          "name": "",
          "type": "bool"
        }
      ],
      "stateMutability": "view",
      "type": "function"
    },
    {
      "inputs": [
        {
          "internalType": "address",
          "name": "spender",
          "type": "address"
        },
        {
          "internalType": "uint256",
          "name": "addedValue",
          "type": "uint256"
        }
      ],
      "name": "increaseAllowance",
      "outputs": [
        {
          "internalType": "bool",
          "name": "",
          "type": "bool"
        }
      ],
      "stateMutability": "nonpayable",
      "type": "function"
    },
    {
      "inputs": [
        {
          "internalType": "address",
          "name": "addr",
          "type": "address"
        }
      ],
      "name": "isRestricted",
      "outputs": [
        {
          "internalType": "bool",
          "name": "",
          "type": "bool"
        }
      ],
      "stateMutability": "view",
      "type": "function"
    },
    {
      "inputs": [
        {
          "internalType": "address",
          "name": "account",
          "type": "address"
        },
        {
          "internalType": "uint256",
          "name": "amount",
          "type": "uint256"
        }
      ],
      "name": "mint",
      "outputs": [],
      "stateMutability": "nonpayable",
      "type": "function"
    },
    {
      "inputs": [
        {
          "internalType": "address[]",
          "name": "accounts",
          "type": "address[]"
        },
        {
          "internalType": "uint256",
          "name": "amount",
          "type": "uint256"
        }
      ],
      "name": "mintBatch",
      "outputs": [],
      "stateMutability": "nonpayable",
      "type": "function"
    },
    {
      "inputs": [],
      "name": "name",
      "outputs": [
        {
          "internalType": "string",
          "name": "",
          "type": "string"
        }
      ],
      "stateMutability": "view",
      "type": "function"
    },
    {
      "inputs": [
        {
          "internalType": "address",
          "name": "owner",
          "type": "address"
        }
      ],
      "name": "nonces",
      "outputs": [
        {
          "internalType": "uint256",
          "name": "",
          "type": "uint256"
        }
      ],
      "stateMutability": "view",
      "type": "function"
    },
    {
      "inputs": [],
      "name": "periodFraction",
      "outputs": [
        {
          "internalType": "uint256",
          "name": "",
          "type": "uint256"
        }
      ],
      "stateMutability": "view",
      "type": "function"
    },
    {
      "inputs": [
        {
          "internalType": "address",
          "name": "owner",
          "type": "address"
        },
        {
          "internalType": "address",
          "name": "spender",
          "type": "address"
        },
        {
          "internalType": "uint256",
          "name": "value",
          "type": "uint256"
        },
        {
          "internalType": "uint256",
          "name": "deadline",
          "type": "uint256"
        },
        {
          "internalType": "uint8",
          "name": "v",
          "type": "uint8"
        },
        {
          "internalType": "bytes32",
          "name": "r",
          "type": "bytes32"
        },
        {
          "internalType": "bytes32",
          "name": "s",
          "type": "bytes32"
        }
      ],
      "name": "permit",
      "outputs": [],
      "stateMutability": "nonpayable",
      "type": "function"
    },
    {
      "inputs": [
        {
          "internalType": "bytes32",
          "name": "role",
          "type": "bytes32"
        },
        {
          "internalType": "address",
          "name": "account",
          "type": "address"
        }
      ],
      "name": "renounceRole",
      "outputs": [],
      "stateMutability": "nonpayable",
      "type": "function"
    },
    {
      "inputs": [
        {
          "internalType": "address",
          "name": "addr",
          "type": "address"
        },
        {
          "internalType": "uint256",
          "name": "amount",
          "type": "uint256"
        }
      ],
      "name": "restrict",
      "outputs": [],
      "stateMutability": "nonpayable",
      "type": "function"
    },
    {
      "inputs": [
        {
          "internalType": "bytes32",
          "name": "role",
          "type": "bytes32"
        },
        {
          "internalType": "address",
          "name": "account",
          "type": "address"
        }
      ],
      "name": "revokeRole",
      "outputs": [],
      "stateMutability": "nonpayable",
      "type": "function"
    },
    {
      "inputs": [
        {
          "internalType": "uint256",
          "name": "fraction",
          "type": "uint256"
        }
      ],
      "name": "setPeriodTransferLimit",
      "outputs": [],
      "stateMutability": "nonpayable",
      "type": "function"
    },
    {
      "inputs": [
        {
          "internalType": "uint256",
          "name": "_feeAmount",
          "type": "uint256"
        },
        {
          "internalType": "uint256",
          "name": "_feeFraction",
          "type": "uint256"
        },
        {
          "internalType": "address",
          "name": "_feeReceiver",
          "type": "address"
        }
      ],
      "name": "setTransactionFee",
      "outputs": [],
      "stateMutability": "nonpayable",
      "type": "function"
    },
    {
      "inputs": [
        {
          "internalType": "bytes4",
          "name": "interfaceId",
          "type": "bytes4"
        }
      ],
      "name": "supportsInterface",
      "outputs": [
        {
          "internalType": "bool",
          "name": "",
          "type": "bool"
        }
      ],
      "stateMutability": "view",
      "type": "function"
    },
    {
      "inputs": [],
      "name": "symbol",
      "outputs": [
        {
          "internalType": "string",
          "name": "",
          "type": "string"
        }
      ],
      "stateMutability": "view",
      "type": "function"
    },
    {
      "inputs": [],
      "name": "totalSupply",
      "outputs": [
        {
          "internalType": "uint256",
          "name": "",
          "type": "uint256"
        }
      ],
      "stateMutability": "view",
      "type": "function"
    },
    {
      "inputs": [
        {
          "internalType": "uint256",
          "name": "transferingAmount",
          "type": "uint256"
        }
      ],
      "name": "transactionFee",
      "outputs": [
        {
          "internalType": "uint256",
          "name": "fee",
          "type": "uint256"
        }
      ],
      "stateMutability": "view",
      "type": "function"
    },
    {
      "inputs": [
        {
          "internalType": "address",
          "name": "to",
          "type": "address"
        },
        {
          "internalType": "uint256",
          "name": "amount",
          "type": "uint256"
        }
      ],
      "name": "transfer",
      "outputs": [
        {
          "internalType": "bool",
          "name": "",
          "type": "bool"
        }
      ],
      "stateMutability": "nonpayable",
      "type": "function"
    },
    {
      "inputs": [
        {
          "internalType": "address",
          "name": "from",
          "type": "address"
        },
        {
          "internalType": "address",
          "name": "to",
          "type": "address"
        },
        {
          "internalType": "uint256",
          "name": "amount",
          "type": "uint256"
        }
      ],
      "name": "transferFrom",
      "outputs": [
        {
          "internalType": "bool",
          "name": "",
          "type": "bool"
        }
      ],
      "stateMutability": "nonpayable",
      "type": "function"
    }
  ],
  "bytecode": "0x6101a06040523480156200001257600080fd5b506040516200320238038062003202833981016040819052620000359162000437565b816040518060400160405280600f81526020016e109bdd5b991b195cdcc815dbdc9b19608a1b81525080604051806040016040528060018152602001603160f81b81525062000089620002d860201b60201c565b6200009690600a62000589565b620000a69063dbf0ee806200059a565b6040518060400160405280600f81526020016e109bdd5b991b195cdcc815dbdc9b19608a1b8152506040518060400160405280600381526020016221262160e91b8152508160039081620000fb919062000660565b5060046200010a828262000660565b50505060008111620001625760405162461bcd60e51b815260206004820152601560248201527f45524332304361707065643a2063617020697320300000000000000000000000604482015260640160405180910390fd5b60805281516020808401919091208251918301919091206101008290526101208190524660c0527f8b73c3c69bb8fe3d512ecc4cf759cc79239f7b179b0ffacaa9a75d522b39400f620001fa8184846040805160208101859052908101839052606081018290524660808201523060a082015260009060c0016040516020818303038152906040528051906020012090509392505050565b60a0523060e05261014052505042610160525050506101805262000220600082620002dd565b6200024c7f9f2df0fed2c77648de5860a4cc508cd0818c85b8b8a1ab4ceeef8d981c8956a682620002dd565b620002787fd0ac125722f4b4565ab5e91b234e50c4c6f541672aea816ba090a0ea349ed93f82620002dd565b620002a47fb24c1025622fe38445b605f5c1a9bb02be7f6522d24c8a159e5e47e62dbaaecf82620002dd565b620002d07f23ab0e580195340a5a67800cafa0615701edfa22f79534a52851336e3cf8376a82620002dd565b50506200072c565b601290565b620002f482826200032060201b6200103f1760201c565b60008281526008602090815260409091206200031b918390620010c5620003c5821b17901c565b505050565b60008281526007602090815260408083206001600160a01b038516845290915290205460ff16620003c15760008281526007602090815260408083206001600160a01b03851684529091529020805460ff19166001179055620003803390565b6001600160a01b0316816001600160a01b0316837f2f8788117e7eff1d82e926ec794901d17c78024a50270940304540a733656f0d60405160405180910390a45b5050565b6000620003dc836001600160a01b038416620003e5565b90505b92915050565b60008181526001830160205260408120546200042e57508154600181810184556000848152602080822090930184905584548482528286019093526040902091909155620003df565b506000620003df565b600080604083850312156200044b57600080fd5b825160208401519092506001600160a01b03811681146200046b57600080fd5b809150509250929050565b634e487b7160e01b600052601160045260246000fd5b600181815b80851115620004cd578160001904821115620004b157620004b162000476565b80851615620004bf57918102915b93841c939080029062000491565b509250929050565b600082620004e657506001620003df565b81620004f557506000620003df565b81600181146200050e5760028114620005195762000539565b6001915050620003df565b60ff8411156200052d576200052d62000476565b50506001821b620003df565b5060208310610133831016604e8410600b84101617156200055e575081810a620003df565b6200056a83836200048c565b806000190482111562000581576200058162000476565b029392505050565b6000620003dc60ff841683620004d5565b6000816000190483118215151615620005b757620005b762000476565b500290565b634e487b7160e01b600052604160045260246000fd5b600181811c90821680620005e757607f821691505b6020821081036200060857634e487b7160e01b600052602260045260246000fd5b50919050565b601f8211156200031b57600081815260208120601f850160051c81016020861015620006375750805b601f850160051c820191505b81811015620006585782815560010162000643565b505050505050565b81516001600160401b038111156200067c576200067c620005bc565b62000694816200068d8454620005d2565b846200060e565b602080601f831160018114620006cc5760008415620006b35750858301515b600019600386901b1c1916600185901b17855562000658565b600085815260208120601f198616915b82811015620006fd57888601518255948401946001909101908401620006dc565b50858210156200071c5787850151600019600388901b60f8161c191681555b5050505050600190811b01905550565b60805160a05160c05160e0516101005161012051610140516101605161018051612a49620007b9600039600081816107df01526121e401526000818161080301526122080152600061151701526000611566015260006115410152600061149a015260006114c4015260006114ee0152600081816103940152818161078d01526119cf0152612a496000f3fe608060405234801561001057600080fd5b50600436106102535760003560e01c806351bcee2711610146578063a9059cbb116100c3578063d539139311610087578063d53913931461058f578063d547741f146105a4578063dd62ed3e146105b7578063e162533c146105ca578063f74929e0146105dd578063fd994c20146105e657600080fd5b8063a9059cbb14610530578063b6afc4dc14610543578063c01bc98214610556578063ca15c87314610569578063d505accf1461057c57600080fd5b80639010d07c1161010a5780639010d07c146104cf57806391d14854146104fa57806395d89b411461050d578063a217fddf14610515578063a457c2d71461051d57600080fd5b806351bcee27146104465780635d1edb871461046d57806370a082311461048057806379cc6790146104a95780637ecebe00146104bc57600080fd5b80632f2ff15d116101d4578063367065de11610198578063367065de146103d357806339509351146103e65780633e0b2cda146103f957806340c10f191461042057806342966c681461043357600080fd5b80632f2ff15d14610370578063313ce56714610383578063355274ea146103925780633644e515146103b857806336568abe146103c057600080fd5b806318160ddd1161021b57806318160ddd146102f25780631f2c5443146102fa578063234eaedc1461032757806323b872dd1461033a578063248a9ca31461034d57600080fd5b806301ffc9a71461025857806306fdde0314610280578063095ea7b3146102955780630ecbd033146102a85780631681f830146102dd575b600080fd5b61026b6102663660046124f9565b6105f9565b60405190151581526020015b60405180910390f35b610288610624565b604051610277919061254f565b61026b6102a3366004612599565b6106b6565b6102cf7fd0ac125722f4b4565ab5e91b234e50c4c6f541672aea816ba090a0ea349ed93f81565b604051908152602001610277565b6102f06102eb366004612599565b6106ce565b005b6002546102cf565b600a54600954600b546040805193845260208401929092526001600160a01b031690820152606001610277565b6102cf6103353660046125c3565b61074c565b61026b6103483660046125de565b6108ce565b6102cf61035b36600461261a565b60009081526007602052604090206001015490565b6102f061037e366004612633565b6108f2565b60405160128152602001610277565b7f00000000000000000000000000000000000000000000000000000000000000006102cf565b6102cf61091c565b6102f06103ce366004612633565b61092b565b6102f06103e136600461265f565b6109ae565b61026b6103f4366004612599565b610b42565b6102cf7fb24c1025622fe38445b605f5c1a9bb02be7f6522d24c8a159e5e47e62dbaaecf81565b6102f061042e366004612599565b610b64565b6102f061044136600461261a565b610b86565b6102cf7f23ab0e580195340a5a67800cafa0615701edfa22f79534a52851336e3cf8376a81565b6102cf61047b36600461261a565b610b93565b6102cf61048e3660046125c3565b6001600160a01b031660009081526020819052604090205490565b6102f06104b7366004612599565b610bca565b6102cf6104ca3660046125c3565b610bdf565b6104e26104dd366004612694565b610bfd565b6040516001600160a01b039091168152602001610277565b61026b610508366004612633565b610c1c565b610288610c47565b6102cf600081565b61026b61052b366004612599565b610c56565b61026b61053e366004612599565b610cd1565b6102f06105513660046126b6565b610cdf565b61026b6105643660046125c3565b610d53565b6102cf61057736600461261a565b610d60565b6102f061058a366004612731565b610d77565b6102cf6000805160206129d483398151915281565b6102f06105b2366004612633565b610edb565b6102cf6105c53660046127a4565b610f00565b6102f06105d83660046125c3565b610f2b565b6102cf60105481565b6102f06105f436600461261a565b610f60565b60006001600160e01b03198216635a05180f60e01b148061061e575061061e826110da565b92915050565b606060038054610633906127ce565b80601f016020809104026020016040519081016040528092919081815260200182805461065f906127ce565b80156106ac5780601f10610681576101008083540402835291602001916106ac565b820191906000526020600020905b81548152906001019060200180831161068f57829003601f168201915b5050505050905090565b6000336106c481858561110f565b5060019392505050565b7f23ab0e580195340a5a67800cafa0615701edfa22f79534a52851336e3cf8376a6106f881611234565b610704600c848461123e565b50604080516001600160a01b0385168152602081018490527fa1b8d777c2527547849718a04f45b8e5b0f29119c47f9298b20a85f0ad275424910160405180910390a1505050565b600061075782610d53565b156107675761061e600c83611254565b61077f6000805160206129d483398151915283610c1c565b156107b15760025461061e907f0000000000000000000000000000000000000000000000000000000000000000612818565b601054620f4240036107db576001600160a01b03821660009081526020819052604090205461061e565b60007f00000000000000000000000000000000000000000000000000000000000000006108287f000000000000000000000000000000000000000000000000000000000000000042612818565b610832919061282f565b6001600160a01b0384166000908152600f60205260409020600101540361086e57506001600160a01b0382166000908152600f60205260409020545b6000620f424060105483610897876001600160a01b031660009081526020819052604090205490565b6108a19190612851565b6108ab9190612869565b6108b5919061282f565b90506108c18282612818565b949350505050565b919050565b6000336108dc858285611269565b6108e78585856112e3565b506001949350505050565b60008281526007602052604090206001015461090d81611234565b610917838361146b565b505050565b600061092661148d565b905090565b6001600160a01b03811633146109a05760405162461bcd60e51b815260206004820152602f60248201527f416363657373436f6e74726f6c3a2063616e206f6e6c792072656e6f756e636560448201526e103937b632b9903337b91039b2b63360891b60648201526084015b60405180910390fd5b6109aa82826115b4565b5050565b7fd0ac125722f4b4565ab5e91b234e50c4c6f541672aea816ba090a0ea349ed93f6109d881611234565b8215806109e3575083155b610a635760405162461bcd60e51b815260206004820152604560248201527f5472616e73616374696f6e4665653a2043616e6e6f742073657420666565416d60448201527f6f756e7420616e64206665654672616374696f6e206174207468652073616d656064820152642074696d6560d81b608482015260a401610997565b620186a0831115610ad25760405162461bcd60e51b815260206004820152603360248201527f5472616e73616374696f6e4665653a20557020746f20313025207472616e736160448201527218dd1a5bdb9199594818d85b881899481cd95d606a1b6064820152608401610997565b600a8490556009839055600b80546001600160a01b0319166001600160a01b0384169081179091556040805186815260208101869052908101919091527fd75a7916f83ee976ae8e04e3f9b46c9b16b546303f09f1fc20eccb6cd6bc476d9060600160405180910390a150505050565b6000336106c4818585610b558383610f00565b610b5f9190612851565b61110f565b6000805160206129d4833981519152610b7c81611234565b61091783836115d6565b610b9033826115e0565b50565b600a5460009015610ba6575050600a5490565b600954156108c957620f424060095483610bc09190612869565b61061e919061282f565b610bd5823383611269565b6109aa82826115e0565b6001600160a01b03811660009081526005602052604081205461061e565b6000828152600860205260408120610c159083611728565b9392505050565b60009182526007602090815260408084206001600160a01b0393909316845291905290205460ff1690565b606060048054610633906127ce565b60003381610c648286610f00565b905083811015610cc45760405162461bcd60e51b815260206004820152602560248201527f45524332303a2064656372656173656420616c6c6f77616e63652062656c6f77604482015264207a65726f60d81b6064820152608401610997565b6108e7828686840361110f565b6000336106c48185856112e3565b6000805160206129d4833981519152610cf781611234565b60005b61ffff8116841115610d4c57610d3a85858361ffff16818110610d1f57610d1f612888565b9050602002016020810190610d3491906125c3565b846115d6565b80610d448161289e565b915050610cfa565b5050505050565b600061061e600c83611734565b600081815260086020526040812061061e90611749565b83421115610dc75760405162461bcd60e51b815260206004820152601d60248201527f45524332305065726d69743a206578706972656420646561646c696e650000006044820152606401610997565b60007f6e71edae12b1b97f4d1f60370fef10105fa2faae0126114a169c64845d6126c9888888610df68c611753565b6040805160208101969096526001600160a01b0394851690860152929091166060840152608083015260a082015260c0810186905260e0016040516020818303038152906040528051906020012090506000610e518261177b565b90506000610e61828787876117c9565b9050896001600160a01b0316816001600160a01b031614610ec45760405162461bcd60e51b815260206004820152601e60248201527f45524332305065726d69743a20696e76616c6964207369676e617475726500006044820152606401610997565b610ecf8a8a8a61110f565b50505050505050505050565b600082815260076020526040902060010154610ef681611234565b61091783836115b4565b6001600160a01b03918216600090815260016020908152604080832093909416825291909152205490565b7f23ab0e580195340a5a67800cafa0615701edfa22f79534a52851336e3cf8376a610f5581611234565b610917600c836117f1565b7fb24c1025622fe38445b605f5c1a9bb02be7f6522d24c8a159e5e47e62dbaaecf610f8a81611234565b620f42408211156110035760405162461bcd60e51b815260206004820152603a60248201527f5472616e73666572436f6e74726f6c3a206d6178696d756d206672616374696f60448201527f6e2069732031302a2a362028657175616c20746f2031303025290000000000006064820152608401610997565b60108290556040518281527f7025f81caad8761dc7204a14b68839d79d88ae32061f4270bef92e20d4f585e79060200160405180910390a15050565b6110498282610c1c565b6109aa5760008281526007602090815260408083206001600160a01b03851684529091529020805460ff191660011790556110813390565b6001600160a01b0316816001600160a01b0316837f2f8788117e7eff1d82e926ec794901d17c78024a50270940304540a733656f0d60405160405180910390a45050565b6000610c15836001600160a01b038416611806565b60006001600160e01b03198216637965db0b60e01b148061061e57506301ffc9a760e01b6001600160e01b031983161461061e565b6001600160a01b0383166111715760405162461bcd60e51b8152602060048201526024808201527f45524332303a20617070726f76652066726f6d20746865207a65726f206164646044820152637265737360e01b6064820152608401610997565b6001600160a01b0382166111d25760405162461bcd60e51b815260206004820152602260248201527f45524332303a20617070726f766520746f20746865207a65726f206164647265604482015261737360f01b6064820152608401610997565b6001600160a01b0383811660008181526001602090815260408083209487168084529482529182902085905590518481527f8c5be1e5ebec7d5bd14f71427d1e84f3dd0314c0f7b2291e5b200ac8c7c3b92591015b60405180910390a3505050565b610b908133611855565b60006108c1846001600160a01b038516846118b9565b6000610c15836001600160a01b0384166118d6565b60006112758484610f00565b905060001981146112dd57818110156112d05760405162461bcd60e51b815260206004820152601d60248201527f45524332303a20696e73756666696369656e7420616c6c6f77616e63650000006044820152606401610997565b6112dd848484840361110f565b50505050565b6001600160a01b0383166113475760405162461bcd60e51b815260206004820152602560248201527f45524332303a207472616e736665722066726f6d20746865207a65726f206164604482015264647265737360d81b6064820152608401610997565b6001600160a01b0382166113a95760405162461bcd60e51b815260206004820152602360248201527f45524332303a207472616e7366657220746f20746865207a65726f206164647260448201526265737360e81b6064820152608401610997565b6113b4838383611946565b6001600160a01b038316600090815260208190526040902054818110156113ed5760405162461bcd60e51b8152600401610997906128bf565b6001600160a01b03808516600090815260208190526040808220858503905591851681529081208054849290611424908490612851565b92505081905550826001600160a01b0316846001600160a01b03166000805160206129f48339815191528460405161145e91815260200190565b60405180910390a36112dd565b611475828261103f565b600082815260086020526040902061091790826110c5565b6000306001600160a01b037f0000000000000000000000000000000000000000000000000000000000000000161480156114e657507f000000000000000000000000000000000000000000000000000000000000000046145b1561151057507f000000000000000000000000000000000000000000000000000000000000000090565b50604080517f00000000000000000000000000000000000000000000000000000000000000006020808301919091527f0000000000000000000000000000000000000000000000000000000000000000828401527f000000000000000000000000000000000000000000000000000000000000000060608301524660808301523060a0808401919091528351808403909101815260c0909201909252805191012090565b6115be8282611951565b600082815260086020526040902061091790826119b8565b6109aa82826119cd565b6001600160a01b0382166116405760405162461bcd60e51b815260206004820152602160248201527f45524332303a206275726e2066726f6d20746865207a65726f206164647265736044820152607360f81b6064820152608401610997565b61164c82600083611946565b6001600160a01b038216600090815260208190526040902054818110156116c05760405162461bcd60e51b815260206004820152602260248201527f45524332303a206275726e20616d6f756e7420657863656564732062616c616e604482015261636560f01b6064820152608401610997565b6001600160a01b03831660009081526020819052604081208383039055600280548492906116ef908490612818565b90915550506040518281526000906001600160a01b038516906000805160206129f48339815191529060200160405180910390a3505050565b6000610c158383611a5a565b6000610c15836001600160a01b038416611a84565b600061061e825490565b6001600160a01b03811660009081526005602052604090208054600181018255905b50919050565b600061061e61178861148d565b8360405161190160f01b6020820152602281018390526042810182905260009060620160405160208183030381529060405280519060200120905092915050565b60008060006117da87878787611a90565b915091506117e781611b7d565b5095945050505050565b6000610c15836001600160a01b038416611d33565b600081815260018301602052604081205461184d5750815460018181018455600084815260208082209093018490558454848252828601909352604090209190915561061e565b50600061061e565b61185f8282610c1c565b6109aa57611877816001600160a01b03166014611d50565b611882836020611d50565b604051602001611893929190612905565b60408051601f198184030181529082905262461bcd60e51b82526109979160040161254f565b600082815260028401602052604081208290556108c18484611eec565b6000818152600283016020526040812054801515806118fa57506118fa8484611a84565b610c155760405162461bcd60e51b815260206004820152601e60248201527f456e756d657261626c654d61703a206e6f6e6578697374656e74206b657900006044820152606401610997565b610917838383611ef8565b61195b8282610c1c565b156109aa5760008281526007602090815260408083206001600160a01b0385168085529252808320805460ff1916905551339285917ff6391f5c32d9c69d2a47ea670b442974b53935d1edc7fd64eb21e047a839171b9190a45050565b6000610c15836001600160a01b038416611f2a565b7f0000000000000000000000000000000000000000000000000000000000000000816119f860025490565b611a029190612851565b1115611a505760405162461bcd60e51b815260206004820152601960248201527f45524332304361707065643a20636170206578636565646564000000000000006044820152606401610997565b6109aa828261201d565b6000826000018281548110611a7157611a71612888565b9060005260206000200154905092915050565b6000610c1583836120f6565b6000807f7fffffffffffffffffffffffffffffff5d576e7357a4501ddfe92f46681b20a0831115611ac75750600090506003611b74565b8460ff16601b14158015611adf57508460ff16601c14155b15611af05750600090506004611b74565b6040805160008082526020820180845289905260ff881692820192909252606081018690526080810185905260019060a0016020604051602081039080840390855afa158015611b44573d6000803e3d6000fd5b5050604051601f1901519150506001600160a01b038116611b6d57600060019250925050611b74565b9150600090505b94509492505050565b6000816004811115611b9157611b9161297a565b03611b995750565b6001816004811115611bad57611bad61297a565b03611bfa5760405162461bcd60e51b815260206004820152601860248201527f45434453413a20696e76616c6964207369676e617475726500000000000000006044820152606401610997565b6002816004811115611c0e57611c0e61297a565b03611c5b5760405162461bcd60e51b815260206004820152601f60248201527f45434453413a20696e76616c6964207369676e6174757265206c656e677468006044820152606401610997565b6003816004811115611c6f57611c6f61297a565b03611cc75760405162461bcd60e51b815260206004820152602260248201527f45434453413a20696e76616c6964207369676e6174757265202773272076616c604482015261756560f01b6064820152608401610997565b6004816004811115611cdb57611cdb61297a565b03610b905760405162461bcd60e51b815260206004820152602260248201527f45434453413a20696e76616c6964207369676e6174757265202776272076616c604482015261756560f01b6064820152608401610997565b60008181526002830160205260408120819055610c15838361210e565b60606000611d5f836002612869565b611d6a906002612851565b67ffffffffffffffff811115611d8257611d82612990565b6040519080825280601f01601f191660200182016040528015611dac576020820181803683370190505b509050600360fc1b81600081518110611dc757611dc7612888565b60200101906001600160f81b031916908160001a905350600f60fb1b81600181518110611df657611df6612888565b60200101906001600160f81b031916908160001a9053506000611e1a846002612869565b611e25906001612851565b90505b6001811115611e9d576f181899199a1a9b1b9c1cb0b131b232b360811b85600f1660108110611e5957611e59612888565b1a60f81b828281518110611e6f57611e6f612888565b60200101906001600160f81b031916908160001a90535060049490941c93611e96816129a6565b9050611e28565b508315610c155760405162461bcd60e51b815260206004820181905260248201527f537472696e67733a20686578206c656e67746820696e73756666696369656e746044820152606401610997565b6000610c158383611806565b6001600160a01b038316611f1557611f10338261211a565b611f1f565b611f1f838261211a565b610917838383612379565b60008181526001830160205260408120548015612013576000611f4e600183612818565b8554909150600090611f6290600190612818565b9050818114611fc7576000866000018281548110611f8257611f82612888565b9060005260206000200154905080876000018481548110611fa557611fa5612888565b6000918252602080832090910192909255918252600188019052604090208390555b8554869080611fd857611fd86129bd565b60019003818190600052602060002001600090559055856001016000868152602001908152602001600020600090556001935050505061061e565b600091505061061e565b6001600160a01b0382166120735760405162461bcd60e51b815260206004820152601f60248201527f45524332303a206d696e7420746f20746865207a65726f2061646472657373006044820152606401610997565b61207f60008383611946565b80600260008282546120919190612851565b90915550506001600160a01b038216600090815260208190526040812080548392906120be908490612851565b90915550506040518181526001600160a01b038316906000906000805160206129f48339815191529060200160405180910390a35050565b60008181526001830160205260408120541515610c15565b6000610c158383611f2a565b61212382610d53565b156121b2576000612135600c84611254565b90508082111561219b5760405162461bcd60e51b815260206004820152602b60248201527f5472616e73666572436f6e74726f6c3a20616d6f756e7420657863656564732060448201526a1cdc195b99081b1a5b5a5d60aa1b6064820152608401610997565b6112dd836121a98484612818565b600c919061123e565b620f42406010541080156121db57506121d96000805160206129d483398151915233610c1c565b155b156109aa5760007f000000000000000000000000000000000000000000000000000000000000000061222d7f000000000000000000000000000000000000000000000000000000000000000042612818565b612237919061282f565b6001600160a01b0384166000908152600f60205260408120600101549192509082900361227957506001600160a01b0383166000908152600f60205260409020545b60006122858483612851565b90506000620f4240601054846122b0896001600160a01b031660009081526020819052604090205490565b6122ba9190612851565b6122c49190612869565b6122ce919061282f565b90508082111561233b5760405162461bcd60e51b815260206004820152603260248201527f5472616e73666572436f6e74726f6c3a20616d6f756e742065786365656473206044820152711c195c9a5bd9081cdc195b99081b1a5b5a5d60721b6064820152608401610997565b5060408051808201825291825260208083019485526001600160a01b0387166000908152600f90915220905181559151600190920191909155505050565b61091733826123966000805160206129d483398151915283610c1c565b6109aa57600060095411806123ad57506000600a54115b156109aa5760006123bd82610b93565b600b549091506109179084906001600160a01b0316836109178383836123e3838261211a565b6109178383836001600160a01b03831615612454576001600160a01b038316600090815260208190526040902054818110156124315760405162461bcd60e51b8152600401610997906128bf565b6001600160a01b038416600090815260208190526040902090829003905561246c565b80600260008282546124669190612851565b90915550505b6001600160a01b038216156124ae576001600160a01b038216600090815260208190526040812080548392906124a3908490612851565b909155506124c69050565b80600260008282546124c09190612818565b90915550505b816001600160a01b0316836001600160a01b03166000805160206129f48339815191528360405161122791815260200190565b60006020828403121561250b57600080fd5b81356001600160e01b031981168114610c1557600080fd5b60005b8381101561253e578181015183820152602001612526565b838111156112dd5750506000910152565b602081526000825180602084015261256e816040850160208701612523565b601f01601f19169190910160400192915050565b80356001600160a01b03811681146108c957600080fd5b600080604083850312156125ac57600080fd5b6125b583612582565b946020939093013593505050565b6000602082840312156125d557600080fd5b610c1582612582565b6000806000606084860312156125f357600080fd5b6125fc84612582565b925061260a60208501612582565b9150604084013590509250925092565b60006020828403121561262c57600080fd5b5035919050565b6000806040838503121561264657600080fd5b8235915061265660208401612582565b90509250929050565b60008060006060848603121561267457600080fd5b833592506020840135915061268b60408501612582565b90509250925092565b600080604083850312156126a757600080fd5b50508035926020909101359150565b6000806000604084860312156126cb57600080fd5b833567ffffffffffffffff808211156126e357600080fd5b818601915086601f8301126126f757600080fd5b81358181111561270657600080fd5b8760208260051b850101111561271b57600080fd5b6020928301989097509590910135949350505050565b600080600080600080600060e0888a03121561274c57600080fd5b61275588612582565b965061276360208901612582565b95506040880135945060608801359350608088013560ff8116811461278757600080fd5b9699959850939692959460a0840135945060c09093013592915050565b600080604083850312156127b757600080fd5b6127c083612582565b915061265660208401612582565b600181811c908216806127e257607f821691505b60208210810361177557634e487b7160e01b600052602260045260246000fd5b634e487b7160e01b600052601160045260246000fd5b60008282101561282a5761282a612802565b500390565b60008261284c57634e487b7160e01b600052601260045260246000fd5b500490565b6000821982111561286457612864612802565b500190565b600081600019048311821515161561288357612883612802565b500290565b634e487b7160e01b600052603260045260246000fd5b600061ffff8083168181036128b5576128b5612802565b6001019392505050565b60208082526026908201527f45524332303a207472616e7366657220616d6f756e7420657863656564732062604082015265616c616e636560d01b606082015260800190565b7f416363657373436f6e74726f6c3a206163636f756e742000000000000000000081526000835161293d816017850160208801612523565b7001034b99036b4b9b9b4b733903937b6329607d1b601791840191820152835161296e816028840160208801612523565b01602801949350505050565b634e487b7160e01b600052602160045260246000fd5b634e487b7160e01b600052604160045260246000fd5b6000816129b5576129b5612802565b506000190190565b634e487b7160e01b600052603160045260246000fdfe9f2df0fed2c77648de5860a4cc508cd0818c85b8b8a1ab4ceeef8d981c8956a6ddf252ad1be2c89b69c2b068fc378daa952ba7f163c4a11628f55a4df523b3efa26469706673582212200d9ccb4f18469c8851566fc98695231f9f2b03a2689135349bb6f7889ad7fe6e64736f6c634300080f0033",
  "linkReferences": {},
  "deployedLinkReferences": {}
}