{
  "_format": "hh-sol-artifact-1",
  "contractName": "BLBToken",
  "sourceName": "contracts/BEP20/BLBToken.sol",
  "abi": [
    {
      "inputs": [],
      "stateMutability": "nonpayable",
      "type": "constructor"
    },
    {
      "anonymous": false,
      "inputs": [
        {
          "indexed": true,
          "internalType": "address",
          "name": "owner",
          "type": "address"
        },
        {
          "indexed": true,
          "internalType": "address",
          "name": "spender",
          "type": "address"
        },
        {
          "indexed": false,
          "internalType": "uint256",
          "name": "value",
          "type": "uint256"
        }
      ],
      "name": "Approval",
      "type": "event"
    },
    {
      "anonymous": false,
      "inputs": [
        {
          "indexed": true,
          "internalType": "address",
          "name": "previousOwner",
          "type": "address"
        },
        {
          "indexed": true,
          "internalType": "address",
          "name": "newOwner",
          "type": "address"
        }
      ],
      "name": "OwnershipTransferred",
      "type": "event"
    },
    {
      "anonymous": false,
      "inputs": [
        {
          "indexed": false,
          "internalType": "address",
          "name": "account",
          "type": "address"
        }
      ],
      "name": "Paused",
      "type": "event"
    },
    {
      "anonymous": false,
      "inputs": [
        {
          "indexed": true,
          "internalType": "address",
          "name": "from",
          "type": "address"
        },
        {
          "indexed": true,
          "internalType": "address",
          "name": "to",
          "type": "address"
        },
        {
          "indexed": false,
          "internalType": "uint256",
          "name": "value",
          "type": "uint256"
        }
      ],
      "name": "Transfer",
      "type": "event"
    },
    {
      "anonymous": false,
      "inputs": [
        {
          "indexed": false,
          "internalType": "address",
          "name": "account",
          "type": "address"
        }
      ],
      "name": "Unpaused",
      "type": "event"
    },
    {
      "inputs": [],
      "name": "DOMAIN_SEPARATOR",
      "outputs": [
        {
          "internalType": "bytes32",
          "name": "",
          "type": "bytes32"
        }
      ],
      "stateMutability": "view",
      "type": "function"
    },
    {
      "inputs": [
        {
          "internalType": "address",
          "name": "owner",
          "type": "address"
        },
        {
          "internalType": "address",
          "name": "spender",
          "type": "address"
        }
      ],
      "name": "allowance",
      "outputs": [
        {
          "internalType": "uint256",
          "name": "",
          "type": "uint256"
        }
      ],
      "stateMutability": "view",
      "type": "function"
    },
    {
      "inputs": [
        {
          "internalType": "address",
          "name": "spender",
          "type": "address"
        },
        {
          "internalType": "uint256",
          "name": "amount",
          "type": "uint256"
        }
      ],
      "name": "approve",
      "outputs": [
        {
          "internalType": "bool",
          "name": "",
          "type": "bool"
        }
      ],
      "stateMutability": "nonpayable",
      "type": "function"
    },
    {
      "inputs": [
        {
          "internalType": "address",
          "name": "account",
          "type": "address"
        }
      ],
      "name": "balanceOf",
      "outputs": [
        {
          "internalType": "uint256",
          "name": "",
          "type": "uint256"
        }
      ],
      "stateMutability": "view",
      "type": "function"
    },
    {
      "inputs": [
        {
          "internalType": "uint256",
          "name": "amount",
          "type": "uint256"
        }
      ],
      "name": "burn",
      "outputs": [],
      "stateMutability": "nonpayable",
      "type": "function"
    },
    {
      "inputs": [
        {
          "internalType": "address",
          "name": "account",
          "type": "address"
        },
        {
          "internalType": "uint256",
          "name": "amount",
          "type": "uint256"
        }
      ],
      "name": "burnFrom",
      "outputs": [],
      "stateMutability": "nonpayable",
      "type": "function"
    },
    {
      "inputs": [],
      "name": "cap",
      "outputs": [
        {
          "internalType": "uint256",
          "name": "",
          "type": "uint256"
        }
      ],
      "stateMutability": "view",
      "type": "function"
    },
    {
      "inputs": [],
      "name": "decimals",
      "outputs": [
        {
          "internalType": "uint8",
          "name": "",
          "type": "uint8"
        }
      ],
      "stateMutability": "view",
      "type": "function"
    },
    {
      "inputs": [
        {
          "internalType": "address",
          "name": "spender",
          "type": "address"
        },
        {
          "internalType": "uint256",
          "name": "subtractedValue",
          "type": "uint256"
        }
      ],
      "name": "decreaseAllowance",
      "outputs": [
        {
          "internalType": "bool",
          "name": "",
          "type": "bool"
        }
      ],
      "stateMutability": "nonpayable",
      "type": "function"
    },
    {
      "inputs": [
        {
          "internalType": "address",
          "name": "spender",
          "type": "address"
        },
        {
          "internalType": "uint256",
          "name": "addedValue",
          "type": "uint256"
        }
      ],
      "name": "increaseAllowance",
      "outputs": [
        {
          "internalType": "bool",
          "name": "",
          "type": "bool"
        }
      ],
      "stateMutability": "nonpayable",
      "type": "function"
    },
    {
      "inputs": [
        {
          "internalType": "address",
          "name": "to",
          "type": "address"
        },
        {
          "internalType": "uint256",
          "name": "amount",
          "type": "uint256"
        }
      ],
      "name": "mint",
      "outputs": [],
      "stateMutability": "nonpayable",
      "type": "function"
    },
    {
      "inputs": [],
      "name": "name",
      "outputs": [
        {
          "internalType": "string",
          "name": "",
          "type": "string"
        }
      ],
      "stateMutability": "view",
      "type": "function"
    },
    {
      "inputs": [
        {
          "internalType": "address",
          "name": "owner",
          "type": "address"
        }
      ],
      "name": "nonces",
      "outputs": [
        {
          "internalType": "uint256",
          "name": "",
          "type": "uint256"
        }
      ],
      "stateMutability": "view",
      "type": "function"
    },
    {
      "inputs": [],
      "name": "owner",
      "outputs": [
        {
          "internalType": "address",
          "name": "",
          "type": "address"
        }
      ],
      "stateMutability": "view",
      "type": "function"
    },
    {
      "inputs": [],
      "name": "pause",
      "outputs": [],
      "stateMutability": "nonpayable",
      "type": "function"
    },
    {
      "inputs": [],
      "name": "paused",
      "outputs": [
        {
          "internalType": "bool",
          "name": "",
          "type": "bool"
        }
      ],
      "stateMutability": "view",
      "type": "function"
    },
    {
      "inputs": [
        {
          "internalType": "address",
          "name": "owner",
          "type": "address"
        },
        {
          "internalType": "address",
          "name": "spender",
          "type": "address"
        },
        {
          "internalType": "uint256",
          "name": "value",
          "type": "uint256"
        },
        {
          "internalType": "uint256",
          "name": "deadline",
          "type": "uint256"
        },
        {
          "internalType": "uint8",
          "name": "v",
          "type": "uint8"
        },
        {
          "internalType": "bytes32",
          "name": "r",
          "type": "bytes32"
        },
        {
          "internalType": "bytes32",
          "name": "s",
          "type": "bytes32"
        }
      ],
      "name": "permit",
      "outputs": [],
      "stateMutability": "nonpayable",
      "type": "function"
    },
    {
      "inputs": [],
      "name": "renounceOwnership",
      "outputs": [],
      "stateMutability": "nonpayable",
      "type": "function"
    },
    {
      "inputs": [],
      "name": "symbol",
      "outputs": [
        {
          "internalType": "string",
          "name": "",
          "type": "string"
        }
      ],
      "stateMutability": "view",
      "type": "function"
    },
    {
      "inputs": [],
      "name": "totalSupply",
      "outputs": [
        {
          "internalType": "uint256",
          "name": "",
          "type": "uint256"
        }
      ],
      "stateMutability": "view",
      "type": "function"
    },
    {
      "inputs": [
        {
          "internalType": "address",
          "name": "to",
          "type": "address"
        },
        {
          "internalType": "uint256",
          "name": "amount",
          "type": "uint256"
        }
      ],
      "name": "transfer",
      "outputs": [
        {
          "internalType": "bool",
          "name": "",
          "type": "bool"
        }
      ],
      "stateMutability": "nonpayable",
      "type": "function"
    },
    {
      "inputs": [
        {
          "internalType": "address",
          "name": "from",
          "type": "address"
        },
        {
          "internalType": "address",
          "name": "to",
          "type": "address"
        },
        {
          "internalType": "uint256",
          "name": "amount",
          "type": "uint256"
        }
      ],
      "name": "transferFrom",
      "outputs": [
        {
          "internalType": "bool",
          "name": "",
          "type": "bool"
        }
      ],
      "stateMutability": "nonpayable",
      "type": "function"
    },
    {
      "inputs": [
        {
          "internalType": "address",
          "name": "newOwner",
          "type": "address"
        }
      ],
      "name": "transferOwnership",
      "outputs": [],
      "stateMutability": "nonpayable",
      "type": "function"
    },
    {
      "inputs": [],
      "name": "unpause",
      "outputs": [],
      "stateMutability": "nonpayable",
      "type": "function"
    }
  ],
  "bytecode": "0x6101606040523480156200001257600080fd5b506040518060400160405280600f81526020016e109bdd5b991b195cdcc815dbdc9b19608a1b81525080604051806040016040528060018152602001603160f81b815250620000666200020460201b60201c565b6200007390600a62000378565b620000839063dbf0ee8062000390565b6040518060400160405280600f81526020016e109bdd5b991b195cdcc815dbdc9b19608a1b8152506040518060400160405280600381526020016221262160e91b8152508160039081620000d8919062000457565b506004620000e7828262000457565b505050600081116200013f5760405162461bcd60e51b815260206004820152601560248201527f45524332304361707065643a2063617020697320300000000000000000000000604482015260640160405180910390fd5b60805281516020808401919091208251918301919091206101008290526101208190524660c0527f8b73c3c69bb8fe3d512ecc4cf759cc79239f7b179b0ffacaa9a75d522b39400f620001d78184846040805160208101859052908101839052606081018290524660808201523060a082015260009060c0016040516020818303038152906040528051906020012090509392505050565b60a0523060e0526101405250506007805460ff1916905550620001fe915033905062000209565b62000523565b601290565b600780546001600160a01b03838116610100818102610100600160a81b031985161790945560405193909204169182907f8be0079c531659141344cd1fd0a4f28419497f9722a3daafe3b4186f6b6457e090600090a35050565b634e487b7160e01b600052601160045260246000fd5b600181815b80851115620002ba5781600019048211156200029e576200029e62000263565b80851615620002ac57918102915b93841c93908002906200027e565b509250929050565b600082620002d35750600162000372565b81620002e25750600062000372565b8160018114620002fb5760028114620003065762000326565b600191505062000372565b60ff8411156200031a576200031a62000263565b50506001821b62000372565b5060208310610133831016604e8410600b84101617156200034b575081810a62000372565b62000357838362000279565b80600019048211156200036e576200036e62000263565b0290505b92915050565b60006200038960ff841683620002c2565b9392505050565b6000816000190483118215151615620003ad57620003ad62000263565b500290565b634e487b7160e01b600052604160045260246000fd5b600181811c90821680620003dd57607f821691505b602082108103620003fe57634e487b7160e01b600052602260045260246000fd5b50919050565b601f8211156200045257600081815260208120601f850160051c810160208610156200042d5750805b601f850160051c820191505b818110156200044e5782815560010162000439565b5050505b505050565b81516001600160401b03811115620004735762000473620003b2565b6200048b81620004848454620003c8565b8462000404565b602080601f831160018114620004c35760008415620004aa5750858301515b600019600386901b1c1916600185901b1785556200044e565b600085815260208120601f198616915b82811015620004f457888601518255948401946001909101908401620004d3565b5085821015620005135787850151600019600388901b60f8161c191681555b5050505050600190811b01905550565b60805160a05160c05160e051610100516101205161014051611680620005856000396000610b6c01526000610bbb01526000610b9601526000610aef01526000610b1901526000610b430152600081816101d40152610fa401526116806000f3fe608060405234801561001057600080fd5b50600436106101585760003560e01c806370a08231116100c357806395d89b411161007c57806395d89b41146102d6578063a457c2d7146102de578063a9059cbb146102f1578063d505accf14610304578063dd62ed3e14610317578063f2fde38b1461032a57600080fd5b806370a082311461024e578063715018a61461027757806379cc67901461027f5780637ecebe00146102925780638456cb59146102a55780638da5cb5b146102ad57600080fd5b80633644e515116101155780633644e515146101f857806339509351146102005780633f4ba83a1461021357806340c10f191461021d57806342966c68146102305780635c975abb1461024357600080fd5b806306fdde031461015d578063095ea7b31461017b57806318160ddd1461019e57806323b872dd146101b0578063313ce567146101c3578063355274ea146101d2575b600080fd5b61016561033d565b6040516101729190611403565b60405180910390f35b61018e610189366004611474565b6103cf565b6040519015158152602001610172565b6002545b604051908152602001610172565b61018e6101be36600461149e565b6103e7565b60405160128152602001610172565b7f00000000000000000000000000000000000000000000000000000000000000006101a2565b6101a261040b565b61018e61020e366004611474565b61041a565b61021b61043c565b005b61021b61022b366004611474565b61044e565b61021b61023e3660046114da565b610464565b60075460ff1661018e565b6101a261025c3660046114f3565b6001600160a01b031660009081526020819052604090205490565b61021b610471565b61021b61028d366004611474565b610483565b6101a26102a03660046114f3565b610498565b61021b6104b8565b60075461010090046001600160a01b03166040516001600160a01b039091168152602001610172565b6101656104c8565b61018e6102ec366004611474565b6104d7565b61018e6102ff366004611474565b610557565b61021b610312366004611515565b610565565b6101a2610325366004611588565b6106c9565b61021b6103383660046114f3565b6106f4565b60606003805461034c906115bb565b80601f0160208091040260200160405190810160405280929190818152602001828054610378906115bb565b80156103c55780601f1061039a576101008083540402835291602001916103c5565b820191906000526020600020905b8154815290600101906020018083116103a857829003601f168201915b5050505050905090565b6000336103dd81858561076a565b5060019392505050565b6000336103f585828561088f565b610400858585610909565b506001949350505050565b6000610415610ae2565b905090565b6000336103dd81858561042d83836106c9565b6104379190611605565b61076a565b610444610c09565b61044c610c69565b565b610456610c09565b6104608282610cbb565b5050565b61046e3382610cc5565b50565b610479610c09565b61044c6000610e17565b61048e82338361088f565b6104608282610cc5565b6001600160a01b0381166000908152600560205260408120545b92915050565b6104c0610c09565b61044c610e71565b60606004805461034c906115bb565b600033816104e582866106c9565b90508381101561054a5760405162461bcd60e51b815260206004820152602560248201527f45524332303a2064656372656173656420616c6c6f77616e63652062656c6f77604482015264207a65726f60d81b60648201526084015b60405180910390fd5b610400828686840361076a565b6000336103dd818585610909565b834211156105b55760405162461bcd60e51b815260206004820152601d60248201527f45524332305065726d69743a206578706972656420646561646c696e650000006044820152606401610541565b60007f6e71edae12b1b97f4d1f60370fef10105fa2faae0126114a169c64845d6126c98888886105e48c610eae565b6040805160208101969096526001600160a01b0394851690860152929091166060840152608083015260a082015260c0810186905260e001604051602081830303815290604052805190602001209050600061063f82610ed6565b9050600061064f82878787610f24565b9050896001600160a01b0316816001600160a01b0316146106b25760405162461bcd60e51b815260206004820152601e60248201527f45524332305065726d69743a20696e76616c6964207369676e617475726500006044820152606401610541565b6106bd8a8a8a61076a565b50505050505050505050565b6001600160a01b03918216600090815260016020908152604080832093909416825291909152205490565b6106fc610c09565b6001600160a01b0381166107615760405162461bcd60e51b815260206004820152602660248201527f4f776e61626c653a206e6577206f776e657220697320746865207a65726f206160448201526564647265737360d01b6064820152608401610541565b61046e81610e17565b6001600160a01b0383166107cc5760405162461bcd60e51b8152602060048201526024808201527f45524332303a20617070726f76652066726f6d20746865207a65726f206164646044820152637265737360e01b6064820152608401610541565b6001600160a01b03821661082d5760405162461bcd60e51b815260206004820152602260248201527f45524332303a20617070726f766520746f20746865207a65726f206164647265604482015261737360f01b6064820152608401610541565b6001600160a01b0383811660008181526001602090815260408083209487168084529482529182902085905590518481527f8c5be1e5ebec7d5bd14f71427d1e84f3dd0314c0f7b2291e5b200ac8c7c3b92591015b60405180910390a3505050565b600061089b84846106c9565b9050600019811461090357818110156108f65760405162461bcd60e51b815260206004820152601d60248201527f45524332303a20696e73756666696369656e7420616c6c6f77616e63650000006044820152606401610541565b610903848484840361076a565b50505050565b6001600160a01b03831661096d5760405162461bcd60e51b815260206004820152602560248201527f45524332303a207472616e736665722066726f6d20746865207a65726f206164604482015264647265737360d81b6064820152608401610541565b6001600160a01b0382166109cf5760405162461bcd60e51b815260206004820152602360248201527f45524332303a207472616e7366657220746f20746865207a65726f206164647260448201526265737360e81b6064820152608401610541565b6109da838383610f4c565b6001600160a01b03831660009081526020819052604090205481811015610a525760405162461bcd60e51b815260206004820152602660248201527f45524332303a207472616e7366657220616d6f756e7420657863656564732062604482015265616c616e636560d01b6064820152608401610541565b6001600160a01b03808516600090815260208190526040808220858503905591851681529081208054849290610a89908490611605565b92505081905550826001600160a01b0316846001600160a01b03167fddf252ad1be2c89b69c2b068fc378daa952ba7f163c4a11628f55a4df523b3ef84604051610ad591815260200190565b60405180910390a3610903565b6000306001600160a01b037f000000000000000000000000000000000000000000000000000000000000000016148015610b3b57507f000000000000000000000000000000000000000000000000000000000000000046145b15610b6557507f000000000000000000000000000000000000000000000000000000000000000090565b50604080517f00000000000000000000000000000000000000000000000000000000000000006020808301919091527f0000000000000000000000000000000000000000000000000000000000000000828401527f000000000000000000000000000000000000000000000000000000000000000060608301524660808301523060a0808401919091528351808403909101815260c0909201909252805191012090565b6007546001600160a01b0361010090910416331461044c5760405162461bcd60e51b815260206004820181905260248201527f4f776e61626c653a2063616c6c6572206973206e6f7420746865206f776e65726044820152606401610541565b610c71610f59565b6007805460ff191690557f5db9ee0a495bf2e6ff9c91a7834c1ba4fdd244a5e8aa4e537bd38aeae4b073aa335b6040516001600160a01b03909116815260200160405180910390a1565b6104608282610fa2565b6001600160a01b038216610d255760405162461bcd60e51b815260206004820152602160248201527f45524332303a206275726e2066726f6d20746865207a65726f206164647265736044820152607360f81b6064820152608401610541565b610d3182600083610f4c565b6001600160a01b03821660009081526020819052604090205481811015610da55760405162461bcd60e51b815260206004820152602260248201527f45524332303a206275726e20616d6f756e7420657863656564732062616c616e604482015261636560f01b6064820152608401610541565b6001600160a01b0383166000908152602081905260408120838303905560028054849290610dd490849061161d565b90915550506040518281526000906001600160a01b038516907fddf252ad1be2c89b69c2b068fc378daa952ba7f163c4a11628f55a4df523b3ef90602001610882565b600780546001600160a01b03838116610100818102610100600160a81b031985161790945560405193909204169182907f8be0079c531659141344cd1fd0a4f28419497f9722a3daafe3b4186f6b6457e090600090a35050565b610e7961102f565b6007805460ff191660011790557f62e78cea01bee320cd4e420270b5ea74000d11b0c9f74754ebdbfc544b05a258610c9e3390565b6001600160a01b03811660009081526005602052604090208054600181018255905b50919050565b60006104b2610ee3610ae2565b8360405161190160f01b6020820152602281018390526042810182905260009060620160405160208183030381529060405280519060200120905092915050565b6000806000610f3587878787611075565b91509150610f4281611162565b5095945050505050565b610f5461102f565b505050565b60075460ff1661044c5760405162461bcd60e51b815260206004820152601460248201527314185d5cd8589b194e881b9bdd081c185d5cd95960621b6044820152606401610541565b7f000000000000000000000000000000000000000000000000000000000000000081610fcd60025490565b610fd79190611605565b11156110255760405162461bcd60e51b815260206004820152601960248201527f45524332304361707065643a20636170206578636565646564000000000000006044820152606401610541565b6104608282611318565b60075460ff161561044c5760405162461bcd60e51b815260206004820152601060248201526f14185d5cd8589b194e881c185d5cd95960821b6044820152606401610541565b6000807f7fffffffffffffffffffffffffffffff5d576e7357a4501ddfe92f46681b20a08311156110ac5750600090506003611159565b8460ff16601b141580156110c457508460ff16601c14155b156110d55750600090506004611159565b6040805160008082526020820180845289905260ff881692820192909252606081018690526080810185905260019060a0016020604051602081039080840390855afa158015611129573d6000803e3d6000fd5b5050604051601f1901519150506001600160a01b03811661115257600060019250925050611159565b9150600090505b94509492505050565b600081600481111561117657611176611634565b0361117e5750565b600181600481111561119257611192611634565b036111df5760405162461bcd60e51b815260206004820152601860248201527f45434453413a20696e76616c6964207369676e617475726500000000000000006044820152606401610541565b60028160048111156111f3576111f3611634565b036112405760405162461bcd60e51b815260206004820152601f60248201527f45434453413a20696e76616c6964207369676e6174757265206c656e677468006044820152606401610541565b600381600481111561125457611254611634565b036112ac5760405162461bcd60e51b815260206004820152602260248201527f45434453413a20696e76616c6964207369676e6174757265202773272076616c604482015261756560f01b6064820152608401610541565b60048160048111156112c0576112c0611634565b0361046e5760405162461bcd60e51b815260206004820152602260248201527f45434453413a20696e76616c6964207369676e6174757265202776272076616c604482015261756560f01b6064820152608401610541565b6001600160a01b03821661136e5760405162461bcd60e51b815260206004820152601f60248201527f45524332303a206d696e7420746f20746865207a65726f2061646472657373006044820152606401610541565b61137a60008383610f4c565b806002600082825461138c9190611605565b90915550506001600160a01b038216600090815260208190526040812080548392906113b9908490611605565b90915550506040518181526001600160a01b038316906000907fddf252ad1be2c89b69c2b068fc378daa952ba7f163c4a11628f55a4df523b3ef9060200160405180910390a35050565b600060208083528351808285015260005b8181101561143057858101830151858201604001528201611414565b81811115611442576000604083870101525b50601f01601f1916929092016040019392505050565b80356001600160a01b038116811461146f57600080fd5b919050565b6000806040838503121561148757600080fd5b61149083611458565b946020939093013593505050565b6000806000606084860312156114b357600080fd5b6114bc84611458565b92506114ca60208501611458565b9150604084013590509250925092565b6000602082840312156114ec57600080fd5b5035919050565b60006020828403121561150557600080fd5b61150e82611458565b9392505050565b600080600080600080600060e0888a03121561153057600080fd5b61153988611458565b965061154760208901611458565b95506040880135945060608801359350608088013560ff8116811461156b57600080fd5b9699959850939692959460a0840135945060c09093013592915050565b6000806040838503121561159b57600080fd5b6115a483611458565b91506115b260208401611458565b90509250929050565b600181811c908216806115cf57607f821691505b602082108103610ed057634e487b7160e01b600052602260045260246000fd5b634e487b7160e01b600052601160045260246000fd5b60008219821115611618576116186115ef565b500190565b60008282101561162f5761162f6115ef565b500390565b634e487b7160e01b600052602160045260246000fdfea2646970667358221220fbc0dcb3bca6f6f2a5cab3bc0a92b7e17a73c20532b9307e560781169ff692cf64736f6c634300080f0033",
  "linkReferences": {},
  "deployedLinkReferences": {}
}