{
  "_format": "hh-sol-artifact-1",
  "contractName": "BLBToken",
  "sourceName": "contracts/BEP20/BLBToken.sol",
  "abi": [
    {
      "inputs": [
        {
          "internalType": "address",
          "name": "initialAdmin",
          "type": "address"
        }
      ],
      "stateMutability": "nonpayable",
      "type": "constructor"
    },
    {
      "anonymous": false,
      "inputs": [
        {
          "indexed": true,
          "internalType": "address",
          "name": "owner",
          "type": "address"
        },
        {
          "indexed": true,
          "internalType": "address",
          "name": "spender",
          "type": "address"
        },
        {
          "indexed": false,
          "internalType": "uint256",
          "name": "value",
          "type": "uint256"
        }
      ],
      "name": "Approval",
      "type": "event"
    },
    {
      "anonymous": false,
      "inputs": [
        {
          "indexed": true,
          "internalType": "bytes32",
          "name": "role",
          "type": "bytes32"
        },
        {
          "indexed": true,
          "internalType": "bytes32",
          "name": "previousAdminRole",
          "type": "bytes32"
        },
        {
          "indexed": true,
          "internalType": "bytes32",
          "name": "newAdminRole",
          "type": "bytes32"
        }
      ],
      "name": "RoleAdminChanged",
      "type": "event"
    },
    {
      "anonymous": false,
      "inputs": [
        {
          "indexed": true,
          "internalType": "bytes32",
          "name": "role",
          "type": "bytes32"
        },
        {
          "indexed": true,
          "internalType": "address",
          "name": "account",
          "type": "address"
        },
        {
          "indexed": true,
          "internalType": "address",
          "name": "sender",
          "type": "address"
        }
      ],
      "name": "RoleGranted",
      "type": "event"
    },
    {
      "anonymous": false,
      "inputs": [
        {
          "indexed": true,
          "internalType": "bytes32",
          "name": "role",
          "type": "bytes32"
        },
        {
          "indexed": true,
          "internalType": "address",
          "name": "account",
          "type": "address"
        },
        {
          "indexed": true,
          "internalType": "address",
          "name": "sender",
          "type": "address"
        }
      ],
      "name": "RoleRevoked",
      "type": "event"
    },
    {
      "anonymous": false,
      "inputs": [
        {
          "indexed": false,
          "internalType": "uint256",
          "name": "_feeAmount",
          "type": "uint256"
        },
        {
          "indexed": false,
          "internalType": "uint256",
          "name": "_feeFraction",
          "type": "uint256"
        },
        {
          "indexed": false,
          "internalType": "address",
          "name": "_feeReceiver",
          "type": "address"
        }
      ],
      "name": "SetTransactionFee",
      "type": "event"
    },
    {
      "anonymous": false,
      "inputs": [
        {
          "indexed": true,
          "internalType": "address",
          "name": "from",
          "type": "address"
        },
        {
          "indexed": true,
          "internalType": "address",
          "name": "to",
          "type": "address"
        },
        {
          "indexed": false,
          "internalType": "uint256",
          "name": "value",
          "type": "uint256"
        }
      ],
      "name": "Transfer",
      "type": "event"
    },
    {
      "inputs": [],
      "name": "DEFAULT_ADMIN_ROLE",
      "outputs": [
        {
          "internalType": "bytes32",
          "name": "",
          "type": "bytes32"
        }
      ],
      "stateMutability": "view",
      "type": "function"
    },
    {
      "inputs": [],
      "name": "DOMAIN_SEPARATOR",
      "outputs": [
        {
          "internalType": "bytes32",
          "name": "",
          "type": "bytes32"
        }
      ],
      "stateMutability": "view",
      "type": "function"
    },
    {
      "inputs": [],
      "name": "FEE_FREE_ROLE",
      "outputs": [
        {
          "internalType": "bytes32",
          "name": "",
          "type": "bytes32"
        }
      ],
      "stateMutability": "view",
      "type": "function"
    },
    {
      "inputs": [],
      "name": "MINTER_ROLE",
      "outputs": [
        {
          "internalType": "bytes32",
          "name": "",
          "type": "bytes32"
        }
      ],
      "stateMutability": "view",
      "type": "function"
    },
    {
      "inputs": [],
      "name": "FEE_SETTER_ROLE",
      "outputs": [
        {
          "internalType": "bytes32",
          "name": "",
          "type": "bytes32"
        }
      ],
      "stateMutability": "view",
      "type": "function"
    },
    {
      "inputs": [
        {
          "internalType": "address",
          "name": "owner",
          "type": "address"
        },
        {
          "internalType": "address",
          "name": "spender",
          "type": "address"
        }
      ],
      "name": "allowance",
      "outputs": [
        {
          "internalType": "uint256",
          "name": "",
          "type": "uint256"
        }
      ],
      "stateMutability": "view",
      "type": "function"
    },
    {
      "inputs": [
        {
          "internalType": "address",
          "name": "spender",
          "type": "address"
        },
        {
          "internalType": "uint256",
          "name": "amount",
          "type": "uint256"
        }
      ],
      "name": "approve",
      "outputs": [
        {
          "internalType": "bool",
          "name": "",
          "type": "bool"
        }
      ],
      "stateMutability": "nonpayable",
      "type": "function"
    },
    {
      "inputs": [
        {
          "internalType": "address",
          "name": "account",
          "type": "address"
        }
      ],
      "name": "balanceOf",
      "outputs": [
        {
          "internalType": "uint256",
          "name": "",
          "type": "uint256"
        }
      ],
      "stateMutability": "view",
      "type": "function"
    },
    {
      "inputs": [
        {
          "internalType": "uint256",
          "name": "amount",
          "type": "uint256"
        }
      ],
      "name": "burn",
      "outputs": [],
      "stateMutability": "nonpayable",
      "type": "function"
    },
    {
      "inputs": [
        {
          "internalType": "address",
          "name": "account",
          "type": "address"
        },
        {
          "internalType": "uint256",
          "name": "amount",
          "type": "uint256"
        }
      ],
      "name": "burnFrom",
      "outputs": [],
      "stateMutability": "nonpayable",
      "type": "function"
    },
    {
      "inputs": [],
      "name": "cap",
      "outputs": [
        {
          "internalType": "uint256",
          "name": "",
          "type": "uint256"
        }
      ],
      "stateMutability": "view",
      "type": "function"
    },
    {
      "inputs": [],
      "name": "decimals",
      "outputs": [
        {
          "internalType": "uint8",
          "name": "",
          "type": "uint8"
        }
      ],
      "stateMutability": "view",
      "type": "function"
    },
    {
      "inputs": [
        {
          "internalType": "address",
          "name": "spender",
          "type": "address"
        },
        {
          "internalType": "uint256",
          "name": "subtractedValue",
          "type": "uint256"
        }
      ],
      "name": "decreaseAllowance",
      "outputs": [
        {
          "internalType": "bool",
          "name": "",
          "type": "bool"
        }
      ],
      "stateMutability": "nonpayable",
      "type": "function"
    },
    {
      "inputs": [],
      "name": "feeDetails",
      "outputs": [
        {
          "internalType": "uint256",
          "name": "",
          "type": "uint256"
        },
        {
          "internalType": "uint256",
          "name": "",
          "type": "uint256"
        },
        {
          "internalType": "address",
          "name": "",
          "type": "address"
        }
      ],
      "stateMutability": "view",
      "type": "function"
    },
    {
      "inputs": [
        {
          "internalType": "bytes32",
          "name": "role",
          "type": "bytes32"
        }
      ],
      "name": "getRoleAdmin",
      "outputs": [
        {
          "internalType": "bytes32",
          "name": "",
          "type": "bytes32"
        }
      ],
      "stateMutability": "view",
      "type": "function"
    },
    {
      "inputs": [
        {
          "internalType": "bytes32",
          "name": "role",
          "type": "bytes32"
        },
        {
          "internalType": "uint256",
          "name": "index",
          "type": "uint256"
        }
      ],
      "name": "getRoleMember",
      "outputs": [
        {
          "internalType": "address",
          "name": "",
          "type": "address"
        }
      ],
      "stateMutability": "view",
      "type": "function"
    },
    {
      "inputs": [
        {
          "internalType": "bytes32",
          "name": "role",
          "type": "bytes32"
        }
      ],
      "name": "getRoleMemberCount",
      "outputs": [
        {
          "internalType": "uint256",
          "name": "",
          "type": "uint256"
        }
      ],
      "stateMutability": "view",
      "type": "function"
    },
    {
      "inputs": [
        {
          "internalType": "bytes32",
          "name": "role",
          "type": "bytes32"
        },
        {
          "internalType": "address",
          "name": "account",
          "type": "address"
        }
      ],
      "name": "grantRole",
      "outputs": [],
      "stateMutability": "nonpayable",
      "type": "function"
    },
    {
      "inputs": [
        {
          "internalType": "bytes32",
          "name": "role",
          "type": "bytes32"
        },
        {
          "internalType": "address",
          "name": "account",
          "type": "address"
        }
      ],
      "name": "hasRole",
      "outputs": [
        {
          "internalType": "bool",
          "name": "",
          "type": "bool"
        }
      ],
      "stateMutability": "view",
      "type": "function"
    },
    {
      "inputs": [
        {
          "internalType": "address",
          "name": "spender",
          "type": "address"
        },
        {
          "internalType": "uint256",
          "name": "addedValue",
          "type": "uint256"
        }
      ],
      "name": "increaseAllowance",
      "outputs": [
        {
          "internalType": "bool",
          "name": "",
          "type": "bool"
        }
      ],
      "stateMutability": "nonpayable",
      "type": "function"
    },
    {
      "inputs": [
        {
          "internalType": "address",
          "name": "account",
          "type": "address"
        },
        {
          "internalType": "uint256",
          "name": "amount",
          "type": "uint256"
        }
      ],
      "name": "mint",
      "outputs": [],
      "stateMutability": "nonpayable",
      "type": "function"
    },
    {
      "inputs": [
        {
          "internalType": "address[]",
          "name": "accounts",
          "type": "address[]"
        },
        {
          "internalType": "uint256",
          "name": "amount",
          "type": "uint256"
        }
      ],
      "name": "mintBatch",
      "outputs": [],
      "stateMutability": "nonpayable",
      "type": "function"
    },
    {
      "inputs": [],
      "name": "name",
      "outputs": [
        {
          "internalType": "string",
          "name": "",
          "type": "string"
        }
      ],
      "stateMutability": "view",
      "type": "function"
    },
    {
      "inputs": [
        {
          "internalType": "address",
          "name": "owner",
          "type": "address"
        }
      ],
      "name": "nonces",
      "outputs": [
        {
          "internalType": "uint256",
          "name": "",
          "type": "uint256"
        }
      ],
      "stateMutability": "view",
      "type": "function"
    },
    {
      "inputs": [
        {
          "internalType": "address",
          "name": "owner",
          "type": "address"
        },
        {
          "internalType": "address",
          "name": "spender",
          "type": "address"
        },
        {
          "internalType": "uint256",
          "name": "value",
          "type": "uint256"
        },
        {
          "internalType": "uint256",
          "name": "deadline",
          "type": "uint256"
        },
        {
          "internalType": "uint8",
          "name": "v",
          "type": "uint8"
        },
        {
          "internalType": "bytes32",
          "name": "r",
          "type": "bytes32"
        },
        {
          "internalType": "bytes32",
          "name": "s",
          "type": "bytes32"
        }
      ],
      "name": "permit",
      "outputs": [],
      "stateMutability": "nonpayable",
      "type": "function"
    },
    {
      "inputs": [
        {
          "internalType": "bytes32",
          "name": "role",
          "type": "bytes32"
        },
        {
          "internalType": "address",
          "name": "account",
          "type": "address"
        }
      ],
      "name": "renounceRole",
      "outputs": [],
      "stateMutability": "nonpayable",
      "type": "function"
    },
    {
      "inputs": [
        {
          "internalType": "bytes32",
          "name": "role",
          "type": "bytes32"
        },
        {
          "internalType": "address",
          "name": "account",
          "type": "address"
        }
      ],
      "name": "revokeRole",
      "outputs": [],
      "stateMutability": "nonpayable",
      "type": "function"
    },
    {
      "inputs": [
        {
          "internalType": "uint256",
          "name": "_feeAmount",
          "type": "uint256"
        },
        {
          "internalType": "uint256",
          "name": "_feeFraction",
          "type": "uint256"
        },
        {
          "internalType": "address",
          "name": "_feeReceiver",
          "type": "address"
        }
      ],
      "name": "setTransactionFee",
      "outputs": [],
      "stateMutability": "nonpayable",
      "type": "function"
    },
    {
      "inputs": [
        {
          "internalType": "bytes4",
          "name": "interfaceId",
          "type": "bytes4"
        }
      ],
      "name": "supportsInterface",
      "outputs": [
        {
          "internalType": "bool",
          "name": "",
          "type": "bool"
        }
      ],
      "stateMutability": "view",
      "type": "function"
    },
    {
      "inputs": [],
      "name": "symbol",
      "outputs": [
        {
          "internalType": "string",
          "name": "",
          "type": "string"
        }
      ],
      "stateMutability": "view",
      "type": "function"
    },
    {
      "inputs": [],
      "name": "totalSupply",
      "outputs": [
        {
          "internalType": "uint256",
          "name": "",
          "type": "uint256"
        }
      ],
      "stateMutability": "view",
      "type": "function"
    },
    {
      "inputs": [
        {
          "internalType": "uint256",
          "name": "transferingAmount",
          "type": "uint256"
        }
      ],
      "name": "transactionFee",
      "outputs": [
        {
          "internalType": "uint256",
          "name": "fee",
          "type": "uint256"
        }
      ],
      "stateMutability": "view",
      "type": "function"
    },
    {
      "inputs": [
        {
          "internalType": "address",
          "name": "to",
          "type": "address"
        },
        {
          "internalType": "uint256",
          "name": "amount",
          "type": "uint256"
        }
      ],
      "name": "transfer",
      "outputs": [
        {
          "internalType": "bool",
          "name": "",
          "type": "bool"
        }
      ],
      "stateMutability": "nonpayable",
      "type": "function"
    },
    {
      "inputs": [
        {
          "internalType": "address",
          "name": "from",
          "type": "address"
        },
        {
          "internalType": "address",
          "name": "to",
          "type": "address"
        },
        {
          "internalType": "uint256",
          "name": "amount",
          "type": "uint256"
        }
      ],
      "name": "transferFrom",
      "outputs": [
        {
          "internalType": "bool",
          "name": "",
          "type": "bool"
        }
      ],
      "stateMutability": "nonpayable",
      "type": "function"
    }
  ],
  "bytecode": "0x6101606040523480156200001257600080fd5b50604051620029ed380380620029ed833981016040819052620000359162000403565b6040518060400160405280600f81526020016e109bdd5b991b195cdcc815dbdc9b19608a1b81525080604051806040016040528060018152602001603160f81b81525062000088620002a460201b60201c565b6200009590600a62000548565b620000a59063dbf0ee8062000559565b6040518060400160405280600f81526020016e109bdd5b991b195cdcc815dbdc9b19608a1b8152506040518060400160405280600381526020016221262160e91b8152508160039081620000fa919062000617565b50600462000109828262000617565b50505060008111620001615760405162461bcd60e51b815260206004820152601560248201527f45524332304361707065643a2063617020697320300000000000000000000000604482015260640160405180910390fd5b60805281516020808401919091208251918301919091206101008290526101208190524660c0527f8b73c3c69bb8fe3d512ecc4cf759cc79239f7b179b0ffacaa9a75d522b39400f620001f98184846040805160208101859052908101839052606081018290524660808201523060a082015260009060c0016040516020818303038152906040528051906020012090509392505050565b60a0523060e05261014052506200021993506000925084915050620002a9565b620002457f9f2df0fed2c77648de5860a4cc508cd0818c85b8b8a1ab4ceeef8d981c8956a682620002a9565b620002717fd0ac125722f4b4565ab5e91b234e50c4c6f541672aea816ba090a0ea349ed93f82620002a9565b6200029d7f9972172bf394f5d077adb577f8bd4c61a9f748ee12df651958d4361d0f68413182620002a9565b50620006e3565b601290565b620002c08282620002ec60201b62000c7d1760201c565b6000828152600860209081526040909120620002e791839062000d0362000391821b17901c565b505050565b60008281526007602090815260408083206001600160a01b038516845290915290205460ff166200038d5760008281526007602090815260408083206001600160a01b03851684529091529020805460ff191660011790556200034c3390565b6001600160a01b0316816001600160a01b0316837f2f8788117e7eff1d82e926ec794901d17c78024a50270940304540a733656f0d60405160405180910390a45b5050565b6000620003a8836001600160a01b038416620003b1565b90505b92915050565b6000818152600183016020526040812054620003fa57508154600181810184556000848152602080822090930184905584548482528286019093526040902091909155620003ab565b506000620003ab565b6000602082840312156200041657600080fd5b81516001600160a01b03811681146200042e57600080fd5b9392505050565b634e487b7160e01b600052601160045260246000fd5b600181815b808511156200048c57816000190482111562000470576200047062000435565b808516156200047e57918102915b93841c939080029062000450565b509250929050565b600082620004a557506001620003ab565b81620004b457506000620003ab565b8160018114620004cd5760028114620004d857620004f8565b6001915050620003ab565b60ff841115620004ec57620004ec62000435565b50506001821b620003ab565b5060208310610133831016604e8410600b84101617156200051d575081810a620003ab565b6200052983836200044b565b806000190482111562000540576200054062000435565b029392505050565b6000620003a860ff84168362000494565b8082028115828204841417620003ab57620003ab62000435565b634e487b7160e01b600052604160045260246000fd5b600181811c908216806200059e57607f821691505b602082108103620005bf57634e487b7160e01b600052602260045260246000fd5b50919050565b601f821115620002e757600081815260208120601f850160051c81016020861015620005ee5750805b601f850160051c820191505b818110156200060f57828155600101620005fa565b505050505050565b81516001600160401b0381111562000633576200063362000573565b6200064b8162000644845462000589565b84620005c5565b602080601f8311600181146200068357600084156200066a5750858301515b600019600386901b1c1916600185901b1785556200060f565b600085815260208120601f198616915b82811015620006b45788860151825594840194600190910190840162000693565b5085821015620006d35787850151600019600388901b60f8161c191681555b5050505050600190811b01905550565b60805160a05160c05160e0516101005161012051610140516122a862000745600039600061112a0152600061117901526000611154015260006110ad015260006110d701526000611101015260008181610321015261152b01526122a86000f3fe608060405234801561001057600080fd5b50600436106102065760003560e01c80635d1edb871161011a578063a457c2d7116100ad578063ca15c8731161007c578063ca15c873146104bc578063d505accf146104cf578063d5391393146104e2578063d547741f14610509578063dd62ed3e1461051c57600080fd5b8063a457c2d71461045c578063a9059cbb1461046f578063ae99c57714610482578063b6afc4dc146104a957600080fd5b80639010d07c116100e95780639010d07c1461040e57806391d148541461043957806395d89b411461044c578063a217fddf1461045457600080fd5b80635d1edb87146103ac57806370a08231146103bf57806379cc6790146103e85780637ecebe00146103fb57600080fd5b80632f2ff15d1161019d57806336568abe1161016c57806336568abe1461034d578063367065de14610360578063395093511461037357806340c10f191461038657806342966c681461039957600080fd5b80632f2ff15d146102fb578063313ce56714610310578063355274ea1461031f5780633644e5151461034557600080fd5b806318160ddd116101d957806318160ddd146102905780631f2c54431461029857806323b872dd146102c5578063248a9ca3146102d857600080fd5b806301ffc9a71461020b57806306fdde0314610233578063095ea7b3146102485780630ecbd0331461025b575b600080fd5b61021e610219366004611d91565b61052f565b60405190151581526020015b60405180910390f35b61023b61055a565b60405161022a9190611ddf565b61021e610256366004611e29565b6105ec565b6102827fd0ac125722f4b4565ab5e91b234e50c4c6f541672aea816ba090a0ea349ed93f81565b60405190815260200161022a565b600254610282565b600a54600954600b546040805193845260208401929092526001600160a01b03169082015260600161022a565b61021e6102d3366004611e53565b610604565b6102826102e6366004611e8f565b60009081526007602052604090206001015490565b61030e610309366004611ea8565b610628565b005b6040516012815260200161022a565b7f0000000000000000000000000000000000000000000000000000000000000000610282565b610282610652565b61030e61035b366004611ea8565b610661565b61030e61036e366004611ed4565b6106e4565b61021e610381366004611e29565b610878565b61030e610394366004611e29565b61089a565b61030e6103a7366004611e8f565b6108ce565b6102826103ba366004611e8f565b6108db565b6102826103cd366004611f09565b6001600160a01b031660009081526020819052604090205490565b61030e6103f6366004611e29565b610917565b610282610409366004611f09565b61092c565b61042161041c366004611f24565b61094a565b6040516001600160a01b03909116815260200161022a565b61021e610447366004611ea8565b610969565b61023b610994565b610282600081565b61021e61046a366004611e29565b6109a3565b61021e61047d366004611e29565b610a1e565b6102827f9972172bf394f5d077adb577f8bd4c61a9f748ee12df651958d4361d0f68413181565b61030e6104b7366004611f46565b610a2c565b6102826104ca366004611e8f565b610ab2565b61030e6104dd366004611fc1565b610ac9565b6102827f9f2df0fed2c77648de5860a4cc508cd0818c85b8b8a1ab4ceeef8d981c8956a681565b61030e610517366004611ea8565b610c2d565b61028261052a366004612034565b610c52565b60006001600160e01b03198216635a05180f60e01b1480610554575061055482610d18565b92915050565b6060600380546105699061205e565b80601f01602080910402602001604051908101604052809291908181526020018280546105959061205e565b80156105e25780601f106105b7576101008083540402835291602001916105e2565b820191906000526020600020905b8154815290600101906020018083116105c557829003601f168201915b5050505050905090565b6000336105fa818585610d4d565b5060019392505050565b600033610612858285610e72565b61061d858585610eec565b506001949350505050565b60008281526007602052604090206001015461064381611074565b61064d838361107e565b505050565b600061065c6110a0565b905090565b6001600160a01b03811633146106d65760405162461bcd60e51b815260206004820152602f60248201527f416363657373436f6e74726f6c3a2063616e206f6e6c792072656e6f756e636560448201526e103937b632b9903337b91039b2b63360891b60648201526084015b60405180910390fd5b6106e082826111c7565b5050565b7fd0ac125722f4b4565ab5e91b234e50c4c6f541672aea816ba090a0ea349ed93f61070e81611074565b821580610719575083155b6107995760405162461bcd60e51b815260206004820152604560248201527f5472616e73616374696f6e4665653a2043616e6e6f742073657420666565416d60448201527f6f756e7420616e64206665654672616374696f6e206174207468652073616d656064820152642074696d6560d81b608482015260a4016106cd565b620186a08311156108085760405162461bcd60e51b815260206004820152603360248201527f5472616e73616374696f6e4665653a20557020746f20313025207472616e736160448201527218dd1a5bdb9199594818d85b881899481cd95d606a1b60648201526084016106cd565b600a8490556009839055600b80546001600160a01b0319166001600160a01b0384169081179091556040805186815260208101869052908101919091527fd75a7916f83ee976ae8e04e3f9b46c9b16b546303f09f1fc20eccb6cd6bc476d9060600160405180910390a150505050565b6000336105fa81858561088b8383610c52565b61089591906120a8565b610d4d565b7f9f2df0fed2c77648de5860a4cc508cd0818c85b8b8a1ab4ceeef8d981c8956a66108c481611074565b61064d83836111e9565b6108d833826111f3565b50565b600a54600090156108ee575050600a5490565b6009541561091257620f42406009548361090891906120bb565b61055491906120d2565b919050565b610922823383610e72565b6106e082826111f3565b6001600160a01b038116600090815260056020526040812054610554565b6000828152600860205260408120610962908361133b565b9392505050565b60009182526007602090815260408084206001600160a01b0393909316845291905290205460ff1690565b6060600480546105699061205e565b600033816109b18286610c52565b905083811015610a115760405162461bcd60e51b815260206004820152602560248201527f45524332303a2064656372656173656420616c6c6f77616e63652062656c6f77604482015264207a65726f60d81b60648201526084016106cd565b61061d8286868403610d4d565b6000336105fa818585610eec565b7f9f2df0fed2c77648de5860a4cc508cd0818c85b8b8a1ab4ceeef8d981c8956a6610a5681611074565b60005b61ffff8116841115610aab57610a9985858361ffff16818110610a7e57610a7e6120f4565b9050602002016020810190610a939190611f09565b846111e9565b80610aa38161210a565b915050610a59565b5050505050565b600081815260086020526040812061055490611347565b83421115610b195760405162461bcd60e51b815260206004820152601d60248201527f45524332305065726d69743a206578706972656420646561646c696e6500000060448201526064016106cd565b60007f6e71edae12b1b97f4d1f60370fef10105fa2faae0126114a169c64845d6126c9888888610b488c611351565b6040805160208101969096526001600160a01b0394851690860152929091166060840152608083015260a082015260c0810186905260e0016040516020818303038152906040528051906020012090506000610ba382611379565b90506000610bb3828787876113c7565b9050896001600160a01b0316816001600160a01b031614610c165760405162461bcd60e51b815260206004820152601e60248201527f45524332305065726d69743a20696e76616c6964207369676e6174757265000060448201526064016106cd565b610c218a8a8a610d4d565b50505050505050505050565b600082815260076020526040902060010154610c4881611074565b61064d83836111c7565b6001600160a01b03918216600090815260016020908152604080832093909416825291909152205490565b610c878282610969565b6106e05760008281526007602090815260408083206001600160a01b03851684529091529020805460ff19166001179055610cbf3390565b6001600160a01b0316816001600160a01b0316837f2f8788117e7eff1d82e926ec794901d17c78024a50270940304540a733656f0d60405160405180910390a45050565b6000610962836001600160a01b0384166113ef565b60006001600160e01b03198216637965db0b60e01b148061055457506301ffc9a760e01b6001600160e01b0319831614610554565b6001600160a01b038316610daf5760405162461bcd60e51b8152602060048201526024808201527f45524332303a20617070726f76652066726f6d20746865207a65726f206164646044820152637265737360e01b60648201526084016106cd565b6001600160a01b038216610e105760405162461bcd60e51b815260206004820152602260248201527f45524332303a20617070726f766520746f20746865207a65726f206164647265604482015261737360f01b60648201526084016106cd565b6001600160a01b0383811660008181526001602090815260408083209487168084529482529182902085905590518481527f8c5be1e5ebec7d5bd14f71427d1e84f3dd0314c0f7b2291e5b200ac8c7c3b92591015b60405180910390a3505050565b6000610e7e8484610c52565b90506000198114610ee65781811015610ed95760405162461bcd60e51b815260206004820152601d60248201527f45524332303a20696e73756666696369656e7420616c6c6f77616e636500000060448201526064016106cd565b610ee68484848403610d4d565b50505050565b6001600160a01b038316610f505760405162461bcd60e51b815260206004820152602560248201527f45524332303a207472616e736665722066726f6d20746865207a65726f206164604482015264647265737360d81b60648201526084016106cd565b6001600160a01b038216610fb25760405162461bcd60e51b815260206004820152602360248201527f45524332303a207472616e7366657220746f20746865207a65726f206164647260448201526265737360e81b60648201526084016106cd565b610fbd83838361143e565b6001600160a01b03831660009081526020819052604090205481811015610ff65760405162461bcd60e51b81526004016106cd9061212b565b6001600160a01b0380851660009081526020819052604080822085850390559185168152908120805484929061102d9084906120a8565b92505081905550826001600160a01b0316846001600160a01b03166000805160206122538339815191528460405161106791815260200190565b60405180910390a3610ee6565b6108d88133611449565b6110888282610c7d565b600082815260086020526040902061064d9082610d03565b6000306001600160a01b037f0000000000000000000000000000000000000000000000000000000000000000161480156110f957507f000000000000000000000000000000000000000000000000000000000000000046145b1561112357507f000000000000000000000000000000000000000000000000000000000000000090565b50604080517f00000000000000000000000000000000000000000000000000000000000000006020808301919091527f0000000000000000000000000000000000000000000000000000000000000000828401527f000000000000000000000000000000000000000000000000000000000000000060608301524660808301523060a0808401919091528351808403909101815260c0909201909252805191012090565b6111d182826114ad565b600082815260086020526040902061064d9082611514565b6106e08282611529565b6001600160a01b0382166112535760405162461bcd60e51b815260206004820152602160248201527f45524332303a206275726e2066726f6d20746865207a65726f206164647265736044820152607360f81b60648201526084016106cd565b61125f8260008361143e565b6001600160a01b038216600090815260208190526040902054818110156112d35760405162461bcd60e51b815260206004820152602260248201527f45524332303a206275726e20616d6f756e7420657863656564732062616c616e604482015261636560f01b60648201526084016106cd565b6001600160a01b0383166000908152602081905260408120838303905560028054849290611302908490612171565b90915550506040518281526000906001600160a01b038516906000805160206122538339815191529060200160405180910390a3505050565b600061096283836115b6565b6000610554825490565b6001600160a01b03811660009081526005602052604090208054600181018255905b50919050565b60006105546113866110a0565b8360405161190160f01b6020820152602281018390526042810182905260009060620160405160208183030381529060405280519060200120905092915050565b60008060006113d8878787876115e0565b915091506113e5816116cd565b5095945050505050565b600081815260018301602052604081205461143657508154600181810184556000848152602080822090930184905584548482528286019093526040902091909155610554565b506000610554565b61064d838383611883565b6114538282610969565b6106e05761146b816001600160a01b031660146118b2565b6114768360206118b2565b604051602001611487929190612184565b60408051601f198184030181529082905262461bcd60e51b82526106cd91600401611ddf565b6114b78282610969565b156106e05760008281526007602090815260408083206001600160a01b0385168085529252808320805460ff1916905551339285917ff6391f5c32d9c69d2a47ea670b442974b53935d1edc7fd64eb21e047a839171b9190a45050565b6000610962836001600160a01b038416611a4e565b7f00000000000000000000000000000000000000000000000000000000000000008161155460025490565b61155e91906120a8565b11156115ac5760405162461bcd60e51b815260206004820152601960248201527f45524332304361707065643a206361702065786365656465640000000000000060448201526064016106cd565b6106e08282611b41565b60008260000182815481106115cd576115cd6120f4565b9060005260206000200154905092915050565b6000807f7fffffffffffffffffffffffffffffff5d576e7357a4501ddfe92f46681b20a083111561161757506000905060036116c4565b8460ff16601b1415801561162f57508460ff16601c14155b1561164057506000905060046116c4565b6040805160008082526020820180845289905260ff881692820192909252606081018690526080810185905260019060a0016020604051602081039080840390855afa158015611694573d6000803e3d6000fd5b5050604051601f1901519150506001600160a01b0381166116bd576000600192509250506116c4565b9150600090505b94509492505050565b60008160048111156116e1576116e16121f9565b036116e95750565b60018160048111156116fd576116fd6121f9565b0361174a5760405162461bcd60e51b815260206004820152601860248201527f45434453413a20696e76616c6964207369676e6174757265000000000000000060448201526064016106cd565b600281600481111561175e5761175e6121f9565b036117ab5760405162461bcd60e51b815260206004820152601f60248201527f45434453413a20696e76616c6964207369676e6174757265206c656e6774680060448201526064016106cd565b60038160048111156117bf576117bf6121f9565b036118175760405162461bcd60e51b815260206004820152602260248201527f45434453413a20696e76616c6964207369676e6174757265202773272076616c604482015261756560f01b60648201526084016106cd565b600481600481111561182b5761182b6121f9565b036108d85760405162461bcd60e51b815260206004820152602260248201527f45434453413a20696e76616c6964207369676e6174757265202776272076616c604482015261756560f01b60648201526084016106cd565b6001600160a01b038316158015906118a357506001600160a01b03821615155b1561064d5761064d8382611c1a565b606060006118c18360026120bb565b6118cc9060026120a8565b67ffffffffffffffff8111156118e4576118e461220f565b6040519080825280601f01601f19166020018201604052801561190e576020820181803683370190505b509050600360fc1b81600081518110611929576119296120f4565b60200101906001600160f81b031916908160001a905350600f60fb1b81600181518110611958576119586120f4565b60200101906001600160f81b031916908160001a905350600061197c8460026120bb565b6119879060016120a8565b90505b60018111156119ff576f181899199a1a9b1b9c1cb0b131b232b360811b85600f16601081106119bb576119bb6120f4565b1a60f81b8282815181106119d1576119d16120f4565b60200101906001600160f81b031916908160001a90535060049490941c936119f881612225565b905061198a565b5083156109625760405162461bcd60e51b815260206004820181905260248201527f537472696e67733a20686578206c656e67746820696e73756666696369656e7460448201526064016106cd565b60008181526001830160205260408120548015611b37576000611a72600183612171565b8554909150600090611a8690600190612171565b9050818114611aeb576000866000018281548110611aa657611aa66120f4565b9060005260206000200154905080876000018481548110611ac957611ac96120f4565b6000918252602080832090910192909255918252600188019052604090208390555b8554869080611afc57611afc61223c565b600190038181906000526020600020016000905590558560010160008681526020019081526020016000206000905560019350505050610554565b6000915050610554565b6001600160a01b038216611b975760405162461bcd60e51b815260206004820152601f60248201527f45524332303a206d696e7420746f20746865207a65726f20616464726573730060448201526064016106cd565b611ba36000838361143e565b8060026000828254611bb591906120a8565b90915550506001600160a01b03821660009081526020819052604081208054839290611be29084906120a8565b90915550506040518181526001600160a01b038316906000906000805160206122538339815191529060200160405180910390a35050565b611c447f9972172bf394f5d077adb577f8bd4c61a9f748ee12df651958d4361d0f68413183610969565b6106e05760006009541180611c5b57506000600a54115b156106e0576000611c6b826108db565b600b5490915061064d9084906001600160a01b0316836001600160a01b03831615611cec576001600160a01b03831660009081526020819052604090205481811015611cc95760405162461bcd60e51b81526004016106cd9061212b565b6001600160a01b0384166000908152602081905260409020908290039055611d04565b8060026000828254611cfe91906120a8565b90915550505b6001600160a01b03821615611d46576001600160a01b03821660009081526020819052604081208054839290611d3b9084906120a8565b90915550611d5e9050565b8060026000828254611d589190612171565b90915550505b816001600160a01b0316836001600160a01b031660008051602061225383398151915283604051610e6591815260200190565b600060208284031215611da357600080fd5b81356001600160e01b03198116811461096257600080fd5b60005b83811015611dd6578181015183820152602001611dbe565b50506000910152565b6020815260008251806020840152611dfe816040850160208701611dbb565b601f01601f19169190910160400192915050565b80356001600160a01b038116811461091257600080fd5b60008060408385031215611e3c57600080fd5b611e4583611e12565b946020939093013593505050565b600080600060608486031215611e6857600080fd5b611e7184611e12565b9250611e7f60208501611e12565b9150604084013590509250925092565b600060208284031215611ea157600080fd5b5035919050565b60008060408385031215611ebb57600080fd5b82359150611ecb60208401611e12565b90509250929050565b600080600060608486031215611ee957600080fd5b8335925060208401359150611f0060408501611e12565b90509250925092565b600060208284031215611f1b57600080fd5b61096282611e12565b60008060408385031215611f3757600080fd5b50508035926020909101359150565b600080600060408486031215611f5b57600080fd5b833567ffffffffffffffff80821115611f7357600080fd5b818601915086601f830112611f8757600080fd5b813581811115611f9657600080fd5b8760208260051b8501011115611fab57600080fd5b6020928301989097509590910135949350505050565b600080600080600080600060e0888a031215611fdc57600080fd5b611fe588611e12565b9650611ff360208901611e12565b95506040880135945060608801359350608088013560ff8116811461201757600080fd5b9699959850939692959460a0840135945060c09093013592915050565b6000806040838503121561204757600080fd5b61205083611e12565b9150611ecb60208401611e12565b600181811c9082168061207257607f821691505b60208210810361137357634e487b7160e01b600052602260045260246000fd5b634e487b7160e01b600052601160045260246000fd5b8082018082111561055457610554612092565b808202811582820484141761055457610554612092565b6000826120ef57634e487b7160e01b600052601260045260246000fd5b500490565b634e487b7160e01b600052603260045260246000fd5b600061ffff80831681810361212157612121612092565b6001019392505050565b60208082526026908201527f45524332303a207472616e7366657220616d6f756e7420657863656564732062604082015265616c616e636560d01b606082015260800190565b8181038181111561055457610554612092565b7f416363657373436f6e74726f6c3a206163636f756e74200000000000000000008152600083516121bc816017850160208801611dbb565b7001034b99036b4b9b9b4b733903937b6329607d1b60179184019182015283516121ed816028840160208801611dbb565b01602801949350505050565b634e487b7160e01b600052602160045260246000fd5b634e487b7160e01b600052604160045260246000fd5b60008161223457612234612092565b506000190190565b634e487b7160e01b600052603160045260246000fdfeddf252ad1be2c89b69c2b068fc378daa952ba7f163c4a11628f55a4df523b3efa2646970667358221220fd20e547bd2de82133f3d029cdd03e52f9e3209ff53994cee45faa2ab47c2ac764736f6c63430008110033",
  "linkReferences": {},
  "deployedLinkReferences": {}
}