{
  "_format": "hh-sol-artifact-1",
  "contractName": "BLBToken",
  "sourceName": "contracts/BEP20/BLBToken.sol",
  "abi": [
    {
      "inputs": [],
      "stateMutability": "nonpayable",
      "type": "constructor"
    },
    {
      "anonymous": false,
      "inputs": [
        {
          "indexed": true,
          "internalType": "address",
          "name": "owner",
          "type": "address"
        },
        {
          "indexed": true,
          "internalType": "address",
          "name": "spender",
          "type": "address"
        },
        {
          "indexed": false,
          "internalType": "uint256",
          "name": "value",
          "type": "uint256"
        }
      ],
      "name": "Approval",
      "type": "event"
    },
    {
      "anonymous": false,
      "inputs": [
        {
          "indexed": true,
          "internalType": "bytes32",
          "name": "role",
          "type": "bytes32"
        },
        {
          "indexed": true,
          "internalType": "bytes32",
          "name": "previousAdminRole",
          "type": "bytes32"
        },
        {
          "indexed": true,
          "internalType": "bytes32",
          "name": "newAdminRole",
          "type": "bytes32"
        }
      ],
      "name": "RoleAdminChanged",
      "type": "event"
    },
    {
      "anonymous": false,
      "inputs": [
        {
          "indexed": true,
          "internalType": "bytes32",
          "name": "role",
          "type": "bytes32"
        },
        {
          "indexed": true,
          "internalType": "address",
          "name": "account",
          "type": "address"
        },
        {
          "indexed": true,
          "internalType": "address",
          "name": "sender",
          "type": "address"
        }
      ],
      "name": "RoleGranted",
      "type": "event"
    },
    {
      "anonymous": false,
      "inputs": [
        {
          "indexed": true,
          "internalType": "bytes32",
          "name": "role",
          "type": "bytes32"
        },
        {
          "indexed": true,
          "internalType": "address",
          "name": "account",
          "type": "address"
        },
        {
          "indexed": true,
          "internalType": "address",
          "name": "sender",
          "type": "address"
        }
      ],
      "name": "RoleRevoked",
      "type": "event"
    },
    {
      "anonymous": false,
      "inputs": [
        {
          "indexed": true,
          "internalType": "address",
          "name": "from",
          "type": "address"
        },
        {
          "indexed": true,
          "internalType": "address",
          "name": "to",
          "type": "address"
        },
        {
          "indexed": false,
          "internalType": "uint256",
          "name": "value",
          "type": "uint256"
        }
      ],
      "name": "Transfer",
      "type": "event"
    },
    {
      "inputs": [],
      "name": "DEFAULT_ADMIN_ROLE",
      "outputs": [
        {
          "internalType": "bytes32",
          "name": "",
          "type": "bytes32"
        }
      ],
      "stateMutability": "view",
      "type": "function"
    },
    {
      "inputs": [],
      "name": "DOMAIN_SEPARATOR",
      "outputs": [
        {
          "internalType": "bytes32",
          "name": "",
          "type": "bytes32"
        }
      ],
      "stateMutability": "view",
      "type": "function"
    },
    {
      "inputs": [],
      "name": "FEE_SETTER",
      "outputs": [
        {
          "internalType": "bytes32",
          "name": "",
          "type": "bytes32"
        }
      ],
      "stateMutability": "view",
      "type": "function"
    },
    {
      "inputs": [],
      "name": "MINTER_ROLE",
      "outputs": [
        {
          "internalType": "bytes32",
          "name": "",
          "type": "bytes32"
        }
      ],
      "stateMutability": "view",
      "type": "function"
    },
    {
      "inputs": [],
      "name": "RESTRICTOR_ROLE",
      "outputs": [
        {
          "internalType": "bytes32",
          "name": "",
          "type": "bytes32"
        }
      ],
      "stateMutability": "view",
      "type": "function"
    },
    {
      "inputs": [],
      "name": "TRANSFER_LIMIT_SETTER",
      "outputs": [
        {
          "internalType": "bytes32",
          "name": "",
          "type": "bytes32"
        }
      ],
      "stateMutability": "view",
      "type": "function"
    },
    {
      "inputs": [
        {
          "internalType": "address",
          "name": "owner",
          "type": "address"
        },
        {
          "internalType": "address",
          "name": "spender",
          "type": "address"
        }
      ],
      "name": "allowance",
      "outputs": [
        {
          "internalType": "uint256",
          "name": "",
          "type": "uint256"
        }
      ],
      "stateMutability": "view",
      "type": "function"
    },
    {
      "inputs": [
        {
          "internalType": "address",
          "name": "spender",
          "type": "address"
        },
        {
          "internalType": "uint256",
          "name": "amount",
          "type": "uint256"
        }
      ],
      "name": "approve",
      "outputs": [
        {
          "internalType": "bool",
          "name": "",
          "type": "bool"
        }
      ],
      "stateMutability": "nonpayable",
      "type": "function"
    },
    {
      "inputs": [
        {
          "internalType": "address",
          "name": "account",
          "type": "address"
        }
      ],
      "name": "balanceOf",
      "outputs": [
        {
          "internalType": "uint256",
          "name": "",
          "type": "uint256"
        }
      ],
      "stateMutability": "view",
      "type": "function"
    },
    {
      "inputs": [
        {
          "internalType": "uint256",
          "name": "amount",
          "type": "uint256"
        }
      ],
      "name": "burn",
      "outputs": [],
      "stateMutability": "nonpayable",
      "type": "function"
    },
    {
      "inputs": [
        {
          "internalType": "address",
          "name": "account",
          "type": "address"
        },
        {
          "internalType": "uint256",
          "name": "amount",
          "type": "uint256"
        }
      ],
      "name": "burnFrom",
      "outputs": [],
      "stateMutability": "nonpayable",
      "type": "function"
    },
    {
      "inputs": [
        {
          "internalType": "address",
          "name": "addr",
          "type": "address"
        }
      ],
      "name": "canSpend",
      "outputs": [
        {
          "internalType": "uint256",
          "name": "amount",
          "type": "uint256"
        }
      ],
      "stateMutability": "view",
      "type": "function"
    },
    {
      "inputs": [],
      "name": "cap",
      "outputs": [
        {
          "internalType": "uint256",
          "name": "",
          "type": "uint256"
        }
      ],
      "stateMutability": "view",
      "type": "function"
    },
    {
      "inputs": [],
      "name": "decimals",
      "outputs": [
        {
          "internalType": "uint8",
          "name": "",
          "type": "uint8"
        }
      ],
      "stateMutability": "view",
      "type": "function"
    },
    {
      "inputs": [
        {
          "internalType": "address",
          "name": "spender",
          "type": "address"
        },
        {
          "internalType": "uint256",
          "name": "subtractedValue",
          "type": "uint256"
        }
      ],
      "name": "decreaseAllowance",
      "outputs": [
        {
          "internalType": "bool",
          "name": "",
          "type": "bool"
        }
      ],
      "stateMutability": "nonpayable",
      "type": "function"
    },
    {
      "inputs": [
        {
          "internalType": "address",
          "name": "addr",
          "type": "address"
        }
      ],
      "name": "destrict",
      "outputs": [],
      "stateMutability": "nonpayable",
      "type": "function"
    },
    {
      "inputs": [
        {
          "internalType": "bytes32",
          "name": "role",
          "type": "bytes32"
        }
      ],
      "name": "getRoleAdmin",
      "outputs": [
        {
          "internalType": "bytes32",
          "name": "",
          "type": "bytes32"
        }
      ],
      "stateMutability": "view",
      "type": "function"
    },
    {
      "inputs": [
        {
          "internalType": "bytes32",
          "name": "role",
          "type": "bytes32"
        },
        {
          "internalType": "address",
          "name": "account",
          "type": "address"
        }
      ],
      "name": "grantRole",
      "outputs": [],
      "stateMutability": "nonpayable",
      "type": "function"
    },
    {
      "inputs": [
        {
          "internalType": "bytes32",
          "name": "role",
          "type": "bytes32"
        },
        {
          "internalType": "address",
          "name": "account",
          "type": "address"
        }
      ],
      "name": "hasRole",
      "outputs": [
        {
          "internalType": "bool",
          "name": "",
          "type": "bool"
        }
      ],
      "stateMutability": "view",
      "type": "function"
    },
    {
      "inputs": [
        {
          "internalType": "address",
          "name": "spender",
          "type": "address"
        },
        {
          "internalType": "uint256",
          "name": "addedValue",
          "type": "uint256"
        }
      ],
      "name": "increaseAllowance",
      "outputs": [
        {
          "internalType": "bool",
          "name": "",
          "type": "bool"
        }
      ],
      "stateMutability": "nonpayable",
      "type": "function"
    },
    {
      "inputs": [
        {
          "internalType": "address",
          "name": "addr",
          "type": "address"
        }
      ],
      "name": "isRestricted",
      "outputs": [
        {
          "internalType": "bool",
          "name": "",
          "type": "bool"
        }
      ],
      "stateMutability": "view",
      "type": "function"
    },
    {
      "inputs": [
        {
          "internalType": "address",
          "name": "to",
          "type": "address"
        },
        {
          "internalType": "uint256",
          "name": "amount",
          "type": "uint256"
        }
      ],
      "name": "mint",
      "outputs": [],
      "stateMutability": "nonpayable",
      "type": "function"
    },
    {
      "inputs": [],
      "name": "name",
      "outputs": [
        {
          "internalType": "string",
          "name": "",
          "type": "string"
        }
      ],
      "stateMutability": "view",
      "type": "function"
    },
    {
      "inputs": [
        {
          "internalType": "address",
          "name": "owner",
          "type": "address"
        }
      ],
      "name": "nonces",
      "outputs": [
        {
          "internalType": "uint256",
          "name": "",
          "type": "uint256"
        }
      ],
      "stateMutability": "view",
      "type": "function"
    },
    {
      "inputs": [
        {
          "internalType": "address",
          "name": "owner",
          "type": "address"
        },
        {
          "internalType": "address",
          "name": "spender",
          "type": "address"
        },
        {
          "internalType": "uint256",
          "name": "value",
          "type": "uint256"
        },
        {
          "internalType": "uint256",
          "name": "deadline",
          "type": "uint256"
        },
        {
          "internalType": "uint8",
          "name": "v",
          "type": "uint8"
        },
        {
          "internalType": "bytes32",
          "name": "r",
          "type": "bytes32"
        },
        {
          "internalType": "bytes32",
          "name": "s",
          "type": "bytes32"
        }
      ],
      "name": "permit",
      "outputs": [],
      "stateMutability": "nonpayable",
      "type": "function"
    },
    {
      "inputs": [
        {
          "internalType": "bytes32",
          "name": "role",
          "type": "bytes32"
        },
        {
          "internalType": "address",
          "name": "account",
          "type": "address"
        }
      ],
      "name": "renounceRole",
      "outputs": [],
      "stateMutability": "nonpayable",
      "type": "function"
    },
    {
      "inputs": [
        {
          "internalType": "address",
          "name": "addr",
          "type": "address"
        },
        {
          "internalType": "uint256",
          "name": "amount",
          "type": "uint256"
        }
      ],
      "name": "restrict",
      "outputs": [],
      "stateMutability": "nonpayable",
      "type": "function"
    },
    {
      "inputs": [
        {
          "internalType": "bytes32",
          "name": "role",
          "type": "bytes32"
        },
        {
          "internalType": "address",
          "name": "account",
          "type": "address"
        }
      ],
      "name": "revokeRole",
      "outputs": [],
      "stateMutability": "nonpayable",
      "type": "function"
    },
    {
      "inputs": [
        {
          "internalType": "uint256",
          "name": "_feeAmount",
          "type": "uint256"
        },
        {
          "internalType": "uint256",
          "name": "_feeFraction",
          "type": "uint256"
        },
        {
          "internalType": "address",
          "name": "_feeReceiver",
          "type": "address"
        }
      ],
      "name": "setTransactionFee",
      "outputs": [],
      "stateMutability": "nonpayable",
      "type": "function"
    },
    {
      "inputs": [
        {
          "internalType": "uint256",
          "name": "fraction",
          "type": "uint256"
        }
      ],
      "name": "setperiodTransferFraction",
      "outputs": [],
      "stateMutability": "nonpayable",
      "type": "function"
    },
    {
      "inputs": [
        {
          "internalType": "bytes4",
          "name": "interfaceId",
          "type": "bytes4"
        }
      ],
      "name": "supportsInterface",
      "outputs": [
        {
          "internalType": "bool",
          "name": "",
          "type": "bool"
        }
      ],
      "stateMutability": "view",
      "type": "function"
    },
    {
      "inputs": [],
      "name": "symbol",
      "outputs": [
        {
          "internalType": "string",
          "name": "",
          "type": "string"
        }
      ],
      "stateMutability": "view",
      "type": "function"
    },
    {
      "inputs": [],
      "name": "totalSupply",
      "outputs": [
        {
          "internalType": "uint256",
          "name": "",
          "type": "uint256"
        }
      ],
      "stateMutability": "view",
      "type": "function"
    },
    {
      "inputs": [
        {
          "internalType": "uint256",
          "name": "transferingAmount",
          "type": "uint256"
        }
      ],
      "name": "transactionFee",
      "outputs": [
        {
          "internalType": "uint256",
          "name": "fee",
          "type": "uint256"
        }
      ],
      "stateMutability": "view",
      "type": "function"
    },
    {
      "inputs": [
        {
          "internalType": "address",
          "name": "to",
          "type": "address"
        },
        {
          "internalType": "uint256",
          "name": "amount",
          "type": "uint256"
        }
      ],
      "name": "transfer",
      "outputs": [
        {
          "internalType": "bool",
          "name": "",
          "type": "bool"
        }
      ],
      "stateMutability": "nonpayable",
      "type": "function"
    },
    {
      "inputs": [
        {
          "internalType": "address",
          "name": "from",
          "type": "address"
        },
        {
          "internalType": "address",
          "name": "to",
          "type": "address"
        },
        {
          "internalType": "uint256",
          "name": "amount",
          "type": "uint256"
        }
      ],
      "name": "transferFrom",
      "outputs": [
        {
          "internalType": "bool",
          "name": "",
          "type": "bool"
        }
      ],
      "stateMutability": "nonpayable",
      "type": "function"
    }
  ],
  "bytecode": "0x6101a06040523480156200001257600080fd5b506040518060400160405280600f81526020016e109bdd5b991b195cdcc815dbdc9b19608a1b81525080604051806040016040528060018152602001603160f81b81525062000066620002b960201b60201c565b6200007390600a62000489565b620000839063dbf0ee80620004a1565b6040518060400160405280600f81526020016e109bdd5b991b195cdcc815dbdc9b19608a1b8152506040518060400160405280600381526020016221262160e91b8152508160039081620000d8919062000568565b506004620000e7828262000568565b505050600081116200013f5760405162461bcd60e51b815260206004820152601560248201527f45524332304361707065643a2063617020697320300000000000000000000000604482015260640160405180910390fd5b60805281516020808401919091208251918301919091206101008290526101208190524660c0527f8b73c3c69bb8fe3d512ecc4cf759cc79239f7b179b0ffacaa9a75d522b39400f620001d78184846040805160208101859052908101839052606081018290524660808201523060a082015260009060c0016040516020818303038152906040528051906020012090509392505050565b60a0523060e0526101405250504261016052505062278d0061018052503362000202600082620002be565b6200022e7f9f2df0fed2c77648de5860a4cc508cd0818c85b8b8a1ab4ceeef8d981c8956a682620002be565b6200025a7f3c8f0f83bc4264add7714ab92a8e9e5a6814570c3ad9097c24df50773299026682620002be565b620002867fb24c1025622fe38445b605f5c1a9bb02be7f6522d24c8a159e5e47e62dbaaecf82620002be565b620002b27f23ab0e580195340a5a67800cafa0615701edfa22f79534a52851336e3cf8376a82620002be565b5062000634565b601290565b620002ca828262000349565b620003455760008281526007602090815260408083206001600160a01b03851684529091529020805460ff19166001179055620003043390565b6001600160a01b0316816001600160a01b0316837f2f8788117e7eff1d82e926ec794901d17c78024a50270940304540a733656f0d60405160405180910390a45b5050565b60008281526007602090815260408083206001600160a01b038516845290915290205460ff165b92915050565b634e487b7160e01b600052601160045260246000fd5b600181815b80851115620003cd578160001904821115620003b157620003b162000376565b80851615620003bf57918102915b93841c939080029062000391565b509250929050565b600082620003e65750600162000370565b81620003f55750600062000370565b81600181146200040e5760028114620004195762000439565b600191505062000370565b60ff8411156200042d576200042d62000376565b50506001821b62000370565b5060208310610133831016604e8410600b84101617156200045e575081810a62000370565b6200046a83836200038c565b806000190482111562000481576200048162000376565b029392505050565b60006200049a60ff841683620003d5565b9392505050565b6000816000190483118215151615620004be57620004be62000376565b500290565b634e487b7160e01b600052604160045260246000fd5b600181811c90821680620004ee57607f821691505b6020821081036200050f57634e487b7160e01b600052602260045260246000fd5b50919050565b601f8211156200056357600081815260208120601f850160051c810160208610156200053e5750805b601f850160051c820191505b818110156200055f578281556001016200054a565b5050505b505050565b81516001600160401b03811115620005845762000584620004c3565b6200059c81620005958454620004d9565b8462000515565b602080601f831160018114620005d45760008415620005bb5750858301515b600019600386901b1c1916600185901b1785556200055f565b600085815260208120601f198616915b828110156200060557888601518255948401946001909101908401620005e4565b5085821015620006245787850151600019600388901b60f8161c191681555b5050505050600190811b01905550565b60805160a05160c05160e05161010051610120516101405161016051610180516125bd620006ba600039600081816107130152611e840152600081816107370152611ea80152600061123c0152600061128b01526000611266015260006111bf015260006111e90152600061121301526000818161033f015261166001526125bd6000f3fe608060405234801561001057600080fd5b506004361061021c5760003560e01c806340c10f1911610125578063a217fddf116100ad578063d505accf1161007c578063d505accf146104d6578063d5391393146104e9578063d547741f146104fe578063dd62ed3e14610511578063f976ca361461052457600080fd5b8063a217fddf14610495578063a457c2d71461049d578063a9059cbb146104b0578063c01bc982146104c357600080fd5b806370a08231116100f457806370a082311461042b57806379cc6790146104545780637ecebe001461046757806391d148541461047a57806395d89b411461048d57600080fd5b806340c10f19146103cb57806342966c68146103de57806351bcee27146103f15780635d1edb871461041857600080fd5b80632f2ff15d116101a85780633644e515116101775780633644e5151461036357806336568abe1461036b578063367065de1461037e57806339509351146103915780633e0b2cda146103a457600080fd5b80632f2ff15d146102f4578063311d9b2714610307578063313ce5671461032e578063355274ea1461033d57600080fd5b80631681f830116101ef5780631681f8301461028657806318160ddd14610299578063234eaedc146102ab57806323b872dd146102be578063248a9ca3146102d157600080fd5b806301ffc9a71461022157806306fdde0314610249578063095ea7b31461025e57806315c0702a14610271575b600080fd5b61023461022f36600461212b565b610537565b60405190151581526020015b60405180910390f35b61025161056e565b6040516102409190612181565b61023461026c3660046121cb565b610600565b61028461027f3660046121f5565b610618565b005b6102846102943660046121cb565b610652565b6002545b604051908152602001610240565b61029d6102b93660046121f5565b61068e565b6102346102cc366004612210565b6107bd565b61029d6102df36600461224c565b60009081526007602052604090206001015490565b610284610302366004612265565b6107e1565b61029d7f3c8f0f83bc4264add7714ab92a8e9e5a6814570c3ad9097c24df50773299026681565b60405160128152602001610240565b7f000000000000000000000000000000000000000000000000000000000000000061029d565b61029d610806565b610284610379366004612265565b610815565b61028461038c366004612291565b610898565b61023461039f3660046121cb565b6109e5565b61029d7fb24c1025622fe38445b605f5c1a9bb02be7f6522d24c8a159e5e47e62dbaaecf81565b6102846103d93660046121cb565b610a07565b6102846103ec36600461224c565b610a29565b61029d7f23ab0e580195340a5a67800cafa0615701edfa22f79534a52851336e3cf8376a81565b61029d61042636600461224c565b610a36565b61029d6104393660046121f5565b6001600160a01b031660009081526020819052604090205490565b6102846104623660046121cb565b610a6d565b61029d6104753660046121f5565b610a82565b610234610488366004612265565b610aa0565b610251610acb565b61029d600081565b6102346104ab3660046121cb565b610ada565b6102346104be3660046121cb565b610b55565b6102346104d13660046121f5565b610b63565b6102846104e43660046122c6565b610b70565b61029d60008051602061254883398151915281565b61028461050c366004612265565b610cd4565b61029d61051f366004612339565b610cf9565b61028461053236600461224c565b610d24565b60006001600160e01b03198216637965db0b60e01b148061056857506301ffc9a760e01b6001600160e01b03198316145b92915050565b60606003805461057d90612363565b80601f01602080910402602001604051908101604052809291908181526020018280546105a990612363565b80156105f65780601f106105cb576101008083540402835291602001916105f6565b820191906000526020600020905b8154815290600101906020018083116105d957829003601f168201915b5050505050905090565b60003361060e818585610db9565b5060019392505050565b7f23ab0e580195340a5a67800cafa0615701edfa22f79534a52851336e3cf8376a61064281610ede565b61064d600b83610ee8565b505050565b7f23ab0e580195340a5a67800cafa0615701edfa22f79534a52851336e3cf8376a61067c81610ede565b610688600b8484610efd565b50505050565b600061069982610b63565b156106a957610568600b83610f1b565b600f54620f4240036106d3576001600160a01b038216600090815260208190526040902054610568565b6000620f4240600f546106fb856001600160a01b031660009081526020819052604090205490565b61070591906123ad565b61070f91906123cc565b90507f000000000000000000000000000000000000000000000000000000000000000061075c7f0000000000000000000000000000000000000000000000000000000000000000426123ee565b61076691906123cc565b6001600160a01b0384166000908152600e6020526040902060010154036107af576001600160a01b0383166000908152600e60205260409020546107aa90826123ee565b6107b1565b805b9392505050565b919050565b6000336107cb858285610f30565b6107d6858585610fa4565b506001949350505050565b6000828152600760205260409020600101546107fc81610ede565b61064d838361112c565b60006108106111b2565b905090565b6001600160a01b038116331461088a5760405162461bcd60e51b815260206004820152602f60248201527f416363657373436f6e74726f6c3a2063616e206f6e6c792072656e6f756e636560448201526e103937b632b9903337b91039b2b63360891b60648201526084015b60405180910390fd5b61089482826112d9565b5050565b7f3c8f0f83bc4264add7714ab92a8e9e5a6814570c3ad9097c24df5077329902666108c281610ede565b8215806108cd575083155b61094d5760405162461bcd60e51b815260206004820152604560248201527f5472616e73616374696f6e4665653a2043616e6e6f742073657420666565416d60448201527f6f756e7420616e64206665654672616374696f6e206174207468652073616d656064820152642074696d6560d81b608482015260a401610881565b61c3508311156109ba5760405162461bcd60e51b815260206004820152603260248201527f5472616e73616374696f6e4665653a20557020746f203525207472616e7361636044820152711d1a5bdb9199594818d85b881899481cd95d60721b6064820152608401610881565b50600992909255600855600a80546001600160a01b0319166001600160a01b03909216919091179055565b60003361060e8185856109f88383610cf9565b610a029190612405565b610db9565b600080516020612548833981519152610a1f81610ede565b61064d8383611340565b610a33338261134a565b50565b60095460009015610a4957505060095490565b600854156107b857620f424060085483610a6391906123ad565b61056891906123cc565b610a78823383610f30565b610894828261134a565b6001600160a01b038116600090815260056020526040812054610568565b60009182526007602090815260408084206001600160a01b0393909316845291905290205460ff1690565b60606004805461057d90612363565b60003381610ae88286610cf9565b905083811015610b485760405162461bcd60e51b815260206004820152602560248201527f45524332303a2064656372656173656420616c6c6f77616e63652062656c6f77604482015264207a65726f60d81b6064820152608401610881565b6107d68286868403610db9565b60003361060e818585610fa4565b6000610568600b83611492565b83421115610bc05760405162461bcd60e51b815260206004820152601d60248201527f45524332305065726d69743a206578706972656420646561646c696e650000006044820152606401610881565b60007f6e71edae12b1b97f4d1f60370fef10105fa2faae0126114a169c64845d6126c9888888610bef8c6114a7565b6040805160208101969096526001600160a01b0394851690860152929091166060840152608083015260a082015260c0810186905260e0016040516020818303038152906040528051906020012090506000610c4a826114cf565b90506000610c5a8287878761151d565b9050896001600160a01b0316816001600160a01b031614610cbd5760405162461bcd60e51b815260206004820152601e60248201527f45524332305065726d69743a20696e76616c6964207369676e617475726500006044820152606401610881565b610cc88a8a8a610db9565b50505050505050505050565b600082815260076020526040902060010154610cef81610ede565b61064d83836112d9565b6001600160a01b03918216600090815260016020908152604080832093909416825291909152205490565b7fb24c1025622fe38445b605f5c1a9bb02be7f6522d24c8a159e5e47e62dbaaecf610d4e81610ede565b620f4240821115610db35760405162461bcd60e51b815260206004820152602960248201527f6d6178696d756d206672616374696f6e2069732031302a2a362028657175616c60448201526820746f20313030252960b81b6064820152608401610881565b50600f55565b6001600160a01b038316610e1b5760405162461bcd60e51b8152602060048201526024808201527f45524332303a20617070726f76652066726f6d20746865207a65726f206164646044820152637265737360e01b6064820152608401610881565b6001600160a01b038216610e7c5760405162461bcd60e51b815260206004820152602260248201527f45524332303a20617070726f766520746f20746865207a65726f206164647265604482015261737360f01b6064820152608401610881565b6001600160a01b0383811660008181526001602090815260408083209487168084529482529182902085905590518481527f8c5be1e5ebec7d5bd14f71427d1e84f3dd0314c0f7b2291e5b200ac8c7c3b92591015b60405180910390a3505050565b610a338133611545565b60006107b1836001600160a01b0384166115a9565b6000610f13846001600160a01b038516846115c6565b949350505050565b60006107b1836001600160a01b0384166115e3565b6000610f3c8484610cf9565b905060001981146106885781811015610f975760405162461bcd60e51b815260206004820152601d60248201527f45524332303a20696e73756666696369656e7420616c6c6f77616e63650000006044820152606401610881565b6106888484848403610db9565b6001600160a01b0383166110085760405162461bcd60e51b815260206004820152602560248201527f45524332303a207472616e736665722066726f6d20746865207a65726f206164604482015264647265737360d81b6064820152608401610881565b6001600160a01b03821661106a5760405162461bcd60e51b815260206004820152602360248201527f45524332303a207472616e7366657220746f20746865207a65726f206164647260448201526265737360e81b6064820152608401610881565b611075838383611653565b6001600160a01b038316600090815260208190526040902054818110156110ae5760405162461bcd60e51b81526004016108819061241d565b6001600160a01b038085166000908152602081905260408082208585039055918516815290812080548492906110e5908490612405565b92505081905550826001600160a01b0316846001600160a01b03166000805160206125688339815191528460405161111f91815260200190565b60405180910390a3610688565b6111368282610aa0565b6108945760008281526007602090815260408083206001600160a01b03851684529091529020805460ff1916600117905561116e3390565b6001600160a01b0316816001600160a01b0316837f2f8788117e7eff1d82e926ec794901d17c78024a50270940304540a733656f0d60405160405180910390a45050565b6000306001600160a01b037f00000000000000000000000000000000000000000000000000000000000000001614801561120b57507f000000000000000000000000000000000000000000000000000000000000000046145b1561123557507f000000000000000000000000000000000000000000000000000000000000000090565b50604080517f00000000000000000000000000000000000000000000000000000000000000006020808301919091527f0000000000000000000000000000000000000000000000000000000000000000828401527f000000000000000000000000000000000000000000000000000000000000000060608301524660808301523060a0808401919091528351808403909101815260c0909201909252805191012090565b6112e38282610aa0565b156108945760008281526007602090815260408083206001600160a01b0385168085529252808320805460ff1916905551339285917ff6391f5c32d9c69d2a47ea670b442974b53935d1edc7fd64eb21e047a839171b9190a45050565b610894828261165e565b6001600160a01b0382166113aa5760405162461bcd60e51b815260206004820152602160248201527f45524332303a206275726e2066726f6d20746865207a65726f206164647265736044820152607360f81b6064820152608401610881565b6113b682600083611653565b6001600160a01b0382166000908152602081905260409020548181101561142a5760405162461bcd60e51b815260206004820152602260248201527f45524332303a206275726e20616d6f756e7420657863656564732062616c616e604482015261636560f01b6064820152608401610881565b6001600160a01b03831660009081526020819052604081208383039055600280548492906114599084906123ee565b90915550506040518281526000906001600160a01b038516906000805160206125688339815191529060200160405180910390a3505050565b60006107b1836001600160a01b0384166116eb565b6001600160a01b03811660009081526005602052604090208054600181018255905b50919050565b60006105686114dc6111b2565b8360405161190160f01b6020820152602281018390526042810182905260009060620160405160208183030381529060405280519060200120905092915050565b600080600061152e878787876116f7565b9150915061153b816117e4565b5095945050505050565b61154f8282610aa0565b61089457611567816001600160a01b0316601461199a565b61157283602061199a565b604051602001611583929190612463565b60408051601f198184030181529082905262461bcd60e51b825261088191600401612181565b600081815260028301602052604081208190556107b18383611b36565b60008281526002840160205260408120829055610f138484611b42565b600081815260028301602052604081205480151580611607575061160784846116eb565b6107b15760405162461bcd60e51b815260206004820152601e60248201527f456e756d657261626c654d61703a206e6f6e6578697374656e74206b657900006044820152606401610881565b61064d838383611b4e565b7f00000000000000000000000000000000000000000000000000000000000000008161168960025490565b6116939190612405565b11156116e15760405162461bcd60e51b815260206004820152601960248201527f45524332304361707065643a20636170206578636565646564000000000000006044820152606401610881565b6108948282611b7f565b60006107b18383611c58565b6000807f7fffffffffffffffffffffffffffffff5d576e7357a4501ddfe92f46681b20a083111561172e57506000905060036117db565b8460ff16601b1415801561174657508460ff16601c14155b1561175757506000905060046117db565b6040805160008082526020820180845289905260ff881692820192909252606081018690526080810185905260019060a0016020604051602081039080840390855afa1580156117ab573d6000803e3d6000fd5b5050604051601f1901519150506001600160a01b0381166117d4576000600192509250506117db565b9150600090505b94509492505050565b60008160048111156117f8576117f86124d8565b036118005750565b6001816004811115611814576118146124d8565b036118615760405162461bcd60e51b815260206004820152601860248201527f45434453413a20696e76616c6964207369676e617475726500000000000000006044820152606401610881565b6002816004811115611875576118756124d8565b036118c25760405162461bcd60e51b815260206004820152601f60248201527f45434453413a20696e76616c6964207369676e6174757265206c656e677468006044820152606401610881565b60038160048111156118d6576118d66124d8565b0361192e5760405162461bcd60e51b815260206004820152602260248201527f45434453413a20696e76616c6964207369676e6174757265202773272076616c604482015261756560f01b6064820152608401610881565b6004816004811115611942576119426124d8565b03610a335760405162461bcd60e51b815260206004820152602260248201527f45434453413a20696e76616c6964207369676e6174757265202776272076616c604482015261756560f01b6064820152608401610881565b606060006119a98360026123ad565b6119b4906002612405565b67ffffffffffffffff8111156119cc576119cc6124ee565b6040519080825280601f01601f1916602001820160405280156119f6576020820181803683370190505b509050600360fc1b81600081518110611a1157611a11612504565b60200101906001600160f81b031916908160001a905350600f60fb1b81600181518110611a4057611a40612504565b60200101906001600160f81b031916908160001a9053506000611a648460026123ad565b611a6f906001612405565b90505b6001811115611ae7576f181899199a1a9b1b9c1cb0b131b232b360811b85600f1660108110611aa357611aa3612504565b1a60f81b828281518110611ab957611ab9612504565b60200101906001600160f81b031916908160001a90535060049490941c93611ae08161251a565b9050611a72565b5083156107b15760405162461bcd60e51b815260206004820181905260248201527f537472696e67733a20686578206c656e67746820696e73756666696369656e746044820152606401610881565b60006107b18383611c70565b60006107b18383611d63565b611b6660008051602061254883398151915233610aa0565b611b7457611b748382611db2565b61064d838383611fb9565b6001600160a01b038216611bd55760405162461bcd60e51b815260206004820152601f60248201527f45524332303a206d696e7420746f20746865207a65726f2061646472657373006044820152606401610881565b611be160008383611653565b8060026000828254611bf39190612405565b90915550506001600160a01b03821660009081526020819052604081208054839290611c20908490612405565b90915550506040518181526001600160a01b038316906000906000805160206125688339815191529060200160405180910390a35050565b600081815260018301602052604081205415156107b1565b60008181526001830160205260408120548015611d59576000611c946001836123ee565b8554909150600090611ca8906001906123ee565b9050818114611d0d576000866000018281548110611cc857611cc8612504565b9060005260206000200154905080876000018481548110611ceb57611ceb612504565b6000918252602080832090910192909255918252600188019052604090208390555b8554869080611d1e57611d1e612531565b600190038181906000526020600020016000905590558560010160008681526020019081526020016000206000905560019350505050610568565b6000915050610568565b6000818152600183016020526040812054611daa57508154600181810184556000848152602080822090930184905584548482528286019093526040902091909155610568565b506000610568565b611dbb82610b63565b15611e36576000611dcd600b84610f1b565b905080821115611e1f5760405162461bcd60e51b815260206004820152601a60248201527f616d6f756e742065786365656473207370656e64206c696d69740000000000006044820152606401610881565b61068883611e2d84846123ee565b600b9190610efd565b600f54620f424014610894576000620f4240600f54611e6a856001600160a01b031660009081526020819052604090205490565b611e7491906123ad565b611e7e91906123cc565b905060007f0000000000000000000000000000000000000000000000000000000000000000611ecd7f0000000000000000000000000000000000000000000000000000000000000000426123ee565b611ed791906123cc565b6001600160a01b0385166000908152600e6020526040902060010154909150819003611f23576001600160a01b0384166000908152600e6020526040902054611f209084612405565b92505b81831115611f7d5760405162461bcd60e51b815260206004820152602160248201527f616d6f756e74206578636565647320706572696f64207370656e64206c696d696044820152601d60fa1b6064820152608401610881565b60408051808201825293845260208085019283526001600160a01b03959095166000908152600e90955290932091518255509051600190910155565b33611fd260008051602061254883398151915282610aa0565b6120165760006008541180611fe957506000600954115b15612016576000611ff983610a36565b600a549091506120149083906001600160a01b03168361201b565b505b610688565b6001600160a01b03831615612086576001600160a01b038316600090815260208190526040902054818110156120635760405162461bcd60e51b81526004016108819061241d565b6001600160a01b038416600090815260208190526040902090829003905561209e565b80600260008282546120989190612405565b90915550505b6001600160a01b038216156120e0576001600160a01b038216600090815260208190526040812080548392906120d5908490612405565b909155506120f89050565b80600260008282546120f291906123ee565b90915550505b816001600160a01b0316836001600160a01b031660008051602061256883398151915283604051610ed191815260200190565b60006020828403121561213d57600080fd5b81356001600160e01b0319811681146107b157600080fd5b60005b83811015612170578181015183820152602001612158565b838111156106885750506000910152565b60208152600082518060208401526121a0816040850160208701612155565b601f01601f19169190910160400192915050565b80356001600160a01b03811681146107b857600080fd5b600080604083850312156121de57600080fd5b6121e7836121b4565b946020939093013593505050565b60006020828403121561220757600080fd5b6107b1826121b4565b60008060006060848603121561222557600080fd5b61222e846121b4565b925061223c602085016121b4565b9150604084013590509250925092565b60006020828403121561225e57600080fd5b5035919050565b6000806040838503121561227857600080fd5b82359150612288602084016121b4565b90509250929050565b6000806000606084860312156122a657600080fd5b83359250602084013591506122bd604085016121b4565b90509250925092565b600080600080600080600060e0888a0312156122e157600080fd5b6122ea886121b4565b96506122f8602089016121b4565b95506040880135945060608801359350608088013560ff8116811461231c57600080fd5b9699959850939692959460a0840135945060c09093013592915050565b6000806040838503121561234c57600080fd5b612355836121b4565b9150612288602084016121b4565b600181811c9082168061237757607f821691505b6020821081036114c957634e487b7160e01b600052602260045260246000fd5b634e487b7160e01b600052601160045260246000fd5b60008160001904831182151516156123c7576123c7612397565b500290565b6000826123e957634e487b7160e01b600052601260045260246000fd5b500490565b60008282101561240057612400612397565b500390565b6000821982111561241857612418612397565b500190565b60208082526026908201527f45524332303a207472616e7366657220616d6f756e7420657863656564732062604082015265616c616e636560d01b606082015260800190565b7f416363657373436f6e74726f6c3a206163636f756e742000000000000000000081526000835161249b816017850160208801612155565b7001034b99036b4b9b9b4b733903937b6329607d1b60179184019182015283516124cc816028840160208801612155565b01602801949350505050565b634e487b7160e01b600052602160045260246000fd5b634e487b7160e01b600052604160045260246000fd5b634e487b7160e01b600052603260045260246000fd5b60008161252957612529612397565b506000190190565b634e487b7160e01b600052603160045260246000fdfe9f2df0fed2c77648de5860a4cc508cd0818c85b8b8a1ab4ceeef8d981c8956a6ddf252ad1be2c89b69c2b068fc378daa952ba7f163c4a11628f55a4df523b3efa2646970667358221220c12fa9edf7afa0f04591609bea480bf2e538f2bd7b9f94c802d1456b20d03def64736f6c634300080f0033",
  "linkReferences": {},
  "deployedLinkReferences": {}
}