{
  "_format": "hh-sol-artifact-1",
  "contractName": "BLBToken",
  "sourceName": "contracts/BEP20/BLBToken.sol",
  "abi": [
    {
      "inputs": [
        {
          "internalType": "address",
          "name": "initialAdmin",
          "type": "address"
        }
      ],
      "stateMutability": "nonpayable",
      "type": "constructor"
    },
    {
      "anonymous": false,
      "inputs": [
        {
          "indexed": true,
          "internalType": "address",
          "name": "owner",
          "type": "address"
        },
        {
          "indexed": true,
          "internalType": "address",
          "name": "spender",
          "type": "address"
        },
        {
          "indexed": false,
          "internalType": "uint256",
          "name": "value",
          "type": "uint256"
        }
      ],
      "name": "Approval",
      "type": "event"
    },
    {
      "anonymous": false,
      "inputs": [
        {
          "indexed": true,
          "internalType": "bytes32",
          "name": "role",
          "type": "bytes32"
        },
        {
          "indexed": true,
          "internalType": "bytes32",
          "name": "previousAdminRole",
          "type": "bytes32"
        },
        {
          "indexed": true,
          "internalType": "bytes32",
          "name": "newAdminRole",
          "type": "bytes32"
        }
      ],
      "name": "RoleAdminChanged",
      "type": "event"
    },
    {
      "anonymous": false,
      "inputs": [
        {
          "indexed": true,
          "internalType": "bytes32",
          "name": "role",
          "type": "bytes32"
        },
        {
          "indexed": true,
          "internalType": "address",
          "name": "account",
          "type": "address"
        },
        {
          "indexed": true,
          "internalType": "address",
          "name": "sender",
          "type": "address"
        }
      ],
      "name": "RoleGranted",
      "type": "event"
    },
    {
      "anonymous": false,
      "inputs": [
        {
          "indexed": true,
          "internalType": "bytes32",
          "name": "role",
          "type": "bytes32"
        },
        {
          "indexed": true,
          "internalType": "address",
          "name": "account",
          "type": "address"
        },
        {
          "indexed": true,
          "internalType": "address",
          "name": "sender",
          "type": "address"
        }
      ],
      "name": "RoleRevoked",
      "type": "event"
    },
    {
      "anonymous": false,
      "inputs": [
        {
          "indexed": false,
          "internalType": "uint256",
          "name": "_feeAmount",
          "type": "uint256"
        },
        {
          "indexed": false,
          "internalType": "uint256",
          "name": "_feeFraction",
          "type": "uint256"
        },
        {
          "indexed": false,
          "internalType": "address",
          "name": "_feeReceiver",
          "type": "address"
        }
      ],
      "name": "SetTransactionFee",
      "type": "event"
    },
    {
      "anonymous": false,
      "inputs": [
        {
          "indexed": true,
          "internalType": "address",
          "name": "from",
          "type": "address"
        },
        {
          "indexed": true,
          "internalType": "address",
          "name": "to",
          "type": "address"
        },
        {
          "indexed": false,
          "internalType": "uint256",
          "name": "value",
          "type": "uint256"
        }
      ],
      "name": "Transfer",
      "type": "event"
    },
    {
      "inputs": [],
      "name": "DEFAULT_ADMIN_ROLE",
      "outputs": [
        {
          "internalType": "bytes32",
          "name": "",
          "type": "bytes32"
        }
      ],
      "stateMutability": "view",
      "type": "function"
    },
    {
      "inputs": [],
      "name": "DOMAIN_SEPARATOR",
      "outputs": [
        {
          "internalType": "bytes32",
          "name": "",
          "type": "bytes32"
        }
      ],
      "stateMutability": "view",
      "type": "function"
    },
    {
      "inputs": [],
      "name": "FEE_FREE_ROLE",
      "outputs": [
        {
          "internalType": "bytes32",
          "name": "",
          "type": "bytes32"
        }
      ],
      "stateMutability": "view",
      "type": "function"
    },
    {
      "inputs": [],
      "name": "FEE_SETTER_ROLE",
      "outputs": [
        {
          "internalType": "bytes32",
          "name": "",
          "type": "bytes32"
        }
      ],
      "stateMutability": "view",
      "type": "function"
    },
    {
      "inputs": [],
      "name": "MINTER_ROLE",
      "outputs": [
        {
          "internalType": "bytes32",
          "name": "",
          "type": "bytes32"
        }
      ],
      "stateMutability": "view",
      "type": "function"
    },
    {
      "inputs": [
        {
          "internalType": "address",
          "name": "owner",
          "type": "address"
        },
        {
          "internalType": "address",
          "name": "spender",
          "type": "address"
        }
      ],
      "name": "allowance",
      "outputs": [
        {
          "internalType": "uint256",
          "name": "",
          "type": "uint256"
        }
      ],
      "stateMutability": "view",
      "type": "function"
    },
    {
      "inputs": [
        {
          "internalType": "address",
          "name": "spender",
          "type": "address"
        },
        {
          "internalType": "uint256",
          "name": "amount",
          "type": "uint256"
        }
      ],
      "name": "approve",
      "outputs": [
        {
          "internalType": "bool",
          "name": "",
          "type": "bool"
        }
      ],
      "stateMutability": "nonpayable",
      "type": "function"
    },
    {
      "inputs": [
        {
          "internalType": "address",
          "name": "account",
          "type": "address"
        }
      ],
      "name": "balanceOf",
      "outputs": [
        {
          "internalType": "uint256",
          "name": "",
          "type": "uint256"
        }
      ],
      "stateMutability": "view",
      "type": "function"
    },
    {
      "inputs": [
        {
          "internalType": "uint256",
          "name": "amount",
          "type": "uint256"
        }
      ],
      "name": "burn",
      "outputs": [],
      "stateMutability": "nonpayable",
      "type": "function"
    },
    {
      "inputs": [
        {
          "internalType": "address",
          "name": "account",
          "type": "address"
        },
        {
          "internalType": "uint256",
          "name": "amount",
          "type": "uint256"
        }
      ],
      "name": "burnFrom",
      "outputs": [],
      "stateMutability": "nonpayable",
      "type": "function"
    },
    {
      "inputs": [],
      "name": "cap",
      "outputs": [
        {
          "internalType": "uint256",
          "name": "",
          "type": "uint256"
        }
      ],
      "stateMutability": "view",
      "type": "function"
    },
    {
      "inputs": [],
      "name": "decimals",
      "outputs": [
        {
          "internalType": "uint8",
          "name": "",
          "type": "uint8"
        }
      ],
      "stateMutability": "view",
      "type": "function"
    },
    {
      "inputs": [
        {
          "internalType": "address",
          "name": "spender",
          "type": "address"
        },
        {
          "internalType": "uint256",
          "name": "subtractedValue",
          "type": "uint256"
        }
      ],
      "name": "decreaseAllowance",
      "outputs": [
        {
          "internalType": "bool",
          "name": "",
          "type": "bool"
        }
      ],
      "stateMutability": "nonpayable",
      "type": "function"
    },
    {
      "inputs": [],
      "name": "feeDetails",
      "outputs": [
        {
          "internalType": "uint256",
          "name": "",
          "type": "uint256"
        },
        {
          "internalType": "uint256",
          "name": "",
          "type": "uint256"
        },
        {
          "internalType": "address",
          "name": "",
          "type": "address"
        }
      ],
      "stateMutability": "view",
      "type": "function"
    },
    {
      "inputs": [
        {
          "internalType": "bytes32",
          "name": "role",
          "type": "bytes32"
        }
      ],
      "name": "getRoleAdmin",
      "outputs": [
        {
          "internalType": "bytes32",
          "name": "",
          "type": "bytes32"
        }
      ],
      "stateMutability": "view",
      "type": "function"
    },
    {
      "inputs": [
        {
          "internalType": "bytes32",
          "name": "role",
          "type": "bytes32"
        },
        {
          "internalType": "uint256",
          "name": "index",
          "type": "uint256"
        }
      ],
      "name": "getRoleMember",
      "outputs": [
        {
          "internalType": "address",
          "name": "",
          "type": "address"
        }
      ],
      "stateMutability": "view",
      "type": "function"
    },
    {
      "inputs": [
        {
          "internalType": "bytes32",
          "name": "role",
          "type": "bytes32"
        }
      ],
      "name": "getRoleMemberCount",
      "outputs": [
        {
          "internalType": "uint256",
          "name": "",
          "type": "uint256"
        }
      ],
      "stateMutability": "view",
      "type": "function"
    },
    {
      "inputs": [
        {
          "internalType": "bytes32",
          "name": "role",
          "type": "bytes32"
        },
        {
          "internalType": "address",
          "name": "account",
          "type": "address"
        }
      ],
      "name": "grantRole",
      "outputs": [],
      "stateMutability": "nonpayable",
      "type": "function"
    },
    {
      "inputs": [
        {
          "internalType": "bytes32",
          "name": "role",
          "type": "bytes32"
        },
        {
          "internalType": "address",
          "name": "account",
          "type": "address"
        }
      ],
      "name": "hasRole",
      "outputs": [
        {
          "internalType": "bool",
          "name": "",
          "type": "bool"
        }
      ],
      "stateMutability": "view",
      "type": "function"
    },
    {
      "inputs": [
        {
          "internalType": "address",
          "name": "spender",
          "type": "address"
        },
        {
          "internalType": "uint256",
          "name": "addedValue",
          "type": "uint256"
        }
      ],
      "name": "increaseAllowance",
      "outputs": [
        {
          "internalType": "bool",
          "name": "",
          "type": "bool"
        }
      ],
      "stateMutability": "nonpayable",
      "type": "function"
    },
    {
      "inputs": [
        {
          "internalType": "address",
          "name": "account",
          "type": "address"
        },
        {
          "internalType": "uint256",
          "name": "amount",
          "type": "uint256"
        }
      ],
      "name": "mint",
      "outputs": [],
      "stateMutability": "nonpayable",
      "type": "function"
    },
    {
      "inputs": [
        {
          "internalType": "address[]",
          "name": "accounts",
          "type": "address[]"
        },
        {
          "internalType": "uint256",
          "name": "amount",
          "type": "uint256"
        }
      ],
      "name": "mintBatch",
      "outputs": [],
      "stateMutability": "nonpayable",
      "type": "function"
    },
    {
      "inputs": [],
      "name": "name",
      "outputs": [
        {
          "internalType": "string",
          "name": "",
          "type": "string"
        }
      ],
      "stateMutability": "view",
      "type": "function"
    },
    {
      "inputs": [
        {
          "internalType": "address",
          "name": "owner",
          "type": "address"
        }
      ],
      "name": "nonces",
      "outputs": [
        {
          "internalType": "uint256",
          "name": "",
          "type": "uint256"
        }
      ],
      "stateMutability": "view",
      "type": "function"
    },
    {
      "inputs": [
        {
          "internalType": "address",
          "name": "owner",
          "type": "address"
        },
        {
          "internalType": "address",
          "name": "spender",
          "type": "address"
        },
        {
          "internalType": "uint256",
          "name": "value",
          "type": "uint256"
        },
        {
          "internalType": "uint256",
          "name": "deadline",
          "type": "uint256"
        },
        {
          "internalType": "uint8",
          "name": "v",
          "type": "uint8"
        },
        {
          "internalType": "bytes32",
          "name": "r",
          "type": "bytes32"
        },
        {
          "internalType": "bytes32",
          "name": "s",
          "type": "bytes32"
        }
      ],
      "name": "permit",
      "outputs": [],
      "stateMutability": "nonpayable",
      "type": "function"
    },
    {
      "inputs": [
        {
          "internalType": "bytes32",
          "name": "role",
          "type": "bytes32"
        },
        {
          "internalType": "address",
          "name": "account",
          "type": "address"
        }
      ],
      "name": "renounceRole",
      "outputs": [],
      "stateMutability": "nonpayable",
      "type": "function"
    },
    {
      "inputs": [
        {
          "internalType": "bytes32",
          "name": "role",
          "type": "bytes32"
        },
        {
          "internalType": "address",
          "name": "account",
          "type": "address"
        }
      ],
      "name": "revokeRole",
      "outputs": [],
      "stateMutability": "nonpayable",
      "type": "function"
    },
    {
      "inputs": [
        {
          "internalType": "uint256",
          "name": "_feeAmount",
          "type": "uint256"
        },
        {
          "internalType": "uint256",
          "name": "_feeFraction",
          "type": "uint256"
        },
        {
          "internalType": "address",
          "name": "_feeReceiver",
          "type": "address"
        }
      ],
      "name": "setTransactionFee",
      "outputs": [],
      "stateMutability": "nonpayable",
      "type": "function"
    },
    {
      "inputs": [
        {
          "internalType": "bytes4",
          "name": "interfaceId",
          "type": "bytes4"
        }
      ],
      "name": "supportsInterface",
      "outputs": [
        {
          "internalType": "bool",
          "name": "",
          "type": "bool"
        }
      ],
      "stateMutability": "view",
      "type": "function"
    },
    {
      "inputs": [],
      "name": "symbol",
      "outputs": [
        {
          "internalType": "string",
          "name": "",
          "type": "string"
        }
      ],
      "stateMutability": "view",
      "type": "function"
    },
    {
      "inputs": [],
      "name": "totalSupply",
      "outputs": [
        {
          "internalType": "uint256",
          "name": "",
          "type": "uint256"
        }
      ],
      "stateMutability": "view",
      "type": "function"
    },
    {
      "inputs": [
        {
          "internalType": "uint256",
          "name": "transferingAmount",
          "type": "uint256"
        }
      ],
      "name": "transactionFee",
      "outputs": [
        {
          "internalType": "uint256",
          "name": "fee",
          "type": "uint256"
        }
      ],
      "stateMutability": "view",
      "type": "function"
    },
    {
      "inputs": [
        {
          "internalType": "address",
          "name": "to",
          "type": "address"
        },
        {
          "internalType": "uint256",
          "name": "amount",
          "type": "uint256"
        }
      ],
      "name": "transfer",
      "outputs": [
        {
          "internalType": "bool",
          "name": "",
          "type": "bool"
        }
      ],
      "stateMutability": "nonpayable",
      "type": "function"
    },
    {
      "inputs": [
        {
          "internalType": "address",
          "name": "from",
          "type": "address"
        },
        {
          "internalType": "address",
          "name": "to",
          "type": "address"
        },
        {
          "internalType": "uint256",
          "name": "amount",
          "type": "uint256"
        }
      ],
      "name": "transferFrom",
      "outputs": [
        {
          "internalType": "bool",
          "name": "",
          "type": "bool"
        }
      ],
      "stateMutability": "nonpayable",
      "type": "function"
    }
  ],
  "bytecode": "0x6101606040523480156200001257600080fd5b50604051620029e9380380620029e9833981016040819052620000359162000403565b6040518060400160405280600f81526020016e109bdd5b991b195cdcc815dbdc9b19608a1b81525080604051806040016040528060018152602001603160f81b81525062000088620002a460201b60201c565b6200009590600a62000548565b620000a59063dbf0ee8062000559565b6040518060400160405280600f81526020016e109bdd5b991b195cdcc815dbdc9b19608a1b8152506040518060400160405280600381526020016221262160e91b8152508160039081620000fa919062000617565b50600462000109828262000617565b50505060008111620001615760405162461bcd60e51b815260206004820152601560248201527f45524332304361707065643a2063617020697320300000000000000000000000604482015260640160405180910390fd5b60805281516020808401919091208251918301919091206101008290526101208190524660c0527f8b73c3c69bb8fe3d512ecc4cf759cc79239f7b179b0ffacaa9a75d522b39400f620001f98184846040805160208101859052908101839052606081018290524660808201523060a082015260009060c0016040516020818303038152906040528051906020012090509392505050565b60a0523060e05261014052506200021993506000925084915050620002a9565b620002457f9f2df0fed2c77648de5860a4cc508cd0818c85b8b8a1ab4ceeef8d981c8956a682620002a9565b620002717fe6ad9a47fbda1dc18de1eb5eeb7d935e5e81b4748f3cfc61e233e64f8818206082620002a9565b6200029d7f9972172bf394f5d077adb577f8bd4c61a9f748ee12df651958d4361d0f68413182620002a9565b50620006e3565b601290565b620002c08282620002ec60201b62000c791760201c565b6000828152600860209081526040909120620002e791839062000cff62000391821b17901c565b505050565b60008281526007602090815260408083206001600160a01b038516845290915290205460ff166200038d5760008281526007602090815260408083206001600160a01b03851684529091529020805460ff191660011790556200034c3390565b6001600160a01b0316816001600160a01b0316837f2f8788117e7eff1d82e926ec794901d17c78024a50270940304540a733656f0d60405160405180910390a45b5050565b6000620003a8836001600160a01b038416620003b1565b90505b92915050565b6000818152600183016020526040812054620003fa57508154600181810184556000848152602080822090930184905584548482528286019093526040902091909155620003ab565b506000620003ab565b6000602082840312156200041657600080fd5b81516001600160a01b03811681146200042e57600080fd5b9392505050565b634e487b7160e01b600052601160045260246000fd5b600181815b808511156200048c57816000190482111562000470576200047062000435565b808516156200047e57918102915b93841c939080029062000450565b509250929050565b600082620004a557506001620003ab565b81620004b457506000620003ab565b8160018114620004cd5760028114620004d857620004f8565b6001915050620003ab565b60ff841115620004ec57620004ec62000435565b50506001821b620003ab565b5060208310610133831016604e8410600b84101617156200051d575081810a620003ab565b6200052983836200044b565b806000190482111562000540576200054062000435565b029392505050565b6000620003a860ff84168362000494565b8082028115828204841417620003ab57620003ab62000435565b634e487b7160e01b600052604160045260246000fd5b600181811c908216806200059e57607f821691505b602082108103620005bf57634e487b7160e01b600052602260045260246000fd5b50919050565b601f821115620002e757600081815260208120601f850160051c81016020861015620005ee5750805b601f850160051c820191505b818110156200060f57828155600101620005fa565b505050505050565b81516001600160401b0381111562000633576200063362000573565b6200064b8162000644845462000589565b84620005c5565b602080601f8311600181146200068357600084156200066a5750858301515b600019600386901b1c1916600185901b1785556200060f565b600085815260208120601f198616915b82811015620006b45788860151825594840194600190910190840162000693565b5085821015620006d35787850151600019600388901b60f8161c191681555b5050505050600190811b01905550565b60805160a05160c05160e0516101005161012051610140516122a46200074560003960006111260152600061117501526000611150015260006110a9015260006110d3015260006110fd0152600081816102f6015261152701526122a46000f3fe608060405234801561001057600080fd5b50600436106102065760003560e01c806370a082311161011a578063a9059cbb116100ad578063d505accf1161007c578063d505accf146104a4578063d5391393146104b7578063d547741f146104de578063dd62ed3e146104f1578063e93476831461050457600080fd5b8063a9059cbb14610444578063ae99c57714610457578063b6afc4dc1461047e578063ca15c8731461049157600080fd5b806391d14854116100e957806391d148541461040e57806395d89b4114610421578063a217fddf14610429578063a457c2d71461043157600080fd5b806370a082311461039457806379cc6790146103bd5780637ecebe00146103d05780639010d07c146103e357600080fd5b8063313ce5671161019d578063367065de1161016c578063367065de14610335578063395093511461034857806340c10f191461035b57806342966c681461036e5780635d1edb871461038157600080fd5b8063313ce567146102e5578063355274ea146102f45780633644e5151461031a57806336568abe1461032257600080fd5b80631f2c5443116101d95780631f2c54431461026d57806323b872dd1461029a578063248a9ca3146102ad5780632f2ff15d146102d057600080fd5b806301ffc9a71461020b57806306fdde0314610233578063095ea7b31461024857806318160ddd1461025b575b600080fd5b61021e610219366004611d8d565b61052b565b60405190151581526020015b60405180910390f35b61023b610556565b60405161022a9190611ddb565b61021e610256366004611e25565b6105e8565b6002545b60405190815260200161022a565b600a54600954600b546040805193845260208401929092526001600160a01b03169082015260600161022a565b61021e6102a8366004611e4f565b610600565b61025f6102bb366004611e8b565b60009081526007602052604090206001015490565b6102e36102de366004611ea4565b610624565b005b6040516012815260200161022a565b7f000000000000000000000000000000000000000000000000000000000000000061025f565b61025f61064e565b6102e3610330366004611ea4565b61065d565b6102e3610343366004611ed0565b6106e0565b61021e610356366004611e25565b610874565b6102e3610369366004611e25565b610896565b6102e361037c366004611e8b565b6108ca565b61025f61038f366004611e8b565b6108d7565b61025f6103a2366004611f05565b6001600160a01b031660009081526020819052604090205490565b6102e36103cb366004611e25565b610913565b61025f6103de366004611f05565b610928565b6103f66103f1366004611f20565b610946565b6040516001600160a01b03909116815260200161022a565b61021e61041c366004611ea4565b610965565b61023b610990565b61025f600081565b61021e61043f366004611e25565b61099f565b61021e610452366004611e25565b610a1a565b61025f7f9972172bf394f5d077adb577f8bd4c61a9f748ee12df651958d4361d0f68413181565b6102e361048c366004611f42565b610a28565b61025f61049f366004611e8b565b610aae565b6102e36104b2366004611fbd565b610ac5565b61025f7f9f2df0fed2c77648de5860a4cc508cd0818c85b8b8a1ab4ceeef8d981c8956a681565b6102e36104ec366004611ea4565b610c29565b61025f6104ff366004612030565b610c4e565b61025f7fe6ad9a47fbda1dc18de1eb5eeb7d935e5e81b4748f3cfc61e233e64f8818206081565b60006001600160e01b03198216635a05180f60e01b1480610550575061055082610d14565b92915050565b6060600380546105659061205a565b80601f01602080910402602001604051908101604052809291908181526020018280546105919061205a565b80156105de5780601f106105b3576101008083540402835291602001916105de565b820191906000526020600020905b8154815290600101906020018083116105c157829003601f168201915b5050505050905090565b6000336105f6818585610d49565b5060019392505050565b60003361060e858285610e6e565b610619858585610ee8565b506001949350505050565b60008281526007602052604090206001015461063f81611070565b610649838361107a565b505050565b600061065861109c565b905090565b6001600160a01b03811633146106d25760405162461bcd60e51b815260206004820152602f60248201527f416363657373436f6e74726f6c3a2063616e206f6e6c792072656e6f756e636560448201526e103937b632b9903337b91039b2b63360891b60648201526084015b60405180910390fd5b6106dc82826111c3565b5050565b7fe6ad9a47fbda1dc18de1eb5eeb7d935e5e81b4748f3cfc61e233e64f8818206061070a81611070565b821580610715575083155b6107955760405162461bcd60e51b815260206004820152604560248201527f5472616e73616374696f6e4665653a2043616e6e6f742073657420666565416d60448201527f6f756e7420616e64206665654672616374696f6e206174207468652073616d656064820152642074696d6560d81b608482015260a4016106c9565b620186a08311156108045760405162461bcd60e51b815260206004820152603360248201527f5472616e73616374696f6e4665653a20557020746f20313025207472616e736160448201527218dd1a5bdb9199594818d85b881899481cd95d606a1b60648201526084016106c9565b600a8490556009839055600b80546001600160a01b0319166001600160a01b0384169081179091556040805186815260208101869052908101919091527fd75a7916f83ee976ae8e04e3f9b46c9b16b546303f09f1fc20eccb6cd6bc476d9060600160405180910390a150505050565b6000336105f68185856108878383610c4e565b61089191906120a4565b610d49565b7f9f2df0fed2c77648de5860a4cc508cd0818c85b8b8a1ab4ceeef8d981c8956a66108c081611070565b61064983836111e5565b6108d433826111ef565b50565b600a54600090156108ea575050600a5490565b6009541561090e57620f42406009548361090491906120b7565b61055091906120ce565b919050565b61091e823383610e6e565b6106dc82826111ef565b6001600160a01b038116600090815260056020526040812054610550565b600082815260086020526040812061095e9083611337565b9392505050565b60009182526007602090815260408084206001600160a01b0393909316845291905290205460ff1690565b6060600480546105659061205a565b600033816109ad8286610c4e565b905083811015610a0d5760405162461bcd60e51b815260206004820152602560248201527f45524332303a2064656372656173656420616c6c6f77616e63652062656c6f77604482015264207a65726f60d81b60648201526084016106c9565b6106198286868403610d49565b6000336105f6818585610ee8565b7f9f2df0fed2c77648de5860a4cc508cd0818c85b8b8a1ab4ceeef8d981c8956a6610a5281611070565b60005b61ffff8116841115610aa757610a9585858361ffff16818110610a7a57610a7a6120f0565b9050602002016020810190610a8f9190611f05565b846111e5565b80610a9f81612106565b915050610a55565b5050505050565b600081815260086020526040812061055090611343565b83421115610b155760405162461bcd60e51b815260206004820152601d60248201527f45524332305065726d69743a206578706972656420646561646c696e6500000060448201526064016106c9565b60007f6e71edae12b1b97f4d1f60370fef10105fa2faae0126114a169c64845d6126c9888888610b448c61134d565b6040805160208101969096526001600160a01b0394851690860152929091166060840152608083015260a082015260c0810186905260e0016040516020818303038152906040528051906020012090506000610b9f82611375565b90506000610baf828787876113c3565b9050896001600160a01b0316816001600160a01b031614610c125760405162461bcd60e51b815260206004820152601e60248201527f45524332305065726d69743a20696e76616c6964207369676e6174757265000060448201526064016106c9565b610c1d8a8a8a610d49565b50505050505050505050565b600082815260076020526040902060010154610c4481611070565b61064983836111c3565b6001600160a01b03918216600090815260016020908152604080832093909416825291909152205490565b610c838282610965565b6106dc5760008281526007602090815260408083206001600160a01b03851684529091529020805460ff19166001179055610cbb3390565b6001600160a01b0316816001600160a01b0316837f2f8788117e7eff1d82e926ec794901d17c78024a50270940304540a733656f0d60405160405180910390a45050565b600061095e836001600160a01b0384166113eb565b60006001600160e01b03198216637965db0b60e01b148061055057506301ffc9a760e01b6001600160e01b0319831614610550565b6001600160a01b038316610dab5760405162461bcd60e51b8152602060048201526024808201527f45524332303a20617070726f76652066726f6d20746865207a65726f206164646044820152637265737360e01b60648201526084016106c9565b6001600160a01b038216610e0c5760405162461bcd60e51b815260206004820152602260248201527f45524332303a20617070726f766520746f20746865207a65726f206164647265604482015261737360f01b60648201526084016106c9565b6001600160a01b0383811660008181526001602090815260408083209487168084529482529182902085905590518481527f8c5be1e5ebec7d5bd14f71427d1e84f3dd0314c0f7b2291e5b200ac8c7c3b92591015b60405180910390a3505050565b6000610e7a8484610c4e565b90506000198114610ee25781811015610ed55760405162461bcd60e51b815260206004820152601d60248201527f45524332303a20696e73756666696369656e7420616c6c6f77616e636500000060448201526064016106c9565b610ee28484848403610d49565b50505050565b6001600160a01b038316610f4c5760405162461bcd60e51b815260206004820152602560248201527f45524332303a207472616e736665722066726f6d20746865207a65726f206164604482015264647265737360d81b60648201526084016106c9565b6001600160a01b038216610fae5760405162461bcd60e51b815260206004820152602360248201527f45524332303a207472616e7366657220746f20746865207a65726f206164647260448201526265737360e81b60648201526084016106c9565b610fb983838361143a565b6001600160a01b03831660009081526020819052604090205481811015610ff25760405162461bcd60e51b81526004016106c990612127565b6001600160a01b038085166000908152602081905260408082208585039055918516815290812080548492906110299084906120a4565b92505081905550826001600160a01b0316846001600160a01b031660008051602061224f8339815191528460405161106391815260200190565b60405180910390a3610ee2565b6108d48133611445565b6110848282610c79565b60008281526008602052604090206106499082610cff565b6000306001600160a01b037f0000000000000000000000000000000000000000000000000000000000000000161480156110f557507f000000000000000000000000000000000000000000000000000000000000000046145b1561111f57507f000000000000000000000000000000000000000000000000000000000000000090565b50604080517f00000000000000000000000000000000000000000000000000000000000000006020808301919091527f0000000000000000000000000000000000000000000000000000000000000000828401527f000000000000000000000000000000000000000000000000000000000000000060608301524660808301523060a0808401919091528351808403909101815260c0909201909252805191012090565b6111cd82826114a9565b60008281526008602052604090206106499082611510565b6106dc8282611525565b6001600160a01b03821661124f5760405162461bcd60e51b815260206004820152602160248201527f45524332303a206275726e2066726f6d20746865207a65726f206164647265736044820152607360f81b60648201526084016106c9565b61125b8260008361143a565b6001600160a01b038216600090815260208190526040902054818110156112cf5760405162461bcd60e51b815260206004820152602260248201527f45524332303a206275726e20616d6f756e7420657863656564732062616c616e604482015261636560f01b60648201526084016106c9565b6001600160a01b03831660009081526020819052604081208383039055600280548492906112fe90849061216d565b90915550506040518281526000906001600160a01b0385169060008051602061224f8339815191529060200160405180910390a3505050565b600061095e83836115b2565b6000610550825490565b6001600160a01b03811660009081526005602052604090208054600181018255905b50919050565b600061055061138261109c565b8360405161190160f01b6020820152602281018390526042810182905260009060620160405160208183030381529060405280519060200120905092915050565b60008060006113d4878787876115dc565b915091506113e1816116c9565b5095945050505050565b600081815260018301602052604081205461143257508154600181810184556000848152602080822090930184905584548482528286019093526040902091909155610550565b506000610550565b61064983838361187f565b61144f8282610965565b6106dc57611467816001600160a01b031660146118ae565b6114728360206118ae565b604051602001611483929190612180565b60408051601f198184030181529082905262461bcd60e51b82526106c991600401611ddb565b6114b38282610965565b156106dc5760008281526007602090815260408083206001600160a01b0385168085529252808320805460ff1916905551339285917ff6391f5c32d9c69d2a47ea670b442974b53935d1edc7fd64eb21e047a839171b9190a45050565b600061095e836001600160a01b038416611a4a565b7f00000000000000000000000000000000000000000000000000000000000000008161155060025490565b61155a91906120a4565b11156115a85760405162461bcd60e51b815260206004820152601960248201527f45524332304361707065643a206361702065786365656465640000000000000060448201526064016106c9565b6106dc8282611b3d565b60008260000182815481106115c9576115c96120f0565b9060005260206000200154905092915050565b6000807f7fffffffffffffffffffffffffffffff5d576e7357a4501ddfe92f46681b20a083111561161357506000905060036116c0565b8460ff16601b1415801561162b57508460ff16601c14155b1561163c57506000905060046116c0565b6040805160008082526020820180845289905260ff881692820192909252606081018690526080810185905260019060a0016020604051602081039080840390855afa158015611690573d6000803e3d6000fd5b5050604051601f1901519150506001600160a01b0381166116b9576000600192509250506116c0565b9150600090505b94509492505050565b60008160048111156116dd576116dd6121f5565b036116e55750565b60018160048111156116f9576116f96121f5565b036117465760405162461bcd60e51b815260206004820152601860248201527f45434453413a20696e76616c6964207369676e6174757265000000000000000060448201526064016106c9565b600281600481111561175a5761175a6121f5565b036117a75760405162461bcd60e51b815260206004820152601f60248201527f45434453413a20696e76616c6964207369676e6174757265206c656e6774680060448201526064016106c9565b60038160048111156117bb576117bb6121f5565b036118135760405162461bcd60e51b815260206004820152602260248201527f45434453413a20696e76616c6964207369676e6174757265202773272076616c604482015261756560f01b60648201526084016106c9565b6004816004811115611827576118276121f5565b036108d45760405162461bcd60e51b815260206004820152602260248201527f45434453413a20696e76616c6964207369676e6174757265202776272076616c604482015261756560f01b60648201526084016106c9565b6001600160a01b0383161580159061189f57506001600160a01b03821615155b15610649576106498382611c16565b606060006118bd8360026120b7565b6118c89060026120a4565b67ffffffffffffffff8111156118e0576118e061220b565b6040519080825280601f01601f19166020018201604052801561190a576020820181803683370190505b509050600360fc1b81600081518110611925576119256120f0565b60200101906001600160f81b031916908160001a905350600f60fb1b81600181518110611954576119546120f0565b60200101906001600160f81b031916908160001a90535060006119788460026120b7565b6119839060016120a4565b90505b60018111156119fb576f181899199a1a9b1b9c1cb0b131b232b360811b85600f16601081106119b7576119b76120f0565b1a60f81b8282815181106119cd576119cd6120f0565b60200101906001600160f81b031916908160001a90535060049490941c936119f481612221565b9050611986565b50831561095e5760405162461bcd60e51b815260206004820181905260248201527f537472696e67733a20686578206c656e67746820696e73756666696369656e7460448201526064016106c9565b60008181526001830160205260408120548015611b33576000611a6e60018361216d565b8554909150600090611a829060019061216d565b9050818114611ae7576000866000018281548110611aa257611aa26120f0565b9060005260206000200154905080876000018481548110611ac557611ac56120f0565b6000918252602080832090910192909255918252600188019052604090208390555b8554869080611af857611af8612238565b600190038181906000526020600020016000905590558560010160008681526020019081526020016000206000905560019350505050610550565b6000915050610550565b6001600160a01b038216611b935760405162461bcd60e51b815260206004820152601f60248201527f45524332303a206d696e7420746f20746865207a65726f20616464726573730060448201526064016106c9565b611b9f6000838361143a565b8060026000828254611bb191906120a4565b90915550506001600160a01b03821660009081526020819052604081208054839290611bde9084906120a4565b90915550506040518181526001600160a01b0383169060009060008051602061224f8339815191529060200160405180910390a35050565b611c407f9972172bf394f5d077adb577f8bd4c61a9f748ee12df651958d4361d0f68413183610965565b6106dc5760006009541180611c5757506000600a54115b156106dc576000611c67826108d7565b600b549091506106499084906001600160a01b0316836001600160a01b03831615611ce8576001600160a01b03831660009081526020819052604090205481811015611cc55760405162461bcd60e51b81526004016106c990612127565b6001600160a01b0384166000908152602081905260409020908290039055611d00565b8060026000828254611cfa91906120a4565b90915550505b6001600160a01b03821615611d42576001600160a01b03821660009081526020819052604081208054839290611d379084906120a4565b90915550611d5a9050565b8060026000828254611d54919061216d565b90915550505b816001600160a01b0316836001600160a01b031660008051602061224f83398151915283604051610e6191815260200190565b600060208284031215611d9f57600080fd5b81356001600160e01b03198116811461095e57600080fd5b60005b83811015611dd2578181015183820152602001611dba565b50506000910152565b6020815260008251806020840152611dfa816040850160208701611db7565b601f01601f19169190910160400192915050565b80356001600160a01b038116811461090e57600080fd5b60008060408385031215611e3857600080fd5b611e4183611e0e565b946020939093013593505050565b600080600060608486031215611e6457600080fd5b611e6d84611e0e565b9250611e7b60208501611e0e565b9150604084013590509250925092565b600060208284031215611e9d57600080fd5b5035919050565b60008060408385031215611eb757600080fd5b82359150611ec760208401611e0e565b90509250929050565b600080600060608486031215611ee557600080fd5b8335925060208401359150611efc60408501611e0e565b90509250925092565b600060208284031215611f1757600080fd5b61095e82611e0e565b60008060408385031215611f3357600080fd5b50508035926020909101359150565b600080600060408486031215611f5757600080fd5b833567ffffffffffffffff80821115611f6f57600080fd5b818601915086601f830112611f8357600080fd5b813581811115611f9257600080fd5b8760208260051b8501011115611fa757600080fd5b6020928301989097509590910135949350505050565b600080600080600080600060e0888a031215611fd857600080fd5b611fe188611e0e565b9650611fef60208901611e0e565b95506040880135945060608801359350608088013560ff8116811461201357600080fd5b9699959850939692959460a0840135945060c09093013592915050565b6000806040838503121561204357600080fd5b61204c83611e0e565b9150611ec760208401611e0e565b600181811c9082168061206e57607f821691505b60208210810361136f57634e487b7160e01b600052602260045260246000fd5b634e487b7160e01b600052601160045260246000fd5b808201808211156105505761055061208e565b80820281158282048414176105505761055061208e565b6000826120eb57634e487b7160e01b600052601260045260246000fd5b500490565b634e487b7160e01b600052603260045260246000fd5b600061ffff80831681810361211d5761211d61208e565b6001019392505050565b60208082526026908201527f45524332303a207472616e7366657220616d6f756e7420657863656564732062604082015265616c616e636560d01b606082015260800190565b818103818111156105505761055061208e565b7f416363657373436f6e74726f6c3a206163636f756e74200000000000000000008152600083516121b8816017850160208801611db7565b7001034b99036b4b9b9b4b733903937b6329607d1b60179184019182015283516121e9816028840160208801611db7565b01602801949350505050565b634e487b7160e01b600052602160045260246000fd5b634e487b7160e01b600052604160045260246000fd5b6000816122305761223061208e565b506000190190565b634e487b7160e01b600052603160045260246000fdfeddf252ad1be2c89b69c2b068fc378daa952ba7f163c4a11628f55a4df523b3efa2646970667358221220c1702accc8bb74f48657e60c65368bd34ce5a558ccc1e03bded9d7e2155211e364736f6c63430008110033",
  "linkReferences": {},
  "deployedLinkReferences": {}
}