{
  "_format": "hh-sol-artifact-1",
  "contractName": "BLBToken",
  "sourceName": "contracts/BEP20/BLBToken.sol",
  "abi": [
    {
      "inputs": [
        {
          "internalType": "address",
          "name": "initialAdmin",
          "type": "address"
        }
      ],
      "stateMutability": "nonpayable",
      "type": "constructor"
    },
    {
      "anonymous": false,
      "inputs": [
        {
          "indexed": true,
          "internalType": "address",
          "name": "owner",
          "type": "address"
        },
        {
          "indexed": true,
          "internalType": "address",
          "name": "spender",
          "type": "address"
        },
        {
          "indexed": false,
          "internalType": "uint256",
          "name": "value",
          "type": "uint256"
        }
      ],
      "name": "Approval",
      "type": "event"
    },
    {
      "anonymous": false,
      "inputs": [
        {
          "indexed": false,
          "internalType": "address",
          "name": "addr",
          "type": "address"
        }
      ],
      "name": "District",
      "type": "event"
    },
    {
      "anonymous": false,
      "inputs": [
        {
          "indexed": false,
          "internalType": "address",
          "name": "addr",
          "type": "address"
        },
        {
          "indexed": false,
          "internalType": "uint256",
          "name": "amount",
          "type": "uint256"
        }
      ],
      "name": "Restrict",
      "type": "event"
    },
    {
      "anonymous": false,
      "inputs": [
        {
          "indexed": true,
          "internalType": "bytes32",
          "name": "role",
          "type": "bytes32"
        },
        {
          "indexed": true,
          "internalType": "bytes32",
          "name": "previousAdminRole",
          "type": "bytes32"
        },
        {
          "indexed": true,
          "internalType": "bytes32",
          "name": "newAdminRole",
          "type": "bytes32"
        }
      ],
      "name": "RoleAdminChanged",
      "type": "event"
    },
    {
      "anonymous": false,
      "inputs": [
        {
          "indexed": true,
          "internalType": "bytes32",
          "name": "role",
          "type": "bytes32"
        },
        {
          "indexed": true,
          "internalType": "address",
          "name": "account",
          "type": "address"
        },
        {
          "indexed": true,
          "internalType": "address",
          "name": "sender",
          "type": "address"
        }
      ],
      "name": "RoleGranted",
      "type": "event"
    },
    {
      "anonymous": false,
      "inputs": [
        {
          "indexed": true,
          "internalType": "bytes32",
          "name": "role",
          "type": "bytes32"
        },
        {
          "indexed": true,
          "internalType": "address",
          "name": "account",
          "type": "address"
        },
        {
          "indexed": true,
          "internalType": "address",
          "name": "sender",
          "type": "address"
        }
      ],
      "name": "RoleRevoked",
      "type": "event"
    },
    {
      "anonymous": false,
      "inputs": [
        {
          "indexed": false,
          "internalType": "uint256",
          "name": "fraction",
          "type": "uint256"
        }
      ],
      "name": "SetMonthlyTransferLimit",
      "type": "event"
    },
    {
      "anonymous": false,
      "inputs": [
        {
          "indexed": false,
          "internalType": "uint256",
          "name": "_feeAmount",
          "type": "uint256"
        },
        {
          "indexed": false,
          "internalType": "uint256",
          "name": "_feeFraction",
          "type": "uint256"
        },
        {
          "indexed": false,
          "internalType": "address",
          "name": "_feeReceiver",
          "type": "address"
        }
      ],
      "name": "SetTransactionFee",
      "type": "event"
    },
    {
      "anonymous": false,
      "inputs": [
        {
          "indexed": true,
          "internalType": "address",
          "name": "from",
          "type": "address"
        },
        {
          "indexed": true,
          "internalType": "address",
          "name": "to",
          "type": "address"
        },
        {
          "indexed": false,
          "internalType": "uint256",
          "name": "value",
          "type": "uint256"
        }
      ],
      "name": "Transfer",
      "type": "event"
    },
    {
      "inputs": [],
      "name": "DEFAULT_ADMIN_ROLE",
      "outputs": [
        {
          "internalType": "bytes32",
          "name": "",
          "type": "bytes32"
        }
      ],
      "stateMutability": "view",
      "type": "function"
    },
    {
      "inputs": [],
      "name": "DOMAIN_SEPARATOR",
      "outputs": [
        {
          "internalType": "bytes32",
          "name": "",
          "type": "bytes32"
        }
      ],
      "stateMutability": "view",
      "type": "function"
    },
    {
      "inputs": [],
      "name": "FEE_FREE_ROLE",
      "outputs": [
        {
          "internalType": "bytes32",
          "name": "",
          "type": "bytes32"
        }
      ],
      "stateMutability": "view",
      "type": "function"
    },
    {
      "inputs": [],
      "name": "MINTER_ROLE",
      "outputs": [
        {
          "internalType": "bytes32",
          "name": "",
          "type": "bytes32"
        }
      ],
      "stateMutability": "view",
      "type": "function"
    },
    {
      "inputs": [],
      "name": "RESTRICTOR_ROLE",
      "outputs": [
        {
          "internalType": "bytes32",
          "name": "",
          "type": "bytes32"
        }
      ],
      "stateMutability": "view",
      "type": "function"
    },
    {
      "inputs": [],
      "name": "TRANSACTION_FEE_SETTER",
      "outputs": [
        {
          "internalType": "bytes32",
          "name": "",
          "type": "bytes32"
        }
      ],
      "stateMutability": "view",
      "type": "function"
    },
    {
      "inputs": [],
      "name": "TRANSFER_LIMIT_SETTER",
      "outputs": [
        {
          "internalType": "bytes32",
          "name": "",
          "type": "bytes32"
        }
      ],
      "stateMutability": "view",
      "type": "function"
    },
    {
      "inputs": [
        {
          "internalType": "address",
          "name": "owner",
          "type": "address"
        },
        {
          "internalType": "address",
          "name": "spender",
          "type": "address"
        }
      ],
      "name": "allowance",
      "outputs": [
        {
          "internalType": "uint256",
          "name": "",
          "type": "uint256"
        }
      ],
      "stateMutability": "view",
      "type": "function"
    },
    {
      "inputs": [
        {
          "internalType": "address",
          "name": "spender",
          "type": "address"
        },
        {
          "internalType": "uint256",
          "name": "amount",
          "type": "uint256"
        }
      ],
      "name": "approve",
      "outputs": [
        {
          "internalType": "bool",
          "name": "",
          "type": "bool"
        }
      ],
      "stateMutability": "nonpayable",
      "type": "function"
    },
    {
      "inputs": [
        {
          "internalType": "address",
          "name": "account",
          "type": "address"
        }
      ],
      "name": "balanceOf",
      "outputs": [
        {
          "internalType": "uint256",
          "name": "",
          "type": "uint256"
        }
      ],
      "stateMutability": "view",
      "type": "function"
    },
    {
      "inputs": [
        {
          "internalType": "uint256",
          "name": "amount",
          "type": "uint256"
        }
      ],
      "name": "burn",
      "outputs": [],
      "stateMutability": "nonpayable",
      "type": "function"
    },
    {
      "inputs": [
        {
          "internalType": "address",
          "name": "account",
          "type": "address"
        },
        {
          "internalType": "uint256",
          "name": "amount",
          "type": "uint256"
        }
      ],
      "name": "burnFrom",
      "outputs": [],
      "stateMutability": "nonpayable",
      "type": "function"
    },
    {
      "inputs": [
        {
          "internalType": "address",
          "name": "addr",
          "type": "address"
        }
      ],
      "name": "canSpend",
      "outputs": [
        {
          "internalType": "uint256",
          "name": "amount",
          "type": "uint256"
        }
      ],
      "stateMutability": "view",
      "type": "function"
    },
    {
      "inputs": [],
      "name": "cap",
      "outputs": [
        {
          "internalType": "uint256",
          "name": "",
          "type": "uint256"
        }
      ],
      "stateMutability": "view",
      "type": "function"
    },
    {
      "inputs": [],
      "name": "decimals",
      "outputs": [
        {
          "internalType": "uint8",
          "name": "",
          "type": "uint8"
        }
      ],
      "stateMutability": "view",
      "type": "function"
    },
    {
      "inputs": [
        {
          "internalType": "address",
          "name": "spender",
          "type": "address"
        },
        {
          "internalType": "uint256",
          "name": "subtractedValue",
          "type": "uint256"
        }
      ],
      "name": "decreaseAllowance",
      "outputs": [
        {
          "internalType": "bool",
          "name": "",
          "type": "bool"
        }
      ],
      "stateMutability": "nonpayable",
      "type": "function"
    },
    {
      "inputs": [
        {
          "internalType": "address",
          "name": "addr",
          "type": "address"
        }
      ],
      "name": "district",
      "outputs": [],
      "stateMutability": "nonpayable",
      "type": "function"
    },
    {
      "inputs": [],
      "name": "feeDetails",
      "outputs": [
        {
          "internalType": "uint256",
          "name": "",
          "type": "uint256"
        },
        {
          "internalType": "uint256",
          "name": "",
          "type": "uint256"
        },
        {
          "internalType": "address",
          "name": "",
          "type": "address"
        }
      ],
      "stateMutability": "view",
      "type": "function"
    },
    {
      "inputs": [
        {
          "internalType": "bytes32",
          "name": "role",
          "type": "bytes32"
        }
      ],
      "name": "getRoleAdmin",
      "outputs": [
        {
          "internalType": "bytes32",
          "name": "",
          "type": "bytes32"
        }
      ],
      "stateMutability": "view",
      "type": "function"
    },
    {
      "inputs": [
        {
          "internalType": "bytes32",
          "name": "role",
          "type": "bytes32"
        },
        {
          "internalType": "uint256",
          "name": "index",
          "type": "uint256"
        }
      ],
      "name": "getRoleMember",
      "outputs": [
        {
          "internalType": "address",
          "name": "",
          "type": "address"
        }
      ],
      "stateMutability": "view",
      "type": "function"
    },
    {
      "inputs": [
        {
          "internalType": "bytes32",
          "name": "role",
          "type": "bytes32"
        }
      ],
      "name": "getRoleMemberCount",
      "outputs": [
        {
          "internalType": "uint256",
          "name": "",
          "type": "uint256"
        }
      ],
      "stateMutability": "view",
      "type": "function"
    },
    {
      "inputs": [
        {
          "internalType": "bytes32",
          "name": "role",
          "type": "bytes32"
        },
        {
          "internalType": "address",
          "name": "account",
          "type": "address"
        }
      ],
      "name": "grantRole",
      "outputs": [],
      "stateMutability": "nonpayable",
      "type": "function"
    },
    {
      "inputs": [
        {
          "internalType": "bytes32",
          "name": "role",
          "type": "bytes32"
        },
        {
          "internalType": "address",
          "name": "account",
          "type": "address"
        }
      ],
      "name": "hasRole",
      "outputs": [
        {
          "internalType": "bool",
          "name": "",
          "type": "bool"
        }
      ],
      "stateMutability": "view",
      "type": "function"
    },
    {
      "inputs": [
        {
          "internalType": "address",
          "name": "spender",
          "type": "address"
        },
        {
          "internalType": "uint256",
          "name": "addedValue",
          "type": "uint256"
        }
      ],
      "name": "increaseAllowance",
      "outputs": [
        {
          "internalType": "bool",
          "name": "",
          "type": "bool"
        }
      ],
      "stateMutability": "nonpayable",
      "type": "function"
    },
    {
      "inputs": [
        {
          "internalType": "address",
          "name": "addr",
          "type": "address"
        }
      ],
      "name": "isRestricted",
      "outputs": [
        {
          "internalType": "bool",
          "name": "",
          "type": "bool"
        }
      ],
      "stateMutability": "view",
      "type": "function"
    },
    {
      "inputs": [
        {
          "internalType": "address",
          "name": "account",
          "type": "address"
        },
        {
          "internalType": "uint256",
          "name": "amount",
          "type": "uint256"
        }
      ],
      "name": "mint",
      "outputs": [],
      "stateMutability": "nonpayable",
      "type": "function"
    },
    {
      "inputs": [
        {
          "internalType": "address[]",
          "name": "accounts",
          "type": "address[]"
        },
        {
          "internalType": "uint256",
          "name": "amount",
          "type": "uint256"
        }
      ],
      "name": "mintBatch",
      "outputs": [],
      "stateMutability": "nonpayable",
      "type": "function"
    },
    {
      "inputs": [],
      "name": "monthlyLimit",
      "outputs": [
        {
          "internalType": "uint256",
          "name": "",
          "type": "uint256"
        }
      ],
      "stateMutability": "view",
      "type": "function"
    },
    {
      "inputs": [],
      "name": "name",
      "outputs": [
        {
          "internalType": "string",
          "name": "",
          "type": "string"
        }
      ],
      "stateMutability": "view",
      "type": "function"
    },
    {
      "inputs": [
        {
          "internalType": "address",
          "name": "owner",
          "type": "address"
        }
      ],
      "name": "nonces",
      "outputs": [
        {
          "internalType": "uint256",
          "name": "",
          "type": "uint256"
        }
      ],
      "stateMutability": "view",
      "type": "function"
    },
    {
      "inputs": [
        {
          "internalType": "address",
          "name": "owner",
          "type": "address"
        },
        {
          "internalType": "address",
          "name": "spender",
          "type": "address"
        },
        {
          "internalType": "uint256",
          "name": "value",
          "type": "uint256"
        },
        {
          "internalType": "uint256",
          "name": "deadline",
          "type": "uint256"
        },
        {
          "internalType": "uint8",
          "name": "v",
          "type": "uint8"
        },
        {
          "internalType": "bytes32",
          "name": "r",
          "type": "bytes32"
        },
        {
          "internalType": "bytes32",
          "name": "s",
          "type": "bytes32"
        }
      ],
      "name": "permit",
      "outputs": [],
      "stateMutability": "nonpayable",
      "type": "function"
    },
    {
      "inputs": [
        {
          "internalType": "bytes32",
          "name": "role",
          "type": "bytes32"
        },
        {
          "internalType": "address",
          "name": "account",
          "type": "address"
        }
      ],
      "name": "renounceRole",
      "outputs": [],
      "stateMutability": "nonpayable",
      "type": "function"
    },
    {
      "inputs": [
        {
          "internalType": "address",
          "name": "addr",
          "type": "address"
        },
        {
          "internalType": "uint256",
          "name": "amount",
          "type": "uint256"
        }
      ],
      "name": "restrict",
      "outputs": [],
      "stateMutability": "nonpayable",
      "type": "function"
    },
    {
      "inputs": [
        {
          "internalType": "bytes32",
          "name": "role",
          "type": "bytes32"
        },
        {
          "internalType": "address",
          "name": "account",
          "type": "address"
        }
      ],
      "name": "revokeRole",
      "outputs": [],
      "stateMutability": "nonpayable",
      "type": "function"
    },
    {
      "inputs": [
        {
          "internalType": "uint256",
          "name": "fraction",
          "type": "uint256"
        }
      ],
      "name": "setMonthlyTransferLimit",
      "outputs": [],
      "stateMutability": "nonpayable",
      "type": "function"
    },
    {
      "inputs": [
        {
          "internalType": "uint256",
          "name": "_feeAmount",
          "type": "uint256"
        },
        {
          "internalType": "uint256",
          "name": "_feeFraction",
          "type": "uint256"
        },
        {
          "internalType": "address",
          "name": "_feeReceiver",
          "type": "address"
        }
      ],
      "name": "setTransactionFee",
      "outputs": [],
      "stateMutability": "nonpayable",
      "type": "function"
    },
    {
      "inputs": [
        {
          "internalType": "bytes4",
          "name": "interfaceId",
          "type": "bytes4"
        }
      ],
      "name": "supportsInterface",
      "outputs": [
        {
          "internalType": "bool",
          "name": "",
          "type": "bool"
        }
      ],
      "stateMutability": "view",
      "type": "function"
    },
    {
      "inputs": [],
      "name": "symbol",
      "outputs": [
        {
          "internalType": "string",
          "name": "",
          "type": "string"
        }
      ],
      "stateMutability": "view",
      "type": "function"
    },
    {
      "inputs": [],
      "name": "totalSupply",
      "outputs": [
        {
          "internalType": "uint256",
          "name": "",
          "type": "uint256"
        }
      ],
      "stateMutability": "view",
      "type": "function"
    },
    {
      "inputs": [
        {
          "internalType": "uint256",
          "name": "transferingAmount",
          "type": "uint256"
        }
      ],
      "name": "transactionFee",
      "outputs": [
        {
          "internalType": "uint256",
          "name": "fee",
          "type": "uint256"
        }
      ],
      "stateMutability": "view",
      "type": "function"
    },
    {
      "inputs": [
        {
          "internalType": "address",
          "name": "to",
          "type": "address"
        },
        {
          "internalType": "uint256",
          "name": "amount",
          "type": "uint256"
        }
      ],
      "name": "transfer",
      "outputs": [
        {
          "internalType": "bool",
          "name": "",
          "type": "bool"
        }
      ],
      "stateMutability": "nonpayable",
      "type": "function"
    },
    {
      "inputs": [
        {
          "internalType": "address",
          "name": "from",
          "type": "address"
        },
        {
          "internalType": "address",
          "name": "to",
          "type": "address"
        },
        {
          "internalType": "uint256",
          "name": "amount",
          "type": "uint256"
        }
      ],
      "name": "transferFrom",
      "outputs": [
        {
          "internalType": "bool",
          "name": "",
          "type": "bool"
        }
      ],
      "stateMutability": "nonpayable",
      "type": "function"
    }
  ],
  "bytecode": "0x6101806040523480156200001257600080fd5b50604051620032253803806200322583398101604081905262000035916200045f565b6040518060400160405280600f81526020016e109bdd5b991b195cdcc815dbdc9b19608a1b81525080604051806040016040528060018152602001603160f81b815250620000886200030060201b60201c565b6200009590600a620005a4565b620000a59063dbf0ee80620005b5565b6040518060400160405280600f81526020016e109bdd5b991b195cdcc815dbdc9b19608a1b8152506040518060400160405280600381526020016221262160e91b8152508160039081620000fa91906200067b565b5060046200010982826200067b565b50505060008111620001615760405162461bcd60e51b815260206004820152601560248201527f45524332304361707065643a2063617020697320300000000000000000000000604482015260640160405180910390fd5b60805281516020808401919091208251918301919091206101008290526101208190524660c0527f8b73c3c69bb8fe3d512ecc4cf759cc79239f7b179b0ffacaa9a75d522b39400f620001f98184846040805160208101859052908101839052606081018290524660808201523060a082015260009060c0016040516020818303038152906040528051906020012090509392505050565b60a0523060e0526101405250504261016052506200021d9150600090508262000305565b620002497f9f2df0fed2c77648de5860a4cc508cd0818c85b8b8a1ab4ceeef8d981c8956a68262000305565b620002757fd0ac125722f4b4565ab5e91b234e50c4c6f541672aea816ba090a0ea349ed93f8262000305565b620002a17fb24c1025622fe38445b605f5c1a9bb02be7f6522d24c8a159e5e47e62dbaaecf8262000305565b620002cd7f23ab0e580195340a5a67800cafa0615701edfa22f79534a52851336e3cf8376a8262000305565b620002f97f9972172bf394f5d077adb577f8bd4c61a9f748ee12df651958d4361d0f6841318262000305565b5062000747565b601290565b6200031c82826200034860201b620010541760201c565b600082815260086020908152604090912062000343918390620010da620003ed821b17901c565b505050565b60008281526007602090815260408083206001600160a01b038516845290915290205460ff16620003e95760008281526007602090815260408083206001600160a01b03851684529091529020805460ff19166001179055620003a83390565b6001600160a01b0316816001600160a01b0316837f2f8788117e7eff1d82e926ec794901d17c78024a50270940304540a733656f0d60405160405180910390a45b5050565b600062000404836001600160a01b0384166200040d565b90505b92915050565b6000818152600183016020526040812054620004565750815460018181018455600084815260208082209093018490558454848252828601909352604090209190915562000407565b50600062000407565b6000602082840312156200047257600080fd5b81516001600160a01b03811681146200048a57600080fd5b9392505050565b634e487b7160e01b600052601160045260246000fd5b600181815b80851115620004e8578160001904821115620004cc57620004cc62000491565b80851615620004da57918102915b93841c9390800290620004ac565b509250929050565b600082620005015750600162000407565b81620005105750600062000407565b8160018114620005295760028114620005345762000554565b600191505062000407565b60ff84111562000548576200054862000491565b50506001821b62000407565b5060208310610133831016604e8410600b841016171562000579575081810a62000407565b620005858383620004a7565b80600019048211156200059c576200059c62000491565b029392505050565b60006200040460ff841683620004f0565b6000816000190483118215151615620005d257620005d262000491565b500290565b634e487b7160e01b600052604160045260246000fd5b600181811c908216806200060257607f821691505b6020821081036200062357634e487b7160e01b600052602260045260246000fd5b50919050565b601f8211156200034357600081815260208120601f850160051c81016020861015620006525750805b601f850160051c820191505b8181101562000673578281556001016200065e565b505050505050565b81516001600160401b03811115620006975762000697620005d7565b620006af81620006a88454620005ed565b8462000629565b602080601f831160018114620006e75760008415620006ce5750858301515b600019600386901b1c1916600185901b17855562000673565b600085815260208120601f198616915b828110156200071857888601518255948401946001909101908401620006f7565b5085821015620007375787850151600019600388901b60f8161c191681555b5050505050600190811b01905550565b60805160a05160c05160e05161010051610120516101405161016051612a63620007c26000396000818161081801526122000152600061152c0152600061157b01526000611556015260006114af015260006114d9015260006115030152600081816103a8015281816107bf01526119e40152612a636000f3fe608060405234801561001057600080fd5b506004361061025e5760003560e01c806351bcee2711610146578063a457c2d7116100c3578063ca15c87311610087578063ca15c873146105b7578063d505accf146105ca578063d5391393146105dd578063d547741f146105f2578063dd62ed3e14610605578063e162533c1461061857600080fd5b8063a457c2d714610544578063a9059cbb14610557578063ae99c5771461056a578063b6afc4dc14610591578063c01bc982146105a457600080fd5b8063889cad061161010a578063889cad06146104e35780639010d07c146104f657806391d148541461052157806395d89b4114610534578063a217fddf1461053c57600080fd5b806351bcee271461045a5780635d1edb871461048157806370a082311461049457806379cc6790146104bd5780637ecebe00146104d057600080fd5b8063248a9ca3116101df57806336568abe116101a357806336568abe146103d4578063367065de146103e757806339509351146103fa5780633e0b2cda1461040d57806340c10f191461043457806342966c681461044757600080fd5b8063248a9ca3146103615780632f2ff15d14610384578063313ce56714610397578063355274ea146103a65780633644e515146103cc57600080fd5b80631681f830116102265780631681f830146102f157806318160ddd146103065780631f2c54431461030e578063234eaedc1461033b57806323b872dd1461034e57600080fd5b806301ffc9a71461026357806306fdde031461028b578063095ea7b3146102a05780630a6005da146102b35780630ecbd033146102ca575b600080fd5b610276610271366004612513565b61062b565b60405190151581526020015b60405180910390f35b610293610656565b6040516102829190612569565b6102766102ae3660046125b3565b6106e8565b6102bc60105481565b604051908152602001610282565b6102bc7fd0ac125722f4b4565ab5e91b234e50c4c6f541672aea816ba090a0ea349ed93f81565b6103046102ff3660046125b3565b610700565b005b6002546102bc565b600a54600954600b546040805193845260208401929092526001600160a01b031690820152606001610282565b6102bc6103493660046125dd565b61077e565b61027661035c3660046125f8565b6108e3565b6102bc61036f366004612634565b60009081526007602052604090206001015490565b61030461039236600461264d565b610907565b60405160128152602001610282565b7f00000000000000000000000000000000000000000000000000000000000000006102bc565b6102bc610931565b6103046103e236600461264d565b610940565b6103046103f5366004612679565b6109c3565b6102766104083660046125b3565b610b57565b6102bc7fb24c1025622fe38445b605f5c1a9bb02be7f6522d24c8a159e5e47e62dbaaecf81565b6103046104423660046125b3565b610b79565b610304610455366004612634565b610b9b565b6102bc7f23ab0e580195340a5a67800cafa0615701edfa22f79534a52851336e3cf8376a81565b6102bc61048f366004612634565b610ba8565b6102bc6104a23660046125dd565b6001600160a01b031660009081526020819052604090205490565b6103046104cb3660046125b3565b610bdf565b6102bc6104de3660046125dd565b610bf4565b6103046104f1366004612634565b610c12565b6105096105043660046126ae565b610cf1565b6040516001600160a01b039091168152602001610282565b61027661052f36600461264d565b610d10565b610293610d3b565b6102bc600081565b6102766105523660046125b3565b610d4a565b6102766105653660046125b3565b610dc5565b6102bc7f9972172bf394f5d077adb577f8bd4c61a9f748ee12df651958d4361d0f68413181565b61030461059f3660046126d0565b610dd3565b6102766105b23660046125dd565b610e47565b6102bc6105c5366004612634565b610e54565b6103046105d836600461274b565b610e6b565b6102bc6000805160206129ee83398151915281565b61030461060036600461264d565b610fcf565b6102bc6106133660046127be565b610ff4565b6103046106263660046125dd565b61101f565b60006001600160e01b03198216635a05180f60e01b14806106505750610650826110ef565b92915050565b606060038054610665906127e8565b80601f0160208091040260200160405190810160405280929190818152602001828054610691906127e8565b80156106de5780601f106106b3576101008083540402835291602001916106de565b820191906000526020600020905b8154815290600101906020018083116106c157829003601f168201915b5050505050905090565b6000336106f6818585611124565b5060019392505050565b7f23ab0e580195340a5a67800cafa0615701edfa22f79534a52851336e3cf8376a61072a81611249565b610736600c8484611253565b50604080516001600160a01b0385168152602081018490527fa1b8d777c2527547849718a04f45b8e5b0f29119c47f9298b20a85f0ad275424910160405180910390a1505050565b600061078982610e47565b1561079957610650600c83611269565b6107b16000805160206129ee83398151915283610d10565b156107e357600254610650907f0000000000000000000000000000000000000000000000000000000000000000612832565b601054620f42400361080d576001600160a01b038216600090815260208190526040902054610650565b600062278d0061083d7f000000000000000000000000000000000000000000000000000000000000000042612832565b6108479190612849565b6001600160a01b0384166000908152600f60205260409020600101540361088357506001600160a01b0382166000908152600f60205260409020545b6000620f4240601054836108ac876001600160a01b031660009081526020819052604090205490565b6108b6919061286b565b6108c09190612883565b6108ca9190612849565b90506108d68282612832565b949350505050565b919050565b6000336108f185828561127e565b6108fc8585856112f8565b506001949350505050565b60008281526007602052604090206001015461092281611249565b61092c8383611480565b505050565b600061093b6114a2565b905090565b6001600160a01b03811633146109b55760405162461bcd60e51b815260206004820152602f60248201527f416363657373436f6e74726f6c3a2063616e206f6e6c792072656e6f756e636560448201526e103937b632b9903337b91039b2b63360891b60648201526084015b60405180910390fd5b6109bf82826115c9565b5050565b7fd0ac125722f4b4565ab5e91b234e50c4c6f541672aea816ba090a0ea349ed93f6109ed81611249565b8215806109f8575083155b610a785760405162461bcd60e51b815260206004820152604560248201527f5472616e73616374696f6e4665653a2043616e6e6f742073657420666565416d60448201527f6f756e7420616e64206665654672616374696f6e206174207468652073616d656064820152642074696d6560d81b608482015260a4016109ac565b620186a0831115610ae75760405162461bcd60e51b815260206004820152603360248201527f5472616e73616374696f6e4665653a20557020746f20313025207472616e736160448201527218dd1a5bdb9199594818d85b881899481cd95d606a1b60648201526084016109ac565b600a8490556009839055600b80546001600160a01b0319166001600160a01b0384169081179091556040805186815260208101869052908101919091527fd75a7916f83ee976ae8e04e3f9b46c9b16b546303f09f1fc20eccb6cd6bc476d9060600160405180910390a150505050565b6000336106f6818585610b6a8383610ff4565b610b74919061286b565b611124565b6000805160206129ee833981519152610b9181611249565b61092c83836115eb565b610ba533826115f5565b50565b600a5460009015610bbb575050600a5490565b600954156108de57620f424060095483610bd59190612883565b6106509190612849565b610bea82338361127e565b6109bf82826115f5565b6001600160a01b038116600090815260056020526040812054610650565b7fb24c1025622fe38445b605f5c1a9bb02be7f6522d24c8a159e5e47e62dbaaecf610c3c81611249565b620f4240821115610cb55760405162461bcd60e51b815260206004820152603a60248201527f5472616e73666572436f6e74726f6c3a206d6178696d756d206672616374696f60448201527f6e2069732031302a2a362028657175616c20746f20313030252900000000000060648201526084016109ac565b60108290556040518281527f8d9496d9654d41070e87ac1a35f8f18cbdb631e1b26c6805c9720151208aa25f9060200160405180910390a15050565b6000828152600860205260408120610d09908361173d565b9392505050565b60009182526007602090815260408084206001600160a01b0393909316845291905290205460ff1690565b606060048054610665906127e8565b60003381610d588286610ff4565b905083811015610db85760405162461bcd60e51b815260206004820152602560248201527f45524332303a2064656372656173656420616c6c6f77616e63652062656c6f77604482015264207a65726f60d81b60648201526084016109ac565b6108fc8286868403611124565b6000336106f68185856112f8565b6000805160206129ee833981519152610deb81611249565b60005b61ffff8116841115610e4057610e2e85858361ffff16818110610e1357610e136128a2565b9050602002016020810190610e2891906125dd565b846115eb565b80610e38816128b8565b915050610dee565b5050505050565b6000610650600c83611749565b60008181526008602052604081206106509061175e565b83421115610ebb5760405162461bcd60e51b815260206004820152601d60248201527f45524332305065726d69743a206578706972656420646561646c696e6500000060448201526064016109ac565b60007f6e71edae12b1b97f4d1f60370fef10105fa2faae0126114a169c64845d6126c9888888610eea8c611768565b6040805160208101969096526001600160a01b0394851690860152929091166060840152608083015260a082015260c0810186905260e0016040516020818303038152906040528051906020012090506000610f4582611790565b90506000610f55828787876117de565b9050896001600160a01b0316816001600160a01b031614610fb85760405162461bcd60e51b815260206004820152601e60248201527f45524332305065726d69743a20696e76616c6964207369676e6174757265000060448201526064016109ac565b610fc38a8a8a611124565b50505050505050505050565b600082815260076020526040902060010154610fea81611249565b61092c83836115c9565b6001600160a01b03918216600090815260016020908152604080832093909416825291909152205490565b7f23ab0e580195340a5a67800cafa0615701edfa22f79534a52851336e3cf8376a61104981611249565b61092c600c83611806565b61105e8282610d10565b6109bf5760008281526007602090815260408083206001600160a01b03851684529091529020805460ff191660011790556110963390565b6001600160a01b0316816001600160a01b0316837f2f8788117e7eff1d82e926ec794901d17c78024a50270940304540a733656f0d60405160405180910390a45050565b6000610d09836001600160a01b03841661181b565b60006001600160e01b03198216637965db0b60e01b148061065057506301ffc9a760e01b6001600160e01b0319831614610650565b6001600160a01b0383166111865760405162461bcd60e51b8152602060048201526024808201527f45524332303a20617070726f76652066726f6d20746865207a65726f206164646044820152637265737360e01b60648201526084016109ac565b6001600160a01b0382166111e75760405162461bcd60e51b815260206004820152602260248201527f45524332303a20617070726f766520746f20746865207a65726f206164647265604482015261737360f01b60648201526084016109ac565b6001600160a01b0383811660008181526001602090815260408083209487168084529482529182902085905590518481527f8c5be1e5ebec7d5bd14f71427d1e84f3dd0314c0f7b2291e5b200ac8c7c3b92591015b60405180910390a3505050565b610ba5813361186a565b60006108d6846001600160a01b038516846118ce565b6000610d09836001600160a01b0384166118eb565b600061128a8484610ff4565b905060001981146112f257818110156112e55760405162461bcd60e51b815260206004820152601d60248201527f45524332303a20696e73756666696369656e7420616c6c6f77616e636500000060448201526064016109ac565b6112f28484848403611124565b50505050565b6001600160a01b03831661135c5760405162461bcd60e51b815260206004820152602560248201527f45524332303a207472616e736665722066726f6d20746865207a65726f206164604482015264647265737360d81b60648201526084016109ac565b6001600160a01b0382166113be5760405162461bcd60e51b815260206004820152602360248201527f45524332303a207472616e7366657220746f20746865207a65726f206164647260448201526265737360e81b60648201526084016109ac565b6113c983838361195b565b6001600160a01b038316600090815260208190526040902054818110156114025760405162461bcd60e51b81526004016109ac906128d9565b6001600160a01b0380851660009081526020819052604080822085850390559185168152908120805484929061143990849061286b565b92505081905550826001600160a01b0316846001600160a01b0316600080516020612a0e8339815191528460405161147391815260200190565b60405180910390a36112f2565b61148a8282611054565b600082815260086020526040902061092c90826110da565b6000306001600160a01b037f0000000000000000000000000000000000000000000000000000000000000000161480156114fb57507f000000000000000000000000000000000000000000000000000000000000000046145b1561152557507f000000000000000000000000000000000000000000000000000000000000000090565b50604080517f00000000000000000000000000000000000000000000000000000000000000006020808301919091527f0000000000000000000000000000000000000000000000000000000000000000828401527f000000000000000000000000000000000000000000000000000000000000000060608301524660808301523060a0808401919091528351808403909101815260c0909201909252805191012090565b6115d38282611966565b600082815260086020526040902061092c90826119cd565b6109bf82826119e2565b6001600160a01b0382166116555760405162461bcd60e51b815260206004820152602160248201527f45524332303a206275726e2066726f6d20746865207a65726f206164647265736044820152607360f81b60648201526084016109ac565b6116618260008361195b565b6001600160a01b038216600090815260208190526040902054818110156116d55760405162461bcd60e51b815260206004820152602260248201527f45524332303a206275726e20616d6f756e7420657863656564732062616c616e604482015261636560f01b60648201526084016109ac565b6001600160a01b0383166000908152602081905260408120838303905560028054849290611704908490612832565b90915550506040518281526000906001600160a01b03851690600080516020612a0e8339815191529060200160405180910390a3505050565b6000610d098383611a6f565b6000610d09836001600160a01b038416611a99565b6000610650825490565b6001600160a01b03811660009081526005602052604090208054600181018255905b50919050565b600061065061179d6114a2565b8360405161190160f01b6020820152602281018390526042810182905260009060620160405160208183030381529060405280519060200120905092915050565b60008060006117ef87878787611aa5565b915091506117fc81611b92565b5095945050505050565b6000610d09836001600160a01b038416611d48565b600081815260018301602052604081205461186257508154600181810184556000848152602080822090930184905584548482528286019093526040902091909155610650565b506000610650565b6118748282610d10565b6109bf5761188c816001600160a01b03166014611d65565b611897836020611d65565b6040516020016118a892919061291f565b60408051601f198184030181529082905262461bcd60e51b82526109ac91600401612569565b600082815260028401602052604081208290556108d68484611f01565b60008181526002830160205260408120548015158061190f575061190f8484611a99565b610d095760405162461bcd60e51b815260206004820152601e60248201527f456e756d657261626c654d61703a206e6f6e6578697374656e74206b6579000060448201526064016109ac565b61092c838383611f0d565b6119708282610d10565b156109bf5760008281526007602090815260408083206001600160a01b0385168085529252808320805460ff1916905551339285917ff6391f5c32d9c69d2a47ea670b442974b53935d1edc7fd64eb21e047a839171b9190a45050565b6000610d09836001600160a01b038416611f3f565b7f000000000000000000000000000000000000000000000000000000000000000081611a0d60025490565b611a17919061286b565b1115611a655760405162461bcd60e51b815260206004820152601960248201527f45524332304361707065643a206361702065786365656465640000000000000060448201526064016109ac565b6109bf8282612032565b6000826000018281548110611a8657611a866128a2565b9060005260206000200154905092915050565b6000610d09838361210b565b6000807f7fffffffffffffffffffffffffffffff5d576e7357a4501ddfe92f46681b20a0831115611adc5750600090506003611b89565b8460ff16601b14158015611af457508460ff16601c14155b15611b055750600090506004611b89565b6040805160008082526020820180845289905260ff881692820192909252606081018690526080810185905260019060a0016020604051602081039080840390855afa158015611b59573d6000803e3d6000fd5b5050604051601f1901519150506001600160a01b038116611b8257600060019250925050611b89565b9150600090505b94509492505050565b6000816004811115611ba657611ba6612994565b03611bae5750565b6001816004811115611bc257611bc2612994565b03611c0f5760405162461bcd60e51b815260206004820152601860248201527f45434453413a20696e76616c6964207369676e6174757265000000000000000060448201526064016109ac565b6002816004811115611c2357611c23612994565b03611c705760405162461bcd60e51b815260206004820152601f60248201527f45434453413a20696e76616c6964207369676e6174757265206c656e6774680060448201526064016109ac565b6003816004811115611c8457611c84612994565b03611cdc5760405162461bcd60e51b815260206004820152602260248201527f45434453413a20696e76616c6964207369676e6174757265202773272076616c604482015261756560f01b60648201526084016109ac565b6004816004811115611cf057611cf0612994565b03610ba55760405162461bcd60e51b815260206004820152602260248201527f45434453413a20696e76616c6964207369676e6174757265202776272076616c604482015261756560f01b60648201526084016109ac565b60008181526002830160205260408120819055610d098383612123565b60606000611d74836002612883565b611d7f90600261286b565b67ffffffffffffffff811115611d9757611d976129aa565b6040519080825280601f01601f191660200182016040528015611dc1576020820181803683370190505b509050600360fc1b81600081518110611ddc57611ddc6128a2565b60200101906001600160f81b031916908160001a905350600f60fb1b81600181518110611e0b57611e0b6128a2565b60200101906001600160f81b031916908160001a9053506000611e2f846002612883565b611e3a90600161286b565b90505b6001811115611eb2576f181899199a1a9b1b9c1cb0b131b232b360811b85600f1660108110611e6e57611e6e6128a2565b1a60f81b828281518110611e8457611e846128a2565b60200101906001600160f81b031916908160001a90535060049490941c93611eab816129c0565b9050611e3d565b508315610d095760405162461bcd60e51b815260206004820181905260248201527f537472696e67733a20686578206c656e67746820696e73756666696369656e7460448201526064016109ac565b6000610d09838361181b565b6001600160a01b038316611f2a57611f25338261212f565b611f34565b611f34838261212f565b61092c838383612372565b60008181526001830160205260408120548015612028576000611f63600183612832565b8554909150600090611f7790600190612832565b9050818114611fdc576000866000018281548110611f9757611f976128a2565b9060005260206000200154905080876000018481548110611fba57611fba6128a2565b6000918252602080832090910192909255918252600188019052604090208390555b8554869080611fed57611fed6129d7565b600190038181906000526020600020016000905590558560010160008681526020019081526020016000206000905560019350505050610650565b6000915050610650565b6001600160a01b0382166120885760405162461bcd60e51b815260206004820152601f60248201527f45524332303a206d696e7420746f20746865207a65726f20616464726573730060448201526064016109ac565b6120946000838361195b565b80600260008282546120a6919061286b565b90915550506001600160a01b038216600090815260208190526040812080548392906120d390849061286b565b90915550506040518181526001600160a01b03831690600090600080516020612a0e8339815191529060200160405180910390a35050565b60008181526001830160205260408120541515610d09565b6000610d098383611f3f565b61213882610e47565b156121c757600061214a600c84611269565b9050808211156121b05760405162461bcd60e51b815260206004820152602b60248201527f5472616e73666572436f6e74726f6c3a20616d6f756e7420657863656564732060448201526a1cdc195b99081b1a5b5a5d60aa1b60648201526084016109ac565b6112f2836121be8484612832565b600c9190611253565b620f42406010541080156121f057506121ee6000805160206129ee83398151915283610d10565b155b156109bf57600062278d006122257f000000000000000000000000000000000000000000000000000000000000000042612832565b61222f9190612849565b6001600160a01b0384166000908152600f60205260408120600101549192509082900361227157506001600160a01b0383166000908152600f60205260409020545b600061227d848361286b565b90506000620f4240601054846122a8896001600160a01b031660009081526020819052604090205490565b6122b2919061286b565b6122bc9190612883565b6122c69190612849565b9050808211156123345760405162461bcd60e51b815260206004820152603360248201527f5472616e73666572436f6e74726f6c3a20616d6f756e742065786365656473206044820152721b5bdb9d1a1b1e481cdc195b99081b1a5b5a5d606a1b60648201526084016109ac565b5060408051808201825291825260208083019485526001600160a01b0387166000908152600f90915220905181559151600190920191909155505050565b6001600160a01b0383161580159061239257506001600160a01b03821615155b1561092c5761092c83826123c67f9972172bf394f5d077adb577f8bd4c61a9f748ee12df651958d4361d0f68413183610d10565b6109bf57600060095411806123dd57506000600a54115b156109bf5760006123ed82610ba8565b600b5490915061092c9084906001600160a01b0316836001600160a01b0383161561246e576001600160a01b0383166000908152602081905260409020548181101561244b5760405162461bcd60e51b81526004016109ac906128d9565b6001600160a01b0384166000908152602081905260409020908290039055612486565b8060026000828254612480919061286b565b90915550505b6001600160a01b038216156124c8576001600160a01b038216600090815260208190526040812080548392906124bd90849061286b565b909155506124e09050565b80600260008282546124da9190612832565b90915550505b816001600160a01b0316836001600160a01b0316600080516020612a0e8339815191528360405161123c91815260200190565b60006020828403121561252557600080fd5b81356001600160e01b031981168114610d0957600080fd5b60005b83811015612558578181015183820152602001612540565b838111156112f25750506000910152565b602081526000825180602084015261258881604085016020870161253d565b601f01601f19169190910160400192915050565b80356001600160a01b03811681146108de57600080fd5b600080604083850312156125c657600080fd5b6125cf8361259c565b946020939093013593505050565b6000602082840312156125ef57600080fd5b610d098261259c565b60008060006060848603121561260d57600080fd5b6126168461259c565b92506126246020850161259c565b9150604084013590509250925092565b60006020828403121561264657600080fd5b5035919050565b6000806040838503121561266057600080fd5b823591506126706020840161259c565b90509250929050565b60008060006060848603121561268e57600080fd5b83359250602084013591506126a56040850161259c565b90509250925092565b600080604083850312156126c157600080fd5b50508035926020909101359150565b6000806000604084860312156126e557600080fd5b833567ffffffffffffffff808211156126fd57600080fd5b818601915086601f83011261271157600080fd5b81358181111561272057600080fd5b8760208260051b850101111561273557600080fd5b6020928301989097509590910135949350505050565b600080600080600080600060e0888a03121561276657600080fd5b61276f8861259c565b965061277d6020890161259c565b95506040880135945060608801359350608088013560ff811681146127a157600080fd5b9699959850939692959460a0840135945060c09093013592915050565b600080604083850312156127d157600080fd5b6127da8361259c565b91506126706020840161259c565b600181811c908216806127fc57607f821691505b60208210810361178a57634e487b7160e01b600052602260045260246000fd5b634e487b7160e01b600052601160045260246000fd5b6000828210156128445761284461281c565b500390565b60008261286657634e487b7160e01b600052601260045260246000fd5b500490565b6000821982111561287e5761287e61281c565b500190565b600081600019048311821515161561289d5761289d61281c565b500290565b634e487b7160e01b600052603260045260246000fd5b600061ffff8083168181036128cf576128cf61281c565b6001019392505050565b60208082526026908201527f45524332303a207472616e7366657220616d6f756e7420657863656564732062604082015265616c616e636560d01b606082015260800190565b7f416363657373436f6e74726f6c3a206163636f756e742000000000000000000081526000835161295781601785016020880161253d565b7001034b99036b4b9b9b4b733903937b6329607d1b601791840191820152835161298881602884016020880161253d565b01602801949350505050565b634e487b7160e01b600052602160045260246000fd5b634e487b7160e01b600052604160045260246000fd5b6000816129cf576129cf61281c565b506000190190565b634e487b7160e01b600052603160045260246000fdfe9f2df0fed2c77648de5860a4cc508cd0818c85b8b8a1ab4ceeef8d981c8956a6ddf252ad1be2c89b69c2b068fc378daa952ba7f163c4a11628f55a4df523b3efa264697066735822122087e16aa1ba3d65de8092feffebba9d6fbae9866fa9e9107497495c68a2b368f364736f6c634300080f0033",
  "linkReferences": {},
  "deployedLinkReferences": {}
}