{
  "_format": "hh-sol-artifact-1",
  "contractName": "BLBToken",
  "sourceName": "contracts/BEP20/BLBToken.sol",
  "abi": [
    {
      "inputs": [],
      "stateMutability": "nonpayable",
      "type": "constructor"
    },
    {
      "anonymous": false,
      "inputs": [
        {
          "indexed": true,
          "internalType": "address",
          "name": "owner",
          "type": "address"
        },
        {
          "indexed": true,
          "internalType": "address",
          "name": "spender",
          "type": "address"
        },
        {
          "indexed": false,
          "internalType": "uint256",
          "name": "value",
          "type": "uint256"
        }
      ],
      "name": "Approval",
      "type": "event"
    },
    {
      "anonymous": false,
      "inputs": [
        {
          "indexed": true,
          "internalType": "address",
          "name": "previousOwner",
          "type": "address"
        },
        {
          "indexed": true,
          "internalType": "address",
          "name": "newOwner",
          "type": "address"
        }
      ],
      "name": "OwnershipTransferred",
      "type": "event"
    },
    {
      "anonymous": false,
      "inputs": [
        {
          "indexed": false,
          "internalType": "address",
          "name": "account",
          "type": "address"
        }
      ],
      "name": "Paused",
      "type": "event"
    },
    {
      "anonymous": false,
      "inputs": [
        {
          "indexed": true,
          "internalType": "address",
          "name": "from",
          "type": "address"
        },
        {
          "indexed": true,
          "internalType": "address",
          "name": "to",
          "type": "address"
        },
        {
          "indexed": false,
          "internalType": "uint256",
          "name": "value",
          "type": "uint256"
        }
      ],
      "name": "Transfer",
      "type": "event"
    },
    {
      "anonymous": false,
      "inputs": [
        {
          "indexed": false,
          "internalType": "address",
          "name": "account",
          "type": "address"
        }
      ],
      "name": "Unpaused",
      "type": "event"
    },
    {
      "inputs": [],
      "name": "DOMAIN_SEPARATOR",
      "outputs": [
        {
          "internalType": "bytes32",
          "name": "",
          "type": "bytes32"
        }
      ],
      "stateMutability": "view",
      "type": "function"
    },
    {
      "inputs": [
        {
          "internalType": "address",
          "name": "owner",
          "type": "address"
        },
        {
          "internalType": "address",
          "name": "spender",
          "type": "address"
        }
      ],
      "name": "allowance",
      "outputs": [
        {
          "internalType": "uint256",
          "name": "",
          "type": "uint256"
        }
      ],
      "stateMutability": "view",
      "type": "function"
    },
    {
      "inputs": [
        {
          "internalType": "address",
          "name": "spender",
          "type": "address"
        },
        {
          "internalType": "uint256",
          "name": "amount",
          "type": "uint256"
        }
      ],
      "name": "approve",
      "outputs": [
        {
          "internalType": "bool",
          "name": "",
          "type": "bool"
        }
      ],
      "stateMutability": "nonpayable",
      "type": "function"
    },
    {
      "inputs": [
        {
          "internalType": "address",
          "name": "account",
          "type": "address"
        }
      ],
      "name": "balanceOf",
      "outputs": [
        {
          "internalType": "uint256",
          "name": "",
          "type": "uint256"
        }
      ],
      "stateMutability": "view",
      "type": "function"
    },
    {
      "inputs": [
        {
          "internalType": "uint256",
          "name": "amount",
          "type": "uint256"
        }
      ],
      "name": "burn",
      "outputs": [],
      "stateMutability": "nonpayable",
      "type": "function"
    },
    {
      "inputs": [
        {
          "internalType": "address",
          "name": "account",
          "type": "address"
        },
        {
          "internalType": "uint256",
          "name": "amount",
          "type": "uint256"
        }
      ],
      "name": "burnFrom",
      "outputs": [],
      "stateMutability": "nonpayable",
      "type": "function"
    },
    {
      "inputs": [
        {
          "internalType": "address",
          "name": "addr",
          "type": "address"
        }
      ],
      "name": "canSpend",
      "outputs": [
        {
          "internalType": "uint256",
          "name": "amount",
          "type": "uint256"
        }
      ],
      "stateMutability": "view",
      "type": "function"
    },
    {
      "inputs": [],
      "name": "cap",
      "outputs": [
        {
          "internalType": "uint256",
          "name": "",
          "type": "uint256"
        }
      ],
      "stateMutability": "view",
      "type": "function"
    },
    {
      "inputs": [],
      "name": "decimals",
      "outputs": [
        {
          "internalType": "uint8",
          "name": "",
          "type": "uint8"
        }
      ],
      "stateMutability": "view",
      "type": "function"
    },
    {
      "inputs": [
        {
          "internalType": "address",
          "name": "spender",
          "type": "address"
        },
        {
          "internalType": "uint256",
          "name": "subtractedValue",
          "type": "uint256"
        }
      ],
      "name": "decreaseAllowance",
      "outputs": [
        {
          "internalType": "bool",
          "name": "",
          "type": "bool"
        }
      ],
      "stateMutability": "nonpayable",
      "type": "function"
    },
    {
      "inputs": [
        {
          "internalType": "address",
          "name": "addr",
          "type": "address"
        }
      ],
      "name": "destrict",
      "outputs": [],
      "stateMutability": "nonpayable",
      "type": "function"
    },
    {
      "inputs": [
        {
          "internalType": "address",
          "name": "spender",
          "type": "address"
        },
        {
          "internalType": "uint256",
          "name": "addedValue",
          "type": "uint256"
        }
      ],
      "name": "increaseAllowance",
      "outputs": [
        {
          "internalType": "bool",
          "name": "",
          "type": "bool"
        }
      ],
      "stateMutability": "nonpayable",
      "type": "function"
    },
    {
      "inputs": [
        {
          "internalType": "address",
          "name": "addr",
          "type": "address"
        }
      ],
      "name": "isRestricted",
      "outputs": [
        {
          "internalType": "bool",
          "name": "",
          "type": "bool"
        }
      ],
      "stateMutability": "view",
      "type": "function"
    },
    {
      "inputs": [
        {
          "internalType": "address",
          "name": "to",
          "type": "address"
        },
        {
          "internalType": "uint256",
          "name": "amount",
          "type": "uint256"
        }
      ],
      "name": "mint",
      "outputs": [],
      "stateMutability": "nonpayable",
      "type": "function"
    },
    {
      "inputs": [],
      "name": "name",
      "outputs": [
        {
          "internalType": "string",
          "name": "",
          "type": "string"
        }
      ],
      "stateMutability": "view",
      "type": "function"
    },
    {
      "inputs": [
        {
          "internalType": "address",
          "name": "owner",
          "type": "address"
        }
      ],
      "name": "nonces",
      "outputs": [
        {
          "internalType": "uint256",
          "name": "",
          "type": "uint256"
        }
      ],
      "stateMutability": "view",
      "type": "function"
    },
    {
      "inputs": [],
      "name": "owner",
      "outputs": [
        {
          "internalType": "address",
          "name": "",
          "type": "address"
        }
      ],
      "stateMutability": "view",
      "type": "function"
    },
    {
      "inputs": [],
      "name": "pause",
      "outputs": [],
      "stateMutability": "nonpayable",
      "type": "function"
    },
    {
      "inputs": [],
      "name": "paused",
      "outputs": [
        {
          "internalType": "bool",
          "name": "",
          "type": "bool"
        }
      ],
      "stateMutability": "view",
      "type": "function"
    },
    {
      "inputs": [
        {
          "internalType": "address",
          "name": "owner",
          "type": "address"
        },
        {
          "internalType": "address",
          "name": "spender",
          "type": "address"
        },
        {
          "internalType": "uint256",
          "name": "value",
          "type": "uint256"
        },
        {
          "internalType": "uint256",
          "name": "deadline",
          "type": "uint256"
        },
        {
          "internalType": "uint8",
          "name": "v",
          "type": "uint8"
        },
        {
          "internalType": "bytes32",
          "name": "r",
          "type": "bytes32"
        },
        {
          "internalType": "bytes32",
          "name": "s",
          "type": "bytes32"
        }
      ],
      "name": "permit",
      "outputs": [],
      "stateMutability": "nonpayable",
      "type": "function"
    },
    {
      "inputs": [],
      "name": "renounceOwnership",
      "outputs": [],
      "stateMutability": "nonpayable",
      "type": "function"
    },
    {
      "inputs": [
        {
          "internalType": "address",
          "name": "addr",
          "type": "address"
        },
        {
          "internalType": "uint256",
          "name": "amount",
          "type": "uint256"
        }
      ],
      "name": "restrict",
      "outputs": [],
      "stateMutability": "nonpayable",
      "type": "function"
    },
    {
      "inputs": [
        {
          "internalType": "uint256",
          "name": "_feeFraction",
          "type": "uint256"
        },
        {
          "internalType": "address",
          "name": "_feeReceiver",
          "type": "address"
        }
      ],
      "name": "setTransactionFee",
      "outputs": [],
      "stateMutability": "nonpayable",
      "type": "function"
    },
    {
      "inputs": [
        {
          "internalType": "uint256",
          "name": "fraction",
          "type": "uint256"
        }
      ],
      "name": "setperiodTransferFraction",
      "outputs": [],
      "stateMutability": "nonpayable",
      "type": "function"
    },
    {
      "inputs": [],
      "name": "symbol",
      "outputs": [
        {
          "internalType": "string",
          "name": "",
          "type": "string"
        }
      ],
      "stateMutability": "view",
      "type": "function"
    },
    {
      "inputs": [],
      "name": "totalSupply",
      "outputs": [
        {
          "internalType": "uint256",
          "name": "",
          "type": "uint256"
        }
      ],
      "stateMutability": "view",
      "type": "function"
    },
    {
      "inputs": [
        {
          "internalType": "uint256",
          "name": "transferingAmount",
          "type": "uint256"
        }
      ],
      "name": "transactionFee",
      "outputs": [
        {
          "internalType": "uint256",
          "name": "",
          "type": "uint256"
        }
      ],
      "stateMutability": "view",
      "type": "function"
    },
    {
      "inputs": [
        {
          "internalType": "address",
          "name": "to",
          "type": "address"
        },
        {
          "internalType": "uint256",
          "name": "amount",
          "type": "uint256"
        }
      ],
      "name": "transfer",
      "outputs": [
        {
          "internalType": "bool",
          "name": "",
          "type": "bool"
        }
      ],
      "stateMutability": "nonpayable",
      "type": "function"
    },
    {
      "inputs": [
        {
          "internalType": "address",
          "name": "from",
          "type": "address"
        },
        {
          "internalType": "address",
          "name": "to",
          "type": "address"
        },
        {
          "internalType": "uint256",
          "name": "amount",
          "type": "uint256"
        }
      ],
      "name": "transferFrom",
      "outputs": [
        {
          "internalType": "bool",
          "name": "",
          "type": "bool"
        }
      ],
      "stateMutability": "nonpayable",
      "type": "function"
    },
    {
      "inputs": [
        {
          "internalType": "address",
          "name": "newOwner",
          "type": "address"
        }
      ],
      "name": "transferOwnership",
      "outputs": [],
      "stateMutability": "nonpayable",
      "type": "function"
    },
    {
      "inputs": [],
      "name": "unpause",
      "outputs": [],
      "stateMutability": "nonpayable",
      "type": "function"
    }
  ],
  "bytecode": "0x6101a06040523480156200001257600080fd5b506040518060400160405280600f81526020016e109bdd5b991b195cdcc815dbdc9b19608a1b81525080604051806040016040528060018152602001603160f81b815250620000666200021160201b60201c565b6200007390600a62000385565b620000839063dbf0ee806200039d565b6040518060400160405280600f81526020016e109bdd5b991b195cdcc815dbdc9b19608a1b8152506040518060400160405280600381526020016221262160e91b8152508160039081620000d8919062000464565b506004620000e7828262000464565b505050600081116200013f5760405162461bcd60e51b815260206004820152601560248201527f45524332304361707065643a2063617020697320300000000000000000000000604482015260640160405180910390fd5b60805281516020808401919091208251918301919091206101008290526101208190524660c0527f8b73c3c69bb8fe3d512ecc4cf759cc79239f7b179b0ffacaa9a75d522b39400f620001d78184846040805160208101859052908101839052606081018290524660808201523060a082015260009060c0016040516020818303038152906040528051906020012090509392505050565b60a0523060e0526101405250506007805460ff1916905550620001fe915033905062000216565b426101605262278d006101805262000530565b601290565b600780546001600160a01b03838116610100818102610100600160a81b031985161790945560405193909204169182907f8be0079c531659141344cd1fd0a4f28419497f9722a3daafe3b4186f6b6457e090600090a35050565b634e487b7160e01b600052601160045260246000fd5b600181815b80851115620002c7578160001904821115620002ab57620002ab62000270565b80851615620002b957918102915b93841c93908002906200028b565b509250929050565b600082620002e0575060016200037f565b81620002ef575060006200037f565b8160018114620003085760028114620003135762000333565b60019150506200037f565b60ff84111562000327576200032762000270565b50506001821b6200037f565b5060208310610133831016604e8410600b841016171562000358575081810a6200037f565b62000364838362000286565b80600019048211156200037b576200037b62000270565b0290505b92915050565b60006200039660ff841683620002cf565b9392505050565b6000816000190483118215151615620003ba57620003ba62000270565b500290565b634e487b7160e01b600052604160045260246000fd5b600181811c90821680620003ea57607f821691505b6020821081036200040b57634e487b7160e01b600052602260045260246000fd5b50919050565b601f8211156200045f57600081815260208120601f850160051c810160208610156200043a5750805b601f850160051c820191505b818110156200045b5782815560010162000446565b5050505b505050565b81516001600160401b03811115620004805762000480620003bf565b6200049881620004918454620003d5565b8462000411565b602080601f831160018114620004d05760008415620004b75750858301515b600019600386901b1c1916600185901b1785556200045b565b600085815260208120601f198616915b828110156200050157888601518255948401946001909101908401620004e0565b5085821015620005205787850151600019600388901b60f8161c191681555b5050505050600190811b01905550565b60805160a05160c05160e051610100516101205161014051610160516101805161210d620005b6600039600081816105b00152611be90152600081816105d40152611c0d01526000610f4801526000610f9701526000610f7201526000610ecb01526000610ef501526000610f1f01526000818161029c01526113d3015261210d6000f3fe608060405234801561001057600080fd5b50600436106101e55760003560e01c80635d1edb871161010f57806395d89b41116100a2578063d505accf11610071578063d505accf14610403578063dd62ed3e14610416578063f2fde38b14610429578063f976ca361461043c57600080fd5b806395d89b41146103c2578063a457c2d7146103ca578063a9059cbb146103dd578063c01bc982146103f057600080fd5b80637ecebe00116100de5780637ecebe001461036b57806383c2e1541461037e5780638456cb59146103915780638da5cb5b1461039957600080fd5b80635d1edb871461031457806370a0823114610327578063715018a61461035057806379cc67901461035857600080fd5b8063313ce567116101875780633f4ba83a116101565780633f4ba83a146102db57806340c10f19146102e357806342966c68146102f65780635c975abb1461030957600080fd5b8063313ce5671461028b578063355274ea1461029a5780633644e515146102c057806339509351146102c857600080fd5b80631681f830116101c35780631681f8301461024057806318160ddd14610253578063234eaedc1461026557806323b872dd1461027857600080fd5b806306fdde03146101ea578063095ea7b31461020857806315c0702a1461022b575b600080fd5b6101f261044f565b6040516101ff9190611d1e565b60405180910390f35b61021b610216366004611d8a565b6104e1565b60405190151581526020016101ff565b61023e610239366004611db4565b6104fb565b005b61023e61024e366004611d8a565b610512565b6002545b6040519081526020016101ff565b610257610273366004611db4565b61052b565b61021b610286366004611dcf565b61065a565b604051601281526020016101ff565b7f0000000000000000000000000000000000000000000000000000000000000000610257565b61025761067e565b61021b6102d6366004611d8a565b61068d565b61023e6106af565b61023e6102f1366004611d8a565b6106c1565b61023e610304366004611e0b565b6106d3565b60075460ff1661021b565b610257610322366004611e0b565b6106e0565b610257610335366004611db4565b6001600160a01b031660009081526020819052604090205490565b61023e6106fe565b61023e610366366004611d8a565b610710565b610257610379366004611db4565b610725565b61023e61038c366004611e24565b610743565b61023e61083e565b60075461010090046001600160a01b03166040516001600160a01b0390911681526020016101ff565b6101f261084e565b61021b6103d8366004611d8a565b61085d565b61021b6103eb366004611d8a565b6108d8565b61021b6103fe366004611db4565b6108e6565b61023e610411366004611e50565b6108f3565b610257610424366004611ec3565b610a57565b61023e610437366004611db4565b610a82565b61023e61044a366004611e0b565b610af8565b60606003805461045e90611eed565b80601f016020809104026020016040519081016040528092919081815260200182805461048a90611eed565b80156104d75780601f106104ac576101008083540402835291602001916104d7565b820191906000526020600020905b8154815290600101906020018083116104ba57829003601f168201915b5050505050905090565b6000336104ef818585610b6a565b60019150505b92915050565b610503610c8e565b61050e600882610cee565b5050565b61051a610c8e565b61052660088383610d03565b505050565b6000610536826108e6565b15610546576104f5600883610d21565b600c54620f424003610570576001600160a01b0382166000908152602081905260409020546104f5565b6000620f4240600c54610598856001600160a01b031660009081526020819052604090205490565b6105a29190611f37565b6105ac9190611f56565b90507f00000000000000000000000000000000000000000000000000000000000000006105f97f000000000000000000000000000000000000000000000000000000000000000042611f78565b6106039190611f56565b6001600160a01b0384166000908152600b60205260409020600101540361064c576001600160a01b0383166000908152600b60205260409020546106479082611f78565b61064e565b805b9392505050565b919050565b600033610668858285610d36565b610673858585610db0565b506001949350505050565b6000610688610ebe565b905090565b6000336104ef8185856106a08383610a57565b6106aa9190611f8f565b610b6a565b6106b7610c8e565b6106bf610fe5565b565b6106c9610c8e565b61050e8282611037565b6106dd3382611041565b50565b6000620f4240600d54836106f49190611f37565b6104f59190611f56565b610706610c8e565b6106bf6000611189565b61071b823383610d36565b61050e8282611041565b6001600160a01b0381166000908152600560205260408120546104f5565b61074b610c8e565b61c3508211156107ae5760405162461bcd60e51b8152602060048201526024808201527f796f75722063616e2073657420757020746f203525207472616e73616374696f6044820152636e46656560e01b60648201526084015b60405180910390fd5b600d5415610817576001600160a01b0381166108175760405162461bcd60e51b815260206004820152602260248201527f66656552656365697665722063616e6e6f74206265207a65726f206164647265604482015261737360f01b60648201526084016107a5565b600d91909155600e80546001600160a01b0319166001600160a01b03909216919091179055565b610846610c8e565b6106bf6111e3565b60606004805461045e90611eed565b6000338161086b8286610a57565b9050838110156108cb5760405162461bcd60e51b815260206004820152602560248201527f45524332303a2064656372656173656420616c6c6f77616e63652062656c6f77604482015264207a65726f60d81b60648201526084016107a5565b6106738286868403610b6a565b6000336104ef818585610db0565b60006104f5600883611220565b834211156109435760405162461bcd60e51b815260206004820152601d60248201527f45524332305065726d69743a206578706972656420646561646c696e6500000060448201526064016107a5565b60007f6e71edae12b1b97f4d1f60370fef10105fa2faae0126114a169c64845d6126c98888886109728c611235565b6040805160208101969096526001600160a01b0394851690860152929091166060840152608083015260a082015260c0810186905260e00160405160208183030381529060405280519060200120905060006109cd8261125d565b905060006109dd828787876112ab565b9050896001600160a01b0316816001600160a01b031614610a405760405162461bcd60e51b815260206004820152601e60248201527f45524332305065726d69743a20696e76616c6964207369676e6174757265000060448201526064016107a5565b610a4b8a8a8a610b6a565b50505050505050505050565b6001600160a01b03918216600090815260016020908152604080832093909416825291909152205490565b610a8a610c8e565b6001600160a01b038116610aef5760405162461bcd60e51b815260206004820152602660248201527f4f776e61626c653a206e6577206f776e657220697320746865207a65726f206160448201526564647265737360d01b60648201526084016107a5565b6106dd81611189565b610b00610c8e565b620f4240811115610b655760405162461bcd60e51b815260206004820152602960248201527f6d6178696d756d206672616374696f6e2069732031302a2a362028657175616c60448201526820746f20313030252960b81b60648201526084016107a5565b600c55565b6001600160a01b038316610bcc5760405162461bcd60e51b8152602060048201526024808201527f45524332303a20617070726f76652066726f6d20746865207a65726f206164646044820152637265737360e01b60648201526084016107a5565b6001600160a01b038216610c2d5760405162461bcd60e51b815260206004820152602260248201527f45524332303a20617070726f766520746f20746865207a65726f206164647265604482015261737360f01b60648201526084016107a5565b6001600160a01b0383811660008181526001602090815260408083209487168084529482529182902085905590518481527f8c5be1e5ebec7d5bd14f71427d1e84f3dd0314c0f7b2291e5b200ac8c7c3b925910160405180910390a3505050565b6007546001600160a01b036101009091041633146106bf5760405162461bcd60e51b815260206004820181905260248201527f4f776e61626c653a2063616c6c6572206973206e6f7420746865206f776e657260448201526064016107a5565b600061064e836001600160a01b0384166112d3565b6000610d19846001600160a01b038516846112f0565b949350505050565b600061064e836001600160a01b03841661130d565b6000610d428484610a57565b90506000198114610daa5781811015610d9d5760405162461bcd60e51b815260206004820152601d60248201527f45524332303a20696e73756666696369656e7420616c6c6f77616e636500000060448201526064016107a5565b610daa8484848403610b6a565b50505050565b6001600160a01b038316610dd65760405162461bcd60e51b81526004016107a590611fa7565b6001600160a01b038216610dfc5760405162461bcd60e51b81526004016107a590611fec565b610e0783838361137d565b6001600160a01b03831660009081526020819052604090205481811015610e405760405162461bcd60e51b81526004016107a59061202f565b6001600160a01b03808516600090815260208190526040808220858503905591851681529081208054849290610e77908490611f8f565b92505081905550826001600160a01b0316846001600160a01b03166000805160206120b883398151915284604051610eb191815260200190565b60405180910390a3610daa565b6000306001600160a01b037f000000000000000000000000000000000000000000000000000000000000000016148015610f1757507f000000000000000000000000000000000000000000000000000000000000000046145b15610f4157507f000000000000000000000000000000000000000000000000000000000000000090565b50604080517f00000000000000000000000000000000000000000000000000000000000000006020808301919091527f0000000000000000000000000000000000000000000000000000000000000000828401527f000000000000000000000000000000000000000000000000000000000000000060608301524660808301523060a0808401919091528351808403909101815260c0909201909252805191012090565b610fed611388565b6007805460ff191690557f5db9ee0a495bf2e6ff9c91a7834c1ba4fdd244a5e8aa4e537bd38aeae4b073aa335b6040516001600160a01b03909116815260200160405180910390a1565b61050e82826113d1565b6001600160a01b0382166110a15760405162461bcd60e51b815260206004820152602160248201527f45524332303a206275726e2066726f6d20746865207a65726f206164647265736044820152607360f81b60648201526084016107a5565b6110ad8260008361137d565b6001600160a01b038216600090815260208190526040902054818110156111215760405162461bcd60e51b815260206004820152602260248201527f45524332303a206275726e20616d6f756e7420657863656564732062616c616e604482015261636560f01b60648201526084016107a5565b6001600160a01b0383166000908152602081905260408120838303905560028054849290611150908490611f78565b90915550506040518281526000906001600160a01b038516906000805160206120b88339815191529060200160405180910390a3505050565b600780546001600160a01b03838116610100818102610100600160a81b031985161790945560405193909204169182907f8be0079c531659141344cd1fd0a4f28419497f9722a3daafe3b4186f6b6457e090600090a35050565b6111eb61145e565b6007805460ff191660011790557f62e78cea01bee320cd4e420270b5ea74000d11b0c9f74754ebdbfc544b05a25861101a3390565b600061064e836001600160a01b0384166114a4565b6001600160a01b03811660009081526005602052604090208054600181018255905b50919050565b60006104f561126a610ebe565b8360405161190160f01b6020820152602281018390526042810182905260009060620160405160208183030381529060405280519060200120905092915050565b60008060006112bc878787876114b0565b915091506112c98161159d565b5095945050505050565b6000818152600283016020526040812081905561064e8383611753565b60008281526002840160205260408120829055610d19848461175f565b600081815260028301602052604081205480151580611331575061133184846114a4565b61064e5760405162461bcd60e51b815260206004820152601e60248201527f456e756d657261626c654d61703a206e6f6e6578697374656e74206b6579000060448201526064016107a5565b61052683838361176b565b60075460ff166106bf5760405162461bcd60e51b815260206004820152601460248201527314185d5cd8589b194e881b9bdd081c185d5cd95960621b60448201526064016107a5565b7f0000000000000000000000000000000000000000000000000000000000000000816113fc60025490565b6114069190611f8f565b11156114545760405162461bcd60e51b815260206004820152601960248201527f45524332304361707065643a206361702065786365656465640000000000000060448201526064016107a5565b61050e82826117b2565b60075460ff16156106bf5760405162461bcd60e51b815260206004820152601060248201526f14185d5cd8589b194e881c185d5cd95960821b60448201526064016107a5565b600061064e838361188b565b6000807f7fffffffffffffffffffffffffffffff5d576e7357a4501ddfe92f46681b20a08311156114e75750600090506003611594565b8460ff16601b141580156114ff57508460ff16601c14155b156115105750600090506004611594565b6040805160008082526020820180845289905260ff881692820192909252606081018690526080810185905260019060a0016020604051602081039080840390855afa158015611564573d6000803e3d6000fd5b5050604051601f1901519150506001600160a01b03811661158d57600060019250925050611594565b9150600090505b94509492505050565b60008160048111156115b1576115b1612075565b036115b95750565b60018160048111156115cd576115cd612075565b0361161a5760405162461bcd60e51b815260206004820152601860248201527f45434453413a20696e76616c6964207369676e6174757265000000000000000060448201526064016107a5565b600281600481111561162e5761162e612075565b0361167b5760405162461bcd60e51b815260206004820152601f60248201527f45434453413a20696e76616c6964207369676e6174757265206c656e6774680060448201526064016107a5565b600381600481111561168f5761168f612075565b036116e75760405162461bcd60e51b815260206004820152602260248201527f45434453413a20696e76616c6964207369676e6174757265202773272076616c604482015261756560f01b60648201526084016107a5565b60048160048111156116fb576116fb612075565b036106dd5760405162461bcd60e51b815260206004820152602260248201527f45434453413a20696e76616c6964207369676e6174757265202776272076616c604482015261756560f01b60648201526084016107a5565b600061064e83836118a3565b600061064e8383611996565b600d54156117a757600061177e826106e0565b600e549091506117999085906001600160a01b0316836119e5565b6117a38183611f78565b9150505b610526838383611ae9565b6001600160a01b0382166118085760405162461bcd60e51b815260206004820152601f60248201527f45524332303a206d696e7420746f20746865207a65726f20616464726573730060448201526064016107a5565b6118146000838361137d565b80600260008282546118269190611f8f565b90915550506001600160a01b03821660009081526020819052604081208054839290611853908490611f8f565b90915550506040518181526001600160a01b038316906000906000805160206120b88339815191529060200160405180910390a35050565b6000818152600183016020526040812054151561064e565b6000818152600183016020526040812054801561198c5760006118c7600183611f78565b85549091506000906118db90600190611f78565b90508181146119405760008660000182815481106118fb576118fb61208b565b906000526020600020015490508087600001848154811061191e5761191e61208b565b6000918252602080832090910192909255918252600188019052604090208390555b8554869080611951576119516120a1565b6001900381819060005260206000200160009055905585600101600086815260200190815260200160002060009055600193505050506104f5565b60009150506104f5565b60008181526001830160205260408120546119dd575081546001818101845560008481526020808220909301849055845484825282860190935260409020919091556104f5565b5060006104f5565b6001600160a01b038316611a0b5760405162461bcd60e51b81526004016107a590611fa7565b6001600160a01b038216611a315760405162461bcd60e51b81526004016107a590611fec565b6001600160a01b03831660009081526020819052604090205481811015611a6a5760405162461bcd60e51b81526004016107a59061202f565b6001600160a01b03808516600090815260208190526040808220858503905591851681529081208054849290611aa1908490611f8f565b92505081905550826001600160a01b0316846001600160a01b03166000805160206120b883398151915284604051611adb91815260200190565b60405180910390a350505050565b60075461010090046001600160a01b03166001600160a01b0316336001600160a01b031614610526576105268382611b20826108e6565b15611b9b576000611b32600884610d21565b905080821115611b845760405162461bcd60e51b815260206004820152601a60248201527f616d6f756e742065786365656473207370656e64206c696d697400000000000060448201526064016107a5565b610daa83611b928484611f78565b60089190610d03565b600c54620f42401461050e576000620f4240600c54611bcf856001600160a01b031660009081526020819052604090205490565b611bd99190611f37565b611be39190611f56565b905060007f0000000000000000000000000000000000000000000000000000000000000000611c327f000000000000000000000000000000000000000000000000000000000000000042611f78565b611c3c9190611f56565b6001600160a01b0385166000908152600b6020526040902060010154909150819003611c88576001600160a01b0384166000908152600b6020526040902054611c859084611f8f565b92505b81831115611ce25760405162461bcd60e51b815260206004820152602160248201527f616d6f756e74206578636565647320706572696f64207370656e64206c696d696044820152601d60fa1b60648201526084016107a5565b60408051808201825293845260208085019283526001600160a01b03959095166000908152600b90955290932091518255509051600190910155565b600060208083528351808285015260005b81811015611d4b57858101830151858201604001528201611d2f565b81811115611d5d576000604083870101525b50601f01601f1916929092016040019392505050565b80356001600160a01b038116811461065557600080fd5b60008060408385031215611d9d57600080fd5b611da683611d73565b946020939093013593505050565b600060208284031215611dc657600080fd5b61064e82611d73565b600080600060608486031215611de457600080fd5b611ded84611d73565b9250611dfb60208501611d73565b9150604084013590509250925092565b600060208284031215611e1d57600080fd5b5035919050565b60008060408385031215611e3757600080fd5b82359150611e4760208401611d73565b90509250929050565b600080600080600080600060e0888a031215611e6b57600080fd5b611e7488611d73565b9650611e8260208901611d73565b95506040880135945060608801359350608088013560ff81168114611ea657600080fd5b9699959850939692959460a0840135945060c09093013592915050565b60008060408385031215611ed657600080fd5b611edf83611d73565b9150611e4760208401611d73565b600181811c90821680611f0157607f821691505b60208210810361125757634e487b7160e01b600052602260045260246000fd5b634e487b7160e01b600052601160045260246000fd5b6000816000190483118215151615611f5157611f51611f21565b500290565b600082611f7357634e487b7160e01b600052601260045260246000fd5b500490565b600082821015611f8a57611f8a611f21565b500390565b60008219821115611fa257611fa2611f21565b500190565b60208082526025908201527f45524332303a207472616e736665722066726f6d20746865207a65726f206164604082015264647265737360d81b606082015260800190565b60208082526023908201527f45524332303a207472616e7366657220746f20746865207a65726f206164647260408201526265737360e81b606082015260800190565b60208082526026908201527f45524332303a207472616e7366657220616d6f756e7420657863656564732062604082015265616c616e636560d01b606082015260800190565b634e487b7160e01b600052602160045260246000fd5b634e487b7160e01b600052603260045260246000fd5b634e487b7160e01b600052603160045260246000fdfeddf252ad1be2c89b69c2b068fc378daa952ba7f163c4a11628f55a4df523b3efa264697066735822122018213dc3e7a350ca81fec76952eedf1acfb441c3414056aa71404adb2b5578b264736f6c634300080f0033",
  "linkReferences": {},
  "deployedLinkReferences": {}
}