{
  "_format": "hh-sol-artifact-1",
  "contractName": "BLBToken",
  "sourceName": "contracts/BEP20/BLBToken.sol",
  "abi": [
    {
      "inputs": [],
      "stateMutability": "nonpayable",
      "type": "constructor"
    },
    {
      "anonymous": false,
      "inputs": [
        {
          "indexed": true,
          "internalType": "address",
          "name": "owner",
          "type": "address"
        },
        {
          "indexed": true,
          "internalType": "address",
          "name": "spender",
          "type": "address"
        },
        {
          "indexed": false,
          "internalType": "uint256",
          "name": "value",
          "type": "uint256"
        }
      ],
      "name": "Approval",
      "type": "event"
    },
    {
      "anonymous": false,
      "inputs": [
        {
          "indexed": false,
          "internalType": "address",
          "name": "addr",
          "type": "address"
        }
      ],
      "name": "District",
      "type": "event"
    },
    {
      "anonymous": false,
      "inputs": [
        {
          "indexed": false,
          "internalType": "address",
          "name": "addr",
          "type": "address"
        },
        {
          "indexed": false,
          "internalType": "uint256",
          "name": "amount",
          "type": "uint256"
        }
      ],
      "name": "Restrict",
      "type": "event"
    },
    {
      "anonymous": false,
      "inputs": [
        {
          "indexed": true,
          "internalType": "bytes32",
          "name": "role",
          "type": "bytes32"
        },
        {
          "indexed": true,
          "internalType": "bytes32",
          "name": "previousAdminRole",
          "type": "bytes32"
        },
        {
          "indexed": true,
          "internalType": "bytes32",
          "name": "newAdminRole",
          "type": "bytes32"
        }
      ],
      "name": "RoleAdminChanged",
      "type": "event"
    },
    {
      "anonymous": false,
      "inputs": [
        {
          "indexed": true,
          "internalType": "bytes32",
          "name": "role",
          "type": "bytes32"
        },
        {
          "indexed": true,
          "internalType": "address",
          "name": "account",
          "type": "address"
        },
        {
          "indexed": true,
          "internalType": "address",
          "name": "sender",
          "type": "address"
        }
      ],
      "name": "RoleGranted",
      "type": "event"
    },
    {
      "anonymous": false,
      "inputs": [
        {
          "indexed": true,
          "internalType": "bytes32",
          "name": "role",
          "type": "bytes32"
        },
        {
          "indexed": true,
          "internalType": "address",
          "name": "account",
          "type": "address"
        },
        {
          "indexed": true,
          "internalType": "address",
          "name": "sender",
          "type": "address"
        }
      ],
      "name": "RoleRevoked",
      "type": "event"
    },
    {
      "anonymous": false,
      "inputs": [
        {
          "indexed": false,
          "internalType": "uint256",
          "name": "fraction",
          "type": "uint256"
        }
      ],
      "name": "SetPeriodTransferFraction",
      "type": "event"
    },
    {
      "anonymous": false,
      "inputs": [
        {
          "indexed": false,
          "internalType": "uint256",
          "name": "_feeAmount",
          "type": "uint256"
        },
        {
          "indexed": false,
          "internalType": "uint256",
          "name": "_feeFraction",
          "type": "uint256"
        },
        {
          "indexed": false,
          "internalType": "address",
          "name": "_feeReceiver",
          "type": "address"
        }
      ],
      "name": "SetTransactionFee",
      "type": "event"
    },
    {
      "anonymous": false,
      "inputs": [
        {
          "indexed": true,
          "internalType": "address",
          "name": "from",
          "type": "address"
        },
        {
          "indexed": true,
          "internalType": "address",
          "name": "to",
          "type": "address"
        },
        {
          "indexed": false,
          "internalType": "uint256",
          "name": "value",
          "type": "uint256"
        }
      ],
      "name": "Transfer",
      "type": "event"
    },
    {
      "inputs": [],
      "name": "DEFAULT_ADMIN_ROLE",
      "outputs": [
        {
          "internalType": "bytes32",
          "name": "",
          "type": "bytes32"
        }
      ],
      "stateMutability": "view",
      "type": "function"
    },
    {
      "inputs": [],
      "name": "DOMAIN_SEPARATOR",
      "outputs": [
        {
          "internalType": "bytes32",
          "name": "",
          "type": "bytes32"
        }
      ],
      "stateMutability": "view",
      "type": "function"
    },
    {
      "inputs": [],
      "name": "MINTER_ROLE",
      "outputs": [
        {
          "internalType": "bytes32",
          "name": "",
          "type": "bytes32"
        }
      ],
      "stateMutability": "view",
      "type": "function"
    },
    {
      "inputs": [],
      "name": "RESTRICTOR_ROLE",
      "outputs": [
        {
          "internalType": "bytes32",
          "name": "",
          "type": "bytes32"
        }
      ],
      "stateMutability": "view",
      "type": "function"
    },
    {
      "inputs": [],
      "name": "TRANSACTION_FEE_SETTER",
      "outputs": [
        {
          "internalType": "bytes32",
          "name": "",
          "type": "bytes32"
        }
      ],
      "stateMutability": "view",
      "type": "function"
    },
    {
      "inputs": [],
      "name": "TRANSFER_LIMIT_SETTER",
      "outputs": [
        {
          "internalType": "bytes32",
          "name": "",
          "type": "bytes32"
        }
      ],
      "stateMutability": "view",
      "type": "function"
    },
    {
      "inputs": [
        {
          "internalType": "address",
          "name": "owner",
          "type": "address"
        },
        {
          "internalType": "address",
          "name": "spender",
          "type": "address"
        }
      ],
      "name": "allowance",
      "outputs": [
        {
          "internalType": "uint256",
          "name": "",
          "type": "uint256"
        }
      ],
      "stateMutability": "view",
      "type": "function"
    },
    {
      "inputs": [
        {
          "internalType": "address",
          "name": "spender",
          "type": "address"
        },
        {
          "internalType": "uint256",
          "name": "amount",
          "type": "uint256"
        }
      ],
      "name": "approve",
      "outputs": [
        {
          "internalType": "bool",
          "name": "",
          "type": "bool"
        }
      ],
      "stateMutability": "nonpayable",
      "type": "function"
    },
    {
      "inputs": [
        {
          "internalType": "address",
          "name": "account",
          "type": "address"
        }
      ],
      "name": "balanceOf",
      "outputs": [
        {
          "internalType": "uint256",
          "name": "",
          "type": "uint256"
        }
      ],
      "stateMutability": "view",
      "type": "function"
    },
    {
      "inputs": [
        {
          "internalType": "uint256",
          "name": "amount",
          "type": "uint256"
        }
      ],
      "name": "burn",
      "outputs": [],
      "stateMutability": "nonpayable",
      "type": "function"
    },
    {
      "inputs": [
        {
          "internalType": "address",
          "name": "account",
          "type": "address"
        },
        {
          "internalType": "uint256",
          "name": "amount",
          "type": "uint256"
        }
      ],
      "name": "burnFrom",
      "outputs": [],
      "stateMutability": "nonpayable",
      "type": "function"
    },
    {
      "inputs": [
        {
          "internalType": "address",
          "name": "addr",
          "type": "address"
        }
      ],
      "name": "canSpend",
      "outputs": [
        {
          "internalType": "uint256",
          "name": "amount",
          "type": "uint256"
        }
      ],
      "stateMutability": "view",
      "type": "function"
    },
    {
      "inputs": [],
      "name": "cap",
      "outputs": [
        {
          "internalType": "uint256",
          "name": "",
          "type": "uint256"
        }
      ],
      "stateMutability": "view",
      "type": "function"
    },
    {
      "inputs": [],
      "name": "decimals",
      "outputs": [
        {
          "internalType": "uint8",
          "name": "",
          "type": "uint8"
        }
      ],
      "stateMutability": "view",
      "type": "function"
    },
    {
      "inputs": [
        {
          "internalType": "address",
          "name": "spender",
          "type": "address"
        },
        {
          "internalType": "uint256",
          "name": "subtractedValue",
          "type": "uint256"
        }
      ],
      "name": "decreaseAllowance",
      "outputs": [
        {
          "internalType": "bool",
          "name": "",
          "type": "bool"
        }
      ],
      "stateMutability": "nonpayable",
      "type": "function"
    },
    {
      "inputs": [
        {
          "internalType": "address",
          "name": "addr",
          "type": "address"
        }
      ],
      "name": "district",
      "outputs": [],
      "stateMutability": "nonpayable",
      "type": "function"
    },
    {
      "inputs": [
        {
          "internalType": "bytes32",
          "name": "role",
          "type": "bytes32"
        }
      ],
      "name": "getRoleAdmin",
      "outputs": [
        {
          "internalType": "bytes32",
          "name": "",
          "type": "bytes32"
        }
      ],
      "stateMutability": "view",
      "type": "function"
    },
    {
      "inputs": [
        {
          "internalType": "bytes32",
          "name": "role",
          "type": "bytes32"
        },
        {
          "internalType": "address",
          "name": "account",
          "type": "address"
        }
      ],
      "name": "grantRole",
      "outputs": [],
      "stateMutability": "nonpayable",
      "type": "function"
    },
    {
      "inputs": [
        {
          "internalType": "bytes32",
          "name": "role",
          "type": "bytes32"
        },
        {
          "internalType": "address",
          "name": "account",
          "type": "address"
        }
      ],
      "name": "hasRole",
      "outputs": [
        {
          "internalType": "bool",
          "name": "",
          "type": "bool"
        }
      ],
      "stateMutability": "view",
      "type": "function"
    },
    {
      "inputs": [
        {
          "internalType": "address",
          "name": "spender",
          "type": "address"
        },
        {
          "internalType": "uint256",
          "name": "addedValue",
          "type": "uint256"
        }
      ],
      "name": "increaseAllowance",
      "outputs": [
        {
          "internalType": "bool",
          "name": "",
          "type": "bool"
        }
      ],
      "stateMutability": "nonpayable",
      "type": "function"
    },
    {
      "inputs": [
        {
          "internalType": "address",
          "name": "addr",
          "type": "address"
        }
      ],
      "name": "isRestricted",
      "outputs": [
        {
          "internalType": "bool",
          "name": "",
          "type": "bool"
        }
      ],
      "stateMutability": "view",
      "type": "function"
    },
    {
      "inputs": [
        {
          "internalType": "address",
          "name": "to",
          "type": "address"
        },
        {
          "internalType": "uint256",
          "name": "amount",
          "type": "uint256"
        }
      ],
      "name": "mint",
      "outputs": [],
      "stateMutability": "nonpayable",
      "type": "function"
    },
    {
      "inputs": [],
      "name": "name",
      "outputs": [
        {
          "internalType": "string",
          "name": "",
          "type": "string"
        }
      ],
      "stateMutability": "view",
      "type": "function"
    },
    {
      "inputs": [
        {
          "internalType": "address",
          "name": "owner",
          "type": "address"
        }
      ],
      "name": "nonces",
      "outputs": [
        {
          "internalType": "uint256",
          "name": "",
          "type": "uint256"
        }
      ],
      "stateMutability": "view",
      "type": "function"
    },
    {
      "inputs": [
        {
          "internalType": "address",
          "name": "owner",
          "type": "address"
        },
        {
          "internalType": "address",
          "name": "spender",
          "type": "address"
        },
        {
          "internalType": "uint256",
          "name": "value",
          "type": "uint256"
        },
        {
          "internalType": "uint256",
          "name": "deadline",
          "type": "uint256"
        },
        {
          "internalType": "uint8",
          "name": "v",
          "type": "uint8"
        },
        {
          "internalType": "bytes32",
          "name": "r",
          "type": "bytes32"
        },
        {
          "internalType": "bytes32",
          "name": "s",
          "type": "bytes32"
        }
      ],
      "name": "permit",
      "outputs": [],
      "stateMutability": "nonpayable",
      "type": "function"
    },
    {
      "inputs": [
        {
          "internalType": "bytes32",
          "name": "role",
          "type": "bytes32"
        },
        {
          "internalType": "address",
          "name": "account",
          "type": "address"
        }
      ],
      "name": "renounceRole",
      "outputs": [],
      "stateMutability": "nonpayable",
      "type": "function"
    },
    {
      "inputs": [
        {
          "internalType": "address",
          "name": "addr",
          "type": "address"
        },
        {
          "internalType": "uint256",
          "name": "amount",
          "type": "uint256"
        }
      ],
      "name": "restrict",
      "outputs": [],
      "stateMutability": "nonpayable",
      "type": "function"
    },
    {
      "inputs": [
        {
          "internalType": "bytes32",
          "name": "role",
          "type": "bytes32"
        },
        {
          "internalType": "address",
          "name": "account",
          "type": "address"
        }
      ],
      "name": "revokeRole",
      "outputs": [],
      "stateMutability": "nonpayable",
      "type": "function"
    },
    {
      "inputs": [
        {
          "internalType": "uint256",
          "name": "fraction",
          "type": "uint256"
        }
      ],
      "name": "setPeriodTransferFraction",
      "outputs": [],
      "stateMutability": "nonpayable",
      "type": "function"
    },
    {
      "inputs": [
        {
          "internalType": "uint256",
          "name": "_feeAmount",
          "type": "uint256"
        },
        {
          "internalType": "uint256",
          "name": "_feeFraction",
          "type": "uint256"
        },
        {
          "internalType": "address",
          "name": "_feeReceiver",
          "type": "address"
        }
      ],
      "name": "setTransactionFee",
      "outputs": [],
      "stateMutability": "nonpayable",
      "type": "function"
    },
    {
      "inputs": [
        {
          "internalType": "bytes4",
          "name": "interfaceId",
          "type": "bytes4"
        }
      ],
      "name": "supportsInterface",
      "outputs": [
        {
          "internalType": "bool",
          "name": "",
          "type": "bool"
        }
      ],
      "stateMutability": "view",
      "type": "function"
    },
    {
      "inputs": [],
      "name": "symbol",
      "outputs": [
        {
          "internalType": "string",
          "name": "",
          "type": "string"
        }
      ],
      "stateMutability": "view",
      "type": "function"
    },
    {
      "inputs": [],
      "name": "totalSupply",
      "outputs": [
        {
          "internalType": "uint256",
          "name": "",
          "type": "uint256"
        }
      ],
      "stateMutability": "view",
      "type": "function"
    },
    {
      "inputs": [
        {
          "internalType": "uint256",
          "name": "transferingAmount",
          "type": "uint256"
        }
      ],
      "name": "transactionFee",
      "outputs": [
        {
          "internalType": "uint256",
          "name": "fee",
          "type": "uint256"
        }
      ],
      "stateMutability": "view",
      "type": "function"
    },
    {
      "inputs": [
        {
          "internalType": "address",
          "name": "to",
          "type": "address"
        },
        {
          "internalType": "uint256",
          "name": "amount",
          "type": "uint256"
        }
      ],
      "name": "transfer",
      "outputs": [
        {
          "internalType": "bool",
          "name": "",
          "type": "bool"
        }
      ],
      "stateMutability": "nonpayable",
      "type": "function"
    },
    {
      "inputs": [
        {
          "internalType": "address",
          "name": "from",
          "type": "address"
        },
        {
          "internalType": "address",
          "name": "to",
          "type": "address"
        },
        {
          "internalType": "uint256",
          "name": "amount",
          "type": "uint256"
        }
      ],
      "name": "transferFrom",
      "outputs": [
        {
          "internalType": "bool",
          "name": "",
          "type": "bool"
        }
      ],
      "stateMutability": "nonpayable",
      "type": "function"
    }
  ],
  "bytecode": "0x6101a06040523480156200001257600080fd5b506040518060400160405280600f81526020016e109bdd5b991b195cdcc815dbdc9b19608a1b81525080604051806040016040528060018152602001603160f81b81525062000066620002b960201b60201c565b6200007390600a62000489565b620000839063dbf0ee80620004a1565b6040518060400160405280600f81526020016e109bdd5b991b195cdcc815dbdc9b19608a1b8152506040518060400160405280600381526020016221262160e91b8152508160039081620000d8919062000568565b506004620000e7828262000568565b505050600081116200013f5760405162461bcd60e51b815260206004820152601560248201527f45524332304361707065643a2063617020697320300000000000000000000000604482015260640160405180910390fd5b60805281516020808401919091208251918301919091206101008290526101208190524660c0527f8b73c3c69bb8fe3d512ecc4cf759cc79239f7b179b0ffacaa9a75d522b39400f620001d78184846040805160208101859052908101839052606081018290524660808201523060a082015260009060c0016040516020818303038152906040528051906020012090509392505050565b60a0523060e0526101405250504261016052505062278d0061018052503362000202600082620002be565b6200022e7f9f2df0fed2c77648de5860a4cc508cd0818c85b8b8a1ab4ceeef8d981c8956a682620002be565b6200025a7fd0ac125722f4b4565ab5e91b234e50c4c6f541672aea816ba090a0ea349ed93f82620002be565b620002867fb24c1025622fe38445b605f5c1a9bb02be7f6522d24c8a159e5e47e62dbaaecf82620002be565b620002b27f23ab0e580195340a5a67800cafa0615701edfa22f79534a52851336e3cf8376a82620002be565b5062000634565b601290565b620002ca828262000349565b620003455760008281526007602090815260408083206001600160a01b03851684529091529020805460ff19166001179055620003043390565b6001600160a01b0316816001600160a01b0316837f2f8788117e7eff1d82e926ec794901d17c78024a50270940304540a733656f0d60405160405180910390a45b5050565b60008281526007602090815260408083206001600160a01b038516845290915290205460ff165b92915050565b634e487b7160e01b600052601160045260246000fd5b600181815b80851115620003cd578160001904821115620003b157620003b162000376565b80851615620003bf57918102915b93841c939080029062000391565b509250929050565b600082620003e65750600162000370565b81620003f55750600062000370565b81600181146200040e5760028114620004195762000439565b600191505062000370565b60ff8411156200042d576200042d62000376565b50506001821b62000370565b5060208310610133831016604e8410600b84101617156200045e575081810a62000370565b6200046a83836200038c565b806000190482111562000481576200048162000376565b029392505050565b60006200049a60ff841683620003d5565b9392505050565b6000816000190483118215151615620004be57620004be62000376565b500290565b634e487b7160e01b600052604160045260246000fd5b600181811c90821680620004ee57607f821691505b6020821081036200050f57634e487b7160e01b600052602260045260246000fd5b50919050565b601f8211156200056357600081815260208120601f850160051c810160208610156200053e5750805b601f850160051c820191505b818110156200055f578281556001016200054a565b5050505b505050565b81516001600160401b03811115620005845762000584620004c3565b6200059c81620005958454620004d9565b8462000515565b602080601f831160018114620005d45760008415620005bb5750858301515b600019600386901b1c1916600185901b1785556200055f565b600085815260208120601f198616915b828110156200060557888601518255948401946001909101908401620005e4565b5085821015620006245787850151600019600388901b60f8161c191681555b5050505050600190811b01905550565b60805160a05160c05160e0516101005161012051610140516101605161018051612713620006c1600039600081816107690152611eab01526000818161078d0152611ecf0152600061133a0152600061138901526000611364015260006112bd015260006112e701526000611311015260008181610330015281816106db015261175601526127136000f3fe608060405234801561001057600080fd5b506004361061021c5760003560e01c806342966c6811610125578063a457c2d7116100ad578063d53913931161007c578063d5391393146104da578063d547741f146104ef578063dd62ed3e14610502578063e162533c14610515578063fad71be21461052857600080fd5b8063a457c2d71461048e578063a9059cbb146104a1578063c01bc982146104b4578063d505accf146104c757600080fd5b806379cc6790116100f457806379cc6790146104455780637ecebe001461045857806391d148541461046b57806395d89b411461047e578063a217fddf1461048657600080fd5b806342966c68146103cf57806351bcee27146103e25780635d1edb871461040957806370a082311461041c57600080fd5b80632f2ff15d116101a857806336568abe1161017757806336568abe1461035c578063367065de1461036f57806339509351146103825780633e0b2cda1461039557806340c10f19146103bc57600080fd5b80632f2ff15d1461030c578063313ce5671461031f578063355274ea1461032e5780633644e5151461035457600080fd5b80631681f830116101ef5780631681f830146102a657806318160ddd146102bb578063234eaedc146102c357806323b872dd146102d6578063248a9ca3146102e957600080fd5b806301ffc9a71461022157806306fdde0314610249578063095ea7b31461025e5780630ecbd03314610271575b600080fd5b61023461022f366004612281565b61053b565b60405190151581526020015b60405180910390f35b610251610572565b60405161024091906122d7565b61023461026c366004612321565b610604565b6102987fd0ac125722f4b4565ab5e91b234e50c4c6f541672aea816ba090a0ea349ed93f81565b604051908152602001610240565b6102b96102b4366004612321565b61061c565b005b600254610298565b6102986102d136600461234b565b61069a565b6102346102e4366004612366565b610813565b6102986102f73660046123a2565b60009081526007602052604090206001015490565b6102b961031a3660046123bb565b610837565b60405160128152602001610240565b7f0000000000000000000000000000000000000000000000000000000000000000610298565b610298610861565b6102b961036a3660046123bb565b610870565b6102b961037d3660046123e7565b6108f3565b610234610390366004612321565b610a87565b6102987fb24c1025622fe38445b605f5c1a9bb02be7f6522d24c8a159e5e47e62dbaaecf81565b6102b96103ca366004612321565b610aa9565b6102b96103dd3660046123a2565b610acb565b6102987f23ab0e580195340a5a67800cafa0615701edfa22f79534a52851336e3cf8376a81565b6102986104173660046123a2565b610ad8565b61029861042a36600461234b565b6001600160a01b031660009081526020819052604090205490565b6102b9610453366004612321565b610b0f565b61029861046636600461234b565b610b24565b6102346104793660046123bb565b610b42565b610251610b6d565b610298600081565b61023461049c366004612321565b610b7c565b6102346104af366004612321565b610bf7565b6102346104c236600461234b565b610c05565b6102b96104d536600461241c565b610c12565b61029860008051602061269e83398151915281565b6102b96104fd3660046123bb565b610d76565b61029861051036600461248f565b610d9b565b6102b961052336600461234b565b610dc6565b6102b96105363660046123a2565b610dfb565b60006001600160e01b03198216637965db0b60e01b148061056c57506301ffc9a760e01b6001600160e01b03198316145b92915050565b606060038054610581906124b9565b80601f01602080910402602001604051908101604052809291908181526020018280546105ad906124b9565b80156105fa5780601f106105cf576101008083540402835291602001916105fa565b820191906000526020600020905b8154815290600101906020018083116105dd57829003601f168201915b5050505050905090565b600033610612818585610ec6565b5060019392505050565b7f23ab0e580195340a5a67800cafa0615701edfa22f79534a52851336e3cf8376a61064681610feb565b610652600b8484610ff5565b50604080516001600160a01b0385168152602081018490527fa1b8d777c2527547849718a04f45b8e5b0f29119c47f9298b20a85f0ad275424910160405180910390a1505050565b60006106a582610c05565b156106b55761056c600b83611013565b6106cd60008051602061269e83398151915233610b42565b156106ff5760025461056c907f0000000000000000000000000000000000000000000000000000000000000000612503565b600f54620f424003610729576001600160a01b03821660009081526020819052604090205461056c565b6000620f4240600f54610751856001600160a01b031660009081526020819052604090205490565b61075b919061251a565b6107659190612539565b90507f00000000000000000000000000000000000000000000000000000000000000006107b27f000000000000000000000000000000000000000000000000000000000000000042612503565b6107bc9190612539565b6001600160a01b0384166000908152600e602052604090206001015403610805576001600160a01b0383166000908152600e60205260409020546108009082612503565b610807565b805b9392505050565b919050565b600033610821858285611028565b61082c8585856110a2565b506001949350505050565b60008281526007602052604090206001015461085281610feb565b61085c838361122a565b505050565b600061086b6112b0565b905090565b6001600160a01b03811633146108e55760405162461bcd60e51b815260206004820152602f60248201527f416363657373436f6e74726f6c3a2063616e206f6e6c792072656e6f756e636560448201526e103937b632b9903337b91039b2b63360891b60648201526084015b60405180910390fd5b6108ef82826113d7565b5050565b7fd0ac125722f4b4565ab5e91b234e50c4c6f541672aea816ba090a0ea349ed93f61091d81610feb565b821580610928575083155b6109a85760405162461bcd60e51b815260206004820152604560248201527f5472616e73616374696f6e4665653a2043616e6e6f742073657420666565416d60448201527f6f756e7420616e64206665654672616374696f6e206174207468652073616d656064820152642074696d6560d81b608482015260a4016108dc565b620186a0831115610a175760405162461bcd60e51b815260206004820152603360248201527f5472616e73616374696f6e4665653a20557020746f20313025207472616e736160448201527218dd1a5bdb9199594818d85b881899481cd95d606a1b60648201526084016108dc565b60098490556008839055600a80546001600160a01b0319166001600160a01b0384169081179091556040805186815260208101869052908101919091527fd75a7916f83ee976ae8e04e3f9b46c9b16b546303f09f1fc20eccb6cd6bc476d9060600160405180910390a150505050565b600033610612818585610a9a8383610d9b565b610aa4919061255b565b610ec6565b60008051602061269e833981519152610ac181610feb565b61085c838361143e565b610ad53382611448565b50565b60095460009015610aeb57505060095490565b6008541561080e57620f424060085483610b05919061251a565b61056c9190612539565b610b1a823383611028565b6108ef8282611448565b6001600160a01b03811660009081526005602052604081205461056c565b60009182526007602090815260408084206001600160a01b0393909316845291905290205460ff1690565b606060048054610581906124b9565b60003381610b8a8286610d9b565b905083811015610bea5760405162461bcd60e51b815260206004820152602560248201527f45524332303a2064656372656173656420616c6c6f77616e63652062656c6f77604482015264207a65726f60d81b60648201526084016108dc565b61082c8286868403610ec6565b6000336106128185856110a2565b600061056c600b83611590565b83421115610c625760405162461bcd60e51b815260206004820152601d60248201527f45524332305065726d69743a206578706972656420646561646c696e6500000060448201526064016108dc565b60007f6e71edae12b1b97f4d1f60370fef10105fa2faae0126114a169c64845d6126c9888888610c918c6115a5565b6040805160208101969096526001600160a01b0394851690860152929091166060840152608083015260a082015260c0810186905260e0016040516020818303038152906040528051906020012090506000610cec826115cd565b90506000610cfc8287878761161b565b9050896001600160a01b0316816001600160a01b031614610d5f5760405162461bcd60e51b815260206004820152601e60248201527f45524332305065726d69743a20696e76616c6964207369676e6174757265000060448201526064016108dc565b610d6a8a8a8a610ec6565b50505050505050505050565b600082815260076020526040902060010154610d9181610feb565b61085c83836113d7565b6001600160a01b03918216600090815260016020908152604080832093909416825291909152205490565b7f23ab0e580195340a5a67800cafa0615701edfa22f79534a52851336e3cf8376a610df081610feb565b61085c600b83611643565b7fb24c1025622fe38445b605f5c1a9bb02be7f6522d24c8a159e5e47e62dbaaecf610e2581610feb565b620f4240821115610e8a5760405162461bcd60e51b815260206004820152602960248201527f6d6178696d756d206672616374696f6e2069732031302a2a362028657175616c60448201526820746f20313030252960b81b60648201526084016108dc565b600f8290556040518281527fa83163ea39ecbdc3af173e3337234fbe2f88b17dca9802ec3186e557d365e2d19060200160405180910390a15050565b6001600160a01b038316610f285760405162461bcd60e51b8152602060048201526024808201527f45524332303a20617070726f76652066726f6d20746865207a65726f206164646044820152637265737360e01b60648201526084016108dc565b6001600160a01b038216610f895760405162461bcd60e51b815260206004820152602260248201527f45524332303a20617070726f766520746f20746865207a65726f206164647265604482015261737360f01b60648201526084016108dc565b6001600160a01b0383811660008181526001602090815260408083209487168084529482529182902085905590518481527f8c5be1e5ebec7d5bd14f71427d1e84f3dd0314c0f7b2291e5b200ac8c7c3b92591015b60405180910390a3505050565b610ad58133611658565b600061100b846001600160a01b038516846116bc565b949350505050565b6000610807836001600160a01b0384166116d9565b60006110348484610d9b565b9050600019811461109c578181101561108f5760405162461bcd60e51b815260206004820152601d60248201527f45524332303a20696e73756666696369656e7420616c6c6f77616e636500000060448201526064016108dc565b61109c8484848403610ec6565b50505050565b6001600160a01b0383166111065760405162461bcd60e51b815260206004820152602560248201527f45524332303a207472616e736665722066726f6d20746865207a65726f206164604482015264647265737360d81b60648201526084016108dc565b6001600160a01b0382166111685760405162461bcd60e51b815260206004820152602360248201527f45524332303a207472616e7366657220746f20746865207a65726f206164647260448201526265737360e81b60648201526084016108dc565b611173838383611749565b6001600160a01b038316600090815260208190526040902054818110156111ac5760405162461bcd60e51b81526004016108dc90612573565b6001600160a01b038085166000908152602081905260408082208585039055918516815290812080548492906111e390849061255b565b92505081905550826001600160a01b0316846001600160a01b03166000805160206126be8339815191528460405161121d91815260200190565b60405180910390a361109c565b6112348282610b42565b6108ef5760008281526007602090815260408083206001600160a01b03851684529091529020805460ff1916600117905561126c3390565b6001600160a01b0316816001600160a01b0316837f2f8788117e7eff1d82e926ec794901d17c78024a50270940304540a733656f0d60405160405180910390a45050565b6000306001600160a01b037f00000000000000000000000000000000000000000000000000000000000000001614801561130957507f000000000000000000000000000000000000000000000000000000000000000046145b1561133357507f000000000000000000000000000000000000000000000000000000000000000090565b50604080517f00000000000000000000000000000000000000000000000000000000000000006020808301919091527f0000000000000000000000000000000000000000000000000000000000000000828401527f000000000000000000000000000000000000000000000000000000000000000060608301524660808301523060a0808401919091528351808403909101815260c0909201909252805191012090565b6113e18282610b42565b156108ef5760008281526007602090815260408083206001600160a01b0385168085529252808320805460ff1916905551339285917ff6391f5c32d9c69d2a47ea670b442974b53935d1edc7fd64eb21e047a839171b9190a45050565b6108ef8282611754565b6001600160a01b0382166114a85760405162461bcd60e51b815260206004820152602160248201527f45524332303a206275726e2066726f6d20746865207a65726f206164647265736044820152607360f81b60648201526084016108dc565b6114b482600083611749565b6001600160a01b038216600090815260208190526040902054818110156115285760405162461bcd60e51b815260206004820152602260248201527f45524332303a206275726e20616d6f756e7420657863656564732062616c616e604482015261636560f01b60648201526084016108dc565b6001600160a01b0383166000908152602081905260408120838303905560028054849290611557908490612503565b90915550506040518281526000906001600160a01b038516906000805160206126be8339815191529060200160405180910390a3505050565b6000610807836001600160a01b0384166117e1565b6001600160a01b03811660009081526005602052604090208054600181018255905b50919050565b600061056c6115da6112b0565b8360405161190160f01b6020820152602281018390526042810182905260009060620160405160208183030381529060405280519060200120905092915050565b600080600061162c878787876117ed565b91509150611639816118da565b5095945050505050565b6000610807836001600160a01b038416611a90565b6116628282610b42565b6108ef5761167a816001600160a01b03166014611aad565b611685836020611aad565b6040516020016116969291906125b9565b60408051601f198184030181529082905262461bcd60e51b82526108dc916004016122d7565b6000828152600284016020526040812082905561100b8484611c49565b6000818152600283016020526040812054801515806116fd57506116fd84846117e1565b6108075760405162461bcd60e51b815260206004820152601e60248201527f456e756d657261626c654d61703a206e6f6e6578697374656e74206b6579000060448201526064016108dc565b61085c838383611c55565b7f00000000000000000000000000000000000000000000000000000000000000008161177f60025490565b611789919061255b565b11156117d75760405162461bcd60e51b815260206004820152601960248201527f45524332304361707065643a206361702065786365656465640000000000000060448201526064016108dc565b6108ef8282611c6a565b60006108078383611d43565b6000807f7fffffffffffffffffffffffffffffff5d576e7357a4501ddfe92f46681b20a083111561182457506000905060036118d1565b8460ff16601b1415801561183c57508460ff16601c14155b1561184d57506000905060046118d1565b6040805160008082526020820180845289905260ff881692820192909252606081018690526080810185905260019060a0016020604051602081039080840390855afa1580156118a1573d6000803e3d6000fd5b5050604051601f1901519150506001600160a01b0381166118ca576000600192509250506118d1565b9150600090505b94509492505050565b60008160048111156118ee576118ee61262e565b036118f65750565b600181600481111561190a5761190a61262e565b036119575760405162461bcd60e51b815260206004820152601860248201527f45434453413a20696e76616c6964207369676e6174757265000000000000000060448201526064016108dc565b600281600481111561196b5761196b61262e565b036119b85760405162461bcd60e51b815260206004820152601f60248201527f45434453413a20696e76616c6964207369676e6174757265206c656e6774680060448201526064016108dc565b60038160048111156119cc576119cc61262e565b03611a245760405162461bcd60e51b815260206004820152602260248201527f45434453413a20696e76616c6964207369676e6174757265202773272076616c604482015261756560f01b60648201526084016108dc565b6004816004811115611a3857611a3861262e565b03610ad55760405162461bcd60e51b815260206004820152602260248201527f45434453413a20696e76616c6964207369676e6174757265202776272076616c604482015261756560f01b60648201526084016108dc565b600081815260028301602052604081208190556108078383611d5b565b60606000611abc83600261251a565b611ac790600261255b565b67ffffffffffffffff811115611adf57611adf612644565b6040519080825280601f01601f191660200182016040528015611b09576020820181803683370190505b509050600360fc1b81600081518110611b2457611b2461265a565b60200101906001600160f81b031916908160001a905350600f60fb1b81600181518110611b5357611b5361265a565b60200101906001600160f81b031916908160001a9053506000611b7784600261251a565b611b8290600161255b565b90505b6001811115611bfa576f181899199a1a9b1b9c1cb0b131b232b360811b85600f1660108110611bb657611bb661265a565b1a60f81b828281518110611bcc57611bcc61265a565b60200101906001600160f81b031916908160001a90535060049490941c93611bf381612670565b9050611b85565b5083156108075760405162461bcd60e51b815260206004820181905260248201527f537472696e67733a20686578206c656e67746820696e73756666696369656e7460448201526064016108dc565b60006108078383611d67565b611c5f8382611db6565b61085c838383611fe0565b6001600160a01b038216611cc05760405162461bcd60e51b815260206004820152601f60248201527f45524332303a206d696e7420746f20746865207a65726f20616464726573730060448201526064016108dc565b611ccc60008383611749565b8060026000828254611cde919061255b565b90915550506001600160a01b03821660009081526020819052604081208054839290611d0b90849061255b565b90915550506040518181526001600160a01b038316906000906000805160206126be8339815191529060200160405180910390a35050565b60008181526001830160205260408120541515610807565b60006108078383612042565b6000818152600183016020526040812054611dae5750815460018181018455600084815260208082209093018490558454848252828601909352604090209190915561056c565b50600061056c565b611dbf82610c05565b15611e3a576000611dd1600b84611013565b905080821115611e235760405162461bcd60e51b815260206004820152601a60248201527f616d6f756e742065786365656473207370656e64206c696d697400000000000060448201526064016108dc565b61109c83611e318484612503565b600b9190610ff5565b600f54620f424014158015611e645750611e6260008051602061269e83398151915233610b42565b155b156108ef576000620f4240600f54611e91856001600160a01b031660009081526020819052604090205490565b611e9b919061251a565b611ea59190612539565b905060007f0000000000000000000000000000000000000000000000000000000000000000611ef47f000000000000000000000000000000000000000000000000000000000000000042612503565b611efe9190612539565b6001600160a01b0385166000908152600e6020526040902060010154909150819003611f4a576001600160a01b0384166000908152600e6020526040902054611f47908461255b565b92505b81831115611fa45760405162461bcd60e51b815260206004820152602160248201527f616d6f756e74206578636565647320706572696f64207370656e64206c696d696044820152601d60fa1b60648201526084016108dc565b60408051808201825293845260208085019283526001600160a01b03959095166000908152600e90955290932091518255509051600190910155565b33611ff960008051602061269e83398151915282610b42565b61203d576000600854118061201057506000600954115b1561203d57600061202083610ad8565b600a5490915061203b9083906001600160a01b031683612135565b505b61109c565b6000818152600183016020526040812054801561212b576000612066600183612503565b855490915060009061207a90600190612503565b90508181146120df57600086600001828154811061209a5761209a61265a565b90600052602060002001549050808760000184815481106120bd576120bd61265a565b6000918252602080832090910192909255918252600188019052604090208390555b85548690806120f0576120f0612687565b60019003818190600052602060002001600090559055856001016000868152602001908152602001600020600090556001935050505061056c565b600091505061056c565b61214d60008051602061269e83398151915233610b42565b61215b5761215b8382611db6565b61085c83838361216b8382611db6565b61085c8383836001600160a01b038316156121dc576001600160a01b038316600090815260208190526040902054818110156121b95760405162461bcd60e51b81526004016108dc90612573565b6001600160a01b03841660009081526020819052604090209082900390556121f4565b80600260008282546121ee919061255b565b90915550505b6001600160a01b03821615612236576001600160a01b0382166000908152602081905260408120805483929061222b90849061255b565b9091555061224e9050565b80600260008282546122489190612503565b90915550505b816001600160a01b0316836001600160a01b03166000805160206126be83398151915283604051610fde91815260200190565b60006020828403121561229357600080fd5b81356001600160e01b03198116811461080757600080fd5b60005b838110156122c65781810151838201526020016122ae565b8381111561109c5750506000910152565b60208152600082518060208401526122f68160408501602087016122ab565b601f01601f19169190910160400192915050565b80356001600160a01b038116811461080e57600080fd5b6000806040838503121561233457600080fd5b61233d8361230a565b946020939093013593505050565b60006020828403121561235d57600080fd5b6108078261230a565b60008060006060848603121561237b57600080fd5b6123848461230a565b92506123926020850161230a565b9150604084013590509250925092565b6000602082840312156123b457600080fd5b5035919050565b600080604083850312156123ce57600080fd5b823591506123de6020840161230a565b90509250929050565b6000806000606084860312156123fc57600080fd5b83359250602084013591506124136040850161230a565b90509250925092565b600080600080600080600060e0888a03121561243757600080fd5b6124408861230a565b965061244e6020890161230a565b95506040880135945060608801359350608088013560ff8116811461247257600080fd5b9699959850939692959460a0840135945060c09093013592915050565b600080604083850312156124a257600080fd5b6124ab8361230a565b91506123de6020840161230a565b600181811c908216806124cd57607f821691505b6020821081036115c757634e487b7160e01b600052602260045260246000fd5b634e487b7160e01b600052601160045260246000fd5b600082821015612515576125156124ed565b500390565b6000816000190483118215151615612534576125346124ed565b500290565b60008261255657634e487b7160e01b600052601260045260246000fd5b500490565b6000821982111561256e5761256e6124ed565b500190565b60208082526026908201527f45524332303a207472616e7366657220616d6f756e7420657863656564732062604082015265616c616e636560d01b606082015260800190565b7f416363657373436f6e74726f6c3a206163636f756e74200000000000000000008152600083516125f18160178501602088016122ab565b7001034b99036b4b9b9b4b733903937b6329607d1b60179184019182015283516126228160288401602088016122ab565b01602801949350505050565b634e487b7160e01b600052602160045260246000fd5b634e487b7160e01b600052604160045260246000fd5b634e487b7160e01b600052603260045260246000fd5b60008161267f5761267f6124ed565b506000190190565b634e487b7160e01b600052603160045260246000fdfe9f2df0fed2c77648de5860a4cc508cd0818c85b8b8a1ab4ceeef8d981c8956a6ddf252ad1be2c89b69c2b068fc378daa952ba7f163c4a11628f55a4df523b3efa26469706673582212201ce85435e471a452de26f7b1b36bddf59e6471d7ad91ab24b0a0be8589a472a164736f6c634300080f0033",
  "linkReferences": {},
  "deployedLinkReferences": {}
}