{
  "_format": "hh-sol-artifact-1",
  "contractName": "BLBToken",
  "sourceName": "contracts/BEP20/BLBToken.sol",
  "abi": [
    {
      "inputs": [],
      "stateMutability": "nonpayable",
      "type": "constructor"
    },
    {
      "anonymous": false,
      "inputs": [
        {
          "indexed": true,
          "internalType": "address",
          "name": "owner",
          "type": "address"
        },
        {
          "indexed": true,
          "internalType": "address",
          "name": "spender",
          "type": "address"
        },
        {
          "indexed": false,
          "internalType": "uint256",
          "name": "value",
          "type": "uint256"
        }
      ],
      "name": "Approval",
      "type": "event"
    },
    {
      "anonymous": false,
      "inputs": [
        {
          "indexed": true,
          "internalType": "bytes32",
          "name": "role",
          "type": "bytes32"
        },
        {
          "indexed": true,
          "internalType": "bytes32",
          "name": "previousAdminRole",
          "type": "bytes32"
        },
        {
          "indexed": true,
          "internalType": "bytes32",
          "name": "newAdminRole",
          "type": "bytes32"
        }
      ],
      "name": "RoleAdminChanged",
      "type": "event"
    },
    {
      "anonymous": false,
      "inputs": [
        {
          "indexed": true,
          "internalType": "bytes32",
          "name": "role",
          "type": "bytes32"
        },
        {
          "indexed": true,
          "internalType": "address",
          "name": "account",
          "type": "address"
        },
        {
          "indexed": true,
          "internalType": "address",
          "name": "sender",
          "type": "address"
        }
      ],
      "name": "RoleGranted",
      "type": "event"
    },
    {
      "anonymous": false,
      "inputs": [
        {
          "indexed": true,
          "internalType": "bytes32",
          "name": "role",
          "type": "bytes32"
        },
        {
          "indexed": true,
          "internalType": "address",
          "name": "account",
          "type": "address"
        },
        {
          "indexed": true,
          "internalType": "address",
          "name": "sender",
          "type": "address"
        }
      ],
      "name": "RoleRevoked",
      "type": "event"
    },
    {
      "anonymous": false,
      "inputs": [
        {
          "indexed": true,
          "internalType": "address",
          "name": "from",
          "type": "address"
        },
        {
          "indexed": true,
          "internalType": "address",
          "name": "to",
          "type": "address"
        },
        {
          "indexed": false,
          "internalType": "uint256",
          "name": "value",
          "type": "uint256"
        }
      ],
      "name": "Transfer",
      "type": "event"
    },
    {
      "inputs": [],
      "name": "DEFAULT_ADMIN_ROLE",
      "outputs": [
        {
          "internalType": "bytes32",
          "name": "",
          "type": "bytes32"
        }
      ],
      "stateMutability": "view",
      "type": "function"
    },
    {
      "inputs": [],
      "name": "DOMAIN_SEPARATOR",
      "outputs": [
        {
          "internalType": "bytes32",
          "name": "",
          "type": "bytes32"
        }
      ],
      "stateMutability": "view",
      "type": "function"
    },
    {
      "inputs": [],
      "name": "FEE_SETTER",
      "outputs": [
        {
          "internalType": "bytes32",
          "name": "",
          "type": "bytes32"
        }
      ],
      "stateMutability": "view",
      "type": "function"
    },
    {
      "inputs": [],
      "name": "MINTER_ROLE",
      "outputs": [
        {
          "internalType": "bytes32",
          "name": "",
          "type": "bytes32"
        }
      ],
      "stateMutability": "view",
      "type": "function"
    },
    {
      "inputs": [],
      "name": "RESTRICTOR_ROLE",
      "outputs": [
        {
          "internalType": "bytes32",
          "name": "",
          "type": "bytes32"
        }
      ],
      "stateMutability": "view",
      "type": "function"
    },
    {
      "inputs": [],
      "name": "TRANSFER_LIMIT_SETTER",
      "outputs": [
        {
          "internalType": "bytes32",
          "name": "",
          "type": "bytes32"
        }
      ],
      "stateMutability": "view",
      "type": "function"
    },
    {
      "inputs": [
        {
          "internalType": "address",
          "name": "owner",
          "type": "address"
        },
        {
          "internalType": "address",
          "name": "spender",
          "type": "address"
        }
      ],
      "name": "allowance",
      "outputs": [
        {
          "internalType": "uint256",
          "name": "",
          "type": "uint256"
        }
      ],
      "stateMutability": "view",
      "type": "function"
    },
    {
      "inputs": [
        {
          "internalType": "address",
          "name": "spender",
          "type": "address"
        },
        {
          "internalType": "uint256",
          "name": "amount",
          "type": "uint256"
        }
      ],
      "name": "approve",
      "outputs": [
        {
          "internalType": "bool",
          "name": "",
          "type": "bool"
        }
      ],
      "stateMutability": "nonpayable",
      "type": "function"
    },
    {
      "inputs": [
        {
          "internalType": "address",
          "name": "account",
          "type": "address"
        }
      ],
      "name": "balanceOf",
      "outputs": [
        {
          "internalType": "uint256",
          "name": "",
          "type": "uint256"
        }
      ],
      "stateMutability": "view",
      "type": "function"
    },
    {
      "inputs": [
        {
          "internalType": "uint256",
          "name": "amount",
          "type": "uint256"
        }
      ],
      "name": "burn",
      "outputs": [],
      "stateMutability": "nonpayable",
      "type": "function"
    },
    {
      "inputs": [
        {
          "internalType": "address",
          "name": "account",
          "type": "address"
        },
        {
          "internalType": "uint256",
          "name": "amount",
          "type": "uint256"
        }
      ],
      "name": "burnFrom",
      "outputs": [],
      "stateMutability": "nonpayable",
      "type": "function"
    },
    {
      "inputs": [
        {
          "internalType": "address",
          "name": "addr",
          "type": "address"
        }
      ],
      "name": "canSpend",
      "outputs": [
        {
          "internalType": "uint256",
          "name": "amount",
          "type": "uint256"
        }
      ],
      "stateMutability": "view",
      "type": "function"
    },
    {
      "inputs": [],
      "name": "cap",
      "outputs": [
        {
          "internalType": "uint256",
          "name": "",
          "type": "uint256"
        }
      ],
      "stateMutability": "view",
      "type": "function"
    },
    {
      "inputs": [],
      "name": "decimals",
      "outputs": [
        {
          "internalType": "uint8",
          "name": "",
          "type": "uint8"
        }
      ],
      "stateMutability": "view",
      "type": "function"
    },
    {
      "inputs": [
        {
          "internalType": "address",
          "name": "spender",
          "type": "address"
        },
        {
          "internalType": "uint256",
          "name": "subtractedValue",
          "type": "uint256"
        }
      ],
      "name": "decreaseAllowance",
      "outputs": [
        {
          "internalType": "bool",
          "name": "",
          "type": "bool"
        }
      ],
      "stateMutability": "nonpayable",
      "type": "function"
    },
    {
      "inputs": [
        {
          "internalType": "address",
          "name": "addr",
          "type": "address"
        }
      ],
      "name": "destrict",
      "outputs": [],
      "stateMutability": "nonpayable",
      "type": "function"
    },
    {
      "inputs": [
        {
          "internalType": "bytes32",
          "name": "role",
          "type": "bytes32"
        }
      ],
      "name": "getRoleAdmin",
      "outputs": [
        {
          "internalType": "bytes32",
          "name": "",
          "type": "bytes32"
        }
      ],
      "stateMutability": "view",
      "type": "function"
    },
    {
      "inputs": [
        {
          "internalType": "bytes32",
          "name": "role",
          "type": "bytes32"
        },
        {
          "internalType": "address",
          "name": "account",
          "type": "address"
        }
      ],
      "name": "grantRole",
      "outputs": [],
      "stateMutability": "nonpayable",
      "type": "function"
    },
    {
      "inputs": [
        {
          "internalType": "bytes32",
          "name": "role",
          "type": "bytes32"
        },
        {
          "internalType": "address",
          "name": "account",
          "type": "address"
        }
      ],
      "name": "hasRole",
      "outputs": [
        {
          "internalType": "bool",
          "name": "",
          "type": "bool"
        }
      ],
      "stateMutability": "view",
      "type": "function"
    },
    {
      "inputs": [
        {
          "internalType": "address",
          "name": "spender",
          "type": "address"
        },
        {
          "internalType": "uint256",
          "name": "addedValue",
          "type": "uint256"
        }
      ],
      "name": "increaseAllowance",
      "outputs": [
        {
          "internalType": "bool",
          "name": "",
          "type": "bool"
        }
      ],
      "stateMutability": "nonpayable",
      "type": "function"
    },
    {
      "inputs": [
        {
          "internalType": "address",
          "name": "addr",
          "type": "address"
        }
      ],
      "name": "isRestricted",
      "outputs": [
        {
          "internalType": "bool",
          "name": "",
          "type": "bool"
        }
      ],
      "stateMutability": "view",
      "type": "function"
    },
    {
      "inputs": [
        {
          "internalType": "address",
          "name": "to",
          "type": "address"
        },
        {
          "internalType": "uint256",
          "name": "amount",
          "type": "uint256"
        }
      ],
      "name": "mint",
      "outputs": [],
      "stateMutability": "nonpayable",
      "type": "function"
    },
    {
      "inputs": [],
      "name": "name",
      "outputs": [
        {
          "internalType": "string",
          "name": "",
          "type": "string"
        }
      ],
      "stateMutability": "view",
      "type": "function"
    },
    {
      "inputs": [
        {
          "internalType": "address",
          "name": "owner",
          "type": "address"
        }
      ],
      "name": "nonces",
      "outputs": [
        {
          "internalType": "uint256",
          "name": "",
          "type": "uint256"
        }
      ],
      "stateMutability": "view",
      "type": "function"
    },
    {
      "inputs": [
        {
          "internalType": "address",
          "name": "owner",
          "type": "address"
        },
        {
          "internalType": "address",
          "name": "spender",
          "type": "address"
        },
        {
          "internalType": "uint256",
          "name": "value",
          "type": "uint256"
        },
        {
          "internalType": "uint256",
          "name": "deadline",
          "type": "uint256"
        },
        {
          "internalType": "uint8",
          "name": "v",
          "type": "uint8"
        },
        {
          "internalType": "bytes32",
          "name": "r",
          "type": "bytes32"
        },
        {
          "internalType": "bytes32",
          "name": "s",
          "type": "bytes32"
        }
      ],
      "name": "permit",
      "outputs": [],
      "stateMutability": "nonpayable",
      "type": "function"
    },
    {
      "inputs": [
        {
          "internalType": "bytes32",
          "name": "role",
          "type": "bytes32"
        },
        {
          "internalType": "address",
          "name": "account",
          "type": "address"
        }
      ],
      "name": "renounceRole",
      "outputs": [],
      "stateMutability": "nonpayable",
      "type": "function"
    },
    {
      "inputs": [
        {
          "internalType": "address",
          "name": "addr",
          "type": "address"
        },
        {
          "internalType": "uint256",
          "name": "amount",
          "type": "uint256"
        }
      ],
      "name": "restrict",
      "outputs": [],
      "stateMutability": "nonpayable",
      "type": "function"
    },
    {
      "inputs": [
        {
          "internalType": "bytes32",
          "name": "role",
          "type": "bytes32"
        },
        {
          "internalType": "address",
          "name": "account",
          "type": "address"
        }
      ],
      "name": "revokeRole",
      "outputs": [],
      "stateMutability": "nonpayable",
      "type": "function"
    },
    {
      "inputs": [
        {
          "internalType": "uint256",
          "name": "_feeAmount",
          "type": "uint256"
        },
        {
          "internalType": "uint256",
          "name": "_feeFraction",
          "type": "uint256"
        },
        {
          "internalType": "address",
          "name": "_feeReceiver",
          "type": "address"
        }
      ],
      "name": "setTransactionFee",
      "outputs": [],
      "stateMutability": "nonpayable",
      "type": "function"
    },
    {
      "inputs": [
        {
          "internalType": "uint256",
          "name": "fraction",
          "type": "uint256"
        }
      ],
      "name": "setperiodTransferFraction",
      "outputs": [],
      "stateMutability": "nonpayable",
      "type": "function"
    },
    {
      "inputs": [
        {
          "internalType": "bytes4",
          "name": "interfaceId",
          "type": "bytes4"
        }
      ],
      "name": "supportsInterface",
      "outputs": [
        {
          "internalType": "bool",
          "name": "",
          "type": "bool"
        }
      ],
      "stateMutability": "view",
      "type": "function"
    },
    {
      "inputs": [],
      "name": "symbol",
      "outputs": [
        {
          "internalType": "string",
          "name": "",
          "type": "string"
        }
      ],
      "stateMutability": "view",
      "type": "function"
    },
    {
      "inputs": [],
      "name": "totalSupply",
      "outputs": [
        {
          "internalType": "uint256",
          "name": "",
          "type": "uint256"
        }
      ],
      "stateMutability": "view",
      "type": "function"
    },
    {
      "inputs": [
        {
          "internalType": "uint256",
          "name": "transferingAmount",
          "type": "uint256"
        }
      ],
      "name": "transactionFee",
      "outputs": [
        {
          "internalType": "uint256",
          "name": "fee",
          "type": "uint256"
        }
      ],
      "stateMutability": "view",
      "type": "function"
    },
    {
      "inputs": [
        {
          "internalType": "address",
          "name": "to",
          "type": "address"
        },
        {
          "internalType": "uint256",
          "name": "amount",
          "type": "uint256"
        }
      ],
      "name": "transfer",
      "outputs": [
        {
          "internalType": "bool",
          "name": "",
          "type": "bool"
        }
      ],
      "stateMutability": "nonpayable",
      "type": "function"
    },
    {
      "inputs": [
        {
          "internalType": "address",
          "name": "from",
          "type": "address"
        },
        {
          "internalType": "address",
          "name": "to",
          "type": "address"
        },
        {
          "internalType": "uint256",
          "name": "amount",
          "type": "uint256"
        }
      ],
      "name": "transferFrom",
      "outputs": [
        {
          "internalType": "bool",
          "name": "",
          "type": "bool"
        }
      ],
      "stateMutability": "nonpayable",
      "type": "function"
    }
  ],
  "bytecode": "0x6101a06040523480156200001257600080fd5b506040518060400160405280600f81526020016e109bdd5b991b195cdcc815dbdc9b19608a1b81525080604051806040016040528060018152602001603160f81b81525062000066620002b960201b60201c565b6200007390600a62000489565b620000839063dbf0ee80620004a1565b6040518060400160405280600f81526020016e109bdd5b991b195cdcc815dbdc9b19608a1b8152506040518060400160405280600381526020016221262160e91b8152508160039081620000d8919062000568565b506004620000e7828262000568565b505050600081116200013f5760405162461bcd60e51b815260206004820152601560248201527f45524332304361707065643a2063617020697320300000000000000000000000604482015260640160405180910390fd5b60805281516020808401919091208251918301919091206101008290526101208190524660c0527f8b73c3c69bb8fe3d512ecc4cf759cc79239f7b179b0ffacaa9a75d522b39400f620001d78184846040805160208101859052908101839052606081018290524660808201523060a082015260009060c0016040516020818303038152906040528051906020012090509392505050565b60a0523060e0526101405250504261016052505062278d0061018052503362000202600082620002be565b6200022e7f9f2df0fed2c77648de5860a4cc508cd0818c85b8b8a1ab4ceeef8d981c8956a682620002be565b6200025a7f3c8f0f83bc4264add7714ab92a8e9e5a6814570c3ad9097c24df50773299026682620002be565b620002867fb24c1025622fe38445b605f5c1a9bb02be7f6522d24c8a159e5e47e62dbaaecf82620002be565b620002b27f23ab0e580195340a5a67800cafa0615701edfa22f79534a52851336e3cf8376a82620002be565b5062000634565b601290565b620002ca828262000349565b620003455760008281526007602090815260408083206001600160a01b03851684529091529020805460ff19166001179055620003043390565b6001600160a01b0316816001600160a01b0316837f2f8788117e7eff1d82e926ec794901d17c78024a50270940304540a733656f0d60405160405180910390a45b5050565b60008281526007602090815260408083206001600160a01b038516845290915290205460ff165b92915050565b634e487b7160e01b600052601160045260246000fd5b600181815b80851115620003cd578160001904821115620003b157620003b162000376565b80851615620003bf57918102915b93841c939080029062000391565b509250929050565b600082620003e65750600162000370565b81620003f55750600062000370565b81600181146200040e5760028114620004195762000439565b600191505062000370565b60ff8411156200042d576200042d62000376565b50506001821b62000370565b5060208310610133831016604e8410600b84101617156200045e575081810a62000370565b6200046a83836200038c565b806000190482111562000481576200048162000376565b029392505050565b60006200049a60ff841683620003d5565b9392505050565b6000816000190483118215151615620004be57620004be62000376565b500290565b634e487b7160e01b600052604160045260246000fd5b600181811c90821680620004ee57607f821691505b6020821081036200050f57634e487b7160e01b600052602260045260246000fd5b50919050565b601f8211156200056357600081815260208120601f850160051c810160208610156200053e5750805b601f850160051c820191505b818110156200055f578281556001016200054a565b5050505b505050565b81516001600160401b03811115620005845762000584620004c3565b6200059c81620005958454620004d9565b8462000515565b602080601f831160018114620005d45760008415620005bb5750858301515b600019600386901b1c1916600185901b1785556200055f565b600085815260208120601f198616915b828110156200060557888601518255948401946001909101908401620005e4565b5085821015620006245787850151600019600388901b60f8161c191681555b5050505050600190811b01905550565b60805160a05160c05160e051610100516101205161014051610160516101805161260a620006ba600039600081816107130152611f0a0152600081816107370152611f2e015260006112c201526000611311015260006112ec015260006112450152600061126f0152600061129901526000818161033f01526116e6015261260a6000f3fe608060405234801561001057600080fd5b506004361061021c5760003560e01c806340c10f1911610125578063a217fddf116100ad578063d505accf1161007c578063d505accf146104d6578063d5391393146104e9578063d547741f146104fe578063dd62ed3e14610511578063f976ca361461052457600080fd5b8063a217fddf14610495578063a457c2d71461049d578063a9059cbb146104b0578063c01bc982146104c357600080fd5b806370a08231116100f457806370a082311461042b57806379cc6790146104545780637ecebe001461046757806391d148541461047a57806395d89b411461048d57600080fd5b806340c10f19146103cb57806342966c68146103de57806351bcee27146103f15780635d1edb871461041857600080fd5b80632f2ff15d116101a85780633644e515116101775780633644e5151461036357806336568abe1461036b578063367065de1461037e57806339509351146103915780633e0b2cda146103a457600080fd5b80632f2ff15d146102f4578063311d9b2714610307578063313ce5671461032e578063355274ea1461033d57600080fd5b80631681f830116101ef5780631681f8301461028657806318160ddd14610299578063234eaedc146102ab57806323b872dd146102be578063248a9ca3146102d157600080fd5b806301ffc9a71461022157806306fdde0314610249578063095ea7b31461025e57806315c0702a14610271575b600080fd5b61023461022f366004612178565b610537565b60405190151581526020015b60405180910390f35b61025161056e565b60405161024091906121ce565b61023461026c366004612218565b610600565b61028461027f366004612242565b610618565b005b610284610294366004612218565b610652565b6002545b604051908152602001610240565b61029d6102b9366004612242565b61068e565b6102346102cc36600461225d565b6107bd565b61029d6102df366004612299565b60009081526007602052604090206001015490565b6102846103023660046122b2565b6107e1565b61029d7f3c8f0f83bc4264add7714ab92a8e9e5a6814570c3ad9097c24df50773299026681565b60405160128152602001610240565b7f000000000000000000000000000000000000000000000000000000000000000061029d565b61029d610806565b6102846103793660046122b2565b610815565b61028461038c3660046122de565b610898565b61023461039f366004612218565b610a6b565b61029d7fb24c1025622fe38445b605f5c1a9bb02be7f6522d24c8a159e5e47e62dbaaecf81565b6102846103d9366004612218565b610a8d565b6102846103ec366004612299565b610aaf565b61029d7f23ab0e580195340a5a67800cafa0615701edfa22f79534a52851336e3cf8376a81565b61029d610426366004612299565b610abc565b61029d610439366004612242565b6001600160a01b031660009081526020819052604090205490565b610284610462366004612218565b610af3565b61029d610475366004612242565b610b08565b6102346104883660046122b2565b610b26565b610251610b51565b61029d600081565b6102346104ab366004612218565b610b60565b6102346104be366004612218565b610bdb565b6102346104d1366004612242565b610be9565b6102846104e4366004612313565b610bf6565b61029d60008051602061259583398151915281565b61028461050c3660046122b2565b610d5a565b61029d61051f366004612386565b610d7f565b610284610532366004612299565b610daa565b60006001600160e01b03198216637965db0b60e01b148061056857506301ffc9a760e01b6001600160e01b03198316145b92915050565b60606003805461057d906123b0565b80601f01602080910402602001604051908101604052809291908181526020018280546105a9906123b0565b80156105f65780601f106105cb576101008083540402835291602001916105f6565b820191906000526020600020905b8154815290600101906020018083116105d957829003601f168201915b5050505050905090565b60003361060e818585610e3f565b5060019392505050565b7f23ab0e580195340a5a67800cafa0615701edfa22f79534a52851336e3cf8376a61064281610f64565b61064d600b83610f6e565b505050565b7f23ab0e580195340a5a67800cafa0615701edfa22f79534a52851336e3cf8376a61067c81610f64565b610688600b8484610f83565b50505050565b600061069982610be9565b156106a957610568600b83610fa1565b600f54620f4240036106d3576001600160a01b038216600090815260208190526040902054610568565b6000620f4240600f546106fb856001600160a01b031660009081526020819052604090205490565b61070591906123fa565b61070f9190612419565b90507f000000000000000000000000000000000000000000000000000000000000000061075c7f00000000000000000000000000000000000000000000000000000000000000004261243b565b6107669190612419565b6001600160a01b0384166000908152600e6020526040902060010154036107af576001600160a01b0383166000908152600e60205260409020546107aa908261243b565b6107b1565b805b9392505050565b919050565b6000336107cb858285610fb6565b6107d685858561102a565b506001949350505050565b6000828152600760205260409020600101546107fc81610f64565b61064d83836111b2565b6000610810611238565b905090565b6001600160a01b038116331461088a5760405162461bcd60e51b815260206004820152602f60248201527f416363657373436f6e74726f6c3a2063616e206f6e6c792072656e6f756e636560448201526e103937b632b9903337b91039b2b63360891b60648201526084015b60405180910390fd5b610894828261135f565b5050565b7f3c8f0f83bc4264add7714ab92a8e9e5a6814570c3ad9097c24df5077329902666108c281610f64565b8215806108cd575083155b61094d5760405162461bcd60e51b815260206004820152604560248201527f5472616e73616374696f6e4665653a2043616e6e6f742073657420666565416d60448201527f6f756e7420616e64206665654672616374696f6e206174207468652073616d656064820152642074696d6560d81b608482015260a401610881565b61c3508311156109ba5760405162461bcd60e51b815260206004820152603260248201527f5472616e73616374696f6e4665653a20557020746f203525207472616e7361636044820152711d1a5bdb9199594818d85b881899481cd95d60721b6064820152608401610881565b60008311806109c95750600084115b15610a40576001600160a01b038216610a405760405162461bcd60e51b815260206004820152603360248201527f5472616e73616374696f6e4665653a204665652072656365697665722063616e6044820152726e6f74206265207a65726f206164647265737360681b6064820152608401610881565b50600992909255600855600a80546001600160a01b0319166001600160a01b03909216919091179055565b60003361060e818585610a7e8383610d7f565b610a889190612452565b610e3f565b600080516020612595833981519152610aa581610f64565b61064d83836113c6565b610ab933826113d0565b50565b60095460009015610acf57505060095490565b600854156107b857620f424060085483610ae991906123fa565b6105689190612419565b610afe823383610fb6565b61089482826113d0565b6001600160a01b038116600090815260056020526040812054610568565b60009182526007602090815260408084206001600160a01b0393909316845291905290205460ff1690565b60606004805461057d906123b0565b60003381610b6e8286610d7f565b905083811015610bce5760405162461bcd60e51b815260206004820152602560248201527f45524332303a2064656372656173656420616c6c6f77616e63652062656c6f77604482015264207a65726f60d81b6064820152608401610881565b6107d68286868403610e3f565b60003361060e81858561102a565b6000610568600b83611518565b83421115610c465760405162461bcd60e51b815260206004820152601d60248201527f45524332305065726d69743a206578706972656420646561646c696e650000006044820152606401610881565b60007f6e71edae12b1b97f4d1f60370fef10105fa2faae0126114a169c64845d6126c9888888610c758c61152d565b6040805160208101969096526001600160a01b0394851690860152929091166060840152608083015260a082015260c0810186905260e0016040516020818303038152906040528051906020012090506000610cd082611555565b90506000610ce0828787876115a3565b9050896001600160a01b0316816001600160a01b031614610d435760405162461bcd60e51b815260206004820152601e60248201527f45524332305065726d69743a20696e76616c6964207369676e617475726500006044820152606401610881565b610d4e8a8a8a610e3f565b50505050505050505050565b600082815260076020526040902060010154610d7581610f64565b61064d838361135f565b6001600160a01b03918216600090815260016020908152604080832093909416825291909152205490565b7fb24c1025622fe38445b605f5c1a9bb02be7f6522d24c8a159e5e47e62dbaaecf610dd481610f64565b620f4240821115610e395760405162461bcd60e51b815260206004820152602960248201527f6d6178696d756d206672616374696f6e2069732031302a2a362028657175616c60448201526820746f20313030252960b81b6064820152608401610881565b50600f55565b6001600160a01b038316610ea15760405162461bcd60e51b8152602060048201526024808201527f45524332303a20617070726f76652066726f6d20746865207a65726f206164646044820152637265737360e01b6064820152608401610881565b6001600160a01b038216610f025760405162461bcd60e51b815260206004820152602260248201527f45524332303a20617070726f766520746f20746865207a65726f206164647265604482015261737360f01b6064820152608401610881565b6001600160a01b0383811660008181526001602090815260408083209487168084529482529182902085905590518481527f8c5be1e5ebec7d5bd14f71427d1e84f3dd0314c0f7b2291e5b200ac8c7c3b92591015b60405180910390a3505050565b610ab981336115cb565b60006107b1836001600160a01b03841661162f565b6000610f99846001600160a01b0385168461164c565b949350505050565b60006107b1836001600160a01b038416611669565b6000610fc28484610d7f565b90506000198114610688578181101561101d5760405162461bcd60e51b815260206004820152601d60248201527f45524332303a20696e73756666696369656e7420616c6c6f77616e63650000006044820152606401610881565b6106888484848403610e3f565b6001600160a01b03831661108e5760405162461bcd60e51b815260206004820152602560248201527f45524332303a207472616e736665722066726f6d20746865207a65726f206164604482015264647265737360d81b6064820152608401610881565b6001600160a01b0382166110f05760405162461bcd60e51b815260206004820152602360248201527f45524332303a207472616e7366657220746f20746865207a65726f206164647260448201526265737360e81b6064820152608401610881565b6110fb8383836116d9565b6001600160a01b038316600090815260208190526040902054818110156111345760405162461bcd60e51b81526004016108819061246a565b6001600160a01b0380851660009081526020819052604080822085850390559185168152908120805484929061116b908490612452565b92505081905550826001600160a01b0316846001600160a01b03166000805160206125b5833981519152846040516111a591815260200190565b60405180910390a3610688565b6111bc8282610b26565b6108945760008281526007602090815260408083206001600160a01b03851684529091529020805460ff191660011790556111f43390565b6001600160a01b0316816001600160a01b0316837f2f8788117e7eff1d82e926ec794901d17c78024a50270940304540a733656f0d60405160405180910390a45050565b6000306001600160a01b037f00000000000000000000000000000000000000000000000000000000000000001614801561129157507f000000000000000000000000000000000000000000000000000000000000000046145b156112bb57507f000000000000000000000000000000000000000000000000000000000000000090565b50604080517f00000000000000000000000000000000000000000000000000000000000000006020808301919091527f0000000000000000000000000000000000000000000000000000000000000000828401527f000000000000000000000000000000000000000000000000000000000000000060608301524660808301523060a0808401919091528351808403909101815260c0909201909252805191012090565b6113698282610b26565b156108945760008281526007602090815260408083206001600160a01b0385168085529252808320805460ff1916905551339285917ff6391f5c32d9c69d2a47ea670b442974b53935d1edc7fd64eb21e047a839171b9190a45050565b61089482826116e4565b6001600160a01b0382166114305760405162461bcd60e51b815260206004820152602160248201527f45524332303a206275726e2066726f6d20746865207a65726f206164647265736044820152607360f81b6064820152608401610881565b61143c826000836116d9565b6001600160a01b038216600090815260208190526040902054818110156114b05760405162461bcd60e51b815260206004820152602260248201527f45524332303a206275726e20616d6f756e7420657863656564732062616c616e604482015261636560f01b6064820152608401610881565b6001600160a01b03831660009081526020819052604081208383039055600280548492906114df90849061243b565b90915550506040518281526000906001600160a01b038516906000805160206125b58339815191529060200160405180910390a3505050565b60006107b1836001600160a01b038416611771565b6001600160a01b03811660009081526005602052604090208054600181018255905b50919050565b6000610568611562611238565b8360405161190160f01b6020820152602281018390526042810182905260009060620160405160208183030381529060405280519060200120905092915050565b60008060006115b48787878761177d565b915091506115c18161186a565b5095945050505050565b6115d58282610b26565b610894576115ed816001600160a01b03166014611a20565b6115f8836020611a20565b6040516020016116099291906124b0565b60408051601f198184030181529082905262461bcd60e51b8252610881916004016121ce565b600081815260028301602052604081208190556107b18383611bbc565b60008281526002840160205260408120829055610f998484611bc8565b60008181526002830160205260408120548015158061168d575061168d8484611771565b6107b15760405162461bcd60e51b815260206004820152601e60248201527f456e756d657261626c654d61703a206e6f6e6578697374656e74206b657900006044820152606401610881565b61064d838383611bd4565b7f00000000000000000000000000000000000000000000000000000000000000008161170f60025490565b6117199190612452565b11156117675760405162461bcd60e51b815260206004820152601960248201527f45524332304361707065643a20636170206578636565646564000000000000006044820152606401610881565b6108948282611c05565b60006107b18383611cde565b6000807f7fffffffffffffffffffffffffffffff5d576e7357a4501ddfe92f46681b20a08311156117b45750600090506003611861565b8460ff16601b141580156117cc57508460ff16601c14155b156117dd5750600090506004611861565b6040805160008082526020820180845289905260ff881692820192909252606081018690526080810185905260019060a0016020604051602081039080840390855afa158015611831573d6000803e3d6000fd5b5050604051601f1901519150506001600160a01b03811661185a57600060019250925050611861565b9150600090505b94509492505050565b600081600481111561187e5761187e612525565b036118865750565b600181600481111561189a5761189a612525565b036118e75760405162461bcd60e51b815260206004820152601860248201527f45434453413a20696e76616c6964207369676e617475726500000000000000006044820152606401610881565b60028160048111156118fb576118fb612525565b036119485760405162461bcd60e51b815260206004820152601f60248201527f45434453413a20696e76616c6964207369676e6174757265206c656e677468006044820152606401610881565b600381600481111561195c5761195c612525565b036119b45760405162461bcd60e51b815260206004820152602260248201527f45434453413a20696e76616c6964207369676e6174757265202773272076616c604482015261756560f01b6064820152608401610881565b60048160048111156119c8576119c8612525565b03610ab95760405162461bcd60e51b815260206004820152602260248201527f45434453413a20696e76616c6964207369676e6174757265202776272076616c604482015261756560f01b6064820152608401610881565b60606000611a2f8360026123fa565b611a3a906002612452565b67ffffffffffffffff811115611a5257611a5261253b565b6040519080825280601f01601f191660200182016040528015611a7c576020820181803683370190505b509050600360fc1b81600081518110611a9757611a97612551565b60200101906001600160f81b031916908160001a905350600f60fb1b81600181518110611ac657611ac6612551565b60200101906001600160f81b031916908160001a9053506000611aea8460026123fa565b611af5906001612452565b90505b6001811115611b6d576f181899199a1a9b1b9c1cb0b131b232b360811b85600f1660108110611b2957611b29612551565b1a60f81b828281518110611b3f57611b3f612551565b60200101906001600160f81b031916908160001a90535060049490941c93611b6681612567565b9050611af8565b5083156107b15760405162461bcd60e51b815260206004820181905260248201527f537472696e67733a20686578206c656e67746820696e73756666696369656e746044820152606401610881565b60006107b18383611cf6565b60006107b18383611de9565b611bec60008051602061259583398151915233610b26565b611bfa57611bfa8382611e38565b61064d83838361203f565b6001600160a01b038216611c5b5760405162461bcd60e51b815260206004820152601f60248201527f45524332303a206d696e7420746f20746865207a65726f2061646472657373006044820152606401610881565b611c67600083836116d9565b8060026000828254611c799190612452565b90915550506001600160a01b03821660009081526020819052604081208054839290611ca6908490612452565b90915550506040518181526001600160a01b038316906000906000805160206125b58339815191529060200160405180910390a35050565b600081815260018301602052604081205415156107b1565b60008181526001830160205260408120548015611ddf576000611d1a60018361243b565b8554909150600090611d2e9060019061243b565b9050818114611d93576000866000018281548110611d4e57611d4e612551565b9060005260206000200154905080876000018481548110611d7157611d71612551565b6000918252602080832090910192909255918252600188019052604090208390555b8554869080611da457611da461257e565b600190038181906000526020600020016000905590558560010160008681526020019081526020016000206000905560019350505050610568565b6000915050610568565b6000818152600183016020526040812054611e3057508154600181810184556000848152602080822090930184905584548482528286019093526040902091909155610568565b506000610568565b611e4182610be9565b15611ebc576000611e53600b84610fa1565b905080821115611ea55760405162461bcd60e51b815260206004820152601a60248201527f616d6f756e742065786365656473207370656e64206c696d69740000000000006044820152606401610881565b61068883611eb3848461243b565b600b9190610f83565b600f54620f424014610894576000620f4240600f54611ef0856001600160a01b031660009081526020819052604090205490565b611efa91906123fa565b611f049190612419565b905060007f0000000000000000000000000000000000000000000000000000000000000000611f537f00000000000000000000000000000000000000000000000000000000000000004261243b565b611f5d9190612419565b6001600160a01b0385166000908152600e6020526040902060010154909150819003611fa9576001600160a01b0384166000908152600e6020526040902054611fa69084612452565b92505b818311156120035760405162461bcd60e51b815260206004820152602160248201527f616d6f756e74206578636565647320706572696f64207370656e64206c696d696044820152601d60fa1b6064820152608401610881565b60408051808201825293845260208085019283526001600160a01b03959095166000908152600e90955290932091518255509051600190910155565b3361205860008051602061259583398151915282610b26565b61209c576000600854118061206f57506000600954115b1561209c57600061207f83610abc565b600a5490915061209a9083906001600160a01b0316836120a1565b505b610688565b6001600160a01b03831615612108576001600160a01b038316600090815260208190526040902054818110156120e95760405162461bcd60e51b81526004016108819061246a565b6001600160a01b03841660009081526020819052604090209082900390555b6001600160a01b03821615612145576001600160a01b0382166000908152602081905260408120805483929061213f908490612452565b90915550505b816001600160a01b0316836001600160a01b03166000805160206125b583398151915283604051610f5791815260200190565b60006020828403121561218a57600080fd5b81356001600160e01b0319811681146107b157600080fd5b60005b838110156121bd5781810151838201526020016121a5565b838111156106885750506000910152565b60208152600082518060208401526121ed8160408501602087016121a2565b601f01601f19169190910160400192915050565b80356001600160a01b03811681146107b857600080fd5b6000806040838503121561222b57600080fd5b61223483612201565b946020939093013593505050565b60006020828403121561225457600080fd5b6107b182612201565b60008060006060848603121561227257600080fd5b61227b84612201565b925061228960208501612201565b9150604084013590509250925092565b6000602082840312156122ab57600080fd5b5035919050565b600080604083850312156122c557600080fd5b823591506122d560208401612201565b90509250929050565b6000806000606084860312156122f357600080fd5b833592506020840135915061230a60408501612201565b90509250925092565b600080600080600080600060e0888a03121561232e57600080fd5b61233788612201565b965061234560208901612201565b95506040880135945060608801359350608088013560ff8116811461236957600080fd5b9699959850939692959460a0840135945060c09093013592915050565b6000806040838503121561239957600080fd5b6123a283612201565b91506122d560208401612201565b600181811c908216806123c457607f821691505b60208210810361154f57634e487b7160e01b600052602260045260246000fd5b634e487b7160e01b600052601160045260246000fd5b6000816000190483118215151615612414576124146123e4565b500290565b60008261243657634e487b7160e01b600052601260045260246000fd5b500490565b60008282101561244d5761244d6123e4565b500390565b60008219821115612465576124656123e4565b500190565b60208082526026908201527f45524332303a207472616e7366657220616d6f756e7420657863656564732062604082015265616c616e636560d01b606082015260800190565b7f416363657373436f6e74726f6c3a206163636f756e74200000000000000000008152600083516124e88160178501602088016121a2565b7001034b99036b4b9b9b4b733903937b6329607d1b60179184019182015283516125198160288401602088016121a2565b01602801949350505050565b634e487b7160e01b600052602160045260246000fd5b634e487b7160e01b600052604160045260246000fd5b634e487b7160e01b600052603260045260246000fd5b600081612576576125766123e4565b506000190190565b634e487b7160e01b600052603160045260246000fdfe9f2df0fed2c77648de5860a4cc508cd0818c85b8b8a1ab4ceeef8d981c8956a6ddf252ad1be2c89b69c2b068fc378daa952ba7f163c4a11628f55a4df523b3efa2646970667358221220c3fd1e4e57dd1d2c69000f9d5017ed1eaba1aa16d13d84d4a248b790908e266864736f6c634300080f0033",
  "linkReferences": {},
  "deployedLinkReferences": {}
}