{
  "_format": "hh-sol-artifact-1",
  "contractName": "BLBToken",
  "sourceName": "contracts/BEP20/BLBToken.sol",
  "abi": [
    {
      "inputs": [
        {
          "internalType": "uint256",
          "name": "_periodTime",
          "type": "uint256"
        }
      ],
      "stateMutability": "nonpayable",
      "type": "constructor"
    },
    {
      "anonymous": false,
      "inputs": [
        {
          "indexed": true,
          "internalType": "address",
          "name": "owner",
          "type": "address"
        },
        {
          "indexed": true,
          "internalType": "address",
          "name": "spender",
          "type": "address"
        },
        {
          "indexed": false,
          "internalType": "uint256",
          "name": "value",
          "type": "uint256"
        }
      ],
      "name": "Approval",
      "type": "event"
    },
    {
      "anonymous": false,
      "inputs": [
        {
          "indexed": false,
          "internalType": "address",
          "name": "addr",
          "type": "address"
        }
      ],
      "name": "District",
      "type": "event"
    },
    {
      "anonymous": false,
      "inputs": [
        {
          "indexed": false,
          "internalType": "address",
          "name": "addr",
          "type": "address"
        },
        {
          "indexed": false,
          "internalType": "uint256",
          "name": "amount",
          "type": "uint256"
        }
      ],
      "name": "Restrict",
      "type": "event"
    },
    {
      "anonymous": false,
      "inputs": [
        {
          "indexed": true,
          "internalType": "bytes32",
          "name": "role",
          "type": "bytes32"
        },
        {
          "indexed": true,
          "internalType": "bytes32",
          "name": "previousAdminRole",
          "type": "bytes32"
        },
        {
          "indexed": true,
          "internalType": "bytes32",
          "name": "newAdminRole",
          "type": "bytes32"
        }
      ],
      "name": "RoleAdminChanged",
      "type": "event"
    },
    {
      "anonymous": false,
      "inputs": [
        {
          "indexed": true,
          "internalType": "bytes32",
          "name": "role",
          "type": "bytes32"
        },
        {
          "indexed": true,
          "internalType": "address",
          "name": "account",
          "type": "address"
        },
        {
          "indexed": true,
          "internalType": "address",
          "name": "sender",
          "type": "address"
        }
      ],
      "name": "RoleGranted",
      "type": "event"
    },
    {
      "anonymous": false,
      "inputs": [
        {
          "indexed": true,
          "internalType": "bytes32",
          "name": "role",
          "type": "bytes32"
        },
        {
          "indexed": true,
          "internalType": "address",
          "name": "account",
          "type": "address"
        },
        {
          "indexed": true,
          "internalType": "address",
          "name": "sender",
          "type": "address"
        }
      ],
      "name": "RoleRevoked",
      "type": "event"
    },
    {
      "anonymous": false,
      "inputs": [
        {
          "indexed": false,
          "internalType": "uint256",
          "name": "fraction",
          "type": "uint256"
        }
      ],
      "name": "SetPeriodTransferFraction",
      "type": "event"
    },
    {
      "anonymous": false,
      "inputs": [
        {
          "indexed": false,
          "internalType": "uint256",
          "name": "_feeAmount",
          "type": "uint256"
        },
        {
          "indexed": false,
          "internalType": "uint256",
          "name": "_feeFraction",
          "type": "uint256"
        },
        {
          "indexed": false,
          "internalType": "address",
          "name": "_feeReceiver",
          "type": "address"
        }
      ],
      "name": "SetTransactionFee",
      "type": "event"
    },
    {
      "anonymous": false,
      "inputs": [
        {
          "indexed": true,
          "internalType": "address",
          "name": "from",
          "type": "address"
        },
        {
          "indexed": true,
          "internalType": "address",
          "name": "to",
          "type": "address"
        },
        {
          "indexed": false,
          "internalType": "uint256",
          "name": "value",
          "type": "uint256"
        }
      ],
      "name": "Transfer",
      "type": "event"
    },
    {
      "inputs": [],
      "name": "DEFAULT_ADMIN_ROLE",
      "outputs": [
        {
          "internalType": "bytes32",
          "name": "",
          "type": "bytes32"
        }
      ],
      "stateMutability": "view",
      "type": "function"
    },
    {
      "inputs": [],
      "name": "DOMAIN_SEPARATOR",
      "outputs": [
        {
          "internalType": "bytes32",
          "name": "",
          "type": "bytes32"
        }
      ],
      "stateMutability": "view",
      "type": "function"
    },
    {
      "inputs": [],
      "name": "MINTER_ROLE",
      "outputs": [
        {
          "internalType": "bytes32",
          "name": "",
          "type": "bytes32"
        }
      ],
      "stateMutability": "view",
      "type": "function"
    },
    {
      "inputs": [],
      "name": "RESTRICTOR_ROLE",
      "outputs": [
        {
          "internalType": "bytes32",
          "name": "",
          "type": "bytes32"
        }
      ],
      "stateMutability": "view",
      "type": "function"
    },
    {
      "inputs": [],
      "name": "TRANSACTION_FEE_SETTER",
      "outputs": [
        {
          "internalType": "bytes32",
          "name": "",
          "type": "bytes32"
        }
      ],
      "stateMutability": "view",
      "type": "function"
    },
    {
      "inputs": [],
      "name": "TRANSFER_LIMIT_SETTER",
      "outputs": [
        {
          "internalType": "bytes32",
          "name": "",
          "type": "bytes32"
        }
      ],
      "stateMutability": "view",
      "type": "function"
    },
    {
      "inputs": [
        {
          "internalType": "address",
          "name": "owner",
          "type": "address"
        },
        {
          "internalType": "address",
          "name": "spender",
          "type": "address"
        }
      ],
      "name": "allowance",
      "outputs": [
        {
          "internalType": "uint256",
          "name": "",
          "type": "uint256"
        }
      ],
      "stateMutability": "view",
      "type": "function"
    },
    {
      "inputs": [
        {
          "internalType": "address",
          "name": "spender",
          "type": "address"
        },
        {
          "internalType": "uint256",
          "name": "amount",
          "type": "uint256"
        }
      ],
      "name": "approve",
      "outputs": [
        {
          "internalType": "bool",
          "name": "",
          "type": "bool"
        }
      ],
      "stateMutability": "nonpayable",
      "type": "function"
    },
    {
      "inputs": [
        {
          "internalType": "address",
          "name": "account",
          "type": "address"
        }
      ],
      "name": "balanceOf",
      "outputs": [
        {
          "internalType": "uint256",
          "name": "",
          "type": "uint256"
        }
      ],
      "stateMutability": "view",
      "type": "function"
    },
    {
      "inputs": [
        {
          "internalType": "uint256",
          "name": "amount",
          "type": "uint256"
        }
      ],
      "name": "burn",
      "outputs": [],
      "stateMutability": "nonpayable",
      "type": "function"
    },
    {
      "inputs": [
        {
          "internalType": "address",
          "name": "account",
          "type": "address"
        },
        {
          "internalType": "uint256",
          "name": "amount",
          "type": "uint256"
        }
      ],
      "name": "burnFrom",
      "outputs": [],
      "stateMutability": "nonpayable",
      "type": "function"
    },
    {
      "inputs": [
        {
          "internalType": "address",
          "name": "addr",
          "type": "address"
        }
      ],
      "name": "canSpend",
      "outputs": [
        {
          "internalType": "uint256",
          "name": "amount",
          "type": "uint256"
        }
      ],
      "stateMutability": "view",
      "type": "function"
    },
    {
      "inputs": [],
      "name": "cap",
      "outputs": [
        {
          "internalType": "uint256",
          "name": "",
          "type": "uint256"
        }
      ],
      "stateMutability": "view",
      "type": "function"
    },
    {
      "inputs": [],
      "name": "decimals",
      "outputs": [
        {
          "internalType": "uint8",
          "name": "",
          "type": "uint8"
        }
      ],
      "stateMutability": "view",
      "type": "function"
    },
    {
      "inputs": [
        {
          "internalType": "address",
          "name": "spender",
          "type": "address"
        },
        {
          "internalType": "uint256",
          "name": "subtractedValue",
          "type": "uint256"
        }
      ],
      "name": "decreaseAllowance",
      "outputs": [
        {
          "internalType": "bool",
          "name": "",
          "type": "bool"
        }
      ],
      "stateMutability": "nonpayable",
      "type": "function"
    },
    {
      "inputs": [
        {
          "internalType": "address",
          "name": "addr",
          "type": "address"
        }
      ],
      "name": "district",
      "outputs": [],
      "stateMutability": "nonpayable",
      "type": "function"
    },
    {
      "inputs": [
        {
          "internalType": "bytes32",
          "name": "role",
          "type": "bytes32"
        }
      ],
      "name": "getRoleAdmin",
      "outputs": [
        {
          "internalType": "bytes32",
          "name": "",
          "type": "bytes32"
        }
      ],
      "stateMutability": "view",
      "type": "function"
    },
    {
      "inputs": [
        {
          "internalType": "bytes32",
          "name": "role",
          "type": "bytes32"
        },
        {
          "internalType": "address",
          "name": "account",
          "type": "address"
        }
      ],
      "name": "grantRole",
      "outputs": [],
      "stateMutability": "nonpayable",
      "type": "function"
    },
    {
      "inputs": [
        {
          "internalType": "bytes32",
          "name": "role",
          "type": "bytes32"
        },
        {
          "internalType": "address",
          "name": "account",
          "type": "address"
        }
      ],
      "name": "hasRole",
      "outputs": [
        {
          "internalType": "bool",
          "name": "",
          "type": "bool"
        }
      ],
      "stateMutability": "view",
      "type": "function"
    },
    {
      "inputs": [
        {
          "internalType": "address",
          "name": "spender",
          "type": "address"
        },
        {
          "internalType": "uint256",
          "name": "addedValue",
          "type": "uint256"
        }
      ],
      "name": "increaseAllowance",
      "outputs": [
        {
          "internalType": "bool",
          "name": "",
          "type": "bool"
        }
      ],
      "stateMutability": "nonpayable",
      "type": "function"
    },
    {
      "inputs": [
        {
          "internalType": "address",
          "name": "addr",
          "type": "address"
        }
      ],
      "name": "isRestricted",
      "outputs": [
        {
          "internalType": "bool",
          "name": "",
          "type": "bool"
        }
      ],
      "stateMutability": "view",
      "type": "function"
    },
    {
      "inputs": [
        {
          "internalType": "address",
          "name": "account",
          "type": "address"
        },
        {
          "internalType": "uint256",
          "name": "amount",
          "type": "uint256"
        }
      ],
      "name": "mint",
      "outputs": [],
      "stateMutability": "nonpayable",
      "type": "function"
    },
    {
      "inputs": [
        {
          "internalType": "address[]",
          "name": "accounts",
          "type": "address[]"
        },
        {
          "internalType": "uint256",
          "name": "amount",
          "type": "uint256"
        }
      ],
      "name": "mintBatch",
      "outputs": [],
      "stateMutability": "nonpayable",
      "type": "function"
    },
    {
      "inputs": [],
      "name": "name",
      "outputs": [
        {
          "internalType": "string",
          "name": "",
          "type": "string"
        }
      ],
      "stateMutability": "view",
      "type": "function"
    },
    {
      "inputs": [
        {
          "internalType": "address",
          "name": "owner",
          "type": "address"
        }
      ],
      "name": "nonces",
      "outputs": [
        {
          "internalType": "uint256",
          "name": "",
          "type": "uint256"
        }
      ],
      "stateMutability": "view",
      "type": "function"
    },
    {
      "inputs": [
        {
          "internalType": "address",
          "name": "owner",
          "type": "address"
        },
        {
          "internalType": "address",
          "name": "spender",
          "type": "address"
        },
        {
          "internalType": "uint256",
          "name": "value",
          "type": "uint256"
        },
        {
          "internalType": "uint256",
          "name": "deadline",
          "type": "uint256"
        },
        {
          "internalType": "uint8",
          "name": "v",
          "type": "uint8"
        },
        {
          "internalType": "bytes32",
          "name": "r",
          "type": "bytes32"
        },
        {
          "internalType": "bytes32",
          "name": "s",
          "type": "bytes32"
        }
      ],
      "name": "permit",
      "outputs": [],
      "stateMutability": "nonpayable",
      "type": "function"
    },
    {
      "inputs": [
        {
          "internalType": "bytes32",
          "name": "role",
          "type": "bytes32"
        },
        {
          "internalType": "address",
          "name": "account",
          "type": "address"
        }
      ],
      "name": "renounceRole",
      "outputs": [],
      "stateMutability": "nonpayable",
      "type": "function"
    },
    {
      "inputs": [
        {
          "internalType": "address",
          "name": "addr",
          "type": "address"
        },
        {
          "internalType": "uint256",
          "name": "amount",
          "type": "uint256"
        }
      ],
      "name": "restrict",
      "outputs": [],
      "stateMutability": "nonpayable",
      "type": "function"
    },
    {
      "inputs": [
        {
          "internalType": "bytes32",
          "name": "role",
          "type": "bytes32"
        },
        {
          "internalType": "address",
          "name": "account",
          "type": "address"
        }
      ],
      "name": "revokeRole",
      "outputs": [],
      "stateMutability": "nonpayable",
      "type": "function"
    },
    {
      "inputs": [
        {
          "internalType": "uint256",
          "name": "fraction",
          "type": "uint256"
        }
      ],
      "name": "setPeriodTransferFraction",
      "outputs": [],
      "stateMutability": "nonpayable",
      "type": "function"
    },
    {
      "inputs": [
        {
          "internalType": "uint256",
          "name": "_feeAmount",
          "type": "uint256"
        },
        {
          "internalType": "uint256",
          "name": "_feeFraction",
          "type": "uint256"
        },
        {
          "internalType": "address",
          "name": "_feeReceiver",
          "type": "address"
        }
      ],
      "name": "setTransactionFee",
      "outputs": [],
      "stateMutability": "nonpayable",
      "type": "function"
    },
    {
      "inputs": [
        {
          "internalType": "bytes4",
          "name": "interfaceId",
          "type": "bytes4"
        }
      ],
      "name": "supportsInterface",
      "outputs": [
        {
          "internalType": "bool",
          "name": "",
          "type": "bool"
        }
      ],
      "stateMutability": "view",
      "type": "function"
    },
    {
      "inputs": [],
      "name": "symbol",
      "outputs": [
        {
          "internalType": "string",
          "name": "",
          "type": "string"
        }
      ],
      "stateMutability": "view",
      "type": "function"
    },
    {
      "inputs": [],
      "name": "totalSupply",
      "outputs": [
        {
          "internalType": "uint256",
          "name": "",
          "type": "uint256"
        }
      ],
      "stateMutability": "view",
      "type": "function"
    },
    {
      "inputs": [
        {
          "internalType": "uint256",
          "name": "transferingAmount",
          "type": "uint256"
        }
      ],
      "name": "transactionFee",
      "outputs": [
        {
          "internalType": "uint256",
          "name": "fee",
          "type": "uint256"
        }
      ],
      "stateMutability": "view",
      "type": "function"
    },
    {
      "inputs": [
        {
          "internalType": "address",
          "name": "to",
          "type": "address"
        },
        {
          "internalType": "uint256",
          "name": "amount",
          "type": "uint256"
        }
      ],
      "name": "transfer",
      "outputs": [
        {
          "internalType": "bool",
          "name": "",
          "type": "bool"
        }
      ],
      "stateMutability": "nonpayable",
      "type": "function"
    },
    {
      "inputs": [
        {
          "internalType": "address",
          "name": "from",
          "type": "address"
        },
        {
          "internalType": "address",
          "name": "to",
          "type": "address"
        },
        {
          "internalType": "uint256",
          "name": "amount",
          "type": "uint256"
        }
      ],
      "name": "transferFrom",
      "outputs": [
        {
          "internalType": "bool",
          "name": "",
          "type": "bool"
        }
      ],
      "stateMutability": "nonpayable",
      "type": "function"
    }
  ],
  "bytecode": "0x6101a06040523480156200001257600080fd5b5060405162002f6938038062002f69833981016040819052620000359162000396565b806040518060400160405280600f81526020016e109bdd5b991b195cdcc815dbdc9b19608a1b81525080604051806040016040528060018152602001603160f81b81525062000089620002d960201b60201c565b6200009690600a620004c3565b620000a69063dbf0ee80620004db565b6040518060400160405280600f81526020016e109bdd5b991b195cdcc815dbdc9b19608a1b8152506040518060400160405280600381526020016221262160e91b8152508160039081620000fb9190620005a2565b5060046200010a8282620005a2565b50505060008111620001625760405162461bcd60e51b815260206004820152601560248201527f45524332304361707065643a2063617020697320300000000000000000000000604482015260640160405180910390fd5b60805281516020808401919091208251918301919091206101008290526101208190524660c0527f8b73c3c69bb8fe3d512ecc4cf759cc79239f7b179b0ffacaa9a75d522b39400f620001fa8184846040805160208101859052908101839052606081018290524660808201523060a082015260009060c0016040516020818303038152906040528051906020012090509392505050565b60a0523060e0526101405250504261016052505050610180523362000221600082620002de565b6200024d7f9f2df0fed2c77648de5860a4cc508cd0818c85b8b8a1ab4ceeef8d981c8956a682620002de565b620002797fd0ac125722f4b4565ab5e91b234e50c4c6f541672aea816ba090a0ea349ed93f82620002de565b620002a57fb24c1025622fe38445b605f5c1a9bb02be7f6522d24c8a159e5e47e62dbaaecf82620002de565b620002d17f23ab0e580195340a5a67800cafa0615701edfa22f79534a52851336e3cf8376a82620002de565b50506200066e565b601290565b620002ea828262000369565b620003655760008281526007602090815260408083206001600160a01b03851684529091529020805460ff19166001179055620003243390565b6001600160a01b0316816001600160a01b0316837f2f8788117e7eff1d82e926ec794901d17c78024a50270940304540a733656f0d60405160405180910390a45b5050565b60008281526007602090815260408083206001600160a01b038516845290915290205460ff165b92915050565b600060208284031215620003a957600080fd5b5051919050565b634e487b7160e01b600052601160045260246000fd5b600181815b8085111562000407578160001904821115620003eb57620003eb620003b0565b80851615620003f957918102915b93841c9390800290620003cb565b509250929050565b600082620004205750600162000390565b816200042f5750600062000390565b8160018114620004485760028114620004535762000473565b600191505062000390565b60ff841115620004675762000467620003b0565b50506001821b62000390565b5060208310610133831016604e8410600b841016171562000498575081810a62000390565b620004a48383620003c6565b8060001904821115620004bb57620004bb620003b0565b029392505050565b6000620004d460ff8416836200040f565b9392505050565b6000816000190483118215151615620004f857620004f8620003b0565b500290565b634e487b7160e01b600052604160045260246000fd5b600181811c908216806200052857607f821691505b6020821081036200054957634e487b7160e01b600052602260045260246000fd5b50919050565b601f8211156200059d57600081815260208120601f850160051c81016020861015620005785750805b601f850160051c820191505b81811015620005995782815560010162000584565b5050505b505050565b81516001600160401b03811115620005be57620005be620004fd565b620005d681620005cf845462000513565b846200054f565b602080601f8311600181146200060e5760008415620005f55750858301515b600019600386901b1c1916600185901b17855562000599565b600085815260208120601f198616915b828110156200063f578886015182559484019460019091019084016200061e565b50858210156200065e5787850151600019600388901b60f8161c191681555b5050505050600190811b01905550565b60805160a05160c05160e051610100516101205161014051610160516101805161286e620006fb600039600081816107870152611f820152600081816107ab0152611fa6015260006113e00152600061142f0152600061140a015260006113630152600061138d015260006113b701526000818161033b015281816106f901526117fc015261286e6000f3fe608060405234801561001057600080fd5b50600436106102275760003560e01c806342966c6811610130578063a457c2d7116100b8578063d53913931161007c578063d5391393146104f8578063d547741f1461050d578063dd62ed3e14610520578063e162533c14610533578063fad71be21461054657600080fd5b8063a457c2d714610499578063a9059cbb146104ac578063b6afc4dc146104bf578063c01bc982146104d2578063d505accf146104e557600080fd5b806379cc6790116100ff57806379cc6790146104505780637ecebe001461046357806391d148541461047657806395d89b4114610489578063a217fddf1461049157600080fd5b806342966c68146103da57806351bcee27146103ed5780635d1edb871461041457806370a082311461042757600080fd5b80632f2ff15d116101b357806336568abe1161018257806336568abe14610367578063367065de1461037a578063395093511461038d5780633e0b2cda146103a057806340c10f19146103c757600080fd5b80632f2ff15d14610317578063313ce5671461032a578063355274ea146103395780633644e5151461035f57600080fd5b80631681f830116101fa5780631681f830146102b157806318160ddd146102c6578063234eaedc146102ce57806323b872dd146102e1578063248a9ca3146102f457600080fd5b806301ffc9a71461022c57806306fdde0314610254578063095ea7b3146102695780630ecbd0331461027c575b600080fd5b61023f61023a366004612340565b610559565b60405190151581526020015b60405180910390f35b61025c610590565b60405161024b9190612396565b61023f6102773660046123e0565b610622565b6102a37fd0ac125722f4b4565ab5e91b234e50c4c6f541672aea816ba090a0ea349ed93f81565b60405190815260200161024b565b6102c46102bf3660046123e0565b61063a565b005b6002546102a3565b6102a36102dc36600461240a565b6106b8565b61023f6102ef366004612425565b610831565b6102a3610302366004612461565b60009081526007602052604090206001015490565b6102c461032536600461247a565b610855565b6040516012815260200161024b565b7f00000000000000000000000000000000000000000000000000000000000000006102a3565b6102a361087f565b6102c461037536600461247a565b61088e565b6102c46103883660046124a6565b610911565b61023f61039b3660046123e0565b610aa5565b6102a37fb24c1025622fe38445b605f5c1a9bb02be7f6522d24c8a159e5e47e62dbaaecf81565b6102c46103d53660046123e0565b610ac7565b6102c46103e8366004612461565b610ae9565b6102a37f23ab0e580195340a5a67800cafa0615701edfa22f79534a52851336e3cf8376a81565b6102a3610422366004612461565b610af6565b6102a361043536600461240a565b6001600160a01b031660009081526020819052604090205490565b6102c461045e3660046123e0565b610b2d565b6102a361047136600461240a565b610b42565b61023f61048436600461247a565b610b60565b61025c610b8b565b6102a3600081565b61023f6104a73660046123e0565b610b9a565b61023f6104ba3660046123e0565b610c15565b6102c46104cd3660046124db565b610c23565b61023f6104e036600461240a565b610c97565b6102c46104f3366004612556565b610ca4565b6102a36000805160206127f983398151915281565b6102c461051b36600461247a565b610e08565b6102a361052e3660046125c9565b610e2d565b6102c461054136600461240a565b610e58565b6102c4610554366004612461565b610e8d565b60006001600160e01b03198216637965db0b60e01b148061058a57506301ffc9a760e01b6001600160e01b03198316145b92915050565b60606003805461059f906125f3565b80601f01602080910402602001604051908101604052809291908181526020018280546105cb906125f3565b80156106185780601f106105ed57610100808354040283529160200191610618565b820191906000526020600020905b8154815290600101906020018083116105fb57829003601f168201915b5050505050905090565b600033610630818585610f6c565b5060019392505050565b7f23ab0e580195340a5a67800cafa0615701edfa22f79534a52851336e3cf8376a61066481611091565b610670600b848461109b565b50604080516001600160a01b0385168152602081018490527fa1b8d777c2527547849718a04f45b8e5b0f29119c47f9298b20a85f0ad275424910160405180910390a1505050565b60006106c382610c97565b156106d35761058a600b836110b9565b6106eb6000805160206127f983398151915233610b60565b1561071d5760025461058a907f000000000000000000000000000000000000000000000000000000000000000061263d565b600f54620f424003610747576001600160a01b03821660009081526020819052604090205461058a565b6000620f4240600f5461076f856001600160a01b031660009081526020819052604090205490565b6107799190612654565b6107839190612673565b90507f00000000000000000000000000000000000000000000000000000000000000006107d07f00000000000000000000000000000000000000000000000000000000000000004261263d565b6107da9190612673565b6001600160a01b0384166000908152600e602052604090206001015403610823576001600160a01b0383166000908152600e602052604090205461081e908261263d565b610825565b805b9392505050565b919050565b60003361083f8582856110ce565b61084a858585611148565b506001949350505050565b60008281526007602052604090206001015461087081611091565b61087a83836112d0565b505050565b6000610889611356565b905090565b6001600160a01b03811633146109035760405162461bcd60e51b815260206004820152602f60248201527f416363657373436f6e74726f6c3a2063616e206f6e6c792072656e6f756e636560448201526e103937b632b9903337b91039b2b63360891b60648201526084015b60405180910390fd5b61090d828261147d565b5050565b7fd0ac125722f4b4565ab5e91b234e50c4c6f541672aea816ba090a0ea349ed93f61093b81611091565b821580610946575083155b6109c65760405162461bcd60e51b815260206004820152604560248201527f5472616e73616374696f6e4665653a2043616e6e6f742073657420666565416d60448201527f6f756e7420616e64206665654672616374696f6e206174207468652073616d656064820152642074696d6560d81b608482015260a4016108fa565b620186a0831115610a355760405162461bcd60e51b815260206004820152603360248201527f5472616e73616374696f6e4665653a20557020746f20313025207472616e736160448201527218dd1a5bdb9199594818d85b881899481cd95d606a1b60648201526084016108fa565b60098490556008839055600a80546001600160a01b0319166001600160a01b0384169081179091556040805186815260208101869052908101919091527fd75a7916f83ee976ae8e04e3f9b46c9b16b546303f09f1fc20eccb6cd6bc476d9060600160405180910390a150505050565b600033610630818585610ab88383610e2d565b610ac29190612695565b610f6c565b6000805160206127f9833981519152610adf81611091565b61087a83836114e4565b610af333826114ee565b50565b60095460009015610b0957505060095490565b6008541561082c57620f424060085483610b239190612654565b61058a9190612673565b610b388233836110ce565b61090d82826114ee565b6001600160a01b03811660009081526005602052604081205461058a565b60009182526007602090815260408084206001600160a01b0393909316845291905290205460ff1690565b60606004805461059f906125f3565b60003381610ba88286610e2d565b905083811015610c085760405162461bcd60e51b815260206004820152602560248201527f45524332303a2064656372656173656420616c6c6f77616e63652062656c6f77604482015264207a65726f60d81b60648201526084016108fa565b61084a8286868403610f6c565b600033610630818585611148565b6000805160206127f9833981519152610c3b81611091565b60005b61ffff8116841115610c9057610c7e85858361ffff16818110610c6357610c636126ad565b9050602002016020810190610c78919061240a565b846114e4565b80610c88816126c3565b915050610c3e565b5050505050565b600061058a600b83611636565b83421115610cf45760405162461bcd60e51b815260206004820152601d60248201527f45524332305065726d69743a206578706972656420646561646c696e6500000060448201526064016108fa565b60007f6e71edae12b1b97f4d1f60370fef10105fa2faae0126114a169c64845d6126c9888888610d238c61164b565b6040805160208101969096526001600160a01b0394851690860152929091166060840152608083015260a082015260c0810186905260e0016040516020818303038152906040528051906020012090506000610d7e82611673565b90506000610d8e828787876116c1565b9050896001600160a01b0316816001600160a01b031614610df15760405162461bcd60e51b815260206004820152601e60248201527f45524332305065726d69743a20696e76616c6964207369676e6174757265000060448201526064016108fa565b610dfc8a8a8a610f6c565b50505050505050505050565b600082815260076020526040902060010154610e2381611091565b61087a838361147d565b6001600160a01b03918216600090815260016020908152604080832093909416825291909152205490565b7f23ab0e580195340a5a67800cafa0615701edfa22f79534a52851336e3cf8376a610e8281611091565b61087a600b836116e9565b7fb24c1025622fe38445b605f5c1a9bb02be7f6522d24c8a159e5e47e62dbaaecf610eb781611091565b620f4240821115610f305760405162461bcd60e51b815260206004820152603a60248201527f5472616e73666572436f6e74726f6c3a206d6178696d756d206672616374696f60448201527f6e2069732031302a2a362028657175616c20746f20313030252900000000000060648201526084016108fa565b600f8290556040518281527fa83163ea39ecbdc3af173e3337234fbe2f88b17dca9802ec3186e557d365e2d19060200160405180910390a15050565b6001600160a01b038316610fce5760405162461bcd60e51b8152602060048201526024808201527f45524332303a20617070726f76652066726f6d20746865207a65726f206164646044820152637265737360e01b60648201526084016108fa565b6001600160a01b03821661102f5760405162461bcd60e51b815260206004820152602260248201527f45524332303a20617070726f766520746f20746865207a65726f206164647265604482015261737360f01b60648201526084016108fa565b6001600160a01b0383811660008181526001602090815260408083209487168084529482529182902085905590518481527f8c5be1e5ebec7d5bd14f71427d1e84f3dd0314c0f7b2291e5b200ac8c7c3b92591015b60405180910390a3505050565b610af381336116fe565b60006110b1846001600160a01b03851684611762565b949350505050565b6000610825836001600160a01b03841661177f565b60006110da8484610e2d565b9050600019811461114257818110156111355760405162461bcd60e51b815260206004820152601d60248201527f45524332303a20696e73756666696369656e7420616c6c6f77616e636500000060448201526064016108fa565b6111428484848403610f6c565b50505050565b6001600160a01b0383166111ac5760405162461bcd60e51b815260206004820152602560248201527f45524332303a207472616e736665722066726f6d20746865207a65726f206164604482015264647265737360d81b60648201526084016108fa565b6001600160a01b03821661120e5760405162461bcd60e51b815260206004820152602360248201527f45524332303a207472616e7366657220746f20746865207a65726f206164647260448201526265737360e81b60648201526084016108fa565b6112198383836117ef565b6001600160a01b038316600090815260208190526040902054818110156112525760405162461bcd60e51b81526004016108fa906126e4565b6001600160a01b03808516600090815260208190526040808220858503905591851681529081208054849290611289908490612695565b92505081905550826001600160a01b0316846001600160a01b0316600080516020612819833981519152846040516112c391815260200190565b60405180910390a3611142565b6112da8282610b60565b61090d5760008281526007602090815260408083206001600160a01b03851684529091529020805460ff191660011790556113123390565b6001600160a01b0316816001600160a01b0316837f2f8788117e7eff1d82e926ec794901d17c78024a50270940304540a733656f0d60405160405180910390a45050565b6000306001600160a01b037f0000000000000000000000000000000000000000000000000000000000000000161480156113af57507f000000000000000000000000000000000000000000000000000000000000000046145b156113d957507f000000000000000000000000000000000000000000000000000000000000000090565b50604080517f00000000000000000000000000000000000000000000000000000000000000006020808301919091527f0000000000000000000000000000000000000000000000000000000000000000828401527f000000000000000000000000000000000000000000000000000000000000000060608301524660808301523060a0808401919091528351808403909101815260c0909201909252805191012090565b6114878282610b60565b1561090d5760008281526007602090815260408083206001600160a01b0385168085529252808320805460ff1916905551339285917ff6391f5c32d9c69d2a47ea670b442974b53935d1edc7fd64eb21e047a839171b9190a45050565b61090d82826117fa565b6001600160a01b03821661154e5760405162461bcd60e51b815260206004820152602160248201527f45524332303a206275726e2066726f6d20746865207a65726f206164647265736044820152607360f81b60648201526084016108fa565b61155a826000836117ef565b6001600160a01b038216600090815260208190526040902054818110156115ce5760405162461bcd60e51b815260206004820152602260248201527f45524332303a206275726e20616d6f756e7420657863656564732062616c616e604482015261636560f01b60648201526084016108fa565b6001600160a01b03831660009081526020819052604081208383039055600280548492906115fd90849061263d565b90915550506040518281526000906001600160a01b038516906000805160206128198339815191529060200160405180910390a3505050565b6000610825836001600160a01b038416611887565b6001600160a01b03811660009081526005602052604090208054600181018255905b50919050565b600061058a611680611356565b8360405161190160f01b6020820152602281018390526042810182905260009060620160405160208183030381529060405280519060200120905092915050565b60008060006116d287878787611893565b915091506116df81611980565b5095945050505050565b6000610825836001600160a01b038416611b36565b6117088282610b60565b61090d57611720816001600160a01b03166014611b53565b61172b836020611b53565b60405160200161173c92919061272a565b60408051601f198184030181529082905262461bcd60e51b82526108fa91600401612396565b600082815260028401602052604081208290556110b18484611cef565b6000818152600283016020526040812054801515806117a357506117a38484611887565b6108255760405162461bcd60e51b815260206004820152601e60248201527f456e756d657261626c654d61703a206e6f6e6578697374656e74206b6579000060448201526064016108fa565b61087a838383611cfb565b7f00000000000000000000000000000000000000000000000000000000000000008161182560025490565b61182f9190612695565b111561187d5760405162461bcd60e51b815260206004820152601960248201527f45524332304361707065643a206361702065786365656465640000000000000060448201526064016108fa565b61090d8282611d2d565b60006108258383611e06565b6000807f7fffffffffffffffffffffffffffffff5d576e7357a4501ddfe92f46681b20a08311156118ca5750600090506003611977565b8460ff16601b141580156118e257508460ff16601c14155b156118f35750600090506004611977565b6040805160008082526020820180845289905260ff881692820192909252606081018690526080810185905260019060a0016020604051602081039080840390855afa158015611947573d6000803e3d6000fd5b5050604051601f1901519150506001600160a01b03811661197057600060019250925050611977565b9150600090505b94509492505050565b60008160048111156119945761199461279f565b0361199c5750565b60018160048111156119b0576119b061279f565b036119fd5760405162461bcd60e51b815260206004820152601860248201527f45434453413a20696e76616c6964207369676e6174757265000000000000000060448201526064016108fa565b6002816004811115611a1157611a1161279f565b03611a5e5760405162461bcd60e51b815260206004820152601f60248201527f45434453413a20696e76616c6964207369676e6174757265206c656e6774680060448201526064016108fa565b6003816004811115611a7257611a7261279f565b03611aca5760405162461bcd60e51b815260206004820152602260248201527f45434453413a20696e76616c6964207369676e6174757265202773272076616c604482015261756560f01b60648201526084016108fa565b6004816004811115611ade57611ade61279f565b03610af35760405162461bcd60e51b815260206004820152602260248201527f45434453413a20696e76616c6964207369676e6174757265202776272076616c604482015261756560f01b60648201526084016108fa565b600081815260028301602052604081208190556108258383611e1e565b60606000611b62836002612654565b611b6d906002612695565b67ffffffffffffffff811115611b8557611b856127b5565b6040519080825280601f01601f191660200182016040528015611baf576020820181803683370190505b509050600360fc1b81600081518110611bca57611bca6126ad565b60200101906001600160f81b031916908160001a905350600f60fb1b81600181518110611bf957611bf96126ad565b60200101906001600160f81b031916908160001a9053506000611c1d846002612654565b611c28906001612695565b90505b6001811115611ca0576f181899199a1a9b1b9c1cb0b131b232b360811b85600f1660108110611c5c57611c5c6126ad565b1a60f81b828281518110611c7257611c726126ad565b60200101906001600160f81b031916908160001a90535060049490941c93611c99816127cb565b9050611c2b565b5083156108255760405162461bcd60e51b815260206004820181905260248201527f537472696e67733a20686578206c656e67746820696e73756666696369656e7460448201526064016108fa565b60006108258383611e2a565b6001600160a01b038316611d1857611d133382611e79565b611d22565b611d228382611e79565b61087a8383836120c8565b6001600160a01b038216611d835760405162461bcd60e51b815260206004820152601f60248201527f45524332303a206d696e7420746f20746865207a65726f20616464726573730060448201526064016108fa565b611d8f600083836117ef565b8060026000828254611da19190612695565b90915550506001600160a01b03821660009081526020819052604081208054839290611dce908490612695565b90915550506040518181526001600160a01b038316906000906000805160206128198339815191529060200160405180910390a35050565b60008181526001830160205260408120541515610825565b600061082583836120d2565b6000818152600183016020526040812054611e715750815460018181018455600084815260208082209093018490558454848252828601909352604090209190915561058a565b50600061058a565b611e8282610c97565b15611f11576000611e94600b846110b9565b905080821115611efa5760405162461bcd60e51b815260206004820152602b60248201527f5472616e73666572436f6e74726f6c3a20616d6f756e7420657863656564732060448201526a1cdc195b99081b1a5b5a5d60aa1b60648201526084016108fa565b61114283611f08848461263d565b600b919061109b565b600f54620f424014158015611f3b5750611f396000805160206127f983398151915233610b60565b155b1561090d576000620f4240600f54611f68856001600160a01b031660009081526020819052604090205490565b611f729190612654565b611f7c9190612673565b905060007f0000000000000000000000000000000000000000000000000000000000000000611fcb7f00000000000000000000000000000000000000000000000000000000000000004261263d565b611fd59190612673565b6001600160a01b0385166000908152600e6020526040902060010154909150819003612021576001600160a01b0384166000908152600e602052604090205461201e9084612695565b92505b8183111561208c5760405162461bcd60e51b815260206004820152603260248201527f5472616e73666572436f6e74726f6c3a20616d6f756e742065786365656473206044820152711c195c9a5bd9081cdc195b99081b1a5b5a5d60721b60648201526084016108fa565b60408051808201825293845260208085019283526001600160a01b03959095166000908152600e90955290932091518255509051600190910155565b61087a33826121c5565b600081815260018301602052604081205480156121bb5760006120f660018361263d565b855490915060009061210a9060019061263d565b905081811461216f57600086600001828154811061212a5761212a6126ad565b906000526020600020015490508087600001848154811061214d5761214d6126ad565b6000918252602080832090910192909255918252600188019052604090208390555b8554869080612180576121806127e2565b60019003818190600052602060002001600090559055856001016000868152602001908152602001600020600090556001935050505061058a565b600091505061058a565b6121dd6000805160206127f983398151915283610b60565b61090d57600060085411806121f457506000600954115b1561090d57600061220482610af6565b600a5490915061087a9084906001600160a01b03168361087a83838361222a8382611e79565b61087a8383836001600160a01b0383161561229b576001600160a01b038316600090815260208190526040902054818110156122785760405162461bcd60e51b81526004016108fa906126e4565b6001600160a01b03841660009081526020819052604090209082900390556122b3565b80600260008282546122ad9190612695565b90915550505b6001600160a01b038216156122f5576001600160a01b038216600090815260208190526040812080548392906122ea908490612695565b9091555061230d9050565b8060026000828254612307919061263d565b90915550505b816001600160a01b0316836001600160a01b03166000805160206128198339815191528360405161108491815260200190565b60006020828403121561235257600080fd5b81356001600160e01b03198116811461082557600080fd5b60005b8381101561238557818101518382015260200161236d565b838111156111425750506000910152565b60208152600082518060208401526123b581604085016020870161236a565b601f01601f19169190910160400192915050565b80356001600160a01b038116811461082c57600080fd5b600080604083850312156123f357600080fd5b6123fc836123c9565b946020939093013593505050565b60006020828403121561241c57600080fd5b610825826123c9565b60008060006060848603121561243a57600080fd5b612443846123c9565b9250612451602085016123c9565b9150604084013590509250925092565b60006020828403121561247357600080fd5b5035919050565b6000806040838503121561248d57600080fd5b8235915061249d602084016123c9565b90509250929050565b6000806000606084860312156124bb57600080fd5b83359250602084013591506124d2604085016123c9565b90509250925092565b6000806000604084860312156124f057600080fd5b833567ffffffffffffffff8082111561250857600080fd5b818601915086601f83011261251c57600080fd5b81358181111561252b57600080fd5b8760208260051b850101111561254057600080fd5b6020928301989097509590910135949350505050565b600080600080600080600060e0888a03121561257157600080fd5b61257a886123c9565b9650612588602089016123c9565b95506040880135945060608801359350608088013560ff811681146125ac57600080fd5b9699959850939692959460a0840135945060c09093013592915050565b600080604083850312156125dc57600080fd5b6125e5836123c9565b915061249d602084016123c9565b600181811c9082168061260757607f821691505b60208210810361166d57634e487b7160e01b600052602260045260246000fd5b634e487b7160e01b600052601160045260246000fd5b60008282101561264f5761264f612627565b500390565b600081600019048311821515161561266e5761266e612627565b500290565b60008261269057634e487b7160e01b600052601260045260246000fd5b500490565b600082198211156126a8576126a8612627565b500190565b634e487b7160e01b600052603260045260246000fd5b600061ffff8083168181036126da576126da612627565b6001019392505050565b60208082526026908201527f45524332303a207472616e7366657220616d6f756e7420657863656564732062604082015265616c616e636560d01b606082015260800190565b7f416363657373436f6e74726f6c3a206163636f756e742000000000000000000081526000835161276281601785016020880161236a565b7001034b99036b4b9b9b4b733903937b6329607d1b601791840191820152835161279381602884016020880161236a565b01602801949350505050565b634e487b7160e01b600052602160045260246000fd5b634e487b7160e01b600052604160045260246000fd5b6000816127da576127da612627565b506000190190565b634e487b7160e01b600052603160045260246000fdfe9f2df0fed2c77648de5860a4cc508cd0818c85b8b8a1ab4ceeef8d981c8956a6ddf252ad1be2c89b69c2b068fc378daa952ba7f163c4a11628f55a4df523b3efa2646970667358221220103a24e896c2f445123f636d6a362a08480b902b86ed349dce9c787507b0dc2b64736f6c634300080f0033",
  "linkReferences": {},
  "deployedLinkReferences": {}
}