{
  "_format": "hh-sol-artifact-1",
  "contractName": "BLBToken",
  "sourceName": "contracts/BEP20/BLBToken.sol",
  "abi": [
    {
      "inputs": [
        {
          "internalType": "uint256",
          "name": "_periodTime",
          "type": "uint256"
        }
      ],
      "stateMutability": "nonpayable",
      "type": "constructor"
    },
    {
      "anonymous": false,
      "inputs": [
        {
          "indexed": true,
          "internalType": "address",
          "name": "owner",
          "type": "address"
        },
        {
          "indexed": true,
          "internalType": "address",
          "name": "spender",
          "type": "address"
        },
        {
          "indexed": false,
          "internalType": "uint256",
          "name": "value",
          "type": "uint256"
        }
      ],
      "name": "Approval",
      "type": "event"
    },
    {
      "anonymous": false,
      "inputs": [
        {
          "indexed": false,
          "internalType": "address",
          "name": "addr",
          "type": "address"
        }
      ],
      "name": "District",
      "type": "event"
    },
    {
      "anonymous": false,
      "inputs": [
        {
          "indexed": false,
          "internalType": "address",
          "name": "addr",
          "type": "address"
        },
        {
          "indexed": false,
          "internalType": "uint256",
          "name": "amount",
          "type": "uint256"
        }
      ],
      "name": "Restrict",
      "type": "event"
    },
    {
      "anonymous": false,
      "inputs": [
        {
          "indexed": true,
          "internalType": "bytes32",
          "name": "role",
          "type": "bytes32"
        },
        {
          "indexed": true,
          "internalType": "bytes32",
          "name": "previousAdminRole",
          "type": "bytes32"
        },
        {
          "indexed": true,
          "internalType": "bytes32",
          "name": "newAdminRole",
          "type": "bytes32"
        }
      ],
      "name": "RoleAdminChanged",
      "type": "event"
    },
    {
      "anonymous": false,
      "inputs": [
        {
          "indexed": true,
          "internalType": "bytes32",
          "name": "role",
          "type": "bytes32"
        },
        {
          "indexed": true,
          "internalType": "address",
          "name": "account",
          "type": "address"
        },
        {
          "indexed": true,
          "internalType": "address",
          "name": "sender",
          "type": "address"
        }
      ],
      "name": "RoleGranted",
      "type": "event"
    },
    {
      "anonymous": false,
      "inputs": [
        {
          "indexed": true,
          "internalType": "bytes32",
          "name": "role",
          "type": "bytes32"
        },
        {
          "indexed": true,
          "internalType": "address",
          "name": "account",
          "type": "address"
        },
        {
          "indexed": true,
          "internalType": "address",
          "name": "sender",
          "type": "address"
        }
      ],
      "name": "RoleRevoked",
      "type": "event"
    },
    {
      "anonymous": false,
      "inputs": [
        {
          "indexed": false,
          "internalType": "uint256",
          "name": "fraction",
          "type": "uint256"
        }
      ],
      "name": "SetPeriodTransferFraction",
      "type": "event"
    },
    {
      "anonymous": false,
      "inputs": [
        {
          "indexed": false,
          "internalType": "uint256",
          "name": "_feeAmount",
          "type": "uint256"
        },
        {
          "indexed": false,
          "internalType": "uint256",
          "name": "_feeFraction",
          "type": "uint256"
        },
        {
          "indexed": false,
          "internalType": "address",
          "name": "_feeReceiver",
          "type": "address"
        }
      ],
      "name": "SetTransactionFee",
      "type": "event"
    },
    {
      "anonymous": false,
      "inputs": [
        {
          "indexed": true,
          "internalType": "address",
          "name": "from",
          "type": "address"
        },
        {
          "indexed": true,
          "internalType": "address",
          "name": "to",
          "type": "address"
        },
        {
          "indexed": false,
          "internalType": "uint256",
          "name": "value",
          "type": "uint256"
        }
      ],
      "name": "Transfer",
      "type": "event"
    },
    {
      "inputs": [],
      "name": "DEFAULT_ADMIN_ROLE",
      "outputs": [
        {
          "internalType": "bytes32",
          "name": "",
          "type": "bytes32"
        }
      ],
      "stateMutability": "view",
      "type": "function"
    },
    {
      "inputs": [],
      "name": "DOMAIN_SEPARATOR",
      "outputs": [
        {
          "internalType": "bytes32",
          "name": "",
          "type": "bytes32"
        }
      ],
      "stateMutability": "view",
      "type": "function"
    },
    {
      "inputs": [],
      "name": "MINTER_ROLE",
      "outputs": [
        {
          "internalType": "bytes32",
          "name": "",
          "type": "bytes32"
        }
      ],
      "stateMutability": "view",
      "type": "function"
    },
    {
      "inputs": [],
      "name": "RESTRICTOR_ROLE",
      "outputs": [
        {
          "internalType": "bytes32",
          "name": "",
          "type": "bytes32"
        }
      ],
      "stateMutability": "view",
      "type": "function"
    },
    {
      "inputs": [],
      "name": "TRANSACTION_FEE_SETTER",
      "outputs": [
        {
          "internalType": "bytes32",
          "name": "",
          "type": "bytes32"
        }
      ],
      "stateMutability": "view",
      "type": "function"
    },
    {
      "inputs": [],
      "name": "TRANSFER_LIMIT_SETTER",
      "outputs": [
        {
          "internalType": "bytes32",
          "name": "",
          "type": "bytes32"
        }
      ],
      "stateMutability": "view",
      "type": "function"
    },
    {
      "inputs": [
        {
          "internalType": "address",
          "name": "owner",
          "type": "address"
        },
        {
          "internalType": "address",
          "name": "spender",
          "type": "address"
        }
      ],
      "name": "allowance",
      "outputs": [
        {
          "internalType": "uint256",
          "name": "",
          "type": "uint256"
        }
      ],
      "stateMutability": "view",
      "type": "function"
    },
    {
      "inputs": [
        {
          "internalType": "address",
          "name": "spender",
          "type": "address"
        },
        {
          "internalType": "uint256",
          "name": "amount",
          "type": "uint256"
        }
      ],
      "name": "approve",
      "outputs": [
        {
          "internalType": "bool",
          "name": "",
          "type": "bool"
        }
      ],
      "stateMutability": "nonpayable",
      "type": "function"
    },
    {
      "inputs": [
        {
          "internalType": "address",
          "name": "account",
          "type": "address"
        }
      ],
      "name": "balanceOf",
      "outputs": [
        {
          "internalType": "uint256",
          "name": "",
          "type": "uint256"
        }
      ],
      "stateMutability": "view",
      "type": "function"
    },
    {
      "inputs": [
        {
          "internalType": "uint256",
          "name": "amount",
          "type": "uint256"
        }
      ],
      "name": "burn",
      "outputs": [],
      "stateMutability": "nonpayable",
      "type": "function"
    },
    {
      "inputs": [
        {
          "internalType": "address",
          "name": "account",
          "type": "address"
        },
        {
          "internalType": "uint256",
          "name": "amount",
          "type": "uint256"
        }
      ],
      "name": "burnFrom",
      "outputs": [],
      "stateMutability": "nonpayable",
      "type": "function"
    },
    {
      "inputs": [
        {
          "internalType": "address",
          "name": "addr",
          "type": "address"
        }
      ],
      "name": "canSpend",
      "outputs": [
        {
          "internalType": "uint256",
          "name": "amount",
          "type": "uint256"
        }
      ],
      "stateMutability": "view",
      "type": "function"
    },
    {
      "inputs": [],
      "name": "cap",
      "outputs": [
        {
          "internalType": "uint256",
          "name": "",
          "type": "uint256"
        }
      ],
      "stateMutability": "view",
      "type": "function"
    },
    {
      "inputs": [],
      "name": "decimals",
      "outputs": [
        {
          "internalType": "uint8",
          "name": "",
          "type": "uint8"
        }
      ],
      "stateMutability": "view",
      "type": "function"
    },
    {
      "inputs": [
        {
          "internalType": "address",
          "name": "spender",
          "type": "address"
        },
        {
          "internalType": "uint256",
          "name": "subtractedValue",
          "type": "uint256"
        }
      ],
      "name": "decreaseAllowance",
      "outputs": [
        {
          "internalType": "bool",
          "name": "",
          "type": "bool"
        }
      ],
      "stateMutability": "nonpayable",
      "type": "function"
    },
    {
      "inputs": [
        {
          "internalType": "address",
          "name": "addr",
          "type": "address"
        }
      ],
      "name": "district",
      "outputs": [],
      "stateMutability": "nonpayable",
      "type": "function"
    },
    {
      "inputs": [
        {
          "internalType": "bytes32",
          "name": "role",
          "type": "bytes32"
        }
      ],
      "name": "getRoleAdmin",
      "outputs": [
        {
          "internalType": "bytes32",
          "name": "",
          "type": "bytes32"
        }
      ],
      "stateMutability": "view",
      "type": "function"
    },
    {
      "inputs": [
        {
          "internalType": "bytes32",
          "name": "role",
          "type": "bytes32"
        },
        {
          "internalType": "address",
          "name": "account",
          "type": "address"
        }
      ],
      "name": "grantRole",
      "outputs": [],
      "stateMutability": "nonpayable",
      "type": "function"
    },
    {
      "inputs": [
        {
          "internalType": "bytes32",
          "name": "role",
          "type": "bytes32"
        },
        {
          "internalType": "address",
          "name": "account",
          "type": "address"
        }
      ],
      "name": "hasRole",
      "outputs": [
        {
          "internalType": "bool",
          "name": "",
          "type": "bool"
        }
      ],
      "stateMutability": "view",
      "type": "function"
    },
    {
      "inputs": [
        {
          "internalType": "address",
          "name": "spender",
          "type": "address"
        },
        {
          "internalType": "uint256",
          "name": "addedValue",
          "type": "uint256"
        }
      ],
      "name": "increaseAllowance",
      "outputs": [
        {
          "internalType": "bool",
          "name": "",
          "type": "bool"
        }
      ],
      "stateMutability": "nonpayable",
      "type": "function"
    },
    {
      "inputs": [
        {
          "internalType": "address",
          "name": "addr",
          "type": "address"
        }
      ],
      "name": "isRestricted",
      "outputs": [
        {
          "internalType": "bool",
          "name": "",
          "type": "bool"
        }
      ],
      "stateMutability": "view",
      "type": "function"
    },
    {
      "inputs": [
        {
          "internalType": "address",
          "name": "account",
          "type": "address"
        },
        {
          "internalType": "uint256",
          "name": "amount",
          "type": "uint256"
        }
      ],
      "name": "mint",
      "outputs": [],
      "stateMutability": "nonpayable",
      "type": "function"
    },
    {
      "inputs": [
        {
          "internalType": "address[]",
          "name": "accounts",
          "type": "address[]"
        },
        {
          "internalType": "uint256",
          "name": "amount",
          "type": "uint256"
        }
      ],
      "name": "mintBatch",
      "outputs": [],
      "stateMutability": "nonpayable",
      "type": "function"
    },
    {
      "inputs": [],
      "name": "name",
      "outputs": [
        {
          "internalType": "string",
          "name": "",
          "type": "string"
        }
      ],
      "stateMutability": "view",
      "type": "function"
    },
    {
      "inputs": [
        {
          "internalType": "address",
          "name": "owner",
          "type": "address"
        }
      ],
      "name": "nonces",
      "outputs": [
        {
          "internalType": "uint256",
          "name": "",
          "type": "uint256"
        }
      ],
      "stateMutability": "view",
      "type": "function"
    },
    {
      "inputs": [
        {
          "internalType": "address",
          "name": "owner",
          "type": "address"
        },
        {
          "internalType": "address",
          "name": "spender",
          "type": "address"
        },
        {
          "internalType": "uint256",
          "name": "value",
          "type": "uint256"
        },
        {
          "internalType": "uint256",
          "name": "deadline",
          "type": "uint256"
        },
        {
          "internalType": "uint8",
          "name": "v",
          "type": "uint8"
        },
        {
          "internalType": "bytes32",
          "name": "r",
          "type": "bytes32"
        },
        {
          "internalType": "bytes32",
          "name": "s",
          "type": "bytes32"
        }
      ],
      "name": "permit",
      "outputs": [],
      "stateMutability": "nonpayable",
      "type": "function"
    },
    {
      "inputs": [
        {
          "internalType": "bytes32",
          "name": "role",
          "type": "bytes32"
        },
        {
          "internalType": "address",
          "name": "account",
          "type": "address"
        }
      ],
      "name": "renounceRole",
      "outputs": [],
      "stateMutability": "nonpayable",
      "type": "function"
    },
    {
      "inputs": [
        {
          "internalType": "address",
          "name": "addr",
          "type": "address"
        },
        {
          "internalType": "uint256",
          "name": "amount",
          "type": "uint256"
        }
      ],
      "name": "restrict",
      "outputs": [],
      "stateMutability": "nonpayable",
      "type": "function"
    },
    {
      "inputs": [
        {
          "internalType": "bytes32",
          "name": "role",
          "type": "bytes32"
        },
        {
          "internalType": "address",
          "name": "account",
          "type": "address"
        }
      ],
      "name": "revokeRole",
      "outputs": [],
      "stateMutability": "nonpayable",
      "type": "function"
    },
    {
      "inputs": [
        {
          "internalType": "uint256",
          "name": "fraction",
          "type": "uint256"
        }
      ],
      "name": "setPeriodTransferFraction",
      "outputs": [],
      "stateMutability": "nonpayable",
      "type": "function"
    },
    {
      "inputs": [
        {
          "internalType": "uint256",
          "name": "_feeAmount",
          "type": "uint256"
        },
        {
          "internalType": "uint256",
          "name": "_feeFraction",
          "type": "uint256"
        },
        {
          "internalType": "address",
          "name": "_feeReceiver",
          "type": "address"
        }
      ],
      "name": "setTransactionFee",
      "outputs": [],
      "stateMutability": "nonpayable",
      "type": "function"
    },
    {
      "inputs": [
        {
          "internalType": "bytes4",
          "name": "interfaceId",
          "type": "bytes4"
        }
      ],
      "name": "supportsInterface",
      "outputs": [
        {
          "internalType": "bool",
          "name": "",
          "type": "bool"
        }
      ],
      "stateMutability": "view",
      "type": "function"
    },
    {
      "inputs": [],
      "name": "symbol",
      "outputs": [
        {
          "internalType": "string",
          "name": "",
          "type": "string"
        }
      ],
      "stateMutability": "view",
      "type": "function"
    },
    {
      "inputs": [],
      "name": "totalSupply",
      "outputs": [
        {
          "internalType": "uint256",
          "name": "",
          "type": "uint256"
        }
      ],
      "stateMutability": "view",
      "type": "function"
    },
    {
      "inputs": [
        {
          "internalType": "uint256",
          "name": "transferingAmount",
          "type": "uint256"
        }
      ],
      "name": "transactionFee",
      "outputs": [
        {
          "internalType": "uint256",
          "name": "fee",
          "type": "uint256"
        }
      ],
      "stateMutability": "view",
      "type": "function"
    },
    {
      "inputs": [
        {
          "internalType": "address",
          "name": "to",
          "type": "address"
        },
        {
          "internalType": "uint256",
          "name": "amount",
          "type": "uint256"
        }
      ],
      "name": "transfer",
      "outputs": [
        {
          "internalType": "bool",
          "name": "",
          "type": "bool"
        }
      ],
      "stateMutability": "nonpayable",
      "type": "function"
    },
    {
      "inputs": [
        {
          "internalType": "address",
          "name": "from",
          "type": "address"
        },
        {
          "internalType": "address",
          "name": "to",
          "type": "address"
        },
        {
          "internalType": "uint256",
          "name": "amount",
          "type": "uint256"
        }
      ],
      "name": "transferFrom",
      "outputs": [
        {
          "internalType": "bool",
          "name": "",
          "type": "bool"
        }
      ],
      "stateMutability": "nonpayable",
      "type": "function"
    }
  ],
  "bytecode": "0x6101a06040523480156200001257600080fd5b5060405162002f1338038062002f13833981016040819052620000359162000396565b806040518060400160405280600f81526020016e109bdd5b991b195cdcc815dbdc9b19608a1b81525080604051806040016040528060018152602001603160f81b81525062000089620002d960201b60201c565b6200009690600a620004c3565b620000a69063dbf0ee80620004db565b6040518060400160405280600f81526020016e109bdd5b991b195cdcc815dbdc9b19608a1b8152506040518060400160405280600381526020016221262160e91b8152508160039081620000fb9190620005a2565b5060046200010a8282620005a2565b50505060008111620001625760405162461bcd60e51b815260206004820152601560248201527f45524332304361707065643a2063617020697320300000000000000000000000604482015260640160405180910390fd5b60805281516020808401919091208251918301919091206101008290526101208190524660c0527f8b73c3c69bb8fe3d512ecc4cf759cc79239f7b179b0ffacaa9a75d522b39400f620001fa8184846040805160208101859052908101839052606081018290524660808201523060a082015260009060c0016040516020818303038152906040528051906020012090509392505050565b60a0523060e0526101405250504261016052505050610180523362000221600082620002de565b6200024d7f9f2df0fed2c77648de5860a4cc508cd0818c85b8b8a1ab4ceeef8d981c8956a682620002de565b620002797fd0ac125722f4b4565ab5e91b234e50c4c6f541672aea816ba090a0ea349ed93f82620002de565b620002a57fb24c1025622fe38445b605f5c1a9bb02be7f6522d24c8a159e5e47e62dbaaecf82620002de565b620002d17f23ab0e580195340a5a67800cafa0615701edfa22f79534a52851336e3cf8376a82620002de565b50506200066e565b601290565b620002ea828262000369565b620003655760008281526007602090815260408083206001600160a01b03851684529091529020805460ff19166001179055620003243390565b6001600160a01b0316816001600160a01b0316837f2f8788117e7eff1d82e926ec794901d17c78024a50270940304540a733656f0d60405160405180910390a45b5050565b60008281526007602090815260408083206001600160a01b038516845290915290205460ff165b92915050565b600060208284031215620003a957600080fd5b5051919050565b634e487b7160e01b600052601160045260246000fd5b600181815b8085111562000407578160001904821115620003eb57620003eb620003b0565b80851615620003f957918102915b93841c9390800290620003cb565b509250929050565b600082620004205750600162000390565b816200042f5750600062000390565b8160018114620004485760028114620004535762000473565b600191505062000390565b60ff841115620004675762000467620003b0565b50506001821b62000390565b5060208310610133831016604e8410600b841016171562000498575081810a62000390565b620004a48383620003c6565b8060001904821115620004bb57620004bb620003b0565b029392505050565b6000620004d460ff8416836200040f565b9392505050565b6000816000190483118215151615620004f857620004f8620003b0565b500290565b634e487b7160e01b600052604160045260246000fd5b600181811c908216806200052857607f821691505b6020821081036200054957634e487b7160e01b600052602260045260246000fd5b50919050565b601f8211156200059d57600081815260208120601f850160051c81016020861015620005785750805b601f850160051c820191505b81811015620005995782815560010162000584565b5050505b505050565b81516001600160401b03811115620005be57620005be620004fd565b620005d681620005cf845462000513565b846200054f565b602080601f8311600181146200060e5760008415620005f55750858301515b600019600386901b1c1916600185901b17855562000599565b600085815260208120601f198616915b828110156200063f578886015182559484019460019091019084016200061e565b50858210156200065e5787850151600019600388901b60f8161c191681555b5050505050600190811b01905550565b60805160a05160c05160e0516101005161012051610140516101605161018051612818620006fb600039600081816107870152611f3d0152600081816107ab0152611f61015260006113cc0152600061141b015260006113f60152600061134f01526000611379015260006113a301526000818161033b015281816106f901526117e801526128186000f3fe608060405234801561001057600080fd5b50600436106102275760003560e01c806342966c6811610130578063a457c2d7116100b8578063d53913931161007c578063d5391393146104f8578063d547741f1461050d578063dd62ed3e14610520578063e162533c14610533578063fad71be21461054657600080fd5b8063a457c2d714610499578063a9059cbb146104ac578063b6afc4dc146104bf578063c01bc982146104d2578063d505accf146104e557600080fd5b806379cc6790116100ff57806379cc6790146104505780637ecebe001461046357806391d148541461047657806395d89b4114610489578063a217fddf1461049157600080fd5b806342966c68146103da57806351bcee27146103ed5780635d1edb871461041457806370a082311461042757600080fd5b80632f2ff15d116101b357806336568abe1161018257806336568abe14610367578063367065de1461037a578063395093511461038d5780633e0b2cda146103a057806340c10f19146103c757600080fd5b80632f2ff15d14610317578063313ce5671461032a578063355274ea146103395780633644e5151461035f57600080fd5b80631681f830116101fa5780631681f830146102b157806318160ddd146102c6578063234eaedc146102ce57806323b872dd146102e1578063248a9ca3146102f457600080fd5b806301ffc9a71461022c57806306fdde0314610254578063095ea7b3146102695780630ecbd0331461027c575b600080fd5b61023f61023a3660046122ea565b610559565b60405190151581526020015b60405180910390f35b61025c610590565b60405161024b9190612340565b61023f61027736600461238a565b610622565b6102a37fd0ac125722f4b4565ab5e91b234e50c4c6f541672aea816ba090a0ea349ed93f81565b60405190815260200161024b565b6102c46102bf36600461238a565b61063a565b005b6002546102a3565b6102a36102dc3660046123b4565b6106b8565b61023f6102ef3660046123cf565b610831565b6102a361030236600461240b565b60009081526007602052604090206001015490565b6102c4610325366004612424565b610855565b6040516012815260200161024b565b7f00000000000000000000000000000000000000000000000000000000000000006102a3565b6102a361087f565b6102c4610375366004612424565b61088e565b6102c4610388366004612450565b610911565b61023f61039b36600461238a565b610aa5565b6102a37fb24c1025622fe38445b605f5c1a9bb02be7f6522d24c8a159e5e47e62dbaaecf81565b6102c46103d536600461238a565b610ac7565b6102c46103e836600461240b565b610ae9565b6102a37f23ab0e580195340a5a67800cafa0615701edfa22f79534a52851336e3cf8376a81565b6102a361042236600461240b565b610af6565b6102a36104353660046123b4565b6001600160a01b031660009081526020819052604090205490565b6102c461045e36600461238a565b610b2d565b6102a36104713660046123b4565b610b42565b61023f610484366004612424565b610b60565b61025c610b8b565b6102a3600081565b61023f6104a736600461238a565b610b9a565b61023f6104ba36600461238a565b610c15565b6102c46104cd366004612485565b610c23565b61023f6104e03660046123b4565b610c97565b6102c46104f3366004612500565b610ca4565b6102a36000805160206127a383398151915281565b6102c461051b366004612424565b610e08565b6102a361052e366004612573565b610e2d565b6102c46105413660046123b4565b610e58565b6102c461055436600461240b565b610e8d565b60006001600160e01b03198216637965db0b60e01b148061058a57506301ffc9a760e01b6001600160e01b03198316145b92915050565b60606003805461059f9061259d565b80601f01602080910402602001604051908101604052809291908181526020018280546105cb9061259d565b80156106185780601f106105ed57610100808354040283529160200191610618565b820191906000526020600020905b8154815290600101906020018083116105fb57829003601f168201915b5050505050905090565b600033610630818585610f58565b5060019392505050565b7f23ab0e580195340a5a67800cafa0615701edfa22f79534a52851336e3cf8376a6106648161107d565b610670600b8484611087565b50604080516001600160a01b0385168152602081018490527fa1b8d777c2527547849718a04f45b8e5b0f29119c47f9298b20a85f0ad275424910160405180910390a1505050565b60006106c382610c97565b156106d35761058a600b836110a5565b6106eb6000805160206127a383398151915233610b60565b1561071d5760025461058a907f00000000000000000000000000000000000000000000000000000000000000006125e7565b600f54620f424003610747576001600160a01b03821660009081526020819052604090205461058a565b6000620f4240600f5461076f856001600160a01b031660009081526020819052604090205490565b61077991906125fe565b610783919061261d565b90507f00000000000000000000000000000000000000000000000000000000000000006107d07f0000000000000000000000000000000000000000000000000000000000000000426125e7565b6107da919061261d565b6001600160a01b0384166000908152600e602052604090206001015403610823576001600160a01b0383166000908152600e602052604090205461081e90826125e7565b610825565b805b9392505050565b919050565b60003361083f8582856110ba565b61084a858585611134565b506001949350505050565b6000828152600760205260409020600101546108708161107d565b61087a83836112bc565b505050565b6000610889611342565b905090565b6001600160a01b03811633146109035760405162461bcd60e51b815260206004820152602f60248201527f416363657373436f6e74726f6c3a2063616e206f6e6c792072656e6f756e636560448201526e103937b632b9903337b91039b2b63360891b60648201526084015b60405180910390fd5b61090d8282611469565b5050565b7fd0ac125722f4b4565ab5e91b234e50c4c6f541672aea816ba090a0ea349ed93f61093b8161107d565b821580610946575083155b6109c65760405162461bcd60e51b815260206004820152604560248201527f5472616e73616374696f6e4665653a2043616e6e6f742073657420666565416d60448201527f6f756e7420616e64206665654672616374696f6e206174207468652073616d656064820152642074696d6560d81b608482015260a4016108fa565b620186a0831115610a355760405162461bcd60e51b815260206004820152603360248201527f5472616e73616374696f6e4665653a20557020746f20313025207472616e736160448201527218dd1a5bdb9199594818d85b881899481cd95d606a1b60648201526084016108fa565b60098490556008839055600a80546001600160a01b0319166001600160a01b0384169081179091556040805186815260208101869052908101919091527fd75a7916f83ee976ae8e04e3f9b46c9b16b546303f09f1fc20eccb6cd6bc476d9060600160405180910390a150505050565b600033610630818585610ab88383610e2d565b610ac2919061263f565b610f58565b6000805160206127a3833981519152610adf8161107d565b61087a83836114d0565b610af333826114da565b50565b60095460009015610b0957505060095490565b6008541561082c57620f424060085483610b2391906125fe565b61058a919061261d565b610b388233836110ba565b61090d82826114da565b6001600160a01b03811660009081526005602052604081205461058a565b60009182526007602090815260408084206001600160a01b0393909316845291905290205460ff1690565b60606004805461059f9061259d565b60003381610ba88286610e2d565b905083811015610c085760405162461bcd60e51b815260206004820152602560248201527f45524332303a2064656372656173656420616c6c6f77616e63652062656c6f77604482015264207a65726f60d81b60648201526084016108fa565b61084a8286868403610f58565b600033610630818585611134565b6000805160206127a3833981519152610c3b8161107d565b60005b61ffff8116841115610c9057610c7e85858361ffff16818110610c6357610c63612657565b9050602002016020810190610c7891906123b4565b846114d0565b80610c888161266d565b915050610c3e565b5050505050565b600061058a600b83611622565b83421115610cf45760405162461bcd60e51b815260206004820152601d60248201527f45524332305065726d69743a206578706972656420646561646c696e6500000060448201526064016108fa565b60007f6e71edae12b1b97f4d1f60370fef10105fa2faae0126114a169c64845d6126c9888888610d238c611637565b6040805160208101969096526001600160a01b0394851690860152929091166060840152608083015260a082015260c0810186905260e0016040516020818303038152906040528051906020012090506000610d7e8261165f565b90506000610d8e828787876116ad565b9050896001600160a01b0316816001600160a01b031614610df15760405162461bcd60e51b815260206004820152601e60248201527f45524332305065726d69743a20696e76616c6964207369676e6174757265000060448201526064016108fa565b610dfc8a8a8a610f58565b50505050505050505050565b600082815260076020526040902060010154610e238161107d565b61087a8383611469565b6001600160a01b03918216600090815260016020908152604080832093909416825291909152205490565b7f23ab0e580195340a5a67800cafa0615701edfa22f79534a52851336e3cf8376a610e828161107d565b61087a600b836116d5565b7fb24c1025622fe38445b605f5c1a9bb02be7f6522d24c8a159e5e47e62dbaaecf610eb78161107d565b620f4240821115610f1c5760405162461bcd60e51b815260206004820152602960248201527f6d6178696d756d206672616374696f6e2069732031302a2a362028657175616c60448201526820746f20313030252960b81b60648201526084016108fa565b600f8290556040518281527fa83163ea39ecbdc3af173e3337234fbe2f88b17dca9802ec3186e557d365e2d19060200160405180910390a15050565b6001600160a01b038316610fba5760405162461bcd60e51b8152602060048201526024808201527f45524332303a20617070726f76652066726f6d20746865207a65726f206164646044820152637265737360e01b60648201526084016108fa565b6001600160a01b03821661101b5760405162461bcd60e51b815260206004820152602260248201527f45524332303a20617070726f766520746f20746865207a65726f206164647265604482015261737360f01b60648201526084016108fa565b6001600160a01b0383811660008181526001602090815260408083209487168084529482529182902085905590518481527f8c5be1e5ebec7d5bd14f71427d1e84f3dd0314c0f7b2291e5b200ac8c7c3b92591015b60405180910390a3505050565b610af381336116ea565b600061109d846001600160a01b0385168461174e565b949350505050565b6000610825836001600160a01b03841661176b565b60006110c68484610e2d565b9050600019811461112e57818110156111215760405162461bcd60e51b815260206004820152601d60248201527f45524332303a20696e73756666696369656e7420616c6c6f77616e636500000060448201526064016108fa565b61112e8484848403610f58565b50505050565b6001600160a01b0383166111985760405162461bcd60e51b815260206004820152602560248201527f45524332303a207472616e736665722066726f6d20746865207a65726f206164604482015264647265737360d81b60648201526084016108fa565b6001600160a01b0382166111fa5760405162461bcd60e51b815260206004820152602360248201527f45524332303a207472616e7366657220746f20746865207a65726f206164647260448201526265737360e81b60648201526084016108fa565b6112058383836117db565b6001600160a01b0383166000908152602081905260409020548181101561123e5760405162461bcd60e51b81526004016108fa9061268e565b6001600160a01b0380851660009081526020819052604080822085850390559185168152908120805484929061127590849061263f565b92505081905550826001600160a01b0316846001600160a01b03166000805160206127c3833981519152846040516112af91815260200190565b60405180910390a361112e565b6112c68282610b60565b61090d5760008281526007602090815260408083206001600160a01b03851684529091529020805460ff191660011790556112fe3390565b6001600160a01b0316816001600160a01b0316837f2f8788117e7eff1d82e926ec794901d17c78024a50270940304540a733656f0d60405160405180910390a45050565b6000306001600160a01b037f00000000000000000000000000000000000000000000000000000000000000001614801561139b57507f000000000000000000000000000000000000000000000000000000000000000046145b156113c557507f000000000000000000000000000000000000000000000000000000000000000090565b50604080517f00000000000000000000000000000000000000000000000000000000000000006020808301919091527f0000000000000000000000000000000000000000000000000000000000000000828401527f000000000000000000000000000000000000000000000000000000000000000060608301524660808301523060a0808401919091528351808403909101815260c0909201909252805191012090565b6114738282610b60565b1561090d5760008281526007602090815260408083206001600160a01b0385168085529252808320805460ff1916905551339285917ff6391f5c32d9c69d2a47ea670b442974b53935d1edc7fd64eb21e047a839171b9190a45050565b61090d82826117e6565b6001600160a01b03821661153a5760405162461bcd60e51b815260206004820152602160248201527f45524332303a206275726e2066726f6d20746865207a65726f206164647265736044820152607360f81b60648201526084016108fa565b611546826000836117db565b6001600160a01b038216600090815260208190526040902054818110156115ba5760405162461bcd60e51b815260206004820152602260248201527f45524332303a206275726e20616d6f756e7420657863656564732062616c616e604482015261636560f01b60648201526084016108fa565b6001600160a01b03831660009081526020819052604081208383039055600280548492906115e99084906125e7565b90915550506040518281526000906001600160a01b038516906000805160206127c38339815191529060200160405180910390a3505050565b6000610825836001600160a01b038416611873565b6001600160a01b03811660009081526005602052604090208054600181018255905b50919050565b600061058a61166c611342565b8360405161190160f01b6020820152602281018390526042810182905260009060620160405160208183030381529060405280519060200120905092915050565b60008060006116be8787878761187f565b915091506116cb8161196c565b5095945050505050565b6000610825836001600160a01b038416611b22565b6116f48282610b60565b61090d5761170c816001600160a01b03166014611b3f565b611717836020611b3f565b6040516020016117289291906126d4565b60408051601f198184030181529082905262461bcd60e51b82526108fa91600401612340565b6000828152600284016020526040812082905561109d8484611cdb565b60008181526002830160205260408120548015158061178f575061178f8484611873565b6108255760405162461bcd60e51b815260206004820152601e60248201527f456e756d657261626c654d61703a206e6f6e6578697374656e74206b6579000060448201526064016108fa565b61087a838383611ce7565b7f00000000000000000000000000000000000000000000000000000000000000008161181160025490565b61181b919061263f565b11156118695760405162461bcd60e51b815260206004820152601960248201527f45524332304361707065643a206361702065786365656465640000000000000060448201526064016108fa565b61090d8282611cfc565b60006108258383611dd5565b6000807f7fffffffffffffffffffffffffffffff5d576e7357a4501ddfe92f46681b20a08311156118b65750600090506003611963565b8460ff16601b141580156118ce57508460ff16601c14155b156118df5750600090506004611963565b6040805160008082526020820180845289905260ff881692820192909252606081018690526080810185905260019060a0016020604051602081039080840390855afa158015611933573d6000803e3d6000fd5b5050604051601f1901519150506001600160a01b03811661195c57600060019250925050611963565b9150600090505b94509492505050565b600081600481111561198057611980612749565b036119885750565b600181600481111561199c5761199c612749565b036119e95760405162461bcd60e51b815260206004820152601860248201527f45434453413a20696e76616c6964207369676e6174757265000000000000000060448201526064016108fa565b60028160048111156119fd576119fd612749565b03611a4a5760405162461bcd60e51b815260206004820152601f60248201527f45434453413a20696e76616c6964207369676e6174757265206c656e6774680060448201526064016108fa565b6003816004811115611a5e57611a5e612749565b03611ab65760405162461bcd60e51b815260206004820152602260248201527f45434453413a20696e76616c6964207369676e6174757265202773272076616c604482015261756560f01b60648201526084016108fa565b6004816004811115611aca57611aca612749565b03610af35760405162461bcd60e51b815260206004820152602260248201527f45434453413a20696e76616c6964207369676e6174757265202776272076616c604482015261756560f01b60648201526084016108fa565b600081815260028301602052604081208190556108258383611ded565b60606000611b4e8360026125fe565b611b5990600261263f565b67ffffffffffffffff811115611b7157611b7161275f565b6040519080825280601f01601f191660200182016040528015611b9b576020820181803683370190505b509050600360fc1b81600081518110611bb657611bb6612657565b60200101906001600160f81b031916908160001a905350600f60fb1b81600181518110611be557611be5612657565b60200101906001600160f81b031916908160001a9053506000611c098460026125fe565b611c1490600161263f565b90505b6001811115611c8c576f181899199a1a9b1b9c1cb0b131b232b360811b85600f1660108110611c4857611c48612657565b1a60f81b828281518110611c5e57611c5e612657565b60200101906001600160f81b031916908160001a90535060049490941c93611c8581612775565b9050611c17565b5083156108255760405162461bcd60e51b815260206004820181905260248201527f537472696e67733a20686578206c656e67746820696e73756666696369656e7460448201526064016108fa565b60006108258383611df9565b611cf18382611e48565b61087a838383612072565b6001600160a01b038216611d525760405162461bcd60e51b815260206004820152601f60248201527f45524332303a206d696e7420746f20746865207a65726f20616464726573730060448201526064016108fa565b611d5e600083836117db565b8060026000828254611d70919061263f565b90915550506001600160a01b03821660009081526020819052604081208054839290611d9d90849061263f565b90915550506040518181526001600160a01b038316906000906000805160206127c38339815191529060200160405180910390a35050565b60008181526001830160205260408120541515610825565b6000610825838361207c565b6000818152600183016020526040812054611e405750815460018181018455600084815260208082209093018490558454848252828601909352604090209190915561058a565b50600061058a565b611e5182610c97565b15611ecc576000611e63600b846110a5565b905080821115611eb55760405162461bcd60e51b815260206004820152601a60248201527f616d6f756e742065786365656473207370656e64206c696d697400000000000060448201526064016108fa565b61112e83611ec384846125e7565b600b9190611087565b600f54620f424014158015611ef65750611ef46000805160206127a383398151915233610b60565b155b1561090d576000620f4240600f54611f23856001600160a01b031660009081526020819052604090205490565b611f2d91906125fe565b611f37919061261d565b905060007f0000000000000000000000000000000000000000000000000000000000000000611f867f0000000000000000000000000000000000000000000000000000000000000000426125e7565b611f90919061261d565b6001600160a01b0385166000908152600e6020526040902060010154909150819003611fdc576001600160a01b0384166000908152600e6020526040902054611fd9908461263f565b92505b818311156120365760405162461bcd60e51b815260206004820152602160248201527f616d6f756e74206578636565647320706572696f64207370656e64206c696d696044820152601d60fa1b60648201526084016108fa565b60408051808201825293845260208085019283526001600160a01b03959095166000908152600e90955290932091518255509051600190910155565b61087a338261216f565b600081815260018301602052604081205480156121655760006120a06001836125e7565b85549091506000906120b4906001906125e7565b90508181146121195760008660000182815481106120d4576120d4612657565b90600052602060002001549050808760000184815481106120f7576120f7612657565b6000918252602080832090910192909255918252600188019052604090208390555b855486908061212a5761212a61278c565b60019003818190600052602060002001600090559055856001016000868152602001908152602001600020600090556001935050505061058a565b600091505061058a565b6121876000805160206127a383398151915283610b60565b61090d576000600854118061219e57506000600954115b1561090d5760006121ae82610af6565b600a5490915061087a9084906001600160a01b03168361087a8383836121d48382611e48565b61087a8383836001600160a01b03831615612245576001600160a01b038316600090815260208190526040902054818110156122225760405162461bcd60e51b81526004016108fa9061268e565b6001600160a01b038416600090815260208190526040902090829003905561225d565b8060026000828254612257919061263f565b90915550505b6001600160a01b0382161561229f576001600160a01b0382166000908152602081905260408120805483929061229490849061263f565b909155506122b79050565b80600260008282546122b191906125e7565b90915550505b816001600160a01b0316836001600160a01b03166000805160206127c38339815191528360405161107091815260200190565b6000602082840312156122fc57600080fd5b81356001600160e01b03198116811461082557600080fd5b60005b8381101561232f578181015183820152602001612317565b8381111561112e5750506000910152565b602081526000825180602084015261235f816040850160208701612314565b601f01601f19169190910160400192915050565b80356001600160a01b038116811461082c57600080fd5b6000806040838503121561239d57600080fd5b6123a683612373565b946020939093013593505050565b6000602082840312156123c657600080fd5b61082582612373565b6000806000606084860312156123e457600080fd5b6123ed84612373565b92506123fb60208501612373565b9150604084013590509250925092565b60006020828403121561241d57600080fd5b5035919050565b6000806040838503121561243757600080fd5b8235915061244760208401612373565b90509250929050565b60008060006060848603121561246557600080fd5b833592506020840135915061247c60408501612373565b90509250925092565b60008060006040848603121561249a57600080fd5b833567ffffffffffffffff808211156124b257600080fd5b818601915086601f8301126124c657600080fd5b8135818111156124d557600080fd5b8760208260051b85010111156124ea57600080fd5b6020928301989097509590910135949350505050565b600080600080600080600060e0888a03121561251b57600080fd5b61252488612373565b965061253260208901612373565b95506040880135945060608801359350608088013560ff8116811461255657600080fd5b9699959850939692959460a0840135945060c09093013592915050565b6000806040838503121561258657600080fd5b61258f83612373565b915061244760208401612373565b600181811c908216806125b157607f821691505b60208210810361165957634e487b7160e01b600052602260045260246000fd5b634e487b7160e01b600052601160045260246000fd5b6000828210156125f9576125f96125d1565b500390565b6000816000190483118215151615612618576126186125d1565b500290565b60008261263a57634e487b7160e01b600052601260045260246000fd5b500490565b60008219821115612652576126526125d1565b500190565b634e487b7160e01b600052603260045260246000fd5b600061ffff808316818103612684576126846125d1565b6001019392505050565b60208082526026908201527f45524332303a207472616e7366657220616d6f756e7420657863656564732062604082015265616c616e636560d01b606082015260800190565b7f416363657373436f6e74726f6c3a206163636f756e742000000000000000000081526000835161270c816017850160208801612314565b7001034b99036b4b9b9b4b733903937b6329607d1b601791840191820152835161273d816028840160208801612314565b01602801949350505050565b634e487b7160e01b600052602160045260246000fd5b634e487b7160e01b600052604160045260246000fd5b600081612784576127846125d1565b506000190190565b634e487b7160e01b600052603160045260246000fdfe9f2df0fed2c77648de5860a4cc508cd0818c85b8b8a1ab4ceeef8d981c8956a6ddf252ad1be2c89b69c2b068fc378daa952ba7f163c4a11628f55a4df523b3efa264697066735822122064c37621a1057d187d8ce436c15c95a233cbdc5f8c76e5fd11b32b3187d59b4664736f6c634300080f0033",
  "linkReferences": {},
  "deployedLinkReferences": {}
}