{
  "_format": "hh-sol-artifact-1",
  "contractName": "BLBToken",
  "sourceName": "contracts/BEP20/BLBToken.sol",
  "abi": [
    {
      "inputs": [
        {
          "internalType": "address",
          "name": "initialAdmin",
          "type": "address"
        }
      ],
      "stateMutability": "nonpayable",
      "type": "constructor"
    },
    {
      "anonymous": false,
      "inputs": [
        {
          "indexed": true,
          "internalType": "address",
          "name": "owner",
          "type": "address"
        },
        {
          "indexed": true,
          "internalType": "address",
          "name": "spender",
          "type": "address"
        },
        {
          "indexed": false,
          "internalType": "uint256",
          "name": "value",
          "type": "uint256"
        }
      ],
      "name": "Approval",
      "type": "event"
    },
    {
      "anonymous": false,
      "inputs": [
        {
          "indexed": false,
          "internalType": "address",
          "name": "addr",
          "type": "address"
        }
      ],
      "name": "District",
      "type": "event"
    },
    {
      "anonymous": false,
      "inputs": [
        {
          "indexed": false,
          "internalType": "address",
          "name": "addr",
          "type": "address"
        },
        {
          "indexed": false,
          "internalType": "uint256",
          "name": "amount",
          "type": "uint256"
        }
      ],
      "name": "Restrict",
      "type": "event"
    },
    {
      "anonymous": false,
      "inputs": [
        {
          "indexed": true,
          "internalType": "bytes32",
          "name": "role",
          "type": "bytes32"
        },
        {
          "indexed": true,
          "internalType": "bytes32",
          "name": "previousAdminRole",
          "type": "bytes32"
        },
        {
          "indexed": true,
          "internalType": "bytes32",
          "name": "newAdminRole",
          "type": "bytes32"
        }
      ],
      "name": "RoleAdminChanged",
      "type": "event"
    },
    {
      "anonymous": false,
      "inputs": [
        {
          "indexed": true,
          "internalType": "bytes32",
          "name": "role",
          "type": "bytes32"
        },
        {
          "indexed": true,
          "internalType": "address",
          "name": "account",
          "type": "address"
        },
        {
          "indexed": true,
          "internalType": "address",
          "name": "sender",
          "type": "address"
        }
      ],
      "name": "RoleGranted",
      "type": "event"
    },
    {
      "anonymous": false,
      "inputs": [
        {
          "indexed": true,
          "internalType": "bytes32",
          "name": "role",
          "type": "bytes32"
        },
        {
          "indexed": true,
          "internalType": "address",
          "name": "account",
          "type": "address"
        },
        {
          "indexed": true,
          "internalType": "address",
          "name": "sender",
          "type": "address"
        }
      ],
      "name": "RoleRevoked",
      "type": "event"
    },
    {
      "anonymous": false,
      "inputs": [
        {
          "indexed": false,
          "internalType": "uint256",
          "name": "fraction",
          "type": "uint256"
        }
      ],
      "name": "SetMonthlyTransferLimit",
      "type": "event"
    },
    {
      "anonymous": false,
      "inputs": [
        {
          "indexed": false,
          "internalType": "uint256",
          "name": "_feeAmount",
          "type": "uint256"
        },
        {
          "indexed": false,
          "internalType": "uint256",
          "name": "_feeFraction",
          "type": "uint256"
        },
        {
          "indexed": false,
          "internalType": "address",
          "name": "_feeReceiver",
          "type": "address"
        }
      ],
      "name": "SetTransactionFee",
      "type": "event"
    },
    {
      "anonymous": false,
      "inputs": [
        {
          "indexed": true,
          "internalType": "address",
          "name": "from",
          "type": "address"
        },
        {
          "indexed": true,
          "internalType": "address",
          "name": "to",
          "type": "address"
        },
        {
          "indexed": false,
          "internalType": "uint256",
          "name": "value",
          "type": "uint256"
        }
      ],
      "name": "Transfer",
      "type": "event"
    },
    {
      "inputs": [],
      "name": "DEFAULT_ADMIN_ROLE",
      "outputs": [
        {
          "internalType": "bytes32",
          "name": "",
          "type": "bytes32"
        }
      ],
      "stateMutability": "view",
      "type": "function"
    },
    {
      "inputs": [],
      "name": "DOMAIN_SEPARATOR",
      "outputs": [
        {
          "internalType": "bytes32",
          "name": "",
          "type": "bytes32"
        }
      ],
      "stateMutability": "view",
      "type": "function"
    },
    {
      "inputs": [],
      "name": "MINTER_ROLE",
      "outputs": [
        {
          "internalType": "bytes32",
          "name": "",
          "type": "bytes32"
        }
      ],
      "stateMutability": "view",
      "type": "function"
    },
    {
      "inputs": [],
      "name": "RESTRICTOR_ROLE",
      "outputs": [
        {
          "internalType": "bytes32",
          "name": "",
          "type": "bytes32"
        }
      ],
      "stateMutability": "view",
      "type": "function"
    },
    {
      "inputs": [],
      "name": "TRANSACTION_FEE_SETTER",
      "outputs": [
        {
          "internalType": "bytes32",
          "name": "",
          "type": "bytes32"
        }
      ],
      "stateMutability": "view",
      "type": "function"
    },
    {
      "inputs": [],
      "name": "TRANSFER_LIMIT_SETTER",
      "outputs": [
        {
          "internalType": "bytes32",
          "name": "",
          "type": "bytes32"
        }
      ],
      "stateMutability": "view",
      "type": "function"
    },
    {
      "inputs": [
        {
          "internalType": "address",
          "name": "owner",
          "type": "address"
        },
        {
          "internalType": "address",
          "name": "spender",
          "type": "address"
        }
      ],
      "name": "allowance",
      "outputs": [
        {
          "internalType": "uint256",
          "name": "",
          "type": "uint256"
        }
      ],
      "stateMutability": "view",
      "type": "function"
    },
    {
      "inputs": [
        {
          "internalType": "address",
          "name": "spender",
          "type": "address"
        },
        {
          "internalType": "uint256",
          "name": "amount",
          "type": "uint256"
        }
      ],
      "name": "approve",
      "outputs": [
        {
          "internalType": "bool",
          "name": "",
          "type": "bool"
        }
      ],
      "stateMutability": "nonpayable",
      "type": "function"
    },
    {
      "inputs": [
        {
          "internalType": "address",
          "name": "account",
          "type": "address"
        }
      ],
      "name": "balanceOf",
      "outputs": [
        {
          "internalType": "uint256",
          "name": "",
          "type": "uint256"
        }
      ],
      "stateMutability": "view",
      "type": "function"
    },
    {
      "inputs": [
        {
          "internalType": "uint256",
          "name": "amount",
          "type": "uint256"
        }
      ],
      "name": "burn",
      "outputs": [],
      "stateMutability": "nonpayable",
      "type": "function"
    },
    {
      "inputs": [
        {
          "internalType": "address",
          "name": "account",
          "type": "address"
        },
        {
          "internalType": "uint256",
          "name": "amount",
          "type": "uint256"
        }
      ],
      "name": "burnFrom",
      "outputs": [],
      "stateMutability": "nonpayable",
      "type": "function"
    },
    {
      "inputs": [
        {
          "internalType": "address",
          "name": "addr",
          "type": "address"
        }
      ],
      "name": "canSpend",
      "outputs": [
        {
          "internalType": "uint256",
          "name": "amount",
          "type": "uint256"
        }
      ],
      "stateMutability": "view",
      "type": "function"
    },
    {
      "inputs": [],
      "name": "cap",
      "outputs": [
        {
          "internalType": "uint256",
          "name": "",
          "type": "uint256"
        }
      ],
      "stateMutability": "view",
      "type": "function"
    },
    {
      "inputs": [],
      "name": "decimals",
      "outputs": [
        {
          "internalType": "uint8",
          "name": "",
          "type": "uint8"
        }
      ],
      "stateMutability": "view",
      "type": "function"
    },
    {
      "inputs": [
        {
          "internalType": "address",
          "name": "spender",
          "type": "address"
        },
        {
          "internalType": "uint256",
          "name": "subtractedValue",
          "type": "uint256"
        }
      ],
      "name": "decreaseAllowance",
      "outputs": [
        {
          "internalType": "bool",
          "name": "",
          "type": "bool"
        }
      ],
      "stateMutability": "nonpayable",
      "type": "function"
    },
    {
      "inputs": [
        {
          "internalType": "address",
          "name": "addr",
          "type": "address"
        }
      ],
      "name": "district",
      "outputs": [],
      "stateMutability": "nonpayable",
      "type": "function"
    },
    {
      "inputs": [],
      "name": "feeDetails",
      "outputs": [
        {
          "internalType": "uint256",
          "name": "",
          "type": "uint256"
        },
        {
          "internalType": "uint256",
          "name": "",
          "type": "uint256"
        },
        {
          "internalType": "address",
          "name": "",
          "type": "address"
        }
      ],
      "stateMutability": "view",
      "type": "function"
    },
    {
      "inputs": [
        {
          "internalType": "bytes32",
          "name": "role",
          "type": "bytes32"
        }
      ],
      "name": "getRoleAdmin",
      "outputs": [
        {
          "internalType": "bytes32",
          "name": "",
          "type": "bytes32"
        }
      ],
      "stateMutability": "view",
      "type": "function"
    },
    {
      "inputs": [
        {
          "internalType": "bytes32",
          "name": "role",
          "type": "bytes32"
        },
        {
          "internalType": "uint256",
          "name": "index",
          "type": "uint256"
        }
      ],
      "name": "getRoleMember",
      "outputs": [
        {
          "internalType": "address",
          "name": "",
          "type": "address"
        }
      ],
      "stateMutability": "view",
      "type": "function"
    },
    {
      "inputs": [
        {
          "internalType": "bytes32",
          "name": "role",
          "type": "bytes32"
        }
      ],
      "name": "getRoleMemberCount",
      "outputs": [
        {
          "internalType": "uint256",
          "name": "",
          "type": "uint256"
        }
      ],
      "stateMutability": "view",
      "type": "function"
    },
    {
      "inputs": [
        {
          "internalType": "bytes32",
          "name": "role",
          "type": "bytes32"
        },
        {
          "internalType": "address",
          "name": "account",
          "type": "address"
        }
      ],
      "name": "grantRole",
      "outputs": [],
      "stateMutability": "nonpayable",
      "type": "function"
    },
    {
      "inputs": [
        {
          "internalType": "bytes32",
          "name": "role",
          "type": "bytes32"
        },
        {
          "internalType": "address",
          "name": "account",
          "type": "address"
        }
      ],
      "name": "hasRole",
      "outputs": [
        {
          "internalType": "bool",
          "name": "",
          "type": "bool"
        }
      ],
      "stateMutability": "view",
      "type": "function"
    },
    {
      "inputs": [
        {
          "internalType": "address",
          "name": "spender",
          "type": "address"
        },
        {
          "internalType": "uint256",
          "name": "addedValue",
          "type": "uint256"
        }
      ],
      "name": "increaseAllowance",
      "outputs": [
        {
          "internalType": "bool",
          "name": "",
          "type": "bool"
        }
      ],
      "stateMutability": "nonpayable",
      "type": "function"
    },
    {
      "inputs": [
        {
          "internalType": "address",
          "name": "addr",
          "type": "address"
        }
      ],
      "name": "isRestricted",
      "outputs": [
        {
          "internalType": "bool",
          "name": "",
          "type": "bool"
        }
      ],
      "stateMutability": "view",
      "type": "function"
    },
    {
      "inputs": [
        {
          "internalType": "address",
          "name": "account",
          "type": "address"
        },
        {
          "internalType": "uint256",
          "name": "amount",
          "type": "uint256"
        }
      ],
      "name": "mint",
      "outputs": [],
      "stateMutability": "nonpayable",
      "type": "function"
    },
    {
      "inputs": [
        {
          "internalType": "address[]",
          "name": "accounts",
          "type": "address[]"
        },
        {
          "internalType": "uint256",
          "name": "amount",
          "type": "uint256"
        }
      ],
      "name": "mintBatch",
      "outputs": [],
      "stateMutability": "nonpayable",
      "type": "function"
    },
    {
      "inputs": [],
      "name": "monthlyLimit",
      "outputs": [
        {
          "internalType": "uint256",
          "name": "",
          "type": "uint256"
        }
      ],
      "stateMutability": "view",
      "type": "function"
    },
    {
      "inputs": [],
      "name": "name",
      "outputs": [
        {
          "internalType": "string",
          "name": "",
          "type": "string"
        }
      ],
      "stateMutability": "view",
      "type": "function"
    },
    {
      "inputs": [
        {
          "internalType": "address",
          "name": "owner",
          "type": "address"
        }
      ],
      "name": "nonces",
      "outputs": [
        {
          "internalType": "uint256",
          "name": "",
          "type": "uint256"
        }
      ],
      "stateMutability": "view",
      "type": "function"
    },
    {
      "inputs": [
        {
          "internalType": "address",
          "name": "owner",
          "type": "address"
        },
        {
          "internalType": "address",
          "name": "spender",
          "type": "address"
        },
        {
          "internalType": "uint256",
          "name": "value",
          "type": "uint256"
        },
        {
          "internalType": "uint256",
          "name": "deadline",
          "type": "uint256"
        },
        {
          "internalType": "uint8",
          "name": "v",
          "type": "uint8"
        },
        {
          "internalType": "bytes32",
          "name": "r",
          "type": "bytes32"
        },
        {
          "internalType": "bytes32",
          "name": "s",
          "type": "bytes32"
        }
      ],
      "name": "permit",
      "outputs": [],
      "stateMutability": "nonpayable",
      "type": "function"
    },
    {
      "inputs": [
        {
          "internalType": "bytes32",
          "name": "role",
          "type": "bytes32"
        },
        {
          "internalType": "address",
          "name": "account",
          "type": "address"
        }
      ],
      "name": "renounceRole",
      "outputs": [],
      "stateMutability": "nonpayable",
      "type": "function"
    },
    {
      "inputs": [
        {
          "internalType": "address",
          "name": "addr",
          "type": "address"
        },
        {
          "internalType": "uint256",
          "name": "amount",
          "type": "uint256"
        }
      ],
      "name": "restrict",
      "outputs": [],
      "stateMutability": "nonpayable",
      "type": "function"
    },
    {
      "inputs": [
        {
          "internalType": "bytes32",
          "name": "role",
          "type": "bytes32"
        },
        {
          "internalType": "address",
          "name": "account",
          "type": "address"
        }
      ],
      "name": "revokeRole",
      "outputs": [],
      "stateMutability": "nonpayable",
      "type": "function"
    },
    {
      "inputs": [
        {
          "internalType": "uint256",
          "name": "fraction",
          "type": "uint256"
        }
      ],
      "name": "setMonthlyTransferLimit",
      "outputs": [],
      "stateMutability": "nonpayable",
      "type": "function"
    },
    {
      "inputs": [
        {
          "internalType": "uint256",
          "name": "_feeAmount",
          "type": "uint256"
        },
        {
          "internalType": "uint256",
          "name": "_feeFraction",
          "type": "uint256"
        },
        {
          "internalType": "address",
          "name": "_feeReceiver",
          "type": "address"
        }
      ],
      "name": "setTransactionFee",
      "outputs": [],
      "stateMutability": "nonpayable",
      "type": "function"
    },
    {
      "inputs": [
        {
          "internalType": "bytes4",
          "name": "interfaceId",
          "type": "bytes4"
        }
      ],
      "name": "supportsInterface",
      "outputs": [
        {
          "internalType": "bool",
          "name": "",
          "type": "bool"
        }
      ],
      "stateMutability": "view",
      "type": "function"
    },
    {
      "inputs": [],
      "name": "symbol",
      "outputs": [
        {
          "internalType": "string",
          "name": "",
          "type": "string"
        }
      ],
      "stateMutability": "view",
      "type": "function"
    },
    {
      "inputs": [],
      "name": "totalSupply",
      "outputs": [
        {
          "internalType": "uint256",
          "name": "",
          "type": "uint256"
        }
      ],
      "stateMutability": "view",
      "type": "function"
    },
    {
      "inputs": [
        {
          "internalType": "uint256",
          "name": "transferingAmount",
          "type": "uint256"
        }
      ],
      "name": "transactionFee",
      "outputs": [
        {
          "internalType": "uint256",
          "name": "fee",
          "type": "uint256"
        }
      ],
      "stateMutability": "view",
      "type": "function"
    },
    {
      "inputs": [
        {
          "internalType": "address",
          "name": "to",
          "type": "address"
        },
        {
          "internalType": "uint256",
          "name": "amount",
          "type": "uint256"
        }
      ],
      "name": "transfer",
      "outputs": [
        {
          "internalType": "bool",
          "name": "",
          "type": "bool"
        }
      ],
      "stateMutability": "nonpayable",
      "type": "function"
    },
    {
      "inputs": [
        {
          "internalType": "address",
          "name": "from",
          "type": "address"
        },
        {
          "internalType": "address",
          "name": "to",
          "type": "address"
        },
        {
          "internalType": "uint256",
          "name": "amount",
          "type": "uint256"
        }
      ],
      "name": "transferFrom",
      "outputs": [
        {
          "internalType": "bool",
          "name": "",
          "type": "bool"
        }
      ],
      "stateMutability": "nonpayable",
      "type": "function"
    }
  ],
  "bytecode": "0x6101806040523480156200001257600080fd5b50604051620031a6380380620031a6833981016040819052620000359162000433565b6040518060400160405280600f81526020016e109bdd5b991b195cdcc815dbdc9b19608a1b81525080604051806040016040528060018152602001603160f81b81525062000088620002d460201b60201c565b6200009590600a62000578565b620000a59063dbf0ee8062000589565b6040518060400160405280600f81526020016e109bdd5b991b195cdcc815dbdc9b19608a1b8152506040518060400160405280600381526020016221262160e91b8152508160039081620000fa91906200064f565b5060046200010982826200064f565b50505060008111620001615760405162461bcd60e51b815260206004820152601560248201527f45524332304361707065643a2063617020697320300000000000000000000000604482015260640160405180910390fd5b60805281516020808401919091208251918301919091206101008290526101208190524660c0527f8b73c3c69bb8fe3d512ecc4cf759cc79239f7b179b0ffacaa9a75d522b39400f620001f98184846040805160208101859052908101839052606081018290524660808201523060a082015260009060c0016040516020818303038152906040528051906020012090509392505050565b60a0523060e0526101405250504261016052506200021d91506000905082620002d9565b620002497f9f2df0fed2c77648de5860a4cc508cd0818c85b8b8a1ab4ceeef8d981c8956a682620002d9565b620002757fd0ac125722f4b4565ab5e91b234e50c4c6f541672aea816ba090a0ea349ed93f82620002d9565b620002a17fb24c1025622fe38445b605f5c1a9bb02be7f6522d24c8a159e5e47e62dbaaecf82620002d9565b620002cd7f23ab0e580195340a5a67800cafa0615701edfa22f79534a52851336e3cf8376a82620002d9565b506200071b565b601290565b620002f082826200031c60201b620010221760201c565b600082815260086020908152604090912062000317918390620010a8620003c1821b17901c565b505050565b60008281526007602090815260408083206001600160a01b038516845290915290205460ff16620003bd5760008281526007602090815260408083206001600160a01b03851684529091529020805460ff191660011790556200037c3390565b6001600160a01b0316816001600160a01b0316837f2f8788117e7eff1d82e926ec794901d17c78024a50270940304540a733656f0d60405160405180910390a45b5050565b6000620003d8836001600160a01b038416620003e1565b90505b92915050565b60008181526001830160205260408120546200042a57508154600181810184556000848152602080822090930184905584548482528286019093526040902091909155620003db565b506000620003db565b6000602082840312156200044657600080fd5b81516001600160a01b03811681146200045e57600080fd5b9392505050565b634e487b7160e01b600052601160045260246000fd5b600181815b80851115620004bc578160001904821115620004a057620004a062000465565b80851615620004ae57918102915b93841c939080029062000480565b509250929050565b600082620004d557506001620003db565b81620004e457506000620003db565b8160018114620004fd5760028114620005085762000528565b6001915050620003db565b60ff8411156200051c576200051c62000465565b50506001821b620003db565b5060208310610133831016604e8410600b84101617156200054d575081810a620003db565b6200055983836200047b565b806000190482111562000570576200057062000465565b029392505050565b6000620003d860ff841683620004c4565b6000816000190483118215151615620005a657620005a662000465565b500290565b634e487b7160e01b600052604160045260246000fd5b600181811c90821680620005d657607f821691505b602082108103620005f757634e487b7160e01b600052602260045260246000fd5b50919050565b601f8211156200031757600081815260208120601f850160051c81016020861015620006265750805b601f850160051c820191505b81811015620006475782815560010162000632565b505050505050565b81516001600160401b038111156200066b576200066b620005ab565b62000683816200067c8454620005c1565b84620005fd565b602080601f831160018114620006bb5760008415620006a25750858301515b600019600386901b1c1916600185901b17855562000647565b600085815260208120601f198616915b82811015620006ec57888601518255948401946001909101908401620006cb565b50858210156200070b5787850151600019600388901b60f8161c191681555b5050505050600190811b01905550565b60805160a05160c05160e05161010051610120516101405161016051612a1062000796600039600081816107e601526121ce015260006114fa01526000611549015260006115240152600061147d015260006114a7015260006114d101526000818161039d0152818161078d01526119b20152612a106000f3fe608060405234801561001057600080fd5b50600436106102535760003560e01c806342966c6811610146578063a217fddf116100c3578063ca15c87311610087578063ca15c87314610585578063d505accf14610598578063d5391393146105ab578063d547741f146105c0578063dd62ed3e146105d3578063e162533c146105e657600080fd5b8063a217fddf14610531578063a457c2d714610539578063a9059cbb1461054c578063b6afc4dc1461055f578063c01bc9821461057257600080fd5b80637ecebe001161010a5780637ecebe00146104c5578063889cad06146104d85780639010d07c146104eb57806391d148541461051657806395d89b411461052957600080fd5b806342966c681461043c57806351bcee271461044f5780635d1edb871461047657806370a082311461048957806379cc6790146104b257600080fd5b8063248a9ca3116101d457806336568abe1161019857806336568abe146103c9578063367065de146103dc57806339509351146103ef5780633e0b2cda1461040257806340c10f191461042957600080fd5b8063248a9ca3146103565780632f2ff15d14610379578063313ce5671461038c578063355274ea1461039b5780633644e515146103c157600080fd5b80631681f8301161021b5780631681f830146102e657806318160ddd146102fb5780631f2c544314610303578063234eaedc1461033057806323b872dd1461034357600080fd5b806301ffc9a71461025857806306fdde0314610280578063095ea7b3146102955780630a6005da146102a85780630ecbd033146102bf575b600080fd5b61026b6102663660046124c0565b6105f9565b60405190151581526020015b60405180910390f35b610288610624565b6040516102779190612516565b61026b6102a3366004612560565b6106b6565b6102b160105481565b604051908152602001610277565b6102b17fd0ac125722f4b4565ab5e91b234e50c4c6f541672aea816ba090a0ea349ed93f81565b6102f96102f4366004612560565b6106ce565b005b6002546102b1565b600a54600954600b546040805193845260208401929092526001600160a01b031690820152606001610277565b6102b161033e36600461258a565b61074c565b61026b6103513660046125a5565b6108b1565b6102b16103643660046125e1565b60009081526007602052604090206001015490565b6102f96103873660046125fa565b6108d5565b60405160128152602001610277565b7f00000000000000000000000000000000000000000000000000000000000000006102b1565b6102b16108ff565b6102f96103d73660046125fa565b61090e565b6102f96103ea366004612626565b610991565b61026b6103fd366004612560565b610b25565b6102b17fb24c1025622fe38445b605f5c1a9bb02be7f6522d24c8a159e5e47e62dbaaecf81565b6102f9610437366004612560565b610b47565b6102f961044a3660046125e1565b610b69565b6102b17f23ab0e580195340a5a67800cafa0615701edfa22f79534a52851336e3cf8376a81565b6102b16104843660046125e1565b610b76565b6102b161049736600461258a565b6001600160a01b031660009081526020819052604090205490565b6102f96104c0366004612560565b610bad565b6102b16104d336600461258a565b610bc2565b6102f96104e63660046125e1565b610be0565b6104fe6104f936600461265b565b610cbf565b6040516001600160a01b039091168152602001610277565b61026b6105243660046125fa565b610cde565b610288610d09565b6102b1600081565b61026b610547366004612560565b610d18565b61026b61055a366004612560565b610d93565b6102f961056d36600461267d565b610da1565b61026b61058036600461258a565b610e15565b6102b16105933660046125e1565b610e22565b6102f96105a63660046126f8565b610e39565b6102b160008051602061299b83398151915281565b6102f96105ce3660046125fa565b610f9d565b6102b16105e136600461276b565b610fc2565b6102f96105f436600461258a565b610fed565b60006001600160e01b03198216635a05180f60e01b148061061e575061061e826110bd565b92915050565b60606003805461063390612795565b80601f016020809104026020016040519081016040528092919081815260200182805461065f90612795565b80156106ac5780601f10610681576101008083540402835291602001916106ac565b820191906000526020600020905b81548152906001019060200180831161068f57829003601f168201915b5050505050905090565b6000336106c48185856110f2565b5060019392505050565b7f23ab0e580195340a5a67800cafa0615701edfa22f79534a52851336e3cf8376a6106f881611217565b610704600c8484611221565b50604080516001600160a01b0385168152602081018490527fa1b8d777c2527547849718a04f45b8e5b0f29119c47f9298b20a85f0ad275424910160405180910390a1505050565b600061075782610e15565b156107675761061e600c83611237565b61077f60008051602061299b83398151915283610cde565b156107b15760025461061e907f00000000000000000000000000000000000000000000000000000000000000006127df565b601054620f4240036107db576001600160a01b03821660009081526020819052604090205461061e565b600062278d0061080b7f0000000000000000000000000000000000000000000000000000000000000000426127df565b61081591906127f6565b6001600160a01b0384166000908152600f60205260409020600101540361085157506001600160a01b0382166000908152600f60205260409020545b6000620f42406010548361087a876001600160a01b031660009081526020819052604090205490565b6108849190612818565b61088e9190612830565b61089891906127f6565b90506108a482826127df565b949350505050565b919050565b6000336108bf85828561124c565b6108ca8585856112c6565b506001949350505050565b6000828152600760205260409020600101546108f081611217565b6108fa838361144e565b505050565b6000610909611470565b905090565b6001600160a01b03811633146109835760405162461bcd60e51b815260206004820152602f60248201527f416363657373436f6e74726f6c3a2063616e206f6e6c792072656e6f756e636560448201526e103937b632b9903337b91039b2b63360891b60648201526084015b60405180910390fd5b61098d8282611597565b5050565b7fd0ac125722f4b4565ab5e91b234e50c4c6f541672aea816ba090a0ea349ed93f6109bb81611217565b8215806109c6575083155b610a465760405162461bcd60e51b815260206004820152604560248201527f5472616e73616374696f6e4665653a2043616e6e6f742073657420666565416d60448201527f6f756e7420616e64206665654672616374696f6e206174207468652073616d656064820152642074696d6560d81b608482015260a40161097a565b620186a0831115610ab55760405162461bcd60e51b815260206004820152603360248201527f5472616e73616374696f6e4665653a20557020746f20313025207472616e736160448201527218dd1a5bdb9199594818d85b881899481cd95d606a1b606482015260840161097a565b600a8490556009839055600b80546001600160a01b0319166001600160a01b0384169081179091556040805186815260208101869052908101919091527fd75a7916f83ee976ae8e04e3f9b46c9b16b546303f09f1fc20eccb6cd6bc476d9060600160405180910390a150505050565b6000336106c4818585610b388383610fc2565b610b429190612818565b6110f2565b60008051602061299b833981519152610b5f81611217565b6108fa83836115b9565b610b7333826115c3565b50565b600a5460009015610b89575050600a5490565b600954156108ac57620f424060095483610ba39190612830565b61061e91906127f6565b610bb882338361124c565b61098d82826115c3565b6001600160a01b03811660009081526005602052604081205461061e565b7fb24c1025622fe38445b605f5c1a9bb02be7f6522d24c8a159e5e47e62dbaaecf610c0a81611217565b620f4240821115610c835760405162461bcd60e51b815260206004820152603a60248201527f5472616e73666572436f6e74726f6c3a206d6178696d756d206672616374696f60448201527f6e2069732031302a2a362028657175616c20746f203130302529000000000000606482015260840161097a565b60108290556040518281527f8d9496d9654d41070e87ac1a35f8f18cbdb631e1b26c6805c9720151208aa25f9060200160405180910390a15050565b6000828152600860205260408120610cd7908361170b565b9392505050565b60009182526007602090815260408084206001600160a01b0393909316845291905290205460ff1690565b60606004805461063390612795565b60003381610d268286610fc2565b905083811015610d865760405162461bcd60e51b815260206004820152602560248201527f45524332303a2064656372656173656420616c6c6f77616e63652062656c6f77604482015264207a65726f60d81b606482015260840161097a565b6108ca82868684036110f2565b6000336106c48185856112c6565b60008051602061299b833981519152610db981611217565b60005b61ffff8116841115610e0e57610dfc85858361ffff16818110610de157610de161284f565b9050602002016020810190610df6919061258a565b846115b9565b80610e0681612865565b915050610dbc565b5050505050565b600061061e600c83611717565b600081815260086020526040812061061e9061172c565b83421115610e895760405162461bcd60e51b815260206004820152601d60248201527f45524332305065726d69743a206578706972656420646561646c696e65000000604482015260640161097a565b60007f6e71edae12b1b97f4d1f60370fef10105fa2faae0126114a169c64845d6126c9888888610eb88c611736565b6040805160208101969096526001600160a01b0394851690860152929091166060840152608083015260a082015260c0810186905260e0016040516020818303038152906040528051906020012090506000610f138261175e565b90506000610f23828787876117ac565b9050896001600160a01b0316816001600160a01b031614610f865760405162461bcd60e51b815260206004820152601e60248201527f45524332305065726d69743a20696e76616c6964207369676e61747572650000604482015260640161097a565b610f918a8a8a6110f2565b50505050505050505050565b600082815260076020526040902060010154610fb881611217565b6108fa8383611597565b6001600160a01b03918216600090815260016020908152604080832093909416825291909152205490565b7f23ab0e580195340a5a67800cafa0615701edfa22f79534a52851336e3cf8376a61101781611217565b6108fa600c836117d4565b61102c8282610cde565b61098d5760008281526007602090815260408083206001600160a01b03851684529091529020805460ff191660011790556110643390565b6001600160a01b0316816001600160a01b0316837f2f8788117e7eff1d82e926ec794901d17c78024a50270940304540a733656f0d60405160405180910390a45050565b6000610cd7836001600160a01b0384166117e9565b60006001600160e01b03198216637965db0b60e01b148061061e57506301ffc9a760e01b6001600160e01b031983161461061e565b6001600160a01b0383166111545760405162461bcd60e51b8152602060048201526024808201527f45524332303a20617070726f76652066726f6d20746865207a65726f206164646044820152637265737360e01b606482015260840161097a565b6001600160a01b0382166111b55760405162461bcd60e51b815260206004820152602260248201527f45524332303a20617070726f766520746f20746865207a65726f206164647265604482015261737360f01b606482015260840161097a565b6001600160a01b0383811660008181526001602090815260408083209487168084529482529182902085905590518481527f8c5be1e5ebec7d5bd14f71427d1e84f3dd0314c0f7b2291e5b200ac8c7c3b92591015b60405180910390a3505050565b610b738133611838565b60006108a4846001600160a01b0385168461189c565b6000610cd7836001600160a01b0384166118b9565b60006112588484610fc2565b905060001981146112c057818110156112b35760405162461bcd60e51b815260206004820152601d60248201527f45524332303a20696e73756666696369656e7420616c6c6f77616e6365000000604482015260640161097a565b6112c084848484036110f2565b50505050565b6001600160a01b03831661132a5760405162461bcd60e51b815260206004820152602560248201527f45524332303a207472616e736665722066726f6d20746865207a65726f206164604482015264647265737360d81b606482015260840161097a565b6001600160a01b03821661138c5760405162461bcd60e51b815260206004820152602360248201527f45524332303a207472616e7366657220746f20746865207a65726f206164647260448201526265737360e81b606482015260840161097a565b611397838383611929565b6001600160a01b038316600090815260208190526040902054818110156113d05760405162461bcd60e51b815260040161097a90612886565b6001600160a01b03808516600090815260208190526040808220858503905591851681529081208054849290611407908490612818565b92505081905550826001600160a01b0316846001600160a01b03166000805160206129bb8339815191528460405161144191815260200190565b60405180910390a36112c0565b6114588282611022565b60008281526008602052604090206108fa90826110a8565b6000306001600160a01b037f0000000000000000000000000000000000000000000000000000000000000000161480156114c957507f000000000000000000000000000000000000000000000000000000000000000046145b156114f357507f000000000000000000000000000000000000000000000000000000000000000090565b50604080517f00000000000000000000000000000000000000000000000000000000000000006020808301919091527f0000000000000000000000000000000000000000000000000000000000000000828401527f000000000000000000000000000000000000000000000000000000000000000060608301524660808301523060a0808401919091528351808403909101815260c0909201909252805191012090565b6115a18282611934565b60008281526008602052604090206108fa908261199b565b61098d82826119b0565b6001600160a01b0382166116235760405162461bcd60e51b815260206004820152602160248201527f45524332303a206275726e2066726f6d20746865207a65726f206164647265736044820152607360f81b606482015260840161097a565b61162f82600083611929565b6001600160a01b038216600090815260208190526040902054818110156116a35760405162461bcd60e51b815260206004820152602260248201527f45524332303a206275726e20616d6f756e7420657863656564732062616c616e604482015261636560f01b606482015260840161097a565b6001600160a01b03831660009081526020819052604081208383039055600280548492906116d29084906127df565b90915550506040518281526000906001600160a01b038516906000805160206129bb8339815191529060200160405180910390a3505050565b6000610cd78383611a3d565b6000610cd7836001600160a01b038416611a67565b600061061e825490565b6001600160a01b03811660009081526005602052604090208054600181018255905b50919050565b600061061e61176b611470565b8360405161190160f01b6020820152602281018390526042810182905260009060620160405160208183030381529060405280519060200120905092915050565b60008060006117bd87878787611a73565b915091506117ca81611b60565b5095945050505050565b6000610cd7836001600160a01b038416611d16565b60008181526001830160205260408120546118305750815460018181018455600084815260208082209093018490558454848252828601909352604090209190915561061e565b50600061061e565b6118428282610cde565b61098d5761185a816001600160a01b03166014611d33565b611865836020611d33565b6040516020016118769291906128cc565b60408051601f198184030181529082905262461bcd60e51b825261097a91600401612516565b600082815260028401602052604081208290556108a48484611ecf565b6000818152600283016020526040812054801515806118dd57506118dd8484611a67565b610cd75760405162461bcd60e51b815260206004820152601e60248201527f456e756d657261626c654d61703a206e6f6e6578697374656e74206b65790000604482015260640161097a565b6108fa838383611edb565b61193e8282610cde565b1561098d5760008281526007602090815260408083206001600160a01b0385168085529252808320805460ff1916905551339285917ff6391f5c32d9c69d2a47ea670b442974b53935d1edc7fd64eb21e047a839171b9190a45050565b6000610cd7836001600160a01b038416611f0d565b7f0000000000000000000000000000000000000000000000000000000000000000816119db60025490565b6119e59190612818565b1115611a335760405162461bcd60e51b815260206004820152601960248201527f45524332304361707065643a2063617020657863656564656400000000000000604482015260640161097a565b61098d8282612000565b6000826000018281548110611a5457611a5461284f565b9060005260206000200154905092915050565b6000610cd783836120d9565b6000807f7fffffffffffffffffffffffffffffff5d576e7357a4501ddfe92f46681b20a0831115611aaa5750600090506003611b57565b8460ff16601b14158015611ac257508460ff16601c14155b15611ad35750600090506004611b57565b6040805160008082526020820180845289905260ff881692820192909252606081018690526080810185905260019060a0016020604051602081039080840390855afa158015611b27573d6000803e3d6000fd5b5050604051601f1901519150506001600160a01b038116611b5057600060019250925050611b57565b9150600090505b94509492505050565b6000816004811115611b7457611b74612941565b03611b7c5750565b6001816004811115611b9057611b90612941565b03611bdd5760405162461bcd60e51b815260206004820152601860248201527f45434453413a20696e76616c6964207369676e61747572650000000000000000604482015260640161097a565b6002816004811115611bf157611bf1612941565b03611c3e5760405162461bcd60e51b815260206004820152601f60248201527f45434453413a20696e76616c6964207369676e6174757265206c656e67746800604482015260640161097a565b6003816004811115611c5257611c52612941565b03611caa5760405162461bcd60e51b815260206004820152602260248201527f45434453413a20696e76616c6964207369676e6174757265202773272076616c604482015261756560f01b606482015260840161097a565b6004816004811115611cbe57611cbe612941565b03610b735760405162461bcd60e51b815260206004820152602260248201527f45434453413a20696e76616c6964207369676e6174757265202776272076616c604482015261756560f01b606482015260840161097a565b60008181526002830160205260408120819055610cd783836120f1565b60606000611d42836002612830565b611d4d906002612818565b67ffffffffffffffff811115611d6557611d65612957565b6040519080825280601f01601f191660200182016040528015611d8f576020820181803683370190505b509050600360fc1b81600081518110611daa57611daa61284f565b60200101906001600160f81b031916908160001a905350600f60fb1b81600181518110611dd957611dd961284f565b60200101906001600160f81b031916908160001a9053506000611dfd846002612830565b611e08906001612818565b90505b6001811115611e80576f181899199a1a9b1b9c1cb0b131b232b360811b85600f1660108110611e3c57611e3c61284f565b1a60f81b828281518110611e5257611e5261284f565b60200101906001600160f81b031916908160001a90535060049490941c93611e798161296d565b9050611e0b565b508315610cd75760405162461bcd60e51b815260206004820181905260248201527f537472696e67733a20686578206c656e67746820696e73756666696369656e74604482015260640161097a565b6000610cd783836117e9565b6001600160a01b038316611ef857611ef333826120fd565b611f02565b611f0283826120fd565b6108fa838383612340565b60008181526001830160205260408120548015611ff6576000611f316001836127df565b8554909150600090611f45906001906127df565b9050818114611faa576000866000018281548110611f6557611f6561284f565b9060005260206000200154905080876000018481548110611f8857611f8861284f565b6000918252602080832090910192909255918252600188019052604090208390555b8554869080611fbb57611fbb612984565b60019003818190600052602060002001600090559055856001016000868152602001908152602001600020600090556001935050505061061e565b600091505061061e565b6001600160a01b0382166120565760405162461bcd60e51b815260206004820152601f60248201527f45524332303a206d696e7420746f20746865207a65726f206164647265737300604482015260640161097a565b61206260008383611929565b80600260008282546120749190612818565b90915550506001600160a01b038216600090815260208190526040812080548392906120a1908490612818565b90915550506040518181526001600160a01b038316906000906000805160206129bb8339815191529060200160405180910390a35050565b60008181526001830160205260408120541515610cd7565b6000610cd78383611f0d565b61210682610e15565b15612195576000612118600c84611237565b90508082111561217e5760405162461bcd60e51b815260206004820152602b60248201527f5472616e73666572436f6e74726f6c3a20616d6f756e7420657863656564732060448201526a1cdc195b99081b1a5b5a5d60aa1b606482015260840161097a565b6112c08361218c84846127df565b600c9190611221565b620f42406010541080156121be57506121bc60008051602061299b83398151915233610cde565b155b1561098d57600062278d006121f37f0000000000000000000000000000000000000000000000000000000000000000426127df565b6121fd91906127f6565b6001600160a01b0384166000908152600f60205260408120600101549192509082900361223f57506001600160a01b0383166000908152600f60205260409020545b600061224b8483612818565b90506000620f424060105484612276896001600160a01b031660009081526020819052604090205490565b6122809190612818565b61228a9190612830565b61229491906127f6565b9050808211156123025760405162461bcd60e51b815260206004820152603360248201527f5472616e73666572436f6e74726f6c3a20616d6f756e742065786365656473206044820152721b5bdb9d1a1b1e481cdc195b99081b1a5b5a5d606a1b606482015260840161097a565b5060408051808201825291825260208083019485526001600160a01b0387166000908152600f90915220905181559151600190920191909155505050565b6108fa338261235d60008051602061299b83398151915283610cde565b61098d576000600954118061237457506000600a54115b1561098d57600061238482610b76565b600b549091506108fa9084906001600160a01b0316836108fa8383836123aa83826120fd565b6108fa8383836001600160a01b0383161561241b576001600160a01b038316600090815260208190526040902054818110156123f85760405162461bcd60e51b815260040161097a90612886565b6001600160a01b0384166000908152602081905260409020908290039055612433565b806002600082825461242d9190612818565b90915550505b6001600160a01b03821615612475576001600160a01b0382166000908152602081905260408120805483929061246a908490612818565b9091555061248d9050565b806002600082825461248791906127df565b90915550505b816001600160a01b0316836001600160a01b03166000805160206129bb8339815191528360405161120a91815260200190565b6000602082840312156124d257600080fd5b81356001600160e01b031981168114610cd757600080fd5b60005b838110156125055781810151838201526020016124ed565b838111156112c05750506000910152565b60208152600082518060208401526125358160408501602087016124ea565b601f01601f19169190910160400192915050565b80356001600160a01b03811681146108ac57600080fd5b6000806040838503121561257357600080fd5b61257c83612549565b946020939093013593505050565b60006020828403121561259c57600080fd5b610cd782612549565b6000806000606084860312156125ba57600080fd5b6125c384612549565b92506125d160208501612549565b9150604084013590509250925092565b6000602082840312156125f357600080fd5b5035919050565b6000806040838503121561260d57600080fd5b8235915061261d60208401612549565b90509250929050565b60008060006060848603121561263b57600080fd5b833592506020840135915061265260408501612549565b90509250925092565b6000806040838503121561266e57600080fd5b50508035926020909101359150565b60008060006040848603121561269257600080fd5b833567ffffffffffffffff808211156126aa57600080fd5b818601915086601f8301126126be57600080fd5b8135818111156126cd57600080fd5b8760208260051b85010111156126e257600080fd5b6020928301989097509590910135949350505050565b600080600080600080600060e0888a03121561271357600080fd5b61271c88612549565b965061272a60208901612549565b95506040880135945060608801359350608088013560ff8116811461274e57600080fd5b9699959850939692959460a0840135945060c09093013592915050565b6000806040838503121561277e57600080fd5b61278783612549565b915061261d60208401612549565b600181811c908216806127a957607f821691505b60208210810361175857634e487b7160e01b600052602260045260246000fd5b634e487b7160e01b600052601160045260246000fd5b6000828210156127f1576127f16127c9565b500390565b60008261281357634e487b7160e01b600052601260045260246000fd5b500490565b6000821982111561282b5761282b6127c9565b500190565b600081600019048311821515161561284a5761284a6127c9565b500290565b634e487b7160e01b600052603260045260246000fd5b600061ffff80831681810361287c5761287c6127c9565b6001019392505050565b60208082526026908201527f45524332303a207472616e7366657220616d6f756e7420657863656564732062604082015265616c616e636560d01b606082015260800190565b7f416363657373436f6e74726f6c3a206163636f756e74200000000000000000008152600083516129048160178501602088016124ea565b7001034b99036b4b9b9b4b733903937b6329607d1b60179184019182015283516129358160288401602088016124ea565b01602801949350505050565b634e487b7160e01b600052602160045260246000fd5b634e487b7160e01b600052604160045260246000fd5b60008161297c5761297c6127c9565b506000190190565b634e487b7160e01b600052603160045260246000fdfe9f2df0fed2c77648de5860a4cc508cd0818c85b8b8a1ab4ceeef8d981c8956a6ddf252ad1be2c89b69c2b068fc378daa952ba7f163c4a11628f55a4df523b3efa264697066735822122068ba104a62fa7013d6a4a4bfd4054a4252119be772f5acb774d9310d02889c3064736f6c634300080f0033",
  "linkReferences": {},
  "deployedLinkReferences": {}
}