{
  "_format": "hh-sol-artifact-1",
  "contractName": "BLBToken",
  "sourceName": "contracts/BEP20/BLBToken.sol",
  "abi": [
    {
      "inputs": [],
      "stateMutability": "nonpayable",
      "type": "constructor"
    },
    {
      "anonymous": false,
      "inputs": [
        {
          "indexed": true,
          "internalType": "address",
          "name": "owner",
          "type": "address"
        },
        {
          "indexed": true,
          "internalType": "address",
          "name": "spender",
          "type": "address"
        },
        {
          "indexed": false,
          "internalType": "uint256",
          "name": "value",
          "type": "uint256"
        }
      ],
      "name": "Approval",
      "type": "event"
    },
    {
      "anonymous": false,
      "inputs": [
        {
          "indexed": false,
          "internalType": "address",
          "name": "addr",
          "type": "address"
        }
      ],
      "name": "District",
      "type": "event"
    },
    {
      "anonymous": false,
      "inputs": [
        {
          "indexed": false,
          "internalType": "address",
          "name": "addr",
          "type": "address"
        },
        {
          "indexed": false,
          "internalType": "uint256",
          "name": "amount",
          "type": "uint256"
        }
      ],
      "name": "Restrict",
      "type": "event"
    },
    {
      "anonymous": false,
      "inputs": [
        {
          "indexed": true,
          "internalType": "bytes32",
          "name": "role",
          "type": "bytes32"
        },
        {
          "indexed": true,
          "internalType": "bytes32",
          "name": "previousAdminRole",
          "type": "bytes32"
        },
        {
          "indexed": true,
          "internalType": "bytes32",
          "name": "newAdminRole",
          "type": "bytes32"
        }
      ],
      "name": "RoleAdminChanged",
      "type": "event"
    },
    {
      "anonymous": false,
      "inputs": [
        {
          "indexed": true,
          "internalType": "bytes32",
          "name": "role",
          "type": "bytes32"
        },
        {
          "indexed": true,
          "internalType": "address",
          "name": "account",
          "type": "address"
        },
        {
          "indexed": true,
          "internalType": "address",
          "name": "sender",
          "type": "address"
        }
      ],
      "name": "RoleGranted",
      "type": "event"
    },
    {
      "anonymous": false,
      "inputs": [
        {
          "indexed": true,
          "internalType": "bytes32",
          "name": "role",
          "type": "bytes32"
        },
        {
          "indexed": true,
          "internalType": "address",
          "name": "account",
          "type": "address"
        },
        {
          "indexed": true,
          "internalType": "address",
          "name": "sender",
          "type": "address"
        }
      ],
      "name": "RoleRevoked",
      "type": "event"
    },
    {
      "anonymous": false,
      "inputs": [
        {
          "indexed": false,
          "internalType": "uint256",
          "name": "fraction",
          "type": "uint256"
        }
      ],
      "name": "SetPeriodTransferFraction",
      "type": "event"
    },
    {
      "anonymous": false,
      "inputs": [
        {
          "indexed": false,
          "internalType": "uint256",
          "name": "_feeAmount",
          "type": "uint256"
        },
        {
          "indexed": false,
          "internalType": "uint256",
          "name": "_feeFraction",
          "type": "uint256"
        },
        {
          "indexed": false,
          "internalType": "address",
          "name": "_feeReceiver",
          "type": "address"
        }
      ],
      "name": "SetTransactionFee",
      "type": "event"
    },
    {
      "anonymous": false,
      "inputs": [
        {
          "indexed": true,
          "internalType": "address",
          "name": "from",
          "type": "address"
        },
        {
          "indexed": true,
          "internalType": "address",
          "name": "to",
          "type": "address"
        },
        {
          "indexed": false,
          "internalType": "uint256",
          "name": "value",
          "type": "uint256"
        }
      ],
      "name": "Transfer",
      "type": "event"
    },
    {
      "inputs": [],
      "name": "DEFAULT_ADMIN_ROLE",
      "outputs": [
        {
          "internalType": "bytes32",
          "name": "",
          "type": "bytes32"
        }
      ],
      "stateMutability": "view",
      "type": "function"
    },
    {
      "inputs": [],
      "name": "DOMAIN_SEPARATOR",
      "outputs": [
        {
          "internalType": "bytes32",
          "name": "",
          "type": "bytes32"
        }
      ],
      "stateMutability": "view",
      "type": "function"
    },
    {
      "inputs": [],
      "name": "FEE_SETTER",
      "outputs": [
        {
          "internalType": "bytes32",
          "name": "",
          "type": "bytes32"
        }
      ],
      "stateMutability": "view",
      "type": "function"
    },
    {
      "inputs": [],
      "name": "MINTER_ROLE",
      "outputs": [
        {
          "internalType": "bytes32",
          "name": "",
          "type": "bytes32"
        }
      ],
      "stateMutability": "view",
      "type": "function"
    },
    {
      "inputs": [],
      "name": "RESTRICTOR_ROLE",
      "outputs": [
        {
          "internalType": "bytes32",
          "name": "",
          "type": "bytes32"
        }
      ],
      "stateMutability": "view",
      "type": "function"
    },
    {
      "inputs": [],
      "name": "TRANSFER_LIMIT_SETTER",
      "outputs": [
        {
          "internalType": "bytes32",
          "name": "",
          "type": "bytes32"
        }
      ],
      "stateMutability": "view",
      "type": "function"
    },
    {
      "inputs": [
        {
          "internalType": "address",
          "name": "owner",
          "type": "address"
        },
        {
          "internalType": "address",
          "name": "spender",
          "type": "address"
        }
      ],
      "name": "allowance",
      "outputs": [
        {
          "internalType": "uint256",
          "name": "",
          "type": "uint256"
        }
      ],
      "stateMutability": "view",
      "type": "function"
    },
    {
      "inputs": [
        {
          "internalType": "address",
          "name": "spender",
          "type": "address"
        },
        {
          "internalType": "uint256",
          "name": "amount",
          "type": "uint256"
        }
      ],
      "name": "approve",
      "outputs": [
        {
          "internalType": "bool",
          "name": "",
          "type": "bool"
        }
      ],
      "stateMutability": "nonpayable",
      "type": "function"
    },
    {
      "inputs": [
        {
          "internalType": "address",
          "name": "account",
          "type": "address"
        }
      ],
      "name": "balanceOf",
      "outputs": [
        {
          "internalType": "uint256",
          "name": "",
          "type": "uint256"
        }
      ],
      "stateMutability": "view",
      "type": "function"
    },
    {
      "inputs": [
        {
          "internalType": "uint256",
          "name": "amount",
          "type": "uint256"
        }
      ],
      "name": "burn",
      "outputs": [],
      "stateMutability": "nonpayable",
      "type": "function"
    },
    {
      "inputs": [
        {
          "internalType": "address",
          "name": "account",
          "type": "address"
        },
        {
          "internalType": "uint256",
          "name": "amount",
          "type": "uint256"
        }
      ],
      "name": "burnFrom",
      "outputs": [],
      "stateMutability": "nonpayable",
      "type": "function"
    },
    {
      "inputs": [
        {
          "internalType": "address",
          "name": "addr",
          "type": "address"
        }
      ],
      "name": "canSpend",
      "outputs": [
        {
          "internalType": "uint256",
          "name": "amount",
          "type": "uint256"
        }
      ],
      "stateMutability": "view",
      "type": "function"
    },
    {
      "inputs": [],
      "name": "cap",
      "outputs": [
        {
          "internalType": "uint256",
          "name": "",
          "type": "uint256"
        }
      ],
      "stateMutability": "view",
      "type": "function"
    },
    {
      "inputs": [],
      "name": "decimals",
      "outputs": [
        {
          "internalType": "uint8",
          "name": "",
          "type": "uint8"
        }
      ],
      "stateMutability": "view",
      "type": "function"
    },
    {
      "inputs": [
        {
          "internalType": "address",
          "name": "spender",
          "type": "address"
        },
        {
          "internalType": "uint256",
          "name": "subtractedValue",
          "type": "uint256"
        }
      ],
      "name": "decreaseAllowance",
      "outputs": [
        {
          "internalType": "bool",
          "name": "",
          "type": "bool"
        }
      ],
      "stateMutability": "nonpayable",
      "type": "function"
    },
    {
      "inputs": [
        {
          "internalType": "address",
          "name": "addr",
          "type": "address"
        }
      ],
      "name": "district",
      "outputs": [],
      "stateMutability": "nonpayable",
      "type": "function"
    },
    {
      "inputs": [
        {
          "internalType": "bytes32",
          "name": "role",
          "type": "bytes32"
        }
      ],
      "name": "getRoleAdmin",
      "outputs": [
        {
          "internalType": "bytes32",
          "name": "",
          "type": "bytes32"
        }
      ],
      "stateMutability": "view",
      "type": "function"
    },
    {
      "inputs": [
        {
          "internalType": "bytes32",
          "name": "role",
          "type": "bytes32"
        },
        {
          "internalType": "address",
          "name": "account",
          "type": "address"
        }
      ],
      "name": "grantRole",
      "outputs": [],
      "stateMutability": "nonpayable",
      "type": "function"
    },
    {
      "inputs": [
        {
          "internalType": "bytes32",
          "name": "role",
          "type": "bytes32"
        },
        {
          "internalType": "address",
          "name": "account",
          "type": "address"
        }
      ],
      "name": "hasRole",
      "outputs": [
        {
          "internalType": "bool",
          "name": "",
          "type": "bool"
        }
      ],
      "stateMutability": "view",
      "type": "function"
    },
    {
      "inputs": [
        {
          "internalType": "address",
          "name": "spender",
          "type": "address"
        },
        {
          "internalType": "uint256",
          "name": "addedValue",
          "type": "uint256"
        }
      ],
      "name": "increaseAllowance",
      "outputs": [
        {
          "internalType": "bool",
          "name": "",
          "type": "bool"
        }
      ],
      "stateMutability": "nonpayable",
      "type": "function"
    },
    {
      "inputs": [
        {
          "internalType": "address",
          "name": "addr",
          "type": "address"
        }
      ],
      "name": "isRestricted",
      "outputs": [
        {
          "internalType": "bool",
          "name": "",
          "type": "bool"
        }
      ],
      "stateMutability": "view",
      "type": "function"
    },
    {
      "inputs": [
        {
          "internalType": "address",
          "name": "to",
          "type": "address"
        },
        {
          "internalType": "uint256",
          "name": "amount",
          "type": "uint256"
        }
      ],
      "name": "mint",
      "outputs": [],
      "stateMutability": "nonpayable",
      "type": "function"
    },
    {
      "inputs": [],
      "name": "name",
      "outputs": [
        {
          "internalType": "string",
          "name": "",
          "type": "string"
        }
      ],
      "stateMutability": "view",
      "type": "function"
    },
    {
      "inputs": [
        {
          "internalType": "address",
          "name": "owner",
          "type": "address"
        }
      ],
      "name": "nonces",
      "outputs": [
        {
          "internalType": "uint256",
          "name": "",
          "type": "uint256"
        }
      ],
      "stateMutability": "view",
      "type": "function"
    },
    {
      "inputs": [
        {
          "internalType": "address",
          "name": "owner",
          "type": "address"
        },
        {
          "internalType": "address",
          "name": "spender",
          "type": "address"
        },
        {
          "internalType": "uint256",
          "name": "value",
          "type": "uint256"
        },
        {
          "internalType": "uint256",
          "name": "deadline",
          "type": "uint256"
        },
        {
          "internalType": "uint8",
          "name": "v",
          "type": "uint8"
        },
        {
          "internalType": "bytes32",
          "name": "r",
          "type": "bytes32"
        },
        {
          "internalType": "bytes32",
          "name": "s",
          "type": "bytes32"
        }
      ],
      "name": "permit",
      "outputs": [],
      "stateMutability": "nonpayable",
      "type": "function"
    },
    {
      "inputs": [
        {
          "internalType": "bytes32",
          "name": "role",
          "type": "bytes32"
        },
        {
          "internalType": "address",
          "name": "account",
          "type": "address"
        }
      ],
      "name": "renounceRole",
      "outputs": [],
      "stateMutability": "nonpayable",
      "type": "function"
    },
    {
      "inputs": [
        {
          "internalType": "address",
          "name": "addr",
          "type": "address"
        },
        {
          "internalType": "uint256",
          "name": "amount",
          "type": "uint256"
        }
      ],
      "name": "restrict",
      "outputs": [],
      "stateMutability": "nonpayable",
      "type": "function"
    },
    {
      "inputs": [
        {
          "internalType": "bytes32",
          "name": "role",
          "type": "bytes32"
        },
        {
          "internalType": "address",
          "name": "account",
          "type": "address"
        }
      ],
      "name": "revokeRole",
      "outputs": [],
      "stateMutability": "nonpayable",
      "type": "function"
    },
    {
      "inputs": [
        {
          "internalType": "uint256",
          "name": "fraction",
          "type": "uint256"
        }
      ],
      "name": "setPeriodTransferFraction",
      "outputs": [],
      "stateMutability": "nonpayable",
      "type": "function"
    },
    {
      "inputs": [
        {
          "internalType": "uint256",
          "name": "_feeAmount",
          "type": "uint256"
        },
        {
          "internalType": "uint256",
          "name": "_feeFraction",
          "type": "uint256"
        },
        {
          "internalType": "address",
          "name": "_feeReceiver",
          "type": "address"
        }
      ],
      "name": "setTransactionFee",
      "outputs": [],
      "stateMutability": "nonpayable",
      "type": "function"
    },
    {
      "inputs": [
        {
          "internalType": "bytes4",
          "name": "interfaceId",
          "type": "bytes4"
        }
      ],
      "name": "supportsInterface",
      "outputs": [
        {
          "internalType": "bool",
          "name": "",
          "type": "bool"
        }
      ],
      "stateMutability": "view",
      "type": "function"
    },
    {
      "inputs": [],
      "name": "symbol",
      "outputs": [
        {
          "internalType": "string",
          "name": "",
          "type": "string"
        }
      ],
      "stateMutability": "view",
      "type": "function"
    },
    {
      "inputs": [],
      "name": "totalSupply",
      "outputs": [
        {
          "internalType": "uint256",
          "name": "",
          "type": "uint256"
        }
      ],
      "stateMutability": "view",
      "type": "function"
    },
    {
      "inputs": [
        {
          "internalType": "uint256",
          "name": "transferingAmount",
          "type": "uint256"
        }
      ],
      "name": "transactionFee",
      "outputs": [
        {
          "internalType": "uint256",
          "name": "fee",
          "type": "uint256"
        }
      ],
      "stateMutability": "view",
      "type": "function"
    },
    {
      "inputs": [
        {
          "internalType": "address",
          "name": "to",
          "type": "address"
        },
        {
          "internalType": "uint256",
          "name": "amount",
          "type": "uint256"
        }
      ],
      "name": "transfer",
      "outputs": [
        {
          "internalType": "bool",
          "name": "",
          "type": "bool"
        }
      ],
      "stateMutability": "nonpayable",
      "type": "function"
    },
    {
      "inputs": [
        {
          "internalType": "address",
          "name": "from",
          "type": "address"
        },
        {
          "internalType": "address",
          "name": "to",
          "type": "address"
        },
        {
          "internalType": "uint256",
          "name": "amount",
          "type": "uint256"
        }
      ],
      "name": "transferFrom",
      "outputs": [
        {
          "internalType": "bool",
          "name": "",
          "type": "bool"
        }
      ],
      "stateMutability": "nonpayable",
      "type": "function"
    }
  ],
  "bytecode": "0x6101a06040523480156200001257600080fd5b506040518060400160405280600f81526020016e109bdd5b991b195cdcc815dbdc9b19608a1b81525080604051806040016040528060018152602001603160f81b81525062000066620002b960201b60201c565b6200007390600a62000489565b620000839063dbf0ee80620004a1565b6040518060400160405280600f81526020016e109bdd5b991b195cdcc815dbdc9b19608a1b8152506040518060400160405280600381526020016221262160e91b8152508160039081620000d8919062000568565b506004620000e7828262000568565b505050600081116200013f5760405162461bcd60e51b815260206004820152601560248201527f45524332304361707065643a2063617020697320300000000000000000000000604482015260640160405180910390fd5b60805281516020808401919091208251918301919091206101008290526101208190524660c0527f8b73c3c69bb8fe3d512ecc4cf759cc79239f7b179b0ffacaa9a75d522b39400f620001d78184846040805160208101859052908101839052606081018290524660808201523060a082015260009060c0016040516020818303038152906040528051906020012090509392505050565b60a0523060e0526101405250504261016052505062278d0061018052503362000202600082620002be565b6200022e7f9f2df0fed2c77648de5860a4cc508cd0818c85b8b8a1ab4ceeef8d981c8956a682620002be565b6200025a7f3c8f0f83bc4264add7714ab92a8e9e5a6814570c3ad9097c24df50773299026682620002be565b620002867fb24c1025622fe38445b605f5c1a9bb02be7f6522d24c8a159e5e47e62dbaaecf82620002be565b620002b27f23ab0e580195340a5a67800cafa0615701edfa22f79534a52851336e3cf8376a82620002be565b5062000634565b601290565b620002ca828262000349565b620003455760008281526007602090815260408083206001600160a01b03851684529091529020805460ff19166001179055620003043390565b6001600160a01b0316816001600160a01b0316837f2f8788117e7eff1d82e926ec794901d17c78024a50270940304540a733656f0d60405160405180910390a45b5050565b60008281526007602090815260408083206001600160a01b038516845290915290205460ff165b92915050565b634e487b7160e01b600052601160045260246000fd5b600181815b80851115620003cd578160001904821115620003b157620003b162000376565b80851615620003bf57918102915b93841c939080029062000391565b509250929050565b600082620003e65750600162000370565b81620003f55750600062000370565b81600181146200040e5760028114620004195762000439565b600191505062000370565b60ff8411156200042d576200042d62000376565b50506001821b62000370565b5060208310610133831016604e8410600b84101617156200045e575081810a62000370565b6200046a83836200038c565b806000190482111562000481576200048162000376565b029392505050565b60006200049a60ff841683620003d5565b9392505050565b6000816000190483118215151615620004be57620004be62000376565b500290565b634e487b7160e01b600052604160045260246000fd5b600181811c90821680620004ee57607f821691505b6020821081036200050f57634e487b7160e01b600052602260045260246000fd5b50919050565b601f8211156200056357600081815260208120601f850160051c810160208610156200053e5750805b601f850160051c820191505b818110156200055f578281556001016200054a565b5050505b505050565b81516001600160401b03811115620005845762000584620004c3565b6200059c81620005958454620004d9565b8462000515565b602080601f831160018114620005d45760008415620005bb5750858301515b600019600386901b1c1916600185901b1785556200055f565b600085815260208120601f198616915b828110156200060557888601518255948401946001909101908401620005e4565b5085821015620006245787850151600019600388901b60f8161c191681555b5050505050600190811b01905550565b60805160a05160c05160e05161010051610120516101405161016051610180516126d8620006ba600039600081816107550152611f470152600081816107790152611f6b015260006112ff0152600061134e0152600061132901526000611282015260006112ac015260006112d601526000818161033f015261172301526126d86000f3fe608060405234801561001057600080fd5b506004361061021c5760003560e01c806340c10f1911610125578063a217fddf116100ad578063d505accf1161007c578063d505accf146104d6578063d5391393146104e9578063d547741f146104fe578063dd62ed3e14610511578063fad71be21461052457600080fd5b8063a217fddf14610495578063a457c2d71461049d578063a9059cbb146104b0578063c01bc982146104c357600080fd5b806370a08231116100f457806370a082311461042b57806379cc6790146104545780637ecebe001461046757806391d148541461047a57806395d89b411461048d57600080fd5b806340c10f19146103cb57806342966c68146103de57806351bcee27146103f15780635d1edb871461041857600080fd5b80632f2ff15d116101a85780633644e515116101775780633644e5151461036357806336568abe1461036b578063367065de1461037e57806339509351146103915780633e0b2cda146103a457600080fd5b80632f2ff15d146102f4578063311d9b2714610307578063313ce5671461032e578063355274ea1461033d57600080fd5b80631681f830116101ef5780631681f8301461028657806318160ddd14610299578063234eaedc146102ab57806323b872dd146102be578063248a9ca3146102d157600080fd5b806301ffc9a71461022157806306fdde0314610249578063095ea7b31461025e57806315c0702a14610271575b600080fd5b61023461022f366004612246565b610537565b60405190151581526020015b60405180910390f35b61025161056e565b604051610240919061229c565b61023461026c3660046122e6565b610600565b61028461027f366004612310565b610618565b005b6102846102943660046122e6565b610652565b6002545b604051908152602001610240565b61029d6102b9366004612310565b6106d0565b6102346102cc36600461232b565b6107ff565b61029d6102df366004612367565b60009081526007602052604090206001015490565b610284610302366004612380565b610823565b61029d7f3c8f0f83bc4264add7714ab92a8e9e5a6814570c3ad9097c24df50773299026681565b60405160128152602001610240565b7f000000000000000000000000000000000000000000000000000000000000000061029d565b61029d610848565b610284610379366004612380565b610857565b61028461038c3660046123ac565b6108da565b61023461039f3660046122e6565b610a6c565b61029d7fb24c1025622fe38445b605f5c1a9bb02be7f6522d24c8a159e5e47e62dbaaecf81565b6102846103d93660046122e6565b610a8e565b6102846103ec366004612367565b610ab0565b61029d7f23ab0e580195340a5a67800cafa0615701edfa22f79534a52851336e3cf8376a81565b61029d610426366004612367565b610abd565b61029d610439366004612310565b6001600160a01b031660009081526020819052604090205490565b6102846104623660046122e6565b610af4565b61029d610475366004612310565b610b09565b610234610488366004612380565b610b27565b610251610b52565b61029d600081565b6102346104ab3660046122e6565b610b61565b6102346104be3660046122e6565b610bdc565b6102346104d1366004612310565b610bea565b6102846104e43660046123e1565b610bf7565b61029d60008051602061266383398151915281565b61028461050c366004612380565b610d5b565b61029d61051f366004612454565b610d80565b610284610532366004612367565b610dab565b60006001600160e01b03198216637965db0b60e01b148061056857506301ffc9a760e01b6001600160e01b03198316145b92915050565b60606003805461057d9061247e565b80601f01602080910402602001604051908101604052809291908181526020018280546105a99061247e565b80156105f65780601f106105cb576101008083540402835291602001916105f6565b820191906000526020600020905b8154815290600101906020018083116105d957829003601f168201915b5050505050905090565b60003361060e818585610e76565b5060019392505050565b7f23ab0e580195340a5a67800cafa0615701edfa22f79534a52851336e3cf8376a61064281610f9b565b61064d600b83610fa5565b505050565b7f23ab0e580195340a5a67800cafa0615701edfa22f79534a52851336e3cf8376a61067c81610f9b565b610688600b8484610fba565b50604080516001600160a01b0385168152602081018490527fa1b8d777c2527547849718a04f45b8e5b0f29119c47f9298b20a85f0ad275424910160405180910390a1505050565b60006106db82610bea565b156106eb57610568600b83610fd8565b600f54620f424003610715576001600160a01b038216600090815260208190526040902054610568565b6000620f4240600f5461073d856001600160a01b031660009081526020819052604090205490565b61074791906124c8565b61075191906124e7565b90507f000000000000000000000000000000000000000000000000000000000000000061079e7f000000000000000000000000000000000000000000000000000000000000000042612509565b6107a891906124e7565b6001600160a01b0384166000908152600e6020526040902060010154036107f1576001600160a01b0383166000908152600e60205260409020546107ec9082612509565b6107f3565b805b9392505050565b919050565b60003361080d858285610fed565b610818858585611067565b506001949350505050565b60008281526007602052604090206001015461083e81610f9b565b61064d83836111ef565b6000610852611275565b905090565b6001600160a01b03811633146108cc5760405162461bcd60e51b815260206004820152602f60248201527f416363657373436f6e74726f6c3a2063616e206f6e6c792072656e6f756e636560448201526e103937b632b9903337b91039b2b63360891b60648201526084015b60405180910390fd5b6108d6828261139c565b5050565b7f3c8f0f83bc4264add7714ab92a8e9e5a6814570c3ad9097c24df50773299026661090481610f9b565b82158061090f575083155b61098f5760405162461bcd60e51b815260206004820152604560248201527f5472616e73616374696f6e4665653a2043616e6e6f742073657420666565416d60448201527f6f756e7420616e64206665654672616374696f6e206174207468652073616d656064820152642074696d6560d81b608482015260a4016108c3565b61c3508311156109fc5760405162461bcd60e51b815260206004820152603260248201527f5472616e73616374696f6e4665653a20557020746f203525207472616e7361636044820152711d1a5bdb9199594818d85b881899481cd95d60721b60648201526084016108c3565b60098490556008839055600a80546001600160a01b0319166001600160a01b0384169081179091556040805186815260208101869052908101919091527fd75a7916f83ee976ae8e04e3f9b46c9b16b546303f09f1fc20eccb6cd6bc476d9060600160405180910390a150505050565b60003361060e818585610a7f8383610d80565b610a899190612520565b610e76565b600080516020612663833981519152610aa681610f9b565b61064d8383611403565b610aba338261140d565b50565b60095460009015610ad057505060095490565b600854156107fa57620f424060085483610aea91906124c8565b61056891906124e7565b610aff823383610fed565b6108d6828261140d565b6001600160a01b038116600090815260056020526040812054610568565b60009182526007602090815260408084206001600160a01b0393909316845291905290205460ff1690565b60606004805461057d9061247e565b60003381610b6f8286610d80565b905083811015610bcf5760405162461bcd60e51b815260206004820152602560248201527f45524332303a2064656372656173656420616c6c6f77616e63652062656c6f77604482015264207a65726f60d81b60648201526084016108c3565b6108188286868403610e76565b60003361060e818585611067565b6000610568600b83611555565b83421115610c475760405162461bcd60e51b815260206004820152601d60248201527f45524332305065726d69743a206578706972656420646561646c696e6500000060448201526064016108c3565b60007f6e71edae12b1b97f4d1f60370fef10105fa2faae0126114a169c64845d6126c9888888610c768c61156a565b6040805160208101969096526001600160a01b0394851690860152929091166060840152608083015260a082015260c0810186905260e0016040516020818303038152906040528051906020012090506000610cd182611592565b90506000610ce1828787876115e0565b9050896001600160a01b0316816001600160a01b031614610d445760405162461bcd60e51b815260206004820152601e60248201527f45524332305065726d69743a20696e76616c6964207369676e6174757265000060448201526064016108c3565b610d4f8a8a8a610e76565b50505050505050505050565b600082815260076020526040902060010154610d7681610f9b565b61064d838361139c565b6001600160a01b03918216600090815260016020908152604080832093909416825291909152205490565b7fb24c1025622fe38445b605f5c1a9bb02be7f6522d24c8a159e5e47e62dbaaecf610dd581610f9b565b620f4240821115610e3a5760405162461bcd60e51b815260206004820152602960248201527f6d6178696d756d206672616374696f6e2069732031302a2a362028657175616c60448201526820746f20313030252960b81b60648201526084016108c3565b600f8290556040518281527fa83163ea39ecbdc3af173e3337234fbe2f88b17dca9802ec3186e557d365e2d19060200160405180910390a15050565b6001600160a01b038316610ed85760405162461bcd60e51b8152602060048201526024808201527f45524332303a20617070726f76652066726f6d20746865207a65726f206164646044820152637265737360e01b60648201526084016108c3565b6001600160a01b038216610f395760405162461bcd60e51b815260206004820152602260248201527f45524332303a20617070726f766520746f20746865207a65726f206164647265604482015261737360f01b60648201526084016108c3565b6001600160a01b0383811660008181526001602090815260408083209487168084529482529182902085905590518481527f8c5be1e5ebec7d5bd14f71427d1e84f3dd0314c0f7b2291e5b200ac8c7c3b92591015b60405180910390a3505050565b610aba8133611608565b60006107f3836001600160a01b03841661166c565b6000610fd0846001600160a01b03851684611689565b949350505050565b60006107f3836001600160a01b0384166116a6565b6000610ff98484610d80565b9050600019811461106157818110156110545760405162461bcd60e51b815260206004820152601d60248201527f45524332303a20696e73756666696369656e7420616c6c6f77616e636500000060448201526064016108c3565b6110618484848403610e76565b50505050565b6001600160a01b0383166110cb5760405162461bcd60e51b815260206004820152602560248201527f45524332303a207472616e736665722066726f6d20746865207a65726f206164604482015264647265737360d81b60648201526084016108c3565b6001600160a01b03821661112d5760405162461bcd60e51b815260206004820152602360248201527f45524332303a207472616e7366657220746f20746865207a65726f206164647260448201526265737360e81b60648201526084016108c3565b611138838383611716565b6001600160a01b038316600090815260208190526040902054818110156111715760405162461bcd60e51b81526004016108c390612538565b6001600160a01b038085166000908152602081905260408082208585039055918516815290812080548492906111a8908490612520565b92505081905550826001600160a01b0316846001600160a01b0316600080516020612683833981519152846040516111e291815260200190565b60405180910390a3611061565b6111f98282610b27565b6108d65760008281526007602090815260408083206001600160a01b03851684529091529020805460ff191660011790556112313390565b6001600160a01b0316816001600160a01b0316837f2f8788117e7eff1d82e926ec794901d17c78024a50270940304540a733656f0d60405160405180910390a45050565b6000306001600160a01b037f0000000000000000000000000000000000000000000000000000000000000000161480156112ce57507f000000000000000000000000000000000000000000000000000000000000000046145b156112f857507f000000000000000000000000000000000000000000000000000000000000000090565b50604080517f00000000000000000000000000000000000000000000000000000000000000006020808301919091527f0000000000000000000000000000000000000000000000000000000000000000828401527f000000000000000000000000000000000000000000000000000000000000000060608301524660808301523060a0808401919091528351808403909101815260c0909201909252805191012090565b6113a68282610b27565b156108d65760008281526007602090815260408083206001600160a01b0385168085529252808320805460ff1916905551339285917ff6391f5c32d9c69d2a47ea670b442974b53935d1edc7fd64eb21e047a839171b9190a45050565b6108d68282611721565b6001600160a01b03821661146d5760405162461bcd60e51b815260206004820152602160248201527f45524332303a206275726e2066726f6d20746865207a65726f206164647265736044820152607360f81b60648201526084016108c3565b61147982600083611716565b6001600160a01b038216600090815260208190526040902054818110156114ed5760405162461bcd60e51b815260206004820152602260248201527f45524332303a206275726e20616d6f756e7420657863656564732062616c616e604482015261636560f01b60648201526084016108c3565b6001600160a01b038316600090815260208190526040812083830390556002805484929061151c908490612509565b90915550506040518281526000906001600160a01b038516906000805160206126838339815191529060200160405180910390a3505050565b60006107f3836001600160a01b0384166117ae565b6001600160a01b03811660009081526005602052604090208054600181018255905b50919050565b600061056861159f611275565b8360405161190160f01b6020820152602281018390526042810182905260009060620160405160208183030381529060405280519060200120905092915050565b60008060006115f1878787876117ba565b915091506115fe816118a7565b5095945050505050565b6116128282610b27565b6108d65761162a816001600160a01b03166014611a5d565b611635836020611a5d565b60405160200161164692919061257e565b60408051601f198184030181529082905262461bcd60e51b82526108c39160040161229c565b600081815260028301602052604081208190556107f38383611bf9565b60008281526002840160205260408120829055610fd08484611c05565b6000818152600283016020526040812054801515806116ca57506116ca84846117ae565b6107f35760405162461bcd60e51b815260206004820152601e60248201527f456e756d657261626c654d61703a206e6f6e6578697374656e74206b6579000060448201526064016108c3565b61064d838383611c11565b7f00000000000000000000000000000000000000000000000000000000000000008161174c60025490565b6117569190612520565b11156117a45760405162461bcd60e51b815260206004820152601960248201527f45524332304361707065643a206361702065786365656465640000000000000060448201526064016108c3565b6108d68282611c42565b60006107f38383611d1b565b6000807f7fffffffffffffffffffffffffffffff5d576e7357a4501ddfe92f46681b20a08311156117f1575060009050600361189e565b8460ff16601b1415801561180957508460ff16601c14155b1561181a575060009050600461189e565b6040805160008082526020820180845289905260ff881692820192909252606081018690526080810185905260019060a0016020604051602081039080840390855afa15801561186e573d6000803e3d6000fd5b5050604051601f1901519150506001600160a01b0381166118975760006001925092505061189e565b9150600090505b94509492505050565b60008160048111156118bb576118bb6125f3565b036118c35750565b60018160048111156118d7576118d76125f3565b036119245760405162461bcd60e51b815260206004820152601860248201527f45434453413a20696e76616c6964207369676e6174757265000000000000000060448201526064016108c3565b6002816004811115611938576119386125f3565b036119855760405162461bcd60e51b815260206004820152601f60248201527f45434453413a20696e76616c6964207369676e6174757265206c656e6774680060448201526064016108c3565b6003816004811115611999576119996125f3565b036119f15760405162461bcd60e51b815260206004820152602260248201527f45434453413a20696e76616c6964207369676e6174757265202773272076616c604482015261756560f01b60648201526084016108c3565b6004816004811115611a0557611a056125f3565b03610aba5760405162461bcd60e51b815260206004820152602260248201527f45434453413a20696e76616c6964207369676e6174757265202776272076616c604482015261756560f01b60648201526084016108c3565b60606000611a6c8360026124c8565b611a77906002612520565b67ffffffffffffffff811115611a8f57611a8f612609565b6040519080825280601f01601f191660200182016040528015611ab9576020820181803683370190505b509050600360fc1b81600081518110611ad457611ad461261f565b60200101906001600160f81b031916908160001a905350600f60fb1b81600181518110611b0357611b0361261f565b60200101906001600160f81b031916908160001a9053506000611b278460026124c8565b611b32906001612520565b90505b6001811115611baa576f181899199a1a9b1b9c1cb0b131b232b360811b85600f1660108110611b6657611b6661261f565b1a60f81b828281518110611b7c57611b7c61261f565b60200101906001600160f81b031916908160001a90535060049490941c93611ba381612635565b9050611b35565b5083156107f35760405162461bcd60e51b815260206004820181905260248201527f537472696e67733a20686578206c656e67746820696e73756666696369656e7460448201526064016108c3565b60006107f38383611d33565b60006107f38383611e26565b611c2960008051602061266383398151915233610b27565b611c3757611c378382611e75565b61064d83838361207c565b6001600160a01b038216611c985760405162461bcd60e51b815260206004820152601f60248201527f45524332303a206d696e7420746f20746865207a65726f20616464726573730060448201526064016108c3565b611ca460008383611716565b8060026000828254611cb69190612520565b90915550506001600160a01b03821660009081526020819052604081208054839290611ce3908490612520565b90915550506040518181526001600160a01b038316906000906000805160206126838339815191529060200160405180910390a35050565b600081815260018301602052604081205415156107f3565b60008181526001830160205260408120548015611e1c576000611d57600183612509565b8554909150600090611d6b90600190612509565b9050818114611dd0576000866000018281548110611d8b57611d8b61261f565b9060005260206000200154905080876000018481548110611dae57611dae61261f565b6000918252602080832090910192909255918252600188019052604090208390555b8554869080611de157611de161264c565b600190038181906000526020600020016000905590558560010160008681526020019081526020016000206000905560019350505050610568565b6000915050610568565b6000818152600183016020526040812054611e6d57508154600181810184556000848152602080822090930184905584548482528286019093526040902091909155610568565b506000610568565b611e7e82610bea565b15611ef9576000611e90600b84610fd8565b905080821115611ee25760405162461bcd60e51b815260206004820152601a60248201527f616d6f756e742065786365656473207370656e64206c696d697400000000000060448201526064016108c3565b61106183611ef08484612509565b600b9190610fba565b600f54620f4240146108d6576000620f4240600f54611f2d856001600160a01b031660009081526020819052604090205490565b611f3791906124c8565b611f4191906124e7565b905060007f0000000000000000000000000000000000000000000000000000000000000000611f907f000000000000000000000000000000000000000000000000000000000000000042612509565b611f9a91906124e7565b6001600160a01b0385166000908152600e6020526040902060010154909150819003611fe6576001600160a01b0384166000908152600e6020526040902054611fe39084612520565b92505b818311156120405760405162461bcd60e51b815260206004820152602160248201527f616d6f756e74206578636565647320706572696f64207370656e64206c696d696044820152601d60fa1b60648201526084016108c3565b60408051808201825293845260208085019283526001600160a01b03959095166000908152600e90955290932091518255509051600190910155565b3361209560008051602061266383398151915282610b27565b6120d957600060085411806120ac57506000600954115b156120d95760006120bc83610abd565b600a549091506120d79083906001600160a01b0316836120de565b505b611061565b6120f660008051602061266383398151915233610b27565b612104576121048382611e75565b61064d83838361212260008051602061266383398151915233610b27565b612130576121308382611e75565b61064d8383836001600160a01b038316156121a1576001600160a01b0383166000908152602081905260409020548181101561217e5760405162461bcd60e51b81526004016108c390612538565b6001600160a01b03841660009081526020819052604090209082900390556121b9565b80600260008282546121b39190612520565b90915550505b6001600160a01b038216156121fb576001600160a01b038216600090815260208190526040812080548392906121f0908490612520565b909155506122139050565b806002600082825461220d9190612509565b90915550505b816001600160a01b0316836001600160a01b031660008051602061268383398151915283604051610f8e91815260200190565b60006020828403121561225857600080fd5b81356001600160e01b0319811681146107f357600080fd5b60005b8381101561228b578181015183820152602001612273565b838111156110615750506000910152565b60208152600082518060208401526122bb816040850160208701612270565b601f01601f19169190910160400192915050565b80356001600160a01b03811681146107fa57600080fd5b600080604083850312156122f957600080fd5b612302836122cf565b946020939093013593505050565b60006020828403121561232257600080fd5b6107f3826122cf565b60008060006060848603121561234057600080fd5b612349846122cf565b9250612357602085016122cf565b9150604084013590509250925092565b60006020828403121561237957600080fd5b5035919050565b6000806040838503121561239357600080fd5b823591506123a3602084016122cf565b90509250929050565b6000806000606084860312156123c157600080fd5b83359250602084013591506123d8604085016122cf565b90509250925092565b600080600080600080600060e0888a0312156123fc57600080fd5b612405886122cf565b9650612413602089016122cf565b95506040880135945060608801359350608088013560ff8116811461243757600080fd5b9699959850939692959460a0840135945060c09093013592915050565b6000806040838503121561246757600080fd5b612470836122cf565b91506123a3602084016122cf565b600181811c9082168061249257607f821691505b60208210810361158c57634e487b7160e01b600052602260045260246000fd5b634e487b7160e01b600052601160045260246000fd5b60008160001904831182151516156124e2576124e26124b2565b500290565b60008261250457634e487b7160e01b600052601260045260246000fd5b500490565b60008282101561251b5761251b6124b2565b500390565b60008219821115612533576125336124b2565b500190565b60208082526026908201527f45524332303a207472616e7366657220616d6f756e7420657863656564732062604082015265616c616e636560d01b606082015260800190565b7f416363657373436f6e74726f6c3a206163636f756e74200000000000000000008152600083516125b6816017850160208801612270565b7001034b99036b4b9b9b4b733903937b6329607d1b60179184019182015283516125e7816028840160208801612270565b01602801949350505050565b634e487b7160e01b600052602160045260246000fd5b634e487b7160e01b600052604160045260246000fd5b634e487b7160e01b600052603260045260246000fd5b600081612644576126446124b2565b506000190190565b634e487b7160e01b600052603160045260246000fdfe9f2df0fed2c77648de5860a4cc508cd0818c85b8b8a1ab4ceeef8d981c8956a6ddf252ad1be2c89b69c2b068fc378daa952ba7f163c4a11628f55a4df523b3efa2646970667358221220499da7fcce57eb01b2c2a2c9f42a582cf97252e75311badd010fc1778fd4cb8c64736f6c634300080f0033",
  "linkReferences": {},
  "deployedLinkReferences": {}
}