{
  "_format": "hh-sol-artifact-1",
  "contractName": "BLBToken",
  "sourceName": "contracts/BEP20/BLBToken.sol",
  "abi": [
    {
      "inputs": [],
      "stateMutability": "nonpayable",
      "type": "constructor"
    },
    {
      "anonymous": false,
      "inputs": [
        {
          "indexed": true,
          "internalType": "address",
          "name": "owner",
          "type": "address"
        },
        {
          "indexed": true,
          "internalType": "address",
          "name": "spender",
          "type": "address"
        },
        {
          "indexed": false,
          "internalType": "uint256",
          "name": "value",
          "type": "uint256"
        }
      ],
      "name": "Approval",
      "type": "event"
    },
    {
      "anonymous": false,
      "inputs": [
        {
          "indexed": false,
          "internalType": "address",
          "name": "addr",
          "type": "address"
        }
      ],
      "name": "District",
      "type": "event"
    },
    {
      "anonymous": false,
      "inputs": [
        {
          "indexed": false,
          "internalType": "address",
          "name": "addr",
          "type": "address"
        },
        {
          "indexed": false,
          "internalType": "uint256",
          "name": "amount",
          "type": "uint256"
        }
      ],
      "name": "Restrict",
      "type": "event"
    },
    {
      "anonymous": false,
      "inputs": [
        {
          "indexed": true,
          "internalType": "bytes32",
          "name": "role",
          "type": "bytes32"
        },
        {
          "indexed": true,
          "internalType": "bytes32",
          "name": "previousAdminRole",
          "type": "bytes32"
        },
        {
          "indexed": true,
          "internalType": "bytes32",
          "name": "newAdminRole",
          "type": "bytes32"
        }
      ],
      "name": "RoleAdminChanged",
      "type": "event"
    },
    {
      "anonymous": false,
      "inputs": [
        {
          "indexed": true,
          "internalType": "bytes32",
          "name": "role",
          "type": "bytes32"
        },
        {
          "indexed": true,
          "internalType": "address",
          "name": "account",
          "type": "address"
        },
        {
          "indexed": true,
          "internalType": "address",
          "name": "sender",
          "type": "address"
        }
      ],
      "name": "RoleGranted",
      "type": "event"
    },
    {
      "anonymous": false,
      "inputs": [
        {
          "indexed": true,
          "internalType": "bytes32",
          "name": "role",
          "type": "bytes32"
        },
        {
          "indexed": true,
          "internalType": "address",
          "name": "account",
          "type": "address"
        },
        {
          "indexed": true,
          "internalType": "address",
          "name": "sender",
          "type": "address"
        }
      ],
      "name": "RoleRevoked",
      "type": "event"
    },
    {
      "anonymous": false,
      "inputs": [
        {
          "indexed": false,
          "internalType": "uint256",
          "name": "fraction",
          "type": "uint256"
        }
      ],
      "name": "SetPeriodTransferFraction",
      "type": "event"
    },
    {
      "anonymous": false,
      "inputs": [
        {
          "indexed": false,
          "internalType": "uint256",
          "name": "_feeAmount",
          "type": "uint256"
        },
        {
          "indexed": false,
          "internalType": "uint256",
          "name": "_feeFraction",
          "type": "uint256"
        },
        {
          "indexed": false,
          "internalType": "address",
          "name": "_feeReceiver",
          "type": "address"
        }
      ],
      "name": "SetTransactionFee",
      "type": "event"
    },
    {
      "anonymous": false,
      "inputs": [
        {
          "indexed": true,
          "internalType": "address",
          "name": "from",
          "type": "address"
        },
        {
          "indexed": true,
          "internalType": "address",
          "name": "to",
          "type": "address"
        },
        {
          "indexed": false,
          "internalType": "uint256",
          "name": "value",
          "type": "uint256"
        }
      ],
      "name": "Transfer",
      "type": "event"
    },
    {
      "inputs": [],
      "name": "DEFAULT_ADMIN_ROLE",
      "outputs": [
        {
          "internalType": "bytes32",
          "name": "",
          "type": "bytes32"
        }
      ],
      "stateMutability": "view",
      "type": "function"
    },
    {
      "inputs": [],
      "name": "DOMAIN_SEPARATOR",
      "outputs": [
        {
          "internalType": "bytes32",
          "name": "",
          "type": "bytes32"
        }
      ],
      "stateMutability": "view",
      "type": "function"
    },
    {
      "inputs": [],
      "name": "MINTER_ROLE",
      "outputs": [
        {
          "internalType": "bytes32",
          "name": "",
          "type": "bytes32"
        }
      ],
      "stateMutability": "view",
      "type": "function"
    },
    {
      "inputs": [],
      "name": "RESTRICTOR_ROLE",
      "outputs": [
        {
          "internalType": "bytes32",
          "name": "",
          "type": "bytes32"
        }
      ],
      "stateMutability": "view",
      "type": "function"
    },
    {
      "inputs": [],
      "name": "TRANSACTION_FEE_SETTER",
      "outputs": [
        {
          "internalType": "bytes32",
          "name": "",
          "type": "bytes32"
        }
      ],
      "stateMutability": "view",
      "type": "function"
    },
    {
      "inputs": [],
      "name": "TRANSFER_LIMIT_SETTER",
      "outputs": [
        {
          "internalType": "bytes32",
          "name": "",
          "type": "bytes32"
        }
      ],
      "stateMutability": "view",
      "type": "function"
    },
    {
      "inputs": [
        {
          "internalType": "address",
          "name": "owner",
          "type": "address"
        },
        {
          "internalType": "address",
          "name": "spender",
          "type": "address"
        }
      ],
      "name": "allowance",
      "outputs": [
        {
          "internalType": "uint256",
          "name": "",
          "type": "uint256"
        }
      ],
      "stateMutability": "view",
      "type": "function"
    },
    {
      "inputs": [
        {
          "internalType": "address",
          "name": "spender",
          "type": "address"
        },
        {
          "internalType": "uint256",
          "name": "amount",
          "type": "uint256"
        }
      ],
      "name": "approve",
      "outputs": [
        {
          "internalType": "bool",
          "name": "",
          "type": "bool"
        }
      ],
      "stateMutability": "nonpayable",
      "type": "function"
    },
    {
      "inputs": [
        {
          "internalType": "address",
          "name": "account",
          "type": "address"
        }
      ],
      "name": "balanceOf",
      "outputs": [
        {
          "internalType": "uint256",
          "name": "",
          "type": "uint256"
        }
      ],
      "stateMutability": "view",
      "type": "function"
    },
    {
      "inputs": [
        {
          "internalType": "uint256",
          "name": "amount",
          "type": "uint256"
        }
      ],
      "name": "burn",
      "outputs": [],
      "stateMutability": "nonpayable",
      "type": "function"
    },
    {
      "inputs": [
        {
          "internalType": "address",
          "name": "account",
          "type": "address"
        },
        {
          "internalType": "uint256",
          "name": "amount",
          "type": "uint256"
        }
      ],
      "name": "burnFrom",
      "outputs": [],
      "stateMutability": "nonpayable",
      "type": "function"
    },
    {
      "inputs": [
        {
          "internalType": "address",
          "name": "addr",
          "type": "address"
        }
      ],
      "name": "canSpend",
      "outputs": [
        {
          "internalType": "uint256",
          "name": "amount",
          "type": "uint256"
        }
      ],
      "stateMutability": "view",
      "type": "function"
    },
    {
      "inputs": [],
      "name": "cap",
      "outputs": [
        {
          "internalType": "uint256",
          "name": "",
          "type": "uint256"
        }
      ],
      "stateMutability": "view",
      "type": "function"
    },
    {
      "inputs": [],
      "name": "decimals",
      "outputs": [
        {
          "internalType": "uint8",
          "name": "",
          "type": "uint8"
        }
      ],
      "stateMutability": "view",
      "type": "function"
    },
    {
      "inputs": [
        {
          "internalType": "address",
          "name": "spender",
          "type": "address"
        },
        {
          "internalType": "uint256",
          "name": "subtractedValue",
          "type": "uint256"
        }
      ],
      "name": "decreaseAllowance",
      "outputs": [
        {
          "internalType": "bool",
          "name": "",
          "type": "bool"
        }
      ],
      "stateMutability": "nonpayable",
      "type": "function"
    },
    {
      "inputs": [
        {
          "internalType": "address",
          "name": "addr",
          "type": "address"
        }
      ],
      "name": "district",
      "outputs": [],
      "stateMutability": "nonpayable",
      "type": "function"
    },
    {
      "inputs": [
        {
          "internalType": "bytes32",
          "name": "role",
          "type": "bytes32"
        }
      ],
      "name": "getRoleAdmin",
      "outputs": [
        {
          "internalType": "bytes32",
          "name": "",
          "type": "bytes32"
        }
      ],
      "stateMutability": "view",
      "type": "function"
    },
    {
      "inputs": [
        {
          "internalType": "bytes32",
          "name": "role",
          "type": "bytes32"
        },
        {
          "internalType": "address",
          "name": "account",
          "type": "address"
        }
      ],
      "name": "grantRole",
      "outputs": [],
      "stateMutability": "nonpayable",
      "type": "function"
    },
    {
      "inputs": [
        {
          "internalType": "bytes32",
          "name": "role",
          "type": "bytes32"
        },
        {
          "internalType": "address",
          "name": "account",
          "type": "address"
        }
      ],
      "name": "hasRole",
      "outputs": [
        {
          "internalType": "bool",
          "name": "",
          "type": "bool"
        }
      ],
      "stateMutability": "view",
      "type": "function"
    },
    {
      "inputs": [
        {
          "internalType": "address",
          "name": "spender",
          "type": "address"
        },
        {
          "internalType": "uint256",
          "name": "addedValue",
          "type": "uint256"
        }
      ],
      "name": "increaseAllowance",
      "outputs": [
        {
          "internalType": "bool",
          "name": "",
          "type": "bool"
        }
      ],
      "stateMutability": "nonpayable",
      "type": "function"
    },
    {
      "inputs": [
        {
          "internalType": "address",
          "name": "addr",
          "type": "address"
        }
      ],
      "name": "isRestricted",
      "outputs": [
        {
          "internalType": "bool",
          "name": "",
          "type": "bool"
        }
      ],
      "stateMutability": "view",
      "type": "function"
    },
    {
      "inputs": [
        {
          "internalType": "address",
          "name": "to",
          "type": "address"
        },
        {
          "internalType": "uint256",
          "name": "amount",
          "type": "uint256"
        }
      ],
      "name": "mint",
      "outputs": [],
      "stateMutability": "nonpayable",
      "type": "function"
    },
    {
      "inputs": [],
      "name": "name",
      "outputs": [
        {
          "internalType": "string",
          "name": "",
          "type": "string"
        }
      ],
      "stateMutability": "view",
      "type": "function"
    },
    {
      "inputs": [
        {
          "internalType": "address",
          "name": "owner",
          "type": "address"
        }
      ],
      "name": "nonces",
      "outputs": [
        {
          "internalType": "uint256",
          "name": "",
          "type": "uint256"
        }
      ],
      "stateMutability": "view",
      "type": "function"
    },
    {
      "inputs": [
        {
          "internalType": "address",
          "name": "owner",
          "type": "address"
        },
        {
          "internalType": "address",
          "name": "spender",
          "type": "address"
        },
        {
          "internalType": "uint256",
          "name": "value",
          "type": "uint256"
        },
        {
          "internalType": "uint256",
          "name": "deadline",
          "type": "uint256"
        },
        {
          "internalType": "uint8",
          "name": "v",
          "type": "uint8"
        },
        {
          "internalType": "bytes32",
          "name": "r",
          "type": "bytes32"
        },
        {
          "internalType": "bytes32",
          "name": "s",
          "type": "bytes32"
        }
      ],
      "name": "permit",
      "outputs": [],
      "stateMutability": "nonpayable",
      "type": "function"
    },
    {
      "inputs": [
        {
          "internalType": "bytes32",
          "name": "role",
          "type": "bytes32"
        },
        {
          "internalType": "address",
          "name": "account",
          "type": "address"
        }
      ],
      "name": "renounceRole",
      "outputs": [],
      "stateMutability": "nonpayable",
      "type": "function"
    },
    {
      "inputs": [
        {
          "internalType": "address",
          "name": "addr",
          "type": "address"
        },
        {
          "internalType": "uint256",
          "name": "amount",
          "type": "uint256"
        }
      ],
      "name": "restrict",
      "outputs": [],
      "stateMutability": "nonpayable",
      "type": "function"
    },
    {
      "inputs": [
        {
          "internalType": "bytes32",
          "name": "role",
          "type": "bytes32"
        },
        {
          "internalType": "address",
          "name": "account",
          "type": "address"
        }
      ],
      "name": "revokeRole",
      "outputs": [],
      "stateMutability": "nonpayable",
      "type": "function"
    },
    {
      "inputs": [
        {
          "internalType": "uint256",
          "name": "fraction",
          "type": "uint256"
        }
      ],
      "name": "setPeriodTransferFraction",
      "outputs": [],
      "stateMutability": "nonpayable",
      "type": "function"
    },
    {
      "inputs": [
        {
          "internalType": "uint256",
          "name": "_feeAmount",
          "type": "uint256"
        },
        {
          "internalType": "uint256",
          "name": "_feeFraction",
          "type": "uint256"
        },
        {
          "internalType": "address",
          "name": "_feeReceiver",
          "type": "address"
        }
      ],
      "name": "setTransactionFee",
      "outputs": [],
      "stateMutability": "nonpayable",
      "type": "function"
    },
    {
      "inputs": [
        {
          "internalType": "bytes4",
          "name": "interfaceId",
          "type": "bytes4"
        }
      ],
      "name": "supportsInterface",
      "outputs": [
        {
          "internalType": "bool",
          "name": "",
          "type": "bool"
        }
      ],
      "stateMutability": "view",
      "type": "function"
    },
    {
      "inputs": [],
      "name": "symbol",
      "outputs": [
        {
          "internalType": "string",
          "name": "",
          "type": "string"
        }
      ],
      "stateMutability": "view",
      "type": "function"
    },
    {
      "inputs": [],
      "name": "totalSupply",
      "outputs": [
        {
          "internalType": "uint256",
          "name": "",
          "type": "uint256"
        }
      ],
      "stateMutability": "view",
      "type": "function"
    },
    {
      "inputs": [
        {
          "internalType": "uint256",
          "name": "transferingAmount",
          "type": "uint256"
        }
      ],
      "name": "transactionFee",
      "outputs": [
        {
          "internalType": "uint256",
          "name": "fee",
          "type": "uint256"
        }
      ],
      "stateMutability": "view",
      "type": "function"
    },
    {
      "inputs": [
        {
          "internalType": "address",
          "name": "to",
          "type": "address"
        },
        {
          "internalType": "uint256",
          "name": "amount",
          "type": "uint256"
        }
      ],
      "name": "transfer",
      "outputs": [
        {
          "internalType": "bool",
          "name": "",
          "type": "bool"
        }
      ],
      "stateMutability": "nonpayable",
      "type": "function"
    },
    {
      "inputs": [
        {
          "internalType": "address",
          "name": "from",
          "type": "address"
        },
        {
          "internalType": "address",
          "name": "to",
          "type": "address"
        },
        {
          "internalType": "uint256",
          "name": "amount",
          "type": "uint256"
        }
      ],
      "name": "transferFrom",
      "outputs": [
        {
          "internalType": "bool",
          "name": "",
          "type": "bool"
        }
      ],
      "stateMutability": "nonpayable",
      "type": "function"
    }
  ],
  "bytecode": "0x6101a06040523480156200001257600080fd5b506040518060400160405280600f81526020016e109bdd5b991b195cdcc815dbdc9b19608a1b81525080604051806040016040528060018152602001603160f81b81525062000066620002b960201b60201c565b6200007390600a62000489565b620000839063dbf0ee80620004a1565b6040518060400160405280600f81526020016e109bdd5b991b195cdcc815dbdc9b19608a1b8152506040518060400160405280600381526020016221262160e91b8152508160039081620000d8919062000568565b506004620000e7828262000568565b505050600081116200013f5760405162461bcd60e51b815260206004820152601560248201527f45524332304361707065643a2063617020697320300000000000000000000000604482015260640160405180910390fd5b60805281516020808401919091208251918301919091206101008290526101208190524660c0527f8b73c3c69bb8fe3d512ecc4cf759cc79239f7b179b0ffacaa9a75d522b39400f620001d78184846040805160208101859052908101839052606081018290524660808201523060a082015260009060c0016040516020818303038152906040528051906020012090509392505050565b60a0523060e0526101405250504261016052505062278d0061018052503362000202600082620002be565b6200022e7f9f2df0fed2c77648de5860a4cc508cd0818c85b8b8a1ab4ceeef8d981c8956a682620002be565b6200025a7fd0ac125722f4b4565ab5e91b234e50c4c6f541672aea816ba090a0ea349ed93f82620002be565b620002867fb24c1025622fe38445b605f5c1a9bb02be7f6522d24c8a159e5e47e62dbaaecf82620002be565b620002b27f23ab0e580195340a5a67800cafa0615701edfa22f79534a52851336e3cf8376a82620002be565b5062000634565b601290565b620002ca828262000349565b620003455760008281526007602090815260408083206001600160a01b03851684529091529020805460ff19166001179055620003043390565b6001600160a01b0316816001600160a01b0316837f2f8788117e7eff1d82e926ec794901d17c78024a50270940304540a733656f0d60405160405180910390a45b5050565b60008281526007602090815260408083206001600160a01b038516845290915290205460ff165b92915050565b634e487b7160e01b600052601160045260246000fd5b600181815b80851115620003cd578160001904821115620003b157620003b162000376565b80851615620003bf57918102915b93841c939080029062000391565b509250929050565b600082620003e65750600162000370565b81620003f55750600062000370565b81600181146200040e5760028114620004195762000439565b600191505062000370565b60ff8411156200042d576200042d62000376565b50506001821b62000370565b5060208310610133831016604e8410600b84101617156200045e575081810a62000370565b6200046a83836200038c565b806000190482111562000481576200048162000376565b029392505050565b60006200049a60ff841683620003d5565b9392505050565b6000816000190483118215151615620004be57620004be62000376565b500290565b634e487b7160e01b600052604160045260246000fd5b600181811c90821680620004ee57607f821691505b6020821081036200050f57634e487b7160e01b600052602260045260246000fd5b50919050565b601f8211156200056357600081815260208120601f850160051c810160208610156200053e5750805b601f850160051c820191505b818110156200055f578281556001016200054a565b5050505b505050565b81516001600160401b03811115620005845762000584620004c3565b6200059c81620005958454620004d9565b8462000515565b602080601f831160018114620005d45760008415620005bb5750858301515b600019600386901b1c1916600185901b1785556200055f565b600085815260208120601f198616915b828110156200060557888601518255948401946001909101908401620005e4565b5085821015620006245787850151600019600388901b60f8161c191681555b5050505050600190811b01905550565b60805160a05160c05160e0516101005161012051610140516101605161018051612711620006c1600039600081816107690152611ea901526000818161078d0152611ecd015260006113380152600061138701526000611362015260006112bb015260006112e50152600061130f015260008181610330015281816106db015261175401526127116000f3fe608060405234801561001057600080fd5b506004361061021c5760003560e01c806342966c6811610125578063a457c2d7116100ad578063d53913931161007c578063d5391393146104da578063d547741f146104ef578063dd62ed3e14610502578063e162533c14610515578063fad71be21461052857600080fd5b8063a457c2d71461048e578063a9059cbb146104a1578063c01bc982146104b4578063d505accf146104c757600080fd5b806379cc6790116100f457806379cc6790146104455780637ecebe001461045857806391d148541461046b57806395d89b411461047e578063a217fddf1461048657600080fd5b806342966c68146103cf57806351bcee27146103e25780635d1edb871461040957806370a082311461041c57600080fd5b80632f2ff15d116101a857806336568abe1161017757806336568abe1461035c578063367065de1461036f57806339509351146103825780633e0b2cda1461039557806340c10f19146103bc57600080fd5b80632f2ff15d1461030c578063313ce5671461031f578063355274ea1461032e5780633644e5151461035457600080fd5b80631681f830116101ef5780631681f830146102a657806318160ddd146102bb578063234eaedc146102c357806323b872dd146102d6578063248a9ca3146102e957600080fd5b806301ffc9a71461022157806306fdde0314610249578063095ea7b31461025e5780630ecbd03314610271575b600080fd5b61023461022f36600461227f565b61053b565b60405190151581526020015b60405180910390f35b610251610572565b60405161024091906122d5565b61023461026c36600461231f565b610604565b6102987fd0ac125722f4b4565ab5e91b234e50c4c6f541672aea816ba090a0ea349ed93f81565b604051908152602001610240565b6102b96102b436600461231f565b61061c565b005b600254610298565b6102986102d1366004612349565b61069a565b6102346102e4366004612364565b610813565b6102986102f73660046123a0565b60009081526007602052604090206001015490565b6102b961031a3660046123b9565b610837565b60405160128152602001610240565b7f0000000000000000000000000000000000000000000000000000000000000000610298565b610298610861565b6102b961036a3660046123b9565b610870565b6102b961037d3660046123e5565b6108f3565b61023461039036600461231f565b610a85565b6102987fb24c1025622fe38445b605f5c1a9bb02be7f6522d24c8a159e5e47e62dbaaecf81565b6102b96103ca36600461231f565b610aa7565b6102b96103dd3660046123a0565b610ac9565b6102987f23ab0e580195340a5a67800cafa0615701edfa22f79534a52851336e3cf8376a81565b6102986104173660046123a0565b610ad6565b61029861042a366004612349565b6001600160a01b031660009081526020819052604090205490565b6102b961045336600461231f565b610b0d565b610298610466366004612349565b610b22565b6102346104793660046123b9565b610b40565b610251610b6b565b610298600081565b61023461049c36600461231f565b610b7a565b6102346104af36600461231f565b610bf5565b6102346104c2366004612349565b610c03565b6102b96104d536600461241a565b610c10565b61029860008051602061269c83398151915281565b6102b96104fd3660046123b9565b610d74565b61029861051036600461248d565b610d99565b6102b9610523366004612349565b610dc4565b6102b96105363660046123a0565b610df9565b60006001600160e01b03198216637965db0b60e01b148061056c57506301ffc9a760e01b6001600160e01b03198316145b92915050565b606060038054610581906124b7565b80601f01602080910402602001604051908101604052809291908181526020018280546105ad906124b7565b80156105fa5780601f106105cf576101008083540402835291602001916105fa565b820191906000526020600020905b8154815290600101906020018083116105dd57829003601f168201915b5050505050905090565b600033610612818585610ec4565b5060019392505050565b7f23ab0e580195340a5a67800cafa0615701edfa22f79534a52851336e3cf8376a61064681610fe9565b610652600b8484610ff3565b50604080516001600160a01b0385168152602081018490527fa1b8d777c2527547849718a04f45b8e5b0f29119c47f9298b20a85f0ad275424910160405180910390a1505050565b60006106a582610c03565b156106b55761056c600b83611011565b6106cd60008051602061269c83398151915233610b40565b156106ff5760025461056c907f0000000000000000000000000000000000000000000000000000000000000000612501565b600f54620f424003610729576001600160a01b03821660009081526020819052604090205461056c565b6000620f4240600f54610751856001600160a01b031660009081526020819052604090205490565b61075b9190612518565b6107659190612537565b90507f00000000000000000000000000000000000000000000000000000000000000006107b27f000000000000000000000000000000000000000000000000000000000000000042612501565b6107bc9190612537565b6001600160a01b0384166000908152600e602052604090206001015403610805576001600160a01b0383166000908152600e60205260409020546108009082612501565b610807565b805b9392505050565b919050565b600033610821858285611026565b61082c8585856110a0565b506001949350505050565b60008281526007602052604090206001015461085281610fe9565b61085c8383611228565b505050565b600061086b6112ae565b905090565b6001600160a01b03811633146108e55760405162461bcd60e51b815260206004820152602f60248201527f416363657373436f6e74726f6c3a2063616e206f6e6c792072656e6f756e636560448201526e103937b632b9903337b91039b2b63360891b60648201526084015b60405180910390fd5b6108ef82826113d5565b5050565b7fd0ac125722f4b4565ab5e91b234e50c4c6f541672aea816ba090a0ea349ed93f61091d81610fe9565b821580610928575083155b6109a85760405162461bcd60e51b815260206004820152604560248201527f5472616e73616374696f6e4665653a2043616e6e6f742073657420666565416d60448201527f6f756e7420616e64206665654672616374696f6e206174207468652073616d656064820152642074696d6560d81b608482015260a4016108dc565b61c350831115610a155760405162461bcd60e51b815260206004820152603260248201527f5472616e73616374696f6e4665653a20557020746f203525207472616e7361636044820152711d1a5bdb9199594818d85b881899481cd95d60721b60648201526084016108dc565b60098490556008839055600a80546001600160a01b0319166001600160a01b0384169081179091556040805186815260208101869052908101919091527fd75a7916f83ee976ae8e04e3f9b46c9b16b546303f09f1fc20eccb6cd6bc476d9060600160405180910390a150505050565b600033610612818585610a988383610d99565b610aa29190612559565b610ec4565b60008051602061269c833981519152610abf81610fe9565b61085c838361143c565b610ad33382611446565b50565b60095460009015610ae957505060095490565b6008541561080e57620f424060085483610b039190612518565b61056c9190612537565b610b18823383611026565b6108ef8282611446565b6001600160a01b03811660009081526005602052604081205461056c565b60009182526007602090815260408084206001600160a01b0393909316845291905290205460ff1690565b606060048054610581906124b7565b60003381610b888286610d99565b905083811015610be85760405162461bcd60e51b815260206004820152602560248201527f45524332303a2064656372656173656420616c6c6f77616e63652062656c6f77604482015264207a65726f60d81b60648201526084016108dc565b61082c8286868403610ec4565b6000336106128185856110a0565b600061056c600b8361158e565b83421115610c605760405162461bcd60e51b815260206004820152601d60248201527f45524332305065726d69743a206578706972656420646561646c696e6500000060448201526064016108dc565b60007f6e71edae12b1b97f4d1f60370fef10105fa2faae0126114a169c64845d6126c9888888610c8f8c6115a3565b6040805160208101969096526001600160a01b0394851690860152929091166060840152608083015260a082015260c0810186905260e0016040516020818303038152906040528051906020012090506000610cea826115cb565b90506000610cfa82878787611619565b9050896001600160a01b0316816001600160a01b031614610d5d5760405162461bcd60e51b815260206004820152601e60248201527f45524332305065726d69743a20696e76616c6964207369676e6174757265000060448201526064016108dc565b610d688a8a8a610ec4565b50505050505050505050565b600082815260076020526040902060010154610d8f81610fe9565b61085c83836113d5565b6001600160a01b03918216600090815260016020908152604080832093909416825291909152205490565b7f23ab0e580195340a5a67800cafa0615701edfa22f79534a52851336e3cf8376a610dee81610fe9565b61085c600b83611641565b7fb24c1025622fe38445b605f5c1a9bb02be7f6522d24c8a159e5e47e62dbaaecf610e2381610fe9565b620f4240821115610e885760405162461bcd60e51b815260206004820152602960248201527f6d6178696d756d206672616374696f6e2069732031302a2a362028657175616c60448201526820746f20313030252960b81b60648201526084016108dc565b600f8290556040518281527fa83163ea39ecbdc3af173e3337234fbe2f88b17dca9802ec3186e557d365e2d19060200160405180910390a15050565b6001600160a01b038316610f265760405162461bcd60e51b8152602060048201526024808201527f45524332303a20617070726f76652066726f6d20746865207a65726f206164646044820152637265737360e01b60648201526084016108dc565b6001600160a01b038216610f875760405162461bcd60e51b815260206004820152602260248201527f45524332303a20617070726f766520746f20746865207a65726f206164647265604482015261737360f01b60648201526084016108dc565b6001600160a01b0383811660008181526001602090815260408083209487168084529482529182902085905590518481527f8c5be1e5ebec7d5bd14f71427d1e84f3dd0314c0f7b2291e5b200ac8c7c3b92591015b60405180910390a3505050565b610ad38133611656565b6000611009846001600160a01b038516846116ba565b949350505050565b6000610807836001600160a01b0384166116d7565b60006110328484610d99565b9050600019811461109a578181101561108d5760405162461bcd60e51b815260206004820152601d60248201527f45524332303a20696e73756666696369656e7420616c6c6f77616e636500000060448201526064016108dc565b61109a8484848403610ec4565b50505050565b6001600160a01b0383166111045760405162461bcd60e51b815260206004820152602560248201527f45524332303a207472616e736665722066726f6d20746865207a65726f206164604482015264647265737360d81b60648201526084016108dc565b6001600160a01b0382166111665760405162461bcd60e51b815260206004820152602360248201527f45524332303a207472616e7366657220746f20746865207a65726f206164647260448201526265737360e81b60648201526084016108dc565b611171838383611747565b6001600160a01b038316600090815260208190526040902054818110156111aa5760405162461bcd60e51b81526004016108dc90612571565b6001600160a01b038085166000908152602081905260408082208585039055918516815290812080548492906111e1908490612559565b92505081905550826001600160a01b0316846001600160a01b03166000805160206126bc8339815191528460405161121b91815260200190565b60405180910390a361109a565b6112328282610b40565b6108ef5760008281526007602090815260408083206001600160a01b03851684529091529020805460ff1916600117905561126a3390565b6001600160a01b0316816001600160a01b0316837f2f8788117e7eff1d82e926ec794901d17c78024a50270940304540a733656f0d60405160405180910390a45050565b6000306001600160a01b037f00000000000000000000000000000000000000000000000000000000000000001614801561130757507f000000000000000000000000000000000000000000000000000000000000000046145b1561133157507f000000000000000000000000000000000000000000000000000000000000000090565b50604080517f00000000000000000000000000000000000000000000000000000000000000006020808301919091527f0000000000000000000000000000000000000000000000000000000000000000828401527f000000000000000000000000000000000000000000000000000000000000000060608301524660808301523060a0808401919091528351808403909101815260c0909201909252805191012090565b6113df8282610b40565b156108ef5760008281526007602090815260408083206001600160a01b0385168085529252808320805460ff1916905551339285917ff6391f5c32d9c69d2a47ea670b442974b53935d1edc7fd64eb21e047a839171b9190a45050565b6108ef8282611752565b6001600160a01b0382166114a65760405162461bcd60e51b815260206004820152602160248201527f45524332303a206275726e2066726f6d20746865207a65726f206164647265736044820152607360f81b60648201526084016108dc565b6114b282600083611747565b6001600160a01b038216600090815260208190526040902054818110156115265760405162461bcd60e51b815260206004820152602260248201527f45524332303a206275726e20616d6f756e7420657863656564732062616c616e604482015261636560f01b60648201526084016108dc565b6001600160a01b0383166000908152602081905260408120838303905560028054849290611555908490612501565b90915550506040518281526000906001600160a01b038516906000805160206126bc8339815191529060200160405180910390a3505050565b6000610807836001600160a01b0384166117df565b6001600160a01b03811660009081526005602052604090208054600181018255905b50919050565b600061056c6115d86112ae565b8360405161190160f01b6020820152602281018390526042810182905260009060620160405160208183030381529060405280519060200120905092915050565b600080600061162a878787876117eb565b91509150611637816118d8565b5095945050505050565b6000610807836001600160a01b038416611a8e565b6116608282610b40565b6108ef57611678816001600160a01b03166014611aab565b611683836020611aab565b6040516020016116949291906125b7565b60408051601f198184030181529082905262461bcd60e51b82526108dc916004016122d5565b600082815260028401602052604081208290556110098484611c47565b6000818152600283016020526040812054801515806116fb57506116fb84846117df565b6108075760405162461bcd60e51b815260206004820152601e60248201527f456e756d657261626c654d61703a206e6f6e6578697374656e74206b6579000060448201526064016108dc565b61085c838383611c53565b7f00000000000000000000000000000000000000000000000000000000000000008161177d60025490565b6117879190612559565b11156117d55760405162461bcd60e51b815260206004820152601960248201527f45524332304361707065643a206361702065786365656465640000000000000060448201526064016108dc565b6108ef8282611c68565b60006108078383611d41565b6000807f7fffffffffffffffffffffffffffffff5d576e7357a4501ddfe92f46681b20a083111561182257506000905060036118cf565b8460ff16601b1415801561183a57508460ff16601c14155b1561184b57506000905060046118cf565b6040805160008082526020820180845289905260ff881692820192909252606081018690526080810185905260019060a0016020604051602081039080840390855afa15801561189f573d6000803e3d6000fd5b5050604051601f1901519150506001600160a01b0381166118c8576000600192509250506118cf565b9150600090505b94509492505050565b60008160048111156118ec576118ec61262c565b036118f45750565b60018160048111156119085761190861262c565b036119555760405162461bcd60e51b815260206004820152601860248201527f45434453413a20696e76616c6964207369676e6174757265000000000000000060448201526064016108dc565b60028160048111156119695761196961262c565b036119b65760405162461bcd60e51b815260206004820152601f60248201527f45434453413a20696e76616c6964207369676e6174757265206c656e6774680060448201526064016108dc565b60038160048111156119ca576119ca61262c565b03611a225760405162461bcd60e51b815260206004820152602260248201527f45434453413a20696e76616c6964207369676e6174757265202773272076616c604482015261756560f01b60648201526084016108dc565b6004816004811115611a3657611a3661262c565b03610ad35760405162461bcd60e51b815260206004820152602260248201527f45434453413a20696e76616c6964207369676e6174757265202776272076616c604482015261756560f01b60648201526084016108dc565b600081815260028301602052604081208190556108078383611d59565b60606000611aba836002612518565b611ac5906002612559565b67ffffffffffffffff811115611add57611add612642565b6040519080825280601f01601f191660200182016040528015611b07576020820181803683370190505b509050600360fc1b81600081518110611b2257611b22612658565b60200101906001600160f81b031916908160001a905350600f60fb1b81600181518110611b5157611b51612658565b60200101906001600160f81b031916908160001a9053506000611b75846002612518565b611b80906001612559565b90505b6001811115611bf8576f181899199a1a9b1b9c1cb0b131b232b360811b85600f1660108110611bb457611bb4612658565b1a60f81b828281518110611bca57611bca612658565b60200101906001600160f81b031916908160001a90535060049490941c93611bf18161266e565b9050611b83565b5083156108075760405162461bcd60e51b815260206004820181905260248201527f537472696e67733a20686578206c656e67746820696e73756666696369656e7460448201526064016108dc565b60006108078383611d65565b611c5d8382611db4565b61085c838383611fde565b6001600160a01b038216611cbe5760405162461bcd60e51b815260206004820152601f60248201527f45524332303a206d696e7420746f20746865207a65726f20616464726573730060448201526064016108dc565b611cca60008383611747565b8060026000828254611cdc9190612559565b90915550506001600160a01b03821660009081526020819052604081208054839290611d09908490612559565b90915550506040518181526001600160a01b038316906000906000805160206126bc8339815191529060200160405180910390a35050565b60008181526001830160205260408120541515610807565b60006108078383612040565b6000818152600183016020526040812054611dac5750815460018181018455600084815260208082209093018490558454848252828601909352604090209190915561056c565b50600061056c565b611dbd82610c03565b15611e38576000611dcf600b84611011565b905080821115611e215760405162461bcd60e51b815260206004820152601a60248201527f616d6f756e742065786365656473207370656e64206c696d697400000000000060448201526064016108dc565b61109a83611e2f8484612501565b600b9190610ff3565b600f54620f424014158015611e625750611e6060008051602061269c83398151915233610b40565b155b156108ef576000620f4240600f54611e8f856001600160a01b031660009081526020819052604090205490565b611e999190612518565b611ea39190612537565b905060007f0000000000000000000000000000000000000000000000000000000000000000611ef27f000000000000000000000000000000000000000000000000000000000000000042612501565b611efc9190612537565b6001600160a01b0385166000908152600e6020526040902060010154909150819003611f48576001600160a01b0384166000908152600e6020526040902054611f459084612559565b92505b81831115611fa25760405162461bcd60e51b815260206004820152602160248201527f616d6f756e74206578636565647320706572696f64207370656e64206c696d696044820152601d60fa1b60648201526084016108dc565b60408051808201825293845260208085019283526001600160a01b03959095166000908152600e90955290932091518255509051600190910155565b33611ff760008051602061269c83398151915282610b40565b61203b576000600854118061200e57506000600954115b1561203b57600061201e83610ad6565b600a549091506120399083906001600160a01b031683612133565b505b61109a565b60008181526001830160205260408120548015612129576000612064600183612501565b855490915060009061207890600190612501565b90508181146120dd57600086600001828154811061209857612098612658565b90600052602060002001549050808760000184815481106120bb576120bb612658565b6000918252602080832090910192909255918252600188019052604090208390555b85548690806120ee576120ee612685565b60019003818190600052602060002001600090559055856001016000868152602001908152602001600020600090556001935050505061056c565b600091505061056c565b61214b60008051602061269c83398151915233610b40565b612159576121598382611db4565b61085c8383836121698382611db4565b61085c8383836001600160a01b038316156121da576001600160a01b038316600090815260208190526040902054818110156121b75760405162461bcd60e51b81526004016108dc90612571565b6001600160a01b03841660009081526020819052604090209082900390556121f2565b80600260008282546121ec9190612559565b90915550505b6001600160a01b03821615612234576001600160a01b03821660009081526020819052604081208054839290612229908490612559565b9091555061224c9050565b80600260008282546122469190612501565b90915550505b816001600160a01b0316836001600160a01b03166000805160206126bc83398151915283604051610fdc91815260200190565b60006020828403121561229157600080fd5b81356001600160e01b03198116811461080757600080fd5b60005b838110156122c45781810151838201526020016122ac565b8381111561109a5750506000910152565b60208152600082518060208401526122f48160408501602087016122a9565b601f01601f19169190910160400192915050565b80356001600160a01b038116811461080e57600080fd5b6000806040838503121561233257600080fd5b61233b83612308565b946020939093013593505050565b60006020828403121561235b57600080fd5b61080782612308565b60008060006060848603121561237957600080fd5b61238284612308565b925061239060208501612308565b9150604084013590509250925092565b6000602082840312156123b257600080fd5b5035919050565b600080604083850312156123cc57600080fd5b823591506123dc60208401612308565b90509250929050565b6000806000606084860312156123fa57600080fd5b833592506020840135915061241160408501612308565b90509250925092565b600080600080600080600060e0888a03121561243557600080fd5b61243e88612308565b965061244c60208901612308565b95506040880135945060608801359350608088013560ff8116811461247057600080fd5b9699959850939692959460a0840135945060c09093013592915050565b600080604083850312156124a057600080fd5b6124a983612308565b91506123dc60208401612308565b600181811c908216806124cb57607f821691505b6020821081036115c557634e487b7160e01b600052602260045260246000fd5b634e487b7160e01b600052601160045260246000fd5b600082821015612513576125136124eb565b500390565b6000816000190483118215151615612532576125326124eb565b500290565b60008261255457634e487b7160e01b600052601260045260246000fd5b500490565b6000821982111561256c5761256c6124eb565b500190565b60208082526026908201527f45524332303a207472616e7366657220616d6f756e7420657863656564732062604082015265616c616e636560d01b606082015260800190565b7f416363657373436f6e74726f6c3a206163636f756e74200000000000000000008152600083516125ef8160178501602088016122a9565b7001034b99036b4b9b9b4b733903937b6329607d1b60179184019182015283516126208160288401602088016122a9565b01602801949350505050565b634e487b7160e01b600052602160045260246000fd5b634e487b7160e01b600052604160045260246000fd5b634e487b7160e01b600052603260045260246000fd5b60008161267d5761267d6124eb565b506000190190565b634e487b7160e01b600052603160045260246000fdfe9f2df0fed2c77648de5860a4cc508cd0818c85b8b8a1ab4ceeef8d981c8956a6ddf252ad1be2c89b69c2b068fc378daa952ba7f163c4a11628f55a4df523b3efa2646970667358221220fc6ee34b0d7012f9a9249a53d744a40a26d61fb2683c40b82aad88c5d9b601df64736f6c634300080f0033",
  "linkReferences": {},
  "deployedLinkReferences": {}
}