{"contracts/StakePool/BNBStaking.sol":{"BnbStaking":{"abi":[{"inputs":[],"stateMutability":"nonpayable","type":"constructor"},{"anonymous":false,"inputs":[{"indexed":true,"internalType":"address","name":"user","type":"address"},{"indexed":false,"internalType":"uint256","name":"amount","type":"uint256"}],"name":"Deposit","type":"event"},{"anonymous":false,"inputs":[{"indexed":true,"internalType":"address","name":"user","type":"address"},{"indexed":false,"internalType":"uint256","name":"amount","type":"uint256"}],"name":"EmergencyWithdraw","type":"event"},{"anonymous":false,"inputs":[{"indexed":true,"internalType":"address","name":"previousOwner","type":"address"},{"indexed":true,"internalType":"address","name":"newOwner","type":"address"}],"name":"OwnershipTransferred","type":"event"},{"anonymous":false,"inputs":[{"indexed":true,"internalType":"address","name":"user","type":"address"},{"indexed":false,"internalType":"uint256","name":"amount","type":"uint256"}],"name":"Withdraw","type":"event"},{"inputs":[],"name":"WBNB","outputs":[{"internalType":"address","name":"","type":"address"}],"stateMutability":"view","type":"function"},{"inputs":[],"name":"adminAddress","outputs":[{"internalType":"address","name":"","type":"address"}],"stateMutability":"view","type":"function"},{"inputs":[],"name":"bonusEndBlock","outputs":[{"internalType":"uint256","name":"","type":"uint256"}],"stateMutability":"view","type":"function"},{"inputs":[],"name":"deposit","outputs":[],"stateMutability":"payable","type":"function"},{"inputs":[{"internalType":"uint256","name":"_amount","type":"uint256"}],"name":"emergencyRewardWithdraw","outputs":[],"stateMutability":"nonpayable","type":"function"},{"inputs":[],"name":"emergencyWithdraw","outputs":[],"stateMutability":"nonpayable","type":"function"},{"inputs":[{"internalType":"uint256","name":"_from","type":"uint256"},{"internalType":"uint256","name":"_to","type":"uint256"}],"name":"getMultiplier","outputs":[{"internalType":"uint256","name":"","type":"uint256"}],"stateMutability":"view","type":"function"},{"inputs":[],"name":"limitAmount","outputs":[{"internalType":"uint256","name":"","type":"uint256"}],"stateMutability":"view","type":"function"},{"inputs":[{"internalType":"uint256","name":"_amount","type":"uint256"}],"name":"loanBNB","outputs":[],"stateMutability":"nonpayable","type":"function"},{"inputs":[],"name":"massUpdatePools","outputs":[],"stateMutability":"nonpayable","type":"function"},{"inputs":[],"name":"owner","outputs":[{"internalType":"address","name":"","type":"address"}],"stateMutability":"view","type":"function"},{"inputs":[{"internalType":"address","name":"_user","type":"address"}],"name":"pendingReward","outputs":[{"internalType":"uint256","name":"","type":"uint256"}],"stateMutability":"view","type":"function"},{"inputs":[{"internalType":"uint256","name":"","type":"uint256"}],"name":"poolInfo","outputs":[{"internalType":"contract IERC20","name":"lpToken","type":"address"},{"internalType":"uint256","name":"allocPoint","type":"uint256"},{"internalType":"uint256","name":"lastRewardBlock","type":"uint256"},{"internalType":"uint256","name":"accCakePerShare","type":"uint256"}],"stateMutability":"view","type":"function"},{"inputs":[{"internalType":"address","name":"_blacklistAddress","type":"address"}],"name":"removeBlackList","outputs":[],"stateMutability":"nonpayable","type":"function"},{"inputs":[],"name":"renounceOwnership","outputs":[],"stateMutability":"nonpayable","type":"function"},{"inputs":[],"name":"rewardPerBlock","outputs":[{"internalType":"uint256","name":"","type":"uint256"}],"stateMutability":"view","type":"function"},{"inputs":[],"name":"rewardToken","outputs":[{"internalType":"contract IERC20","name":"","type":"address"}],"stateMutability":"view","type":"function"},{"inputs":[{"internalType":"address","name":"_adminAddress","type":"address"}],"name":"setAdmin","outputs":[],"stateMutability":"nonpayable","type":"function"},{"inputs":[{"internalType":"address","name":"_blacklistAddress","type":"address"}],"name":"setBlackList","outputs":[],"stateMutability":"nonpayable","type":"function"},{"inputs":[{"internalType":"uint256","name":"_amount","type":"uint256"}],"name":"setLimitAmount","outputs":[],"stateMutability":"nonpayable","type":"function"},{"inputs":[],"name":"startBlock","outputs":[{"internalType":"uint256","name":"","type":"uint256"}],"stateMutability":"view","type":"function"},{"inputs":[],"name":"totalAllocPoint","outputs":[{"internalType":"uint256","name":"","type":"uint256"}],"stateMutability":"view","type":"function"},{"inputs":[{"internalType":"address","name":"newOwner","type":"address"}],"name":"transferOwnership","outputs":[],"stateMutability":"nonpayable","type":"function"},{"inputs":[{"internalType":"uint256","name":"_pid","type":"uint256"}],"name":"updatePool","outputs":[],"stateMutability":"nonpayable","type":"function"},{"inputs":[{"internalType":"address","name":"","type":"address"}],"name":"userInfo","outputs":[{"internalType":"uint256","name":"amount","type":"uint256"},{"internalType":"uint256","name":"rewardDebt","type":"uint256"},{"internalType":"bool","name":"inBlackList","type":"bool"}],"stateMutability":"view","type":"function"},{"inputs":[{"internalType":"uint256","name":"_amount","type":"uint256"}],"name":"withdraw","outputs":[],"stateMutability":"nonpayable","type":"function"},{"stateMutability":"payable","type":"receive"}],"evm":{"bytecode":{"linkReferences":{},"object":"60a0604052678ac7230489e80000600655600060075534801561002157600080fd5b5061002b336101af565b600180546001600160a01b03191673314fbbfc5c9db19bc8f8981781d326a9ba76508f17815573c778417e063141139fce010982780140aa0cd5ab60805264e8d4a5100060035573ac424337cf073fa0a3e0dec0c3da83b8cc3c9f39906100939043906101ff565b60088190556100a590620186a06101ff565b600955600280546001600160a01b03199081163317909155604080516080810182526001600160a01b0393841681526103e86020820181815260085493830193845260006060840181815260048054600181018255928190529451919094027f8a35acfbc15ff81a39ae7d344fd709f28e8600b4aa8c65c6b64bfe7fe36bd19b8101805492909816919096161790955593517f8a35acfbc15ff81a39ae7d344fd709f28e8600b4aa8c65c6b64bfe7fe36bd19c84015590517f8a35acfbc15ff81a39ae7d344fd709f28e8600b4aa8c65c6b64bfe7fe36bd19d830155517f8a35acfbc15ff81a39ae7d344fd709f28e8600b4aa8c65c6b64bfe7fe36bd19e90910155600755610226565b600080546001600160a01b038381166001600160a01b0319831681178455604051919092169283917f8be0079c531659141344cd1fd0a4f28419497f9722a3daafe3b4186f6b6457e09190a35050565b8082018082111561022057634e487b7160e01b600052601160045260246000fd5b92915050565b60805161174061026b60003960008181610195015281816101bc015281816104cb01528181610619015281816107ad01528181610cb80152610d4201526117406000f3fe6080604052600436106101855760003560e01c806372700241116100d1578063d0e30db01161008a578063f2fde38b11610064578063f2fde38b1461052a578063f40f0f521461054a578063f7c618c11461056a578063fc6f94681461058a57600080fd5b8063d0e30db0146104ed578063db2e21bc146104f5578063e4997dc51461050a57600080fd5b8063727002411461041b57806378abafaf1461043b5780638ae39cac146104515780638da5cb5b146104675780638dbb1e3a146104995780638dd95002146104b957600080fd5b80632e1a7d4d1161013e57806351eb05a61161011857806351eb05a6146103b1578063630b5ba1146103d1578063704b6c02146103e6578063715018a61461040657600080fd5b80632e1a7d4d1461035b5780633279beab1461037b57806348cd4cb11461039b57600080fd5b80631526fe271461023657806317caf6f1146102855780631959a002146102a95780631aed6553146103055780631f107a451461031b5780632158f8411461033b57600080fd5b3661023157336001600160a01b037f0000000000000000000000000000000000000000000000000000000000000000161461022f577f00000000000000000000000000000000000000000000000000000000000000006001600160a01b031663d0e30db0346040518263ffffffff1660e01b81526004016000604051808303818588803b15801561021557600080fd5b505af1158015610229573d6000803e3d6000fd5b50505050505b005b600080fd5b34801561024257600080fd5b5061025661025136600461153e565b6105aa565b604080516001600160a01b03909516855260208501939093529183015260608201526080015b60405180910390f35b34801561029157600080fd5b5061029b60075481565b60405190815260200161027c565b3480156102b557600080fd5b506102e86102c4366004611557565b60056020526000908152604090208054600182015460029092015490919060ff1683565b60408051938452602084019290925215159082015260600161027c565b34801561031157600080fd5b5061029b60095481565b34801561032757600080fd5b5061022f61033636600461153e565b6105ee565b34801561034757600080fd5b5061022f61035636600461153e565b6105fb565b34801561036757600080fd5b5061022f61037636600461153e565b61068a565b34801561038757600080fd5b5061022f61039636600461153e565b610876565b3480156103a757600080fd5b5061029b60085481565b3480156103bd57600080fd5b5061022f6103cc36600461153e565b610942565b3480156103dd57600080fd5b5061022f610a6c565b3480156103f257600080fd5b5061022f610401366004611557565b610a97565b34801561041257600080fd5b5061022f610ac1565b34801561042757600080fd5b5061022f610436366004611557565b610ad5565b34801561044757600080fd5b5061029b60065481565b34801561045d57600080fd5b5061029b60035481565b34801561047357600080fd5b506000546001600160a01b03165b6040516001600160a01b03909116815260200161027c565b3480156104a557600080fd5b5061029b6104b4366004611580565b610b44565b3480156104c557600080fd5b506104817f000000000000000000000000000000000000000000000000000000000000000081565b61022f610b84565b34801561050157600080fd5b5061022f610e2f565b34801561051657600080fd5b5061022f610525366004611557565b610ec8565b34801561053657600080fd5b5061022f610545366004611557565b610f34565b34801561055657600080fd5b5061029b610565366004611557565b610faa565b34801561057657600080fd5b50600154610481906001600160a01b031681565b34801561059657600080fd5b50600254610481906001600160a01b031681565b600481815481106105ba57600080fd5b600091825260209091206004909102018054600182015460028301546003909301546001600160a01b039092169350919084565b6105f6611100565b600655565b610603611100565b604051632e1a7d4d60e01b8152600481018290527f00000000000000000000000000000000000000000000000000000000000000006001600160a01b031690632e1a7d4d90602401600060405180830381600087803b15801561066557600080fd5b505af1158015610679573d6000803e3d6000fd5b50505050610687338261115a565b50565b600060046000815481106106a0576106a06115a2565b600091825260208083203384526005909152604090922080546004909202909201925083111561070c5760405162461bcd60e51b81526020600482015260126024820152711dda5d1a191c985dce881b9bdd0819dbdbd960721b60448201526064015b60405180910390fd5b6107166000610942565b6000610750826001015461074a64e8d4a510006107448760030154876000015461121290919063ffffffff16565b90611225565b90611231565b90506000811180156107675750600282015460ff16155b1561078357600154610783906001600160a01b0316338361123d565b831561081b5781546107959085611231565b8255604051632e1a7d4d60e01b8152600481018590527f00000000000000000000000000000000000000000000000000000000000000006001600160a01b031690632e1a7d4d90602401600060405180830381600087803b1580156107f957600080fd5b505af115801561080d573d6000803e3d6000fd5b5050505061081b338561115a565b600383015482546108369164e8d4a510009161074491611212565b600183015560405184815233907f884edad9ce6fa2440d8a54cc123490eb96d2768479d49ff9c7366125a94243649060200160405180910390a250505050565b61087e611100565b6001546040516370a0823160e01b81523060048201526001600160a01b03909116906370a0823190602401602060405180830381865afa1580156108c6573d6000803e3d6000fd5b505050506040513d601f19601f820116820180604052508101906108ea91906115b8565b811061092b5760405162461bcd60e51b815260206004820152601060248201526f3737ba1032b737bab3b4103a37b5b2b760811b6044820152606401610703565b600154610687906001600160a01b0316338361123d565b600060048281548110610957576109576115a2565b9060005260206000209060040201905080600201544311610976575050565b80546040516370a0823160e01b81523060048201526000916001600160a01b0316906370a0823190602401602060405180830381865afa1580156109be573d6000803e3d6000fd5b505050506040513d601f19601f820116820180604052508101906109e291906115b8565b9050806000036109f757504360029091015550565b6000610a07836002015443610b44565b90506000610a346007546107448660010154610a2e6003548761121290919063ffffffff16565b90611212565b9050610a57610a4c846107448464e8d4a51000611212565b60038601549061128f565b60038501555050436002909201919091555050565b60045460005b81811015610a9357610a8381610942565b610a8c816115e7565b9050610a72565b5050565b610a9f611100565b600280546001600160a01b0319166001600160a01b0392909216919091179055565b610ac9611100565b610ad3600061129b565b565b6002546001600160a01b03163314610b1d5760405162461bcd60e51b815260206004820152600b60248201526a61646d696e3a207775743f60a81b6044820152606401610703565b6001600160a01b03166000908152600560205260409020600201805460ff19166001179055565b60006009548211610b6057610b598284611231565b9050610b7e565b6009548310610b7157506000610b7e565b600954610b599084611231565b92915050565b60006004600081548110610b9a57610b9a6115a2565b60009182526020808320338452600590915260409092206006548154600490930290930193509190610bcc903461128f565b1115610c0b5760405162461bcd60e51b815260206004820152600e60248201526d06578636565642074686520746f760941b6044820152606401610703565b600281015460ff1615610c505760405162461bcd60e51b815260206004820152600d60248201526c1a5b88189b1858dac81b1a5cdd609a1b6044820152606401610703565b610c5a6000610942565b805415610cb0576000610c8f826001015461074a64e8d4a510006107448760030154876000015461121290919063ffffffff16565b90508015610cae57600154610cae906001600160a01b0316338361123d565b505b3415610dd6577f00000000000000000000000000000000000000000000000000000000000000006001600160a01b031663d0e30db0346040518263ffffffff1660e01b81526004016000604051808303818588803b158015610d1157600080fd5b505af1158015610d25573d6000803e3d6000fd5b505060405163a9059cbb60e01b81523060048201523460248201527f00000000000000000000000000000000000000000000000000000000000000006001600160a01b0316935063a9059cbb925060440190506020604051808303816000875af1158015610d97573d6000803e3d6000fd5b505050506040513d601f19601f82011682018060405250810190610dbb9190611600565b610dc757610dc7611622565b8054610dd3903461128f565b81555b60038201548154610df19164e8d4a510009161074491611212565b600182015560405134815233907fe1fffcc4923d04b559f4d29a8bfc6cda04eb5b0d3c460751c2402c5c5cc9109c9060200160405180910390a25050565b60006004600081548110610e4557610e456115a2565b600091825260208083203380855260059092526040909320805460049093029093018054909450610e83926001600160a01b0391909116919061123d565b805460405190815233907f5fafa99d0643513820be26656b45130b01e1c03062e1266bf36f88cbd3bd96959060200160405180910390a2600080825560019091015550565b6002546001600160a01b03163314610f105760405162461bcd60e51b815260206004820152600b60248201526a61646d696e3a207775743f60a81b6044820152606401610703565b6001600160a01b03166000908152600560205260409020600201805460ff19169055565b610f3c611100565b6001600160a01b038116610fa15760405162461bcd60e51b815260206004820152602660248201527f4f776e61626c653a206e6577206f776e657220697320746865207a65726f206160448201526564647265737360d01b6064820152608401610703565b6106878161129b565b6000806004600081548110610fc157610fc16115a2565b600091825260208083206001600160a01b0387811685526005909252604080852060049485029092016003810154815492516370a0823160e01b8152309681019690965290965091949193919216906370a0823190602401602060405180830381865afa158015611036573d6000803e3d6000fd5b505050506040513d601f19601f8201168201806040525081019061105a91906115b8565b905083600201544311801561106e57508015155b156110ce576000611083856002015443610b44565b905060006110aa6007546107448860010154610a2e6003548761121290919063ffffffff16565b90506110c96110c2846107448464e8d4a51000611212565b859061128f565b935050505b6110f6836001015461074a64e8d4a5100061074486886000015461121290919063ffffffff16565b9695505050505050565b6000546001600160a01b03163314610ad35760405162461bcd60e51b815260206004820181905260248201527f4f776e61626c653a2063616c6c6572206973206e6f7420746865206f776e65726044820152606401610703565b6000826001600160a01b03166159d883604051600060405180830381858888f193505050503d80600081146111ab576040519150601f19603f3d011682016040523d82523d6000602084013e6111b0565b606091505b505090508061120d5760405162461bcd60e51b815260206004820152602360248201527f5472616e7366657248656c7065723a204554485f5452414e534645525f46414960448201526213115160ea1b6064820152608401610703565b505050565b600061121e8284611638565b9392505050565b600061121e828461164f565b600061121e8284611671565b604080516001600160a01b038416602482015260448082018490528251808303909101815260649091019091526020810180516001600160e01b031663a9059cbb60e01b17905261120d9084906112eb565b600061121e8284611684565b600080546001600160a01b038381166001600160a01b0319831681178455604051919092169283917f8be0079c531659141344cd1fd0a4f28419497f9722a3daafe3b4186f6b6457e09190a35050565b6000611340826040518060400160405280602081526020017f5361666545524332303a206c6f772d6c6576656c2063616c6c206661696c6564815250856001600160a01b03166113bd9092919063ffffffff16565b80519091501561120d578080602001905181019061135e9190611600565b61120d5760405162461bcd60e51b815260206004820152602a60248201527f5361666545524332303a204552433230206f7065726174696f6e20646964206e6044820152691bdd081cdd58d8d9595960b21b6064820152608401610703565b60606113cc84846000856113d4565b949350505050565b6060824710156114355760405162461bcd60e51b815260206004820152602660248201527f416464726573733a20696e73756666696369656e742062616c616e636520666f6044820152651c8818d85b1b60d21b6064820152608401610703565b6001600160a01b0385163b61148c5760405162461bcd60e51b815260206004820152601d60248201527f416464726573733a2063616c6c20746f206e6f6e2d636f6e74726163740000006044820152606401610703565b600080866001600160a01b031685876040516114a891906116bb565b60006040518083038185875af1925050503d80600081146114e5576040519150601f19603f3d011682016040523d82523d6000602084013e6114ea565b606091505b50915091506114fa828286611505565b979650505050505050565b6060831561151457508161121e565b8251156115245782518084602001fd5b8160405162461bcd60e51b815260040161070391906116d7565b60006020828403121561155057600080fd5b5035919050565b60006020828403121561156957600080fd5b81356001600160a01b038116811461121e57600080fd5b6000806040838503121561159357600080fd5b50508035926020909101359150565b634e487b7160e01b600052603260045260246000fd5b6000602082840312156115ca57600080fd5b5051919050565b634e487b7160e01b600052601160045260246000fd5b6000600182016115f9576115f96115d1565b5060010190565b60006020828403121561161257600080fd5b8151801515811461121e57600080fd5b634e487b7160e01b600052600160045260246000fd5b8082028115828204841417610b7e57610b7e6115d1565b60008261166c57634e487b7160e01b600052601260045260246000fd5b500490565b81810381811115610b7e57610b7e6115d1565b80820180821115610b7e57610b7e6115d1565b60005b838110156116b257818101518382015260200161169a565b50506000910152565b600082516116cd818460208701611697565b9190910192915050565b60208152600082518060208401526116f6816040850160208701611697565b601f01601f1916919091016040019291505056fea26469706673582212201e98f41de662ffdf5c131ab05c9c4a9f78bfb7e2215e24a1a39ce29b08cd944664736f6c63430008110033","opcodes":"PUSH1 0xA0 PUSH1 0x40 MSTORE PUSH8 0x8AC7230489E80000 PUSH1 0x6 SSTORE PUSH1 0x0 PUSH1 0x7 SSTORE CALLVALUE DUP1 ISZERO PUSH2 0x21 JUMPI PUSH1 0x0 DUP1 REVERT JUMPDEST POP PUSH2 0x2B CALLER PUSH2 0x1AF JUMP JUMPDEST PUSH1 0x1 DUP1 SLOAD PUSH1 0x1 PUSH1 0x1 PUSH1 0xA0 SHL SUB NOT AND PUSH20 0x314FBBFC5C9DB19BC8F8981781D326A9BA76508F OR DUP2 SSTORE PUSH20 0xC778417E063141139FCE010982780140AA0CD5AB PUSH1 0x80 MSTORE PUSH5 0xE8D4A51000 PUSH1 0x3 SSTORE PUSH20 0xAC424337CF073FA0A3E0DEC0C3DA83B8CC3C9F39 SWAP1 PUSH2 0x93 SWAP1 NUMBER SWAP1 PUSH2 0x1FF JUMP JUMPDEST PUSH1 0x8 DUP2 SWAP1 SSTORE PUSH2 0xA5 SWAP1 PUSH3 0x186A0 PUSH2 0x1FF JUMP JUMPDEST PUSH1 0x9 SSTORE PUSH1 0x2 DUP1 SLOAD PUSH1 0x1 PUSH1 0x1 PUSH1 0xA0 SHL SUB NOT SWAP1 DUP2 AND CALLER OR SWAP1 SWAP2 SSTORE PUSH1 0x40 DUP1 MLOAD PUSH1 0x80 DUP2 ADD DUP3 MSTORE PUSH1 0x1 PUSH1 0x1 PUSH1 0xA0 SHL SUB SWAP4 DUP5 AND DUP2 MSTORE PUSH2 0x3E8 PUSH1 0x20 DUP3 ADD DUP2 DUP2 MSTORE PUSH1 0x8 SLOAD SWAP4 DUP4 ADD SWAP4 DUP5 MSTORE PUSH1 0x0 PUSH1 0x60 DUP5 ADD DUP2 DUP2 MSTORE PUSH1 0x4 DUP1 SLOAD PUSH1 0x1 DUP2 ADD DUP3 SSTORE SWAP3 DUP2 SWAP1 MSTORE SWAP5 MLOAD SWAP2 SWAP1 SWAP5 MUL PUSH32 0x8A35ACFBC15FF81A39AE7D344FD709F28E8600B4AA8C65C6B64BFE7FE36BD19B DUP2 ADD DUP1 SLOAD SWAP3 SWAP1 SWAP9 AND SWAP2 SWAP1 SWAP7 AND OR SWAP1 SWAP6 SSTORE SWAP4 MLOAD PUSH32 0x8A35ACFBC15FF81A39AE7D344FD709F28E8600B4AA8C65C6B64BFE7FE36BD19C DUP5 ADD SSTORE SWAP1 MLOAD PUSH32 0x8A35ACFBC15FF81A39AE7D344FD709F28E8600B4AA8C65C6B64BFE7FE36BD19D DUP4 ADD SSTORE MLOAD PUSH32 0x8A35ACFBC15FF81A39AE7D344FD709F28E8600B4AA8C65C6B64BFE7FE36BD19E SWAP1 SWAP2 ADD SSTORE PUSH1 0x7 SSTORE PUSH2 0x226 JUMP JUMPDEST PUSH1 0x0 DUP1 SLOAD PUSH1 0x1 PUSH1 0x1 PUSH1 0xA0 SHL SUB DUP4 DUP2 AND PUSH1 0x1 PUSH1 0x1 PUSH1 0xA0 SHL SUB NOT DUP4 AND DUP2 OR DUP5 SSTORE PUSH1 0x40 MLOAD SWAP2 SWAP1 SWAP3 AND SWAP3 DUP4 SWAP2 PUSH32 0x8BE0079C531659141344CD1FD0A4F28419497F9722A3DAAFE3B4186F6B6457E0 SWAP2 SWAP1 LOG3 POP POP JUMP JUMPDEST DUP1 DUP3 ADD DUP1 DUP3 GT ISZERO PUSH2 0x220 JUMPI PUSH4 0x4E487B71 PUSH1 0xE0 SHL PUSH1 0x0 MSTORE PUSH1 0x11 PUSH1 0x4 MSTORE PUSH1 0x24 PUSH1 0x0 REVERT JUMPDEST SWAP3 SWAP2 POP POP JUMP JUMPDEST PUSH1 0x80 MLOAD PUSH2 0x1740 PUSH2 0x26B PUSH1 0x0 CODECOPY PUSH1 0x0 DUP2 DUP2 PUSH2 0x195 ADD MSTORE DUP2 DUP2 PUSH2 0x1BC ADD MSTORE DUP2 DUP2 PUSH2 0x4CB ADD MSTORE DUP2 DUP2 PUSH2 0x619 ADD MSTORE DUP2 DUP2 PUSH2 0x7AD ADD MSTORE DUP2 DUP2 PUSH2 0xCB8 ADD MSTORE PUSH2 0xD42 ADD MSTORE PUSH2 0x1740 PUSH1 0x0 RETURN INVALID PUSH1 0x80 PUSH1 0x40 MSTORE PUSH1 0x4 CALLDATASIZE LT PUSH2 0x185 JUMPI PUSH1 0x0 CALLDATALOAD PUSH1 0xE0 SHR DUP1 PUSH4 0x72700241 GT PUSH2 0xD1 JUMPI DUP1 PUSH4 0xD0E30DB0 GT PUSH2 0x8A JUMPI DUP1 PUSH4 0xF2FDE38B GT PUSH2 0x64 JUMPI DUP1 PUSH4 0xF2FDE38B EQ PUSH2 0x52A JUMPI DUP1 PUSH4 0xF40F0F52 EQ PUSH2 0x54A JUMPI DUP1 PUSH4 0xF7C618C1 EQ PUSH2 0x56A JUMPI DUP1 PUSH4 0xFC6F9468 EQ PUSH2 0x58A JUMPI PUSH1 0x0 DUP1 REVERT JUMPDEST DUP1 PUSH4 0xD0E30DB0 EQ PUSH2 0x4ED JUMPI DUP1 PUSH4 0xDB2E21BC EQ PUSH2 0x4F5 JUMPI DUP1 PUSH4 0xE4997DC5 EQ PUSH2 0x50A JUMPI PUSH1 0x0 DUP1 REVERT JUMPDEST DUP1 PUSH4 0x72700241 EQ PUSH2 0x41B JUMPI DUP1 PUSH4 0x78ABAFAF EQ PUSH2 0x43B JUMPI DUP1 PUSH4 0x8AE39CAC EQ PUSH2 0x451 JUMPI DUP1 PUSH4 0x8DA5CB5B EQ PUSH2 0x467 JUMPI DUP1 PUSH4 0x8DBB1E3A EQ PUSH2 0x499 JUMPI DUP1 PUSH4 0x8DD95002 EQ PUSH2 0x4B9 JUMPI PUSH1 0x0 DUP1 REVERT JUMPDEST DUP1 PUSH4 0x2E1A7D4D GT PUSH2 0x13E JUMPI DUP1 PUSH4 0x51EB05A6 GT PUSH2 0x118 JUMPI DUP1 PUSH4 0x51EB05A6 EQ PUSH2 0x3B1 JUMPI DUP1 PUSH4 0x630B5BA1 EQ PUSH2 0x3D1 JUMPI DUP1 PUSH4 0x704B6C02 EQ PUSH2 0x3E6 JUMPI DUP1 PUSH4 0x715018A6 EQ PUSH2 0x406 JUMPI PUSH1 0x0 DUP1 REVERT JUMPDEST DUP1 PUSH4 0x2E1A7D4D EQ PUSH2 0x35B JUMPI DUP1 PUSH4 0x3279BEAB EQ PUSH2 0x37B JUMPI DUP1 PUSH4 0x48CD4CB1 EQ PUSH2 0x39B JUMPI PUSH1 0x0 DUP1 REVERT JUMPDEST DUP1 PUSH4 0x1526FE27 EQ PUSH2 0x236 JUMPI DUP1 PUSH4 0x17CAF6F1 EQ PUSH2 0x285 JUMPI DUP1 PUSH4 0x1959A002 EQ PUSH2 0x2A9 JUMPI DUP1 PUSH4 0x1AED6553 EQ PUSH2 0x305 JUMPI DUP1 PUSH4 0x1F107A45 EQ PUSH2 0x31B JUMPI DUP1 PUSH4 0x2158F841 EQ PUSH2 0x33B JUMPI PUSH1 0x0 DUP1 REVERT JUMPDEST CALLDATASIZE PUSH2 0x231 JUMPI CALLER PUSH1 0x1 PUSH1 0x1 PUSH1 0xA0 SHL SUB PUSH32 0x0 AND EQ PUSH2 0x22F JUMPI PUSH32 0x0 PUSH1 0x1 PUSH1 0x1 PUSH1 0xA0 SHL SUB AND PUSH4 0xD0E30DB0 CALLVALUE PUSH1 0x40 MLOAD DUP3 PUSH4 0xFFFFFFFF AND PUSH1 0xE0 SHL DUP2 MSTORE PUSH1 0x4 ADD PUSH1 0x0 PUSH1 0x40 MLOAD DUP1 DUP4 SUB DUP2 DUP6 DUP9 DUP1 EXTCODESIZE ISZERO DUP1 ISZERO PUSH2 0x215 JUMPI PUSH1 0x0 DUP1 REVERT JUMPDEST POP GAS CALL ISZERO DUP1 ISZERO PUSH2 0x229 JUMPI RETURNDATASIZE PUSH1 0x0 DUP1 RETURNDATACOPY RETURNDATASIZE PUSH1 0x0 REVERT JUMPDEST POP POP POP POP POP JUMPDEST STOP JUMPDEST PUSH1 0x0 DUP1 REVERT JUMPDEST CALLVALUE DUP1 ISZERO PUSH2 0x242 JUMPI PUSH1 0x0 DUP1 REVERT JUMPDEST POP PUSH2 0x256 PUSH2 0x251 CALLDATASIZE PUSH1 0x4 PUSH2 0x153E JUMP JUMPDEST PUSH2 0x5AA JUMP JUMPDEST PUSH1 0x40 DUP1 MLOAD PUSH1 0x1 PUSH1 0x1 PUSH1 0xA0 SHL SUB SWAP1 SWAP6 AND DUP6 MSTORE PUSH1 0x20 DUP6 ADD SWAP4 SWAP1 SWAP4 MSTORE SWAP2 DUP4 ADD MSTORE PUSH1 0x60 DUP3 ADD MSTORE PUSH1 0x80 ADD JUMPDEST PUSH1 0x40 MLOAD DUP1 SWAP2 SUB SWAP1 RETURN JUMPDEST CALLVALUE DUP1 ISZERO PUSH2 0x291 JUMPI PUSH1 0x0 DUP1 REVERT JUMPDEST POP PUSH2 0x29B PUSH1 0x7 SLOAD DUP2 JUMP JUMPDEST PUSH1 0x40 MLOAD SWAP1 DUP2 MSTORE PUSH1 0x20 ADD PUSH2 0x27C JUMP JUMPDEST CALLVALUE DUP1 ISZERO PUSH2 0x2B5 JUMPI PUSH1 0x0 DUP1 REVERT JUMPDEST POP PUSH2 0x2E8 PUSH2 0x2C4 CALLDATASIZE PUSH1 0x4 PUSH2 0x1557 JUMP JUMPDEST PUSH1 0x5 PUSH1 0x20 MSTORE PUSH1 0x0 SWAP1 DUP2 MSTORE PUSH1 0x40 SWAP1 KECCAK256 DUP1 SLOAD PUSH1 0x1 DUP3 ADD SLOAD PUSH1 0x2 SWAP1 SWAP3 ADD SLOAD SWAP1 SWAP2 SWAP1 PUSH1 0xFF AND DUP4 JUMP JUMPDEST PUSH1 0x40 DUP1 MLOAD SWAP4 DUP5 MSTORE PUSH1 0x20 DUP5 ADD SWAP3 SWAP1 SWAP3 MSTORE ISZERO ISZERO SWAP1 DUP3 ADD MSTORE PUSH1 0x60 ADD PUSH2 0x27C JUMP JUMPDEST CALLVALUE DUP1 ISZERO PUSH2 0x311 JUMPI PUSH1 0x0 DUP1 REVERT JUMPDEST POP PUSH2 0x29B PUSH1 0x9 SLOAD DUP2 JUMP JUMPDEST CALLVALUE DUP1 ISZERO PUSH2 0x327 JUMPI PUSH1 0x0 DUP1 REVERT JUMPDEST POP PUSH2 0x22F PUSH2 0x336 CALLDATASIZE PUSH1 0x4 PUSH2 0x153E JUMP JUMPDEST PUSH2 0x5EE JUMP JUMPDEST CALLVALUE DUP1 ISZERO PUSH2 0x347 JUMPI PUSH1 0x0 DUP1 REVERT JUMPDEST POP PUSH2 0x22F PUSH2 0x356 CALLDATASIZE PUSH1 0x4 PUSH2 0x153E JUMP JUMPDEST PUSH2 0x5FB JUMP JUMPDEST CALLVALUE DUP1 ISZERO PUSH2 0x367 JUMPI PUSH1 0x0 DUP1 REVERT JUMPDEST POP PUSH2 0x22F PUSH2 0x376 CALLDATASIZE PUSH1 0x4 PUSH2 0x153E JUMP JUMPDEST PUSH2 0x68A JUMP JUMPDEST CALLVALUE DUP1 ISZERO PUSH2 0x387 JUMPI PUSH1 0x0 DUP1 REVERT JUMPDEST POP PUSH2 0x22F PUSH2 0x396 CALLDATASIZE PUSH1 0x4 PUSH2 0x153E JUMP JUMPDEST PUSH2 0x876 JUMP JUMPDEST CALLVALUE DUP1 ISZERO PUSH2 0x3A7 JUMPI PUSH1 0x0 DUP1 REVERT JUMPDEST POP PUSH2 0x29B PUSH1 0x8 SLOAD DUP2 JUMP JUMPDEST CALLVALUE DUP1 ISZERO PUSH2 0x3BD JUMPI PUSH1 0x0 DUP1 REVERT JUMPDEST POP PUSH2 0x22F PUSH2 0x3CC CALLDATASIZE PUSH1 0x4 PUSH2 0x153E JUMP JUMPDEST PUSH2 0x942 JUMP JUMPDEST CALLVALUE DUP1 ISZERO PUSH2 0x3DD JUMPI PUSH1 0x0 DUP1 REVERT JUMPDEST POP PUSH2 0x22F PUSH2 0xA6C JUMP JUMPDEST CALLVALUE DUP1 ISZERO PUSH2 0x3F2 JUMPI PUSH1 0x0 DUP1 REVERT JUMPDEST POP PUSH2 0x22F PUSH2 0x401 CALLDATASIZE PUSH1 0x4 PUSH2 0x1557 JUMP JUMPDEST PUSH2 0xA97 JUMP JUMPDEST CALLVALUE DUP1 ISZERO PUSH2 0x412 JUMPI PUSH1 0x0 DUP1 REVERT JUMPDEST POP PUSH2 0x22F PUSH2 0xAC1 JUMP JUMPDEST CALLVALUE DUP1 ISZERO PUSH2 0x427 JUMPI PUSH1 0x0 DUP1 REVERT JUMPDEST POP PUSH2 0x22F PUSH2 0x436 CALLDATASIZE PUSH1 0x4 PUSH2 0x1557 JUMP JUMPDEST PUSH2 0xAD5 JUMP JUMPDEST CALLVALUE DUP1 ISZERO PUSH2 0x447 JUMPI PUSH1 0x0 DUP1 REVERT JUMPDEST POP PUSH2 0x29B PUSH1 0x6 SLOAD DUP2 JUMP JUMPDEST CALLVALUE DUP1 ISZERO PUSH2 0x45D JUMPI PUSH1 0x0 DUP1 REVERT JUMPDEST POP PUSH2 0x29B PUSH1 0x3 SLOAD DUP2 JUMP JUMPDEST CALLVALUE DUP1 ISZERO PUSH2 0x473 JUMPI PUSH1 0x0 DUP1 REVERT JUMPDEST POP PUSH1 0x0 SLOAD PUSH1 0x1 PUSH1 0x1 PUSH1 0xA0 SHL SUB AND JUMPDEST PUSH1 0x40 MLOAD PUSH1 0x1 PUSH1 0x1 PUSH1 0xA0 SHL SUB SWAP1 SWAP2 AND DUP2 MSTORE PUSH1 0x20 ADD PUSH2 0x27C JUMP JUMPDEST CALLVALUE DUP1 ISZERO PUSH2 0x4A5 JUMPI PUSH1 0x0 DUP1 REVERT JUMPDEST POP PUSH2 0x29B PUSH2 0x4B4 CALLDATASIZE PUSH1 0x4 PUSH2 0x1580 JUMP JUMPDEST PUSH2 0xB44 JUMP JUMPDEST CALLVALUE DUP1 ISZERO PUSH2 0x4C5 JUMPI PUSH1 0x0 DUP1 REVERT JUMPDEST POP PUSH2 0x481 PUSH32 0x0 DUP2 JUMP JUMPDEST PUSH2 0x22F PUSH2 0xB84 JUMP JUMPDEST CALLVALUE DUP1 ISZERO PUSH2 0x501 JUMPI PUSH1 0x0 DUP1 REVERT JUMPDEST POP PUSH2 0x22F PUSH2 0xE2F JUMP JUMPDEST CALLVALUE DUP1 ISZERO PUSH2 0x516 JUMPI PUSH1 0x0 DUP1 REVERT JUMPDEST POP PUSH2 0x22F PUSH2 0x525 CALLDATASIZE PUSH1 0x4 PUSH2 0x1557 JUMP JUMPDEST PUSH2 0xEC8 JUMP JUMPDEST CALLVALUE DUP1 ISZERO PUSH2 0x536 JUMPI PUSH1 0x0 DUP1 REVERT JUMPDEST POP PUSH2 0x22F PUSH2 0x545 CALLDATASIZE PUSH1 0x4 PUSH2 0x1557 JUMP JUMPDEST PUSH2 0xF34 JUMP JUMPDEST CALLVALUE DUP1 ISZERO PUSH2 0x556 JUMPI PUSH1 0x0 DUP1 REVERT JUMPDEST POP PUSH2 0x29B PUSH2 0x565 CALLDATASIZE PUSH1 0x4 PUSH2 0x1557 JUMP JUMPDEST PUSH2 0xFAA JUMP JUMPDEST CALLVALUE DUP1 ISZERO PUSH2 0x576 JUMPI PUSH1 0x0 DUP1 REVERT JUMPDEST POP PUSH1 0x1 SLOAD PUSH2 0x481 SWAP1 PUSH1 0x1 PUSH1 0x1 PUSH1 0xA0 SHL SUB AND DUP2 JUMP JUMPDEST CALLVALUE DUP1 ISZERO PUSH2 0x596 JUMPI PUSH1 0x0 DUP1 REVERT JUMPDEST POP PUSH1 0x2 SLOAD PUSH2 0x481 SWAP1 PUSH1 0x1 PUSH1 0x1 PUSH1 0xA0 SHL SUB AND DUP2 JUMP JUMPDEST PUSH1 0x4 DUP2 DUP2 SLOAD DUP2 LT PUSH2 0x5BA JUMPI PUSH1 0x0 DUP1 REVERT JUMPDEST PUSH1 0x0 SWAP2 DUP3 MSTORE PUSH1 0x20 SWAP1 SWAP2 KECCAK256 PUSH1 0x4 SWAP1 SWAP2 MUL ADD DUP1 SLOAD PUSH1 0x1 DUP3 ADD SLOAD PUSH1 0x2 DUP4 ADD SLOAD PUSH1 0x3 SWAP1 SWAP4 ADD SLOAD PUSH1 0x1 PUSH1 0x1 PUSH1 0xA0 SHL SUB SWAP1 SWAP3 AND SWAP4 POP SWAP2 SWAP1 DUP5 JUMP JUMPDEST PUSH2 0x5F6 PUSH2 0x1100 JUMP JUMPDEST PUSH1 0x6 SSTORE JUMP JUMPDEST PUSH2 0x603 PUSH2 0x1100 JUMP JUMPDEST PUSH1 0x40 MLOAD PUSH4 0x2E1A7D4D PUSH1 0xE0 SHL DUP2 MSTORE PUSH1 0x4 DUP2 ADD DUP3 SWAP1 MSTORE PUSH32 0x0 PUSH1 0x1 PUSH1 0x1 PUSH1 0xA0 SHL SUB AND SWAP1 PUSH4 0x2E1A7D4D SWAP1 PUSH1 0x24 ADD PUSH1 0x0 PUSH1 0x40 MLOAD DUP1 DUP4 SUB DUP2 PUSH1 0x0 DUP8 DUP1 EXTCODESIZE ISZERO DUP1 ISZERO PUSH2 0x665 JUMPI PUSH1 0x0 DUP1 REVERT JUMPDEST POP GAS CALL ISZERO DUP1 ISZERO PUSH2 0x679 JUMPI RETURNDATASIZE PUSH1 0x0 DUP1 RETURNDATACOPY RETURNDATASIZE PUSH1 0x0 REVERT JUMPDEST POP POP POP POP PUSH2 0x687 CALLER DUP3 PUSH2 0x115A JUMP JUMPDEST POP JUMP JUMPDEST PUSH1 0x0 PUSH1 0x4 PUSH1 0x0 DUP2 SLOAD DUP2 LT PUSH2 0x6A0 JUMPI PUSH2 0x6A0 PUSH2 0x15A2 JUMP JUMPDEST PUSH1 0x0 SWAP2 DUP3 MSTORE PUSH1 0x20 DUP1 DUP4 KECCAK256 CALLER DUP5 MSTORE PUSH1 0x5 SWAP1 SWAP2 MSTORE PUSH1 0x40 SWAP1 SWAP3 KECCAK256 DUP1 SLOAD PUSH1 0x4 SWAP1 SWAP3 MUL SWAP1 SWAP3 ADD SWAP3 POP DUP4 GT ISZERO PUSH2 0x70C JUMPI PUSH1 0x40 MLOAD PUSH3 0x461BCD PUSH1 0xE5 SHL DUP2 MSTORE PUSH1 0x20 PUSH1 0x4 DUP3 ADD MSTORE PUSH1 0x12 PUSH1 0x24 DUP3 ADD MSTORE PUSH18 0x1DDA5D1A191C985DCE881B9BDD0819DBDBD9 PUSH1 0x72 SHL PUSH1 0x44 DUP3 ADD MSTORE PUSH1 0x64 ADD JUMPDEST PUSH1 0x40 MLOAD DUP1 SWAP2 SUB SWAP1 REVERT JUMPDEST PUSH2 0x716 PUSH1 0x0 PUSH2 0x942 JUMP JUMPDEST PUSH1 0x0 PUSH2 0x750 DUP3 PUSH1 0x1 ADD SLOAD PUSH2 0x74A PUSH5 0xE8D4A51000 PUSH2 0x744 DUP8 PUSH1 0x3 ADD SLOAD DUP8 PUSH1 0x0 ADD SLOAD PUSH2 0x1212 SWAP1 SWAP2 SWAP1 PUSH4 0xFFFFFFFF AND JUMP JUMPDEST SWAP1 PUSH2 0x1225 JUMP JUMPDEST SWAP1 PUSH2 0x1231 JUMP JUMPDEST SWAP1 POP PUSH1 0x0 DUP2 GT DUP1 ISZERO PUSH2 0x767 JUMPI POP PUSH1 0x2 DUP3 ADD SLOAD PUSH1 0xFF AND ISZERO JUMPDEST ISZERO PUSH2 0x783 JUMPI PUSH1 0x1 SLOAD PUSH2 0x783 SWAP1 PUSH1 0x1 PUSH1 0x1 PUSH1 0xA0 SHL SUB AND CALLER DUP4 PUSH2 0x123D JUMP JUMPDEST DUP4 ISZERO PUSH2 0x81B JUMPI DUP2 SLOAD PUSH2 0x795 SWAP1 DUP6 PUSH2 0x1231 JUMP JUMPDEST DUP3 SSTORE PUSH1 0x40 MLOAD PUSH4 0x2E1A7D4D PUSH1 0xE0 SHL DUP2 MSTORE PUSH1 0x4 DUP2 ADD DUP6 SWAP1 MSTORE PUSH32 0x0 PUSH1 0x1 PUSH1 0x1 PUSH1 0xA0 SHL SUB AND SWAP1 PUSH4 0x2E1A7D4D SWAP1 PUSH1 0x24 ADD PUSH1 0x0 PUSH1 0x40 MLOAD DUP1 DUP4 SUB DUP2 PUSH1 0x0 DUP8 DUP1 EXTCODESIZE ISZERO DUP1 ISZERO PUSH2 0x7F9 JUMPI PUSH1 0x0 DUP1 REVERT JUMPDEST POP GAS CALL ISZERO DUP1 ISZERO PUSH2 0x80D JUMPI RETURNDATASIZE PUSH1 0x0 DUP1 RETURNDATACOPY RETURNDATASIZE PUSH1 0x0 REVERT JUMPDEST POP POP POP POP PUSH2 0x81B CALLER DUP6 PUSH2 0x115A JUMP JUMPDEST PUSH1 0x3 DUP4 ADD SLOAD DUP3 SLOAD PUSH2 0x836 SWAP2 PUSH5 0xE8D4A51000 SWAP2 PUSH2 0x744 SWAP2 PUSH2 0x1212 JUMP JUMPDEST PUSH1 0x1 DUP4 ADD SSTORE PUSH1 0x40 MLOAD DUP5 DUP2 MSTORE CALLER SWAP1 PUSH32 0x884EDAD9CE6FA2440D8A54CC123490EB96D2768479D49FF9C7366125A9424364 SWAP1 PUSH1 0x20 ADD PUSH1 0x40 MLOAD DUP1 SWAP2 SUB SWAP1 LOG2 POP POP POP POP JUMP JUMPDEST PUSH2 0x87E PUSH2 0x1100 JUMP JUMPDEST PUSH1 0x1 SLOAD PUSH1 0x40 MLOAD PUSH4 0x70A08231 PUSH1 0xE0 SHL DUP2 MSTORE ADDRESS PUSH1 0x4 DUP3 ADD MSTORE PUSH1 0x1 PUSH1 0x1 PUSH1 0xA0 SHL SUB SWAP1 SWAP2 AND SWAP1 PUSH4 0x70A08231 SWAP1 PUSH1 0x24 ADD PUSH1 0x20 PUSH1 0x40 MLOAD DUP1 DUP4 SUB DUP2 DUP7 GAS STATICCALL ISZERO DUP1 ISZERO PUSH2 0x8C6 JUMPI RETURNDATASIZE PUSH1 0x0 DUP1 RETURNDATACOPY RETURNDATASIZE PUSH1 0x0 REVERT JUMPDEST POP POP POP POP PUSH1 0x40 MLOAD RETURNDATASIZE PUSH1 0x1F NOT PUSH1 0x1F DUP3 ADD AND DUP3 ADD DUP1 PUSH1 0x40 MSTORE POP DUP2 ADD SWAP1 PUSH2 0x8EA SWAP2 SWAP1 PUSH2 0x15B8 JUMP JUMPDEST DUP2 LT PUSH2 0x92B JUMPI PUSH1 0x40 MLOAD PUSH3 0x461BCD PUSH1 0xE5 SHL DUP2 MSTORE PUSH1 0x20 PUSH1 0x4 DUP3 ADD MSTORE PUSH1 0x10 PUSH1 0x24 DUP3 ADD MSTORE PUSH16 0x3737BA1032B737BAB3B4103A37B5B2B7 PUSH1 0x81 SHL PUSH1 0x44 DUP3 ADD MSTORE PUSH1 0x64 ADD PUSH2 0x703 JUMP JUMPDEST PUSH1 0x1 SLOAD PUSH2 0x687 SWAP1 PUSH1 0x1 PUSH1 0x1 PUSH1 0xA0 SHL SUB AND CALLER DUP4 PUSH2 0x123D JUMP JUMPDEST PUSH1 0x0 PUSH1 0x4 DUP3 DUP2 SLOAD DUP2 LT PUSH2 0x957 JUMPI PUSH2 0x957 PUSH2 0x15A2 JUMP JUMPDEST SWAP1 PUSH1 0x0 MSTORE PUSH1 0x20 PUSH1 0x0 KECCAK256 SWAP1 PUSH1 0x4 MUL ADD SWAP1 POP DUP1 PUSH1 0x2 ADD SLOAD NUMBER GT PUSH2 0x976 JUMPI POP POP JUMP JUMPDEST DUP1 SLOAD PUSH1 0x40 MLOAD PUSH4 0x70A08231 PUSH1 0xE0 SHL DUP2 MSTORE ADDRESS PUSH1 0x4 DUP3 ADD MSTORE PUSH1 0x0 SWAP2 PUSH1 0x1 PUSH1 0x1 PUSH1 0xA0 SHL SUB AND SWAP1 PUSH4 0x70A08231 SWAP1 PUSH1 0x24 ADD PUSH1 0x20 PUSH1 0x40 MLOAD DUP1 DUP4 SUB DUP2 DUP7 GAS STATICCALL ISZERO DUP1 ISZERO PUSH2 0x9BE JUMPI RETURNDATASIZE PUSH1 0x0 DUP1 RETURNDATACOPY RETURNDATASIZE PUSH1 0x0 REVERT JUMPDEST POP POP POP POP PUSH1 0x40 MLOAD RETURNDATASIZE PUSH1 0x1F NOT PUSH1 0x1F DUP3 ADD AND DUP3 ADD DUP1 PUSH1 0x40 MSTORE POP DUP2 ADD SWAP1 PUSH2 0x9E2 SWAP2 SWAP1 PUSH2 0x15B8 JUMP JUMPDEST SWAP1 POP DUP1 PUSH1 0x0 SUB PUSH2 0x9F7 JUMPI POP NUMBER PUSH1 0x2 SWAP1 SWAP2 ADD SSTORE POP JUMP JUMPDEST PUSH1 0x0 PUSH2 0xA07 DUP4 PUSH1 0x2 ADD SLOAD NUMBER PUSH2 0xB44 JUMP JUMPDEST SWAP1 POP PUSH1 0x0 PUSH2 0xA34 PUSH1 0x7 SLOAD PUSH2 0x744 DUP7 PUSH1 0x1 ADD SLOAD PUSH2 0xA2E PUSH1 0x3 SLOAD DUP8 PUSH2 0x1212 SWAP1 SWAP2 SWAP1 PUSH4 0xFFFFFFFF AND JUMP JUMPDEST SWAP1 PUSH2 0x1212 JUMP JUMPDEST SWAP1 POP PUSH2 0xA57 PUSH2 0xA4C DUP5 PUSH2 0x744 DUP5 PUSH5 0xE8D4A51000 PUSH2 0x1212 JUMP JUMPDEST PUSH1 0x3 DUP7 ADD SLOAD SWAP1 PUSH2 0x128F JUMP JUMPDEST PUSH1 0x3 DUP6 ADD SSTORE POP POP NUMBER PUSH1 0x2 SWAP1 SWAP3 ADD SWAP2 SWAP1 SWAP2 SSTORE POP POP JUMP JUMPDEST PUSH1 0x4 SLOAD PUSH1 0x0 JUMPDEST DUP2 DUP2 LT ISZERO PUSH2 0xA93 JUMPI PUSH2 0xA83 DUP2 PUSH2 0x942 JUMP JUMPDEST PUSH2 0xA8C DUP2 PUSH2 0x15E7 JUMP JUMPDEST SWAP1 POP PUSH2 0xA72 JUMP JUMPDEST POP POP JUMP JUMPDEST PUSH2 0xA9F PUSH2 0x1100 JUMP JUMPDEST PUSH1 0x2 DUP1 SLOAD PUSH1 0x1 PUSH1 0x1 PUSH1 0xA0 SHL SUB NOT AND PUSH1 0x1 PUSH1 0x1 PUSH1 0xA0 SHL SUB SWAP3 SWAP1 SWAP3 AND SWAP2 SWAP1 SWAP2 OR SWAP1 SSTORE JUMP JUMPDEST PUSH2 0xAC9 PUSH2 0x1100 JUMP JUMPDEST PUSH2 0xAD3 PUSH1 0x0 PUSH2 0x129B JUMP JUMPDEST JUMP JUMPDEST PUSH1 0x2 SLOAD PUSH1 0x1 PUSH1 0x1 PUSH1 0xA0 SHL SUB AND CALLER EQ PUSH2 0xB1D JUMPI PUSH1 0x40 MLOAD PUSH3 0x461BCD PUSH1 0xE5 SHL DUP2 MSTORE PUSH1 0x20 PUSH1 0x4 DUP3 ADD MSTORE PUSH1 0xB PUSH1 0x24 DUP3 ADD MSTORE PUSH11 0x61646D696E3A207775743F PUSH1 0xA8 SHL PUSH1 0x44 DUP3 ADD MSTORE PUSH1 0x64 ADD PUSH2 0x703 JUMP JUMPDEST PUSH1 0x1 PUSH1 0x1 PUSH1 0xA0 SHL SUB AND PUSH1 0x0 SWAP1 DUP2 MSTORE PUSH1 0x5 PUSH1 0x20 MSTORE PUSH1 0x40 SWAP1 KECCAK256 PUSH1 0x2 ADD DUP1 SLOAD PUSH1 0xFF NOT AND PUSH1 0x1 OR SWAP1 SSTORE JUMP JUMPDEST PUSH1 0x0 PUSH1 0x9 SLOAD DUP3 GT PUSH2 0xB60 JUMPI PUSH2 0xB59 DUP3 DUP5 PUSH2 0x1231 JUMP JUMPDEST SWAP1 POP PUSH2 0xB7E JUMP JUMPDEST PUSH1 0x9 SLOAD DUP4 LT PUSH2 0xB71 JUMPI POP PUSH1 0x0 PUSH2 0xB7E JUMP JUMPDEST PUSH1 0x9 SLOAD PUSH2 0xB59 SWAP1 DUP5 PUSH2 0x1231 JUMP JUMPDEST SWAP3 SWAP2 POP POP JUMP JUMPDEST PUSH1 0x0 PUSH1 0x4 PUSH1 0x0 DUP2 SLOAD DUP2 LT PUSH2 0xB9A JUMPI PUSH2 0xB9A PUSH2 0x15A2 JUMP JUMPDEST PUSH1 0x0 SWAP2 DUP3 MSTORE PUSH1 0x20 DUP1 DUP4 KECCAK256 CALLER DUP5 MSTORE PUSH1 0x5 SWAP1 SWAP2 MSTORE PUSH1 0x40 SWAP1 SWAP3 KECCAK256 PUSH1 0x6 SLOAD DUP2 SLOAD PUSH1 0x4 SWAP1 SWAP4 MUL SWAP1 SWAP4 ADD SWAP4 POP SWAP2 SWAP1 PUSH2 0xBCC SWAP1 CALLVALUE PUSH2 0x128F JUMP JUMPDEST GT ISZERO PUSH2 0xC0B JUMPI PUSH1 0x40 MLOAD PUSH3 0x461BCD PUSH1 0xE5 SHL DUP2 MSTORE PUSH1 0x20 PUSH1 0x4 DUP3 ADD MSTORE PUSH1 0xE PUSH1 0x24 DUP3 ADD MSTORE PUSH14 0x6578636565642074686520746F7 PUSH1 0x94 SHL PUSH1 0x44 DUP3 ADD MSTORE PUSH1 0x64 ADD PUSH2 0x703 JUMP JUMPDEST PUSH1 0x2 DUP2 ADD SLOAD PUSH1 0xFF AND ISZERO PUSH2 0xC50 JUMPI PUSH1 0x40 MLOAD PUSH3 0x461BCD PUSH1 0xE5 SHL DUP2 MSTORE PUSH1 0x20 PUSH1 0x4 DUP3 ADD MSTORE PUSH1 0xD PUSH1 0x24 DUP3 ADD MSTORE PUSH13 0x1A5B88189B1858DAC81B1A5CDD PUSH1 0x9A SHL PUSH1 0x44 DUP3 ADD MSTORE PUSH1 0x64 ADD PUSH2 0x703 JUMP JUMPDEST PUSH2 0xC5A PUSH1 0x0 PUSH2 0x942 JUMP JUMPDEST DUP1 SLOAD ISZERO PUSH2 0xCB0 JUMPI PUSH1 0x0 PUSH2 0xC8F DUP3 PUSH1 0x1 ADD SLOAD PUSH2 0x74A PUSH5 0xE8D4A51000 PUSH2 0x744 DUP8 PUSH1 0x3 ADD SLOAD DUP8 PUSH1 0x0 ADD SLOAD PUSH2 0x1212 SWAP1 SWAP2 SWAP1 PUSH4 0xFFFFFFFF AND JUMP JUMPDEST SWAP1 POP DUP1 ISZERO PUSH2 0xCAE JUMPI PUSH1 0x1 SLOAD PUSH2 0xCAE SWAP1 PUSH1 0x1 PUSH1 0x1 PUSH1 0xA0 SHL SUB AND CALLER DUP4 PUSH2 0x123D JUMP JUMPDEST POP JUMPDEST CALLVALUE ISZERO PUSH2 0xDD6 JUMPI PUSH32 0x0 PUSH1 0x1 PUSH1 0x1 PUSH1 0xA0 SHL SUB AND PUSH4 0xD0E30DB0 CALLVALUE PUSH1 0x40 MLOAD DUP3 PUSH4 0xFFFFFFFF AND PUSH1 0xE0 SHL DUP2 MSTORE PUSH1 0x4 ADD PUSH1 0x0 PUSH1 0x40 MLOAD DUP1 DUP4 SUB DUP2 DUP6 DUP9 DUP1 EXTCODESIZE ISZERO DUP1 ISZERO PUSH2 0xD11 JUMPI PUSH1 0x0 DUP1 REVERT JUMPDEST POP GAS CALL ISZERO DUP1 ISZERO PUSH2 0xD25 JUMPI RETURNDATASIZE PUSH1 0x0 DUP1 RETURNDATACOPY RETURNDATASIZE PUSH1 0x0 REVERT JUMPDEST POP POP PUSH1 0x40 MLOAD PUSH4 0xA9059CBB PUSH1 0xE0 SHL DUP2 MSTORE ADDRESS PUSH1 0x4 DUP3 ADD MSTORE CALLVALUE PUSH1 0x24 DUP3 ADD MSTORE PUSH32 0x0 PUSH1 0x1 PUSH1 0x1 PUSH1 0xA0 SHL SUB AND SWAP4 POP PUSH4 0xA9059CBB SWAP3 POP PUSH1 0x44 ADD SWAP1 POP PUSH1 0x20 PUSH1 0x40 MLOAD DUP1 DUP4 SUB DUP2 PUSH1 0x0 DUP8 GAS CALL ISZERO DUP1 ISZERO PUSH2 0xD97 JUMPI RETURNDATASIZE PUSH1 0x0 DUP1 RETURNDATACOPY RETURNDATASIZE PUSH1 0x0 REVERT JUMPDEST POP POP POP POP PUSH1 0x40 MLOAD RETURNDATASIZE PUSH1 0x1F NOT PUSH1 0x1F DUP3 ADD AND DUP3 ADD DUP1 PUSH1 0x40 MSTORE POP DUP2 ADD SWAP1 PUSH2 0xDBB SWAP2 SWAP1 PUSH2 0x1600 JUMP JUMPDEST PUSH2 0xDC7 JUMPI PUSH2 0xDC7 PUSH2 0x1622 JUMP JUMPDEST DUP1 SLOAD PUSH2 0xDD3 SWAP1 CALLVALUE PUSH2 0x128F JUMP JUMPDEST DUP2 SSTORE JUMPDEST PUSH1 0x3 DUP3 ADD SLOAD DUP2 SLOAD PUSH2 0xDF1 SWAP2 PUSH5 0xE8D4A51000 SWAP2 PUSH2 0x744 SWAP2 PUSH2 0x1212 JUMP JUMPDEST PUSH1 0x1 DUP3 ADD SSTORE PUSH1 0x40 MLOAD CALLVALUE DUP2 MSTORE CALLER SWAP1 PUSH32 0xE1FFFCC4923D04B559F4D29A8BFC6CDA04EB5B0D3C460751C2402C5C5CC9109C SWAP1 PUSH1 0x20 ADD PUSH1 0x40 MLOAD DUP1 SWAP2 SUB SWAP1 LOG2 POP POP JUMP JUMPDEST PUSH1 0x0 PUSH1 0x4 PUSH1 0x0 DUP2 SLOAD DUP2 LT PUSH2 0xE45 JUMPI PUSH2 0xE45 PUSH2 0x15A2 JUMP JUMPDEST PUSH1 0x0 SWAP2 DUP3 MSTORE PUSH1 0x20 DUP1 DUP4 KECCAK256 CALLER DUP1 DUP6 MSTORE PUSH1 0x5 SWAP1 SWAP3 MSTORE PUSH1 0x40 SWAP1 SWAP4 KECCAK256 DUP1 SLOAD PUSH1 0x4 SWAP1 SWAP4 MUL SWAP1 SWAP4 ADD DUP1 SLOAD SWAP1 SWAP5 POP PUSH2 0xE83 SWAP3 PUSH1 0x1 PUSH1 0x1 PUSH1 0xA0 SHL SUB SWAP2 SWAP1 SWAP2 AND SWAP2 SWAP1 PUSH2 0x123D JUMP JUMPDEST DUP1 SLOAD PUSH1 0x40 MLOAD SWAP1 DUP2 MSTORE CALLER SWAP1 PUSH32 0x5FAFA99D0643513820BE26656B45130B01E1C03062E1266BF36F88CBD3BD9695 SWAP1 PUSH1 0x20 ADD PUSH1 0x40 MLOAD DUP1 SWAP2 SUB SWAP1 LOG2 PUSH1 0x0 DUP1 DUP3 SSTORE PUSH1 0x1 SWAP1 SWAP2 ADD SSTORE POP JUMP JUMPDEST PUSH1 0x2 SLOAD PUSH1 0x1 PUSH1 0x1 PUSH1 0xA0 SHL SUB AND CALLER EQ PUSH2 0xF10 JUMPI PUSH1 0x40 MLOAD PUSH3 0x461BCD PUSH1 0xE5 SHL DUP2 MSTORE PUSH1 0x20 PUSH1 0x4 DUP3 ADD MSTORE PUSH1 0xB PUSH1 0x24 DUP3 ADD MSTORE PUSH11 0x61646D696E3A207775743F PUSH1 0xA8 SHL PUSH1 0x44 DUP3 ADD MSTORE PUSH1 0x64 ADD PUSH2 0x703 JUMP JUMPDEST PUSH1 0x1 PUSH1 0x1 PUSH1 0xA0 SHL SUB AND PUSH1 0x0 SWAP1 DUP2 MSTORE PUSH1 0x5 PUSH1 0x20 MSTORE PUSH1 0x40 SWAP1 KECCAK256 PUSH1 0x2 ADD DUP1 SLOAD PUSH1 0xFF NOT AND SWAP1 SSTORE JUMP JUMPDEST PUSH2 0xF3C PUSH2 0x1100 JUMP JUMPDEST PUSH1 0x1 PUSH1 0x1 PUSH1 0xA0 SHL SUB DUP2 AND PUSH2 0xFA1 JUMPI PUSH1 0x40 MLOAD PUSH3 0x461BCD PUSH1 0xE5 SHL DUP2 MSTORE PUSH1 0x20 PUSH1 0x4 DUP3 ADD MSTORE PUSH1 0x26 PUSH1 0x24 DUP3 ADD MSTORE PUSH32 0x4F776E61626C653A206E6577206F776E657220697320746865207A65726F2061 PUSH1 0x44 DUP3 ADD MSTORE PUSH6 0x646472657373 PUSH1 0xD0 SHL PUSH1 0x64 DUP3 ADD MSTORE PUSH1 0x84 ADD PUSH2 0x703 JUMP JUMPDEST PUSH2 0x687 DUP2 PUSH2 0x129B JUMP JUMPDEST PUSH1 0x0 DUP1 PUSH1 0x4 PUSH1 0x0 DUP2 SLOAD DUP2 LT PUSH2 0xFC1 JUMPI PUSH2 0xFC1 PUSH2 0x15A2 JUMP JUMPDEST PUSH1 0x0 SWAP2 DUP3 MSTORE PUSH1 0x20 DUP1 DUP4 KECCAK256 PUSH1 0x1 PUSH1 0x1 PUSH1 0xA0 SHL SUB DUP8 DUP2 AND DUP6 MSTORE PUSH1 0x5 SWAP1 SWAP3 MSTORE PUSH1 0x40 DUP1 DUP6 KECCAK256 PUSH1 0x4 SWAP5 DUP6 MUL SWAP1 SWAP3 ADD PUSH1 0x3 DUP2 ADD SLOAD DUP2 SLOAD SWAP3 MLOAD PUSH4 0x70A08231 PUSH1 0xE0 SHL DUP2 MSTORE ADDRESS SWAP7 DUP2 ADD SWAP7 SWAP1 SWAP7 MSTORE SWAP1 SWAP7 POP SWAP2 SWAP5 SWAP2 SWAP4 SWAP2 SWAP3 AND SWAP1 PUSH4 0x70A08231 SWAP1 PUSH1 0x24 ADD PUSH1 0x20 PUSH1 0x40 MLOAD DUP1 DUP4 SUB DUP2 DUP7 GAS STATICCALL ISZERO DUP1 ISZERO PUSH2 0x1036 JUMPI RETURNDATASIZE PUSH1 0x0 DUP1 RETURNDATACOPY RETURNDATASIZE PUSH1 0x0 REVERT JUMPDEST POP POP POP POP PUSH1 0x40 MLOAD RETURNDATASIZE PUSH1 0x1F NOT PUSH1 0x1F DUP3 ADD AND DUP3 ADD DUP1 PUSH1 0x40 MSTORE POP DUP2 ADD SWAP1 PUSH2 0x105A SWAP2 SWAP1 PUSH2 0x15B8 JUMP JUMPDEST SWAP1 POP DUP4 PUSH1 0x2 ADD SLOAD NUMBER GT DUP1 ISZERO PUSH2 0x106E JUMPI POP DUP1 ISZERO ISZERO JUMPDEST ISZERO PUSH2 0x10CE JUMPI PUSH1 0x0 PUSH2 0x1083 DUP6 PUSH1 0x2 ADD SLOAD NUMBER PUSH2 0xB44 JUMP JUMPDEST SWAP1 POP PUSH1 0x0 PUSH2 0x10AA PUSH1 0x7 SLOAD PUSH2 0x744 DUP9 PUSH1 0x1 ADD SLOAD PUSH2 0xA2E PUSH1 0x3 SLOAD DUP8 PUSH2 0x1212 SWAP1 SWAP2 SWAP1 PUSH4 0xFFFFFFFF AND JUMP JUMPDEST SWAP1 POP PUSH2 0x10C9 PUSH2 0x10C2 DUP5 PUSH2 0x744 DUP5 PUSH5 0xE8D4A51000 PUSH2 0x1212 JUMP JUMPDEST DUP6 SWAP1 PUSH2 0x128F JUMP JUMPDEST SWAP4 POP POP POP JUMPDEST PUSH2 0x10F6 DUP4 PUSH1 0x1 ADD SLOAD PUSH2 0x74A PUSH5 0xE8D4A51000 PUSH2 0x744 DUP7 DUP9 PUSH1 0x0 ADD SLOAD PUSH2 0x1212 SWAP1 SWAP2 SWAP1 PUSH4 0xFFFFFFFF AND JUMP JUMPDEST SWAP7 SWAP6 POP POP POP POP POP POP JUMP JUMPDEST PUSH1 0x0 SLOAD PUSH1 0x1 PUSH1 0x1 PUSH1 0xA0 SHL SUB AND CALLER EQ PUSH2 0xAD3 JUMPI PUSH1 0x40 MLOAD PUSH3 0x461BCD PUSH1 0xE5 SHL DUP2 MSTORE PUSH1 0x20 PUSH1 0x4 DUP3 ADD DUP2 SWAP1 MSTORE PUSH1 0x24 DUP3 ADD MSTORE PUSH32 0x4F776E61626C653A2063616C6C6572206973206E6F7420746865206F776E6572 PUSH1 0x44 DUP3 ADD MSTORE PUSH1 0x64 ADD PUSH2 0x703 JUMP JUMPDEST PUSH1 0x0 DUP3 PUSH1 0x1 PUSH1 0x1 PUSH1 0xA0 SHL SUB AND PUSH2 0x59D8 DUP4 PUSH1 0x40 MLOAD PUSH1 0x0 PUSH1 0x40 MLOAD DUP1 DUP4 SUB DUP2 DUP6 DUP9 DUP9 CALL SWAP4 POP POP POP POP RETURNDATASIZE DUP1 PUSH1 0x0 DUP2 EQ PUSH2 0x11AB JUMPI PUSH1 0x40 MLOAD SWAP2 POP PUSH1 0x1F NOT PUSH1 0x3F RETURNDATASIZE ADD AND DUP3 ADD PUSH1 0x40 MSTORE RETURNDATASIZE DUP3 MSTORE RETURNDATASIZE PUSH1 0x0 PUSH1 0x20 DUP5 ADD RETURNDATACOPY PUSH2 0x11B0 JUMP JUMPDEST PUSH1 0x60 SWAP2 POP JUMPDEST POP POP SWAP1 POP DUP1 PUSH2 0x120D JUMPI PUSH1 0x40 MLOAD PUSH3 0x461BCD PUSH1 0xE5 SHL DUP2 MSTORE PUSH1 0x20 PUSH1 0x4 DUP3 ADD MSTORE PUSH1 0x23 PUSH1 0x24 DUP3 ADD MSTORE PUSH32 0x5472616E7366657248656C7065723A204554485F5452414E534645525F464149 PUSH1 0x44 DUP3 ADD MSTORE PUSH3 0x131151 PUSH1 0xEA SHL PUSH1 0x64 DUP3 ADD MSTORE PUSH1 0x84 ADD PUSH2 0x703 JUMP JUMPDEST POP POP POP JUMP JUMPDEST PUSH1 0x0 PUSH2 0x121E DUP3 DUP5 PUSH2 0x1638 JUMP JUMPDEST SWAP4 SWAP3 POP POP POP JUMP JUMPDEST PUSH1 0x0 PUSH2 0x121E DUP3 DUP5 PUSH2 0x164F JUMP JUMPDEST PUSH1 0x0 PUSH2 0x121E DUP3 DUP5 PUSH2 0x1671 JUMP JUMPDEST PUSH1 0x40 DUP1 MLOAD PUSH1 0x1 PUSH1 0x1 PUSH1 0xA0 SHL SUB DUP5 AND PUSH1 0x24 DUP3 ADD MSTORE PUSH1 0x44 DUP1 DUP3 ADD DUP5 SWAP1 MSTORE DUP3 MLOAD DUP1 DUP4 SUB SWAP1 SWAP2 ADD DUP2 MSTORE PUSH1 0x64 SWAP1 SWAP2 ADD SWAP1 SWAP2 MSTORE PUSH1 0x20 DUP2 ADD DUP1 MLOAD PUSH1 0x1 PUSH1 0x1 PUSH1 0xE0 SHL SUB AND PUSH4 0xA9059CBB PUSH1 0xE0 SHL OR SWAP1 MSTORE PUSH2 0x120D SWAP1 DUP5 SWAP1 PUSH2 0x12EB JUMP JUMPDEST PUSH1 0x0 PUSH2 0x121E DUP3 DUP5 PUSH2 0x1684 JUMP JUMPDEST PUSH1 0x0 DUP1 SLOAD PUSH1 0x1 PUSH1 0x1 PUSH1 0xA0 SHL SUB DUP4 DUP2 AND PUSH1 0x1 PUSH1 0x1 PUSH1 0xA0 SHL SUB NOT DUP4 AND DUP2 OR DUP5 SSTORE PUSH1 0x40 MLOAD SWAP2 SWAP1 SWAP3 AND SWAP3 DUP4 SWAP2 PUSH32 0x8BE0079C531659141344CD1FD0A4F28419497F9722A3DAAFE3B4186F6B6457E0 SWAP2 SWAP1 LOG3 POP POP JUMP JUMPDEST PUSH1 0x0 PUSH2 0x1340 DUP3 PUSH1 0x40 MLOAD DUP1 PUSH1 0x40 ADD PUSH1 0x40 MSTORE DUP1 PUSH1 0x20 DUP2 MSTORE PUSH1 0x20 ADD PUSH32 0x5361666545524332303A206C6F772D6C6576656C2063616C6C206661696C6564 DUP2 MSTORE POP DUP6 PUSH1 0x1 PUSH1 0x1 PUSH1 0xA0 SHL SUB AND PUSH2 0x13BD SWAP1 SWAP3 SWAP2 SWAP1 PUSH4 0xFFFFFFFF AND JUMP JUMPDEST DUP1 MLOAD SWAP1 SWAP2 POP ISZERO PUSH2 0x120D JUMPI DUP1 DUP1 PUSH1 0x20 ADD SWAP1 MLOAD DUP2 ADD SWAP1 PUSH2 0x135E SWAP2 SWAP1 PUSH2 0x1600 JUMP JUMPDEST PUSH2 0x120D JUMPI PUSH1 0x40 MLOAD PUSH3 0x461BCD PUSH1 0xE5 SHL DUP2 MSTORE PUSH1 0x20 PUSH1 0x4 DUP3 ADD MSTORE PUSH1 0x2A PUSH1 0x24 DUP3 ADD MSTORE PUSH32 0x5361666545524332303A204552433230206F7065726174696F6E20646964206E PUSH1 0x44 DUP3 ADD MSTORE PUSH10 0x1BDD081CDD58D8D95959 PUSH1 0xB2 SHL PUSH1 0x64 DUP3 ADD MSTORE PUSH1 0x84 ADD PUSH2 0x703 JUMP JUMPDEST PUSH1 0x60 PUSH2 0x13CC DUP5 DUP5 PUSH1 0x0 DUP6 PUSH2 0x13D4 JUMP JUMPDEST SWAP5 SWAP4 POP POP POP POP JUMP JUMPDEST PUSH1 0x60 DUP3 SELFBALANCE LT ISZERO PUSH2 0x1435 JUMPI PUSH1 0x40 MLOAD PUSH3 0x461BCD PUSH1 0xE5 SHL DUP2 MSTORE PUSH1 0x20 PUSH1 0x4 DUP3 ADD MSTORE PUSH1 0x26 PUSH1 0x24 DUP3 ADD MSTORE PUSH32 0x416464726573733A20696E73756666696369656E742062616C616E636520666F PUSH1 0x44 DUP3 ADD MSTORE PUSH6 0x1C8818D85B1B PUSH1 0xD2 SHL PUSH1 0x64 DUP3 ADD MSTORE PUSH1 0x84 ADD PUSH2 0x703 JUMP JUMPDEST PUSH1 0x1 PUSH1 0x1 PUSH1 0xA0 SHL SUB DUP6 AND EXTCODESIZE PUSH2 0x148C JUMPI PUSH1 0x40 MLOAD PUSH3 0x461BCD PUSH1 0xE5 SHL DUP2 MSTORE PUSH1 0x20 PUSH1 0x4 DUP3 ADD MSTORE PUSH1 0x1D PUSH1 0x24 DUP3 ADD MSTORE PUSH32 0x416464726573733A2063616C6C20746F206E6F6E2D636F6E7472616374000000 PUSH1 0x44 DUP3 ADD MSTORE PUSH1 0x64 ADD PUSH2 0x703 JUMP JUMPDEST PUSH1 0x0 DUP1 DUP7 PUSH1 0x1 PUSH1 0x1 PUSH1 0xA0 SHL SUB AND DUP6 DUP8 PUSH1 0x40 MLOAD PUSH2 0x14A8 SWAP2 SWAP1 PUSH2 0x16BB JUMP JUMPDEST PUSH1 0x0 PUSH1 0x40 MLOAD DUP1 DUP4 SUB DUP2 DUP6 DUP8 GAS CALL SWAP3 POP POP POP RETURNDATASIZE DUP1 PUSH1 0x0 DUP2 EQ PUSH2 0x14E5 JUMPI PUSH1 0x40 MLOAD SWAP2 POP PUSH1 0x1F NOT PUSH1 0x3F RETURNDATASIZE ADD AND DUP3 ADD PUSH1 0x40 MSTORE RETURNDATASIZE DUP3 MSTORE RETURNDATASIZE PUSH1 0x0 PUSH1 0x20 DUP5 ADD RETURNDATACOPY PUSH2 0x14EA JUMP JUMPDEST PUSH1 0x60 SWAP2 POP JUMPDEST POP SWAP2 POP SWAP2 POP PUSH2 0x14FA DUP3 DUP3 DUP7 PUSH2 0x1505 JUMP JUMPDEST SWAP8 SWAP7 POP POP POP POP POP POP POP JUMP JUMPDEST PUSH1 0x60 DUP4 ISZERO PUSH2 0x1514 JUMPI POP DUP2 PUSH2 0x121E JUMP JUMPDEST DUP3 MLOAD ISZERO PUSH2 0x1524 JUMPI DUP3 MLOAD DUP1 DUP5 PUSH1 0x20 ADD REVERT JUMPDEST DUP2 PUSH1 0x40 MLOAD PUSH3 0x461BCD PUSH1 0xE5 SHL DUP2 MSTORE PUSH1 0x4 ADD PUSH2 0x703 SWAP2 SWAP1 PUSH2 0x16D7 JUMP JUMPDEST PUSH1 0x0 PUSH1 0x20 DUP3 DUP5 SUB SLT ISZERO PUSH2 0x1550 JUMPI PUSH1 0x0 DUP1 REVERT JUMPDEST POP CALLDATALOAD SWAP2 SWAP1 POP JUMP JUMPDEST PUSH1 0x0 PUSH1 0x20 DUP3 DUP5 SUB SLT ISZERO PUSH2 0x1569 JUMPI PUSH1 0x0 DUP1 REVERT JUMPDEST DUP2 CALLDATALOAD PUSH1 0x1 PUSH1 0x1 PUSH1 0xA0 SHL SUB DUP2 AND DUP2 EQ PUSH2 0x121E JUMPI PUSH1 0x0 DUP1 REVERT JUMPDEST PUSH1 0x0 DUP1 PUSH1 0x40 DUP4 DUP6 SUB SLT ISZERO PUSH2 0x1593 JUMPI PUSH1 0x0 DUP1 REVERT JUMPDEST POP POP DUP1 CALLDATALOAD SWAP3 PUSH1 0x20 SWAP1 SWAP2 ADD CALLDATALOAD SWAP2 POP JUMP JUMPDEST PUSH4 0x4E487B71 PUSH1 0xE0 SHL PUSH1 0x0 MSTORE PUSH1 0x32 PUSH1 0x4 MSTORE PUSH1 0x24 PUSH1 0x0 REVERT JUMPDEST PUSH1 0x0 PUSH1 0x20 DUP3 DUP5 SUB SLT ISZERO PUSH2 0x15CA JUMPI PUSH1 0x0 DUP1 REVERT JUMPDEST POP MLOAD SWAP2 SWAP1 POP JUMP JUMPDEST PUSH4 0x4E487B71 PUSH1 0xE0 SHL PUSH1 0x0 MSTORE PUSH1 0x11 PUSH1 0x4 MSTORE PUSH1 0x24 PUSH1 0x0 REVERT JUMPDEST PUSH1 0x0 PUSH1 0x1 DUP3 ADD PUSH2 0x15F9 JUMPI PUSH2 0x15F9 PUSH2 0x15D1 JUMP JUMPDEST POP PUSH1 0x1 ADD SWAP1 JUMP JUMPDEST PUSH1 0x0 PUSH1 0x20 DUP3 DUP5 SUB SLT ISZERO PUSH2 0x1612 JUMPI PUSH1 0x0 DUP1 REVERT JUMPDEST DUP2 MLOAD DUP1 ISZERO ISZERO DUP2 EQ PUSH2 0x121E JUMPI PUSH1 0x0 DUP1 REVERT JUMPDEST PUSH4 0x4E487B71 PUSH1 0xE0 SHL PUSH1 0x0 MSTORE PUSH1 0x1 PUSH1 0x4 MSTORE PUSH1 0x24 PUSH1 0x0 REVERT JUMPDEST DUP1 DUP3 MUL DUP2 ISZERO DUP3 DUP3 DIV DUP5 EQ OR PUSH2 0xB7E JUMPI PUSH2 0xB7E PUSH2 0x15D1 JUMP JUMPDEST PUSH1 0x0 DUP3 PUSH2 0x166C JUMPI PUSH4 0x4E487B71 PUSH1 0xE0 SHL PUSH1 0x0 MSTORE PUSH1 0x12 PUSH1 0x4 MSTORE PUSH1 0x24 PUSH1 0x0 REVERT JUMPDEST POP DIV SWAP1 JUMP JUMPDEST DUP2 DUP2 SUB DUP2 DUP2 GT ISZERO PUSH2 0xB7E JUMPI PUSH2 0xB7E PUSH2 0x15D1 JUMP JUMPDEST DUP1 DUP3 ADD DUP1 DUP3 GT ISZERO PUSH2 0xB7E JUMPI PUSH2 0xB7E PUSH2 0x15D1 JUMP JUMPDEST PUSH1 0x0 JUMPDEST DUP4 DUP2 LT ISZERO PUSH2 0x16B2 JUMPI DUP2 DUP2 ADD MLOAD DUP4 DUP3 ADD MSTORE PUSH1 0x20 ADD PUSH2 0x169A JUMP JUMPDEST POP POP PUSH1 0x0 SWAP2 ADD MSTORE JUMP JUMPDEST PUSH1 0x0 DUP3 MLOAD PUSH2 0x16CD DUP2 DUP5 PUSH1 0x20 DUP8 ADD PUSH2 0x1697 JUMP JUMPDEST SWAP2 SWAP1 SWAP2 ADD SWAP3 SWAP2 POP POP JUMP JUMPDEST PUSH1 0x20 DUP2 MSTORE PUSH1 0x0 DUP3 MLOAD DUP1 PUSH1 0x20 DUP5 ADD MSTORE PUSH2 0x16F6 DUP2 PUSH1 0x40 DUP6 ADD PUSH1 0x20 DUP8 ADD PUSH2 0x1697 JUMP JUMPDEST PUSH1 0x1F ADD PUSH1 0x1F NOT AND SWAP2 SWAP1 SWAP2 ADD PUSH1 0x40 ADD SWAP3 SWAP2 POP POP JUMP INVALID LOG2 PUSH5 0x6970667358 0x22 SLT KECCAK256 0x1E SWAP9 DELEGATECALL SAR 0xE6 PUSH3 0xFFDF5C SGT BYTE 0xB0 0x5C SWAP13 0x4A SWAP16 PUSH25 0xBFB7E2215E24A1A39CE29B08CD944664736F6C634300081100 CALLER "},"methodIdentifiers":{"WBNB()":"8dd95002","adminAddress()":"fc6f9468","bonusEndBlock()":"1aed6553","deposit()":"d0e30db0","emergencyRewardWithdraw(uint256)":"3279beab","emergencyWithdraw()":"db2e21bc","getMultiplier(uint256,uint256)":"8dbb1e3a","limitAmount()":"78abafaf","loanBNB(uint256)":"2158f841","massUpdatePools()":"630b5ba1","owner()":"8da5cb5b","pendingReward(address)":"f40f0f52","poolInfo(uint256)":"1526fe27","removeBlackList(address)":"e4997dc5","renounceOwnership()":"715018a6","rewardPerBlock()":"8ae39cac","rewardToken()":"f7c618c1","setAdmin(address)":"704b6c02","setBlackList(address)":"72700241","setLimitAmount(uint256)":"1f107a45","startBlock()":"48cd4cb1","totalAllocPoint()":"17caf6f1","transferOwnership(address)":"f2fde38b","updatePool(uint256)":"51eb05a6","userInfo(address)":"1959a002","withdraw(uint256)":"2e1a7d4d"}}}}}