{"contracts/BLBIO/BLBIO.sol":{"BLBIO":{"abi":[{"inputs":[{"internalType":"address","name":"_BLBAddr","type":"address"},{"internalType":"address","name":"_BUSDAddr","type":"address"},{"internalType":"address","name":"_AGGREGATORAddr","type":"address"}],"stateMutability":"nonpayable","type":"constructor"},{"anonymous":false,"inputs":[{"indexed":true,"internalType":"address","name":"buyer","type":"address"},{"indexed":false,"internalType":"uint256","name":"amountBLB","type":"uint256"},{"indexed":false,"internalType":"uint256","name":"amountBNB","type":"uint256"}],"name":"BuyInBNB","type":"event"},{"anonymous":false,"inputs":[{"indexed":true,"internalType":"address","name":"buyer","type":"address"},{"indexed":false,"internalType":"uint256","name":"amountBLB","type":"uint256"},{"indexed":false,"internalType":"uint256","name":"amountBUSD","type":"uint256"}],"name":"BuyInBUSD","type":"event"},{"anonymous":false,"inputs":[{"indexed":true,"internalType":"address","name":"claimant","type":"address"},{"indexed":false,"internalType":"uint256","name":"amountBLB","type":"uint256"}],"name":"Claim","type":"event"},{"anonymous":false,"inputs":[{"indexed":true,"internalType":"address","name":"previousOwner","type":"address"},{"indexed":true,"internalType":"address","name":"newOwner","type":"address"}],"name":"OwnershipTransferred","type":"event"},{"anonymous":false,"inputs":[{"indexed":true,"internalType":"uint256","name":"publicPrice","type":"uint256"},{"indexed":true,"internalType":"uint256","name":"privatePrice","type":"uint256"}],"name":"SetPriceInUSD","type":"event"},{"anonymous":false,"inputs":[{"indexed":true,"internalType":"uint256","name":"_retailLimit","type":"uint256"}],"name":"SetRetailLimit","type":"event"},{"anonymous":false,"inputs":[{"indexed":true,"internalType":"string","name":"tokenName","type":"string"},{"indexed":false,"internalType":"uint256","name":"amount","type":"uint256"}],"name":"Withdraw","type":"event"},{"inputs":[],"name":"BLB","outputs":[{"internalType":"contract IERC20","name":"","type":"address"}],"stateMutability":"view","type":"function"},{"inputs":[],"name":"BUSD","outputs":[{"internalType":"contract IERC20","name":"","type":"address"}],"stateMutability":"view","type":"function"},{"inputs":[],"name":"TotalClaimable","outputs":[{"internalType":"uint256","name":"","type":"uint256"}],"stateMutability":"view","type":"function"},{"inputs":[],"name":"blbBalance","outputs":[{"internalType":"uint256","name":"","type":"uint256"}],"stateMutability":"view","type":"function"},{"inputs":[],"name":"bnbBalance","outputs":[{"internalType":"uint256","name":"","type":"uint256"}],"stateMutability":"view","type":"function"},{"inputs":[],"name":"busdBalance","outputs":[{"internalType":"uint256","name":"","type":"uint256"}],"stateMutability":"view","type":"function"},{"inputs":[{"internalType":"uint256","name":"amount","type":"uint256"}],"name":"buyInBNB","outputs":[],"stateMutability":"payable","type":"function"},{"inputs":[{"internalType":"uint256","name":"amount","type":"uint256"}],"name":"buyInBUSD","outputs":[],"stateMutability":"nonpayable","type":"function"},{"inputs":[],"name":"claim","outputs":[],"stateMutability":"nonpayable","type":"function"},{"inputs":[{"internalType":"address","name":"claimant","type":"address"}],"name":"claimable","outputs":[{"internalType":"uint256","name":"","type":"uint256"}],"stateMutability":"view","type":"function"},{"inputs":[],"name":"claimableFraction","outputs":[{"internalType":"uint256","name":"","type":"uint256"}],"stateMutability":"view","type":"function"},{"inputs":[{"internalType":"address","name":"addr","type":"address"},{"internalType":"uint256","name":"amount","type":"uint256"},{"internalType":"bool","name":"freeToClaim","type":"bool"}],"name":"giftBLB","outputs":[],"stateMutability":"nonpayable","type":"function"},{"inputs":[{"internalType":"uint256","name":"fraction","type":"uint256"}],"name":"increaseClaimableFraction","outputs":[],"stateMutability":"nonpayable","type":"function"},{"inputs":[],"name":"owner","outputs":[{"internalType":"address","name":"","type":"address"}],"stateMutability":"view","type":"function"},{"inputs":[{"internalType":"uint256","name":"amount","type":"uint256"}],"name":"priceInBNB","outputs":[{"internalType":"uint256","name":"","type":"uint256"}],"stateMutability":"view","type":"function"},{"inputs":[{"internalType":"uint256","name":"amount","type":"uint256"}],"name":"priceInUSD","outputs":[{"internalType":"uint256","name":"","type":"uint256"}],"stateMutability":"view","type":"function"},{"inputs":[],"name":"privatePriceInUSD","outputs":[{"internalType":"uint256","name":"","type":"uint256"}],"stateMutability":"view","type":"function"},{"inputs":[],"name":"publicPriceInUSD","outputs":[{"internalType":"uint256","name":"","type":"uint256"}],"stateMutability":"view","type":"function"},{"inputs":[],"name":"renounceOwnership","outputs":[],"stateMutability":"nonpayable","type":"function"},{"inputs":[],"name":"retailLimit","outputs":[{"internalType":"uint256","name":"","type":"uint256"}],"stateMutability":"view","type":"function"},{"inputs":[{"internalType":"uint256","name":"_publicPrice","type":"uint256"},{"internalType":"uint256","name":"_privatePrice","type":"uint256"}],"name":"setPriceInUSD","outputs":[],"stateMutability":"nonpayable","type":"function"},{"inputs":[{"internalType":"uint256","name":"_retailLimit","type":"uint256"}],"name":"setRetailLimit","outputs":[],"stateMutability":"nonpayable","type":"function"},{"inputs":[],"name":"setSoldOut","outputs":[],"stateMutability":"nonpayable","type":"function"},{"inputs":[],"name":"soldOut","outputs":[{"internalType":"bool","name":"","type":"bool"}],"stateMutability":"view","type":"function"},{"inputs":[{"internalType":"address","name":"claimant","type":"address"}],"name":"totalClaimable","outputs":[{"internalType":"uint256","name":"","type":"uint256"}],"stateMutability":"view","type":"function"},{"inputs":[{"internalType":"address","name":"newOwner","type":"address"}],"name":"transferOwnership","outputs":[],"stateMutability":"nonpayable","type":"function"},{"inputs":[{"internalType":"uint256","name":"amount","type":"uint256"}],"name":"withdrawBLB","outputs":[],"stateMutability":"nonpayable","type":"function"},{"inputs":[{"internalType":"uint256","name":"amount","type":"uint256"}],"name":"withdrawBNB","outputs":[],"stateMutability":"nonpayable","type":"function"},{"inputs":[{"internalType":"uint256","name":"amount","type":"uint256"}],"name":"withdrawBUSD","outputs":[],"stateMutability":"nonpayable","type":"function"}],"evm":{"bytecode":{"linkReferences":{},"object":"60a06040523480156200001157600080fd5b5060405162001564380380620015648339810160408190526200003491620001fb565b6200003f33620000ab565b600680546001600160a01b038086166001600160a01b03199283161790925560078054858416921691909117905581166080526200008e670429d069189e00006703e2c284391c0000620000fb565b620000a2681b1ae4d6e2ef50000062000140565b50505062000245565b600080546001600160a01b038381166001600160a01b0319831681178455604051919092169283917f8be0079c531659141344cd1fd0a4f28419497f9722a3daafe3b4186f6b6457e09190a35050565b620001056200017d565b60028290556001819055604051819083907ff1981ab2ec7e286f52cb5d122cdb004e782c7cd2c7ec79e9c5a07f380f94bd9d90600090a35050565b6200014a6200017d565b600381905560405181907f8585f06828ed2d9126b998a9d431d18854350c2d883a903f957b1f6e77f6ca2490600090a250565b6000546001600160a01b03163314620001dc5760405162461bcd60e51b815260206004820181905260248201527f4f776e61626c653a2063616c6c6572206973206e6f7420746865206f776e6572604482015260640160405180910390fd5b565b80516001600160a01b0381168114620001f657600080fd5b919050565b6000806000606084860312156200021157600080fd5b6200021c84620001de565b92506200022c60208501620001de565b91506200023c60408501620001de565b90509250925092565b608051611303620002616000396000610c2001526113036000f3fe6080604052600436106101c25760003560e01c8063790b284f116100f7578063c73b2a4311610095578063d013cbe211610064578063d013cbe2146104c3578063dc39ca7a146104d6578063e00115f6146104eb578063f2fde38b1461050057600080fd5b8063c73b2a431461044d578063c9e3c9c714610463578063cc3bcaf314610483578063ce9d3b09146104a357600080fd5b8063893da6c9116100d1578063893da6c9146103c95780638da5cb5b146103fa578063be5be21114610418578063bfa54b3f1461042d57600080fd5b8063790b284f1461037d5780637f04e0e1146103935780638380c091146103b357600080fd5b8063484f4ea9116101645780635b0dfa951161013e5780635b0dfa95146103085780635d2a2c9914610328578063715018a614610348578063769bb5ac1461035d57600080fd5b8063484f4ea91461029b5780634bc37468146102d35780634e71d92d146102f357600080fd5b8063158b072c116101a0578063158b072c1461022f5780631dfce5c614610245578063402914f5146102655780634426a2631461028557600080fd5b806306dc693b146101c7578063127f4b2e146101fa57806312b132161461021c575b600080fd5b3480156101d357600080fd5b506101e76101e2366004611162565b610520565b6040519081526020015b60405180910390f35b34801561020657600080fd5b5061021a610215366004611162565b6105ae565b005b61021a61022a366004611162565b61063d565b34801561023b57600080fd5b506101e760045481565b34801561025157600080fd5b506101e7610260366004611197565b61072d565b34801561027157600080fd5b506101e7610280366004611197565b61075d565b34801561029157600080fd5b506101e760055481565b3480156102a757600080fd5b506007546102bb906001600160a01b031681565b6040516001600160a01b0390911681526020016101f1565b3480156102df57600080fd5b5061021a6102ee366004611162565b6107b7565b3480156102ff57600080fd5b5061021a610990565b34801561031457600080fd5b5061021a610323366004611162565b610b81565b34801561033457600080fd5b506101e7610343366004611162565b610bbc565b34801561035457600080fd5b5061021a610cb4565b34801561036957600080fd5b5061021a6103783660046111b2565b610cc8565b34801561038957600080fd5b506101e760035481565b34801561039f57600080fd5b5061021a6103ae366004611162565b610d0b565b3480156103bf57600080fd5b506101e760025481565b3480156103d557600080fd5b506007546103ea90600160a01b900460ff1681565b60405190151581526020016101f1565b34801561040657600080fd5b506000546001600160a01b03166102bb565b34801561042457600080fd5b5061021a610dbc565b34801561043957600080fd5b506006546102bb906001600160a01b031681565b34801561045957600080fd5b506101e760015481565b34801561046f57600080fd5b5061021a61047e3660046111e2565b610dfd565b34801561048f57600080fd5b5061021a61049e366004611162565b610e75565b3480156104af57600080fd5b5061021a6104be366004611162565b610f27565b3480156104cf57600080fd5b50476101e7565b3480156104e257600080fd5b506101e7610f9e565b3480156104f757600080fd5b506101e7611011565b34801561050c57600080fd5b5061021a61051b366004611197565b611042565b600754600090600160a01b900460ff16156105755760405162461bcd60e51b815260206004820152601060248201526f424c42494f3a20736f6c64206f75742160801b60448201526064015b60405180910390fd5b60035482116105a457670de0b6b3a7640000826002546105959190611238565b61059f919061124f565b6105a8565b6001545b92915050565b6105b66110b8565b600080546040516001600160a01b039091169183156108fc02918491818181858888f193505050501580156105ef573d6000803e3d6000fd5b506040516221272160e91b81526003015b604051908190038120828252907ffd950f75bf83187106ca979032c87af4e8bedbeff7455cba6df787f978267f299060200160405180910390a250565b33606461064983610bbc565b610654906062611238565b61065e919061124f565b3410156106a05760405162461bcd60e51b815260206004820152601060248201526f696e73756666696369656e742066656560801b604482015260640161056c565b6001600160a01b038116600090815260086020526040812080548492906106c8908490611271565b9250508190555081600560008282546106e19190611271565b9091555050604080518381523460208201526001600160a01b038316917f451507bd5f326ed3f76acb5340f6fd35a140805db4274994e84b230aaff29dde910160405180910390a25050565b6001600160a01b0381166000908152600860205260408120600181015481546107569190611284565b9392505050565b6001600160a01b0381166000908152600860205260408120600281015460ff161561078b576107568361072d565b60018101546004548254620f4240916107a391611238565b6107ad919061124f565b6107569190611284565b6006546040516370a0823160e01b8152306004820152339183916001600160a01b03909116906370a0823190602401602060405180830381865afa158015610803573d6000803e3d6000fd5b505050506040513d601f19601f820116820180604052508101906108279190611297565b10156108755760405162461bcd60e51b815260206004820181905260248201527f696e73756666696369656e7420424c4220696e2074686520636f6e7472616374604482015260640161056c565b600061088083610520565b6007546040516323b872dd60e01b81526001600160a01b038581166004830152306024830152604482018490529293509116906323b872dd906064016020604051808303816000875af11580156108db573d6000803e3d6000fd5b505050506040513d601f19601f820116820180604052508101906108ff91906112b0565b506001600160a01b03821660009081526008602052604081208054859290610928908490611271565b9250508190555082600560008282546109419190611271565b909155505060408051848152602081018390526001600160a01b038416917fae16ee7557ba4dc342c52849bc3a99fb8cada978f1b2c9910e52aade873b956c91015b60405180910390a2505050565b336000818152600860205260408120906109a98361075d565b9050806000036109fb5760405162461bcd60e51b815260206004820152601f60248201527f424c42494f3a207468657265206973206e6f20424c4220746f20636c61696d00604482015260640161056c565b6006546040516370a0823160e01b815230600482015282916001600160a01b0316906370a0823190602401602060405180830381865afa158015610a43573d6000803e3d6000fd5b505050506040513d601f19601f82011682018060405250810190610a679190611297565b1015610ab55760405162461bcd60e51b815260206004820181905260248201527f696e73756666696369656e7420424c4220696e2074686520636f6e7472616374604482015260640161056c565b80826001016000828254610ac99190611271565b909155505060065460405163a9059cbb60e01b81526001600160a01b038581166004830152602482018490529091169063a9059cbb906044016020604051808303816000875af1158015610b21573d6000803e3d6000fd5b505050506040513d601f19601f82011682018060405250810190610b4591906112b0565b50826001600160a01b03167f47cee97cb7acd717b3c0aa1435d004cd5b3c8c57d70dbceb4e4458bbd60e39d48260405161098391815260200190565b610b896110b8565b600381905560405181907f8585f06828ed2d9126b998a9d431d18854350c2d883a903f957b1f6e77f6ca2490600090a250565b600754600090600160a01b900460ff1615610c0c5760405162461bcd60e51b815260206004820152601060248201526f424c42494f3a20736f6c64206f75742160801b604482015260640161056c565b670de0b6b3a7640000610c1e83610520565b7f00000000000000000000000000000000000000000000000000000000000000006001600160a01b03166350d25bcd6040518163ffffffff1660e01b8152600401602060405180830381865afa158015610c7c573d6000803e3d6000fd5b505050506040513d601f19601f82011682018060405250810190610ca09190611297565b610caa9190611238565b6105a8919061124f565b610cbc6110b8565b610cc66000611112565b565b610cd06110b8565b60028290556001819055604051819083907ff1981ab2ec7e286f52cb5d122cdb004e782c7cd2c7ec79e9c5a07f380f94bd9d90600090a35050565b610d136110b8565b6006546001600160a01b031663a9059cbb610d366000546001600160a01b031690565b6040516001600160e01b031960e084901b1681526001600160a01b039091166004820152602481018490526044016020604051808303816000875af1158015610d83573d6000803e3d6000fd5b505050506040513d601f19601f82011682018060405250810190610da791906112b0565b506040516221262160e91b8152600301610600565b610dc46110b8565b600754600160a01b900460ff16610ddc576001610ddf565b60005b60078054911515600160a01b0260ff60a01b19909216919091179055565b610e056110b8565b6001600160a01b03831660009081526008602052604081208054849290610e2d908490611271565b90915550506001600160a01b0383166000908152600860205260408120600201805460ff191683151517905560058054849290610e6b908490611271565b9091555050505050565b610e7d6110b8565b6007546001600160a01b031663a9059cbb610ea06000546001600160a01b031690565b6040516001600160e01b031960e084901b1681526001600160a01b039091166004820152602481018490526044016020604051808303816000875af1158015610eed573d6000803e3d6000fd5b505050506040513d601f19601f82011682018060405250810190610f1191906112b0565b5060405163109554d160e21b8152600401610600565b610f2f6110b8565b8060046000828254610f419190611271565b9091555050600454620f42401015610f9b5760405162461bcd60e51b815260206004820152601c60248201527f424c42494f3a206672616374696f6e20657863656564732031305e3600000000604482015260640161056c565b50565b6007546040516370a0823160e01b81523060048201526000916001600160a01b0316906370a08231906024015b602060405180830381865afa158015610fe8573d6000803e3d6000fd5b505050506040513d601f19601f8201168201806040525081019061100c9190611297565b905090565b6006546040516370a0823160e01b81523060048201526000916001600160a01b0316906370a0823190602401610fcb565b61104a6110b8565b6001600160a01b0381166110af5760405162461bcd60e51b815260206004820152602660248201527f4f776e61626c653a206e6577206f776e657220697320746865207a65726f206160448201526564647265737360d01b606482015260840161056c565b610f9b81611112565b6000546001600160a01b03163314610cc65760405162461bcd60e51b815260206004820181905260248201527f4f776e61626c653a2063616c6c6572206973206e6f7420746865206f776e6572604482015260640161056c565b600080546001600160a01b038381166001600160a01b0319831681178455604051919092169283917f8be0079c531659141344cd1fd0a4f28419497f9722a3daafe3b4186f6b6457e09190a35050565b60006020828403121561117457600080fd5b5035919050565b80356001600160a01b038116811461119257600080fd5b919050565b6000602082840312156111a957600080fd5b6107568261117b565b600080604083850312156111c557600080fd5b50508035926020909101359150565b8015158114610f9b57600080fd5b6000806000606084860312156111f757600080fd5b6112008461117b565b9250602084013591506040840135611217816111d4565b809150509250925092565b634e487b7160e01b600052601160045260246000fd5b80820281158282048414176105a8576105a8611222565b60008261126c57634e487b7160e01b600052601260045260246000fd5b500490565b808201808211156105a8576105a8611222565b818103818111156105a8576105a8611222565b6000602082840312156112a957600080fd5b5051919050565b6000602082840312156112c257600080fd5b8151610756816111d456fea2646970667358221220f21f05fbbf4cab4d3d70a3dedaa6080961b9f310e0898ac041244e1f5ca39b3d64736f6c63430008110033","opcodes":"PUSH1 0xA0 PUSH1 0x40 MSTORE CALLVALUE DUP1 ISZERO PUSH3 0x11 JUMPI PUSH1 0x0 DUP1 REVERT JUMPDEST POP PUSH1 0x40 MLOAD PUSH3 0x1564 CODESIZE SUB DUP1 PUSH3 0x1564 DUP4 CODECOPY DUP2 ADD PUSH1 0x40 DUP2 SWAP1 MSTORE PUSH3 0x34 SWAP2 PUSH3 0x1FB JUMP JUMPDEST PUSH3 0x3F CALLER PUSH3 0xAB JUMP JUMPDEST PUSH1 0x6 DUP1 SLOAD PUSH1 0x1 PUSH1 0x1 PUSH1 0xA0 SHL SUB DUP1 DUP7 AND PUSH1 0x1 PUSH1 0x1 PUSH1 0xA0 SHL SUB NOT SWAP3 DUP4 AND OR SWAP1 SWAP3 SSTORE PUSH1 0x7 DUP1 SLOAD DUP6 DUP5 AND SWAP3 AND SWAP2 SWAP1 SWAP2 OR SWAP1 SSTORE DUP2 AND PUSH1 0x80 MSTORE PUSH3 0x8E PUSH8 0x429D069189E0000 PUSH8 0x3E2C284391C0000 PUSH3 0xFB JUMP JUMPDEST PUSH3 0xA2 PUSH9 0x1B1AE4D6E2EF500000 PUSH3 0x140 JUMP JUMPDEST POP POP POP PUSH3 0x245 JUMP JUMPDEST PUSH1 0x0 DUP1 SLOAD PUSH1 0x1 PUSH1 0x1 PUSH1 0xA0 SHL SUB DUP4 DUP2 AND PUSH1 0x1 PUSH1 0x1 PUSH1 0xA0 SHL SUB NOT DUP4 AND DUP2 OR DUP5 SSTORE PUSH1 0x40 MLOAD SWAP2 SWAP1 SWAP3 AND SWAP3 DUP4 SWAP2 PUSH32 0x8BE0079C531659141344CD1FD0A4F28419497F9722A3DAAFE3B4186F6B6457E0 SWAP2 SWAP1 LOG3 POP POP JUMP JUMPDEST PUSH3 0x105 PUSH3 0x17D JUMP JUMPDEST PUSH1 0x2 DUP3 SWAP1 SSTORE PUSH1 0x1 DUP2 SWAP1 SSTORE PUSH1 0x40 MLOAD DUP2 SWAP1 DUP4 SWAP1 PUSH32 0xF1981AB2EC7E286F52CB5D122CDB004E782C7CD2C7EC79E9C5A07F380F94BD9D SWAP1 PUSH1 0x0 SWAP1 LOG3 POP POP JUMP JUMPDEST PUSH3 0x14A PUSH3 0x17D JUMP JUMPDEST PUSH1 0x3 DUP2 SWAP1 SSTORE PUSH1 0x40 MLOAD DUP2 SWAP1 PUSH32 0x8585F06828ED2D9126B998A9D431D18854350C2D883A903F957B1F6E77F6CA24 SWAP1 PUSH1 0x0 SWAP1 LOG2 POP JUMP JUMPDEST PUSH1 0x0 SLOAD PUSH1 0x1 PUSH1 0x1 PUSH1 0xA0 SHL SUB AND CALLER EQ PUSH3 0x1DC JUMPI PUSH1 0x40 MLOAD PUSH3 0x461BCD PUSH1 0xE5 SHL DUP2 MSTORE PUSH1 0x20 PUSH1 0x4 DUP3 ADD DUP2 SWAP1 MSTORE PUSH1 0x24 DUP3 ADD MSTORE PUSH32 0x4F776E61626C653A2063616C6C6572206973206E6F7420746865206F776E6572 PUSH1 0x44 DUP3 ADD MSTORE PUSH1 0x64 ADD PUSH1 0x40 MLOAD DUP1 SWAP2 SUB SWAP1 REVERT JUMPDEST JUMP JUMPDEST DUP1 MLOAD PUSH1 0x1 PUSH1 0x1 PUSH1 0xA0 SHL SUB DUP2 AND DUP2 EQ PUSH3 0x1F6 JUMPI PUSH1 0x0 DUP1 REVERT JUMPDEST SWAP2 SWAP1 POP JUMP JUMPDEST PUSH1 0x0 DUP1 PUSH1 0x0 PUSH1 0x60 DUP5 DUP7 SUB SLT ISZERO PUSH3 0x211 JUMPI PUSH1 0x0 DUP1 REVERT JUMPDEST PUSH3 0x21C DUP5 PUSH3 0x1DE JUMP JUMPDEST SWAP3 POP PUSH3 0x22C PUSH1 0x20 DUP6 ADD PUSH3 0x1DE JUMP JUMPDEST SWAP2 POP PUSH3 0x23C PUSH1 0x40 DUP6 ADD PUSH3 0x1DE JUMP JUMPDEST SWAP1 POP SWAP3 POP SWAP3 POP SWAP3 JUMP JUMPDEST PUSH1 0x80 MLOAD PUSH2 0x1303 PUSH3 0x261 PUSH1 0x0 CODECOPY PUSH1 0x0 PUSH2 0xC20 ADD MSTORE PUSH2 0x1303 PUSH1 0x0 RETURN INVALID PUSH1 0x80 PUSH1 0x40 MSTORE PUSH1 0x4 CALLDATASIZE LT PUSH2 0x1C2 JUMPI PUSH1 0x0 CALLDATALOAD PUSH1 0xE0 SHR DUP1 PUSH4 0x790B284F GT PUSH2 0xF7 JUMPI DUP1 PUSH4 0xC73B2A43 GT PUSH2 0x95 JUMPI DUP1 PUSH4 0xD013CBE2 GT PUSH2 0x64 JUMPI DUP1 PUSH4 0xD013CBE2 EQ PUSH2 0x4C3 JUMPI DUP1 PUSH4 0xDC39CA7A EQ PUSH2 0x4D6 JUMPI DUP1 PUSH4 0xE00115F6 EQ PUSH2 0x4EB JUMPI DUP1 PUSH4 0xF2FDE38B EQ PUSH2 0x500 JUMPI PUSH1 0x0 DUP1 REVERT JUMPDEST DUP1 PUSH4 0xC73B2A43 EQ PUSH2 0x44D JUMPI DUP1 PUSH4 0xC9E3C9C7 EQ PUSH2 0x463 JUMPI DUP1 PUSH4 0xCC3BCAF3 EQ PUSH2 0x483 JUMPI DUP1 PUSH4 0xCE9D3B09 EQ PUSH2 0x4A3 JUMPI PUSH1 0x0 DUP1 REVERT JUMPDEST DUP1 PUSH4 0x893DA6C9 GT PUSH2 0xD1 JUMPI DUP1 PUSH4 0x893DA6C9 EQ PUSH2 0x3C9 JUMPI DUP1 PUSH4 0x8DA5CB5B EQ PUSH2 0x3FA JUMPI DUP1 PUSH4 0xBE5BE211 EQ PUSH2 0x418 JUMPI DUP1 PUSH4 0xBFA54B3F EQ PUSH2 0x42D JUMPI PUSH1 0x0 DUP1 REVERT JUMPDEST DUP1 PUSH4 0x790B284F EQ PUSH2 0x37D JUMPI DUP1 PUSH4 0x7F04E0E1 EQ PUSH2 0x393 JUMPI DUP1 PUSH4 0x8380C091 EQ PUSH2 0x3B3 JUMPI PUSH1 0x0 DUP1 REVERT JUMPDEST DUP1 PUSH4 0x484F4EA9 GT PUSH2 0x164 JUMPI DUP1 PUSH4 0x5B0DFA95 GT PUSH2 0x13E JUMPI DUP1 PUSH4 0x5B0DFA95 EQ PUSH2 0x308 JUMPI DUP1 PUSH4 0x5D2A2C99 EQ PUSH2 0x328 JUMPI DUP1 PUSH4 0x715018A6 EQ PUSH2 0x348 JUMPI DUP1 PUSH4 0x769BB5AC EQ PUSH2 0x35D JUMPI PUSH1 0x0 DUP1 REVERT JUMPDEST DUP1 PUSH4 0x484F4EA9 EQ PUSH2 0x29B JUMPI DUP1 PUSH4 0x4BC37468 EQ PUSH2 0x2D3 JUMPI DUP1 PUSH4 0x4E71D92D EQ PUSH2 0x2F3 JUMPI PUSH1 0x0 DUP1 REVERT JUMPDEST DUP1 PUSH4 0x158B072C GT PUSH2 0x1A0 JUMPI DUP1 PUSH4 0x158B072C EQ PUSH2 0x22F JUMPI DUP1 PUSH4 0x1DFCE5C6 EQ PUSH2 0x245 JUMPI DUP1 PUSH4 0x402914F5 EQ PUSH2 0x265 JUMPI DUP1 PUSH4 0x4426A263 EQ PUSH2 0x285 JUMPI PUSH1 0x0 DUP1 REVERT JUMPDEST DUP1 PUSH4 0x6DC693B EQ PUSH2 0x1C7 JUMPI DUP1 PUSH4 0x127F4B2E EQ PUSH2 0x1FA JUMPI DUP1 PUSH4 0x12B13216 EQ PUSH2 0x21C JUMPI JUMPDEST PUSH1 0x0 DUP1 REVERT JUMPDEST CALLVALUE DUP1 ISZERO PUSH2 0x1D3 JUMPI PUSH1 0x0 DUP1 REVERT JUMPDEST POP PUSH2 0x1E7 PUSH2 0x1E2 CALLDATASIZE PUSH1 0x4 PUSH2 0x1162 JUMP JUMPDEST PUSH2 0x520 JUMP JUMPDEST PUSH1 0x40 MLOAD SWAP1 DUP2 MSTORE PUSH1 0x20 ADD JUMPDEST PUSH1 0x40 MLOAD DUP1 SWAP2 SUB SWAP1 RETURN JUMPDEST CALLVALUE DUP1 ISZERO PUSH2 0x206 JUMPI PUSH1 0x0 DUP1 REVERT JUMPDEST POP PUSH2 0x21A PUSH2 0x215 CALLDATASIZE PUSH1 0x4 PUSH2 0x1162 JUMP JUMPDEST PUSH2 0x5AE JUMP JUMPDEST STOP JUMPDEST PUSH2 0x21A PUSH2 0x22A CALLDATASIZE PUSH1 0x4 PUSH2 0x1162 JUMP JUMPDEST PUSH2 0x63D JUMP JUMPDEST CALLVALUE DUP1 ISZERO PUSH2 0x23B JUMPI PUSH1 0x0 DUP1 REVERT JUMPDEST POP PUSH2 0x1E7 PUSH1 0x4 SLOAD DUP2 JUMP JUMPDEST CALLVALUE DUP1 ISZERO PUSH2 0x251 JUMPI PUSH1 0x0 DUP1 REVERT JUMPDEST POP PUSH2 0x1E7 PUSH2 0x260 CALLDATASIZE PUSH1 0x4 PUSH2 0x1197 JUMP JUMPDEST PUSH2 0x72D JUMP JUMPDEST CALLVALUE DUP1 ISZERO PUSH2 0x271 JUMPI PUSH1 0x0 DUP1 REVERT JUMPDEST POP PUSH2 0x1E7 PUSH2 0x280 CALLDATASIZE PUSH1 0x4 PUSH2 0x1197 JUMP JUMPDEST PUSH2 0x75D JUMP JUMPDEST CALLVALUE DUP1 ISZERO PUSH2 0x291 JUMPI PUSH1 0x0 DUP1 REVERT JUMPDEST POP PUSH2 0x1E7 PUSH1 0x5 SLOAD DUP2 JUMP JUMPDEST CALLVALUE DUP1 ISZERO PUSH2 0x2A7 JUMPI PUSH1 0x0 DUP1 REVERT JUMPDEST POP PUSH1 0x7 SLOAD PUSH2 0x2BB SWAP1 PUSH1 0x1 PUSH1 0x1 PUSH1 0xA0 SHL SUB AND DUP2 JUMP JUMPDEST PUSH1 0x40 MLOAD PUSH1 0x1 PUSH1 0x1 PUSH1 0xA0 SHL SUB SWAP1 SWAP2 AND DUP2 MSTORE PUSH1 0x20 ADD PUSH2 0x1F1 JUMP JUMPDEST CALLVALUE DUP1 ISZERO PUSH2 0x2DF JUMPI PUSH1 0x0 DUP1 REVERT JUMPDEST POP PUSH2 0x21A PUSH2 0x2EE CALLDATASIZE PUSH1 0x4 PUSH2 0x1162 JUMP JUMPDEST PUSH2 0x7B7 JUMP JUMPDEST CALLVALUE DUP1 ISZERO PUSH2 0x2FF JUMPI PUSH1 0x0 DUP1 REVERT JUMPDEST POP PUSH2 0x21A PUSH2 0x990 JUMP JUMPDEST CALLVALUE DUP1 ISZERO PUSH2 0x314 JUMPI PUSH1 0x0 DUP1 REVERT JUMPDEST POP PUSH2 0x21A PUSH2 0x323 CALLDATASIZE PUSH1 0x4 PUSH2 0x1162 JUMP JUMPDEST PUSH2 0xB81 JUMP JUMPDEST CALLVALUE DUP1 ISZERO PUSH2 0x334 JUMPI PUSH1 0x0 DUP1 REVERT JUMPDEST POP PUSH2 0x1E7 PUSH2 0x343 CALLDATASIZE PUSH1 0x4 PUSH2 0x1162 JUMP JUMPDEST PUSH2 0xBBC JUMP JUMPDEST CALLVALUE DUP1 ISZERO PUSH2 0x354 JUMPI PUSH1 0x0 DUP1 REVERT JUMPDEST POP PUSH2 0x21A PUSH2 0xCB4 JUMP JUMPDEST CALLVALUE DUP1 ISZERO PUSH2 0x369 JUMPI PUSH1 0x0 DUP1 REVERT JUMPDEST POP PUSH2 0x21A PUSH2 0x378 CALLDATASIZE PUSH1 0x4 PUSH2 0x11B2 JUMP JUMPDEST PUSH2 0xCC8 JUMP JUMPDEST CALLVALUE DUP1 ISZERO PUSH2 0x389 JUMPI PUSH1 0x0 DUP1 REVERT JUMPDEST POP PUSH2 0x1E7 PUSH1 0x3 SLOAD DUP2 JUMP JUMPDEST CALLVALUE DUP1 ISZERO PUSH2 0x39F JUMPI PUSH1 0x0 DUP1 REVERT JUMPDEST POP PUSH2 0x21A PUSH2 0x3AE CALLDATASIZE PUSH1 0x4 PUSH2 0x1162 JUMP JUMPDEST PUSH2 0xD0B JUMP JUMPDEST CALLVALUE DUP1 ISZERO PUSH2 0x3BF JUMPI PUSH1 0x0 DUP1 REVERT JUMPDEST POP PUSH2 0x1E7 PUSH1 0x2 SLOAD DUP2 JUMP JUMPDEST CALLVALUE DUP1 ISZERO PUSH2 0x3D5 JUMPI PUSH1 0x0 DUP1 REVERT JUMPDEST POP PUSH1 0x7 SLOAD PUSH2 0x3EA SWAP1 PUSH1 0x1 PUSH1 0xA0 SHL SWAP1 DIV PUSH1 0xFF AND DUP2 JUMP JUMPDEST PUSH1 0x40 MLOAD SWAP1 ISZERO ISZERO DUP2 MSTORE PUSH1 0x20 ADD PUSH2 0x1F1 JUMP JUMPDEST CALLVALUE DUP1 ISZERO PUSH2 0x406 JUMPI PUSH1 0x0 DUP1 REVERT JUMPDEST POP PUSH1 0x0 SLOAD PUSH1 0x1 PUSH1 0x1 PUSH1 0xA0 SHL SUB AND PUSH2 0x2BB JUMP JUMPDEST CALLVALUE DUP1 ISZERO PUSH2 0x424 JUMPI PUSH1 0x0 DUP1 REVERT JUMPDEST POP PUSH2 0x21A PUSH2 0xDBC JUMP JUMPDEST CALLVALUE DUP1 ISZERO PUSH2 0x439 JUMPI PUSH1 0x0 DUP1 REVERT JUMPDEST POP PUSH1 0x6 SLOAD PUSH2 0x2BB SWAP1 PUSH1 0x1 PUSH1 0x1 PUSH1 0xA0 SHL SUB AND DUP2 JUMP JUMPDEST CALLVALUE DUP1 ISZERO PUSH2 0x459 JUMPI PUSH1 0x0 DUP1 REVERT JUMPDEST POP PUSH2 0x1E7 PUSH1 0x1 SLOAD DUP2 JUMP JUMPDEST CALLVALUE DUP1 ISZERO PUSH2 0x46F JUMPI PUSH1 0x0 DUP1 REVERT JUMPDEST POP PUSH2 0x21A PUSH2 0x47E CALLDATASIZE PUSH1 0x4 PUSH2 0x11E2 JUMP JUMPDEST PUSH2 0xDFD JUMP JUMPDEST CALLVALUE DUP1 ISZERO PUSH2 0x48F JUMPI PUSH1 0x0 DUP1 REVERT JUMPDEST POP PUSH2 0x21A PUSH2 0x49E CALLDATASIZE PUSH1 0x4 PUSH2 0x1162 JUMP JUMPDEST PUSH2 0xE75 JUMP JUMPDEST CALLVALUE DUP1 ISZERO PUSH2 0x4AF JUMPI PUSH1 0x0 DUP1 REVERT JUMPDEST POP PUSH2 0x21A PUSH2 0x4BE CALLDATASIZE PUSH1 0x4 PUSH2 0x1162 JUMP JUMPDEST PUSH2 0xF27 JUMP JUMPDEST CALLVALUE DUP1 ISZERO PUSH2 0x4CF JUMPI PUSH1 0x0 DUP1 REVERT JUMPDEST POP SELFBALANCE PUSH2 0x1E7 JUMP JUMPDEST CALLVALUE DUP1 ISZERO PUSH2 0x4E2 JUMPI PUSH1 0x0 DUP1 REVERT JUMPDEST POP PUSH2 0x1E7 PUSH2 0xF9E JUMP JUMPDEST CALLVALUE DUP1 ISZERO PUSH2 0x4F7 JUMPI PUSH1 0x0 DUP1 REVERT JUMPDEST POP PUSH2 0x1E7 PUSH2 0x1011 JUMP JUMPDEST CALLVALUE DUP1 ISZERO PUSH2 0x50C JUMPI PUSH1 0x0 DUP1 REVERT JUMPDEST POP PUSH2 0x21A PUSH2 0x51B CALLDATASIZE PUSH1 0x4 PUSH2 0x1197 JUMP JUMPDEST PUSH2 0x1042 JUMP JUMPDEST PUSH1 0x7 SLOAD PUSH1 0x0 SWAP1 PUSH1 0x1 PUSH1 0xA0 SHL SWAP1 DIV PUSH1 0xFF AND ISZERO PUSH2 0x575 JUMPI PUSH1 0x40 MLOAD PUSH3 0x461BCD PUSH1 0xE5 SHL DUP2 MSTORE PUSH1 0x20 PUSH1 0x4 DUP3 ADD MSTORE PUSH1 0x10 PUSH1 0x24 DUP3 ADD MSTORE PUSH16 0x424C42494F3A20736F6C64206F757421 PUSH1 0x80 SHL PUSH1 0x44 DUP3 ADD MSTORE PUSH1 0x64 ADD JUMPDEST PUSH1 0x40 MLOAD DUP1 SWAP2 SUB SWAP1 REVERT JUMPDEST PUSH1 0x3 SLOAD DUP3 GT PUSH2 0x5A4 JUMPI PUSH8 0xDE0B6B3A7640000 DUP3 PUSH1 0x2 SLOAD PUSH2 0x595 SWAP2 SWAP1 PUSH2 0x1238 JUMP JUMPDEST PUSH2 0x59F SWAP2 SWAP1 PUSH2 0x124F JUMP JUMPDEST PUSH2 0x5A8 JUMP JUMPDEST PUSH1 0x1 SLOAD JUMPDEST SWAP3 SWAP2 POP POP JUMP JUMPDEST PUSH2 0x5B6 PUSH2 0x10B8 JUMP JUMPDEST PUSH1 0x0 DUP1 SLOAD PUSH1 0x40 MLOAD PUSH1 0x1 PUSH1 0x1 PUSH1 0xA0 SHL SUB SWAP1 SWAP2 AND SWAP2 DUP4 ISZERO PUSH2 0x8FC MUL SWAP2 DUP5 SWAP2 DUP2 DUP2 DUP2 DUP6 DUP9 DUP9 CALL SWAP4 POP POP POP POP ISZERO DUP1 ISZERO PUSH2 0x5EF JUMPI RETURNDATASIZE PUSH1 0x0 DUP1 RETURNDATACOPY RETURNDATASIZE PUSH1 0x0 REVERT JUMPDEST POP PUSH1 0x40 MLOAD PUSH3 0x212721 PUSH1 0xE9 SHL DUP2 MSTORE PUSH1 0x3 ADD JUMPDEST PUSH1 0x40 MLOAD SWAP1 DUP2 SWAP1 SUB DUP2 KECCAK256 DUP3 DUP3 MSTORE SWAP1 PUSH32 0xFD950F75BF83187106CA979032C87AF4E8BEDBEFF7455CBA6DF787F978267F29 SWAP1 PUSH1 0x20 ADD PUSH1 0x40 MLOAD DUP1 SWAP2 SUB SWAP1 LOG2 POP JUMP JUMPDEST CALLER PUSH1 0x64 PUSH2 0x649 DUP4 PUSH2 0xBBC JUMP JUMPDEST PUSH2 0x654 SWAP1 PUSH1 0x62 PUSH2 0x1238 JUMP JUMPDEST PUSH2 0x65E SWAP2 SWAP1 PUSH2 0x124F JUMP JUMPDEST CALLVALUE LT ISZERO PUSH2 0x6A0 JUMPI PUSH1 0x40 MLOAD PUSH3 0x461BCD PUSH1 0xE5 SHL DUP2 MSTORE PUSH1 0x20 PUSH1 0x4 DUP3 ADD MSTORE PUSH1 0x10 PUSH1 0x24 DUP3 ADD MSTORE PUSH16 0x696E73756666696369656E7420666565 PUSH1 0x80 SHL PUSH1 0x44 DUP3 ADD MSTORE PUSH1 0x64 ADD PUSH2 0x56C JUMP JUMPDEST PUSH1 0x1 PUSH1 0x1 PUSH1 0xA0 SHL SUB DUP2 AND PUSH1 0x0 SWAP1 DUP2 MSTORE PUSH1 0x8 PUSH1 0x20 MSTORE PUSH1 0x40 DUP2 KECCAK256 DUP1 SLOAD DUP5 SWAP3 SWAP1 PUSH2 0x6C8 SWAP1 DUP5 SWAP1 PUSH2 0x1271 JUMP JUMPDEST SWAP3 POP POP DUP2 SWAP1 SSTORE POP DUP2 PUSH1 0x5 PUSH1 0x0 DUP3 DUP3 SLOAD PUSH2 0x6E1 SWAP2 SWAP1 PUSH2 0x1271 JUMP JUMPDEST SWAP1 SWAP2 SSTORE POP POP PUSH1 0x40 DUP1 MLOAD DUP4 DUP2 MSTORE CALLVALUE PUSH1 0x20 DUP3 ADD MSTORE PUSH1 0x1 PUSH1 0x1 PUSH1 0xA0 SHL SUB DUP4 AND SWAP2 PUSH32 0x451507BD5F326ED3F76ACB5340F6FD35A140805DB4274994E84B230AAFF29DDE SWAP2 ADD PUSH1 0x40 MLOAD DUP1 SWAP2 SUB SWAP1 LOG2 POP POP JUMP JUMPDEST PUSH1 0x1 PUSH1 0x1 PUSH1 0xA0 SHL SUB DUP2 AND PUSH1 0x0 SWAP1 DUP2 MSTORE PUSH1 0x8 PUSH1 0x20 MSTORE PUSH1 0x40 DUP2 KECCAK256 PUSH1 0x1 DUP2 ADD SLOAD DUP2 SLOAD PUSH2 0x756 SWAP2 SWAP1 PUSH2 0x1284 JUMP JUMPDEST SWAP4 SWAP3 POP POP POP JUMP JUMPDEST PUSH1 0x1 PUSH1 0x1 PUSH1 0xA0 SHL SUB DUP2 AND PUSH1 0x0 SWAP1 DUP2 MSTORE PUSH1 0x8 PUSH1 0x20 MSTORE PUSH1 0x40 DUP2 KECCAK256 PUSH1 0x2 DUP2 ADD SLOAD PUSH1 0xFF AND ISZERO PUSH2 0x78B JUMPI PUSH2 0x756 DUP4 PUSH2 0x72D JUMP JUMPDEST PUSH1 0x1 DUP2 ADD SLOAD PUSH1 0x4 SLOAD DUP3 SLOAD PUSH3 0xF4240 SWAP2 PUSH2 0x7A3 SWAP2 PUSH2 0x1238 JUMP JUMPDEST PUSH2 0x7AD SWAP2 SWAP1 PUSH2 0x124F JUMP JUMPDEST PUSH2 0x756 SWAP2 SWAP1 PUSH2 0x1284 JUMP JUMPDEST PUSH1 0x6 SLOAD PUSH1 0x40 MLOAD PUSH4 0x70A08231 PUSH1 0xE0 SHL DUP2 MSTORE ADDRESS PUSH1 0x4 DUP3 ADD MSTORE CALLER SWAP2 DUP4 SWAP2 PUSH1 0x1 PUSH1 0x1 PUSH1 0xA0 SHL SUB SWAP1 SWAP2 AND SWAP1 PUSH4 0x70A08231 SWAP1 PUSH1 0x24 ADD PUSH1 0x20 PUSH1 0x40 MLOAD DUP1 DUP4 SUB DUP2 DUP7 GAS STATICCALL ISZERO DUP1 ISZERO PUSH2 0x803 JUMPI RETURNDATASIZE PUSH1 0x0 DUP1 RETURNDATACOPY RETURNDATASIZE PUSH1 0x0 REVERT JUMPDEST POP POP POP POP PUSH1 0x40 MLOAD RETURNDATASIZE PUSH1 0x1F NOT PUSH1 0x1F DUP3 ADD AND DUP3 ADD DUP1 PUSH1 0x40 MSTORE POP DUP2 ADD SWAP1 PUSH2 0x827 SWAP2 SWAP1 PUSH2 0x1297 JUMP JUMPDEST LT ISZERO PUSH2 0x875 JUMPI PUSH1 0x40 MLOAD PUSH3 0x461BCD PUSH1 0xE5 SHL DUP2 MSTORE PUSH1 0x20 PUSH1 0x4 DUP3 ADD DUP2 SWAP1 MSTORE PUSH1 0x24 DUP3 ADD MSTORE PUSH32 0x696E73756666696369656E7420424C4220696E2074686520636F6E7472616374 PUSH1 0x44 DUP3 ADD MSTORE PUSH1 0x64 ADD PUSH2 0x56C JUMP JUMPDEST PUSH1 0x0 PUSH2 0x880 DUP4 PUSH2 0x520 JUMP JUMPDEST PUSH1 0x7 SLOAD PUSH1 0x40 MLOAD PUSH4 0x23B872DD PUSH1 0xE0 SHL DUP2 MSTORE PUSH1 0x1 PUSH1 0x1 PUSH1 0xA0 SHL SUB DUP6 DUP2 AND PUSH1 0x4 DUP4 ADD MSTORE ADDRESS PUSH1 0x24 DUP4 ADD MSTORE PUSH1 0x44 DUP3 ADD DUP5 SWAP1 MSTORE SWAP3 SWAP4 POP SWAP2 AND SWAP1 PUSH4 0x23B872DD SWAP1 PUSH1 0x64 ADD PUSH1 0x20 PUSH1 0x40 MLOAD DUP1 DUP4 SUB DUP2 PUSH1 0x0 DUP8 GAS CALL ISZERO DUP1 ISZERO PUSH2 0x8DB JUMPI RETURNDATASIZE PUSH1 0x0 DUP1 RETURNDATACOPY RETURNDATASIZE PUSH1 0x0 REVERT JUMPDEST POP POP POP POP PUSH1 0x40 MLOAD RETURNDATASIZE PUSH1 0x1F NOT PUSH1 0x1F DUP3 ADD AND DUP3 ADD DUP1 PUSH1 0x40 MSTORE POP DUP2 ADD SWAP1 PUSH2 0x8FF SWAP2 SWAP1 PUSH2 0x12B0 JUMP JUMPDEST POP PUSH1 0x1 PUSH1 0x1 PUSH1 0xA0 SHL SUB DUP3 AND PUSH1 0x0 SWAP1 DUP2 MSTORE PUSH1 0x8 PUSH1 0x20 MSTORE PUSH1 0x40 DUP2 KECCAK256 DUP1 SLOAD DUP6 SWAP3 SWAP1 PUSH2 0x928 SWAP1 DUP5 SWAP1 PUSH2 0x1271 JUMP JUMPDEST SWAP3 POP POP DUP2 SWAP1 SSTORE POP DUP3 PUSH1 0x5 PUSH1 0x0 DUP3 DUP3 SLOAD PUSH2 0x941 SWAP2 SWAP1 PUSH2 0x1271 JUMP JUMPDEST SWAP1 SWAP2 SSTORE POP POP PUSH1 0x40 DUP1 MLOAD DUP5 DUP2 MSTORE PUSH1 0x20 DUP2 ADD DUP4 SWAP1 MSTORE PUSH1 0x1 PUSH1 0x1 PUSH1 0xA0 SHL SUB DUP5 AND SWAP2 PUSH32 0xAE16EE7557BA4DC342C52849BC3A99FB8CADA978F1B2C9910E52AADE873B956C SWAP2 ADD JUMPDEST PUSH1 0x40 MLOAD DUP1 SWAP2 SUB SWAP1 LOG2 POP POP POP JUMP JUMPDEST CALLER PUSH1 0x0 DUP2 DUP2 MSTORE PUSH1 0x8 PUSH1 0x20 MSTORE PUSH1 0x40 DUP2 KECCAK256 SWAP1 PUSH2 0x9A9 DUP4 PUSH2 0x75D JUMP JUMPDEST SWAP1 POP DUP1 PUSH1 0x0 SUB PUSH2 0x9FB JUMPI PUSH1 0x40 MLOAD PUSH3 0x461BCD PUSH1 0xE5 SHL DUP2 MSTORE PUSH1 0x20 PUSH1 0x4 DUP3 ADD MSTORE PUSH1 0x1F PUSH1 0x24 DUP3 ADD MSTORE PUSH32 0x424C42494F3A207468657265206973206E6F20424C4220746F20636C61696D00 PUSH1 0x44 DUP3 ADD MSTORE PUSH1 0x64 ADD PUSH2 0x56C JUMP JUMPDEST PUSH1 0x6 SLOAD PUSH1 0x40 MLOAD PUSH4 0x70A08231 PUSH1 0xE0 SHL DUP2 MSTORE ADDRESS PUSH1 0x4 DUP3 ADD MSTORE DUP3 SWAP2 PUSH1 0x1 PUSH1 0x1 PUSH1 0xA0 SHL SUB AND SWAP1 PUSH4 0x70A08231 SWAP1 PUSH1 0x24 ADD PUSH1 0x20 PUSH1 0x40 MLOAD DUP1 DUP4 SUB DUP2 DUP7 GAS STATICCALL ISZERO DUP1 ISZERO PUSH2 0xA43 JUMPI RETURNDATASIZE PUSH1 0x0 DUP1 RETURNDATACOPY RETURNDATASIZE PUSH1 0x0 REVERT JUMPDEST POP POP POP POP PUSH1 0x40 MLOAD RETURNDATASIZE PUSH1 0x1F NOT PUSH1 0x1F DUP3 ADD AND DUP3 ADD DUP1 PUSH1 0x40 MSTORE POP DUP2 ADD SWAP1 PUSH2 0xA67 SWAP2 SWAP1 PUSH2 0x1297 JUMP JUMPDEST LT ISZERO PUSH2 0xAB5 JUMPI PUSH1 0x40 MLOAD PUSH3 0x461BCD PUSH1 0xE5 SHL DUP2 MSTORE PUSH1 0x20 PUSH1 0x4 DUP3 ADD DUP2 SWAP1 MSTORE PUSH1 0x24 DUP3 ADD MSTORE PUSH32 0x696E73756666696369656E7420424C4220696E2074686520636F6E7472616374 PUSH1 0x44 DUP3 ADD MSTORE PUSH1 0x64 ADD PUSH2 0x56C JUMP JUMPDEST DUP1 DUP3 PUSH1 0x1 ADD PUSH1 0x0 DUP3 DUP3 SLOAD PUSH2 0xAC9 SWAP2 SWAP1 PUSH2 0x1271 JUMP JUMPDEST SWAP1 SWAP2 SSTORE POP POP PUSH1 0x6 SLOAD PUSH1 0x40 MLOAD PUSH4 0xA9059CBB PUSH1 0xE0 SHL DUP2 MSTORE PUSH1 0x1 PUSH1 0x1 PUSH1 0xA0 SHL SUB DUP6 DUP2 AND PUSH1 0x4 DUP4 ADD MSTORE PUSH1 0x24 DUP3 ADD DUP5 SWAP1 MSTORE SWAP1 SWAP2 AND SWAP1 PUSH4 0xA9059CBB SWAP1 PUSH1 0x44 ADD PUSH1 0x20 PUSH1 0x40 MLOAD DUP1 DUP4 SUB DUP2 PUSH1 0x0 DUP8 GAS CALL ISZERO DUP1 ISZERO PUSH2 0xB21 JUMPI RETURNDATASIZE PUSH1 0x0 DUP1 RETURNDATACOPY RETURNDATASIZE PUSH1 0x0 REVERT JUMPDEST POP POP POP POP PUSH1 0x40 MLOAD RETURNDATASIZE PUSH1 0x1F NOT PUSH1 0x1F DUP3 ADD AND DUP3 ADD DUP1 PUSH1 0x40 MSTORE POP DUP2 ADD SWAP1 PUSH2 0xB45 SWAP2 SWAP1 PUSH2 0x12B0 JUMP JUMPDEST POP DUP3 PUSH1 0x1 PUSH1 0x1 PUSH1 0xA0 SHL SUB AND PUSH32 0x47CEE97CB7ACD717B3C0AA1435D004CD5B3C8C57D70DBCEB4E4458BBD60E39D4 DUP3 PUSH1 0x40 MLOAD PUSH2 0x983 SWAP2 DUP2 MSTORE PUSH1 0x20 ADD SWAP1 JUMP JUMPDEST PUSH2 0xB89 PUSH2 0x10B8 JUMP JUMPDEST PUSH1 0x3 DUP2 SWAP1 SSTORE PUSH1 0x40 MLOAD DUP2 SWAP1 PUSH32 0x8585F06828ED2D9126B998A9D431D18854350C2D883A903F957B1F6E77F6CA24 SWAP1 PUSH1 0x0 SWAP1 LOG2 POP JUMP JUMPDEST PUSH1 0x7 SLOAD PUSH1 0x0 SWAP1 PUSH1 0x1 PUSH1 0xA0 SHL SWAP1 DIV PUSH1 0xFF AND ISZERO PUSH2 0xC0C JUMPI PUSH1 0x40 MLOAD PUSH3 0x461BCD PUSH1 0xE5 SHL DUP2 MSTORE PUSH1 0x20 PUSH1 0x4 DUP3 ADD MSTORE PUSH1 0x10 PUSH1 0x24 DUP3 ADD MSTORE PUSH16 0x424C42494F3A20736F6C64206F757421 PUSH1 0x80 SHL PUSH1 0x44 DUP3 ADD MSTORE PUSH1 0x64 ADD PUSH2 0x56C JUMP JUMPDEST PUSH8 0xDE0B6B3A7640000 PUSH2 0xC1E DUP4 PUSH2 0x520 JUMP JUMPDEST PUSH32 0x0 PUSH1 0x1 PUSH1 0x1 PUSH1 0xA0 SHL SUB AND PUSH4 0x50D25BCD PUSH1 0x40 MLOAD DUP2 PUSH4 0xFFFFFFFF AND PUSH1 0xE0 SHL DUP2 MSTORE PUSH1 0x4 ADD PUSH1 0x20 PUSH1 0x40 MLOAD DUP1 DUP4 SUB DUP2 DUP7 GAS STATICCALL ISZERO DUP1 ISZERO PUSH2 0xC7C JUMPI RETURNDATASIZE PUSH1 0x0 DUP1 RETURNDATACOPY RETURNDATASIZE PUSH1 0x0 REVERT JUMPDEST POP POP POP POP PUSH1 0x40 MLOAD RETURNDATASIZE PUSH1 0x1F NOT PUSH1 0x1F DUP3 ADD AND DUP3 ADD DUP1 PUSH1 0x40 MSTORE POP DUP2 ADD SWAP1 PUSH2 0xCA0 SWAP2 SWAP1 PUSH2 0x1297 JUMP JUMPDEST PUSH2 0xCAA SWAP2 SWAP1 PUSH2 0x1238 JUMP JUMPDEST PUSH2 0x5A8 SWAP2 SWAP1 PUSH2 0x124F JUMP JUMPDEST PUSH2 0xCBC PUSH2 0x10B8 JUMP JUMPDEST PUSH2 0xCC6 PUSH1 0x0 PUSH2 0x1112 JUMP JUMPDEST JUMP JUMPDEST PUSH2 0xCD0 PUSH2 0x10B8 JUMP JUMPDEST PUSH1 0x2 DUP3 SWAP1 SSTORE PUSH1 0x1 DUP2 SWAP1 SSTORE PUSH1 0x40 MLOAD DUP2 SWAP1 DUP4 SWAP1 PUSH32 0xF1981AB2EC7E286F52CB5D122CDB004E782C7CD2C7EC79E9C5A07F380F94BD9D SWAP1 PUSH1 0x0 SWAP1 LOG3 POP POP JUMP JUMPDEST PUSH2 0xD13 PUSH2 0x10B8 JUMP JUMPDEST PUSH1 0x6 SLOAD PUSH1 0x1 PUSH1 0x1 PUSH1 0xA0 SHL SUB AND PUSH4 0xA9059CBB PUSH2 0xD36 PUSH1 0x0 SLOAD PUSH1 0x1 PUSH1 0x1 PUSH1 0xA0 SHL SUB AND SWAP1 JUMP JUMPDEST PUSH1 0x40 MLOAD PUSH1 0x1 PUSH1 0x1 PUSH1 0xE0 SHL SUB NOT PUSH1 0xE0 DUP5 SWAP1 SHL AND DUP2 MSTORE PUSH1 0x1 PUSH1 0x1 PUSH1 0xA0 SHL SUB SWAP1 SWAP2 AND PUSH1 0x4 DUP3 ADD MSTORE PUSH1 0x24 DUP2 ADD DUP5 SWAP1 MSTORE PUSH1 0x44 ADD PUSH1 0x20 PUSH1 0x40 MLOAD DUP1 DUP4 SUB DUP2 PUSH1 0x0 DUP8 GAS CALL ISZERO DUP1 ISZERO PUSH2 0xD83 JUMPI RETURNDATASIZE PUSH1 0x0 DUP1 RETURNDATACOPY RETURNDATASIZE PUSH1 0x0 REVERT JUMPDEST POP POP POP POP PUSH1 0x40 MLOAD RETURNDATASIZE PUSH1 0x1F NOT PUSH1 0x1F DUP3 ADD AND DUP3 ADD DUP1 PUSH1 0x40 MSTORE POP DUP2 ADD SWAP1 PUSH2 0xDA7 SWAP2 SWAP1 PUSH2 0x12B0 JUMP JUMPDEST POP PUSH1 0x40 MLOAD PUSH3 0x212621 PUSH1 0xE9 SHL DUP2 MSTORE PUSH1 0x3 ADD PUSH2 0x600 JUMP JUMPDEST PUSH2 0xDC4 PUSH2 0x10B8 JUMP JUMPDEST PUSH1 0x7 SLOAD PUSH1 0x1 PUSH1 0xA0 SHL SWAP1 DIV PUSH1 0xFF AND PUSH2 0xDDC JUMPI PUSH1 0x1 PUSH2 0xDDF JUMP JUMPDEST PUSH1 0x0 JUMPDEST PUSH1 0x7 DUP1 SLOAD SWAP2 ISZERO ISZERO PUSH1 0x1 PUSH1 0xA0 SHL MUL PUSH1 0xFF PUSH1 0xA0 SHL NOT SWAP1 SWAP3 AND SWAP2 SWAP1 SWAP2 OR SWAP1 SSTORE JUMP JUMPDEST PUSH2 0xE05 PUSH2 0x10B8 JUMP JUMPDEST PUSH1 0x1 PUSH1 0x1 PUSH1 0xA0 SHL SUB DUP4 AND PUSH1 0x0 SWAP1 DUP2 MSTORE PUSH1 0x8 PUSH1 0x20 MSTORE PUSH1 0x40 DUP2 KECCAK256 DUP1 SLOAD DUP5 SWAP3 SWAP1 PUSH2 0xE2D SWAP1 DUP5 SWAP1 PUSH2 0x1271 JUMP JUMPDEST SWAP1 SWAP2 SSTORE POP POP PUSH1 0x1 PUSH1 0x1 PUSH1 0xA0 SHL SUB DUP4 AND PUSH1 0x0 SWAP1 DUP2 MSTORE PUSH1 0x8 PUSH1 0x20 MSTORE PUSH1 0x40 DUP2 KECCAK256 PUSH1 0x2 ADD DUP1 SLOAD PUSH1 0xFF NOT AND DUP4 ISZERO ISZERO OR SWAP1 SSTORE PUSH1 0x5 DUP1 SLOAD DUP5 SWAP3 SWAP1 PUSH2 0xE6B SWAP1 DUP5 SWAP1 PUSH2 0x1271 JUMP JUMPDEST SWAP1 SWAP2 SSTORE POP POP POP POP POP JUMP JUMPDEST PUSH2 0xE7D PUSH2 0x10B8 JUMP JUMPDEST PUSH1 0x7 SLOAD PUSH1 0x1 PUSH1 0x1 PUSH1 0xA0 SHL SUB AND PUSH4 0xA9059CBB PUSH2 0xEA0 PUSH1 0x0 SLOAD PUSH1 0x1 PUSH1 0x1 PUSH1 0xA0 SHL SUB AND SWAP1 JUMP JUMPDEST PUSH1 0x40 MLOAD PUSH1 0x1 PUSH1 0x1 PUSH1 0xE0 SHL SUB NOT PUSH1 0xE0 DUP5 SWAP1 SHL AND DUP2 MSTORE PUSH1 0x1 PUSH1 0x1 PUSH1 0xA0 SHL SUB SWAP1 SWAP2 AND PUSH1 0x4 DUP3 ADD MSTORE PUSH1 0x24 DUP2 ADD DUP5 SWAP1 MSTORE PUSH1 0x44 ADD PUSH1 0x20 PUSH1 0x40 MLOAD DUP1 DUP4 SUB DUP2 PUSH1 0x0 DUP8 GAS CALL ISZERO DUP1 ISZERO PUSH2 0xEED JUMPI RETURNDATASIZE PUSH1 0x0 DUP1 RETURNDATACOPY RETURNDATASIZE PUSH1 0x0 REVERT JUMPDEST POP POP POP POP PUSH1 0x40 MLOAD RETURNDATASIZE PUSH1 0x1F NOT PUSH1 0x1F DUP3 ADD AND DUP3 ADD DUP1 PUSH1 0x40 MSTORE POP DUP2 ADD SWAP1 PUSH2 0xF11 SWAP2 SWAP1 PUSH2 0x12B0 JUMP JUMPDEST POP PUSH1 0x40 MLOAD PUSH4 0x109554D1 PUSH1 0xE2 SHL DUP2 MSTORE PUSH1 0x4 ADD PUSH2 0x600 JUMP JUMPDEST PUSH2 0xF2F PUSH2 0x10B8 JUMP JUMPDEST DUP1 PUSH1 0x4 PUSH1 0x0 DUP3 DUP3 SLOAD PUSH2 0xF41 SWAP2 SWAP1 PUSH2 0x1271 JUMP JUMPDEST SWAP1 SWAP2 SSTORE POP POP PUSH1 0x4 SLOAD PUSH3 0xF4240 LT ISZERO PUSH2 0xF9B JUMPI PUSH1 0x40 MLOAD PUSH3 0x461BCD PUSH1 0xE5 SHL DUP2 MSTORE PUSH1 0x20 PUSH1 0x4 DUP3 ADD MSTORE PUSH1 0x1C PUSH1 0x24 DUP3 ADD MSTORE PUSH32 0x424C42494F3A206672616374696F6E20657863656564732031305E3600000000 PUSH1 0x44 DUP3 ADD MSTORE PUSH1 0x64 ADD PUSH2 0x56C JUMP JUMPDEST POP JUMP JUMPDEST PUSH1 0x7 SLOAD PUSH1 0x40 MLOAD PUSH4 0x70A08231 PUSH1 0xE0 SHL DUP2 MSTORE ADDRESS PUSH1 0x4 DUP3 ADD MSTORE PUSH1 0x0 SWAP2 PUSH1 0x1 PUSH1 0x1 PUSH1 0xA0 SHL SUB AND SWAP1 PUSH4 0x70A08231 SWAP1 PUSH1 0x24 ADD JUMPDEST PUSH1 0x20 PUSH1 0x40 MLOAD DUP1 DUP4 SUB DUP2 DUP7 GAS STATICCALL ISZERO DUP1 ISZERO PUSH2 0xFE8 JUMPI RETURNDATASIZE PUSH1 0x0 DUP1 RETURNDATACOPY RETURNDATASIZE PUSH1 0x0 REVERT JUMPDEST POP POP POP POP PUSH1 0x40 MLOAD RETURNDATASIZE PUSH1 0x1F NOT PUSH1 0x1F DUP3 ADD AND DUP3 ADD DUP1 PUSH1 0x40 MSTORE POP DUP2 ADD SWAP1 PUSH2 0x100C SWAP2 SWAP1 PUSH2 0x1297 JUMP JUMPDEST SWAP1 POP SWAP1 JUMP JUMPDEST PUSH1 0x6 SLOAD PUSH1 0x40 MLOAD PUSH4 0x70A08231 PUSH1 0xE0 SHL DUP2 MSTORE ADDRESS PUSH1 0x4 DUP3 ADD MSTORE PUSH1 0x0 SWAP2 PUSH1 0x1 PUSH1 0x1 PUSH1 0xA0 SHL SUB AND SWAP1 PUSH4 0x70A08231 SWAP1 PUSH1 0x24 ADD PUSH2 0xFCB JUMP JUMPDEST PUSH2 0x104A PUSH2 0x10B8 JUMP JUMPDEST PUSH1 0x1 PUSH1 0x1 PUSH1 0xA0 SHL SUB DUP2 AND PUSH2 0x10AF JUMPI PUSH1 0x40 MLOAD PUSH3 0x461BCD PUSH1 0xE5 SHL DUP2 MSTORE PUSH1 0x20 PUSH1 0x4 DUP3 ADD MSTORE PUSH1 0x26 PUSH1 0x24 DUP3 ADD MSTORE PUSH32 0x4F776E61626C653A206E6577206F776E657220697320746865207A65726F2061 PUSH1 0x44 DUP3 ADD MSTORE PUSH6 0x646472657373 PUSH1 0xD0 SHL PUSH1 0x64 DUP3 ADD MSTORE PUSH1 0x84 ADD PUSH2 0x56C JUMP JUMPDEST PUSH2 0xF9B DUP2 PUSH2 0x1112 JUMP JUMPDEST PUSH1 0x0 SLOAD PUSH1 0x1 PUSH1 0x1 PUSH1 0xA0 SHL SUB AND CALLER EQ PUSH2 0xCC6 JUMPI PUSH1 0x40 MLOAD PUSH3 0x461BCD PUSH1 0xE5 SHL DUP2 MSTORE PUSH1 0x20 PUSH1 0x4 DUP3 ADD DUP2 SWAP1 MSTORE PUSH1 0x24 DUP3 ADD MSTORE PUSH32 0x4F776E61626C653A2063616C6C6572206973206E6F7420746865206F776E6572 PUSH1 0x44 DUP3 ADD MSTORE PUSH1 0x64 ADD PUSH2 0x56C JUMP JUMPDEST PUSH1 0x0 DUP1 SLOAD PUSH1 0x1 PUSH1 0x1 PUSH1 0xA0 SHL SUB DUP4 DUP2 AND PUSH1 0x1 PUSH1 0x1 PUSH1 0xA0 SHL SUB NOT DUP4 AND DUP2 OR DUP5 SSTORE PUSH1 0x40 MLOAD SWAP2 SWAP1 SWAP3 AND SWAP3 DUP4 SWAP2 PUSH32 0x8BE0079C531659141344CD1FD0A4F28419497F9722A3DAAFE3B4186F6B6457E0 SWAP2 SWAP1 LOG3 POP POP JUMP JUMPDEST PUSH1 0x0 PUSH1 0x20 DUP3 DUP5 SUB SLT ISZERO PUSH2 0x1174 JUMPI PUSH1 0x0 DUP1 REVERT JUMPDEST POP CALLDATALOAD SWAP2 SWAP1 POP JUMP JUMPDEST DUP1 CALLDATALOAD PUSH1 0x1 PUSH1 0x1 PUSH1 0xA0 SHL SUB DUP2 AND DUP2 EQ PUSH2 0x1192 JUMPI PUSH1 0x0 DUP1 REVERT JUMPDEST SWAP2 SWAP1 POP JUMP JUMPDEST PUSH1 0x0 PUSH1 0x20 DUP3 DUP5 SUB SLT ISZERO PUSH2 0x11A9 JUMPI PUSH1 0x0 DUP1 REVERT JUMPDEST PUSH2 0x756 DUP3 PUSH2 0x117B JUMP JUMPDEST PUSH1 0x0 DUP1 PUSH1 0x40 DUP4 DUP6 SUB SLT ISZERO PUSH2 0x11C5 JUMPI PUSH1 0x0 DUP1 REVERT JUMPDEST POP POP DUP1 CALLDATALOAD SWAP3 PUSH1 0x20 SWAP1 SWAP2 ADD CALLDATALOAD SWAP2 POP JUMP JUMPDEST DUP1 ISZERO ISZERO DUP2 EQ PUSH2 0xF9B JUMPI PUSH1 0x0 DUP1 REVERT JUMPDEST PUSH1 0x0 DUP1 PUSH1 0x0 PUSH1 0x60 DUP5 DUP7 SUB SLT ISZERO PUSH2 0x11F7 JUMPI PUSH1 0x0 DUP1 REVERT JUMPDEST PUSH2 0x1200 DUP5 PUSH2 0x117B JUMP JUMPDEST SWAP3 POP PUSH1 0x20 DUP5 ADD CALLDATALOAD SWAP2 POP PUSH1 0x40 DUP5 ADD CALLDATALOAD PUSH2 0x1217 DUP2 PUSH2 0x11D4 JUMP JUMPDEST DUP1 SWAP2 POP POP SWAP3 POP SWAP3 POP SWAP3 JUMP JUMPDEST PUSH4 0x4E487B71 PUSH1 0xE0 SHL PUSH1 0x0 MSTORE PUSH1 0x11 PUSH1 0x4 MSTORE PUSH1 0x24 PUSH1 0x0 REVERT JUMPDEST DUP1 DUP3 MUL DUP2 ISZERO DUP3 DUP3 DIV DUP5 EQ OR PUSH2 0x5A8 JUMPI PUSH2 0x5A8 PUSH2 0x1222 JUMP JUMPDEST PUSH1 0x0 DUP3 PUSH2 0x126C JUMPI PUSH4 0x4E487B71 PUSH1 0xE0 SHL PUSH1 0x0 MSTORE PUSH1 0x12 PUSH1 0x4 MSTORE PUSH1 0x24 PUSH1 0x0 REVERT JUMPDEST POP DIV SWAP1 JUMP JUMPDEST DUP1 DUP3 ADD DUP1 DUP3 GT ISZERO PUSH2 0x5A8 JUMPI PUSH2 0x5A8 PUSH2 0x1222 JUMP JUMPDEST DUP2 DUP2 SUB DUP2 DUP2 GT ISZERO PUSH2 0x5A8 JUMPI PUSH2 0x5A8 PUSH2 0x1222 JUMP JUMPDEST PUSH1 0x0 PUSH1 0x20 DUP3 DUP5 SUB SLT ISZERO PUSH2 0x12A9 JUMPI PUSH1 0x0 DUP1 REVERT JUMPDEST POP MLOAD SWAP2 SWAP1 POP JUMP JUMPDEST PUSH1 0x0 PUSH1 0x20 DUP3 DUP5 SUB SLT ISZERO PUSH2 0x12C2 JUMPI PUSH1 0x0 DUP1 REVERT JUMPDEST DUP2 MLOAD PUSH2 0x756 DUP2 PUSH2 0x11D4 JUMP INVALID LOG2 PUSH5 0x6970667358 0x22 SLT KECCAK256 CALLCODE 0x1F SDIV 0xFB 0xBF 0x4C 0xAB 0x4D RETURNDATASIZE PUSH17 0xA3DEDAA6080961B9F310E0898AC041244E 0x1F 0x5C LOG3 SWAP12 RETURNDATASIZE PUSH5 0x736F6C6343 STOP ADDMOD GT STOP CALLER "},"methodIdentifiers":{"BLB()":"bfa54b3f","BUSD()":"484f4ea9","TotalClaimable()":"4426a263","blbBalance()":"e00115f6","bnbBalance()":"d013cbe2","busdBalance()":"dc39ca7a","buyInBNB(uint256)":"12b13216","buyInBUSD(uint256)":"4bc37468","claim()":"4e71d92d","claimable(address)":"402914f5","claimableFraction()":"158b072c","giftBLB(address,uint256,bool)":"c9e3c9c7","increaseClaimableFraction(uint256)":"ce9d3b09","owner()":"8da5cb5b","priceInBNB(uint256)":"5d2a2c99","priceInUSD(uint256)":"06dc693b","privatePriceInUSD()":"c73b2a43","publicPriceInUSD()":"8380c091","renounceOwnership()":"715018a6","retailLimit()":"790b284f","setPriceInUSD(uint256,uint256)":"769bb5ac","setRetailLimit(uint256)":"5b0dfa95","setSoldOut()":"be5be211","soldOut()":"893da6c9","totalClaimable(address)":"1dfce5c6","transferOwnership(address)":"f2fde38b","withdrawBLB(uint256)":"7f04e0e1","withdrawBNB(uint256)":"127f4b2e","withdrawBUSD(uint256)":"cc3bcaf3"}}}}}