{"contracts/StakePool/StakeBNB_BLB.sol":{"StakeBNB_BLB":{"abi":[{"inputs":[{"internalType":"contract IERC20","name":"_BLB","type":"address"}],"stateMutability":"nonpayable","type":"constructor"},{"anonymous":false,"inputs":[{"indexed":true,"internalType":"address","name":"investor","type":"address"},{"indexed":true,"internalType":"uint256","name":"investId","type":"uint256"},{"indexed":false,"internalType":"uint256","name":"amount","type":"uint256"},{"indexed":false,"internalType":"uint256","name":"start","type":"uint256"},{"indexed":false,"internalType":"uint256","name":"end","type":"uint256"},{"indexed":false,"internalType":"uint256","name":"profit","type":"uint256"}],"name":"NewInvestment","type":"event"},{"anonymous":false,"inputs":[{"indexed":true,"internalType":"address","name":"previousOwner","type":"address"},{"indexed":true,"internalType":"address","name":"newOwner","type":"address"}],"name":"OwnershipTransferred","type":"event"},{"anonymous":false,"inputs":[{"indexed":false,"internalType":"address","name":"account","type":"address"}],"name":"Paused","type":"event"},{"anonymous":false,"inputs":[{"indexed":true,"internalType":"uint256","name":"duration","type":"uint256"},{"indexed":false,"internalType":"uint256","name":"profit","type":"uint256"}],"name":"SetPlan","type":"event"},{"anonymous":false,"inputs":[{"indexed":false,"internalType":"address","name":"account","type":"address"}],"name":"Unpaused","type":"event"},{"anonymous":false,"inputs":[{"indexed":true,"internalType":"address","name":"investor","type":"address"},{"indexed":true,"internalType":"uint256","name":"investId","type":"uint256"},{"indexed":false,"internalType":"uint256","name":"amountBNB","type":"uint256"},{"indexed":false,"internalType":"uint256","name":"amountBLB","type":"uint256"}],"name":"Withdraw","type":"event"},{"inputs":[],"name":"BLB","outputs":[{"internalType":"contract IERC20","name":"","type":"address"}],"stateMutability":"view","type":"function"},{"inputs":[],"name":"checkPoint1","outputs":[{"internalType":"uint256","name":"passTime","type":"uint256"},{"internalType":"uint256","name":"saveBNB","type":"uint256"},{"internalType":"uint256","name":"saveBLB","type":"uint256"}],"stateMutability":"view","type":"function"},{"inputs":[],"name":"checkPoint2","outputs":[{"internalType":"uint256","name":"passTime","type":"uint256"},{"internalType":"uint256","name":"saveBNB","type":"uint256"},{"internalType":"uint256","name":"saveBLB","type":"uint256"}],"stateMutability":"view","type":"function"},{"inputs":[],"name":"checkPoint3","outputs":[{"internalType":"uint256","name":"passTime","type":"uint256"},{"internalType":"uint256","name":"saveBNB","type":"uint256"},{"internalType":"uint256","name":"saveBLB","type":"uint256"}],"stateMutability":"view","type":"function"},{"inputs":[{"internalType":"address","name":"","type":"address"},{"internalType":"uint256","name":"","type":"uint256"}],"name":"investments","outputs":[{"internalType":"uint256","name":"amount","type":"uint256"},{"internalType":"uint256","name":"start","type":"uint256"},{"internalType":"uint256","name":"end","type":"uint256"},{"internalType":"uint256","name":"profit","type":"uint256"},{"internalType":"uint256","name":"claimTime","type":"uint256"}],"stateMutability":"view","type":"function"},{"inputs":[{"internalType":"address","name":"borrower","type":"address"},{"internalType":"uint256","name":"amount","type":"uint256"}],"name":"loanBLB","outputs":[],"stateMutability":"nonpayable","type":"function"},{"inputs":[{"internalType":"address","name":"borrower","type":"address"},{"internalType":"uint256","name":"amount","type":"uint256"}],"name":"loanBNB","outputs":[],"stateMutability":"nonpayable","type":"function"},{"inputs":[{"internalType":"uint256","name":"duration","type":"uint256"}],"name":"newInvestment","outputs":[],"stateMutability":"payable","type":"function"},{"inputs":[],"name":"owner","outputs":[{"internalType":"address","name":"","type":"address"}],"stateMutability":"view","type":"function"},{"inputs":[],"name":"pause","outputs":[],"stateMutability":"nonpayable","type":"function"},{"inputs":[],"name":"paused","outputs":[{"internalType":"bool","name":"","type":"bool"}],"stateMutability":"view","type":"function"},{"inputs":[{"internalType":"address","name":"investor","type":"address"},{"internalType":"uint256","name":"investmentId","type":"uint256"}],"name":"pendingWithdrawal","outputs":[{"internalType":"uint256","name":"amountBNB","type":"uint256"},{"internalType":"uint256","name":"amountBLB","type":"uint256"}],"stateMutability":"view","type":"function"},{"inputs":[{"internalType":"address","name":"investor","type":"address"},{"internalType":"uint256","name":"investmentId","type":"uint256"}],"name":"releaseTime","outputs":[{"internalType":"uint256","name":"","type":"uint256"}],"stateMutability":"view","type":"function"},{"inputs":[],"name":"renounceOwnership","outputs":[],"stateMutability":"nonpayable","type":"function"},{"inputs":[{"internalType":"uint256","name":"","type":"uint256"}],"name":"rewardPlans","outputs":[{"internalType":"uint256","name":"","type":"uint256"}],"stateMutability":"view","type":"function"},{"inputs":[{"internalType":"uint256","name":"passTime1","type":"uint256"},{"internalType":"uint256","name":"saveBNB1","type":"uint256"},{"internalType":"uint256","name":"saveBLB1","type":"uint256"},{"internalType":"uint256","name":"passTime2","type":"uint256"},{"internalType":"uint256","name":"saveBNB2","type":"uint256"},{"internalType":"uint256","name":"saveBLB2","type":"uint256"},{"internalType":"uint256","name":"passTime3","type":"uint256"},{"internalType":"uint256","name":"saveBNB3","type":"uint256"},{"internalType":"uint256","name":"saveBLB3","type":"uint256"}],"name":"setCheckpoints","outputs":[],"stateMutability":"nonpayable","type":"function"},{"inputs":[{"internalType":"uint256","name":"duration","type":"uint256"},{"internalType":"uint256","name":"profit","type":"uint256"}],"name":"setPlan","outputs":[],"stateMutability":"nonpayable","type":"function"},{"inputs":[],"name":"totalInvestingBNB","outputs":[{"internalType":"uint256","name":"","type":"uint256"}],"stateMutability":"view","type":"function"},{"inputs":[],"name":"totalPendingBLB","outputs":[{"internalType":"uint256","name":"","type":"uint256"}],"stateMutability":"view","type":"function"},{"inputs":[{"internalType":"address","name":"newOwner","type":"address"}],"name":"transferOwnership","outputs":[],"stateMutability":"nonpayable","type":"function"},{"inputs":[],"name":"unpause","outputs":[],"stateMutability":"nonpayable","type":"function"},{"inputs":[{"internalType":"uint256","name":"investmentId","type":"uint256"}],"name":"withdraw","outputs":[],"stateMutability":"nonpayable","type":"function"}],"evm":{"bytecode":{"linkReferences":{},"object":"60806040523480156200001157600080fd5b50604051620012b7380380620012b7833981016040819052620000349162000215565b6200003f33620000e4565b6000805460ff60a01b19169055600180546001600160a01b0319166001600160a01b0383161790556200007e62015180670de0b6b3a764000062000134565b6200009562093a80678ac7230489e8000062000134565b620000ad62278d006802b5e3af16b188000062000134565b620000c56276a7006809c2007651b250000062000134565b620000dd600060508160326064828482602862000150565b5062000247565b600080546001600160a01b038381166001600160a01b0319831681178455604051919092169283917f8be0079c531659141344cd1fd0a4f28419497f9722a3daafe3b4186f6b6457e09190a35050565b6200013e620001b4565b60009182526004602052604090912055565b6200015a620001b4565b60408051606080820183529a815260208082019a909a528101979097528651808a01885295865285880194909452938501919091528351958601845280865293850182905293909101839052600691909155600755600855565b6000546001600160a01b03163314620002135760405162461bcd60e51b815260206004820181905260248201527f4f776e61626c653a2063616c6c6572206973206e6f7420746865206f776e6572604482015260640160405180910390fd5b565b6000602082840312156200022857600080fd5b81516001600160a01b03811681146200024057600080fd5b9392505050565b61106080620002576000396000f3fe6080604052600436106101355760003560e01c806388a9931f116100ab578063ad33710c1161006f578063ad33710c14610397578063bfa54b3f146103b6578063c877921c146103d6578063d5d4d114146103f6578063e88cf1b414610415578063f2fde38b1461042b57600080fd5b806388a9931f146102cb57806388f89169146102f85780638a2ac3971461030b5780638da5cb5b14610345578063a2fa0c751461037757600080fd5b80633f4ba83a116100fd5780633f4ba83a146102225780634668d866146102375780634983c3ab146102575780635c975abb14610277578063715018a6146102a15780638456cb59146102b657600080fd5b80631dd6781b1461013a5780632bf0da7e146101635780632e1a7d4d146101985780633353561d146101ba5780633e6d9770146101da575b600080fd5b34801561014657600080fd5b5061015060025481565b6040519081526020015b60405180910390f35b34801561016f57600080fd5b5061018361017e366004610e97565b61044b565b6040805192835260208301919091520161015a565b3480156101a457600080fd5b506101b86101b3366004610ec1565b610674565b005b3480156101c657600080fd5b506101b86101d5366004610eda565b61083e565b3480156101e657600080fd5b506101fa6101f5366004610e97565b610858565b604080519586526020860194909452928401919091526060830152608082015260a00161015a565b34801561022e57600080fd5b506101b86108a6565b34801561024357600080fd5b506101b8610252366004610efc565b6108b8565b34801561026357600080fd5b50610150610272366004610e97565b61091a565b34801561028357600080fd5b50600054600160a01b900460ff16604051901515815260200161015a565b3480156102ad57600080fd5b506101b861095f565b3480156102c257600080fd5b506101b8610971565b3480156102d757600080fd5b506101506102e6366004610ec1565b60046020526000908152604090205481565b6101b8610306366004610ec1565b610981565b34801561031757600080fd5b50600954600a54600b5461032a92919083565b6040805193845260208401929092529082015260600161015a565b34801561035157600080fd5b506000546001600160a01b03165b6040516001600160a01b03909116815260200161015a565b34801561038357600080fd5b506101b8610392366004610e97565b610b61565b3480156103a357600080fd5b5060065460075460085461032a92919083565b3480156103c257600080fd5b5060015461035f906001600160a01b031681565b3480156103e257600080fd5b506101b86103f1366004610e97565b610be5565b34801561040257600080fd5b50600c54600d54600e5461032a92919083565b34801561042157600080fd5b5061015060035481565b34801561043757600080fd5b506101b8610446366004610f5b565b610c23565b6001600160a01b03821660009081526005602052604081208054829182918590811061047957610479610f7d565b9060005260206000209060050201905080600401546000146104fd5760405162461bcd60e51b815260206004820152603260248201527f7374616b65506f6f6c3a207468697320696e766573746d656e7420686173206260448201527165656e20636c61696d6564206265666f726560701b60648201526084015b60405180910390fd5b6001810154600282015442919060006105168383610fa9565b85546003870154919250908386111561053457819850809750610666565b84606484600c600001546105489190610fbc565b6105529190610fd3565b61055c9190610ff5565b8611156105a157600d546064906105739084610fbc565b61057d9190610fd3565b600e549099506064906105909083610fbc565b61059a9190610fd3565b9750610666565b846064846009600001546105b59190610fbc565b6105bf9190610fd3565b6105c99190610ff5565b8611156105fd57600a546064906105e09084610fbc565b6105ea9190610fd3565b600b549099506064906105909083610fbc565b846064846006600001546106119190610fbc565b61061b9190610fd3565b6106259190610ff5565b8611156106665760075460649061063c9084610fbc565b6106469190610fd3565b6008549099506064906106599083610fbc565b6106639190610fd3565b97505b505050505050509250929050565b33600081815260056020526040812080548490811061069557610695610f7d565b906000526020600020906005020190506000806106b2848661044b565b91509150600082116107065760405162461bcd60e51b815260206004820152601e60248201527f5374616b65506f6f6c3a206e6f7468696e6720746f207769746864726177000060448201526064016104f4565b4260048401556040516001600160a01b0385169083156108fc029084906000818181858888f19350505050158015610742573d6000803e3d6000fd5b5060015460405163a9059cbb60e01b81526001600160a01b038681166004830152602482018490529091169063a9059cbb906044016020604051808303816000875af1158015610796573d6000803e3d6000fd5b505050506040513d601f19601f820116820180604052508101906107ba9190611008565b508254600280546000906107cf908490610fa9565b925050819055508260030154600360008282546107ec9190610fa9565b9091555050604080518381526020810183905286916001600160a01b038716917f02f25270a4d87bea75db541cdfe559334a275b4a233520ed6c0a2429667cca94910160405180910390a35050505050565b610846610c9c565b60009182526004602052604090912055565b6005602052816000526040600020818154811061087457600080fd5b600091825260209091206005909102018054600182015460028301546003840154600490940154929550909350919085565b6108ae610c9c565b6108b6610cf6565b565b6108c0610c9c565b60408051606080820183529a815260208082019a909a528101979097528651808a01885295865285880194909452938501919091528351958601845280865293850182905293909101839052600691909155600755600855565b6001600160a01b038216600090815260056020526040812080548390811061094457610944610f7d565b90600052602060002090600502016002015490505b92915050565b610967610c9c565b6108b66000610d4b565b610979610c9c565b6108b6610d9b565b610989610dde565b60008181526004602052604081205490036109f05760405162461bcd60e51b815260206004820152602160248201527f7468657265206973206e6f20706c616e2062792074686973206475726174696f6044820152603760f91b60648201526084016104f4565b33344260006109ff8583610ff5565b60008681526004602052604081205491925090670de0b6b3a764000090610a269086610fbc565b610a309190610fd3565b6001600160a01b0386166000908152600560208181526040808420815160a0810183528a81528084018a81529281018981526060820188815260808301888152845460018181018755958a52968920935196909702909201948555925191840191909155905160028084019190915590516003830155915160049091015580549293508692909190610ac3908490610ff5565b925050819055508060036000828254610adc9190610ff5565b90915550506001600160a01b038516600090815260056020526040902054610b0690600190610fa9565b6040805186815260208101869052908101849052606081018390526001600160a01b038716907f72e5f615ebc79a295430cc50e3cdf038a03d48b17f7ef4586ab25a1d481de6959060800160405180910390a3505050505050565b610b69610c9c565b60015460405163a9059cbb60e01b81526001600160a01b038481166004830152602482018490529091169063a9059cbb906044016020604051808303816000875af1158015610bbc573d6000803e3d6000fd5b505050506040513d601f19601f82011682018060405250810190610be09190611008565b505050565b610bed610c9c565b6040516001600160a01b0383169082156108fc029083906000818181858888f19350505050158015610be0573d6000803e3d6000fd5b610c2b610c9c565b6001600160a01b038116610c905760405162461bcd60e51b815260206004820152602660248201527f4f776e61626c653a206e6577206f776e657220697320746865207a65726f206160448201526564647265737360d01b60648201526084016104f4565b610c9981610d4b565b50565b6000546001600160a01b031633146108b65760405162461bcd60e51b815260206004820181905260248201527f4f776e61626c653a2063616c6c6572206973206e6f7420746865206f776e657260448201526064016104f4565b610cfe610e2b565b6000805460ff60a01b191690557f5db9ee0a495bf2e6ff9c91a7834c1ba4fdd244a5e8aa4e537bd38aeae4b073aa335b6040516001600160a01b03909116815260200160405180910390a1565b600080546001600160a01b038381166001600160a01b0319831681178455604051919092169283917f8be0079c531659141344cd1fd0a4f28419497f9722a3daafe3b4186f6b6457e09190a35050565b610da3610dde565b6000805460ff60a01b1916600160a01b1790557f62e78cea01bee320cd4e420270b5ea74000d11b0c9f74754ebdbfc544b05a258610d2e3390565b600054600160a01b900460ff16156108b65760405162461bcd60e51b815260206004820152601060248201526f14185d5cd8589b194e881c185d5cd95960821b60448201526064016104f4565b600054600160a01b900460ff166108b65760405162461bcd60e51b815260206004820152601460248201527314185d5cd8589b194e881b9bdd081c185d5cd95960621b60448201526064016104f4565b80356001600160a01b0381168114610e9257600080fd5b919050565b60008060408385031215610eaa57600080fd5b610eb383610e7b565b946020939093013593505050565b600060208284031215610ed357600080fd5b5035919050565b60008060408385031215610eed57600080fd5b50508035926020909101359150565b60008060008060008060008060006101208a8c031215610f1b57600080fd5b505087359960208901359950604089013598606081013598506080810135975060a0810135965060c0810135955060e08101359450610100013592509050565b600060208284031215610f6d57600080fd5b610f7682610e7b565b9392505050565b634e487b7160e01b600052603260045260246000fd5b634e487b7160e01b600052601160045260246000fd5b8181038181111561095957610959610f93565b808202811582820484141761095957610959610f93565b600082610ff057634e487b7160e01b600052601260045260246000fd5b500490565b8082018082111561095957610959610f93565b60006020828403121561101a57600080fd5b81518015158114610f7657600080fdfea2646970667358221220fc1b2bd31dec2790fc472297af98503884aa5d396368d18980f3ea928ba28f3264736f6c63430008110033","opcodes":"PUSH1 0x80 PUSH1 0x40 MSTORE CALLVALUE DUP1 ISZERO PUSH3 0x11 JUMPI PUSH1 0x0 DUP1 REVERT JUMPDEST POP PUSH1 0x40 MLOAD PUSH3 0x12B7 CODESIZE SUB DUP1 PUSH3 0x12B7 DUP4 CODECOPY DUP2 ADD PUSH1 0x40 DUP2 SWAP1 MSTORE PUSH3 0x34 SWAP2 PUSH3 0x215 JUMP JUMPDEST PUSH3 0x3F CALLER PUSH3 0xE4 JUMP JUMPDEST PUSH1 0x0 DUP1 SLOAD PUSH1 0xFF PUSH1 0xA0 SHL NOT AND SWAP1 SSTORE PUSH1 0x1 DUP1 SLOAD PUSH1 0x1 PUSH1 0x1 PUSH1 0xA0 SHL SUB NOT AND PUSH1 0x1 PUSH1 0x1 PUSH1 0xA0 SHL SUB DUP4 AND OR SWAP1 SSTORE PUSH3 0x7E PUSH3 0x15180 PUSH8 0xDE0B6B3A7640000 PUSH3 0x134 JUMP JUMPDEST PUSH3 0x95 PUSH3 0x93A80 PUSH8 0x8AC7230489E80000 PUSH3 0x134 JUMP JUMPDEST PUSH3 0xAD PUSH3 0x278D00 PUSH9 0x2B5E3AF16B1880000 PUSH3 0x134 JUMP JUMPDEST PUSH3 0xC5 PUSH3 0x76A700 PUSH9 0x9C2007651B2500000 PUSH3 0x134 JUMP JUMPDEST PUSH3 0xDD PUSH1 0x0 PUSH1 0x50 DUP2 PUSH1 0x32 PUSH1 0x64 DUP3 DUP5 DUP3 PUSH1 0x28 PUSH3 0x150 JUMP JUMPDEST POP PUSH3 0x247 JUMP JUMPDEST PUSH1 0x0 DUP1 SLOAD PUSH1 0x1 PUSH1 0x1 PUSH1 0xA0 SHL SUB DUP4 DUP2 AND PUSH1 0x1 PUSH1 0x1 PUSH1 0xA0 SHL SUB NOT DUP4 AND DUP2 OR DUP5 SSTORE PUSH1 0x40 MLOAD SWAP2 SWAP1 SWAP3 AND SWAP3 DUP4 SWAP2 PUSH32 0x8BE0079C531659141344CD1FD0A4F28419497F9722A3DAAFE3B4186F6B6457E0 SWAP2 SWAP1 LOG3 POP POP JUMP JUMPDEST PUSH3 0x13E PUSH3 0x1B4 JUMP JUMPDEST PUSH1 0x0 SWAP2 DUP3 MSTORE PUSH1 0x4 PUSH1 0x20 MSTORE PUSH1 0x40 SWAP1 SWAP2 KECCAK256 SSTORE JUMP JUMPDEST PUSH3 0x15A PUSH3 0x1B4 JUMP JUMPDEST PUSH1 0x40 DUP1 MLOAD PUSH1 0x60 DUP1 DUP3 ADD DUP4 MSTORE SWAP11 DUP2 MSTORE PUSH1 0x20 DUP1 DUP3 ADD SWAP11 SWAP1 SWAP11 MSTORE DUP2 ADD SWAP8 SWAP1 SWAP8 MSTORE DUP7 MLOAD DUP1 DUP11 ADD DUP9 MSTORE SWAP6 DUP7 MSTORE DUP6 DUP9 ADD SWAP5 SWAP1 SWAP5 MSTORE SWAP4 DUP6 ADD SWAP2 SWAP1 SWAP2 MSTORE DUP4 MLOAD SWAP6 DUP7 ADD DUP5 MSTORE DUP1 DUP7 MSTORE SWAP4 DUP6 ADD DUP3 SWAP1 MSTORE SWAP4 SWAP1 SWAP2 ADD DUP4 SWAP1 MSTORE PUSH1 0x6 SWAP2 SWAP1 SWAP2 SSTORE PUSH1 0x7 SSTORE PUSH1 0x8 SSTORE JUMP JUMPDEST PUSH1 0x0 SLOAD PUSH1 0x1 PUSH1 0x1 PUSH1 0xA0 SHL SUB AND CALLER EQ PUSH3 0x213 JUMPI PUSH1 0x40 MLOAD PUSH3 0x461BCD PUSH1 0xE5 SHL DUP2 MSTORE PUSH1 0x20 PUSH1 0x4 DUP3 ADD DUP2 SWAP1 MSTORE PUSH1 0x24 DUP3 ADD MSTORE PUSH32 0x4F776E61626C653A2063616C6C6572206973206E6F7420746865206F776E6572 PUSH1 0x44 DUP3 ADD MSTORE PUSH1 0x64 ADD PUSH1 0x40 MLOAD DUP1 SWAP2 SUB SWAP1 REVERT JUMPDEST JUMP JUMPDEST PUSH1 0x0 PUSH1 0x20 DUP3 DUP5 SUB SLT ISZERO PUSH3 0x228 JUMPI PUSH1 0x0 DUP1 REVERT JUMPDEST DUP2 MLOAD PUSH1 0x1 PUSH1 0x1 PUSH1 0xA0 SHL SUB DUP2 AND DUP2 EQ PUSH3 0x240 JUMPI PUSH1 0x0 DUP1 REVERT JUMPDEST SWAP4 SWAP3 POP POP POP JUMP JUMPDEST PUSH2 0x1060 DUP1 PUSH3 0x257 PUSH1 0x0 CODECOPY PUSH1 0x0 RETURN INVALID PUSH1 0x80 PUSH1 0x40 MSTORE PUSH1 0x4 CALLDATASIZE LT PUSH2 0x135 JUMPI PUSH1 0x0 CALLDATALOAD PUSH1 0xE0 SHR DUP1 PUSH4 0x88A9931F GT PUSH2 0xAB JUMPI DUP1 PUSH4 0xAD33710C GT PUSH2 0x6F JUMPI DUP1 PUSH4 0xAD33710C EQ PUSH2 0x397 JUMPI DUP1 PUSH4 0xBFA54B3F EQ PUSH2 0x3B6 JUMPI DUP1 PUSH4 0xC877921C EQ PUSH2 0x3D6 JUMPI DUP1 PUSH4 0xD5D4D114 EQ PUSH2 0x3F6 JUMPI DUP1 PUSH4 0xE88CF1B4 EQ PUSH2 0x415 JUMPI DUP1 PUSH4 0xF2FDE38B EQ PUSH2 0x42B JUMPI PUSH1 0x0 DUP1 REVERT JUMPDEST DUP1 PUSH4 0x88A9931F EQ PUSH2 0x2CB JUMPI DUP1 PUSH4 0x88F89169 EQ PUSH2 0x2F8 JUMPI DUP1 PUSH4 0x8A2AC397 EQ PUSH2 0x30B JUMPI DUP1 PUSH4 0x8DA5CB5B EQ PUSH2 0x345 JUMPI DUP1 PUSH4 0xA2FA0C75 EQ PUSH2 0x377 JUMPI PUSH1 0x0 DUP1 REVERT JUMPDEST DUP1 PUSH4 0x3F4BA83A GT PUSH2 0xFD JUMPI DUP1 PUSH4 0x3F4BA83A EQ PUSH2 0x222 JUMPI DUP1 PUSH4 0x4668D866 EQ PUSH2 0x237 JUMPI DUP1 PUSH4 0x4983C3AB EQ PUSH2 0x257 JUMPI DUP1 PUSH4 0x5C975ABB EQ PUSH2 0x277 JUMPI DUP1 PUSH4 0x715018A6 EQ PUSH2 0x2A1 JUMPI DUP1 PUSH4 0x8456CB59 EQ PUSH2 0x2B6 JUMPI PUSH1 0x0 DUP1 REVERT JUMPDEST DUP1 PUSH4 0x1DD6781B EQ PUSH2 0x13A JUMPI DUP1 PUSH4 0x2BF0DA7E EQ PUSH2 0x163 JUMPI DUP1 PUSH4 0x2E1A7D4D EQ PUSH2 0x198 JUMPI DUP1 PUSH4 0x3353561D EQ PUSH2 0x1BA JUMPI DUP1 PUSH4 0x3E6D9770 EQ PUSH2 0x1DA JUMPI JUMPDEST PUSH1 0x0 DUP1 REVERT JUMPDEST CALLVALUE DUP1 ISZERO PUSH2 0x146 JUMPI PUSH1 0x0 DUP1 REVERT JUMPDEST POP PUSH2 0x150 PUSH1 0x2 SLOAD DUP2 JUMP JUMPDEST PUSH1 0x40 MLOAD SWAP1 DUP2 MSTORE PUSH1 0x20 ADD JUMPDEST PUSH1 0x40 MLOAD DUP1 SWAP2 SUB SWAP1 RETURN JUMPDEST CALLVALUE DUP1 ISZERO PUSH2 0x16F JUMPI PUSH1 0x0 DUP1 REVERT JUMPDEST POP PUSH2 0x183 PUSH2 0x17E CALLDATASIZE PUSH1 0x4 PUSH2 0xE97 JUMP JUMPDEST PUSH2 0x44B JUMP JUMPDEST PUSH1 0x40 DUP1 MLOAD SWAP3 DUP4 MSTORE PUSH1 0x20 DUP4 ADD SWAP2 SWAP1 SWAP2 MSTORE ADD PUSH2 0x15A JUMP JUMPDEST CALLVALUE DUP1 ISZERO PUSH2 0x1A4 JUMPI PUSH1 0x0 DUP1 REVERT JUMPDEST POP PUSH2 0x1B8 PUSH2 0x1B3 CALLDATASIZE PUSH1 0x4 PUSH2 0xEC1 JUMP JUMPDEST PUSH2 0x674 JUMP JUMPDEST STOP JUMPDEST CALLVALUE DUP1 ISZERO PUSH2 0x1C6 JUMPI PUSH1 0x0 DUP1 REVERT JUMPDEST POP PUSH2 0x1B8 PUSH2 0x1D5 CALLDATASIZE PUSH1 0x4 PUSH2 0xEDA JUMP JUMPDEST PUSH2 0x83E JUMP JUMPDEST CALLVALUE DUP1 ISZERO PUSH2 0x1E6 JUMPI PUSH1 0x0 DUP1 REVERT JUMPDEST POP PUSH2 0x1FA PUSH2 0x1F5 CALLDATASIZE PUSH1 0x4 PUSH2 0xE97 JUMP JUMPDEST PUSH2 0x858 JUMP JUMPDEST PUSH1 0x40 DUP1 MLOAD SWAP6 DUP7 MSTORE PUSH1 0x20 DUP7 ADD SWAP5 SWAP1 SWAP5 MSTORE SWAP3 DUP5 ADD SWAP2 SWAP1 SWAP2 MSTORE PUSH1 0x60 DUP4 ADD MSTORE PUSH1 0x80 DUP3 ADD MSTORE PUSH1 0xA0 ADD PUSH2 0x15A JUMP JUMPDEST CALLVALUE DUP1 ISZERO PUSH2 0x22E JUMPI PUSH1 0x0 DUP1 REVERT JUMPDEST POP PUSH2 0x1B8 PUSH2 0x8A6 JUMP JUMPDEST CALLVALUE DUP1 ISZERO PUSH2 0x243 JUMPI PUSH1 0x0 DUP1 REVERT JUMPDEST POP PUSH2 0x1B8 PUSH2 0x252 CALLDATASIZE PUSH1 0x4 PUSH2 0xEFC JUMP JUMPDEST PUSH2 0x8B8 JUMP JUMPDEST CALLVALUE DUP1 ISZERO PUSH2 0x263 JUMPI PUSH1 0x0 DUP1 REVERT JUMPDEST POP PUSH2 0x150 PUSH2 0x272 CALLDATASIZE PUSH1 0x4 PUSH2 0xE97 JUMP JUMPDEST PUSH2 0x91A JUMP JUMPDEST CALLVALUE DUP1 ISZERO PUSH2 0x283 JUMPI PUSH1 0x0 DUP1 REVERT JUMPDEST POP PUSH1 0x0 SLOAD PUSH1 0x1 PUSH1 0xA0 SHL SWAP1 DIV PUSH1 0xFF AND PUSH1 0x40 MLOAD SWAP1 ISZERO ISZERO DUP2 MSTORE PUSH1 0x20 ADD PUSH2 0x15A JUMP JUMPDEST CALLVALUE DUP1 ISZERO PUSH2 0x2AD JUMPI PUSH1 0x0 DUP1 REVERT JUMPDEST POP PUSH2 0x1B8 PUSH2 0x95F JUMP JUMPDEST CALLVALUE DUP1 ISZERO PUSH2 0x2C2 JUMPI PUSH1 0x0 DUP1 REVERT JUMPDEST POP PUSH2 0x1B8 PUSH2 0x971 JUMP JUMPDEST CALLVALUE DUP1 ISZERO PUSH2 0x2D7 JUMPI PUSH1 0x0 DUP1 REVERT JUMPDEST POP PUSH2 0x150 PUSH2 0x2E6 CALLDATASIZE PUSH1 0x4 PUSH2 0xEC1 JUMP JUMPDEST PUSH1 0x4 PUSH1 0x20 MSTORE PUSH1 0x0 SWAP1 DUP2 MSTORE PUSH1 0x40 SWAP1 KECCAK256 SLOAD DUP2 JUMP JUMPDEST PUSH2 0x1B8 PUSH2 0x306 CALLDATASIZE PUSH1 0x4 PUSH2 0xEC1 JUMP JUMPDEST PUSH2 0x981 JUMP JUMPDEST CALLVALUE DUP1 ISZERO PUSH2 0x317 JUMPI PUSH1 0x0 DUP1 REVERT JUMPDEST POP PUSH1 0x9 SLOAD PUSH1 0xA SLOAD PUSH1 0xB SLOAD PUSH2 0x32A SWAP3 SWAP2 SWAP1 DUP4 JUMP JUMPDEST PUSH1 0x40 DUP1 MLOAD SWAP4 DUP5 MSTORE PUSH1 0x20 DUP5 ADD SWAP3 SWAP1 SWAP3 MSTORE SWAP1 DUP3 ADD MSTORE PUSH1 0x60 ADD PUSH2 0x15A JUMP JUMPDEST CALLVALUE DUP1 ISZERO PUSH2 0x351 JUMPI PUSH1 0x0 DUP1 REVERT JUMPDEST POP PUSH1 0x0 SLOAD PUSH1 0x1 PUSH1 0x1 PUSH1 0xA0 SHL SUB AND JUMPDEST PUSH1 0x40 MLOAD PUSH1 0x1 PUSH1 0x1 PUSH1 0xA0 SHL SUB SWAP1 SWAP2 AND DUP2 MSTORE PUSH1 0x20 ADD PUSH2 0x15A JUMP JUMPDEST CALLVALUE DUP1 ISZERO PUSH2 0x383 JUMPI PUSH1 0x0 DUP1 REVERT JUMPDEST POP PUSH2 0x1B8 PUSH2 0x392 CALLDATASIZE PUSH1 0x4 PUSH2 0xE97 JUMP JUMPDEST PUSH2 0xB61 JUMP JUMPDEST CALLVALUE DUP1 ISZERO PUSH2 0x3A3 JUMPI PUSH1 0x0 DUP1 REVERT JUMPDEST POP PUSH1 0x6 SLOAD PUSH1 0x7 SLOAD PUSH1 0x8 SLOAD PUSH2 0x32A SWAP3 SWAP2 SWAP1 DUP4 JUMP JUMPDEST CALLVALUE DUP1 ISZERO PUSH2 0x3C2 JUMPI PUSH1 0x0 DUP1 REVERT JUMPDEST POP PUSH1 0x1 SLOAD PUSH2 0x35F SWAP1 PUSH1 0x1 PUSH1 0x1 PUSH1 0xA0 SHL SUB AND DUP2 JUMP JUMPDEST CALLVALUE DUP1 ISZERO PUSH2 0x3E2 JUMPI PUSH1 0x0 DUP1 REVERT JUMPDEST POP PUSH2 0x1B8 PUSH2 0x3F1 CALLDATASIZE PUSH1 0x4 PUSH2 0xE97 JUMP JUMPDEST PUSH2 0xBE5 JUMP JUMPDEST CALLVALUE DUP1 ISZERO PUSH2 0x402 JUMPI PUSH1 0x0 DUP1 REVERT JUMPDEST POP PUSH1 0xC SLOAD PUSH1 0xD SLOAD PUSH1 0xE SLOAD PUSH2 0x32A SWAP3 SWAP2 SWAP1 DUP4 JUMP JUMPDEST CALLVALUE DUP1 ISZERO PUSH2 0x421 JUMPI PUSH1 0x0 DUP1 REVERT JUMPDEST POP PUSH2 0x150 PUSH1 0x3 SLOAD DUP2 JUMP JUMPDEST CALLVALUE DUP1 ISZERO PUSH2 0x437 JUMPI PUSH1 0x0 DUP1 REVERT JUMPDEST POP PUSH2 0x1B8 PUSH2 0x446 CALLDATASIZE PUSH1 0x4 PUSH2 0xF5B JUMP JUMPDEST PUSH2 0xC23 JUMP JUMPDEST PUSH1 0x1 PUSH1 0x1 PUSH1 0xA0 SHL SUB DUP3 AND PUSH1 0x0 SWAP1 DUP2 MSTORE PUSH1 0x5 PUSH1 0x20 MSTORE PUSH1 0x40 DUP2 KECCAK256 DUP1 SLOAD DUP3 SWAP2 DUP3 SWAP2 DUP6 SWAP1 DUP2 LT PUSH2 0x479 JUMPI PUSH2 0x479 PUSH2 0xF7D JUMP JUMPDEST SWAP1 PUSH1 0x0 MSTORE PUSH1 0x20 PUSH1 0x0 KECCAK256 SWAP1 PUSH1 0x5 MUL ADD SWAP1 POP DUP1 PUSH1 0x4 ADD SLOAD PUSH1 0x0 EQ PUSH2 0x4FD JUMPI PUSH1 0x40 MLOAD PUSH3 0x461BCD PUSH1 0xE5 SHL DUP2 MSTORE PUSH1 0x20 PUSH1 0x4 DUP3 ADD MSTORE PUSH1 0x32 PUSH1 0x24 DUP3 ADD MSTORE PUSH32 0x7374616B65506F6F6C3A207468697320696E766573746D656E74206861732062 PUSH1 0x44 DUP3 ADD MSTORE PUSH18 0x65656E20636C61696D6564206265666F7265 PUSH1 0x70 SHL PUSH1 0x64 DUP3 ADD MSTORE PUSH1 0x84 ADD JUMPDEST PUSH1 0x40 MLOAD DUP1 SWAP2 SUB SWAP1 REVERT JUMPDEST PUSH1 0x1 DUP2 ADD SLOAD PUSH1 0x2 DUP3 ADD SLOAD TIMESTAMP SWAP2 SWAP1 PUSH1 0x0 PUSH2 0x516 DUP4 DUP4 PUSH2 0xFA9 JUMP JUMPDEST DUP6 SLOAD PUSH1 0x3 DUP8 ADD SLOAD SWAP2 SWAP3 POP SWAP1 DUP4 DUP7 GT ISZERO PUSH2 0x534 JUMPI DUP2 SWAP9 POP DUP1 SWAP8 POP PUSH2 0x666 JUMP JUMPDEST DUP5 PUSH1 0x64 DUP5 PUSH1 0xC PUSH1 0x0 ADD SLOAD PUSH2 0x548 SWAP2 SWAP1 PUSH2 0xFBC JUMP JUMPDEST PUSH2 0x552 SWAP2 SWAP1 PUSH2 0xFD3 JUMP JUMPDEST PUSH2 0x55C SWAP2 SWAP1 PUSH2 0xFF5 JUMP JUMPDEST DUP7 GT ISZERO PUSH2 0x5A1 JUMPI PUSH1 0xD SLOAD PUSH1 0x64 SWAP1 PUSH2 0x573 SWAP1 DUP5 PUSH2 0xFBC JUMP JUMPDEST PUSH2 0x57D SWAP2 SWAP1 PUSH2 0xFD3 JUMP JUMPDEST PUSH1 0xE SLOAD SWAP1 SWAP10 POP PUSH1 0x64 SWAP1 PUSH2 0x590 SWAP1 DUP4 PUSH2 0xFBC JUMP JUMPDEST PUSH2 0x59A SWAP2 SWAP1 PUSH2 0xFD3 JUMP JUMPDEST SWAP8 POP PUSH2 0x666 JUMP JUMPDEST DUP5 PUSH1 0x64 DUP5 PUSH1 0x9 PUSH1 0x0 ADD SLOAD PUSH2 0x5B5 SWAP2 SWAP1 PUSH2 0xFBC JUMP JUMPDEST PUSH2 0x5BF SWAP2 SWAP1 PUSH2 0xFD3 JUMP JUMPDEST PUSH2 0x5C9 SWAP2 SWAP1 PUSH2 0xFF5 JUMP JUMPDEST DUP7 GT ISZERO PUSH2 0x5FD JUMPI PUSH1 0xA SLOAD PUSH1 0x64 SWAP1 PUSH2 0x5E0 SWAP1 DUP5 PUSH2 0xFBC JUMP JUMPDEST PUSH2 0x5EA SWAP2 SWAP1 PUSH2 0xFD3 JUMP JUMPDEST PUSH1 0xB SLOAD SWAP1 SWAP10 POP PUSH1 0x64 SWAP1 PUSH2 0x590 SWAP1 DUP4 PUSH2 0xFBC JUMP JUMPDEST DUP5 PUSH1 0x64 DUP5 PUSH1 0x6 PUSH1 0x0 ADD SLOAD PUSH2 0x611 SWAP2 SWAP1 PUSH2 0xFBC JUMP JUMPDEST PUSH2 0x61B SWAP2 SWAP1 PUSH2 0xFD3 JUMP JUMPDEST PUSH2 0x625 SWAP2 SWAP1 PUSH2 0xFF5 JUMP JUMPDEST DUP7 GT ISZERO PUSH2 0x666 JUMPI PUSH1 0x7 SLOAD PUSH1 0x64 SWAP1 PUSH2 0x63C SWAP1 DUP5 PUSH2 0xFBC JUMP JUMPDEST PUSH2 0x646 SWAP2 SWAP1 PUSH2 0xFD3 JUMP JUMPDEST PUSH1 0x8 SLOAD SWAP1 SWAP10 POP PUSH1 0x64 SWAP1 PUSH2 0x659 SWAP1 DUP4 PUSH2 0xFBC JUMP JUMPDEST PUSH2 0x663 SWAP2 SWAP1 PUSH2 0xFD3 JUMP JUMPDEST SWAP8 POP JUMPDEST POP POP POP POP POP POP POP SWAP3 POP SWAP3 SWAP1 POP JUMP JUMPDEST CALLER PUSH1 0x0 DUP2 DUP2 MSTORE PUSH1 0x5 PUSH1 0x20 MSTORE PUSH1 0x40 DUP2 KECCAK256 DUP1 SLOAD DUP5 SWAP1 DUP2 LT PUSH2 0x695 JUMPI PUSH2 0x695 PUSH2 0xF7D JUMP JUMPDEST SWAP1 PUSH1 0x0 MSTORE PUSH1 0x20 PUSH1 0x0 KECCAK256 SWAP1 PUSH1 0x5 MUL ADD SWAP1 POP PUSH1 0x0 DUP1 PUSH2 0x6B2 DUP5 DUP7 PUSH2 0x44B JUMP JUMPDEST SWAP2 POP SWAP2 POP PUSH1 0x0 DUP3 GT PUSH2 0x706 JUMPI PUSH1 0x40 MLOAD PUSH3 0x461BCD PUSH1 0xE5 SHL DUP2 MSTORE PUSH1 0x20 PUSH1 0x4 DUP3 ADD MSTORE PUSH1 0x1E PUSH1 0x24 DUP3 ADD MSTORE PUSH32 0x5374616B65506F6F6C3A206E6F7468696E6720746F2077697468647261770000 PUSH1 0x44 DUP3 ADD MSTORE PUSH1 0x64 ADD PUSH2 0x4F4 JUMP JUMPDEST TIMESTAMP PUSH1 0x4 DUP5 ADD SSTORE PUSH1 0x40 MLOAD PUSH1 0x1 PUSH1 0x1 PUSH1 0xA0 SHL SUB DUP6 AND SWAP1 DUP4 ISZERO PUSH2 0x8FC MUL SWAP1 DUP5 SWAP1 PUSH1 0x0 DUP2 DUP2 DUP2 DUP6 DUP9 DUP9 CALL SWAP4 POP POP POP POP ISZERO DUP1 ISZERO PUSH2 0x742 JUMPI RETURNDATASIZE PUSH1 0x0 DUP1 RETURNDATACOPY RETURNDATASIZE PUSH1 0x0 REVERT JUMPDEST POP PUSH1 0x1 SLOAD PUSH1 0x40 MLOAD PUSH4 0xA9059CBB PUSH1 0xE0 SHL DUP2 MSTORE PUSH1 0x1 PUSH1 0x1 PUSH1 0xA0 SHL SUB DUP7 DUP2 AND PUSH1 0x4 DUP4 ADD MSTORE PUSH1 0x24 DUP3 ADD DUP5 SWAP1 MSTORE SWAP1 SWAP2 AND SWAP1 PUSH4 0xA9059CBB SWAP1 PUSH1 0x44 ADD PUSH1 0x20 PUSH1 0x40 MLOAD DUP1 DUP4 SUB DUP2 PUSH1 0x0 DUP8 GAS CALL ISZERO DUP1 ISZERO PUSH2 0x796 JUMPI RETURNDATASIZE PUSH1 0x0 DUP1 RETURNDATACOPY RETURNDATASIZE PUSH1 0x0 REVERT JUMPDEST POP POP POP POP PUSH1 0x40 MLOAD RETURNDATASIZE PUSH1 0x1F NOT PUSH1 0x1F DUP3 ADD AND DUP3 ADD DUP1 PUSH1 0x40 MSTORE POP DUP2 ADD SWAP1 PUSH2 0x7BA SWAP2 SWAP1 PUSH2 0x1008 JUMP JUMPDEST POP DUP3 SLOAD PUSH1 0x2 DUP1 SLOAD PUSH1 0x0 SWAP1 PUSH2 0x7CF SWAP1 DUP5 SWAP1 PUSH2 0xFA9 JUMP JUMPDEST SWAP3 POP POP DUP2 SWAP1 SSTORE POP DUP3 PUSH1 0x3 ADD SLOAD PUSH1 0x3 PUSH1 0x0 DUP3 DUP3 SLOAD PUSH2 0x7EC SWAP2 SWAP1 PUSH2 0xFA9 JUMP JUMPDEST SWAP1 SWAP2 SSTORE POP POP PUSH1 0x40 DUP1 MLOAD DUP4 DUP2 MSTORE PUSH1 0x20 DUP2 ADD DUP4 SWAP1 MSTORE DUP7 SWAP2 PUSH1 0x1 PUSH1 0x1 PUSH1 0xA0 SHL SUB DUP8 AND SWAP2 PUSH32 0x2F25270A4D87BEA75DB541CDFE559334A275B4A233520ED6C0A2429667CCA94 SWAP2 ADD PUSH1 0x40 MLOAD DUP1 SWAP2 SUB SWAP1 LOG3 POP POP POP POP POP JUMP JUMPDEST PUSH2 0x846 PUSH2 0xC9C JUMP JUMPDEST PUSH1 0x0 SWAP2 DUP3 MSTORE PUSH1 0x4 PUSH1 0x20 MSTORE PUSH1 0x40 SWAP1 SWAP2 KECCAK256 SSTORE JUMP JUMPDEST PUSH1 0x5 PUSH1 0x20 MSTORE DUP2 PUSH1 0x0 MSTORE PUSH1 0x40 PUSH1 0x0 KECCAK256 DUP2 DUP2 SLOAD DUP2 LT PUSH2 0x874 JUMPI PUSH1 0x0 DUP1 REVERT JUMPDEST PUSH1 0x0 SWAP2 DUP3 MSTORE PUSH1 0x20 SWAP1 SWAP2 KECCAK256 PUSH1 0x5 SWAP1 SWAP2 MUL ADD DUP1 SLOAD PUSH1 0x1 DUP3 ADD SLOAD PUSH1 0x2 DUP4 ADD SLOAD PUSH1 0x3 DUP5 ADD SLOAD PUSH1 0x4 SWAP1 SWAP5 ADD SLOAD SWAP3 SWAP6 POP SWAP1 SWAP4 POP SWAP2 SWAP1 DUP6 JUMP JUMPDEST PUSH2 0x8AE PUSH2 0xC9C JUMP JUMPDEST PUSH2 0x8B6 PUSH2 0xCF6 JUMP JUMPDEST JUMP JUMPDEST PUSH2 0x8C0 PUSH2 0xC9C JUMP JUMPDEST PUSH1 0x40 DUP1 MLOAD PUSH1 0x60 DUP1 DUP3 ADD DUP4 MSTORE SWAP11 DUP2 MSTORE PUSH1 0x20 DUP1 DUP3 ADD SWAP11 SWAP1 SWAP11 MSTORE DUP2 ADD SWAP8 SWAP1 SWAP8 MSTORE DUP7 MLOAD DUP1 DUP11 ADD DUP9 MSTORE SWAP6 DUP7 MSTORE DUP6 DUP9 ADD SWAP5 SWAP1 SWAP5 MSTORE SWAP4 DUP6 ADD SWAP2 SWAP1 SWAP2 MSTORE DUP4 MLOAD SWAP6 DUP7 ADD DUP5 MSTORE DUP1 DUP7 MSTORE SWAP4 DUP6 ADD DUP3 SWAP1 MSTORE SWAP4 SWAP1 SWAP2 ADD DUP4 SWAP1 MSTORE PUSH1 0x6 SWAP2 SWAP1 SWAP2 SSTORE PUSH1 0x7 SSTORE PUSH1 0x8 SSTORE JUMP JUMPDEST PUSH1 0x1 PUSH1 0x1 PUSH1 0xA0 SHL SUB DUP3 AND PUSH1 0x0 SWAP1 DUP2 MSTORE PUSH1 0x5 PUSH1 0x20 MSTORE PUSH1 0x40 DUP2 KECCAK256 DUP1 SLOAD DUP4 SWAP1 DUP2 LT PUSH2 0x944 JUMPI PUSH2 0x944 PUSH2 0xF7D JUMP JUMPDEST SWAP1 PUSH1 0x0 MSTORE PUSH1 0x20 PUSH1 0x0 KECCAK256 SWAP1 PUSH1 0x5 MUL ADD PUSH1 0x2 ADD SLOAD SWAP1 POP JUMPDEST SWAP3 SWAP2 POP POP JUMP JUMPDEST PUSH2 0x967 PUSH2 0xC9C JUMP JUMPDEST PUSH2 0x8B6 PUSH1 0x0 PUSH2 0xD4B JUMP JUMPDEST PUSH2 0x979 PUSH2 0xC9C JUMP JUMPDEST PUSH2 0x8B6 PUSH2 0xD9B JUMP JUMPDEST PUSH2 0x989 PUSH2 0xDDE JUMP JUMPDEST PUSH1 0x0 DUP2 DUP2 MSTORE PUSH1 0x4 PUSH1 0x20 MSTORE PUSH1 0x40 DUP2 KECCAK256 SLOAD SWAP1 SUB PUSH2 0x9F0 JUMPI PUSH1 0x40 MLOAD PUSH3 0x461BCD PUSH1 0xE5 SHL DUP2 MSTORE PUSH1 0x20 PUSH1 0x4 DUP3 ADD MSTORE PUSH1 0x21 PUSH1 0x24 DUP3 ADD MSTORE PUSH32 0x7468657265206973206E6F20706C616E2062792074686973206475726174696F PUSH1 0x44 DUP3 ADD MSTORE PUSH1 0x37 PUSH1 0xF9 SHL PUSH1 0x64 DUP3 ADD MSTORE PUSH1 0x84 ADD PUSH2 0x4F4 JUMP JUMPDEST CALLER CALLVALUE TIMESTAMP PUSH1 0x0 PUSH2 0x9FF DUP6 DUP4 PUSH2 0xFF5 JUMP JUMPDEST PUSH1 0x0 DUP7 DUP2 MSTORE PUSH1 0x4 PUSH1 0x20 MSTORE PUSH1 0x40 DUP2 KECCAK256 SLOAD SWAP2 SWAP3 POP SWAP1 PUSH8 0xDE0B6B3A7640000 SWAP1 PUSH2 0xA26 SWAP1 DUP7 PUSH2 0xFBC JUMP JUMPDEST PUSH2 0xA30 SWAP2 SWAP1 PUSH2 0xFD3 JUMP JUMPDEST PUSH1 0x1 PUSH1 0x1 PUSH1 0xA0 SHL SUB DUP7 AND PUSH1 0x0 SWAP1 DUP2 MSTORE PUSH1 0x5 PUSH1 0x20 DUP2 DUP2 MSTORE PUSH1 0x40 DUP1 DUP5 KECCAK256 DUP2 MLOAD PUSH1 0xA0 DUP2 ADD DUP4 MSTORE DUP11 DUP2 MSTORE DUP1 DUP5 ADD DUP11 DUP2 MSTORE SWAP3 DUP2 ADD DUP10 DUP2 MSTORE PUSH1 0x60 DUP3 ADD DUP9 DUP2 MSTORE PUSH1 0x80 DUP4 ADD DUP9 DUP2 MSTORE DUP5 SLOAD PUSH1 0x1 DUP2 DUP2 ADD DUP8 SSTORE SWAP6 DUP11 MSTORE SWAP7 DUP10 KECCAK256 SWAP4 MLOAD SWAP7 SWAP1 SWAP8 MUL SWAP1 SWAP3 ADD SWAP5 DUP6 SSTORE SWAP3 MLOAD SWAP2 DUP5 ADD SWAP2 SWAP1 SWAP2 SSTORE SWAP1 MLOAD PUSH1 0x2 DUP1 DUP5 ADD SWAP2 SWAP1 SWAP2 SSTORE SWAP1 MLOAD PUSH1 0x3 DUP4 ADD SSTORE SWAP2 MLOAD PUSH1 0x4 SWAP1 SWAP2 ADD SSTORE DUP1 SLOAD SWAP3 SWAP4 POP DUP7 SWAP3 SWAP1 SWAP2 SWAP1 PUSH2 0xAC3 SWAP1 DUP5 SWAP1 PUSH2 0xFF5 JUMP JUMPDEST SWAP3 POP POP DUP2 SWAP1 SSTORE POP DUP1 PUSH1 0x3 PUSH1 0x0 DUP3 DUP3 SLOAD PUSH2 0xADC SWAP2 SWAP1 PUSH2 0xFF5 JUMP JUMPDEST SWAP1 SWAP2 SSTORE POP POP PUSH1 0x1 PUSH1 0x1 PUSH1 0xA0 SHL SUB DUP6 AND PUSH1 0x0 SWAP1 DUP2 MSTORE PUSH1 0x5 PUSH1 0x20 MSTORE PUSH1 0x40 SWAP1 KECCAK256 SLOAD PUSH2 0xB06 SWAP1 PUSH1 0x1 SWAP1 PUSH2 0xFA9 JUMP JUMPDEST PUSH1 0x40 DUP1 MLOAD DUP7 DUP2 MSTORE PUSH1 0x20 DUP2 ADD DUP7 SWAP1 MSTORE SWAP1 DUP2 ADD DUP5 SWAP1 MSTORE PUSH1 0x60 DUP2 ADD DUP4 SWAP1 MSTORE PUSH1 0x1 PUSH1 0x1 PUSH1 0xA0 SHL SUB DUP8 AND SWAP1 PUSH32 0x72E5F615EBC79A295430CC50E3CDF038A03D48B17F7EF4586AB25A1D481DE695 SWAP1 PUSH1 0x80 ADD PUSH1 0x40 MLOAD DUP1 SWAP2 SUB SWAP1 LOG3 POP POP POP POP POP POP JUMP JUMPDEST PUSH2 0xB69 PUSH2 0xC9C JUMP JUMPDEST PUSH1 0x1 SLOAD PUSH1 0x40 MLOAD PUSH4 0xA9059CBB PUSH1 0xE0 SHL DUP2 MSTORE PUSH1 0x1 PUSH1 0x1 PUSH1 0xA0 SHL SUB DUP5 DUP2 AND PUSH1 0x4 DUP4 ADD MSTORE PUSH1 0x24 DUP3 ADD DUP5 SWAP1 MSTORE SWAP1 SWAP2 AND SWAP1 PUSH4 0xA9059CBB SWAP1 PUSH1 0x44 ADD PUSH1 0x20 PUSH1 0x40 MLOAD DUP1 DUP4 SUB DUP2 PUSH1 0x0 DUP8 GAS CALL ISZERO DUP1 ISZERO PUSH2 0xBBC JUMPI RETURNDATASIZE PUSH1 0x0 DUP1 RETURNDATACOPY RETURNDATASIZE PUSH1 0x0 REVERT JUMPDEST POP POP POP POP PUSH1 0x40 MLOAD RETURNDATASIZE PUSH1 0x1F NOT PUSH1 0x1F DUP3 ADD AND DUP3 ADD DUP1 PUSH1 0x40 MSTORE POP DUP2 ADD SWAP1 PUSH2 0xBE0 SWAP2 SWAP1 PUSH2 0x1008 JUMP JUMPDEST POP POP POP JUMP JUMPDEST PUSH2 0xBED PUSH2 0xC9C JUMP JUMPDEST PUSH1 0x40 MLOAD PUSH1 0x1 PUSH1 0x1 PUSH1 0xA0 SHL SUB DUP4 AND SWAP1 DUP3 ISZERO PUSH2 0x8FC MUL SWAP1 DUP4 SWAP1 PUSH1 0x0 DUP2 DUP2 DUP2 DUP6 DUP9 DUP9 CALL SWAP4 POP POP POP POP ISZERO DUP1 ISZERO PUSH2 0xBE0 JUMPI RETURNDATASIZE PUSH1 0x0 DUP1 RETURNDATACOPY RETURNDATASIZE PUSH1 0x0 REVERT JUMPDEST PUSH2 0xC2B PUSH2 0xC9C JUMP JUMPDEST PUSH1 0x1 PUSH1 0x1 PUSH1 0xA0 SHL SUB DUP2 AND PUSH2 0xC90 JUMPI PUSH1 0x40 MLOAD PUSH3 0x461BCD PUSH1 0xE5 SHL DUP2 MSTORE PUSH1 0x20 PUSH1 0x4 DUP3 ADD MSTORE PUSH1 0x26 PUSH1 0x24 DUP3 ADD MSTORE PUSH32 0x4F776E61626C653A206E6577206F776E657220697320746865207A65726F2061 PUSH1 0x44 DUP3 ADD MSTORE PUSH6 0x646472657373 PUSH1 0xD0 SHL PUSH1 0x64 DUP3 ADD MSTORE PUSH1 0x84 ADD PUSH2 0x4F4 JUMP JUMPDEST PUSH2 0xC99 DUP2 PUSH2 0xD4B JUMP JUMPDEST POP JUMP JUMPDEST PUSH1 0x0 SLOAD PUSH1 0x1 PUSH1 0x1 PUSH1 0xA0 SHL SUB AND CALLER EQ PUSH2 0x8B6 JUMPI PUSH1 0x40 MLOAD PUSH3 0x461BCD PUSH1 0xE5 SHL DUP2 MSTORE PUSH1 0x20 PUSH1 0x4 DUP3 ADD DUP2 SWAP1 MSTORE PUSH1 0x24 DUP3 ADD MSTORE PUSH32 0x4F776E61626C653A2063616C6C6572206973206E6F7420746865206F776E6572 PUSH1 0x44 DUP3 ADD MSTORE PUSH1 0x64 ADD PUSH2 0x4F4 JUMP JUMPDEST PUSH2 0xCFE PUSH2 0xE2B JUMP JUMPDEST PUSH1 0x0 DUP1 SLOAD PUSH1 0xFF PUSH1 0xA0 SHL NOT AND SWAP1 SSTORE PUSH32 0x5DB9EE0A495BF2E6FF9C91A7834C1BA4FDD244A5E8AA4E537BD38AEAE4B073AA CALLER JUMPDEST PUSH1 0x40 MLOAD PUSH1 0x1 PUSH1 0x1 PUSH1 0xA0 SHL SUB SWAP1 SWAP2 AND DUP2 MSTORE PUSH1 0x20 ADD PUSH1 0x40 MLOAD DUP1 SWAP2 SUB SWAP1 LOG1 JUMP JUMPDEST PUSH1 0x0 DUP1 SLOAD PUSH1 0x1 PUSH1 0x1 PUSH1 0xA0 SHL SUB DUP4 DUP2 AND PUSH1 0x1 PUSH1 0x1 PUSH1 0xA0 SHL SUB NOT DUP4 AND DUP2 OR DUP5 SSTORE PUSH1 0x40 MLOAD SWAP2 SWAP1 SWAP3 AND SWAP3 DUP4 SWAP2 PUSH32 0x8BE0079C531659141344CD1FD0A4F28419497F9722A3DAAFE3B4186F6B6457E0 SWAP2 SWAP1 LOG3 POP POP JUMP JUMPDEST PUSH2 0xDA3 PUSH2 0xDDE JUMP JUMPDEST PUSH1 0x0 DUP1 SLOAD PUSH1 0xFF PUSH1 0xA0 SHL NOT AND PUSH1 0x1 PUSH1 0xA0 SHL OR SWAP1 SSTORE PUSH32 0x62E78CEA01BEE320CD4E420270B5EA74000D11B0C9F74754EBDBFC544B05A258 PUSH2 0xD2E CALLER SWAP1 JUMP JUMPDEST PUSH1 0x0 SLOAD PUSH1 0x1 PUSH1 0xA0 SHL SWAP1 DIV PUSH1 0xFF AND ISZERO PUSH2 0x8B6 JUMPI PUSH1 0x40 MLOAD PUSH3 0x461BCD PUSH1 0xE5 SHL DUP2 MSTORE PUSH1 0x20 PUSH1 0x4 DUP3 ADD MSTORE PUSH1 0x10 PUSH1 0x24 DUP3 ADD MSTORE PUSH16 0x14185D5CD8589B194E881C185D5CD959 PUSH1 0x82 SHL PUSH1 0x44 DUP3 ADD MSTORE PUSH1 0x64 ADD PUSH2 0x4F4 JUMP JUMPDEST PUSH1 0x0 SLOAD PUSH1 0x1 PUSH1 0xA0 SHL SWAP1 DIV PUSH1 0xFF AND PUSH2 0x8B6 JUMPI PUSH1 0x40 MLOAD PUSH3 0x461BCD PUSH1 0xE5 SHL DUP2 MSTORE PUSH1 0x20 PUSH1 0x4 DUP3 ADD MSTORE PUSH1 0x14 PUSH1 0x24 DUP3 ADD MSTORE PUSH20 0x14185D5CD8589B194E881B9BDD081C185D5CD959 PUSH1 0x62 SHL PUSH1 0x44 DUP3 ADD MSTORE PUSH1 0x64 ADD PUSH2 0x4F4 JUMP JUMPDEST DUP1 CALLDATALOAD PUSH1 0x1 PUSH1 0x1 PUSH1 0xA0 SHL SUB DUP2 AND DUP2 EQ PUSH2 0xE92 JUMPI PUSH1 0x0 DUP1 REVERT JUMPDEST SWAP2 SWAP1 POP JUMP JUMPDEST PUSH1 0x0 DUP1 PUSH1 0x40 DUP4 DUP6 SUB SLT ISZERO PUSH2 0xEAA JUMPI PUSH1 0x0 DUP1 REVERT JUMPDEST PUSH2 0xEB3 DUP4 PUSH2 0xE7B JUMP JUMPDEST SWAP5 PUSH1 0x20 SWAP4 SWAP1 SWAP4 ADD CALLDATALOAD SWAP4 POP POP POP JUMP JUMPDEST PUSH1 0x0 PUSH1 0x20 DUP3 DUP5 SUB SLT ISZERO PUSH2 0xED3 JUMPI PUSH1 0x0 DUP1 REVERT JUMPDEST POP CALLDATALOAD SWAP2 SWAP1 POP JUMP JUMPDEST PUSH1 0x0 DUP1 PUSH1 0x40 DUP4 DUP6 SUB SLT ISZERO PUSH2 0xEED JUMPI PUSH1 0x0 DUP1 REVERT JUMPDEST POP POP DUP1 CALLDATALOAD SWAP3 PUSH1 0x20 SWAP1 SWAP2 ADD CALLDATALOAD SWAP2 POP JUMP JUMPDEST PUSH1 0x0 DUP1 PUSH1 0x0 DUP1 PUSH1 0x0 DUP1 PUSH1 0x0 DUP1 PUSH1 0x0 PUSH2 0x120 DUP11 DUP13 SUB SLT ISZERO PUSH2 0xF1B JUMPI PUSH1 0x0 DUP1 REVERT JUMPDEST POP POP DUP8 CALLDATALOAD SWAP10 PUSH1 0x20 DUP10 ADD CALLDATALOAD SWAP10 POP PUSH1 0x40 DUP10 ADD CALLDATALOAD SWAP9 PUSH1 0x60 DUP2 ADD CALLDATALOAD SWAP9 POP PUSH1 0x80 DUP2 ADD CALLDATALOAD SWAP8 POP PUSH1 0xA0 DUP2 ADD CALLDATALOAD SWAP7 POP PUSH1 0xC0 DUP2 ADD CALLDATALOAD SWAP6 POP PUSH1 0xE0 DUP2 ADD CALLDATALOAD SWAP5 POP PUSH2 0x100 ADD CALLDATALOAD SWAP3 POP SWAP1 POP JUMP JUMPDEST PUSH1 0x0 PUSH1 0x20 DUP3 DUP5 SUB SLT ISZERO PUSH2 0xF6D JUMPI PUSH1 0x0 DUP1 REVERT JUMPDEST PUSH2 0xF76 DUP3 PUSH2 0xE7B JUMP JUMPDEST SWAP4 SWAP3 POP POP POP JUMP JUMPDEST PUSH4 0x4E487B71 PUSH1 0xE0 SHL PUSH1 0x0 MSTORE PUSH1 0x32 PUSH1 0x4 MSTORE PUSH1 0x24 PUSH1 0x0 REVERT JUMPDEST PUSH4 0x4E487B71 PUSH1 0xE0 SHL PUSH1 0x0 MSTORE PUSH1 0x11 PUSH1 0x4 MSTORE PUSH1 0x24 PUSH1 0x0 REVERT JUMPDEST DUP2 DUP2 SUB DUP2 DUP2 GT ISZERO PUSH2 0x959 JUMPI PUSH2 0x959 PUSH2 0xF93 JUMP JUMPDEST DUP1 DUP3 MUL DUP2 ISZERO DUP3 DUP3 DIV DUP5 EQ OR PUSH2 0x959 JUMPI PUSH2 0x959 PUSH2 0xF93 JUMP JUMPDEST PUSH1 0x0 DUP3 PUSH2 0xFF0 JUMPI PUSH4 0x4E487B71 PUSH1 0xE0 SHL PUSH1 0x0 MSTORE PUSH1 0x12 PUSH1 0x4 MSTORE PUSH1 0x24 PUSH1 0x0 REVERT JUMPDEST POP DIV SWAP1 JUMP JUMPDEST DUP1 DUP3 ADD DUP1 DUP3 GT ISZERO PUSH2 0x959 JUMPI PUSH2 0x959 PUSH2 0xF93 JUMP JUMPDEST PUSH1 0x0 PUSH1 0x20 DUP3 DUP5 SUB SLT ISZERO PUSH2 0x101A JUMPI PUSH1 0x0 DUP1 REVERT JUMPDEST DUP2 MLOAD DUP1 ISZERO ISZERO DUP2 EQ PUSH2 0xF76 JUMPI PUSH1 0x0 DUP1 REVERT INVALID LOG2 PUSH5 0x6970667358 0x22 SLT KECCAK256 0xFC SHL 0x2B 0xD3 SAR 0xEC 0x27 SWAP1 0xFC SELFBALANCE 0x22 SWAP8 0xAF SWAP9 POP CODESIZE DUP5 0xAA 0x5D CODECOPY PUSH4 0x68D18980 RETURN 0xEA SWAP3 DUP12 LOG2 DUP16 ORIGIN PUSH5 0x736F6C6343 STOP ADDMOD GT STOP CALLER "},"methodIdentifiers":{"BLB()":"bfa54b3f","checkPoint1()":"ad33710c","checkPoint2()":"8a2ac397","checkPoint3()":"d5d4d114","investments(address,uint256)":"3e6d9770","loanBLB(address,uint256)":"a2fa0c75","loanBNB(address,uint256)":"c877921c","newInvestment(uint256)":"88f89169","owner()":"8da5cb5b","pause()":"8456cb59","paused()":"5c975abb","pendingWithdrawal(address,uint256)":"2bf0da7e","releaseTime(address,uint256)":"4983c3ab","renounceOwnership()":"715018a6","rewardPlans(uint256)":"88a9931f","setCheckpoints(uint256,uint256,uint256,uint256,uint256,uint256,uint256,uint256,uint256)":"4668d866","setPlan(uint256,uint256)":"3353561d","totalInvestingBNB()":"1dd6781b","totalPendingBLB()":"e88cf1b4","transferOwnership(address)":"f2fde38b","unpause()":"3f4ba83a","withdraw(uint256)":"2e1a7d4d"}}}}}