{"contracts/BEP20/BLBToken.sol":{"BLBToken":{"abi":[{"inputs":[{"internalType":"uint256","name":"_monthlyTime","type":"uint256"},{"internalType":"address","name":"initialAdmin","type":"address"}],"stateMutability":"nonpayable","type":"constructor"},{"anonymous":false,"inputs":[{"indexed":true,"internalType":"address","name":"owner","type":"address"},{"indexed":true,"internalType":"address","name":"spender","type":"address"},{"indexed":false,"internalType":"uint256","name":"value","type":"uint256"}],"name":"Approval","type":"event"},{"anonymous":false,"inputs":[{"indexed":false,"internalType":"address","name":"addr","type":"address"}],"name":"District","type":"event"},{"anonymous":false,"inputs":[{"indexed":false,"internalType":"address","name":"addr","type":"address"},{"indexed":false,"internalType":"uint256","name":"amount","type":"uint256"}],"name":"Restrict","type":"event"},{"anonymous":false,"inputs":[{"indexed":true,"internalType":"bytes32","name":"role","type":"bytes32"},{"indexed":true,"internalType":"bytes32","name":"previousAdminRole","type":"bytes32"},{"indexed":true,"internalType":"bytes32","name":"newAdminRole","type":"bytes32"}],"name":"RoleAdminChanged","type":"event"},{"anonymous":false,"inputs":[{"indexed":true,"internalType":"bytes32","name":"role","type":"bytes32"},{"indexed":true,"internalType":"address","name":"account","type":"address"},{"indexed":true,"internalType":"address","name":"sender","type":"address"}],"name":"RoleGranted","type":"event"},{"anonymous":false,"inputs":[{"indexed":true,"internalType":"bytes32","name":"role","type":"bytes32"},{"indexed":true,"internalType":"address","name":"account","type":"address"},{"indexed":true,"internalType":"address","name":"sender","type":"address"}],"name":"RoleRevoked","type":"event"},{"anonymous":false,"inputs":[{"indexed":false,"internalType":"uint256","name":"fraction","type":"uint256"}],"name":"SetPeriodTransferLimit","type":"event"},{"anonymous":false,"inputs":[{"indexed":false,"internalType":"uint256","name":"_feeAmount","type":"uint256"},{"indexed":false,"internalType":"uint256","name":"_feeFraction","type":"uint256"},{"indexed":false,"internalType":"address","name":"_feeReceiver","type":"address"}],"name":"SetTransactionFee","type":"event"},{"anonymous":false,"inputs":[{"indexed":true,"internalType":"address","name":"from","type":"address"},{"indexed":true,"internalType":"address","name":"to","type":"address"},{"indexed":false,"internalType":"uint256","name":"value","type":"uint256"}],"name":"Transfer","type":"event"},{"inputs":[],"name":"DEFAULT_ADMIN_ROLE","outputs":[{"internalType":"bytes32","name":"","type":"bytes32"}],"stateMutability":"view","type":"function"},{"inputs":[],"name":"DOMAIN_SEPARATOR","outputs":[{"internalType":"bytes32","name":"","type":"bytes32"}],"stateMutability":"view","type":"function"},{"inputs":[],"name":"MINTER_ROLE","outputs":[{"internalType":"bytes32","name":"","type":"bytes32"}],"stateMutability":"view","type":"function"},{"inputs":[],"name":"RESTRICTOR_ROLE","outputs":[{"internalType":"bytes32","name":"","type":"bytes32"}],"stateMutability":"view","type":"function"},{"inputs":[],"name":"TRANSACTION_FEE_SETTER","outputs":[{"internalType":"bytes32","name":"","type":"bytes32"}],"stateMutability":"view","type":"function"},{"inputs":[],"name":"TRANSFER_LIMIT_SETTER","outputs":[{"internalType":"bytes32","name":"","type":"bytes32"}],"stateMutability":"view","type":"function"},{"inputs":[{"internalType":"address","name":"owner","type":"address"},{"internalType":"address","name":"spender","type":"address"}],"name":"allowance","outputs":[{"internalType":"uint256","name":"","type":"uint256"}],"stateMutability":"view","type":"function"},{"inputs":[{"internalType":"address","name":"spender","type":"address"},{"internalType":"uint256","name":"amount","type":"uint256"}],"name":"approve","outputs":[{"internalType":"bool","name":"","type":"bool"}],"stateMutability":"nonpayable","type":"function"},{"inputs":[{"internalType":"address","name":"account","type":"address"}],"name":"balanceOf","outputs":[{"internalType":"uint256","name":"","type":"uint256"}],"stateMutability":"view","type":"function"},{"inputs":[{"internalType":"uint256","name":"amount","type":"uint256"}],"name":"burn","outputs":[],"stateMutability":"nonpayable","type":"function"},{"inputs":[{"internalType":"address","name":"account","type":"address"},{"internalType":"uint256","name":"amount","type":"uint256"}],"name":"burnFrom","outputs":[],"stateMutability":"nonpayable","type":"function"},{"inputs":[{"internalType":"address","name":"addr","type":"address"}],"name":"canSpend","outputs":[{"internalType":"uint256","name":"amount","type":"uint256"}],"stateMutability":"view","type":"function"},{"inputs":[],"name":"cap","outputs":[{"internalType":"uint256","name":"","type":"uint256"}],"stateMutability":"view","type":"function"},{"inputs":[],"name":"decimals","outputs":[{"internalType":"uint8","name":"","type":"uint8"}],"stateMutability":"view","type":"function"},{"inputs":[{"internalType":"address","name":"spender","type":"address"},{"internalType":"uint256","name":"subtractedValue","type":"uint256"}],"name":"decreaseAllowance","outputs":[{"internalType":"bool","name":"","type":"bool"}],"stateMutability":"nonpayable","type":"function"},{"inputs":[{"internalType":"address","name":"addr","type":"address"}],"name":"district","outputs":[],"stateMutability":"nonpayable","type":"function"},{"inputs":[],"name":"feeDetails","outputs":[{"internalType":"uint256","name":"","type":"uint256"},{"internalType":"uint256","name":"","type":"uint256"},{"internalType":"address","name":"","type":"address"}],"stateMutability":"view","type":"function"},{"inputs":[{"internalType":"bytes32","name":"role","type":"bytes32"}],"name":"getRoleAdmin","outputs":[{"internalType":"bytes32","name":"","type":"bytes32"}],"stateMutability":"view","type":"function"},{"inputs":[{"internalType":"bytes32","name":"role","type":"bytes32"},{"internalType":"uint256","name":"index","type":"uint256"}],"name":"getRoleMember","outputs":[{"internalType":"address","name":"","type":"address"}],"stateMutability":"view","type":"function"},{"inputs":[{"internalType":"bytes32","name":"role","type":"bytes32"}],"name":"getRoleMemberCount","outputs":[{"internalType":"uint256","name":"","type":"uint256"}],"stateMutability":"view","type":"function"},{"inputs":[{"internalType":"bytes32","name":"role","type":"bytes32"},{"internalType":"address","name":"account","type":"address"}],"name":"grantRole","outputs":[],"stateMutability":"nonpayable","type":"function"},{"inputs":[{"internalType":"bytes32","name":"role","type":"bytes32"},{"internalType":"address","name":"account","type":"address"}],"name":"hasRole","outputs":[{"internalType":"bool","name":"","type":"bool"}],"stateMutability":"view","type":"function"},{"inputs":[{"internalType":"address","name":"spender","type":"address"},{"internalType":"uint256","name":"addedValue","type":"uint256"}],"name":"increaseAllowance","outputs":[{"internalType":"bool","name":"","type":"bool"}],"stateMutability":"nonpayable","type":"function"},{"inputs":[{"internalType":"address","name":"addr","type":"address"}],"name":"isRestricted","outputs":[{"internalType":"bool","name":"","type":"bool"}],"stateMutability":"view","type":"function"},{"inputs":[{"internalType":"address","name":"account","type":"address"},{"internalType":"uint256","name":"amount","type":"uint256"}],"name":"mint","outputs":[],"stateMutability":"nonpayable","type":"function"},{"inputs":[{"internalType":"address[]","name":"accounts","type":"address[]"},{"internalType":"uint256","name":"amount","type":"uint256"}],"name":"mintBatch","outputs":[],"stateMutability":"nonpayable","type":"function"},{"inputs":[],"name":"name","outputs":[{"internalType":"string","name":"","type":"string"}],"stateMutability":"view","type":"function"},{"inputs":[{"internalType":"address","name":"owner","type":"address"}],"name":"nonces","outputs":[{"internalType":"uint256","name":"","type":"uint256"}],"stateMutability":"view","type":"function"},{"inputs":[],"name":"monthlyLimit","outputs":[{"internalType":"uint256","name":"","type":"uint256"}],"stateMutability":"view","type":"function"},{"inputs":[{"internalType":"address","name":"owner","type":"address"},{"internalType":"address","name":"spender","type":"address"},{"internalType":"uint256","name":"value","type":"uint256"},{"internalType":"uint256","name":"deadline","type":"uint256"},{"internalType":"uint8","name":"v","type":"uint8"},{"internalType":"bytes32","name":"r","type":"bytes32"},{"internalType":"bytes32","name":"s","type":"bytes32"}],"name":"permit","outputs":[],"stateMutability":"nonpayable","type":"function"},{"inputs":[{"internalType":"bytes32","name":"role","type":"bytes32"},{"internalType":"address","name":"account","type":"address"}],"name":"renounceRole","outputs":[],"stateMutability":"nonpayable","type":"function"},{"inputs":[{"internalType":"address","name":"addr","type":"address"},{"internalType":"uint256","name":"amount","type":"uint256"}],"name":"restrict","outputs":[],"stateMutability":"nonpayable","type":"function"},{"inputs":[{"internalType":"bytes32","name":"role","type":"bytes32"},{"internalType":"address","name":"account","type":"address"}],"name":"revokeRole","outputs":[],"stateMutability":"nonpayable","type":"function"},{"inputs":[{"internalType":"uint256","name":"fraction","type":"uint256"}],"name":"setPeriodTransferLimit","outputs":[],"stateMutability":"nonpayable","type":"function"},{"inputs":[{"internalType":"uint256","name":"_feeAmount","type":"uint256"},{"internalType":"uint256","name":"_feeFraction","type":"uint256"},{"internalType":"address","name":"_feeReceiver","type":"address"}],"name":"setTransactionFee","outputs":[],"stateMutability":"nonpayable","type":"function"},{"inputs":[{"internalType":"bytes4","name":"interfaceId","type":"bytes4"}],"name":"supportsInterface","outputs":[{"internalType":"bool","name":"","type":"bool"}],"stateMutability":"view","type":"function"},{"inputs":[],"name":"symbol","outputs":[{"internalType":"string","name":"","type":"string"}],"stateMutability":"view","type":"function"},{"inputs":[],"name":"totalSupply","outputs":[{"internalType":"uint256","name":"","type":"uint256"}],"stateMutability":"view","type":"function"},{"inputs":[{"internalType":"uint256","name":"transferingAmount","type":"uint256"}],"name":"transactionFee","outputs":[{"internalType":"uint256","name":"fee","type":"uint256"}],"stateMutability":"view","type":"function"},{"inputs":[{"internalType":"address","name":"to","type":"address"},{"internalType":"uint256","name":"amount","type":"uint256"}],"name":"transfer","outputs":[{"internalType":"bool","name":"","type":"bool"}],"stateMutability":"nonpayable","type":"function"},{"inputs":[{"internalType":"address","name":"from","type":"address"},{"internalType":"address","name":"to","type":"address"},{"internalType":"uint256","name":"amount","type":"uint256"}],"name":"transferFrom","outputs":[{"internalType":"bool","name":"","type":"bool"}],"stateMutability":"nonpayable","type":"function"}],"evm":{"bytecode":{"linkReferences":{},"object":"6101a06040523480156200001257600080fd5b506040516200321a3803806200321a833981016040819052620000359162000437565b816040518060400160405280600f81526020016e109bdd5b991b195cdcc815dbdc9b19608a1b81525080604051806040016040528060018152602001603160f81b81525062000089620002d860201b60201c565b6200009690600a62000589565b620000a69063dbf0ee806200059a565b6040518060400160405280600f81526020016e109bdd5b991b195cdcc815dbdc9b19608a1b8152506040518060400160405280600381526020016221262160e91b8152508160039081620000fb919062000660565b5060046200010a828262000660565b50505060008111620001625760405162461bcd60e51b815260206004820152601560248201527f45524332304361707065643a2063617020697320300000000000000000000000604482015260640160405180910390fd5b60805281516020808401919091208251918301919091206101008290526101208190524660c0527f8b73c3c69bb8fe3d512ecc4cf759cc79239f7b179b0ffacaa9a75d522b39400f620001fa8184846040805160208101859052908101839052606081018290524660808201523060a082015260009060c0016040516020818303038152906040528051906020012090509392505050565b60a0523060e05261014052505042610160525050506101805262000220600082620002dd565b6200024c7f9f2df0fed2c77648de5860a4cc508cd0818c85b8b8a1ab4ceeef8d981c8956a682620002dd565b620002787fd0ac125722f4b4565ab5e91b234e50c4c6f541672aea816ba090a0ea349ed93f82620002dd565b620002a47fb24c1025622fe38445b605f5c1a9bb02be7f6522d24c8a159e5e47e62dbaaecf82620002dd565b620002d07f23ab0e580195340a5a67800cafa0615701edfa22f79534a52851336e3cf8376a82620002dd565b50506200072c565b601290565b620002f482826200032060201b6200103f1760201c565b60008281526008602090815260409091206200031b918390620010c5620003c5821b17901c565b505050565b60008281526007602090815260408083206001600160a01b038516845290915290205460ff16620003c15760008281526007602090815260408083206001600160a01b03851684529091529020805460ff19166001179055620003803390565b6001600160a01b0316816001600160a01b0316837f2f8788117e7eff1d82e926ec794901d17c78024a50270940304540a733656f0d60405160405180910390a45b5050565b6000620003dc836001600160a01b038416620003e5565b90505b92915050565b60008181526001830160205260408120546200042e57508154600181810184556000848152602080822090930184905584548482528286019093526040902091909155620003df565b506000620003df565b600080604083850312156200044b57600080fd5b825160208401519092506001600160a01b03811681146200046b57600080fd5b809150509250929050565b634e487b7160e01b600052601160045260246000fd5b600181815b80851115620004cd578160001904821115620004b157620004b162000476565b80851615620004bf57918102915b93841c939080029062000491565b509250929050565b600082620004e657506001620003df565b81620004f557506000620003df565b81600181146200050e5760028114620005195762000539565b6001915050620003df565b60ff8411156200052d576200052d62000476565b50506001821b620003df565b5060208310610133831016604e8410600b84101617156200055e575081810a620003df565b6200056a83836200048c565b806000190482111562000581576200058162000476565b029392505050565b6000620003dc60ff841683620004d5565b6000816000190483118215151615620005b757620005b762000476565b500290565b634e487b7160e01b600052604160045260246000fd5b600181811c90821680620005e757607f821691505b6020821081036200060857634e487b7160e01b600052602260045260246000fd5b50919050565b601f8211156200031b57600081815260208120601f850160051c81016020861015620006375750805b601f850160051c820191505b81811015620006585782815560010162000643565b505050505050565b81516001600160401b038111156200067c576200067c620005bc565b62000694816200068d8454620005d2565b846200060e565b602080601f831160018114620006cc5760008415620006b35750858301515b600019600386901b1c1916600185901b17855562000658565b600085815260208120601f198616915b82811015620006fd57888601518255948401946001909101908401620006dc565b50858210156200071c5787850151600019600388901b60f8161c191681555b5050505050600190811b01905550565b60805160a05160c05160e0516101005161012051610140516101605161018051612a61620007b9600039600081816107df01526121e401526000818161080301526122080152600061151701526000611566015260006115410152600061149a015260006114c4015260006114ee0152600081816103940152818161078d01526119cf0152612a616000f3fe608060405234801561001057600080fd5b50600436106102535760003560e01c806351bcee2711610146578063a9059cbb116100c3578063d539139311610087578063d53913931461058f578063d547741f146105a4578063dd62ed3e146105b7578063e162533c146105ca578063f74929e0146105dd578063fad71be2146105e657600080fd5b8063a9059cbb14610530578063b6afc4dc14610543578063c01bc98214610556578063ca15c87314610569578063d505accf1461057c57600080fd5b80639010d07c1161010a5780639010d07c146104cf57806391d14854146104fa57806395d89b411461050d578063a217fddf14610515578063a457c2d71461051d57600080fd5b806351bcee27146104465780635d1edb871461046d57806370a082311461048057806379cc6790146104a95780637ecebe00146104bc57600080fd5b80632f2ff15d116101d4578063367065de11610198578063367065de146103d357806339509351146103e65780633e0b2cda146103f957806340c10f191461042057806342966c681461043357600080fd5b80632f2ff15d14610370578063313ce56714610383578063355274ea146103925780633644e515146103b857806336568abe146103c057600080fd5b806318160ddd1161021b57806318160ddd146102f25780631f2c5443146102fa578063234eaedc1461032757806323b872dd1461033a578063248a9ca31461034d57600080fd5b806301ffc9a71461025857806306fdde0314610280578063095ea7b3146102955780630ecbd033146102a85780631681f830146102dd575b600080fd5b61026b610266366004612511565b6105f9565b60405190151581526020015b60405180910390f35b610288610624565b6040516102779190612567565b61026b6102a33660046125b1565b6106b6565b6102cf7fd0ac125722f4b4565ab5e91b234e50c4c6f541672aea816ba090a0ea349ed93f81565b604051908152602001610277565b6102f06102eb3660046125b1565b6106ce565b005b6002546102cf565b600a54600954600b546040805193845260208401929092526001600160a01b031690820152606001610277565b6102cf6103353660046125db565b61074c565b61026b6103483660046125f6565b6108ce565b6102cf61035b366004612632565b60009081526007602052604090206001015490565b6102f061037e36600461264b565b6108f2565b60405160128152602001610277565b7f00000000000000000000000000000000000000000000000000000000000000006102cf565b6102cf61091c565b6102f06103ce36600461264b565b61092b565b6102f06103e1366004612677565b6109ae565b61026b6103f43660046125b1565b610b42565b6102cf7fb24c1025622fe38445b605f5c1a9bb02be7f6522d24c8a159e5e47e62dbaaecf81565b6102f061042e3660046125b1565b610b64565b6102f0610441366004612632565b610b86565b6102cf7f23ab0e580195340a5a67800cafa0615701edfa22f79534a52851336e3cf8376a81565b6102cf61047b366004612632565b610b93565b6102cf61048e3660046125db565b6001600160a01b031660009081526020819052604090205490565b6102f06104b73660046125b1565b610bca565b6102cf6104ca3660046125db565b610bdf565b6104e26104dd3660046126ac565b610bfd565b6040516001600160a01b039091168152602001610277565b61026b61050836600461264b565b610c1c565b610288610c47565b6102cf600081565b61026b61052b3660046125b1565b610c56565b61026b61053e3660046125b1565b610cd1565b6102f06105513660046126ce565b610cdf565b61026b6105643660046125db565b610d53565b6102cf610577366004612632565b610d60565b6102f061058a366004612749565b610d77565b6102cf6000805160206129ec83398151915281565b6102f06105b236600461264b565b610edb565b6102cf6105c53660046127bc565b610f00565b6102f06105d83660046125db565b610f2b565b6102cf60105481565b6102f06105f4366004612632565b610f60565b60006001600160e01b03198216635a05180f60e01b148061061e575061061e826110da565b92915050565b606060038054610633906127e6565b80601f016020809104026020016040519081016040528092919081815260200182805461065f906127e6565b80156106ac5780601f10610681576101008083540402835291602001916106ac565b820191906000526020600020905b81548152906001019060200180831161068f57829003601f168201915b5050505050905090565b6000336106c481858561110f565b5060019392505050565b7f23ab0e580195340a5a67800cafa0615701edfa22f79534a52851336e3cf8376a6106f881611234565b610704600c848461123e565b50604080516001600160a01b0385168152602081018490527fa1b8d777c2527547849718a04f45b8e5b0f29119c47f9298b20a85f0ad275424910160405180910390a1505050565b600061075782610d53565b156107675761061e600c83611254565b61077f6000805160206129ec83398151915283610c1c565b156107b15760025461061e907f0000000000000000000000000000000000000000000000000000000000000000612830565b601054620f4240036107db576001600160a01b03821660009081526020819052604090205461061e565b60007f00000000000000000000000000000000000000000000000000000000000000006108287f000000000000000000000000000000000000000000000000000000000000000042612830565b6108329190612847565b6001600160a01b0384166000908152600f60205260409020600101540361086e57506001600160a01b0382166000908152600f60205260409020545b6000620f424060105483610897876001600160a01b031660009081526020819052604090205490565b6108a19190612869565b6108ab9190612881565b6108b59190612847565b90506108c18282612830565b949350505050565b919050565b6000336108dc858285611269565b6108e78585856112e3565b506001949350505050565b60008281526007602052604090206001015461090d81611234565b610917838361146b565b505050565b600061092661148d565b905090565b6001600160a01b03811633146109a05760405162461bcd60e51b815260206004820152602f60248201527f416363657373436f6e74726f6c3a2063616e206f6e6c792072656e6f756e636560448201526e103937b632b9903337b91039b2b63360891b60648201526084015b60405180910390fd5b6109aa82826115b4565b5050565b7fd0ac125722f4b4565ab5e91b234e50c4c6f541672aea816ba090a0ea349ed93f6109d881611234565b8215806109e3575083155b610a635760405162461bcd60e51b815260206004820152604560248201527f5472616e73616374696f6e4665653a2043616e6e6f742073657420666565416d60448201527f6f756e7420616e64206665654672616374696f6e206174207468652073616d656064820152642074696d6560d81b608482015260a401610997565b620186a0831115610ad25760405162461bcd60e51b815260206004820152603360248201527f5472616e73616374696f6e4665653a20557020746f20313025207472616e736160448201527218dd1a5bdb9199594818d85b881899481cd95d606a1b6064820152608401610997565b600a8490556009839055600b80546001600160a01b0319166001600160a01b0384169081179091556040805186815260208101869052908101919091527fd75a7916f83ee976ae8e04e3f9b46c9b16b546303f09f1fc20eccb6cd6bc476d9060600160405180910390a150505050565b6000336106c4818585610b558383610f00565b610b5f9190612869565b61110f565b6000805160206129ec833981519152610b7c81611234565b61091783836115d6565b610b9033826115e0565b50565b600a5460009015610ba6575050600a5490565b600954156108c957620f424060095483610bc09190612881565b61061e9190612847565b610bd5823383611269565b6109aa82826115e0565b6001600160a01b03811660009081526005602052604081205461061e565b6000828152600860205260408120610c159083611728565b9392505050565b60009182526007602090815260408084206001600160a01b0393909316845291905290205460ff1690565b606060048054610633906127e6565b60003381610c648286610f00565b905083811015610cc45760405162461bcd60e51b815260206004820152602560248201527f45524332303a2064656372656173656420616c6c6f77616e63652062656c6f77604482015264207a65726f60d81b6064820152608401610997565b6108e7828686840361110f565b6000336106c48185856112e3565b6000805160206129ec833981519152610cf781611234565b60005b61ffff8116841115610d4c57610d3a85858361ffff16818110610d1f57610d1f6128a0565b9050602002016020810190610d3491906125db565b846115d6565b80610d44816128b6565b915050610cfa565b5050505050565b600061061e600c83611734565b600081815260086020526040812061061e90611749565b83421115610dc75760405162461bcd60e51b815260206004820152601d60248201527f45524332305065726d69743a206578706972656420646561646c696e650000006044820152606401610997565b60007f6e71edae12b1b97f4d1f60370fef10105fa2faae0126114a169c64845d6126c9888888610df68c611753565b6040805160208101969096526001600160a01b0394851690860152929091166060840152608083015260a082015260c0810186905260e0016040516020818303038152906040528051906020012090506000610e518261177b565b90506000610e61828787876117c9565b9050896001600160a01b0316816001600160a01b031614610ec45760405162461bcd60e51b815260206004820152601e60248201527f45524332305065726d69743a20696e76616c6964207369676e617475726500006044820152606401610997565b610ecf8a8a8a61110f565b50505050505050505050565b600082815260076020526040902060010154610ef681611234565b61091783836115b4565b6001600160a01b03918216600090815260016020908152604080832093909416825291909152205490565b7f23ab0e580195340a5a67800cafa0615701edfa22f79534a52851336e3cf8376a610f5581611234565b610917600c836117f1565b7fb24c1025622fe38445b605f5c1a9bb02be7f6522d24c8a159e5e47e62dbaaecf610f8a81611234565b620f42408211156110035760405162461bcd60e51b815260206004820152603a60248201527f5472616e73666572436f6e74726f6c3a206d6178696d756d206672616374696f60448201527f6e2069732031302a2a362028657175616c20746f2031303025290000000000006064820152608401610997565b60108290556040518281527fa83163ea39ecbdc3af173e3337234fbe2f88b17dca9802ec3186e557d365e2d19060200160405180910390a15050565b6110498282610c1c565b6109aa5760008281526007602090815260408083206001600160a01b03851684529091529020805460ff191660011790556110813390565b6001600160a01b0316816001600160a01b0316837f2f8788117e7eff1d82e926ec794901d17c78024a50270940304540a733656f0d60405160405180910390a45050565b6000610c15836001600160a01b038416611806565b60006001600160e01b03198216637965db0b60e01b148061061e57506301ffc9a760e01b6001600160e01b031983161461061e565b6001600160a01b0383166111715760405162461bcd60e51b8152602060048201526024808201527f45524332303a20617070726f76652066726f6d20746865207a65726f206164646044820152637265737360e01b6064820152608401610997565b6001600160a01b0382166111d25760405162461bcd60e51b815260206004820152602260248201527f45524332303a20617070726f766520746f20746865207a65726f206164647265604482015261737360f01b6064820152608401610997565b6001600160a01b0383811660008181526001602090815260408083209487168084529482529182902085905590518481527f8c5be1e5ebec7d5bd14f71427d1e84f3dd0314c0f7b2291e5b200ac8c7c3b92591015b60405180910390a3505050565b610b908133611855565b60006108c1846001600160a01b038516846118b9565b6000610c15836001600160a01b0384166118d6565b60006112758484610f00565b905060001981146112dd57818110156112d05760405162461bcd60e51b815260206004820152601d60248201527f45524332303a20696e73756666696369656e7420616c6c6f77616e63650000006044820152606401610997565b6112dd848484840361110f565b50505050565b6001600160a01b0383166113475760405162461bcd60e51b815260206004820152602560248201527f45524332303a207472616e736665722066726f6d20746865207a65726f206164604482015264647265737360d81b6064820152608401610997565b6001600160a01b0382166113a95760405162461bcd60e51b815260206004820152602360248201527f45524332303a207472616e7366657220746f20746865207a65726f206164647260448201526265737360e81b6064820152608401610997565b6113b4838383611946565b6001600160a01b038316600090815260208190526040902054818110156113ed5760405162461bcd60e51b8152600401610997906128d7565b6001600160a01b03808516600090815260208190526040808220858503905591851681529081208054849290611424908490612869565b92505081905550826001600160a01b0316846001600160a01b0316600080516020612a0c8339815191528460405161145e91815260200190565b60405180910390a36112dd565b611475828261103f565b600082815260086020526040902061091790826110c5565b6000306001600160a01b037f0000000000000000000000000000000000000000000000000000000000000000161480156114e657507f000000000000000000000000000000000000000000000000000000000000000046145b1561151057507f000000000000000000000000000000000000000000000000000000000000000090565b50604080517f00000000000000000000000000000000000000000000000000000000000000006020808301919091527f0000000000000000000000000000000000000000000000000000000000000000828401527f000000000000000000000000000000000000000000000000000000000000000060608301524660808301523060a0808401919091528351808403909101815260c0909201909252805191012090565b6115be8282611951565b600082815260086020526040902061091790826119b8565b6109aa82826119cd565b6001600160a01b0382166116405760405162461bcd60e51b815260206004820152602160248201527f45524332303a206275726e2066726f6d20746865207a65726f206164647265736044820152607360f81b6064820152608401610997565b61164c82600083611946565b6001600160a01b038216600090815260208190526040902054818110156116c05760405162461bcd60e51b815260206004820152602260248201527f45524332303a206275726e20616d6f756e7420657863656564732062616c616e604482015261636560f01b6064820152608401610997565b6001600160a01b03831660009081526020819052604081208383039055600280548492906116ef908490612830565b90915550506040518281526000906001600160a01b03851690600080516020612a0c8339815191529060200160405180910390a3505050565b6000610c158383611a5a565b6000610c15836001600160a01b038416611a84565b600061061e825490565b6001600160a01b03811660009081526005602052604090208054600181018255905b50919050565b600061061e61178861148d565b8360405161190160f01b6020820152602281018390526042810182905260009060620160405160208183030381529060405280519060200120905092915050565b60008060006117da87878787611a90565b915091506117e781611b7d565b5095945050505050565b6000610c15836001600160a01b038416611d33565b600081815260018301602052604081205461184d5750815460018181018455600084815260208082209093018490558454848252828601909352604090209190915561061e565b50600061061e565b61185f8282610c1c565b6109aa57611877816001600160a01b03166014611d50565b611882836020611d50565b60405160200161189392919061291d565b60408051601f198184030181529082905262461bcd60e51b825261099791600401612567565b600082815260028401602052604081208290556108c18484611eec565b6000818152600283016020526040812054801515806118fa57506118fa8484611a84565b610c155760405162461bcd60e51b815260206004820152601e60248201527f456e756d657261626c654d61703a206e6f6e6578697374656e74206b657900006044820152606401610997565b610917838383611ef8565b61195b8282610c1c565b156109aa5760008281526007602090815260408083206001600160a01b0385168085529252808320805460ff1916905551339285917ff6391f5c32d9c69d2a47ea670b442974b53935d1edc7fd64eb21e047a839171b9190a45050565b6000610c15836001600160a01b038416611f2a565b7f0000000000000000000000000000000000000000000000000000000000000000816119f860025490565b611a029190612869565b1115611a505760405162461bcd60e51b815260206004820152601960248201527f45524332304361707065643a20636170206578636565646564000000000000006044820152606401610997565b6109aa828261201d565b6000826000018281548110611a7157611a716128a0565b9060005260206000200154905092915050565b6000610c1583836120f6565b6000807f7fffffffffffffffffffffffffffffff5d576e7357a4501ddfe92f46681b20a0831115611ac75750600090506003611b74565b8460ff16601b14158015611adf57508460ff16601c14155b15611af05750600090506004611b74565b6040805160008082526020820180845289905260ff881692820192909252606081018690526080810185905260019060a0016020604051602081039080840390855afa158015611b44573d6000803e3d6000fd5b5050604051601f1901519150506001600160a01b038116611b6d57600060019250925050611b74565b9150600090505b94509492505050565b6000816004811115611b9157611b91612992565b03611b995750565b6001816004811115611bad57611bad612992565b03611bfa5760405162461bcd60e51b815260206004820152601860248201527f45434453413a20696e76616c6964207369676e617475726500000000000000006044820152606401610997565b6002816004811115611c0e57611c0e612992565b03611c5b5760405162461bcd60e51b815260206004820152601f60248201527f45434453413a20696e76616c6964207369676e6174757265206c656e677468006044820152606401610997565b6003816004811115611c6f57611c6f612992565b03611cc75760405162461bcd60e51b815260206004820152602260248201527f45434453413a20696e76616c6964207369676e6174757265202773272076616c604482015261756560f01b6064820152608401610997565b6004816004811115611cdb57611cdb612992565b03610b905760405162461bcd60e51b815260206004820152602260248201527f45434453413a20696e76616c6964207369676e6174757265202776272076616c604482015261756560f01b6064820152608401610997565b60008181526002830160205260408120819055610c15838361210e565b60606000611d5f836002612881565b611d6a906002612869565b67ffffffffffffffff811115611d8257611d826129a8565b6040519080825280601f01601f191660200182016040528015611dac576020820181803683370190505b509050600360fc1b81600081518110611dc757611dc76128a0565b60200101906001600160f81b031916908160001a905350600f60fb1b81600181518110611df657611df66128a0565b60200101906001600160f81b031916908160001a9053506000611e1a846002612881565b611e25906001612869565b90505b6001811115611e9d576f181899199a1a9b1b9c1cb0b131b232b360811b85600f1660108110611e5957611e596128a0565b1a60f81b828281518110611e6f57611e6f6128a0565b60200101906001600160f81b031916908160001a90535060049490941c93611e96816129be565b9050611e28565b508315610c155760405162461bcd60e51b815260206004820181905260248201527f537472696e67733a20686578206c656e67746820696e73756666696369656e746044820152606401610997565b6000610c158383611806565b6001600160a01b038316611f1557611f10338261211a565b611f1f565b611f1f838261211a565b610917838383612391565b60008181526001830160205260408120548015612013576000611f4e600183612830565b8554909150600090611f6290600190612830565b9050818114611fc7576000866000018281548110611f8257611f826128a0565b9060005260206000200154905080876000018481548110611fa557611fa56128a0565b6000918252602080832090910192909255918252600188019052604090208390555b8554869080611fd857611fd86129d5565b60019003818190600052602060002001600090559055856001016000868152602001908152602001600020600090556001935050505061061e565b600091505061061e565b6001600160a01b0382166120735760405162461bcd60e51b815260206004820152601f60248201527f45524332303a206d696e7420746f20746865207a65726f2061646472657373006044820152606401610997565b61207f60008383611946565b80600260008282546120919190612869565b90915550506001600160a01b038216600090815260208190526040812080548392906120be908490612869565b90915550506040518181526001600160a01b03831690600090600080516020612a0c8339815191529060200160405180910390a35050565b60008181526001830160205260408120541515610c15565b6000610c158383611f2a565b61212382610d53565b156121b2576000612135600c84611254565b90508082111561219b5760405162461bcd60e51b815260206004820152602b60248201527f5472616e73666572436f6e74726f6c3a20616d6f756e7420657863656564732060448201526a1cdc195b99081b1a5b5a5d60aa1b6064820152608401610997565b6112dd836121a98484612830565b600c919061123e565b620f42406010541080156121db57506121d96000805160206129ec83398151915233610c1c565b155b156109aa5760007f000000000000000000000000000000000000000000000000000000000000000061222d7f000000000000000000000000000000000000000000000000000000000000000042612830565b6122379190612847565b6001600160a01b0384166000908152600f602052604081205491925061225d8483612869565b6001600160a01b0386166000908152600f602052604090206001015490915083900361229f576001600160a01b0385166000908152600f602052604090205491505b6000620f4240601054846122c8896001600160a01b031660009081526020819052604090205490565b6122d29190612869565b6122dc9190612881565b6122e69190612847565b9050808211156123535760405162461bcd60e51b815260206004820152603260248201527f5472616e73666572436f6e74726f6c3a20616d6f756e742065786365656473206044820152711c195c9a5bd9081cdc195b99081b1a5b5a5d60721b6064820152608401610997565b5060408051808201825291825260208083019485526001600160a01b0387166000908152600f90915220905181559151600190920191909155505050565b61091733826123ae6000805160206129ec83398151915283610c1c565b6109aa57600060095411806123c557506000600a54115b156109aa5760006123d582610b93565b600b549091506109179084906001600160a01b0316836109178383836123fb838261211a565b6109178383836001600160a01b0383161561246c576001600160a01b038316600090815260208190526040902054818110156124495760405162461bcd60e51b8152600401610997906128d7565b6001600160a01b0384166000908152602081905260409020908290039055612484565b806002600082825461247e9190612869565b90915550505b6001600160a01b038216156124c6576001600160a01b038216600090815260208190526040812080548392906124bb908490612869565b909155506124de9050565b80600260008282546124d89190612830565b90915550505b816001600160a01b0316836001600160a01b0316600080516020612a0c8339815191528360405161122791815260200190565b60006020828403121561252357600080fd5b81356001600160e01b031981168114610c1557600080fd5b60005b8381101561255657818101518382015260200161253e565b838111156112dd5750506000910152565b602081526000825180602084015261258681604085016020870161253b565b601f01601f19169190910160400192915050565b80356001600160a01b03811681146108c957600080fd5b600080604083850312156125c457600080fd5b6125cd8361259a565b946020939093013593505050565b6000602082840312156125ed57600080fd5b610c158261259a565b60008060006060848603121561260b57600080fd5b6126148461259a565b92506126226020850161259a565b9150604084013590509250925092565b60006020828403121561264457600080fd5b5035919050565b6000806040838503121561265e57600080fd5b8235915061266e6020840161259a565b90509250929050565b60008060006060848603121561268c57600080fd5b83359250602084013591506126a36040850161259a565b90509250925092565b600080604083850312156126bf57600080fd5b50508035926020909101359150565b6000806000604084860312156126e357600080fd5b833567ffffffffffffffff808211156126fb57600080fd5b818601915086601f83011261270f57600080fd5b81358181111561271e57600080fd5b8760208260051b850101111561273357600080fd5b6020928301989097509590910135949350505050565b600080600080600080600060e0888a03121561276457600080fd5b61276d8861259a565b965061277b6020890161259a565b95506040880135945060608801359350608088013560ff8116811461279f57600080fd5b9699959850939692959460a0840135945060c09093013592915050565b600080604083850312156127cf57600080fd5b6127d88361259a565b915061266e6020840161259a565b600181811c908216806127fa57607f821691505b60208210810361177557634e487b7160e01b600052602260045260246000fd5b634e487b7160e01b600052601160045260246000fd5b6000828210156128425761284261281a565b500390565b60008261286457634e487b7160e01b600052601260045260246000fd5b500490565b6000821982111561287c5761287c61281a565b500190565b600081600019048311821515161561289b5761289b61281a565b500290565b634e487b7160e01b600052603260045260246000fd5b600061ffff8083168181036128cd576128cd61281a565b6001019392505050565b60208082526026908201527f45524332303a207472616e7366657220616d6f756e7420657863656564732062604082015265616c616e636560d01b606082015260800190565b7f416363657373436f6e74726f6c3a206163636f756e742000000000000000000081526000835161295581601785016020880161253b565b7001034b99036b4b9b9b4b733903937b6329607d1b601791840191820152835161298681602884016020880161253b565b01602801949350505050565b634e487b7160e01b600052602160045260246000fd5b634e487b7160e01b600052604160045260246000fd5b6000816129cd576129cd61281a565b506000190190565b634e487b7160e01b600052603160045260246000fdfe9f2df0fed2c77648de5860a4cc508cd0818c85b8b8a1ab4ceeef8d981c8956a6ddf252ad1be2c89b69c2b068fc378daa952ba7f163c4a11628f55a4df523b3efa26469706673582212208cfdb01aaeacfe784c0bb692588bb7d71e9e4f4dd18017d1aec146ea5e0232ac64736f6c634300080f0033","opcodes":"PUSH2 0x1A0 PUSH1 0x40 MSTORE CALLVALUE DUP1 ISZERO PUSH3 0x12 JUMPI PUSH1 0x0 DUP1 REVERT JUMPDEST POP PUSH1 0x40 MLOAD PUSH3 0x321A CODESIZE SUB DUP1 PUSH3 0x321A DUP4 CODECOPY DUP2 ADD PUSH1 0x40 DUP2 SWAP1 MSTORE PUSH3 0x35 SWAP2 PUSH3 0x437 JUMP JUMPDEST DUP2 PUSH1 0x40 MLOAD DUP1 PUSH1 0x40 ADD PUSH1 0x40 MSTORE DUP1 PUSH1 0xF DUP2 MSTORE PUSH1 0x20 ADD PUSH15 0x109BDD5B991B195CDCC815DBDC9B19 PUSH1 0x8A SHL DUP2 MSTORE POP DUP1 PUSH1 0x40 MLOAD DUP1 PUSH1 0x40 ADD PUSH1 0x40 MSTORE DUP1 PUSH1 0x1 DUP2 MSTORE PUSH1 0x20 ADD PUSH1 0x31 PUSH1 0xF8 SHL DUP2 MSTORE POP PUSH3 0x89 PUSH3 0x2D8 PUSH1 0x20 SHL PUSH1 0x20 SHR JUMP JUMPDEST PUSH3 0x96 SWAP1 PUSH1 0xA PUSH3 0x589 JUMP JUMPDEST PUSH3 0xA6 SWAP1 PUSH4 0xDBF0EE80 PUSH3 0x59A JUMP JUMPDEST PUSH1 0x40 MLOAD DUP1 PUSH1 0x40 ADD PUSH1 0x40 MSTORE DUP1 PUSH1 0xF DUP2 MSTORE PUSH1 0x20 ADD PUSH15 0x109BDD5B991B195CDCC815DBDC9B19 PUSH1 0x8A SHL DUP2 MSTORE POP PUSH1 0x40 MLOAD DUP1 PUSH1 0x40 ADD PUSH1 0x40 MSTORE DUP1 PUSH1 0x3 DUP2 MSTORE PUSH1 0x20 ADD PUSH3 0x212621 PUSH1 0xE9 SHL DUP2 MSTORE POP DUP2 PUSH1 0x3 SWAP1 DUP2 PUSH3 0xFB SWAP2 SWAP1 PUSH3 0x660 JUMP JUMPDEST POP PUSH1 0x4 PUSH3 0x10A DUP3 DUP3 PUSH3 0x660 JUMP JUMPDEST POP POP POP PUSH1 0x0 DUP2 GT PUSH3 0x162 JUMPI PUSH1 0x40 MLOAD PUSH3 0x461BCD PUSH1 0xE5 SHL DUP2 MSTORE PUSH1 0x20 PUSH1 0x4 DUP3 ADD MSTORE PUSH1 0x15 PUSH1 0x24 DUP3 ADD MSTORE PUSH32 0x45524332304361707065643A2063617020697320300000000000000000000000 PUSH1 0x44 DUP3 ADD MSTORE PUSH1 0x64 ADD PUSH1 0x40 MLOAD DUP1 SWAP2 SUB SWAP1 REVERT JUMPDEST PUSH1 0x80 MSTORE DUP2 MLOAD PUSH1 0x20 DUP1 DUP5 ADD SWAP2 SWAP1 SWAP2 KECCAK256 DUP3 MLOAD SWAP2 DUP4 ADD SWAP2 SWAP1 SWAP2 KECCAK256 PUSH2 0x100 DUP3 SWAP1 MSTORE PUSH2 0x120 DUP2 SWAP1 MSTORE CHAINID PUSH1 0xC0 MSTORE PUSH32 0x8B73C3C69BB8FE3D512ECC4CF759CC79239F7B179B0FFACAA9A75D522B39400F PUSH3 0x1FA DUP2 DUP5 DUP5 PUSH1 0x40 DUP1 MLOAD PUSH1 0x20 DUP2 ADD DUP6 SWAP1 MSTORE SWAP1 DUP2 ADD DUP4 SWAP1 MSTORE PUSH1 0x60 DUP2 ADD DUP3 SWAP1 MSTORE CHAINID PUSH1 0x80 DUP3 ADD MSTORE ADDRESS PUSH1 0xA0 DUP3 ADD MSTORE PUSH1 0x0 SWAP1 PUSH1 0xC0 ADD PUSH1 0x40 MLOAD PUSH1 0x20 DUP2 DUP4 SUB SUB DUP2 MSTORE SWAP1 PUSH1 0x40 MSTORE DUP1 MLOAD SWAP1 PUSH1 0x20 ADD KECCAK256 SWAP1 POP SWAP4 SWAP3 POP POP POP JUMP JUMPDEST PUSH1 0xA0 MSTORE ADDRESS PUSH1 0xE0 MSTORE PUSH2 0x140 MSTORE POP POP TIMESTAMP PUSH2 0x160 MSTORE POP POP POP PUSH2 0x180 MSTORE PUSH3 0x220 PUSH1 0x0 DUP3 PUSH3 0x2DD JUMP JUMPDEST PUSH3 0x24C PUSH32 0x9F2DF0FED2C77648DE5860A4CC508CD0818C85B8B8A1AB4CEEEF8D981C8956A6 DUP3 PUSH3 0x2DD JUMP JUMPDEST PUSH3 0x278 PUSH32 0xD0AC125722F4B4565AB5E91B234E50C4C6F541672AEA816BA090A0EA349ED93F DUP3 PUSH3 0x2DD JUMP JUMPDEST PUSH3 0x2A4 PUSH32 0xB24C1025622FE38445B605F5C1A9BB02BE7F6522D24C8A159E5E47E62DBAAECF DUP3 PUSH3 0x2DD JUMP JUMPDEST PUSH3 0x2D0 PUSH32 0x23AB0E580195340A5A67800CAFA0615701EDFA22F79534A52851336E3CF8376A DUP3 PUSH3 0x2DD JUMP JUMPDEST POP POP PUSH3 0x72C JUMP JUMPDEST PUSH1 0x12 SWAP1 JUMP JUMPDEST PUSH3 0x2F4 DUP3 DUP3 PUSH3 0x320 PUSH1 0x20 SHL PUSH3 0x103F OR PUSH1 0x20 SHR JUMP JUMPDEST PUSH1 0x0 DUP3 DUP2 MSTORE PUSH1 0x8 PUSH1 0x20 SWAP1 DUP2 MSTORE PUSH1 0x40 SWAP1 SWAP2 KECCAK256 PUSH3 0x31B SWAP2 DUP4 SWAP1 PUSH3 0x10C5 PUSH3 0x3C5 DUP3 SHL OR SWAP1 SHR JUMP JUMPDEST POP POP POP JUMP JUMPDEST PUSH1 0x0 DUP3 DUP2 MSTORE PUSH1 0x7 PUSH1 0x20 SWAP1 DUP2 MSTORE PUSH1 0x40 DUP1 DUP4 KECCAK256 PUSH1 0x1 PUSH1 0x1 PUSH1 0xA0 SHL SUB DUP6 AND DUP5 MSTORE SWAP1 SWAP2 MSTORE SWAP1 KECCAK256 SLOAD PUSH1 0xFF AND PUSH3 0x3C1 JUMPI PUSH1 0x0 DUP3 DUP2 MSTORE PUSH1 0x7 PUSH1 0x20 SWAP1 DUP2 MSTORE PUSH1 0x40 DUP1 DUP4 KECCAK256 PUSH1 0x1 PUSH1 0x1 PUSH1 0xA0 SHL SUB DUP6 AND DUP5 MSTORE SWAP1 SWAP2 MSTORE SWAP1 KECCAK256 DUP1 SLOAD PUSH1 0xFF NOT AND PUSH1 0x1 OR SWAP1 SSTORE PUSH3 0x380 CALLER SWAP1 JUMP JUMPDEST PUSH1 0x1 PUSH1 0x1 PUSH1 0xA0 SHL SUB AND DUP2 PUSH1 0x1 PUSH1 0x1 PUSH1 0xA0 SHL SUB AND DUP4 PUSH32 0x2F8788117E7EFF1D82E926EC794901D17C78024A50270940304540A733656F0D PUSH1 0x40 MLOAD PUSH1 0x40 MLOAD DUP1 SWAP2 SUB SWAP1 LOG4 JUMPDEST POP POP JUMP JUMPDEST PUSH1 0x0 PUSH3 0x3DC DUP4 PUSH1 0x1 PUSH1 0x1 PUSH1 0xA0 SHL SUB DUP5 AND PUSH3 0x3E5 JUMP JUMPDEST SWAP1 POP JUMPDEST SWAP3 SWAP2 POP POP JUMP JUMPDEST PUSH1 0x0 DUP2 DUP2 MSTORE PUSH1 0x1 DUP4 ADD PUSH1 0x20 MSTORE PUSH1 0x40 DUP2 KECCAK256 SLOAD PUSH3 0x42E JUMPI POP DUP2 SLOAD PUSH1 0x1 DUP2 DUP2 ADD DUP5 SSTORE PUSH1 0x0 DUP5 DUP2 MSTORE PUSH1 0x20 DUP1 DUP3 KECCAK256 SWAP1 SWAP4 ADD DUP5 SWAP1 SSTORE DUP5 SLOAD DUP5 DUP3 MSTORE DUP3 DUP7 ADD SWAP1 SWAP4 MSTORE PUSH1 0x40 SWAP1 KECCAK256 SWAP2 SWAP1 SWAP2 SSTORE PUSH3 0x3DF JUMP JUMPDEST POP PUSH1 0x0 PUSH3 0x3DF JUMP JUMPDEST PUSH1 0x0 DUP1 PUSH1 0x40 DUP4 DUP6 SUB SLT ISZERO PUSH3 0x44B JUMPI PUSH1 0x0 DUP1 REVERT JUMPDEST DUP3 MLOAD PUSH1 0x20 DUP5 ADD MLOAD SWAP1 SWAP3 POP PUSH1 0x1 PUSH1 0x1 PUSH1 0xA0 SHL SUB DUP2 AND DUP2 EQ PUSH3 0x46B JUMPI PUSH1 0x0 DUP1 REVERT JUMPDEST DUP1 SWAP2 POP POP SWAP3 POP SWAP3 SWAP1 POP JUMP JUMPDEST PUSH4 0x4E487B71 PUSH1 0xE0 SHL PUSH1 0x0 MSTORE PUSH1 0x11 PUSH1 0x4 MSTORE PUSH1 0x24 PUSH1 0x0 REVERT JUMPDEST PUSH1 0x1 DUP2 DUP2 JUMPDEST DUP1 DUP6 GT ISZERO PUSH3 0x4CD JUMPI DUP2 PUSH1 0x0 NOT DIV DUP3 GT ISZERO PUSH3 0x4B1 JUMPI PUSH3 0x4B1 PUSH3 0x476 JUMP JUMPDEST DUP1 DUP6 AND ISZERO PUSH3 0x4BF JUMPI SWAP2 DUP2 MUL SWAP2 JUMPDEST SWAP4 DUP5 SHR SWAP4 SWAP1 DUP1 MUL SWAP1 PUSH3 0x491 JUMP JUMPDEST POP SWAP3 POP SWAP3 SWAP1 POP JUMP JUMPDEST PUSH1 0x0 DUP3 PUSH3 0x4E6 JUMPI POP PUSH1 0x1 PUSH3 0x3DF JUMP JUMPDEST DUP2 PUSH3 0x4F5 JUMPI POP PUSH1 0x0 PUSH3 0x3DF JUMP JUMPDEST DUP2 PUSH1 0x1 DUP2 EQ PUSH3 0x50E JUMPI PUSH1 0x2 DUP2 EQ PUSH3 0x519 JUMPI PUSH3 0x539 JUMP JUMPDEST PUSH1 0x1 SWAP2 POP POP PUSH3 0x3DF JUMP JUMPDEST PUSH1 0xFF DUP5 GT ISZERO PUSH3 0x52D JUMPI PUSH3 0x52D PUSH3 0x476 JUMP JUMPDEST POP POP PUSH1 0x1 DUP3 SHL PUSH3 0x3DF JUMP JUMPDEST POP PUSH1 0x20 DUP4 LT PUSH2 0x133 DUP4 LT AND PUSH1 0x4E DUP5 LT PUSH1 0xB DUP5 LT AND OR ISZERO PUSH3 0x55E JUMPI POP DUP2 DUP2 EXP PUSH3 0x3DF JUMP JUMPDEST PUSH3 0x56A DUP4 DUP4 PUSH3 0x48C JUMP JUMPDEST DUP1 PUSH1 0x0 NOT DIV DUP3 GT ISZERO PUSH3 0x581 JUMPI PUSH3 0x581 PUSH3 0x476 JUMP JUMPDEST MUL SWAP4 SWAP3 POP POP POP JUMP JUMPDEST PUSH1 0x0 PUSH3 0x3DC PUSH1 0xFF DUP5 AND DUP4 PUSH3 0x4D5 JUMP JUMPDEST PUSH1 0x0 DUP2 PUSH1 0x0 NOT DIV DUP4 GT DUP3 ISZERO ISZERO AND ISZERO PUSH3 0x5B7 JUMPI PUSH3 0x5B7 PUSH3 0x476 JUMP JUMPDEST POP MUL SWAP1 JUMP JUMPDEST PUSH4 0x4E487B71 PUSH1 0xE0 SHL PUSH1 0x0 MSTORE PUSH1 0x41 PUSH1 0x4 MSTORE PUSH1 0x24 PUSH1 0x0 REVERT JUMPDEST PUSH1 0x1 DUP2 DUP2 SHR SWAP1 DUP3 AND DUP1 PUSH3 0x5E7 JUMPI PUSH1 0x7F DUP3 AND SWAP2 POP JUMPDEST PUSH1 0x20 DUP3 LT DUP2 SUB PUSH3 0x608 JUMPI PUSH4 0x4E487B71 PUSH1 0xE0 SHL PUSH1 0x0 MSTORE PUSH1 0x22 PUSH1 0x4 MSTORE PUSH1 0x24 PUSH1 0x0 REVERT JUMPDEST POP SWAP2 SWAP1 POP JUMP JUMPDEST PUSH1 0x1F DUP3 GT ISZERO PUSH3 0x31B JUMPI PUSH1 0x0 DUP2 DUP2 MSTORE PUSH1 0x20 DUP2 KECCAK256 PUSH1 0x1F DUP6 ADD PUSH1 0x5 SHR DUP2 ADD PUSH1 0x20 DUP7 LT ISZERO PUSH3 0x637 JUMPI POP DUP1 JUMPDEST PUSH1 0x1F DUP6 ADD PUSH1 0x5 SHR DUP3 ADD SWAP2 POP JUMPDEST DUP2 DUP2 LT ISZERO PUSH3 0x658 JUMPI DUP3 DUP2 SSTORE PUSH1 0x1 ADD PUSH3 0x643 JUMP JUMPDEST POP POP POP POP POP POP JUMP JUMPDEST DUP2 MLOAD PUSH1 0x1 PUSH1 0x1 PUSH1 0x40 SHL SUB DUP2 GT ISZERO PUSH3 0x67C JUMPI PUSH3 0x67C PUSH3 0x5BC JUMP JUMPDEST PUSH3 0x694 DUP2 PUSH3 0x68D DUP5 SLOAD PUSH3 0x5D2 JUMP JUMPDEST DUP5 PUSH3 0x60E JUMP JUMPDEST PUSH1 0x20 DUP1 PUSH1 0x1F DUP4 GT PUSH1 0x1 DUP2 EQ PUSH3 0x6CC JUMPI PUSH1 0x0 DUP5 ISZERO PUSH3 0x6B3 JUMPI POP DUP6 DUP4 ADD MLOAD JUMPDEST PUSH1 0x0 NOT PUSH1 0x3 DUP7 SWAP1 SHL SHR NOT AND PUSH1 0x1 DUP6 SWAP1 SHL OR DUP6 SSTORE PUSH3 0x658 JUMP JUMPDEST PUSH1 0x0 DUP6 DUP2 MSTORE PUSH1 0x20 DUP2 KECCAK256 PUSH1 0x1F NOT DUP7 AND SWAP2 JUMPDEST DUP3 DUP2 LT ISZERO PUSH3 0x6FD JUMPI DUP9 DUP7 ADD MLOAD DUP3 SSTORE SWAP5 DUP5 ADD SWAP5 PUSH1 0x1 SWAP1 SWAP2 ADD SWAP1 DUP5 ADD PUSH3 0x6DC JUMP JUMPDEST POP DUP6 DUP3 LT ISZERO PUSH3 0x71C JUMPI DUP8 DUP6 ADD MLOAD PUSH1 0x0 NOT PUSH1 0x3 DUP9 SWAP1 SHL PUSH1 0xF8 AND SHR NOT AND DUP2 SSTORE JUMPDEST POP POP POP POP POP PUSH1 0x1 SWAP1 DUP2 SHL ADD SWAP1 SSTORE POP JUMP JUMPDEST PUSH1 0x80 MLOAD PUSH1 0xA0 MLOAD PUSH1 0xC0 MLOAD PUSH1 0xE0 MLOAD PUSH2 0x100 MLOAD PUSH2 0x120 MLOAD PUSH2 0x140 MLOAD PUSH2 0x160 MLOAD PUSH2 0x180 MLOAD PUSH2 0x2A61 PUSH3 0x7B9 PUSH1 0x0 CODECOPY PUSH1 0x0 DUP2 DUP2 PUSH2 0x7DF ADD MSTORE PUSH2 0x21E4 ADD MSTORE PUSH1 0x0 DUP2 DUP2 PUSH2 0x803 ADD MSTORE PUSH2 0x2208 ADD MSTORE PUSH1 0x0 PUSH2 0x1517 ADD MSTORE PUSH1 0x0 PUSH2 0x1566 ADD MSTORE PUSH1 0x0 PUSH2 0x1541 ADD MSTORE PUSH1 0x0 PUSH2 0x149A ADD MSTORE PUSH1 0x0 PUSH2 0x14C4 ADD MSTORE PUSH1 0x0 PUSH2 0x14EE ADD MSTORE PUSH1 0x0 DUP2 DUP2 PUSH2 0x394 ADD MSTORE DUP2 DUP2 PUSH2 0x78D ADD MSTORE PUSH2 0x19CF ADD MSTORE PUSH2 0x2A61 PUSH1 0x0 RETURN INVALID PUSH1 0x80 PUSH1 0x40 MSTORE CALLVALUE DUP1 ISZERO PUSH2 0x10 JUMPI PUSH1 0x0 DUP1 REVERT JUMPDEST POP PUSH1 0x4 CALLDATASIZE LT PUSH2 0x253 JUMPI PUSH1 0x0 CALLDATALOAD PUSH1 0xE0 SHR DUP1 PUSH4 0x51BCEE27 GT PUSH2 0x146 JUMPI DUP1 PUSH4 0xA9059CBB GT PUSH2 0xC3 JUMPI DUP1 PUSH4 0xD5391393 GT PUSH2 0x87 JUMPI DUP1 PUSH4 0xD5391393 EQ PUSH2 0x58F JUMPI DUP1 PUSH4 0xD547741F EQ PUSH2 0x5A4 JUMPI DUP1 PUSH4 0xDD62ED3E EQ PUSH2 0x5B7 JUMPI DUP1 PUSH4 0xE162533C EQ PUSH2 0x5CA JUMPI DUP1 PUSH4 0xF74929E0 EQ PUSH2 0x5DD JUMPI DUP1 PUSH4 0xFAD71BE2 EQ PUSH2 0x5E6 JUMPI PUSH1 0x0 DUP1 REVERT JUMPDEST DUP1 PUSH4 0xA9059CBB EQ PUSH2 0x530 JUMPI DUP1 PUSH4 0xB6AFC4DC EQ PUSH2 0x543 JUMPI DUP1 PUSH4 0xC01BC982 EQ PUSH2 0x556 JUMPI DUP1 PUSH4 0xCA15C873 EQ PUSH2 0x569 JUMPI DUP1 PUSH4 0xD505ACCF EQ PUSH2 0x57C JUMPI PUSH1 0x0 DUP1 REVERT JUMPDEST DUP1 PUSH4 0x9010D07C GT PUSH2 0x10A JUMPI DUP1 PUSH4 0x9010D07C EQ PUSH2 0x4CF JUMPI DUP1 PUSH4 0x91D14854 EQ PUSH2 0x4FA JUMPI DUP1 PUSH4 0x95D89B41 EQ PUSH2 0x50D JUMPI DUP1 PUSH4 0xA217FDDF EQ PUSH2 0x515 JUMPI DUP1 PUSH4 0xA457C2D7 EQ PUSH2 0x51D JUMPI PUSH1 0x0 DUP1 REVERT JUMPDEST DUP1 PUSH4 0x51BCEE27 EQ PUSH2 0x446 JUMPI DUP1 PUSH4 0x5D1EDB87 EQ PUSH2 0x46D JUMPI DUP1 PUSH4 0x70A08231 EQ PUSH2 0x480 JUMPI DUP1 PUSH4 0x79CC6790 EQ PUSH2 0x4A9 JUMPI DUP1 PUSH4 0x7ECEBE00 EQ PUSH2 0x4BC JUMPI PUSH1 0x0 DUP1 REVERT JUMPDEST DUP1 PUSH4 0x2F2FF15D GT PUSH2 0x1D4 JUMPI DUP1 PUSH4 0x367065DE GT PUSH2 0x198 JUMPI DUP1 PUSH4 0x367065DE EQ PUSH2 0x3D3 JUMPI DUP1 PUSH4 0x39509351 EQ PUSH2 0x3E6 JUMPI DUP1 PUSH4 0x3E0B2CDA EQ PUSH2 0x3F9 JUMPI DUP1 PUSH4 0x40C10F19 EQ PUSH2 0x420 JUMPI DUP1 PUSH4 0x42966C68 EQ PUSH2 0x433 JUMPI PUSH1 0x0 DUP1 REVERT JUMPDEST DUP1 PUSH4 0x2F2FF15D EQ PUSH2 0x370 JUMPI DUP1 PUSH4 0x313CE567 EQ PUSH2 0x383 JUMPI DUP1 PUSH4 0x355274EA EQ PUSH2 0x392 JUMPI DUP1 PUSH4 0x3644E515 EQ PUSH2 0x3B8 JUMPI DUP1 PUSH4 0x36568ABE EQ PUSH2 0x3C0 JUMPI PUSH1 0x0 DUP1 REVERT JUMPDEST DUP1 PUSH4 0x18160DDD GT PUSH2 0x21B JUMPI DUP1 PUSH4 0x18160DDD EQ PUSH2 0x2F2 JUMPI DUP1 PUSH4 0x1F2C5443 EQ PUSH2 0x2FA JUMPI DUP1 PUSH4 0x234EAEDC EQ PUSH2 0x327 JUMPI DUP1 PUSH4 0x23B872DD EQ PUSH2 0x33A JUMPI DUP1 PUSH4 0x248A9CA3 EQ PUSH2 0x34D JUMPI PUSH1 0x0 DUP1 REVERT JUMPDEST DUP1 PUSH4 0x1FFC9A7 EQ PUSH2 0x258 JUMPI DUP1 PUSH4 0x6FDDE03 EQ PUSH2 0x280 JUMPI DUP1 PUSH4 0x95EA7B3 EQ PUSH2 0x295 JUMPI DUP1 PUSH4 0xECBD033 EQ PUSH2 0x2A8 JUMPI DUP1 PUSH4 0x1681F830 EQ PUSH2 0x2DD JUMPI JUMPDEST PUSH1 0x0 DUP1 REVERT JUMPDEST PUSH2 0x26B PUSH2 0x266 CALLDATASIZE PUSH1 0x4 PUSH2 0x2511 JUMP JUMPDEST PUSH2 0x5F9 JUMP JUMPDEST PUSH1 0x40 MLOAD SWAP1 ISZERO ISZERO DUP2 MSTORE PUSH1 0x20 ADD JUMPDEST PUSH1 0x40 MLOAD DUP1 SWAP2 SUB SWAP1 RETURN JUMPDEST PUSH2 0x288 PUSH2 0x624 JUMP JUMPDEST PUSH1 0x40 MLOAD PUSH2 0x277 SWAP2 SWAP1 PUSH2 0x2567 JUMP JUMPDEST PUSH2 0x26B PUSH2 0x2A3 CALLDATASIZE PUSH1 0x4 PUSH2 0x25B1 JUMP JUMPDEST PUSH2 0x6B6 JUMP JUMPDEST PUSH2 0x2CF PUSH32 0xD0AC125722F4B4565AB5E91B234E50C4C6F541672AEA816BA090A0EA349ED93F DUP2 JUMP JUMPDEST PUSH1 0x40 MLOAD SWAP1 DUP2 MSTORE PUSH1 0x20 ADD PUSH2 0x277 JUMP JUMPDEST PUSH2 0x2F0 PUSH2 0x2EB CALLDATASIZE PUSH1 0x4 PUSH2 0x25B1 JUMP JUMPDEST PUSH2 0x6CE JUMP JUMPDEST STOP JUMPDEST PUSH1 0x2 SLOAD PUSH2 0x2CF JUMP JUMPDEST PUSH1 0xA SLOAD PUSH1 0x9 SLOAD PUSH1 0xB SLOAD PUSH1 0x40 DUP1 MLOAD SWAP4 DUP5 MSTORE PUSH1 0x20 DUP5 ADD SWAP3 SWAP1 SWAP3 MSTORE PUSH1 0x1 PUSH1 0x1 PUSH1 0xA0 SHL SUB AND SWAP1 DUP3 ADD MSTORE PUSH1 0x60 ADD PUSH2 0x277 JUMP JUMPDEST PUSH2 0x2CF PUSH2 0x335 CALLDATASIZE PUSH1 0x4 PUSH2 0x25DB JUMP JUMPDEST PUSH2 0x74C JUMP JUMPDEST PUSH2 0x26B PUSH2 0x348 CALLDATASIZE PUSH1 0x4 PUSH2 0x25F6 JUMP JUMPDEST PUSH2 0x8CE JUMP JUMPDEST PUSH2 0x2CF PUSH2 0x35B CALLDATASIZE PUSH1 0x4 PUSH2 0x2632 JUMP JUMPDEST PUSH1 0x0 SWAP1 DUP2 MSTORE PUSH1 0x7 PUSH1 0x20 MSTORE PUSH1 0x40 SWAP1 KECCAK256 PUSH1 0x1 ADD SLOAD SWAP1 JUMP JUMPDEST PUSH2 0x2F0 PUSH2 0x37E CALLDATASIZE PUSH1 0x4 PUSH2 0x264B JUMP JUMPDEST PUSH2 0x8F2 JUMP JUMPDEST PUSH1 0x40 MLOAD PUSH1 0x12 DUP2 MSTORE PUSH1 0x20 ADD PUSH2 0x277 JUMP JUMPDEST PUSH32 0x0 PUSH2 0x2CF JUMP JUMPDEST PUSH2 0x2CF PUSH2 0x91C JUMP JUMPDEST PUSH2 0x2F0 PUSH2 0x3CE CALLDATASIZE PUSH1 0x4 PUSH2 0x264B JUMP JUMPDEST PUSH2 0x92B JUMP JUMPDEST PUSH2 0x2F0 PUSH2 0x3E1 CALLDATASIZE PUSH1 0x4 PUSH2 0x2677 JUMP JUMPDEST PUSH2 0x9AE JUMP JUMPDEST PUSH2 0x26B PUSH2 0x3F4 CALLDATASIZE PUSH1 0x4 PUSH2 0x25B1 JUMP JUMPDEST PUSH2 0xB42 JUMP JUMPDEST PUSH2 0x2CF PUSH32 0xB24C1025622FE38445B605F5C1A9BB02BE7F6522D24C8A159E5E47E62DBAAECF DUP2 JUMP JUMPDEST PUSH2 0x2F0 PUSH2 0x42E CALLDATASIZE PUSH1 0x4 PUSH2 0x25B1 JUMP JUMPDEST PUSH2 0xB64 JUMP JUMPDEST PUSH2 0x2F0 PUSH2 0x441 CALLDATASIZE PUSH1 0x4 PUSH2 0x2632 JUMP JUMPDEST PUSH2 0xB86 JUMP JUMPDEST PUSH2 0x2CF PUSH32 0x23AB0E580195340A5A67800CAFA0615701EDFA22F79534A52851336E3CF8376A DUP2 JUMP JUMPDEST PUSH2 0x2CF PUSH2 0x47B CALLDATASIZE PUSH1 0x4 PUSH2 0x2632 JUMP JUMPDEST PUSH2 0xB93 JUMP JUMPDEST PUSH2 0x2CF PUSH2 0x48E CALLDATASIZE PUSH1 0x4 PUSH2 0x25DB JUMP JUMPDEST PUSH1 0x1 PUSH1 0x1 PUSH1 0xA0 SHL SUB AND PUSH1 0x0 SWAP1 DUP2 MSTORE PUSH1 0x20 DUP2 SWAP1 MSTORE PUSH1 0x40 SWAP1 KECCAK256 SLOAD SWAP1 JUMP JUMPDEST PUSH2 0x2F0 PUSH2 0x4B7 CALLDATASIZE PUSH1 0x4 PUSH2 0x25B1 JUMP JUMPDEST PUSH2 0xBCA JUMP JUMPDEST PUSH2 0x2CF PUSH2 0x4CA CALLDATASIZE PUSH1 0x4 PUSH2 0x25DB JUMP JUMPDEST PUSH2 0xBDF JUMP JUMPDEST PUSH2 0x4E2 PUSH2 0x4DD CALLDATASIZE PUSH1 0x4 PUSH2 0x26AC JUMP JUMPDEST PUSH2 0xBFD JUMP JUMPDEST PUSH1 0x40 MLOAD PUSH1 0x1 PUSH1 0x1 PUSH1 0xA0 SHL SUB SWAP1 SWAP2 AND DUP2 MSTORE PUSH1 0x20 ADD PUSH2 0x277 JUMP JUMPDEST PUSH2 0x26B PUSH2 0x508 CALLDATASIZE PUSH1 0x4 PUSH2 0x264B JUMP JUMPDEST PUSH2 0xC1C JUMP JUMPDEST PUSH2 0x288 PUSH2 0xC47 JUMP JUMPDEST PUSH2 0x2CF PUSH1 0x0 DUP2 JUMP JUMPDEST PUSH2 0x26B PUSH2 0x52B CALLDATASIZE PUSH1 0x4 PUSH2 0x25B1 JUMP JUMPDEST PUSH2 0xC56 JUMP JUMPDEST PUSH2 0x26B PUSH2 0x53E CALLDATASIZE PUSH1 0x4 PUSH2 0x25B1 JUMP JUMPDEST PUSH2 0xCD1 JUMP JUMPDEST PUSH2 0x2F0 PUSH2 0x551 CALLDATASIZE PUSH1 0x4 PUSH2 0x26CE JUMP JUMPDEST PUSH2 0xCDF JUMP JUMPDEST PUSH2 0x26B PUSH2 0x564 CALLDATASIZE PUSH1 0x4 PUSH2 0x25DB JUMP JUMPDEST PUSH2 0xD53 JUMP JUMPDEST PUSH2 0x2CF PUSH2 0x577 CALLDATASIZE PUSH1 0x4 PUSH2 0x2632 JUMP JUMPDEST PUSH2 0xD60 JUMP JUMPDEST PUSH2 0x2F0 PUSH2 0x58A CALLDATASIZE PUSH1 0x4 PUSH2 0x2749 JUMP JUMPDEST PUSH2 0xD77 JUMP JUMPDEST PUSH2 0x2CF PUSH1 0x0 DUP1 MLOAD PUSH1 0x20 PUSH2 0x29EC DUP4 CODECOPY DUP2 MLOAD SWAP2 MSTORE DUP2 JUMP JUMPDEST PUSH2 0x2F0 PUSH2 0x5B2 CALLDATASIZE PUSH1 0x4 PUSH2 0x264B JUMP JUMPDEST PUSH2 0xEDB JUMP JUMPDEST PUSH2 0x2CF PUSH2 0x5C5 CALLDATASIZE PUSH1 0x4 PUSH2 0x27BC JUMP JUMPDEST PUSH2 0xF00 JUMP JUMPDEST PUSH2 0x2F0 PUSH2 0x5D8 CALLDATASIZE PUSH1 0x4 PUSH2 0x25DB JUMP JUMPDEST PUSH2 0xF2B JUMP JUMPDEST PUSH2 0x2CF PUSH1 0x10 SLOAD DUP2 JUMP JUMPDEST PUSH2 0x2F0 PUSH2 0x5F4 CALLDATASIZE PUSH1 0x4 PUSH2 0x2632 JUMP JUMPDEST PUSH2 0xF60 JUMP JUMPDEST PUSH1 0x0 PUSH1 0x1 PUSH1 0x1 PUSH1 0xE0 SHL SUB NOT DUP3 AND PUSH4 0x5A05180F PUSH1 0xE0 SHL EQ DUP1 PUSH2 0x61E JUMPI POP PUSH2 0x61E DUP3 PUSH2 0x10DA JUMP JUMPDEST SWAP3 SWAP2 POP POP JUMP JUMPDEST PUSH1 0x60 PUSH1 0x3 DUP1 SLOAD PUSH2 0x633 SWAP1 PUSH2 0x27E6 JUMP JUMPDEST DUP1 PUSH1 0x1F ADD PUSH1 0x20 DUP1 SWAP2 DIV MUL PUSH1 0x20 ADD PUSH1 0x40 MLOAD SWAP1 DUP2 ADD PUSH1 0x40 MSTORE DUP1 SWAP3 SWAP2 SWAP1 DUP2 DUP2 MSTORE PUSH1 0x20 ADD DUP3 DUP1 SLOAD PUSH2 0x65F SWAP1 PUSH2 0x27E6 JUMP JUMPDEST DUP1 ISZERO PUSH2 0x6AC JUMPI DUP1 PUSH1 0x1F LT PUSH2 0x681 JUMPI PUSH2 0x100 DUP1 DUP4 SLOAD DIV MUL DUP4 MSTORE SWAP2 PUSH1 0x20 ADD SWAP2 PUSH2 0x6AC JUMP JUMPDEST DUP3 ADD SWAP2 SWAP1 PUSH1 0x0 MSTORE PUSH1 0x20 PUSH1 0x0 KECCAK256 SWAP1 JUMPDEST DUP2 SLOAD DUP2 MSTORE SWAP1 PUSH1 0x1 ADD SWAP1 PUSH1 0x20 ADD DUP1 DUP4 GT PUSH2 0x68F JUMPI DUP3 SWAP1 SUB PUSH1 0x1F AND DUP3 ADD SWAP2 JUMPDEST POP POP POP POP POP SWAP1 POP SWAP1 JUMP JUMPDEST PUSH1 0x0 CALLER PUSH2 0x6C4 DUP2 DUP6 DUP6 PUSH2 0x110F JUMP JUMPDEST POP PUSH1 0x1 SWAP4 SWAP3 POP POP POP JUMP JUMPDEST PUSH32 0x23AB0E580195340A5A67800CAFA0615701EDFA22F79534A52851336E3CF8376A PUSH2 0x6F8 DUP2 PUSH2 0x1234 JUMP JUMPDEST PUSH2 0x704 PUSH1 0xC DUP5 DUP5 PUSH2 0x123E JUMP JUMPDEST POP PUSH1 0x40 DUP1 MLOAD PUSH1 0x1 PUSH1 0x1 PUSH1 0xA0 SHL SUB DUP6 AND DUP2 MSTORE PUSH1 0x20 DUP2 ADD DUP5 SWAP1 MSTORE PUSH32 0xA1B8D777C2527547849718A04F45B8E5B0F29119C47F9298B20A85F0AD275424 SWAP2 ADD PUSH1 0x40 MLOAD DUP1 SWAP2 SUB SWAP1 LOG1 POP POP POP JUMP JUMPDEST PUSH1 0x0 PUSH2 0x757 DUP3 PUSH2 0xD53 JUMP JUMPDEST ISZERO PUSH2 0x767 JUMPI PUSH2 0x61E PUSH1 0xC DUP4 PUSH2 0x1254 JUMP JUMPDEST PUSH2 0x77F PUSH1 0x0 DUP1 MLOAD PUSH1 0x20 PUSH2 0x29EC DUP4 CODECOPY DUP2 MLOAD SWAP2 MSTORE DUP4 PUSH2 0xC1C JUMP JUMPDEST ISZERO PUSH2 0x7B1 JUMPI PUSH1 0x2 SLOAD PUSH2 0x61E SWAP1 PUSH32 0x0 PUSH2 0x2830 JUMP JUMPDEST PUSH1 0x10 SLOAD PUSH3 0xF4240 SUB PUSH2 0x7DB JUMPI PUSH1 0x1 PUSH1 0x1 PUSH1 0xA0 SHL SUB DUP3 AND PUSH1 0x0 SWAP1 DUP2 MSTORE PUSH1 0x20 DUP2 SWAP1 MSTORE PUSH1 0x40 SWAP1 KECCAK256 SLOAD PUSH2 0x61E JUMP JUMPDEST PUSH1 0x0 PUSH32 0x0 PUSH2 0x828 PUSH32 0x0 TIMESTAMP PUSH2 0x2830 JUMP JUMPDEST PUSH2 0x832 SWAP2 SWAP1 PUSH2 0x2847 JUMP JUMPDEST PUSH1 0x1 PUSH1 0x1 PUSH1 0xA0 SHL SUB DUP5 AND PUSH1 0x0 SWAP1 DUP2 MSTORE PUSH1 0xF PUSH1 0x20 MSTORE PUSH1 0x40 SWAP1 KECCAK256 PUSH1 0x1 ADD SLOAD SUB PUSH2 0x86E JUMPI POP PUSH1 0x1 PUSH1 0x1 PUSH1 0xA0 SHL SUB DUP3 AND PUSH1 0x0 SWAP1 DUP2 MSTORE PUSH1 0xF PUSH1 0x20 MSTORE PUSH1 0x40 SWAP1 KECCAK256 SLOAD JUMPDEST PUSH1 0x0 PUSH3 0xF4240 PUSH1 0x10 SLOAD DUP4 PUSH2 0x897 DUP8 PUSH1 0x1 PUSH1 0x1 PUSH1 0xA0 SHL SUB AND PUSH1 0x0 SWAP1 DUP2 MSTORE PUSH1 0x20 DUP2 SWAP1 MSTORE PUSH1 0x40 SWAP1 KECCAK256 SLOAD SWAP1 JUMP JUMPDEST PUSH2 0x8A1 SWAP2 SWAP1 PUSH2 0x2869 JUMP JUMPDEST PUSH2 0x8AB SWAP2 SWAP1 PUSH2 0x2881 JUMP JUMPDEST PUSH2 0x8B5 SWAP2 SWAP1 PUSH2 0x2847 JUMP JUMPDEST SWAP1 POP PUSH2 0x8C1 DUP3 DUP3 PUSH2 0x2830 JUMP JUMPDEST SWAP5 SWAP4 POP POP POP POP JUMP JUMPDEST SWAP2 SWAP1 POP JUMP JUMPDEST PUSH1 0x0 CALLER PUSH2 0x8DC DUP6 DUP3 DUP6 PUSH2 0x1269 JUMP JUMPDEST PUSH2 0x8E7 DUP6 DUP6 DUP6 PUSH2 0x12E3 JUMP JUMPDEST POP PUSH1 0x1 SWAP5 SWAP4 POP POP POP POP JUMP JUMPDEST PUSH1 0x0 DUP3 DUP2 MSTORE PUSH1 0x7 PUSH1 0x20 MSTORE PUSH1 0x40 SWAP1 KECCAK256 PUSH1 0x1 ADD SLOAD PUSH2 0x90D DUP2 PUSH2 0x1234 JUMP JUMPDEST PUSH2 0x917 DUP4 DUP4 PUSH2 0x146B JUMP JUMPDEST POP POP POP JUMP JUMPDEST PUSH1 0x0 PUSH2 0x926 PUSH2 0x148D JUMP JUMPDEST SWAP1 POP SWAP1 JUMP JUMPDEST PUSH1 0x1 PUSH1 0x1 PUSH1 0xA0 SHL SUB DUP2 AND CALLER EQ PUSH2 0x9A0 JUMPI PUSH1 0x40 MLOAD PUSH3 0x461BCD PUSH1 0xE5 SHL DUP2 MSTORE PUSH1 0x20 PUSH1 0x4 DUP3 ADD MSTORE PUSH1 0x2F PUSH1 0x24 DUP3 ADD MSTORE PUSH32 0x416363657373436F6E74726F6C3A2063616E206F6E6C792072656E6F756E6365 PUSH1 0x44 DUP3 ADD MSTORE PUSH15 0x103937B632B9903337B91039B2B633 PUSH1 0x89 SHL PUSH1 0x64 DUP3 ADD MSTORE PUSH1 0x84 ADD JUMPDEST PUSH1 0x40 MLOAD DUP1 SWAP2 SUB SWAP1 REVERT JUMPDEST PUSH2 0x9AA DUP3 DUP3 PUSH2 0x15B4 JUMP JUMPDEST POP POP JUMP JUMPDEST PUSH32 0xD0AC125722F4B4565AB5E91B234E50C4C6F541672AEA816BA090A0EA349ED93F PUSH2 0x9D8 DUP2 PUSH2 0x1234 JUMP JUMPDEST DUP3 ISZERO DUP1 PUSH2 0x9E3 JUMPI POP DUP4 ISZERO JUMPDEST PUSH2 0xA63 JUMPI PUSH1 0x40 MLOAD PUSH3 0x461BCD PUSH1 0xE5 SHL DUP2 MSTORE PUSH1 0x20 PUSH1 0x4 DUP3 ADD MSTORE PUSH1 0x45 PUSH1 0x24 DUP3 ADD MSTORE PUSH32 0x5472616E73616374696F6E4665653A2043616E6E6F742073657420666565416D PUSH1 0x44 DUP3 ADD MSTORE PUSH32 0x6F756E7420616E64206665654672616374696F6E206174207468652073616D65 PUSH1 0x64 DUP3 ADD MSTORE PUSH5 0x2074696D65 PUSH1 0xD8 SHL PUSH1 0x84 DUP3 ADD MSTORE PUSH1 0xA4 ADD PUSH2 0x997 JUMP JUMPDEST PUSH3 0x186A0 DUP4 GT ISZERO PUSH2 0xAD2 JUMPI PUSH1 0x40 MLOAD PUSH3 0x461BCD PUSH1 0xE5 SHL DUP2 MSTORE PUSH1 0x20 PUSH1 0x4 DUP3 ADD MSTORE PUSH1 0x33 PUSH1 0x24 DUP3 ADD MSTORE PUSH32 0x5472616E73616374696F6E4665653A20557020746F20313025207472616E7361 PUSH1 0x44 DUP3 ADD MSTORE PUSH19 0x18DD1A5BDB9199594818D85B881899481CD95D PUSH1 0x6A SHL PUSH1 0x64 DUP3 ADD MSTORE PUSH1 0x84 ADD PUSH2 0x997 JUMP JUMPDEST PUSH1 0xA DUP5 SWAP1 SSTORE PUSH1 0x9 DUP4 SWAP1 SSTORE PUSH1 0xB DUP1 SLOAD PUSH1 0x1 PUSH1 0x1 PUSH1 0xA0 SHL SUB NOT AND PUSH1 0x1 PUSH1 0x1 PUSH1 0xA0 SHL SUB DUP5 AND SWAP1 DUP2 OR SWAP1 SWAP2 SSTORE PUSH1 0x40 DUP1 MLOAD DUP7 DUP2 MSTORE PUSH1 0x20 DUP2 ADD DUP7 SWAP1 MSTORE SWAP1 DUP2 ADD SWAP2 SWAP1 SWAP2 MSTORE PUSH32 0xD75A7916F83EE976AE8E04E3F9B46C9B16B546303F09F1FC20ECCB6CD6BC476D SWAP1 PUSH1 0x60 ADD PUSH1 0x40 MLOAD DUP1 SWAP2 SUB SWAP1 LOG1 POP POP POP POP JUMP JUMPDEST PUSH1 0x0 CALLER PUSH2 0x6C4 DUP2 DUP6 DUP6 PUSH2 0xB55 DUP4 DUP4 PUSH2 0xF00 JUMP JUMPDEST PUSH2 0xB5F SWAP2 SWAP1 PUSH2 0x2869 JUMP JUMPDEST PUSH2 0x110F JUMP JUMPDEST PUSH1 0x0 DUP1 MLOAD PUSH1 0x20 PUSH2 0x29EC DUP4 CODECOPY DUP2 MLOAD SWAP2 MSTORE PUSH2 0xB7C DUP2 PUSH2 0x1234 JUMP JUMPDEST PUSH2 0x917 DUP4 DUP4 PUSH2 0x15D6 JUMP JUMPDEST PUSH2 0xB90 CALLER DUP3 PUSH2 0x15E0 JUMP JUMPDEST POP JUMP JUMPDEST PUSH1 0xA SLOAD PUSH1 0x0 SWAP1 ISZERO PUSH2 0xBA6 JUMPI POP POP PUSH1 0xA SLOAD SWAP1 JUMP JUMPDEST PUSH1 0x9 SLOAD ISZERO PUSH2 0x8C9 JUMPI PUSH3 0xF4240 PUSH1 0x9 SLOAD DUP4 PUSH2 0xBC0 SWAP2 SWAP1 PUSH2 0x2881 JUMP JUMPDEST PUSH2 0x61E SWAP2 SWAP1 PUSH2 0x2847 JUMP JUMPDEST PUSH2 0xBD5 DUP3 CALLER DUP4 PUSH2 0x1269 JUMP JUMPDEST PUSH2 0x9AA DUP3 DUP3 PUSH2 0x15E0 JUMP JUMPDEST PUSH1 0x1 PUSH1 0x1 PUSH1 0xA0 SHL SUB DUP2 AND PUSH1 0x0 SWAP1 DUP2 MSTORE PUSH1 0x5 PUSH1 0x20 MSTORE PUSH1 0x40 DUP2 KECCAK256 SLOAD PUSH2 0x61E JUMP JUMPDEST PUSH1 0x0 DUP3 DUP2 MSTORE PUSH1 0x8 PUSH1 0x20 MSTORE PUSH1 0x40 DUP2 KECCAK256 PUSH2 0xC15 SWAP1 DUP4 PUSH2 0x1728 JUMP JUMPDEST SWAP4 SWAP3 POP POP POP JUMP JUMPDEST PUSH1 0x0 SWAP2 DUP3 MSTORE PUSH1 0x7 PUSH1 0x20 SWAP1 DUP2 MSTORE PUSH1 0x40 DUP1 DUP5 KECCAK256 PUSH1 0x1 PUSH1 0x1 PUSH1 0xA0 SHL SUB SWAP4 SWAP1 SWAP4 AND DUP5 MSTORE SWAP2 SWAP1 MSTORE SWAP1 KECCAK256 SLOAD PUSH1 0xFF AND SWAP1 JUMP JUMPDEST PUSH1 0x60 PUSH1 0x4 DUP1 SLOAD PUSH2 0x633 SWAP1 PUSH2 0x27E6 JUMP JUMPDEST PUSH1 0x0 CALLER DUP2 PUSH2 0xC64 DUP3 DUP7 PUSH2 0xF00 JUMP JUMPDEST SWAP1 POP DUP4 DUP2 LT ISZERO PUSH2 0xCC4 JUMPI PUSH1 0x40 MLOAD PUSH3 0x461BCD PUSH1 0xE5 SHL DUP2 MSTORE PUSH1 0x20 PUSH1 0x4 DUP3 ADD MSTORE PUSH1 0x25 PUSH1 0x24 DUP3 ADD MSTORE PUSH32 0x45524332303A2064656372656173656420616C6C6F77616E63652062656C6F77 PUSH1 0x44 DUP3 ADD MSTORE PUSH5 0x207A65726F PUSH1 0xD8 SHL PUSH1 0x64 DUP3 ADD MSTORE PUSH1 0x84 ADD PUSH2 0x997 JUMP JUMPDEST PUSH2 0x8E7 DUP3 DUP7 DUP7 DUP5 SUB PUSH2 0x110F JUMP JUMPDEST PUSH1 0x0 CALLER PUSH2 0x6C4 DUP2 DUP6 DUP6 PUSH2 0x12E3 JUMP JUMPDEST PUSH1 0x0 DUP1 MLOAD PUSH1 0x20 PUSH2 0x29EC DUP4 CODECOPY DUP2 MLOAD SWAP2 MSTORE PUSH2 0xCF7 DUP2 PUSH2 0x1234 JUMP JUMPDEST PUSH1 0x0 JUMPDEST PUSH2 0xFFFF DUP2 AND DUP5 GT ISZERO PUSH2 0xD4C JUMPI PUSH2 0xD3A DUP6 DUP6 DUP4 PUSH2 0xFFFF AND DUP2 DUP2 LT PUSH2 0xD1F JUMPI PUSH2 0xD1F PUSH2 0x28A0 JUMP JUMPDEST SWAP1 POP PUSH1 0x20 MUL ADD PUSH1 0x20 DUP2 ADD SWAP1 PUSH2 0xD34 SWAP2 SWAP1 PUSH2 0x25DB JUMP JUMPDEST DUP5 PUSH2 0x15D6 JUMP JUMPDEST DUP1 PUSH2 0xD44 DUP2 PUSH2 0x28B6 JUMP JUMPDEST SWAP2 POP POP PUSH2 0xCFA JUMP JUMPDEST POP POP POP POP POP JUMP JUMPDEST PUSH1 0x0 PUSH2 0x61E PUSH1 0xC DUP4 PUSH2 0x1734 JUMP JUMPDEST PUSH1 0x0 DUP2 DUP2 MSTORE PUSH1 0x8 PUSH1 0x20 MSTORE PUSH1 0x40 DUP2 KECCAK256 PUSH2 0x61E SWAP1 PUSH2 0x1749 JUMP JUMPDEST DUP4 TIMESTAMP GT ISZERO PUSH2 0xDC7 JUMPI PUSH1 0x40 MLOAD PUSH3 0x461BCD PUSH1 0xE5 SHL DUP2 MSTORE PUSH1 0x20 PUSH1 0x4 DUP3 ADD MSTORE PUSH1 0x1D PUSH1 0x24 DUP3 ADD MSTORE PUSH32 0x45524332305065726D69743A206578706972656420646561646C696E65000000 PUSH1 0x44 DUP3 ADD MSTORE PUSH1 0x64 ADD PUSH2 0x997 JUMP JUMPDEST PUSH1 0x0 PUSH32 0x6E71EDAE12B1B97F4D1F60370FEF10105FA2FAAE0126114A169C64845D6126C9 DUP9 DUP9 DUP9 PUSH2 0xDF6 DUP13 PUSH2 0x1753 JUMP JUMPDEST PUSH1 0x40 DUP1 MLOAD PUSH1 0x20 DUP2 ADD SWAP7 SWAP1 SWAP7 MSTORE PUSH1 0x1 PUSH1 0x1 PUSH1 0xA0 SHL SUB SWAP5 DUP6 AND SWAP1 DUP7 ADD MSTORE SWAP3 SWAP1 SWAP2 AND PUSH1 0x60 DUP5 ADD MSTORE PUSH1 0x80 DUP4 ADD MSTORE PUSH1 0xA0 DUP3 ADD MSTORE PUSH1 0xC0 DUP2 ADD DUP7 SWAP1 MSTORE PUSH1 0xE0 ADD PUSH1 0x40 MLOAD PUSH1 0x20 DUP2 DUP4 SUB SUB DUP2 MSTORE SWAP1 PUSH1 0x40 MSTORE DUP1 MLOAD SWAP1 PUSH1 0x20 ADD KECCAK256 SWAP1 POP PUSH1 0x0 PUSH2 0xE51 DUP3 PUSH2 0x177B JUMP JUMPDEST SWAP1 POP PUSH1 0x0 PUSH2 0xE61 DUP3 DUP8 DUP8 DUP8 PUSH2 0x17C9 JUMP JUMPDEST SWAP1 POP DUP10 PUSH1 0x1 PUSH1 0x1 PUSH1 0xA0 SHL SUB AND DUP2 PUSH1 0x1 PUSH1 0x1 PUSH1 0xA0 SHL SUB AND EQ PUSH2 0xEC4 JUMPI PUSH1 0x40 MLOAD PUSH3 0x461BCD PUSH1 0xE5 SHL DUP2 MSTORE PUSH1 0x20 PUSH1 0x4 DUP3 ADD MSTORE PUSH1 0x1E PUSH1 0x24 DUP3 ADD MSTORE PUSH32 0x45524332305065726D69743A20696E76616C6964207369676E61747572650000 PUSH1 0x44 DUP3 ADD MSTORE PUSH1 0x64 ADD PUSH2 0x997 JUMP JUMPDEST PUSH2 0xECF DUP11 DUP11 DUP11 PUSH2 0x110F JUMP JUMPDEST POP POP POP POP POP POP POP POP POP POP JUMP JUMPDEST PUSH1 0x0 DUP3 DUP2 MSTORE PUSH1 0x7 PUSH1 0x20 MSTORE PUSH1 0x40 SWAP1 KECCAK256 PUSH1 0x1 ADD SLOAD PUSH2 0xEF6 DUP2 PUSH2 0x1234 JUMP JUMPDEST PUSH2 0x917 DUP4 DUP4 PUSH2 0x15B4 JUMP JUMPDEST PUSH1 0x1 PUSH1 0x1 PUSH1 0xA0 SHL SUB SWAP2 DUP3 AND PUSH1 0x0 SWAP1 DUP2 MSTORE PUSH1 0x1 PUSH1 0x20 SWAP1 DUP2 MSTORE PUSH1 0x40 DUP1 DUP4 KECCAK256 SWAP4 SWAP1 SWAP5 AND DUP3 MSTORE SWAP2 SWAP1 SWAP2 MSTORE KECCAK256 SLOAD SWAP1 JUMP JUMPDEST PUSH32 0x23AB0E580195340A5A67800CAFA0615701EDFA22F79534A52851336E3CF8376A PUSH2 0xF55 DUP2 PUSH2 0x1234 JUMP JUMPDEST PUSH2 0x917 PUSH1 0xC DUP4 PUSH2 0x17F1 JUMP JUMPDEST PUSH32 0xB24C1025622FE38445B605F5C1A9BB02BE7F6522D24C8A159E5E47E62DBAAECF PUSH2 0xF8A DUP2 PUSH2 0x1234 JUMP JUMPDEST PUSH3 0xF4240 DUP3 GT ISZERO PUSH2 0x1003 JUMPI PUSH1 0x40 MLOAD PUSH3 0x461BCD PUSH1 0xE5 SHL DUP2 MSTORE PUSH1 0x20 PUSH1 0x4 DUP3 ADD MSTORE PUSH1 0x3A PUSH1 0x24 DUP3 ADD MSTORE PUSH32 0x5472616E73666572436F6E74726F6C3A206D6178696D756D206672616374696F PUSH1 0x44 DUP3 ADD MSTORE PUSH32 0x6E2069732031302A2A362028657175616C20746F203130302529000000000000 PUSH1 0x64 DUP3 ADD MSTORE PUSH1 0x84 ADD PUSH2 0x997 JUMP JUMPDEST PUSH1 0x10 DUP3 SWAP1 SSTORE PUSH1 0x40 MLOAD DUP3 DUP2 MSTORE PUSH32 0xA83163EA39ECBDC3AF173E3337234FBE2F88B17DCA9802EC3186E557D365E2D1 SWAP1 PUSH1 0x20 ADD PUSH1 0x40 MLOAD DUP1 SWAP2 SUB SWAP1 LOG1 POP POP JUMP JUMPDEST PUSH2 0x1049 DUP3 DUP3 PUSH2 0xC1C JUMP JUMPDEST PUSH2 0x9AA JUMPI PUSH1 0x0 DUP3 DUP2 MSTORE PUSH1 0x7 PUSH1 0x20 SWAP1 DUP2 MSTORE PUSH1 0x40 DUP1 DUP4 KECCAK256 PUSH1 0x1 PUSH1 0x1 PUSH1 0xA0 SHL SUB DUP6 AND DUP5 MSTORE SWAP1 SWAP2 MSTORE SWAP1 KECCAK256 DUP1 SLOAD PUSH1 0xFF NOT AND PUSH1 0x1 OR SWAP1 SSTORE PUSH2 0x1081 CALLER SWAP1 JUMP JUMPDEST PUSH1 0x1 PUSH1 0x1 PUSH1 0xA0 SHL SUB AND DUP2 PUSH1 0x1 PUSH1 0x1 PUSH1 0xA0 SHL SUB AND DUP4 PUSH32 0x2F8788117E7EFF1D82E926EC794901D17C78024A50270940304540A733656F0D PUSH1 0x40 MLOAD PUSH1 0x40 MLOAD DUP1 SWAP2 SUB SWAP1 LOG4 POP POP JUMP JUMPDEST PUSH1 0x0 PUSH2 0xC15 DUP4 PUSH1 0x1 PUSH1 0x1 PUSH1 0xA0 SHL SUB DUP5 AND PUSH2 0x1806 JUMP JUMPDEST PUSH1 0x0 PUSH1 0x1 PUSH1 0x1 PUSH1 0xE0 SHL SUB NOT DUP3 AND PUSH4 0x7965DB0B PUSH1 0xE0 SHL EQ DUP1 PUSH2 0x61E JUMPI POP PUSH4 0x1FFC9A7 PUSH1 0xE0 SHL PUSH1 0x1 PUSH1 0x1 PUSH1 0xE0 SHL SUB NOT DUP4 AND EQ PUSH2 0x61E JUMP JUMPDEST PUSH1 0x1 PUSH1 0x1 PUSH1 0xA0 SHL SUB DUP4 AND PUSH2 0x1171 JUMPI PUSH1 0x40 MLOAD PUSH3 0x461BCD PUSH1 0xE5 SHL DUP2 MSTORE PUSH1 0x20 PUSH1 0x4 DUP3 ADD MSTORE PUSH1 0x24 DUP1 DUP3 ADD MSTORE PUSH32 0x45524332303A20617070726F76652066726F6D20746865207A65726F20616464 PUSH1 0x44 DUP3 ADD MSTORE PUSH4 0x72657373 PUSH1 0xE0 SHL PUSH1 0x64 DUP3 ADD MSTORE PUSH1 0x84 ADD PUSH2 0x997 JUMP JUMPDEST PUSH1 0x1 PUSH1 0x1 PUSH1 0xA0 SHL SUB DUP3 AND PUSH2 0x11D2 JUMPI PUSH1 0x40 MLOAD PUSH3 0x461BCD PUSH1 0xE5 SHL DUP2 MSTORE PUSH1 0x20 PUSH1 0x4 DUP3 ADD MSTORE PUSH1 0x22 PUSH1 0x24 DUP3 ADD MSTORE PUSH32 0x45524332303A20617070726F766520746F20746865207A65726F206164647265 PUSH1 0x44 DUP3 ADD MSTORE PUSH2 0x7373 PUSH1 0xF0 SHL PUSH1 0x64 DUP3 ADD MSTORE PUSH1 0x84 ADD PUSH2 0x997 JUMP JUMPDEST PUSH1 0x1 PUSH1 0x1 PUSH1 0xA0 SHL SUB DUP4 DUP2 AND PUSH1 0x0 DUP2 DUP2 MSTORE PUSH1 0x1 PUSH1 0x20 SWAP1 DUP2 MSTORE PUSH1 0x40 DUP1 DUP4 KECCAK256 SWAP5 DUP8 AND DUP1 DUP5 MSTORE SWAP5 DUP3 MSTORE SWAP2 DUP3 SWAP1 KECCAK256 DUP6 SWAP1 SSTORE SWAP1 MLOAD DUP5 DUP2 MSTORE PUSH32 0x8C5BE1E5EBEC7D5BD14F71427D1E84F3DD0314C0F7B2291E5B200AC8C7C3B925 SWAP2 ADD JUMPDEST PUSH1 0x40 MLOAD DUP1 SWAP2 SUB SWAP1 LOG3 POP POP POP JUMP JUMPDEST PUSH2 0xB90 DUP2 CALLER PUSH2 0x1855 JUMP JUMPDEST PUSH1 0x0 PUSH2 0x8C1 DUP5 PUSH1 0x1 PUSH1 0x1 PUSH1 0xA0 SHL SUB DUP6 AND DUP5 PUSH2 0x18B9 JUMP JUMPDEST PUSH1 0x0 PUSH2 0xC15 DUP4 PUSH1 0x1 PUSH1 0x1 PUSH1 0xA0 SHL SUB DUP5 AND PUSH2 0x18D6 JUMP JUMPDEST PUSH1 0x0 PUSH2 0x1275 DUP5 DUP5 PUSH2 0xF00 JUMP JUMPDEST SWAP1 POP PUSH1 0x0 NOT DUP2 EQ PUSH2 0x12DD JUMPI DUP2 DUP2 LT ISZERO PUSH2 0x12D0 JUMPI PUSH1 0x40 MLOAD PUSH3 0x461BCD PUSH1 0xE5 SHL DUP2 MSTORE PUSH1 0x20 PUSH1 0x4 DUP3 ADD MSTORE PUSH1 0x1D PUSH1 0x24 DUP3 ADD MSTORE PUSH32 0x45524332303A20696E73756666696369656E7420616C6C6F77616E6365000000 PUSH1 0x44 DUP3 ADD MSTORE PUSH1 0x64 ADD PUSH2 0x997 JUMP JUMPDEST PUSH2 0x12DD DUP5 DUP5 DUP5 DUP5 SUB PUSH2 0x110F JUMP JUMPDEST POP POP POP POP JUMP JUMPDEST PUSH1 0x1 PUSH1 0x1 PUSH1 0xA0 SHL SUB DUP4 AND PUSH2 0x1347 JUMPI PUSH1 0x40 MLOAD PUSH3 0x461BCD PUSH1 0xE5 SHL DUP2 MSTORE PUSH1 0x20 PUSH1 0x4 DUP3 ADD MSTORE PUSH1 0x25 PUSH1 0x24 DUP3 ADD MSTORE PUSH32 0x45524332303A207472616E736665722066726F6D20746865207A65726F206164 PUSH1 0x44 DUP3 ADD MSTORE PUSH5 0x6472657373 PUSH1 0xD8 SHL PUSH1 0x64 DUP3 ADD MSTORE PUSH1 0x84 ADD PUSH2 0x997 JUMP JUMPDEST PUSH1 0x1 PUSH1 0x1 PUSH1 0xA0 SHL SUB DUP3 AND PUSH2 0x13A9 JUMPI PUSH1 0x40 MLOAD PUSH3 0x461BCD PUSH1 0xE5 SHL DUP2 MSTORE PUSH1 0x20 PUSH1 0x4 DUP3 ADD MSTORE PUSH1 0x23 PUSH1 0x24 DUP3 ADD MSTORE PUSH32 0x45524332303A207472616E7366657220746F20746865207A65726F2061646472 PUSH1 0x44 DUP3 ADD MSTORE PUSH3 0x657373 PUSH1 0xE8 SHL PUSH1 0x64 DUP3 ADD MSTORE PUSH1 0x84 ADD PUSH2 0x997 JUMP JUMPDEST PUSH2 0x13B4 DUP4 DUP4 DUP4 PUSH2 0x1946 JUMP JUMPDEST PUSH1 0x1 PUSH1 0x1 PUSH1 0xA0 SHL SUB DUP4 AND PUSH1 0x0 SWAP1 DUP2 MSTORE PUSH1 0x20 DUP2 SWAP1 MSTORE PUSH1 0x40 SWAP1 KECCAK256 SLOAD DUP2 DUP2 LT ISZERO PUSH2 0x13ED JUMPI PUSH1 0x40 MLOAD PUSH3 0x461BCD PUSH1 0xE5 SHL DUP2 MSTORE PUSH1 0x4 ADD PUSH2 0x997 SWAP1 PUSH2 0x28D7 JUMP JUMPDEST PUSH1 0x1 PUSH1 0x1 PUSH1 0xA0 SHL SUB DUP1 DUP6 AND PUSH1 0x0 SWAP1 DUP2 MSTORE PUSH1 0x20 DUP2 SWAP1 MSTORE PUSH1 0x40 DUP1 DUP3 KECCAK256 DUP6 DUP6 SUB SWAP1 SSTORE SWAP2 DUP6 AND DUP2 MSTORE SWAP1 DUP2 KECCAK256 DUP1 SLOAD DUP5 SWAP3 SWAP1 PUSH2 0x1424 SWAP1 DUP5 SWAP1 PUSH2 0x2869 JUMP JUMPDEST SWAP3 POP POP DUP2 SWAP1 SSTORE POP DUP3 PUSH1 0x1 PUSH1 0x1 PUSH1 0xA0 SHL SUB AND DUP5 PUSH1 0x1 PUSH1 0x1 PUSH1 0xA0 SHL SUB AND PUSH1 0x0 DUP1 MLOAD PUSH1 0x20 PUSH2 0x2A0C DUP4 CODECOPY DUP2 MLOAD SWAP2 MSTORE DUP5 PUSH1 0x40 MLOAD PUSH2 0x145E SWAP2 DUP2 MSTORE PUSH1 0x20 ADD SWAP1 JUMP JUMPDEST PUSH1 0x40 MLOAD DUP1 SWAP2 SUB SWAP1 LOG3 PUSH2 0x12DD JUMP JUMPDEST PUSH2 0x1475 DUP3 DUP3 PUSH2 0x103F JUMP JUMPDEST PUSH1 0x0 DUP3 DUP2 MSTORE PUSH1 0x8 PUSH1 0x20 MSTORE PUSH1 0x40 SWAP1 KECCAK256 PUSH2 0x917 SWAP1 DUP3 PUSH2 0x10C5 JUMP JUMPDEST PUSH1 0x0 ADDRESS PUSH1 0x1 PUSH1 0x1 PUSH1 0xA0 SHL SUB PUSH32 0x0 AND EQ DUP1 ISZERO PUSH2 0x14E6 JUMPI POP PUSH32 0x0 CHAINID EQ JUMPDEST ISZERO PUSH2 0x1510 JUMPI POP PUSH32 0x0 SWAP1 JUMP JUMPDEST POP PUSH1 0x40 DUP1 MLOAD PUSH32 0x0 PUSH1 0x20 DUP1 DUP4 ADD SWAP2 SWAP1 SWAP2 MSTORE PUSH32 0x0 DUP3 DUP5 ADD MSTORE PUSH32 0x0 PUSH1 0x60 DUP4 ADD MSTORE CHAINID PUSH1 0x80 DUP4 ADD MSTORE ADDRESS PUSH1 0xA0 DUP1 DUP5 ADD SWAP2 SWAP1 SWAP2 MSTORE DUP4 MLOAD DUP1 DUP5 SUB SWAP1 SWAP2 ADD DUP2 MSTORE PUSH1 0xC0 SWAP1 SWAP3 ADD SWAP1 SWAP3 MSTORE DUP1 MLOAD SWAP2 ADD KECCAK256 SWAP1 JUMP JUMPDEST PUSH2 0x15BE DUP3 DUP3 PUSH2 0x1951 JUMP JUMPDEST PUSH1 0x0 DUP3 DUP2 MSTORE PUSH1 0x8 PUSH1 0x20 MSTORE PUSH1 0x40 SWAP1 KECCAK256 PUSH2 0x917 SWAP1 DUP3 PUSH2 0x19B8 JUMP JUMPDEST PUSH2 0x9AA DUP3 DUP3 PUSH2 0x19CD JUMP JUMPDEST PUSH1 0x1 PUSH1 0x1 PUSH1 0xA0 SHL SUB DUP3 AND PUSH2 0x1640 JUMPI PUSH1 0x40 MLOAD PUSH3 0x461BCD PUSH1 0xE5 SHL DUP2 MSTORE PUSH1 0x20 PUSH1 0x4 DUP3 ADD MSTORE PUSH1 0x21 PUSH1 0x24 DUP3 ADD MSTORE PUSH32 0x45524332303A206275726E2066726F6D20746865207A65726F20616464726573 PUSH1 0x44 DUP3 ADD MSTORE PUSH1 0x73 PUSH1 0xF8 SHL PUSH1 0x64 DUP3 ADD MSTORE PUSH1 0x84 ADD PUSH2 0x997 JUMP JUMPDEST PUSH2 0x164C DUP3 PUSH1 0x0 DUP4 PUSH2 0x1946 JUMP JUMPDEST PUSH1 0x1 PUSH1 0x1 PUSH1 0xA0 SHL SUB DUP3 AND PUSH1 0x0 SWAP1 DUP2 MSTORE PUSH1 0x20 DUP2 SWAP1 MSTORE PUSH1 0x40 SWAP1 KECCAK256 SLOAD DUP2 DUP2 LT ISZERO PUSH2 0x16C0 JUMPI PUSH1 0x40 MLOAD PUSH3 0x461BCD PUSH1 0xE5 SHL DUP2 MSTORE PUSH1 0x20 PUSH1 0x4 DUP3 ADD MSTORE PUSH1 0x22 PUSH1 0x24 DUP3 ADD MSTORE PUSH32 0x45524332303A206275726E20616D6F756E7420657863656564732062616C616E PUSH1 0x44 DUP3 ADD MSTORE PUSH2 0x6365 PUSH1 0xF0 SHL PUSH1 0x64 DUP3 ADD MSTORE PUSH1 0x84 ADD PUSH2 0x997 JUMP JUMPDEST PUSH1 0x1 PUSH1 0x1 PUSH1 0xA0 SHL SUB DUP4 AND PUSH1 0x0 SWAP1 DUP2 MSTORE PUSH1 0x20 DUP2 SWAP1 MSTORE PUSH1 0x40 DUP2 KECCAK256 DUP4 DUP4 SUB SWAP1 SSTORE PUSH1 0x2 DUP1 SLOAD DUP5 SWAP3 SWAP1 PUSH2 0x16EF SWAP1 DUP5 SWAP1 PUSH2 0x2830 JUMP JUMPDEST SWAP1 SWAP2 SSTORE POP POP PUSH1 0x40 MLOAD DUP3 DUP2 MSTORE PUSH1 0x0 SWAP1 PUSH1 0x1 PUSH1 0x1 PUSH1 0xA0 SHL SUB DUP6 AND SWAP1 PUSH1 0x0 DUP1 MLOAD PUSH1 0x20 PUSH2 0x2A0C DUP4 CODECOPY DUP2 MLOAD SWAP2 MSTORE SWAP1 PUSH1 0x20 ADD PUSH1 0x40 MLOAD DUP1 SWAP2 SUB SWAP1 LOG3 POP POP POP JUMP JUMPDEST PUSH1 0x0 PUSH2 0xC15 DUP4 DUP4 PUSH2 0x1A5A JUMP JUMPDEST PUSH1 0x0 PUSH2 0xC15 DUP4 PUSH1 0x1 PUSH1 0x1 PUSH1 0xA0 SHL SUB DUP5 AND PUSH2 0x1A84 JUMP JUMPDEST PUSH1 0x0 PUSH2 0x61E DUP3 SLOAD SWAP1 JUMP JUMPDEST PUSH1 0x1 PUSH1 0x1 PUSH1 0xA0 SHL SUB DUP2 AND PUSH1 0x0 SWAP1 DUP2 MSTORE PUSH1 0x5 PUSH1 0x20 MSTORE PUSH1 0x40 SWAP1 KECCAK256 DUP1 SLOAD PUSH1 0x1 DUP2 ADD DUP3 SSTORE SWAP1 JUMPDEST POP SWAP2 SWAP1 POP JUMP JUMPDEST PUSH1 0x0 PUSH2 0x61E PUSH2 0x1788 PUSH2 0x148D JUMP JUMPDEST DUP4 PUSH1 0x40 MLOAD PUSH2 0x1901 PUSH1 0xF0 SHL PUSH1 0x20 DUP3 ADD MSTORE PUSH1 0x22 DUP2 ADD DUP4 SWAP1 MSTORE PUSH1 0x42 DUP2 ADD DUP3 SWAP1 MSTORE PUSH1 0x0 SWAP1 PUSH1 0x62 ADD PUSH1 0x40 MLOAD PUSH1 0x20 DUP2 DUP4 SUB SUB DUP2 MSTORE SWAP1 PUSH1 0x40 MSTORE DUP1 MLOAD SWAP1 PUSH1 0x20 ADD KECCAK256 SWAP1 POP SWAP3 SWAP2 POP POP JUMP JUMPDEST PUSH1 0x0 DUP1 PUSH1 0x0 PUSH2 0x17DA DUP8 DUP8 DUP8 DUP8 PUSH2 0x1A90 JUMP JUMPDEST SWAP2 POP SWAP2 POP PUSH2 0x17E7 DUP2 PUSH2 0x1B7D JUMP JUMPDEST POP SWAP6 SWAP5 POP POP POP POP POP JUMP JUMPDEST PUSH1 0x0 PUSH2 0xC15 DUP4 PUSH1 0x1 PUSH1 0x1 PUSH1 0xA0 SHL SUB DUP5 AND PUSH2 0x1D33 JUMP JUMPDEST PUSH1 0x0 DUP2 DUP2 MSTORE PUSH1 0x1 DUP4 ADD PUSH1 0x20 MSTORE PUSH1 0x40 DUP2 KECCAK256 SLOAD PUSH2 0x184D JUMPI POP DUP2 SLOAD PUSH1 0x1 DUP2 DUP2 ADD DUP5 SSTORE PUSH1 0x0 DUP5 DUP2 MSTORE PUSH1 0x20 DUP1 DUP3 KECCAK256 SWAP1 SWAP4 ADD DUP5 SWAP1 SSTORE DUP5 SLOAD DUP5 DUP3 MSTORE DUP3 DUP7 ADD SWAP1 SWAP4 MSTORE PUSH1 0x40 SWAP1 KECCAK256 SWAP2 SWAP1 SWAP2 SSTORE PUSH2 0x61E JUMP JUMPDEST POP PUSH1 0x0 PUSH2 0x61E JUMP JUMPDEST PUSH2 0x185F DUP3 DUP3 PUSH2 0xC1C JUMP JUMPDEST PUSH2 0x9AA JUMPI PUSH2 0x1877 DUP2 PUSH1 0x1 PUSH1 0x1 PUSH1 0xA0 SHL SUB AND PUSH1 0x14 PUSH2 0x1D50 JUMP JUMPDEST PUSH2 0x1882 DUP4 PUSH1 0x20 PUSH2 0x1D50 JUMP JUMPDEST PUSH1 0x40 MLOAD PUSH1 0x20 ADD PUSH2 0x1893 SWAP3 SWAP2 SWAP1 PUSH2 0x291D JUMP JUMPDEST PUSH1 0x40 DUP1 MLOAD PUSH1 0x1F NOT DUP2 DUP5 SUB ADD DUP2 MSTORE SWAP1 DUP3 SWAP1 MSTORE PUSH3 0x461BCD PUSH1 0xE5 SHL DUP3 MSTORE PUSH2 0x997 SWAP2 PUSH1 0x4 ADD PUSH2 0x2567 JUMP JUMPDEST PUSH1 0x0 DUP3 DUP2 MSTORE PUSH1 0x2 DUP5 ADD PUSH1 0x20 MSTORE PUSH1 0x40 DUP2 KECCAK256 DUP3 SWAP1 SSTORE PUSH2 0x8C1 DUP5 DUP5 PUSH2 0x1EEC JUMP JUMPDEST PUSH1 0x0 DUP2 DUP2 MSTORE PUSH1 0x2 DUP4 ADD PUSH1 0x20 MSTORE PUSH1 0x40 DUP2 KECCAK256 SLOAD DUP1 ISZERO ISZERO DUP1 PUSH2 0x18FA JUMPI POP PUSH2 0x18FA DUP5 DUP5 PUSH2 0x1A84 JUMP JUMPDEST PUSH2 0xC15 JUMPI PUSH1 0x40 MLOAD PUSH3 0x461BCD PUSH1 0xE5 SHL DUP2 MSTORE PUSH1 0x20 PUSH1 0x4 DUP3 ADD MSTORE PUSH1 0x1E PUSH1 0x24 DUP3 ADD MSTORE PUSH32 0x456E756D657261626C654D61703A206E6F6E6578697374656E74206B65790000 PUSH1 0x44 DUP3 ADD MSTORE PUSH1 0x64 ADD PUSH2 0x997 JUMP JUMPDEST PUSH2 0x917 DUP4 DUP4 DUP4 PUSH2 0x1EF8 JUMP JUMPDEST PUSH2 0x195B DUP3 DUP3 PUSH2 0xC1C JUMP JUMPDEST ISZERO PUSH2 0x9AA JUMPI PUSH1 0x0 DUP3 DUP2 MSTORE PUSH1 0x7 PUSH1 0x20 SWAP1 DUP2 MSTORE PUSH1 0x40 DUP1 DUP4 KECCAK256 PUSH1 0x1 PUSH1 0x1 PUSH1 0xA0 SHL SUB DUP6 AND DUP1 DUP6 MSTORE SWAP3 MSTORE DUP1 DUP4 KECCAK256 DUP1 SLOAD PUSH1 0xFF NOT AND SWAP1 SSTORE MLOAD CALLER SWAP3 DUP6 SWAP2 PUSH32 0xF6391F5C32D9C69D2A47EA670B442974B53935D1EDC7FD64EB21E047A839171B SWAP2 SWAP1 LOG4 POP POP JUMP JUMPDEST PUSH1 0x0 PUSH2 0xC15 DUP4 PUSH1 0x1 PUSH1 0x1 PUSH1 0xA0 SHL SUB DUP5 AND PUSH2 0x1F2A JUMP JUMPDEST PUSH32 0x0 DUP2 PUSH2 0x19F8 PUSH1 0x2 SLOAD SWAP1 JUMP JUMPDEST PUSH2 0x1A02 SWAP2 SWAP1 PUSH2 0x2869 JUMP JUMPDEST GT ISZERO PUSH2 0x1A50 JUMPI PUSH1 0x40 MLOAD PUSH3 0x461BCD PUSH1 0xE5 SHL DUP2 MSTORE PUSH1 0x20 PUSH1 0x4 DUP3 ADD MSTORE PUSH1 0x19 PUSH1 0x24 DUP3 ADD MSTORE PUSH32 0x45524332304361707065643A2063617020657863656564656400000000000000 PUSH1 0x44 DUP3 ADD MSTORE PUSH1 0x64 ADD PUSH2 0x997 JUMP JUMPDEST PUSH2 0x9AA DUP3 DUP3 PUSH2 0x201D JUMP JUMPDEST PUSH1 0x0 DUP3 PUSH1 0x0 ADD DUP3 DUP2 SLOAD DUP2 LT PUSH2 0x1A71 JUMPI PUSH2 0x1A71 PUSH2 0x28A0 JUMP JUMPDEST SWAP1 PUSH1 0x0 MSTORE PUSH1 0x20 PUSH1 0x0 KECCAK256 ADD SLOAD SWAP1 POP SWAP3 SWAP2 POP POP JUMP JUMPDEST PUSH1 0x0 PUSH2 0xC15 DUP4 DUP4 PUSH2 0x20F6 JUMP JUMPDEST PUSH1 0x0 DUP1 PUSH32 0x7FFFFFFFFFFFFFFFFFFFFFFFFFFFFFFF5D576E7357A4501DDFE92F46681B20A0 DUP4 GT ISZERO PUSH2 0x1AC7 JUMPI POP PUSH1 0x0 SWAP1 POP PUSH1 0x3 PUSH2 0x1B74 JUMP JUMPDEST DUP5 PUSH1 0xFF AND PUSH1 0x1B EQ ISZERO DUP1 ISZERO PUSH2 0x1ADF JUMPI POP DUP5 PUSH1 0xFF AND PUSH1 0x1C EQ ISZERO JUMPDEST ISZERO PUSH2 0x1AF0 JUMPI POP PUSH1 0x0 SWAP1 POP PUSH1 0x4 PUSH2 0x1B74 JUMP JUMPDEST PUSH1 0x40 DUP1 MLOAD PUSH1 0x0 DUP1 DUP3 MSTORE PUSH1 0x20 DUP3 ADD DUP1 DUP5 MSTORE DUP10 SWAP1 MSTORE PUSH1 0xFF DUP9 AND SWAP3 DUP3 ADD SWAP3 SWAP1 SWAP3 MSTORE PUSH1 0x60 DUP2 ADD DUP7 SWAP1 MSTORE PUSH1 0x80 DUP2 ADD DUP6 SWAP1 MSTORE PUSH1 0x1 SWAP1 PUSH1 0xA0 ADD PUSH1 0x20 PUSH1 0x40 MLOAD PUSH1 0x20 DUP2 SUB SWAP1 DUP1 DUP5 SUB SWAP1 DUP6 GAS STATICCALL ISZERO DUP1 ISZERO PUSH2 0x1B44 JUMPI RETURNDATASIZE PUSH1 0x0 DUP1 RETURNDATACOPY RETURNDATASIZE PUSH1 0x0 REVERT JUMPDEST POP POP PUSH1 0x40 MLOAD PUSH1 0x1F NOT ADD MLOAD SWAP2 POP POP PUSH1 0x1 PUSH1 0x1 PUSH1 0xA0 SHL SUB DUP2 AND PUSH2 0x1B6D JUMPI PUSH1 0x0 PUSH1 0x1 SWAP3 POP SWAP3 POP POP PUSH2 0x1B74 JUMP JUMPDEST SWAP2 POP PUSH1 0x0 SWAP1 POP JUMPDEST SWAP5 POP SWAP5 SWAP3 POP POP POP JUMP JUMPDEST PUSH1 0x0 DUP2 PUSH1 0x4 DUP2 GT ISZERO PUSH2 0x1B91 JUMPI PUSH2 0x1B91 PUSH2 0x2992 JUMP JUMPDEST SUB PUSH2 0x1B99 JUMPI POP JUMP JUMPDEST PUSH1 0x1 DUP2 PUSH1 0x4 DUP2 GT ISZERO PUSH2 0x1BAD JUMPI PUSH2 0x1BAD PUSH2 0x2992 JUMP JUMPDEST SUB PUSH2 0x1BFA JUMPI PUSH1 0x40 MLOAD PUSH3 0x461BCD PUSH1 0xE5 SHL DUP2 MSTORE PUSH1 0x20 PUSH1 0x4 DUP3 ADD MSTORE PUSH1 0x18 PUSH1 0x24 DUP3 ADD MSTORE PUSH32 0x45434453413A20696E76616C6964207369676E61747572650000000000000000 PUSH1 0x44 DUP3 ADD MSTORE PUSH1 0x64 ADD PUSH2 0x997 JUMP JUMPDEST PUSH1 0x2 DUP2 PUSH1 0x4 DUP2 GT ISZERO PUSH2 0x1C0E JUMPI PUSH2 0x1C0E PUSH2 0x2992 JUMP JUMPDEST SUB PUSH2 0x1C5B JUMPI PUSH1 0x40 MLOAD PUSH3 0x461BCD PUSH1 0xE5 SHL DUP2 MSTORE PUSH1 0x20 PUSH1 0x4 DUP3 ADD MSTORE PUSH1 0x1F PUSH1 0x24 DUP3 ADD MSTORE PUSH32 0x45434453413A20696E76616C6964207369676E6174757265206C656E67746800 PUSH1 0x44 DUP3 ADD MSTORE PUSH1 0x64 ADD PUSH2 0x997 JUMP JUMPDEST PUSH1 0x3 DUP2 PUSH1 0x4 DUP2 GT ISZERO PUSH2 0x1C6F JUMPI PUSH2 0x1C6F PUSH2 0x2992 JUMP JUMPDEST SUB PUSH2 0x1CC7 JUMPI PUSH1 0x40 MLOAD PUSH3 0x461BCD PUSH1 0xE5 SHL DUP2 MSTORE PUSH1 0x20 PUSH1 0x4 DUP3 ADD MSTORE PUSH1 0x22 PUSH1 0x24 DUP3 ADD MSTORE PUSH32 0x45434453413A20696E76616C6964207369676E6174757265202773272076616C PUSH1 0x44 DUP3 ADD MSTORE PUSH2 0x7565 PUSH1 0xF0 SHL PUSH1 0x64 DUP3 ADD MSTORE PUSH1 0x84 ADD PUSH2 0x997 JUMP JUMPDEST PUSH1 0x4 DUP2 PUSH1 0x4 DUP2 GT ISZERO PUSH2 0x1CDB JUMPI PUSH2 0x1CDB PUSH2 0x2992 JUMP JUMPDEST SUB PUSH2 0xB90 JUMPI PUSH1 0x40 MLOAD PUSH3 0x461BCD PUSH1 0xE5 SHL DUP2 MSTORE PUSH1 0x20 PUSH1 0x4 DUP3 ADD MSTORE PUSH1 0x22 PUSH1 0x24 DUP3 ADD MSTORE PUSH32 0x45434453413A20696E76616C6964207369676E6174757265202776272076616C PUSH1 0x44 DUP3 ADD MSTORE PUSH2 0x7565 PUSH1 0xF0 SHL PUSH1 0x64 DUP3 ADD MSTORE PUSH1 0x84 ADD PUSH2 0x997 JUMP JUMPDEST PUSH1 0x0 DUP2 DUP2 MSTORE PUSH1 0x2 DUP4 ADD PUSH1 0x20 MSTORE PUSH1 0x40 DUP2 KECCAK256 DUP2 SWAP1 SSTORE PUSH2 0xC15 DUP4 DUP4 PUSH2 0x210E JUMP JUMPDEST PUSH1 0x60 PUSH1 0x0 PUSH2 0x1D5F DUP4 PUSH1 0x2 PUSH2 0x2881 JUMP JUMPDEST PUSH2 0x1D6A SWAP1 PUSH1 0x2 PUSH2 0x2869 JUMP JUMPDEST PUSH8 0xFFFFFFFFFFFFFFFF DUP2 GT ISZERO PUSH2 0x1D82 JUMPI PUSH2 0x1D82 PUSH2 0x29A8 JUMP JUMPDEST PUSH1 0x40 MLOAD SWAP1 DUP1 DUP3 MSTORE DUP1 PUSH1 0x1F ADD PUSH1 0x1F NOT AND PUSH1 0x20 ADD DUP3 ADD PUSH1 0x40 MSTORE DUP1 ISZERO PUSH2 0x1DAC JUMPI PUSH1 0x20 DUP3 ADD DUP2 DUP1 CALLDATASIZE DUP4 CALLDATACOPY ADD SWAP1 POP JUMPDEST POP SWAP1 POP PUSH1 0x3 PUSH1 0xFC SHL DUP2 PUSH1 0x0 DUP2 MLOAD DUP2 LT PUSH2 0x1DC7 JUMPI PUSH2 0x1DC7 PUSH2 0x28A0 JUMP JUMPDEST PUSH1 0x20 ADD ADD SWAP1 PUSH1 0x1 PUSH1 0x1 PUSH1 0xF8 SHL SUB NOT AND SWAP1 DUP2 PUSH1 0x0 BYTE SWAP1 MSTORE8 POP PUSH1 0xF PUSH1 0xFB SHL DUP2 PUSH1 0x1 DUP2 MLOAD DUP2 LT PUSH2 0x1DF6 JUMPI PUSH2 0x1DF6 PUSH2 0x28A0 JUMP JUMPDEST PUSH1 0x20 ADD ADD SWAP1 PUSH1 0x1 PUSH1 0x1 PUSH1 0xF8 SHL SUB NOT AND SWAP1 DUP2 PUSH1 0x0 BYTE SWAP1 MSTORE8 POP PUSH1 0x0 PUSH2 0x1E1A DUP5 PUSH1 0x2 PUSH2 0x2881 JUMP JUMPDEST PUSH2 0x1E25 SWAP1 PUSH1 0x1 PUSH2 0x2869 JUMP JUMPDEST SWAP1 POP JUMPDEST PUSH1 0x1 DUP2 GT ISZERO PUSH2 0x1E9D JUMPI PUSH16 0x181899199A1A9B1B9C1CB0B131B232B3 PUSH1 0x81 SHL DUP6 PUSH1 0xF AND PUSH1 0x10 DUP2 LT PUSH2 0x1E59 JUMPI PUSH2 0x1E59 PUSH2 0x28A0 JUMP JUMPDEST BYTE PUSH1 0xF8 SHL DUP3 DUP3 DUP2 MLOAD DUP2 LT PUSH2 0x1E6F JUMPI PUSH2 0x1E6F PUSH2 0x28A0 JUMP JUMPDEST PUSH1 0x20 ADD ADD SWAP1 PUSH1 0x1 PUSH1 0x1 PUSH1 0xF8 SHL SUB NOT AND SWAP1 DUP2 PUSH1 0x0 BYTE SWAP1 MSTORE8 POP PUSH1 0x4 SWAP5 SWAP1 SWAP5 SHR SWAP4 PUSH2 0x1E96 DUP2 PUSH2 0x29BE JUMP JUMPDEST SWAP1 POP PUSH2 0x1E28 JUMP JUMPDEST POP DUP4 ISZERO PUSH2 0xC15 JUMPI PUSH1 0x40 MLOAD PUSH3 0x461BCD PUSH1 0xE5 SHL DUP2 MSTORE PUSH1 0x20 PUSH1 0x4 DUP3 ADD DUP2 SWAP1 MSTORE PUSH1 0x24 DUP3 ADD MSTORE PUSH32 0x537472696E67733A20686578206C656E67746820696E73756666696369656E74 PUSH1 0x44 DUP3 ADD MSTORE PUSH1 0x64 ADD PUSH2 0x997 JUMP JUMPDEST PUSH1 0x0 PUSH2 0xC15 DUP4 DUP4 PUSH2 0x1806 JUMP JUMPDEST PUSH1 0x1 PUSH1 0x1 PUSH1 0xA0 SHL SUB DUP4 AND PUSH2 0x1F15 JUMPI PUSH2 0x1F10 CALLER DUP3 PUSH2 0x211A JUMP JUMPDEST PUSH2 0x1F1F JUMP JUMPDEST PUSH2 0x1F1F DUP4 DUP3 PUSH2 0x211A JUMP JUMPDEST PUSH2 0x917 DUP4 DUP4 DUP4 PUSH2 0x2391 JUMP JUMPDEST PUSH1 0x0 DUP2 DUP2 MSTORE PUSH1 0x1 DUP4 ADD PUSH1 0x20 MSTORE PUSH1 0x40 DUP2 KECCAK256 SLOAD DUP1 ISZERO PUSH2 0x2013 JUMPI PUSH1 0x0 PUSH2 0x1F4E PUSH1 0x1 DUP4 PUSH2 0x2830 JUMP JUMPDEST DUP6 SLOAD SWAP1 SWAP2 POP PUSH1 0x0 SWAP1 PUSH2 0x1F62 SWAP1 PUSH1 0x1 SWAP1 PUSH2 0x2830 JUMP JUMPDEST SWAP1 POP DUP2 DUP2 EQ PUSH2 0x1FC7 JUMPI PUSH1 0x0 DUP7 PUSH1 0x0 ADD DUP3 DUP2 SLOAD DUP2 LT PUSH2 0x1F82 JUMPI PUSH2 0x1F82 PUSH2 0x28A0 JUMP JUMPDEST SWAP1 PUSH1 0x0 MSTORE PUSH1 0x20 PUSH1 0x0 KECCAK256 ADD SLOAD SWAP1 POP DUP1 DUP8 PUSH1 0x0 ADD DUP5 DUP2 SLOAD DUP2 LT PUSH2 0x1FA5 JUMPI PUSH2 0x1FA5 PUSH2 0x28A0 JUMP JUMPDEST PUSH1 0x0 SWAP2 DUP3 MSTORE PUSH1 0x20 DUP1 DUP4 KECCAK256 SWAP1 SWAP2 ADD SWAP3 SWAP1 SWAP3 SSTORE SWAP2 DUP3 MSTORE PUSH1 0x1 DUP9 ADD SWAP1 MSTORE PUSH1 0x40 SWAP1 KECCAK256 DUP4 SWAP1 SSTORE JUMPDEST DUP6 SLOAD DUP7 SWAP1 DUP1 PUSH2 0x1FD8 JUMPI PUSH2 0x1FD8 PUSH2 0x29D5 JUMP JUMPDEST PUSH1 0x1 SWAP1 SUB DUP2 DUP2 SWAP1 PUSH1 0x0 MSTORE PUSH1 0x20 PUSH1 0x0 KECCAK256 ADD PUSH1 0x0 SWAP1 SSTORE SWAP1 SSTORE DUP6 PUSH1 0x1 ADD PUSH1 0x0 DUP7 DUP2 MSTORE PUSH1 0x20 ADD SWAP1 DUP2 MSTORE PUSH1 0x20 ADD PUSH1 0x0 KECCAK256 PUSH1 0x0 SWAP1 SSTORE PUSH1 0x1 SWAP4 POP POP POP POP PUSH2 0x61E JUMP JUMPDEST PUSH1 0x0 SWAP2 POP POP PUSH2 0x61E JUMP JUMPDEST PUSH1 0x1 PUSH1 0x1 PUSH1 0xA0 SHL SUB DUP3 AND PUSH2 0x2073 JUMPI PUSH1 0x40 MLOAD PUSH3 0x461BCD PUSH1 0xE5 SHL DUP2 MSTORE PUSH1 0x20 PUSH1 0x4 DUP3 ADD MSTORE PUSH1 0x1F PUSH1 0x24 DUP3 ADD MSTORE PUSH32 0x45524332303A206D696E7420746F20746865207A65726F206164647265737300 PUSH1 0x44 DUP3 ADD MSTORE PUSH1 0x64 ADD PUSH2 0x997 JUMP JUMPDEST PUSH2 0x207F PUSH1 0x0 DUP4 DUP4 PUSH2 0x1946 JUMP JUMPDEST DUP1 PUSH1 0x2 PUSH1 0x0 DUP3 DUP3 SLOAD PUSH2 0x2091 SWAP2 SWAP1 PUSH2 0x2869 JUMP JUMPDEST SWAP1 SWAP2 SSTORE POP POP PUSH1 0x1 PUSH1 0x1 PUSH1 0xA0 SHL SUB DUP3 AND PUSH1 0x0 SWAP1 DUP2 MSTORE PUSH1 0x20 DUP2 SWAP1 MSTORE PUSH1 0x40 DUP2 KECCAK256 DUP1 SLOAD DUP4 SWAP3 SWAP1 PUSH2 0x20BE SWAP1 DUP5 SWAP1 PUSH2 0x2869 JUMP JUMPDEST SWAP1 SWAP2 SSTORE POP POP PUSH1 0x40 MLOAD DUP2 DUP2 MSTORE PUSH1 0x1 PUSH1 0x1 PUSH1 0xA0 SHL SUB DUP4 AND SWAP1 PUSH1 0x0 SWAP1 PUSH1 0x0 DUP1 MLOAD PUSH1 0x20 PUSH2 0x2A0C DUP4 CODECOPY DUP2 MLOAD SWAP2 MSTORE SWAP1 PUSH1 0x20 ADD PUSH1 0x40 MLOAD DUP1 SWAP2 SUB SWAP1 LOG3 POP POP JUMP JUMPDEST PUSH1 0x0 DUP2 DUP2 MSTORE PUSH1 0x1 DUP4 ADD PUSH1 0x20 MSTORE PUSH1 0x40 DUP2 KECCAK256 SLOAD ISZERO ISZERO PUSH2 0xC15 JUMP JUMPDEST PUSH1 0x0 PUSH2 0xC15 DUP4 DUP4 PUSH2 0x1F2A JUMP JUMPDEST PUSH2 0x2123 DUP3 PUSH2 0xD53 JUMP JUMPDEST ISZERO PUSH2 0x21B2 JUMPI PUSH1 0x0 PUSH2 0x2135 PUSH1 0xC DUP5 PUSH2 0x1254 JUMP JUMPDEST SWAP1 POP DUP1 DUP3 GT ISZERO PUSH2 0x219B JUMPI PUSH1 0x40 MLOAD PUSH3 0x461BCD PUSH1 0xE5 SHL DUP2 MSTORE PUSH1 0x20 PUSH1 0x4 DUP3 ADD MSTORE PUSH1 0x2B PUSH1 0x24 DUP3 ADD MSTORE PUSH32 0x5472616E73666572436F6E74726F6C3A20616D6F756E74206578636565647320 PUSH1 0x44 DUP3 ADD MSTORE PUSH11 0x1CDC195B99081B1A5B5A5D PUSH1 0xAA SHL PUSH1 0x64 DUP3 ADD MSTORE PUSH1 0x84 ADD PUSH2 0x997 JUMP JUMPDEST PUSH2 0x12DD DUP4 PUSH2 0x21A9 DUP5 DUP5 PUSH2 0x2830 JUMP JUMPDEST PUSH1 0xC SWAP2 SWAP1 PUSH2 0x123E JUMP JUMPDEST PUSH3 0xF4240 PUSH1 0x10 SLOAD LT DUP1 ISZERO PUSH2 0x21DB JUMPI POP PUSH2 0x21D9 PUSH1 0x0 DUP1 MLOAD PUSH1 0x20 PUSH2 0x29EC DUP4 CODECOPY DUP2 MLOAD SWAP2 MSTORE CALLER PUSH2 0xC1C JUMP JUMPDEST ISZERO JUMPDEST ISZERO PUSH2 0x9AA JUMPI PUSH1 0x0 PUSH32 0x0 PUSH2 0x222D PUSH32 0x0 TIMESTAMP PUSH2 0x2830 JUMP JUMPDEST PUSH2 0x2237 SWAP2 SWAP1 PUSH2 0x2847 JUMP JUMPDEST PUSH1 0x1 PUSH1 0x1 PUSH1 0xA0 SHL SUB DUP5 AND PUSH1 0x0 SWAP1 DUP2 MSTORE PUSH1 0xF PUSH1 0x20 MSTORE PUSH1 0x40 DUP2 KECCAK256 SLOAD SWAP2 SWAP3 POP PUSH2 0x225D DUP5 DUP4 PUSH2 0x2869 JUMP JUMPDEST PUSH1 0x1 PUSH1 0x1 PUSH1 0xA0 SHL SUB DUP7 AND PUSH1 0x0 SWAP1 DUP2 MSTORE PUSH1 0xF PUSH1 0x20 MSTORE PUSH1 0x40 SWAP1 KECCAK256 PUSH1 0x1 ADD SLOAD SWAP1 SWAP2 POP DUP4 SWAP1 SUB PUSH2 0x229F JUMPI PUSH1 0x1 PUSH1 0x1 PUSH1 0xA0 SHL SUB DUP6 AND PUSH1 0x0 SWAP1 DUP2 MSTORE PUSH1 0xF PUSH1 0x20 MSTORE PUSH1 0x40 SWAP1 KECCAK256 SLOAD SWAP2 POP JUMPDEST PUSH1 0x0 PUSH3 0xF4240 PUSH1 0x10 SLOAD DUP5 PUSH2 0x22C8 DUP10 PUSH1 0x1 PUSH1 0x1 PUSH1 0xA0 SHL SUB AND PUSH1 0x0 SWAP1 DUP2 MSTORE PUSH1 0x20 DUP2 SWAP1 MSTORE PUSH1 0x40 SWAP1 KECCAK256 SLOAD SWAP1 JUMP JUMPDEST PUSH2 0x22D2 SWAP2 SWAP1 PUSH2 0x2869 JUMP JUMPDEST PUSH2 0x22DC SWAP2 SWAP1 PUSH2 0x2881 JUMP JUMPDEST PUSH2 0x22E6 SWAP2 SWAP1 PUSH2 0x2847 JUMP JUMPDEST SWAP1 POP DUP1 DUP3 GT ISZERO PUSH2 0x2353 JUMPI PUSH1 0x40 MLOAD PUSH3 0x461BCD PUSH1 0xE5 SHL DUP2 MSTORE PUSH1 0x20 PUSH1 0x4 DUP3 ADD MSTORE PUSH1 0x32 PUSH1 0x24 DUP3 ADD MSTORE PUSH32 0x5472616E73666572436F6E74726F6C3A20616D6F756E74206578636565647320 PUSH1 0x44 DUP3 ADD MSTORE PUSH18 0x1C195C9A5BD9081CDC195B99081B1A5B5A5D PUSH1 0x72 SHL PUSH1 0x64 DUP3 ADD MSTORE PUSH1 0x84 ADD PUSH2 0x997 JUMP JUMPDEST POP PUSH1 0x40 DUP1 MLOAD DUP1 DUP3 ADD DUP3 MSTORE SWAP2 DUP3 MSTORE PUSH1 0x20 DUP1 DUP4 ADD SWAP5 DUP6 MSTORE PUSH1 0x1 PUSH1 0x1 PUSH1 0xA0 SHL SUB DUP8 AND PUSH1 0x0 SWAP1 DUP2 MSTORE PUSH1 0xF SWAP1 SWAP2 MSTORE KECCAK256 SWAP1 MLOAD DUP2 SSTORE SWAP2 MLOAD PUSH1 0x1 SWAP1 SWAP3 ADD SWAP2 SWAP1 SWAP2 SSTORE POP POP POP JUMP JUMPDEST PUSH2 0x917 CALLER DUP3 PUSH2 0x23AE PUSH1 0x0 DUP1 MLOAD PUSH1 0x20 PUSH2 0x29EC DUP4 CODECOPY DUP2 MLOAD SWAP2 MSTORE DUP4 PUSH2 0xC1C JUMP JUMPDEST PUSH2 0x9AA JUMPI PUSH1 0x0 PUSH1 0x9 SLOAD GT DUP1 PUSH2 0x23C5 JUMPI POP PUSH1 0x0 PUSH1 0xA SLOAD GT JUMPDEST ISZERO PUSH2 0x9AA JUMPI PUSH1 0x0 PUSH2 0x23D5 DUP3 PUSH2 0xB93 JUMP JUMPDEST PUSH1 0xB SLOAD SWAP1 SWAP2 POP PUSH2 0x917 SWAP1 DUP5 SWAP1 PUSH1 0x1 PUSH1 0x1 PUSH1 0xA0 SHL SUB AND DUP4 PUSH2 0x917 DUP4 DUP4 DUP4 PUSH2 0x23FB DUP4 DUP3 PUSH2 0x211A JUMP JUMPDEST PUSH2 0x917 DUP4 DUP4 DUP4 PUSH1 0x1 PUSH1 0x1 PUSH1 0xA0 SHL SUB DUP4 AND ISZERO PUSH2 0x246C JUMPI PUSH1 0x1 PUSH1 0x1 PUSH1 0xA0 SHL SUB DUP4 AND PUSH1 0x0 SWAP1 DUP2 MSTORE PUSH1 0x20 DUP2 SWAP1 MSTORE PUSH1 0x40 SWAP1 KECCAK256 SLOAD DUP2 DUP2 LT ISZERO PUSH2 0x2449 JUMPI PUSH1 0x40 MLOAD PUSH3 0x461BCD PUSH1 0xE5 SHL DUP2 MSTORE PUSH1 0x4 ADD PUSH2 0x997 SWAP1 PUSH2 0x28D7 JUMP JUMPDEST PUSH1 0x1 PUSH1 0x1 PUSH1 0xA0 SHL SUB DUP5 AND PUSH1 0x0 SWAP1 DUP2 MSTORE PUSH1 0x20 DUP2 SWAP1 MSTORE PUSH1 0x40 SWAP1 KECCAK256 SWAP1 DUP3 SWAP1 SUB SWAP1 SSTORE PUSH2 0x2484 JUMP JUMPDEST DUP1 PUSH1 0x2 PUSH1 0x0 DUP3 DUP3 SLOAD PUSH2 0x247E SWAP2 SWAP1 PUSH2 0x2869 JUMP JUMPDEST SWAP1 SWAP2 SSTORE POP POP JUMPDEST PUSH1 0x1 PUSH1 0x1 PUSH1 0xA0 SHL SUB DUP3 AND ISZERO PUSH2 0x24C6 JUMPI PUSH1 0x1 PUSH1 0x1 PUSH1 0xA0 SHL SUB DUP3 AND PUSH1 0x0 SWAP1 DUP2 MSTORE PUSH1 0x20 DUP2 SWAP1 MSTORE PUSH1 0x40 DUP2 KECCAK256 DUP1 SLOAD DUP4 SWAP3 SWAP1 PUSH2 0x24BB SWAP1 DUP5 SWAP1 PUSH2 0x2869 JUMP JUMPDEST SWAP1 SWAP2 SSTORE POP PUSH2 0x24DE SWAP1 POP JUMP JUMPDEST DUP1 PUSH1 0x2 PUSH1 0x0 DUP3 DUP3 SLOAD PUSH2 0x24D8 SWAP2 SWAP1 PUSH2 0x2830 JUMP JUMPDEST SWAP1 SWAP2 SSTORE POP POP JUMPDEST DUP2 PUSH1 0x1 PUSH1 0x1 PUSH1 0xA0 SHL SUB AND DUP4 PUSH1 0x1 PUSH1 0x1 PUSH1 0xA0 SHL SUB AND PUSH1 0x0 DUP1 MLOAD PUSH1 0x20 PUSH2 0x2A0C DUP4 CODECOPY DUP2 MLOAD SWAP2 MSTORE DUP4 PUSH1 0x40 MLOAD PUSH2 0x1227 SWAP2 DUP2 MSTORE PUSH1 0x20 ADD SWAP1 JUMP JUMPDEST PUSH1 0x0 PUSH1 0x20 DUP3 DUP5 SUB SLT ISZERO PUSH2 0x2523 JUMPI PUSH1 0x0 DUP1 REVERT JUMPDEST DUP2 CALLDATALOAD PUSH1 0x1 PUSH1 0x1 PUSH1 0xE0 SHL SUB NOT DUP2 AND DUP2 EQ PUSH2 0xC15 JUMPI PUSH1 0x0 DUP1 REVERT JUMPDEST PUSH1 0x0 JUMPDEST DUP4 DUP2 LT ISZERO PUSH2 0x2556 JUMPI DUP2 DUP2 ADD MLOAD DUP4 DUP3 ADD MSTORE PUSH1 0x20 ADD PUSH2 0x253E JUMP JUMPDEST DUP4 DUP2 GT ISZERO PUSH2 0x12DD JUMPI POP POP PUSH1 0x0 SWAP2 ADD MSTORE JUMP JUMPDEST PUSH1 0x20 DUP2 MSTORE PUSH1 0x0 DUP3 MLOAD DUP1 PUSH1 0x20 DUP5 ADD MSTORE PUSH2 0x2586 DUP2 PUSH1 0x40 DUP6 ADD PUSH1 0x20 DUP8 ADD PUSH2 0x253B JUMP JUMPDEST PUSH1 0x1F ADD PUSH1 0x1F NOT AND SWAP2 SWAP1 SWAP2 ADD PUSH1 0x40 ADD SWAP3 SWAP2 POP POP JUMP JUMPDEST DUP1 CALLDATALOAD PUSH1 0x1 PUSH1 0x1 PUSH1 0xA0 SHL SUB DUP2 AND DUP2 EQ PUSH2 0x8C9 JUMPI PUSH1 0x0 DUP1 REVERT JUMPDEST PUSH1 0x0 DUP1 PUSH1 0x40 DUP4 DUP6 SUB SLT ISZERO PUSH2 0x25C4 JUMPI PUSH1 0x0 DUP1 REVERT JUMPDEST PUSH2 0x25CD DUP4 PUSH2 0x259A JUMP JUMPDEST SWAP5 PUSH1 0x20 SWAP4 SWAP1 SWAP4 ADD CALLDATALOAD SWAP4 POP POP POP JUMP JUMPDEST PUSH1 0x0 PUSH1 0x20 DUP3 DUP5 SUB SLT ISZERO PUSH2 0x25ED JUMPI PUSH1 0x0 DUP1 REVERT JUMPDEST PUSH2 0xC15 DUP3 PUSH2 0x259A JUMP JUMPDEST PUSH1 0x0 DUP1 PUSH1 0x0 PUSH1 0x60 DUP5 DUP7 SUB SLT ISZERO PUSH2 0x260B JUMPI PUSH1 0x0 DUP1 REVERT JUMPDEST PUSH2 0x2614 DUP5 PUSH2 0x259A JUMP JUMPDEST SWAP3 POP PUSH2 0x2622 PUSH1 0x20 DUP6 ADD PUSH2 0x259A JUMP JUMPDEST SWAP2 POP PUSH1 0x40 DUP5 ADD CALLDATALOAD SWAP1 POP SWAP3 POP SWAP3 POP SWAP3 JUMP JUMPDEST PUSH1 0x0 PUSH1 0x20 DUP3 DUP5 SUB SLT ISZERO PUSH2 0x2644 JUMPI PUSH1 0x0 DUP1 REVERT JUMPDEST POP CALLDATALOAD SWAP2 SWAP1 POP JUMP JUMPDEST PUSH1 0x0 DUP1 PUSH1 0x40 DUP4 DUP6 SUB SLT ISZERO PUSH2 0x265E JUMPI PUSH1 0x0 DUP1 REVERT JUMPDEST DUP3 CALLDATALOAD SWAP2 POP PUSH2 0x266E PUSH1 0x20 DUP5 ADD PUSH2 0x259A JUMP JUMPDEST SWAP1 POP SWAP3 POP SWAP3 SWAP1 POP JUMP JUMPDEST PUSH1 0x0 DUP1 PUSH1 0x0 PUSH1 0x60 DUP5 DUP7 SUB SLT ISZERO PUSH2 0x268C JUMPI PUSH1 0x0 DUP1 REVERT JUMPDEST DUP4 CALLDATALOAD SWAP3 POP PUSH1 0x20 DUP5 ADD CALLDATALOAD SWAP2 POP PUSH2 0x26A3 PUSH1 0x40 DUP6 ADD PUSH2 0x259A JUMP JUMPDEST SWAP1 POP SWAP3 POP SWAP3 POP SWAP3 JUMP JUMPDEST PUSH1 0x0 DUP1 PUSH1 0x40 DUP4 DUP6 SUB SLT ISZERO PUSH2 0x26BF JUMPI PUSH1 0x0 DUP1 REVERT JUMPDEST POP POP DUP1 CALLDATALOAD SWAP3 PUSH1 0x20 SWAP1 SWAP2 ADD CALLDATALOAD SWAP2 POP JUMP JUMPDEST PUSH1 0x0 DUP1 PUSH1 0x0 PUSH1 0x40 DUP5 DUP7 SUB SLT ISZERO PUSH2 0x26E3 JUMPI PUSH1 0x0 DUP1 REVERT JUMPDEST DUP4 CALLDATALOAD PUSH8 0xFFFFFFFFFFFFFFFF DUP1 DUP3 GT ISZERO PUSH2 0x26FB JUMPI PUSH1 0x0 DUP1 REVERT JUMPDEST DUP2 DUP7 ADD SWAP2 POP DUP7 PUSH1 0x1F DUP4 ADD SLT PUSH2 0x270F JUMPI PUSH1 0x0 DUP1 REVERT JUMPDEST DUP2 CALLDATALOAD DUP2 DUP2 GT ISZERO PUSH2 0x271E JUMPI PUSH1 0x0 DUP1 REVERT JUMPDEST DUP8 PUSH1 0x20 DUP3 PUSH1 0x5 SHL DUP6 ADD ADD GT ISZERO PUSH2 0x2733 JUMPI PUSH1 0x0 DUP1 REVERT JUMPDEST PUSH1 0x20 SWAP3 DUP4 ADD SWAP9 SWAP1 SWAP8 POP SWAP6 SWAP1 SWAP2 ADD CALLDATALOAD SWAP5 SWAP4 POP POP POP POP JUMP JUMPDEST PUSH1 0x0 DUP1 PUSH1 0x0 DUP1 PUSH1 0x0 DUP1 PUSH1 0x0 PUSH1 0xE0 DUP9 DUP11 SUB SLT ISZERO PUSH2 0x2764 JUMPI PUSH1 0x0 DUP1 REVERT JUMPDEST PUSH2 0x276D DUP9 PUSH2 0x259A JUMP JUMPDEST SWAP7 POP PUSH2 0x277B PUSH1 0x20 DUP10 ADD PUSH2 0x259A JUMP JUMPDEST SWAP6 POP PUSH1 0x40 DUP9 ADD CALLDATALOAD SWAP5 POP PUSH1 0x60 DUP9 ADD CALLDATALOAD SWAP4 POP PUSH1 0x80 DUP9 ADD CALLDATALOAD PUSH1 0xFF DUP2 AND DUP2 EQ PUSH2 0x279F JUMPI PUSH1 0x0 DUP1 REVERT JUMPDEST SWAP7 SWAP10 SWAP6 SWAP9 POP SWAP4 SWAP7 SWAP3 SWAP6 SWAP5 PUSH1 0xA0 DUP5 ADD CALLDATALOAD SWAP5 POP PUSH1 0xC0 SWAP1 SWAP4 ADD CALLDATALOAD SWAP3 SWAP2 POP POP JUMP JUMPDEST PUSH1 0x0 DUP1 PUSH1 0x40 DUP4 DUP6 SUB SLT ISZERO PUSH2 0x27CF JUMPI PUSH1 0x0 DUP1 REVERT JUMPDEST PUSH2 0x27D8 DUP4 PUSH2 0x259A JUMP JUMPDEST SWAP2 POP PUSH2 0x266E PUSH1 0x20 DUP5 ADD PUSH2 0x259A JUMP JUMPDEST PUSH1 0x1 DUP2 DUP2 SHR SWAP1 DUP3 AND DUP1 PUSH2 0x27FA JUMPI PUSH1 0x7F DUP3 AND SWAP2 POP JUMPDEST PUSH1 0x20 DUP3 LT DUP2 SUB PUSH2 0x1775 JUMPI PUSH4 0x4E487B71 PUSH1 0xE0 SHL PUSH1 0x0 MSTORE PUSH1 0x22 PUSH1 0x4 MSTORE PUSH1 0x24 PUSH1 0x0 REVERT JUMPDEST PUSH4 0x4E487B71 PUSH1 0xE0 SHL PUSH1 0x0 MSTORE PUSH1 0x11 PUSH1 0x4 MSTORE PUSH1 0x24 PUSH1 0x0 REVERT JUMPDEST PUSH1 0x0 DUP3 DUP3 LT ISZERO PUSH2 0x2842 JUMPI PUSH2 0x2842 PUSH2 0x281A JUMP JUMPDEST POP SUB SWAP1 JUMP JUMPDEST PUSH1 0x0 DUP3 PUSH2 0x2864 JUMPI PUSH4 0x4E487B71 PUSH1 0xE0 SHL PUSH1 0x0 MSTORE PUSH1 0x12 PUSH1 0x4 MSTORE PUSH1 0x24 PUSH1 0x0 REVERT JUMPDEST POP DIV SWAP1 JUMP JUMPDEST PUSH1 0x0 DUP3 NOT DUP3 GT ISZERO PUSH2 0x287C JUMPI PUSH2 0x287C PUSH2 0x281A JUMP JUMPDEST POP ADD SWAP1 JUMP JUMPDEST PUSH1 0x0 DUP2 PUSH1 0x0 NOT DIV DUP4 GT DUP3 ISZERO ISZERO AND ISZERO PUSH2 0x289B JUMPI PUSH2 0x289B PUSH2 0x281A JUMP JUMPDEST POP MUL SWAP1 JUMP JUMPDEST PUSH4 0x4E487B71 PUSH1 0xE0 SHL PUSH1 0x0 MSTORE PUSH1 0x32 PUSH1 0x4 MSTORE PUSH1 0x24 PUSH1 0x0 REVERT JUMPDEST PUSH1 0x0 PUSH2 0xFFFF DUP1 DUP4 AND DUP2 DUP2 SUB PUSH2 0x28CD JUMPI PUSH2 0x28CD PUSH2 0x281A JUMP JUMPDEST PUSH1 0x1 ADD SWAP4 SWAP3 POP POP POP JUMP JUMPDEST PUSH1 0x20 DUP1 DUP3 MSTORE PUSH1 0x26 SWAP1 DUP3 ADD MSTORE PUSH32 0x45524332303A207472616E7366657220616D6F756E7420657863656564732062 PUSH1 0x40 DUP3 ADD MSTORE PUSH6 0x616C616E6365 PUSH1 0xD0 SHL PUSH1 0x60 DUP3 ADD MSTORE PUSH1 0x80 ADD SWAP1 JUMP JUMPDEST PUSH32 0x416363657373436F6E74726F6C3A206163636F756E7420000000000000000000 DUP2 MSTORE PUSH1 0x0 DUP4 MLOAD PUSH2 0x2955 DUP2 PUSH1 0x17 DUP6 ADD PUSH1 0x20 DUP9 ADD PUSH2 0x253B JUMP JUMPDEST PUSH17 0x1034B99036B4B9B9B4B733903937B6329 PUSH1 0x7D SHL PUSH1 0x17 SWAP2 DUP5 ADD SWAP2 DUP3 ADD MSTORE DUP4 MLOAD PUSH2 0x2986 DUP2 PUSH1 0x28 DUP5 ADD PUSH1 0x20 DUP9 ADD PUSH2 0x253B JUMP JUMPDEST ADD PUSH1 0x28 ADD SWAP5 SWAP4 POP POP POP POP JUMP JUMPDEST PUSH4 0x4E487B71 PUSH1 0xE0 SHL PUSH1 0x0 MSTORE PUSH1 0x21 PUSH1 0x4 MSTORE PUSH1 0x24 PUSH1 0x0 REVERT JUMPDEST PUSH4 0x4E487B71 PUSH1 0xE0 SHL PUSH1 0x0 MSTORE PUSH1 0x41 PUSH1 0x4 MSTORE PUSH1 0x24 PUSH1 0x0 REVERT JUMPDEST PUSH1 0x0 DUP2 PUSH2 0x29CD JUMPI PUSH2 0x29CD PUSH2 0x281A JUMP JUMPDEST POP PUSH1 0x0 NOT ADD SWAP1 JUMP JUMPDEST PUSH4 0x4E487B71 PUSH1 0xE0 SHL PUSH1 0x0 MSTORE PUSH1 0x31 PUSH1 0x4 MSTORE PUSH1 0x24 PUSH1 0x0 REVERT INVALID SWAP16 0x2D CREATE INVALID 0xD2 0xC7 PUSH23 0x48DE5860A4CC508CD0818C85B8B8A1AB4CEEEF8D981C89 JUMP 0xA6 0xDD CALLCODE MSTORE 0xAD SHL 0xE2 0xC8 SWAP12 PUSH10 0xC2B068FC378DAA952BA7 CALL PUSH4 0xC4A11628 CREATE2 GAS 0x4D CREATE2 0x23 0xB3 0xEF LOG2 PUSH5 0x6970667358 0x22 SLT KECCAK256 DUP13 REVERT 0xB0 BYTE 0xAE 0xAC INVALID PUSH25 0x4C0BB692588BB7D71E9E4F4DD18017D1AEC146EA5E0232AC64 PUSH20 0x6F6C634300080F00330000000000000000000000 "},"methodIdentifiers":{"DEFAULT_ADMIN_ROLE()":"a217fddf","DOMAIN_SEPARATOR()":"3644e515","MINTER_ROLE()":"d5391393","RESTRICTOR_ROLE()":"51bcee27","TRANSACTION_FEE_SETTER()":"0ecbd033","TRANSFER_LIMIT_SETTER()":"3e0b2cda","allowance(address,address)":"dd62ed3e","approve(address,uint256)":"095ea7b3","balanceOf(address)":"70a08231","burn(uint256)":"42966c68","burnFrom(address,uint256)":"79cc6790","canSpend(address)":"234eaedc","cap()":"355274ea","decimals()":"313ce567","decreaseAllowance(address,uint256)":"a457c2d7","district(address)":"e162533c","feeDetails()":"1f2c5443","getRoleAdmin(bytes32)":"248a9ca3","getRoleMember(bytes32,uint256)":"9010d07c","getRoleMemberCount(bytes32)":"ca15c873","grantRole(bytes32,address)":"2f2ff15d","hasRole(bytes32,address)":"91d14854","increaseAllowance(address,uint256)":"39509351","isRestricted(address)":"c01bc982","mint(address,uint256)":"40c10f19","mintBatch(address[],uint256)":"b6afc4dc","name()":"06fdde03","nonces(address)":"7ecebe00","monthlyLimit()":"f74929e0","permit(address,address,uint256,uint256,uint8,bytes32,bytes32)":"d505accf","renounceRole(bytes32,address)":"36568abe","restrict(address,uint256)":"1681f830","revokeRole(bytes32,address)":"d547741f","setPeriodTransferLimit(uint256)":"fad71be2","setTransactionFee(uint256,uint256,address)":"367065de","supportsInterface(bytes4)":"01ffc9a7","symbol()":"95d89b41","totalSupply()":"18160ddd","transactionFee(uint256)":"5d1edb87","transfer(address,uint256)":"a9059cbb","transferFrom(address,address,uint256)":"23b872dd"}}}}}