{"contracts/StakePool/BNBStakePool.sol":{"BNBStakePool":{"abi":[{"inputs":[],"stateMutability":"nonpayable","type":"constructor"},{"anonymous":false,"inputs":[{"indexed":true,"internalType":"address","name":"investor","type":"address"},{"indexed":true,"internalType":"uint256","name":"investId","type":"uint256"},{"indexed":false,"internalType":"uint256","name":"amount","type":"uint256"},{"indexed":false,"internalType":"uint256","name":"start","type":"uint256"},{"indexed":false,"internalType":"uint256","name":"end","type":"uint256"},{"indexed":false,"internalType":"uint256","name":"profit","type":"uint256"}],"name":"NewInvestment","type":"event"},{"anonymous":false,"inputs":[{"indexed":true,"internalType":"address","name":"previousOwner","type":"address"},{"indexed":true,"internalType":"address","name":"newOwner","type":"address"}],"name":"OwnershipTransferred","type":"event"},{"anonymous":false,"inputs":[{"indexed":false,"internalType":"address","name":"account","type":"address"}],"name":"Paused","type":"event"},{"anonymous":false,"inputs":[{"indexed":true,"internalType":"uint256","name":"duration","type":"uint256"},{"indexed":false,"internalType":"uint256","name":"profit","type":"uint256"}],"name":"SetPlan","type":"event"},{"anonymous":false,"inputs":[{"indexed":false,"internalType":"address","name":"account","type":"address"}],"name":"Unpaused","type":"event"},{"anonymous":false,"inputs":[{"indexed":true,"internalType":"address","name":"investor","type":"address"},{"indexed":true,"internalType":"uint256","name":"investId","type":"uint256"},{"indexed":false,"internalType":"uint256","name":"amountBNB","type":"uint256"},{"indexed":false,"internalType":"uint256","name":"amountBLB","type":"uint256"}],"name":"Withdraw","type":"event"},{"inputs":[],"name":"checkPoint1","outputs":[{"internalType":"uint256","name":"passTime","type":"uint256"},{"internalType":"uint256","name":"saveBNB","type":"uint256"},{"internalType":"uint256","name":"saveBLB","type":"uint256"}],"stateMutability":"view","type":"function"},{"inputs":[],"name":"checkPoint2","outputs":[{"internalType":"uint256","name":"passTime","type":"uint256"},{"internalType":"uint256","name":"saveBNB","type":"uint256"},{"internalType":"uint256","name":"saveBLB","type":"uint256"}],"stateMutability":"view","type":"function"},{"inputs":[],"name":"checkPoint3","outputs":[{"internalType":"uint256","name":"passTime","type":"uint256"},{"internalType":"uint256","name":"saveBNB","type":"uint256"},{"internalType":"uint256","name":"saveBLB","type":"uint256"}],"stateMutability":"view","type":"function"},{"inputs":[{"internalType":"address","name":"","type":"address"},{"internalType":"uint256","name":"","type":"uint256"}],"name":"investments","outputs":[{"internalType":"uint256","name":"amount","type":"uint256"},{"internalType":"uint256","name":"start","type":"uint256"},{"internalType":"uint256","name":"end","type":"uint256"},{"internalType":"uint256","name":"profit","type":"uint256"},{"internalType":"uint256","name":"claimTime","type":"uint256"}],"stateMutability":"view","type":"function"},{"inputs":[{"internalType":"address","name":"borrower","type":"address"},{"internalType":"uint256","name":"amount","type":"uint256"}],"name":"loanBLB","outputs":[],"stateMutability":"nonpayable","type":"function"},{"inputs":[{"internalType":"address","name":"borrower","type":"address"},{"internalType":"uint256","name":"amount","type":"uint256"}],"name":"loanBNB","outputs":[],"stateMutability":"nonpayable","type":"function"},{"inputs":[{"internalType":"uint256","name":"duration","type":"uint256"}],"name":"newInvestment","outputs":[],"stateMutability":"payable","type":"function"},{"inputs":[],"name":"owner","outputs":[{"internalType":"address","name":"","type":"address"}],"stateMutability":"view","type":"function"},{"inputs":[],"name":"pause","outputs":[],"stateMutability":"nonpayable","type":"function"},{"inputs":[],"name":"paused","outputs":[{"internalType":"bool","name":"","type":"bool"}],"stateMutability":"view","type":"function"},{"inputs":[{"internalType":"address","name":"investor","type":"address"},{"internalType":"uint256","name":"investmentId","type":"uint256"}],"name":"pendingWithdrawal","outputs":[{"internalType":"uint256","name":"amountBNB","type":"uint256"},{"internalType":"uint256","name":"amountBLB","type":"uint256"}],"stateMutability":"view","type":"function"},{"inputs":[{"internalType":"address","name":"investor","type":"address"},{"internalType":"uint256","name":"investmentId","type":"uint256"}],"name":"releaseTime","outputs":[{"internalType":"uint256","name":"","type":"uint256"}],"stateMutability":"view","type":"function"},{"inputs":[],"name":"renounceOwnership","outputs":[],"stateMutability":"nonpayable","type":"function"},{"inputs":[{"internalType":"uint256","name":"","type":"uint256"}],"name":"rewardPlans","outputs":[{"internalType":"uint256","name":"","type":"uint256"}],"stateMutability":"view","type":"function"},{"inputs":[{"internalType":"uint256","name":"passTime1","type":"uint256"},{"internalType":"uint256","name":"saveBNB1","type":"uint256"},{"internalType":"uint256","name":"saveBLB1","type":"uint256"},{"internalType":"uint256","name":"passTime2","type":"uint256"},{"internalType":"uint256","name":"saveBNB2","type":"uint256"},{"internalType":"uint256","name":"saveBLB2","type":"uint256"},{"internalType":"uint256","name":"passTime3","type":"uint256"},{"internalType":"uint256","name":"saveBNB3","type":"uint256"},{"internalType":"uint256","name":"saveBLB3","type":"uint256"}],"name":"setCheckpoints","outputs":[],"stateMutability":"nonpayable","type":"function"},{"inputs":[{"internalType":"uint256","name":"duration","type":"uint256"},{"internalType":"uint256","name":"profit","type":"uint256"}],"name":"setPlan","outputs":[],"stateMutability":"nonpayable","type":"function"},{"inputs":[],"name":"totalInvestingBNB","outputs":[{"internalType":"uint256","name":"","type":"uint256"}],"stateMutability":"view","type":"function"},{"inputs":[],"name":"totalPendingBLB","outputs":[{"internalType":"uint256","name":"","type":"uint256"}],"stateMutability":"view","type":"function"},{"inputs":[{"internalType":"address","name":"newOwner","type":"address"}],"name":"transferOwnership","outputs":[],"stateMutability":"nonpayable","type":"function"},{"inputs":[],"name":"unpause","outputs":[],"stateMutability":"nonpayable","type":"function"},{"inputs":[{"internalType":"uint256","name":"investmentId","type":"uint256"}],"name":"withdraw","outputs":[],"stateMutability":"nonpayable","type":"function"}],"evm":{"bytecode":{"linkReferences":{},"object":"60a060405273880ba82fcc12fe7de255fa62c9d0befb7960c9866080523480156200002957600080fd5b506000805460ff191690556200003f33620000bb565b6200005662015180670de0b6b3a764000062000114565b6200006d62093a80678ac7230489e8000062000114565b6200008562278d006802b5e3af16b188000062000114565b6200009d6276a7006809c2007651b250000062000114565b620000b5600060508160326064828482602862000130565b620001fb565b600080546001600160a01b03838116610100818102610100600160a81b0319851617855560405193049190911692909183917f8be0079c531659141344cd1fd0a4f28419497f9722a3daafe3b4186f6b6457e091a35050565b6200011e62000194565b60009182526003602052604090912055565b6200013a62000194565b60408051606080820183529a815260208082019a909a528101979097528651808a01885295865285880194909452938501919091528351958601845280865293850182905293909101839052600591909155600655600755565b6000546001600160a01b03610100909104163314620001f95760405162461bcd60e51b815260206004820181905260248201527f4f776e61626c653a2063616c6c6572206973206e6f7420746865206f776e6572604482015260640160405180910390fd5b565b6080516110696200021e6000396000818161073b0152610b7301526110696000f3fe60806040526004361061012a5760003560e01c80638456cb59116100ab578063a2fa0c751161006f578063a2fa0c7514610369578063ad33710c14610389578063c877921c146103a8578063d5d4d114146103c8578063e88cf1b4146103e7578063f2fde38b146103fd57600080fd5b80638456cb59146102a457806388a9931f146102b957806388f89169146102e65780638a2ac397146102f95780638da5cb5b1461033357600080fd5b80633f4ba83a116100f25780633f4ba83a146102175780634668d8661461022c5780634983c3ab1461024c5780635c975abb1461026c578063715018a61461028f57600080fd5b80631dd6781b1461012f5780632bf0da7e146101585780632e1a7d4d1461018d5780633353561d146101af5780633e6d9770146101cf575b600080fd5b34801561013b57600080fd5b5061014560015481565b6040519081526020015b60405180910390f35b34801561016457600080fd5b50610178610173366004610e8f565b61041d565b6040805192835260208301919091520161014f565b34801561019957600080fd5b506101ad6101a8366004610eb9565b610646565b005b3480156101bb57600080fd5b506101ad6101ca366004610ed2565b61082b565b3480156101db57600080fd5b506101ef6101ea366004610e8f565b610845565b604080519586526020860194909452928401919091526060830152608082015260a00161014f565b34801561022357600080fd5b506101ad610893565b34801561023857600080fd5b506101ad610247366004610ef4565b6108a5565b34801561025857600080fd5b50610145610267366004610e8f565b610907565b34801561027857600080fd5b5060005460ff16604051901515815260200161014f565b34801561029b57600080fd5b506101ad61094b565b3480156102b057600080fd5b506101ad61095d565b3480156102c557600080fd5b506101456102d4366004610eb9565b60036020526000908152604090205481565b6101ad6102f4366004610eb9565b61096d565b34801561030557600080fd5b50600854600954600a5461031892919083565b6040805193845260208401929092529082015260600161014f565b34801561033f57600080fd5b5060005461010090046001600160a01b03166040516001600160a01b03909116815260200161014f565b34801561037557600080fd5b506101ad610384366004610e8f565b610b45565b34801561039557600080fd5b5060055460065460075461031892919083565b3480156103b457600080fd5b506101ad6103c3366004610e8f565b610be5565b3480156103d457600080fd5b50600b54600c54600d5461031892919083565b3480156103f357600080fd5b5061014560025481565b34801561040957600080fd5b506101ad610418366004610f53565b610c23565b6001600160a01b03821660009081526004602052604081208054829182918590811061044b5761044b610f75565b9060005260206000209060050201905080600401546000146104cf5760405162461bcd60e51b815260206004820152603260248201527f7374616b65506f6f6c3a207468697320696e766573746d656e7420686173206260448201527165656e20636c61696d6564206265666f726560701b60648201526084015b60405180910390fd5b6001810154600282015442919060006104e88383610fa1565b85546003870154919250908386111561050657819850809750610638565b84606484600b6000015461051a9190610fb8565b6105249190610fd7565b61052e9190610ff9565b86111561057357600c546064906105459084610fb8565b61054f9190610fd7565b600d549099506064906105629083610fb8565b61056c9190610fd7565b9750610638565b846064846008600001546105879190610fb8565b6105919190610fd7565b61059b9190610ff9565b8611156105cf576009546064906105b29084610fb8565b6105bc9190610fd7565b600a549099506064906105629083610fb8565b846064846005600001546105e39190610fb8565b6105ed9190610fd7565b6105f79190610ff9565b8611156106385760065460649061060e9084610fb8565b6106189190610fd7565b60075490995060649061062b9083610fb8565b6106359190610fd7565b97505b505050505050509250929050565b33600081815260046020526040812080548490811061066757610667610f75565b90600052602060002090600502019050600080610684848661041d565b91509150600082116106d85760405162461bcd60e51b815260206004820152601e60248201527f5374616b65506f6f6c3a206e6f7468696e6720746f207769746864726177000060448201526064016104c6565b4260048401556040516001600160a01b0385169083156108fc029084906000818181858888f19350505050158015610714573d6000803e3d6000fd5b5060405163a9059cbb60e01b81526001600160a01b038581166004830152602482018390527f0000000000000000000000000000000000000000000000000000000000000000169063a9059cbb906044016020604051808303816000875af1158015610784573d6000803e3d6000fd5b505050506040513d601f19601f820116820180604052508101906107a89190611011565b508254600180546000906107bd908490610fa1565b90915550506003830154600280546000906107d9908490610fa1565b9091555050604080518381526020810183905286916001600160a01b038716917f02f25270a4d87bea75db541cdfe559334a275b4a233520ed6c0a2429667cca94910160405180910390a35050505050565b610833610c9c565b60009182526003602052604090912055565b6004602052816000526040600020818154811061086157600080fd5b600091825260209091206005909102018054600182015460028301546003840154600490940154929550909350919085565b61089b610c9c565b6108a3610cfc565b565b6108ad610c9c565b60408051606080820183529a815260208082019a909a528101979097528651808a01885295865285880194909452938501919091528351958601845280865293850182905293909101839052600591909155600655600755565b6001600160a01b038216600090815260046020526040812080548390811061093157610931610f75565b906000526020600020906005020160020154905092915050565b610953610c9c565b6108a36000610d4e565b610965610c9c565b6108a3610da7565b610975610de4565b60008181526003602052604081205490036109dc5760405162461bcd60e51b815260206004820152602160248201527f7468657265206973206e6f20706c616e2062792074686973206475726174696f6044820152603760f91b60648201526084016104c6565b33344260006109eb8583610ff9565b60008681526003602052604081205491925090670de0b6b3a764000090610a129086610fb8565b610a1c9190610fd7565b6001600160a01b0386166000908152600460208181526040808420815160a0810183528a81528084018a81529281018981526060820188815260808301888152845460018181018755958a5296892093516005909702909301958655935185840155516002850155915160038401559051919092015580549293508692909190610aa7908490610ff9565b925050819055508060026000828254610ac09190610ff9565b90915550506001600160a01b038516600090815260046020526040902054610aea90600190610fa1565b6040805186815260208101869052908101849052606081018390526001600160a01b038716907f72e5f615ebc79a295430cc50e3cdf038a03d48b17f7ef4586ab25a1d481de6959060800160405180910390a3505050505050565b610b4d610c9c565b60405163a9059cbb60e01b81526001600160a01b038381166004830152602482018390527f0000000000000000000000000000000000000000000000000000000000000000169063a9059cbb906044016020604051808303816000875af1158015610bbc573d6000803e3d6000fd5b505050506040513d601f19601f82011682018060405250810190610be09190611011565b505050565b610bed610c9c565b6040516001600160a01b0383169082156108fc029083906000818181858888f19350505050158015610be0573d6000803e3d6000fd5b610c2b610c9c565b6001600160a01b038116610c905760405162461bcd60e51b815260206004820152602660248201527f4f776e61626c653a206e6577206f776e657220697320746865207a65726f206160448201526564647265737360d01b60648201526084016104c6565b610c9981610d4e565b50565b6000546001600160a01b036101009091041633146108a35760405162461bcd60e51b815260206004820181905260248201527f4f776e61626c653a2063616c6c6572206973206e6f7420746865206f776e657260448201526064016104c6565b610d04610e2a565b6000805460ff191690557f5db9ee0a495bf2e6ff9c91a7834c1ba4fdd244a5e8aa4e537bd38aeae4b073aa335b6040516001600160a01b03909116815260200160405180910390a1565b600080546001600160a01b03838116610100818102610100600160a81b0319851617855560405193049190911692909183917f8be0079c531659141344cd1fd0a4f28419497f9722a3daafe3b4186f6b6457e091a35050565b610daf610de4565b6000805460ff191660011790557f62e78cea01bee320cd4e420270b5ea74000d11b0c9f74754ebdbfc544b05a258610d313390565b60005460ff16156108a35760405162461bcd60e51b815260206004820152601060248201526f14185d5cd8589b194e881c185d5cd95960821b60448201526064016104c6565b60005460ff166108a35760405162461bcd60e51b815260206004820152601460248201527314185d5cd8589b194e881b9bdd081c185d5cd95960621b60448201526064016104c6565b80356001600160a01b0381168114610e8a57600080fd5b919050565b60008060408385031215610ea257600080fd5b610eab83610e73565b946020939093013593505050565b600060208284031215610ecb57600080fd5b5035919050565b60008060408385031215610ee557600080fd5b50508035926020909101359150565b60008060008060008060008060006101208a8c031215610f1357600080fd5b505087359960208901359950604089013598606081013598506080810135975060a0810135965060c0810135955060e08101359450610100013592509050565b600060208284031215610f6557600080fd5b610f6e82610e73565b9392505050565b634e487b7160e01b600052603260045260246000fd5b634e487b7160e01b600052601160045260246000fd5b600082821015610fb357610fb3610f8b565b500390565b6000816000190483118215151615610fd257610fd2610f8b565b500290565b600082610ff457634e487b7160e01b600052601260045260246000fd5b500490565b6000821982111561100c5761100c610f8b565b500190565b60006020828403121561102357600080fd5b81518015158114610f6e57600080fdfea26469706673582212204873d5a6b5323f5c62ce546089347677401e57565d33385979544dc54646533a64736f6c634300080f0033","opcodes":"PUSH1 0xA0 PUSH1 0x40 MSTORE PUSH20 0x880BA82FCC12FE7DE255FA62C9D0BEFB7960C986 PUSH1 0x80 MSTORE CALLVALUE DUP1 ISZERO PUSH3 0x29 JUMPI PUSH1 0x0 DUP1 REVERT JUMPDEST POP PUSH1 0x0 DUP1 SLOAD PUSH1 0xFF NOT AND SWAP1 SSTORE PUSH3 0x3F CALLER PUSH3 0xBB JUMP JUMPDEST PUSH3 0x56 PUSH3 0x15180 PUSH8 0xDE0B6B3A7640000 PUSH3 0x114 JUMP JUMPDEST PUSH3 0x6D PUSH3 0x93A80 PUSH8 0x8AC7230489E80000 PUSH3 0x114 JUMP JUMPDEST PUSH3 0x85 PUSH3 0x278D00 PUSH9 0x2B5E3AF16B1880000 PUSH3 0x114 JUMP JUMPDEST PUSH3 0x9D PUSH3 0x76A700 PUSH9 0x9C2007651B2500000 PUSH3 0x114 JUMP JUMPDEST PUSH3 0xB5 PUSH1 0x0 PUSH1 0x50 DUP2 PUSH1 0x32 PUSH1 0x64 DUP3 DUP5 DUP3 PUSH1 0x28 PUSH3 0x130 JUMP JUMPDEST PUSH3 0x1FB JUMP JUMPDEST PUSH1 0x0 DUP1 SLOAD PUSH1 0x1 PUSH1 0x1 PUSH1 0xA0 SHL SUB DUP4 DUP2 AND PUSH2 0x100 DUP2 DUP2 MUL PUSH2 0x100 PUSH1 0x1 PUSH1 0xA8 SHL SUB NOT DUP6 AND OR DUP6 SSTORE PUSH1 0x40 MLOAD SWAP4 DIV SWAP2 SWAP1 SWAP2 AND SWAP3 SWAP1 SWAP2 DUP4 SWAP2 PUSH32 0x8BE0079C531659141344CD1FD0A4F28419497F9722A3DAAFE3B4186F6B6457E0 SWAP2 LOG3 POP POP JUMP JUMPDEST PUSH3 0x11E PUSH3 0x194 JUMP JUMPDEST PUSH1 0x0 SWAP2 DUP3 MSTORE PUSH1 0x3 PUSH1 0x20 MSTORE PUSH1 0x40 SWAP1 SWAP2 KECCAK256 SSTORE JUMP JUMPDEST PUSH3 0x13A PUSH3 0x194 JUMP JUMPDEST PUSH1 0x40 DUP1 MLOAD PUSH1 0x60 DUP1 DUP3 ADD DUP4 MSTORE SWAP11 DUP2 MSTORE PUSH1 0x20 DUP1 DUP3 ADD SWAP11 SWAP1 SWAP11 MSTORE DUP2 ADD SWAP8 SWAP1 SWAP8 MSTORE DUP7 MLOAD DUP1 DUP11 ADD DUP9 MSTORE SWAP6 DUP7 MSTORE DUP6 DUP9 ADD SWAP5 SWAP1 SWAP5 MSTORE SWAP4 DUP6 ADD SWAP2 SWAP1 SWAP2 MSTORE DUP4 MLOAD SWAP6 DUP7 ADD DUP5 MSTORE DUP1 DUP7 MSTORE SWAP4 DUP6 ADD DUP3 SWAP1 MSTORE SWAP4 SWAP1 SWAP2 ADD DUP4 SWAP1 MSTORE PUSH1 0x5 SWAP2 SWAP1 SWAP2 SSTORE PUSH1 0x6 SSTORE PUSH1 0x7 SSTORE JUMP JUMPDEST PUSH1 0x0 SLOAD PUSH1 0x1 PUSH1 0x1 PUSH1 0xA0 SHL SUB PUSH2 0x100 SWAP1 SWAP2 DIV AND CALLER EQ PUSH3 0x1F9 JUMPI PUSH1 0x40 MLOAD PUSH3 0x461BCD PUSH1 0xE5 SHL DUP2 MSTORE PUSH1 0x20 PUSH1 0x4 DUP3 ADD DUP2 SWAP1 MSTORE PUSH1 0x24 DUP3 ADD MSTORE PUSH32 0x4F776E61626C653A2063616C6C6572206973206E6F7420746865206F776E6572 PUSH1 0x44 DUP3 ADD MSTORE PUSH1 0x64 ADD PUSH1 0x40 MLOAD DUP1 SWAP2 SUB SWAP1 REVERT JUMPDEST JUMP JUMPDEST PUSH1 0x80 MLOAD PUSH2 0x1069 PUSH3 0x21E PUSH1 0x0 CODECOPY PUSH1 0x0 DUP2 DUP2 PUSH2 0x73B ADD MSTORE PUSH2 0xB73 ADD MSTORE PUSH2 0x1069 PUSH1 0x0 RETURN INVALID PUSH1 0x80 PUSH1 0x40 MSTORE PUSH1 0x4 CALLDATASIZE LT PUSH2 0x12A JUMPI PUSH1 0x0 CALLDATALOAD PUSH1 0xE0 SHR DUP1 PUSH4 0x8456CB59 GT PUSH2 0xAB JUMPI DUP1 PUSH4 0xA2FA0C75 GT PUSH2 0x6F JUMPI DUP1 PUSH4 0xA2FA0C75 EQ PUSH2 0x369 JUMPI DUP1 PUSH4 0xAD33710C EQ PUSH2 0x389 JUMPI DUP1 PUSH4 0xC877921C EQ PUSH2 0x3A8 JUMPI DUP1 PUSH4 0xD5D4D114 EQ PUSH2 0x3C8 JUMPI DUP1 PUSH4 0xE88CF1B4 EQ PUSH2 0x3E7 JUMPI DUP1 PUSH4 0xF2FDE38B EQ PUSH2 0x3FD JUMPI PUSH1 0x0 DUP1 REVERT JUMPDEST DUP1 PUSH4 0x8456CB59 EQ PUSH2 0x2A4 JUMPI DUP1 PUSH4 0x88A9931F EQ PUSH2 0x2B9 JUMPI DUP1 PUSH4 0x88F89169 EQ PUSH2 0x2E6 JUMPI DUP1 PUSH4 0x8A2AC397 EQ PUSH2 0x2F9 JUMPI DUP1 PUSH4 0x8DA5CB5B EQ PUSH2 0x333 JUMPI PUSH1 0x0 DUP1 REVERT JUMPDEST DUP1 PUSH4 0x3F4BA83A GT PUSH2 0xF2 JUMPI DUP1 PUSH4 0x3F4BA83A EQ PUSH2 0x217 JUMPI DUP1 PUSH4 0x4668D866 EQ PUSH2 0x22C JUMPI DUP1 PUSH4 0x4983C3AB EQ PUSH2 0x24C JUMPI DUP1 PUSH4 0x5C975ABB EQ PUSH2 0x26C JUMPI DUP1 PUSH4 0x715018A6 EQ PUSH2 0x28F JUMPI PUSH1 0x0 DUP1 REVERT JUMPDEST DUP1 PUSH4 0x1DD6781B EQ PUSH2 0x12F JUMPI DUP1 PUSH4 0x2BF0DA7E EQ PUSH2 0x158 JUMPI DUP1 PUSH4 0x2E1A7D4D EQ PUSH2 0x18D JUMPI DUP1 PUSH4 0x3353561D EQ PUSH2 0x1AF JUMPI DUP1 PUSH4 0x3E6D9770 EQ PUSH2 0x1CF JUMPI JUMPDEST PUSH1 0x0 DUP1 REVERT JUMPDEST CALLVALUE DUP1 ISZERO PUSH2 0x13B JUMPI PUSH1 0x0 DUP1 REVERT JUMPDEST POP PUSH2 0x145 PUSH1 0x1 SLOAD DUP2 JUMP JUMPDEST PUSH1 0x40 MLOAD SWAP1 DUP2 MSTORE PUSH1 0x20 ADD JUMPDEST PUSH1 0x40 MLOAD DUP1 SWAP2 SUB SWAP1 RETURN JUMPDEST CALLVALUE DUP1 ISZERO PUSH2 0x164 JUMPI PUSH1 0x0 DUP1 REVERT JUMPDEST POP PUSH2 0x178 PUSH2 0x173 CALLDATASIZE PUSH1 0x4 PUSH2 0xE8F JUMP JUMPDEST PUSH2 0x41D JUMP JUMPDEST PUSH1 0x40 DUP1 MLOAD SWAP3 DUP4 MSTORE PUSH1 0x20 DUP4 ADD SWAP2 SWAP1 SWAP2 MSTORE ADD PUSH2 0x14F JUMP JUMPDEST CALLVALUE DUP1 ISZERO PUSH2 0x199 JUMPI PUSH1 0x0 DUP1 REVERT JUMPDEST POP PUSH2 0x1AD PUSH2 0x1A8 CALLDATASIZE PUSH1 0x4 PUSH2 0xEB9 JUMP JUMPDEST PUSH2 0x646 JUMP JUMPDEST STOP JUMPDEST CALLVALUE DUP1 ISZERO PUSH2 0x1BB JUMPI PUSH1 0x0 DUP1 REVERT JUMPDEST POP PUSH2 0x1AD PUSH2 0x1CA CALLDATASIZE PUSH1 0x4 PUSH2 0xED2 JUMP JUMPDEST PUSH2 0x82B JUMP JUMPDEST CALLVALUE DUP1 ISZERO PUSH2 0x1DB JUMPI PUSH1 0x0 DUP1 REVERT JUMPDEST POP PUSH2 0x1EF PUSH2 0x1EA CALLDATASIZE PUSH1 0x4 PUSH2 0xE8F JUMP JUMPDEST PUSH2 0x845 JUMP JUMPDEST PUSH1 0x40 DUP1 MLOAD SWAP6 DUP7 MSTORE PUSH1 0x20 DUP7 ADD SWAP5 SWAP1 SWAP5 MSTORE SWAP3 DUP5 ADD SWAP2 SWAP1 SWAP2 MSTORE PUSH1 0x60 DUP4 ADD MSTORE PUSH1 0x80 DUP3 ADD MSTORE PUSH1 0xA0 ADD PUSH2 0x14F JUMP JUMPDEST CALLVALUE DUP1 ISZERO PUSH2 0x223 JUMPI PUSH1 0x0 DUP1 REVERT JUMPDEST POP PUSH2 0x1AD PUSH2 0x893 JUMP JUMPDEST CALLVALUE DUP1 ISZERO PUSH2 0x238 JUMPI PUSH1 0x0 DUP1 REVERT JUMPDEST POP PUSH2 0x1AD PUSH2 0x247 CALLDATASIZE PUSH1 0x4 PUSH2 0xEF4 JUMP JUMPDEST PUSH2 0x8A5 JUMP JUMPDEST CALLVALUE DUP1 ISZERO PUSH2 0x258 JUMPI PUSH1 0x0 DUP1 REVERT JUMPDEST POP PUSH2 0x145 PUSH2 0x267 CALLDATASIZE PUSH1 0x4 PUSH2 0xE8F JUMP JUMPDEST PUSH2 0x907 JUMP JUMPDEST CALLVALUE DUP1 ISZERO PUSH2 0x278 JUMPI PUSH1 0x0 DUP1 REVERT JUMPDEST POP PUSH1 0x0 SLOAD PUSH1 0xFF AND PUSH1 0x40 MLOAD SWAP1 ISZERO ISZERO DUP2 MSTORE PUSH1 0x20 ADD PUSH2 0x14F JUMP JUMPDEST CALLVALUE DUP1 ISZERO PUSH2 0x29B JUMPI PUSH1 0x0 DUP1 REVERT JUMPDEST POP PUSH2 0x1AD PUSH2 0x94B JUMP JUMPDEST CALLVALUE DUP1 ISZERO PUSH2 0x2B0 JUMPI PUSH1 0x0 DUP1 REVERT JUMPDEST POP PUSH2 0x1AD PUSH2 0x95D JUMP JUMPDEST CALLVALUE DUP1 ISZERO PUSH2 0x2C5 JUMPI PUSH1 0x0 DUP1 REVERT JUMPDEST POP PUSH2 0x145 PUSH2 0x2D4 CALLDATASIZE PUSH1 0x4 PUSH2 0xEB9 JUMP JUMPDEST PUSH1 0x3 PUSH1 0x20 MSTORE PUSH1 0x0 SWAP1 DUP2 MSTORE PUSH1 0x40 SWAP1 KECCAK256 SLOAD DUP2 JUMP JUMPDEST PUSH2 0x1AD PUSH2 0x2F4 CALLDATASIZE PUSH1 0x4 PUSH2 0xEB9 JUMP JUMPDEST PUSH2 0x96D JUMP JUMPDEST CALLVALUE DUP1 ISZERO PUSH2 0x305 JUMPI PUSH1 0x0 DUP1 REVERT JUMPDEST POP PUSH1 0x8 SLOAD PUSH1 0x9 SLOAD PUSH1 0xA SLOAD PUSH2 0x318 SWAP3 SWAP2 SWAP1 DUP4 JUMP JUMPDEST PUSH1 0x40 DUP1 MLOAD SWAP4 DUP5 MSTORE PUSH1 0x20 DUP5 ADD SWAP3 SWAP1 SWAP3 MSTORE SWAP1 DUP3 ADD MSTORE PUSH1 0x60 ADD PUSH2 0x14F JUMP JUMPDEST CALLVALUE DUP1 ISZERO PUSH2 0x33F JUMPI PUSH1 0x0 DUP1 REVERT JUMPDEST POP PUSH1 0x0 SLOAD PUSH2 0x100 SWAP1 DIV PUSH1 0x1 PUSH1 0x1 PUSH1 0xA0 SHL SUB AND PUSH1 0x40 MLOAD PUSH1 0x1 PUSH1 0x1 PUSH1 0xA0 SHL SUB SWAP1 SWAP2 AND DUP2 MSTORE PUSH1 0x20 ADD PUSH2 0x14F JUMP JUMPDEST CALLVALUE DUP1 ISZERO PUSH2 0x375 JUMPI PUSH1 0x0 DUP1 REVERT JUMPDEST POP PUSH2 0x1AD PUSH2 0x384 CALLDATASIZE PUSH1 0x4 PUSH2 0xE8F JUMP JUMPDEST PUSH2 0xB45 JUMP JUMPDEST CALLVALUE DUP1 ISZERO PUSH2 0x395 JUMPI PUSH1 0x0 DUP1 REVERT JUMPDEST POP PUSH1 0x5 SLOAD PUSH1 0x6 SLOAD PUSH1 0x7 SLOAD PUSH2 0x318 SWAP3 SWAP2 SWAP1 DUP4 JUMP JUMPDEST CALLVALUE DUP1 ISZERO PUSH2 0x3B4 JUMPI PUSH1 0x0 DUP1 REVERT JUMPDEST POP PUSH2 0x1AD PUSH2 0x3C3 CALLDATASIZE PUSH1 0x4 PUSH2 0xE8F JUMP JUMPDEST PUSH2 0xBE5 JUMP JUMPDEST CALLVALUE DUP1 ISZERO PUSH2 0x3D4 JUMPI PUSH1 0x0 DUP1 REVERT JUMPDEST POP PUSH1 0xB SLOAD PUSH1 0xC SLOAD PUSH1 0xD SLOAD PUSH2 0x318 SWAP3 SWAP2 SWAP1 DUP4 JUMP JUMPDEST CALLVALUE DUP1 ISZERO PUSH2 0x3F3 JUMPI PUSH1 0x0 DUP1 REVERT JUMPDEST POP PUSH2 0x145 PUSH1 0x2 SLOAD DUP2 JUMP JUMPDEST CALLVALUE DUP1 ISZERO PUSH2 0x409 JUMPI PUSH1 0x0 DUP1 REVERT JUMPDEST POP PUSH2 0x1AD PUSH2 0x418 CALLDATASIZE PUSH1 0x4 PUSH2 0xF53 JUMP JUMPDEST PUSH2 0xC23 JUMP JUMPDEST PUSH1 0x1 PUSH1 0x1 PUSH1 0xA0 SHL SUB DUP3 AND PUSH1 0x0 SWAP1 DUP2 MSTORE PUSH1 0x4 PUSH1 0x20 MSTORE PUSH1 0x40 DUP2 KECCAK256 DUP1 SLOAD DUP3 SWAP2 DUP3 SWAP2 DUP6 SWAP1 DUP2 LT PUSH2 0x44B JUMPI PUSH2 0x44B PUSH2 0xF75 JUMP JUMPDEST SWAP1 PUSH1 0x0 MSTORE PUSH1 0x20 PUSH1 0x0 KECCAK256 SWAP1 PUSH1 0x5 MUL ADD SWAP1 POP DUP1 PUSH1 0x4 ADD SLOAD PUSH1 0x0 EQ PUSH2 0x4CF JUMPI PUSH1 0x40 MLOAD PUSH3 0x461BCD PUSH1 0xE5 SHL DUP2 MSTORE PUSH1 0x20 PUSH1 0x4 DUP3 ADD MSTORE PUSH1 0x32 PUSH1 0x24 DUP3 ADD MSTORE PUSH32 0x7374616B65506F6F6C3A207468697320696E766573746D656E74206861732062 PUSH1 0x44 DUP3 ADD MSTORE PUSH18 0x65656E20636C61696D6564206265666F7265 PUSH1 0x70 SHL PUSH1 0x64 DUP3 ADD MSTORE PUSH1 0x84 ADD JUMPDEST PUSH1 0x40 MLOAD DUP1 SWAP2 SUB SWAP1 REVERT JUMPDEST PUSH1 0x1 DUP2 ADD SLOAD PUSH1 0x2 DUP3 ADD SLOAD TIMESTAMP SWAP2 SWAP1 PUSH1 0x0 PUSH2 0x4E8 DUP4 DUP4 PUSH2 0xFA1 JUMP JUMPDEST DUP6 SLOAD PUSH1 0x3 DUP8 ADD SLOAD SWAP2 SWAP3 POP SWAP1 DUP4 DUP7 GT ISZERO PUSH2 0x506 JUMPI DUP2 SWAP9 POP DUP1 SWAP8 POP PUSH2 0x638 JUMP JUMPDEST DUP5 PUSH1 0x64 DUP5 PUSH1 0xB PUSH1 0x0 ADD SLOAD PUSH2 0x51A SWAP2 SWAP1 PUSH2 0xFB8 JUMP JUMPDEST PUSH2 0x524 SWAP2 SWAP1 PUSH2 0xFD7 JUMP JUMPDEST PUSH2 0x52E SWAP2 SWAP1 PUSH2 0xFF9 JUMP JUMPDEST DUP7 GT ISZERO PUSH2 0x573 JUMPI PUSH1 0xC SLOAD PUSH1 0x64 SWAP1 PUSH2 0x545 SWAP1 DUP5 PUSH2 0xFB8 JUMP JUMPDEST PUSH2 0x54F SWAP2 SWAP1 PUSH2 0xFD7 JUMP JUMPDEST PUSH1 0xD SLOAD SWAP1 SWAP10 POP PUSH1 0x64 SWAP1 PUSH2 0x562 SWAP1 DUP4 PUSH2 0xFB8 JUMP JUMPDEST PUSH2 0x56C SWAP2 SWAP1 PUSH2 0xFD7 JUMP JUMPDEST SWAP8 POP PUSH2 0x638 JUMP JUMPDEST DUP5 PUSH1 0x64 DUP5 PUSH1 0x8 PUSH1 0x0 ADD SLOAD PUSH2 0x587 SWAP2 SWAP1 PUSH2 0xFB8 JUMP JUMPDEST PUSH2 0x591 SWAP2 SWAP1 PUSH2 0xFD7 JUMP JUMPDEST PUSH2 0x59B SWAP2 SWAP1 PUSH2 0xFF9 JUMP JUMPDEST DUP7 GT ISZERO PUSH2 0x5CF JUMPI PUSH1 0x9 SLOAD PUSH1 0x64 SWAP1 PUSH2 0x5B2 SWAP1 DUP5 PUSH2 0xFB8 JUMP JUMPDEST PUSH2 0x5BC SWAP2 SWAP1 PUSH2 0xFD7 JUMP JUMPDEST PUSH1 0xA SLOAD SWAP1 SWAP10 POP PUSH1 0x64 SWAP1 PUSH2 0x562 SWAP1 DUP4 PUSH2 0xFB8 JUMP JUMPDEST DUP5 PUSH1 0x64 DUP5 PUSH1 0x5 PUSH1 0x0 ADD SLOAD PUSH2 0x5E3 SWAP2 SWAP1 PUSH2 0xFB8 JUMP JUMPDEST PUSH2 0x5ED SWAP2 SWAP1 PUSH2 0xFD7 JUMP JUMPDEST PUSH2 0x5F7 SWAP2 SWAP1 PUSH2 0xFF9 JUMP JUMPDEST DUP7 GT ISZERO PUSH2 0x638 JUMPI PUSH1 0x6 SLOAD PUSH1 0x64 SWAP1 PUSH2 0x60E SWAP1 DUP5 PUSH2 0xFB8 JUMP JUMPDEST PUSH2 0x618 SWAP2 SWAP1 PUSH2 0xFD7 JUMP JUMPDEST PUSH1 0x7 SLOAD SWAP1 SWAP10 POP PUSH1 0x64 SWAP1 PUSH2 0x62B SWAP1 DUP4 PUSH2 0xFB8 JUMP JUMPDEST PUSH2 0x635 SWAP2 SWAP1 PUSH2 0xFD7 JUMP JUMPDEST SWAP8 POP JUMPDEST POP POP POP POP POP POP POP SWAP3 POP SWAP3 SWAP1 POP JUMP JUMPDEST CALLER PUSH1 0x0 DUP2 DUP2 MSTORE PUSH1 0x4 PUSH1 0x20 MSTORE PUSH1 0x40 DUP2 KECCAK256 DUP1 SLOAD DUP5 SWAP1 DUP2 LT PUSH2 0x667 JUMPI PUSH2 0x667 PUSH2 0xF75 JUMP JUMPDEST SWAP1 PUSH1 0x0 MSTORE PUSH1 0x20 PUSH1 0x0 KECCAK256 SWAP1 PUSH1 0x5 MUL ADD SWAP1 POP PUSH1 0x0 DUP1 PUSH2 0x684 DUP5 DUP7 PUSH2 0x41D JUMP JUMPDEST SWAP2 POP SWAP2 POP PUSH1 0x0 DUP3 GT PUSH2 0x6D8 JUMPI PUSH1 0x40 MLOAD PUSH3 0x461BCD PUSH1 0xE5 SHL DUP2 MSTORE PUSH1 0x20 PUSH1 0x4 DUP3 ADD MSTORE PUSH1 0x1E PUSH1 0x24 DUP3 ADD MSTORE PUSH32 0x5374616B65506F6F6C3A206E6F7468696E6720746F2077697468647261770000 PUSH1 0x44 DUP3 ADD MSTORE PUSH1 0x64 ADD PUSH2 0x4C6 JUMP JUMPDEST TIMESTAMP PUSH1 0x4 DUP5 ADD SSTORE PUSH1 0x40 MLOAD PUSH1 0x1 PUSH1 0x1 PUSH1 0xA0 SHL SUB DUP6 AND SWAP1 DUP4 ISZERO PUSH2 0x8FC MUL SWAP1 DUP5 SWAP1 PUSH1 0x0 DUP2 DUP2 DUP2 DUP6 DUP9 DUP9 CALL SWAP4 POP POP POP POP ISZERO DUP1 ISZERO PUSH2 0x714 JUMPI RETURNDATASIZE PUSH1 0x0 DUP1 RETURNDATACOPY RETURNDATASIZE PUSH1 0x0 REVERT JUMPDEST POP PUSH1 0x40 MLOAD PUSH4 0xA9059CBB PUSH1 0xE0 SHL DUP2 MSTORE PUSH1 0x1 PUSH1 0x1 PUSH1 0xA0 SHL SUB DUP6 DUP2 AND PUSH1 0x4 DUP4 ADD MSTORE PUSH1 0x24 DUP3 ADD DUP4 SWAP1 MSTORE PUSH32 0x0 AND SWAP1 PUSH4 0xA9059CBB SWAP1 PUSH1 0x44 ADD PUSH1 0x20 PUSH1 0x40 MLOAD DUP1 DUP4 SUB DUP2 PUSH1 0x0 DUP8 GAS CALL ISZERO DUP1 ISZERO PUSH2 0x784 JUMPI RETURNDATASIZE PUSH1 0x0 DUP1 RETURNDATACOPY RETURNDATASIZE PUSH1 0x0 REVERT JUMPDEST POP POP POP POP PUSH1 0x40 MLOAD RETURNDATASIZE PUSH1 0x1F NOT PUSH1 0x1F DUP3 ADD AND DUP3 ADD DUP1 PUSH1 0x40 MSTORE POP DUP2 ADD SWAP1 PUSH2 0x7A8 SWAP2 SWAP1 PUSH2 0x1011 JUMP JUMPDEST POP DUP3 SLOAD PUSH1 0x1 DUP1 SLOAD PUSH1 0x0 SWAP1 PUSH2 0x7BD SWAP1 DUP5 SWAP1 PUSH2 0xFA1 JUMP JUMPDEST SWAP1 SWAP2 SSTORE POP POP PUSH1 0x3 DUP4 ADD SLOAD PUSH1 0x2 DUP1 SLOAD PUSH1 0x0 SWAP1 PUSH2 0x7D9 SWAP1 DUP5 SWAP1 PUSH2 0xFA1 JUMP JUMPDEST SWAP1 SWAP2 SSTORE POP POP PUSH1 0x40 DUP1 MLOAD DUP4 DUP2 MSTORE PUSH1 0x20 DUP2 ADD DUP4 SWAP1 MSTORE DUP7 SWAP2 PUSH1 0x1 PUSH1 0x1 PUSH1 0xA0 SHL SUB DUP8 AND SWAP2 PUSH32 0x2F25270A4D87BEA75DB541CDFE559334A275B4A233520ED6C0A2429667CCA94 SWAP2 ADD PUSH1 0x40 MLOAD DUP1 SWAP2 SUB SWAP1 LOG3 POP POP POP POP POP JUMP JUMPDEST PUSH2 0x833 PUSH2 0xC9C JUMP JUMPDEST PUSH1 0x0 SWAP2 DUP3 MSTORE PUSH1 0x3 PUSH1 0x20 MSTORE PUSH1 0x40 SWAP1 SWAP2 KECCAK256 SSTORE JUMP JUMPDEST PUSH1 0x4 PUSH1 0x20 MSTORE DUP2 PUSH1 0x0 MSTORE PUSH1 0x40 PUSH1 0x0 KECCAK256 DUP2 DUP2 SLOAD DUP2 LT PUSH2 0x861 JUMPI PUSH1 0x0 DUP1 REVERT JUMPDEST PUSH1 0x0 SWAP2 DUP3 MSTORE PUSH1 0x20 SWAP1 SWAP2 KECCAK256 PUSH1 0x5 SWAP1 SWAP2 MUL ADD DUP1 SLOAD PUSH1 0x1 DUP3 ADD SLOAD PUSH1 0x2 DUP4 ADD SLOAD PUSH1 0x3 DUP5 ADD SLOAD PUSH1 0x4 SWAP1 SWAP5 ADD SLOAD SWAP3 SWAP6 POP SWAP1 SWAP4 POP SWAP2 SWAP1 DUP6 JUMP JUMPDEST PUSH2 0x89B PUSH2 0xC9C JUMP JUMPDEST PUSH2 0x8A3 PUSH2 0xCFC JUMP JUMPDEST JUMP JUMPDEST PUSH2 0x8AD PUSH2 0xC9C JUMP JUMPDEST PUSH1 0x40 DUP1 MLOAD PUSH1 0x60 DUP1 DUP3 ADD DUP4 MSTORE SWAP11 DUP2 MSTORE PUSH1 0x20 DUP1 DUP3 ADD SWAP11 SWAP1 SWAP11 MSTORE DUP2 ADD SWAP8 SWAP1 SWAP8 MSTORE DUP7 MLOAD DUP1 DUP11 ADD DUP9 MSTORE SWAP6 DUP7 MSTORE DUP6 DUP9 ADD SWAP5 SWAP1 SWAP5 MSTORE SWAP4 DUP6 ADD SWAP2 SWAP1 SWAP2 MSTORE DUP4 MLOAD SWAP6 DUP7 ADD DUP5 MSTORE DUP1 DUP7 MSTORE SWAP4 DUP6 ADD DUP3 SWAP1 MSTORE SWAP4 SWAP1 SWAP2 ADD DUP4 SWAP1 MSTORE PUSH1 0x5 SWAP2 SWAP1 SWAP2 SSTORE PUSH1 0x6 SSTORE PUSH1 0x7 SSTORE JUMP JUMPDEST PUSH1 0x1 PUSH1 0x1 PUSH1 0xA0 SHL SUB DUP3 AND PUSH1 0x0 SWAP1 DUP2 MSTORE PUSH1 0x4 PUSH1 0x20 MSTORE PUSH1 0x40 DUP2 KECCAK256 DUP1 SLOAD DUP4 SWAP1 DUP2 LT PUSH2 0x931 JUMPI PUSH2 0x931 PUSH2 0xF75 JUMP JUMPDEST SWAP1 PUSH1 0x0 MSTORE PUSH1 0x20 PUSH1 0x0 KECCAK256 SWAP1 PUSH1 0x5 MUL ADD PUSH1 0x2 ADD SLOAD SWAP1 POP SWAP3 SWAP2 POP POP JUMP JUMPDEST PUSH2 0x953 PUSH2 0xC9C JUMP JUMPDEST PUSH2 0x8A3 PUSH1 0x0 PUSH2 0xD4E JUMP JUMPDEST PUSH2 0x965 PUSH2 0xC9C JUMP JUMPDEST PUSH2 0x8A3 PUSH2 0xDA7 JUMP JUMPDEST PUSH2 0x975 PUSH2 0xDE4 JUMP JUMPDEST PUSH1 0x0 DUP2 DUP2 MSTORE PUSH1 0x3 PUSH1 0x20 MSTORE PUSH1 0x40 DUP2 KECCAK256 SLOAD SWAP1 SUB PUSH2 0x9DC JUMPI PUSH1 0x40 MLOAD PUSH3 0x461BCD PUSH1 0xE5 SHL DUP2 MSTORE PUSH1 0x20 PUSH1 0x4 DUP3 ADD MSTORE PUSH1 0x21 PUSH1 0x24 DUP3 ADD MSTORE PUSH32 0x7468657265206973206E6F20706C616E2062792074686973206475726174696F PUSH1 0x44 DUP3 ADD MSTORE PUSH1 0x37 PUSH1 0xF9 SHL PUSH1 0x64 DUP3 ADD MSTORE PUSH1 0x84 ADD PUSH2 0x4C6 JUMP JUMPDEST CALLER CALLVALUE TIMESTAMP PUSH1 0x0 PUSH2 0x9EB DUP6 DUP4 PUSH2 0xFF9 JUMP JUMPDEST PUSH1 0x0 DUP7 DUP2 MSTORE PUSH1 0x3 PUSH1 0x20 MSTORE PUSH1 0x40 DUP2 KECCAK256 SLOAD SWAP2 SWAP3 POP SWAP1 PUSH8 0xDE0B6B3A7640000 SWAP1 PUSH2 0xA12 SWAP1 DUP7 PUSH2 0xFB8 JUMP JUMPDEST PUSH2 0xA1C SWAP2 SWAP1 PUSH2 0xFD7 JUMP JUMPDEST PUSH1 0x1 PUSH1 0x1 PUSH1 0xA0 SHL SUB DUP7 AND PUSH1 0x0 SWAP1 DUP2 MSTORE PUSH1 0x4 PUSH1 0x20 DUP2 DUP2 MSTORE PUSH1 0x40 DUP1 DUP5 KECCAK256 DUP2 MLOAD PUSH1 0xA0 DUP2 ADD DUP4 MSTORE DUP11 DUP2 MSTORE DUP1 DUP5 ADD DUP11 DUP2 MSTORE SWAP3 DUP2 ADD DUP10 DUP2 MSTORE PUSH1 0x60 DUP3 ADD DUP9 DUP2 MSTORE PUSH1 0x80 DUP4 ADD DUP9 DUP2 MSTORE DUP5 SLOAD PUSH1 0x1 DUP2 DUP2 ADD DUP8 SSTORE SWAP6 DUP11 MSTORE SWAP7 DUP10 KECCAK256 SWAP4 MLOAD PUSH1 0x5 SWAP1 SWAP8 MUL SWAP1 SWAP4 ADD SWAP6 DUP7 SSTORE SWAP4 MLOAD DUP6 DUP5 ADD SSTORE MLOAD PUSH1 0x2 DUP6 ADD SSTORE SWAP2 MLOAD PUSH1 0x3 DUP5 ADD SSTORE SWAP1 MLOAD SWAP2 SWAP1 SWAP3 ADD SSTORE DUP1 SLOAD SWAP3 SWAP4 POP DUP7 SWAP3 SWAP1 SWAP2 SWAP1 PUSH2 0xAA7 SWAP1 DUP5 SWAP1 PUSH2 0xFF9 JUMP JUMPDEST SWAP3 POP POP DUP2 SWAP1 SSTORE POP DUP1 PUSH1 0x2 PUSH1 0x0 DUP3 DUP3 SLOAD PUSH2 0xAC0 SWAP2 SWAP1 PUSH2 0xFF9 JUMP JUMPDEST SWAP1 SWAP2 SSTORE POP POP PUSH1 0x1 PUSH1 0x1 PUSH1 0xA0 SHL SUB DUP6 AND PUSH1 0x0 SWAP1 DUP2 MSTORE PUSH1 0x4 PUSH1 0x20 MSTORE PUSH1 0x40 SWAP1 KECCAK256 SLOAD PUSH2 0xAEA SWAP1 PUSH1 0x1 SWAP1 PUSH2 0xFA1 JUMP JUMPDEST PUSH1 0x40 DUP1 MLOAD DUP7 DUP2 MSTORE PUSH1 0x20 DUP2 ADD DUP7 SWAP1 MSTORE SWAP1 DUP2 ADD DUP5 SWAP1 MSTORE PUSH1 0x60 DUP2 ADD DUP4 SWAP1 MSTORE PUSH1 0x1 PUSH1 0x1 PUSH1 0xA0 SHL SUB DUP8 AND SWAP1 PUSH32 0x72E5F615EBC79A295430CC50E3CDF038A03D48B17F7EF4586AB25A1D481DE695 SWAP1 PUSH1 0x80 ADD PUSH1 0x40 MLOAD DUP1 SWAP2 SUB SWAP1 LOG3 POP POP POP POP POP POP JUMP JUMPDEST PUSH2 0xB4D PUSH2 0xC9C JUMP JUMPDEST PUSH1 0x40 MLOAD PUSH4 0xA9059CBB PUSH1 0xE0 SHL DUP2 MSTORE PUSH1 0x1 PUSH1 0x1 PUSH1 0xA0 SHL SUB DUP4 DUP2 AND PUSH1 0x4 DUP4 ADD MSTORE PUSH1 0x24 DUP3 ADD DUP4 SWAP1 MSTORE PUSH32 0x0 AND SWAP1 PUSH4 0xA9059CBB SWAP1 PUSH1 0x44 ADD PUSH1 0x20 PUSH1 0x40 MLOAD DUP1 DUP4 SUB DUP2 PUSH1 0x0 DUP8 GAS CALL ISZERO DUP1 ISZERO PUSH2 0xBBC JUMPI RETURNDATASIZE PUSH1 0x0 DUP1 RETURNDATACOPY RETURNDATASIZE PUSH1 0x0 REVERT JUMPDEST POP POP POP POP PUSH1 0x40 MLOAD RETURNDATASIZE PUSH1 0x1F NOT PUSH1 0x1F DUP3 ADD AND DUP3 ADD DUP1 PUSH1 0x40 MSTORE POP DUP2 ADD SWAP1 PUSH2 0xBE0 SWAP2 SWAP1 PUSH2 0x1011 JUMP JUMPDEST POP POP POP JUMP JUMPDEST PUSH2 0xBED PUSH2 0xC9C JUMP JUMPDEST PUSH1 0x40 MLOAD PUSH1 0x1 PUSH1 0x1 PUSH1 0xA0 SHL SUB DUP4 AND SWAP1 DUP3 ISZERO PUSH2 0x8FC MUL SWAP1 DUP4 SWAP1 PUSH1 0x0 DUP2 DUP2 DUP2 DUP6 DUP9 DUP9 CALL SWAP4 POP POP POP POP ISZERO DUP1 ISZERO PUSH2 0xBE0 JUMPI RETURNDATASIZE PUSH1 0x0 DUP1 RETURNDATACOPY RETURNDATASIZE PUSH1 0x0 REVERT JUMPDEST PUSH2 0xC2B PUSH2 0xC9C JUMP JUMPDEST PUSH1 0x1 PUSH1 0x1 PUSH1 0xA0 SHL SUB DUP2 AND PUSH2 0xC90 JUMPI PUSH1 0x40 MLOAD PUSH3 0x461BCD PUSH1 0xE5 SHL DUP2 MSTORE PUSH1 0x20 PUSH1 0x4 DUP3 ADD MSTORE PUSH1 0x26 PUSH1 0x24 DUP3 ADD MSTORE PUSH32 0x4F776E61626C653A206E6577206F776E657220697320746865207A65726F2061 PUSH1 0x44 DUP3 ADD MSTORE PUSH6 0x646472657373 PUSH1 0xD0 SHL PUSH1 0x64 DUP3 ADD MSTORE PUSH1 0x84 ADD PUSH2 0x4C6 JUMP JUMPDEST PUSH2 0xC99 DUP2 PUSH2 0xD4E JUMP JUMPDEST POP JUMP JUMPDEST PUSH1 0x0 SLOAD PUSH1 0x1 PUSH1 0x1 PUSH1 0xA0 SHL SUB PUSH2 0x100 SWAP1 SWAP2 DIV AND CALLER EQ PUSH2 0x8A3 JUMPI PUSH1 0x40 MLOAD PUSH3 0x461BCD PUSH1 0xE5 SHL DUP2 MSTORE PUSH1 0x20 PUSH1 0x4 DUP3 ADD DUP2 SWAP1 MSTORE PUSH1 0x24 DUP3 ADD MSTORE PUSH32 0x4F776E61626C653A2063616C6C6572206973206E6F7420746865206F776E6572 PUSH1 0x44 DUP3 ADD MSTORE PUSH1 0x64 ADD PUSH2 0x4C6 JUMP JUMPDEST PUSH2 0xD04 PUSH2 0xE2A JUMP JUMPDEST PUSH1 0x0 DUP1 SLOAD PUSH1 0xFF NOT AND SWAP1 SSTORE PUSH32 0x5DB9EE0A495BF2E6FF9C91A7834C1BA4FDD244A5E8AA4E537BD38AEAE4B073AA CALLER JUMPDEST PUSH1 0x40 MLOAD PUSH1 0x1 PUSH1 0x1 PUSH1 0xA0 SHL SUB SWAP1 SWAP2 AND DUP2 MSTORE PUSH1 0x20 ADD PUSH1 0x40 MLOAD DUP1 SWAP2 SUB SWAP1 LOG1 JUMP JUMPDEST PUSH1 0x0 DUP1 SLOAD PUSH1 0x1 PUSH1 0x1 PUSH1 0xA0 SHL SUB DUP4 DUP2 AND PUSH2 0x100 DUP2 DUP2 MUL PUSH2 0x100 PUSH1 0x1 PUSH1 0xA8 SHL SUB NOT DUP6 AND OR DUP6 SSTORE PUSH1 0x40 MLOAD SWAP4 DIV SWAP2 SWAP1 SWAP2 AND SWAP3 SWAP1 SWAP2 DUP4 SWAP2 PUSH32 0x8BE0079C531659141344CD1FD0A4F28419497F9722A3DAAFE3B4186F6B6457E0 SWAP2 LOG3 POP POP JUMP JUMPDEST PUSH2 0xDAF PUSH2 0xDE4 JUMP JUMPDEST PUSH1 0x0 DUP1 SLOAD PUSH1 0xFF NOT AND PUSH1 0x1 OR SWAP1 SSTORE PUSH32 0x62E78CEA01BEE320CD4E420270B5EA74000D11B0C9F74754EBDBFC544B05A258 PUSH2 0xD31 CALLER SWAP1 JUMP JUMPDEST PUSH1 0x0 SLOAD PUSH1 0xFF AND ISZERO PUSH2 0x8A3 JUMPI PUSH1 0x40 MLOAD PUSH3 0x461BCD PUSH1 0xE5 SHL DUP2 MSTORE PUSH1 0x20 PUSH1 0x4 DUP3 ADD MSTORE PUSH1 0x10 PUSH1 0x24 DUP3 ADD MSTORE PUSH16 0x14185D5CD8589B194E881C185D5CD959 PUSH1 0x82 SHL PUSH1 0x44 DUP3 ADD MSTORE PUSH1 0x64 ADD PUSH2 0x4C6 JUMP JUMPDEST PUSH1 0x0 SLOAD PUSH1 0xFF AND PUSH2 0x8A3 JUMPI PUSH1 0x40 MLOAD PUSH3 0x461BCD PUSH1 0xE5 SHL DUP2 MSTORE PUSH1 0x20 PUSH1 0x4 DUP3 ADD MSTORE PUSH1 0x14 PUSH1 0x24 DUP3 ADD MSTORE PUSH20 0x14185D5CD8589B194E881B9BDD081C185D5CD959 PUSH1 0x62 SHL PUSH1 0x44 DUP3 ADD MSTORE PUSH1 0x64 ADD PUSH2 0x4C6 JUMP JUMPDEST DUP1 CALLDATALOAD PUSH1 0x1 PUSH1 0x1 PUSH1 0xA0 SHL SUB DUP2 AND DUP2 EQ PUSH2 0xE8A JUMPI PUSH1 0x0 DUP1 REVERT JUMPDEST SWAP2 SWAP1 POP JUMP JUMPDEST PUSH1 0x0 DUP1 PUSH1 0x40 DUP4 DUP6 SUB SLT ISZERO PUSH2 0xEA2 JUMPI PUSH1 0x0 DUP1 REVERT JUMPDEST PUSH2 0xEAB DUP4 PUSH2 0xE73 JUMP JUMPDEST SWAP5 PUSH1 0x20 SWAP4 SWAP1 SWAP4 ADD CALLDATALOAD SWAP4 POP POP POP JUMP JUMPDEST PUSH1 0x0 PUSH1 0x20 DUP3 DUP5 SUB SLT ISZERO PUSH2 0xECB JUMPI PUSH1 0x0 DUP1 REVERT JUMPDEST POP CALLDATALOAD SWAP2 SWAP1 POP JUMP JUMPDEST PUSH1 0x0 DUP1 PUSH1 0x40 DUP4 DUP6 SUB SLT ISZERO PUSH2 0xEE5 JUMPI PUSH1 0x0 DUP1 REVERT JUMPDEST POP POP DUP1 CALLDATALOAD SWAP3 PUSH1 0x20 SWAP1 SWAP2 ADD CALLDATALOAD SWAP2 POP JUMP JUMPDEST PUSH1 0x0 DUP1 PUSH1 0x0 DUP1 PUSH1 0x0 DUP1 PUSH1 0x0 DUP1 PUSH1 0x0 PUSH2 0x120 DUP11 DUP13 SUB SLT ISZERO PUSH2 0xF13 JUMPI PUSH1 0x0 DUP1 REVERT JUMPDEST POP POP DUP8 CALLDATALOAD SWAP10 PUSH1 0x20 DUP10 ADD CALLDATALOAD SWAP10 POP PUSH1 0x40 DUP10 ADD CALLDATALOAD SWAP9 PUSH1 0x60 DUP2 ADD CALLDATALOAD SWAP9 POP PUSH1 0x80 DUP2 ADD CALLDATALOAD SWAP8 POP PUSH1 0xA0 DUP2 ADD CALLDATALOAD SWAP7 POP PUSH1 0xC0 DUP2 ADD CALLDATALOAD SWAP6 POP PUSH1 0xE0 DUP2 ADD CALLDATALOAD SWAP5 POP PUSH2 0x100 ADD CALLDATALOAD SWAP3 POP SWAP1 POP JUMP JUMPDEST PUSH1 0x0 PUSH1 0x20 DUP3 DUP5 SUB SLT ISZERO PUSH2 0xF65 JUMPI PUSH1 0x0 DUP1 REVERT JUMPDEST PUSH2 0xF6E DUP3 PUSH2 0xE73 JUMP JUMPDEST SWAP4 SWAP3 POP POP POP JUMP JUMPDEST PUSH4 0x4E487B71 PUSH1 0xE0 SHL PUSH1 0x0 MSTORE PUSH1 0x32 PUSH1 0x4 MSTORE PUSH1 0x24 PUSH1 0x0 REVERT JUMPDEST PUSH4 0x4E487B71 PUSH1 0xE0 SHL PUSH1 0x0 MSTORE PUSH1 0x11 PUSH1 0x4 MSTORE PUSH1 0x24 PUSH1 0x0 REVERT JUMPDEST PUSH1 0x0 DUP3 DUP3 LT ISZERO PUSH2 0xFB3 JUMPI PUSH2 0xFB3 PUSH2 0xF8B JUMP JUMPDEST POP SUB SWAP1 JUMP JUMPDEST PUSH1 0x0 DUP2 PUSH1 0x0 NOT DIV DUP4 GT DUP3 ISZERO ISZERO AND ISZERO PUSH2 0xFD2 JUMPI PUSH2 0xFD2 PUSH2 0xF8B JUMP JUMPDEST POP MUL SWAP1 JUMP JUMPDEST PUSH1 0x0 DUP3 PUSH2 0xFF4 JUMPI PUSH4 0x4E487B71 PUSH1 0xE0 SHL PUSH1 0x0 MSTORE PUSH1 0x12 PUSH1 0x4 MSTORE PUSH1 0x24 PUSH1 0x0 REVERT JUMPDEST POP DIV SWAP1 JUMP JUMPDEST PUSH1 0x0 DUP3 NOT DUP3 GT ISZERO PUSH2 0x100C JUMPI PUSH2 0x100C PUSH2 0xF8B JUMP JUMPDEST POP ADD SWAP1 JUMP JUMPDEST PUSH1 0x0 PUSH1 0x20 DUP3 DUP5 SUB SLT ISZERO PUSH2 0x1023 JUMPI PUSH1 0x0 DUP1 REVERT JUMPDEST DUP2 MLOAD DUP1 ISZERO ISZERO DUP2 EQ PUSH2 0xF6E JUMPI PUSH1 0x0 DUP1 REVERT INVALID LOG2 PUSH5 0x6970667358 0x22 SLT KECCAK256 BASEFEE PUSH20 0xD5A6B5323F5C62CE546089347677401E57565D33 CODESIZE MSIZE PUSH26 0x544DC54646533A64736F6C634300080F00330000000000000000 "},"methodIdentifiers":{"checkPoint1()":"ad33710c","checkPoint2()":"8a2ac397","checkPoint3()":"d5d4d114","investments(address,uint256)":"3e6d9770","loanBLB(address,uint256)":"a2fa0c75","loanBNB(address,uint256)":"c877921c","newInvestment(uint256)":"88f89169","owner()":"8da5cb5b","pause()":"8456cb59","paused()":"5c975abb","pendingWithdrawal(address,uint256)":"2bf0da7e","releaseTime(address,uint256)":"4983c3ab","renounceOwnership()":"715018a6","rewardPlans(uint256)":"88a9931f","setCheckpoints(uint256,uint256,uint256,uint256,uint256,uint256,uint256,uint256,uint256)":"4668d866","setPlan(uint256,uint256)":"3353561d","totalInvestingBNB()":"1dd6781b","totalPendingBLB()":"e88cf1b4","transferOwnership(address)":"f2fde38b","unpause()":"3f4ba83a","withdraw(uint256)":"2e1a7d4d"}}}}}