{"contracts/StakePool/SmartChef.sol":{"SmartChef":{"abi":[{"inputs":[{"internalType":"contract IERC20Metadata","name":"_stakedToken","type":"address"},{"internalType":"contract IERC20Metadata","name":"_rewardToken","type":"address"},{"internalType":"uint256","name":"_poolLimitPerUser","type":"uint256"}],"stateMutability":"nonpayable","type":"constructor"},{"anonymous":false,"inputs":[{"indexed":false,"internalType":"address","name":"tokenRecovered","type":"address"},{"indexed":false,"internalType":"uint256","name":"amount","type":"uint256"}],"name":"AdminTokenRecovery","type":"event"},{"anonymous":false,"inputs":[{"indexed":true,"internalType":"address","name":"user","type":"address"},{"indexed":false,"internalType":"uint256","name":"amount","type":"uint256"}],"name":"Deposit","type":"event"},{"anonymous":false,"inputs":[{"indexed":true,"internalType":"address","name":"user","type":"address"},{"indexed":false,"internalType":"uint256","name":"amount","type":"uint256"}],"name":"EmergencyWithdraw","type":"event"},{"anonymous":false,"inputs":[{"indexed":false,"internalType":"uint256","name":"poolLimitPerUser","type":"uint256"}],"name":"NewPoolLimit","type":"event"},{"anonymous":false,"inputs":[{"indexed":false,"internalType":"uint256","name":"rewardPerBlock","type":"uint256"}],"name":"NewRewardPerBlock","type":"event"},{"anonymous":false,"inputs":[{"indexed":false,"internalType":"uint256","name":"startBlock","type":"uint256"},{"indexed":false,"internalType":"uint256","name":"endBlock","type":"uint256"}],"name":"NewStartAndEndBlocks","type":"event"},{"anonymous":false,"inputs":[{"indexed":true,"internalType":"address","name":"previousOwner","type":"address"},{"indexed":true,"internalType":"address","name":"newOwner","type":"address"}],"name":"OwnershipTransferred","type":"event"},{"anonymous":false,"inputs":[{"indexed":false,"internalType":"uint256","name":"blockNumber","type":"uint256"}],"name":"RewardsStop","type":"event"},{"anonymous":false,"inputs":[{"indexed":true,"internalType":"address","name":"user","type":"address"},{"indexed":false,"internalType":"uint256","name":"amount","type":"uint256"}],"name":"Withdraw","type":"event"},{"inputs":[],"name":"PRECISION_FACTOR","outputs":[{"internalType":"uint256","name":"","type":"uint256"}],"stateMutability":"view","type":"function"},{"inputs":[],"name":"accTokenPerShare","outputs":[{"internalType":"uint256","name":"","type":"uint256"}],"stateMutability":"view","type":"function"},{"inputs":[],"name":"bonusEndBlock","outputs":[{"internalType":"uint256","name":"","type":"uint256"}],"stateMutability":"view","type":"function"},{"inputs":[{"internalType":"uint256","name":"_amount","type":"uint256"}],"name":"deposit","outputs":[],"stateMutability":"nonpayable","type":"function"},{"inputs":[{"internalType":"uint256","name":"_amount","type":"uint256"}],"name":"emergencyRewardWithdraw","outputs":[],"stateMutability":"nonpayable","type":"function"},{"inputs":[],"name":"emergencyWithdraw","outputs":[],"stateMutability":"nonpayable","type":"function"},{"inputs":[],"name":"hasUserLimit","outputs":[{"internalType":"bool","name":"","type":"bool"}],"stateMutability":"view","type":"function"},{"inputs":[],"name":"lastRewardBlock","outputs":[{"internalType":"uint256","name":"","type":"uint256"}],"stateMutability":"view","type":"function"},{"inputs":[],"name":"owner","outputs":[{"internalType":"address","name":"","type":"address"}],"stateMutability":"view","type":"function"},{"inputs":[{"internalType":"address","name":"_user","type":"address"}],"name":"pendingReward","outputs":[{"internalType":"uint256","name":"","type":"uint256"}],"stateMutability":"view","type":"function"},{"inputs":[],"name":"poolLimitPerUser","outputs":[{"internalType":"uint256","name":"","type":"uint256"}],"stateMutability":"view","type":"function"},{"inputs":[{"internalType":"address","name":"_tokenAddress","type":"address"},{"internalType":"uint256","name":"_tokenAmount","type":"uint256"}],"name":"recoverWrongTokens","outputs":[],"stateMutability":"nonpayable","type":"function"},{"inputs":[],"name":"renounceOwnership","outputs":[],"stateMutability":"nonpayable","type":"function"},{"inputs":[],"name":"rewardPerBlock","outputs":[{"internalType":"uint256","name":"","type":"uint256"}],"stateMutability":"view","type":"function"},{"inputs":[],"name":"rewardToken","outputs":[{"internalType":"contract IERC20Metadata","name":"","type":"address"}],"stateMutability":"view","type":"function"},{"inputs":[],"name":"stakedToken","outputs":[{"internalType":"contract IERC20Metadata","name":"","type":"address"}],"stateMutability":"view","type":"function"},{"inputs":[],"name":"startBlock","outputs":[{"internalType":"uint256","name":"","type":"uint256"}],"stateMutability":"view","type":"function"},{"inputs":[],"name":"stopReward","outputs":[],"stateMutability":"nonpayable","type":"function"},{"inputs":[{"internalType":"address","name":"newOwner","type":"address"}],"name":"transferOwnership","outputs":[],"stateMutability":"nonpayable","type":"function"},{"inputs":[{"internalType":"bool","name":"_hasUserLimit","type":"bool"},{"internalType":"uint256","name":"_poolLimitPerUser","type":"uint256"}],"name":"updatePoolLimitPerUser","outputs":[],"stateMutability":"nonpayable","type":"function"},{"inputs":[{"internalType":"uint256","name":"_rewardPerBlock","type":"uint256"}],"name":"updateRewardPerBlock","outputs":[],"stateMutability":"nonpayable","type":"function"},{"inputs":[{"internalType":"uint256","name":"_startBlock","type":"uint256"},{"internalType":"uint256","name":"_bonusEndBlock","type":"uint256"}],"name":"updateStartAndEndBlocks","outputs":[],"stateMutability":"nonpayable","type":"function"},{"inputs":[{"internalType":"address","name":"","type":"address"}],"name":"userInfo","outputs":[{"internalType":"uint256","name":"amount","type":"uint256"},{"internalType":"uint256","name":"rewardDebt","type":"uint256"}],"stateMutability":"view","type":"function"},{"inputs":[{"internalType":"uint256","name":"_amount","type":"uint256"}],"name":"withdraw","outputs":[],"stateMutability":"nonpayable","type":"function"}],"evm":{"bytecode":{"linkReferences":{},"object":"60806040523480156200001157600080fd5b506040516200195338038062001953833981016040819052620000349162000392565b6200003f336200030e565b600180819055506000836001600160a01b03166318160ddd6040518163ffffffff1660e01b8152600401602060405180830381865afa15801562000087573d6000803e3d6000fd5b505050506040513d601f19601f82011682018060405250810190620000ad9190620003d3565b1015620000b957600080fd5b6000826001600160a01b03166318160ddd6040518163ffffffff1660e01b8152600401602060405180830381865afa158015620000fa573d6000803e3d6000fd5b505050506040513d601f19601f82011682018060405250810190620001209190620003d3565b10156200012c57600080fd5b816001600160a01b0316836001600160a01b031603620001935760405162461bcd60e51b815260206004820152601b60248201527f546f6b656e73206d75737420626520626520646966666572656e74000000000060448201526064015b60405180910390fd5b600b80546001600160a01b038086166001600160a01b031992831617909255600a80549285169290911691909117905564e8d4a51000600855620001d943600262000403565b6005819055620001ed90620186a062000403565b60045580156200020a576002805460ff1916600117905560078190555b600a546040805163313ce56760e01b815290516000926001600160a01b03169163313ce5679160048083019260209291908290030181865afa15801562000255573d6000803e3d6000fd5b505050506040513d601f19601f820116820180604052508101906200027b91906200041e565b60ff169050601e8110620002d25760405162461bcd60e51b815260206004820152601660248201527f4d75737420626520696e666572696f7220746f2033300000000000000000000060448201526064016200018a565b620002ed81601e6200035e60201b62000c861790919060201c565b620002fa90600a62000547565b6009555050600554600655506200056f9050565b600080546001600160a01b038381166001600160a01b0319831681178455604051919092169283917f8be0079c531659141344cd1fd0a4f28419497f9722a3daafe3b4186f6b6457e09190a35050565b60006200036c828462000555565b90505b92915050565b80516001600160a01b03811681146200038d57600080fd5b919050565b600080600060608486031215620003a857600080fd5b620003b38462000375565b9250620003c36020850162000375565b9150604084015190509250925092565b600060208284031215620003e657600080fd5b5051919050565b634e487b7160e01b600052601160045260246000fd5b60008219821115620004195762000419620003ed565b500190565b6000602082840312156200043157600080fd5b815160ff811681146200044357600080fd5b9392505050565b600181815b808511156200048b5781600019048211156200046f576200046f620003ed565b808516156200047d57918102915b93841c93908002906200044f565b509250929050565b600082620004a4575060016200036f565b81620004b3575060006200036f565b8160018114620004cc5760028114620004d757620004f7565b60019150506200036f565b60ff841115620004eb57620004eb620003ed565b50506001821b6200036f565b5060208310610133831016604e8410600b84101617156200051c575081810a6200036f565b6200052883836200044a565b80600019048211156200053f576200053f620003ed565b029392505050565b60006200036c838362000493565b6000828210156200056a576200056a620003ed565b500390565b6113d4806200057f6000396000f3fe608060405234801561001057600080fd5b50600436106101585760003560e01c80638f662915116100c3578063cc7a262e1161007c578063cc7a262e146102bb578063ccd34cd5146102ce578063db2e21bc146102d7578063f2fde38b146102df578063f40f0f52146102f2578063f7c618c11461030557600080fd5b80638f6629151461025357806392e8990e1461025c5780639513997f14610279578063a0b409051461028c578063a9f8d1811461029f578063b6b55f25146102a857600080fd5b806348cd4cb11161011557806348cd4cb11461020357806366fe9f8a1461020c578063715018a61461021557806380dc06721461021d5780638ae39cac146102255780638da5cb5b1461022e57600080fd5b806301f8a9761461015d5780631959a002146101725780631aed6553146101b35780632e1a7d4d146101ca5780633279beab146101dd5780633f138d4b146101f0575b600080fd5b61017061016b366004611168565b610318565b005b61019961018036600461119d565b600c602052600090815260409020805460019091015482565b604080519283526020830191909152015b60405180910390f35b6101bc60045481565b6040519081526020016101aa565b6101706101d8366004611168565b6103a4565b6101706101eb366004611168565b61050c565b6101706101fe3660046111b8565b61052e565b6101bc60055481565b6101bc60075481565b61017061063f565b610170610653565b6101bc60085481565b6000546001600160a01b03165b6040516001600160a01b0390911681526020016101aa565b6101bc60035481565b6002546102699060ff1681565b60405190151581526020016101aa565b6101706102873660046111e2565b610661565b61017061029a366004611212565b6107c0565b6101bc60065481565b6101706102b6366004611168565b6108b0565b600b5461023b906001600160a01b031681565b6101bc60095481565b610170610a2f565b6101706102ed36600461119d565b610ac5565b6101bc61030036600461119d565b610b3b565b600a5461023b906001600160a01b031681565b610320610c9b565b60055443106103695760405162461bcd60e51b815260206004820152601060248201526f141bdbdb081a185cc81cdd185c9d195960821b60448201526064015b60405180910390fd5b60088190556040518181527f0c4d677eef92893ac7ec52faf8140fc6c851ab4736302b4f3a89dfb20696a0df9060200160405180910390a150565b6002600154036103c65760405162461bcd60e51b815260040161036090611230565b6002600155336000908152600c60205260409020805482111561042b5760405162461bcd60e51b815260206004820152601b60248201527f416d6f756e7420746f20776974686472617720746f6f206869676800000000006044820152606401610360565b610433610cf5565b6000610468826001015461046260095461045c6003548760000154610dcf90919063ffffffff16565b90610ddb565b90610c86565b9050821561049557815461047c9084610c86565b8255600b54610495906001600160a01b03163385610de7565b80156104b257600a546104b2906001600160a01b03163383610de7565b60095460035483546104c9929161045c9190610dcf565b600183015560405183815233907f884edad9ce6fa2440d8a54cc123490eb96d2768479d49ff9c7366125a94243649060200160405180910390a250506001805550565b610514610c9b565b600a5461052b906001600160a01b03163383610de7565b50565b610536610c9b565b600b546001600160a01b039081169083160361058d5760405162461bcd60e51b815260206004820152601660248201527521b0b73737ba1031329039ba30b5b2b2103a37b5b2b760511b6044820152606401610360565b600a546001600160a01b03908116908316036105e45760405162461bcd60e51b815260206004820152601660248201527521b0b73737ba103132903932bbb0b932103a37b5b2b760511b6044820152606401610360565b6105f86001600160a01b0383163383610de7565b604080516001600160a01b0384168152602081018390527f74545154aac348a3eac92596bd1971957ca94795f4e954ec5f613b55fab7812991015b60405180910390a15050565b610647610c9b565b6106516000610e4f565b565b61065b610c9b565b43600455565b610669610c9b565b60055443106106ad5760405162461bcd60e51b815260206004820152601060248201526f141bdbdb081a185cc81cdd185c9d195960821b6044820152606401610360565b8082106107135760405162461bcd60e51b815260206004820152602e60248201527f4e6577207374617274426c6f636b206d757374206265206c6f7765722074686160448201526d6e206e657720656e64426c6f636b60901b6064820152608401610360565b81431061077b5760405162461bcd60e51b815260206004820152603060248201527f4e6577207374617274426c6f636b206d7573742062652068696768657220746860448201526f616e2063757272656e7420626c6f636b60801b6064820152608401610360565b60058290556004819055600682905560408051838152602081018390527f7cd0ab87d19036f3dfadadb232c78aa4879dda3f0c994a9d637532410ee2ce069101610633565b6107c8610c9b565b60025460ff166108085760405162461bcd60e51b815260206004820152600b60248201526a135d5cdd081899481cd95d60aa1b6044820152606401610360565b811561086957600754811161085f5760405162461bcd60e51b815260206004820152601860248201527f4e6577206c696d6974206d7573742062652068696768657200000000000000006044820152606401610360565b600781905561087d565b6002805460ff191683151517905560006007555b7f241f67ee5f41b7a5cabf911367329be7215900f602ebfc47f89dce2a6bcd847c60075460405161063391815260200190565b6002600154036108d25760405162461bcd60e51b815260040161036090611230565b60026001819055336000908152600c60205260409020905460ff1615610950576007548154610902908490610e9f565b11156109505760405162461bcd60e51b815260206004820152601760248201527f5573657220616d6f756e742061626f7665206c696d69740000000000000000006044820152606401610360565b610958610cf5565b8054156109a9576000610988826001015461046260095461045c6003548760000154610dcf90919063ffffffff16565b905080156109a757600a546109a7906001600160a01b03163383610de7565b505b81156109d55780546109bb9083610e9f565b8155600b546109d5906001600160a01b0316333085610eab565b60095460035482546109ec929161045c9190610dcf565b600182015560405182815233907fe1fffcc4923d04b559f4d29a8bfc6cda04eb5b0d3c460751c2402c5c5cc9109c906020015b60405180910390a2505060018055565b600260015403610a515760405162461bcd60e51b815260040161036090611230565b60026001908155336000908152600c60205260408120805482825592810191909155908015610a9157600b54610a91906001600160a01b03163383610de7565b815460405190815233907f5fafa99d0643513820be26656b45130b01e1c03062e1266bf36f88cbd3bd969590602001610a1f565b610acd610c9b565b6001600160a01b038116610b325760405162461bcd60e51b815260206004820152602660248201527f4f776e61626c653a206e6577206f776e657220697320746865207a65726f206160448201526564647265737360d01b6064820152608401610360565b61052b81610e4f565b6001600160a01b038181166000908152600c6020526040808220600b5491516370a0823160e01b8152306004820152929390928492909116906370a0823190602401602060405180830381865afa158015610b9a573d6000803e3d6000fd5b505050506040513d601f19601f82011682018060405250810190610bbe9190611267565b905060065443118015610bd057508015155b15610c57576000610be360065443610ee9565b90506000610bfc60085483610dcf90919063ffffffff16565b90506000610c25610c1c8561045c60095486610dcf90919063ffffffff16565b60035490610e9f565b9050610c4c856001015461046260095461045c858a60000154610dcf90919063ffffffff16565b979650505050505050565b610c7e826001015461046260095461045c6003548760000154610dcf90919063ffffffff16565b949350505050565b6000610c928284611296565b90505b92915050565b6000546001600160a01b031633146106515760405162461bcd60e51b815260206004820181905260248201527f4f776e61626c653a2063616c6c6572206973206e6f7420746865206f776e65726044820152606401610360565b6006544311610d0057565b600b546040516370a0823160e01b81523060048201526000916001600160a01b0316906370a0823190602401602060405180830381865afa158015610d49573d6000803e3d6000fd5b505050506040513d601f19601f82011682018060405250810190610d6d9190611267565b905080600003610d7e575043600655565b6000610d8c60065443610ee9565b90506000610da560085483610dcf90919063ffffffff16565b9050610dc3610c1c8461045c60095485610dcf90919063ffffffff16565b60035550504360065550565b6000610c9282846112ad565b6000610c9282846112cc565b6040516001600160a01b038316602482015260448101829052610e4a90849063a9059cbb60e01b906064015b60408051601f198184030181529190526020810180516001600160e01b03166001600160e01b031990931692909217909152610f23565b505050565b600080546001600160a01b038381166001600160a01b0319831681178455604051919092169283917f8be0079c531659141344cd1fd0a4f28419497f9722a3daafe3b4186f6b6457e09190a35050565b6000610c9282846112ee565b6040516001600160a01b0380851660248301528316604482015260648101829052610ee39085906323b872dd60e01b90608401610e13565b50505050565b60006004548211610f0557610efe8284610c86565b9050610c95565b6004548310610f1657506000610c95565b600454610efe9084610c86565b6000610f78826040518060400160405280602081526020017f5361666545524332303a206c6f772d6c6576656c2063616c6c206661696c6564815250856001600160a01b0316610ff59092919063ffffffff16565b805190915015610e4a5780806020019051810190610f969190611306565b610e4a5760405162461bcd60e51b815260206004820152602a60248201527f5361666545524332303a204552433230206f7065726174696f6e20646964206e6044820152691bdd081cdd58d8d9595960b21b6064820152608401610360565b6060611004848460008561100e565b90505b9392505050565b60608247101561106f5760405162461bcd60e51b815260206004820152602660248201527f416464726573733a20696e73756666696369656e742062616c616e636520666f6044820152651c8818d85b1b60d21b6064820152608401610360565b6001600160a01b0385163b6110c65760405162461bcd60e51b815260206004820152601d60248201527f416464726573733a2063616c6c20746f206e6f6e2d636f6e74726163740000006044820152606401610360565b600080866001600160a01b031685876040516110e2919061134f565b60006040518083038185875af1925050503d806000811461111f576040519150601f19603f3d011682016040523d82523d6000602084013e611124565b606091505b5091509150610c4c8282866060831561113e575081611007565b82511561114e5782518084602001fd5b8160405162461bcd60e51b8152600401610360919061136b565b60006020828403121561117a57600080fd5b5035919050565b80356001600160a01b038116811461119857600080fd5b919050565b6000602082840312156111af57600080fd5b610c9282611181565b600080604083850312156111cb57600080fd5b6111d483611181565b946020939093013593505050565b600080604083850312156111f557600080fd5b50508035926020909101359150565b801515811461052b57600080fd5b6000806040838503121561122557600080fd5b82356111d481611204565b6020808252601f908201527f5265656e7472616e637947756172643a207265656e7472616e742063616c6c00604082015260600190565b60006020828403121561127957600080fd5b5051919050565b634e487b7160e01b600052601160045260246000fd5b6000828210156112a8576112a8611280565b500390565b60008160001904831182151516156112c7576112c7611280565b500290565b6000826112e957634e487b7160e01b600052601260045260246000fd5b500490565b6000821982111561130157611301611280565b500190565b60006020828403121561131857600080fd5b815161100781611204565b60005b8381101561133e578181015183820152602001611326565b83811115610ee35750506000910152565b60008251611361818460208701611323565b9190910192915050565b602081526000825180602084015261138a816040850160208701611323565b601f01601f1916919091016040019291505056fea26469706673582212202de266c9a667cef7a8e618476a9ec1cbc0e1f0c92be791e56d30a097c83f719f64736f6c634300080f0033","opcodes":"PUSH1 0x80 PUSH1 0x40 MSTORE CALLVALUE DUP1 ISZERO PUSH3 0x11 JUMPI PUSH1 0x0 DUP1 REVERT JUMPDEST POP PUSH1 0x40 MLOAD PUSH3 0x1953 CODESIZE SUB DUP1 PUSH3 0x1953 DUP4 CODECOPY DUP2 ADD PUSH1 0x40 DUP2 SWAP1 MSTORE PUSH3 0x34 SWAP2 PUSH3 0x392 JUMP JUMPDEST PUSH3 0x3F CALLER PUSH3 0x30E JUMP JUMPDEST PUSH1 0x1 DUP1 DUP2 SWAP1 SSTORE POP PUSH1 0x0 DUP4 PUSH1 0x1 PUSH1 0x1 PUSH1 0xA0 SHL SUB AND PUSH4 0x18160DDD PUSH1 0x40 MLOAD DUP2 PUSH4 0xFFFFFFFF AND PUSH1 0xE0 SHL DUP2 MSTORE PUSH1 0x4 ADD PUSH1 0x20 PUSH1 0x40 MLOAD DUP1 DUP4 SUB DUP2 DUP7 GAS STATICCALL ISZERO DUP1 ISZERO PUSH3 0x87 JUMPI RETURNDATASIZE PUSH1 0x0 DUP1 RETURNDATACOPY RETURNDATASIZE PUSH1 0x0 REVERT JUMPDEST POP POP POP POP PUSH1 0x40 MLOAD RETURNDATASIZE PUSH1 0x1F NOT PUSH1 0x1F DUP3 ADD AND DUP3 ADD DUP1 PUSH1 0x40 MSTORE POP DUP2 ADD SWAP1 PUSH3 0xAD SWAP2 SWAP1 PUSH3 0x3D3 JUMP JUMPDEST LT ISZERO PUSH3 0xB9 JUMPI PUSH1 0x0 DUP1 REVERT JUMPDEST PUSH1 0x0 DUP3 PUSH1 0x1 PUSH1 0x1 PUSH1 0xA0 SHL SUB AND PUSH4 0x18160DDD PUSH1 0x40 MLOAD DUP2 PUSH4 0xFFFFFFFF AND PUSH1 0xE0 SHL DUP2 MSTORE PUSH1 0x4 ADD PUSH1 0x20 PUSH1 0x40 MLOAD DUP1 DUP4 SUB DUP2 DUP7 GAS STATICCALL ISZERO DUP1 ISZERO PUSH3 0xFA JUMPI RETURNDATASIZE PUSH1 0x0 DUP1 RETURNDATACOPY RETURNDATASIZE PUSH1 0x0 REVERT JUMPDEST POP POP POP POP PUSH1 0x40 MLOAD RETURNDATASIZE PUSH1 0x1F NOT PUSH1 0x1F DUP3 ADD AND DUP3 ADD DUP1 PUSH1 0x40 MSTORE POP DUP2 ADD SWAP1 PUSH3 0x120 SWAP2 SWAP1 PUSH3 0x3D3 JUMP JUMPDEST LT ISZERO PUSH3 0x12C JUMPI PUSH1 0x0 DUP1 REVERT JUMPDEST DUP2 PUSH1 0x1 PUSH1 0x1 PUSH1 0xA0 SHL SUB AND DUP4 PUSH1 0x1 PUSH1 0x1 PUSH1 0xA0 SHL SUB AND SUB PUSH3 0x193 JUMPI PUSH1 0x40 MLOAD PUSH3 0x461BCD PUSH1 0xE5 SHL DUP2 MSTORE PUSH1 0x20 PUSH1 0x4 DUP3 ADD MSTORE PUSH1 0x1B PUSH1 0x24 DUP3 ADD MSTORE PUSH32 0x546F6B656E73206D75737420626520626520646966666572656E740000000000 PUSH1 0x44 DUP3 ADD MSTORE PUSH1 0x64 ADD JUMPDEST PUSH1 0x40 MLOAD DUP1 SWAP2 SUB SWAP1 REVERT JUMPDEST PUSH1 0xB DUP1 SLOAD PUSH1 0x1 PUSH1 0x1 PUSH1 0xA0 SHL SUB DUP1 DUP7 AND PUSH1 0x1 PUSH1 0x1 PUSH1 0xA0 SHL SUB NOT SWAP3 DUP4 AND OR SWAP1 SWAP3 SSTORE PUSH1 0xA DUP1 SLOAD SWAP3 DUP6 AND SWAP3 SWAP1 SWAP2 AND SWAP2 SWAP1 SWAP2 OR SWAP1 SSTORE PUSH5 0xE8D4A51000 PUSH1 0x8 SSTORE PUSH3 0x1D9 NUMBER PUSH1 0x2 PUSH3 0x403 JUMP JUMPDEST PUSH1 0x5 DUP2 SWAP1 SSTORE PUSH3 0x1ED SWAP1 PUSH3 0x186A0 PUSH3 0x403 JUMP JUMPDEST PUSH1 0x4 SSTORE DUP1 ISZERO PUSH3 0x20A JUMPI PUSH1 0x2 DUP1 SLOAD PUSH1 0xFF NOT AND PUSH1 0x1 OR SWAP1 SSTORE PUSH1 0x7 DUP2 SWAP1 SSTORE JUMPDEST PUSH1 0xA SLOAD PUSH1 0x40 DUP1 MLOAD PUSH4 0x313CE567 PUSH1 0xE0 SHL DUP2 MSTORE SWAP1 MLOAD PUSH1 0x0 SWAP3 PUSH1 0x1 PUSH1 0x1 PUSH1 0xA0 SHL SUB AND SWAP2 PUSH4 0x313CE567 SWAP2 PUSH1 0x4 DUP1 DUP4 ADD SWAP3 PUSH1 0x20 SWAP3 SWAP2 SWAP1 DUP3 SWAP1 SUB ADD DUP2 DUP7 GAS STATICCALL ISZERO DUP1 ISZERO PUSH3 0x255 JUMPI RETURNDATASIZE PUSH1 0x0 DUP1 RETURNDATACOPY RETURNDATASIZE PUSH1 0x0 REVERT JUMPDEST POP POP POP POP PUSH1 0x40 MLOAD RETURNDATASIZE PUSH1 0x1F NOT PUSH1 0x1F DUP3 ADD AND DUP3 ADD DUP1 PUSH1 0x40 MSTORE POP DUP2 ADD SWAP1 PUSH3 0x27B SWAP2 SWAP1 PUSH3 0x41E JUMP JUMPDEST PUSH1 0xFF AND SWAP1 POP PUSH1 0x1E DUP2 LT PUSH3 0x2D2 JUMPI PUSH1 0x40 MLOAD PUSH3 0x461BCD PUSH1 0xE5 SHL DUP2 MSTORE PUSH1 0x20 PUSH1 0x4 DUP3 ADD MSTORE PUSH1 0x16 PUSH1 0x24 DUP3 ADD MSTORE PUSH32 0x4D75737420626520696E666572696F7220746F20333000000000000000000000 PUSH1 0x44 DUP3 ADD MSTORE PUSH1 0x64 ADD PUSH3 0x18A JUMP JUMPDEST PUSH3 0x2ED DUP2 PUSH1 0x1E PUSH3 0x35E PUSH1 0x20 SHL PUSH3 0xC86 OR SWAP1 SWAP2 SWAP1 PUSH1 0x20 SHR JUMP JUMPDEST PUSH3 0x2FA SWAP1 PUSH1 0xA PUSH3 0x547 JUMP JUMPDEST PUSH1 0x9 SSTORE POP POP PUSH1 0x5 SLOAD PUSH1 0x6 SSTORE POP PUSH3 0x56F SWAP1 POP JUMP JUMPDEST PUSH1 0x0 DUP1 SLOAD PUSH1 0x1 PUSH1 0x1 PUSH1 0xA0 SHL SUB DUP4 DUP2 AND PUSH1 0x1 PUSH1 0x1 PUSH1 0xA0 SHL SUB NOT DUP4 AND DUP2 OR DUP5 SSTORE PUSH1 0x40 MLOAD SWAP2 SWAP1 SWAP3 AND SWAP3 DUP4 SWAP2 PUSH32 0x8BE0079C531659141344CD1FD0A4F28419497F9722A3DAAFE3B4186F6B6457E0 SWAP2 SWAP1 LOG3 POP POP JUMP JUMPDEST PUSH1 0x0 PUSH3 0x36C DUP3 DUP5 PUSH3 0x555 JUMP JUMPDEST SWAP1 POP JUMPDEST SWAP3 SWAP2 POP POP JUMP JUMPDEST DUP1 MLOAD PUSH1 0x1 PUSH1 0x1 PUSH1 0xA0 SHL SUB DUP2 AND DUP2 EQ PUSH3 0x38D JUMPI PUSH1 0x0 DUP1 REVERT JUMPDEST SWAP2 SWAP1 POP JUMP JUMPDEST PUSH1 0x0 DUP1 PUSH1 0x0 PUSH1 0x60 DUP5 DUP7 SUB SLT ISZERO PUSH3 0x3A8 JUMPI PUSH1 0x0 DUP1 REVERT JUMPDEST PUSH3 0x3B3 DUP5 PUSH3 0x375 JUMP JUMPDEST SWAP3 POP PUSH3 0x3C3 PUSH1 0x20 DUP6 ADD PUSH3 0x375 JUMP JUMPDEST SWAP2 POP PUSH1 0x40 DUP5 ADD MLOAD SWAP1 POP SWAP3 POP SWAP3 POP SWAP3 JUMP JUMPDEST PUSH1 0x0 PUSH1 0x20 DUP3 DUP5 SUB SLT ISZERO PUSH3 0x3E6 JUMPI PUSH1 0x0 DUP1 REVERT JUMPDEST POP MLOAD SWAP2 SWAP1 POP JUMP JUMPDEST PUSH4 0x4E487B71 PUSH1 0xE0 SHL PUSH1 0x0 MSTORE PUSH1 0x11 PUSH1 0x4 MSTORE PUSH1 0x24 PUSH1 0x0 REVERT JUMPDEST PUSH1 0x0 DUP3 NOT DUP3 GT ISZERO PUSH3 0x419 JUMPI PUSH3 0x419 PUSH3 0x3ED JUMP JUMPDEST POP ADD SWAP1 JUMP JUMPDEST PUSH1 0x0 PUSH1 0x20 DUP3 DUP5 SUB SLT ISZERO PUSH3 0x431 JUMPI PUSH1 0x0 DUP1 REVERT JUMPDEST DUP2 MLOAD PUSH1 0xFF DUP2 AND DUP2 EQ PUSH3 0x443 JUMPI PUSH1 0x0 DUP1 REVERT JUMPDEST SWAP4 SWAP3 POP POP POP JUMP JUMPDEST PUSH1 0x1 DUP2 DUP2 JUMPDEST DUP1 DUP6 GT ISZERO PUSH3 0x48B JUMPI DUP2 PUSH1 0x0 NOT DIV DUP3 GT ISZERO PUSH3 0x46F JUMPI PUSH3 0x46F PUSH3 0x3ED JUMP JUMPDEST DUP1 DUP6 AND ISZERO PUSH3 0x47D JUMPI SWAP2 DUP2 MUL SWAP2 JUMPDEST SWAP4 DUP5 SHR SWAP4 SWAP1 DUP1 MUL SWAP1 PUSH3 0x44F JUMP JUMPDEST POP SWAP3 POP SWAP3 SWAP1 POP JUMP JUMPDEST PUSH1 0x0 DUP3 PUSH3 0x4A4 JUMPI POP PUSH1 0x1 PUSH3 0x36F JUMP JUMPDEST DUP2 PUSH3 0x4B3 JUMPI POP PUSH1 0x0 PUSH3 0x36F JUMP JUMPDEST DUP2 PUSH1 0x1 DUP2 EQ PUSH3 0x4CC JUMPI PUSH1 0x2 DUP2 EQ PUSH3 0x4D7 JUMPI PUSH3 0x4F7 JUMP JUMPDEST PUSH1 0x1 SWAP2 POP POP PUSH3 0x36F JUMP JUMPDEST PUSH1 0xFF DUP5 GT ISZERO PUSH3 0x4EB JUMPI PUSH3 0x4EB PUSH3 0x3ED JUMP JUMPDEST POP POP PUSH1 0x1 DUP3 SHL PUSH3 0x36F JUMP JUMPDEST POP PUSH1 0x20 DUP4 LT PUSH2 0x133 DUP4 LT AND PUSH1 0x4E DUP5 LT PUSH1 0xB DUP5 LT AND OR ISZERO PUSH3 0x51C JUMPI POP DUP2 DUP2 EXP PUSH3 0x36F JUMP JUMPDEST PUSH3 0x528 DUP4 DUP4 PUSH3 0x44A JUMP JUMPDEST DUP1 PUSH1 0x0 NOT DIV DUP3 GT ISZERO PUSH3 0x53F JUMPI PUSH3 0x53F PUSH3 0x3ED JUMP JUMPDEST MUL SWAP4 SWAP3 POP POP POP JUMP JUMPDEST PUSH1 0x0 PUSH3 0x36C DUP4 DUP4 PUSH3 0x493 JUMP JUMPDEST PUSH1 0x0 DUP3 DUP3 LT ISZERO PUSH3 0x56A JUMPI PUSH3 0x56A PUSH3 0x3ED JUMP JUMPDEST POP SUB SWAP1 JUMP JUMPDEST PUSH2 0x13D4 DUP1 PUSH3 0x57F PUSH1 0x0 CODECOPY PUSH1 0x0 RETURN INVALID PUSH1 0x80 PUSH1 0x40 MSTORE CALLVALUE DUP1 ISZERO PUSH2 0x10 JUMPI PUSH1 0x0 DUP1 REVERT JUMPDEST POP PUSH1 0x4 CALLDATASIZE LT PUSH2 0x158 JUMPI PUSH1 0x0 CALLDATALOAD PUSH1 0xE0 SHR DUP1 PUSH4 0x8F662915 GT PUSH2 0xC3 JUMPI DUP1 PUSH4 0xCC7A262E GT PUSH2 0x7C JUMPI DUP1 PUSH4 0xCC7A262E EQ PUSH2 0x2BB JUMPI DUP1 PUSH4 0xCCD34CD5 EQ PUSH2 0x2CE JUMPI DUP1 PUSH4 0xDB2E21BC EQ PUSH2 0x2D7 JUMPI DUP1 PUSH4 0xF2FDE38B EQ PUSH2 0x2DF JUMPI DUP1 PUSH4 0xF40F0F52 EQ PUSH2 0x2F2 JUMPI DUP1 PUSH4 0xF7C618C1 EQ PUSH2 0x305 JUMPI PUSH1 0x0 DUP1 REVERT JUMPDEST DUP1 PUSH4 0x8F662915 EQ PUSH2 0x253 JUMPI DUP1 PUSH4 0x92E8990E EQ PUSH2 0x25C JUMPI DUP1 PUSH4 0x9513997F EQ PUSH2 0x279 JUMPI DUP1 PUSH4 0xA0B40905 EQ PUSH2 0x28C JUMPI DUP1 PUSH4 0xA9F8D181 EQ PUSH2 0x29F JUMPI DUP1 PUSH4 0xB6B55F25 EQ PUSH2 0x2A8 JUMPI PUSH1 0x0 DUP1 REVERT JUMPDEST DUP1 PUSH4 0x48CD4CB1 GT PUSH2 0x115 JUMPI DUP1 PUSH4 0x48CD4CB1 EQ PUSH2 0x203 JUMPI DUP1 PUSH4 0x66FE9F8A EQ PUSH2 0x20C JUMPI DUP1 PUSH4 0x715018A6 EQ PUSH2 0x215 JUMPI DUP1 PUSH4 0x80DC0672 EQ PUSH2 0x21D JUMPI DUP1 PUSH4 0x8AE39CAC EQ PUSH2 0x225 JUMPI DUP1 PUSH4 0x8DA5CB5B EQ PUSH2 0x22E JUMPI PUSH1 0x0 DUP1 REVERT JUMPDEST DUP1 PUSH4 0x1F8A976 EQ PUSH2 0x15D JUMPI DUP1 PUSH4 0x1959A002 EQ PUSH2 0x172 JUMPI DUP1 PUSH4 0x1AED6553 EQ PUSH2 0x1B3 JUMPI DUP1 PUSH4 0x2E1A7D4D EQ PUSH2 0x1CA JUMPI DUP1 PUSH4 0x3279BEAB EQ PUSH2 0x1DD JUMPI DUP1 PUSH4 0x3F138D4B EQ PUSH2 0x1F0 JUMPI JUMPDEST PUSH1 0x0 DUP1 REVERT JUMPDEST PUSH2 0x170 PUSH2 0x16B CALLDATASIZE PUSH1 0x4 PUSH2 0x1168 JUMP JUMPDEST PUSH2 0x318 JUMP JUMPDEST STOP JUMPDEST PUSH2 0x199 PUSH2 0x180 CALLDATASIZE PUSH1 0x4 PUSH2 0x119D JUMP JUMPDEST PUSH1 0xC PUSH1 0x20 MSTORE PUSH1 0x0 SWAP1 DUP2 MSTORE PUSH1 0x40 SWAP1 KECCAK256 DUP1 SLOAD PUSH1 0x1 SWAP1 SWAP2 ADD SLOAD DUP3 JUMP JUMPDEST PUSH1 0x40 DUP1 MLOAD SWAP3 DUP4 MSTORE PUSH1 0x20 DUP4 ADD SWAP2 SWAP1 SWAP2 MSTORE ADD JUMPDEST PUSH1 0x40 MLOAD DUP1 SWAP2 SUB SWAP1 RETURN JUMPDEST PUSH2 0x1BC PUSH1 0x4 SLOAD DUP2 JUMP JUMPDEST PUSH1 0x40 MLOAD SWAP1 DUP2 MSTORE PUSH1 0x20 ADD PUSH2 0x1AA JUMP JUMPDEST PUSH2 0x170 PUSH2 0x1D8 CALLDATASIZE PUSH1 0x4 PUSH2 0x1168 JUMP JUMPDEST PUSH2 0x3A4 JUMP JUMPDEST PUSH2 0x170 PUSH2 0x1EB CALLDATASIZE PUSH1 0x4 PUSH2 0x1168 JUMP JUMPDEST PUSH2 0x50C JUMP JUMPDEST PUSH2 0x170 PUSH2 0x1FE CALLDATASIZE PUSH1 0x4 PUSH2 0x11B8 JUMP JUMPDEST PUSH2 0x52E JUMP JUMPDEST PUSH2 0x1BC PUSH1 0x5 SLOAD DUP2 JUMP JUMPDEST PUSH2 0x1BC PUSH1 0x7 SLOAD DUP2 JUMP JUMPDEST PUSH2 0x170 PUSH2 0x63F JUMP JUMPDEST PUSH2 0x170 PUSH2 0x653 JUMP JUMPDEST PUSH2 0x1BC PUSH1 0x8 SLOAD DUP2 JUMP JUMPDEST PUSH1 0x0 SLOAD PUSH1 0x1 PUSH1 0x1 PUSH1 0xA0 SHL SUB AND JUMPDEST PUSH1 0x40 MLOAD PUSH1 0x1 PUSH1 0x1 PUSH1 0xA0 SHL SUB SWAP1 SWAP2 AND DUP2 MSTORE PUSH1 0x20 ADD PUSH2 0x1AA JUMP JUMPDEST PUSH2 0x1BC PUSH1 0x3 SLOAD DUP2 JUMP JUMPDEST PUSH1 0x2 SLOAD PUSH2 0x269 SWAP1 PUSH1 0xFF AND DUP2 JUMP JUMPDEST PUSH1 0x40 MLOAD SWAP1 ISZERO ISZERO DUP2 MSTORE PUSH1 0x20 ADD PUSH2 0x1AA JUMP JUMPDEST PUSH2 0x170 PUSH2 0x287 CALLDATASIZE PUSH1 0x4 PUSH2 0x11E2 JUMP JUMPDEST PUSH2 0x661 JUMP JUMPDEST PUSH2 0x170 PUSH2 0x29A CALLDATASIZE PUSH1 0x4 PUSH2 0x1212 JUMP JUMPDEST PUSH2 0x7C0 JUMP JUMPDEST PUSH2 0x1BC PUSH1 0x6 SLOAD DUP2 JUMP JUMPDEST PUSH2 0x170 PUSH2 0x2B6 CALLDATASIZE PUSH1 0x4 PUSH2 0x1168 JUMP JUMPDEST PUSH2 0x8B0 JUMP JUMPDEST PUSH1 0xB SLOAD PUSH2 0x23B SWAP1 PUSH1 0x1 PUSH1 0x1 PUSH1 0xA0 SHL SUB AND DUP2 JUMP JUMPDEST PUSH2 0x1BC PUSH1 0x9 SLOAD DUP2 JUMP JUMPDEST PUSH2 0x170 PUSH2 0xA2F JUMP JUMPDEST PUSH2 0x170 PUSH2 0x2ED CALLDATASIZE PUSH1 0x4 PUSH2 0x119D JUMP JUMPDEST PUSH2 0xAC5 JUMP JUMPDEST PUSH2 0x1BC PUSH2 0x300 CALLDATASIZE PUSH1 0x4 PUSH2 0x119D JUMP JUMPDEST PUSH2 0xB3B JUMP JUMPDEST PUSH1 0xA SLOAD PUSH2 0x23B SWAP1 PUSH1 0x1 PUSH1 0x1 PUSH1 0xA0 SHL SUB AND DUP2 JUMP JUMPDEST PUSH2 0x320 PUSH2 0xC9B JUMP JUMPDEST PUSH1 0x5 SLOAD NUMBER LT PUSH2 0x369 JUMPI PUSH1 0x40 MLOAD PUSH3 0x461BCD PUSH1 0xE5 SHL DUP2 MSTORE PUSH1 0x20 PUSH1 0x4 DUP3 ADD MSTORE PUSH1 0x10 PUSH1 0x24 DUP3 ADD MSTORE PUSH16 0x141BDBDB081A185CC81CDD185C9D1959 PUSH1 0x82 SHL PUSH1 0x44 DUP3 ADD MSTORE PUSH1 0x64 ADD JUMPDEST PUSH1 0x40 MLOAD DUP1 SWAP2 SUB SWAP1 REVERT JUMPDEST PUSH1 0x8 DUP2 SWAP1 SSTORE PUSH1 0x40 MLOAD DUP2 DUP2 MSTORE PUSH32 0xC4D677EEF92893AC7EC52FAF8140FC6C851AB4736302B4F3A89DFB20696A0DF SWAP1 PUSH1 0x20 ADD PUSH1 0x40 MLOAD DUP1 SWAP2 SUB SWAP1 LOG1 POP JUMP JUMPDEST PUSH1 0x2 PUSH1 0x1 SLOAD SUB PUSH2 0x3C6 JUMPI PUSH1 0x40 MLOAD PUSH3 0x461BCD PUSH1 0xE5 SHL DUP2 MSTORE PUSH1 0x4 ADD PUSH2 0x360 SWAP1 PUSH2 0x1230 JUMP JUMPDEST PUSH1 0x2 PUSH1 0x1 SSTORE CALLER PUSH1 0x0 SWAP1 DUP2 MSTORE PUSH1 0xC PUSH1 0x20 MSTORE PUSH1 0x40 SWAP1 KECCAK256 DUP1 SLOAD DUP3 GT ISZERO PUSH2 0x42B JUMPI PUSH1 0x40 MLOAD PUSH3 0x461BCD PUSH1 0xE5 SHL DUP2 MSTORE PUSH1 0x20 PUSH1 0x4 DUP3 ADD MSTORE PUSH1 0x1B PUSH1 0x24 DUP3 ADD MSTORE PUSH32 0x416D6F756E7420746F20776974686472617720746F6F20686967680000000000 PUSH1 0x44 DUP3 ADD MSTORE PUSH1 0x64 ADD PUSH2 0x360 JUMP JUMPDEST PUSH2 0x433 PUSH2 0xCF5 JUMP JUMPDEST PUSH1 0x0 PUSH2 0x468 DUP3 PUSH1 0x1 ADD SLOAD PUSH2 0x462 PUSH1 0x9 SLOAD PUSH2 0x45C PUSH1 0x3 SLOAD DUP8 PUSH1 0x0 ADD SLOAD PUSH2 0xDCF SWAP1 SWAP2 SWAP1 PUSH4 0xFFFFFFFF AND JUMP JUMPDEST SWAP1 PUSH2 0xDDB JUMP JUMPDEST SWAP1 PUSH2 0xC86 JUMP JUMPDEST SWAP1 POP DUP3 ISZERO PUSH2 0x495 JUMPI DUP2 SLOAD PUSH2 0x47C SWAP1 DUP5 PUSH2 0xC86 JUMP JUMPDEST DUP3 SSTORE PUSH1 0xB SLOAD PUSH2 0x495 SWAP1 PUSH1 0x1 PUSH1 0x1 PUSH1 0xA0 SHL SUB AND CALLER DUP6 PUSH2 0xDE7 JUMP JUMPDEST DUP1 ISZERO PUSH2 0x4B2 JUMPI PUSH1 0xA SLOAD PUSH2 0x4B2 SWAP1 PUSH1 0x1 PUSH1 0x1 PUSH1 0xA0 SHL SUB AND CALLER DUP4 PUSH2 0xDE7 JUMP JUMPDEST PUSH1 0x9 SLOAD PUSH1 0x3 SLOAD DUP4 SLOAD PUSH2 0x4C9 SWAP3 SWAP2 PUSH2 0x45C SWAP2 SWAP1 PUSH2 0xDCF JUMP JUMPDEST PUSH1 0x1 DUP4 ADD SSTORE PUSH1 0x40 MLOAD DUP4 DUP2 MSTORE CALLER SWAP1 PUSH32 0x884EDAD9CE6FA2440D8A54CC123490EB96D2768479D49FF9C7366125A9424364 SWAP1 PUSH1 0x20 ADD PUSH1 0x40 MLOAD DUP1 SWAP2 SUB SWAP1 LOG2 POP POP PUSH1 0x1 DUP1 SSTORE POP JUMP JUMPDEST PUSH2 0x514 PUSH2 0xC9B JUMP JUMPDEST PUSH1 0xA SLOAD PUSH2 0x52B SWAP1 PUSH1 0x1 PUSH1 0x1 PUSH1 0xA0 SHL SUB AND CALLER DUP4 PUSH2 0xDE7 JUMP JUMPDEST POP JUMP JUMPDEST PUSH2 0x536 PUSH2 0xC9B JUMP JUMPDEST PUSH1 0xB SLOAD PUSH1 0x1 PUSH1 0x1 PUSH1 0xA0 SHL SUB SWAP1 DUP2 AND SWAP1 DUP4 AND SUB PUSH2 0x58D JUMPI PUSH1 0x40 MLOAD PUSH3 0x461BCD PUSH1 0xE5 SHL DUP2 MSTORE PUSH1 0x20 PUSH1 0x4 DUP3 ADD MSTORE PUSH1 0x16 PUSH1 0x24 DUP3 ADD MSTORE PUSH22 0x21B0B73737BA1031329039BA30B5B2B2103A37B5B2B7 PUSH1 0x51 SHL PUSH1 0x44 DUP3 ADD MSTORE PUSH1 0x64 ADD PUSH2 0x360 JUMP JUMPDEST PUSH1 0xA SLOAD PUSH1 0x1 PUSH1 0x1 PUSH1 0xA0 SHL SUB SWAP1 DUP2 AND SWAP1 DUP4 AND SUB PUSH2 0x5E4 JUMPI PUSH1 0x40 MLOAD PUSH3 0x461BCD PUSH1 0xE5 SHL DUP2 MSTORE PUSH1 0x20 PUSH1 0x4 DUP3 ADD MSTORE PUSH1 0x16 PUSH1 0x24 DUP3 ADD MSTORE PUSH22 0x21B0B73737BA103132903932BBB0B932103A37B5B2B7 PUSH1 0x51 SHL PUSH1 0x44 DUP3 ADD MSTORE PUSH1 0x64 ADD PUSH2 0x360 JUMP JUMPDEST PUSH2 0x5F8 PUSH1 0x1 PUSH1 0x1 PUSH1 0xA0 SHL SUB DUP4 AND CALLER DUP4 PUSH2 0xDE7 JUMP JUMPDEST PUSH1 0x40 DUP1 MLOAD PUSH1 0x1 PUSH1 0x1 PUSH1 0xA0 SHL SUB DUP5 AND DUP2 MSTORE PUSH1 0x20 DUP2 ADD DUP4 SWAP1 MSTORE PUSH32 0x74545154AAC348A3EAC92596BD1971957CA94795F4E954EC5F613B55FAB78129 SWAP2 ADD JUMPDEST PUSH1 0x40 MLOAD DUP1 SWAP2 SUB SWAP1 LOG1 POP POP JUMP JUMPDEST PUSH2 0x647 PUSH2 0xC9B JUMP JUMPDEST PUSH2 0x651 PUSH1 0x0 PUSH2 0xE4F JUMP JUMPDEST JUMP JUMPDEST PUSH2 0x65B PUSH2 0xC9B JUMP JUMPDEST NUMBER PUSH1 0x4 SSTORE JUMP JUMPDEST PUSH2 0x669 PUSH2 0xC9B JUMP JUMPDEST PUSH1 0x5 SLOAD NUMBER LT PUSH2 0x6AD JUMPI PUSH1 0x40 MLOAD PUSH3 0x461BCD PUSH1 0xE5 SHL DUP2 MSTORE PUSH1 0x20 PUSH1 0x4 DUP3 ADD MSTORE PUSH1 0x10 PUSH1 0x24 DUP3 ADD MSTORE PUSH16 0x141BDBDB081A185CC81CDD185C9D1959 PUSH1 0x82 SHL PUSH1 0x44 DUP3 ADD MSTORE PUSH1 0x64 ADD PUSH2 0x360 JUMP JUMPDEST DUP1 DUP3 LT PUSH2 0x713 JUMPI PUSH1 0x40 MLOAD PUSH3 0x461BCD PUSH1 0xE5 SHL DUP2 MSTORE PUSH1 0x20 PUSH1 0x4 DUP3 ADD MSTORE PUSH1 0x2E PUSH1 0x24 DUP3 ADD MSTORE PUSH32 0x4E6577207374617274426C6F636B206D757374206265206C6F77657220746861 PUSH1 0x44 DUP3 ADD MSTORE PUSH14 0x6E206E657720656E64426C6F636B PUSH1 0x90 SHL PUSH1 0x64 DUP3 ADD MSTORE PUSH1 0x84 ADD PUSH2 0x360 JUMP JUMPDEST DUP2 NUMBER LT PUSH2 0x77B JUMPI PUSH1 0x40 MLOAD PUSH3 0x461BCD PUSH1 0xE5 SHL DUP2 MSTORE PUSH1 0x20 PUSH1 0x4 DUP3 ADD MSTORE PUSH1 0x30 PUSH1 0x24 DUP3 ADD MSTORE PUSH32 0x4E6577207374617274426C6F636B206D75737420626520686967686572207468 PUSH1 0x44 DUP3 ADD MSTORE PUSH16 0x616E2063757272656E7420626C6F636B PUSH1 0x80 SHL PUSH1 0x64 DUP3 ADD MSTORE PUSH1 0x84 ADD PUSH2 0x360 JUMP JUMPDEST PUSH1 0x5 DUP3 SWAP1 SSTORE PUSH1 0x4 DUP2 SWAP1 SSTORE PUSH1 0x6 DUP3 SWAP1 SSTORE PUSH1 0x40 DUP1 MLOAD DUP4 DUP2 MSTORE PUSH1 0x20 DUP2 ADD DUP4 SWAP1 MSTORE PUSH32 0x7CD0AB87D19036F3DFADADB232C78AA4879DDA3F0C994A9D637532410EE2CE06 SWAP2 ADD PUSH2 0x633 JUMP JUMPDEST PUSH2 0x7C8 PUSH2 0xC9B JUMP JUMPDEST PUSH1 0x2 SLOAD PUSH1 0xFF AND PUSH2 0x808 JUMPI PUSH1 0x40 MLOAD PUSH3 0x461BCD PUSH1 0xE5 SHL DUP2 MSTORE PUSH1 0x20 PUSH1 0x4 DUP3 ADD MSTORE PUSH1 0xB PUSH1 0x24 DUP3 ADD MSTORE PUSH11 0x135D5CDD081899481CD95D PUSH1 0xAA SHL PUSH1 0x44 DUP3 ADD MSTORE PUSH1 0x64 ADD PUSH2 0x360 JUMP JUMPDEST DUP2 ISZERO PUSH2 0x869 JUMPI PUSH1 0x7 SLOAD DUP2 GT PUSH2 0x85F JUMPI PUSH1 0x40 MLOAD PUSH3 0x461BCD PUSH1 0xE5 SHL DUP2 MSTORE PUSH1 0x20 PUSH1 0x4 DUP3 ADD MSTORE PUSH1 0x18 PUSH1 0x24 DUP3 ADD MSTORE PUSH32 0x4E6577206C696D6974206D757374206265206869676865720000000000000000 PUSH1 0x44 DUP3 ADD MSTORE PUSH1 0x64 ADD PUSH2 0x360 JUMP JUMPDEST PUSH1 0x7 DUP2 SWAP1 SSTORE PUSH2 0x87D JUMP JUMPDEST PUSH1 0x2 DUP1 SLOAD PUSH1 0xFF NOT AND DUP4 ISZERO ISZERO OR SWAP1 SSTORE PUSH1 0x0 PUSH1 0x7 SSTORE JUMPDEST PUSH32 0x241F67EE5F41B7A5CABF911367329BE7215900F602EBFC47F89DCE2A6BCD847C PUSH1 0x7 SLOAD PUSH1 0x40 MLOAD PUSH2 0x633 SWAP2 DUP2 MSTORE PUSH1 0x20 ADD SWAP1 JUMP JUMPDEST PUSH1 0x2 PUSH1 0x1 SLOAD SUB PUSH2 0x8D2 JUMPI PUSH1 0x40 MLOAD PUSH3 0x461BCD PUSH1 0xE5 SHL DUP2 MSTORE PUSH1 0x4 ADD PUSH2 0x360 SWAP1 PUSH2 0x1230 JUMP JUMPDEST PUSH1 0x2 PUSH1 0x1 DUP2 SWAP1 SSTORE CALLER PUSH1 0x0 SWAP1 DUP2 MSTORE PUSH1 0xC PUSH1 0x20 MSTORE PUSH1 0x40 SWAP1 KECCAK256 SWAP1 SLOAD PUSH1 0xFF AND ISZERO PUSH2 0x950 JUMPI PUSH1 0x7 SLOAD DUP2 SLOAD PUSH2 0x902 SWAP1 DUP5 SWAP1 PUSH2 0xE9F JUMP JUMPDEST GT ISZERO PUSH2 0x950 JUMPI PUSH1 0x40 MLOAD PUSH3 0x461BCD PUSH1 0xE5 SHL DUP2 MSTORE PUSH1 0x20 PUSH1 0x4 DUP3 ADD MSTORE PUSH1 0x17 PUSH1 0x24 DUP3 ADD MSTORE PUSH32 0x5573657220616D6F756E742061626F7665206C696D6974000000000000000000 PUSH1 0x44 DUP3 ADD MSTORE PUSH1 0x64 ADD PUSH2 0x360 JUMP JUMPDEST PUSH2 0x958 PUSH2 0xCF5 JUMP JUMPDEST DUP1 SLOAD ISZERO PUSH2 0x9A9 JUMPI PUSH1 0x0 PUSH2 0x988 DUP3 PUSH1 0x1 ADD SLOAD PUSH2 0x462 PUSH1 0x9 SLOAD PUSH2 0x45C PUSH1 0x3 SLOAD DUP8 PUSH1 0x0 ADD SLOAD PUSH2 0xDCF SWAP1 SWAP2 SWAP1 PUSH4 0xFFFFFFFF AND JUMP JUMPDEST SWAP1 POP DUP1 ISZERO PUSH2 0x9A7 JUMPI PUSH1 0xA SLOAD PUSH2 0x9A7 SWAP1 PUSH1 0x1 PUSH1 0x1 PUSH1 0xA0 SHL SUB AND CALLER DUP4 PUSH2 0xDE7 JUMP JUMPDEST POP JUMPDEST DUP2 ISZERO PUSH2 0x9D5 JUMPI DUP1 SLOAD PUSH2 0x9BB SWAP1 DUP4 PUSH2 0xE9F JUMP JUMPDEST DUP2 SSTORE PUSH1 0xB SLOAD PUSH2 0x9D5 SWAP1 PUSH1 0x1 PUSH1 0x1 PUSH1 0xA0 SHL SUB AND CALLER ADDRESS DUP6 PUSH2 0xEAB JUMP JUMPDEST PUSH1 0x9 SLOAD PUSH1 0x3 SLOAD DUP3 SLOAD PUSH2 0x9EC SWAP3 SWAP2 PUSH2 0x45C SWAP2 SWAP1 PUSH2 0xDCF JUMP JUMPDEST PUSH1 0x1 DUP3 ADD SSTORE PUSH1 0x40 MLOAD DUP3 DUP2 MSTORE CALLER SWAP1 PUSH32 0xE1FFFCC4923D04B559F4D29A8BFC6CDA04EB5B0D3C460751C2402C5C5CC9109C SWAP1 PUSH1 0x20 ADD JUMPDEST PUSH1 0x40 MLOAD DUP1 SWAP2 SUB SWAP1 LOG2 POP POP PUSH1 0x1 DUP1 SSTORE JUMP JUMPDEST PUSH1 0x2 PUSH1 0x1 SLOAD SUB PUSH2 0xA51 JUMPI PUSH1 0x40 MLOAD PUSH3 0x461BCD PUSH1 0xE5 SHL DUP2 MSTORE PUSH1 0x4 ADD PUSH2 0x360 SWAP1 PUSH2 0x1230 JUMP JUMPDEST PUSH1 0x2 PUSH1 0x1 SWAP1 DUP2 SSTORE CALLER PUSH1 0x0 SWAP1 DUP2 MSTORE PUSH1 0xC PUSH1 0x20 MSTORE PUSH1 0x40 DUP2 KECCAK256 DUP1 SLOAD DUP3 DUP3 SSTORE SWAP3 DUP2 ADD SWAP2 SWAP1 SWAP2 SSTORE SWAP1 DUP1 ISZERO PUSH2 0xA91 JUMPI PUSH1 0xB SLOAD PUSH2 0xA91 SWAP1 PUSH1 0x1 PUSH1 0x1 PUSH1 0xA0 SHL SUB AND CALLER DUP4 PUSH2 0xDE7 JUMP JUMPDEST DUP2 SLOAD PUSH1 0x40 MLOAD SWAP1 DUP2 MSTORE CALLER SWAP1 PUSH32 0x5FAFA99D0643513820BE26656B45130B01E1C03062E1266BF36F88CBD3BD9695 SWAP1 PUSH1 0x20 ADD PUSH2 0xA1F JUMP JUMPDEST PUSH2 0xACD PUSH2 0xC9B JUMP JUMPDEST PUSH1 0x1 PUSH1 0x1 PUSH1 0xA0 SHL SUB DUP2 AND PUSH2 0xB32 JUMPI PUSH1 0x40 MLOAD PUSH3 0x461BCD PUSH1 0xE5 SHL DUP2 MSTORE PUSH1 0x20 PUSH1 0x4 DUP3 ADD MSTORE PUSH1 0x26 PUSH1 0x24 DUP3 ADD MSTORE PUSH32 0x4F776E61626C653A206E6577206F776E657220697320746865207A65726F2061 PUSH1 0x44 DUP3 ADD MSTORE PUSH6 0x646472657373 PUSH1 0xD0 SHL PUSH1 0x64 DUP3 ADD MSTORE PUSH1 0x84 ADD PUSH2 0x360 JUMP JUMPDEST PUSH2 0x52B DUP2 PUSH2 0xE4F JUMP JUMPDEST PUSH1 0x1 PUSH1 0x1 PUSH1 0xA0 SHL SUB DUP2 DUP2 AND PUSH1 0x0 SWAP1 DUP2 MSTORE PUSH1 0xC PUSH1 0x20 MSTORE PUSH1 0x40 DUP1 DUP3 KECCAK256 PUSH1 0xB SLOAD SWAP2 MLOAD PUSH4 0x70A08231 PUSH1 0xE0 SHL DUP2 MSTORE ADDRESS PUSH1 0x4 DUP3 ADD MSTORE SWAP3 SWAP4 SWAP1 SWAP3 DUP5 SWAP3 SWAP1 SWAP2 AND SWAP1 PUSH4 0x70A08231 SWAP1 PUSH1 0x24 ADD PUSH1 0x20 PUSH1 0x40 MLOAD DUP1 DUP4 SUB DUP2 DUP7 GAS STATICCALL ISZERO DUP1 ISZERO PUSH2 0xB9A JUMPI RETURNDATASIZE PUSH1 0x0 DUP1 RETURNDATACOPY RETURNDATASIZE PUSH1 0x0 REVERT JUMPDEST POP POP POP POP PUSH1 0x40 MLOAD RETURNDATASIZE PUSH1 0x1F NOT PUSH1 0x1F DUP3 ADD AND DUP3 ADD DUP1 PUSH1 0x40 MSTORE POP DUP2 ADD SWAP1 PUSH2 0xBBE SWAP2 SWAP1 PUSH2 0x1267 JUMP JUMPDEST SWAP1 POP PUSH1 0x6 SLOAD NUMBER GT DUP1 ISZERO PUSH2 0xBD0 JUMPI POP DUP1 ISZERO ISZERO JUMPDEST ISZERO PUSH2 0xC57 JUMPI PUSH1 0x0 PUSH2 0xBE3 PUSH1 0x6 SLOAD NUMBER PUSH2 0xEE9 JUMP JUMPDEST SWAP1 POP PUSH1 0x0 PUSH2 0xBFC PUSH1 0x8 SLOAD DUP4 PUSH2 0xDCF SWAP1 SWAP2 SWAP1 PUSH4 0xFFFFFFFF AND JUMP JUMPDEST SWAP1 POP PUSH1 0x0 PUSH2 0xC25 PUSH2 0xC1C DUP6 PUSH2 0x45C PUSH1 0x9 SLOAD DUP7 PUSH2 0xDCF SWAP1 SWAP2 SWAP1 PUSH4 0xFFFFFFFF AND JUMP JUMPDEST PUSH1 0x3 SLOAD SWAP1 PUSH2 0xE9F JUMP JUMPDEST SWAP1 POP PUSH2 0xC4C DUP6 PUSH1 0x1 ADD SLOAD PUSH2 0x462 PUSH1 0x9 SLOAD PUSH2 0x45C DUP6 DUP11 PUSH1 0x0 ADD SLOAD PUSH2 0xDCF SWAP1 SWAP2 SWAP1 PUSH4 0xFFFFFFFF AND JUMP JUMPDEST SWAP8 SWAP7 POP POP POP POP POP POP POP JUMP JUMPDEST PUSH2 0xC7E DUP3 PUSH1 0x1 ADD SLOAD PUSH2 0x462 PUSH1 0x9 SLOAD PUSH2 0x45C PUSH1 0x3 SLOAD DUP8 PUSH1 0x0 ADD SLOAD PUSH2 0xDCF SWAP1 SWAP2 SWAP1 PUSH4 0xFFFFFFFF AND JUMP JUMPDEST SWAP5 SWAP4 POP POP POP POP JUMP JUMPDEST PUSH1 0x0 PUSH2 0xC92 DUP3 DUP5 PUSH2 0x1296 JUMP JUMPDEST SWAP1 POP JUMPDEST SWAP3 SWAP2 POP POP JUMP JUMPDEST PUSH1 0x0 SLOAD PUSH1 0x1 PUSH1 0x1 PUSH1 0xA0 SHL SUB AND CALLER EQ PUSH2 0x651 JUMPI PUSH1 0x40 MLOAD PUSH3 0x461BCD PUSH1 0xE5 SHL DUP2 MSTORE PUSH1 0x20 PUSH1 0x4 DUP3 ADD DUP2 SWAP1 MSTORE PUSH1 0x24 DUP3 ADD MSTORE PUSH32 0x4F776E61626C653A2063616C6C6572206973206E6F7420746865206F776E6572 PUSH1 0x44 DUP3 ADD MSTORE PUSH1 0x64 ADD PUSH2 0x360 JUMP JUMPDEST PUSH1 0x6 SLOAD NUMBER GT PUSH2 0xD00 JUMPI JUMP JUMPDEST PUSH1 0xB SLOAD PUSH1 0x40 MLOAD PUSH4 0x70A08231 PUSH1 0xE0 SHL DUP2 MSTORE ADDRESS PUSH1 0x4 DUP3 ADD MSTORE PUSH1 0x0 SWAP2 PUSH1 0x1 PUSH1 0x1 PUSH1 0xA0 SHL SUB AND SWAP1 PUSH4 0x70A08231 SWAP1 PUSH1 0x24 ADD PUSH1 0x20 PUSH1 0x40 MLOAD DUP1 DUP4 SUB DUP2 DUP7 GAS STATICCALL ISZERO DUP1 ISZERO PUSH2 0xD49 JUMPI RETURNDATASIZE PUSH1 0x0 DUP1 RETURNDATACOPY RETURNDATASIZE PUSH1 0x0 REVERT JUMPDEST POP POP POP POP PUSH1 0x40 MLOAD RETURNDATASIZE PUSH1 0x1F NOT PUSH1 0x1F DUP3 ADD AND DUP3 ADD DUP1 PUSH1 0x40 MSTORE POP DUP2 ADD SWAP1 PUSH2 0xD6D SWAP2 SWAP1 PUSH2 0x1267 JUMP JUMPDEST SWAP1 POP DUP1 PUSH1 0x0 SUB PUSH2 0xD7E JUMPI POP NUMBER PUSH1 0x6 SSTORE JUMP JUMPDEST PUSH1 0x0 PUSH2 0xD8C PUSH1 0x6 SLOAD NUMBER PUSH2 0xEE9 JUMP JUMPDEST SWAP1 POP PUSH1 0x0 PUSH2 0xDA5 PUSH1 0x8 SLOAD DUP4 PUSH2 0xDCF SWAP1 SWAP2 SWAP1 PUSH4 0xFFFFFFFF AND JUMP JUMPDEST SWAP1 POP PUSH2 0xDC3 PUSH2 0xC1C DUP5 PUSH2 0x45C PUSH1 0x9 SLOAD DUP6 PUSH2 0xDCF SWAP1 SWAP2 SWAP1 PUSH4 0xFFFFFFFF AND JUMP JUMPDEST PUSH1 0x3 SSTORE POP POP NUMBER PUSH1 0x6 SSTORE POP JUMP JUMPDEST PUSH1 0x0 PUSH2 0xC92 DUP3 DUP5 PUSH2 0x12AD JUMP JUMPDEST PUSH1 0x0 PUSH2 0xC92 DUP3 DUP5 PUSH2 0x12CC JUMP JUMPDEST PUSH1 0x40 MLOAD PUSH1 0x1 PUSH1 0x1 PUSH1 0xA0 SHL SUB DUP4 AND PUSH1 0x24 DUP3 ADD MSTORE PUSH1 0x44 DUP2 ADD DUP3 SWAP1 MSTORE PUSH2 0xE4A SWAP1 DUP5 SWAP1 PUSH4 0xA9059CBB PUSH1 0xE0 SHL SWAP1 PUSH1 0x64 ADD JUMPDEST PUSH1 0x40 DUP1 MLOAD PUSH1 0x1F NOT DUP2 DUP5 SUB ADD DUP2 MSTORE SWAP2 SWAP1 MSTORE PUSH1 0x20 DUP2 ADD DUP1 MLOAD PUSH1 0x1 PUSH1 0x1 PUSH1 0xE0 SHL SUB AND PUSH1 0x1 PUSH1 0x1 PUSH1 0xE0 SHL SUB NOT SWAP1 SWAP4 AND SWAP3 SWAP1 SWAP3 OR SWAP1 SWAP2 MSTORE PUSH2 0xF23 JUMP JUMPDEST POP POP POP JUMP JUMPDEST PUSH1 0x0 DUP1 SLOAD PUSH1 0x1 PUSH1 0x1 PUSH1 0xA0 SHL SUB DUP4 DUP2 AND PUSH1 0x1 PUSH1 0x1 PUSH1 0xA0 SHL SUB NOT DUP4 AND DUP2 OR DUP5 SSTORE PUSH1 0x40 MLOAD SWAP2 SWAP1 SWAP3 AND SWAP3 DUP4 SWAP2 PUSH32 0x8BE0079C531659141344CD1FD0A4F28419497F9722A3DAAFE3B4186F6B6457E0 SWAP2 SWAP1 LOG3 POP POP JUMP JUMPDEST PUSH1 0x0 PUSH2 0xC92 DUP3 DUP5 PUSH2 0x12EE JUMP JUMPDEST PUSH1 0x40 MLOAD PUSH1 0x1 PUSH1 0x1 PUSH1 0xA0 SHL SUB DUP1 DUP6 AND PUSH1 0x24 DUP4 ADD MSTORE DUP4 AND PUSH1 0x44 DUP3 ADD MSTORE PUSH1 0x64 DUP2 ADD DUP3 SWAP1 MSTORE PUSH2 0xEE3 SWAP1 DUP6 SWAP1 PUSH4 0x23B872DD PUSH1 0xE0 SHL SWAP1 PUSH1 0x84 ADD PUSH2 0xE13 JUMP JUMPDEST POP POP POP POP JUMP JUMPDEST PUSH1 0x0 PUSH1 0x4 SLOAD DUP3 GT PUSH2 0xF05 JUMPI PUSH2 0xEFE DUP3 DUP5 PUSH2 0xC86 JUMP JUMPDEST SWAP1 POP PUSH2 0xC95 JUMP JUMPDEST PUSH1 0x4 SLOAD DUP4 LT PUSH2 0xF16 JUMPI POP PUSH1 0x0 PUSH2 0xC95 JUMP JUMPDEST PUSH1 0x4 SLOAD PUSH2 0xEFE SWAP1 DUP5 PUSH2 0xC86 JUMP JUMPDEST PUSH1 0x0 PUSH2 0xF78 DUP3 PUSH1 0x40 MLOAD DUP1 PUSH1 0x40 ADD PUSH1 0x40 MSTORE DUP1 PUSH1 0x20 DUP2 MSTORE PUSH1 0x20 ADD PUSH32 0x5361666545524332303A206C6F772D6C6576656C2063616C6C206661696C6564 DUP2 MSTORE POP DUP6 PUSH1 0x1 PUSH1 0x1 PUSH1 0xA0 SHL SUB AND PUSH2 0xFF5 SWAP1 SWAP3 SWAP2 SWAP1 PUSH4 0xFFFFFFFF AND JUMP JUMPDEST DUP1 MLOAD SWAP1 SWAP2 POP ISZERO PUSH2 0xE4A JUMPI DUP1 DUP1 PUSH1 0x20 ADD SWAP1 MLOAD DUP2 ADD SWAP1 PUSH2 0xF96 SWAP2 SWAP1 PUSH2 0x1306 JUMP JUMPDEST PUSH2 0xE4A JUMPI PUSH1 0x40 MLOAD PUSH3 0x461BCD PUSH1 0xE5 SHL DUP2 MSTORE PUSH1 0x20 PUSH1 0x4 DUP3 ADD MSTORE PUSH1 0x2A PUSH1 0x24 DUP3 ADD MSTORE PUSH32 0x5361666545524332303A204552433230206F7065726174696F6E20646964206E PUSH1 0x44 DUP3 ADD MSTORE PUSH10 0x1BDD081CDD58D8D95959 PUSH1 0xB2 SHL PUSH1 0x64 DUP3 ADD MSTORE PUSH1 0x84 ADD PUSH2 0x360 JUMP JUMPDEST PUSH1 0x60 PUSH2 0x1004 DUP5 DUP5 PUSH1 0x0 DUP6 PUSH2 0x100E JUMP JUMPDEST SWAP1 POP JUMPDEST SWAP4 SWAP3 POP POP POP JUMP JUMPDEST PUSH1 0x60 DUP3 SELFBALANCE LT ISZERO PUSH2 0x106F JUMPI PUSH1 0x40 MLOAD PUSH3 0x461BCD PUSH1 0xE5 SHL DUP2 MSTORE PUSH1 0x20 PUSH1 0x4 DUP3 ADD MSTORE PUSH1 0x26 PUSH1 0x24 DUP3 ADD MSTORE PUSH32 0x416464726573733A20696E73756666696369656E742062616C616E636520666F PUSH1 0x44 DUP3 ADD MSTORE PUSH6 0x1C8818D85B1B PUSH1 0xD2 SHL PUSH1 0x64 DUP3 ADD MSTORE PUSH1 0x84 ADD PUSH2 0x360 JUMP JUMPDEST PUSH1 0x1 PUSH1 0x1 PUSH1 0xA0 SHL SUB DUP6 AND EXTCODESIZE PUSH2 0x10C6 JUMPI PUSH1 0x40 MLOAD PUSH3 0x461BCD PUSH1 0xE5 SHL DUP2 MSTORE PUSH1 0x20 PUSH1 0x4 DUP3 ADD MSTORE PUSH1 0x1D PUSH1 0x24 DUP3 ADD MSTORE PUSH32 0x416464726573733A2063616C6C20746F206E6F6E2D636F6E7472616374000000 PUSH1 0x44 DUP3 ADD MSTORE PUSH1 0x64 ADD PUSH2 0x360 JUMP JUMPDEST PUSH1 0x0 DUP1 DUP7 PUSH1 0x1 PUSH1 0x1 PUSH1 0xA0 SHL SUB AND DUP6 DUP8 PUSH1 0x40 MLOAD PUSH2 0x10E2 SWAP2 SWAP1 PUSH2 0x134F JUMP JUMPDEST PUSH1 0x0 PUSH1 0x40 MLOAD DUP1 DUP4 SUB DUP2 DUP6 DUP8 GAS CALL SWAP3 POP POP POP RETURNDATASIZE DUP1 PUSH1 0x0 DUP2 EQ PUSH2 0x111F JUMPI PUSH1 0x40 MLOAD SWAP2 POP PUSH1 0x1F NOT PUSH1 0x3F RETURNDATASIZE ADD AND DUP3 ADD PUSH1 0x40 MSTORE RETURNDATASIZE DUP3 MSTORE RETURNDATASIZE PUSH1 0x0 PUSH1 0x20 DUP5 ADD RETURNDATACOPY PUSH2 0x1124 JUMP JUMPDEST PUSH1 0x60 SWAP2 POP JUMPDEST POP SWAP2 POP SWAP2 POP PUSH2 0xC4C DUP3 DUP3 DUP7 PUSH1 0x60 DUP4 ISZERO PUSH2 0x113E JUMPI POP DUP2 PUSH2 0x1007 JUMP JUMPDEST DUP3 MLOAD ISZERO PUSH2 0x114E JUMPI DUP3 MLOAD DUP1 DUP5 PUSH1 0x20 ADD REVERT JUMPDEST DUP2 PUSH1 0x40 MLOAD PUSH3 0x461BCD PUSH1 0xE5 SHL DUP2 MSTORE PUSH1 0x4 ADD PUSH2 0x360 SWAP2 SWAP1 PUSH2 0x136B JUMP JUMPDEST PUSH1 0x0 PUSH1 0x20 DUP3 DUP5 SUB SLT ISZERO PUSH2 0x117A JUMPI PUSH1 0x0 DUP1 REVERT JUMPDEST POP CALLDATALOAD SWAP2 SWAP1 POP JUMP JUMPDEST DUP1 CALLDATALOAD PUSH1 0x1 PUSH1 0x1 PUSH1 0xA0 SHL SUB DUP2 AND DUP2 EQ PUSH2 0x1198 JUMPI PUSH1 0x0 DUP1 REVERT JUMPDEST SWAP2 SWAP1 POP JUMP JUMPDEST PUSH1 0x0 PUSH1 0x20 DUP3 DUP5 SUB SLT ISZERO PUSH2 0x11AF JUMPI PUSH1 0x0 DUP1 REVERT JUMPDEST PUSH2 0xC92 DUP3 PUSH2 0x1181 JUMP JUMPDEST PUSH1 0x0 DUP1 PUSH1 0x40 DUP4 DUP6 SUB SLT ISZERO PUSH2 0x11CB JUMPI PUSH1 0x0 DUP1 REVERT JUMPDEST PUSH2 0x11D4 DUP4 PUSH2 0x1181 JUMP JUMPDEST SWAP5 PUSH1 0x20 SWAP4 SWAP1 SWAP4 ADD CALLDATALOAD SWAP4 POP POP POP JUMP JUMPDEST PUSH1 0x0 DUP1 PUSH1 0x40 DUP4 DUP6 SUB SLT ISZERO PUSH2 0x11F5 JUMPI PUSH1 0x0 DUP1 REVERT JUMPDEST POP POP DUP1 CALLDATALOAD SWAP3 PUSH1 0x20 SWAP1 SWAP2 ADD CALLDATALOAD SWAP2 POP JUMP JUMPDEST DUP1 ISZERO ISZERO DUP2 EQ PUSH2 0x52B JUMPI PUSH1 0x0 DUP1 REVERT JUMPDEST PUSH1 0x0 DUP1 PUSH1 0x40 DUP4 DUP6 SUB SLT ISZERO PUSH2 0x1225 JUMPI PUSH1 0x0 DUP1 REVERT JUMPDEST DUP3 CALLDATALOAD PUSH2 0x11D4 DUP2 PUSH2 0x1204 JUMP JUMPDEST PUSH1 0x20 DUP1 DUP3 MSTORE PUSH1 0x1F SWAP1 DUP3 ADD MSTORE PUSH32 0x5265656E7472616E637947756172643A207265656E7472616E742063616C6C00 PUSH1 0x40 DUP3 ADD MSTORE PUSH1 0x60 ADD SWAP1 JUMP JUMPDEST PUSH1 0x0 PUSH1 0x20 DUP3 DUP5 SUB SLT ISZERO PUSH2 0x1279 JUMPI PUSH1 0x0 DUP1 REVERT JUMPDEST POP MLOAD SWAP2 SWAP1 POP JUMP JUMPDEST PUSH4 0x4E487B71 PUSH1 0xE0 SHL PUSH1 0x0 MSTORE PUSH1 0x11 PUSH1 0x4 MSTORE PUSH1 0x24 PUSH1 0x0 REVERT JUMPDEST PUSH1 0x0 DUP3 DUP3 LT ISZERO PUSH2 0x12A8 JUMPI PUSH2 0x12A8 PUSH2 0x1280 JUMP JUMPDEST POP SUB SWAP1 JUMP JUMPDEST PUSH1 0x0 DUP2 PUSH1 0x0 NOT DIV DUP4 GT DUP3 ISZERO ISZERO AND ISZERO PUSH2 0x12C7 JUMPI PUSH2 0x12C7 PUSH2 0x1280 JUMP JUMPDEST POP MUL SWAP1 JUMP JUMPDEST PUSH1 0x0 DUP3 PUSH2 0x12E9 JUMPI PUSH4 0x4E487B71 PUSH1 0xE0 SHL PUSH1 0x0 MSTORE PUSH1 0x12 PUSH1 0x4 MSTORE PUSH1 0x24 PUSH1 0x0 REVERT JUMPDEST POP DIV SWAP1 JUMP JUMPDEST PUSH1 0x0 DUP3 NOT DUP3 GT ISZERO PUSH2 0x1301 JUMPI PUSH2 0x1301 PUSH2 0x1280 JUMP JUMPDEST POP ADD SWAP1 JUMP JUMPDEST PUSH1 0x0 PUSH1 0x20 DUP3 DUP5 SUB SLT ISZERO PUSH2 0x1318 JUMPI PUSH1 0x0 DUP1 REVERT JUMPDEST DUP2 MLOAD PUSH2 0x1007 DUP2 PUSH2 0x1204 JUMP JUMPDEST PUSH1 0x0 JUMPDEST DUP4 DUP2 LT ISZERO PUSH2 0x133E JUMPI DUP2 DUP2 ADD MLOAD DUP4 DUP3 ADD MSTORE PUSH1 0x20 ADD PUSH2 0x1326 JUMP JUMPDEST DUP4 DUP2 GT ISZERO PUSH2 0xEE3 JUMPI POP POP PUSH1 0x0 SWAP2 ADD MSTORE JUMP JUMPDEST PUSH1 0x0 DUP3 MLOAD PUSH2 0x1361 DUP2 DUP5 PUSH1 0x20 DUP8 ADD PUSH2 0x1323 JUMP JUMPDEST SWAP2 SWAP1 SWAP2 ADD SWAP3 SWAP2 POP POP JUMP JUMPDEST PUSH1 0x20 DUP2 MSTORE PUSH1 0x0 DUP3 MLOAD DUP1 PUSH1 0x20 DUP5 ADD MSTORE PUSH2 0x138A DUP2 PUSH1 0x40 DUP6 ADD PUSH1 0x20 DUP8 ADD PUSH2 0x1323 JUMP JUMPDEST PUSH1 0x1F ADD PUSH1 0x1F NOT AND SWAP2 SWAP1 SWAP2 ADD PUSH1 0x40 ADD SWAP3 SWAP2 POP POP JUMP INVALID LOG2 PUSH5 0x6970667358 0x22 SLT KECCAK256 0x2D 0xE2 PUSH7 0xC9A667CEF7A8E6 XOR SELFBALANCE PUSH11 0x9EC1CBC0E1F0C92BE791E5 PUSH14 0x30A097C83F719F64736F6C634300 ADDMOD 0xF STOP CALLER "},"methodIdentifiers":{"PRECISION_FACTOR()":"ccd34cd5","accTokenPerShare()":"8f662915","bonusEndBlock()":"1aed6553","deposit(uint256)":"b6b55f25","emergencyRewardWithdraw(uint256)":"3279beab","emergencyWithdraw()":"db2e21bc","hasUserLimit()":"92e8990e","lastRewardBlock()":"a9f8d181","owner()":"8da5cb5b","pendingReward(address)":"f40f0f52","poolLimitPerUser()":"66fe9f8a","recoverWrongTokens(address,uint256)":"3f138d4b","renounceOwnership()":"715018a6","rewardPerBlock()":"8ae39cac","rewardToken()":"f7c618c1","stakedToken()":"cc7a262e","startBlock()":"48cd4cb1","stopReward()":"80dc0672","transferOwnership(address)":"f2fde38b","updatePoolLimitPerUser(bool,uint256)":"a0b40905","updateRewardPerBlock(uint256)":"01f8a976","updateStartAndEndBlocks(uint256,uint256)":"9513997f","userInfo(address)":"1959a002","withdraw(uint256)":"2e1a7d4d"}}}}}