{"contracts/StakePool/StakeBNB_BLB.sol":{"StakeBNB_BLB":{"abi":[{"inputs":[{"internalType":"contract IERC20","name":"_BLB","type":"address"}],"stateMutability":"nonpayable","type":"constructor"},{"anonymous":false,"inputs":[{"indexed":true,"internalType":"address","name":"investor","type":"address"},{"indexed":true,"internalType":"uint256","name":"investId","type":"uint256"},{"indexed":false,"internalType":"uint256","name":"amount","type":"uint256"},{"indexed":false,"internalType":"uint256","name":"start","type":"uint256"},{"indexed":false,"internalType":"uint256","name":"end","type":"uint256"},{"indexed":false,"internalType":"uint256","name":"profit","type":"uint256"}],"name":"NewInvestment","type":"event"},{"anonymous":false,"inputs":[{"indexed":true,"internalType":"address","name":"previousOwner","type":"address"},{"indexed":true,"internalType":"address","name":"newOwner","type":"address"}],"name":"OwnershipTransferred","type":"event"},{"anonymous":false,"inputs":[{"indexed":false,"internalType":"address","name":"account","type":"address"}],"name":"Paused","type":"event"},{"anonymous":false,"inputs":[{"indexed":true,"internalType":"uint256","name":"duration","type":"uint256"},{"indexed":false,"internalType":"uint256","name":"profit","type":"uint256"}],"name":"SetPlan","type":"event"},{"anonymous":false,"inputs":[{"indexed":false,"internalType":"address","name":"account","type":"address"}],"name":"Unpaused","type":"event"},{"anonymous":false,"inputs":[{"indexed":true,"internalType":"address","name":"investor","type":"address"},{"indexed":true,"internalType":"uint256","name":"investId","type":"uint256"},{"indexed":false,"internalType":"uint256","name":"amountBNB","type":"uint256"},{"indexed":false,"internalType":"uint256","name":"amountBLB","type":"uint256"}],"name":"Withdraw","type":"event"},{"inputs":[],"name":"BLB","outputs":[{"internalType":"contract IERC20","name":"","type":"address"}],"stateMutability":"view","type":"function"},{"inputs":[],"name":"checkPoint1","outputs":[{"internalType":"uint256","name":"passTime","type":"uint256"},{"internalType":"uint256","name":"saveBNB","type":"uint256"},{"internalType":"uint256","name":"saveBLB","type":"uint256"}],"stateMutability":"view","type":"function"},{"inputs":[],"name":"checkPoint2","outputs":[{"internalType":"uint256","name":"passTime","type":"uint256"},{"internalType":"uint256","name":"saveBNB","type":"uint256"},{"internalType":"uint256","name":"saveBLB","type":"uint256"}],"stateMutability":"view","type":"function"},{"inputs":[],"name":"checkPoint3","outputs":[{"internalType":"uint256","name":"passTime","type":"uint256"},{"internalType":"uint256","name":"saveBNB","type":"uint256"},{"internalType":"uint256","name":"saveBLB","type":"uint256"}],"stateMutability":"view","type":"function"},{"inputs":[{"internalType":"address","name":"","type":"address"},{"internalType":"uint256","name":"","type":"uint256"}],"name":"investments","outputs":[{"internalType":"uint256","name":"amount","type":"uint256"},{"internalType":"uint256","name":"start","type":"uint256"},{"internalType":"uint256","name":"end","type":"uint256"},{"internalType":"uint256","name":"profit","type":"uint256"},{"internalType":"uint256","name":"claimTime","type":"uint256"}],"stateMutability":"view","type":"function"},{"inputs":[{"internalType":"address","name":"borrower","type":"address"},{"internalType":"uint256","name":"amount","type":"uint256"}],"name":"loanBLB","outputs":[],"stateMutability":"nonpayable","type":"function"},{"inputs":[{"internalType":"address","name":"borrower","type":"address"},{"internalType":"uint256","name":"amount","type":"uint256"}],"name":"loanBNB","outputs":[],"stateMutability":"nonpayable","type":"function"},{"inputs":[{"internalType":"uint256","name":"duration","type":"uint256"}],"name":"newInvestment","outputs":[],"stateMutability":"payable","type":"function"},{"inputs":[],"name":"owner","outputs":[{"internalType":"address","name":"","type":"address"}],"stateMutability":"view","type":"function"},{"inputs":[],"name":"pause","outputs":[],"stateMutability":"nonpayable","type":"function"},{"inputs":[],"name":"paused","outputs":[{"internalType":"bool","name":"","type":"bool"}],"stateMutability":"view","type":"function"},{"inputs":[{"internalType":"address","name":"investor","type":"address"},{"internalType":"uint256","name":"investmentId","type":"uint256"}],"name":"pendingWithdrawal","outputs":[{"internalType":"uint256","name":"amountBNB","type":"uint256"},{"internalType":"uint256","name":"amountBLB","type":"uint256"}],"stateMutability":"view","type":"function"},{"inputs":[],"name":"plans","outputs":[{"internalType":"uint256[]","name":"durations","type":"uint256[]"},{"internalType":"uint256[]","name":"profits","type":"uint256[]"}],"stateMutability":"view","type":"function"},{"inputs":[{"internalType":"address","name":"investor","type":"address"},{"internalType":"uint256","name":"investmentId","type":"uint256"}],"name":"releaseTime","outputs":[{"internalType":"uint256","name":"","type":"uint256"}],"stateMutability":"view","type":"function"},{"inputs":[],"name":"renounceOwnership","outputs":[],"stateMutability":"nonpayable","type":"function"},{"inputs":[{"internalType":"uint256","name":"","type":"uint256"}],"name":"rewardPlans","outputs":[{"internalType":"uint256","name":"","type":"uint256"}],"stateMutability":"view","type":"function"},{"inputs":[{"internalType":"uint256","name":"passTime1","type":"uint256"},{"internalType":"uint256","name":"saveBNB1","type":"uint256"},{"internalType":"uint256","name":"saveBLB1","type":"uint256"},{"internalType":"uint256","name":"passTime2","type":"uint256"},{"internalType":"uint256","name":"saveBNB2","type":"uint256"},{"internalType":"uint256","name":"saveBLB2","type":"uint256"},{"internalType":"uint256","name":"passTime3","type":"uint256"},{"internalType":"uint256","name":"saveBNB3","type":"uint256"},{"internalType":"uint256","name":"saveBLB3","type":"uint256"}],"name":"setCheckpoints","outputs":[],"stateMutability":"nonpayable","type":"function"},{"inputs":[{"internalType":"uint256","name":"duration","type":"uint256"},{"internalType":"uint256","name":"profit","type":"uint256"}],"name":"setPlan","outputs":[],"stateMutability":"nonpayable","type":"function"},{"inputs":[],"name":"totalInvestingBNB","outputs":[{"internalType":"uint256","name":"","type":"uint256"}],"stateMutability":"view","type":"function"},{"inputs":[],"name":"totalPendingBLB","outputs":[{"internalType":"uint256","name":"","type":"uint256"}],"stateMutability":"view","type":"function"},{"inputs":[{"internalType":"address","name":"newOwner","type":"address"}],"name":"transferOwnership","outputs":[],"stateMutability":"nonpayable","type":"function"},{"inputs":[],"name":"unpause","outputs":[],"stateMutability":"nonpayable","type":"function"},{"inputs":[{"internalType":"address","name":"investor","type":"address"}],"name":"userInvestments","outputs":[{"components":[{"internalType":"uint256","name":"amount","type":"uint256"},{"internalType":"uint256","name":"start","type":"uint256"},{"internalType":"uint256","name":"end","type":"uint256"},{"internalType":"uint256","name":"profit","type":"uint256"},{"internalType":"uint256","name":"claimTime","type":"uint256"}],"internalType":"struct StakeBNB_BLB.Investment[]","name":"","type":"tuple[]"}],"stateMutability":"view","type":"function"},{"inputs":[{"internalType":"uint256","name":"investmentId","type":"uint256"}],"name":"withdraw","outputs":[],"stateMutability":"nonpayable","type":"function"}],"evm":{"bytecode":{"linkReferences":{},"object":"60806040523480156200001157600080fd5b50604051620017153803806200171583398101604081905262000034916200029c565b6200003f33620000e4565b6000805460ff60a01b19169055600180546001600160a01b0319166001600160a01b0383161790556200007e62015180670de0b6b3a764000062000134565b6200009562093a80678ac7230489e8000062000134565b620000ad62278d006802b5e3af16b188000062000134565b620000c56276a7006809c2007651b250000062000134565b620000dd6000605081603260648284826028620001b4565b50620002ce565b600080546001600160a01b038381166001600160a01b0319831681178455604051919092169283917f8be0079c531659141344cd1fd0a4f28419497f9722a3daafe3b4186f6b6457e09190a35050565b6200013e6200023b565b6000828152600660209081526040808320849055600590915290205460ff16620001b0576000828152600560205260408120805460ff191660019081179091556004805491820181559091527f8a35acfbc15ff81a39ae7d344fd709f28e8600b4aa8c65c6b64bfe7fe36bd19b018290555b5050565b620001be6200023b565b60408051606080820183528b825260208083018c90529183018a905260089b909b55600999909955600a979097558651808a0188528681528089018690528701849052600b95909555600c93909355600d919091558351958601845280865293850181905293909101819052600e91909155600f91909155601055565b6000546001600160a01b031633146200029a5760405162461bcd60e51b815260206004820181905260248201527f4f776e61626c653a2063616c6c6572206973206e6f7420746865206f776e6572604482015260640160405180910390fd5b565b600060208284031215620002af57600080fd5b81516001600160a01b0381168114620002c757600080fd5b9392505050565b61143780620002de6000396000f3fe60806040526004361061014b5760003560e01c806388a9931f116100b6578063b023eba51161006f578063b023eba5146103ef578063bfa54b3f1461041c578063c877921c1461043c578063d5d4d1141461045c578063e88cf1b41461047b578063f2fde38b1461049157600080fd5b806388a9931f1461030457806388f89169146103315780638a2ac397146103445780638da5cb5b1461037e578063a2fa0c75146103b0578063ad33710c146103d057600080fd5b80634668d866116101085780634668d8661461024d5780634983c3ab1461026d5780635c975abb1461028d57806364eb1b21146102b7578063715018a6146102da5780638456cb59146102ef57600080fd5b80631dd6781b146101505780632bf0da7e146101795780632e1a7d4d146101ae5780633353561d146101d05780633e6d9770146101f05780633f4ba83a14610238575b600080fd5b34801561015c57600080fd5b5061016660025481565b6040519081526020015b60405180910390f35b34801561018557600080fd5b50610199610194366004611168565b6104b1565b60408051928352602083019190915201610170565b3480156101ba57600080fd5b506101ce6101c9366004611192565b6106d6565b005b3480156101dc57600080fd5b506101ce6101eb3660046111ab565b6108a0565b3480156101fc57600080fd5b5061021061020b366004611168565b61091d565b604080519586526020860194909452928401919091526060830152608082015260a001610170565b34801561024457600080fd5b506101ce61096b565b34801561025957600080fd5b506101ce6102683660046111cd565b61097d565b34801561027957600080fd5b50610166610288366004611168565b610a02565b34801561029957600080fd5b50600054600160a01b900460ff166040519015158152602001610170565b3480156102c357600080fd5b506102cc610a47565b604051610170929190611267565b3480156102e657600080fd5b506101ce610b86565b3480156102fb57600080fd5b506101ce610b98565b34801561031057600080fd5b5061016661031f366004611192565b60066020526000908152604090205481565b6101ce61033f366004611192565b610ba8565b34801561035057600080fd5b50600b54600c54600d5461036392919083565b60408051938452602084019290925290820152606001610170565b34801561038a57600080fd5b506000546001600160a01b03165b6040516001600160a01b039091168152602001610170565b3480156103bc57600080fd5b506101ce6103cb366004611168565b610d8b565b3480156103dc57600080fd5b50600854600954600a5461036392919083565b3480156103fb57600080fd5b5061040f61040a366004611295565b610e0f565b60405161017091906112b7565b34801561042857600080fd5b50600154610398906001600160a01b031681565b34801561044857600080fd5b506101ce610457366004611168565b610eb6565b34801561046857600080fd5b50600e54600f5460105461036392919083565b34801561048757600080fd5b5061016660035481565b34801561049d57600080fd5b506101ce6104ac366004611295565b610ef4565b6001600160a01b0382166000908152600760205260408120805482918291859081106104df576104df611325565b9060005260206000209060050201905080600401546000146105635760405162461bcd60e51b815260206004820152603260248201527f7374616b65506f6f6c3a207468697320696e766573746d656e7420686173206260448201527165656e20636c61696d6564206265666f726560701b60648201526084015b60405180910390fd5b60018101546002820154429190600061057c8383611351565b8554600387015491925090838610610599578198508097506106c8565b84606484600e600001546105ad9190611364565b6105b7919061137b565b6105c1919061139d565b861061060557600f546064906105d79084611364565b6105e1919061137b565b6010549099506064906105f49083611364565b6105fe919061137b565b97506106c8565b84606484600b600001546106199190611364565b610623919061137b565b61062d919061139d565b861061066057600c546064906106439084611364565b61064d919061137b565b600d549099506064906105f49083611364565b846064846008600001546106749190611364565b61067e919061137b565b610688919061139d565b86106106c85760095460649061069e9084611364565b6106a8919061137b565b600a549099506064906106bb9083611364565b6106c5919061137b565b97505b505050505050509250929050565b3360008181526007602052604081208054849081106106f7576106f7611325565b9060005260206000209060050201905060008061071484866104b1565b91509150600082116107685760405162461bcd60e51b815260206004820152601e60248201527f5374616b65506f6f6c3a206e6f7468696e6720746f2077697468647261770000604482015260640161055a565b4260048401556040516001600160a01b0385169083156108fc029084906000818181858888f193505050501580156107a4573d6000803e3d6000fd5b5060015460405163a9059cbb60e01b81526001600160a01b038681166004830152602482018490529091169063a9059cbb906044016020604051808303816000875af11580156107f8573d6000803e3d6000fd5b505050506040513d601f19601f8201168201806040525081019061081c91906113b0565b50825460028054600090610831908490611351565b9250508190555082600301546003600082825461084e9190611351565b9091555050604080518381526020810183905286916001600160a01b038716917f02f25270a4d87bea75db541cdfe559334a275b4a233520ed6c0a2429667cca94910160405180910390a35050505050565b6108a8610f6d565b6000828152600660209081526040808320849055600590915290205460ff16610919576000828152600560205260408120805460ff191660019081179091556004805491820181559091527f8a35acfbc15ff81a39ae7d344fd709f28e8600b4aa8c65c6b64bfe7fe36bd19b018290555b5050565b6007602052816000526040600020818154811061093957600080fd5b600091825260209091206005909102018054600182015460028301546003840154600490940154929550909350919085565b610973610f6d565b61097b610fc7565b565b610985610f6d565b60408051606080820183528b825260208083018c90529183018a905260089b909b55600999909955600a979097558651808a0188528681528089018690528701849052600b95909555600c93909355600d919091558351958601845280865293850181905293909101819052600e91909155600f91909155601055565b6001600160a01b0382166000908152600760205260408120805483908110610a2c57610a2c611325565b90600052602060002090600502016002015490505b92915050565b60045460609081908067ffffffffffffffff811115610a6857610a686113d2565b604051908082528060200260200182016040528015610a91578160200160208202803683370190505b5092508067ffffffffffffffff811115610aad57610aad6113d2565b604051908082528060200260200182016040528015610ad6578160200160208202803683370190505b50915060005b81811015610b805760048181548110610af757610af7611325565b9060005260206000200154848281518110610b1457610b14611325565b6020026020010181815250506006600060048381548110610b3757610b37611325565b9060005260206000200154815260200190815260200160002054838281518110610b6357610b63611325565b602090810291909101015280610b78816113e8565b915050610adc565b50509091565b610b8e610f6d565b61097b600061101c565b610ba0610f6d565b61097b61106c565b610bb06110af565b6000818152600660205260408120549003610c175760405162461bcd60e51b815260206004820152602160248201527f7468657265206973206e6f20706c616e2062792074686973206475726174696f6044820152603760f91b606482015260840161055a565b3334426000610c26858361139d565b60008681526006602052604081205491925090670de0b6b3a764000090610c4d9086611364565b610c57919061137b565b6001600160a01b0386166000908152600760209081526040808320815160a0810183528981528084018981529281018881526060820187815260808301878152845460018181018755958952968820935160059097029093019586559351928501929092559051600280850191909155915160038401555160049092019190915580549293508692909190610ced90849061139d565b925050819055508060036000828254610d06919061139d565b90915550506001600160a01b038516600090815260076020526040902054610d3090600190611351565b6040805186815260208101869052908101849052606081018390526001600160a01b038716907f72e5f615ebc79a295430cc50e3cdf038a03d48b17f7ef4586ab25a1d481de6959060800160405180910390a3505050505050565b610d93610f6d565b60015460405163a9059cbb60e01b81526001600160a01b038481166004830152602482018490529091169063a9059cbb906044016020604051808303816000875af1158015610de6573d6000803e3d6000fd5b505050506040513d601f19601f82011682018060405250810190610e0a91906113b0565b505050565b6001600160a01b0381166000908152600760209081526040808320805482518185028101850190935280835260609492939192909184015b82821015610eab57838290600052602060002090600502016040518060a00160405290816000820154815260200160018201548152602001600282015481526020016003820154815260200160048201548152505081526020019060010190610e47565b505050509050919050565b610ebe610f6d565b6040516001600160a01b0383169082156108fc029083906000818181858888f19350505050158015610e0a573d6000803e3d6000fd5b610efc610f6d565b6001600160a01b038116610f615760405162461bcd60e51b815260206004820152602660248201527f4f776e61626c653a206e6577206f776e657220697320746865207a65726f206160448201526564647265737360d01b606482015260840161055a565b610f6a8161101c565b50565b6000546001600160a01b0316331461097b5760405162461bcd60e51b815260206004820181905260248201527f4f776e61626c653a2063616c6c6572206973206e6f7420746865206f776e6572604482015260640161055a565b610fcf6110fc565b6000805460ff60a01b191690557f5db9ee0a495bf2e6ff9c91a7834c1ba4fdd244a5e8aa4e537bd38aeae4b073aa335b6040516001600160a01b03909116815260200160405180910390a1565b600080546001600160a01b038381166001600160a01b0319831681178455604051919092169283917f8be0079c531659141344cd1fd0a4f28419497f9722a3daafe3b4186f6b6457e09190a35050565b6110746110af565b6000805460ff60a01b1916600160a01b1790557f62e78cea01bee320cd4e420270b5ea74000d11b0c9f74754ebdbfc544b05a258610fff3390565b600054600160a01b900460ff161561097b5760405162461bcd60e51b815260206004820152601060248201526f14185d5cd8589b194e881c185d5cd95960821b604482015260640161055a565b600054600160a01b900460ff1661097b5760405162461bcd60e51b815260206004820152601460248201527314185d5cd8589b194e881b9bdd081c185d5cd95960621b604482015260640161055a565b80356001600160a01b038116811461116357600080fd5b919050565b6000806040838503121561117b57600080fd5b6111848361114c565b946020939093013593505050565b6000602082840312156111a457600080fd5b5035919050565b600080604083850312156111be57600080fd5b50508035926020909101359150565b60008060008060008060008060006101208a8c0312156111ec57600080fd5b505087359960208901359950604089013598606081013598506080810135975060a0810135965060c0810135955060e08101359450610100013592509050565b600081518084526020808501945080840160005b8381101561125c57815187529582019590820190600101611240565b509495945050505050565b60408152600061127a604083018561122c565b828103602084015261128c818561122c565b95945050505050565b6000602082840312156112a757600080fd5b6112b08261114c565b9392505050565b602080825282518282018190526000919060409081850190868401855b828110156113185781518051855286810151878601528581015186860152606080820151908601526080908101519085015260a090930192908501906001016112d4565b5091979650505050505050565b634e487b7160e01b600052603260045260246000fd5b634e487b7160e01b600052601160045260246000fd5b81810381811115610a4157610a4161133b565b8082028115828204841417610a4157610a4161133b565b60008261139857634e487b7160e01b600052601260045260246000fd5b500490565b80820180821115610a4157610a4161133b565b6000602082840312156113c257600080fd5b815180151581146112b057600080fd5b634e487b7160e01b600052604160045260246000fd5b6000600182016113fa576113fa61133b565b506001019056fea2646970667358221220c3e87cb38aeb8a8662404ccba5d74aeb8b29bec47e23fcbf856e5429703113cd64736f6c63430008110033","opcodes":"PUSH1 0x80 PUSH1 0x40 MSTORE CALLVALUE DUP1 ISZERO PUSH3 0x11 JUMPI PUSH1 0x0 DUP1 REVERT JUMPDEST POP PUSH1 0x40 MLOAD PUSH3 0x1715 CODESIZE SUB DUP1 PUSH3 0x1715 DUP4 CODECOPY DUP2 ADD PUSH1 0x40 DUP2 SWAP1 MSTORE PUSH3 0x34 SWAP2 PUSH3 0x29C JUMP JUMPDEST PUSH3 0x3F CALLER PUSH3 0xE4 JUMP JUMPDEST PUSH1 0x0 DUP1 SLOAD PUSH1 0xFF PUSH1 0xA0 SHL NOT AND SWAP1 SSTORE PUSH1 0x1 DUP1 SLOAD PUSH1 0x1 PUSH1 0x1 PUSH1 0xA0 SHL SUB NOT AND PUSH1 0x1 PUSH1 0x1 PUSH1 0xA0 SHL SUB DUP4 AND OR SWAP1 SSTORE PUSH3 0x7E PUSH3 0x15180 PUSH8 0xDE0B6B3A7640000 PUSH3 0x134 JUMP JUMPDEST PUSH3 0x95 PUSH3 0x93A80 PUSH8 0x8AC7230489E80000 PUSH3 0x134 JUMP JUMPDEST PUSH3 0xAD PUSH3 0x278D00 PUSH9 0x2B5E3AF16B1880000 PUSH3 0x134 JUMP JUMPDEST PUSH3 0xC5 PUSH3 0x76A700 PUSH9 0x9C2007651B2500000 PUSH3 0x134 JUMP JUMPDEST PUSH3 0xDD PUSH1 0x0 PUSH1 0x50 DUP2 PUSH1 0x32 PUSH1 0x64 DUP3 DUP5 DUP3 PUSH1 0x28 PUSH3 0x1B4 JUMP JUMPDEST POP PUSH3 0x2CE JUMP JUMPDEST PUSH1 0x0 DUP1 SLOAD PUSH1 0x1 PUSH1 0x1 PUSH1 0xA0 SHL SUB DUP4 DUP2 AND PUSH1 0x1 PUSH1 0x1 PUSH1 0xA0 SHL SUB NOT DUP4 AND DUP2 OR DUP5 SSTORE PUSH1 0x40 MLOAD SWAP2 SWAP1 SWAP3 AND SWAP3 DUP4 SWAP2 PUSH32 0x8BE0079C531659141344CD1FD0A4F28419497F9722A3DAAFE3B4186F6B6457E0 SWAP2 SWAP1 LOG3 POP POP JUMP JUMPDEST PUSH3 0x13E PUSH3 0x23B JUMP JUMPDEST PUSH1 0x0 DUP3 DUP2 MSTORE PUSH1 0x6 PUSH1 0x20 SWAP1 DUP2 MSTORE PUSH1 0x40 DUP1 DUP4 KECCAK256 DUP5 SWAP1 SSTORE PUSH1 0x5 SWAP1 SWAP2 MSTORE SWAP1 KECCAK256 SLOAD PUSH1 0xFF AND PUSH3 0x1B0 JUMPI PUSH1 0x0 DUP3 DUP2 MSTORE PUSH1 0x5 PUSH1 0x20 MSTORE PUSH1 0x40 DUP2 KECCAK256 DUP1 SLOAD PUSH1 0xFF NOT AND PUSH1 0x1 SWAP1 DUP2 OR SWAP1 SWAP2 SSTORE PUSH1 0x4 DUP1 SLOAD SWAP2 DUP3 ADD DUP2 SSTORE SWAP1 SWAP2 MSTORE PUSH32 0x8A35ACFBC15FF81A39AE7D344FD709F28E8600B4AA8C65C6B64BFE7FE36BD19B ADD DUP3 SWAP1 SSTORE JUMPDEST POP POP JUMP JUMPDEST PUSH3 0x1BE PUSH3 0x23B JUMP JUMPDEST PUSH1 0x40 DUP1 MLOAD PUSH1 0x60 DUP1 DUP3 ADD DUP4 MSTORE DUP12 DUP3 MSTORE PUSH1 0x20 DUP1 DUP4 ADD DUP13 SWAP1 MSTORE SWAP2 DUP4 ADD DUP11 SWAP1 MSTORE PUSH1 0x8 SWAP12 SWAP1 SWAP12 SSTORE PUSH1 0x9 SWAP10 SWAP1 SWAP10 SSTORE PUSH1 0xA SWAP8 SWAP1 SWAP8 SSTORE DUP7 MLOAD DUP1 DUP11 ADD DUP9 MSTORE DUP7 DUP2 MSTORE DUP1 DUP10 ADD DUP7 SWAP1 MSTORE DUP8 ADD DUP5 SWAP1 MSTORE PUSH1 0xB SWAP6 SWAP1 SWAP6 SSTORE PUSH1 0xC SWAP4 SWAP1 SWAP4 SSTORE PUSH1 0xD SWAP2 SWAP1 SWAP2 SSTORE DUP4 MLOAD SWAP6 DUP7 ADD DUP5 MSTORE DUP1 DUP7 MSTORE SWAP4 DUP6 ADD DUP2 SWAP1 MSTORE SWAP4 SWAP1 SWAP2 ADD DUP2 SWAP1 MSTORE PUSH1 0xE SWAP2 SWAP1 SWAP2 SSTORE PUSH1 0xF SWAP2 SWAP1 SWAP2 SSTORE PUSH1 0x10 SSTORE JUMP JUMPDEST PUSH1 0x0 SLOAD PUSH1 0x1 PUSH1 0x1 PUSH1 0xA0 SHL SUB AND CALLER EQ PUSH3 0x29A JUMPI PUSH1 0x40 MLOAD PUSH3 0x461BCD PUSH1 0xE5 SHL DUP2 MSTORE PUSH1 0x20 PUSH1 0x4 DUP3 ADD DUP2 SWAP1 MSTORE PUSH1 0x24 DUP3 ADD MSTORE PUSH32 0x4F776E61626C653A2063616C6C6572206973206E6F7420746865206F776E6572 PUSH1 0x44 DUP3 ADD MSTORE PUSH1 0x64 ADD PUSH1 0x40 MLOAD DUP1 SWAP2 SUB SWAP1 REVERT JUMPDEST JUMP JUMPDEST PUSH1 0x0 PUSH1 0x20 DUP3 DUP5 SUB SLT ISZERO PUSH3 0x2AF JUMPI PUSH1 0x0 DUP1 REVERT JUMPDEST DUP2 MLOAD PUSH1 0x1 PUSH1 0x1 PUSH1 0xA0 SHL SUB DUP2 AND DUP2 EQ PUSH3 0x2C7 JUMPI PUSH1 0x0 DUP1 REVERT JUMPDEST SWAP4 SWAP3 POP POP POP JUMP JUMPDEST PUSH2 0x1437 DUP1 PUSH3 0x2DE PUSH1 0x0 CODECOPY PUSH1 0x0 RETURN INVALID PUSH1 0x80 PUSH1 0x40 MSTORE PUSH1 0x4 CALLDATASIZE LT PUSH2 0x14B JUMPI PUSH1 0x0 CALLDATALOAD PUSH1 0xE0 SHR DUP1 PUSH4 0x88A9931F GT PUSH2 0xB6 JUMPI DUP1 PUSH4 0xB023EBA5 GT PUSH2 0x6F JUMPI DUP1 PUSH4 0xB023EBA5 EQ PUSH2 0x3EF JUMPI DUP1 PUSH4 0xBFA54B3F EQ PUSH2 0x41C JUMPI DUP1 PUSH4 0xC877921C EQ PUSH2 0x43C JUMPI DUP1 PUSH4 0xD5D4D114 EQ PUSH2 0x45C JUMPI DUP1 PUSH4 0xE88CF1B4 EQ PUSH2 0x47B JUMPI DUP1 PUSH4 0xF2FDE38B EQ PUSH2 0x491 JUMPI PUSH1 0x0 DUP1 REVERT JUMPDEST DUP1 PUSH4 0x88A9931F EQ PUSH2 0x304 JUMPI DUP1 PUSH4 0x88F89169 EQ PUSH2 0x331 JUMPI DUP1 PUSH4 0x8A2AC397 EQ PUSH2 0x344 JUMPI DUP1 PUSH4 0x8DA5CB5B EQ PUSH2 0x37E JUMPI DUP1 PUSH4 0xA2FA0C75 EQ PUSH2 0x3B0 JUMPI DUP1 PUSH4 0xAD33710C EQ PUSH2 0x3D0 JUMPI PUSH1 0x0 DUP1 REVERT JUMPDEST DUP1 PUSH4 0x4668D866 GT PUSH2 0x108 JUMPI DUP1 PUSH4 0x4668D866 EQ PUSH2 0x24D JUMPI DUP1 PUSH4 0x4983C3AB EQ PUSH2 0x26D JUMPI DUP1 PUSH4 0x5C975ABB EQ PUSH2 0x28D JUMPI DUP1 PUSH4 0x64EB1B21 EQ PUSH2 0x2B7 JUMPI DUP1 PUSH4 0x715018A6 EQ PUSH2 0x2DA JUMPI DUP1 PUSH4 0x8456CB59 EQ PUSH2 0x2EF JUMPI PUSH1 0x0 DUP1 REVERT JUMPDEST DUP1 PUSH4 0x1DD6781B EQ PUSH2 0x150 JUMPI DUP1 PUSH4 0x2BF0DA7E EQ PUSH2 0x179 JUMPI DUP1 PUSH4 0x2E1A7D4D EQ PUSH2 0x1AE JUMPI DUP1 PUSH4 0x3353561D EQ PUSH2 0x1D0 JUMPI DUP1 PUSH4 0x3E6D9770 EQ PUSH2 0x1F0 JUMPI DUP1 PUSH4 0x3F4BA83A EQ PUSH2 0x238 JUMPI JUMPDEST PUSH1 0x0 DUP1 REVERT JUMPDEST CALLVALUE DUP1 ISZERO PUSH2 0x15C JUMPI PUSH1 0x0 DUP1 REVERT JUMPDEST POP PUSH2 0x166 PUSH1 0x2 SLOAD DUP2 JUMP JUMPDEST PUSH1 0x40 MLOAD SWAP1 DUP2 MSTORE PUSH1 0x20 ADD JUMPDEST PUSH1 0x40 MLOAD DUP1 SWAP2 SUB SWAP1 RETURN JUMPDEST CALLVALUE DUP1 ISZERO PUSH2 0x185 JUMPI PUSH1 0x0 DUP1 REVERT JUMPDEST POP PUSH2 0x199 PUSH2 0x194 CALLDATASIZE PUSH1 0x4 PUSH2 0x1168 JUMP JUMPDEST PUSH2 0x4B1 JUMP JUMPDEST PUSH1 0x40 DUP1 MLOAD SWAP3 DUP4 MSTORE PUSH1 0x20 DUP4 ADD SWAP2 SWAP1 SWAP2 MSTORE ADD PUSH2 0x170 JUMP JUMPDEST CALLVALUE DUP1 ISZERO PUSH2 0x1BA JUMPI PUSH1 0x0 DUP1 REVERT JUMPDEST POP PUSH2 0x1CE PUSH2 0x1C9 CALLDATASIZE PUSH1 0x4 PUSH2 0x1192 JUMP JUMPDEST PUSH2 0x6D6 JUMP JUMPDEST STOP JUMPDEST CALLVALUE DUP1 ISZERO PUSH2 0x1DC JUMPI PUSH1 0x0 DUP1 REVERT JUMPDEST POP PUSH2 0x1CE PUSH2 0x1EB CALLDATASIZE PUSH1 0x4 PUSH2 0x11AB JUMP JUMPDEST PUSH2 0x8A0 JUMP JUMPDEST CALLVALUE DUP1 ISZERO PUSH2 0x1FC JUMPI PUSH1 0x0 DUP1 REVERT JUMPDEST POP PUSH2 0x210 PUSH2 0x20B CALLDATASIZE PUSH1 0x4 PUSH2 0x1168 JUMP JUMPDEST PUSH2 0x91D JUMP JUMPDEST PUSH1 0x40 DUP1 MLOAD SWAP6 DUP7 MSTORE PUSH1 0x20 DUP7 ADD SWAP5 SWAP1 SWAP5 MSTORE SWAP3 DUP5 ADD SWAP2 SWAP1 SWAP2 MSTORE PUSH1 0x60 DUP4 ADD MSTORE PUSH1 0x80 DUP3 ADD MSTORE PUSH1 0xA0 ADD PUSH2 0x170 JUMP JUMPDEST CALLVALUE DUP1 ISZERO PUSH2 0x244 JUMPI PUSH1 0x0 DUP1 REVERT JUMPDEST POP PUSH2 0x1CE PUSH2 0x96B JUMP JUMPDEST CALLVALUE DUP1 ISZERO PUSH2 0x259 JUMPI PUSH1 0x0 DUP1 REVERT JUMPDEST POP PUSH2 0x1CE PUSH2 0x268 CALLDATASIZE PUSH1 0x4 PUSH2 0x11CD JUMP JUMPDEST PUSH2 0x97D JUMP JUMPDEST CALLVALUE DUP1 ISZERO PUSH2 0x279 JUMPI PUSH1 0x0 DUP1 REVERT JUMPDEST POP PUSH2 0x166 PUSH2 0x288 CALLDATASIZE PUSH1 0x4 PUSH2 0x1168 JUMP JUMPDEST PUSH2 0xA02 JUMP JUMPDEST CALLVALUE DUP1 ISZERO PUSH2 0x299 JUMPI PUSH1 0x0 DUP1 REVERT JUMPDEST POP PUSH1 0x0 SLOAD PUSH1 0x1 PUSH1 0xA0 SHL SWAP1 DIV PUSH1 0xFF AND PUSH1 0x40 MLOAD SWAP1 ISZERO ISZERO DUP2 MSTORE PUSH1 0x20 ADD PUSH2 0x170 JUMP JUMPDEST CALLVALUE DUP1 ISZERO PUSH2 0x2C3 JUMPI PUSH1 0x0 DUP1 REVERT JUMPDEST POP PUSH2 0x2CC PUSH2 0xA47 JUMP JUMPDEST PUSH1 0x40 MLOAD PUSH2 0x170 SWAP3 SWAP2 SWAP1 PUSH2 0x1267 JUMP JUMPDEST CALLVALUE DUP1 ISZERO PUSH2 0x2E6 JUMPI PUSH1 0x0 DUP1 REVERT JUMPDEST POP PUSH2 0x1CE PUSH2 0xB86 JUMP JUMPDEST CALLVALUE DUP1 ISZERO PUSH2 0x2FB JUMPI PUSH1 0x0 DUP1 REVERT JUMPDEST POP PUSH2 0x1CE PUSH2 0xB98 JUMP JUMPDEST CALLVALUE DUP1 ISZERO PUSH2 0x310 JUMPI PUSH1 0x0 DUP1 REVERT JUMPDEST POP PUSH2 0x166 PUSH2 0x31F CALLDATASIZE PUSH1 0x4 PUSH2 0x1192 JUMP JUMPDEST PUSH1 0x6 PUSH1 0x20 MSTORE PUSH1 0x0 SWAP1 DUP2 MSTORE PUSH1 0x40 SWAP1 KECCAK256 SLOAD DUP2 JUMP JUMPDEST PUSH2 0x1CE PUSH2 0x33F CALLDATASIZE PUSH1 0x4 PUSH2 0x1192 JUMP JUMPDEST PUSH2 0xBA8 JUMP JUMPDEST CALLVALUE DUP1 ISZERO PUSH2 0x350 JUMPI PUSH1 0x0 DUP1 REVERT JUMPDEST POP PUSH1 0xB SLOAD PUSH1 0xC SLOAD PUSH1 0xD SLOAD PUSH2 0x363 SWAP3 SWAP2 SWAP1 DUP4 JUMP JUMPDEST PUSH1 0x40 DUP1 MLOAD SWAP4 DUP5 MSTORE PUSH1 0x20 DUP5 ADD SWAP3 SWAP1 SWAP3 MSTORE SWAP1 DUP3 ADD MSTORE PUSH1 0x60 ADD PUSH2 0x170 JUMP JUMPDEST CALLVALUE DUP1 ISZERO PUSH2 0x38A JUMPI PUSH1 0x0 DUP1 REVERT JUMPDEST POP PUSH1 0x0 SLOAD PUSH1 0x1 PUSH1 0x1 PUSH1 0xA0 SHL SUB AND JUMPDEST PUSH1 0x40 MLOAD PUSH1 0x1 PUSH1 0x1 PUSH1 0xA0 SHL SUB SWAP1 SWAP2 AND DUP2 MSTORE PUSH1 0x20 ADD PUSH2 0x170 JUMP JUMPDEST CALLVALUE DUP1 ISZERO PUSH2 0x3BC JUMPI PUSH1 0x0 DUP1 REVERT JUMPDEST POP PUSH2 0x1CE PUSH2 0x3CB CALLDATASIZE PUSH1 0x4 PUSH2 0x1168 JUMP JUMPDEST PUSH2 0xD8B JUMP JUMPDEST CALLVALUE DUP1 ISZERO PUSH2 0x3DC JUMPI PUSH1 0x0 DUP1 REVERT JUMPDEST POP PUSH1 0x8 SLOAD PUSH1 0x9 SLOAD PUSH1 0xA SLOAD PUSH2 0x363 SWAP3 SWAP2 SWAP1 DUP4 JUMP JUMPDEST CALLVALUE DUP1 ISZERO PUSH2 0x3FB JUMPI PUSH1 0x0 DUP1 REVERT JUMPDEST POP PUSH2 0x40F PUSH2 0x40A CALLDATASIZE PUSH1 0x4 PUSH2 0x1295 JUMP JUMPDEST PUSH2 0xE0F JUMP JUMPDEST PUSH1 0x40 MLOAD PUSH2 0x170 SWAP2 SWAP1 PUSH2 0x12B7 JUMP JUMPDEST CALLVALUE DUP1 ISZERO PUSH2 0x428 JUMPI PUSH1 0x0 DUP1 REVERT JUMPDEST POP PUSH1 0x1 SLOAD PUSH2 0x398 SWAP1 PUSH1 0x1 PUSH1 0x1 PUSH1 0xA0 SHL SUB AND DUP2 JUMP JUMPDEST CALLVALUE DUP1 ISZERO PUSH2 0x448 JUMPI PUSH1 0x0 DUP1 REVERT JUMPDEST POP PUSH2 0x1CE PUSH2 0x457 CALLDATASIZE PUSH1 0x4 PUSH2 0x1168 JUMP JUMPDEST PUSH2 0xEB6 JUMP JUMPDEST CALLVALUE DUP1 ISZERO PUSH2 0x468 JUMPI PUSH1 0x0 DUP1 REVERT JUMPDEST POP PUSH1 0xE SLOAD PUSH1 0xF SLOAD PUSH1 0x10 SLOAD PUSH2 0x363 SWAP3 SWAP2 SWAP1 DUP4 JUMP JUMPDEST CALLVALUE DUP1 ISZERO PUSH2 0x487 JUMPI PUSH1 0x0 DUP1 REVERT JUMPDEST POP PUSH2 0x166 PUSH1 0x3 SLOAD DUP2 JUMP JUMPDEST CALLVALUE DUP1 ISZERO PUSH2 0x49D JUMPI PUSH1 0x0 DUP1 REVERT JUMPDEST POP PUSH2 0x1CE PUSH2 0x4AC CALLDATASIZE PUSH1 0x4 PUSH2 0x1295 JUMP JUMPDEST PUSH2 0xEF4 JUMP JUMPDEST PUSH1 0x1 PUSH1 0x1 PUSH1 0xA0 SHL SUB DUP3 AND PUSH1 0x0 SWAP1 DUP2 MSTORE PUSH1 0x7 PUSH1 0x20 MSTORE PUSH1 0x40 DUP2 KECCAK256 DUP1 SLOAD DUP3 SWAP2 DUP3 SWAP2 DUP6 SWAP1 DUP2 LT PUSH2 0x4DF JUMPI PUSH2 0x4DF PUSH2 0x1325 JUMP JUMPDEST SWAP1 PUSH1 0x0 MSTORE PUSH1 0x20 PUSH1 0x0 KECCAK256 SWAP1 PUSH1 0x5 MUL ADD SWAP1 POP DUP1 PUSH1 0x4 ADD SLOAD PUSH1 0x0 EQ PUSH2 0x563 JUMPI PUSH1 0x40 MLOAD PUSH3 0x461BCD PUSH1 0xE5 SHL DUP2 MSTORE PUSH1 0x20 PUSH1 0x4 DUP3 ADD MSTORE PUSH1 0x32 PUSH1 0x24 DUP3 ADD MSTORE PUSH32 0x7374616B65506F6F6C3A207468697320696E766573746D656E74206861732062 PUSH1 0x44 DUP3 ADD MSTORE PUSH18 0x65656E20636C61696D6564206265666F7265 PUSH1 0x70 SHL PUSH1 0x64 DUP3 ADD MSTORE PUSH1 0x84 ADD JUMPDEST PUSH1 0x40 MLOAD DUP1 SWAP2 SUB SWAP1 REVERT JUMPDEST PUSH1 0x1 DUP2 ADD SLOAD PUSH1 0x2 DUP3 ADD SLOAD TIMESTAMP SWAP2 SWAP1 PUSH1 0x0 PUSH2 0x57C DUP4 DUP4 PUSH2 0x1351 JUMP JUMPDEST DUP6 SLOAD PUSH1 0x3 DUP8 ADD SLOAD SWAP2 SWAP3 POP SWAP1 DUP4 DUP7 LT PUSH2 0x599 JUMPI DUP2 SWAP9 POP DUP1 SWAP8 POP PUSH2 0x6C8 JUMP JUMPDEST DUP5 PUSH1 0x64 DUP5 PUSH1 0xE PUSH1 0x0 ADD SLOAD PUSH2 0x5AD SWAP2 SWAP1 PUSH2 0x1364 JUMP JUMPDEST PUSH2 0x5B7 SWAP2 SWAP1 PUSH2 0x137B JUMP JUMPDEST PUSH2 0x5C1 SWAP2 SWAP1 PUSH2 0x139D JUMP JUMPDEST DUP7 LT PUSH2 0x605 JUMPI PUSH1 0xF SLOAD PUSH1 0x64 SWAP1 PUSH2 0x5D7 SWAP1 DUP5 PUSH2 0x1364 JUMP JUMPDEST PUSH2 0x5E1 SWAP2 SWAP1 PUSH2 0x137B JUMP JUMPDEST PUSH1 0x10 SLOAD SWAP1 SWAP10 POP PUSH1 0x64 SWAP1 PUSH2 0x5F4 SWAP1 DUP4 PUSH2 0x1364 JUMP JUMPDEST PUSH2 0x5FE SWAP2 SWAP1 PUSH2 0x137B JUMP JUMPDEST SWAP8 POP PUSH2 0x6C8 JUMP JUMPDEST DUP5 PUSH1 0x64 DUP5 PUSH1 0xB PUSH1 0x0 ADD SLOAD PUSH2 0x619 SWAP2 SWAP1 PUSH2 0x1364 JUMP JUMPDEST PUSH2 0x623 SWAP2 SWAP1 PUSH2 0x137B JUMP JUMPDEST PUSH2 0x62D SWAP2 SWAP1 PUSH2 0x139D JUMP JUMPDEST DUP7 LT PUSH2 0x660 JUMPI PUSH1 0xC SLOAD PUSH1 0x64 SWAP1 PUSH2 0x643 SWAP1 DUP5 PUSH2 0x1364 JUMP JUMPDEST PUSH2 0x64D SWAP2 SWAP1 PUSH2 0x137B JUMP JUMPDEST PUSH1 0xD SLOAD SWAP1 SWAP10 POP PUSH1 0x64 SWAP1 PUSH2 0x5F4 SWAP1 DUP4 PUSH2 0x1364 JUMP JUMPDEST DUP5 PUSH1 0x64 DUP5 PUSH1 0x8 PUSH1 0x0 ADD SLOAD PUSH2 0x674 SWAP2 SWAP1 PUSH2 0x1364 JUMP JUMPDEST PUSH2 0x67E SWAP2 SWAP1 PUSH2 0x137B JUMP JUMPDEST PUSH2 0x688 SWAP2 SWAP1 PUSH2 0x139D JUMP JUMPDEST DUP7 LT PUSH2 0x6C8 JUMPI PUSH1 0x9 SLOAD PUSH1 0x64 SWAP1 PUSH2 0x69E SWAP1 DUP5 PUSH2 0x1364 JUMP JUMPDEST PUSH2 0x6A8 SWAP2 SWAP1 PUSH2 0x137B JUMP JUMPDEST PUSH1 0xA SLOAD SWAP1 SWAP10 POP PUSH1 0x64 SWAP1 PUSH2 0x6BB SWAP1 DUP4 PUSH2 0x1364 JUMP JUMPDEST PUSH2 0x6C5 SWAP2 SWAP1 PUSH2 0x137B JUMP JUMPDEST SWAP8 POP JUMPDEST POP POP POP POP POP POP POP SWAP3 POP SWAP3 SWAP1 POP JUMP JUMPDEST CALLER PUSH1 0x0 DUP2 DUP2 MSTORE PUSH1 0x7 PUSH1 0x20 MSTORE PUSH1 0x40 DUP2 KECCAK256 DUP1 SLOAD DUP5 SWAP1 DUP2 LT PUSH2 0x6F7 JUMPI PUSH2 0x6F7 PUSH2 0x1325 JUMP JUMPDEST SWAP1 PUSH1 0x0 MSTORE PUSH1 0x20 PUSH1 0x0 KECCAK256 SWAP1 PUSH1 0x5 MUL ADD SWAP1 POP PUSH1 0x0 DUP1 PUSH2 0x714 DUP5 DUP7 PUSH2 0x4B1 JUMP JUMPDEST SWAP2 POP SWAP2 POP PUSH1 0x0 DUP3 GT PUSH2 0x768 JUMPI PUSH1 0x40 MLOAD PUSH3 0x461BCD PUSH1 0xE5 SHL DUP2 MSTORE PUSH1 0x20 PUSH1 0x4 DUP3 ADD MSTORE PUSH1 0x1E PUSH1 0x24 DUP3 ADD MSTORE PUSH32 0x5374616B65506F6F6C3A206E6F7468696E6720746F2077697468647261770000 PUSH1 0x44 DUP3 ADD MSTORE PUSH1 0x64 ADD PUSH2 0x55A JUMP JUMPDEST TIMESTAMP PUSH1 0x4 DUP5 ADD SSTORE PUSH1 0x40 MLOAD PUSH1 0x1 PUSH1 0x1 PUSH1 0xA0 SHL SUB DUP6 AND SWAP1 DUP4 ISZERO PUSH2 0x8FC MUL SWAP1 DUP5 SWAP1 PUSH1 0x0 DUP2 DUP2 DUP2 DUP6 DUP9 DUP9 CALL SWAP4 POP POP POP POP ISZERO DUP1 ISZERO PUSH2 0x7A4 JUMPI RETURNDATASIZE PUSH1 0x0 DUP1 RETURNDATACOPY RETURNDATASIZE PUSH1 0x0 REVERT JUMPDEST POP PUSH1 0x1 SLOAD PUSH1 0x40 MLOAD PUSH4 0xA9059CBB PUSH1 0xE0 SHL DUP2 MSTORE PUSH1 0x1 PUSH1 0x1 PUSH1 0xA0 SHL SUB DUP7 DUP2 AND PUSH1 0x4 DUP4 ADD MSTORE PUSH1 0x24 DUP3 ADD DUP5 SWAP1 MSTORE SWAP1 SWAP2 AND SWAP1 PUSH4 0xA9059CBB SWAP1 PUSH1 0x44 ADD PUSH1 0x20 PUSH1 0x40 MLOAD DUP1 DUP4 SUB DUP2 PUSH1 0x0 DUP8 GAS CALL ISZERO DUP1 ISZERO PUSH2 0x7F8 JUMPI RETURNDATASIZE PUSH1 0x0 DUP1 RETURNDATACOPY RETURNDATASIZE PUSH1 0x0 REVERT JUMPDEST POP POP POP POP PUSH1 0x40 MLOAD RETURNDATASIZE PUSH1 0x1F NOT PUSH1 0x1F DUP3 ADD AND DUP3 ADD DUP1 PUSH1 0x40 MSTORE POP DUP2 ADD SWAP1 PUSH2 0x81C SWAP2 SWAP1 PUSH2 0x13B0 JUMP JUMPDEST POP DUP3 SLOAD PUSH1 0x2 DUP1 SLOAD PUSH1 0x0 SWAP1 PUSH2 0x831 SWAP1 DUP5 SWAP1 PUSH2 0x1351 JUMP JUMPDEST SWAP3 POP POP DUP2 SWAP1 SSTORE POP DUP3 PUSH1 0x3 ADD SLOAD PUSH1 0x3 PUSH1 0x0 DUP3 DUP3 SLOAD PUSH2 0x84E SWAP2 SWAP1 PUSH2 0x1351 JUMP JUMPDEST SWAP1 SWAP2 SSTORE POP POP PUSH1 0x40 DUP1 MLOAD DUP4 DUP2 MSTORE PUSH1 0x20 DUP2 ADD DUP4 SWAP1 MSTORE DUP7 SWAP2 PUSH1 0x1 PUSH1 0x1 PUSH1 0xA0 SHL SUB DUP8 AND SWAP2 PUSH32 0x2F25270A4D87BEA75DB541CDFE559334A275B4A233520ED6C0A2429667CCA94 SWAP2 ADD PUSH1 0x40 MLOAD DUP1 SWAP2 SUB SWAP1 LOG3 POP POP POP POP POP JUMP JUMPDEST PUSH2 0x8A8 PUSH2 0xF6D JUMP JUMPDEST PUSH1 0x0 DUP3 DUP2 MSTORE PUSH1 0x6 PUSH1 0x20 SWAP1 DUP2 MSTORE PUSH1 0x40 DUP1 DUP4 KECCAK256 DUP5 SWAP1 SSTORE PUSH1 0x5 SWAP1 SWAP2 MSTORE SWAP1 KECCAK256 SLOAD PUSH1 0xFF AND PUSH2 0x919 JUMPI PUSH1 0x0 DUP3 DUP2 MSTORE PUSH1 0x5 PUSH1 0x20 MSTORE PUSH1 0x40 DUP2 KECCAK256 DUP1 SLOAD PUSH1 0xFF NOT AND PUSH1 0x1 SWAP1 DUP2 OR SWAP1 SWAP2 SSTORE PUSH1 0x4 DUP1 SLOAD SWAP2 DUP3 ADD DUP2 SSTORE SWAP1 SWAP2 MSTORE PUSH32 0x8A35ACFBC15FF81A39AE7D344FD709F28E8600B4AA8C65C6B64BFE7FE36BD19B ADD DUP3 SWAP1 SSTORE JUMPDEST POP POP JUMP JUMPDEST PUSH1 0x7 PUSH1 0x20 MSTORE DUP2 PUSH1 0x0 MSTORE PUSH1 0x40 PUSH1 0x0 KECCAK256 DUP2 DUP2 SLOAD DUP2 LT PUSH2 0x939 JUMPI PUSH1 0x0 DUP1 REVERT JUMPDEST PUSH1 0x0 SWAP2 DUP3 MSTORE PUSH1 0x20 SWAP1 SWAP2 KECCAK256 PUSH1 0x5 SWAP1 SWAP2 MUL ADD DUP1 SLOAD PUSH1 0x1 DUP3 ADD SLOAD PUSH1 0x2 DUP4 ADD SLOAD PUSH1 0x3 DUP5 ADD SLOAD PUSH1 0x4 SWAP1 SWAP5 ADD SLOAD SWAP3 SWAP6 POP SWAP1 SWAP4 POP SWAP2 SWAP1 DUP6 JUMP JUMPDEST PUSH2 0x973 PUSH2 0xF6D JUMP JUMPDEST PUSH2 0x97B PUSH2 0xFC7 JUMP JUMPDEST JUMP JUMPDEST PUSH2 0x985 PUSH2 0xF6D JUMP JUMPDEST PUSH1 0x40 DUP1 MLOAD PUSH1 0x60 DUP1 DUP3 ADD DUP4 MSTORE DUP12 DUP3 MSTORE PUSH1 0x20 DUP1 DUP4 ADD DUP13 SWAP1 MSTORE SWAP2 DUP4 ADD DUP11 SWAP1 MSTORE PUSH1 0x8 SWAP12 SWAP1 SWAP12 SSTORE PUSH1 0x9 SWAP10 SWAP1 SWAP10 SSTORE PUSH1 0xA SWAP8 SWAP1 SWAP8 SSTORE DUP7 MLOAD DUP1 DUP11 ADD DUP9 MSTORE DUP7 DUP2 MSTORE DUP1 DUP10 ADD DUP7 SWAP1 MSTORE DUP8 ADD DUP5 SWAP1 MSTORE PUSH1 0xB SWAP6 SWAP1 SWAP6 SSTORE PUSH1 0xC SWAP4 SWAP1 SWAP4 SSTORE PUSH1 0xD SWAP2 SWAP1 SWAP2 SSTORE DUP4 MLOAD SWAP6 DUP7 ADD DUP5 MSTORE DUP1 DUP7 MSTORE SWAP4 DUP6 ADD DUP2 SWAP1 MSTORE SWAP4 SWAP1 SWAP2 ADD DUP2 SWAP1 MSTORE PUSH1 0xE SWAP2 SWAP1 SWAP2 SSTORE PUSH1 0xF SWAP2 SWAP1 SWAP2 SSTORE PUSH1 0x10 SSTORE JUMP JUMPDEST PUSH1 0x1 PUSH1 0x1 PUSH1 0xA0 SHL SUB DUP3 AND PUSH1 0x0 SWAP1 DUP2 MSTORE PUSH1 0x7 PUSH1 0x20 MSTORE PUSH1 0x40 DUP2 KECCAK256 DUP1 SLOAD DUP4 SWAP1 DUP2 LT PUSH2 0xA2C JUMPI PUSH2 0xA2C PUSH2 0x1325 JUMP JUMPDEST SWAP1 PUSH1 0x0 MSTORE PUSH1 0x20 PUSH1 0x0 KECCAK256 SWAP1 PUSH1 0x5 MUL ADD PUSH1 0x2 ADD SLOAD SWAP1 POP JUMPDEST SWAP3 SWAP2 POP POP JUMP JUMPDEST PUSH1 0x4 SLOAD PUSH1 0x60 SWAP1 DUP2 SWAP1 DUP1 PUSH8 0xFFFFFFFFFFFFFFFF DUP2 GT ISZERO PUSH2 0xA68 JUMPI PUSH2 0xA68 PUSH2 0x13D2 JUMP JUMPDEST PUSH1 0x40 MLOAD SWAP1 DUP1 DUP3 MSTORE DUP1 PUSH1 0x20 MUL PUSH1 0x20 ADD DUP3 ADD PUSH1 0x40 MSTORE DUP1 ISZERO PUSH2 0xA91 JUMPI DUP2 PUSH1 0x20 ADD PUSH1 0x20 DUP3 MUL DUP1 CALLDATASIZE DUP4 CALLDATACOPY ADD SWAP1 POP JUMPDEST POP SWAP3 POP DUP1 PUSH8 0xFFFFFFFFFFFFFFFF DUP2 GT ISZERO PUSH2 0xAAD JUMPI PUSH2 0xAAD PUSH2 0x13D2 JUMP JUMPDEST PUSH1 0x40 MLOAD SWAP1 DUP1 DUP3 MSTORE DUP1 PUSH1 0x20 MUL PUSH1 0x20 ADD DUP3 ADD PUSH1 0x40 MSTORE DUP1 ISZERO PUSH2 0xAD6 JUMPI DUP2 PUSH1 0x20 ADD PUSH1 0x20 DUP3 MUL DUP1 CALLDATASIZE DUP4 CALLDATACOPY ADD SWAP1 POP JUMPDEST POP SWAP2 POP PUSH1 0x0 JUMPDEST DUP2 DUP2 LT ISZERO PUSH2 0xB80 JUMPI PUSH1 0x4 DUP2 DUP2 SLOAD DUP2 LT PUSH2 0xAF7 JUMPI PUSH2 0xAF7 PUSH2 0x1325 JUMP JUMPDEST SWAP1 PUSH1 0x0 MSTORE PUSH1 0x20 PUSH1 0x0 KECCAK256 ADD SLOAD DUP5 DUP3 DUP2 MLOAD DUP2 LT PUSH2 0xB14 JUMPI PUSH2 0xB14 PUSH2 0x1325 JUMP JUMPDEST PUSH1 0x20 MUL PUSH1 0x20 ADD ADD DUP2 DUP2 MSTORE POP POP PUSH1 0x6 PUSH1 0x0 PUSH1 0x4 DUP4 DUP2 SLOAD DUP2 LT PUSH2 0xB37 JUMPI PUSH2 0xB37 PUSH2 0x1325 JUMP JUMPDEST SWAP1 PUSH1 0x0 MSTORE PUSH1 0x20 PUSH1 0x0 KECCAK256 ADD SLOAD DUP2 MSTORE PUSH1 0x20 ADD SWAP1 DUP2 MSTORE PUSH1 0x20 ADD PUSH1 0x0 KECCAK256 SLOAD DUP4 DUP3 DUP2 MLOAD DUP2 LT PUSH2 0xB63 JUMPI PUSH2 0xB63 PUSH2 0x1325 JUMP JUMPDEST PUSH1 0x20 SWAP1 DUP2 MUL SWAP2 SWAP1 SWAP2 ADD ADD MSTORE DUP1 PUSH2 0xB78 DUP2 PUSH2 0x13E8 JUMP JUMPDEST SWAP2 POP POP PUSH2 0xADC JUMP JUMPDEST POP POP SWAP1 SWAP2 JUMP JUMPDEST PUSH2 0xB8E PUSH2 0xF6D JUMP JUMPDEST PUSH2 0x97B PUSH1 0x0 PUSH2 0x101C JUMP JUMPDEST PUSH2 0xBA0 PUSH2 0xF6D JUMP JUMPDEST PUSH2 0x97B PUSH2 0x106C JUMP JUMPDEST PUSH2 0xBB0 PUSH2 0x10AF JUMP JUMPDEST PUSH1 0x0 DUP2 DUP2 MSTORE PUSH1 0x6 PUSH1 0x20 MSTORE PUSH1 0x40 DUP2 KECCAK256 SLOAD SWAP1 SUB PUSH2 0xC17 JUMPI PUSH1 0x40 MLOAD PUSH3 0x461BCD PUSH1 0xE5 SHL DUP2 MSTORE PUSH1 0x20 PUSH1 0x4 DUP3 ADD MSTORE PUSH1 0x21 PUSH1 0x24 DUP3 ADD MSTORE PUSH32 0x7468657265206973206E6F20706C616E2062792074686973206475726174696F PUSH1 0x44 DUP3 ADD MSTORE PUSH1 0x37 PUSH1 0xF9 SHL PUSH1 0x64 DUP3 ADD MSTORE PUSH1 0x84 ADD PUSH2 0x55A JUMP JUMPDEST CALLER CALLVALUE TIMESTAMP PUSH1 0x0 PUSH2 0xC26 DUP6 DUP4 PUSH2 0x139D JUMP JUMPDEST PUSH1 0x0 DUP7 DUP2 MSTORE PUSH1 0x6 PUSH1 0x20 MSTORE PUSH1 0x40 DUP2 KECCAK256 SLOAD SWAP2 SWAP3 POP SWAP1 PUSH8 0xDE0B6B3A7640000 SWAP1 PUSH2 0xC4D SWAP1 DUP7 PUSH2 0x1364 JUMP JUMPDEST PUSH2 0xC57 SWAP2 SWAP1 PUSH2 0x137B JUMP JUMPDEST PUSH1 0x1 PUSH1 0x1 PUSH1 0xA0 SHL SUB DUP7 AND PUSH1 0x0 SWAP1 DUP2 MSTORE PUSH1 0x7 PUSH1 0x20 SWAP1 DUP2 MSTORE PUSH1 0x40 DUP1 DUP4 KECCAK256 DUP2 MLOAD PUSH1 0xA0 DUP2 ADD DUP4 MSTORE DUP10 DUP2 MSTORE DUP1 DUP5 ADD DUP10 DUP2 MSTORE SWAP3 DUP2 ADD DUP9 DUP2 MSTORE PUSH1 0x60 DUP3 ADD DUP8 DUP2 MSTORE PUSH1 0x80 DUP4 ADD DUP8 DUP2 MSTORE DUP5 SLOAD PUSH1 0x1 DUP2 DUP2 ADD DUP8 SSTORE SWAP6 DUP10 MSTORE SWAP7 DUP9 KECCAK256 SWAP4 MLOAD PUSH1 0x5 SWAP1 SWAP8 MUL SWAP1 SWAP4 ADD SWAP6 DUP7 SSTORE SWAP4 MLOAD SWAP3 DUP6 ADD SWAP3 SWAP1 SWAP3 SSTORE SWAP1 MLOAD PUSH1 0x2 DUP1 DUP6 ADD SWAP2 SWAP1 SWAP2 SSTORE SWAP2 MLOAD PUSH1 0x3 DUP5 ADD SSTORE MLOAD PUSH1 0x4 SWAP1 SWAP3 ADD SWAP2 SWAP1 SWAP2 SSTORE DUP1 SLOAD SWAP3 SWAP4 POP DUP7 SWAP3 SWAP1 SWAP2 SWAP1 PUSH2 0xCED SWAP1 DUP5 SWAP1 PUSH2 0x139D JUMP JUMPDEST SWAP3 POP POP DUP2 SWAP1 SSTORE POP DUP1 PUSH1 0x3 PUSH1 0x0 DUP3 DUP3 SLOAD PUSH2 0xD06 SWAP2 SWAP1 PUSH2 0x139D JUMP JUMPDEST SWAP1 SWAP2 SSTORE POP POP PUSH1 0x1 PUSH1 0x1 PUSH1 0xA0 SHL SUB DUP6 AND PUSH1 0x0 SWAP1 DUP2 MSTORE PUSH1 0x7 PUSH1 0x20 MSTORE PUSH1 0x40 SWAP1 KECCAK256 SLOAD PUSH2 0xD30 SWAP1 PUSH1 0x1 SWAP1 PUSH2 0x1351 JUMP JUMPDEST PUSH1 0x40 DUP1 MLOAD DUP7 DUP2 MSTORE PUSH1 0x20 DUP2 ADD DUP7 SWAP1 MSTORE SWAP1 DUP2 ADD DUP5 SWAP1 MSTORE PUSH1 0x60 DUP2 ADD DUP4 SWAP1 MSTORE PUSH1 0x1 PUSH1 0x1 PUSH1 0xA0 SHL SUB DUP8 AND SWAP1 PUSH32 0x72E5F615EBC79A295430CC50E3CDF038A03D48B17F7EF4586AB25A1D481DE695 SWAP1 PUSH1 0x80 ADD PUSH1 0x40 MLOAD DUP1 SWAP2 SUB SWAP1 LOG3 POP POP POP POP POP POP JUMP JUMPDEST PUSH2 0xD93 PUSH2 0xF6D JUMP JUMPDEST PUSH1 0x1 SLOAD PUSH1 0x40 MLOAD PUSH4 0xA9059CBB PUSH1 0xE0 SHL DUP2 MSTORE PUSH1 0x1 PUSH1 0x1 PUSH1 0xA0 SHL SUB DUP5 DUP2 AND PUSH1 0x4 DUP4 ADD MSTORE PUSH1 0x24 DUP3 ADD DUP5 SWAP1 MSTORE SWAP1 SWAP2 AND SWAP1 PUSH4 0xA9059CBB SWAP1 PUSH1 0x44 ADD PUSH1 0x20 PUSH1 0x40 MLOAD DUP1 DUP4 SUB DUP2 PUSH1 0x0 DUP8 GAS CALL ISZERO DUP1 ISZERO PUSH2 0xDE6 JUMPI RETURNDATASIZE PUSH1 0x0 DUP1 RETURNDATACOPY RETURNDATASIZE PUSH1 0x0 REVERT JUMPDEST POP POP POP POP PUSH1 0x40 MLOAD RETURNDATASIZE PUSH1 0x1F NOT PUSH1 0x1F DUP3 ADD AND DUP3 ADD DUP1 PUSH1 0x40 MSTORE POP DUP2 ADD SWAP1 PUSH2 0xE0A SWAP2 SWAP1 PUSH2 0x13B0 JUMP JUMPDEST POP POP POP JUMP JUMPDEST PUSH1 0x1 PUSH1 0x1 PUSH1 0xA0 SHL SUB DUP2 AND PUSH1 0x0 SWAP1 DUP2 MSTORE PUSH1 0x7 PUSH1 0x20 SWAP1 DUP2 MSTORE PUSH1 0x40 DUP1 DUP4 KECCAK256 DUP1 SLOAD DUP3 MLOAD DUP2 DUP6 MUL DUP2 ADD DUP6 ADD SWAP1 SWAP4 MSTORE DUP1 DUP4 MSTORE PUSH1 0x60 SWAP5 SWAP3 SWAP4 SWAP2 SWAP3 SWAP1 SWAP2 DUP5 ADD JUMPDEST DUP3 DUP3 LT ISZERO PUSH2 0xEAB JUMPI DUP4 DUP3 SWAP1 PUSH1 0x0 MSTORE PUSH1 0x20 PUSH1 0x0 KECCAK256 SWAP1 PUSH1 0x5 MUL ADD PUSH1 0x40 MLOAD DUP1 PUSH1 0xA0 ADD PUSH1 0x40 MSTORE SWAP1 DUP2 PUSH1 0x0 DUP3 ADD SLOAD DUP2 MSTORE PUSH1 0x20 ADD PUSH1 0x1 DUP3 ADD SLOAD DUP2 MSTORE PUSH1 0x20 ADD PUSH1 0x2 DUP3 ADD SLOAD DUP2 MSTORE PUSH1 0x20 ADD PUSH1 0x3 DUP3 ADD SLOAD DUP2 MSTORE PUSH1 0x20 ADD PUSH1 0x4 DUP3 ADD SLOAD DUP2 MSTORE POP POP DUP2 MSTORE PUSH1 0x20 ADD SWAP1 PUSH1 0x1 ADD SWAP1 PUSH2 0xE47 JUMP JUMPDEST POP POP POP POP SWAP1 POP SWAP2 SWAP1 POP JUMP JUMPDEST PUSH2 0xEBE PUSH2 0xF6D JUMP JUMPDEST PUSH1 0x40 MLOAD PUSH1 0x1 PUSH1 0x1 PUSH1 0xA0 SHL SUB DUP4 AND SWAP1 DUP3 ISZERO PUSH2 0x8FC MUL SWAP1 DUP4 SWAP1 PUSH1 0x0 DUP2 DUP2 DUP2 DUP6 DUP9 DUP9 CALL SWAP4 POP POP POP POP ISZERO DUP1 ISZERO PUSH2 0xE0A JUMPI RETURNDATASIZE PUSH1 0x0 DUP1 RETURNDATACOPY RETURNDATASIZE PUSH1 0x0 REVERT JUMPDEST PUSH2 0xEFC PUSH2 0xF6D JUMP JUMPDEST PUSH1 0x1 PUSH1 0x1 PUSH1 0xA0 SHL SUB DUP2 AND PUSH2 0xF61 JUMPI PUSH1 0x40 MLOAD PUSH3 0x461BCD PUSH1 0xE5 SHL DUP2 MSTORE PUSH1 0x20 PUSH1 0x4 DUP3 ADD MSTORE PUSH1 0x26 PUSH1 0x24 DUP3 ADD MSTORE PUSH32 0x4F776E61626C653A206E6577206F776E657220697320746865207A65726F2061 PUSH1 0x44 DUP3 ADD MSTORE PUSH6 0x646472657373 PUSH1 0xD0 SHL PUSH1 0x64 DUP3 ADD MSTORE PUSH1 0x84 ADD PUSH2 0x55A JUMP JUMPDEST PUSH2 0xF6A DUP2 PUSH2 0x101C JUMP JUMPDEST POP JUMP JUMPDEST PUSH1 0x0 SLOAD PUSH1 0x1 PUSH1 0x1 PUSH1 0xA0 SHL SUB AND CALLER EQ PUSH2 0x97B JUMPI PUSH1 0x40 MLOAD PUSH3 0x461BCD PUSH1 0xE5 SHL DUP2 MSTORE PUSH1 0x20 PUSH1 0x4 DUP3 ADD DUP2 SWAP1 MSTORE PUSH1 0x24 DUP3 ADD MSTORE PUSH32 0x4F776E61626C653A2063616C6C6572206973206E6F7420746865206F776E6572 PUSH1 0x44 DUP3 ADD MSTORE PUSH1 0x64 ADD PUSH2 0x55A JUMP JUMPDEST PUSH2 0xFCF PUSH2 0x10FC JUMP JUMPDEST PUSH1 0x0 DUP1 SLOAD PUSH1 0xFF PUSH1 0xA0 SHL NOT AND SWAP1 SSTORE PUSH32 0x5DB9EE0A495BF2E6FF9C91A7834C1BA4FDD244A5E8AA4E537BD38AEAE4B073AA CALLER JUMPDEST PUSH1 0x40 MLOAD PUSH1 0x1 PUSH1 0x1 PUSH1 0xA0 SHL SUB SWAP1 SWAP2 AND DUP2 MSTORE PUSH1 0x20 ADD PUSH1 0x40 MLOAD DUP1 SWAP2 SUB SWAP1 LOG1 JUMP JUMPDEST PUSH1 0x0 DUP1 SLOAD PUSH1 0x1 PUSH1 0x1 PUSH1 0xA0 SHL SUB DUP4 DUP2 AND PUSH1 0x1 PUSH1 0x1 PUSH1 0xA0 SHL SUB NOT DUP4 AND DUP2 OR DUP5 SSTORE PUSH1 0x40 MLOAD SWAP2 SWAP1 SWAP3 AND SWAP3 DUP4 SWAP2 PUSH32 0x8BE0079C531659141344CD1FD0A4F28419497F9722A3DAAFE3B4186F6B6457E0 SWAP2 SWAP1 LOG3 POP POP JUMP JUMPDEST PUSH2 0x1074 PUSH2 0x10AF JUMP JUMPDEST PUSH1 0x0 DUP1 SLOAD PUSH1 0xFF PUSH1 0xA0 SHL NOT AND PUSH1 0x1 PUSH1 0xA0 SHL OR SWAP1 SSTORE PUSH32 0x62E78CEA01BEE320CD4E420270B5EA74000D11B0C9F74754EBDBFC544B05A258 PUSH2 0xFFF CALLER SWAP1 JUMP JUMPDEST PUSH1 0x0 SLOAD PUSH1 0x1 PUSH1 0xA0 SHL SWAP1 DIV PUSH1 0xFF AND ISZERO PUSH2 0x97B JUMPI PUSH1 0x40 MLOAD PUSH3 0x461BCD PUSH1 0xE5 SHL DUP2 MSTORE PUSH1 0x20 PUSH1 0x4 DUP3 ADD MSTORE PUSH1 0x10 PUSH1 0x24 DUP3 ADD MSTORE PUSH16 0x14185D5CD8589B194E881C185D5CD959 PUSH1 0x82 SHL PUSH1 0x44 DUP3 ADD MSTORE PUSH1 0x64 ADD PUSH2 0x55A JUMP JUMPDEST PUSH1 0x0 SLOAD PUSH1 0x1 PUSH1 0xA0 SHL SWAP1 DIV PUSH1 0xFF AND PUSH2 0x97B JUMPI PUSH1 0x40 MLOAD PUSH3 0x461BCD PUSH1 0xE5 SHL DUP2 MSTORE PUSH1 0x20 PUSH1 0x4 DUP3 ADD MSTORE PUSH1 0x14 PUSH1 0x24 DUP3 ADD MSTORE PUSH20 0x14185D5CD8589B194E881B9BDD081C185D5CD959 PUSH1 0x62 SHL PUSH1 0x44 DUP3 ADD MSTORE PUSH1 0x64 ADD PUSH2 0x55A JUMP JUMPDEST DUP1 CALLDATALOAD PUSH1 0x1 PUSH1 0x1 PUSH1 0xA0 SHL SUB DUP2 AND DUP2 EQ PUSH2 0x1163 JUMPI PUSH1 0x0 DUP1 REVERT JUMPDEST SWAP2 SWAP1 POP JUMP JUMPDEST PUSH1 0x0 DUP1 PUSH1 0x40 DUP4 DUP6 SUB SLT ISZERO PUSH2 0x117B JUMPI PUSH1 0x0 DUP1 REVERT JUMPDEST PUSH2 0x1184 DUP4 PUSH2 0x114C JUMP JUMPDEST SWAP5 PUSH1 0x20 SWAP4 SWAP1 SWAP4 ADD CALLDATALOAD SWAP4 POP POP POP JUMP JUMPDEST PUSH1 0x0 PUSH1 0x20 DUP3 DUP5 SUB SLT ISZERO PUSH2 0x11A4 JUMPI PUSH1 0x0 DUP1 REVERT JUMPDEST POP CALLDATALOAD SWAP2 SWAP1 POP JUMP JUMPDEST PUSH1 0x0 DUP1 PUSH1 0x40 DUP4 DUP6 SUB SLT ISZERO PUSH2 0x11BE JUMPI PUSH1 0x0 DUP1 REVERT JUMPDEST POP POP DUP1 CALLDATALOAD SWAP3 PUSH1 0x20 SWAP1 SWAP2 ADD CALLDATALOAD SWAP2 POP JUMP JUMPDEST PUSH1 0x0 DUP1 PUSH1 0x0 DUP1 PUSH1 0x0 DUP1 PUSH1 0x0 DUP1 PUSH1 0x0 PUSH2 0x120 DUP11 DUP13 SUB SLT ISZERO PUSH2 0x11EC JUMPI PUSH1 0x0 DUP1 REVERT JUMPDEST POP POP DUP8 CALLDATALOAD SWAP10 PUSH1 0x20 DUP10 ADD CALLDATALOAD SWAP10 POP PUSH1 0x40 DUP10 ADD CALLDATALOAD SWAP9 PUSH1 0x60 DUP2 ADD CALLDATALOAD SWAP9 POP PUSH1 0x80 DUP2 ADD CALLDATALOAD SWAP8 POP PUSH1 0xA0 DUP2 ADD CALLDATALOAD SWAP7 POP PUSH1 0xC0 DUP2 ADD CALLDATALOAD SWAP6 POP PUSH1 0xE0 DUP2 ADD CALLDATALOAD SWAP5 POP PUSH2 0x100 ADD CALLDATALOAD SWAP3 POP SWAP1 POP JUMP JUMPDEST PUSH1 0x0 DUP2 MLOAD DUP1 DUP5 MSTORE PUSH1 0x20 DUP1 DUP6 ADD SWAP5 POP DUP1 DUP5 ADD PUSH1 0x0 JUMPDEST DUP4 DUP2 LT ISZERO PUSH2 0x125C JUMPI DUP2 MLOAD DUP8 MSTORE SWAP6 DUP3 ADD SWAP6 SWAP1 DUP3 ADD SWAP1 PUSH1 0x1 ADD PUSH2 0x1240 JUMP JUMPDEST POP SWAP5 SWAP6 SWAP5 POP POP POP POP POP JUMP JUMPDEST PUSH1 0x40 DUP2 MSTORE PUSH1 0x0 PUSH2 0x127A PUSH1 0x40 DUP4 ADD DUP6 PUSH2 0x122C JUMP JUMPDEST DUP3 DUP2 SUB PUSH1 0x20 DUP5 ADD MSTORE PUSH2 0x128C DUP2 DUP6 PUSH2 0x122C JUMP JUMPDEST SWAP6 SWAP5 POP POP POP POP POP JUMP JUMPDEST PUSH1 0x0 PUSH1 0x20 DUP3 DUP5 SUB SLT ISZERO PUSH2 0x12A7 JUMPI PUSH1 0x0 DUP1 REVERT JUMPDEST PUSH2 0x12B0 DUP3 PUSH2 0x114C JUMP JUMPDEST SWAP4 SWAP3 POP POP POP JUMP JUMPDEST PUSH1 0x20 DUP1 DUP3 MSTORE DUP3 MLOAD DUP3 DUP3 ADD DUP2 SWAP1 MSTORE PUSH1 0x0 SWAP2 SWAP1 PUSH1 0x40 SWAP1 DUP2 DUP6 ADD SWAP1 DUP7 DUP5 ADD DUP6 JUMPDEST DUP3 DUP2 LT ISZERO PUSH2 0x1318 JUMPI DUP2 MLOAD DUP1 MLOAD DUP6 MSTORE DUP7 DUP2 ADD MLOAD DUP8 DUP7 ADD MSTORE DUP6 DUP2 ADD MLOAD DUP7 DUP7 ADD MSTORE PUSH1 0x60 DUP1 DUP3 ADD MLOAD SWAP1 DUP7 ADD MSTORE PUSH1 0x80 SWAP1 DUP2 ADD MLOAD SWAP1 DUP6 ADD MSTORE PUSH1 0xA0 SWAP1 SWAP4 ADD SWAP3 SWAP1 DUP6 ADD SWAP1 PUSH1 0x1 ADD PUSH2 0x12D4 JUMP JUMPDEST POP SWAP2 SWAP8 SWAP7 POP POP POP POP POP POP POP JUMP JUMPDEST PUSH4 0x4E487B71 PUSH1 0xE0 SHL PUSH1 0x0 MSTORE PUSH1 0x32 PUSH1 0x4 MSTORE PUSH1 0x24 PUSH1 0x0 REVERT JUMPDEST PUSH4 0x4E487B71 PUSH1 0xE0 SHL PUSH1 0x0 MSTORE PUSH1 0x11 PUSH1 0x4 MSTORE PUSH1 0x24 PUSH1 0x0 REVERT JUMPDEST DUP2 DUP2 SUB DUP2 DUP2 GT ISZERO PUSH2 0xA41 JUMPI PUSH2 0xA41 PUSH2 0x133B JUMP JUMPDEST DUP1 DUP3 MUL DUP2 ISZERO DUP3 DUP3 DIV DUP5 EQ OR PUSH2 0xA41 JUMPI PUSH2 0xA41 PUSH2 0x133B JUMP JUMPDEST PUSH1 0x0 DUP3 PUSH2 0x1398 JUMPI PUSH4 0x4E487B71 PUSH1 0xE0 SHL PUSH1 0x0 MSTORE PUSH1 0x12 PUSH1 0x4 MSTORE PUSH1 0x24 PUSH1 0x0 REVERT JUMPDEST POP DIV SWAP1 JUMP JUMPDEST DUP1 DUP3 ADD DUP1 DUP3 GT ISZERO PUSH2 0xA41 JUMPI PUSH2 0xA41 PUSH2 0x133B JUMP JUMPDEST PUSH1 0x0 PUSH1 0x20 DUP3 DUP5 SUB SLT ISZERO PUSH2 0x13C2 JUMPI PUSH1 0x0 DUP1 REVERT JUMPDEST DUP2 MLOAD DUP1 ISZERO ISZERO DUP2 EQ PUSH2 0x12B0 JUMPI PUSH1 0x0 DUP1 REVERT JUMPDEST PUSH4 0x4E487B71 PUSH1 0xE0 SHL PUSH1 0x0 MSTORE PUSH1 0x41 PUSH1 0x4 MSTORE PUSH1 0x24 PUSH1 0x0 REVERT JUMPDEST PUSH1 0x0 PUSH1 0x1 DUP3 ADD PUSH2 0x13FA JUMPI PUSH2 0x13FA PUSH2 0x133B JUMP JUMPDEST POP PUSH1 0x1 ADD SWAP1 JUMP INVALID LOG2 PUSH5 0x6970667358 0x22 SLT KECCAK256 0xC3 0xE8 PUSH29 0xB38AEB8A8662404CCBA5D74AEB8B29BEC47E23FCBF856E5429703113CD PUSH5 0x736F6C6343 STOP ADDMOD GT STOP CALLER "},"methodIdentifiers":{"BLB()":"bfa54b3f","checkPoint1()":"ad33710c","checkPoint2()":"8a2ac397","checkPoint3()":"d5d4d114","investments(address,uint256)":"3e6d9770","loanBLB(address,uint256)":"a2fa0c75","loanBNB(address,uint256)":"c877921c","newInvestment(uint256)":"88f89169","owner()":"8da5cb5b","pause()":"8456cb59","paused()":"5c975abb","pendingWithdrawal(address,uint256)":"2bf0da7e","plans()":"64eb1b21","releaseTime(address,uint256)":"4983c3ab","renounceOwnership()":"715018a6","rewardPlans(uint256)":"88a9931f","setCheckpoints(uint256,uint256,uint256,uint256,uint256,uint256,uint256,uint256,uint256)":"4668d866","setPlan(uint256,uint256)":"3353561d","totalInvestingBNB()":"1dd6781b","totalPendingBLB()":"e88cf1b4","transferOwnership(address)":"f2fde38b","unpause()":"3f4ba83a","userInvestments(address)":"b023eba5","withdraw(uint256)":"2e1a7d4d"}}}}}