{"contracts/StakePool/StakeBLB_BLB.sol":{"StakeBLB_BLB":{"abi":[{"inputs":[{"internalType":"contract IERC20","name":"_BLB","type":"address"}],"stateMutability":"nonpayable","type":"constructor"},{"anonymous":false,"inputs":[{"indexed":true,"internalType":"address","name":"previousOwner","type":"address"},{"indexed":true,"internalType":"address","name":"newOwner","type":"address"}],"name":"OwnershipTransferred","type":"event"},{"anonymous":false,"inputs":[{"indexed":false,"internalType":"address","name":"account","type":"address"}],"name":"Paused","type":"event"},{"anonymous":false,"inputs":[{"indexed":false,"internalType":"address","name":"account","type":"address"}],"name":"Unpaused","type":"event"},{"inputs":[],"name":"BLB","outputs":[{"internalType":"contract IERC20","name":"","type":"address"}],"stateMutability":"view","type":"function"},{"inputs":[],"name":"checkpoints","outputs":[{"components":[{"internalType":"uint256","name":"passTime","type":"uint256"},{"internalType":"uint256","name":"saveDeposit","type":"uint256"},{"internalType":"uint256","name":"saveProfit","type":"uint256"}],"internalType":"struct StakeBLB_BLB.Checkpoint","name":"checkpoint1_","type":"tuple"},{"components":[{"internalType":"uint256","name":"passTime","type":"uint256"},{"internalType":"uint256","name":"saveDeposit","type":"uint256"},{"internalType":"uint256","name":"saveProfit","type":"uint256"}],"internalType":"struct StakeBLB_BLB.Checkpoint","name":"checkpoint2_","type":"tuple"},{"components":[{"internalType":"uint256","name":"passTime","type":"uint256"},{"internalType":"uint256","name":"saveDeposit","type":"uint256"},{"internalType":"uint256","name":"saveProfit","type":"uint256"}],"internalType":"struct StakeBLB_BLB.Checkpoint","name":"checkpoint3_","type":"tuple"}],"stateMutability":"view","type":"function"},{"inputs":[{"internalType":"address","name":"","type":"address"},{"internalType":"uint256","name":"","type":"uint256"}],"name":"investments","outputs":[{"internalType":"uint256","name":"amount","type":"uint256"},{"internalType":"uint256","name":"start","type":"uint256"},{"internalType":"uint256","name":"end","type":"uint256"},{"internalType":"uint256","name":"profit","type":"uint256"},{"internalType":"uint256","name":"claimTime","type":"uint256"}],"stateMutability":"view","type":"function"},{"inputs":[{"internalType":"address","name":"borrower","type":"address"},{"internalType":"uint256","name":"amount","type":"uint256"}],"name":"loanBLB","outputs":[],"stateMutability":"nonpayable","type":"function"},{"inputs":[{"internalType":"uint256","name":"amount","type":"uint256"},{"internalType":"uint256","name":"duration","type":"uint256"}],"name":"newInvestment","outputs":[],"stateMutability":"nonpayable","type":"function"},{"inputs":[],"name":"owner","outputs":[{"internalType":"address","name":"","type":"address"}],"stateMutability":"view","type":"function"},{"inputs":[],"name":"pause","outputs":[],"stateMutability":"nonpayable","type":"function"},{"inputs":[],"name":"paused","outputs":[{"internalType":"bool","name":"","type":"bool"}],"stateMutability":"view","type":"function"},{"inputs":[{"internalType":"address","name":"investor","type":"address"}],"name":"pendingWithdrawal","outputs":[{"internalType":"uint256","name":"total","type":"uint256"}],"stateMutability":"view","type":"function"},{"inputs":[{"internalType":"address","name":"investor","type":"address"},{"internalType":"uint256","name":"investmentId","type":"uint256"}],"name":"pendingWithdrawal","outputs":[{"internalType":"uint256","name":"","type":"uint256"}],"stateMutability":"view","type":"function"},{"inputs":[],"name":"plans","outputs":[{"internalType":"uint256[]","name":"durations","type":"uint256[]"},{"internalType":"uint256[]","name":"profits","type":"uint256[]"}],"stateMutability":"view","type":"function"},{"inputs":[{"internalType":"address","name":"investor","type":"address"},{"internalType":"uint256","name":"investmentId","type":"uint256"}],"name":"releaseTime","outputs":[{"internalType":"uint256","name":"","type":"uint256"}],"stateMutability":"view","type":"function"},{"inputs":[],"name":"renounceOwnership","outputs":[],"stateMutability":"nonpayable","type":"function"},{"inputs":[{"internalType":"uint256","name":"","type":"uint256"}],"name":"rewardPlans","outputs":[{"internalType":"uint256","name":"","type":"uint256"}],"stateMutability":"view","type":"function"},{"inputs":[{"internalType":"uint256","name":"passTime1","type":"uint256"},{"internalType":"uint256","name":"saveDeposit1","type":"uint256"},{"internalType":"uint256","name":"saveProfit1","type":"uint256"},{"internalType":"uint256","name":"passTime2","type":"uint256"},{"internalType":"uint256","name":"saveDeposit2","type":"uint256"},{"internalType":"uint256","name":"saveProfit2","type":"uint256"},{"internalType":"uint256","name":"passTime3","type":"uint256"},{"internalType":"uint256","name":"saveDeposit3","type":"uint256"},{"internalType":"uint256","name":"saveProfit3","type":"uint256"}],"name":"setCheckpoints","outputs":[],"stateMutability":"nonpayable","type":"function"},{"inputs":[{"internalType":"uint256","name":"duration","type":"uint256"},{"internalType":"uint256","name":"profit","type":"uint256"}],"name":"setPlan","outputs":[],"stateMutability":"nonpayable","type":"function"},{"inputs":[],"name":"totalDepositBLB","outputs":[{"internalType":"uint256","name":"","type":"uint256"}],"stateMutability":"view","type":"function"},{"inputs":[],"name":"totalPendingBLB","outputs":[{"internalType":"uint256","name":"","type":"uint256"}],"stateMutability":"view","type":"function"},{"inputs":[{"internalType":"address","name":"newOwner","type":"address"}],"name":"transferOwnership","outputs":[],"stateMutability":"nonpayable","type":"function"},{"inputs":[],"name":"unpause","outputs":[],"stateMutability":"nonpayable","type":"function"},{"inputs":[{"internalType":"address","name":"investor","type":"address"}],"name":"userInvestments","outputs":[{"components":[{"internalType":"uint256","name":"amount","type":"uint256"},{"internalType":"uint256","name":"start","type":"uint256"},{"internalType":"uint256","name":"end","type":"uint256"},{"internalType":"uint256","name":"profit","type":"uint256"},{"internalType":"uint256","name":"claimTime","type":"uint256"}],"internalType":"struct StakeBLB_BLB.Investment[]","name":"","type":"tuple[]"}],"stateMutability":"view","type":"function"},{"inputs":[{"internalType":"address","name":"investor","type":"address"}],"name":"userTotalStake","outputs":[{"internalType":"uint256","name":"totalStake","type":"uint256"}],"stateMutability":"view","type":"function"},{"inputs":[{"internalType":"uint256","name":"investmentId","type":"uint256"}],"name":"withdraw","outputs":[],"stateMutability":"nonpayable","type":"function"}],"evm":{"bytecode":{"linkReferences":{},"object":"60806040523480156200001157600080fd5b50604051620016b5380380620016b58339810160408190526200003491620002b1565b6200003f33620000f9565b6000805460ff60a01b19169055600180546001600160a01b0319166001600160a01b0383161790556200007d6203f48066038d7ea4c6800062000149565b6200009462278d00670214e8348c4f000062000149565b620000ab6276a7006706f05b59d3b2000062000149565b620000c262ed4e006710a741a46278000062000149565b620000da6301da9c006722b1c8c1227a000062000149565b620000f26000605081603260648284826028620001c9565b50620002e3565b600080546001600160a01b038381166001600160a01b0319831681178455604051919092169283917f8be0079c531659141344cd1fd0a4f28419497f9722a3daafe3b4186f6b6457e09190a35050565b6200015362000250565b6000828152600660209081526040808320849055600590915290205460ff16620001c5576000828152600560205260408120805460ff191660019081179091556004805491820181559091527f8a35acfbc15ff81a39ae7d344fd709f28e8600b4aa8c65c6b64bfe7fe36bd19b018290555b5050565b620001d362000250565b60408051606080820183528b825260208083018c90529183018a905260089b909b55600999909955600a979097558651808a0188528681528089018690528701849052600b95909555600c93909355600d919091558351958601845280865293850181905293909101819052600e91909155600f91909155601055565b6000546001600160a01b03163314620002af5760405162461bcd60e51b815260206004820181905260248201527f4f776e61626c653a2063616c6c6572206973206e6f7420746865206f776e6572604482015260640160405180910390fd5b565b600060208284031215620002c457600080fd5b81516001600160a01b0381168114620002dc57600080fd5b9392505050565b6113c280620002f36000396000f3fe608060405234801561001057600080fd5b506004361061014d5760003560e01c80635b91c512116100c35780638da5cb5b1161007c5780638da5cb5b1461030c578063a2fa0c7514610331578063b023eba514610344578063bfa54b3f14610364578063e88cf1b414610377578063f2fde38b1461038057600080fd5b80635b91c512146102965780635c975abb146102a957806364eb1b21146102c6578063715018a6146102dc5780638456cb59146102e457806388a9931f146102ec57600080fd5b80633353561d116101155780633353561d146101bc5780633e6d9770146101cf5780633f4ba83a1461020a5780634668d866146102125780634983c3ab146102255780635a48c0b01461023857600080fd5b80630964c95b146101525780630c736b351461017857806328583365146101815780632bf0da7e146101965780632e1a7d4d146101a9575b600080fd5b6101656101603660046110f3565b610393565b6040519081526020015b60405180910390f35b61016560025481565b61019461018f366004611115565b6103e5565b005b6101656101a4366004611137565b6105cf565b6101946101b7366004611161565b610791565b6101946101ca366004611115565b6108df565b6101e26101dd366004611137565b61095c565b604080519586526020860194909452928401919091526060830152608082015260a00161016f565b6101946109aa565b61019461022036600461117a565b6109bc565b610165610233366004611137565b610a41565b610240610a85565b6040805184518152602080860151818301529482015181830152835160608201528484015160808201529281015160a0840152815160c08401529281015160e0830152909101516101008201526101200161016f565b6101656102a43660046110f3565b610b58565b600054600160a01b900460ff16604051901515815260200161016f565b6102ce610bf3565b60405161016f929190611214565b610194610d32565b610194610d44565b6101656102fa366004611161565b60066020526000908152604090205481565b6000546001600160a01b03165b6040516001600160a01b03909116815260200161016f565b61019461033f366004611137565b610d54565b6103576103523660046110f3565b610dd8565b60405161016f9190611242565b600154610319906001600160a01b031681565b61016560035481565b61019461038e3660046110f3565b610e7f565b6001600160a01b038116600090815260076020526040812054815b818110156103de576103c084826105cf565b6103ca90846112c6565b9250806103d6816112d9565b9150506103ae565b5050919050565b6103ed610ef8565b60008181526006602052604081205490036104595760405162461bcd60e51b815260206004820152602160248201527f7468657265206973206e6f20706c616e2062792074686973206475726174696f6044820152603760f91b60648201526084015b60405180910390fd5b3342600061046784836112c6565b60008581526006602052604081205491925090670de0b6b3a76400009061048e90886112f2565b6104989190611309565b6001546040516323b872dd60e01b81526001600160a01b038781166004830152306024830152604482018a90529293509116906323b872dd906064016020604051808303816000875af11580156104f3573d6000803e3d6000fd5b505050506040513d601f19601f82011682018060405250810190610517919061132b565b506001600160a01b0384166000908152600760209081526040808320815160a0810183528a81528084018881529281018781526060820187815260808301878152845460018181018755958952968820935160059097029093019586559351928501929092559051600280850191909155915160038401555160049092019190915580548892906105a99084906112c6565b9250508190555080600360008282546105c291906112c6565b9091555050505050505050565b6001600160a01b03821660009081526007602052604081208054829190849081106105fc576105fc61134d565b60009182526020822060016005909202019081015460028201549193508291429190836106298383611363565b875460038901549192509083861061064657819750809650610775565b84606484600e6000015461065a91906112f2565b6106649190611309565b61066e91906112c6565b86106106b257600f5460649061068490846112f2565b61068e9190611309565b6010549098506064906106a190836112f2565b6106ab9190611309565b9650610775565b84606484600b600001546106c691906112f2565b6106d09190611309565b6106da91906112c6565b861061070d57600c546064906106f090846112f2565b6106fa9190611309565b600d549098506064906106a190836112f2565b8460648460086000015461072191906112f2565b61072b9190611309565b61073591906112c6565b86106107755760095460649061074b90846112f2565b6107559190611309565b600a5490985060649061076890836112f2565b6107729190611309565b96505b61077f87896112c6565b99505050505050505050505b92915050565b3360008181526007602052604081208054849081106107b2576107b261134d565b9060005260206000209060050201905060006107ce83856105cf565b9050600081116108205760405162461bcd60e51b815260206004820152601e60248201527f5374616b65506f6f6c3a206e6f7468696e6720746f20776974686472617700006044820152606401610450565b4260048381019190915560015460405163a9059cbb60e01b81526001600160a01b03868116938201939093526024810184905291169063a9059cbb906044016020604051808303816000875af115801561087e573d6000803e3d6000fd5b505050506040513d601f19601f820116820180604052508101906108a2919061132b565b508154600280546000906108b7908490611363565b925050819055508160030154600360008282546108d49190611363565b909155505050505050565b6108e7610f45565b6000828152600660209081526040808320849055600590915290205460ff16610958576000828152600560205260408120805460ff191660019081179091556004805491820181559091527f8a35acfbc15ff81a39ae7d344fd709f28e8600b4aa8c65c6b64bfe7fe36bd19b018290555b5050565b6007602052816000526040600020818154811061097857600080fd5b600091825260209091206005909102018054600182015460028301546003840154600490940154929550909350919085565b6109b2610f45565b6109ba610f9f565b565b6109c4610f45565b60408051606080820183528b825260208083018c90529183018a905260089b909b55600999909955600a979097558651808a0188528681528089018690528701849052600b95909555600c93909355600d919091558351958601845280865293850181905293909101819052600e91909155600f91909155601055565b6001600160a01b0382166000908152600760205260408120805483908110610a6b57610a6b61134d565b906000526020600020906005020160020154905092915050565b610aa960405180606001604052806000815260200160008152602001600081525090565b610acd60405180606001604052806000815260200160008152602001600081525090565b610af160405180606001604052806000815260200160008152602001600081525090565b505060408051606080820183526008548252600954602080840191909152600a548385015283518083018552600b548152600c5481830152600d548186015284519283018552600e548352600f549183019190915260105493820193909352909391925090565b6001600160a01b03811660009081526007602052604081208054825b81811015610beb57828181548110610b8e57610b8e61134d565b906000526020600020906005020160040154600003610bd957828181548110610bb957610bb961134d565b90600052602060002090600502016000015484610bd691906112c6565b93505b80610be3816112d9565b915050610b74565b505050919050565b60045460609081908067ffffffffffffffff811115610c1457610c14611376565b604051908082528060200260200182016040528015610c3d578160200160208202803683370190505b5092508067ffffffffffffffff811115610c5957610c59611376565b604051908082528060200260200182016040528015610c82578160200160208202803683370190505b50915060005b81811015610d2c5760048181548110610ca357610ca361134d565b9060005260206000200154848281518110610cc057610cc061134d565b6020026020010181815250506006600060048381548110610ce357610ce361134d565b9060005260206000200154815260200190815260200160002054838281518110610d0f57610d0f61134d565b602090810291909101015280610d24816112d9565b915050610c88565b50509091565b610d3a610f45565b6109ba6000610ff4565b610d4c610f45565b6109ba611044565b610d5c610f45565b60015460405163a9059cbb60e01b81526001600160a01b038481166004830152602482018490529091169063a9059cbb906044016020604051808303816000875af1158015610daf573d6000803e3d6000fd5b505050506040513d601f19601f82011682018060405250810190610dd3919061132b565b505050565b6001600160a01b0381166000908152600760209081526040808320805482518185028101850190935280835260609492939192909184015b82821015610e7457838290600052602060002090600502016040518060a00160405290816000820154815260200160018201548152602001600282015481526020016003820154815260200160048201548152505081526020019060010190610e10565b505050509050919050565b610e87610f45565b6001600160a01b038116610eec5760405162461bcd60e51b815260206004820152602660248201527f4f776e61626c653a206e6577206f776e657220697320746865207a65726f206160448201526564647265737360d01b6064820152608401610450565b610ef581610ff4565b50565b600054600160a01b900460ff16156109ba5760405162461bcd60e51b815260206004820152601060248201526f14185d5cd8589b194e881c185d5cd95960821b6044820152606401610450565b6000546001600160a01b031633146109ba5760405162461bcd60e51b815260206004820181905260248201527f4f776e61626c653a2063616c6c6572206973206e6f7420746865206f776e65726044820152606401610450565b610fa7611087565b6000805460ff60a01b191690557f5db9ee0a495bf2e6ff9c91a7834c1ba4fdd244a5e8aa4e537bd38aeae4b073aa335b6040516001600160a01b03909116815260200160405180910390a1565b600080546001600160a01b038381166001600160a01b0319831681178455604051919092169283917f8be0079c531659141344cd1fd0a4f28419497f9722a3daafe3b4186f6b6457e09190a35050565b61104c610ef8565b6000805460ff60a01b1916600160a01b1790557f62e78cea01bee320cd4e420270b5ea74000d11b0c9f74754ebdbfc544b05a258610fd73390565b600054600160a01b900460ff166109ba5760405162461bcd60e51b815260206004820152601460248201527314185d5cd8589b194e881b9bdd081c185d5cd95960621b6044820152606401610450565b80356001600160a01b03811681146110ee57600080fd5b919050565b60006020828403121561110557600080fd5b61110e826110d7565b9392505050565b6000806040838503121561112857600080fd5b50508035926020909101359150565b6000806040838503121561114a57600080fd5b611153836110d7565b946020939093013593505050565b60006020828403121561117357600080fd5b5035919050565b60008060008060008060008060006101208a8c03121561119957600080fd5b505087359960208901359950604089013598606081013598506080810135975060a0810135965060c0810135955060e08101359450610100013592509050565b600081518084526020808501945080840160005b83811015611209578151875295820195908201906001016111ed565b509495945050505050565b60408152600061122760408301856111d9565b828103602084015261123981856111d9565b95945050505050565b602080825282518282018190526000919060409081850190868401855b828110156112a35781518051855286810151878601528581015186860152606080820151908601526080908101519085015260a0909301929085019060010161125f565b5091979650505050505050565b634e487b7160e01b600052601160045260246000fd5b8082018082111561078b5761078b6112b0565b6000600182016112eb576112eb6112b0565b5060010190565b808202811582820484141761078b5761078b6112b0565b60008261132657634e487b7160e01b600052601260045260246000fd5b500490565b60006020828403121561133d57600080fd5b8151801515811461110e57600080fd5b634e487b7160e01b600052603260045260246000fd5b8181038181111561078b5761078b6112b0565b634e487b7160e01b600052604160045260246000fdfea2646970667358221220ee74ce64c09da3556cc5c6dec728d588f35d5134274cad583925efe2b355368064736f6c63430008120033","opcodes":"PUSH1 0x80 PUSH1 0x40 MSTORE CALLVALUE DUP1 ISZERO PUSH3 0x11 JUMPI PUSH1 0x0 DUP1 REVERT JUMPDEST POP PUSH1 0x40 MLOAD PUSH3 0x16B5 CODESIZE SUB DUP1 PUSH3 0x16B5 DUP4 CODECOPY DUP2 ADD PUSH1 0x40 DUP2 SWAP1 MSTORE PUSH3 0x34 SWAP2 PUSH3 0x2B1 JUMP JUMPDEST PUSH3 0x3F CALLER PUSH3 0xF9 JUMP JUMPDEST PUSH1 0x0 DUP1 SLOAD PUSH1 0xFF PUSH1 0xA0 SHL NOT AND SWAP1 SSTORE PUSH1 0x1 DUP1 SLOAD PUSH1 0x1 PUSH1 0x1 PUSH1 0xA0 SHL SUB NOT AND PUSH1 0x1 PUSH1 0x1 PUSH1 0xA0 SHL SUB DUP4 AND OR SWAP1 SSTORE PUSH3 0x7D PUSH3 0x3F480 PUSH7 0x38D7EA4C68000 PUSH3 0x149 JUMP JUMPDEST PUSH3 0x94 PUSH3 0x278D00 PUSH8 0x214E8348C4F0000 PUSH3 0x149 JUMP JUMPDEST PUSH3 0xAB PUSH3 0x76A700 PUSH8 0x6F05B59D3B20000 PUSH3 0x149 JUMP JUMPDEST PUSH3 0xC2 PUSH3 0xED4E00 PUSH8 0x10A741A462780000 PUSH3 0x149 JUMP JUMPDEST PUSH3 0xDA PUSH4 0x1DA9C00 PUSH8 0x22B1C8C1227A0000 PUSH3 0x149 JUMP JUMPDEST PUSH3 0xF2 PUSH1 0x0 PUSH1 0x50 DUP2 PUSH1 0x32 PUSH1 0x64 DUP3 DUP5 DUP3 PUSH1 0x28 PUSH3 0x1C9 JUMP JUMPDEST POP PUSH3 0x2E3 JUMP JUMPDEST PUSH1 0x0 DUP1 SLOAD PUSH1 0x1 PUSH1 0x1 PUSH1 0xA0 SHL SUB DUP4 DUP2 AND PUSH1 0x1 PUSH1 0x1 PUSH1 0xA0 SHL SUB NOT DUP4 AND DUP2 OR DUP5 SSTORE PUSH1 0x40 MLOAD SWAP2 SWAP1 SWAP3 AND SWAP3 DUP4 SWAP2 PUSH32 0x8BE0079C531659141344CD1FD0A4F28419497F9722A3DAAFE3B4186F6B6457E0 SWAP2 SWAP1 LOG3 POP POP JUMP JUMPDEST PUSH3 0x153 PUSH3 0x250 JUMP JUMPDEST PUSH1 0x0 DUP3 DUP2 MSTORE PUSH1 0x6 PUSH1 0x20 SWAP1 DUP2 MSTORE PUSH1 0x40 DUP1 DUP4 KECCAK256 DUP5 SWAP1 SSTORE PUSH1 0x5 SWAP1 SWAP2 MSTORE SWAP1 KECCAK256 SLOAD PUSH1 0xFF AND PUSH3 0x1C5 JUMPI PUSH1 0x0 DUP3 DUP2 MSTORE PUSH1 0x5 PUSH1 0x20 MSTORE PUSH1 0x40 DUP2 KECCAK256 DUP1 SLOAD PUSH1 0xFF NOT AND PUSH1 0x1 SWAP1 DUP2 OR SWAP1 SWAP2 SSTORE PUSH1 0x4 DUP1 SLOAD SWAP2 DUP3 ADD DUP2 SSTORE SWAP1 SWAP2 MSTORE PUSH32 0x8A35ACFBC15FF81A39AE7D344FD709F28E8600B4AA8C65C6B64BFE7FE36BD19B ADD DUP3 SWAP1 SSTORE JUMPDEST POP POP JUMP JUMPDEST PUSH3 0x1D3 PUSH3 0x250 JUMP JUMPDEST PUSH1 0x40 DUP1 MLOAD PUSH1 0x60 DUP1 DUP3 ADD DUP4 MSTORE DUP12 DUP3 MSTORE PUSH1 0x20 DUP1 DUP4 ADD DUP13 SWAP1 MSTORE SWAP2 DUP4 ADD DUP11 SWAP1 MSTORE PUSH1 0x8 SWAP12 SWAP1 SWAP12 SSTORE PUSH1 0x9 SWAP10 SWAP1 SWAP10 SSTORE PUSH1 0xA SWAP8 SWAP1 SWAP8 SSTORE DUP7 MLOAD DUP1 DUP11 ADD DUP9 MSTORE DUP7 DUP2 MSTORE DUP1 DUP10 ADD DUP7 SWAP1 MSTORE DUP8 ADD DUP5 SWAP1 MSTORE PUSH1 0xB SWAP6 SWAP1 SWAP6 SSTORE PUSH1 0xC SWAP4 SWAP1 SWAP4 SSTORE PUSH1 0xD SWAP2 SWAP1 SWAP2 SSTORE DUP4 MLOAD SWAP6 DUP7 ADD DUP5 MSTORE DUP1 DUP7 MSTORE SWAP4 DUP6 ADD DUP2 SWAP1 MSTORE SWAP4 SWAP1 SWAP2 ADD DUP2 SWAP1 MSTORE PUSH1 0xE SWAP2 SWAP1 SWAP2 SSTORE PUSH1 0xF SWAP2 SWAP1 SWAP2 SSTORE PUSH1 0x10 SSTORE JUMP JUMPDEST PUSH1 0x0 SLOAD PUSH1 0x1 PUSH1 0x1 PUSH1 0xA0 SHL SUB AND CALLER EQ PUSH3 0x2AF JUMPI PUSH1 0x40 MLOAD PUSH3 0x461BCD PUSH1 0xE5 SHL DUP2 MSTORE PUSH1 0x20 PUSH1 0x4 DUP3 ADD DUP2 SWAP1 MSTORE PUSH1 0x24 DUP3 ADD MSTORE PUSH32 0x4F776E61626C653A2063616C6C6572206973206E6F7420746865206F776E6572 PUSH1 0x44 DUP3 ADD MSTORE PUSH1 0x64 ADD PUSH1 0x40 MLOAD DUP1 SWAP2 SUB SWAP1 REVERT JUMPDEST JUMP JUMPDEST PUSH1 0x0 PUSH1 0x20 DUP3 DUP5 SUB SLT ISZERO PUSH3 0x2C4 JUMPI PUSH1 0x0 DUP1 REVERT JUMPDEST DUP2 MLOAD PUSH1 0x1 PUSH1 0x1 PUSH1 0xA0 SHL SUB DUP2 AND DUP2 EQ PUSH3 0x2DC JUMPI PUSH1 0x0 DUP1 REVERT JUMPDEST SWAP4 SWAP3 POP POP POP JUMP JUMPDEST PUSH2 0x13C2 DUP1 PUSH3 0x2F3 PUSH1 0x0 CODECOPY PUSH1 0x0 RETURN INVALID PUSH1 0x80 PUSH1 0x40 MSTORE CALLVALUE DUP1 ISZERO PUSH2 0x10 JUMPI PUSH1 0x0 DUP1 REVERT JUMPDEST POP PUSH1 0x4 CALLDATASIZE LT PUSH2 0x14D JUMPI PUSH1 0x0 CALLDATALOAD PUSH1 0xE0 SHR DUP1 PUSH4 0x5B91C512 GT PUSH2 0xC3 JUMPI DUP1 PUSH4 0x8DA5CB5B GT PUSH2 0x7C JUMPI DUP1 PUSH4 0x8DA5CB5B EQ PUSH2 0x30C JUMPI DUP1 PUSH4 0xA2FA0C75 EQ PUSH2 0x331 JUMPI DUP1 PUSH4 0xB023EBA5 EQ PUSH2 0x344 JUMPI DUP1 PUSH4 0xBFA54B3F EQ PUSH2 0x364 JUMPI DUP1 PUSH4 0xE88CF1B4 EQ PUSH2 0x377 JUMPI DUP1 PUSH4 0xF2FDE38B EQ PUSH2 0x380 JUMPI PUSH1 0x0 DUP1 REVERT JUMPDEST DUP1 PUSH4 0x5B91C512 EQ PUSH2 0x296 JUMPI DUP1 PUSH4 0x5C975ABB EQ PUSH2 0x2A9 JUMPI DUP1 PUSH4 0x64EB1B21 EQ PUSH2 0x2C6 JUMPI DUP1 PUSH4 0x715018A6 EQ PUSH2 0x2DC JUMPI DUP1 PUSH4 0x8456CB59 EQ PUSH2 0x2E4 JUMPI DUP1 PUSH4 0x88A9931F EQ PUSH2 0x2EC JUMPI PUSH1 0x0 DUP1 REVERT JUMPDEST DUP1 PUSH4 0x3353561D GT PUSH2 0x115 JUMPI DUP1 PUSH4 0x3353561D EQ PUSH2 0x1BC JUMPI DUP1 PUSH4 0x3E6D9770 EQ PUSH2 0x1CF JUMPI DUP1 PUSH4 0x3F4BA83A EQ PUSH2 0x20A JUMPI DUP1 PUSH4 0x4668D866 EQ PUSH2 0x212 JUMPI DUP1 PUSH4 0x4983C3AB EQ PUSH2 0x225 JUMPI DUP1 PUSH4 0x5A48C0B0 EQ PUSH2 0x238 JUMPI PUSH1 0x0 DUP1 REVERT JUMPDEST DUP1 PUSH4 0x964C95B EQ PUSH2 0x152 JUMPI DUP1 PUSH4 0xC736B35 EQ PUSH2 0x178 JUMPI DUP1 PUSH4 0x28583365 EQ PUSH2 0x181 JUMPI DUP1 PUSH4 0x2BF0DA7E EQ PUSH2 0x196 JUMPI DUP1 PUSH4 0x2E1A7D4D EQ PUSH2 0x1A9 JUMPI JUMPDEST PUSH1 0x0 DUP1 REVERT JUMPDEST PUSH2 0x165 PUSH2 0x160 CALLDATASIZE PUSH1 0x4 PUSH2 0x10F3 JUMP JUMPDEST PUSH2 0x393 JUMP JUMPDEST PUSH1 0x40 MLOAD SWAP1 DUP2 MSTORE PUSH1 0x20 ADD JUMPDEST PUSH1 0x40 MLOAD DUP1 SWAP2 SUB SWAP1 RETURN JUMPDEST PUSH2 0x165 PUSH1 0x2 SLOAD DUP2 JUMP JUMPDEST PUSH2 0x194 PUSH2 0x18F CALLDATASIZE PUSH1 0x4 PUSH2 0x1115 JUMP JUMPDEST PUSH2 0x3E5 JUMP JUMPDEST STOP JUMPDEST PUSH2 0x165 PUSH2 0x1A4 CALLDATASIZE PUSH1 0x4 PUSH2 0x1137 JUMP JUMPDEST PUSH2 0x5CF JUMP JUMPDEST PUSH2 0x194 PUSH2 0x1B7 CALLDATASIZE PUSH1 0x4 PUSH2 0x1161 JUMP JUMPDEST PUSH2 0x791 JUMP JUMPDEST PUSH2 0x194 PUSH2 0x1CA CALLDATASIZE PUSH1 0x4 PUSH2 0x1115 JUMP JUMPDEST PUSH2 0x8DF JUMP JUMPDEST PUSH2 0x1E2 PUSH2 0x1DD CALLDATASIZE PUSH1 0x4 PUSH2 0x1137 JUMP JUMPDEST PUSH2 0x95C JUMP JUMPDEST PUSH1 0x40 DUP1 MLOAD SWAP6 DUP7 MSTORE PUSH1 0x20 DUP7 ADD SWAP5 SWAP1 SWAP5 MSTORE SWAP3 DUP5 ADD SWAP2 SWAP1 SWAP2 MSTORE PUSH1 0x60 DUP4 ADD MSTORE PUSH1 0x80 DUP3 ADD MSTORE PUSH1 0xA0 ADD PUSH2 0x16F JUMP JUMPDEST PUSH2 0x194 PUSH2 0x9AA JUMP JUMPDEST PUSH2 0x194 PUSH2 0x220 CALLDATASIZE PUSH1 0x4 PUSH2 0x117A JUMP JUMPDEST PUSH2 0x9BC JUMP JUMPDEST PUSH2 0x165 PUSH2 0x233 CALLDATASIZE PUSH1 0x4 PUSH2 0x1137 JUMP JUMPDEST PUSH2 0xA41 JUMP JUMPDEST PUSH2 0x240 PUSH2 0xA85 JUMP JUMPDEST PUSH1 0x40 DUP1 MLOAD DUP5 MLOAD DUP2 MSTORE PUSH1 0x20 DUP1 DUP7 ADD MLOAD DUP2 DUP4 ADD MSTORE SWAP5 DUP3 ADD MLOAD DUP2 DUP4 ADD MSTORE DUP4 MLOAD PUSH1 0x60 DUP3 ADD MSTORE DUP5 DUP5 ADD MLOAD PUSH1 0x80 DUP3 ADD MSTORE SWAP3 DUP2 ADD MLOAD PUSH1 0xA0 DUP5 ADD MSTORE DUP2 MLOAD PUSH1 0xC0 DUP5 ADD MSTORE SWAP3 DUP2 ADD MLOAD PUSH1 0xE0 DUP4 ADD MSTORE SWAP1 SWAP2 ADD MLOAD PUSH2 0x100 DUP3 ADD MSTORE PUSH2 0x120 ADD PUSH2 0x16F JUMP JUMPDEST PUSH2 0x165 PUSH2 0x2A4 CALLDATASIZE PUSH1 0x4 PUSH2 0x10F3 JUMP JUMPDEST PUSH2 0xB58 JUMP JUMPDEST PUSH1 0x0 SLOAD PUSH1 0x1 PUSH1 0xA0 SHL SWAP1 DIV PUSH1 0xFF AND PUSH1 0x40 MLOAD SWAP1 ISZERO ISZERO DUP2 MSTORE PUSH1 0x20 ADD PUSH2 0x16F JUMP JUMPDEST PUSH2 0x2CE PUSH2 0xBF3 JUMP JUMPDEST PUSH1 0x40 MLOAD PUSH2 0x16F SWAP3 SWAP2 SWAP1 PUSH2 0x1214 JUMP JUMPDEST PUSH2 0x194 PUSH2 0xD32 JUMP JUMPDEST PUSH2 0x194 PUSH2 0xD44 JUMP JUMPDEST PUSH2 0x165 PUSH2 0x2FA CALLDATASIZE PUSH1 0x4 PUSH2 0x1161 JUMP JUMPDEST PUSH1 0x6 PUSH1 0x20 MSTORE PUSH1 0x0 SWAP1 DUP2 MSTORE PUSH1 0x40 SWAP1 KECCAK256 SLOAD DUP2 JUMP JUMPDEST PUSH1 0x0 SLOAD PUSH1 0x1 PUSH1 0x1 PUSH1 0xA0 SHL SUB AND JUMPDEST PUSH1 0x40 MLOAD PUSH1 0x1 PUSH1 0x1 PUSH1 0xA0 SHL SUB SWAP1 SWAP2 AND DUP2 MSTORE PUSH1 0x20 ADD PUSH2 0x16F JUMP JUMPDEST PUSH2 0x194 PUSH2 0x33F CALLDATASIZE PUSH1 0x4 PUSH2 0x1137 JUMP JUMPDEST PUSH2 0xD54 JUMP JUMPDEST PUSH2 0x357 PUSH2 0x352 CALLDATASIZE PUSH1 0x4 PUSH2 0x10F3 JUMP JUMPDEST PUSH2 0xDD8 JUMP JUMPDEST PUSH1 0x40 MLOAD PUSH2 0x16F SWAP2 SWAP1 PUSH2 0x1242 JUMP JUMPDEST PUSH1 0x1 SLOAD PUSH2 0x319 SWAP1 PUSH1 0x1 PUSH1 0x1 PUSH1 0xA0 SHL SUB AND DUP2 JUMP JUMPDEST PUSH2 0x165 PUSH1 0x3 SLOAD DUP2 JUMP JUMPDEST PUSH2 0x194 PUSH2 0x38E CALLDATASIZE PUSH1 0x4 PUSH2 0x10F3 JUMP JUMPDEST PUSH2 0xE7F JUMP JUMPDEST PUSH1 0x1 PUSH1 0x1 PUSH1 0xA0 SHL SUB DUP2 AND PUSH1 0x0 SWAP1 DUP2 MSTORE PUSH1 0x7 PUSH1 0x20 MSTORE PUSH1 0x40 DUP2 KECCAK256 SLOAD DUP2 JUMPDEST DUP2 DUP2 LT ISZERO PUSH2 0x3DE JUMPI PUSH2 0x3C0 DUP5 DUP3 PUSH2 0x5CF JUMP JUMPDEST PUSH2 0x3CA SWAP1 DUP5 PUSH2 0x12C6 JUMP JUMPDEST SWAP3 POP DUP1 PUSH2 0x3D6 DUP2 PUSH2 0x12D9 JUMP JUMPDEST SWAP2 POP POP PUSH2 0x3AE JUMP JUMPDEST POP POP SWAP2 SWAP1 POP JUMP JUMPDEST PUSH2 0x3ED PUSH2 0xEF8 JUMP JUMPDEST PUSH1 0x0 DUP2 DUP2 MSTORE PUSH1 0x6 PUSH1 0x20 MSTORE PUSH1 0x40 DUP2 KECCAK256 SLOAD SWAP1 SUB PUSH2 0x459 JUMPI PUSH1 0x40 MLOAD PUSH3 0x461BCD PUSH1 0xE5 SHL DUP2 MSTORE PUSH1 0x20 PUSH1 0x4 DUP3 ADD MSTORE PUSH1 0x21 PUSH1 0x24 DUP3 ADD MSTORE PUSH32 0x7468657265206973206E6F20706C616E2062792074686973206475726174696F PUSH1 0x44 DUP3 ADD MSTORE PUSH1 0x37 PUSH1 0xF9 SHL PUSH1 0x64 DUP3 ADD MSTORE PUSH1 0x84 ADD JUMPDEST PUSH1 0x40 MLOAD DUP1 SWAP2 SUB SWAP1 REVERT JUMPDEST CALLER TIMESTAMP PUSH1 0x0 PUSH2 0x467 DUP5 DUP4 PUSH2 0x12C6 JUMP JUMPDEST PUSH1 0x0 DUP6 DUP2 MSTORE PUSH1 0x6 PUSH1 0x20 MSTORE PUSH1 0x40 DUP2 KECCAK256 SLOAD SWAP2 SWAP3 POP SWAP1 PUSH8 0xDE0B6B3A7640000 SWAP1 PUSH2 0x48E SWAP1 DUP9 PUSH2 0x12F2 JUMP JUMPDEST PUSH2 0x498 SWAP2 SWAP1 PUSH2 0x1309 JUMP JUMPDEST PUSH1 0x1 SLOAD PUSH1 0x40 MLOAD PUSH4 0x23B872DD PUSH1 0xE0 SHL DUP2 MSTORE PUSH1 0x1 PUSH1 0x1 PUSH1 0xA0 SHL SUB DUP8 DUP2 AND PUSH1 0x4 DUP4 ADD MSTORE ADDRESS PUSH1 0x24 DUP4 ADD MSTORE PUSH1 0x44 DUP3 ADD DUP11 SWAP1 MSTORE SWAP3 SWAP4 POP SWAP2 AND SWAP1 PUSH4 0x23B872DD SWAP1 PUSH1 0x64 ADD PUSH1 0x20 PUSH1 0x40 MLOAD DUP1 DUP4 SUB DUP2 PUSH1 0x0 DUP8 GAS CALL ISZERO DUP1 ISZERO PUSH2 0x4F3 JUMPI RETURNDATASIZE PUSH1 0x0 DUP1 RETURNDATACOPY RETURNDATASIZE PUSH1 0x0 REVERT JUMPDEST POP POP POP POP PUSH1 0x40 MLOAD RETURNDATASIZE PUSH1 0x1F NOT PUSH1 0x1F DUP3 ADD AND DUP3 ADD DUP1 PUSH1 0x40 MSTORE POP DUP2 ADD SWAP1 PUSH2 0x517 SWAP2 SWAP1 PUSH2 0x132B JUMP JUMPDEST POP PUSH1 0x1 PUSH1 0x1 PUSH1 0xA0 SHL SUB DUP5 AND PUSH1 0x0 SWAP1 DUP2 MSTORE PUSH1 0x7 PUSH1 0x20 SWAP1 DUP2 MSTORE PUSH1 0x40 DUP1 DUP4 KECCAK256 DUP2 MLOAD PUSH1 0xA0 DUP2 ADD DUP4 MSTORE DUP11 DUP2 MSTORE DUP1 DUP5 ADD DUP9 DUP2 MSTORE SWAP3 DUP2 ADD DUP8 DUP2 MSTORE PUSH1 0x60 DUP3 ADD DUP8 DUP2 MSTORE PUSH1 0x80 DUP4 ADD DUP8 DUP2 MSTORE DUP5 SLOAD PUSH1 0x1 DUP2 DUP2 ADD DUP8 SSTORE SWAP6 DUP10 MSTORE SWAP7 DUP9 KECCAK256 SWAP4 MLOAD PUSH1 0x5 SWAP1 SWAP8 MUL SWAP1 SWAP4 ADD SWAP6 DUP7 SSTORE SWAP4 MLOAD SWAP3 DUP6 ADD SWAP3 SWAP1 SWAP3 SSTORE SWAP1 MLOAD PUSH1 0x2 DUP1 DUP6 ADD SWAP2 SWAP1 SWAP2 SSTORE SWAP2 MLOAD PUSH1 0x3 DUP5 ADD SSTORE MLOAD PUSH1 0x4 SWAP1 SWAP3 ADD SWAP2 SWAP1 SWAP2 SSTORE DUP1 SLOAD DUP9 SWAP3 SWAP1 PUSH2 0x5A9 SWAP1 DUP5 SWAP1 PUSH2 0x12C6 JUMP JUMPDEST SWAP3 POP POP DUP2 SWAP1 SSTORE POP DUP1 PUSH1 0x3 PUSH1 0x0 DUP3 DUP3 SLOAD PUSH2 0x5C2 SWAP2 SWAP1 PUSH2 0x12C6 JUMP JUMPDEST SWAP1 SWAP2 SSTORE POP POP POP POP POP POP POP POP JUMP JUMPDEST PUSH1 0x1 PUSH1 0x1 PUSH1 0xA0 SHL SUB DUP3 AND PUSH1 0x0 SWAP1 DUP2 MSTORE PUSH1 0x7 PUSH1 0x20 MSTORE PUSH1 0x40 DUP2 KECCAK256 DUP1 SLOAD DUP3 SWAP2 SWAP1 DUP5 SWAP1 DUP2 LT PUSH2 0x5FC JUMPI PUSH2 0x5FC PUSH2 0x134D JUMP JUMPDEST PUSH1 0x0 SWAP2 DUP3 MSTORE PUSH1 0x20 DUP3 KECCAK256 PUSH1 0x1 PUSH1 0x5 SWAP1 SWAP3 MUL ADD SWAP1 DUP2 ADD SLOAD PUSH1 0x2 DUP3 ADD SLOAD SWAP2 SWAP4 POP DUP3 SWAP2 TIMESTAMP SWAP2 SWAP1 DUP4 PUSH2 0x629 DUP4 DUP4 PUSH2 0x1363 JUMP JUMPDEST DUP8 SLOAD PUSH1 0x3 DUP10 ADD SLOAD SWAP2 SWAP3 POP SWAP1 DUP4 DUP7 LT PUSH2 0x646 JUMPI DUP2 SWAP8 POP DUP1 SWAP7 POP PUSH2 0x775 JUMP JUMPDEST DUP5 PUSH1 0x64 DUP5 PUSH1 0xE PUSH1 0x0 ADD SLOAD PUSH2 0x65A SWAP2 SWAP1 PUSH2 0x12F2 JUMP JUMPDEST PUSH2 0x664 SWAP2 SWAP1 PUSH2 0x1309 JUMP JUMPDEST PUSH2 0x66E SWAP2 SWAP1 PUSH2 0x12C6 JUMP JUMPDEST DUP7 LT PUSH2 0x6B2 JUMPI PUSH1 0xF SLOAD PUSH1 0x64 SWAP1 PUSH2 0x684 SWAP1 DUP5 PUSH2 0x12F2 JUMP JUMPDEST PUSH2 0x68E SWAP2 SWAP1 PUSH2 0x1309 JUMP JUMPDEST PUSH1 0x10 SLOAD SWAP1 SWAP9 POP PUSH1 0x64 SWAP1 PUSH2 0x6A1 SWAP1 DUP4 PUSH2 0x12F2 JUMP JUMPDEST PUSH2 0x6AB SWAP2 SWAP1 PUSH2 0x1309 JUMP JUMPDEST SWAP7 POP PUSH2 0x775 JUMP JUMPDEST DUP5 PUSH1 0x64 DUP5 PUSH1 0xB PUSH1 0x0 ADD SLOAD PUSH2 0x6C6 SWAP2 SWAP1 PUSH2 0x12F2 JUMP JUMPDEST PUSH2 0x6D0 SWAP2 SWAP1 PUSH2 0x1309 JUMP JUMPDEST PUSH2 0x6DA SWAP2 SWAP1 PUSH2 0x12C6 JUMP JUMPDEST DUP7 LT PUSH2 0x70D JUMPI PUSH1 0xC SLOAD PUSH1 0x64 SWAP1 PUSH2 0x6F0 SWAP1 DUP5 PUSH2 0x12F2 JUMP JUMPDEST PUSH2 0x6FA SWAP2 SWAP1 PUSH2 0x1309 JUMP JUMPDEST PUSH1 0xD SLOAD SWAP1 SWAP9 POP PUSH1 0x64 SWAP1 PUSH2 0x6A1 SWAP1 DUP4 PUSH2 0x12F2 JUMP JUMPDEST DUP5 PUSH1 0x64 DUP5 PUSH1 0x8 PUSH1 0x0 ADD SLOAD PUSH2 0x721 SWAP2 SWAP1 PUSH2 0x12F2 JUMP JUMPDEST PUSH2 0x72B SWAP2 SWAP1 PUSH2 0x1309 JUMP JUMPDEST PUSH2 0x735 SWAP2 SWAP1 PUSH2 0x12C6 JUMP JUMPDEST DUP7 LT PUSH2 0x775 JUMPI PUSH1 0x9 SLOAD PUSH1 0x64 SWAP1 PUSH2 0x74B SWAP1 DUP5 PUSH2 0x12F2 JUMP JUMPDEST PUSH2 0x755 SWAP2 SWAP1 PUSH2 0x1309 JUMP JUMPDEST PUSH1 0xA SLOAD SWAP1 SWAP9 POP PUSH1 0x64 SWAP1 PUSH2 0x768 SWAP1 DUP4 PUSH2 0x12F2 JUMP JUMPDEST PUSH2 0x772 SWAP2 SWAP1 PUSH2 0x1309 JUMP JUMPDEST SWAP7 POP JUMPDEST PUSH2 0x77F DUP8 DUP10 PUSH2 0x12C6 JUMP JUMPDEST SWAP10 POP POP POP POP POP POP POP POP POP POP JUMPDEST SWAP3 SWAP2 POP POP JUMP JUMPDEST CALLER PUSH1 0x0 DUP2 DUP2 MSTORE PUSH1 0x7 PUSH1 0x20 MSTORE PUSH1 0x40 DUP2 KECCAK256 DUP1 SLOAD DUP5 SWAP1 DUP2 LT PUSH2 0x7B2 JUMPI PUSH2 0x7B2 PUSH2 0x134D JUMP JUMPDEST SWAP1 PUSH1 0x0 MSTORE PUSH1 0x20 PUSH1 0x0 KECCAK256 SWAP1 PUSH1 0x5 MUL ADD SWAP1 POP PUSH1 0x0 PUSH2 0x7CE DUP4 DUP6 PUSH2 0x5CF JUMP JUMPDEST SWAP1 POP PUSH1 0x0 DUP2 GT PUSH2 0x820 JUMPI PUSH1 0x40 MLOAD PUSH3 0x461BCD PUSH1 0xE5 SHL DUP2 MSTORE PUSH1 0x20 PUSH1 0x4 DUP3 ADD MSTORE PUSH1 0x1E PUSH1 0x24 DUP3 ADD MSTORE PUSH32 0x5374616B65506F6F6C3A206E6F7468696E6720746F2077697468647261770000 PUSH1 0x44 DUP3 ADD MSTORE PUSH1 0x64 ADD PUSH2 0x450 JUMP JUMPDEST TIMESTAMP PUSH1 0x4 DUP4 DUP2 ADD SWAP2 SWAP1 SWAP2 SSTORE PUSH1 0x1 SLOAD PUSH1 0x40 MLOAD PUSH4 0xA9059CBB PUSH1 0xE0 SHL DUP2 MSTORE PUSH1 0x1 PUSH1 0x1 PUSH1 0xA0 SHL SUB DUP7 DUP2 AND SWAP4 DUP3 ADD SWAP4 SWAP1 SWAP4 MSTORE PUSH1 0x24 DUP2 ADD DUP5 SWAP1 MSTORE SWAP2 AND SWAP1 PUSH4 0xA9059CBB SWAP1 PUSH1 0x44 ADD PUSH1 0x20 PUSH1 0x40 MLOAD DUP1 DUP4 SUB DUP2 PUSH1 0x0 DUP8 GAS CALL ISZERO DUP1 ISZERO PUSH2 0x87E JUMPI RETURNDATASIZE PUSH1 0x0 DUP1 RETURNDATACOPY RETURNDATASIZE PUSH1 0x0 REVERT JUMPDEST POP POP POP POP PUSH1 0x40 MLOAD RETURNDATASIZE PUSH1 0x1F NOT PUSH1 0x1F DUP3 ADD AND DUP3 ADD DUP1 PUSH1 0x40 MSTORE POP DUP2 ADD SWAP1 PUSH2 0x8A2 SWAP2 SWAP1 PUSH2 0x132B JUMP JUMPDEST POP DUP2 SLOAD PUSH1 0x2 DUP1 SLOAD PUSH1 0x0 SWAP1 PUSH2 0x8B7 SWAP1 DUP5 SWAP1 PUSH2 0x1363 JUMP JUMPDEST SWAP3 POP POP DUP2 SWAP1 SSTORE POP DUP2 PUSH1 0x3 ADD SLOAD PUSH1 0x3 PUSH1 0x0 DUP3 DUP3 SLOAD PUSH2 0x8D4 SWAP2 SWAP1 PUSH2 0x1363 JUMP JUMPDEST SWAP1 SWAP2 SSTORE POP POP POP POP POP POP JUMP JUMPDEST PUSH2 0x8E7 PUSH2 0xF45 JUMP JUMPDEST PUSH1 0x0 DUP3 DUP2 MSTORE PUSH1 0x6 PUSH1 0x20 SWAP1 DUP2 MSTORE PUSH1 0x40 DUP1 DUP4 KECCAK256 DUP5 SWAP1 SSTORE PUSH1 0x5 SWAP1 SWAP2 MSTORE SWAP1 KECCAK256 SLOAD PUSH1 0xFF AND PUSH2 0x958 JUMPI PUSH1 0x0 DUP3 DUP2 MSTORE PUSH1 0x5 PUSH1 0x20 MSTORE PUSH1 0x40 DUP2 KECCAK256 DUP1 SLOAD PUSH1 0xFF NOT AND PUSH1 0x1 SWAP1 DUP2 OR SWAP1 SWAP2 SSTORE PUSH1 0x4 DUP1 SLOAD SWAP2 DUP3 ADD DUP2 SSTORE SWAP1 SWAP2 MSTORE PUSH32 0x8A35ACFBC15FF81A39AE7D344FD709F28E8600B4AA8C65C6B64BFE7FE36BD19B ADD DUP3 SWAP1 SSTORE JUMPDEST POP POP JUMP JUMPDEST PUSH1 0x7 PUSH1 0x20 MSTORE DUP2 PUSH1 0x0 MSTORE PUSH1 0x40 PUSH1 0x0 KECCAK256 DUP2 DUP2 SLOAD DUP2 LT PUSH2 0x978 JUMPI PUSH1 0x0 DUP1 REVERT JUMPDEST PUSH1 0x0 SWAP2 DUP3 MSTORE PUSH1 0x20 SWAP1 SWAP2 KECCAK256 PUSH1 0x5 SWAP1 SWAP2 MUL ADD DUP1 SLOAD PUSH1 0x1 DUP3 ADD SLOAD PUSH1 0x2 DUP4 ADD SLOAD PUSH1 0x3 DUP5 ADD SLOAD PUSH1 0x4 SWAP1 SWAP5 ADD SLOAD SWAP3 SWAP6 POP SWAP1 SWAP4 POP SWAP2 SWAP1 DUP6 JUMP JUMPDEST PUSH2 0x9B2 PUSH2 0xF45 JUMP JUMPDEST PUSH2 0x9BA PUSH2 0xF9F JUMP JUMPDEST JUMP JUMPDEST PUSH2 0x9C4 PUSH2 0xF45 JUMP JUMPDEST PUSH1 0x40 DUP1 MLOAD PUSH1 0x60 DUP1 DUP3 ADD DUP4 MSTORE DUP12 DUP3 MSTORE PUSH1 0x20 DUP1 DUP4 ADD DUP13 SWAP1 MSTORE SWAP2 DUP4 ADD DUP11 SWAP1 MSTORE PUSH1 0x8 SWAP12 SWAP1 SWAP12 SSTORE PUSH1 0x9 SWAP10 SWAP1 SWAP10 SSTORE PUSH1 0xA SWAP8 SWAP1 SWAP8 SSTORE DUP7 MLOAD DUP1 DUP11 ADD DUP9 MSTORE DUP7 DUP2 MSTORE DUP1 DUP10 ADD DUP7 SWAP1 MSTORE DUP8 ADD DUP5 SWAP1 MSTORE PUSH1 0xB SWAP6 SWAP1 SWAP6 SSTORE PUSH1 0xC SWAP4 SWAP1 SWAP4 SSTORE PUSH1 0xD SWAP2 SWAP1 SWAP2 SSTORE DUP4 MLOAD SWAP6 DUP7 ADD DUP5 MSTORE DUP1 DUP7 MSTORE SWAP4 DUP6 ADD DUP2 SWAP1 MSTORE SWAP4 SWAP1 SWAP2 ADD DUP2 SWAP1 MSTORE PUSH1 0xE SWAP2 SWAP1 SWAP2 SSTORE PUSH1 0xF SWAP2 SWAP1 SWAP2 SSTORE PUSH1 0x10 SSTORE JUMP JUMPDEST PUSH1 0x1 PUSH1 0x1 PUSH1 0xA0 SHL SUB DUP3 AND PUSH1 0x0 SWAP1 DUP2 MSTORE PUSH1 0x7 PUSH1 0x20 MSTORE PUSH1 0x40 DUP2 KECCAK256 DUP1 SLOAD DUP4 SWAP1 DUP2 LT PUSH2 0xA6B JUMPI PUSH2 0xA6B PUSH2 0x134D JUMP JUMPDEST SWAP1 PUSH1 0x0 MSTORE PUSH1 0x20 PUSH1 0x0 KECCAK256 SWAP1 PUSH1 0x5 MUL ADD PUSH1 0x2 ADD SLOAD SWAP1 POP SWAP3 SWAP2 POP POP JUMP JUMPDEST PUSH2 0xAA9 PUSH1 0x40 MLOAD DUP1 PUSH1 0x60 ADD PUSH1 0x40 MSTORE DUP1 PUSH1 0x0 DUP2 MSTORE PUSH1 0x20 ADD PUSH1 0x0 DUP2 MSTORE PUSH1 0x20 ADD PUSH1 0x0 DUP2 MSTORE POP SWAP1 JUMP JUMPDEST PUSH2 0xACD PUSH1 0x40 MLOAD DUP1 PUSH1 0x60 ADD PUSH1 0x40 MSTORE DUP1 PUSH1 0x0 DUP2 MSTORE PUSH1 0x20 ADD PUSH1 0x0 DUP2 MSTORE PUSH1 0x20 ADD PUSH1 0x0 DUP2 MSTORE POP SWAP1 JUMP JUMPDEST PUSH2 0xAF1 PUSH1 0x40 MLOAD DUP1 PUSH1 0x60 ADD PUSH1 0x40 MSTORE DUP1 PUSH1 0x0 DUP2 MSTORE PUSH1 0x20 ADD PUSH1 0x0 DUP2 MSTORE PUSH1 0x20 ADD PUSH1 0x0 DUP2 MSTORE POP SWAP1 JUMP JUMPDEST POP POP PUSH1 0x40 DUP1 MLOAD PUSH1 0x60 DUP1 DUP3 ADD DUP4 MSTORE PUSH1 0x8 SLOAD DUP3 MSTORE PUSH1 0x9 SLOAD PUSH1 0x20 DUP1 DUP5 ADD SWAP2 SWAP1 SWAP2 MSTORE PUSH1 0xA SLOAD DUP4 DUP6 ADD MSTORE DUP4 MLOAD DUP1 DUP4 ADD DUP6 MSTORE PUSH1 0xB SLOAD DUP2 MSTORE PUSH1 0xC SLOAD DUP2 DUP4 ADD MSTORE PUSH1 0xD SLOAD DUP2 DUP7 ADD MSTORE DUP5 MLOAD SWAP3 DUP4 ADD DUP6 MSTORE PUSH1 0xE SLOAD DUP4 MSTORE PUSH1 0xF SLOAD SWAP2 DUP4 ADD SWAP2 SWAP1 SWAP2 MSTORE PUSH1 0x10 SLOAD SWAP4 DUP3 ADD SWAP4 SWAP1 SWAP4 MSTORE SWAP1 SWAP4 SWAP2 SWAP3 POP SWAP1 JUMP JUMPDEST PUSH1 0x1 PUSH1 0x1 PUSH1 0xA0 SHL SUB DUP2 AND PUSH1 0x0 SWAP1 DUP2 MSTORE PUSH1 0x7 PUSH1 0x20 MSTORE PUSH1 0x40 DUP2 KECCAK256 DUP1 SLOAD DUP3 JUMPDEST DUP2 DUP2 LT ISZERO PUSH2 0xBEB JUMPI DUP3 DUP2 DUP2 SLOAD DUP2 LT PUSH2 0xB8E JUMPI PUSH2 0xB8E PUSH2 0x134D JUMP JUMPDEST SWAP1 PUSH1 0x0 MSTORE PUSH1 0x20 PUSH1 0x0 KECCAK256 SWAP1 PUSH1 0x5 MUL ADD PUSH1 0x4 ADD SLOAD PUSH1 0x0 SUB PUSH2 0xBD9 JUMPI DUP3 DUP2 DUP2 SLOAD DUP2 LT PUSH2 0xBB9 JUMPI PUSH2 0xBB9 PUSH2 0x134D JUMP JUMPDEST SWAP1 PUSH1 0x0 MSTORE PUSH1 0x20 PUSH1 0x0 KECCAK256 SWAP1 PUSH1 0x5 MUL ADD PUSH1 0x0 ADD SLOAD DUP5 PUSH2 0xBD6 SWAP2 SWAP1 PUSH2 0x12C6 JUMP JUMPDEST SWAP4 POP JUMPDEST DUP1 PUSH2 0xBE3 DUP2 PUSH2 0x12D9 JUMP JUMPDEST SWAP2 POP POP PUSH2 0xB74 JUMP JUMPDEST POP POP POP SWAP2 SWAP1 POP JUMP JUMPDEST PUSH1 0x4 SLOAD PUSH1 0x60 SWAP1 DUP2 SWAP1 DUP1 PUSH8 0xFFFFFFFFFFFFFFFF DUP2 GT ISZERO PUSH2 0xC14 JUMPI PUSH2 0xC14 PUSH2 0x1376 JUMP JUMPDEST PUSH1 0x40 MLOAD SWAP1 DUP1 DUP3 MSTORE DUP1 PUSH1 0x20 MUL PUSH1 0x20 ADD DUP3 ADD PUSH1 0x40 MSTORE DUP1 ISZERO PUSH2 0xC3D JUMPI DUP2 PUSH1 0x20 ADD PUSH1 0x20 DUP3 MUL DUP1 CALLDATASIZE DUP4 CALLDATACOPY ADD SWAP1 POP JUMPDEST POP SWAP3 POP DUP1 PUSH8 0xFFFFFFFFFFFFFFFF DUP2 GT ISZERO PUSH2 0xC59 JUMPI PUSH2 0xC59 PUSH2 0x1376 JUMP JUMPDEST PUSH1 0x40 MLOAD SWAP1 DUP1 DUP3 MSTORE DUP1 PUSH1 0x20 MUL PUSH1 0x20 ADD DUP3 ADD PUSH1 0x40 MSTORE DUP1 ISZERO PUSH2 0xC82 JUMPI DUP2 PUSH1 0x20 ADD PUSH1 0x20 DUP3 MUL DUP1 CALLDATASIZE DUP4 CALLDATACOPY ADD SWAP1 POP JUMPDEST POP SWAP2 POP PUSH1 0x0 JUMPDEST DUP2 DUP2 LT ISZERO PUSH2 0xD2C JUMPI PUSH1 0x4 DUP2 DUP2 SLOAD DUP2 LT PUSH2 0xCA3 JUMPI PUSH2 0xCA3 PUSH2 0x134D JUMP JUMPDEST SWAP1 PUSH1 0x0 MSTORE PUSH1 0x20 PUSH1 0x0 KECCAK256 ADD SLOAD DUP5 DUP3 DUP2 MLOAD DUP2 LT PUSH2 0xCC0 JUMPI PUSH2 0xCC0 PUSH2 0x134D JUMP JUMPDEST PUSH1 0x20 MUL PUSH1 0x20 ADD ADD DUP2 DUP2 MSTORE POP POP PUSH1 0x6 PUSH1 0x0 PUSH1 0x4 DUP4 DUP2 SLOAD DUP2 LT PUSH2 0xCE3 JUMPI PUSH2 0xCE3 PUSH2 0x134D JUMP JUMPDEST SWAP1 PUSH1 0x0 MSTORE PUSH1 0x20 PUSH1 0x0 KECCAK256 ADD SLOAD DUP2 MSTORE PUSH1 0x20 ADD SWAP1 DUP2 MSTORE PUSH1 0x20 ADD PUSH1 0x0 KECCAK256 SLOAD DUP4 DUP3 DUP2 MLOAD DUP2 LT PUSH2 0xD0F JUMPI PUSH2 0xD0F PUSH2 0x134D JUMP JUMPDEST PUSH1 0x20 SWAP1 DUP2 MUL SWAP2 SWAP1 SWAP2 ADD ADD MSTORE DUP1 PUSH2 0xD24 DUP2 PUSH2 0x12D9 JUMP JUMPDEST SWAP2 POP POP PUSH2 0xC88 JUMP JUMPDEST POP POP SWAP1 SWAP2 JUMP JUMPDEST PUSH2 0xD3A PUSH2 0xF45 JUMP JUMPDEST PUSH2 0x9BA PUSH1 0x0 PUSH2 0xFF4 JUMP JUMPDEST PUSH2 0xD4C PUSH2 0xF45 JUMP JUMPDEST PUSH2 0x9BA PUSH2 0x1044 JUMP JUMPDEST PUSH2 0xD5C PUSH2 0xF45 JUMP JUMPDEST PUSH1 0x1 SLOAD PUSH1 0x40 MLOAD PUSH4 0xA9059CBB PUSH1 0xE0 SHL DUP2 MSTORE PUSH1 0x1 PUSH1 0x1 PUSH1 0xA0 SHL SUB DUP5 DUP2 AND PUSH1 0x4 DUP4 ADD MSTORE PUSH1 0x24 DUP3 ADD DUP5 SWAP1 MSTORE SWAP1 SWAP2 AND SWAP1 PUSH4 0xA9059CBB SWAP1 PUSH1 0x44 ADD PUSH1 0x20 PUSH1 0x40 MLOAD DUP1 DUP4 SUB DUP2 PUSH1 0x0 DUP8 GAS CALL ISZERO DUP1 ISZERO PUSH2 0xDAF JUMPI RETURNDATASIZE PUSH1 0x0 DUP1 RETURNDATACOPY RETURNDATASIZE PUSH1 0x0 REVERT JUMPDEST POP POP POP POP PUSH1 0x40 MLOAD RETURNDATASIZE PUSH1 0x1F NOT PUSH1 0x1F DUP3 ADD AND DUP3 ADD DUP1 PUSH1 0x40 MSTORE POP DUP2 ADD SWAP1 PUSH2 0xDD3 SWAP2 SWAP1 PUSH2 0x132B JUMP JUMPDEST POP POP POP JUMP JUMPDEST PUSH1 0x1 PUSH1 0x1 PUSH1 0xA0 SHL SUB DUP2 AND PUSH1 0x0 SWAP1 DUP2 MSTORE PUSH1 0x7 PUSH1 0x20 SWAP1 DUP2 MSTORE PUSH1 0x40 DUP1 DUP4 KECCAK256 DUP1 SLOAD DUP3 MLOAD DUP2 DUP6 MUL DUP2 ADD DUP6 ADD SWAP1 SWAP4 MSTORE DUP1 DUP4 MSTORE PUSH1 0x60 SWAP5 SWAP3 SWAP4 SWAP2 SWAP3 SWAP1 SWAP2 DUP5 ADD JUMPDEST DUP3 DUP3 LT ISZERO PUSH2 0xE74 JUMPI DUP4 DUP3 SWAP1 PUSH1 0x0 MSTORE PUSH1 0x20 PUSH1 0x0 KECCAK256 SWAP1 PUSH1 0x5 MUL ADD PUSH1 0x40 MLOAD DUP1 PUSH1 0xA0 ADD PUSH1 0x40 MSTORE SWAP1 DUP2 PUSH1 0x0 DUP3 ADD SLOAD DUP2 MSTORE PUSH1 0x20 ADD PUSH1 0x1 DUP3 ADD SLOAD DUP2 MSTORE PUSH1 0x20 ADD PUSH1 0x2 DUP3 ADD SLOAD DUP2 MSTORE PUSH1 0x20 ADD PUSH1 0x3 DUP3 ADD SLOAD DUP2 MSTORE PUSH1 0x20 ADD PUSH1 0x4 DUP3 ADD SLOAD DUP2 MSTORE POP POP DUP2 MSTORE PUSH1 0x20 ADD SWAP1 PUSH1 0x1 ADD SWAP1 PUSH2 0xE10 JUMP JUMPDEST POP POP POP POP SWAP1 POP SWAP2 SWAP1 POP JUMP JUMPDEST PUSH2 0xE87 PUSH2 0xF45 JUMP JUMPDEST PUSH1 0x1 PUSH1 0x1 PUSH1 0xA0 SHL SUB DUP2 AND PUSH2 0xEEC JUMPI PUSH1 0x40 MLOAD PUSH3 0x461BCD PUSH1 0xE5 SHL DUP2 MSTORE PUSH1 0x20 PUSH1 0x4 DUP3 ADD MSTORE PUSH1 0x26 PUSH1 0x24 DUP3 ADD MSTORE PUSH32 0x4F776E61626C653A206E6577206F776E657220697320746865207A65726F2061 PUSH1 0x44 DUP3 ADD MSTORE PUSH6 0x646472657373 PUSH1 0xD0 SHL PUSH1 0x64 DUP3 ADD MSTORE PUSH1 0x84 ADD PUSH2 0x450 JUMP JUMPDEST PUSH2 0xEF5 DUP2 PUSH2 0xFF4 JUMP JUMPDEST POP JUMP JUMPDEST PUSH1 0x0 SLOAD PUSH1 0x1 PUSH1 0xA0 SHL SWAP1 DIV PUSH1 0xFF AND ISZERO PUSH2 0x9BA JUMPI PUSH1 0x40 MLOAD PUSH3 0x461BCD PUSH1 0xE5 SHL DUP2 MSTORE PUSH1 0x20 PUSH1 0x4 DUP3 ADD MSTORE PUSH1 0x10 PUSH1 0x24 DUP3 ADD MSTORE PUSH16 0x14185D5CD8589B194E881C185D5CD959 PUSH1 0x82 SHL PUSH1 0x44 DUP3 ADD MSTORE PUSH1 0x64 ADD PUSH2 0x450 JUMP JUMPDEST PUSH1 0x0 SLOAD PUSH1 0x1 PUSH1 0x1 PUSH1 0xA0 SHL SUB AND CALLER EQ PUSH2 0x9BA JUMPI PUSH1 0x40 MLOAD PUSH3 0x461BCD PUSH1 0xE5 SHL DUP2 MSTORE PUSH1 0x20 PUSH1 0x4 DUP3 ADD DUP2 SWAP1 MSTORE PUSH1 0x24 DUP3 ADD MSTORE PUSH32 0x4F776E61626C653A2063616C6C6572206973206E6F7420746865206F776E6572 PUSH1 0x44 DUP3 ADD MSTORE PUSH1 0x64 ADD PUSH2 0x450 JUMP JUMPDEST PUSH2 0xFA7 PUSH2 0x1087 JUMP JUMPDEST PUSH1 0x0 DUP1 SLOAD PUSH1 0xFF PUSH1 0xA0 SHL NOT AND SWAP1 SSTORE PUSH32 0x5DB9EE0A495BF2E6FF9C91A7834C1BA4FDD244A5E8AA4E537BD38AEAE4B073AA CALLER JUMPDEST PUSH1 0x40 MLOAD PUSH1 0x1 PUSH1 0x1 PUSH1 0xA0 SHL SUB SWAP1 SWAP2 AND DUP2 MSTORE PUSH1 0x20 ADD PUSH1 0x40 MLOAD DUP1 SWAP2 SUB SWAP1 LOG1 JUMP JUMPDEST PUSH1 0x0 DUP1 SLOAD PUSH1 0x1 PUSH1 0x1 PUSH1 0xA0 SHL SUB DUP4 DUP2 AND PUSH1 0x1 PUSH1 0x1 PUSH1 0xA0 SHL SUB NOT DUP4 AND DUP2 OR DUP5 SSTORE PUSH1 0x40 MLOAD SWAP2 SWAP1 SWAP3 AND SWAP3 DUP4 SWAP2 PUSH32 0x8BE0079C531659141344CD1FD0A4F28419497F9722A3DAAFE3B4186F6B6457E0 SWAP2 SWAP1 LOG3 POP POP JUMP JUMPDEST PUSH2 0x104C PUSH2 0xEF8 JUMP JUMPDEST PUSH1 0x0 DUP1 SLOAD PUSH1 0xFF PUSH1 0xA0 SHL NOT AND PUSH1 0x1 PUSH1 0xA0 SHL OR SWAP1 SSTORE PUSH32 0x62E78CEA01BEE320CD4E420270B5EA74000D11B0C9F74754EBDBFC544B05A258 PUSH2 0xFD7 CALLER SWAP1 JUMP JUMPDEST PUSH1 0x0 SLOAD PUSH1 0x1 PUSH1 0xA0 SHL SWAP1 DIV PUSH1 0xFF AND PUSH2 0x9BA JUMPI PUSH1 0x40 MLOAD PUSH3 0x461BCD PUSH1 0xE5 SHL DUP2 MSTORE PUSH1 0x20 PUSH1 0x4 DUP3 ADD MSTORE PUSH1 0x14 PUSH1 0x24 DUP3 ADD MSTORE PUSH20 0x14185D5CD8589B194E881B9BDD081C185D5CD959 PUSH1 0x62 SHL PUSH1 0x44 DUP3 ADD MSTORE PUSH1 0x64 ADD PUSH2 0x450 JUMP JUMPDEST DUP1 CALLDATALOAD PUSH1 0x1 PUSH1 0x1 PUSH1 0xA0 SHL SUB DUP2 AND DUP2 EQ PUSH2 0x10EE JUMPI PUSH1 0x0 DUP1 REVERT JUMPDEST SWAP2 SWAP1 POP JUMP JUMPDEST PUSH1 0x0 PUSH1 0x20 DUP3 DUP5 SUB SLT ISZERO PUSH2 0x1105 JUMPI PUSH1 0x0 DUP1 REVERT JUMPDEST PUSH2 0x110E DUP3 PUSH2 0x10D7 JUMP JUMPDEST SWAP4 SWAP3 POP POP POP JUMP JUMPDEST PUSH1 0x0 DUP1 PUSH1 0x40 DUP4 DUP6 SUB SLT ISZERO PUSH2 0x1128 JUMPI PUSH1 0x0 DUP1 REVERT JUMPDEST POP POP DUP1 CALLDATALOAD SWAP3 PUSH1 0x20 SWAP1 SWAP2 ADD CALLDATALOAD SWAP2 POP JUMP JUMPDEST PUSH1 0x0 DUP1 PUSH1 0x40 DUP4 DUP6 SUB SLT ISZERO PUSH2 0x114A JUMPI PUSH1 0x0 DUP1 REVERT JUMPDEST PUSH2 0x1153 DUP4 PUSH2 0x10D7 JUMP JUMPDEST SWAP5 PUSH1 0x20 SWAP4 SWAP1 SWAP4 ADD CALLDATALOAD SWAP4 POP POP POP JUMP JUMPDEST PUSH1 0x0 PUSH1 0x20 DUP3 DUP5 SUB SLT ISZERO PUSH2 0x1173 JUMPI PUSH1 0x0 DUP1 REVERT JUMPDEST POP CALLDATALOAD SWAP2 SWAP1 POP JUMP JUMPDEST PUSH1 0x0 DUP1 PUSH1 0x0 DUP1 PUSH1 0x0 DUP1 PUSH1 0x0 DUP1 PUSH1 0x0 PUSH2 0x120 DUP11 DUP13 SUB SLT ISZERO PUSH2 0x1199 JUMPI PUSH1 0x0 DUP1 REVERT JUMPDEST POP POP DUP8 CALLDATALOAD SWAP10 PUSH1 0x20 DUP10 ADD CALLDATALOAD SWAP10 POP PUSH1 0x40 DUP10 ADD CALLDATALOAD SWAP9 PUSH1 0x60 DUP2 ADD CALLDATALOAD SWAP9 POP PUSH1 0x80 DUP2 ADD CALLDATALOAD SWAP8 POP PUSH1 0xA0 DUP2 ADD CALLDATALOAD SWAP7 POP PUSH1 0xC0 DUP2 ADD CALLDATALOAD SWAP6 POP PUSH1 0xE0 DUP2 ADD CALLDATALOAD SWAP5 POP PUSH2 0x100 ADD CALLDATALOAD SWAP3 POP SWAP1 POP JUMP JUMPDEST PUSH1 0x0 DUP2 MLOAD DUP1 DUP5 MSTORE PUSH1 0x20 DUP1 DUP6 ADD SWAP5 POP DUP1 DUP5 ADD PUSH1 0x0 JUMPDEST DUP4 DUP2 LT ISZERO PUSH2 0x1209 JUMPI DUP2 MLOAD DUP8 MSTORE SWAP6 DUP3 ADD SWAP6 SWAP1 DUP3 ADD SWAP1 PUSH1 0x1 ADD PUSH2 0x11ED JUMP JUMPDEST POP SWAP5 SWAP6 SWAP5 POP POP POP POP POP JUMP JUMPDEST PUSH1 0x40 DUP2 MSTORE PUSH1 0x0 PUSH2 0x1227 PUSH1 0x40 DUP4 ADD DUP6 PUSH2 0x11D9 JUMP JUMPDEST DUP3 DUP2 SUB PUSH1 0x20 DUP5 ADD MSTORE PUSH2 0x1239 DUP2 DUP6 PUSH2 0x11D9 JUMP JUMPDEST SWAP6 SWAP5 POP POP POP POP POP JUMP JUMPDEST PUSH1 0x20 DUP1 DUP3 MSTORE DUP3 MLOAD DUP3 DUP3 ADD DUP2 SWAP1 MSTORE PUSH1 0x0 SWAP2 SWAP1 PUSH1 0x40 SWAP1 DUP2 DUP6 ADD SWAP1 DUP7 DUP5 ADD DUP6 JUMPDEST DUP3 DUP2 LT ISZERO PUSH2 0x12A3 JUMPI DUP2 MLOAD DUP1 MLOAD DUP6 MSTORE DUP7 DUP2 ADD MLOAD DUP8 DUP7 ADD MSTORE DUP6 DUP2 ADD MLOAD DUP7 DUP7 ADD MSTORE PUSH1 0x60 DUP1 DUP3 ADD MLOAD SWAP1 DUP7 ADD MSTORE PUSH1 0x80 SWAP1 DUP2 ADD MLOAD SWAP1 DUP6 ADD MSTORE PUSH1 0xA0 SWAP1 SWAP4 ADD SWAP3 SWAP1 DUP6 ADD SWAP1 PUSH1 0x1 ADD PUSH2 0x125F JUMP JUMPDEST POP SWAP2 SWAP8 SWAP7 POP POP POP POP POP POP POP JUMP JUMPDEST PUSH4 0x4E487B71 PUSH1 0xE0 SHL PUSH1 0x0 MSTORE PUSH1 0x11 PUSH1 0x4 MSTORE PUSH1 0x24 PUSH1 0x0 REVERT JUMPDEST DUP1 DUP3 ADD DUP1 DUP3 GT ISZERO PUSH2 0x78B JUMPI PUSH2 0x78B PUSH2 0x12B0 JUMP JUMPDEST PUSH1 0x0 PUSH1 0x1 DUP3 ADD PUSH2 0x12EB JUMPI PUSH2 0x12EB PUSH2 0x12B0 JUMP JUMPDEST POP PUSH1 0x1 ADD SWAP1 JUMP JUMPDEST DUP1 DUP3 MUL DUP2 ISZERO DUP3 DUP3 DIV DUP5 EQ OR PUSH2 0x78B JUMPI PUSH2 0x78B PUSH2 0x12B0 JUMP JUMPDEST PUSH1 0x0 DUP3 PUSH2 0x1326 JUMPI PUSH4 0x4E487B71 PUSH1 0xE0 SHL PUSH1 0x0 MSTORE PUSH1 0x12 PUSH1 0x4 MSTORE PUSH1 0x24 PUSH1 0x0 REVERT JUMPDEST POP DIV SWAP1 JUMP JUMPDEST PUSH1 0x0 PUSH1 0x20 DUP3 DUP5 SUB SLT ISZERO PUSH2 0x133D JUMPI PUSH1 0x0 DUP1 REVERT JUMPDEST DUP2 MLOAD DUP1 ISZERO ISZERO DUP2 EQ PUSH2 0x110E JUMPI PUSH1 0x0 DUP1 REVERT JUMPDEST PUSH4 0x4E487B71 PUSH1 0xE0 SHL PUSH1 0x0 MSTORE PUSH1 0x32 PUSH1 0x4 MSTORE PUSH1 0x24 PUSH1 0x0 REVERT JUMPDEST DUP2 DUP2 SUB DUP2 DUP2 GT ISZERO PUSH2 0x78B JUMPI PUSH2 0x78B PUSH2 0x12B0 JUMP JUMPDEST PUSH4 0x4E487B71 PUSH1 0xE0 SHL PUSH1 0x0 MSTORE PUSH1 0x41 PUSH1 0x4 MSTORE PUSH1 0x24 PUSH1 0x0 REVERT INVALID LOG2 PUSH5 0x6970667358 0x22 SLT KECCAK256 0xEE PUSH21 0xCE64C09DA3556CC5C6DEC728D588F35D5134274CAD PC CODECOPY 0x25 0xEF 0xE2 0xB3 SSTORE CALLDATASIZE DUP1 PUSH5 0x736F6C6343 STOP ADDMOD SLT STOP CALLER "},"methodIdentifiers":{"BLB()":"bfa54b3f","checkpoints()":"5a48c0b0","investments(address,uint256)":"3e6d9770","loanBLB(address,uint256)":"a2fa0c75","newInvestment(uint256,uint256)":"28583365","owner()":"8da5cb5b","pause()":"8456cb59","paused()":"5c975abb","pendingWithdrawal(address)":"0964c95b","pendingWithdrawal(address,uint256)":"2bf0da7e","plans()":"64eb1b21","releaseTime(address,uint256)":"4983c3ab","renounceOwnership()":"715018a6","rewardPlans(uint256)":"88a9931f","setCheckpoints(uint256,uint256,uint256,uint256,uint256,uint256,uint256,uint256,uint256)":"4668d866","setPlan(uint256,uint256)":"3353561d","totalDepositBLB()":"0c736b35","totalPendingBLB()":"e88cf1b4","transferOwnership(address)":"f2fde38b","unpause()":"3f4ba83a","userInvestments(address)":"b023eba5","userTotalStake(address)":"5b91c512","withdraw(uint256)":"2e1a7d4d"}}}}}