{"contracts/BLBIO/BLBIO.sol":{"BLBIO":{"abi":[{"inputs":[{"internalType":"address","name":"_BLBAddr","type":"address"},{"internalType":"address","name":"_BUSDAddr","type":"address"},{"internalType":"address","name":"_AGGREGATORAddr","type":"address"},{"internalType":"uint256","name":"_publicBLBsPerUSD","type":"uint256"},{"internalType":"uint256","name":"_privateBLBsPerUSD","type":"uint256"},{"internalType":"uint256","name":"_retailLimitUSD","type":"uint256"},{"internalType":"uint256","name":"_minUSDLimit","type":"uint256"}],"stateMutability":"nonpayable","type":"constructor"},{"anonymous":false,"inputs":[{"indexed":true,"internalType":"address","name":"claimant","type":"address"},{"indexed":false,"internalType":"uint256","name":"amountBLB","type":"uint256"}],"name":"Claim","type":"event"},{"anonymous":false,"inputs":[{"indexed":true,"internalType":"address","name":"previousOwner","type":"address"},{"indexed":true,"internalType":"address","name":"newOwner","type":"address"}],"name":"OwnershipTransferred","type":"event"},{"anonymous":false,"inputs":[{"indexed":true,"internalType":"address","name":"purchaser","type":"address"},{"indexed":true,"internalType":"string","name":"tokenPaid","type":"string"},{"indexed":false,"internalType":"uint256","name":"amountPaid","type":"uint256"},{"indexed":false,"internalType":"uint256","name":"amountBLB","type":"uint256"}],"name":"Purchase","type":"event"},{"anonymous":false,"inputs":[{"indexed":true,"internalType":"uint256","name":"publicBLBsAmount","type":"uint256"},{"indexed":true,"internalType":"uint256","name":"privateBLBsAmount","type":"uint256"}],"name":"SetBLBsPerUSD","type":"event"},{"anonymous":false,"inputs":[{"indexed":true,"internalType":"uint256","name":"_minAmountUSD","type":"uint256"}],"name":"SetMinUSDLimit","type":"event"},{"anonymous":false,"inputs":[{"indexed":true,"internalType":"uint256","name":"_retailLimit","type":"uint256"}],"name":"SetRetailLimit","type":"event"},{"anonymous":false,"inputs":[{"indexed":false,"internalType":"bool","name":"situation","type":"bool"}],"name":"SoldOut","type":"event"},{"anonymous":false,"inputs":[{"indexed":true,"internalType":"string","name":"tokenName","type":"string"},{"indexed":false,"internalType":"uint256","name":"amount","type":"uint256"}],"name":"Withdraw","type":"event"},{"inputs":[],"name":"BLB","outputs":[{"internalType":"contract IERC20","name":"","type":"address"}],"stateMutability":"view","type":"function"},{"inputs":[{"internalType":"uint256","name":"amountBNB","type":"uint256"}],"name":"BLBsForBNB","outputs":[{"internalType":"uint256","name":"","type":"uint256"}],"stateMutability":"view","type":"function"},{"inputs":[{"internalType":"uint256","name":"amountBUSD","type":"uint256"}],"name":"BLBsForUSD","outputs":[{"internalType":"uint256","name":"","type":"uint256"}],"stateMutability":"view","type":"function"},{"inputs":[],"name":"BUSD","outputs":[{"internalType":"contract IERC20","name":"","type":"address"}],"stateMutability":"view","type":"function"},{"inputs":[],"name":"TotalClaimable","outputs":[{"internalType":"uint256","name":"","type":"uint256"}],"stateMutability":"view","type":"function"},{"inputs":[],"name":"blbBalance","outputs":[{"internalType":"uint256","name":"","type":"uint256"}],"stateMutability":"view","type":"function"},{"inputs":[],"name":"bnbBalance","outputs":[{"internalType":"uint256","name":"","type":"uint256"}],"stateMutability":"view","type":"function"},{"inputs":[],"name":"busdBalance","outputs":[{"internalType":"uint256","name":"","type":"uint256"}],"stateMutability":"view","type":"function"},{"inputs":[],"name":"claim","outputs":[],"stateMutability":"nonpayable","type":"function"},{"inputs":[{"internalType":"address","name":"claimant","type":"address"}],"name":"claimable","outputs":[{"internalType":"uint256","name":"","type":"uint256"}],"stateMutability":"view","type":"function"},{"inputs":[],"name":"claimableFraction","outputs":[{"internalType":"uint256","name":"","type":"uint256"}],"stateMutability":"view","type":"function"},{"inputs":[{"internalType":"address","name":"addr","type":"address"},{"internalType":"uint256","name":"amount","type":"uint256"},{"internalType":"bool","name":"freeToClaim","type":"bool"}],"name":"giftBLB","outputs":[],"stateMutability":"nonpayable","type":"function"},{"inputs":[{"internalType":"uint256","name":"fraction","type":"uint256"}],"name":"increaseClaimableFraction","outputs":[],"stateMutability":"nonpayable","type":"function"},{"inputs":[],"name":"minUSDLimit","outputs":[{"internalType":"uint256","name":"","type":"uint256"}],"stateMutability":"view","type":"function"},{"inputs":[],"name":"owner","outputs":[{"internalType":"address","name":"","type":"address"}],"stateMutability":"view","type":"function"},{"inputs":[],"name":"priceBNB","outputs":[{"internalType":"uint256","name":"","type":"uint256"}],"stateMutability":"view","type":"function"},{"inputs":[],"name":"privateBLBsPerUSD","outputs":[{"internalType":"uint256","name":"","type":"uint256"}],"stateMutability":"view","type":"function"},{"inputs":[],"name":"publicBLBsPerUSD","outputs":[{"internalType":"uint256","name":"","type":"uint256"}],"stateMutability":"view","type":"function"},{"inputs":[],"name":"purchaseInBNB","outputs":[],"stateMutability":"payable","type":"function"},{"inputs":[{"internalType":"uint256","name":"amountBUSD","type":"uint256"}],"name":"purchaseInBUSD","outputs":[],"stateMutability":"nonpayable","type":"function"},{"inputs":[],"name":"renounceOwnership","outputs":[],"stateMutability":"nonpayable","type":"function"},{"inputs":[],"name":"retailLimit","outputs":[{"internalType":"uint256","name":"","type":"uint256"}],"stateMutability":"view","type":"function"},{"inputs":[{"internalType":"uint256","name":"publiceBLBsAmount","type":"uint256"},{"internalType":"uint256","name":"privateBLBsAmount","type":"uint256"}],"name":"setBLBsPerUSD","outputs":[],"stateMutability":"nonpayable","type":"function"},{"inputs":[{"internalType":"uint256","name":"amountUSD","type":"uint256"}],"name":"setMinUSDLimit","outputs":[],"stateMutability":"nonpayable","type":"function"},{"inputs":[{"internalType":"uint256","name":"amountUSD","type":"uint256"}],"name":"setRetailLimit","outputs":[],"stateMutability":"nonpayable","type":"function"},{"inputs":[],"name":"setSoldOut","outputs":[],"stateMutability":"nonpayable","type":"function"},{"inputs":[],"name":"soldOut","outputs":[{"internalType":"bool","name":"","type":"bool"}],"stateMutability":"view","type":"function"},{"inputs":[{"internalType":"address","name":"claimant","type":"address"}],"name":"totalClaimable","outputs":[{"internalType":"uint256","name":"","type":"uint256"}],"stateMutability":"view","type":"function"},{"inputs":[{"internalType":"address","name":"newOwner","type":"address"}],"name":"transferOwnership","outputs":[],"stateMutability":"nonpayable","type":"function"},{"inputs":[{"internalType":"uint256","name":"amount","type":"uint256"}],"name":"withdrawBLB","outputs":[],"stateMutability":"nonpayable","type":"function"},{"inputs":[{"internalType":"uint256","name":"amount","type":"uint256"}],"name":"withdrawBNB","outputs":[],"stateMutability":"nonpayable","type":"function"},{"inputs":[{"internalType":"uint256","name":"amount","type":"uint256"}],"name":"withdrawBUSD","outputs":[],"stateMutability":"nonpayable","type":"function"}],"evm":{"bytecode":{"linkReferences":{},"object":"60a06040523480156200001157600080fd5b5060405162001811380380620018118339810160408190526200003491620002c2565b6200003f33620000a1565b600780546001600160a01b03808a166001600160a01b03199283161790925560088054898416921691909117905585166080526200007e8484620000f1565b6200008982620001cd565b62000094816200020a565b5050505050505062000333565b600080546001600160a01b038381166001600160a01b0319831681178455604051919092169283917f8be0079c531659141344cd1fd0a4f28419497f9722a3daafe3b4186f6b6457e09190a35050565b620000fb62000247565b80821115620001925760405162461bcd60e51b815260206004820152605260248201527f424c42494f41646d696e697374726174696f6e3a207072697661746520616d6f60448201527f756e74206d7573742062652067726561746572207468616e206f7220657175616064820152711b081d1bc81c1d589b1a58c8185b5bdd5b9d60721b608482015260a4015b60405180910390fd5b60018290556002819055604051819083907f7265992886306009eee65b4e4dde87d78f812dd7e571200c26b2516940938ccd90600090a35050565b620001d762000247565b600381905560405181907f8585f06828ed2d9126b998a9d431d18854350c2d883a903f957b1f6e77f6ca2490600090a250565b6200021462000247565b600481905560405181907f804645afd4337b278832507209786ceb0ac8a6704326f397210a12287e73b86390600090a250565b6000546001600160a01b03163314620002a35760405162461bcd60e51b815260206004820181905260248201527f4f776e61626c653a2063616c6c6572206973206e6f7420746865206f776e6572604482015260640162000189565b565b80516001600160a01b0381168114620002bd57600080fd5b919050565b600080600080600080600060e0888a031215620002de57600080fd5b620002e988620002a5565b9650620002f960208901620002a5565b95506200030960408901620002a5565b9450606088015193506080880151925060a0880151915060c0880151905092959891949750929550565b6080516114c26200034f6000396000610c6d01526114c26000f3fe6080604052600436106101e35760003560e01c8063893da6c911610102578063c9e3c9c711610095578063d013cbe211610064578063d013cbe214610524578063dc39ca7a14610537578063e00115f61461054c578063f2fde38b1461056157600080fd5b8063c9e3c9c7146104a4578063cc205db3146104c4578063cc3bcaf3146104e4578063ce9d3b091461050457600080fd5b8063bc07d85c116100d1578063bc07d85c14610439578063be5be21114610459578063bfa54b3f1461046e578063c91d23e71461048e57600080fd5b8063893da6c9146103bf5780638da5cb5b146103f0578063a8f70d0f1461040e578063b1479b7f1461042357600080fd5b8063484f4ea91161017a578063715018a611610149578063715018a61461036c578063790b284f146103815780637f04e0e11461039757806384d30eaa146103b757600080fd5b8063484f4ea9146102df5780634e71d92d146103175780635b0dfa951461032c5780635fd033311461034c57600080fd5b80631dfce5c6116101b65780631dfce5c6146102695780632acbaea514610289578063402914f5146102a95780634426a263146102c957600080fd5b80630b8c6e29146101e8578063127f4b2e1461020a578063158b072c1461022a578063192ab18614610253575b600080fd5b3480156101f457600080fd5b50610208610203366004611321565b610581565b005b34801561021657600080fd5b50610208610225366004611321565b6105bc565b34801561023657600080fd5b5061024060055481565b6040519081526020015b60405180910390f35b34801561025f57600080fd5b5061024060045481565b34801561027557600080fd5b50610240610284366004611356565b61064b565b34801561029557600080fd5b506102086102a4366004611371565b61067b565b3480156102b557600080fd5b506102406102c4366004611356565b610754565b3480156102d557600080fd5b5061024060065481565b3480156102eb57600080fd5b506008546102ff906001600160a01b031681565b6040516001600160a01b03909116815260200161024a565b34801561032357600080fd5b506102086107ae565b34801561033857600080fd5b50610208610347366004611321565b6109bc565b34801561035857600080fd5b50610240610367366004611321565b6109f7565b34801561037857600080fd5b50610208610a71565b34801561038d57600080fd5b5061024060035481565b3480156103a357600080fd5b506102086103b2366004611321565b610a85565b610208610b36565b3480156103cb57600080fd5b506008546103e090600160a01b900460ff1681565b604051901515815260200161024a565b3480156103fc57600080fd5b506000546001600160a01b03166102ff565b34801561041a57600080fd5b50610240610c69565b34801561042f57600080fd5b5061024060025481565b34801561044557600080fd5b50610240610454366004611321565b610cf2565b34801561046557600080fd5b50610208610d79565b34801561047a57600080fd5b506007546102ff906001600160a01b031681565b34801561049a57600080fd5b5061024060015481565b3480156104b057600080fd5b506102086104bf3660046113a1565b610df6565b3480156104d057600080fd5b506102086104df366004611321565b610ec2565b3480156104f057600080fd5b506102086104ff366004611321565b61104a565b34801561051057600080fd5b5061020861051f366004611321565b6110fc565b34801561053057600080fd5b5047610240565b34801561054357600080fd5b50610240611186565b34801561055857600080fd5b506102406111d0565b34801561056d57600080fd5b5061020861057c366004611356565b611201565b610589611277565b600481905560405181907f804645afd4337b278832507209786ceb0ac8a6704326f397210a12287e73b86390600090a250565b6105c4611277565b600080546040516001600160a01b039091169183156108fc02918491818181858888f193505050501580156105fd573d6000803e3d6000fd5b506040516221272160e91b81526003015b604051908190038120828252907ffd950f75bf83187106ca979032c87af4e8bedbeff7455cba6df787f978267f299060200160405180910390a250565b6001600160a01b03811660009081526009602052604081206001810154815461067491906113f7565b9392505050565b610683611277565b808211156107195760405162461bcd60e51b815260206004820152605260248201527f424c42494f41646d696e697374726174696f6e3a207072697661746520616d6f60448201527f756e74206d7573742062652067726561746572207468616e206f7220657175616064820152711b081d1bc81c1d589b1a58c8185b5bdd5b9d60721b608482015260a4015b60405180910390fd5b60018290556002819055604051819083907f7265992886306009eee65b4e4dde87d78f812dd7e571200c26b2516940938ccd90600090a35050565b6001600160a01b0381166000908152600960205260408120600281015460ff1615610782576106748361064b565b60018101546005548254620f42409161079a9161140a565b6107a49190611421565b61067491906113f7565b336000818152600960205260408120906107c783610754565b9050806000036108195760405162461bcd60e51b815260206004820152601f60248201527f424c42494f3a207468657265206973206e6f20424c4220746f20636c61696d006044820152606401610710565b6007546040516370a0823160e01b815230600482015282916001600160a01b0316906370a0823190602401602060405180830381865afa158015610861573d6000803e3d6000fd5b505050506040513d601f19601f820116820180604052508101906108859190611443565b10156108e35760405162461bcd60e51b815260206004820152602760248201527f424c42494f3a20696e73756666696369656e7420424c4220696e2074686520636044820152661bdb9d1c9858dd60ca1b6064820152608401610710565b808260010160008282546108f7919061145c565b909155505060075460405163a9059cbb60e01b81526001600160a01b038581166004830152602482018490529091169063a9059cbb906044016020604051808303816000875af115801561094f573d6000803e3d6000fd5b505050506040513d601f19601f82011682018060405250810190610973919061146f565b50826001600160a01b03167f47cee97cb7acd717b3c0aa1435d004cd5b3c8c57d70dbceb4e4458bbd60e39d4826040516109af91815260200190565b60405180910390a2505050565b6109c4611277565b600381905560405181907f8585f06828ed2d9126b998a9d431d18854350c2d883a903f957b1f6e77f6ca2490600090a250565b600854600090600160a01b900460ff1615610a475760405162461bcd60e51b815260206004820152601060248201526f424c42494f3a20736f6c64206f75742160801b6044820152606401610710565b610a6b6305f5e100610a57610c69565b610a61908561140a565b6104549190611421565b92915050565b610a79611277565b610a8360006112d1565b565b610a8d611277565b6007546001600160a01b031663a9059cbb610ab06000546001600160a01b031690565b6040516001600160e01b031960e084901b1681526001600160a01b039091166004820152602481018490526044016020604051808303816000875af1158015610afd573d6000803e3d6000fd5b505050506040513d601f19601f82011682018060405250810190610b21919061146f565b506040516221262160e91b815260030161060e565b33346000610b43826109f7565b90506004546305f5e100610b55610c69565b610b5f908561140a565b610b699190611421565b1015610bc35760405162461bcd60e51b815260206004820152602360248201527f424c42494f3a206c657373207468616e206d696e696d756d20616d6f756e742060448201526221272160e91b6064820152608401610710565b6001600160a01b03831660009081526009602052604081208054839290610beb90849061145c565b925050819055508060066000828254610c04919061145c565b90915550506040516221272160e91b81526003016040805191829003822084835260208301849052916001600160a01b038616917facd81379883abf90827a751c8100bec3c4d1f66dbba0f8f8b412a049f0a03d7091015b60405180910390a3505050565b60007f00000000000000000000000000000000000000000000000000000000000000006001600160a01b03166350d25bcd6040518163ffffffff1660e01b8152600401602060405180830381865afa158015610cc9573d6000803e3d6000fd5b505050506040513d601f19601f82011682018060405250810190610ced9190611443565b905090565b600854600090600160a01b900460ff1615610d425760405162461bcd60e51b815260206004820152601060248201526f424c42494f3a20736f6c64206f75742160801b6044820152606401610710565b6000600354831015610d5657600154610d5a565b6002545b9050670de0b6b3a7640000610d6f848361140a565b6106749190611421565b610d81611277565b600854600160a01b900460ff16610d99576001610d9c565b60005b6008805460ff60a01b1916600160a01b9215158302179081905560405160ff9290910491909116151581527f0a3cfaceb3e57ff8026ea1ea844ce08ca4b74964e184e542ea2ab22605e34f629060200160405180910390a1565b610dfe611277565b6001600160a01b03831660009081526009602052604081208054849290610e2690849061145c565b90915550506001600160a01b0383166000908152600960205260408120600201805460ff191683151517905560068054849290610e6490849061145c565b90915550506040516319da599d60e21b8152600401604080519182900382206000835260208301859052916001600160a01b038616917facd81379883abf90827a751c8100bec3c4d1f66dbba0f8f8b412a049f0a03d709101610c5c565b600454811015610f205760405162461bcd60e51b8152602060048201526024808201527f424c42494f3a206c657373207468616e206d696e696d756d20616d6f756e7420604482015263109554d160e21b6064820152608401610710565b336000610f2c83610cf2565b6008546040516323b872dd60e01b81526001600160a01b038581166004830152306024830152604482018790529293509116906323b872dd906064016020604051808303816000875af1158015610f87573d6000803e3d6000fd5b505050506040513d601f19601f82011682018060405250810190610fab919061146f565b506001600160a01b03821660009081526009602052604081208054839290610fd490849061145c565b925050819055508060066000828254610fed919061145c565b909155505060405163109554d160e21b81526004016040805191829003822085835260208301849052916001600160a01b038516917facd81379883abf90827a751c8100bec3c4d1f66dbba0f8f8b412a049f0a03d709101610c5c565b611052611277565b6008546001600160a01b031663a9059cbb6110756000546001600160a01b031690565b6040516001600160e01b031960e084901b1681526001600160a01b039091166004820152602481018490526044016020604051808303816000875af11580156110c2573d6000803e3d6000fd5b505050506040513d601f19601f820116820180604052508101906110e6919061146f565b5060405163109554d160e21b815260040161060e565b611104611277565b8060056000828254611116919061145c565b9091555050600554620f424010156111835760405162461bcd60e51b815260206004820152602a60248201527f424c42494f41646d696e697374726174696f6e3a206672616374696f6e20657860448201526931b2b2b2399018982f1b60b11b6064820152608401610710565b50565b6008546040516370a0823160e01b81523060048201526000916001600160a01b0316906370a08231906024015b602060405180830381865afa158015610cc9573d6000803e3d6000fd5b6007546040516370a0823160e01b81523060048201526000916001600160a01b0316906370a08231906024016111b3565b611209611277565b6001600160a01b03811661126e5760405162461bcd60e51b815260206004820152602660248201527f4f776e61626c653a206e6577206f776e657220697320746865207a65726f206160448201526564647265737360d01b6064820152608401610710565b611183816112d1565b6000546001600160a01b03163314610a835760405162461bcd60e51b815260206004820181905260248201527f4f776e61626c653a2063616c6c6572206973206e6f7420746865206f776e65726044820152606401610710565b600080546001600160a01b038381166001600160a01b0319831681178455604051919092169283917f8be0079c531659141344cd1fd0a4f28419497f9722a3daafe3b4186f6b6457e09190a35050565b60006020828403121561133357600080fd5b5035919050565b80356001600160a01b038116811461135157600080fd5b919050565b60006020828403121561136857600080fd5b6106748261133a565b6000806040838503121561138457600080fd5b50508035926020909101359150565b801515811461118357600080fd5b6000806000606084860312156113b657600080fd5b6113bf8461133a565b92506020840135915060408401356113d681611393565b809150509250925092565b634e487b7160e01b600052601160045260246000fd5b81810381811115610a6b57610a6b6113e1565b8082028115828204841417610a6b57610a6b6113e1565b60008261143e57634e487b7160e01b600052601260045260246000fd5b500490565b60006020828403121561145557600080fd5b5051919050565b80820180821115610a6b57610a6b6113e1565b60006020828403121561148157600080fd5b81516106748161139356fea2646970667358221220ce6b3fb5baabe705ae282d8fbe58507729f1d80319c7228a09da5f6a43db991464736f6c63430008110033","opcodes":"PUSH1 0xA0 PUSH1 0x40 MSTORE CALLVALUE DUP1 ISZERO PUSH3 0x11 JUMPI PUSH1 0x0 DUP1 REVERT JUMPDEST POP PUSH1 0x40 MLOAD PUSH3 0x1811 CODESIZE SUB DUP1 PUSH3 0x1811 DUP4 CODECOPY DUP2 ADD PUSH1 0x40 DUP2 SWAP1 MSTORE PUSH3 0x34 SWAP2 PUSH3 0x2C2 JUMP JUMPDEST PUSH3 0x3F CALLER PUSH3 0xA1 JUMP JUMPDEST PUSH1 0x7 DUP1 SLOAD PUSH1 0x1 PUSH1 0x1 PUSH1 0xA0 SHL SUB DUP1 DUP11 AND PUSH1 0x1 PUSH1 0x1 PUSH1 0xA0 SHL SUB NOT SWAP3 DUP4 AND OR SWAP1 SWAP3 SSTORE PUSH1 0x8 DUP1 SLOAD DUP10 DUP5 AND SWAP3 AND SWAP2 SWAP1 SWAP2 OR SWAP1 SSTORE DUP6 AND PUSH1 0x80 MSTORE PUSH3 0x7E DUP5 DUP5 PUSH3 0xF1 JUMP JUMPDEST PUSH3 0x89 DUP3 PUSH3 0x1CD JUMP JUMPDEST PUSH3 0x94 DUP2 PUSH3 0x20A JUMP JUMPDEST POP POP POP POP POP POP POP PUSH3 0x333 JUMP JUMPDEST PUSH1 0x0 DUP1 SLOAD PUSH1 0x1 PUSH1 0x1 PUSH1 0xA0 SHL SUB DUP4 DUP2 AND PUSH1 0x1 PUSH1 0x1 PUSH1 0xA0 SHL SUB NOT DUP4 AND DUP2 OR DUP5 SSTORE PUSH1 0x40 MLOAD SWAP2 SWAP1 SWAP3 AND SWAP3 DUP4 SWAP2 PUSH32 0x8BE0079C531659141344CD1FD0A4F28419497F9722A3DAAFE3B4186F6B6457E0 SWAP2 SWAP1 LOG3 POP POP JUMP JUMPDEST PUSH3 0xFB PUSH3 0x247 JUMP JUMPDEST DUP1 DUP3 GT ISZERO PUSH3 0x192 JUMPI PUSH1 0x40 MLOAD PUSH3 0x461BCD PUSH1 0xE5 SHL DUP2 MSTORE PUSH1 0x20 PUSH1 0x4 DUP3 ADD MSTORE PUSH1 0x52 PUSH1 0x24 DUP3 ADD MSTORE PUSH32 0x424C42494F41646D696E697374726174696F6E3A207072697661746520616D6F PUSH1 0x44 DUP3 ADD MSTORE PUSH32 0x756E74206D7573742062652067726561746572207468616E206F722065717561 PUSH1 0x64 DUP3 ADD MSTORE PUSH18 0x1B081D1BC81C1D589B1A58C8185B5BDD5B9D PUSH1 0x72 SHL PUSH1 0x84 DUP3 ADD MSTORE PUSH1 0xA4 ADD JUMPDEST PUSH1 0x40 MLOAD DUP1 SWAP2 SUB SWAP1 REVERT JUMPDEST PUSH1 0x1 DUP3 SWAP1 SSTORE PUSH1 0x2 DUP2 SWAP1 SSTORE PUSH1 0x40 MLOAD DUP2 SWAP1 DUP4 SWAP1 PUSH32 0x7265992886306009EEE65B4E4DDE87D78F812DD7E571200C26B2516940938CCD SWAP1 PUSH1 0x0 SWAP1 LOG3 POP POP JUMP JUMPDEST PUSH3 0x1D7 PUSH3 0x247 JUMP JUMPDEST PUSH1 0x3 DUP2 SWAP1 SSTORE PUSH1 0x40 MLOAD DUP2 SWAP1 PUSH32 0x8585F06828ED2D9126B998A9D431D18854350C2D883A903F957B1F6E77F6CA24 SWAP1 PUSH1 0x0 SWAP1 LOG2 POP JUMP JUMPDEST PUSH3 0x214 PUSH3 0x247 JUMP JUMPDEST PUSH1 0x4 DUP2 SWAP1 SSTORE PUSH1 0x40 MLOAD DUP2 SWAP1 PUSH32 0x804645AFD4337B278832507209786CEB0AC8A6704326F397210A12287E73B863 SWAP1 PUSH1 0x0 SWAP1 LOG2 POP JUMP JUMPDEST PUSH1 0x0 SLOAD PUSH1 0x1 PUSH1 0x1 PUSH1 0xA0 SHL SUB AND CALLER EQ PUSH3 0x2A3 JUMPI PUSH1 0x40 MLOAD PUSH3 0x461BCD PUSH1 0xE5 SHL DUP2 MSTORE PUSH1 0x20 PUSH1 0x4 DUP3 ADD DUP2 SWAP1 MSTORE PUSH1 0x24 DUP3 ADD MSTORE PUSH32 0x4F776E61626C653A2063616C6C6572206973206E6F7420746865206F776E6572 PUSH1 0x44 DUP3 ADD MSTORE PUSH1 0x64 ADD PUSH3 0x189 JUMP JUMPDEST JUMP JUMPDEST DUP1 MLOAD PUSH1 0x1 PUSH1 0x1 PUSH1 0xA0 SHL SUB DUP2 AND DUP2 EQ PUSH3 0x2BD JUMPI PUSH1 0x0 DUP1 REVERT JUMPDEST SWAP2 SWAP1 POP JUMP JUMPDEST PUSH1 0x0 DUP1 PUSH1 0x0 DUP1 PUSH1 0x0 DUP1 PUSH1 0x0 PUSH1 0xE0 DUP9 DUP11 SUB SLT ISZERO PUSH3 0x2DE JUMPI PUSH1 0x0 DUP1 REVERT JUMPDEST PUSH3 0x2E9 DUP9 PUSH3 0x2A5 JUMP JUMPDEST SWAP7 POP PUSH3 0x2F9 PUSH1 0x20 DUP10 ADD PUSH3 0x2A5 JUMP JUMPDEST SWAP6 POP PUSH3 0x309 PUSH1 0x40 DUP10 ADD PUSH3 0x2A5 JUMP JUMPDEST SWAP5 POP PUSH1 0x60 DUP9 ADD MLOAD SWAP4 POP PUSH1 0x80 DUP9 ADD MLOAD SWAP3 POP PUSH1 0xA0 DUP9 ADD MLOAD SWAP2 POP PUSH1 0xC0 DUP9 ADD MLOAD SWAP1 POP SWAP3 SWAP6 SWAP9 SWAP2 SWAP5 SWAP8 POP SWAP3 SWAP6 POP JUMP JUMPDEST PUSH1 0x80 MLOAD PUSH2 0x14C2 PUSH3 0x34F PUSH1 0x0 CODECOPY PUSH1 0x0 PUSH2 0xC6D ADD MSTORE PUSH2 0x14C2 PUSH1 0x0 RETURN INVALID PUSH1 0x80 PUSH1 0x40 MSTORE PUSH1 0x4 CALLDATASIZE LT PUSH2 0x1E3 JUMPI PUSH1 0x0 CALLDATALOAD PUSH1 0xE0 SHR DUP1 PUSH4 0x893DA6C9 GT PUSH2 0x102 JUMPI DUP1 PUSH4 0xC9E3C9C7 GT PUSH2 0x95 JUMPI DUP1 PUSH4 0xD013CBE2 GT PUSH2 0x64 JUMPI DUP1 PUSH4 0xD013CBE2 EQ PUSH2 0x524 JUMPI DUP1 PUSH4 0xDC39CA7A EQ PUSH2 0x537 JUMPI DUP1 PUSH4 0xE00115F6 EQ PUSH2 0x54C JUMPI DUP1 PUSH4 0xF2FDE38B EQ PUSH2 0x561 JUMPI PUSH1 0x0 DUP1 REVERT JUMPDEST DUP1 PUSH4 0xC9E3C9C7 EQ PUSH2 0x4A4 JUMPI DUP1 PUSH4 0xCC205DB3 EQ PUSH2 0x4C4 JUMPI DUP1 PUSH4 0xCC3BCAF3 EQ PUSH2 0x4E4 JUMPI DUP1 PUSH4 0xCE9D3B09 EQ PUSH2 0x504 JUMPI PUSH1 0x0 DUP1 REVERT JUMPDEST DUP1 PUSH4 0xBC07D85C GT PUSH2 0xD1 JUMPI DUP1 PUSH4 0xBC07D85C EQ PUSH2 0x439 JUMPI DUP1 PUSH4 0xBE5BE211 EQ PUSH2 0x459 JUMPI DUP1 PUSH4 0xBFA54B3F EQ PUSH2 0x46E JUMPI DUP1 PUSH4 0xC91D23E7 EQ PUSH2 0x48E JUMPI PUSH1 0x0 DUP1 REVERT JUMPDEST DUP1 PUSH4 0x893DA6C9 EQ PUSH2 0x3BF JUMPI DUP1 PUSH4 0x8DA5CB5B EQ PUSH2 0x3F0 JUMPI DUP1 PUSH4 0xA8F70D0F EQ PUSH2 0x40E JUMPI DUP1 PUSH4 0xB1479B7F EQ PUSH2 0x423 JUMPI PUSH1 0x0 DUP1 REVERT JUMPDEST DUP1 PUSH4 0x484F4EA9 GT PUSH2 0x17A JUMPI DUP1 PUSH4 0x715018A6 GT PUSH2 0x149 JUMPI DUP1 PUSH4 0x715018A6 EQ PUSH2 0x36C JUMPI DUP1 PUSH4 0x790B284F EQ PUSH2 0x381 JUMPI DUP1 PUSH4 0x7F04E0E1 EQ PUSH2 0x397 JUMPI DUP1 PUSH4 0x84D30EAA EQ PUSH2 0x3B7 JUMPI PUSH1 0x0 DUP1 REVERT JUMPDEST DUP1 PUSH4 0x484F4EA9 EQ PUSH2 0x2DF JUMPI DUP1 PUSH4 0x4E71D92D EQ PUSH2 0x317 JUMPI DUP1 PUSH4 0x5B0DFA95 EQ PUSH2 0x32C JUMPI DUP1 PUSH4 0x5FD03331 EQ PUSH2 0x34C JUMPI PUSH1 0x0 DUP1 REVERT JUMPDEST DUP1 PUSH4 0x1DFCE5C6 GT PUSH2 0x1B6 JUMPI DUP1 PUSH4 0x1DFCE5C6 EQ PUSH2 0x269 JUMPI DUP1 PUSH4 0x2ACBAEA5 EQ PUSH2 0x289 JUMPI DUP1 PUSH4 0x402914F5 EQ PUSH2 0x2A9 JUMPI DUP1 PUSH4 0x4426A263 EQ PUSH2 0x2C9 JUMPI PUSH1 0x0 DUP1 REVERT JUMPDEST DUP1 PUSH4 0xB8C6E29 EQ PUSH2 0x1E8 JUMPI DUP1 PUSH4 0x127F4B2E EQ PUSH2 0x20A JUMPI DUP1 PUSH4 0x158B072C EQ PUSH2 0x22A JUMPI DUP1 PUSH4 0x192AB186 EQ PUSH2 0x253 JUMPI JUMPDEST PUSH1 0x0 DUP1 REVERT JUMPDEST CALLVALUE DUP1 ISZERO PUSH2 0x1F4 JUMPI PUSH1 0x0 DUP1 REVERT JUMPDEST POP PUSH2 0x208 PUSH2 0x203 CALLDATASIZE PUSH1 0x4 PUSH2 0x1321 JUMP JUMPDEST PUSH2 0x581 JUMP JUMPDEST STOP JUMPDEST CALLVALUE DUP1 ISZERO PUSH2 0x216 JUMPI PUSH1 0x0 DUP1 REVERT JUMPDEST POP PUSH2 0x208 PUSH2 0x225 CALLDATASIZE PUSH1 0x4 PUSH2 0x1321 JUMP JUMPDEST PUSH2 0x5BC JUMP JUMPDEST CALLVALUE DUP1 ISZERO PUSH2 0x236 JUMPI PUSH1 0x0 DUP1 REVERT JUMPDEST POP PUSH2 0x240 PUSH1 0x5 SLOAD DUP2 JUMP JUMPDEST PUSH1 0x40 MLOAD SWAP1 DUP2 MSTORE PUSH1 0x20 ADD JUMPDEST PUSH1 0x40 MLOAD DUP1 SWAP2 SUB SWAP1 RETURN JUMPDEST CALLVALUE DUP1 ISZERO PUSH2 0x25F JUMPI PUSH1 0x0 DUP1 REVERT JUMPDEST POP PUSH2 0x240 PUSH1 0x4 SLOAD DUP2 JUMP JUMPDEST CALLVALUE DUP1 ISZERO PUSH2 0x275 JUMPI PUSH1 0x0 DUP1 REVERT JUMPDEST POP PUSH2 0x240 PUSH2 0x284 CALLDATASIZE PUSH1 0x4 PUSH2 0x1356 JUMP JUMPDEST PUSH2 0x64B JUMP JUMPDEST CALLVALUE DUP1 ISZERO PUSH2 0x295 JUMPI PUSH1 0x0 DUP1 REVERT JUMPDEST POP PUSH2 0x208 PUSH2 0x2A4 CALLDATASIZE PUSH1 0x4 PUSH2 0x1371 JUMP JUMPDEST PUSH2 0x67B JUMP JUMPDEST CALLVALUE DUP1 ISZERO PUSH2 0x2B5 JUMPI PUSH1 0x0 DUP1 REVERT JUMPDEST POP PUSH2 0x240 PUSH2 0x2C4 CALLDATASIZE PUSH1 0x4 PUSH2 0x1356 JUMP JUMPDEST PUSH2 0x754 JUMP JUMPDEST CALLVALUE DUP1 ISZERO PUSH2 0x2D5 JUMPI PUSH1 0x0 DUP1 REVERT JUMPDEST POP PUSH2 0x240 PUSH1 0x6 SLOAD DUP2 JUMP JUMPDEST CALLVALUE DUP1 ISZERO PUSH2 0x2EB JUMPI PUSH1 0x0 DUP1 REVERT JUMPDEST POP PUSH1 0x8 SLOAD PUSH2 0x2FF SWAP1 PUSH1 0x1 PUSH1 0x1 PUSH1 0xA0 SHL SUB AND DUP2 JUMP JUMPDEST PUSH1 0x40 MLOAD PUSH1 0x1 PUSH1 0x1 PUSH1 0xA0 SHL SUB SWAP1 SWAP2 AND DUP2 MSTORE PUSH1 0x20 ADD PUSH2 0x24A JUMP JUMPDEST CALLVALUE DUP1 ISZERO PUSH2 0x323 JUMPI PUSH1 0x0 DUP1 REVERT JUMPDEST POP PUSH2 0x208 PUSH2 0x7AE JUMP JUMPDEST CALLVALUE DUP1 ISZERO PUSH2 0x338 JUMPI PUSH1 0x0 DUP1 REVERT JUMPDEST POP PUSH2 0x208 PUSH2 0x347 CALLDATASIZE PUSH1 0x4 PUSH2 0x1321 JUMP JUMPDEST PUSH2 0x9BC JUMP JUMPDEST CALLVALUE DUP1 ISZERO PUSH2 0x358 JUMPI PUSH1 0x0 DUP1 REVERT JUMPDEST POP PUSH2 0x240 PUSH2 0x367 CALLDATASIZE PUSH1 0x4 PUSH2 0x1321 JUMP JUMPDEST PUSH2 0x9F7 JUMP JUMPDEST CALLVALUE DUP1 ISZERO PUSH2 0x378 JUMPI PUSH1 0x0 DUP1 REVERT JUMPDEST POP PUSH2 0x208 PUSH2 0xA71 JUMP JUMPDEST CALLVALUE DUP1 ISZERO PUSH2 0x38D JUMPI PUSH1 0x0 DUP1 REVERT JUMPDEST POP PUSH2 0x240 PUSH1 0x3 SLOAD DUP2 JUMP JUMPDEST CALLVALUE DUP1 ISZERO PUSH2 0x3A3 JUMPI PUSH1 0x0 DUP1 REVERT JUMPDEST POP PUSH2 0x208 PUSH2 0x3B2 CALLDATASIZE PUSH1 0x4 PUSH2 0x1321 JUMP JUMPDEST PUSH2 0xA85 JUMP JUMPDEST PUSH2 0x208 PUSH2 0xB36 JUMP JUMPDEST CALLVALUE DUP1 ISZERO PUSH2 0x3CB JUMPI PUSH1 0x0 DUP1 REVERT JUMPDEST POP PUSH1 0x8 SLOAD PUSH2 0x3E0 SWAP1 PUSH1 0x1 PUSH1 0xA0 SHL SWAP1 DIV PUSH1 0xFF AND DUP2 JUMP JUMPDEST PUSH1 0x40 MLOAD SWAP1 ISZERO ISZERO DUP2 MSTORE PUSH1 0x20 ADD PUSH2 0x24A JUMP JUMPDEST CALLVALUE DUP1 ISZERO PUSH2 0x3FC JUMPI PUSH1 0x0 DUP1 REVERT JUMPDEST POP PUSH1 0x0 SLOAD PUSH1 0x1 PUSH1 0x1 PUSH1 0xA0 SHL SUB AND PUSH2 0x2FF JUMP JUMPDEST CALLVALUE DUP1 ISZERO PUSH2 0x41A JUMPI PUSH1 0x0 DUP1 REVERT JUMPDEST POP PUSH2 0x240 PUSH2 0xC69 JUMP JUMPDEST CALLVALUE DUP1 ISZERO PUSH2 0x42F JUMPI PUSH1 0x0 DUP1 REVERT JUMPDEST POP PUSH2 0x240 PUSH1 0x2 SLOAD DUP2 JUMP JUMPDEST CALLVALUE DUP1 ISZERO PUSH2 0x445 JUMPI PUSH1 0x0 DUP1 REVERT JUMPDEST POP PUSH2 0x240 PUSH2 0x454 CALLDATASIZE PUSH1 0x4 PUSH2 0x1321 JUMP JUMPDEST PUSH2 0xCF2 JUMP JUMPDEST CALLVALUE DUP1 ISZERO PUSH2 0x465 JUMPI PUSH1 0x0 DUP1 REVERT JUMPDEST POP PUSH2 0x208 PUSH2 0xD79 JUMP JUMPDEST CALLVALUE DUP1 ISZERO PUSH2 0x47A JUMPI PUSH1 0x0 DUP1 REVERT JUMPDEST POP PUSH1 0x7 SLOAD PUSH2 0x2FF SWAP1 PUSH1 0x1 PUSH1 0x1 PUSH1 0xA0 SHL SUB AND DUP2 JUMP JUMPDEST CALLVALUE DUP1 ISZERO PUSH2 0x49A JUMPI PUSH1 0x0 DUP1 REVERT JUMPDEST POP PUSH2 0x240 PUSH1 0x1 SLOAD DUP2 JUMP JUMPDEST CALLVALUE DUP1 ISZERO PUSH2 0x4B0 JUMPI PUSH1 0x0 DUP1 REVERT JUMPDEST POP PUSH2 0x208 PUSH2 0x4BF CALLDATASIZE PUSH1 0x4 PUSH2 0x13A1 JUMP JUMPDEST PUSH2 0xDF6 JUMP JUMPDEST CALLVALUE DUP1 ISZERO PUSH2 0x4D0 JUMPI PUSH1 0x0 DUP1 REVERT JUMPDEST POP PUSH2 0x208 PUSH2 0x4DF CALLDATASIZE PUSH1 0x4 PUSH2 0x1321 JUMP JUMPDEST PUSH2 0xEC2 JUMP JUMPDEST CALLVALUE DUP1 ISZERO PUSH2 0x4F0 JUMPI PUSH1 0x0 DUP1 REVERT JUMPDEST POP PUSH2 0x208 PUSH2 0x4FF CALLDATASIZE PUSH1 0x4 PUSH2 0x1321 JUMP JUMPDEST PUSH2 0x104A JUMP JUMPDEST CALLVALUE DUP1 ISZERO PUSH2 0x510 JUMPI PUSH1 0x0 DUP1 REVERT JUMPDEST POP PUSH2 0x208 PUSH2 0x51F CALLDATASIZE PUSH1 0x4 PUSH2 0x1321 JUMP JUMPDEST PUSH2 0x10FC JUMP JUMPDEST CALLVALUE DUP1 ISZERO PUSH2 0x530 JUMPI PUSH1 0x0 DUP1 REVERT JUMPDEST POP SELFBALANCE PUSH2 0x240 JUMP JUMPDEST CALLVALUE DUP1 ISZERO PUSH2 0x543 JUMPI PUSH1 0x0 DUP1 REVERT JUMPDEST POP PUSH2 0x240 PUSH2 0x1186 JUMP JUMPDEST CALLVALUE DUP1 ISZERO PUSH2 0x558 JUMPI PUSH1 0x0 DUP1 REVERT JUMPDEST POP PUSH2 0x240 PUSH2 0x11D0 JUMP JUMPDEST CALLVALUE DUP1 ISZERO PUSH2 0x56D JUMPI PUSH1 0x0 DUP1 REVERT JUMPDEST POP PUSH2 0x208 PUSH2 0x57C CALLDATASIZE PUSH1 0x4 PUSH2 0x1356 JUMP JUMPDEST PUSH2 0x1201 JUMP JUMPDEST PUSH2 0x589 PUSH2 0x1277 JUMP JUMPDEST PUSH1 0x4 DUP2 SWAP1 SSTORE PUSH1 0x40 MLOAD DUP2 SWAP1 PUSH32 0x804645AFD4337B278832507209786CEB0AC8A6704326F397210A12287E73B863 SWAP1 PUSH1 0x0 SWAP1 LOG2 POP JUMP JUMPDEST PUSH2 0x5C4 PUSH2 0x1277 JUMP JUMPDEST PUSH1 0x0 DUP1 SLOAD PUSH1 0x40 MLOAD PUSH1 0x1 PUSH1 0x1 PUSH1 0xA0 SHL SUB SWAP1 SWAP2 AND SWAP2 DUP4 ISZERO PUSH2 0x8FC MUL SWAP2 DUP5 SWAP2 DUP2 DUP2 DUP2 DUP6 DUP9 DUP9 CALL SWAP4 POP POP POP POP ISZERO DUP1 ISZERO PUSH2 0x5FD JUMPI RETURNDATASIZE PUSH1 0x0 DUP1 RETURNDATACOPY RETURNDATASIZE PUSH1 0x0 REVERT JUMPDEST POP PUSH1 0x40 MLOAD PUSH3 0x212721 PUSH1 0xE9 SHL DUP2 MSTORE PUSH1 0x3 ADD JUMPDEST PUSH1 0x40 MLOAD SWAP1 DUP2 SWAP1 SUB DUP2 KECCAK256 DUP3 DUP3 MSTORE SWAP1 PUSH32 0xFD950F75BF83187106CA979032C87AF4E8BEDBEFF7455CBA6DF787F978267F29 SWAP1 PUSH1 0x20 ADD PUSH1 0x40 MLOAD DUP1 SWAP2 SUB SWAP1 LOG2 POP JUMP JUMPDEST PUSH1 0x1 PUSH1 0x1 PUSH1 0xA0 SHL SUB DUP2 AND PUSH1 0x0 SWAP1 DUP2 MSTORE PUSH1 0x9 PUSH1 0x20 MSTORE PUSH1 0x40 DUP2 KECCAK256 PUSH1 0x1 DUP2 ADD SLOAD DUP2 SLOAD PUSH2 0x674 SWAP2 SWAP1 PUSH2 0x13F7 JUMP JUMPDEST SWAP4 SWAP3 POP POP POP JUMP JUMPDEST PUSH2 0x683 PUSH2 0x1277 JUMP JUMPDEST DUP1 DUP3 GT ISZERO PUSH2 0x719 JUMPI PUSH1 0x40 MLOAD PUSH3 0x461BCD PUSH1 0xE5 SHL DUP2 MSTORE PUSH1 0x20 PUSH1 0x4 DUP3 ADD MSTORE PUSH1 0x52 PUSH1 0x24 DUP3 ADD MSTORE PUSH32 0x424C42494F41646D696E697374726174696F6E3A207072697661746520616D6F PUSH1 0x44 DUP3 ADD MSTORE PUSH32 0x756E74206D7573742062652067726561746572207468616E206F722065717561 PUSH1 0x64 DUP3 ADD MSTORE PUSH18 0x1B081D1BC81C1D589B1A58C8185B5BDD5B9D PUSH1 0x72 SHL PUSH1 0x84 DUP3 ADD MSTORE PUSH1 0xA4 ADD JUMPDEST PUSH1 0x40 MLOAD DUP1 SWAP2 SUB SWAP1 REVERT JUMPDEST PUSH1 0x1 DUP3 SWAP1 SSTORE PUSH1 0x2 DUP2 SWAP1 SSTORE PUSH1 0x40 MLOAD DUP2 SWAP1 DUP4 SWAP1 PUSH32 0x7265992886306009EEE65B4E4DDE87D78F812DD7E571200C26B2516940938CCD SWAP1 PUSH1 0x0 SWAP1 LOG3 POP POP JUMP JUMPDEST PUSH1 0x1 PUSH1 0x1 PUSH1 0xA0 SHL SUB DUP2 AND PUSH1 0x0 SWAP1 DUP2 MSTORE PUSH1 0x9 PUSH1 0x20 MSTORE PUSH1 0x40 DUP2 KECCAK256 PUSH1 0x2 DUP2 ADD SLOAD PUSH1 0xFF AND ISZERO PUSH2 0x782 JUMPI PUSH2 0x674 DUP4 PUSH2 0x64B JUMP JUMPDEST PUSH1 0x1 DUP2 ADD SLOAD PUSH1 0x5 SLOAD DUP3 SLOAD PUSH3 0xF4240 SWAP2 PUSH2 0x79A SWAP2 PUSH2 0x140A JUMP JUMPDEST PUSH2 0x7A4 SWAP2 SWAP1 PUSH2 0x1421 JUMP JUMPDEST PUSH2 0x674 SWAP2 SWAP1 PUSH2 0x13F7 JUMP JUMPDEST CALLER PUSH1 0x0 DUP2 DUP2 MSTORE PUSH1 0x9 PUSH1 0x20 MSTORE PUSH1 0x40 DUP2 KECCAK256 SWAP1 PUSH2 0x7C7 DUP4 PUSH2 0x754 JUMP JUMPDEST SWAP1 POP DUP1 PUSH1 0x0 SUB PUSH2 0x819 JUMPI PUSH1 0x40 MLOAD PUSH3 0x461BCD PUSH1 0xE5 SHL DUP2 MSTORE PUSH1 0x20 PUSH1 0x4 DUP3 ADD MSTORE PUSH1 0x1F PUSH1 0x24 DUP3 ADD MSTORE PUSH32 0x424C42494F3A207468657265206973206E6F20424C4220746F20636C61696D00 PUSH1 0x44 DUP3 ADD MSTORE PUSH1 0x64 ADD PUSH2 0x710 JUMP JUMPDEST PUSH1 0x7 SLOAD PUSH1 0x40 MLOAD PUSH4 0x70A08231 PUSH1 0xE0 SHL DUP2 MSTORE ADDRESS PUSH1 0x4 DUP3 ADD MSTORE DUP3 SWAP2 PUSH1 0x1 PUSH1 0x1 PUSH1 0xA0 SHL SUB AND SWAP1 PUSH4 0x70A08231 SWAP1 PUSH1 0x24 ADD PUSH1 0x20 PUSH1 0x40 MLOAD DUP1 DUP4 SUB DUP2 DUP7 GAS STATICCALL ISZERO DUP1 ISZERO PUSH2 0x861 JUMPI RETURNDATASIZE PUSH1 0x0 DUP1 RETURNDATACOPY RETURNDATASIZE PUSH1 0x0 REVERT JUMPDEST POP POP POP POP PUSH1 0x40 MLOAD RETURNDATASIZE PUSH1 0x1F NOT PUSH1 0x1F DUP3 ADD AND DUP3 ADD DUP1 PUSH1 0x40 MSTORE POP DUP2 ADD SWAP1 PUSH2 0x885 SWAP2 SWAP1 PUSH2 0x1443 JUMP JUMPDEST LT ISZERO PUSH2 0x8E3 JUMPI PUSH1 0x40 MLOAD PUSH3 0x461BCD PUSH1 0xE5 SHL DUP2 MSTORE PUSH1 0x20 PUSH1 0x4 DUP3 ADD MSTORE PUSH1 0x27 PUSH1 0x24 DUP3 ADD MSTORE PUSH32 0x424C42494F3A20696E73756666696369656E7420424C4220696E207468652063 PUSH1 0x44 DUP3 ADD MSTORE PUSH7 0x1BDB9D1C9858DD PUSH1 0xCA SHL PUSH1 0x64 DUP3 ADD MSTORE PUSH1 0x84 ADD PUSH2 0x710 JUMP JUMPDEST DUP1 DUP3 PUSH1 0x1 ADD PUSH1 0x0 DUP3 DUP3 SLOAD PUSH2 0x8F7 SWAP2 SWAP1 PUSH2 0x145C JUMP JUMPDEST SWAP1 SWAP2 SSTORE POP POP PUSH1 0x7 SLOAD PUSH1 0x40 MLOAD PUSH4 0xA9059CBB PUSH1 0xE0 SHL DUP2 MSTORE PUSH1 0x1 PUSH1 0x1 PUSH1 0xA0 SHL SUB DUP6 DUP2 AND PUSH1 0x4 DUP4 ADD MSTORE PUSH1 0x24 DUP3 ADD DUP5 SWAP1 MSTORE SWAP1 SWAP2 AND SWAP1 PUSH4 0xA9059CBB SWAP1 PUSH1 0x44 ADD PUSH1 0x20 PUSH1 0x40 MLOAD DUP1 DUP4 SUB DUP2 PUSH1 0x0 DUP8 GAS CALL ISZERO DUP1 ISZERO PUSH2 0x94F JUMPI RETURNDATASIZE PUSH1 0x0 DUP1 RETURNDATACOPY RETURNDATASIZE PUSH1 0x0 REVERT JUMPDEST POP POP POP POP PUSH1 0x40 MLOAD RETURNDATASIZE PUSH1 0x1F NOT PUSH1 0x1F DUP3 ADD AND DUP3 ADD DUP1 PUSH1 0x40 MSTORE POP DUP2 ADD SWAP1 PUSH2 0x973 SWAP2 SWAP1 PUSH2 0x146F JUMP JUMPDEST POP DUP3 PUSH1 0x1 PUSH1 0x1 PUSH1 0xA0 SHL SUB AND PUSH32 0x47CEE97CB7ACD717B3C0AA1435D004CD5B3C8C57D70DBCEB4E4458BBD60E39D4 DUP3 PUSH1 0x40 MLOAD PUSH2 0x9AF SWAP2 DUP2 MSTORE PUSH1 0x20 ADD SWAP1 JUMP JUMPDEST PUSH1 0x40 MLOAD DUP1 SWAP2 SUB SWAP1 LOG2 POP POP POP JUMP JUMPDEST PUSH2 0x9C4 PUSH2 0x1277 JUMP JUMPDEST PUSH1 0x3 DUP2 SWAP1 SSTORE PUSH1 0x40 MLOAD DUP2 SWAP1 PUSH32 0x8585F06828ED2D9126B998A9D431D18854350C2D883A903F957B1F6E77F6CA24 SWAP1 PUSH1 0x0 SWAP1 LOG2 POP JUMP JUMPDEST PUSH1 0x8 SLOAD PUSH1 0x0 SWAP1 PUSH1 0x1 PUSH1 0xA0 SHL SWAP1 DIV PUSH1 0xFF AND ISZERO PUSH2 0xA47 JUMPI PUSH1 0x40 MLOAD PUSH3 0x461BCD PUSH1 0xE5 SHL DUP2 MSTORE PUSH1 0x20 PUSH1 0x4 DUP3 ADD MSTORE PUSH1 0x10 PUSH1 0x24 DUP3 ADD MSTORE PUSH16 0x424C42494F3A20736F6C64206F757421 PUSH1 0x80 SHL PUSH1 0x44 DUP3 ADD MSTORE PUSH1 0x64 ADD PUSH2 0x710 JUMP JUMPDEST PUSH2 0xA6B PUSH4 0x5F5E100 PUSH2 0xA57 PUSH2 0xC69 JUMP JUMPDEST PUSH2 0xA61 SWAP1 DUP6 PUSH2 0x140A JUMP JUMPDEST PUSH2 0x454 SWAP2 SWAP1 PUSH2 0x1421 JUMP JUMPDEST SWAP3 SWAP2 POP POP JUMP JUMPDEST PUSH2 0xA79 PUSH2 0x1277 JUMP JUMPDEST PUSH2 0xA83 PUSH1 0x0 PUSH2 0x12D1 JUMP JUMPDEST JUMP JUMPDEST PUSH2 0xA8D PUSH2 0x1277 JUMP JUMPDEST PUSH1 0x7 SLOAD PUSH1 0x1 PUSH1 0x1 PUSH1 0xA0 SHL SUB AND PUSH4 0xA9059CBB PUSH2 0xAB0 PUSH1 0x0 SLOAD PUSH1 0x1 PUSH1 0x1 PUSH1 0xA0 SHL SUB AND SWAP1 JUMP JUMPDEST PUSH1 0x40 MLOAD PUSH1 0x1 PUSH1 0x1 PUSH1 0xE0 SHL SUB NOT PUSH1 0xE0 DUP5 SWAP1 SHL AND DUP2 MSTORE PUSH1 0x1 PUSH1 0x1 PUSH1 0xA0 SHL SUB SWAP1 SWAP2 AND PUSH1 0x4 DUP3 ADD MSTORE PUSH1 0x24 DUP2 ADD DUP5 SWAP1 MSTORE PUSH1 0x44 ADD PUSH1 0x20 PUSH1 0x40 MLOAD DUP1 DUP4 SUB DUP2 PUSH1 0x0 DUP8 GAS CALL ISZERO DUP1 ISZERO PUSH2 0xAFD JUMPI RETURNDATASIZE PUSH1 0x0 DUP1 RETURNDATACOPY RETURNDATASIZE PUSH1 0x0 REVERT JUMPDEST POP POP POP POP PUSH1 0x40 MLOAD RETURNDATASIZE PUSH1 0x1F NOT PUSH1 0x1F DUP3 ADD AND DUP3 ADD DUP1 PUSH1 0x40 MSTORE POP DUP2 ADD SWAP1 PUSH2 0xB21 SWAP2 SWAP1 PUSH2 0x146F JUMP JUMPDEST POP PUSH1 0x40 MLOAD PUSH3 0x212621 PUSH1 0xE9 SHL DUP2 MSTORE PUSH1 0x3 ADD PUSH2 0x60E JUMP JUMPDEST CALLER CALLVALUE PUSH1 0x0 PUSH2 0xB43 DUP3 PUSH2 0x9F7 JUMP JUMPDEST SWAP1 POP PUSH1 0x4 SLOAD PUSH4 0x5F5E100 PUSH2 0xB55 PUSH2 0xC69 JUMP JUMPDEST PUSH2 0xB5F SWAP1 DUP6 PUSH2 0x140A JUMP JUMPDEST PUSH2 0xB69 SWAP2 SWAP1 PUSH2 0x1421 JUMP JUMPDEST LT ISZERO PUSH2 0xBC3 JUMPI PUSH1 0x40 MLOAD PUSH3 0x461BCD PUSH1 0xE5 SHL DUP2 MSTORE PUSH1 0x20 PUSH1 0x4 DUP3 ADD MSTORE PUSH1 0x23 PUSH1 0x24 DUP3 ADD MSTORE PUSH32 0x424C42494F3A206C657373207468616E206D696E696D756D20616D6F756E7420 PUSH1 0x44 DUP3 ADD MSTORE PUSH3 0x212721 PUSH1 0xE9 SHL PUSH1 0x64 DUP3 ADD MSTORE PUSH1 0x84 ADD PUSH2 0x710 JUMP JUMPDEST PUSH1 0x1 PUSH1 0x1 PUSH1 0xA0 SHL SUB DUP4 AND PUSH1 0x0 SWAP1 DUP2 MSTORE PUSH1 0x9 PUSH1 0x20 MSTORE PUSH1 0x40 DUP2 KECCAK256 DUP1 SLOAD DUP4 SWAP3 SWAP1 PUSH2 0xBEB SWAP1 DUP5 SWAP1 PUSH2 0x145C JUMP JUMPDEST SWAP3 POP POP DUP2 SWAP1 SSTORE POP DUP1 PUSH1 0x6 PUSH1 0x0 DUP3 DUP3 SLOAD PUSH2 0xC04 SWAP2 SWAP1 PUSH2 0x145C JUMP JUMPDEST SWAP1 SWAP2 SSTORE POP POP PUSH1 0x40 MLOAD PUSH3 0x212721 PUSH1 0xE9 SHL DUP2 MSTORE PUSH1 0x3 ADD PUSH1 0x40 DUP1 MLOAD SWAP2 DUP3 SWAP1 SUB DUP3 KECCAK256 DUP5 DUP4 MSTORE PUSH1 0x20 DUP4 ADD DUP5 SWAP1 MSTORE SWAP2 PUSH1 0x1 PUSH1 0x1 PUSH1 0xA0 SHL SUB DUP7 AND SWAP2 PUSH32 0xACD81379883ABF90827A751C8100BEC3C4D1F66DBBA0F8F8B412A049F0A03D70 SWAP2 ADD JUMPDEST PUSH1 0x40 MLOAD DUP1 SWAP2 SUB SWAP1 LOG3 POP POP POP JUMP JUMPDEST PUSH1 0x0 PUSH32 0x0 PUSH1 0x1 PUSH1 0x1 PUSH1 0xA0 SHL SUB AND PUSH4 0x50D25BCD PUSH1 0x40 MLOAD DUP2 PUSH4 0xFFFFFFFF AND PUSH1 0xE0 SHL DUP2 MSTORE PUSH1 0x4 ADD PUSH1 0x20 PUSH1 0x40 MLOAD DUP1 DUP4 SUB DUP2 DUP7 GAS STATICCALL ISZERO DUP1 ISZERO PUSH2 0xCC9 JUMPI RETURNDATASIZE PUSH1 0x0 DUP1 RETURNDATACOPY RETURNDATASIZE PUSH1 0x0 REVERT JUMPDEST POP POP POP POP PUSH1 0x40 MLOAD RETURNDATASIZE PUSH1 0x1F NOT PUSH1 0x1F DUP3 ADD AND DUP3 ADD DUP1 PUSH1 0x40 MSTORE POP DUP2 ADD SWAP1 PUSH2 0xCED SWAP2 SWAP1 PUSH2 0x1443 JUMP JUMPDEST SWAP1 POP SWAP1 JUMP JUMPDEST PUSH1 0x8 SLOAD PUSH1 0x0 SWAP1 PUSH1 0x1 PUSH1 0xA0 SHL SWAP1 DIV PUSH1 0xFF AND ISZERO PUSH2 0xD42 JUMPI PUSH1 0x40 MLOAD PUSH3 0x461BCD PUSH1 0xE5 SHL DUP2 MSTORE PUSH1 0x20 PUSH1 0x4 DUP3 ADD MSTORE PUSH1 0x10 PUSH1 0x24 DUP3 ADD MSTORE PUSH16 0x424C42494F3A20736F6C64206F757421 PUSH1 0x80 SHL PUSH1 0x44 DUP3 ADD MSTORE PUSH1 0x64 ADD PUSH2 0x710 JUMP JUMPDEST PUSH1 0x0 PUSH1 0x3 SLOAD DUP4 LT ISZERO PUSH2 0xD56 JUMPI PUSH1 0x1 SLOAD PUSH2 0xD5A JUMP JUMPDEST PUSH1 0x2 SLOAD JUMPDEST SWAP1 POP PUSH8 0xDE0B6B3A7640000 PUSH2 0xD6F DUP5 DUP4 PUSH2 0x140A JUMP JUMPDEST PUSH2 0x674 SWAP2 SWAP1 PUSH2 0x1421 JUMP JUMPDEST PUSH2 0xD81 PUSH2 0x1277 JUMP JUMPDEST PUSH1 0x8 SLOAD PUSH1 0x1 PUSH1 0xA0 SHL SWAP1 DIV PUSH1 0xFF AND PUSH2 0xD99 JUMPI PUSH1 0x1 PUSH2 0xD9C JUMP JUMPDEST PUSH1 0x0 JUMPDEST PUSH1 0x8 DUP1 SLOAD PUSH1 0xFF PUSH1 0xA0 SHL NOT AND PUSH1 0x1 PUSH1 0xA0 SHL SWAP3 ISZERO ISZERO DUP4 MUL OR SWAP1 DUP2 SWAP1 SSTORE PUSH1 0x40 MLOAD PUSH1 0xFF SWAP3 SWAP1 SWAP2 DIV SWAP2 SWAP1 SWAP2 AND ISZERO ISZERO DUP2 MSTORE PUSH32 0xA3CFACEB3E57FF8026EA1EA844CE08CA4B74964E184E542EA2AB22605E34F62 SWAP1 PUSH1 0x20 ADD PUSH1 0x40 MLOAD DUP1 SWAP2 SUB SWAP1 LOG1 JUMP JUMPDEST PUSH2 0xDFE PUSH2 0x1277 JUMP JUMPDEST PUSH1 0x1 PUSH1 0x1 PUSH1 0xA0 SHL SUB DUP4 AND PUSH1 0x0 SWAP1 DUP2 MSTORE PUSH1 0x9 PUSH1 0x20 MSTORE PUSH1 0x40 DUP2 KECCAK256 DUP1 SLOAD DUP5 SWAP3 SWAP1 PUSH2 0xE26 SWAP1 DUP5 SWAP1 PUSH2 0x145C JUMP JUMPDEST SWAP1 SWAP2 SSTORE POP POP PUSH1 0x1 PUSH1 0x1 PUSH1 0xA0 SHL SUB DUP4 AND PUSH1 0x0 SWAP1 DUP2 MSTORE PUSH1 0x9 PUSH1 0x20 MSTORE PUSH1 0x40 DUP2 KECCAK256 PUSH1 0x2 ADD DUP1 SLOAD PUSH1 0xFF NOT AND DUP4 ISZERO ISZERO OR SWAP1 SSTORE PUSH1 0x6 DUP1 SLOAD DUP5 SWAP3 SWAP1 PUSH2 0xE64 SWAP1 DUP5 SWAP1 PUSH2 0x145C JUMP JUMPDEST SWAP1 SWAP2 SSTORE POP POP PUSH1 0x40 MLOAD PUSH4 0x19DA599D PUSH1 0xE2 SHL DUP2 MSTORE PUSH1 0x4 ADD PUSH1 0x40 DUP1 MLOAD SWAP2 DUP3 SWAP1 SUB DUP3 KECCAK256 PUSH1 0x0 DUP4 MSTORE PUSH1 0x20 DUP4 ADD DUP6 SWAP1 MSTORE SWAP2 PUSH1 0x1 PUSH1 0x1 PUSH1 0xA0 SHL SUB DUP7 AND SWAP2 PUSH32 0xACD81379883ABF90827A751C8100BEC3C4D1F66DBBA0F8F8B412A049F0A03D70 SWAP2 ADD PUSH2 0xC5C JUMP JUMPDEST PUSH1 0x4 SLOAD DUP2 LT ISZERO PUSH2 0xF20 JUMPI PUSH1 0x40 MLOAD PUSH3 0x461BCD PUSH1 0xE5 SHL DUP2 MSTORE PUSH1 0x20 PUSH1 0x4 DUP3 ADD MSTORE PUSH1 0x24 DUP1 DUP3 ADD MSTORE PUSH32 0x424C42494F3A206C657373207468616E206D696E696D756D20616D6F756E7420 PUSH1 0x44 DUP3 ADD MSTORE PUSH4 0x109554D1 PUSH1 0xE2 SHL PUSH1 0x64 DUP3 ADD MSTORE PUSH1 0x84 ADD PUSH2 0x710 JUMP JUMPDEST CALLER PUSH1 0x0 PUSH2 0xF2C DUP4 PUSH2 0xCF2 JUMP JUMPDEST PUSH1 0x8 SLOAD PUSH1 0x40 MLOAD PUSH4 0x23B872DD PUSH1 0xE0 SHL DUP2 MSTORE PUSH1 0x1 PUSH1 0x1 PUSH1 0xA0 SHL SUB DUP6 DUP2 AND PUSH1 0x4 DUP4 ADD MSTORE ADDRESS PUSH1 0x24 DUP4 ADD MSTORE PUSH1 0x44 DUP3 ADD DUP8 SWAP1 MSTORE SWAP3 SWAP4 POP SWAP2 AND SWAP1 PUSH4 0x23B872DD SWAP1 PUSH1 0x64 ADD PUSH1 0x20 PUSH1 0x40 MLOAD DUP1 DUP4 SUB DUP2 PUSH1 0x0 DUP8 GAS CALL ISZERO DUP1 ISZERO PUSH2 0xF87 JUMPI RETURNDATASIZE PUSH1 0x0 DUP1 RETURNDATACOPY RETURNDATASIZE PUSH1 0x0 REVERT JUMPDEST POP POP POP POP PUSH1 0x40 MLOAD RETURNDATASIZE PUSH1 0x1F NOT PUSH1 0x1F DUP3 ADD AND DUP3 ADD DUP1 PUSH1 0x40 MSTORE POP DUP2 ADD SWAP1 PUSH2 0xFAB SWAP2 SWAP1 PUSH2 0x146F JUMP JUMPDEST POP PUSH1 0x1 PUSH1 0x1 PUSH1 0xA0 SHL SUB DUP3 AND PUSH1 0x0 SWAP1 DUP2 MSTORE PUSH1 0x9 PUSH1 0x20 MSTORE PUSH1 0x40 DUP2 KECCAK256 DUP1 SLOAD DUP4 SWAP3 SWAP1 PUSH2 0xFD4 SWAP1 DUP5 SWAP1 PUSH2 0x145C JUMP JUMPDEST SWAP3 POP POP DUP2 SWAP1 SSTORE POP DUP1 PUSH1 0x6 PUSH1 0x0 DUP3 DUP3 SLOAD PUSH2 0xFED SWAP2 SWAP1 PUSH2 0x145C JUMP JUMPDEST SWAP1 SWAP2 SSTORE POP POP PUSH1 0x40 MLOAD PUSH4 0x109554D1 PUSH1 0xE2 SHL DUP2 MSTORE PUSH1 0x4 ADD PUSH1 0x40 DUP1 MLOAD SWAP2 DUP3 SWAP1 SUB DUP3 KECCAK256 DUP6 DUP4 MSTORE PUSH1 0x20 DUP4 ADD DUP5 SWAP1 MSTORE SWAP2 PUSH1 0x1 PUSH1 0x1 PUSH1 0xA0 SHL SUB DUP6 AND SWAP2 PUSH32 0xACD81379883ABF90827A751C8100BEC3C4D1F66DBBA0F8F8B412A049F0A03D70 SWAP2 ADD PUSH2 0xC5C JUMP JUMPDEST PUSH2 0x1052 PUSH2 0x1277 JUMP JUMPDEST PUSH1 0x8 SLOAD PUSH1 0x1 PUSH1 0x1 PUSH1 0xA0 SHL SUB AND PUSH4 0xA9059CBB PUSH2 0x1075 PUSH1 0x0 SLOAD PUSH1 0x1 PUSH1 0x1 PUSH1 0xA0 SHL SUB AND SWAP1 JUMP JUMPDEST PUSH1 0x40 MLOAD PUSH1 0x1 PUSH1 0x1 PUSH1 0xE0 SHL SUB NOT PUSH1 0xE0 DUP5 SWAP1 SHL AND DUP2 MSTORE PUSH1 0x1 PUSH1 0x1 PUSH1 0xA0 SHL SUB SWAP1 SWAP2 AND PUSH1 0x4 DUP3 ADD MSTORE PUSH1 0x24 DUP2 ADD DUP5 SWAP1 MSTORE PUSH1 0x44 ADD PUSH1 0x20 PUSH1 0x40 MLOAD DUP1 DUP4 SUB DUP2 PUSH1 0x0 DUP8 GAS CALL ISZERO DUP1 ISZERO PUSH2 0x10C2 JUMPI RETURNDATASIZE PUSH1 0x0 DUP1 RETURNDATACOPY RETURNDATASIZE PUSH1 0x0 REVERT JUMPDEST POP POP POP POP PUSH1 0x40 MLOAD RETURNDATASIZE PUSH1 0x1F NOT PUSH1 0x1F DUP3 ADD AND DUP3 ADD DUP1 PUSH1 0x40 MSTORE POP DUP2 ADD SWAP1 PUSH2 0x10E6 SWAP2 SWAP1 PUSH2 0x146F JUMP JUMPDEST POP PUSH1 0x40 MLOAD PUSH4 0x109554D1 PUSH1 0xE2 SHL DUP2 MSTORE PUSH1 0x4 ADD PUSH2 0x60E JUMP JUMPDEST PUSH2 0x1104 PUSH2 0x1277 JUMP JUMPDEST DUP1 PUSH1 0x5 PUSH1 0x0 DUP3 DUP3 SLOAD PUSH2 0x1116 SWAP2 SWAP1 PUSH2 0x145C JUMP JUMPDEST SWAP1 SWAP2 SSTORE POP POP PUSH1 0x5 SLOAD PUSH3 0xF4240 LT ISZERO PUSH2 0x1183 JUMPI PUSH1 0x40 MLOAD PUSH3 0x461BCD PUSH1 0xE5 SHL DUP2 MSTORE PUSH1 0x20 PUSH1 0x4 DUP3 ADD MSTORE PUSH1 0x2A PUSH1 0x24 DUP3 ADD MSTORE PUSH32 0x424C42494F41646D696E697374726174696F6E3A206672616374696F6E206578 PUSH1 0x44 DUP3 ADD MSTORE PUSH10 0x31B2B2B2399018982F1B PUSH1 0xB1 SHL PUSH1 0x64 DUP3 ADD MSTORE PUSH1 0x84 ADD PUSH2 0x710 JUMP JUMPDEST POP JUMP JUMPDEST PUSH1 0x8 SLOAD PUSH1 0x40 MLOAD PUSH4 0x70A08231 PUSH1 0xE0 SHL DUP2 MSTORE ADDRESS PUSH1 0x4 DUP3 ADD MSTORE PUSH1 0x0 SWAP2 PUSH1 0x1 PUSH1 0x1 PUSH1 0xA0 SHL SUB AND SWAP1 PUSH4 0x70A08231 SWAP1 PUSH1 0x24 ADD JUMPDEST PUSH1 0x20 PUSH1 0x40 MLOAD DUP1 DUP4 SUB DUP2 DUP7 GAS STATICCALL ISZERO DUP1 ISZERO PUSH2 0xCC9 JUMPI RETURNDATASIZE PUSH1 0x0 DUP1 RETURNDATACOPY RETURNDATASIZE PUSH1 0x0 REVERT JUMPDEST PUSH1 0x7 SLOAD PUSH1 0x40 MLOAD PUSH4 0x70A08231 PUSH1 0xE0 SHL DUP2 MSTORE ADDRESS PUSH1 0x4 DUP3 ADD MSTORE PUSH1 0x0 SWAP2 PUSH1 0x1 PUSH1 0x1 PUSH1 0xA0 SHL SUB AND SWAP1 PUSH4 0x70A08231 SWAP1 PUSH1 0x24 ADD PUSH2 0x11B3 JUMP JUMPDEST PUSH2 0x1209 PUSH2 0x1277 JUMP JUMPDEST PUSH1 0x1 PUSH1 0x1 PUSH1 0xA0 SHL SUB DUP2 AND PUSH2 0x126E JUMPI PUSH1 0x40 MLOAD PUSH3 0x461BCD PUSH1 0xE5 SHL DUP2 MSTORE PUSH1 0x20 PUSH1 0x4 DUP3 ADD MSTORE PUSH1 0x26 PUSH1 0x24 DUP3 ADD MSTORE PUSH32 0x4F776E61626C653A206E6577206F776E657220697320746865207A65726F2061 PUSH1 0x44 DUP3 ADD MSTORE PUSH6 0x646472657373 PUSH1 0xD0 SHL PUSH1 0x64 DUP3 ADD MSTORE PUSH1 0x84 ADD PUSH2 0x710 JUMP JUMPDEST PUSH2 0x1183 DUP2 PUSH2 0x12D1 JUMP JUMPDEST PUSH1 0x0 SLOAD PUSH1 0x1 PUSH1 0x1 PUSH1 0xA0 SHL SUB AND CALLER EQ PUSH2 0xA83 JUMPI PUSH1 0x40 MLOAD PUSH3 0x461BCD PUSH1 0xE5 SHL DUP2 MSTORE PUSH1 0x20 PUSH1 0x4 DUP3 ADD DUP2 SWAP1 MSTORE PUSH1 0x24 DUP3 ADD MSTORE PUSH32 0x4F776E61626C653A2063616C6C6572206973206E6F7420746865206F776E6572 PUSH1 0x44 DUP3 ADD MSTORE PUSH1 0x64 ADD PUSH2 0x710 JUMP JUMPDEST PUSH1 0x0 DUP1 SLOAD PUSH1 0x1 PUSH1 0x1 PUSH1 0xA0 SHL SUB DUP4 DUP2 AND PUSH1 0x1 PUSH1 0x1 PUSH1 0xA0 SHL SUB NOT DUP4 AND DUP2 OR DUP5 SSTORE PUSH1 0x40 MLOAD SWAP2 SWAP1 SWAP3 AND SWAP3 DUP4 SWAP2 PUSH32 0x8BE0079C531659141344CD1FD0A4F28419497F9722A3DAAFE3B4186F6B6457E0 SWAP2 SWAP1 LOG3 POP POP JUMP JUMPDEST PUSH1 0x0 PUSH1 0x20 DUP3 DUP5 SUB SLT ISZERO PUSH2 0x1333 JUMPI PUSH1 0x0 DUP1 REVERT JUMPDEST POP CALLDATALOAD SWAP2 SWAP1 POP JUMP JUMPDEST DUP1 CALLDATALOAD PUSH1 0x1 PUSH1 0x1 PUSH1 0xA0 SHL SUB DUP2 AND DUP2 EQ PUSH2 0x1351 JUMPI PUSH1 0x0 DUP1 REVERT JUMPDEST SWAP2 SWAP1 POP JUMP JUMPDEST PUSH1 0x0 PUSH1 0x20 DUP3 DUP5 SUB SLT ISZERO PUSH2 0x1368 JUMPI PUSH1 0x0 DUP1 REVERT JUMPDEST PUSH2 0x674 DUP3 PUSH2 0x133A JUMP JUMPDEST PUSH1 0x0 DUP1 PUSH1 0x40 DUP4 DUP6 SUB SLT ISZERO PUSH2 0x1384 JUMPI PUSH1 0x0 DUP1 REVERT JUMPDEST POP POP DUP1 CALLDATALOAD SWAP3 PUSH1 0x20 SWAP1 SWAP2 ADD CALLDATALOAD SWAP2 POP JUMP JUMPDEST DUP1 ISZERO ISZERO DUP2 EQ PUSH2 0x1183 JUMPI PUSH1 0x0 DUP1 REVERT JUMPDEST PUSH1 0x0 DUP1 PUSH1 0x0 PUSH1 0x60 DUP5 DUP7 SUB SLT ISZERO PUSH2 0x13B6 JUMPI PUSH1 0x0 DUP1 REVERT JUMPDEST PUSH2 0x13BF DUP5 PUSH2 0x133A JUMP JUMPDEST SWAP3 POP PUSH1 0x20 DUP5 ADD CALLDATALOAD SWAP2 POP PUSH1 0x40 DUP5 ADD CALLDATALOAD PUSH2 0x13D6 DUP2 PUSH2 0x1393 JUMP JUMPDEST DUP1 SWAP2 POP POP SWAP3 POP SWAP3 POP SWAP3 JUMP JUMPDEST PUSH4 0x4E487B71 PUSH1 0xE0 SHL PUSH1 0x0 MSTORE PUSH1 0x11 PUSH1 0x4 MSTORE PUSH1 0x24 PUSH1 0x0 REVERT JUMPDEST DUP2 DUP2 SUB DUP2 DUP2 GT ISZERO PUSH2 0xA6B JUMPI PUSH2 0xA6B PUSH2 0x13E1 JUMP JUMPDEST DUP1 DUP3 MUL DUP2 ISZERO DUP3 DUP3 DIV DUP5 EQ OR PUSH2 0xA6B JUMPI PUSH2 0xA6B PUSH2 0x13E1 JUMP JUMPDEST PUSH1 0x0 DUP3 PUSH2 0x143E JUMPI PUSH4 0x4E487B71 PUSH1 0xE0 SHL PUSH1 0x0 MSTORE PUSH1 0x12 PUSH1 0x4 MSTORE PUSH1 0x24 PUSH1 0x0 REVERT JUMPDEST POP DIV SWAP1 JUMP JUMPDEST PUSH1 0x0 PUSH1 0x20 DUP3 DUP5 SUB SLT ISZERO PUSH2 0x1455 JUMPI PUSH1 0x0 DUP1 REVERT JUMPDEST POP MLOAD SWAP2 SWAP1 POP JUMP JUMPDEST DUP1 DUP3 ADD DUP1 DUP3 GT ISZERO PUSH2 0xA6B JUMPI PUSH2 0xA6B PUSH2 0x13E1 JUMP JUMPDEST PUSH1 0x0 PUSH1 0x20 DUP3 DUP5 SUB SLT ISZERO PUSH2 0x1481 JUMPI PUSH1 0x0 DUP1 REVERT JUMPDEST DUP2 MLOAD PUSH2 0x674 DUP2 PUSH2 0x1393 JUMP INVALID LOG2 PUSH5 0x6970667358 0x22 SLT KECCAK256 0xCE PUSH12 0x3FB5BAABE705AE282D8FBE58 POP PUSH24 0x29F1D80319C7228A09DA5F6A43DB991464736F6C63430008 GT STOP CALLER "},"methodIdentifiers":{"BLB()":"bfa54b3f","BLBsForBNB(uint256)":"5fd03331","BLBsForUSD(uint256)":"bc07d85c","BUSD()":"484f4ea9","TotalClaimable()":"4426a263","blbBalance()":"e00115f6","bnbBalance()":"d013cbe2","busdBalance()":"dc39ca7a","claim()":"4e71d92d","claimable(address)":"402914f5","claimableFraction()":"158b072c","giftBLB(address,uint256,bool)":"c9e3c9c7","increaseClaimableFraction(uint256)":"ce9d3b09","minUSDLimit()":"192ab186","owner()":"8da5cb5b","priceBNB()":"a8f70d0f","privateBLBsPerUSD()":"b1479b7f","publicBLBsPerUSD()":"c91d23e7","purchaseInBNB()":"84d30eaa","purchaseInBUSD(uint256)":"cc205db3","renounceOwnership()":"715018a6","retailLimit()":"790b284f","setBLBsPerUSD(uint256,uint256)":"2acbaea5","setMinUSDLimit(uint256)":"0b8c6e29","setRetailLimit(uint256)":"5b0dfa95","setSoldOut()":"be5be211","soldOut()":"893da6c9","totalClaimable(address)":"1dfce5c6","transferOwnership(address)":"f2fde38b","withdrawBLB(uint256)":"7f04e0e1","withdrawBNB(uint256)":"127f4b2e","withdrawBUSD(uint256)":"cc3bcaf3"}}}}}