{"contracts/BLBSwap/BLBSwap.sol":{"BLBSwap":{"abi":[{"inputs":[{"internalType":"uint256","name":"_BLBsPerUSD","type":"uint256"}],"stateMutability":"nonpayable","type":"constructor"},{"anonymous":false,"inputs":[{"indexed":true,"internalType":"address","name":"previousOwner","type":"address"},{"indexed":true,"internalType":"address","name":"newOwner","type":"address"}],"name":"OwnershipTransferred","type":"event"},{"anonymous":false,"inputs":[{"indexed":true,"internalType":"address","name":"userAddr","type":"address"},{"indexed":true,"internalType":"string","name":"tokenIn","type":"string"},{"indexed":true,"internalType":"string","name":"tokenOut","type":"string"},{"indexed":false,"internalType":"uint256","name":"amountIn","type":"uint256"},{"indexed":false,"internalType":"uint256","name":"amountOut","type":"uint256"}],"name":"Swap","type":"event"},{"inputs":[],"name":"BLB","outputs":[{"internalType":"address","name":"","type":"address"}],"stateMutability":"view","type":"function"},{"inputs":[],"name":"BLB_BNB","outputs":[{"internalType":"uint256","name":"","type":"uint256"}],"stateMutability":"view","type":"function"},{"inputs":[],"name":"BLB_BUSD","outputs":[{"internalType":"uint256","name":"","type":"uint256"}],"stateMutability":"view","type":"function"},{"inputs":[{"internalType":"uint256","name":"amountBNB","type":"uint256"}],"name":"BLBsForBNB","outputs":[{"internalType":"uint256","name":"","type":"uint256"}],"stateMutability":"view","type":"function"},{"inputs":[{"internalType":"uint256","name":"amountBUSD","type":"uint256"}],"name":"BLBsForUSD","outputs":[{"internalType":"uint256","name":"","type":"uint256"}],"stateMutability":"view","type":"function"},{"inputs":[],"name":"BLBsPerUSD","outputs":[{"internalType":"uint256","name":"","type":"uint256"}],"stateMutability":"view","type":"function"},{"inputs":[],"name":"BNB_BLB","outputs":[{"internalType":"uint256","name":"","type":"uint256"}],"stateMutability":"view","type":"function"},{"inputs":[],"name":"BNB_BUSD","outputs":[{"internalType":"uint256","name":"","type":"uint256"}],"stateMutability":"view","type":"function"},{"inputs":[{"internalType":"uint256","name":"amountBLB","type":"uint256"}],"name":"BNBsForBLB","outputs":[{"internalType":"uint256","name":"","type":"uint256"}],"stateMutability":"view","type":"function"},{"inputs":[],"name":"BUSD_BLB","outputs":[{"internalType":"uint256","name":"","type":"uint256"}],"stateMutability":"view","type":"function"},{"inputs":[],"name":"BUSD_BNB","outputs":[{"internalType":"uint256","name":"","type":"uint256"}],"stateMutability":"view","type":"function"},{"inputs":[{"internalType":"uint256","name":"amountBLB","type":"uint256"}],"name":"USDsForBLB","outputs":[{"internalType":"uint256","name":"","type":"uint256"}],"stateMutability":"view","type":"function"},{"inputs":[],"name":"blbBalance","outputs":[{"internalType":"uint256","name":"","type":"uint256"}],"stateMutability":"view","type":"function"},{"inputs":[],"name":"bnbBalance","outputs":[{"internalType":"uint256","name":"","type":"uint256"}],"stateMutability":"view","type":"function"},{"inputs":[],"name":"busdBalance","outputs":[{"internalType":"uint256","name":"","type":"uint256"}],"stateMutability":"view","type":"function"},{"inputs":[],"name":"onPancake","outputs":[{"internalType":"bool","name":"","type":"bool"}],"stateMutability":"view","type":"function"},{"inputs":[],"name":"owner","outputs":[{"internalType":"address","name":"","type":"address"}],"stateMutability":"view","type":"function"},{"inputs":[{"internalType":"uint256","name":"amountBUSD","type":"uint256"}],"name":"purchaseBLB","outputs":[{"internalType":"uint256","name":"amountBLB","type":"uint256"}],"stateMutability":"payable","type":"function"},{"inputs":[],"name":"renounceOwnership","outputs":[],"stateMutability":"nonpayable","type":"function"},{"inputs":[{"internalType":"uint256","name":"amountBLB","type":"uint256"},{"internalType":"bool","name":"toBUSD","type":"bool"}],"name":"sellBLB","outputs":[{"internalType":"uint256","name":"amountOut","type":"uint256"}],"stateMutability":"nonpayable","type":"function"},{"inputs":[{"internalType":"uint256","name":"BLBsAmount","type":"uint256"}],"name":"setBLBsPerUSD","outputs":[],"stateMutability":"nonpayable","type":"function"},{"inputs":[],"name":"setOnPancake","outputs":[],"stateMutability":"nonpayable","type":"function"},{"inputs":[{"internalType":"address","name":"newOwner","type":"address"}],"name":"transferOwnership","outputs":[],"stateMutability":"nonpayable","type":"function"},{"inputs":[{"internalType":"uint256","name":"amount","type":"uint256"}],"name":"withdrawBLB","outputs":[],"stateMutability":"nonpayable","type":"function"},{"inputs":[{"internalType":"uint256","name":"amount","type":"uint256"}],"name":"withdrawBNB","outputs":[],"stateMutability":"nonpayable","type":"function"},{"inputs":[{"internalType":"uint256","name":"amount","type":"uint256"}],"name":"withdrawBUSD","outputs":[],"stateMutability":"nonpayable","type":"function"},{"stateMutability":"payable","type":"receive"}],"evm":{"bytecode":{"linkReferences":{},"object":"6080604052600180546001600160a01b0319167313d67fd10bdbe8301e978e4adcbd2c0ad26f75491790553480156200003757600080fd5b5060405162002366380380620023668339810160408190526200005a9162000137565b620000653362000077565b6200007081620000c7565b5062000151565b600080546001600160a01b038381166001600160a01b0319831681178455604051919092169283917f8be0079c531659141344cd1fd0a4f28419497f9722a3daafe3b4186f6b6457e09190a35050565b620000d1620000d6565b600255565b6000546001600160a01b03163314620001355760405162461bcd60e51b815260206004820181905260248201527f4f776e61626c653a2063616c6c6572206973206e6f7420746865206f776e6572604482015260640160405180910390fd5b565b6000602082840312156200014a57600080fd5b5051919050565b61220580620001616000396000f3fe6080604052600436106101855760003560e01c80636f03bfdb116100d1578063cc3bcaf31161008a578063e00115f611610064578063e00115f6146103f1578063e483a6c314610406578063f2fde38b14610426578063fd64500c1461044657600080fd5b8063cc3bcaf3146103a9578063d013cbe2146103c9578063dc39ca7a146103dc57600080fd5b80636f03bfdb146102ed578063715018a6146103025780637f04e0e1146103175780638da5cb5b14610337578063bc07d85c14610369578063bfa54b3f1461038957600080fd5b80634e91341b1161013e5780636601fd26116101185780636601fd26146102985780636ad2690a146102ad5780636c54fe9a146102c35780636ebd467d146102d857600080fd5b80634e91341b1461024357806357d846f9146102585780635fd033311461027857600080fd5b8063067a3dce146101915780630cb41d60146101b3578063127f4b2e146101e657806322233ac01461020657806348f90a901461021b5780634d1d226e1461023057600080fd5b3661018c57005b600080fd5b34801561019d57600080fd5b506101b16101ac366004611cb7565b610470565b005b3480156101bf57600080fd5b506101d36101ce366004611cb7565b61047d565b6040519081526020015b60405180910390f35b3480156101f257600080fd5b506101b1610201366004611cb7565b6104be565b34801561021257600080fd5b506101d3610503565b34801561022757600080fd5b506101d36106cc565b6101d361023e366004611cb7565b610889565b34801561024f57600080fd5b506101b1610aa8565b34801561026457600080fd5b506101d3610273366004611cb7565b610ad7565b34801561028457600080fd5b506101d3610293366004611cb7565b610b12565b3480156102a457600080fd5b506101d3610b51565b3480156102b957600080fd5b506101d360025481565b3480156102cf57600080fd5b506101d3610cb6565b3480156102e457600080fd5b506101d3610cea565b3480156102f957600080fd5b506101d3610d05565b34801561030e57600080fd5b506101b1610e6a565b34801561032357600080fd5b506101b1610332366004611cb7565b610e7e565b34801561034357600080fd5b506000546001600160a01b03165b6040516001600160a01b0390911681526020016101dd565b34801561037557600080fd5b506101d3610384366004611cb7565b610f1a565b34801561039557600080fd5b50600154610351906001600160a01b031681565b3480156103b557600080fd5b506101b16103c4366004611cb7565b610f48565b3480156103d557600080fd5b50476101d3565b3480156103e857600080fd5b506101d3610f7c565b3480156103fd57600080fd5b506101d3610ff3565b34801561041257600080fd5b506101d3610421366004611cde565b611024565b34801561043257600080fd5b506101b1610441366004611d23565b611240565b34801561045257600080fd5b506003546104609060ff1681565b60405190151581526020016101dd565b6104786112b9565b600255565b60035460009060ff161561049a5761049482611313565b92915050565b6002546104af83670de0b6b3a7640000611d56565b6104949190611d6d565b919050565b6104c66112b9565b600080546040516001600160a01b039091169183156108fc02918491818181858888f193505050501580156104ff573d6000803e3d6000fd5b5050565b604051630b4c774160e11b81526000908190730bfbcf9fa4f9c56b0f40a671ad40e0805a09186590631698ee829061056790600080516020612190833981519152907355d398326f99059ff775485246999027b3197955906101f490600401611d8f565b602060405180830381865afa158015610584573d6000803e3d6000fd5b505050506040513d601f19601f820116820180604052508101906105a89190611db7565b90506000816001600160a01b0316633850c7bd6040518163ffffffff1660e01b815260040160e060405180830381865afa1580156105ea573d6000803e3d6000fd5b505050506040513d601f19601f8201168201806040525081019061060e9190611e22565b6000015190506000805160206121908339815191526001600160a01b0316826001600160a01b0316630dfe16816040518163ffffffff1660e01b8152600401602060405180830381865afa15801561066a573d6000803e3d6000fd5b505050506040513d601f19601f8201168201806040525081019061068e9190611db7565b6001600160a01b0316146106b3576106ae816001600160a01b0316611330565b6106c5565b6106c5816001600160a01b0316611368565b9250505090565b604051630b4c774160e11b81526000908190730bfbcf9fa4f9c56b0f40a671ad40e0805a09186590631698ee829061073090600080516020612190833981519152907355d398326f99059ff775485246999027b3197955906101f490600401611d8f565b602060405180830381865afa15801561074d573d6000803e3d6000fd5b505050506040513d601f19601f820116820180604052508101906107719190611db7565b90506000816001600160a01b0316633850c7bd6040518163ffffffff1660e01b815260040160e060405180830381865afa1580156107b3573d6000803e3d6000fd5b505050506040513d601f19601f820116820180604052508101906107d79190611e22565b6000015190506000805160206121908339815191526001600160a01b0316826001600160a01b0316630dfe16816040518163ffffffff1660e01b8152600401602060405180830381865afa158015610833573d6000803e3d6000fd5b505050506040513d601f19601f820116820180604052508101906108579190611db7565b6001600160a01b031614610877576106ae816001600160a01b0316611368565b6106c5816001600160a01b0316611330565b6003546000903390349060ff16156108ad576108a6828583611399565b9250610aa1565b83600003610990576108be81610b12565b9250826108c9610ff3565b10156109165760405162461bcd60e51b8152602060048201526017602482015276696e73756666696369656e7420424c4220746f2070617960481b60448201526064015b60405180910390fd5b60015461092d906001600160a01b0316838561163f565b6040516221262160e91b81526003016040519081900381206221272160e91b8252906003016040805191829003822084835260208301879052916001600160a01b038616916000805160206121b0833981519152910160405180910390a4610aa1565b80156109ae5760405162461bcd60e51b815260040161090d90611ee0565b6109b784610f1a565b9250826109c2610ff3565b1015610a0a5760405162461bcd60e51b8152602060048201526017602482015276696e73756666696369656e7420424c4220746f2070617960481b604482015260640161090d565b610a2a7355d398326f99059ff775485246999027b319795583308761173f565b600154610a41906001600160a01b0316838561163f565b6040516221262160e91b815260030160405190819003812063109554d160e21b8252906004016040805191829003822087835260208301879052916001600160a01b038616916000805160206121b0833981519152910160405180910390a45b5050919050565b610ab06112b9565b60035460ff16610ac1576001610ac4565b60005b6003805460ff1916911515919091179055565b60035460009060ff1615610aee5761049482611849565b670de0b6b3a7640000610aff6106cc565b610b088461047d565b6104af9190611d56565b60035460009060ff1615610b29576104948261185c565b610494670de0b6b3a7640000610b3d610503565b610b479085611d56565b6103849190611d6d565b600154604051630b4c774160e11b81526000918291730bfbcf9fa4f9c56b0f40a671ad40e0805a09186591631698ee8291610bac916001600160a01b031690600080516020612190833981519152906101f490600401611d8f565b602060405180830381865afa158015610bc9573d6000803e3d6000fd5b505050506040513d601f19601f82011682018060405250810190610bed9190611db7565b90506000816001600160a01b0316633850c7bd6040518163ffffffff1660e01b815260040160e060405180830381865afa158015610c2f573d6000803e3d6000fd5b505050506040513d601f19601f82011682018060405250810190610c539190611e22565b600001519050600160009054906101000a90046001600160a01b03166001600160a01b0316826001600160a01b0316630dfe16816040518163ffffffff1660e01b8152600401602060405180830381865afa158015610833573d6000803e3d6000fd5b6000670de0b6b3a7640000610cc9610503565b610cd1610d05565b610cdb9190611d56565b610ce59190611d6d565b905090565b6000670de0b6b3a7640000610cfd610b51565b610cd16106cc565b600154604051630b4c774160e11b81526000918291730bfbcf9fa4f9c56b0f40a671ad40e0805a09186591631698ee8291610d60916001600160a01b031690600080516020612190833981519152906101f490600401611d8f565b602060405180830381865afa158015610d7d573d6000803e3d6000fd5b505050506040513d601f19601f82011682018060405250810190610da19190611db7565b90506000816001600160a01b0316633850c7bd6040518163ffffffff1660e01b815260040160e060405180830381865afa158015610de3573d6000803e3d6000fd5b505050506040513d601f19601f82011682018060405250810190610e079190611e22565b600001519050600160009054906101000a90046001600160a01b03166001600160a01b0316826001600160a01b0316630dfe16816040518163ffffffff1660e01b8152600401602060405180830381865afa15801561066a573d6000803e3d6000fd5b610e726112b9565b610e7c600061186f565b565b610e866112b9565b6001546001600160a01b031663a9059cbb610ea96000546001600160a01b031690565b6040516001600160e01b031960e084901b1681526001600160a01b039091166004820152602481018490526044016020604051808303816000875af1158015610ef6573d6000803e3d6000fd5b505050506040513d601f19601f820116820180604052508101906104ff9190611f33565b60035460009060ff1615610f3157610494826118bf565b670de0b6b3a7640000826002546104af9190611d56565b610f506112b9565b7355d398326f99059ff775485246999027b319795563a9059cbb610ea96000546001600160a01b031690565b6040516370a0823160e01b81523060048201526000907355d398326f99059ff775485246999027b3197955906370a08231906024015b602060405180830381865afa158015610fcf573d6000803e3d6000fd5b505050506040513d601f19601f82011682018060405250810190610ce59190611f50565b6001546040516370a0823160e01b81523060048201526000916001600160a01b0316906370a0823190602401610fb2565b6001546000903390611041906001600160a01b031682308761173f565b60035460ff161561105d576110578185856118d2565b50611239565b82156111485761106c8461047d565b915081611077610f7c565b10156110c55760405162461bcd60e51b815260206004820152601860248201527f696e73756666696369656e74204255534420746f207061790000000000000000604482015260640161090d565b6110e47355d398326f99059ff775485246999027b3197955828461163f565b60405163109554d160e21b81526004016040519081900381206221262160e91b8252906003016040805191829003822087835260208301869052916001600160a01b038516916000805160206121b0833981519152910160405180910390a4611239565b61115184610ad7565b9150814710156111a35760405162461bcd60e51b815260206004820152601760248201527f696e73756666696369656e7420424e4220746f20706179000000000000000000604482015260640161090d565b6040516001600160a01b0382169083156108fc029084906000818181858888f193505050501580156111d9573d6000803e3d6000fd5b506040516221272160e91b81526003016040519081900381206221262160e91b8252906003016040805191829003822087835260208301869052916001600160a01b038516916000805160206121b0833981519152910160405180910390a45b5092915050565b6112486112b9565b6001600160a01b0381166112ad5760405162461bcd60e51b815260206004820152602660248201527f4f776e61626c653a206e6577206f776e657220697320746865207a65726f206160448201526564647265737360d01b606482015260840161090d565b6112b68161186f565b50565b6000546001600160a01b03163314610e7c5760405162461bcd60e51b815260206004820181905260248201527f4f776e61626c653a2063616c6c6572206973206e6f7420746865206f776e6572604482015260640161090d565b6000670de0b6b3a7640000611326610cb6565b6104af9084611d56565b600080670de0b6b3a764000061134760028561204d565b6113519190611d6d565b905061136181600160c01b611d6d565b9392505050565b6000600160c01b611381670de0b6b3a764000082611d6d565b90508061138f60028561204d565b6113619190611d6d565b6040805160808101825260608082526000602083018190529282018390528101829052836000036114c85760006000805160206121908339815191529050806001600160a01b031663d0e30db0856040518263ffffffff1660e01b81526004016000604051808303818588803b15801561141257600080fd5b505af1158015611426573d6000803e3d6000fd5b50505050506114586000805160206121908339815191527313f4ea83d0bd40e75c8222255bc855a974568dd486611bbe565b6040805160808101909152600154819061149290600080516020612190833981519152906101f4906001600160a01b031660a0850161205c565b6040516020818303038152906040528152602001876001600160a01b0316815260200185815260200160008152509150506115bc565b82156114e65760405162461bcd60e51b815260040161090d90611ee0565b6115067355d398326f99059ff775485246999027b319795586308761173f565b6115397355d398326f99059ff775485246999027b31979557313f4ea83d0bd40e75c8222255bc855a974568dd486611bbe565b6040805160808101909152600154819061158b907355d398326f99059ff775485246999027b3197955906101f4906000805160206121908339815191529082906001600160a01b031660a08701612097565b6040516020818303038152906040528152602001866001600160a01b03168152602001858152602001600081525090505b60405163b858183f60e01b81527313f4ea83d0bd40e75c8222255bc855a974568dd49063b858183f906115f390849060040161210d565b6020604051808303816000875af1158015611612573d6000803e3d6000fd5b505050506040513d601f19601f820116820180604052508101906116369190611f50565b95945050505050565b604080516001600160a01b038481166024830152604480830185905283518084039091018152606490920183526020820180516001600160e01b031663a9059cbb60e01b179052915160009283929087169161169b9190612173565b6000604051808303816000865af19150503d80600081146116d8576040519150601f19603f3d011682016040523d82523d6000602084013e6116dd565b606091505b50915091508180156117075750805115806117075750808060200190518101906117079190611f33565b6117385760405162461bcd60e51b815260206004820152600260248201526114d560f21b604482015260640161090d565b5050505050565b604080516001600160a01b0385811660248301528481166044830152606480830185905283518084039091018152608490920183526020820180516001600160e01b03166323b872dd60e01b17905291516000928392908816916117a39190612173565b6000604051808303816000865af19150503d80600081146117e0576040519150601f19603f3d011682016040523d82523d6000602084013e6117e5565b606091505b509150915081801561180f57508051158061180f57508080602001905181019061180f9190611f33565b6118415760405162461bcd60e51b815260206004820152600360248201526229aa2360e91b604482015260640161090d565b505050505050565b6000670de0b6b3a7640000611326610d05565b6000670de0b6b3a7640000611326610b51565b600080546001600160a01b038381166001600160a01b0319831681178455604051919092169283917f8be0079c531659141344cd1fd0a4f28419497f9722a3daafe3b4186f6b6457e09190a35050565b6000670de0b6b3a7640000611326610cea565b6001546000906118ed906001600160a01b031685308661173f565b600154611918906001600160a01b03167313f4ea83d0bd40e75c8222255bc855a974568dd485611bbe565b8115611a2b576040805160808101909152600154600091908190611970906001600160a01b03166101f4600080516020612190833981519152817355d398326f99059ff775485246999027b319795560a08701612097565b6040516020818303038152906040528152602001866001600160a01b03168152602001858152602001600081525090507313f4ea83d0bd40e75c8222255bc855a974568dd46001600160a01b031663b858183f826040518263ffffffff1660e01b81526004016119e0919061210d565b6020604051808303816000875af11580156119ff573d6000803e3d6000fd5b505050506040513d601f19601f82011682018060405250810190611a239190611f50565b915050611361565b6040805160808101909152600154600091908190611a67906001600160a01b03166101f460008051602061219083398151915260a0850161205c565b6040516020818303038152906040528152602001306001600160a01b03168152602001858152602001600081525090507313f4ea83d0bd40e75c8222255bc855a974568dd46001600160a01b031663b858183f826040518263ffffffff1660e01b8152600401611ad7919061210d565b6020604051808303816000875af1158015611af6573d6000803e3d6000fd5b505050506040513d601f19601f82011682018060405250810190611b1a9190611f50565b604051632e1a7d4d60e01b815260048101829052909250600080516020612190833981519152908190632e1a7d4d90602401600060405180830381600087803b158015611b6657600080fd5b505af1158015611b7a573d6000803e3d6000fd5b50506040516001600160a01b038916925085156108fc02915085906000818181858888f19350505050158015611bb4573d6000803e3d6000fd5b5050509392505050565b604080516001600160a01b038481166024830152604480830185905283518084039091018152606490920183526020820180516001600160e01b031663095ea7b360e01b1790529151600092839290871691611c1a9190612173565b6000604051808303816000865af19150503d8060008114611c57576040519150601f19603f3d011682016040523d82523d6000602084013e611c5c565b606091505b5091509150818015611c86575080511580611c86575080806020019051810190611c869190611f33565b6117385760405162461bcd60e51b8152602060048201526002602482015261534160f01b604482015260640161090d565b600060208284031215611cc957600080fd5b5035919050565b80151581146112b657600080fd5b60008060408385031215611cf157600080fd5b823591506020830135611d0381611cd0565b809150509250929050565b6001600160a01b03811681146112b657600080fd5b600060208284031215611d3557600080fd5b813561136181611d0e565b634e487b7160e01b600052601160045260246000fd5b808202811582820484141761049457610494611d40565b600082611d8a57634e487b7160e01b600052601260045260246000fd5b500490565b6001600160a01b03938416815291909216602082015262ffffff909116604082015260600190565b600060208284031215611dc957600080fd5b815161136181611d0e565b80516104b981611d0e565b8051600281900b81146104b957600080fd5b805161ffff811681146104b957600080fd5b805163ffffffff811681146104b957600080fd5b80516104b981611cd0565b600060e08284031215611e3457600080fd5b60405160e0810181811067ffffffffffffffff82111715611e6557634e487b7160e01b600052604160045260246000fd5b604052611e7183611dd4565b8152611e7f60208401611ddf565b6020820152611e9060408401611df1565b6040820152611ea160608401611df1565b6060820152611eb260808401611df1565b6080820152611ec360a08401611e03565b60a0820152611ed460c08401611e17565b60c08201529392505050565b60208082526033908201527f6e6f7420616c6c6f77656420746f20707572636861736520696e204255534420604082015272616e6420424e4220696e2073616d6554696d6560681b606082015260800190565b600060208284031215611f4557600080fd5b815161136181611cd0565b600060208284031215611f6257600080fd5b5051919050565b600181815b80851115611fa4578160001904821115611f8a57611f8a611d40565b80851615611f9757918102915b93841c9390800290611f6e565b509250929050565b600082611fbb57506001610494565b81611fc857506000610494565b8160018114611fde5760028114611fe857612004565b6001915050610494565b60ff841115611ff957611ff9611d40565b50506001821b610494565b5060208310610133831016604e8410600b8410161715612027575081810a610494565b6120318383611f69565b806000190482111561204557612045611d40565b029392505050565b600061136160ff841683611fac565b606093841b6bffffffffffffffffffffffff19908116825260e89390931b6001600160e81b0319166014820152921b166017820152602b0190565b6bffffffffffffffffffffffff19606096871b811682526001600160e81b031960e896871b8116601484015294871b811660178301529290941b909216602b840152921b909116602e82015260420190565b60005b838110156121045781810151838201526020016120ec565b50506000910152565b60208152600082516080602084015280518060a08501526121358160c08601602085016120e9565b60208501516001600160a01b0316604085810191909152850151606080860191909152909401516080840152505060c0601f909201601f1916010190565b600082516121858184602087016120e9565b919091019291505056fe000000000000000000000000bb4cdb9cbd36b01bd1cbaebf2de08d9173bc095c9882a73e249e93f2148a87b5f12b4ebedb657a77e07653469a47651bee85257ca2646970667358221220b4b60d3e80d0fc99a095658f838fd958b220a2a7db5714a8f10b7d6a27d46ea864736f6c63430008120033","opcodes":"PUSH1 0x80 PUSH1 0x40 MSTORE PUSH1 0x1 DUP1 SLOAD PUSH1 0x1 PUSH1 0x1 PUSH1 0xA0 SHL SUB NOT AND PUSH20 0x13D67FD10BDBE8301E978E4ADCBD2C0AD26F7549 OR SWAP1 SSTORE CALLVALUE DUP1 ISZERO PUSH3 0x37 JUMPI PUSH1 0x0 DUP1 REVERT JUMPDEST POP PUSH1 0x40 MLOAD PUSH3 0x2366 CODESIZE SUB DUP1 PUSH3 0x2366 DUP4 CODECOPY DUP2 ADD PUSH1 0x40 DUP2 SWAP1 MSTORE PUSH3 0x5A SWAP2 PUSH3 0x137 JUMP JUMPDEST PUSH3 0x65 CALLER PUSH3 0x77 JUMP JUMPDEST PUSH3 0x70 DUP2 PUSH3 0xC7 JUMP JUMPDEST POP PUSH3 0x151 JUMP JUMPDEST PUSH1 0x0 DUP1 SLOAD PUSH1 0x1 PUSH1 0x1 PUSH1 0xA0 SHL SUB DUP4 DUP2 AND PUSH1 0x1 PUSH1 0x1 PUSH1 0xA0 SHL SUB NOT DUP4 AND DUP2 OR DUP5 SSTORE PUSH1 0x40 MLOAD SWAP2 SWAP1 SWAP3 AND SWAP3 DUP4 SWAP2 PUSH32 0x8BE0079C531659141344CD1FD0A4F28419497F9722A3DAAFE3B4186F6B6457E0 SWAP2 SWAP1 LOG3 POP POP JUMP JUMPDEST PUSH3 0xD1 PUSH3 0xD6 JUMP JUMPDEST PUSH1 0x2 SSTORE JUMP JUMPDEST PUSH1 0x0 SLOAD PUSH1 0x1 PUSH1 0x1 PUSH1 0xA0 SHL SUB AND CALLER EQ PUSH3 0x135 JUMPI PUSH1 0x40 MLOAD PUSH3 0x461BCD PUSH1 0xE5 SHL DUP2 MSTORE PUSH1 0x20 PUSH1 0x4 DUP3 ADD DUP2 SWAP1 MSTORE PUSH1 0x24 DUP3 ADD MSTORE PUSH32 0x4F776E61626C653A2063616C6C6572206973206E6F7420746865206F776E6572 PUSH1 0x44 DUP3 ADD MSTORE PUSH1 0x64 ADD PUSH1 0x40 MLOAD DUP1 SWAP2 SUB SWAP1 REVERT JUMPDEST JUMP JUMPDEST PUSH1 0x0 PUSH1 0x20 DUP3 DUP5 SUB SLT ISZERO PUSH3 0x14A JUMPI PUSH1 0x0 DUP1 REVERT JUMPDEST POP MLOAD SWAP2 SWAP1 POP JUMP JUMPDEST PUSH2 0x2205 DUP1 PUSH3 0x161 PUSH1 0x0 CODECOPY PUSH1 0x0 RETURN INVALID PUSH1 0x80 PUSH1 0x40 MSTORE PUSH1 0x4 CALLDATASIZE LT PUSH2 0x185 JUMPI PUSH1 0x0 CALLDATALOAD PUSH1 0xE0 SHR DUP1 PUSH4 0x6F03BFDB GT PUSH2 0xD1 JUMPI DUP1 PUSH4 0xCC3BCAF3 GT PUSH2 0x8A JUMPI DUP1 PUSH4 0xE00115F6 GT PUSH2 0x64 JUMPI DUP1 PUSH4 0xE00115F6 EQ PUSH2 0x3F1 JUMPI DUP1 PUSH4 0xE483A6C3 EQ PUSH2 0x406 JUMPI DUP1 PUSH4 0xF2FDE38B EQ PUSH2 0x426 JUMPI DUP1 PUSH4 0xFD64500C EQ PUSH2 0x446 JUMPI PUSH1 0x0 DUP1 REVERT JUMPDEST DUP1 PUSH4 0xCC3BCAF3 EQ PUSH2 0x3A9 JUMPI DUP1 PUSH4 0xD013CBE2 EQ PUSH2 0x3C9 JUMPI DUP1 PUSH4 0xDC39CA7A EQ PUSH2 0x3DC JUMPI PUSH1 0x0 DUP1 REVERT JUMPDEST DUP1 PUSH4 0x6F03BFDB EQ PUSH2 0x2ED JUMPI DUP1 PUSH4 0x715018A6 EQ PUSH2 0x302 JUMPI DUP1 PUSH4 0x7F04E0E1 EQ PUSH2 0x317 JUMPI DUP1 PUSH4 0x8DA5CB5B EQ PUSH2 0x337 JUMPI DUP1 PUSH4 0xBC07D85C EQ PUSH2 0x369 JUMPI DUP1 PUSH4 0xBFA54B3F EQ PUSH2 0x389 JUMPI PUSH1 0x0 DUP1 REVERT JUMPDEST DUP1 PUSH4 0x4E91341B GT PUSH2 0x13E JUMPI DUP1 PUSH4 0x6601FD26 GT PUSH2 0x118 JUMPI DUP1 PUSH4 0x6601FD26 EQ PUSH2 0x298 JUMPI DUP1 PUSH4 0x6AD2690A EQ PUSH2 0x2AD JUMPI DUP1 PUSH4 0x6C54FE9A EQ PUSH2 0x2C3 JUMPI DUP1 PUSH4 0x6EBD467D EQ PUSH2 0x2D8 JUMPI PUSH1 0x0 DUP1 REVERT JUMPDEST DUP1 PUSH4 0x4E91341B EQ PUSH2 0x243 JUMPI DUP1 PUSH4 0x57D846F9 EQ PUSH2 0x258 JUMPI DUP1 PUSH4 0x5FD03331 EQ PUSH2 0x278 JUMPI PUSH1 0x0 DUP1 REVERT JUMPDEST DUP1 PUSH4 0x67A3DCE EQ PUSH2 0x191 JUMPI DUP1 PUSH4 0xCB41D60 EQ PUSH2 0x1B3 JUMPI DUP1 PUSH4 0x127F4B2E EQ PUSH2 0x1E6 JUMPI DUP1 PUSH4 0x22233AC0 EQ PUSH2 0x206 JUMPI DUP1 PUSH4 0x48F90A90 EQ PUSH2 0x21B JUMPI DUP1 PUSH4 0x4D1D226E EQ PUSH2 0x230 JUMPI PUSH1 0x0 DUP1 REVERT JUMPDEST CALLDATASIZE PUSH2 0x18C JUMPI STOP JUMPDEST PUSH1 0x0 DUP1 REVERT JUMPDEST CALLVALUE DUP1 ISZERO PUSH2 0x19D JUMPI PUSH1 0x0 DUP1 REVERT JUMPDEST POP PUSH2 0x1B1 PUSH2 0x1AC CALLDATASIZE PUSH1 0x4 PUSH2 0x1CB7 JUMP JUMPDEST PUSH2 0x470 JUMP JUMPDEST STOP JUMPDEST CALLVALUE DUP1 ISZERO PUSH2 0x1BF JUMPI PUSH1 0x0 DUP1 REVERT JUMPDEST POP PUSH2 0x1D3 PUSH2 0x1CE CALLDATASIZE PUSH1 0x4 PUSH2 0x1CB7 JUMP JUMPDEST PUSH2 0x47D JUMP JUMPDEST PUSH1 0x40 MLOAD SWAP1 DUP2 MSTORE PUSH1 0x20 ADD JUMPDEST PUSH1 0x40 MLOAD DUP1 SWAP2 SUB SWAP1 RETURN JUMPDEST CALLVALUE DUP1 ISZERO PUSH2 0x1F2 JUMPI PUSH1 0x0 DUP1 REVERT JUMPDEST POP PUSH2 0x1B1 PUSH2 0x201 CALLDATASIZE PUSH1 0x4 PUSH2 0x1CB7 JUMP JUMPDEST PUSH2 0x4BE JUMP JUMPDEST CALLVALUE DUP1 ISZERO PUSH2 0x212 JUMPI PUSH1 0x0 DUP1 REVERT JUMPDEST POP PUSH2 0x1D3 PUSH2 0x503 JUMP JUMPDEST CALLVALUE DUP1 ISZERO PUSH2 0x227 JUMPI PUSH1 0x0 DUP1 REVERT JUMPDEST POP PUSH2 0x1D3 PUSH2 0x6CC JUMP JUMPDEST PUSH2 0x1D3 PUSH2 0x23E CALLDATASIZE PUSH1 0x4 PUSH2 0x1CB7 JUMP JUMPDEST PUSH2 0x889 JUMP JUMPDEST CALLVALUE DUP1 ISZERO PUSH2 0x24F JUMPI PUSH1 0x0 DUP1 REVERT JUMPDEST POP PUSH2 0x1B1 PUSH2 0xAA8 JUMP JUMPDEST CALLVALUE DUP1 ISZERO PUSH2 0x264 JUMPI PUSH1 0x0 DUP1 REVERT JUMPDEST POP PUSH2 0x1D3 PUSH2 0x273 CALLDATASIZE PUSH1 0x4 PUSH2 0x1CB7 JUMP JUMPDEST PUSH2 0xAD7 JUMP JUMPDEST CALLVALUE DUP1 ISZERO PUSH2 0x284 JUMPI PUSH1 0x0 DUP1 REVERT JUMPDEST POP PUSH2 0x1D3 PUSH2 0x293 CALLDATASIZE PUSH1 0x4 PUSH2 0x1CB7 JUMP JUMPDEST PUSH2 0xB12 JUMP JUMPDEST CALLVALUE DUP1 ISZERO PUSH2 0x2A4 JUMPI PUSH1 0x0 DUP1 REVERT JUMPDEST POP PUSH2 0x1D3 PUSH2 0xB51 JUMP JUMPDEST CALLVALUE DUP1 ISZERO PUSH2 0x2B9 JUMPI PUSH1 0x0 DUP1 REVERT JUMPDEST POP PUSH2 0x1D3 PUSH1 0x2 SLOAD DUP2 JUMP JUMPDEST CALLVALUE DUP1 ISZERO PUSH2 0x2CF JUMPI PUSH1 0x0 DUP1 REVERT JUMPDEST POP PUSH2 0x1D3 PUSH2 0xCB6 JUMP JUMPDEST CALLVALUE DUP1 ISZERO PUSH2 0x2E4 JUMPI PUSH1 0x0 DUP1 REVERT JUMPDEST POP PUSH2 0x1D3 PUSH2 0xCEA JUMP JUMPDEST CALLVALUE DUP1 ISZERO PUSH2 0x2F9 JUMPI PUSH1 0x0 DUP1 REVERT JUMPDEST POP PUSH2 0x1D3 PUSH2 0xD05 JUMP JUMPDEST CALLVALUE DUP1 ISZERO PUSH2 0x30E JUMPI PUSH1 0x0 DUP1 REVERT JUMPDEST POP PUSH2 0x1B1 PUSH2 0xE6A JUMP JUMPDEST CALLVALUE DUP1 ISZERO PUSH2 0x323 JUMPI PUSH1 0x0 DUP1 REVERT JUMPDEST POP PUSH2 0x1B1 PUSH2 0x332 CALLDATASIZE PUSH1 0x4 PUSH2 0x1CB7 JUMP JUMPDEST PUSH2 0xE7E JUMP JUMPDEST CALLVALUE DUP1 ISZERO PUSH2 0x343 JUMPI PUSH1 0x0 DUP1 REVERT JUMPDEST POP PUSH1 0x0 SLOAD PUSH1 0x1 PUSH1 0x1 PUSH1 0xA0 SHL SUB AND JUMPDEST PUSH1 0x40 MLOAD PUSH1 0x1 PUSH1 0x1 PUSH1 0xA0 SHL SUB SWAP1 SWAP2 AND DUP2 MSTORE PUSH1 0x20 ADD PUSH2 0x1DD JUMP JUMPDEST CALLVALUE DUP1 ISZERO PUSH2 0x375 JUMPI PUSH1 0x0 DUP1 REVERT JUMPDEST POP PUSH2 0x1D3 PUSH2 0x384 CALLDATASIZE PUSH1 0x4 PUSH2 0x1CB7 JUMP JUMPDEST PUSH2 0xF1A JUMP JUMPDEST CALLVALUE DUP1 ISZERO PUSH2 0x395 JUMPI PUSH1 0x0 DUP1 REVERT JUMPDEST POP PUSH1 0x1 SLOAD PUSH2 0x351 SWAP1 PUSH1 0x1 PUSH1 0x1 PUSH1 0xA0 SHL SUB AND DUP2 JUMP JUMPDEST CALLVALUE DUP1 ISZERO PUSH2 0x3B5 JUMPI PUSH1 0x0 DUP1 REVERT JUMPDEST POP PUSH2 0x1B1 PUSH2 0x3C4 CALLDATASIZE PUSH1 0x4 PUSH2 0x1CB7 JUMP JUMPDEST PUSH2 0xF48 JUMP JUMPDEST CALLVALUE DUP1 ISZERO PUSH2 0x3D5 JUMPI PUSH1 0x0 DUP1 REVERT JUMPDEST POP SELFBALANCE PUSH2 0x1D3 JUMP JUMPDEST CALLVALUE DUP1 ISZERO PUSH2 0x3E8 JUMPI PUSH1 0x0 DUP1 REVERT JUMPDEST POP PUSH2 0x1D3 PUSH2 0xF7C JUMP JUMPDEST CALLVALUE DUP1 ISZERO PUSH2 0x3FD JUMPI PUSH1 0x0 DUP1 REVERT JUMPDEST POP PUSH2 0x1D3 PUSH2 0xFF3 JUMP JUMPDEST CALLVALUE DUP1 ISZERO PUSH2 0x412 JUMPI PUSH1 0x0 DUP1 REVERT JUMPDEST POP PUSH2 0x1D3 PUSH2 0x421 CALLDATASIZE PUSH1 0x4 PUSH2 0x1CDE JUMP JUMPDEST PUSH2 0x1024 JUMP JUMPDEST CALLVALUE DUP1 ISZERO PUSH2 0x432 JUMPI PUSH1 0x0 DUP1 REVERT JUMPDEST POP PUSH2 0x1B1 PUSH2 0x441 CALLDATASIZE PUSH1 0x4 PUSH2 0x1D23 JUMP JUMPDEST PUSH2 0x1240 JUMP JUMPDEST CALLVALUE DUP1 ISZERO PUSH2 0x452 JUMPI PUSH1 0x0 DUP1 REVERT JUMPDEST POP PUSH1 0x3 SLOAD PUSH2 0x460 SWAP1 PUSH1 0xFF AND DUP2 JUMP JUMPDEST PUSH1 0x40 MLOAD SWAP1 ISZERO ISZERO DUP2 MSTORE PUSH1 0x20 ADD PUSH2 0x1DD JUMP JUMPDEST PUSH2 0x478 PUSH2 0x12B9 JUMP JUMPDEST PUSH1 0x2 SSTORE JUMP JUMPDEST PUSH1 0x3 SLOAD PUSH1 0x0 SWAP1 PUSH1 0xFF AND ISZERO PUSH2 0x49A JUMPI PUSH2 0x494 DUP3 PUSH2 0x1313 JUMP JUMPDEST SWAP3 SWAP2 POP POP JUMP JUMPDEST PUSH1 0x2 SLOAD PUSH2 0x4AF DUP4 PUSH8 0xDE0B6B3A7640000 PUSH2 0x1D56 JUMP JUMPDEST PUSH2 0x494 SWAP2 SWAP1 PUSH2 0x1D6D JUMP JUMPDEST SWAP2 SWAP1 POP JUMP JUMPDEST PUSH2 0x4C6 PUSH2 0x12B9 JUMP JUMPDEST PUSH1 0x0 DUP1 SLOAD PUSH1 0x40 MLOAD PUSH1 0x1 PUSH1 0x1 PUSH1 0xA0 SHL SUB SWAP1 SWAP2 AND SWAP2 DUP4 ISZERO PUSH2 0x8FC MUL SWAP2 DUP5 SWAP2 DUP2 DUP2 DUP2 DUP6 DUP9 DUP9 CALL SWAP4 POP POP POP POP ISZERO DUP1 ISZERO PUSH2 0x4FF JUMPI RETURNDATASIZE PUSH1 0x0 DUP1 RETURNDATACOPY RETURNDATASIZE PUSH1 0x0 REVERT JUMPDEST POP POP JUMP JUMPDEST PUSH1 0x40 MLOAD PUSH4 0xB4C7741 PUSH1 0xE1 SHL DUP2 MSTORE PUSH1 0x0 SWAP1 DUP2 SWAP1 PUSH20 0xBFBCF9FA4F9C56B0F40A671AD40E0805A091865 SWAP1 PUSH4 0x1698EE82 SWAP1 PUSH2 0x567 SWAP1 PUSH1 0x0 DUP1 MLOAD PUSH1 0x20 PUSH2 0x2190 DUP4 CODECOPY DUP2 MLOAD SWAP2 MSTORE SWAP1 PUSH20 0x55D398326F99059FF775485246999027B3197955 SWAP1 PUSH2 0x1F4 SWAP1 PUSH1 0x4 ADD PUSH2 0x1D8F JUMP JUMPDEST PUSH1 0x20 PUSH1 0x40 MLOAD DUP1 DUP4 SUB DUP2 DUP7 GAS STATICCALL ISZERO DUP1 ISZERO PUSH2 0x584 JUMPI RETURNDATASIZE PUSH1 0x0 DUP1 RETURNDATACOPY RETURNDATASIZE PUSH1 0x0 REVERT JUMPDEST POP POP POP POP PUSH1 0x40 MLOAD RETURNDATASIZE PUSH1 0x1F NOT PUSH1 0x1F DUP3 ADD AND DUP3 ADD DUP1 PUSH1 0x40 MSTORE POP DUP2 ADD SWAP1 PUSH2 0x5A8 SWAP2 SWAP1 PUSH2 0x1DB7 JUMP JUMPDEST SWAP1 POP PUSH1 0x0 DUP2 PUSH1 0x1 PUSH1 0x1 PUSH1 0xA0 SHL SUB AND PUSH4 0x3850C7BD PUSH1 0x40 MLOAD DUP2 PUSH4 0xFFFFFFFF AND PUSH1 0xE0 SHL DUP2 MSTORE PUSH1 0x4 ADD PUSH1 0xE0 PUSH1 0x40 MLOAD DUP1 DUP4 SUB DUP2 DUP7 GAS STATICCALL ISZERO DUP1 ISZERO PUSH2 0x5EA JUMPI RETURNDATASIZE PUSH1 0x0 DUP1 RETURNDATACOPY RETURNDATASIZE PUSH1 0x0 REVERT JUMPDEST POP POP POP POP PUSH1 0x40 MLOAD RETURNDATASIZE PUSH1 0x1F NOT PUSH1 0x1F DUP3 ADD AND DUP3 ADD DUP1 PUSH1 0x40 MSTORE POP DUP2 ADD SWAP1 PUSH2 0x60E SWAP2 SWAP1 PUSH2 0x1E22 JUMP JUMPDEST PUSH1 0x0 ADD MLOAD SWAP1 POP PUSH1 0x0 DUP1 MLOAD PUSH1 0x20 PUSH2 0x2190 DUP4 CODECOPY DUP2 MLOAD SWAP2 MSTORE PUSH1 0x1 PUSH1 0x1 PUSH1 0xA0 SHL SUB AND DUP3 PUSH1 0x1 PUSH1 0x1 PUSH1 0xA0 SHL SUB AND PUSH4 0xDFE1681 PUSH1 0x40 MLOAD DUP2 PUSH4 0xFFFFFFFF AND PUSH1 0xE0 SHL DUP2 MSTORE PUSH1 0x4 ADD PUSH1 0x20 PUSH1 0x40 MLOAD DUP1 DUP4 SUB DUP2 DUP7 GAS STATICCALL ISZERO DUP1 ISZERO PUSH2 0x66A JUMPI RETURNDATASIZE PUSH1 0x0 DUP1 RETURNDATACOPY RETURNDATASIZE PUSH1 0x0 REVERT JUMPDEST POP POP POP POP PUSH1 0x40 MLOAD RETURNDATASIZE PUSH1 0x1F NOT PUSH1 0x1F DUP3 ADD AND DUP3 ADD DUP1 PUSH1 0x40 MSTORE POP DUP2 ADD SWAP1 PUSH2 0x68E SWAP2 SWAP1 PUSH2 0x1DB7 JUMP JUMPDEST PUSH1 0x1 PUSH1 0x1 PUSH1 0xA0 SHL SUB AND EQ PUSH2 0x6B3 JUMPI PUSH2 0x6AE DUP2 PUSH1 0x1 PUSH1 0x1 PUSH1 0xA0 SHL SUB AND PUSH2 0x1330 JUMP JUMPDEST PUSH2 0x6C5 JUMP JUMPDEST PUSH2 0x6C5 DUP2 PUSH1 0x1 PUSH1 0x1 PUSH1 0xA0 SHL SUB AND PUSH2 0x1368 JUMP JUMPDEST SWAP3 POP POP POP SWAP1 JUMP JUMPDEST PUSH1 0x40 MLOAD PUSH4 0xB4C7741 PUSH1 0xE1 SHL DUP2 MSTORE PUSH1 0x0 SWAP1 DUP2 SWAP1 PUSH20 0xBFBCF9FA4F9C56B0F40A671AD40E0805A091865 SWAP1 PUSH4 0x1698EE82 SWAP1 PUSH2 0x730 SWAP1 PUSH1 0x0 DUP1 MLOAD PUSH1 0x20 PUSH2 0x2190 DUP4 CODECOPY DUP2 MLOAD SWAP2 MSTORE SWAP1 PUSH20 0x55D398326F99059FF775485246999027B3197955 SWAP1 PUSH2 0x1F4 SWAP1 PUSH1 0x4 ADD PUSH2 0x1D8F JUMP JUMPDEST PUSH1 0x20 PUSH1 0x40 MLOAD DUP1 DUP4 SUB DUP2 DUP7 GAS STATICCALL ISZERO DUP1 ISZERO PUSH2 0x74D JUMPI RETURNDATASIZE PUSH1 0x0 DUP1 RETURNDATACOPY RETURNDATASIZE PUSH1 0x0 REVERT JUMPDEST POP POP POP POP PUSH1 0x40 MLOAD RETURNDATASIZE PUSH1 0x1F NOT PUSH1 0x1F DUP3 ADD AND DUP3 ADD DUP1 PUSH1 0x40 MSTORE POP DUP2 ADD SWAP1 PUSH2 0x771 SWAP2 SWAP1 PUSH2 0x1DB7 JUMP JUMPDEST SWAP1 POP PUSH1 0x0 DUP2 PUSH1 0x1 PUSH1 0x1 PUSH1 0xA0 SHL SUB AND PUSH4 0x3850C7BD PUSH1 0x40 MLOAD DUP2 PUSH4 0xFFFFFFFF AND PUSH1 0xE0 SHL DUP2 MSTORE PUSH1 0x4 ADD PUSH1 0xE0 PUSH1 0x40 MLOAD DUP1 DUP4 SUB DUP2 DUP7 GAS STATICCALL ISZERO DUP1 ISZERO PUSH2 0x7B3 JUMPI RETURNDATASIZE PUSH1 0x0 DUP1 RETURNDATACOPY RETURNDATASIZE PUSH1 0x0 REVERT JUMPDEST POP POP POP POP PUSH1 0x40 MLOAD RETURNDATASIZE PUSH1 0x1F NOT PUSH1 0x1F DUP3 ADD AND DUP3 ADD DUP1 PUSH1 0x40 MSTORE POP DUP2 ADD SWAP1 PUSH2 0x7D7 SWAP2 SWAP1 PUSH2 0x1E22 JUMP JUMPDEST PUSH1 0x0 ADD MLOAD SWAP1 POP PUSH1 0x0 DUP1 MLOAD PUSH1 0x20 PUSH2 0x2190 DUP4 CODECOPY DUP2 MLOAD SWAP2 MSTORE PUSH1 0x1 PUSH1 0x1 PUSH1 0xA0 SHL SUB AND DUP3 PUSH1 0x1 PUSH1 0x1 PUSH1 0xA0 SHL SUB AND PUSH4 0xDFE1681 PUSH1 0x40 MLOAD DUP2 PUSH4 0xFFFFFFFF AND PUSH1 0xE0 SHL DUP2 MSTORE PUSH1 0x4 ADD PUSH1 0x20 PUSH1 0x40 MLOAD DUP1 DUP4 SUB DUP2 DUP7 GAS STATICCALL ISZERO DUP1 ISZERO PUSH2 0x833 JUMPI RETURNDATASIZE PUSH1 0x0 DUP1 RETURNDATACOPY RETURNDATASIZE PUSH1 0x0 REVERT JUMPDEST POP POP POP POP PUSH1 0x40 MLOAD RETURNDATASIZE PUSH1 0x1F NOT PUSH1 0x1F DUP3 ADD AND DUP3 ADD DUP1 PUSH1 0x40 MSTORE POP DUP2 ADD SWAP1 PUSH2 0x857 SWAP2 SWAP1 PUSH2 0x1DB7 JUMP JUMPDEST PUSH1 0x1 PUSH1 0x1 PUSH1 0xA0 SHL SUB AND EQ PUSH2 0x877 JUMPI PUSH2 0x6AE DUP2 PUSH1 0x1 PUSH1 0x1 PUSH1 0xA0 SHL SUB AND PUSH2 0x1368 JUMP JUMPDEST PUSH2 0x6C5 DUP2 PUSH1 0x1 PUSH1 0x1 PUSH1 0xA0 SHL SUB AND PUSH2 0x1330 JUMP JUMPDEST PUSH1 0x3 SLOAD PUSH1 0x0 SWAP1 CALLER SWAP1 CALLVALUE SWAP1 PUSH1 0xFF AND ISZERO PUSH2 0x8AD JUMPI PUSH2 0x8A6 DUP3 DUP6 DUP4 PUSH2 0x1399 JUMP JUMPDEST SWAP3 POP PUSH2 0xAA1 JUMP JUMPDEST DUP4 PUSH1 0x0 SUB PUSH2 0x990 JUMPI PUSH2 0x8BE DUP2 PUSH2 0xB12 JUMP JUMPDEST SWAP3 POP DUP3 PUSH2 0x8C9 PUSH2 0xFF3 JUMP JUMPDEST LT ISZERO PUSH2 0x916 JUMPI PUSH1 0x40 MLOAD PUSH3 0x461BCD PUSH1 0xE5 SHL DUP2 MSTORE PUSH1 0x20 PUSH1 0x4 DUP3 ADD MSTORE PUSH1 0x17 PUSH1 0x24 DUP3 ADD MSTORE PUSH23 0x696E73756666696369656E7420424C4220746F20706179 PUSH1 0x48 SHL PUSH1 0x44 DUP3 ADD MSTORE PUSH1 0x64 ADD JUMPDEST PUSH1 0x40 MLOAD DUP1 SWAP2 SUB SWAP1 REVERT JUMPDEST PUSH1 0x1 SLOAD PUSH2 0x92D SWAP1 PUSH1 0x1 PUSH1 0x1 PUSH1 0xA0 SHL SUB AND DUP4 DUP6 PUSH2 0x163F JUMP JUMPDEST PUSH1 0x40 MLOAD PUSH3 0x212621 PUSH1 0xE9 SHL DUP2 MSTORE PUSH1 0x3 ADD PUSH1 0x40 MLOAD SWAP1 DUP2 SWAP1 SUB DUP2 KECCAK256 PUSH3 0x212721 PUSH1 0xE9 SHL DUP3 MSTORE SWAP1 PUSH1 0x3 ADD PUSH1 0x40 DUP1 MLOAD SWAP2 DUP3 SWAP1 SUB DUP3 KECCAK256 DUP5 DUP4 MSTORE PUSH1 0x20 DUP4 ADD DUP8 SWAP1 MSTORE SWAP2 PUSH1 0x1 PUSH1 0x1 PUSH1 0xA0 SHL SUB DUP7 AND SWAP2 PUSH1 0x0 DUP1 MLOAD PUSH1 0x20 PUSH2 0x21B0 DUP4 CODECOPY DUP2 MLOAD SWAP2 MSTORE SWAP2 ADD PUSH1 0x40 MLOAD DUP1 SWAP2 SUB SWAP1 LOG4 PUSH2 0xAA1 JUMP JUMPDEST DUP1 ISZERO PUSH2 0x9AE JUMPI PUSH1 0x40 MLOAD PUSH3 0x461BCD PUSH1 0xE5 SHL DUP2 MSTORE PUSH1 0x4 ADD PUSH2 0x90D SWAP1 PUSH2 0x1EE0 JUMP JUMPDEST PUSH2 0x9B7 DUP5 PUSH2 0xF1A JUMP JUMPDEST SWAP3 POP DUP3 PUSH2 0x9C2 PUSH2 0xFF3 JUMP JUMPDEST LT ISZERO PUSH2 0xA0A JUMPI PUSH1 0x40 MLOAD PUSH3 0x461BCD PUSH1 0xE5 SHL DUP2 MSTORE PUSH1 0x20 PUSH1 0x4 DUP3 ADD MSTORE PUSH1 0x17 PUSH1 0x24 DUP3 ADD MSTORE PUSH23 0x696E73756666696369656E7420424C4220746F20706179 PUSH1 0x48 SHL PUSH1 0x44 DUP3 ADD MSTORE PUSH1 0x64 ADD PUSH2 0x90D JUMP JUMPDEST PUSH2 0xA2A PUSH20 0x55D398326F99059FF775485246999027B3197955 DUP4 ADDRESS DUP8 PUSH2 0x173F JUMP JUMPDEST PUSH1 0x1 SLOAD PUSH2 0xA41 SWAP1 PUSH1 0x1 PUSH1 0x1 PUSH1 0xA0 SHL SUB AND DUP4 DUP6 PUSH2 0x163F JUMP JUMPDEST PUSH1 0x40 MLOAD PUSH3 0x212621 PUSH1 0xE9 SHL DUP2 MSTORE PUSH1 0x3 ADD PUSH1 0x40 MLOAD SWAP1 DUP2 SWAP1 SUB DUP2 KECCAK256 PUSH4 0x109554D1 PUSH1 0xE2 SHL DUP3 MSTORE SWAP1 PUSH1 0x4 ADD PUSH1 0x40 DUP1 MLOAD SWAP2 DUP3 SWAP1 SUB DUP3 KECCAK256 DUP8 DUP4 MSTORE PUSH1 0x20 DUP4 ADD DUP8 SWAP1 MSTORE SWAP2 PUSH1 0x1 PUSH1 0x1 PUSH1 0xA0 SHL SUB DUP7 AND SWAP2 PUSH1 0x0 DUP1 MLOAD PUSH1 0x20 PUSH2 0x21B0 DUP4 CODECOPY DUP2 MLOAD SWAP2 MSTORE SWAP2 ADD PUSH1 0x40 MLOAD DUP1 SWAP2 SUB SWAP1 LOG4 JUMPDEST POP POP SWAP2 SWAP1 POP JUMP JUMPDEST PUSH2 0xAB0 PUSH2 0x12B9 JUMP JUMPDEST PUSH1 0x3 SLOAD PUSH1 0xFF AND PUSH2 0xAC1 JUMPI PUSH1 0x1 PUSH2 0xAC4 JUMP JUMPDEST PUSH1 0x0 JUMPDEST PUSH1 0x3 DUP1 SLOAD PUSH1 0xFF NOT AND SWAP2 ISZERO ISZERO SWAP2 SWAP1 SWAP2 OR SWAP1 SSTORE JUMP JUMPDEST PUSH1 0x3 SLOAD PUSH1 0x0 SWAP1 PUSH1 0xFF AND ISZERO PUSH2 0xAEE JUMPI PUSH2 0x494 DUP3 PUSH2 0x1849 JUMP JUMPDEST PUSH8 0xDE0B6B3A7640000 PUSH2 0xAFF PUSH2 0x6CC JUMP JUMPDEST PUSH2 0xB08 DUP5 PUSH2 0x47D JUMP JUMPDEST PUSH2 0x4AF SWAP2 SWAP1 PUSH2 0x1D56 JUMP JUMPDEST PUSH1 0x3 SLOAD PUSH1 0x0 SWAP1 PUSH1 0xFF AND ISZERO PUSH2 0xB29 JUMPI PUSH2 0x494 DUP3 PUSH2 0x185C JUMP JUMPDEST PUSH2 0x494 PUSH8 0xDE0B6B3A7640000 PUSH2 0xB3D PUSH2 0x503 JUMP JUMPDEST PUSH2 0xB47 SWAP1 DUP6 PUSH2 0x1D56 JUMP JUMPDEST PUSH2 0x384 SWAP2 SWAP1 PUSH2 0x1D6D JUMP JUMPDEST PUSH1 0x1 SLOAD PUSH1 0x40 MLOAD PUSH4 0xB4C7741 PUSH1 0xE1 SHL DUP2 MSTORE PUSH1 0x0 SWAP2 DUP3 SWAP2 PUSH20 0xBFBCF9FA4F9C56B0F40A671AD40E0805A091865 SWAP2 PUSH4 0x1698EE82 SWAP2 PUSH2 0xBAC SWAP2 PUSH1 0x1 PUSH1 0x1 PUSH1 0xA0 SHL SUB AND SWAP1 PUSH1 0x0 DUP1 MLOAD PUSH1 0x20 PUSH2 0x2190 DUP4 CODECOPY DUP2 MLOAD SWAP2 MSTORE SWAP1 PUSH2 0x1F4 SWAP1 PUSH1 0x4 ADD PUSH2 0x1D8F JUMP JUMPDEST PUSH1 0x20 PUSH1 0x40 MLOAD DUP1 DUP4 SUB DUP2 DUP7 GAS STATICCALL ISZERO DUP1 ISZERO PUSH2 0xBC9 JUMPI RETURNDATASIZE PUSH1 0x0 DUP1 RETURNDATACOPY RETURNDATASIZE PUSH1 0x0 REVERT JUMPDEST POP POP POP POP PUSH1 0x40 MLOAD RETURNDATASIZE PUSH1 0x1F NOT PUSH1 0x1F DUP3 ADD AND DUP3 ADD DUP1 PUSH1 0x40 MSTORE POP DUP2 ADD SWAP1 PUSH2 0xBED SWAP2 SWAP1 PUSH2 0x1DB7 JUMP JUMPDEST SWAP1 POP PUSH1 0x0 DUP2 PUSH1 0x1 PUSH1 0x1 PUSH1 0xA0 SHL SUB AND PUSH4 0x3850C7BD PUSH1 0x40 MLOAD DUP2 PUSH4 0xFFFFFFFF AND PUSH1 0xE0 SHL DUP2 MSTORE PUSH1 0x4 ADD PUSH1 0xE0 PUSH1 0x40 MLOAD DUP1 DUP4 SUB DUP2 DUP7 GAS STATICCALL ISZERO DUP1 ISZERO PUSH2 0xC2F JUMPI RETURNDATASIZE PUSH1 0x0 DUP1 RETURNDATACOPY RETURNDATASIZE PUSH1 0x0 REVERT JUMPDEST POP POP POP POP PUSH1 0x40 MLOAD RETURNDATASIZE PUSH1 0x1F NOT PUSH1 0x1F DUP3 ADD AND DUP3 ADD DUP1 PUSH1 0x40 MSTORE POP DUP2 ADD SWAP1 PUSH2 0xC53 SWAP2 SWAP1 PUSH2 0x1E22 JUMP JUMPDEST PUSH1 0x0 ADD MLOAD SWAP1 POP PUSH1 0x1 PUSH1 0x0 SWAP1 SLOAD SWAP1 PUSH2 0x100 EXP SWAP1 DIV PUSH1 0x1 PUSH1 0x1 PUSH1 0xA0 SHL SUB AND PUSH1 0x1 PUSH1 0x1 PUSH1 0xA0 SHL SUB AND DUP3 PUSH1 0x1 PUSH1 0x1 PUSH1 0xA0 SHL SUB AND PUSH4 0xDFE1681 PUSH1 0x40 MLOAD DUP2 PUSH4 0xFFFFFFFF AND PUSH1 0xE0 SHL DUP2 MSTORE PUSH1 0x4 ADD PUSH1 0x20 PUSH1 0x40 MLOAD DUP1 DUP4 SUB DUP2 DUP7 GAS STATICCALL ISZERO DUP1 ISZERO PUSH2 0x833 JUMPI RETURNDATASIZE PUSH1 0x0 DUP1 RETURNDATACOPY RETURNDATASIZE PUSH1 0x0 REVERT JUMPDEST PUSH1 0x0 PUSH8 0xDE0B6B3A7640000 PUSH2 0xCC9 PUSH2 0x503 JUMP JUMPDEST PUSH2 0xCD1 PUSH2 0xD05 JUMP JUMPDEST PUSH2 0xCDB SWAP2 SWAP1 PUSH2 0x1D56 JUMP JUMPDEST PUSH2 0xCE5 SWAP2 SWAP1 PUSH2 0x1D6D JUMP JUMPDEST SWAP1 POP SWAP1 JUMP JUMPDEST PUSH1 0x0 PUSH8 0xDE0B6B3A7640000 PUSH2 0xCFD PUSH2 0xB51 JUMP JUMPDEST PUSH2 0xCD1 PUSH2 0x6CC JUMP JUMPDEST PUSH1 0x1 SLOAD PUSH1 0x40 MLOAD PUSH4 0xB4C7741 PUSH1 0xE1 SHL DUP2 MSTORE PUSH1 0x0 SWAP2 DUP3 SWAP2 PUSH20 0xBFBCF9FA4F9C56B0F40A671AD40E0805A091865 SWAP2 PUSH4 0x1698EE82 SWAP2 PUSH2 0xD60 SWAP2 PUSH1 0x1 PUSH1 0x1 PUSH1 0xA0 SHL SUB AND SWAP1 PUSH1 0x0 DUP1 MLOAD PUSH1 0x20 PUSH2 0x2190 DUP4 CODECOPY DUP2 MLOAD SWAP2 MSTORE SWAP1 PUSH2 0x1F4 SWAP1 PUSH1 0x4 ADD PUSH2 0x1D8F JUMP JUMPDEST PUSH1 0x20 PUSH1 0x40 MLOAD DUP1 DUP4 SUB DUP2 DUP7 GAS STATICCALL ISZERO DUP1 ISZERO PUSH2 0xD7D JUMPI RETURNDATASIZE PUSH1 0x0 DUP1 RETURNDATACOPY RETURNDATASIZE PUSH1 0x0 REVERT JUMPDEST POP POP POP POP PUSH1 0x40 MLOAD RETURNDATASIZE PUSH1 0x1F NOT PUSH1 0x1F DUP3 ADD AND DUP3 ADD DUP1 PUSH1 0x40 MSTORE POP DUP2 ADD SWAP1 PUSH2 0xDA1 SWAP2 SWAP1 PUSH2 0x1DB7 JUMP JUMPDEST SWAP1 POP PUSH1 0x0 DUP2 PUSH1 0x1 PUSH1 0x1 PUSH1 0xA0 SHL SUB AND PUSH4 0x3850C7BD PUSH1 0x40 MLOAD DUP2 PUSH4 0xFFFFFFFF AND PUSH1 0xE0 SHL DUP2 MSTORE PUSH1 0x4 ADD PUSH1 0xE0 PUSH1 0x40 MLOAD DUP1 DUP4 SUB DUP2 DUP7 GAS STATICCALL ISZERO DUP1 ISZERO PUSH2 0xDE3 JUMPI RETURNDATASIZE PUSH1 0x0 DUP1 RETURNDATACOPY RETURNDATASIZE PUSH1 0x0 REVERT JUMPDEST POP POP POP POP PUSH1 0x40 MLOAD RETURNDATASIZE PUSH1 0x1F NOT PUSH1 0x1F DUP3 ADD AND DUP3 ADD DUP1 PUSH1 0x40 MSTORE POP DUP2 ADD SWAP1 PUSH2 0xE07 SWAP2 SWAP1 PUSH2 0x1E22 JUMP JUMPDEST PUSH1 0x0 ADD MLOAD SWAP1 POP PUSH1 0x1 PUSH1 0x0 SWAP1 SLOAD SWAP1 PUSH2 0x100 EXP SWAP1 DIV PUSH1 0x1 PUSH1 0x1 PUSH1 0xA0 SHL SUB AND PUSH1 0x1 PUSH1 0x1 PUSH1 0xA0 SHL SUB AND DUP3 PUSH1 0x1 PUSH1 0x1 PUSH1 0xA0 SHL SUB AND PUSH4 0xDFE1681 PUSH1 0x40 MLOAD DUP2 PUSH4 0xFFFFFFFF AND PUSH1 0xE0 SHL DUP2 MSTORE PUSH1 0x4 ADD PUSH1 0x20 PUSH1 0x40 MLOAD DUP1 DUP4 SUB DUP2 DUP7 GAS STATICCALL ISZERO DUP1 ISZERO PUSH2 0x66A JUMPI RETURNDATASIZE PUSH1 0x0 DUP1 RETURNDATACOPY RETURNDATASIZE PUSH1 0x0 REVERT JUMPDEST PUSH2 0xE72 PUSH2 0x12B9 JUMP JUMPDEST PUSH2 0xE7C PUSH1 0x0 PUSH2 0x186F JUMP JUMPDEST JUMP JUMPDEST PUSH2 0xE86 PUSH2 0x12B9 JUMP JUMPDEST PUSH1 0x1 SLOAD PUSH1 0x1 PUSH1 0x1 PUSH1 0xA0 SHL SUB AND PUSH4 0xA9059CBB PUSH2 0xEA9 PUSH1 0x0 SLOAD PUSH1 0x1 PUSH1 0x1 PUSH1 0xA0 SHL SUB AND SWAP1 JUMP JUMPDEST PUSH1 0x40 MLOAD PUSH1 0x1 PUSH1 0x1 PUSH1 0xE0 SHL SUB NOT PUSH1 0xE0 DUP5 SWAP1 SHL AND DUP2 MSTORE PUSH1 0x1 PUSH1 0x1 PUSH1 0xA0 SHL SUB SWAP1 SWAP2 AND PUSH1 0x4 DUP3 ADD MSTORE PUSH1 0x24 DUP2 ADD DUP5 SWAP1 MSTORE PUSH1 0x44 ADD PUSH1 0x20 PUSH1 0x40 MLOAD DUP1 DUP4 SUB DUP2 PUSH1 0x0 DUP8 GAS CALL ISZERO DUP1 ISZERO PUSH2 0xEF6 JUMPI RETURNDATASIZE PUSH1 0x0 DUP1 RETURNDATACOPY RETURNDATASIZE PUSH1 0x0 REVERT JUMPDEST POP POP POP POP PUSH1 0x40 MLOAD RETURNDATASIZE PUSH1 0x1F NOT PUSH1 0x1F DUP3 ADD AND DUP3 ADD DUP1 PUSH1 0x40 MSTORE POP DUP2 ADD SWAP1 PUSH2 0x4FF SWAP2 SWAP1 PUSH2 0x1F33 JUMP JUMPDEST PUSH1 0x3 SLOAD PUSH1 0x0 SWAP1 PUSH1 0xFF AND ISZERO PUSH2 0xF31 JUMPI PUSH2 0x494 DUP3 PUSH2 0x18BF JUMP JUMPDEST PUSH8 0xDE0B6B3A7640000 DUP3 PUSH1 0x2 SLOAD PUSH2 0x4AF SWAP2 SWAP1 PUSH2 0x1D56 JUMP JUMPDEST PUSH2 0xF50 PUSH2 0x12B9 JUMP JUMPDEST PUSH20 0x55D398326F99059FF775485246999027B3197955 PUSH4 0xA9059CBB PUSH2 0xEA9 PUSH1 0x0 SLOAD PUSH1 0x1 PUSH1 0x1 PUSH1 0xA0 SHL SUB AND SWAP1 JUMP JUMPDEST PUSH1 0x40 MLOAD PUSH4 0x70A08231 PUSH1 0xE0 SHL DUP2 MSTORE ADDRESS PUSH1 0x4 DUP3 ADD MSTORE PUSH1 0x0 SWAP1 PUSH20 0x55D398326F99059FF775485246999027B3197955 SWAP1 PUSH4 0x70A08231 SWAP1 PUSH1 0x24 ADD JUMPDEST PUSH1 0x20 PUSH1 0x40 MLOAD DUP1 DUP4 SUB DUP2 DUP7 GAS STATICCALL ISZERO DUP1 ISZERO PUSH2 0xFCF JUMPI RETURNDATASIZE PUSH1 0x0 DUP1 RETURNDATACOPY RETURNDATASIZE PUSH1 0x0 REVERT JUMPDEST POP POP POP POP PUSH1 0x40 MLOAD RETURNDATASIZE PUSH1 0x1F NOT PUSH1 0x1F DUP3 ADD AND DUP3 ADD DUP1 PUSH1 0x40 MSTORE POP DUP2 ADD SWAP1 PUSH2 0xCE5 SWAP2 SWAP1 PUSH2 0x1F50 JUMP JUMPDEST PUSH1 0x1 SLOAD PUSH1 0x40 MLOAD PUSH4 0x70A08231 PUSH1 0xE0 SHL DUP2 MSTORE ADDRESS PUSH1 0x4 DUP3 ADD MSTORE PUSH1 0x0 SWAP2 PUSH1 0x1 PUSH1 0x1 PUSH1 0xA0 SHL SUB AND SWAP1 PUSH4 0x70A08231 SWAP1 PUSH1 0x24 ADD PUSH2 0xFB2 JUMP JUMPDEST PUSH1 0x1 SLOAD PUSH1 0x0 SWAP1 CALLER SWAP1 PUSH2 0x1041 SWAP1 PUSH1 0x1 PUSH1 0x1 PUSH1 0xA0 SHL SUB AND DUP3 ADDRESS DUP8 PUSH2 0x173F JUMP JUMPDEST PUSH1 0x3 SLOAD PUSH1 0xFF AND ISZERO PUSH2 0x105D JUMPI PUSH2 0x1057 DUP2 DUP6 DUP6 PUSH2 0x18D2 JUMP JUMPDEST POP PUSH2 0x1239 JUMP JUMPDEST DUP3 ISZERO PUSH2 0x1148 JUMPI PUSH2 0x106C DUP5 PUSH2 0x47D JUMP JUMPDEST SWAP2 POP DUP2 PUSH2 0x1077 PUSH2 0xF7C JUMP JUMPDEST LT ISZERO PUSH2 0x10C5 JUMPI PUSH1 0x40 MLOAD PUSH3 0x461BCD PUSH1 0xE5 SHL DUP2 MSTORE PUSH1 0x20 PUSH1 0x4 DUP3 ADD MSTORE PUSH1 0x18 PUSH1 0x24 DUP3 ADD MSTORE PUSH32 0x696E73756666696369656E74204255534420746F207061790000000000000000 PUSH1 0x44 DUP3 ADD MSTORE PUSH1 0x64 ADD PUSH2 0x90D JUMP JUMPDEST PUSH2 0x10E4 PUSH20 0x55D398326F99059FF775485246999027B3197955 DUP3 DUP5 PUSH2 0x163F JUMP JUMPDEST PUSH1 0x40 MLOAD PUSH4 0x109554D1 PUSH1 0xE2 SHL DUP2 MSTORE PUSH1 0x4 ADD PUSH1 0x40 MLOAD SWAP1 DUP2 SWAP1 SUB DUP2 KECCAK256 PUSH3 0x212621 PUSH1 0xE9 SHL DUP3 MSTORE SWAP1 PUSH1 0x3 ADD PUSH1 0x40 DUP1 MLOAD SWAP2 DUP3 SWAP1 SUB DUP3 KECCAK256 DUP8 DUP4 MSTORE PUSH1 0x20 DUP4 ADD DUP7 SWAP1 MSTORE SWAP2 PUSH1 0x1 PUSH1 0x1 PUSH1 0xA0 SHL SUB DUP6 AND SWAP2 PUSH1 0x0 DUP1 MLOAD PUSH1 0x20 PUSH2 0x21B0 DUP4 CODECOPY DUP2 MLOAD SWAP2 MSTORE SWAP2 ADD PUSH1 0x40 MLOAD DUP1 SWAP2 SUB SWAP1 LOG4 PUSH2 0x1239 JUMP JUMPDEST PUSH2 0x1151 DUP5 PUSH2 0xAD7 JUMP JUMPDEST SWAP2 POP DUP2 SELFBALANCE LT ISZERO PUSH2 0x11A3 JUMPI PUSH1 0x40 MLOAD PUSH3 0x461BCD PUSH1 0xE5 SHL DUP2 MSTORE PUSH1 0x20 PUSH1 0x4 DUP3 ADD MSTORE PUSH1 0x17 PUSH1 0x24 DUP3 ADD MSTORE PUSH32 0x696E73756666696369656E7420424E4220746F20706179000000000000000000 PUSH1 0x44 DUP3 ADD MSTORE PUSH1 0x64 ADD PUSH2 0x90D JUMP JUMPDEST PUSH1 0x40 MLOAD PUSH1 0x1 PUSH1 0x1 PUSH1 0xA0 SHL SUB DUP3 AND SWAP1 DUP4 ISZERO PUSH2 0x8FC MUL SWAP1 DUP5 SWAP1 PUSH1 0x0 DUP2 DUP2 DUP2 DUP6 DUP9 DUP9 CALL SWAP4 POP POP POP POP ISZERO DUP1 ISZERO PUSH2 0x11D9 JUMPI RETURNDATASIZE PUSH1 0x0 DUP1 RETURNDATACOPY RETURNDATASIZE PUSH1 0x0 REVERT JUMPDEST POP PUSH1 0x40 MLOAD PUSH3 0x212721 PUSH1 0xE9 SHL DUP2 MSTORE PUSH1 0x3 ADD PUSH1 0x40 MLOAD SWAP1 DUP2 SWAP1 SUB DUP2 KECCAK256 PUSH3 0x212621 PUSH1 0xE9 SHL DUP3 MSTORE SWAP1 PUSH1 0x3 ADD PUSH1 0x40 DUP1 MLOAD SWAP2 DUP3 SWAP1 SUB DUP3 KECCAK256 DUP8 DUP4 MSTORE PUSH1 0x20 DUP4 ADD DUP7 SWAP1 MSTORE SWAP2 PUSH1 0x1 PUSH1 0x1 PUSH1 0xA0 SHL SUB DUP6 AND SWAP2 PUSH1 0x0 DUP1 MLOAD PUSH1 0x20 PUSH2 0x21B0 DUP4 CODECOPY DUP2 MLOAD SWAP2 MSTORE SWAP2 ADD PUSH1 0x40 MLOAD DUP1 SWAP2 SUB SWAP1 LOG4 JUMPDEST POP SWAP3 SWAP2 POP POP JUMP JUMPDEST PUSH2 0x1248 PUSH2 0x12B9 JUMP JUMPDEST PUSH1 0x1 PUSH1 0x1 PUSH1 0xA0 SHL SUB DUP2 AND PUSH2 0x12AD JUMPI PUSH1 0x40 MLOAD PUSH3 0x461BCD PUSH1 0xE5 SHL DUP2 MSTORE PUSH1 0x20 PUSH1 0x4 DUP3 ADD MSTORE PUSH1 0x26 PUSH1 0x24 DUP3 ADD MSTORE PUSH32 0x4F776E61626C653A206E6577206F776E657220697320746865207A65726F2061 PUSH1 0x44 DUP3 ADD MSTORE PUSH6 0x646472657373 PUSH1 0xD0 SHL PUSH1 0x64 DUP3 ADD MSTORE PUSH1 0x84 ADD PUSH2 0x90D JUMP JUMPDEST PUSH2 0x12B6 DUP2 PUSH2 0x186F JUMP JUMPDEST POP JUMP JUMPDEST PUSH1 0x0 SLOAD PUSH1 0x1 PUSH1 0x1 PUSH1 0xA0 SHL SUB AND CALLER EQ PUSH2 0xE7C JUMPI PUSH1 0x40 MLOAD PUSH3 0x461BCD PUSH1 0xE5 SHL DUP2 MSTORE PUSH1 0x20 PUSH1 0x4 DUP3 ADD DUP2 SWAP1 MSTORE PUSH1 0x24 DUP3 ADD MSTORE PUSH32 0x4F776E61626C653A2063616C6C6572206973206E6F7420746865206F776E6572 PUSH1 0x44 DUP3 ADD MSTORE PUSH1 0x64 ADD PUSH2 0x90D JUMP JUMPDEST PUSH1 0x0 PUSH8 0xDE0B6B3A7640000 PUSH2 0x1326 PUSH2 0xCB6 JUMP JUMPDEST PUSH2 0x4AF SWAP1 DUP5 PUSH2 0x1D56 JUMP JUMPDEST PUSH1 0x0 DUP1 PUSH8 0xDE0B6B3A7640000 PUSH2 0x1347 PUSH1 0x2 DUP6 PUSH2 0x204D JUMP JUMPDEST PUSH2 0x1351 SWAP2 SWAP1 PUSH2 0x1D6D JUMP JUMPDEST SWAP1 POP PUSH2 0x1361 DUP2 PUSH1 0x1 PUSH1 0xC0 SHL PUSH2 0x1D6D JUMP JUMPDEST SWAP4 SWAP3 POP POP POP JUMP JUMPDEST PUSH1 0x0 PUSH1 0x1 PUSH1 0xC0 SHL PUSH2 0x1381 PUSH8 0xDE0B6B3A7640000 DUP3 PUSH2 0x1D6D JUMP JUMPDEST SWAP1 POP DUP1 PUSH2 0x138F PUSH1 0x2 DUP6 PUSH2 0x204D JUMP JUMPDEST PUSH2 0x1361 SWAP2 SWAP1 PUSH2 0x1D6D JUMP JUMPDEST PUSH1 0x40 DUP1 MLOAD PUSH1 0x80 DUP2 ADD DUP3 MSTORE PUSH1 0x60 DUP1 DUP3 MSTORE PUSH1 0x0 PUSH1 0x20 DUP4 ADD DUP2 SWAP1 MSTORE SWAP3 DUP3 ADD DUP4 SWAP1 MSTORE DUP2 ADD DUP3 SWAP1 MSTORE DUP4 PUSH1 0x0 SUB PUSH2 0x14C8 JUMPI PUSH1 0x0 PUSH1 0x0 DUP1 MLOAD PUSH1 0x20 PUSH2 0x2190 DUP4 CODECOPY DUP2 MLOAD SWAP2 MSTORE SWAP1 POP DUP1 PUSH1 0x1 PUSH1 0x1 PUSH1 0xA0 SHL SUB AND PUSH4 0xD0E30DB0 DUP6 PUSH1 0x40 MLOAD DUP3 PUSH4 0xFFFFFFFF AND PUSH1 0xE0 SHL DUP2 MSTORE PUSH1 0x4 ADD PUSH1 0x0 PUSH1 0x40 MLOAD DUP1 DUP4 SUB DUP2 DUP6 DUP9 DUP1 EXTCODESIZE ISZERO DUP1 ISZERO PUSH2 0x1412 JUMPI PUSH1 0x0 DUP1 REVERT JUMPDEST POP GAS CALL ISZERO DUP1 ISZERO PUSH2 0x1426 JUMPI RETURNDATASIZE PUSH1 0x0 DUP1 RETURNDATACOPY RETURNDATASIZE PUSH1 0x0 REVERT JUMPDEST POP POP POP POP POP PUSH2 0x1458 PUSH1 0x0 DUP1 MLOAD PUSH1 0x20 PUSH2 0x2190 DUP4 CODECOPY DUP2 MLOAD SWAP2 MSTORE PUSH20 0x13F4EA83D0BD40E75C8222255BC855A974568DD4 DUP7 PUSH2 0x1BBE JUMP JUMPDEST PUSH1 0x40 DUP1 MLOAD PUSH1 0x80 DUP2 ADD SWAP1 SWAP2 MSTORE PUSH1 0x1 SLOAD DUP2 SWAP1 PUSH2 0x1492 SWAP1 PUSH1 0x0 DUP1 MLOAD PUSH1 0x20 PUSH2 0x2190 DUP4 CODECOPY DUP2 MLOAD SWAP2 MSTORE SWAP1 PUSH2 0x1F4 SWAP1 PUSH1 0x1 PUSH1 0x1 PUSH1 0xA0 SHL SUB AND PUSH1 0xA0 DUP6 ADD PUSH2 0x205C JUMP JUMPDEST PUSH1 0x40 MLOAD PUSH1 0x20 DUP2 DUP4 SUB SUB DUP2 MSTORE SWAP1 PUSH1 0x40 MSTORE DUP2 MSTORE PUSH1 0x20 ADD DUP8 PUSH1 0x1 PUSH1 0x1 PUSH1 0xA0 SHL SUB AND DUP2 MSTORE PUSH1 0x20 ADD DUP6 DUP2 MSTORE PUSH1 0x20 ADD PUSH1 0x0 DUP2 MSTORE POP SWAP2 POP POP PUSH2 0x15BC JUMP JUMPDEST DUP3 ISZERO PUSH2 0x14E6 JUMPI PUSH1 0x40 MLOAD PUSH3 0x461BCD PUSH1 0xE5 SHL DUP2 MSTORE PUSH1 0x4 ADD PUSH2 0x90D SWAP1 PUSH2 0x1EE0 JUMP JUMPDEST PUSH2 0x1506 PUSH20 0x55D398326F99059FF775485246999027B3197955 DUP7 ADDRESS DUP8 PUSH2 0x173F JUMP JUMPDEST PUSH2 0x1539 PUSH20 0x55D398326F99059FF775485246999027B3197955 PUSH20 0x13F4EA83D0BD40E75C8222255BC855A974568DD4 DUP7 PUSH2 0x1BBE JUMP JUMPDEST PUSH1 0x40 DUP1 MLOAD PUSH1 0x80 DUP2 ADD SWAP1 SWAP2 MSTORE PUSH1 0x1 SLOAD DUP2 SWAP1 PUSH2 0x158B SWAP1 PUSH20 0x55D398326F99059FF775485246999027B3197955 SWAP1 PUSH2 0x1F4 SWAP1 PUSH1 0x0 DUP1 MLOAD PUSH1 0x20 PUSH2 0x2190 DUP4 CODECOPY DUP2 MLOAD SWAP2 MSTORE SWAP1 DUP3 SWAP1 PUSH1 0x1 PUSH1 0x1 PUSH1 0xA0 SHL SUB AND PUSH1 0xA0 DUP8 ADD PUSH2 0x2097 JUMP JUMPDEST PUSH1 0x40 MLOAD PUSH1 0x20 DUP2 DUP4 SUB SUB DUP2 MSTORE SWAP1 PUSH1 0x40 MSTORE DUP2 MSTORE PUSH1 0x20 ADD DUP7 PUSH1 0x1 PUSH1 0x1 PUSH1 0xA0 SHL SUB AND DUP2 MSTORE PUSH1 0x20 ADD DUP6 DUP2 MSTORE PUSH1 0x20 ADD PUSH1 0x0 DUP2 MSTORE POP SWAP1 POP JUMPDEST PUSH1 0x40 MLOAD PUSH4 0xB858183F PUSH1 0xE0 SHL DUP2 MSTORE PUSH20 0x13F4EA83D0BD40E75C8222255BC855A974568DD4 SWAP1 PUSH4 0xB858183F SWAP1 PUSH2 0x15F3 SWAP1 DUP5 SWAP1 PUSH1 0x4 ADD PUSH2 0x210D JUMP JUMPDEST PUSH1 0x20 PUSH1 0x40 MLOAD DUP1 DUP4 SUB DUP2 PUSH1 0x0 DUP8 GAS CALL ISZERO DUP1 ISZERO PUSH2 0x1612 JUMPI RETURNDATASIZE PUSH1 0x0 DUP1 RETURNDATACOPY RETURNDATASIZE PUSH1 0x0 REVERT JUMPDEST POP POP POP POP PUSH1 0x40 MLOAD RETURNDATASIZE PUSH1 0x1F NOT PUSH1 0x1F DUP3 ADD AND DUP3 ADD DUP1 PUSH1 0x40 MSTORE POP DUP2 ADD SWAP1 PUSH2 0x1636 SWAP2 SWAP1 PUSH2 0x1F50 JUMP JUMPDEST SWAP6 SWAP5 POP POP POP POP POP JUMP JUMPDEST PUSH1 0x40 DUP1 MLOAD PUSH1 0x1 PUSH1 0x1 PUSH1 0xA0 SHL SUB DUP5 DUP2 AND PUSH1 0x24 DUP4 ADD MSTORE PUSH1 0x44 DUP1 DUP4 ADD DUP6 SWAP1 MSTORE DUP4 MLOAD DUP1 DUP5 SUB SWAP1 SWAP2 ADD DUP2 MSTORE PUSH1 0x64 SWAP1 SWAP3 ADD DUP4 MSTORE PUSH1 0x20 DUP3 ADD DUP1 MLOAD PUSH1 0x1 PUSH1 0x1 PUSH1 0xE0 SHL SUB AND PUSH4 0xA9059CBB PUSH1 0xE0 SHL OR SWAP1 MSTORE SWAP2 MLOAD PUSH1 0x0 SWAP3 DUP4 SWAP3 SWAP1 DUP8 AND SWAP2 PUSH2 0x169B SWAP2 SWAP1 PUSH2 0x2173 JUMP JUMPDEST PUSH1 0x0 PUSH1 0x40 MLOAD DUP1 DUP4 SUB DUP2 PUSH1 0x0 DUP7 GAS CALL SWAP2 POP POP RETURNDATASIZE DUP1 PUSH1 0x0 DUP2 EQ PUSH2 0x16D8 JUMPI PUSH1 0x40 MLOAD SWAP2 POP PUSH1 0x1F NOT PUSH1 0x3F RETURNDATASIZE ADD AND DUP3 ADD PUSH1 0x40 MSTORE RETURNDATASIZE DUP3 MSTORE RETURNDATASIZE PUSH1 0x0 PUSH1 0x20 DUP5 ADD RETURNDATACOPY PUSH2 0x16DD JUMP JUMPDEST PUSH1 0x60 SWAP2 POP JUMPDEST POP SWAP2 POP SWAP2 POP DUP2 DUP1 ISZERO PUSH2 0x1707 JUMPI POP DUP1 MLOAD ISZERO DUP1 PUSH2 0x1707 JUMPI POP DUP1 DUP1 PUSH1 0x20 ADD SWAP1 MLOAD DUP2 ADD SWAP1 PUSH2 0x1707 SWAP2 SWAP1 PUSH2 0x1F33 JUMP JUMPDEST PUSH2 0x1738 JUMPI PUSH1 0x40 MLOAD PUSH3 0x461BCD PUSH1 0xE5 SHL DUP2 MSTORE PUSH1 0x20 PUSH1 0x4 DUP3 ADD MSTORE PUSH1 0x2 PUSH1 0x24 DUP3 ADD MSTORE PUSH2 0x14D5 PUSH1 0xF2 SHL PUSH1 0x44 DUP3 ADD MSTORE PUSH1 0x64 ADD PUSH2 0x90D JUMP JUMPDEST POP POP POP POP POP JUMP JUMPDEST PUSH1 0x40 DUP1 MLOAD PUSH1 0x1 PUSH1 0x1 PUSH1 0xA0 SHL SUB DUP6 DUP2 AND PUSH1 0x24 DUP4 ADD MSTORE DUP5 DUP2 AND PUSH1 0x44 DUP4 ADD MSTORE PUSH1 0x64 DUP1 DUP4 ADD DUP6 SWAP1 MSTORE DUP4 MLOAD DUP1 DUP5 SUB SWAP1 SWAP2 ADD DUP2 MSTORE PUSH1 0x84 SWAP1 SWAP3 ADD DUP4 MSTORE PUSH1 0x20 DUP3 ADD DUP1 MLOAD PUSH1 0x1 PUSH1 0x1 PUSH1 0xE0 SHL SUB AND PUSH4 0x23B872DD PUSH1 0xE0 SHL OR SWAP1 MSTORE SWAP2 MLOAD PUSH1 0x0 SWAP3 DUP4 SWAP3 SWAP1 DUP9 AND SWAP2 PUSH2 0x17A3 SWAP2 SWAP1 PUSH2 0x2173 JUMP JUMPDEST PUSH1 0x0 PUSH1 0x40 MLOAD DUP1 DUP4 SUB DUP2 PUSH1 0x0 DUP7 GAS CALL SWAP2 POP POP RETURNDATASIZE DUP1 PUSH1 0x0 DUP2 EQ PUSH2 0x17E0 JUMPI PUSH1 0x40 MLOAD SWAP2 POP PUSH1 0x1F NOT PUSH1 0x3F RETURNDATASIZE ADD AND DUP3 ADD PUSH1 0x40 MSTORE RETURNDATASIZE DUP3 MSTORE RETURNDATASIZE PUSH1 0x0 PUSH1 0x20 DUP5 ADD RETURNDATACOPY PUSH2 0x17E5 JUMP JUMPDEST PUSH1 0x60 SWAP2 POP JUMPDEST POP SWAP2 POP SWAP2 POP DUP2 DUP1 ISZERO PUSH2 0x180F JUMPI POP DUP1 MLOAD ISZERO DUP1 PUSH2 0x180F JUMPI POP DUP1 DUP1 PUSH1 0x20 ADD SWAP1 MLOAD DUP2 ADD SWAP1 PUSH2 0x180F SWAP2 SWAP1 PUSH2 0x1F33 JUMP JUMPDEST PUSH2 0x1841 JUMPI PUSH1 0x40 MLOAD PUSH3 0x461BCD PUSH1 0xE5 SHL DUP2 MSTORE PUSH1 0x20 PUSH1 0x4 DUP3 ADD MSTORE PUSH1 0x3 PUSH1 0x24 DUP3 ADD MSTORE PUSH3 0x29AA23 PUSH1 0xE9 SHL PUSH1 0x44 DUP3 ADD MSTORE PUSH1 0x64 ADD PUSH2 0x90D JUMP JUMPDEST POP POP POP POP POP POP JUMP JUMPDEST PUSH1 0x0 PUSH8 0xDE0B6B3A7640000 PUSH2 0x1326 PUSH2 0xD05 JUMP JUMPDEST PUSH1 0x0 PUSH8 0xDE0B6B3A7640000 PUSH2 0x1326 PUSH2 0xB51 JUMP JUMPDEST PUSH1 0x0 DUP1 SLOAD PUSH1 0x1 PUSH1 0x1 PUSH1 0xA0 SHL SUB DUP4 DUP2 AND PUSH1 0x1 PUSH1 0x1 PUSH1 0xA0 SHL SUB NOT DUP4 AND DUP2 OR DUP5 SSTORE PUSH1 0x40 MLOAD SWAP2 SWAP1 SWAP3 AND SWAP3 DUP4 SWAP2 PUSH32 0x8BE0079C531659141344CD1FD0A4F28419497F9722A3DAAFE3B4186F6B6457E0 SWAP2 SWAP1 LOG3 POP POP JUMP JUMPDEST PUSH1 0x0 PUSH8 0xDE0B6B3A7640000 PUSH2 0x1326 PUSH2 0xCEA JUMP JUMPDEST PUSH1 0x1 SLOAD PUSH1 0x0 SWAP1 PUSH2 0x18ED SWAP1 PUSH1 0x1 PUSH1 0x1 PUSH1 0xA0 SHL SUB AND DUP6 ADDRESS DUP7 PUSH2 0x173F JUMP JUMPDEST PUSH1 0x1 SLOAD PUSH2 0x1918 SWAP1 PUSH1 0x1 PUSH1 0x1 PUSH1 0xA0 SHL SUB AND PUSH20 0x13F4EA83D0BD40E75C8222255BC855A974568DD4 DUP6 PUSH2 0x1BBE JUMP JUMPDEST DUP2 ISZERO PUSH2 0x1A2B JUMPI PUSH1 0x40 DUP1 MLOAD PUSH1 0x80 DUP2 ADD SWAP1 SWAP2 MSTORE PUSH1 0x1 SLOAD PUSH1 0x0 SWAP2 SWAP1 DUP2 SWAP1 PUSH2 0x1970 SWAP1 PUSH1 0x1 PUSH1 0x1 PUSH1 0xA0 SHL SUB AND PUSH2 0x1F4 PUSH1 0x0 DUP1 MLOAD PUSH1 0x20 PUSH2 0x2190 DUP4 CODECOPY DUP2 MLOAD SWAP2 MSTORE DUP2 PUSH20 0x55D398326F99059FF775485246999027B3197955 PUSH1 0xA0 DUP8 ADD PUSH2 0x2097 JUMP JUMPDEST PUSH1 0x40 MLOAD PUSH1 0x20 DUP2 DUP4 SUB SUB DUP2 MSTORE SWAP1 PUSH1 0x40 MSTORE DUP2 MSTORE PUSH1 0x20 ADD DUP7 PUSH1 0x1 PUSH1 0x1 PUSH1 0xA0 SHL SUB AND DUP2 MSTORE PUSH1 0x20 ADD DUP6 DUP2 MSTORE PUSH1 0x20 ADD PUSH1 0x0 DUP2 MSTORE POP SWAP1 POP PUSH20 0x13F4EA83D0BD40E75C8222255BC855A974568DD4 PUSH1 0x1 PUSH1 0x1 PUSH1 0xA0 SHL SUB AND PUSH4 0xB858183F DUP3 PUSH1 0x40 MLOAD DUP3 PUSH4 0xFFFFFFFF AND PUSH1 0xE0 SHL DUP2 MSTORE PUSH1 0x4 ADD PUSH2 0x19E0 SWAP2 SWAP1 PUSH2 0x210D JUMP JUMPDEST PUSH1 0x20 PUSH1 0x40 MLOAD DUP1 DUP4 SUB DUP2 PUSH1 0x0 DUP8 GAS CALL ISZERO DUP1 ISZERO PUSH2 0x19FF JUMPI RETURNDATASIZE PUSH1 0x0 DUP1 RETURNDATACOPY RETURNDATASIZE PUSH1 0x0 REVERT JUMPDEST POP POP POP POP PUSH1 0x40 MLOAD RETURNDATASIZE PUSH1 0x1F NOT PUSH1 0x1F DUP3 ADD AND DUP3 ADD DUP1 PUSH1 0x40 MSTORE POP DUP2 ADD SWAP1 PUSH2 0x1A23 SWAP2 SWAP1 PUSH2 0x1F50 JUMP JUMPDEST SWAP2 POP POP PUSH2 0x1361 JUMP JUMPDEST PUSH1 0x40 DUP1 MLOAD PUSH1 0x80 DUP2 ADD SWAP1 SWAP2 MSTORE PUSH1 0x1 SLOAD PUSH1 0x0 SWAP2 SWAP1 DUP2 SWAP1 PUSH2 0x1A67 SWAP1 PUSH1 0x1 PUSH1 0x1 PUSH1 0xA0 SHL SUB AND PUSH2 0x1F4 PUSH1 0x0 DUP1 MLOAD PUSH1 0x20 PUSH2 0x2190 DUP4 CODECOPY DUP2 MLOAD SWAP2 MSTORE PUSH1 0xA0 DUP6 ADD PUSH2 0x205C JUMP JUMPDEST PUSH1 0x40 MLOAD PUSH1 0x20 DUP2 DUP4 SUB SUB DUP2 MSTORE SWAP1 PUSH1 0x40 MSTORE DUP2 MSTORE PUSH1 0x20 ADD ADDRESS PUSH1 0x1 PUSH1 0x1 PUSH1 0xA0 SHL SUB AND DUP2 MSTORE PUSH1 0x20 ADD DUP6 DUP2 MSTORE PUSH1 0x20 ADD PUSH1 0x0 DUP2 MSTORE POP SWAP1 POP PUSH20 0x13F4EA83D0BD40E75C8222255BC855A974568DD4 PUSH1 0x1 PUSH1 0x1 PUSH1 0xA0 SHL SUB AND PUSH4 0xB858183F DUP3 PUSH1 0x40 MLOAD DUP3 PUSH4 0xFFFFFFFF AND PUSH1 0xE0 SHL DUP2 MSTORE PUSH1 0x4 ADD PUSH2 0x1AD7 SWAP2 SWAP1 PUSH2 0x210D JUMP JUMPDEST PUSH1 0x20 PUSH1 0x40 MLOAD DUP1 DUP4 SUB DUP2 PUSH1 0x0 DUP8 GAS CALL ISZERO DUP1 ISZERO PUSH2 0x1AF6 JUMPI RETURNDATASIZE PUSH1 0x0 DUP1 RETURNDATACOPY RETURNDATASIZE PUSH1 0x0 REVERT JUMPDEST POP POP POP POP PUSH1 0x40 MLOAD RETURNDATASIZE PUSH1 0x1F NOT PUSH1 0x1F DUP3 ADD AND DUP3 ADD DUP1 PUSH1 0x40 MSTORE POP DUP2 ADD SWAP1 PUSH2 0x1B1A SWAP2 SWAP1 PUSH2 0x1F50 JUMP JUMPDEST PUSH1 0x40 MLOAD PUSH4 0x2E1A7D4D PUSH1 0xE0 SHL DUP2 MSTORE PUSH1 0x4 DUP2 ADD DUP3 SWAP1 MSTORE SWAP1 SWAP3 POP PUSH1 0x0 DUP1 MLOAD PUSH1 0x20 PUSH2 0x2190 DUP4 CODECOPY DUP2 MLOAD SWAP2 MSTORE SWAP1 DUP2 SWAP1 PUSH4 0x2E1A7D4D SWAP1 PUSH1 0x24 ADD PUSH1 0x0 PUSH1 0x40 MLOAD DUP1 DUP4 SUB DUP2 PUSH1 0x0 DUP8 DUP1 EXTCODESIZE ISZERO DUP1 ISZERO PUSH2 0x1B66 JUMPI PUSH1 0x0 DUP1 REVERT JUMPDEST POP GAS CALL ISZERO DUP1 ISZERO PUSH2 0x1B7A JUMPI RETURNDATASIZE PUSH1 0x0 DUP1 RETURNDATACOPY RETURNDATASIZE PUSH1 0x0 REVERT JUMPDEST POP POP PUSH1 0x40 MLOAD PUSH1 0x1 PUSH1 0x1 PUSH1 0xA0 SHL SUB DUP10 AND SWAP3 POP DUP6 ISZERO PUSH2 0x8FC MUL SWAP2 POP DUP6 SWAP1 PUSH1 0x0 DUP2 DUP2 DUP2 DUP6 DUP9 DUP9 CALL SWAP4 POP POP POP POP ISZERO DUP1 ISZERO PUSH2 0x1BB4 JUMPI RETURNDATASIZE PUSH1 0x0 DUP1 RETURNDATACOPY RETURNDATASIZE PUSH1 0x0 REVERT JUMPDEST POP POP POP SWAP4 SWAP3 POP POP POP JUMP JUMPDEST PUSH1 0x40 DUP1 MLOAD PUSH1 0x1 PUSH1 0x1 PUSH1 0xA0 SHL SUB DUP5 DUP2 AND PUSH1 0x24 DUP4 ADD MSTORE PUSH1 0x44 DUP1 DUP4 ADD DUP6 SWAP1 MSTORE DUP4 MLOAD DUP1 DUP5 SUB SWAP1 SWAP2 ADD DUP2 MSTORE PUSH1 0x64 SWAP1 SWAP3 ADD DUP4 MSTORE PUSH1 0x20 DUP3 ADD DUP1 MLOAD PUSH1 0x1 PUSH1 0x1 PUSH1 0xE0 SHL SUB AND PUSH4 0x95EA7B3 PUSH1 0xE0 SHL OR SWAP1 MSTORE SWAP2 MLOAD PUSH1 0x0 SWAP3 DUP4 SWAP3 SWAP1 DUP8 AND SWAP2 PUSH2 0x1C1A SWAP2 SWAP1 PUSH2 0x2173 JUMP JUMPDEST PUSH1 0x0 PUSH1 0x40 MLOAD DUP1 DUP4 SUB DUP2 PUSH1 0x0 DUP7 GAS CALL SWAP2 POP POP RETURNDATASIZE DUP1 PUSH1 0x0 DUP2 EQ PUSH2 0x1C57 JUMPI PUSH1 0x40 MLOAD SWAP2 POP PUSH1 0x1F NOT PUSH1 0x3F RETURNDATASIZE ADD AND DUP3 ADD PUSH1 0x40 MSTORE RETURNDATASIZE DUP3 MSTORE RETURNDATASIZE PUSH1 0x0 PUSH1 0x20 DUP5 ADD RETURNDATACOPY PUSH2 0x1C5C JUMP JUMPDEST PUSH1 0x60 SWAP2 POP JUMPDEST POP SWAP2 POP SWAP2 POP DUP2 DUP1 ISZERO PUSH2 0x1C86 JUMPI POP DUP1 MLOAD ISZERO DUP1 PUSH2 0x1C86 JUMPI POP DUP1 DUP1 PUSH1 0x20 ADD SWAP1 MLOAD DUP2 ADD SWAP1 PUSH2 0x1C86 SWAP2 SWAP1 PUSH2 0x1F33 JUMP JUMPDEST PUSH2 0x1738 JUMPI PUSH1 0x40 MLOAD PUSH3 0x461BCD PUSH1 0xE5 SHL DUP2 MSTORE PUSH1 0x20 PUSH1 0x4 DUP3 ADD MSTORE PUSH1 0x2 PUSH1 0x24 DUP3 ADD MSTORE PUSH2 0x5341 PUSH1 0xF0 SHL PUSH1 0x44 DUP3 ADD MSTORE PUSH1 0x64 ADD PUSH2 0x90D JUMP JUMPDEST PUSH1 0x0 PUSH1 0x20 DUP3 DUP5 SUB SLT ISZERO PUSH2 0x1CC9 JUMPI PUSH1 0x0 DUP1 REVERT JUMPDEST POP CALLDATALOAD SWAP2 SWAP1 POP JUMP JUMPDEST DUP1 ISZERO ISZERO DUP2 EQ PUSH2 0x12B6 JUMPI PUSH1 0x0 DUP1 REVERT JUMPDEST PUSH1 0x0 DUP1 PUSH1 0x40 DUP4 DUP6 SUB SLT ISZERO PUSH2 0x1CF1 JUMPI PUSH1 0x0 DUP1 REVERT JUMPDEST DUP3 CALLDATALOAD SWAP2 POP PUSH1 0x20 DUP4 ADD CALLDATALOAD PUSH2 0x1D03 DUP2 PUSH2 0x1CD0 JUMP JUMPDEST DUP1 SWAP2 POP POP SWAP3 POP SWAP3 SWAP1 POP JUMP JUMPDEST PUSH1 0x1 PUSH1 0x1 PUSH1 0xA0 SHL SUB DUP2 AND DUP2 EQ PUSH2 0x12B6 JUMPI PUSH1 0x0 DUP1 REVERT JUMPDEST PUSH1 0x0 PUSH1 0x20 DUP3 DUP5 SUB SLT ISZERO PUSH2 0x1D35 JUMPI PUSH1 0x0 DUP1 REVERT JUMPDEST DUP2 CALLDATALOAD PUSH2 0x1361 DUP2 PUSH2 0x1D0E JUMP JUMPDEST PUSH4 0x4E487B71 PUSH1 0xE0 SHL PUSH1 0x0 MSTORE PUSH1 0x11 PUSH1 0x4 MSTORE PUSH1 0x24 PUSH1 0x0 REVERT JUMPDEST DUP1 DUP3 MUL DUP2 ISZERO DUP3 DUP3 DIV DUP5 EQ OR PUSH2 0x494 JUMPI PUSH2 0x494 PUSH2 0x1D40 JUMP JUMPDEST PUSH1 0x0 DUP3 PUSH2 0x1D8A JUMPI PUSH4 0x4E487B71 PUSH1 0xE0 SHL PUSH1 0x0 MSTORE PUSH1 0x12 PUSH1 0x4 MSTORE PUSH1 0x24 PUSH1 0x0 REVERT JUMPDEST POP DIV SWAP1 JUMP JUMPDEST PUSH1 0x1 PUSH1 0x1 PUSH1 0xA0 SHL SUB SWAP4 DUP5 AND DUP2 MSTORE SWAP2 SWAP1 SWAP3 AND PUSH1 0x20 DUP3 ADD MSTORE PUSH3 0xFFFFFF SWAP1 SWAP2 AND PUSH1 0x40 DUP3 ADD MSTORE PUSH1 0x60 ADD SWAP1 JUMP JUMPDEST PUSH1 0x0 PUSH1 0x20 DUP3 DUP5 SUB SLT ISZERO PUSH2 0x1DC9 JUMPI PUSH1 0x0 DUP1 REVERT JUMPDEST DUP2 MLOAD PUSH2 0x1361 DUP2 PUSH2 0x1D0E JUMP JUMPDEST DUP1 MLOAD PUSH2 0x4B9 DUP2 PUSH2 0x1D0E JUMP JUMPDEST DUP1 MLOAD PUSH1 0x2 DUP2 SWAP1 SIGNEXTEND DUP2 EQ PUSH2 0x4B9 JUMPI PUSH1 0x0 DUP1 REVERT JUMPDEST DUP1 MLOAD PUSH2 0xFFFF DUP2 AND DUP2 EQ PUSH2 0x4B9 JUMPI PUSH1 0x0 DUP1 REVERT JUMPDEST DUP1 MLOAD PUSH4 0xFFFFFFFF DUP2 AND DUP2 EQ PUSH2 0x4B9 JUMPI PUSH1 0x0 DUP1 REVERT JUMPDEST DUP1 MLOAD PUSH2 0x4B9 DUP2 PUSH2 0x1CD0 JUMP JUMPDEST PUSH1 0x0 PUSH1 0xE0 DUP3 DUP5 SUB SLT ISZERO PUSH2 0x1E34 JUMPI PUSH1 0x0 DUP1 REVERT JUMPDEST PUSH1 0x40 MLOAD PUSH1 0xE0 DUP2 ADD DUP2 DUP2 LT PUSH8 0xFFFFFFFFFFFFFFFF DUP3 GT OR ISZERO PUSH2 0x1E65 JUMPI PUSH4 0x4E487B71 PUSH1 0xE0 SHL PUSH1 0x0 MSTORE PUSH1 0x41 PUSH1 0x4 MSTORE PUSH1 0x24 PUSH1 0x0 REVERT JUMPDEST PUSH1 0x40 MSTORE PUSH2 0x1E71 DUP4 PUSH2 0x1DD4 JUMP JUMPDEST DUP2 MSTORE PUSH2 0x1E7F PUSH1 0x20 DUP5 ADD PUSH2 0x1DDF JUMP JUMPDEST PUSH1 0x20 DUP3 ADD MSTORE PUSH2 0x1E90 PUSH1 0x40 DUP5 ADD PUSH2 0x1DF1 JUMP JUMPDEST PUSH1 0x40 DUP3 ADD MSTORE PUSH2 0x1EA1 PUSH1 0x60 DUP5 ADD PUSH2 0x1DF1 JUMP JUMPDEST PUSH1 0x60 DUP3 ADD MSTORE PUSH2 0x1EB2 PUSH1 0x80 DUP5 ADD PUSH2 0x1DF1 JUMP JUMPDEST PUSH1 0x80 DUP3 ADD MSTORE PUSH2 0x1EC3 PUSH1 0xA0 DUP5 ADD PUSH2 0x1E03 JUMP JUMPDEST PUSH1 0xA0 DUP3 ADD MSTORE PUSH2 0x1ED4 PUSH1 0xC0 DUP5 ADD PUSH2 0x1E17 JUMP JUMPDEST PUSH1 0xC0 DUP3 ADD MSTORE SWAP4 SWAP3 POP POP POP JUMP JUMPDEST PUSH1 0x20 DUP1 DUP3 MSTORE PUSH1 0x33 SWAP1 DUP3 ADD MSTORE PUSH32 0x6E6F7420616C6C6F77656420746F20707572636861736520696E204255534420 PUSH1 0x40 DUP3 ADD MSTORE PUSH19 0x616E6420424E4220696E2073616D6554696D65 PUSH1 0x68 SHL PUSH1 0x60 DUP3 ADD MSTORE PUSH1 0x80 ADD SWAP1 JUMP JUMPDEST PUSH1 0x0 PUSH1 0x20 DUP3 DUP5 SUB SLT ISZERO PUSH2 0x1F45 JUMPI PUSH1 0x0 DUP1 REVERT JUMPDEST DUP2 MLOAD PUSH2 0x1361 DUP2 PUSH2 0x1CD0 JUMP JUMPDEST PUSH1 0x0 PUSH1 0x20 DUP3 DUP5 SUB SLT ISZERO PUSH2 0x1F62 JUMPI PUSH1 0x0 DUP1 REVERT JUMPDEST POP MLOAD SWAP2 SWAP1 POP JUMP JUMPDEST PUSH1 0x1 DUP2 DUP2 JUMPDEST DUP1 DUP6 GT ISZERO PUSH2 0x1FA4 JUMPI DUP2 PUSH1 0x0 NOT DIV DUP3 GT ISZERO PUSH2 0x1F8A JUMPI PUSH2 0x1F8A PUSH2 0x1D40 JUMP JUMPDEST DUP1 DUP6 AND ISZERO PUSH2 0x1F97 JUMPI SWAP2 DUP2 MUL SWAP2 JUMPDEST SWAP4 DUP5 SHR SWAP4 SWAP1 DUP1 MUL SWAP1 PUSH2 0x1F6E JUMP JUMPDEST POP SWAP3 POP SWAP3 SWAP1 POP JUMP JUMPDEST PUSH1 0x0 DUP3 PUSH2 0x1FBB JUMPI POP PUSH1 0x1 PUSH2 0x494 JUMP JUMPDEST DUP2 PUSH2 0x1FC8 JUMPI POP PUSH1 0x0 PUSH2 0x494 JUMP JUMPDEST DUP2 PUSH1 0x1 DUP2 EQ PUSH2 0x1FDE JUMPI PUSH1 0x2 DUP2 EQ PUSH2 0x1FE8 JUMPI PUSH2 0x2004 JUMP JUMPDEST PUSH1 0x1 SWAP2 POP POP PUSH2 0x494 JUMP JUMPDEST PUSH1 0xFF DUP5 GT ISZERO PUSH2 0x1FF9 JUMPI PUSH2 0x1FF9 PUSH2 0x1D40 JUMP JUMPDEST POP POP PUSH1 0x1 DUP3 SHL PUSH2 0x494 JUMP JUMPDEST POP PUSH1 0x20 DUP4 LT PUSH2 0x133 DUP4 LT AND PUSH1 0x4E DUP5 LT PUSH1 0xB DUP5 LT AND OR ISZERO PUSH2 0x2027 JUMPI POP DUP2 DUP2 EXP PUSH2 0x494 JUMP JUMPDEST PUSH2 0x2031 DUP4 DUP4 PUSH2 0x1F69 JUMP JUMPDEST DUP1 PUSH1 0x0 NOT DIV DUP3 GT ISZERO PUSH2 0x2045 JUMPI PUSH2 0x2045 PUSH2 0x1D40 JUMP JUMPDEST MUL SWAP4 SWAP3 POP POP POP JUMP JUMPDEST PUSH1 0x0 PUSH2 0x1361 PUSH1 0xFF DUP5 AND DUP4 PUSH2 0x1FAC JUMP JUMPDEST PUSH1 0x60 SWAP4 DUP5 SHL PUSH12 0xFFFFFFFFFFFFFFFFFFFFFFFF NOT SWAP1 DUP2 AND DUP3 MSTORE PUSH1 0xE8 SWAP4 SWAP1 SWAP4 SHL PUSH1 0x1 PUSH1 0x1 PUSH1 0xE8 SHL SUB NOT AND PUSH1 0x14 DUP3 ADD MSTORE SWAP3 SHL AND PUSH1 0x17 DUP3 ADD MSTORE PUSH1 0x2B ADD SWAP1 JUMP JUMPDEST PUSH12 0xFFFFFFFFFFFFFFFFFFFFFFFF NOT PUSH1 0x60 SWAP7 DUP8 SHL DUP2 AND DUP3 MSTORE PUSH1 0x1 PUSH1 0x1 PUSH1 0xE8 SHL SUB NOT PUSH1 0xE8 SWAP7 DUP8 SHL DUP2 AND PUSH1 0x14 DUP5 ADD MSTORE SWAP5 DUP8 SHL DUP2 AND PUSH1 0x17 DUP4 ADD MSTORE SWAP3 SWAP1 SWAP5 SHL SWAP1 SWAP3 AND PUSH1 0x2B DUP5 ADD MSTORE SWAP3 SHL SWAP1 SWAP2 AND PUSH1 0x2E DUP3 ADD MSTORE PUSH1 0x42 ADD SWAP1 JUMP JUMPDEST PUSH1 0x0 JUMPDEST DUP4 DUP2 LT ISZERO PUSH2 0x2104 JUMPI DUP2 DUP2 ADD MLOAD DUP4 DUP3 ADD MSTORE PUSH1 0x20 ADD PUSH2 0x20EC JUMP JUMPDEST POP POP PUSH1 0x0 SWAP2 ADD MSTORE JUMP JUMPDEST PUSH1 0x20 DUP2 MSTORE PUSH1 0x0 DUP3 MLOAD PUSH1 0x80 PUSH1 0x20 DUP5 ADD MSTORE DUP1 MLOAD DUP1 PUSH1 0xA0 DUP6 ADD MSTORE PUSH2 0x2135 DUP2 PUSH1 0xC0 DUP7 ADD PUSH1 0x20 DUP6 ADD PUSH2 0x20E9 JUMP JUMPDEST PUSH1 0x20 DUP6 ADD MLOAD PUSH1 0x1 PUSH1 0x1 PUSH1 0xA0 SHL SUB AND PUSH1 0x40 DUP6 DUP2 ADD SWAP2 SWAP1 SWAP2 MSTORE DUP6 ADD MLOAD PUSH1 0x60 DUP1 DUP7 ADD SWAP2 SWAP1 SWAP2 MSTORE SWAP1 SWAP5 ADD MLOAD PUSH1 0x80 DUP5 ADD MSTORE POP POP PUSH1 0xC0 PUSH1 0x1F SWAP1 SWAP3 ADD PUSH1 0x1F NOT AND ADD ADD SWAP1 JUMP JUMPDEST PUSH1 0x0 DUP3 MLOAD PUSH2 0x2185 DUP2 DUP5 PUSH1 0x20 DUP8 ADD PUSH2 0x20E9 JUMP JUMPDEST SWAP2 SWAP1 SWAP2 ADD SWAP3 SWAP2 POP POP JUMP INVALID STOP STOP STOP STOP STOP STOP STOP STOP STOP STOP STOP STOP 0xBB 0x4C 0xDB SWAP13 0xBD CALLDATASIZE 0xB0 SHL 0xD1 0xCB 0xAE 0xBF 0x2D 0xE0 DUP14 SWAP2 PUSH20 0xBC095C9882A73E249E93F2148A87B5F12B4EBEDB PUSH6 0x7A77E0765346 SWAP11 SELFBALANCE PUSH6 0x1BEE85257CA2 PUSH5 0x6970667358 0x22 SLT KECCAK256 0xB4 0xB6 0xD RETURNDATACOPY DUP1 0xD0 0xFC SWAP10 LOG0 SWAP6 PUSH6 0x8F838FD958B2 KECCAK256 LOG2 0xA7 0xDB JUMPI EQ 0xA8 CALL SIGNEXTEND PUSH30 0x6A27D46EA864736F6C634300081200330000000000000000000000000000 "},"methodIdentifiers":{"BLB()":"bfa54b3f","BLB_BNB()":"6f03bfdb","BLB_BUSD()":"6c54fe9a","BLBsForBNB(uint256)":"5fd03331","BLBsForUSD(uint256)":"bc07d85c","BLBsPerUSD()":"6ad2690a","BNB_BLB()":"6601fd26","BNB_BUSD()":"22233ac0","BNBsForBLB(uint256)":"57d846f9","BUSD_BLB()":"6ebd467d","BUSD_BNB()":"48f90a90","USDsForBLB(uint256)":"0cb41d60","blbBalance()":"e00115f6","bnbBalance()":"d013cbe2","busdBalance()":"dc39ca7a","onPancake()":"fd64500c","owner()":"8da5cb5b","purchaseBLB(uint256)":"4d1d226e","renounceOwnership()":"715018a6","sellBLB(uint256,bool)":"e483a6c3","setBLBsPerUSD(uint256)":"067a3dce","setOnPancake()":"4e91341b","transferOwnership(address)":"f2fde38b","withdrawBLB(uint256)":"7f04e0e1","withdrawBNB(uint256)":"127f4b2e","withdrawBUSD(uint256)":"cc3bcaf3"}}}}}