{"contracts/BLBSwap/PancakeSwapper.sol":{"PancakeSwapper":{"abi":[{"inputs":[],"name":"BLB","outputs":[{"internalType":"address","name":"","type":"address"}],"stateMutability":"view","type":"function"},{"inputs":[],"name":"BLB_BNB","outputs":[{"internalType":"uint256","name":"","type":"uint256"}],"stateMutability":"view","type":"function"},{"inputs":[],"name":"BLB_BUSD","outputs":[{"internalType":"uint256","name":"","type":"uint256"}],"stateMutability":"view","type":"function"},{"inputs":[],"name":"BNB_BLB","outputs":[{"internalType":"uint256","name":"","type":"uint256"}],"stateMutability":"view","type":"function"},{"inputs":[],"name":"BNB_BUSD","outputs":[{"internalType":"uint256","name":"","type":"uint256"}],"stateMutability":"view","type":"function"},{"inputs":[],"name":"BUSD_BLB","outputs":[{"internalType":"uint256","name":"","type":"uint256"}],"stateMutability":"view","type":"function"},{"inputs":[],"name":"BUSD_BNB","outputs":[{"internalType":"uint256","name":"","type":"uint256"}],"stateMutability":"view","type":"function"},{"stateMutability":"payable","type":"receive"}],"evm":{"bytecode":{"linkReferences":{},"object":"6080604052600080546001600160a01b0319167313d67fd10bdbe8301e978e4adcbd2c0ad26f754917905534801561003657600080fd5b50610b62806100466000396000f3fe6080604052600436106100745760003560e01c80636c54fe9a1161004e5780636c54fe9a146100d25780636ebd467d146100e75780636f03bfdb146100fc578063bfa54b3f1461011157600080fd5b806322233ac01461008057806348f90a90146100a85780636601fd26146100bd57600080fd5b3661007b57005b600080fd5b34801561008c57600080fd5b50610095610149565b6040519081526020015b60405180910390f35b3480156100b457600080fd5b5061009561031e565b3480156100c957600080fd5b506100956104e7565b3480156100de57600080fd5b50610095610650565b3480156100f357600080fd5b50610095610684565b34801561010857600080fd5b5061009561069f565b34801561011d57600080fd5b50600054610131906001600160a01b031681565b6040516001600160a01b03909116815260200161009f565b604051630b4c774160e11b81526000908190730bfbcf9fa4f9c56b0f40a671ad40e0805a09186590631698ee82906101b39073bb4cdb9cbd36b01bd1cbaebf2de08d9173bc095c907355d398326f99059ff775485246999027b3197955906101f490600401610871565b602060405180830381865afa1580156101d0573d6000803e3d6000fd5b505050506040513d601f19601f820116820180604052508101906101f491906108b1565b90506000816001600160a01b0316633850c7bd6040518163ffffffff1660e01b815260040160e060405180830381865afa158015610236573d6000803e3d6000fd5b505050506040513d601f19601f8201168201806040525081019061025a9190610926565b60000151905073bb4cdb9cbd36b01bd1cbaebf2de08d9173bc095c6001600160a01b0316826001600160a01b0316630dfe16816040518163ffffffff1660e01b8152600401602060405180830381865afa1580156102bc573d6000803e3d6000fd5b505050506040513d601f19601f820116820180604052508101906102e091906108b1565b6001600160a01b03161461030557610300816001600160a01b0316610808565b610317565b610317816001600160a01b0316610840565b9250505090565b604051630b4c774160e11b81526000908190730bfbcf9fa4f9c56b0f40a671ad40e0805a09186590631698ee82906103889073bb4cdb9cbd36b01bd1cbaebf2de08d9173bc095c907355d398326f99059ff775485246999027b3197955906101f490600401610871565b602060405180830381865afa1580156103a5573d6000803e3d6000fd5b505050506040513d601f19601f820116820180604052508101906103c991906108b1565b90506000816001600160a01b0316633850c7bd6040518163ffffffff1660e01b815260040160e060405180830381865afa15801561040b573d6000803e3d6000fd5b505050506040513d601f19601f8201168201806040525081019061042f9190610926565b60000151905073bb4cdb9cbd36b01bd1cbaebf2de08d9173bc095c6001600160a01b0316826001600160a01b0316630dfe16816040518163ffffffff1660e01b8152600401602060405180830381865afa158015610491573d6000803e3d6000fd5b505050506040513d601f19601f820116820180604052508101906104b591906108b1565b6001600160a01b0316146104d557610300816001600160a01b0316610840565b610317816001600160a01b0316610808565b60008054604051630b4c774160e11b81528291730bfbcf9fa4f9c56b0f40a671ad40e0805a09186591631698ee8291610548916001600160a01b039091169073bb4cdb9cbd36b01bd1cbaebf2de08d9173bc095c906101f490600401610871565b602060405180830381865afa158015610565573d6000803e3d6000fd5b505050506040513d601f19601f8201168201806040525081019061058991906108b1565b90506000816001600160a01b0316633850c7bd6040518163ffffffff1660e01b815260040160e060405180830381865afa1580156105cb573d6000803e3d6000fd5b505050506040513d601f19601f820116820180604052508101906105ef9190610926565b60000151905060008054906101000a90046001600160a01b03166001600160a01b0316826001600160a01b0316630dfe16816040518163ffffffff1660e01b8152600401602060405180830381865afa158015610491573d6000803e3d6000fd5b6000670de0b6b3a7640000610663610149565b61066b61069f565b61067591906109fa565b61067f9190610a17565b905090565b6000670de0b6b3a76400006106976104e7565b61066b61031e565b60008054604051630b4c774160e11b81528291730bfbcf9fa4f9c56b0f40a671ad40e0805a09186591631698ee8291610700916001600160a01b039091169073bb4cdb9cbd36b01bd1cbaebf2de08d9173bc095c906101f490600401610871565b602060405180830381865afa15801561071d573d6000803e3d6000fd5b505050506040513d601f19601f8201168201806040525081019061074191906108b1565b90506000816001600160a01b0316633850c7bd6040518163ffffffff1660e01b815260040160e060405180830381865afa158015610783573d6000803e3d6000fd5b505050506040513d601f19601f820116820180604052508101906107a79190610926565b60000151905060008054906101000a90046001600160a01b03166001600160a01b0316826001600160a01b0316630dfe16816040518163ffffffff1660e01b8152600401602060405180830381865afa1580156102bc573d6000803e3d6000fd5b600080670de0b6b3a764000061081f600285610b1d565b6108299190610a17565b905061083981600160c01b610a17565b9392505050565b6000600160c01b610859670de0b6b3a764000082610a17565b905080610867600285610b1d565b6108399190610a17565b6001600160a01b03938416815291909216602082015262ffffff909116604082015260600190565b6001600160a01b03811681146108ae57600080fd5b50565b6000602082840312156108c357600080fd5b815161083981610899565b80516108d981610899565b919050565b8051600281900b81146108d957600080fd5b805161ffff811681146108d957600080fd5b805163ffffffff811681146108d957600080fd5b805180151581146108d957600080fd5b600060e0828403121561093857600080fd5b60405160e0810181811067ffffffffffffffff8211171561096957634e487b7160e01b600052604160045260246000fd5b604052610975836108ce565b8152610983602084016108de565b6020820152610994604084016108f0565b60408201526109a5606084016108f0565b60608201526109b6608084016108f0565b60808201526109c760a08401610902565b60a08201526109d860c08401610916565b60c08201529392505050565b634e487b7160e01b600052601160045260246000fd5b8082028115828204841417610a1157610a116109e4565b92915050565b600082610a3457634e487b7160e01b600052601260045260246000fd5b500490565b600181815b80851115610a74578160001904821115610a5a57610a5a6109e4565b80851615610a6757918102915b93841c9390800290610a3e565b509250929050565b600082610a8b57506001610a11565b81610a9857506000610a11565b8160018114610aae5760028114610ab857610ad4565b6001915050610a11565b60ff841115610ac957610ac96109e4565b50506001821b610a11565b5060208310610133831016604e8410600b8410161715610af7575081810a610a11565b610b018383610a39565b8060001904821115610b1557610b156109e4565b029392505050565b600061083960ff841683610a7c56fea26469706673582212200988ec816ff24ec0c873d1ad89593fe93d3d499c77edc3897870daf2911925a964736f6c63430008120033","opcodes":"PUSH1 0x80 PUSH1 0x40 MSTORE PUSH1 0x0 DUP1 SLOAD PUSH1 0x1 PUSH1 0x1 PUSH1 0xA0 SHL SUB NOT AND PUSH20 0x13D67FD10BDBE8301E978E4ADCBD2C0AD26F7549 OR SWAP1 SSTORE CALLVALUE DUP1 ISZERO PUSH2 0x36 JUMPI PUSH1 0x0 DUP1 REVERT JUMPDEST POP PUSH2 0xB62 DUP1 PUSH2 0x46 PUSH1 0x0 CODECOPY PUSH1 0x0 RETURN INVALID PUSH1 0x80 PUSH1 0x40 MSTORE PUSH1 0x4 CALLDATASIZE LT PUSH2 0x74 JUMPI PUSH1 0x0 CALLDATALOAD PUSH1 0xE0 SHR DUP1 PUSH4 0x6C54FE9A GT PUSH2 0x4E JUMPI DUP1 PUSH4 0x6C54FE9A EQ PUSH2 0xD2 JUMPI DUP1 PUSH4 0x6EBD467D EQ PUSH2 0xE7 JUMPI DUP1 PUSH4 0x6F03BFDB EQ PUSH2 0xFC JUMPI DUP1 PUSH4 0xBFA54B3F EQ PUSH2 0x111 JUMPI PUSH1 0x0 DUP1 REVERT JUMPDEST DUP1 PUSH4 0x22233AC0 EQ PUSH2 0x80 JUMPI DUP1 PUSH4 0x48F90A90 EQ PUSH2 0xA8 JUMPI DUP1 PUSH4 0x6601FD26 EQ PUSH2 0xBD JUMPI PUSH1 0x0 DUP1 REVERT JUMPDEST CALLDATASIZE PUSH2 0x7B JUMPI STOP JUMPDEST PUSH1 0x0 DUP1 REVERT JUMPDEST CALLVALUE DUP1 ISZERO PUSH2 0x8C JUMPI PUSH1 0x0 DUP1 REVERT JUMPDEST POP PUSH2 0x95 PUSH2 0x149 JUMP JUMPDEST PUSH1 0x40 MLOAD SWAP1 DUP2 MSTORE PUSH1 0x20 ADD JUMPDEST PUSH1 0x40 MLOAD DUP1 SWAP2 SUB SWAP1 RETURN JUMPDEST CALLVALUE DUP1 ISZERO PUSH2 0xB4 JUMPI PUSH1 0x0 DUP1 REVERT JUMPDEST POP PUSH2 0x95 PUSH2 0x31E JUMP JUMPDEST CALLVALUE DUP1 ISZERO PUSH2 0xC9 JUMPI PUSH1 0x0 DUP1 REVERT JUMPDEST POP PUSH2 0x95 PUSH2 0x4E7 JUMP JUMPDEST CALLVALUE DUP1 ISZERO PUSH2 0xDE JUMPI PUSH1 0x0 DUP1 REVERT JUMPDEST POP PUSH2 0x95 PUSH2 0x650 JUMP JUMPDEST CALLVALUE DUP1 ISZERO PUSH2 0xF3 JUMPI PUSH1 0x0 DUP1 REVERT JUMPDEST POP PUSH2 0x95 PUSH2 0x684 JUMP JUMPDEST CALLVALUE DUP1 ISZERO PUSH2 0x108 JUMPI PUSH1 0x0 DUP1 REVERT JUMPDEST POP PUSH2 0x95 PUSH2 0x69F JUMP JUMPDEST CALLVALUE DUP1 ISZERO PUSH2 0x11D JUMPI PUSH1 0x0 DUP1 REVERT JUMPDEST POP PUSH1 0x0 SLOAD PUSH2 0x131 SWAP1 PUSH1 0x1 PUSH1 0x1 PUSH1 0xA0 SHL SUB AND DUP2 JUMP JUMPDEST PUSH1 0x40 MLOAD PUSH1 0x1 PUSH1 0x1 PUSH1 0xA0 SHL SUB SWAP1 SWAP2 AND DUP2 MSTORE PUSH1 0x20 ADD PUSH2 0x9F JUMP JUMPDEST PUSH1 0x40 MLOAD PUSH4 0xB4C7741 PUSH1 0xE1 SHL DUP2 MSTORE PUSH1 0x0 SWAP1 DUP2 SWAP1 PUSH20 0xBFBCF9FA4F9C56B0F40A671AD40E0805A091865 SWAP1 PUSH4 0x1698EE82 SWAP1 PUSH2 0x1B3 SWAP1 PUSH20 0xBB4CDB9CBD36B01BD1CBAEBF2DE08D9173BC095C SWAP1 PUSH20 0x55D398326F99059FF775485246999027B3197955 SWAP1 PUSH2 0x1F4 SWAP1 PUSH1 0x4 ADD PUSH2 0x871 JUMP JUMPDEST PUSH1 0x20 PUSH1 0x40 MLOAD DUP1 DUP4 SUB DUP2 DUP7 GAS STATICCALL ISZERO DUP1 ISZERO PUSH2 0x1D0 JUMPI RETURNDATASIZE PUSH1 0x0 DUP1 RETURNDATACOPY RETURNDATASIZE PUSH1 0x0 REVERT JUMPDEST POP POP POP POP PUSH1 0x40 MLOAD RETURNDATASIZE PUSH1 0x1F NOT PUSH1 0x1F DUP3 ADD AND DUP3 ADD DUP1 PUSH1 0x40 MSTORE POP DUP2 ADD SWAP1 PUSH2 0x1F4 SWAP2 SWAP1 PUSH2 0x8B1 JUMP JUMPDEST SWAP1 POP PUSH1 0x0 DUP2 PUSH1 0x1 PUSH1 0x1 PUSH1 0xA0 SHL SUB AND PUSH4 0x3850C7BD PUSH1 0x40 MLOAD DUP2 PUSH4 0xFFFFFFFF AND PUSH1 0xE0 SHL DUP2 MSTORE PUSH1 0x4 ADD PUSH1 0xE0 PUSH1 0x40 MLOAD DUP1 DUP4 SUB DUP2 DUP7 GAS STATICCALL ISZERO DUP1 ISZERO PUSH2 0x236 JUMPI RETURNDATASIZE PUSH1 0x0 DUP1 RETURNDATACOPY RETURNDATASIZE PUSH1 0x0 REVERT JUMPDEST POP POP POP POP PUSH1 0x40 MLOAD RETURNDATASIZE PUSH1 0x1F NOT PUSH1 0x1F DUP3 ADD AND DUP3 ADD DUP1 PUSH1 0x40 MSTORE POP DUP2 ADD SWAP1 PUSH2 0x25A SWAP2 SWAP1 PUSH2 0x926 JUMP JUMPDEST PUSH1 0x0 ADD MLOAD SWAP1 POP PUSH20 0xBB4CDB9CBD36B01BD1CBAEBF2DE08D9173BC095C PUSH1 0x1 PUSH1 0x1 PUSH1 0xA0 SHL SUB AND DUP3 PUSH1 0x1 PUSH1 0x1 PUSH1 0xA0 SHL SUB AND PUSH4 0xDFE1681 PUSH1 0x40 MLOAD DUP2 PUSH4 0xFFFFFFFF AND PUSH1 0xE0 SHL DUP2 MSTORE PUSH1 0x4 ADD PUSH1 0x20 PUSH1 0x40 MLOAD DUP1 DUP4 SUB DUP2 DUP7 GAS STATICCALL ISZERO DUP1 ISZERO PUSH2 0x2BC JUMPI RETURNDATASIZE PUSH1 0x0 DUP1 RETURNDATACOPY RETURNDATASIZE PUSH1 0x0 REVERT JUMPDEST POP POP POP POP PUSH1 0x40 MLOAD RETURNDATASIZE PUSH1 0x1F NOT PUSH1 0x1F DUP3 ADD AND DUP3 ADD DUP1 PUSH1 0x40 MSTORE POP DUP2 ADD SWAP1 PUSH2 0x2E0 SWAP2 SWAP1 PUSH2 0x8B1 JUMP JUMPDEST PUSH1 0x1 PUSH1 0x1 PUSH1 0xA0 SHL SUB AND EQ PUSH2 0x305 JUMPI PUSH2 0x300 DUP2 PUSH1 0x1 PUSH1 0x1 PUSH1 0xA0 SHL SUB AND PUSH2 0x808 JUMP JUMPDEST PUSH2 0x317 JUMP JUMPDEST PUSH2 0x317 DUP2 PUSH1 0x1 PUSH1 0x1 PUSH1 0xA0 SHL SUB AND PUSH2 0x840 JUMP JUMPDEST SWAP3 POP POP POP SWAP1 JUMP JUMPDEST PUSH1 0x40 MLOAD PUSH4 0xB4C7741 PUSH1 0xE1 SHL DUP2 MSTORE PUSH1 0x0 SWAP1 DUP2 SWAP1 PUSH20 0xBFBCF9FA4F9C56B0F40A671AD40E0805A091865 SWAP1 PUSH4 0x1698EE82 SWAP1 PUSH2 0x388 SWAP1 PUSH20 0xBB4CDB9CBD36B01BD1CBAEBF2DE08D9173BC095C SWAP1 PUSH20 0x55D398326F99059FF775485246999027B3197955 SWAP1 PUSH2 0x1F4 SWAP1 PUSH1 0x4 ADD PUSH2 0x871 JUMP JUMPDEST PUSH1 0x20 PUSH1 0x40 MLOAD DUP1 DUP4 SUB DUP2 DUP7 GAS STATICCALL ISZERO DUP1 ISZERO PUSH2 0x3A5 JUMPI RETURNDATASIZE PUSH1 0x0 DUP1 RETURNDATACOPY RETURNDATASIZE PUSH1 0x0 REVERT JUMPDEST POP POP POP POP PUSH1 0x40 MLOAD RETURNDATASIZE PUSH1 0x1F NOT PUSH1 0x1F DUP3 ADD AND DUP3 ADD DUP1 PUSH1 0x40 MSTORE POP DUP2 ADD SWAP1 PUSH2 0x3C9 SWAP2 SWAP1 PUSH2 0x8B1 JUMP JUMPDEST SWAP1 POP PUSH1 0x0 DUP2 PUSH1 0x1 PUSH1 0x1 PUSH1 0xA0 SHL SUB AND PUSH4 0x3850C7BD PUSH1 0x40 MLOAD DUP2 PUSH4 0xFFFFFFFF AND PUSH1 0xE0 SHL DUP2 MSTORE PUSH1 0x4 ADD PUSH1 0xE0 PUSH1 0x40 MLOAD DUP1 DUP4 SUB DUP2 DUP7 GAS STATICCALL ISZERO DUP1 ISZERO PUSH2 0x40B JUMPI RETURNDATASIZE PUSH1 0x0 DUP1 RETURNDATACOPY RETURNDATASIZE PUSH1 0x0 REVERT JUMPDEST POP POP POP POP PUSH1 0x40 MLOAD RETURNDATASIZE PUSH1 0x1F NOT PUSH1 0x1F DUP3 ADD AND DUP3 ADD DUP1 PUSH1 0x40 MSTORE POP DUP2 ADD SWAP1 PUSH2 0x42F SWAP2 SWAP1 PUSH2 0x926 JUMP JUMPDEST PUSH1 0x0 ADD MLOAD SWAP1 POP PUSH20 0xBB4CDB9CBD36B01BD1CBAEBF2DE08D9173BC095C PUSH1 0x1 PUSH1 0x1 PUSH1 0xA0 SHL SUB AND DUP3 PUSH1 0x1 PUSH1 0x1 PUSH1 0xA0 SHL SUB AND PUSH4 0xDFE1681 PUSH1 0x40 MLOAD DUP2 PUSH4 0xFFFFFFFF AND PUSH1 0xE0 SHL DUP2 MSTORE PUSH1 0x4 ADD PUSH1 0x20 PUSH1 0x40 MLOAD DUP1 DUP4 SUB DUP2 DUP7 GAS STATICCALL ISZERO DUP1 ISZERO PUSH2 0x491 JUMPI RETURNDATASIZE PUSH1 0x0 DUP1 RETURNDATACOPY RETURNDATASIZE PUSH1 0x0 REVERT JUMPDEST POP POP POP POP PUSH1 0x40 MLOAD RETURNDATASIZE PUSH1 0x1F NOT PUSH1 0x1F DUP3 ADD AND DUP3 ADD DUP1 PUSH1 0x40 MSTORE POP DUP2 ADD SWAP1 PUSH2 0x4B5 SWAP2 SWAP1 PUSH2 0x8B1 JUMP JUMPDEST PUSH1 0x1 PUSH1 0x1 PUSH1 0xA0 SHL SUB AND EQ PUSH2 0x4D5 JUMPI PUSH2 0x300 DUP2 PUSH1 0x1 PUSH1 0x1 PUSH1 0xA0 SHL SUB AND PUSH2 0x840 JUMP JUMPDEST PUSH2 0x317 DUP2 PUSH1 0x1 PUSH1 0x1 PUSH1 0xA0 SHL SUB AND PUSH2 0x808 JUMP JUMPDEST PUSH1 0x0 DUP1 SLOAD PUSH1 0x40 MLOAD PUSH4 0xB4C7741 PUSH1 0xE1 SHL DUP2 MSTORE DUP3 SWAP2 PUSH20 0xBFBCF9FA4F9C56B0F40A671AD40E0805A091865 SWAP2 PUSH4 0x1698EE82 SWAP2 PUSH2 0x548 SWAP2 PUSH1 0x1 PUSH1 0x1 PUSH1 0xA0 SHL SUB SWAP1 SWAP2 AND SWAP1 PUSH20 0xBB4CDB9CBD36B01BD1CBAEBF2DE08D9173BC095C SWAP1 PUSH2 0x1F4 SWAP1 PUSH1 0x4 ADD PUSH2 0x871 JUMP JUMPDEST PUSH1 0x20 PUSH1 0x40 MLOAD DUP1 DUP4 SUB DUP2 DUP7 GAS STATICCALL ISZERO DUP1 ISZERO PUSH2 0x565 JUMPI RETURNDATASIZE PUSH1 0x0 DUP1 RETURNDATACOPY RETURNDATASIZE PUSH1 0x0 REVERT JUMPDEST POP POP POP POP PUSH1 0x40 MLOAD RETURNDATASIZE PUSH1 0x1F NOT PUSH1 0x1F DUP3 ADD AND DUP3 ADD DUP1 PUSH1 0x40 MSTORE POP DUP2 ADD SWAP1 PUSH2 0x589 SWAP2 SWAP1 PUSH2 0x8B1 JUMP JUMPDEST SWAP1 POP PUSH1 0x0 DUP2 PUSH1 0x1 PUSH1 0x1 PUSH1 0xA0 SHL SUB AND PUSH4 0x3850C7BD PUSH1 0x40 MLOAD DUP2 PUSH4 0xFFFFFFFF AND PUSH1 0xE0 SHL DUP2 MSTORE PUSH1 0x4 ADD PUSH1 0xE0 PUSH1 0x40 MLOAD DUP1 DUP4 SUB DUP2 DUP7 GAS STATICCALL ISZERO DUP1 ISZERO PUSH2 0x5CB JUMPI RETURNDATASIZE PUSH1 0x0 DUP1 RETURNDATACOPY RETURNDATASIZE PUSH1 0x0 REVERT JUMPDEST POP POP POP POP PUSH1 0x40 MLOAD RETURNDATASIZE PUSH1 0x1F NOT PUSH1 0x1F DUP3 ADD AND DUP3 ADD DUP1 PUSH1 0x40 MSTORE POP DUP2 ADD SWAP1 PUSH2 0x5EF SWAP2 SWAP1 PUSH2 0x926 JUMP JUMPDEST PUSH1 0x0 ADD MLOAD SWAP1 POP PUSH1 0x0 DUP1 SLOAD SWAP1 PUSH2 0x100 EXP SWAP1 DIV PUSH1 0x1 PUSH1 0x1 PUSH1 0xA0 SHL SUB AND PUSH1 0x1 PUSH1 0x1 PUSH1 0xA0 SHL SUB AND DUP3 PUSH1 0x1 PUSH1 0x1 PUSH1 0xA0 SHL SUB AND PUSH4 0xDFE1681 PUSH1 0x40 MLOAD DUP2 PUSH4 0xFFFFFFFF AND PUSH1 0xE0 SHL DUP2 MSTORE PUSH1 0x4 ADD PUSH1 0x20 PUSH1 0x40 MLOAD DUP1 DUP4 SUB DUP2 DUP7 GAS STATICCALL ISZERO DUP1 ISZERO PUSH2 0x491 JUMPI RETURNDATASIZE PUSH1 0x0 DUP1 RETURNDATACOPY RETURNDATASIZE PUSH1 0x0 REVERT JUMPDEST PUSH1 0x0 PUSH8 0xDE0B6B3A7640000 PUSH2 0x663 PUSH2 0x149 JUMP JUMPDEST PUSH2 0x66B PUSH2 0x69F JUMP JUMPDEST PUSH2 0x675 SWAP2 SWAP1 PUSH2 0x9FA JUMP JUMPDEST PUSH2 0x67F SWAP2 SWAP1 PUSH2 0xA17 JUMP JUMPDEST SWAP1 POP SWAP1 JUMP JUMPDEST PUSH1 0x0 PUSH8 0xDE0B6B3A7640000 PUSH2 0x697 PUSH2 0x4E7 JUMP JUMPDEST PUSH2 0x66B PUSH2 0x31E JUMP JUMPDEST PUSH1 0x0 DUP1 SLOAD PUSH1 0x40 MLOAD PUSH4 0xB4C7741 PUSH1 0xE1 SHL DUP2 MSTORE DUP3 SWAP2 PUSH20 0xBFBCF9FA4F9C56B0F40A671AD40E0805A091865 SWAP2 PUSH4 0x1698EE82 SWAP2 PUSH2 0x700 SWAP2 PUSH1 0x1 PUSH1 0x1 PUSH1 0xA0 SHL SUB SWAP1 SWAP2 AND SWAP1 PUSH20 0xBB4CDB9CBD36B01BD1CBAEBF2DE08D9173BC095C SWAP1 PUSH2 0x1F4 SWAP1 PUSH1 0x4 ADD PUSH2 0x871 JUMP JUMPDEST PUSH1 0x20 PUSH1 0x40 MLOAD DUP1 DUP4 SUB DUP2 DUP7 GAS STATICCALL ISZERO DUP1 ISZERO PUSH2 0x71D JUMPI RETURNDATASIZE PUSH1 0x0 DUP1 RETURNDATACOPY RETURNDATASIZE PUSH1 0x0 REVERT JUMPDEST POP POP POP POP PUSH1 0x40 MLOAD RETURNDATASIZE PUSH1 0x1F NOT PUSH1 0x1F DUP3 ADD AND DUP3 ADD DUP1 PUSH1 0x40 MSTORE POP DUP2 ADD SWAP1 PUSH2 0x741 SWAP2 SWAP1 PUSH2 0x8B1 JUMP JUMPDEST SWAP1 POP PUSH1 0x0 DUP2 PUSH1 0x1 PUSH1 0x1 PUSH1 0xA0 SHL SUB AND PUSH4 0x3850C7BD PUSH1 0x40 MLOAD DUP2 PUSH4 0xFFFFFFFF AND PUSH1 0xE0 SHL DUP2 MSTORE PUSH1 0x4 ADD PUSH1 0xE0 PUSH1 0x40 MLOAD DUP1 DUP4 SUB DUP2 DUP7 GAS STATICCALL ISZERO DUP1 ISZERO PUSH2 0x783 JUMPI RETURNDATASIZE PUSH1 0x0 DUP1 RETURNDATACOPY RETURNDATASIZE PUSH1 0x0 REVERT JUMPDEST POP POP POP POP PUSH1 0x40 MLOAD RETURNDATASIZE PUSH1 0x1F NOT PUSH1 0x1F DUP3 ADD AND DUP3 ADD DUP1 PUSH1 0x40 MSTORE POP DUP2 ADD SWAP1 PUSH2 0x7A7 SWAP2 SWAP1 PUSH2 0x926 JUMP JUMPDEST PUSH1 0x0 ADD MLOAD SWAP1 POP PUSH1 0x0 DUP1 SLOAD SWAP1 PUSH2 0x100 EXP SWAP1 DIV PUSH1 0x1 PUSH1 0x1 PUSH1 0xA0 SHL SUB AND PUSH1 0x1 PUSH1 0x1 PUSH1 0xA0 SHL SUB AND DUP3 PUSH1 0x1 PUSH1 0x1 PUSH1 0xA0 SHL SUB AND PUSH4 0xDFE1681 PUSH1 0x40 MLOAD DUP2 PUSH4 0xFFFFFFFF AND PUSH1 0xE0 SHL DUP2 MSTORE PUSH1 0x4 ADD PUSH1 0x20 PUSH1 0x40 MLOAD DUP1 DUP4 SUB DUP2 DUP7 GAS STATICCALL ISZERO DUP1 ISZERO PUSH2 0x2BC JUMPI RETURNDATASIZE PUSH1 0x0 DUP1 RETURNDATACOPY RETURNDATASIZE PUSH1 0x0 REVERT JUMPDEST PUSH1 0x0 DUP1 PUSH8 0xDE0B6B3A7640000 PUSH2 0x81F PUSH1 0x2 DUP6 PUSH2 0xB1D JUMP JUMPDEST PUSH2 0x829 SWAP2 SWAP1 PUSH2 0xA17 JUMP JUMPDEST SWAP1 POP PUSH2 0x839 DUP2 PUSH1 0x1 PUSH1 0xC0 SHL PUSH2 0xA17 JUMP JUMPDEST SWAP4 SWAP3 POP POP POP JUMP JUMPDEST PUSH1 0x0 PUSH1 0x1 PUSH1 0xC0 SHL PUSH2 0x859 PUSH8 0xDE0B6B3A7640000 DUP3 PUSH2 0xA17 JUMP JUMPDEST SWAP1 POP DUP1 PUSH2 0x867 PUSH1 0x2 DUP6 PUSH2 0xB1D JUMP JUMPDEST PUSH2 0x839 SWAP2 SWAP1 PUSH2 0xA17 JUMP JUMPDEST PUSH1 0x1 PUSH1 0x1 PUSH1 0xA0 SHL SUB SWAP4 DUP5 AND DUP2 MSTORE SWAP2 SWAP1 SWAP3 AND PUSH1 0x20 DUP3 ADD MSTORE PUSH3 0xFFFFFF SWAP1 SWAP2 AND PUSH1 0x40 DUP3 ADD MSTORE PUSH1 0x60 ADD SWAP1 JUMP JUMPDEST PUSH1 0x1 PUSH1 0x1 PUSH1 0xA0 SHL SUB DUP2 AND DUP2 EQ PUSH2 0x8AE JUMPI PUSH1 0x0 DUP1 REVERT JUMPDEST POP JUMP JUMPDEST PUSH1 0x0 PUSH1 0x20 DUP3 DUP5 SUB SLT ISZERO PUSH2 0x8C3 JUMPI PUSH1 0x0 DUP1 REVERT JUMPDEST DUP2 MLOAD PUSH2 0x839 DUP2 PUSH2 0x899 JUMP JUMPDEST DUP1 MLOAD PUSH2 0x8D9 DUP2 PUSH2 0x899 JUMP JUMPDEST SWAP2 SWAP1 POP JUMP JUMPDEST DUP1 MLOAD PUSH1 0x2 DUP2 SWAP1 SIGNEXTEND DUP2 EQ PUSH2 0x8D9 JUMPI PUSH1 0x0 DUP1 REVERT JUMPDEST DUP1 MLOAD PUSH2 0xFFFF DUP2 AND DUP2 EQ PUSH2 0x8D9 JUMPI PUSH1 0x0 DUP1 REVERT JUMPDEST DUP1 MLOAD PUSH4 0xFFFFFFFF DUP2 AND DUP2 EQ PUSH2 0x8D9 JUMPI PUSH1 0x0 DUP1 REVERT JUMPDEST DUP1 MLOAD DUP1 ISZERO ISZERO DUP2 EQ PUSH2 0x8D9 JUMPI PUSH1 0x0 DUP1 REVERT JUMPDEST PUSH1 0x0 PUSH1 0xE0 DUP3 DUP5 SUB SLT ISZERO PUSH2 0x938 JUMPI PUSH1 0x0 DUP1 REVERT JUMPDEST PUSH1 0x40 MLOAD PUSH1 0xE0 DUP2 ADD DUP2 DUP2 LT PUSH8 0xFFFFFFFFFFFFFFFF DUP3 GT OR ISZERO PUSH2 0x969 JUMPI PUSH4 0x4E487B71 PUSH1 0xE0 SHL PUSH1 0x0 MSTORE PUSH1 0x41 PUSH1 0x4 MSTORE PUSH1 0x24 PUSH1 0x0 REVERT JUMPDEST PUSH1 0x40 MSTORE PUSH2 0x975 DUP4 PUSH2 0x8CE JUMP JUMPDEST DUP2 MSTORE PUSH2 0x983 PUSH1 0x20 DUP5 ADD PUSH2 0x8DE JUMP JUMPDEST PUSH1 0x20 DUP3 ADD MSTORE PUSH2 0x994 PUSH1 0x40 DUP5 ADD PUSH2 0x8F0 JUMP JUMPDEST PUSH1 0x40 DUP3 ADD MSTORE PUSH2 0x9A5 PUSH1 0x60 DUP5 ADD PUSH2 0x8F0 JUMP JUMPDEST PUSH1 0x60 DUP3 ADD MSTORE PUSH2 0x9B6 PUSH1 0x80 DUP5 ADD PUSH2 0x8F0 JUMP JUMPDEST PUSH1 0x80 DUP3 ADD MSTORE PUSH2 0x9C7 PUSH1 0xA0 DUP5 ADD PUSH2 0x902 JUMP JUMPDEST PUSH1 0xA0 DUP3 ADD MSTORE PUSH2 0x9D8 PUSH1 0xC0 DUP5 ADD PUSH2 0x916 JUMP JUMPDEST PUSH1 0xC0 DUP3 ADD MSTORE SWAP4 SWAP3 POP POP POP JUMP JUMPDEST PUSH4 0x4E487B71 PUSH1 0xE0 SHL PUSH1 0x0 MSTORE PUSH1 0x11 PUSH1 0x4 MSTORE PUSH1 0x24 PUSH1 0x0 REVERT JUMPDEST DUP1 DUP3 MUL DUP2 ISZERO DUP3 DUP3 DIV DUP5 EQ OR PUSH2 0xA11 JUMPI PUSH2 0xA11 PUSH2 0x9E4 JUMP JUMPDEST SWAP3 SWAP2 POP POP JUMP JUMPDEST PUSH1 0x0 DUP3 PUSH2 0xA34 JUMPI PUSH4 0x4E487B71 PUSH1 0xE0 SHL PUSH1 0x0 MSTORE PUSH1 0x12 PUSH1 0x4 MSTORE PUSH1 0x24 PUSH1 0x0 REVERT JUMPDEST POP DIV SWAP1 JUMP JUMPDEST PUSH1 0x1 DUP2 DUP2 JUMPDEST DUP1 DUP6 GT ISZERO PUSH2 0xA74 JUMPI DUP2 PUSH1 0x0 NOT DIV DUP3 GT ISZERO PUSH2 0xA5A JUMPI PUSH2 0xA5A PUSH2 0x9E4 JUMP JUMPDEST DUP1 DUP6 AND ISZERO PUSH2 0xA67 JUMPI SWAP2 DUP2 MUL SWAP2 JUMPDEST SWAP4 DUP5 SHR SWAP4 SWAP1 DUP1 MUL SWAP1 PUSH2 0xA3E JUMP JUMPDEST POP SWAP3 POP SWAP3 SWAP1 POP JUMP JUMPDEST PUSH1 0x0 DUP3 PUSH2 0xA8B JUMPI POP PUSH1 0x1 PUSH2 0xA11 JUMP JUMPDEST DUP2 PUSH2 0xA98 JUMPI POP PUSH1 0x0 PUSH2 0xA11 JUMP JUMPDEST DUP2 PUSH1 0x1 DUP2 EQ PUSH2 0xAAE JUMPI PUSH1 0x2 DUP2 EQ PUSH2 0xAB8 JUMPI PUSH2 0xAD4 JUMP JUMPDEST PUSH1 0x1 SWAP2 POP POP PUSH2 0xA11 JUMP JUMPDEST PUSH1 0xFF DUP5 GT ISZERO PUSH2 0xAC9 JUMPI PUSH2 0xAC9 PUSH2 0x9E4 JUMP JUMPDEST POP POP PUSH1 0x1 DUP3 SHL PUSH2 0xA11 JUMP JUMPDEST POP PUSH1 0x20 DUP4 LT PUSH2 0x133 DUP4 LT AND PUSH1 0x4E DUP5 LT PUSH1 0xB DUP5 LT AND OR ISZERO PUSH2 0xAF7 JUMPI POP DUP2 DUP2 EXP PUSH2 0xA11 JUMP JUMPDEST PUSH2 0xB01 DUP4 DUP4 PUSH2 0xA39 JUMP JUMPDEST DUP1 PUSH1 0x0 NOT DIV DUP3 GT ISZERO PUSH2 0xB15 JUMPI PUSH2 0xB15 PUSH2 0x9E4 JUMP JUMPDEST MUL SWAP4 SWAP3 POP POP POP JUMP JUMPDEST PUSH1 0x0 PUSH2 0x839 PUSH1 0xFF DUP5 AND DUP4 PUSH2 0xA7C JUMP INVALID LOG2 PUSH5 0x6970667358 0x22 SLT KECCAK256 MULMOD DUP9 0xEC DUP2 PUSH16 0xF24EC0C873D1AD89593FE93D3D499C77 0xED 0xC3 DUP10 PUSH25 0x70DAF2911925A964736F6C6343000812003300000000000000 "},"methodIdentifiers":{"BLB()":"bfa54b3f","BLB_BNB()":"6f03bfdb","BLB_BUSD()":"6c54fe9a","BNB_BLB()":"6601fd26","BNB_BUSD()":"22233ac0","BUSD_BLB()":"6ebd467d","BUSD_BNB()":"48f90a90"}}}}}