{"contracts/StakePool/StakeBLB_BLB.sol":{"StakeBLB_BLB":{"abi":[{"inputs":[{"internalType":"contract IERC20","name":"_BLB","type":"address"}],"stateMutability":"nonpayable","type":"constructor"},{"anonymous":false,"inputs":[{"indexed":true,"internalType":"address","name":"previousOwner","type":"address"},{"indexed":true,"internalType":"address","name":"newOwner","type":"address"}],"name":"OwnershipTransferred","type":"event"},{"anonymous":false,"inputs":[{"indexed":false,"internalType":"address","name":"account","type":"address"}],"name":"Paused","type":"event"},{"anonymous":false,"inputs":[{"indexed":false,"internalType":"address","name":"account","type":"address"}],"name":"Unpaused","type":"event"},{"inputs":[],"name":"BLB","outputs":[{"internalType":"contract IERC20","name":"","type":"address"}],"stateMutability":"view","type":"function"},{"inputs":[],"name":"checkPoint1","outputs":[{"internalType":"uint256","name":"passTime","type":"uint256"},{"internalType":"uint256","name":"saveDeposit","type":"uint256"},{"internalType":"uint256","name":"saveProfit","type":"uint256"}],"stateMutability":"view","type":"function"},{"inputs":[],"name":"checkPoint2","outputs":[{"internalType":"uint256","name":"passTime","type":"uint256"},{"internalType":"uint256","name":"saveDeposit","type":"uint256"},{"internalType":"uint256","name":"saveProfit","type":"uint256"}],"stateMutability":"view","type":"function"},{"inputs":[],"name":"checkPoint3","outputs":[{"internalType":"uint256","name":"passTime","type":"uint256"},{"internalType":"uint256","name":"saveDeposit","type":"uint256"},{"internalType":"uint256","name":"saveProfit","type":"uint256"}],"stateMutability":"view","type":"function"},{"inputs":[{"internalType":"address","name":"","type":"address"},{"internalType":"uint256","name":"","type":"uint256"}],"name":"investments","outputs":[{"internalType":"uint256","name":"amount","type":"uint256"},{"internalType":"uint256","name":"start","type":"uint256"},{"internalType":"uint256","name":"end","type":"uint256"},{"internalType":"uint256","name":"profit","type":"uint256"},{"internalType":"uint256","name":"claimTime","type":"uint256"}],"stateMutability":"view","type":"function"},{"inputs":[{"internalType":"address","name":"borrower","type":"address"},{"internalType":"uint256","name":"amount","type":"uint256"}],"name":"loanBLB","outputs":[],"stateMutability":"nonpayable","type":"function"},{"inputs":[{"internalType":"uint256","name":"amount","type":"uint256"},{"internalType":"uint256","name":"duration","type":"uint256"}],"name":"newInvestment","outputs":[],"stateMutability":"nonpayable","type":"function"},{"inputs":[],"name":"owner","outputs":[{"internalType":"address","name":"","type":"address"}],"stateMutability":"view","type":"function"},{"inputs":[],"name":"pause","outputs":[],"stateMutability":"nonpayable","type":"function"},{"inputs":[],"name":"paused","outputs":[{"internalType":"bool","name":"","type":"bool"}],"stateMutability":"view","type":"function"},{"inputs":[{"internalType":"address","name":"investor","type":"address"},{"internalType":"uint256","name":"investmentId","type":"uint256"}],"name":"pendingWithdrawal","outputs":[{"internalType":"uint256","name":"","type":"uint256"}],"stateMutability":"view","type":"function"},{"inputs":[],"name":"plans","outputs":[{"internalType":"uint256[]","name":"durations","type":"uint256[]"},{"internalType":"uint256[]","name":"profits","type":"uint256[]"}],"stateMutability":"view","type":"function"},{"inputs":[{"internalType":"address","name":"investor","type":"address"},{"internalType":"uint256","name":"investmentId","type":"uint256"}],"name":"releaseTime","outputs":[{"internalType":"uint256","name":"","type":"uint256"}],"stateMutability":"view","type":"function"},{"inputs":[],"name":"renounceOwnership","outputs":[],"stateMutability":"nonpayable","type":"function"},{"inputs":[{"internalType":"uint256","name":"","type":"uint256"}],"name":"rewardPlans","outputs":[{"internalType":"uint256","name":"","type":"uint256"}],"stateMutability":"view","type":"function"},{"inputs":[{"internalType":"uint256","name":"passTime1","type":"uint256"},{"internalType":"uint256","name":"saveDeposit1","type":"uint256"},{"internalType":"uint256","name":"saveProfit1","type":"uint256"},{"internalType":"uint256","name":"passTime2","type":"uint256"},{"internalType":"uint256","name":"saveDeposit2","type":"uint256"},{"internalType":"uint256","name":"saveProfit2","type":"uint256"},{"internalType":"uint256","name":"passTime3","type":"uint256"},{"internalType":"uint256","name":"saveDeposit3","type":"uint256"},{"internalType":"uint256","name":"saveProfit3","type":"uint256"}],"name":"setCheckpoints","outputs":[],"stateMutability":"nonpayable","type":"function"},{"inputs":[{"internalType":"uint256","name":"duration","type":"uint256"},{"internalType":"uint256","name":"profit","type":"uint256"}],"name":"setPlan","outputs":[],"stateMutability":"nonpayable","type":"function"},{"inputs":[],"name":"totalDepositBLB","outputs":[{"internalType":"uint256","name":"","type":"uint256"}],"stateMutability":"view","type":"function"},{"inputs":[],"name":"totalPendingBLB","outputs":[{"internalType":"uint256","name":"","type":"uint256"}],"stateMutability":"view","type":"function"},{"inputs":[{"internalType":"address","name":"newOwner","type":"address"}],"name":"transferOwnership","outputs":[],"stateMutability":"nonpayable","type":"function"},{"inputs":[],"name":"unpause","outputs":[],"stateMutability":"nonpayable","type":"function"},{"inputs":[{"internalType":"address","name":"investor","type":"address"}],"name":"userInvestments","outputs":[{"components":[{"internalType":"uint256","name":"amount","type":"uint256"},{"internalType":"uint256","name":"start","type":"uint256"},{"internalType":"uint256","name":"end","type":"uint256"},{"internalType":"uint256","name":"profit","type":"uint256"},{"internalType":"uint256","name":"claimTime","type":"uint256"}],"internalType":"struct StakeBLB_BLB.Investment[]","name":"","type":"tuple[]"}],"stateMutability":"view","type":"function"},{"inputs":[{"internalType":"uint256","name":"investmentId","type":"uint256"}],"name":"withdraw","outputs":[],"stateMutability":"nonpayable","type":"function"}],"evm":{"bytecode":{"linkReferences":{},"object":"60806040523480156200001157600080fd5b506040516200151938038062001519833981016040819052620000349162000299565b6200003f33620000e1565b6000805460ff60a01b19169055600180546001600160a01b0319166001600160a01b0383161790556200007d62015180662386f26fc1000062000131565b6200009462093a8067016345785d8a000062000131565b620000ab62278d006706f05b59d3b2000062000131565b620000c26276a7006718fae27693b4000062000131565b620000da6000605081603260648284826028620001b1565b50620002cb565b600080546001600160a01b038381166001600160a01b0319831681178455604051919092169283917f8be0079c531659141344cd1fd0a4f28419497f9722a3daafe3b4186f6b6457e09190a35050565b6200013b62000238565b6000828152600660209081526040808320849055600590915290205460ff16620001ad576000828152600560205260408120805460ff191660019081179091556004805491820181559091527f8a35acfbc15ff81a39ae7d344fd709f28e8600b4aa8c65c6b64bfe7fe36bd19b018290555b5050565b620001bb62000238565b60408051606080820183528b825260208083018c90529183018a905260089b909b55600999909955600a979097558651808a0188528681528089018690528701849052600b95909555600c93909355600d919091558351958601845280865293850181905293909101819052600e91909155600f91909155601055565b6000546001600160a01b03163314620002975760405162461bcd60e51b815260206004820181905260248201527f4f776e61626c653a2063616c6c6572206973206e6f7420746865206f776e6572604482015260640160405180910390fd5b565b600060208284031215620002ac57600080fd5b81516001600160a01b0381168114620002c457600080fd5b9392505050565b61123e80620002db6000396000f3fe608060405234801561001057600080fd5b506004361061014d5760003560e01c8063715018a6116100c3578063ad33710c1161007c578063ad33710c146102ed578063b023eba5146102ff578063bfa54b3f1461031f578063d5d4d11414610332578063e88cf1b414610344578063f2fde38b1461034d57600080fd5b8063715018a6146102585780638456cb591461026057806388a9931f146102685780638a2ac397146102885780638da5cb5b146102b5578063a2fa0c75146102da57600080fd5b80633e6d9770116101155780633e6d9770146101bc5780633f4ba83a146101f75780634668d866146101ff5780634983c3ab146102125780635c975abb1461022557806364eb1b211461024257600080fd5b80630c736b3514610152578063285833651461016e5780632bf0da7e146101835780632e1a7d4d146101965780633353561d146101a9575b600080fd5b61015b60025481565b6040519081526020015b60405180910390f35b61018161017c366004610f53565b610360565b005b61015b610191366004610f91565b61054a565b6101816101a4366004610fbb565b61077b565b6101816101b7366004610f53565b6108c9565b6101cf6101ca366004610f91565b610946565b604080519586526020860194909452928401919091526060830152608082015260a001610165565b610181610994565b61018161020d366004610fd4565b6109a6565b61015b610220366004610f91565b610a2b565b600054600160a01b900460ff166040519015158152602001610165565b61024a610a6f565b60405161016592919061106e565b610181610bae565b610181610bc0565b61015b610276366004610fbb565b60066020526000908152604090205481565b600b54600c54600d5461029a92919083565b60408051938452602084019290925290820152606001610165565b6000546001600160a01b03165b6040516001600160a01b039091168152602001610165565b6101816102e8366004610f91565b610bd0565b600854600954600a5461029a92919083565b61031261030d36600461109c565b610c54565b60405161016591906110be565b6001546102c2906001600160a01b031681565b600e54600f5460105461029a92919083565b61015b60035481565b61018161035b36600461109c565b610cfb565b610368610d74565b60008181526006602052604081205490036103d45760405162461bcd60e51b815260206004820152602160248201527f7468657265206973206e6f20706c616e2062792074686973206475726174696f6044820152603760f91b60648201526084015b60405180910390fd5b334260006103e28483611142565b60008581526006602052604081205491925090670de0b6b3a7640000906104099088611155565b610413919061116c565b6001546040516323b872dd60e01b81526001600160a01b038781166004830152306024830152604482018a90529293509116906323b872dd906064016020604051808303816000875af115801561046e573d6000803e3d6000fd5b505050506040513d601f19601f82011682018060405250810190610492919061118e565b506001600160a01b0384166000908152600760209081526040808320815160a0810183528a8152808401888152928101878152606082018781526080830187815284546001818101875595895296882093516005909702909301958655935192850192909255905160028085019190915591516003840155516004909201919091558054889290610524908490611142565b92505081905550806003600082825461053d9190611142565b9091555050505050505050565b6001600160a01b0382166000908152600760205260408120805482919084908110610577576105776111b0565b9060005260206000209060050201905080600401546000146105f65760405162461bcd60e51b815260206004820152603260248201527f7374616b65506f6f6c3a207468697320696e766573746d656e7420686173206260448201527165656e20636c61696d6564206265666f726560701b60648201526084016103cb565b6001810154600282015460009182914291908361061383836111c6565b87546003890154919250908386106106305781975080965061075f565b84606484600e600001546106449190611155565b61064e919061116c565b6106589190611142565b861061069c57600f5460649061066e9084611155565b610678919061116c565b60105490985060649061068b9083611155565b610695919061116c565b965061075f565b84606484600b600001546106b09190611155565b6106ba919061116c565b6106c49190611142565b86106106f757600c546064906106da9084611155565b6106e4919061116c565b600d5490985060649061068b9083611155565b8460648460086000015461070b9190611155565b610715919061116c565b61071f9190611142565b861061075f576009546064906107359084611155565b61073f919061116c565b600a549098506064906107529083611155565b61075c919061116c565b96505b6107698789611142565b99505050505050505050505b92915050565b33600081815260076020526040812080548490811061079c5761079c6111b0565b9060005260206000209060050201905060006107b8838561054a565b90506000811161080a5760405162461bcd60e51b815260206004820152601e60248201527f5374616b65506f6f6c3a206e6f7468696e6720746f207769746864726177000060448201526064016103cb565b4260048381019190915560015460405163a9059cbb60e01b81526001600160a01b03868116938201939093526024810184905291169063a9059cbb906044016020604051808303816000875af1158015610868573d6000803e3d6000fd5b505050506040513d601f19601f8201168201806040525081019061088c919061118e565b508154600280546000906108a19084906111c6565b925050819055508160030154600360008282546108be91906111c6565b909155505050505050565b6108d1610dc1565b6000828152600660209081526040808320849055600590915290205460ff16610942576000828152600560205260408120805460ff191660019081179091556004805491820181559091527f8a35acfbc15ff81a39ae7d344fd709f28e8600b4aa8c65c6b64bfe7fe36bd19b018290555b5050565b6007602052816000526040600020818154811061096257600080fd5b600091825260209091206005909102018054600182015460028301546003840154600490940154929550909350919085565b61099c610dc1565b6109a4610e1b565b565b6109ae610dc1565b60408051606080820183528b825260208083018c90529183018a905260089b909b55600999909955600a979097558651808a0188528681528089018690528701849052600b95909555600c93909355600d919091558351958601845280865293850181905293909101819052600e91909155600f91909155601055565b6001600160a01b0382166000908152600760205260408120805483908110610a5557610a556111b0565b906000526020600020906005020160020154905092915050565b60045460609081908067ffffffffffffffff811115610a9057610a906111d9565b604051908082528060200260200182016040528015610ab9578160200160208202803683370190505b5092508067ffffffffffffffff811115610ad557610ad56111d9565b604051908082528060200260200182016040528015610afe578160200160208202803683370190505b50915060005b81811015610ba85760048181548110610b1f57610b1f6111b0565b9060005260206000200154848281518110610b3c57610b3c6111b0565b6020026020010181815250506006600060048381548110610b5f57610b5f6111b0565b9060005260206000200154815260200190815260200160002054838281518110610b8b57610b8b6111b0565b602090810291909101015280610ba0816111ef565b915050610b04565b50509091565b610bb6610dc1565b6109a46000610e70565b610bc8610dc1565b6109a4610ec0565b610bd8610dc1565b60015460405163a9059cbb60e01b81526001600160a01b038481166004830152602482018490529091169063a9059cbb906044016020604051808303816000875af1158015610c2b573d6000803e3d6000fd5b505050506040513d601f19601f82011682018060405250810190610c4f919061118e565b505050565b6001600160a01b0381166000908152600760209081526040808320805482518185028101850190935280835260609492939192909184015b82821015610cf057838290600052602060002090600502016040518060a00160405290816000820154815260200160018201548152602001600282015481526020016003820154815260200160048201548152505081526020019060010190610c8c565b505050509050919050565b610d03610dc1565b6001600160a01b038116610d685760405162461bcd60e51b815260206004820152602660248201527f4f776e61626c653a206e6577206f776e657220697320746865207a65726f206160448201526564647265737360d01b60648201526084016103cb565b610d7181610e70565b50565b600054600160a01b900460ff16156109a45760405162461bcd60e51b815260206004820152601060248201526f14185d5cd8589b194e881c185d5cd95960821b60448201526064016103cb565b6000546001600160a01b031633146109a45760405162461bcd60e51b815260206004820181905260248201527f4f776e61626c653a2063616c6c6572206973206e6f7420746865206f776e657260448201526064016103cb565b610e23610f03565b6000805460ff60a01b191690557f5db9ee0a495bf2e6ff9c91a7834c1ba4fdd244a5e8aa4e537bd38aeae4b073aa335b6040516001600160a01b03909116815260200160405180910390a1565b600080546001600160a01b038381166001600160a01b0319831681178455604051919092169283917f8be0079c531659141344cd1fd0a4f28419497f9722a3daafe3b4186f6b6457e09190a35050565b610ec8610d74565b6000805460ff60a01b1916600160a01b1790557f62e78cea01bee320cd4e420270b5ea74000d11b0c9f74754ebdbfc544b05a258610e533390565b600054600160a01b900460ff166109a45760405162461bcd60e51b815260206004820152601460248201527314185d5cd8589b194e881b9bdd081c185d5cd95960621b60448201526064016103cb565b60008060408385031215610f6657600080fd5b50508035926020909101359150565b80356001600160a01b0381168114610f8c57600080fd5b919050565b60008060408385031215610fa457600080fd5b610fad83610f75565b946020939093013593505050565b600060208284031215610fcd57600080fd5b5035919050565b60008060008060008060008060006101208a8c031215610ff357600080fd5b505087359960208901359950604089013598606081013598506080810135975060a0810135965060c0810135955060e08101359450610100013592509050565b600081518084526020808501945080840160005b8381101561106357815187529582019590820190600101611047565b509495945050505050565b6040815260006110816040830185611033565b82810360208401526110938185611033565b95945050505050565b6000602082840312156110ae57600080fd5b6110b782610f75565b9392505050565b602080825282518282018190526000919060409081850190868401855b8281101561111f5781518051855286810151878601528581015186860152606080820151908601526080908101519085015260a090930192908501906001016110db565b5091979650505050505050565b634e487b7160e01b600052601160045260246000fd5b808201808211156107755761077561112c565b80820281158282048414176107755761077561112c565b60008261118957634e487b7160e01b600052601260045260246000fd5b500490565b6000602082840312156111a057600080fd5b815180151581146110b757600080fd5b634e487b7160e01b600052603260045260246000fd5b818103818111156107755761077561112c565b634e487b7160e01b600052604160045260246000fd5b6000600182016112015761120161112c565b506001019056fea2646970667358221220662188c8edc23cdd3b40d1b6e9e5f9ad0dde8d47dc89a692a2a3768d263a133f64736f6c63430008110033","opcodes":"PUSH1 0x80 PUSH1 0x40 MSTORE CALLVALUE DUP1 ISZERO PUSH3 0x11 JUMPI PUSH1 0x0 DUP1 REVERT JUMPDEST POP PUSH1 0x40 MLOAD PUSH3 0x1519 CODESIZE SUB DUP1 PUSH3 0x1519 DUP4 CODECOPY DUP2 ADD PUSH1 0x40 DUP2 SWAP1 MSTORE PUSH3 0x34 SWAP2 PUSH3 0x299 JUMP JUMPDEST PUSH3 0x3F CALLER PUSH3 0xE1 JUMP JUMPDEST PUSH1 0x0 DUP1 SLOAD PUSH1 0xFF PUSH1 0xA0 SHL NOT AND SWAP1 SSTORE PUSH1 0x1 DUP1 SLOAD PUSH1 0x1 PUSH1 0x1 PUSH1 0xA0 SHL SUB NOT AND PUSH1 0x1 PUSH1 0x1 PUSH1 0xA0 SHL SUB DUP4 AND OR SWAP1 SSTORE PUSH3 0x7D PUSH3 0x15180 PUSH7 0x2386F26FC10000 PUSH3 0x131 JUMP JUMPDEST PUSH3 0x94 PUSH3 0x93A80 PUSH8 0x16345785D8A0000 PUSH3 0x131 JUMP JUMPDEST PUSH3 0xAB PUSH3 0x278D00 PUSH8 0x6F05B59D3B20000 PUSH3 0x131 JUMP JUMPDEST PUSH3 0xC2 PUSH3 0x76A700 PUSH8 0x18FAE27693B40000 PUSH3 0x131 JUMP JUMPDEST PUSH3 0xDA PUSH1 0x0 PUSH1 0x50 DUP2 PUSH1 0x32 PUSH1 0x64 DUP3 DUP5 DUP3 PUSH1 0x28 PUSH3 0x1B1 JUMP JUMPDEST POP PUSH3 0x2CB JUMP JUMPDEST PUSH1 0x0 DUP1 SLOAD PUSH1 0x1 PUSH1 0x1 PUSH1 0xA0 SHL SUB DUP4 DUP2 AND PUSH1 0x1 PUSH1 0x1 PUSH1 0xA0 SHL SUB NOT DUP4 AND DUP2 OR DUP5 SSTORE PUSH1 0x40 MLOAD SWAP2 SWAP1 SWAP3 AND SWAP3 DUP4 SWAP2 PUSH32 0x8BE0079C531659141344CD1FD0A4F28419497F9722A3DAAFE3B4186F6B6457E0 SWAP2 SWAP1 LOG3 POP POP JUMP JUMPDEST PUSH3 0x13B PUSH3 0x238 JUMP JUMPDEST PUSH1 0x0 DUP3 DUP2 MSTORE PUSH1 0x6 PUSH1 0x20 SWAP1 DUP2 MSTORE PUSH1 0x40 DUP1 DUP4 KECCAK256 DUP5 SWAP1 SSTORE PUSH1 0x5 SWAP1 SWAP2 MSTORE SWAP1 KECCAK256 SLOAD PUSH1 0xFF AND PUSH3 0x1AD JUMPI PUSH1 0x0 DUP3 DUP2 MSTORE PUSH1 0x5 PUSH1 0x20 MSTORE PUSH1 0x40 DUP2 KECCAK256 DUP1 SLOAD PUSH1 0xFF NOT AND PUSH1 0x1 SWAP1 DUP2 OR SWAP1 SWAP2 SSTORE PUSH1 0x4 DUP1 SLOAD SWAP2 DUP3 ADD DUP2 SSTORE SWAP1 SWAP2 MSTORE PUSH32 0x8A35ACFBC15FF81A39AE7D344FD709F28E8600B4AA8C65C6B64BFE7FE36BD19B ADD DUP3 SWAP1 SSTORE JUMPDEST POP POP JUMP JUMPDEST PUSH3 0x1BB PUSH3 0x238 JUMP JUMPDEST PUSH1 0x40 DUP1 MLOAD PUSH1 0x60 DUP1 DUP3 ADD DUP4 MSTORE DUP12 DUP3 MSTORE PUSH1 0x20 DUP1 DUP4 ADD DUP13 SWAP1 MSTORE SWAP2 DUP4 ADD DUP11 SWAP1 MSTORE PUSH1 0x8 SWAP12 SWAP1 SWAP12 SSTORE PUSH1 0x9 SWAP10 SWAP1 SWAP10 SSTORE PUSH1 0xA SWAP8 SWAP1 SWAP8 SSTORE DUP7 MLOAD DUP1 DUP11 ADD DUP9 MSTORE DUP7 DUP2 MSTORE DUP1 DUP10 ADD DUP7 SWAP1 MSTORE DUP8 ADD DUP5 SWAP1 MSTORE PUSH1 0xB SWAP6 SWAP1 SWAP6 SSTORE PUSH1 0xC SWAP4 SWAP1 SWAP4 SSTORE PUSH1 0xD SWAP2 SWAP1 SWAP2 SSTORE DUP4 MLOAD SWAP6 DUP7 ADD DUP5 MSTORE DUP1 DUP7 MSTORE SWAP4 DUP6 ADD DUP2 SWAP1 MSTORE SWAP4 SWAP1 SWAP2 ADD DUP2 SWAP1 MSTORE PUSH1 0xE SWAP2 SWAP1 SWAP2 SSTORE PUSH1 0xF SWAP2 SWAP1 SWAP2 SSTORE PUSH1 0x10 SSTORE JUMP JUMPDEST PUSH1 0x0 SLOAD PUSH1 0x1 PUSH1 0x1 PUSH1 0xA0 SHL SUB AND CALLER EQ PUSH3 0x297 JUMPI PUSH1 0x40 MLOAD PUSH3 0x461BCD PUSH1 0xE5 SHL DUP2 MSTORE PUSH1 0x20 PUSH1 0x4 DUP3 ADD DUP2 SWAP1 MSTORE PUSH1 0x24 DUP3 ADD MSTORE PUSH32 0x4F776E61626C653A2063616C6C6572206973206E6F7420746865206F776E6572 PUSH1 0x44 DUP3 ADD MSTORE PUSH1 0x64 ADD PUSH1 0x40 MLOAD DUP1 SWAP2 SUB SWAP1 REVERT JUMPDEST JUMP JUMPDEST PUSH1 0x0 PUSH1 0x20 DUP3 DUP5 SUB SLT ISZERO PUSH3 0x2AC JUMPI PUSH1 0x0 DUP1 REVERT JUMPDEST DUP2 MLOAD PUSH1 0x1 PUSH1 0x1 PUSH1 0xA0 SHL SUB DUP2 AND DUP2 EQ PUSH3 0x2C4 JUMPI PUSH1 0x0 DUP1 REVERT JUMPDEST SWAP4 SWAP3 POP POP POP JUMP JUMPDEST PUSH2 0x123E DUP1 PUSH3 0x2DB PUSH1 0x0 CODECOPY PUSH1 0x0 RETURN INVALID PUSH1 0x80 PUSH1 0x40 MSTORE CALLVALUE DUP1 ISZERO PUSH2 0x10 JUMPI PUSH1 0x0 DUP1 REVERT JUMPDEST POP PUSH1 0x4 CALLDATASIZE LT PUSH2 0x14D JUMPI PUSH1 0x0 CALLDATALOAD PUSH1 0xE0 SHR DUP1 PUSH4 0x715018A6 GT PUSH2 0xC3 JUMPI DUP1 PUSH4 0xAD33710C GT PUSH2 0x7C JUMPI DUP1 PUSH4 0xAD33710C EQ PUSH2 0x2ED JUMPI DUP1 PUSH4 0xB023EBA5 EQ PUSH2 0x2FF JUMPI DUP1 PUSH4 0xBFA54B3F EQ PUSH2 0x31F JUMPI DUP1 PUSH4 0xD5D4D114 EQ PUSH2 0x332 JUMPI DUP1 PUSH4 0xE88CF1B4 EQ PUSH2 0x344 JUMPI DUP1 PUSH4 0xF2FDE38B EQ PUSH2 0x34D JUMPI PUSH1 0x0 DUP1 REVERT JUMPDEST DUP1 PUSH4 0x715018A6 EQ PUSH2 0x258 JUMPI DUP1 PUSH4 0x8456CB59 EQ PUSH2 0x260 JUMPI DUP1 PUSH4 0x88A9931F EQ PUSH2 0x268 JUMPI DUP1 PUSH4 0x8A2AC397 EQ PUSH2 0x288 JUMPI DUP1 PUSH4 0x8DA5CB5B EQ PUSH2 0x2B5 JUMPI DUP1 PUSH4 0xA2FA0C75 EQ PUSH2 0x2DA JUMPI PUSH1 0x0 DUP1 REVERT JUMPDEST DUP1 PUSH4 0x3E6D9770 GT PUSH2 0x115 JUMPI DUP1 PUSH4 0x3E6D9770 EQ PUSH2 0x1BC JUMPI DUP1 PUSH4 0x3F4BA83A EQ PUSH2 0x1F7 JUMPI DUP1 PUSH4 0x4668D866 EQ PUSH2 0x1FF JUMPI DUP1 PUSH4 0x4983C3AB EQ PUSH2 0x212 JUMPI DUP1 PUSH4 0x5C975ABB EQ PUSH2 0x225 JUMPI DUP1 PUSH4 0x64EB1B21 EQ PUSH2 0x242 JUMPI PUSH1 0x0 DUP1 REVERT JUMPDEST DUP1 PUSH4 0xC736B35 EQ PUSH2 0x152 JUMPI DUP1 PUSH4 0x28583365 EQ PUSH2 0x16E JUMPI DUP1 PUSH4 0x2BF0DA7E EQ PUSH2 0x183 JUMPI DUP1 PUSH4 0x2E1A7D4D EQ PUSH2 0x196 JUMPI DUP1 PUSH4 0x3353561D EQ PUSH2 0x1A9 JUMPI JUMPDEST PUSH1 0x0 DUP1 REVERT JUMPDEST PUSH2 0x15B PUSH1 0x2 SLOAD DUP2 JUMP JUMPDEST PUSH1 0x40 MLOAD SWAP1 DUP2 MSTORE PUSH1 0x20 ADD JUMPDEST PUSH1 0x40 MLOAD DUP1 SWAP2 SUB SWAP1 RETURN JUMPDEST PUSH2 0x181 PUSH2 0x17C CALLDATASIZE PUSH1 0x4 PUSH2 0xF53 JUMP JUMPDEST PUSH2 0x360 JUMP JUMPDEST STOP JUMPDEST PUSH2 0x15B PUSH2 0x191 CALLDATASIZE PUSH1 0x4 PUSH2 0xF91 JUMP JUMPDEST PUSH2 0x54A JUMP JUMPDEST PUSH2 0x181 PUSH2 0x1A4 CALLDATASIZE PUSH1 0x4 PUSH2 0xFBB JUMP JUMPDEST PUSH2 0x77B JUMP JUMPDEST PUSH2 0x181 PUSH2 0x1B7 CALLDATASIZE PUSH1 0x4 PUSH2 0xF53 JUMP JUMPDEST PUSH2 0x8C9 JUMP JUMPDEST PUSH2 0x1CF PUSH2 0x1CA CALLDATASIZE PUSH1 0x4 PUSH2 0xF91 JUMP JUMPDEST PUSH2 0x946 JUMP JUMPDEST PUSH1 0x40 DUP1 MLOAD SWAP6 DUP7 MSTORE PUSH1 0x20 DUP7 ADD SWAP5 SWAP1 SWAP5 MSTORE SWAP3 DUP5 ADD SWAP2 SWAP1 SWAP2 MSTORE PUSH1 0x60 DUP4 ADD MSTORE PUSH1 0x80 DUP3 ADD MSTORE PUSH1 0xA0 ADD PUSH2 0x165 JUMP JUMPDEST PUSH2 0x181 PUSH2 0x994 JUMP JUMPDEST PUSH2 0x181 PUSH2 0x20D CALLDATASIZE PUSH1 0x4 PUSH2 0xFD4 JUMP JUMPDEST PUSH2 0x9A6 JUMP JUMPDEST PUSH2 0x15B PUSH2 0x220 CALLDATASIZE PUSH1 0x4 PUSH2 0xF91 JUMP JUMPDEST PUSH2 0xA2B JUMP JUMPDEST PUSH1 0x0 SLOAD PUSH1 0x1 PUSH1 0xA0 SHL SWAP1 DIV PUSH1 0xFF AND PUSH1 0x40 MLOAD SWAP1 ISZERO ISZERO DUP2 MSTORE PUSH1 0x20 ADD PUSH2 0x165 JUMP JUMPDEST PUSH2 0x24A PUSH2 0xA6F JUMP JUMPDEST PUSH1 0x40 MLOAD PUSH2 0x165 SWAP3 SWAP2 SWAP1 PUSH2 0x106E JUMP JUMPDEST PUSH2 0x181 PUSH2 0xBAE JUMP JUMPDEST PUSH2 0x181 PUSH2 0xBC0 JUMP JUMPDEST PUSH2 0x15B PUSH2 0x276 CALLDATASIZE PUSH1 0x4 PUSH2 0xFBB JUMP JUMPDEST PUSH1 0x6 PUSH1 0x20 MSTORE PUSH1 0x0 SWAP1 DUP2 MSTORE PUSH1 0x40 SWAP1 KECCAK256 SLOAD DUP2 JUMP JUMPDEST PUSH1 0xB SLOAD PUSH1 0xC SLOAD PUSH1 0xD SLOAD PUSH2 0x29A SWAP3 SWAP2 SWAP1 DUP4 JUMP JUMPDEST PUSH1 0x40 DUP1 MLOAD SWAP4 DUP5 MSTORE PUSH1 0x20 DUP5 ADD SWAP3 SWAP1 SWAP3 MSTORE SWAP1 DUP3 ADD MSTORE PUSH1 0x60 ADD PUSH2 0x165 JUMP JUMPDEST PUSH1 0x0 SLOAD PUSH1 0x1 PUSH1 0x1 PUSH1 0xA0 SHL SUB AND JUMPDEST PUSH1 0x40 MLOAD PUSH1 0x1 PUSH1 0x1 PUSH1 0xA0 SHL SUB SWAP1 SWAP2 AND DUP2 MSTORE PUSH1 0x20 ADD PUSH2 0x165 JUMP JUMPDEST PUSH2 0x181 PUSH2 0x2E8 CALLDATASIZE PUSH1 0x4 PUSH2 0xF91 JUMP JUMPDEST PUSH2 0xBD0 JUMP JUMPDEST PUSH1 0x8 SLOAD PUSH1 0x9 SLOAD PUSH1 0xA SLOAD PUSH2 0x29A SWAP3 SWAP2 SWAP1 DUP4 JUMP JUMPDEST PUSH2 0x312 PUSH2 0x30D CALLDATASIZE PUSH1 0x4 PUSH2 0x109C JUMP JUMPDEST PUSH2 0xC54 JUMP JUMPDEST PUSH1 0x40 MLOAD PUSH2 0x165 SWAP2 SWAP1 PUSH2 0x10BE JUMP JUMPDEST PUSH1 0x1 SLOAD PUSH2 0x2C2 SWAP1 PUSH1 0x1 PUSH1 0x1 PUSH1 0xA0 SHL SUB AND DUP2 JUMP JUMPDEST PUSH1 0xE SLOAD PUSH1 0xF SLOAD PUSH1 0x10 SLOAD PUSH2 0x29A SWAP3 SWAP2 SWAP1 DUP4 JUMP JUMPDEST PUSH2 0x15B PUSH1 0x3 SLOAD DUP2 JUMP JUMPDEST PUSH2 0x181 PUSH2 0x35B CALLDATASIZE PUSH1 0x4 PUSH2 0x109C JUMP JUMPDEST PUSH2 0xCFB JUMP JUMPDEST PUSH2 0x368 PUSH2 0xD74 JUMP JUMPDEST PUSH1 0x0 DUP2 DUP2 MSTORE PUSH1 0x6 PUSH1 0x20 MSTORE PUSH1 0x40 DUP2 KECCAK256 SLOAD SWAP1 SUB PUSH2 0x3D4 JUMPI PUSH1 0x40 MLOAD PUSH3 0x461BCD PUSH1 0xE5 SHL DUP2 MSTORE PUSH1 0x20 PUSH1 0x4 DUP3 ADD MSTORE PUSH1 0x21 PUSH1 0x24 DUP3 ADD MSTORE PUSH32 0x7468657265206973206E6F20706C616E2062792074686973206475726174696F PUSH1 0x44 DUP3 ADD MSTORE PUSH1 0x37 PUSH1 0xF9 SHL PUSH1 0x64 DUP3 ADD MSTORE PUSH1 0x84 ADD JUMPDEST PUSH1 0x40 MLOAD DUP1 SWAP2 SUB SWAP1 REVERT JUMPDEST CALLER TIMESTAMP PUSH1 0x0 PUSH2 0x3E2 DUP5 DUP4 PUSH2 0x1142 JUMP JUMPDEST PUSH1 0x0 DUP6 DUP2 MSTORE PUSH1 0x6 PUSH1 0x20 MSTORE PUSH1 0x40 DUP2 KECCAK256 SLOAD SWAP2 SWAP3 POP SWAP1 PUSH8 0xDE0B6B3A7640000 SWAP1 PUSH2 0x409 SWAP1 DUP9 PUSH2 0x1155 JUMP JUMPDEST PUSH2 0x413 SWAP2 SWAP1 PUSH2 0x116C JUMP JUMPDEST PUSH1 0x1 SLOAD PUSH1 0x40 MLOAD PUSH4 0x23B872DD PUSH1 0xE0 SHL DUP2 MSTORE PUSH1 0x1 PUSH1 0x1 PUSH1 0xA0 SHL SUB DUP8 DUP2 AND PUSH1 0x4 DUP4 ADD MSTORE ADDRESS PUSH1 0x24 DUP4 ADD MSTORE PUSH1 0x44 DUP3 ADD DUP11 SWAP1 MSTORE SWAP3 SWAP4 POP SWAP2 AND SWAP1 PUSH4 0x23B872DD SWAP1 PUSH1 0x64 ADD PUSH1 0x20 PUSH1 0x40 MLOAD DUP1 DUP4 SUB DUP2 PUSH1 0x0 DUP8 GAS CALL ISZERO DUP1 ISZERO PUSH2 0x46E JUMPI RETURNDATASIZE PUSH1 0x0 DUP1 RETURNDATACOPY RETURNDATASIZE PUSH1 0x0 REVERT JUMPDEST POP POP POP POP PUSH1 0x40 MLOAD RETURNDATASIZE PUSH1 0x1F NOT PUSH1 0x1F DUP3 ADD AND DUP3 ADD DUP1 PUSH1 0x40 MSTORE POP DUP2 ADD SWAP1 PUSH2 0x492 SWAP2 SWAP1 PUSH2 0x118E JUMP JUMPDEST POP PUSH1 0x1 PUSH1 0x1 PUSH1 0xA0 SHL SUB DUP5 AND PUSH1 0x0 SWAP1 DUP2 MSTORE PUSH1 0x7 PUSH1 0x20 SWAP1 DUP2 MSTORE PUSH1 0x40 DUP1 DUP4 KECCAK256 DUP2 MLOAD PUSH1 0xA0 DUP2 ADD DUP4 MSTORE DUP11 DUP2 MSTORE DUP1 DUP5 ADD DUP9 DUP2 MSTORE SWAP3 DUP2 ADD DUP8 DUP2 MSTORE PUSH1 0x60 DUP3 ADD DUP8 DUP2 MSTORE PUSH1 0x80 DUP4 ADD DUP8 DUP2 MSTORE DUP5 SLOAD PUSH1 0x1 DUP2 DUP2 ADD DUP8 SSTORE SWAP6 DUP10 MSTORE SWAP7 DUP9 KECCAK256 SWAP4 MLOAD PUSH1 0x5 SWAP1 SWAP8 MUL SWAP1 SWAP4 ADD SWAP6 DUP7 SSTORE SWAP4 MLOAD SWAP3 DUP6 ADD SWAP3 SWAP1 SWAP3 SSTORE SWAP1 MLOAD PUSH1 0x2 DUP1 DUP6 ADD SWAP2 SWAP1 SWAP2 SSTORE SWAP2 MLOAD PUSH1 0x3 DUP5 ADD SSTORE MLOAD PUSH1 0x4 SWAP1 SWAP3 ADD SWAP2 SWAP1 SWAP2 SSTORE DUP1 SLOAD DUP9 SWAP3 SWAP1 PUSH2 0x524 SWAP1 DUP5 SWAP1 PUSH2 0x1142 JUMP JUMPDEST SWAP3 POP POP DUP2 SWAP1 SSTORE POP DUP1 PUSH1 0x3 PUSH1 0x0 DUP3 DUP3 SLOAD PUSH2 0x53D SWAP2 SWAP1 PUSH2 0x1142 JUMP JUMPDEST SWAP1 SWAP2 SSTORE POP POP POP POP POP POP POP POP JUMP JUMPDEST PUSH1 0x1 PUSH1 0x1 PUSH1 0xA0 SHL SUB DUP3 AND PUSH1 0x0 SWAP1 DUP2 MSTORE PUSH1 0x7 PUSH1 0x20 MSTORE PUSH1 0x40 DUP2 KECCAK256 DUP1 SLOAD DUP3 SWAP2 SWAP1 DUP5 SWAP1 DUP2 LT PUSH2 0x577 JUMPI PUSH2 0x577 PUSH2 0x11B0 JUMP JUMPDEST SWAP1 PUSH1 0x0 MSTORE PUSH1 0x20 PUSH1 0x0 KECCAK256 SWAP1 PUSH1 0x5 MUL ADD SWAP1 POP DUP1 PUSH1 0x4 ADD SLOAD PUSH1 0x0 EQ PUSH2 0x5F6 JUMPI PUSH1 0x40 MLOAD PUSH3 0x461BCD PUSH1 0xE5 SHL DUP2 MSTORE PUSH1 0x20 PUSH1 0x4 DUP3 ADD MSTORE PUSH1 0x32 PUSH1 0x24 DUP3 ADD MSTORE PUSH32 0x7374616B65506F6F6C3A207468697320696E766573746D656E74206861732062 PUSH1 0x44 DUP3 ADD MSTORE PUSH18 0x65656E20636C61696D6564206265666F7265 PUSH1 0x70 SHL PUSH1 0x64 DUP3 ADD MSTORE PUSH1 0x84 ADD PUSH2 0x3CB JUMP JUMPDEST PUSH1 0x1 DUP2 ADD SLOAD PUSH1 0x2 DUP3 ADD SLOAD PUSH1 0x0 SWAP2 DUP3 SWAP2 TIMESTAMP SWAP2 SWAP1 DUP4 PUSH2 0x613 DUP4 DUP4 PUSH2 0x11C6 JUMP JUMPDEST DUP8 SLOAD PUSH1 0x3 DUP10 ADD SLOAD SWAP2 SWAP3 POP SWAP1 DUP4 DUP7 LT PUSH2 0x630 JUMPI DUP2 SWAP8 POP DUP1 SWAP7 POP PUSH2 0x75F JUMP JUMPDEST DUP5 PUSH1 0x64 DUP5 PUSH1 0xE PUSH1 0x0 ADD SLOAD PUSH2 0x644 SWAP2 SWAP1 PUSH2 0x1155 JUMP JUMPDEST PUSH2 0x64E SWAP2 SWAP1 PUSH2 0x116C JUMP JUMPDEST PUSH2 0x658 SWAP2 SWAP1 PUSH2 0x1142 JUMP JUMPDEST DUP7 LT PUSH2 0x69C JUMPI PUSH1 0xF SLOAD PUSH1 0x64 SWAP1 PUSH2 0x66E SWAP1 DUP5 PUSH2 0x1155 JUMP JUMPDEST PUSH2 0x678 SWAP2 SWAP1 PUSH2 0x116C JUMP JUMPDEST PUSH1 0x10 SLOAD SWAP1 SWAP9 POP PUSH1 0x64 SWAP1 PUSH2 0x68B SWAP1 DUP4 PUSH2 0x1155 JUMP JUMPDEST PUSH2 0x695 SWAP2 SWAP1 PUSH2 0x116C JUMP JUMPDEST SWAP7 POP PUSH2 0x75F JUMP JUMPDEST DUP5 PUSH1 0x64 DUP5 PUSH1 0xB PUSH1 0x0 ADD SLOAD PUSH2 0x6B0 SWAP2 SWAP1 PUSH2 0x1155 JUMP JUMPDEST PUSH2 0x6BA SWAP2 SWAP1 PUSH2 0x116C JUMP JUMPDEST PUSH2 0x6C4 SWAP2 SWAP1 PUSH2 0x1142 JUMP JUMPDEST DUP7 LT PUSH2 0x6F7 JUMPI PUSH1 0xC SLOAD PUSH1 0x64 SWAP1 PUSH2 0x6DA SWAP1 DUP5 PUSH2 0x1155 JUMP JUMPDEST PUSH2 0x6E4 SWAP2 SWAP1 PUSH2 0x116C JUMP JUMPDEST PUSH1 0xD SLOAD SWAP1 SWAP9 POP PUSH1 0x64 SWAP1 PUSH2 0x68B SWAP1 DUP4 PUSH2 0x1155 JUMP JUMPDEST DUP5 PUSH1 0x64 DUP5 PUSH1 0x8 PUSH1 0x0 ADD SLOAD PUSH2 0x70B SWAP2 SWAP1 PUSH2 0x1155 JUMP JUMPDEST PUSH2 0x715 SWAP2 SWAP1 PUSH2 0x116C JUMP JUMPDEST PUSH2 0x71F SWAP2 SWAP1 PUSH2 0x1142 JUMP JUMPDEST DUP7 LT PUSH2 0x75F JUMPI PUSH1 0x9 SLOAD PUSH1 0x64 SWAP1 PUSH2 0x735 SWAP1 DUP5 PUSH2 0x1155 JUMP JUMPDEST PUSH2 0x73F SWAP2 SWAP1 PUSH2 0x116C JUMP JUMPDEST PUSH1 0xA SLOAD SWAP1 SWAP9 POP PUSH1 0x64 SWAP1 PUSH2 0x752 SWAP1 DUP4 PUSH2 0x1155 JUMP JUMPDEST PUSH2 0x75C SWAP2 SWAP1 PUSH2 0x116C JUMP JUMPDEST SWAP7 POP JUMPDEST PUSH2 0x769 DUP8 DUP10 PUSH2 0x1142 JUMP JUMPDEST SWAP10 POP POP POP POP POP POP POP POP POP POP JUMPDEST SWAP3 SWAP2 POP POP JUMP JUMPDEST CALLER PUSH1 0x0 DUP2 DUP2 MSTORE PUSH1 0x7 PUSH1 0x20 MSTORE PUSH1 0x40 DUP2 KECCAK256 DUP1 SLOAD DUP5 SWAP1 DUP2 LT PUSH2 0x79C JUMPI PUSH2 0x79C PUSH2 0x11B0 JUMP JUMPDEST SWAP1 PUSH1 0x0 MSTORE PUSH1 0x20 PUSH1 0x0 KECCAK256 SWAP1 PUSH1 0x5 MUL ADD SWAP1 POP PUSH1 0x0 PUSH2 0x7B8 DUP4 DUP6 PUSH2 0x54A JUMP JUMPDEST SWAP1 POP PUSH1 0x0 DUP2 GT PUSH2 0x80A JUMPI PUSH1 0x40 MLOAD PUSH3 0x461BCD PUSH1 0xE5 SHL DUP2 MSTORE PUSH1 0x20 PUSH1 0x4 DUP3 ADD MSTORE PUSH1 0x1E PUSH1 0x24 DUP3 ADD MSTORE PUSH32 0x5374616B65506F6F6C3A206E6F7468696E6720746F2077697468647261770000 PUSH1 0x44 DUP3 ADD MSTORE PUSH1 0x64 ADD PUSH2 0x3CB JUMP JUMPDEST TIMESTAMP PUSH1 0x4 DUP4 DUP2 ADD SWAP2 SWAP1 SWAP2 SSTORE PUSH1 0x1 SLOAD PUSH1 0x40 MLOAD PUSH4 0xA9059CBB PUSH1 0xE0 SHL DUP2 MSTORE PUSH1 0x1 PUSH1 0x1 PUSH1 0xA0 SHL SUB DUP7 DUP2 AND SWAP4 DUP3 ADD SWAP4 SWAP1 SWAP4 MSTORE PUSH1 0x24 DUP2 ADD DUP5 SWAP1 MSTORE SWAP2 AND SWAP1 PUSH4 0xA9059CBB SWAP1 PUSH1 0x44 ADD PUSH1 0x20 PUSH1 0x40 MLOAD DUP1 DUP4 SUB DUP2 PUSH1 0x0 DUP8 GAS CALL ISZERO DUP1 ISZERO PUSH2 0x868 JUMPI RETURNDATASIZE PUSH1 0x0 DUP1 RETURNDATACOPY RETURNDATASIZE PUSH1 0x0 REVERT JUMPDEST POP POP POP POP PUSH1 0x40 MLOAD RETURNDATASIZE PUSH1 0x1F NOT PUSH1 0x1F DUP3 ADD AND DUP3 ADD DUP1 PUSH1 0x40 MSTORE POP DUP2 ADD SWAP1 PUSH2 0x88C SWAP2 SWAP1 PUSH2 0x118E JUMP JUMPDEST POP DUP2 SLOAD PUSH1 0x2 DUP1 SLOAD PUSH1 0x0 SWAP1 PUSH2 0x8A1 SWAP1 DUP5 SWAP1 PUSH2 0x11C6 JUMP JUMPDEST SWAP3 POP POP DUP2 SWAP1 SSTORE POP DUP2 PUSH1 0x3 ADD SLOAD PUSH1 0x3 PUSH1 0x0 DUP3 DUP3 SLOAD PUSH2 0x8BE SWAP2 SWAP1 PUSH2 0x11C6 JUMP JUMPDEST SWAP1 SWAP2 SSTORE POP POP POP POP POP POP JUMP JUMPDEST PUSH2 0x8D1 PUSH2 0xDC1 JUMP JUMPDEST PUSH1 0x0 DUP3 DUP2 MSTORE PUSH1 0x6 PUSH1 0x20 SWAP1 DUP2 MSTORE PUSH1 0x40 DUP1 DUP4 KECCAK256 DUP5 SWAP1 SSTORE PUSH1 0x5 SWAP1 SWAP2 MSTORE SWAP1 KECCAK256 SLOAD PUSH1 0xFF AND PUSH2 0x942 JUMPI PUSH1 0x0 DUP3 DUP2 MSTORE PUSH1 0x5 PUSH1 0x20 MSTORE PUSH1 0x40 DUP2 KECCAK256 DUP1 SLOAD PUSH1 0xFF NOT AND PUSH1 0x1 SWAP1 DUP2 OR SWAP1 SWAP2 SSTORE PUSH1 0x4 DUP1 SLOAD SWAP2 DUP3 ADD DUP2 SSTORE SWAP1 SWAP2 MSTORE PUSH32 0x8A35ACFBC15FF81A39AE7D344FD709F28E8600B4AA8C65C6B64BFE7FE36BD19B ADD DUP3 SWAP1 SSTORE JUMPDEST POP POP JUMP JUMPDEST PUSH1 0x7 PUSH1 0x20 MSTORE DUP2 PUSH1 0x0 MSTORE PUSH1 0x40 PUSH1 0x0 KECCAK256 DUP2 DUP2 SLOAD DUP2 LT PUSH2 0x962 JUMPI PUSH1 0x0 DUP1 REVERT JUMPDEST PUSH1 0x0 SWAP2 DUP3 MSTORE PUSH1 0x20 SWAP1 SWAP2 KECCAK256 PUSH1 0x5 SWAP1 SWAP2 MUL ADD DUP1 SLOAD PUSH1 0x1 DUP3 ADD SLOAD PUSH1 0x2 DUP4 ADD SLOAD PUSH1 0x3 DUP5 ADD SLOAD PUSH1 0x4 SWAP1 SWAP5 ADD SLOAD SWAP3 SWAP6 POP SWAP1 SWAP4 POP SWAP2 SWAP1 DUP6 JUMP JUMPDEST PUSH2 0x99C PUSH2 0xDC1 JUMP JUMPDEST PUSH2 0x9A4 PUSH2 0xE1B JUMP JUMPDEST JUMP JUMPDEST PUSH2 0x9AE PUSH2 0xDC1 JUMP JUMPDEST PUSH1 0x40 DUP1 MLOAD PUSH1 0x60 DUP1 DUP3 ADD DUP4 MSTORE DUP12 DUP3 MSTORE PUSH1 0x20 DUP1 DUP4 ADD DUP13 SWAP1 MSTORE SWAP2 DUP4 ADD DUP11 SWAP1 MSTORE PUSH1 0x8 SWAP12 SWAP1 SWAP12 SSTORE PUSH1 0x9 SWAP10 SWAP1 SWAP10 SSTORE PUSH1 0xA SWAP8 SWAP1 SWAP8 SSTORE DUP7 MLOAD DUP1 DUP11 ADD DUP9 MSTORE DUP7 DUP2 MSTORE DUP1 DUP10 ADD DUP7 SWAP1 MSTORE DUP8 ADD DUP5 SWAP1 MSTORE PUSH1 0xB SWAP6 SWAP1 SWAP6 SSTORE PUSH1 0xC SWAP4 SWAP1 SWAP4 SSTORE PUSH1 0xD SWAP2 SWAP1 SWAP2 SSTORE DUP4 MLOAD SWAP6 DUP7 ADD DUP5 MSTORE DUP1 DUP7 MSTORE SWAP4 DUP6 ADD DUP2 SWAP1 MSTORE SWAP4 SWAP1 SWAP2 ADD DUP2 SWAP1 MSTORE PUSH1 0xE SWAP2 SWAP1 SWAP2 SSTORE PUSH1 0xF SWAP2 SWAP1 SWAP2 SSTORE PUSH1 0x10 SSTORE JUMP JUMPDEST PUSH1 0x1 PUSH1 0x1 PUSH1 0xA0 SHL SUB DUP3 AND PUSH1 0x0 SWAP1 DUP2 MSTORE PUSH1 0x7 PUSH1 0x20 MSTORE PUSH1 0x40 DUP2 KECCAK256 DUP1 SLOAD DUP4 SWAP1 DUP2 LT PUSH2 0xA55 JUMPI PUSH2 0xA55 PUSH2 0x11B0 JUMP JUMPDEST SWAP1 PUSH1 0x0 MSTORE PUSH1 0x20 PUSH1 0x0 KECCAK256 SWAP1 PUSH1 0x5 MUL ADD PUSH1 0x2 ADD SLOAD SWAP1 POP SWAP3 SWAP2 POP POP JUMP JUMPDEST PUSH1 0x4 SLOAD PUSH1 0x60 SWAP1 DUP2 SWAP1 DUP1 PUSH8 0xFFFFFFFFFFFFFFFF DUP2 GT ISZERO PUSH2 0xA90 JUMPI PUSH2 0xA90 PUSH2 0x11D9 JUMP JUMPDEST PUSH1 0x40 MLOAD SWAP1 DUP1 DUP3 MSTORE DUP1 PUSH1 0x20 MUL PUSH1 0x20 ADD DUP3 ADD PUSH1 0x40 MSTORE DUP1 ISZERO PUSH2 0xAB9 JUMPI DUP2 PUSH1 0x20 ADD PUSH1 0x20 DUP3 MUL DUP1 CALLDATASIZE DUP4 CALLDATACOPY ADD SWAP1 POP JUMPDEST POP SWAP3 POP DUP1 PUSH8 0xFFFFFFFFFFFFFFFF DUP2 GT ISZERO PUSH2 0xAD5 JUMPI PUSH2 0xAD5 PUSH2 0x11D9 JUMP JUMPDEST PUSH1 0x40 MLOAD SWAP1 DUP1 DUP3 MSTORE DUP1 PUSH1 0x20 MUL PUSH1 0x20 ADD DUP3 ADD PUSH1 0x40 MSTORE DUP1 ISZERO PUSH2 0xAFE JUMPI DUP2 PUSH1 0x20 ADD PUSH1 0x20 DUP3 MUL DUP1 CALLDATASIZE DUP4 CALLDATACOPY ADD SWAP1 POP JUMPDEST POP SWAP2 POP PUSH1 0x0 JUMPDEST DUP2 DUP2 LT ISZERO PUSH2 0xBA8 JUMPI PUSH1 0x4 DUP2 DUP2 SLOAD DUP2 LT PUSH2 0xB1F JUMPI PUSH2 0xB1F PUSH2 0x11B0 JUMP JUMPDEST SWAP1 PUSH1 0x0 MSTORE PUSH1 0x20 PUSH1 0x0 KECCAK256 ADD SLOAD DUP5 DUP3 DUP2 MLOAD DUP2 LT PUSH2 0xB3C JUMPI PUSH2 0xB3C PUSH2 0x11B0 JUMP JUMPDEST PUSH1 0x20 MUL PUSH1 0x20 ADD ADD DUP2 DUP2 MSTORE POP POP PUSH1 0x6 PUSH1 0x0 PUSH1 0x4 DUP4 DUP2 SLOAD DUP2 LT PUSH2 0xB5F JUMPI PUSH2 0xB5F PUSH2 0x11B0 JUMP JUMPDEST SWAP1 PUSH1 0x0 MSTORE PUSH1 0x20 PUSH1 0x0 KECCAK256 ADD SLOAD DUP2 MSTORE PUSH1 0x20 ADD SWAP1 DUP2 MSTORE PUSH1 0x20 ADD PUSH1 0x0 KECCAK256 SLOAD DUP4 DUP3 DUP2 MLOAD DUP2 LT PUSH2 0xB8B JUMPI PUSH2 0xB8B PUSH2 0x11B0 JUMP JUMPDEST PUSH1 0x20 SWAP1 DUP2 MUL SWAP2 SWAP1 SWAP2 ADD ADD MSTORE DUP1 PUSH2 0xBA0 DUP2 PUSH2 0x11EF JUMP JUMPDEST SWAP2 POP POP PUSH2 0xB04 JUMP JUMPDEST POP POP SWAP1 SWAP2 JUMP JUMPDEST PUSH2 0xBB6 PUSH2 0xDC1 JUMP JUMPDEST PUSH2 0x9A4 PUSH1 0x0 PUSH2 0xE70 JUMP JUMPDEST PUSH2 0xBC8 PUSH2 0xDC1 JUMP JUMPDEST PUSH2 0x9A4 PUSH2 0xEC0 JUMP JUMPDEST PUSH2 0xBD8 PUSH2 0xDC1 JUMP JUMPDEST PUSH1 0x1 SLOAD PUSH1 0x40 MLOAD PUSH4 0xA9059CBB PUSH1 0xE0 SHL DUP2 MSTORE PUSH1 0x1 PUSH1 0x1 PUSH1 0xA0 SHL SUB DUP5 DUP2 AND PUSH1 0x4 DUP4 ADD MSTORE PUSH1 0x24 DUP3 ADD DUP5 SWAP1 MSTORE SWAP1 SWAP2 AND SWAP1 PUSH4 0xA9059CBB SWAP1 PUSH1 0x44 ADD PUSH1 0x20 PUSH1 0x40 MLOAD DUP1 DUP4 SUB DUP2 PUSH1 0x0 DUP8 GAS CALL ISZERO DUP1 ISZERO PUSH2 0xC2B JUMPI RETURNDATASIZE PUSH1 0x0 DUP1 RETURNDATACOPY RETURNDATASIZE PUSH1 0x0 REVERT JUMPDEST POP POP POP POP PUSH1 0x40 MLOAD RETURNDATASIZE PUSH1 0x1F NOT PUSH1 0x1F DUP3 ADD AND DUP3 ADD DUP1 PUSH1 0x40 MSTORE POP DUP2 ADD SWAP1 PUSH2 0xC4F SWAP2 SWAP1 PUSH2 0x118E JUMP JUMPDEST POP POP POP JUMP JUMPDEST PUSH1 0x1 PUSH1 0x1 PUSH1 0xA0 SHL SUB DUP2 AND PUSH1 0x0 SWAP1 DUP2 MSTORE PUSH1 0x7 PUSH1 0x20 SWAP1 DUP2 MSTORE PUSH1 0x40 DUP1 DUP4 KECCAK256 DUP1 SLOAD DUP3 MLOAD DUP2 DUP6 MUL DUP2 ADD DUP6 ADD SWAP1 SWAP4 MSTORE DUP1 DUP4 MSTORE PUSH1 0x60 SWAP5 SWAP3 SWAP4 SWAP2 SWAP3 SWAP1 SWAP2 DUP5 ADD JUMPDEST DUP3 DUP3 LT ISZERO PUSH2 0xCF0 JUMPI DUP4 DUP3 SWAP1 PUSH1 0x0 MSTORE PUSH1 0x20 PUSH1 0x0 KECCAK256 SWAP1 PUSH1 0x5 MUL ADD PUSH1 0x40 MLOAD DUP1 PUSH1 0xA0 ADD PUSH1 0x40 MSTORE SWAP1 DUP2 PUSH1 0x0 DUP3 ADD SLOAD DUP2 MSTORE PUSH1 0x20 ADD PUSH1 0x1 DUP3 ADD SLOAD DUP2 MSTORE PUSH1 0x20 ADD PUSH1 0x2 DUP3 ADD SLOAD DUP2 MSTORE PUSH1 0x20 ADD PUSH1 0x3 DUP3 ADD SLOAD DUP2 MSTORE PUSH1 0x20 ADD PUSH1 0x4 DUP3 ADD SLOAD DUP2 MSTORE POP POP DUP2 MSTORE PUSH1 0x20 ADD SWAP1 PUSH1 0x1 ADD SWAP1 PUSH2 0xC8C JUMP JUMPDEST POP POP POP POP SWAP1 POP SWAP2 SWAP1 POP JUMP JUMPDEST PUSH2 0xD03 PUSH2 0xDC1 JUMP JUMPDEST PUSH1 0x1 PUSH1 0x1 PUSH1 0xA0 SHL SUB DUP2 AND PUSH2 0xD68 JUMPI PUSH1 0x40 MLOAD PUSH3 0x461BCD PUSH1 0xE5 SHL DUP2 MSTORE PUSH1 0x20 PUSH1 0x4 DUP3 ADD MSTORE PUSH1 0x26 PUSH1 0x24 DUP3 ADD MSTORE PUSH32 0x4F776E61626C653A206E6577206F776E657220697320746865207A65726F2061 PUSH1 0x44 DUP3 ADD MSTORE PUSH6 0x646472657373 PUSH1 0xD0 SHL PUSH1 0x64 DUP3 ADD MSTORE PUSH1 0x84 ADD PUSH2 0x3CB JUMP JUMPDEST PUSH2 0xD71 DUP2 PUSH2 0xE70 JUMP JUMPDEST POP JUMP JUMPDEST PUSH1 0x0 SLOAD PUSH1 0x1 PUSH1 0xA0 SHL SWAP1 DIV PUSH1 0xFF AND ISZERO PUSH2 0x9A4 JUMPI PUSH1 0x40 MLOAD PUSH3 0x461BCD PUSH1 0xE5 SHL DUP2 MSTORE PUSH1 0x20 PUSH1 0x4 DUP3 ADD MSTORE PUSH1 0x10 PUSH1 0x24 DUP3 ADD MSTORE PUSH16 0x14185D5CD8589B194E881C185D5CD959 PUSH1 0x82 SHL PUSH1 0x44 DUP3 ADD MSTORE PUSH1 0x64 ADD PUSH2 0x3CB JUMP JUMPDEST PUSH1 0x0 SLOAD PUSH1 0x1 PUSH1 0x1 PUSH1 0xA0 SHL SUB AND CALLER EQ PUSH2 0x9A4 JUMPI PUSH1 0x40 MLOAD PUSH3 0x461BCD PUSH1 0xE5 SHL DUP2 MSTORE PUSH1 0x20 PUSH1 0x4 DUP3 ADD DUP2 SWAP1 MSTORE PUSH1 0x24 DUP3 ADD MSTORE PUSH32 0x4F776E61626C653A2063616C6C6572206973206E6F7420746865206F776E6572 PUSH1 0x44 DUP3 ADD MSTORE PUSH1 0x64 ADD PUSH2 0x3CB JUMP JUMPDEST PUSH2 0xE23 PUSH2 0xF03 JUMP JUMPDEST PUSH1 0x0 DUP1 SLOAD PUSH1 0xFF PUSH1 0xA0 SHL NOT AND SWAP1 SSTORE PUSH32 0x5DB9EE0A495BF2E6FF9C91A7834C1BA4FDD244A5E8AA4E537BD38AEAE4B073AA CALLER JUMPDEST PUSH1 0x40 MLOAD PUSH1 0x1 PUSH1 0x1 PUSH1 0xA0 SHL SUB SWAP1 SWAP2 AND DUP2 MSTORE PUSH1 0x20 ADD PUSH1 0x40 MLOAD DUP1 SWAP2 SUB SWAP1 LOG1 JUMP JUMPDEST PUSH1 0x0 DUP1 SLOAD PUSH1 0x1 PUSH1 0x1 PUSH1 0xA0 SHL SUB DUP4 DUP2 AND PUSH1 0x1 PUSH1 0x1 PUSH1 0xA0 SHL SUB NOT DUP4 AND DUP2 OR DUP5 SSTORE PUSH1 0x40 MLOAD SWAP2 SWAP1 SWAP3 AND SWAP3 DUP4 SWAP2 PUSH32 0x8BE0079C531659141344CD1FD0A4F28419497F9722A3DAAFE3B4186F6B6457E0 SWAP2 SWAP1 LOG3 POP POP JUMP JUMPDEST PUSH2 0xEC8 PUSH2 0xD74 JUMP JUMPDEST PUSH1 0x0 DUP1 SLOAD PUSH1 0xFF PUSH1 0xA0 SHL NOT AND PUSH1 0x1 PUSH1 0xA0 SHL OR SWAP1 SSTORE PUSH32 0x62E78CEA01BEE320CD4E420270B5EA74000D11B0C9F74754EBDBFC544B05A258 PUSH2 0xE53 CALLER SWAP1 JUMP JUMPDEST PUSH1 0x0 SLOAD PUSH1 0x1 PUSH1 0xA0 SHL SWAP1 DIV PUSH1 0xFF AND PUSH2 0x9A4 JUMPI PUSH1 0x40 MLOAD PUSH3 0x461BCD PUSH1 0xE5 SHL DUP2 MSTORE PUSH1 0x20 PUSH1 0x4 DUP3 ADD MSTORE PUSH1 0x14 PUSH1 0x24 DUP3 ADD MSTORE PUSH20 0x14185D5CD8589B194E881B9BDD081C185D5CD959 PUSH1 0x62 SHL PUSH1 0x44 DUP3 ADD MSTORE PUSH1 0x64 ADD PUSH2 0x3CB JUMP JUMPDEST PUSH1 0x0 DUP1 PUSH1 0x40 DUP4 DUP6 SUB SLT ISZERO PUSH2 0xF66 JUMPI PUSH1 0x0 DUP1 REVERT JUMPDEST POP POP DUP1 CALLDATALOAD SWAP3 PUSH1 0x20 SWAP1 SWAP2 ADD CALLDATALOAD SWAP2 POP JUMP JUMPDEST DUP1 CALLDATALOAD PUSH1 0x1 PUSH1 0x1 PUSH1 0xA0 SHL SUB DUP2 AND DUP2 EQ PUSH2 0xF8C JUMPI PUSH1 0x0 DUP1 REVERT JUMPDEST SWAP2 SWAP1 POP JUMP JUMPDEST PUSH1 0x0 DUP1 PUSH1 0x40 DUP4 DUP6 SUB SLT ISZERO PUSH2 0xFA4 JUMPI PUSH1 0x0 DUP1 REVERT JUMPDEST PUSH2 0xFAD DUP4 PUSH2 0xF75 JUMP JUMPDEST SWAP5 PUSH1 0x20 SWAP4 SWAP1 SWAP4 ADD CALLDATALOAD SWAP4 POP POP POP JUMP JUMPDEST PUSH1 0x0 PUSH1 0x20 DUP3 DUP5 SUB SLT ISZERO PUSH2 0xFCD JUMPI PUSH1 0x0 DUP1 REVERT JUMPDEST POP CALLDATALOAD SWAP2 SWAP1 POP JUMP JUMPDEST PUSH1 0x0 DUP1 PUSH1 0x0 DUP1 PUSH1 0x0 DUP1 PUSH1 0x0 DUP1 PUSH1 0x0 PUSH2 0x120 DUP11 DUP13 SUB SLT ISZERO PUSH2 0xFF3 JUMPI PUSH1 0x0 DUP1 REVERT JUMPDEST POP POP DUP8 CALLDATALOAD SWAP10 PUSH1 0x20 DUP10 ADD CALLDATALOAD SWAP10 POP PUSH1 0x40 DUP10 ADD CALLDATALOAD SWAP9 PUSH1 0x60 DUP2 ADD CALLDATALOAD SWAP9 POP PUSH1 0x80 DUP2 ADD CALLDATALOAD SWAP8 POP PUSH1 0xA0 DUP2 ADD CALLDATALOAD SWAP7 POP PUSH1 0xC0 DUP2 ADD CALLDATALOAD SWAP6 POP PUSH1 0xE0 DUP2 ADD CALLDATALOAD SWAP5 POP PUSH2 0x100 ADD CALLDATALOAD SWAP3 POP SWAP1 POP JUMP JUMPDEST PUSH1 0x0 DUP2 MLOAD DUP1 DUP5 MSTORE PUSH1 0x20 DUP1 DUP6 ADD SWAP5 POP DUP1 DUP5 ADD PUSH1 0x0 JUMPDEST DUP4 DUP2 LT ISZERO PUSH2 0x1063 JUMPI DUP2 MLOAD DUP8 MSTORE SWAP6 DUP3 ADD SWAP6 SWAP1 DUP3 ADD SWAP1 PUSH1 0x1 ADD PUSH2 0x1047 JUMP JUMPDEST POP SWAP5 SWAP6 SWAP5 POP POP POP POP POP JUMP JUMPDEST PUSH1 0x40 DUP2 MSTORE PUSH1 0x0 PUSH2 0x1081 PUSH1 0x40 DUP4 ADD DUP6 PUSH2 0x1033 JUMP JUMPDEST DUP3 DUP2 SUB PUSH1 0x20 DUP5 ADD MSTORE PUSH2 0x1093 DUP2 DUP6 PUSH2 0x1033 JUMP JUMPDEST SWAP6 SWAP5 POP POP POP POP POP JUMP JUMPDEST PUSH1 0x0 PUSH1 0x20 DUP3 DUP5 SUB SLT ISZERO PUSH2 0x10AE JUMPI PUSH1 0x0 DUP1 REVERT JUMPDEST PUSH2 0x10B7 DUP3 PUSH2 0xF75 JUMP JUMPDEST SWAP4 SWAP3 POP POP POP JUMP JUMPDEST PUSH1 0x20 DUP1 DUP3 MSTORE DUP3 MLOAD DUP3 DUP3 ADD DUP2 SWAP1 MSTORE PUSH1 0x0 SWAP2 SWAP1 PUSH1 0x40 SWAP1 DUP2 DUP6 ADD SWAP1 DUP7 DUP5 ADD DUP6 JUMPDEST DUP3 DUP2 LT ISZERO PUSH2 0x111F JUMPI DUP2 MLOAD DUP1 MLOAD DUP6 MSTORE DUP7 DUP2 ADD MLOAD DUP8 DUP7 ADD MSTORE DUP6 DUP2 ADD MLOAD DUP7 DUP7 ADD MSTORE PUSH1 0x60 DUP1 DUP3 ADD MLOAD SWAP1 DUP7 ADD MSTORE PUSH1 0x80 SWAP1 DUP2 ADD MLOAD SWAP1 DUP6 ADD MSTORE PUSH1 0xA0 SWAP1 SWAP4 ADD SWAP3 SWAP1 DUP6 ADD SWAP1 PUSH1 0x1 ADD PUSH2 0x10DB JUMP JUMPDEST POP SWAP2 SWAP8 SWAP7 POP POP POP POP POP POP POP JUMP JUMPDEST PUSH4 0x4E487B71 PUSH1 0xE0 SHL PUSH1 0x0 MSTORE PUSH1 0x11 PUSH1 0x4 MSTORE PUSH1 0x24 PUSH1 0x0 REVERT JUMPDEST DUP1 DUP3 ADD DUP1 DUP3 GT ISZERO PUSH2 0x775 JUMPI PUSH2 0x775 PUSH2 0x112C JUMP JUMPDEST DUP1 DUP3 MUL DUP2 ISZERO DUP3 DUP3 DIV DUP5 EQ OR PUSH2 0x775 JUMPI PUSH2 0x775 PUSH2 0x112C JUMP JUMPDEST PUSH1 0x0 DUP3 PUSH2 0x1189 JUMPI PUSH4 0x4E487B71 PUSH1 0xE0 SHL PUSH1 0x0 MSTORE PUSH1 0x12 PUSH1 0x4 MSTORE PUSH1 0x24 PUSH1 0x0 REVERT JUMPDEST POP DIV SWAP1 JUMP JUMPDEST PUSH1 0x0 PUSH1 0x20 DUP3 DUP5 SUB SLT ISZERO PUSH2 0x11A0 JUMPI PUSH1 0x0 DUP1 REVERT JUMPDEST DUP2 MLOAD DUP1 ISZERO ISZERO DUP2 EQ PUSH2 0x10B7 JUMPI PUSH1 0x0 DUP1 REVERT JUMPDEST PUSH4 0x4E487B71 PUSH1 0xE0 SHL PUSH1 0x0 MSTORE PUSH1 0x32 PUSH1 0x4 MSTORE PUSH1 0x24 PUSH1 0x0 REVERT JUMPDEST DUP2 DUP2 SUB DUP2 DUP2 GT ISZERO PUSH2 0x775 JUMPI PUSH2 0x775 PUSH2 0x112C JUMP JUMPDEST PUSH4 0x4E487B71 PUSH1 0xE0 SHL PUSH1 0x0 MSTORE PUSH1 0x41 PUSH1 0x4 MSTORE PUSH1 0x24 PUSH1 0x0 REVERT JUMPDEST PUSH1 0x0 PUSH1 0x1 DUP3 ADD PUSH2 0x1201 JUMPI PUSH2 0x1201 PUSH2 0x112C JUMP JUMPDEST POP PUSH1 0x1 ADD SWAP1 JUMP INVALID LOG2 PUSH5 0x6970667358 0x22 SLT KECCAK256 PUSH7 0x2188C8EDC23CDD EXTCODESIZE BLOCKHASH 0xD1 0xB6 0xE9 0xE5 0xF9 0xAD 0xD 0xDE DUP14 SELFBALANCE 0xDC DUP10 0xA6 SWAP3 LOG2 LOG3 PUSH23 0x8D263A133F64736F6C6343000811003300000000000000 "},"methodIdentifiers":{"BLB()":"bfa54b3f","checkPoint1()":"ad33710c","checkPoint2()":"8a2ac397","checkPoint3()":"d5d4d114","investments(address,uint256)":"3e6d9770","loanBLB(address,uint256)":"a2fa0c75","newInvestment(uint256,uint256)":"28583365","owner()":"8da5cb5b","pause()":"8456cb59","paused()":"5c975abb","pendingWithdrawal(address,uint256)":"2bf0da7e","plans()":"64eb1b21","releaseTime(address,uint256)":"4983c3ab","renounceOwnership()":"715018a6","rewardPlans(uint256)":"88a9931f","setCheckpoints(uint256,uint256,uint256,uint256,uint256,uint256,uint256,uint256,uint256)":"4668d866","setPlan(uint256,uint256)":"3353561d","totalDepositBLB()":"0c736b35","totalPendingBLB()":"e88cf1b4","transferOwnership(address)":"f2fde38b","unpause()":"3f4ba83a","userInvestments(address)":"b023eba5","withdraw(uint256)":"2e1a7d4d"}}}}}