{"contracts/BEP20/BLBToken.sol":{"BLBToken":{"abi":[{"inputs":[{"internalType":"address","name":"initialAdmin","type":"address"}],"stateMutability":"nonpayable","type":"constructor"},{"anonymous":false,"inputs":[{"indexed":true,"internalType":"address","name":"owner","type":"address"},{"indexed":true,"internalType":"address","name":"spender","type":"address"},{"indexed":false,"internalType":"uint256","name":"value","type":"uint256"}],"name":"Approval","type":"event"},{"anonymous":false,"inputs":[{"indexed":false,"internalType":"address","name":"addr","type":"address"}],"name":"District","type":"event"},{"anonymous":false,"inputs":[{"indexed":false,"internalType":"address","name":"addr","type":"address"},{"indexed":false,"internalType":"uint256","name":"amount","type":"uint256"}],"name":"Restrict","type":"event"},{"anonymous":false,"inputs":[{"indexed":true,"internalType":"bytes32","name":"role","type":"bytes32"},{"indexed":true,"internalType":"bytes32","name":"previousAdminRole","type":"bytes32"},{"indexed":true,"internalType":"bytes32","name":"newAdminRole","type":"bytes32"}],"name":"RoleAdminChanged","type":"event"},{"anonymous":false,"inputs":[{"indexed":true,"internalType":"bytes32","name":"role","type":"bytes32"},{"indexed":true,"internalType":"address","name":"account","type":"address"},{"indexed":true,"internalType":"address","name":"sender","type":"address"}],"name":"RoleGranted","type":"event"},{"anonymous":false,"inputs":[{"indexed":true,"internalType":"bytes32","name":"role","type":"bytes32"},{"indexed":true,"internalType":"address","name":"account","type":"address"},{"indexed":true,"internalType":"address","name":"sender","type":"address"}],"name":"RoleRevoked","type":"event"},{"anonymous":false,"inputs":[{"indexed":false,"internalType":"uint256","name":"fraction","type":"uint256"}],"name":"SetMonthlyTransferLimit","type":"event"},{"anonymous":false,"inputs":[{"indexed":false,"internalType":"uint256","name":"_feeAmount","type":"uint256"},{"indexed":false,"internalType":"uint256","name":"_feeFraction","type":"uint256"},{"indexed":false,"internalType":"address","name":"_feeReceiver","type":"address"}],"name":"SetTransactionFee","type":"event"},{"anonymous":false,"inputs":[{"indexed":true,"internalType":"address","name":"from","type":"address"},{"indexed":true,"internalType":"address","name":"to","type":"address"},{"indexed":false,"internalType":"uint256","name":"value","type":"uint256"}],"name":"Transfer","type":"event"},{"inputs":[],"name":"DEFAULT_ADMIN_ROLE","outputs":[{"internalType":"bytes32","name":"","type":"bytes32"}],"stateMutability":"view","type":"function"},{"inputs":[],"name":"DOMAIN_SEPARATOR","outputs":[{"internalType":"bytes32","name":"","type":"bytes32"}],"stateMutability":"view","type":"function"},{"inputs":[],"name":"MINTER_ROLE","outputs":[{"internalType":"bytes32","name":"","type":"bytes32"}],"stateMutability":"view","type":"function"},{"inputs":[],"name":"RESTRICTOR_ROLE","outputs":[{"internalType":"bytes32","name":"","type":"bytes32"}],"stateMutability":"view","type":"function"},{"inputs":[],"name":"TRANSACTION_FEE_SETTER","outputs":[{"internalType":"bytes32","name":"","type":"bytes32"}],"stateMutability":"view","type":"function"},{"inputs":[],"name":"TRANSFER_LIMIT_SETTER","outputs":[{"internalType":"bytes32","name":"","type":"bytes32"}],"stateMutability":"view","type":"function"},{"inputs":[{"internalType":"address","name":"owner","type":"address"},{"internalType":"address","name":"spender","type":"address"}],"name":"allowance","outputs":[{"internalType":"uint256","name":"","type":"uint256"}],"stateMutability":"view","type":"function"},{"inputs":[{"internalType":"address","name":"spender","type":"address"},{"internalType":"uint256","name":"amount","type":"uint256"}],"name":"approve","outputs":[{"internalType":"bool","name":"","type":"bool"}],"stateMutability":"nonpayable","type":"function"},{"inputs":[{"internalType":"address","name":"account","type":"address"}],"name":"balanceOf","outputs":[{"internalType":"uint256","name":"","type":"uint256"}],"stateMutability":"view","type":"function"},{"inputs":[{"internalType":"uint256","name":"amount","type":"uint256"}],"name":"burn","outputs":[],"stateMutability":"nonpayable","type":"function"},{"inputs":[{"internalType":"address","name":"account","type":"address"},{"internalType":"uint256","name":"amount","type":"uint256"}],"name":"burnFrom","outputs":[],"stateMutability":"nonpayable","type":"function"},{"inputs":[{"internalType":"address","name":"addr","type":"address"}],"name":"canSpend","outputs":[{"internalType":"uint256","name":"amount","type":"uint256"}],"stateMutability":"view","type":"function"},{"inputs":[],"name":"cap","outputs":[{"internalType":"uint256","name":"","type":"uint256"}],"stateMutability":"view","type":"function"},{"inputs":[],"name":"decimals","outputs":[{"internalType":"uint8","name":"","type":"uint8"}],"stateMutability":"view","type":"function"},{"inputs":[{"internalType":"address","name":"spender","type":"address"},{"internalType":"uint256","name":"subtractedValue","type":"uint256"}],"name":"decreaseAllowance","outputs":[{"internalType":"bool","name":"","type":"bool"}],"stateMutability":"nonpayable","type":"function"},{"inputs":[{"internalType":"address","name":"addr","type":"address"}],"name":"district","outputs":[],"stateMutability":"nonpayable","type":"function"},{"inputs":[],"name":"feeDetails","outputs":[{"internalType":"uint256","name":"","type":"uint256"},{"internalType":"uint256","name":"","type":"uint256"},{"internalType":"address","name":"","type":"address"}],"stateMutability":"view","type":"function"},{"inputs":[{"internalType":"bytes32","name":"role","type":"bytes32"}],"name":"getRoleAdmin","outputs":[{"internalType":"bytes32","name":"","type":"bytes32"}],"stateMutability":"view","type":"function"},{"inputs":[{"internalType":"bytes32","name":"role","type":"bytes32"},{"internalType":"uint256","name":"index","type":"uint256"}],"name":"getRoleMember","outputs":[{"internalType":"address","name":"","type":"address"}],"stateMutability":"view","type":"function"},{"inputs":[{"internalType":"bytes32","name":"role","type":"bytes32"}],"name":"getRoleMemberCount","outputs":[{"internalType":"uint256","name":"","type":"uint256"}],"stateMutability":"view","type":"function"},{"inputs":[{"internalType":"bytes32","name":"role","type":"bytes32"},{"internalType":"address","name":"account","type":"address"}],"name":"grantRole","outputs":[],"stateMutability":"nonpayable","type":"function"},{"inputs":[{"internalType":"bytes32","name":"role","type":"bytes32"},{"internalType":"address","name":"account","type":"address"}],"name":"hasRole","outputs":[{"internalType":"bool","name":"","type":"bool"}],"stateMutability":"view","type":"function"},{"inputs":[{"internalType":"address","name":"spender","type":"address"},{"internalType":"uint256","name":"addedValue","type":"uint256"}],"name":"increaseAllowance","outputs":[{"internalType":"bool","name":"","type":"bool"}],"stateMutability":"nonpayable","type":"function"},{"inputs":[{"internalType":"address","name":"addr","type":"address"}],"name":"isRestricted","outputs":[{"internalType":"bool","name":"","type":"bool"}],"stateMutability":"view","type":"function"},{"inputs":[{"internalType":"address","name":"account","type":"address"},{"internalType":"uint256","name":"amount","type":"uint256"}],"name":"mint","outputs":[],"stateMutability":"nonpayable","type":"function"},{"inputs":[{"internalType":"address[]","name":"accounts","type":"address[]"},{"internalType":"uint256","name":"amount","type":"uint256"}],"name":"mintBatch","outputs":[],"stateMutability":"nonpayable","type":"function"},{"inputs":[],"name":"monthlyLimit","outputs":[{"internalType":"uint256","name":"","type":"uint256"}],"stateMutability":"view","type":"function"},{"inputs":[],"name":"name","outputs":[{"internalType":"string","name":"","type":"string"}],"stateMutability":"view","type":"function"},{"inputs":[{"internalType":"address","name":"owner","type":"address"}],"name":"nonces","outputs":[{"internalType":"uint256","name":"","type":"uint256"}],"stateMutability":"view","type":"function"},{"inputs":[{"internalType":"address","name":"owner","type":"address"},{"internalType":"address","name":"spender","type":"address"},{"internalType":"uint256","name":"value","type":"uint256"},{"internalType":"uint256","name":"deadline","type":"uint256"},{"internalType":"uint8","name":"v","type":"uint8"},{"internalType":"bytes32","name":"r","type":"bytes32"},{"internalType":"bytes32","name":"s","type":"bytes32"}],"name":"permit","outputs":[],"stateMutability":"nonpayable","type":"function"},{"inputs":[{"internalType":"bytes32","name":"role","type":"bytes32"},{"internalType":"address","name":"account","type":"address"}],"name":"renounceRole","outputs":[],"stateMutability":"nonpayable","type":"function"},{"inputs":[{"internalType":"address","name":"addr","type":"address"},{"internalType":"uint256","name":"amount","type":"uint256"}],"name":"restrict","outputs":[],"stateMutability":"nonpayable","type":"function"},{"inputs":[{"internalType":"bytes32","name":"role","type":"bytes32"},{"internalType":"address","name":"account","type":"address"}],"name":"revokeRole","outputs":[],"stateMutability":"nonpayable","type":"function"},{"inputs":[{"internalType":"uint256","name":"fraction","type":"uint256"}],"name":"setMonthlyTransferLimit","outputs":[],"stateMutability":"nonpayable","type":"function"},{"inputs":[{"internalType":"uint256","name":"_feeAmount","type":"uint256"},{"internalType":"uint256","name":"_feeFraction","type":"uint256"},{"internalType":"address","name":"_feeReceiver","type":"address"}],"name":"setTransactionFee","outputs":[],"stateMutability":"nonpayable","type":"function"},{"inputs":[{"internalType":"bytes4","name":"interfaceId","type":"bytes4"}],"name":"supportsInterface","outputs":[{"internalType":"bool","name":"","type":"bool"}],"stateMutability":"view","type":"function"},{"inputs":[],"name":"symbol","outputs":[{"internalType":"string","name":"","type":"string"}],"stateMutability":"view","type":"function"},{"inputs":[],"name":"totalSupply","outputs":[{"internalType":"uint256","name":"","type":"uint256"}],"stateMutability":"view","type":"function"},{"inputs":[{"internalType":"uint256","name":"transferingAmount","type":"uint256"}],"name":"transactionFee","outputs":[{"internalType":"uint256","name":"fee","type":"uint256"}],"stateMutability":"view","type":"function"},{"inputs":[{"internalType":"address","name":"to","type":"address"},{"internalType":"uint256","name":"amount","type":"uint256"}],"name":"transfer","outputs":[{"internalType":"bool","name":"","type":"bool"}],"stateMutability":"nonpayable","type":"function"},{"inputs":[{"internalType":"address","name":"from","type":"address"},{"internalType":"address","name":"to","type":"address"},{"internalType":"uint256","name":"amount","type":"uint256"}],"name":"transferFrom","outputs":[{"internalType":"bool","name":"","type":"bool"}],"stateMutability":"nonpayable","type":"function"}],"evm":{"bytecode":{"linkReferences":{},"object":"6101806040523480156200001257600080fd5b50604051620031a6380380620031a6833981016040819052620000359162000433565b6040518060400160405280600f81526020016e109bdd5b991b195cdcc815dbdc9b19608a1b81525080604051806040016040528060018152602001603160f81b81525062000088620002d460201b60201c565b6200009590600a62000578565b620000a59063dbf0ee8062000589565b6040518060400160405280600f81526020016e109bdd5b991b195cdcc815dbdc9b19608a1b8152506040518060400160405280600381526020016221262160e91b8152508160039081620000fa91906200064f565b5060046200010982826200064f565b50505060008111620001615760405162461bcd60e51b815260206004820152601560248201527f45524332304361707065643a2063617020697320300000000000000000000000604482015260640160405180910390fd5b60805281516020808401919091208251918301919091206101008290526101208190524660c0527f8b73c3c69bb8fe3d512ecc4cf759cc79239f7b179b0ffacaa9a75d522b39400f620001f98184846040805160208101859052908101839052606081018290524660808201523060a082015260009060c0016040516020818303038152906040528051906020012090509392505050565b60a0523060e0526101405250504261016052506200021d91506000905082620002d9565b620002497f9f2df0fed2c77648de5860a4cc508cd0818c85b8b8a1ab4ceeef8d981c8956a682620002d9565b620002757fd0ac125722f4b4565ab5e91b234e50c4c6f541672aea816ba090a0ea349ed93f82620002d9565b620002a17fb24c1025622fe38445b605f5c1a9bb02be7f6522d24c8a159e5e47e62dbaaecf82620002d9565b620002cd7f23ab0e580195340a5a67800cafa0615701edfa22f79534a52851336e3cf8376a82620002d9565b506200071b565b601290565b620002f082826200031c60201b620010221760201c565b600082815260086020908152604090912062000317918390620010a8620003c1821b17901c565b505050565b60008281526007602090815260408083206001600160a01b038516845290915290205460ff16620003bd5760008281526007602090815260408083206001600160a01b03851684529091529020805460ff191660011790556200037c3390565b6001600160a01b0316816001600160a01b0316837f2f8788117e7eff1d82e926ec794901d17c78024a50270940304540a733656f0d60405160405180910390a45b5050565b6000620003d8836001600160a01b038416620003e1565b90505b92915050565b60008181526001830160205260408120546200042a57508154600181810184556000848152602080822090930184905584548482528286019093526040902091909155620003db565b506000620003db565b6000602082840312156200044657600080fd5b81516001600160a01b03811681146200045e57600080fd5b9392505050565b634e487b7160e01b600052601160045260246000fd5b600181815b80851115620004bc578160001904821115620004a057620004a062000465565b80851615620004ae57918102915b93841c939080029062000480565b509250929050565b600082620004d557506001620003db565b81620004e457506000620003db565b8160018114620004fd5760028114620005085762000528565b6001915050620003db565b60ff8411156200051c576200051c62000465565b50506001821b620003db565b5060208310610133831016604e8410600b84101617156200054d575081810a620003db565b6200055983836200047b565b806000190482111562000570576200057062000465565b029392505050565b6000620003d860ff841683620004c4565b6000816000190483118215151615620005a657620005a662000465565b500290565b634e487b7160e01b600052604160045260246000fd5b600181811c90821680620005d657607f821691505b602082108103620005f757634e487b7160e01b600052602260045260246000fd5b50919050565b601f8211156200031757600081815260208120601f850160051c81016020861015620006265750805b601f850160051c820191505b81811015620006475782815560010162000632565b505050505050565b81516001600160401b038111156200066b576200066b620005ab565b62000683816200067c8454620005c1565b84620005fd565b602080601f831160018114620006bb5760008415620006a25750858301515b600019600386901b1c1916600185901b17855562000647565b600085815260208120601f198616915b82811015620006ec57888601518255948401946001909101908401620006cb565b50858210156200070b5787850151600019600388901b60f8161c191681555b5050505050600190811b01905550565b60805160a05160c05160e05161010051610120516101405161016051612a1062000796600039600081816107e601526121ce015260006114fa01526000611549015260006115240152600061147d015260006114a7015260006114d101526000818161039d0152818161078d01526119b20152612a106000f3fe608060405234801561001057600080fd5b50600436106102535760003560e01c806342966c6811610146578063a217fddf116100c3578063ca15c87311610087578063ca15c87314610585578063d505accf14610598578063d5391393146105ab578063d547741f146105c0578063dd62ed3e146105d3578063e162533c146105e657600080fd5b8063a217fddf14610531578063a457c2d714610539578063a9059cbb1461054c578063b6afc4dc1461055f578063c01bc9821461057257600080fd5b80637ecebe001161010a5780637ecebe00146104c5578063889cad06146104d85780639010d07c146104eb57806391d148541461051657806395d89b411461052957600080fd5b806342966c681461043c57806351bcee271461044f5780635d1edb871461047657806370a082311461048957806379cc6790146104b257600080fd5b8063248a9ca3116101d457806336568abe1161019857806336568abe146103c9578063367065de146103dc57806339509351146103ef5780633e0b2cda1461040257806340c10f191461042957600080fd5b8063248a9ca3146103565780632f2ff15d14610379578063313ce5671461038c578063355274ea1461039b5780633644e515146103c157600080fd5b80631681f8301161021b5780631681f830146102e657806318160ddd146102fb5780631f2c544314610303578063234eaedc1461033057806323b872dd1461034357600080fd5b806301ffc9a71461025857806306fdde0314610280578063095ea7b3146102955780630a6005da146102a85780630ecbd033146102bf575b600080fd5b61026b6102663660046124c0565b6105f9565b60405190151581526020015b60405180910390f35b610288610624565b6040516102779190612516565b61026b6102a3366004612560565b6106b6565b6102b160105481565b604051908152602001610277565b6102b17fd0ac125722f4b4565ab5e91b234e50c4c6f541672aea816ba090a0ea349ed93f81565b6102f96102f4366004612560565b6106ce565b005b6002546102b1565b600a54600954600b546040805193845260208401929092526001600160a01b031690820152606001610277565b6102b161033e36600461258a565b61074c565b61026b6103513660046125a5565b6108b1565b6102b16103643660046125e1565b60009081526007602052604090206001015490565b6102f96103873660046125fa565b6108d5565b60405160128152602001610277565b7f00000000000000000000000000000000000000000000000000000000000000006102b1565b6102b16108ff565b6102f96103d73660046125fa565b61090e565b6102f96103ea366004612626565b610991565b61026b6103fd366004612560565b610b25565b6102b17fb24c1025622fe38445b605f5c1a9bb02be7f6522d24c8a159e5e47e62dbaaecf81565b6102f9610437366004612560565b610b47565b6102f961044a3660046125e1565b610b69565b6102b17f23ab0e580195340a5a67800cafa0615701edfa22f79534a52851336e3cf8376a81565b6102b16104843660046125e1565b610b76565b6102b161049736600461258a565b6001600160a01b031660009081526020819052604090205490565b6102f96104c0366004612560565b610bad565b6102b16104d336600461258a565b610bc2565b6102f96104e63660046125e1565b610be0565b6104fe6104f936600461265b565b610cbf565b6040516001600160a01b039091168152602001610277565b61026b6105243660046125fa565b610cde565b610288610d09565b6102b1600081565b61026b610547366004612560565b610d18565b61026b61055a366004612560565b610d93565b6102f961056d36600461267d565b610da1565b61026b61058036600461258a565b610e15565b6102b16105933660046125e1565b610e22565b6102f96105a63660046126f8565b610e39565b6102b160008051602061299b83398151915281565b6102f96105ce3660046125fa565b610f9d565b6102b16105e136600461276b565b610fc2565b6102f96105f436600461258a565b610fed565b60006001600160e01b03198216635a05180f60e01b148061061e575061061e826110bd565b92915050565b60606003805461063390612795565b80601f016020809104026020016040519081016040528092919081815260200182805461065f90612795565b80156106ac5780601f10610681576101008083540402835291602001916106ac565b820191906000526020600020905b81548152906001019060200180831161068f57829003601f168201915b5050505050905090565b6000336106c48185856110f2565b5060019392505050565b7f23ab0e580195340a5a67800cafa0615701edfa22f79534a52851336e3cf8376a6106f881611217565b610704600c8484611221565b50604080516001600160a01b0385168152602081018490527fa1b8d777c2527547849718a04f45b8e5b0f29119c47f9298b20a85f0ad275424910160405180910390a1505050565b600061075782610e15565b156107675761061e600c83611237565b61077f60008051602061299b83398151915283610cde565b156107b15760025461061e907f00000000000000000000000000000000000000000000000000000000000000006127df565b601054620f4240036107db576001600160a01b03821660009081526020819052604090205461061e565b600062278d0061080b7f0000000000000000000000000000000000000000000000000000000000000000426127df565b61081591906127f6565b6001600160a01b0384166000908152600f60205260409020600101540361085157506001600160a01b0382166000908152600f60205260409020545b6000620f42406010548361087a876001600160a01b031660009081526020819052604090205490565b6108849190612818565b61088e9190612830565b61089891906127f6565b90506108a482826127df565b949350505050565b919050565b6000336108bf85828561124c565b6108ca8585856112c6565b506001949350505050565b6000828152600760205260409020600101546108f081611217565b6108fa838361144e565b505050565b6000610909611470565b905090565b6001600160a01b03811633146109835760405162461bcd60e51b815260206004820152602f60248201527f416363657373436f6e74726f6c3a2063616e206f6e6c792072656e6f756e636560448201526e103937b632b9903337b91039b2b63360891b60648201526084015b60405180910390fd5b61098d8282611597565b5050565b7fd0ac125722f4b4565ab5e91b234e50c4c6f541672aea816ba090a0ea349ed93f6109bb81611217565b8215806109c6575083155b610a465760405162461bcd60e51b815260206004820152604560248201527f5472616e73616374696f6e4665653a2043616e6e6f742073657420666565416d60448201527f6f756e7420616e64206665654672616374696f6e206174207468652073616d656064820152642074696d6560d81b608482015260a40161097a565b620186a0831115610ab55760405162461bcd60e51b815260206004820152603360248201527f5472616e73616374696f6e4665653a20557020746f20313025207472616e736160448201527218dd1a5bdb9199594818d85b881899481cd95d606a1b606482015260840161097a565b600a8490556009839055600b80546001600160a01b0319166001600160a01b0384169081179091556040805186815260208101869052908101919091527fd75a7916f83ee976ae8e04e3f9b46c9b16b546303f09f1fc20eccb6cd6bc476d9060600160405180910390a150505050565b6000336106c4818585610b388383610fc2565b610b429190612818565b6110f2565b60008051602061299b833981519152610b5f81611217565b6108fa83836115b9565b610b7333826115c3565b50565b600a5460009015610b89575050600a5490565b600954156108ac57620f424060095483610ba39190612830565b61061e91906127f6565b610bb882338361124c565b61098d82826115c3565b6001600160a01b03811660009081526005602052604081205461061e565b7fb24c1025622fe38445b605f5c1a9bb02be7f6522d24c8a159e5e47e62dbaaecf610c0a81611217565b620f4240821115610c835760405162461bcd60e51b815260206004820152603a60248201527f5472616e73666572436f6e74726f6c3a206d6178696d756d206672616374696f60448201527f6e2069732031302a2a362028657175616c20746f203130302529000000000000606482015260840161097a565b60108290556040518281527f8d9496d9654d41070e87ac1a35f8f18cbdb631e1b26c6805c9720151208aa25f9060200160405180910390a15050565b6000828152600860205260408120610cd7908361170b565b9392505050565b60009182526007602090815260408084206001600160a01b0393909316845291905290205460ff1690565b60606004805461063390612795565b60003381610d268286610fc2565b905083811015610d865760405162461bcd60e51b815260206004820152602560248201527f45524332303a2064656372656173656420616c6c6f77616e63652062656c6f77604482015264207a65726f60d81b606482015260840161097a565b6108ca82868684036110f2565b6000336106c48185856112c6565b60008051602061299b833981519152610db981611217565b60005b61ffff8116841115610e0e57610dfc85858361ffff16818110610de157610de161284f565b9050602002016020810190610df6919061258a565b846115b9565b80610e0681612865565b915050610dbc565b5050505050565b600061061e600c83611717565b600081815260086020526040812061061e9061172c565b83421115610e895760405162461bcd60e51b815260206004820152601d60248201527f45524332305065726d69743a206578706972656420646561646c696e65000000604482015260640161097a565b60007f6e71edae12b1b97f4d1f60370fef10105fa2faae0126114a169c64845d6126c9888888610eb88c611736565b6040805160208101969096526001600160a01b0394851690860152929091166060840152608083015260a082015260c0810186905260e0016040516020818303038152906040528051906020012090506000610f138261175e565b90506000610f23828787876117ac565b9050896001600160a01b0316816001600160a01b031614610f865760405162461bcd60e51b815260206004820152601e60248201527f45524332305065726d69743a20696e76616c6964207369676e61747572650000604482015260640161097a565b610f918a8a8a6110f2565b50505050505050505050565b600082815260076020526040902060010154610fb881611217565b6108fa8383611597565b6001600160a01b03918216600090815260016020908152604080832093909416825291909152205490565b7f23ab0e580195340a5a67800cafa0615701edfa22f79534a52851336e3cf8376a61101781611217565b6108fa600c836117d4565b61102c8282610cde565b61098d5760008281526007602090815260408083206001600160a01b03851684529091529020805460ff191660011790556110643390565b6001600160a01b0316816001600160a01b0316837f2f8788117e7eff1d82e926ec794901d17c78024a50270940304540a733656f0d60405160405180910390a45050565b6000610cd7836001600160a01b0384166117e9565b60006001600160e01b03198216637965db0b60e01b148061061e57506301ffc9a760e01b6001600160e01b031983161461061e565b6001600160a01b0383166111545760405162461bcd60e51b8152602060048201526024808201527f45524332303a20617070726f76652066726f6d20746865207a65726f206164646044820152637265737360e01b606482015260840161097a565b6001600160a01b0382166111b55760405162461bcd60e51b815260206004820152602260248201527f45524332303a20617070726f766520746f20746865207a65726f206164647265604482015261737360f01b606482015260840161097a565b6001600160a01b0383811660008181526001602090815260408083209487168084529482529182902085905590518481527f8c5be1e5ebec7d5bd14f71427d1e84f3dd0314c0f7b2291e5b200ac8c7c3b92591015b60405180910390a3505050565b610b738133611838565b60006108a4846001600160a01b0385168461189c565b6000610cd7836001600160a01b0384166118b9565b60006112588484610fc2565b905060001981146112c057818110156112b35760405162461bcd60e51b815260206004820152601d60248201527f45524332303a20696e73756666696369656e7420616c6c6f77616e6365000000604482015260640161097a565b6112c084848484036110f2565b50505050565b6001600160a01b03831661132a5760405162461bcd60e51b815260206004820152602560248201527f45524332303a207472616e736665722066726f6d20746865207a65726f206164604482015264647265737360d81b606482015260840161097a565b6001600160a01b03821661138c5760405162461bcd60e51b815260206004820152602360248201527f45524332303a207472616e7366657220746f20746865207a65726f206164647260448201526265737360e81b606482015260840161097a565b611397838383611929565b6001600160a01b038316600090815260208190526040902054818110156113d05760405162461bcd60e51b815260040161097a90612886565b6001600160a01b03808516600090815260208190526040808220858503905591851681529081208054849290611407908490612818565b92505081905550826001600160a01b0316846001600160a01b03166000805160206129bb8339815191528460405161144191815260200190565b60405180910390a36112c0565b6114588282611022565b60008281526008602052604090206108fa90826110a8565b6000306001600160a01b037f0000000000000000000000000000000000000000000000000000000000000000161480156114c957507f000000000000000000000000000000000000000000000000000000000000000046145b156114f357507f000000000000000000000000000000000000000000000000000000000000000090565b50604080517f00000000000000000000000000000000000000000000000000000000000000006020808301919091527f0000000000000000000000000000000000000000000000000000000000000000828401527f000000000000000000000000000000000000000000000000000000000000000060608301524660808301523060a0808401919091528351808403909101815260c0909201909252805191012090565b6115a18282611934565b60008281526008602052604090206108fa908261199b565b61098d82826119b0565b6001600160a01b0382166116235760405162461bcd60e51b815260206004820152602160248201527f45524332303a206275726e2066726f6d20746865207a65726f206164647265736044820152607360f81b606482015260840161097a565b61162f82600083611929565b6001600160a01b038216600090815260208190526040902054818110156116a35760405162461bcd60e51b815260206004820152602260248201527f45524332303a206275726e20616d6f756e7420657863656564732062616c616e604482015261636560f01b606482015260840161097a565b6001600160a01b03831660009081526020819052604081208383039055600280548492906116d29084906127df565b90915550506040518281526000906001600160a01b038516906000805160206129bb8339815191529060200160405180910390a3505050565b6000610cd78383611a3d565b6000610cd7836001600160a01b038416611a67565b600061061e825490565b6001600160a01b03811660009081526005602052604090208054600181018255905b50919050565b600061061e61176b611470565b8360405161190160f01b6020820152602281018390526042810182905260009060620160405160208183030381529060405280519060200120905092915050565b60008060006117bd87878787611a73565b915091506117ca81611b60565b5095945050505050565b6000610cd7836001600160a01b038416611d16565b60008181526001830160205260408120546118305750815460018181018455600084815260208082209093018490558454848252828601909352604090209190915561061e565b50600061061e565b6118428282610cde565b61098d5761185a816001600160a01b03166014611d33565b611865836020611d33565b6040516020016118769291906128cc565b60408051601f198184030181529082905262461bcd60e51b825261097a91600401612516565b600082815260028401602052604081208290556108a48484611ecf565b6000818152600283016020526040812054801515806118dd57506118dd8484611a67565b610cd75760405162461bcd60e51b815260206004820152601e60248201527f456e756d657261626c654d61703a206e6f6e6578697374656e74206b65790000604482015260640161097a565b6108fa838383611edb565b61193e8282610cde565b1561098d5760008281526007602090815260408083206001600160a01b0385168085529252808320805460ff1916905551339285917ff6391f5c32d9c69d2a47ea670b442974b53935d1edc7fd64eb21e047a839171b9190a45050565b6000610cd7836001600160a01b038416611f0d565b7f0000000000000000000000000000000000000000000000000000000000000000816119db60025490565b6119e59190612818565b1115611a335760405162461bcd60e51b815260206004820152601960248201527f45524332304361707065643a2063617020657863656564656400000000000000604482015260640161097a565b61098d8282612000565b6000826000018281548110611a5457611a5461284f565b9060005260206000200154905092915050565b6000610cd783836120d9565b6000807f7fffffffffffffffffffffffffffffff5d576e7357a4501ddfe92f46681b20a0831115611aaa5750600090506003611b57565b8460ff16601b14158015611ac257508460ff16601c14155b15611ad35750600090506004611b57565b6040805160008082526020820180845289905260ff881692820192909252606081018690526080810185905260019060a0016020604051602081039080840390855afa158015611b27573d6000803e3d6000fd5b5050604051601f1901519150506001600160a01b038116611b5057600060019250925050611b57565b9150600090505b94509492505050565b6000816004811115611b7457611b74612941565b03611b7c5750565b6001816004811115611b9057611b90612941565b03611bdd5760405162461bcd60e51b815260206004820152601860248201527f45434453413a20696e76616c6964207369676e61747572650000000000000000604482015260640161097a565b6002816004811115611bf157611bf1612941565b03611c3e5760405162461bcd60e51b815260206004820152601f60248201527f45434453413a20696e76616c6964207369676e6174757265206c656e67746800604482015260640161097a565b6003816004811115611c5257611c52612941565b03611caa5760405162461bcd60e51b815260206004820152602260248201527f45434453413a20696e76616c6964207369676e6174757265202773272076616c604482015261756560f01b606482015260840161097a565b6004816004811115611cbe57611cbe612941565b03610b735760405162461bcd60e51b815260206004820152602260248201527f45434453413a20696e76616c6964207369676e6174757265202776272076616c604482015261756560f01b606482015260840161097a565b60008181526002830160205260408120819055610cd783836120f1565b60606000611d42836002612830565b611d4d906002612818565b67ffffffffffffffff811115611d6557611d65612957565b6040519080825280601f01601f191660200182016040528015611d8f576020820181803683370190505b509050600360fc1b81600081518110611daa57611daa61284f565b60200101906001600160f81b031916908160001a905350600f60fb1b81600181518110611dd957611dd961284f565b60200101906001600160f81b031916908160001a9053506000611dfd846002612830565b611e08906001612818565b90505b6001811115611e80576f181899199a1a9b1b9c1cb0b131b232b360811b85600f1660108110611e3c57611e3c61284f565b1a60f81b828281518110611e5257611e5261284f565b60200101906001600160f81b031916908160001a90535060049490941c93611e798161296d565b9050611e0b565b508315610cd75760405162461bcd60e51b815260206004820181905260248201527f537472696e67733a20686578206c656e67746820696e73756666696369656e74604482015260640161097a565b6000610cd783836117e9565b6001600160a01b038316611ef857611ef333826120fd565b611f02565b611f0283826120fd565b6108fa838383612340565b60008181526001830160205260408120548015611ff6576000611f316001836127df565b8554909150600090611f45906001906127df565b9050818114611faa576000866000018281548110611f6557611f6561284f565b9060005260206000200154905080876000018481548110611f8857611f8861284f565b6000918252602080832090910192909255918252600188019052604090208390555b8554869080611fbb57611fbb612984565b60019003818190600052602060002001600090559055856001016000868152602001908152602001600020600090556001935050505061061e565b600091505061061e565b6001600160a01b0382166120565760405162461bcd60e51b815260206004820152601f60248201527f45524332303a206d696e7420746f20746865207a65726f206164647265737300604482015260640161097a565b61206260008383611929565b80600260008282546120749190612818565b90915550506001600160a01b038216600090815260208190526040812080548392906120a1908490612818565b90915550506040518181526001600160a01b038316906000906000805160206129bb8339815191529060200160405180910390a35050565b60008181526001830160205260408120541515610cd7565b6000610cd78383611f0d565b61210682610e15565b15612195576000612118600c84611237565b90508082111561217e5760405162461bcd60e51b815260206004820152602b60248201527f5472616e73666572436f6e74726f6c3a20616d6f756e7420657863656564732060448201526a1cdc195b99081b1a5b5a5d60aa1b606482015260840161097a565b6112c08361218c84846127df565b600c9190611221565b620f42406010541080156121be57506121bc60008051602061299b83398151915233610cde565b155b1561098d57600062278d006121f37f0000000000000000000000000000000000000000000000000000000000000000426127df565b6121fd91906127f6565b6001600160a01b0384166000908152600f60205260408120600101549192509082900361223f57506001600160a01b0383166000908152600f60205260409020545b600061224b8483612818565b90506000620f424060105484612276896001600160a01b031660009081526020819052604090205490565b6122809190612818565b61228a9190612830565b61229491906127f6565b9050808211156123025760405162461bcd60e51b815260206004820152603360248201527f5472616e73666572436f6e74726f6c3a20616d6f756e742065786365656473206044820152721b5bdb9d1a1b1e481cdc195b99081b1a5b5a5d606a1b606482015260840161097a565b5060408051808201825291825260208083019485526001600160a01b0387166000908152600f90915220905181559151600190920191909155505050565b6108fa338261235d60008051602061299b83398151915283610cde565b61098d576000600954118061237457506000600a54115b1561098d57600061238482610b76565b600b549091506108fa9084906001600160a01b0316836108fa8383836123aa83826120fd565b6108fa8383836001600160a01b0383161561241b576001600160a01b038316600090815260208190526040902054818110156123f85760405162461bcd60e51b815260040161097a90612886565b6001600160a01b0384166000908152602081905260409020908290039055612433565b806002600082825461242d9190612818565b90915550505b6001600160a01b03821615612475576001600160a01b0382166000908152602081905260408120805483929061246a908490612818565b9091555061248d9050565b806002600082825461248791906127df565b90915550505b816001600160a01b0316836001600160a01b03166000805160206129bb8339815191528360405161120a91815260200190565b6000602082840312156124d257600080fd5b81356001600160e01b031981168114610cd757600080fd5b60005b838110156125055781810151838201526020016124ed565b838111156112c05750506000910152565b60208152600082518060208401526125358160408501602087016124ea565b601f01601f19169190910160400192915050565b80356001600160a01b03811681146108ac57600080fd5b6000806040838503121561257357600080fd5b61257c83612549565b946020939093013593505050565b60006020828403121561259c57600080fd5b610cd782612549565b6000806000606084860312156125ba57600080fd5b6125c384612549565b92506125d160208501612549565b9150604084013590509250925092565b6000602082840312156125f357600080fd5b5035919050565b6000806040838503121561260d57600080fd5b8235915061261d60208401612549565b90509250929050565b60008060006060848603121561263b57600080fd5b833592506020840135915061265260408501612549565b90509250925092565b6000806040838503121561266e57600080fd5b50508035926020909101359150565b60008060006040848603121561269257600080fd5b833567ffffffffffffffff808211156126aa57600080fd5b818601915086601f8301126126be57600080fd5b8135818111156126cd57600080fd5b8760208260051b85010111156126e257600080fd5b6020928301989097509590910135949350505050565b600080600080600080600060e0888a03121561271357600080fd5b61271c88612549565b965061272a60208901612549565b95506040880135945060608801359350608088013560ff8116811461274e57600080fd5b9699959850939692959460a0840135945060c09093013592915050565b6000806040838503121561277e57600080fd5b61278783612549565b915061261d60208401612549565b600181811c908216806127a957607f821691505b60208210810361175857634e487b7160e01b600052602260045260246000fd5b634e487b7160e01b600052601160045260246000fd5b6000828210156127f1576127f16127c9565b500390565b60008261281357634e487b7160e01b600052601260045260246000fd5b500490565b6000821982111561282b5761282b6127c9565b500190565b600081600019048311821515161561284a5761284a6127c9565b500290565b634e487b7160e01b600052603260045260246000fd5b600061ffff80831681810361287c5761287c6127c9565b6001019392505050565b60208082526026908201527f45524332303a207472616e7366657220616d6f756e7420657863656564732062604082015265616c616e636560d01b606082015260800190565b7f416363657373436f6e74726f6c3a206163636f756e74200000000000000000008152600083516129048160178501602088016124ea565b7001034b99036b4b9b9b4b733903937b6329607d1b60179184019182015283516129358160288401602088016124ea565b01602801949350505050565b634e487b7160e01b600052602160045260246000fd5b634e487b7160e01b600052604160045260246000fd5b60008161297c5761297c6127c9565b506000190190565b634e487b7160e01b600052603160045260246000fdfe9f2df0fed2c77648de5860a4cc508cd0818c85b8b8a1ab4ceeef8d981c8956a6ddf252ad1be2c89b69c2b068fc378daa952ba7f163c4a11628f55a4df523b3efa2646970667358221220f05b3d48c5ddb43c9a048072cc138b8822a2f2f2f99cb128b92ee9dfc6c2b08b64736f6c634300080f0033","opcodes":"PUSH2 0x180 PUSH1 0x40 MSTORE CALLVALUE DUP1 ISZERO PUSH3 0x12 JUMPI PUSH1 0x0 DUP1 REVERT JUMPDEST POP PUSH1 0x40 MLOAD PUSH3 0x31A6 CODESIZE SUB DUP1 PUSH3 0x31A6 DUP4 CODECOPY DUP2 ADD PUSH1 0x40 DUP2 SWAP1 MSTORE PUSH3 0x35 SWAP2 PUSH3 0x433 JUMP JUMPDEST PUSH1 0x40 MLOAD DUP1 PUSH1 0x40 ADD PUSH1 0x40 MSTORE DUP1 PUSH1 0xF DUP2 MSTORE PUSH1 0x20 ADD PUSH15 0x109BDD5B991B195CDCC815DBDC9B19 PUSH1 0x8A SHL DUP2 MSTORE POP DUP1 PUSH1 0x40 MLOAD DUP1 PUSH1 0x40 ADD PUSH1 0x40 MSTORE DUP1 PUSH1 0x1 DUP2 MSTORE PUSH1 0x20 ADD PUSH1 0x31 PUSH1 0xF8 SHL DUP2 MSTORE POP PUSH3 0x88 PUSH3 0x2D4 PUSH1 0x20 SHL PUSH1 0x20 SHR JUMP JUMPDEST PUSH3 0x95 SWAP1 PUSH1 0xA PUSH3 0x578 JUMP JUMPDEST PUSH3 0xA5 SWAP1 PUSH4 0xDBF0EE80 PUSH3 0x589 JUMP JUMPDEST PUSH1 0x40 MLOAD DUP1 PUSH1 0x40 ADD PUSH1 0x40 MSTORE DUP1 PUSH1 0xF DUP2 MSTORE PUSH1 0x20 ADD PUSH15 0x109BDD5B991B195CDCC815DBDC9B19 PUSH1 0x8A SHL DUP2 MSTORE POP PUSH1 0x40 MLOAD DUP1 PUSH1 0x40 ADD PUSH1 0x40 MSTORE DUP1 PUSH1 0x3 DUP2 MSTORE PUSH1 0x20 ADD PUSH3 0x212621 PUSH1 0xE9 SHL DUP2 MSTORE POP DUP2 PUSH1 0x3 SWAP1 DUP2 PUSH3 0xFA SWAP2 SWAP1 PUSH3 0x64F JUMP JUMPDEST POP PUSH1 0x4 PUSH3 0x109 DUP3 DUP3 PUSH3 0x64F JUMP JUMPDEST POP POP POP PUSH1 0x0 DUP2 GT PUSH3 0x161 JUMPI PUSH1 0x40 MLOAD PUSH3 0x461BCD PUSH1 0xE5 SHL DUP2 MSTORE PUSH1 0x20 PUSH1 0x4 DUP3 ADD MSTORE PUSH1 0x15 PUSH1 0x24 DUP3 ADD MSTORE PUSH32 0x45524332304361707065643A2063617020697320300000000000000000000000 PUSH1 0x44 DUP3 ADD MSTORE PUSH1 0x64 ADD PUSH1 0x40 MLOAD DUP1 SWAP2 SUB SWAP1 REVERT JUMPDEST PUSH1 0x80 MSTORE DUP2 MLOAD PUSH1 0x20 DUP1 DUP5 ADD SWAP2 SWAP1 SWAP2 KECCAK256 DUP3 MLOAD SWAP2 DUP4 ADD SWAP2 SWAP1 SWAP2 KECCAK256 PUSH2 0x100 DUP3 SWAP1 MSTORE PUSH2 0x120 DUP2 SWAP1 MSTORE CHAINID PUSH1 0xC0 MSTORE PUSH32 0x8B73C3C69BB8FE3D512ECC4CF759CC79239F7B179B0FFACAA9A75D522B39400F PUSH3 0x1F9 DUP2 DUP5 DUP5 PUSH1 0x40 DUP1 MLOAD PUSH1 0x20 DUP2 ADD DUP6 SWAP1 MSTORE SWAP1 DUP2 ADD DUP4 SWAP1 MSTORE PUSH1 0x60 DUP2 ADD DUP3 SWAP1 MSTORE CHAINID PUSH1 0x80 DUP3 ADD MSTORE ADDRESS PUSH1 0xA0 DUP3 ADD MSTORE PUSH1 0x0 SWAP1 PUSH1 0xC0 ADD PUSH1 0x40 MLOAD PUSH1 0x20 DUP2 DUP4 SUB SUB DUP2 MSTORE SWAP1 PUSH1 0x40 MSTORE DUP1 MLOAD SWAP1 PUSH1 0x20 ADD KECCAK256 SWAP1 POP SWAP4 SWAP3 POP POP POP JUMP JUMPDEST PUSH1 0xA0 MSTORE ADDRESS PUSH1 0xE0 MSTORE PUSH2 0x140 MSTORE POP POP TIMESTAMP PUSH2 0x160 MSTORE POP PUSH3 0x21D SWAP2 POP PUSH1 0x0 SWAP1 POP DUP3 PUSH3 0x2D9 JUMP JUMPDEST PUSH3 0x249 PUSH32 0x9F2DF0FED2C77648DE5860A4CC508CD0818C85B8B8A1AB4CEEEF8D981C8956A6 DUP3 PUSH3 0x2D9 JUMP JUMPDEST PUSH3 0x275 PUSH32 0xD0AC125722F4B4565AB5E91B234E50C4C6F541672AEA816BA090A0EA349ED93F DUP3 PUSH3 0x2D9 JUMP JUMPDEST PUSH3 0x2A1 PUSH32 0xB24C1025622FE38445B605F5C1A9BB02BE7F6522D24C8A159E5E47E62DBAAECF DUP3 PUSH3 0x2D9 JUMP JUMPDEST PUSH3 0x2CD PUSH32 0x23AB0E580195340A5A67800CAFA0615701EDFA22F79534A52851336E3CF8376A DUP3 PUSH3 0x2D9 JUMP JUMPDEST POP PUSH3 0x71B JUMP JUMPDEST PUSH1 0x12 SWAP1 JUMP JUMPDEST PUSH3 0x2F0 DUP3 DUP3 PUSH3 0x31C PUSH1 0x20 SHL PUSH3 0x1022 OR PUSH1 0x20 SHR JUMP JUMPDEST PUSH1 0x0 DUP3 DUP2 MSTORE PUSH1 0x8 PUSH1 0x20 SWAP1 DUP2 MSTORE PUSH1 0x40 SWAP1 SWAP2 KECCAK256 PUSH3 0x317 SWAP2 DUP4 SWAP1 PUSH3 0x10A8 PUSH3 0x3C1 DUP3 SHL OR SWAP1 SHR JUMP JUMPDEST POP POP POP JUMP JUMPDEST PUSH1 0x0 DUP3 DUP2 MSTORE PUSH1 0x7 PUSH1 0x20 SWAP1 DUP2 MSTORE PUSH1 0x40 DUP1 DUP4 KECCAK256 PUSH1 0x1 PUSH1 0x1 PUSH1 0xA0 SHL SUB DUP6 AND DUP5 MSTORE SWAP1 SWAP2 MSTORE SWAP1 KECCAK256 SLOAD PUSH1 0xFF AND PUSH3 0x3BD JUMPI PUSH1 0x0 DUP3 DUP2 MSTORE PUSH1 0x7 PUSH1 0x20 SWAP1 DUP2 MSTORE PUSH1 0x40 DUP1 DUP4 KECCAK256 PUSH1 0x1 PUSH1 0x1 PUSH1 0xA0 SHL SUB DUP6 AND DUP5 MSTORE SWAP1 SWAP2 MSTORE SWAP1 KECCAK256 DUP1 SLOAD PUSH1 0xFF NOT AND PUSH1 0x1 OR SWAP1 SSTORE PUSH3 0x37C CALLER SWAP1 JUMP JUMPDEST PUSH1 0x1 PUSH1 0x1 PUSH1 0xA0 SHL SUB AND DUP2 PUSH1 0x1 PUSH1 0x1 PUSH1 0xA0 SHL SUB AND DUP4 PUSH32 0x2F8788117E7EFF1D82E926EC794901D17C78024A50270940304540A733656F0D PUSH1 0x40 MLOAD PUSH1 0x40 MLOAD DUP1 SWAP2 SUB SWAP1 LOG4 JUMPDEST POP POP JUMP JUMPDEST PUSH1 0x0 PUSH3 0x3D8 DUP4 PUSH1 0x1 PUSH1 0x1 PUSH1 0xA0 SHL SUB DUP5 AND PUSH3 0x3E1 JUMP JUMPDEST SWAP1 POP JUMPDEST SWAP3 SWAP2 POP POP JUMP JUMPDEST PUSH1 0x0 DUP2 DUP2 MSTORE PUSH1 0x1 DUP4 ADD PUSH1 0x20 MSTORE PUSH1 0x40 DUP2 KECCAK256 SLOAD PUSH3 0x42A JUMPI POP DUP2 SLOAD PUSH1 0x1 DUP2 DUP2 ADD DUP5 SSTORE PUSH1 0x0 DUP5 DUP2 MSTORE PUSH1 0x20 DUP1 DUP3 KECCAK256 SWAP1 SWAP4 ADD DUP5 SWAP1 SSTORE DUP5 SLOAD DUP5 DUP3 MSTORE DUP3 DUP7 ADD SWAP1 SWAP4 MSTORE PUSH1 0x40 SWAP1 KECCAK256 SWAP2 SWAP1 SWAP2 SSTORE PUSH3 0x3DB JUMP JUMPDEST POP PUSH1 0x0 PUSH3 0x3DB JUMP JUMPDEST PUSH1 0x0 PUSH1 0x20 DUP3 DUP5 SUB SLT ISZERO PUSH3 0x446 JUMPI PUSH1 0x0 DUP1 REVERT JUMPDEST DUP2 MLOAD PUSH1 0x1 PUSH1 0x1 PUSH1 0xA0 SHL SUB DUP2 AND DUP2 EQ PUSH3 0x45E JUMPI PUSH1 0x0 DUP1 REVERT JUMPDEST SWAP4 SWAP3 POP POP POP JUMP JUMPDEST PUSH4 0x4E487B71 PUSH1 0xE0 SHL PUSH1 0x0 MSTORE PUSH1 0x11 PUSH1 0x4 MSTORE PUSH1 0x24 PUSH1 0x0 REVERT JUMPDEST PUSH1 0x1 DUP2 DUP2 JUMPDEST DUP1 DUP6 GT ISZERO PUSH3 0x4BC JUMPI DUP2 PUSH1 0x0 NOT DIV DUP3 GT ISZERO PUSH3 0x4A0 JUMPI PUSH3 0x4A0 PUSH3 0x465 JUMP JUMPDEST DUP1 DUP6 AND ISZERO PUSH3 0x4AE JUMPI SWAP2 DUP2 MUL SWAP2 JUMPDEST SWAP4 DUP5 SHR SWAP4 SWAP1 DUP1 MUL SWAP1 PUSH3 0x480 JUMP JUMPDEST POP SWAP3 POP SWAP3 SWAP1 POP JUMP JUMPDEST PUSH1 0x0 DUP3 PUSH3 0x4D5 JUMPI POP PUSH1 0x1 PUSH3 0x3DB JUMP JUMPDEST DUP2 PUSH3 0x4E4 JUMPI POP PUSH1 0x0 PUSH3 0x3DB JUMP JUMPDEST DUP2 PUSH1 0x1 DUP2 EQ PUSH3 0x4FD JUMPI PUSH1 0x2 DUP2 EQ PUSH3 0x508 JUMPI PUSH3 0x528 JUMP JUMPDEST PUSH1 0x1 SWAP2 POP POP PUSH3 0x3DB JUMP JUMPDEST PUSH1 0xFF DUP5 GT ISZERO PUSH3 0x51C JUMPI PUSH3 0x51C PUSH3 0x465 JUMP JUMPDEST POP POP PUSH1 0x1 DUP3 SHL PUSH3 0x3DB JUMP JUMPDEST POP PUSH1 0x20 DUP4 LT PUSH2 0x133 DUP4 LT AND PUSH1 0x4E DUP5 LT PUSH1 0xB DUP5 LT AND OR ISZERO PUSH3 0x54D JUMPI POP DUP2 DUP2 EXP PUSH3 0x3DB JUMP JUMPDEST PUSH3 0x559 DUP4 DUP4 PUSH3 0x47B JUMP JUMPDEST DUP1 PUSH1 0x0 NOT DIV DUP3 GT ISZERO PUSH3 0x570 JUMPI PUSH3 0x570 PUSH3 0x465 JUMP JUMPDEST MUL SWAP4 SWAP3 POP POP POP JUMP JUMPDEST PUSH1 0x0 PUSH3 0x3D8 PUSH1 0xFF DUP5 AND DUP4 PUSH3 0x4C4 JUMP JUMPDEST PUSH1 0x0 DUP2 PUSH1 0x0 NOT DIV DUP4 GT DUP3 ISZERO ISZERO AND ISZERO PUSH3 0x5A6 JUMPI PUSH3 0x5A6 PUSH3 0x465 JUMP JUMPDEST POP MUL SWAP1 JUMP JUMPDEST PUSH4 0x4E487B71 PUSH1 0xE0 SHL PUSH1 0x0 MSTORE PUSH1 0x41 PUSH1 0x4 MSTORE PUSH1 0x24 PUSH1 0x0 REVERT JUMPDEST PUSH1 0x1 DUP2 DUP2 SHR SWAP1 DUP3 AND DUP1 PUSH3 0x5D6 JUMPI PUSH1 0x7F DUP3 AND SWAP2 POP JUMPDEST PUSH1 0x20 DUP3 LT DUP2 SUB PUSH3 0x5F7 JUMPI PUSH4 0x4E487B71 PUSH1 0xE0 SHL PUSH1 0x0 MSTORE PUSH1 0x22 PUSH1 0x4 MSTORE PUSH1 0x24 PUSH1 0x0 REVERT JUMPDEST POP SWAP2 SWAP1 POP JUMP JUMPDEST PUSH1 0x1F DUP3 GT ISZERO PUSH3 0x317 JUMPI PUSH1 0x0 DUP2 DUP2 MSTORE PUSH1 0x20 DUP2 KECCAK256 PUSH1 0x1F DUP6 ADD PUSH1 0x5 SHR DUP2 ADD PUSH1 0x20 DUP7 LT ISZERO PUSH3 0x626 JUMPI POP DUP1 JUMPDEST PUSH1 0x1F DUP6 ADD PUSH1 0x5 SHR DUP3 ADD SWAP2 POP JUMPDEST DUP2 DUP2 LT ISZERO PUSH3 0x647 JUMPI DUP3 DUP2 SSTORE PUSH1 0x1 ADD PUSH3 0x632 JUMP JUMPDEST POP POP POP POP POP POP JUMP JUMPDEST DUP2 MLOAD PUSH1 0x1 PUSH1 0x1 PUSH1 0x40 SHL SUB DUP2 GT ISZERO PUSH3 0x66B JUMPI PUSH3 0x66B PUSH3 0x5AB JUMP JUMPDEST PUSH3 0x683 DUP2 PUSH3 0x67C DUP5 SLOAD PUSH3 0x5C1 JUMP JUMPDEST DUP5 PUSH3 0x5FD JUMP JUMPDEST PUSH1 0x20 DUP1 PUSH1 0x1F DUP4 GT PUSH1 0x1 DUP2 EQ PUSH3 0x6BB JUMPI PUSH1 0x0 DUP5 ISZERO PUSH3 0x6A2 JUMPI POP DUP6 DUP4 ADD MLOAD JUMPDEST PUSH1 0x0 NOT PUSH1 0x3 DUP7 SWAP1 SHL SHR NOT AND PUSH1 0x1 DUP6 SWAP1 SHL OR DUP6 SSTORE PUSH3 0x647 JUMP JUMPDEST PUSH1 0x0 DUP6 DUP2 MSTORE PUSH1 0x20 DUP2 KECCAK256 PUSH1 0x1F NOT DUP7 AND SWAP2 JUMPDEST DUP3 DUP2 LT ISZERO PUSH3 0x6EC JUMPI DUP9 DUP7 ADD MLOAD DUP3 SSTORE SWAP5 DUP5 ADD SWAP5 PUSH1 0x1 SWAP1 SWAP2 ADD SWAP1 DUP5 ADD PUSH3 0x6CB JUMP JUMPDEST POP DUP6 DUP3 LT ISZERO PUSH3 0x70B JUMPI DUP8 DUP6 ADD MLOAD PUSH1 0x0 NOT PUSH1 0x3 DUP9 SWAP1 SHL PUSH1 0xF8 AND SHR NOT AND DUP2 SSTORE JUMPDEST POP POP POP POP POP PUSH1 0x1 SWAP1 DUP2 SHL ADD SWAP1 SSTORE POP JUMP JUMPDEST PUSH1 0x80 MLOAD PUSH1 0xA0 MLOAD PUSH1 0xC0 MLOAD PUSH1 0xE0 MLOAD PUSH2 0x100 MLOAD PUSH2 0x120 MLOAD PUSH2 0x140 MLOAD PUSH2 0x160 MLOAD PUSH2 0x2A10 PUSH3 0x796 PUSH1 0x0 CODECOPY PUSH1 0x0 DUP2 DUP2 PUSH2 0x7E6 ADD MSTORE PUSH2 0x21CE ADD MSTORE PUSH1 0x0 PUSH2 0x14FA ADD MSTORE PUSH1 0x0 PUSH2 0x1549 ADD MSTORE PUSH1 0x0 PUSH2 0x1524 ADD MSTORE PUSH1 0x0 PUSH2 0x147D ADD MSTORE PUSH1 0x0 PUSH2 0x14A7 ADD MSTORE PUSH1 0x0 PUSH2 0x14D1 ADD MSTORE PUSH1 0x0 DUP2 DUP2 PUSH2 0x39D ADD MSTORE DUP2 DUP2 PUSH2 0x78D ADD MSTORE PUSH2 0x19B2 ADD MSTORE PUSH2 0x2A10 PUSH1 0x0 RETURN INVALID PUSH1 0x80 PUSH1 0x40 MSTORE CALLVALUE DUP1 ISZERO PUSH2 0x10 JUMPI PUSH1 0x0 DUP1 REVERT JUMPDEST POP PUSH1 0x4 CALLDATASIZE LT PUSH2 0x253 JUMPI PUSH1 0x0 CALLDATALOAD PUSH1 0xE0 SHR DUP1 PUSH4 0x42966C68 GT PUSH2 0x146 JUMPI DUP1 PUSH4 0xA217FDDF GT PUSH2 0xC3 JUMPI DUP1 PUSH4 0xCA15C873 GT PUSH2 0x87 JUMPI DUP1 PUSH4 0xCA15C873 EQ PUSH2 0x585 JUMPI DUP1 PUSH4 0xD505ACCF EQ PUSH2 0x598 JUMPI DUP1 PUSH4 0xD5391393 EQ PUSH2 0x5AB JUMPI DUP1 PUSH4 0xD547741F EQ PUSH2 0x5C0 JUMPI DUP1 PUSH4 0xDD62ED3E EQ PUSH2 0x5D3 JUMPI DUP1 PUSH4 0xE162533C EQ PUSH2 0x5E6 JUMPI PUSH1 0x0 DUP1 REVERT JUMPDEST DUP1 PUSH4 0xA217FDDF EQ PUSH2 0x531 JUMPI DUP1 PUSH4 0xA457C2D7 EQ PUSH2 0x539 JUMPI DUP1 PUSH4 0xA9059CBB EQ PUSH2 0x54C JUMPI DUP1 PUSH4 0xB6AFC4DC EQ PUSH2 0x55F JUMPI DUP1 PUSH4 0xC01BC982 EQ PUSH2 0x572 JUMPI PUSH1 0x0 DUP1 REVERT JUMPDEST DUP1 PUSH4 0x7ECEBE00 GT PUSH2 0x10A JUMPI DUP1 PUSH4 0x7ECEBE00 EQ PUSH2 0x4C5 JUMPI DUP1 PUSH4 0x889CAD06 EQ PUSH2 0x4D8 JUMPI DUP1 PUSH4 0x9010D07C EQ PUSH2 0x4EB JUMPI DUP1 PUSH4 0x91D14854 EQ PUSH2 0x516 JUMPI DUP1 PUSH4 0x95D89B41 EQ PUSH2 0x529 JUMPI PUSH1 0x0 DUP1 REVERT JUMPDEST DUP1 PUSH4 0x42966C68 EQ PUSH2 0x43C JUMPI DUP1 PUSH4 0x51BCEE27 EQ PUSH2 0x44F JUMPI DUP1 PUSH4 0x5D1EDB87 EQ PUSH2 0x476 JUMPI DUP1 PUSH4 0x70A08231 EQ PUSH2 0x489 JUMPI DUP1 PUSH4 0x79CC6790 EQ PUSH2 0x4B2 JUMPI PUSH1 0x0 DUP1 REVERT JUMPDEST DUP1 PUSH4 0x248A9CA3 GT PUSH2 0x1D4 JUMPI DUP1 PUSH4 0x36568ABE GT PUSH2 0x198 JUMPI DUP1 PUSH4 0x36568ABE EQ PUSH2 0x3C9 JUMPI DUP1 PUSH4 0x367065DE EQ PUSH2 0x3DC JUMPI DUP1 PUSH4 0x39509351 EQ PUSH2 0x3EF JUMPI DUP1 PUSH4 0x3E0B2CDA EQ PUSH2 0x402 JUMPI DUP1 PUSH4 0x40C10F19 EQ PUSH2 0x429 JUMPI PUSH1 0x0 DUP1 REVERT JUMPDEST DUP1 PUSH4 0x248A9CA3 EQ PUSH2 0x356 JUMPI DUP1 PUSH4 0x2F2FF15D EQ PUSH2 0x379 JUMPI DUP1 PUSH4 0x313CE567 EQ PUSH2 0x38C JUMPI DUP1 PUSH4 0x355274EA EQ PUSH2 0x39B JUMPI DUP1 PUSH4 0x3644E515 EQ PUSH2 0x3C1 JUMPI PUSH1 0x0 DUP1 REVERT JUMPDEST DUP1 PUSH4 0x1681F830 GT PUSH2 0x21B JUMPI DUP1 PUSH4 0x1681F830 EQ PUSH2 0x2E6 JUMPI DUP1 PUSH4 0x18160DDD EQ PUSH2 0x2FB JUMPI DUP1 PUSH4 0x1F2C5443 EQ PUSH2 0x303 JUMPI DUP1 PUSH4 0x234EAEDC EQ PUSH2 0x330 JUMPI DUP1 PUSH4 0x23B872DD EQ PUSH2 0x343 JUMPI PUSH1 0x0 DUP1 REVERT JUMPDEST DUP1 PUSH4 0x1FFC9A7 EQ PUSH2 0x258 JUMPI DUP1 PUSH4 0x6FDDE03 EQ PUSH2 0x280 JUMPI DUP1 PUSH4 0x95EA7B3 EQ PUSH2 0x295 JUMPI DUP1 PUSH4 0xA6005DA EQ PUSH2 0x2A8 JUMPI DUP1 PUSH4 0xECBD033 EQ PUSH2 0x2BF JUMPI JUMPDEST PUSH1 0x0 DUP1 REVERT JUMPDEST PUSH2 0x26B PUSH2 0x266 CALLDATASIZE PUSH1 0x4 PUSH2 0x24C0 JUMP JUMPDEST PUSH2 0x5F9 JUMP JUMPDEST PUSH1 0x40 MLOAD SWAP1 ISZERO ISZERO DUP2 MSTORE PUSH1 0x20 ADD JUMPDEST PUSH1 0x40 MLOAD DUP1 SWAP2 SUB SWAP1 RETURN JUMPDEST PUSH2 0x288 PUSH2 0x624 JUMP JUMPDEST PUSH1 0x40 MLOAD PUSH2 0x277 SWAP2 SWAP1 PUSH2 0x2516 JUMP JUMPDEST PUSH2 0x26B PUSH2 0x2A3 CALLDATASIZE PUSH1 0x4 PUSH2 0x2560 JUMP JUMPDEST PUSH2 0x6B6 JUMP JUMPDEST PUSH2 0x2B1 PUSH1 0x10 SLOAD DUP2 JUMP JUMPDEST PUSH1 0x40 MLOAD SWAP1 DUP2 MSTORE PUSH1 0x20 ADD PUSH2 0x277 JUMP JUMPDEST PUSH2 0x2B1 PUSH32 0xD0AC125722F4B4565AB5E91B234E50C4C6F541672AEA816BA090A0EA349ED93F DUP2 JUMP JUMPDEST PUSH2 0x2F9 PUSH2 0x2F4 CALLDATASIZE PUSH1 0x4 PUSH2 0x2560 JUMP JUMPDEST PUSH2 0x6CE JUMP JUMPDEST STOP JUMPDEST PUSH1 0x2 SLOAD PUSH2 0x2B1 JUMP JUMPDEST PUSH1 0xA SLOAD PUSH1 0x9 SLOAD PUSH1 0xB SLOAD PUSH1 0x40 DUP1 MLOAD SWAP4 DUP5 MSTORE PUSH1 0x20 DUP5 ADD SWAP3 SWAP1 SWAP3 MSTORE PUSH1 0x1 PUSH1 0x1 PUSH1 0xA0 SHL SUB AND SWAP1 DUP3 ADD MSTORE PUSH1 0x60 ADD PUSH2 0x277 JUMP JUMPDEST PUSH2 0x2B1 PUSH2 0x33E CALLDATASIZE PUSH1 0x4 PUSH2 0x258A JUMP JUMPDEST PUSH2 0x74C JUMP JUMPDEST PUSH2 0x26B PUSH2 0x351 CALLDATASIZE PUSH1 0x4 PUSH2 0x25A5 JUMP JUMPDEST PUSH2 0x8B1 JUMP JUMPDEST PUSH2 0x2B1 PUSH2 0x364 CALLDATASIZE PUSH1 0x4 PUSH2 0x25E1 JUMP JUMPDEST PUSH1 0x0 SWAP1 DUP2 MSTORE PUSH1 0x7 PUSH1 0x20 MSTORE PUSH1 0x40 SWAP1 KECCAK256 PUSH1 0x1 ADD SLOAD SWAP1 JUMP JUMPDEST PUSH2 0x2F9 PUSH2 0x387 CALLDATASIZE PUSH1 0x4 PUSH2 0x25FA JUMP JUMPDEST PUSH2 0x8D5 JUMP JUMPDEST PUSH1 0x40 MLOAD PUSH1 0x12 DUP2 MSTORE PUSH1 0x20 ADD PUSH2 0x277 JUMP JUMPDEST PUSH32 0x0 PUSH2 0x2B1 JUMP JUMPDEST PUSH2 0x2B1 PUSH2 0x8FF JUMP JUMPDEST PUSH2 0x2F9 PUSH2 0x3D7 CALLDATASIZE PUSH1 0x4 PUSH2 0x25FA JUMP JUMPDEST PUSH2 0x90E JUMP JUMPDEST PUSH2 0x2F9 PUSH2 0x3EA CALLDATASIZE PUSH1 0x4 PUSH2 0x2626 JUMP JUMPDEST PUSH2 0x991 JUMP JUMPDEST PUSH2 0x26B PUSH2 0x3FD CALLDATASIZE PUSH1 0x4 PUSH2 0x2560 JUMP JUMPDEST PUSH2 0xB25 JUMP JUMPDEST PUSH2 0x2B1 PUSH32 0xB24C1025622FE38445B605F5C1A9BB02BE7F6522D24C8A159E5E47E62DBAAECF DUP2 JUMP JUMPDEST PUSH2 0x2F9 PUSH2 0x437 CALLDATASIZE PUSH1 0x4 PUSH2 0x2560 JUMP JUMPDEST PUSH2 0xB47 JUMP JUMPDEST PUSH2 0x2F9 PUSH2 0x44A CALLDATASIZE PUSH1 0x4 PUSH2 0x25E1 JUMP JUMPDEST PUSH2 0xB69 JUMP JUMPDEST PUSH2 0x2B1 PUSH32 0x23AB0E580195340A5A67800CAFA0615701EDFA22F79534A52851336E3CF8376A DUP2 JUMP JUMPDEST PUSH2 0x2B1 PUSH2 0x484 CALLDATASIZE PUSH1 0x4 PUSH2 0x25E1 JUMP JUMPDEST PUSH2 0xB76 JUMP JUMPDEST PUSH2 0x2B1 PUSH2 0x497 CALLDATASIZE PUSH1 0x4 PUSH2 0x258A JUMP JUMPDEST PUSH1 0x1 PUSH1 0x1 PUSH1 0xA0 SHL SUB AND PUSH1 0x0 SWAP1 DUP2 MSTORE PUSH1 0x20 DUP2 SWAP1 MSTORE PUSH1 0x40 SWAP1 KECCAK256 SLOAD SWAP1 JUMP JUMPDEST PUSH2 0x2F9 PUSH2 0x4C0 CALLDATASIZE PUSH1 0x4 PUSH2 0x2560 JUMP JUMPDEST PUSH2 0xBAD JUMP JUMPDEST PUSH2 0x2B1 PUSH2 0x4D3 CALLDATASIZE PUSH1 0x4 PUSH2 0x258A JUMP JUMPDEST PUSH2 0xBC2 JUMP JUMPDEST PUSH2 0x2F9 PUSH2 0x4E6 CALLDATASIZE PUSH1 0x4 PUSH2 0x25E1 JUMP JUMPDEST PUSH2 0xBE0 JUMP JUMPDEST PUSH2 0x4FE PUSH2 0x4F9 CALLDATASIZE PUSH1 0x4 PUSH2 0x265B JUMP JUMPDEST PUSH2 0xCBF JUMP JUMPDEST PUSH1 0x40 MLOAD PUSH1 0x1 PUSH1 0x1 PUSH1 0xA0 SHL SUB SWAP1 SWAP2 AND DUP2 MSTORE PUSH1 0x20 ADD PUSH2 0x277 JUMP JUMPDEST PUSH2 0x26B PUSH2 0x524 CALLDATASIZE PUSH1 0x4 PUSH2 0x25FA JUMP JUMPDEST PUSH2 0xCDE JUMP JUMPDEST PUSH2 0x288 PUSH2 0xD09 JUMP JUMPDEST PUSH2 0x2B1 PUSH1 0x0 DUP2 JUMP JUMPDEST PUSH2 0x26B PUSH2 0x547 CALLDATASIZE PUSH1 0x4 PUSH2 0x2560 JUMP JUMPDEST PUSH2 0xD18 JUMP JUMPDEST PUSH2 0x26B PUSH2 0x55A CALLDATASIZE PUSH1 0x4 PUSH2 0x2560 JUMP JUMPDEST PUSH2 0xD93 JUMP JUMPDEST PUSH2 0x2F9 PUSH2 0x56D CALLDATASIZE PUSH1 0x4 PUSH2 0x267D JUMP JUMPDEST PUSH2 0xDA1 JUMP JUMPDEST PUSH2 0x26B PUSH2 0x580 CALLDATASIZE PUSH1 0x4 PUSH2 0x258A JUMP JUMPDEST PUSH2 0xE15 JUMP JUMPDEST PUSH2 0x2B1 PUSH2 0x593 CALLDATASIZE PUSH1 0x4 PUSH2 0x25E1 JUMP JUMPDEST PUSH2 0xE22 JUMP JUMPDEST PUSH2 0x2F9 PUSH2 0x5A6 CALLDATASIZE PUSH1 0x4 PUSH2 0x26F8 JUMP JUMPDEST PUSH2 0xE39 JUMP JUMPDEST PUSH2 0x2B1 PUSH1 0x0 DUP1 MLOAD PUSH1 0x20 PUSH2 0x299B DUP4 CODECOPY DUP2 MLOAD SWAP2 MSTORE DUP2 JUMP JUMPDEST PUSH2 0x2F9 PUSH2 0x5CE CALLDATASIZE PUSH1 0x4 PUSH2 0x25FA JUMP JUMPDEST PUSH2 0xF9D JUMP JUMPDEST PUSH2 0x2B1 PUSH2 0x5E1 CALLDATASIZE PUSH1 0x4 PUSH2 0x276B JUMP JUMPDEST PUSH2 0xFC2 JUMP JUMPDEST PUSH2 0x2F9 PUSH2 0x5F4 CALLDATASIZE PUSH1 0x4 PUSH2 0x258A JUMP JUMPDEST PUSH2 0xFED JUMP JUMPDEST PUSH1 0x0 PUSH1 0x1 PUSH1 0x1 PUSH1 0xE0 SHL SUB NOT DUP3 AND PUSH4 0x5A05180F PUSH1 0xE0 SHL EQ DUP1 PUSH2 0x61E JUMPI POP PUSH2 0x61E DUP3 PUSH2 0x10BD JUMP JUMPDEST SWAP3 SWAP2 POP POP JUMP JUMPDEST PUSH1 0x60 PUSH1 0x3 DUP1 SLOAD PUSH2 0x633 SWAP1 PUSH2 0x2795 JUMP JUMPDEST DUP1 PUSH1 0x1F ADD PUSH1 0x20 DUP1 SWAP2 DIV MUL PUSH1 0x20 ADD PUSH1 0x40 MLOAD SWAP1 DUP2 ADD PUSH1 0x40 MSTORE DUP1 SWAP3 SWAP2 SWAP1 DUP2 DUP2 MSTORE PUSH1 0x20 ADD DUP3 DUP1 SLOAD PUSH2 0x65F SWAP1 PUSH2 0x2795 JUMP JUMPDEST DUP1 ISZERO PUSH2 0x6AC JUMPI DUP1 PUSH1 0x1F LT PUSH2 0x681 JUMPI PUSH2 0x100 DUP1 DUP4 SLOAD DIV MUL DUP4 MSTORE SWAP2 PUSH1 0x20 ADD SWAP2 PUSH2 0x6AC JUMP JUMPDEST DUP3 ADD SWAP2 SWAP1 PUSH1 0x0 MSTORE PUSH1 0x20 PUSH1 0x0 KECCAK256 SWAP1 JUMPDEST DUP2 SLOAD DUP2 MSTORE SWAP1 PUSH1 0x1 ADD SWAP1 PUSH1 0x20 ADD DUP1 DUP4 GT PUSH2 0x68F JUMPI DUP3 SWAP1 SUB PUSH1 0x1F AND DUP3 ADD SWAP2 JUMPDEST POP POP POP POP POP SWAP1 POP SWAP1 JUMP JUMPDEST PUSH1 0x0 CALLER PUSH2 0x6C4 DUP2 DUP6 DUP6 PUSH2 0x10F2 JUMP JUMPDEST POP PUSH1 0x1 SWAP4 SWAP3 POP POP POP JUMP JUMPDEST PUSH32 0x23AB0E580195340A5A67800CAFA0615701EDFA22F79534A52851336E3CF8376A PUSH2 0x6F8 DUP2 PUSH2 0x1217 JUMP JUMPDEST PUSH2 0x704 PUSH1 0xC DUP5 DUP5 PUSH2 0x1221 JUMP JUMPDEST POP PUSH1 0x40 DUP1 MLOAD PUSH1 0x1 PUSH1 0x1 PUSH1 0xA0 SHL SUB DUP6 AND DUP2 MSTORE PUSH1 0x20 DUP2 ADD DUP5 SWAP1 MSTORE PUSH32 0xA1B8D777C2527547849718A04F45B8E5B0F29119C47F9298B20A85F0AD275424 SWAP2 ADD PUSH1 0x40 MLOAD DUP1 SWAP2 SUB SWAP1 LOG1 POP POP POP JUMP JUMPDEST PUSH1 0x0 PUSH2 0x757 DUP3 PUSH2 0xE15 JUMP JUMPDEST ISZERO PUSH2 0x767 JUMPI PUSH2 0x61E PUSH1 0xC DUP4 PUSH2 0x1237 JUMP JUMPDEST PUSH2 0x77F PUSH1 0x0 DUP1 MLOAD PUSH1 0x20 PUSH2 0x299B DUP4 CODECOPY DUP2 MLOAD SWAP2 MSTORE DUP4 PUSH2 0xCDE JUMP JUMPDEST ISZERO PUSH2 0x7B1 JUMPI PUSH1 0x2 SLOAD PUSH2 0x61E SWAP1 PUSH32 0x0 PUSH2 0x27DF JUMP JUMPDEST PUSH1 0x10 SLOAD PUSH3 0xF4240 SUB PUSH2 0x7DB JUMPI PUSH1 0x1 PUSH1 0x1 PUSH1 0xA0 SHL SUB DUP3 AND PUSH1 0x0 SWAP1 DUP2 MSTORE PUSH1 0x20 DUP2 SWAP1 MSTORE PUSH1 0x40 SWAP1 KECCAK256 SLOAD PUSH2 0x61E JUMP JUMPDEST PUSH1 0x0 PUSH3 0x278D00 PUSH2 0x80B PUSH32 0x0 TIMESTAMP PUSH2 0x27DF JUMP JUMPDEST PUSH2 0x815 SWAP2 SWAP1 PUSH2 0x27F6 JUMP JUMPDEST PUSH1 0x1 PUSH1 0x1 PUSH1 0xA0 SHL SUB DUP5 AND PUSH1 0x0 SWAP1 DUP2 MSTORE PUSH1 0xF PUSH1 0x20 MSTORE PUSH1 0x40 SWAP1 KECCAK256 PUSH1 0x1 ADD SLOAD SUB PUSH2 0x851 JUMPI POP PUSH1 0x1 PUSH1 0x1 PUSH1 0xA0 SHL SUB DUP3 AND PUSH1 0x0 SWAP1 DUP2 MSTORE PUSH1 0xF PUSH1 0x20 MSTORE PUSH1 0x40 SWAP1 KECCAK256 SLOAD JUMPDEST PUSH1 0x0 PUSH3 0xF4240 PUSH1 0x10 SLOAD DUP4 PUSH2 0x87A DUP8 PUSH1 0x1 PUSH1 0x1 PUSH1 0xA0 SHL SUB AND PUSH1 0x0 SWAP1 DUP2 MSTORE PUSH1 0x20 DUP2 SWAP1 MSTORE PUSH1 0x40 SWAP1 KECCAK256 SLOAD SWAP1 JUMP JUMPDEST PUSH2 0x884 SWAP2 SWAP1 PUSH2 0x2818 JUMP JUMPDEST PUSH2 0x88E SWAP2 SWAP1 PUSH2 0x2830 JUMP JUMPDEST PUSH2 0x898 SWAP2 SWAP1 PUSH2 0x27F6 JUMP JUMPDEST SWAP1 POP PUSH2 0x8A4 DUP3 DUP3 PUSH2 0x27DF JUMP JUMPDEST SWAP5 SWAP4 POP POP POP POP JUMP JUMPDEST SWAP2 SWAP1 POP JUMP JUMPDEST PUSH1 0x0 CALLER PUSH2 0x8BF DUP6 DUP3 DUP6 PUSH2 0x124C JUMP JUMPDEST PUSH2 0x8CA DUP6 DUP6 DUP6 PUSH2 0x12C6 JUMP JUMPDEST POP PUSH1 0x1 SWAP5 SWAP4 POP POP POP POP JUMP JUMPDEST PUSH1 0x0 DUP3 DUP2 MSTORE PUSH1 0x7 PUSH1 0x20 MSTORE PUSH1 0x40 SWAP1 KECCAK256 PUSH1 0x1 ADD SLOAD PUSH2 0x8F0 DUP2 PUSH2 0x1217 JUMP JUMPDEST PUSH2 0x8FA DUP4 DUP4 PUSH2 0x144E JUMP JUMPDEST POP POP POP JUMP JUMPDEST PUSH1 0x0 PUSH2 0x909 PUSH2 0x1470 JUMP JUMPDEST SWAP1 POP SWAP1 JUMP JUMPDEST PUSH1 0x1 PUSH1 0x1 PUSH1 0xA0 SHL SUB DUP2 AND CALLER EQ PUSH2 0x983 JUMPI PUSH1 0x40 MLOAD PUSH3 0x461BCD PUSH1 0xE5 SHL DUP2 MSTORE PUSH1 0x20 PUSH1 0x4 DUP3 ADD MSTORE PUSH1 0x2F PUSH1 0x24 DUP3 ADD MSTORE PUSH32 0x416363657373436F6E74726F6C3A2063616E206F6E6C792072656E6F756E6365 PUSH1 0x44 DUP3 ADD MSTORE PUSH15 0x103937B632B9903337B91039B2B633 PUSH1 0x89 SHL PUSH1 0x64 DUP3 ADD MSTORE PUSH1 0x84 ADD JUMPDEST PUSH1 0x40 MLOAD DUP1 SWAP2 SUB SWAP1 REVERT JUMPDEST PUSH2 0x98D DUP3 DUP3 PUSH2 0x1597 JUMP JUMPDEST POP POP JUMP JUMPDEST PUSH32 0xD0AC125722F4B4565AB5E91B234E50C4C6F541672AEA816BA090A0EA349ED93F PUSH2 0x9BB DUP2 PUSH2 0x1217 JUMP JUMPDEST DUP3 ISZERO DUP1 PUSH2 0x9C6 JUMPI POP DUP4 ISZERO JUMPDEST PUSH2 0xA46 JUMPI PUSH1 0x40 MLOAD PUSH3 0x461BCD PUSH1 0xE5 SHL DUP2 MSTORE PUSH1 0x20 PUSH1 0x4 DUP3 ADD MSTORE PUSH1 0x45 PUSH1 0x24 DUP3 ADD MSTORE PUSH32 0x5472616E73616374696F6E4665653A2043616E6E6F742073657420666565416D PUSH1 0x44 DUP3 ADD MSTORE PUSH32 0x6F756E7420616E64206665654672616374696F6E206174207468652073616D65 PUSH1 0x64 DUP3 ADD MSTORE PUSH5 0x2074696D65 PUSH1 0xD8 SHL PUSH1 0x84 DUP3 ADD MSTORE PUSH1 0xA4 ADD PUSH2 0x97A JUMP JUMPDEST PUSH3 0x186A0 DUP4 GT ISZERO PUSH2 0xAB5 JUMPI PUSH1 0x40 MLOAD PUSH3 0x461BCD PUSH1 0xE5 SHL DUP2 MSTORE PUSH1 0x20 PUSH1 0x4 DUP3 ADD MSTORE PUSH1 0x33 PUSH1 0x24 DUP3 ADD MSTORE PUSH32 0x5472616E73616374696F6E4665653A20557020746F20313025207472616E7361 PUSH1 0x44 DUP3 ADD MSTORE PUSH19 0x18DD1A5BDB9199594818D85B881899481CD95D PUSH1 0x6A SHL PUSH1 0x64 DUP3 ADD MSTORE PUSH1 0x84 ADD PUSH2 0x97A JUMP JUMPDEST PUSH1 0xA DUP5 SWAP1 SSTORE PUSH1 0x9 DUP4 SWAP1 SSTORE PUSH1 0xB DUP1 SLOAD PUSH1 0x1 PUSH1 0x1 PUSH1 0xA0 SHL SUB NOT AND PUSH1 0x1 PUSH1 0x1 PUSH1 0xA0 SHL SUB DUP5 AND SWAP1 DUP2 OR SWAP1 SWAP2 SSTORE PUSH1 0x40 DUP1 MLOAD DUP7 DUP2 MSTORE PUSH1 0x20 DUP2 ADD DUP7 SWAP1 MSTORE SWAP1 DUP2 ADD SWAP2 SWAP1 SWAP2 MSTORE PUSH32 0xD75A7916F83EE976AE8E04E3F9B46C9B16B546303F09F1FC20ECCB6CD6BC476D SWAP1 PUSH1 0x60 ADD PUSH1 0x40 MLOAD DUP1 SWAP2 SUB SWAP1 LOG1 POP POP POP POP JUMP JUMPDEST PUSH1 0x0 CALLER PUSH2 0x6C4 DUP2 DUP6 DUP6 PUSH2 0xB38 DUP4 DUP4 PUSH2 0xFC2 JUMP JUMPDEST PUSH2 0xB42 SWAP2 SWAP1 PUSH2 0x2818 JUMP JUMPDEST PUSH2 0x10F2 JUMP JUMPDEST PUSH1 0x0 DUP1 MLOAD PUSH1 0x20 PUSH2 0x299B DUP4 CODECOPY DUP2 MLOAD SWAP2 MSTORE PUSH2 0xB5F DUP2 PUSH2 0x1217 JUMP JUMPDEST PUSH2 0x8FA DUP4 DUP4 PUSH2 0x15B9 JUMP JUMPDEST PUSH2 0xB73 CALLER DUP3 PUSH2 0x15C3 JUMP JUMPDEST POP JUMP JUMPDEST PUSH1 0xA SLOAD PUSH1 0x0 SWAP1 ISZERO PUSH2 0xB89 JUMPI POP POP PUSH1 0xA SLOAD SWAP1 JUMP JUMPDEST PUSH1 0x9 SLOAD ISZERO PUSH2 0x8AC JUMPI PUSH3 0xF4240 PUSH1 0x9 SLOAD DUP4 PUSH2 0xBA3 SWAP2 SWAP1 PUSH2 0x2830 JUMP JUMPDEST PUSH2 0x61E SWAP2 SWAP1 PUSH2 0x27F6 JUMP JUMPDEST PUSH2 0xBB8 DUP3 CALLER DUP4 PUSH2 0x124C JUMP JUMPDEST PUSH2 0x98D DUP3 DUP3 PUSH2 0x15C3 JUMP JUMPDEST PUSH1 0x1 PUSH1 0x1 PUSH1 0xA0 SHL SUB DUP2 AND PUSH1 0x0 SWAP1 DUP2 MSTORE PUSH1 0x5 PUSH1 0x20 MSTORE PUSH1 0x40 DUP2 KECCAK256 SLOAD PUSH2 0x61E JUMP JUMPDEST PUSH32 0xB24C1025622FE38445B605F5C1A9BB02BE7F6522D24C8A159E5E47E62DBAAECF PUSH2 0xC0A DUP2 PUSH2 0x1217 JUMP JUMPDEST PUSH3 0xF4240 DUP3 GT ISZERO PUSH2 0xC83 JUMPI PUSH1 0x40 MLOAD PUSH3 0x461BCD PUSH1 0xE5 SHL DUP2 MSTORE PUSH1 0x20 PUSH1 0x4 DUP3 ADD MSTORE PUSH1 0x3A PUSH1 0x24 DUP3 ADD MSTORE PUSH32 0x5472616E73666572436F6E74726F6C3A206D6178696D756D206672616374696F PUSH1 0x44 DUP3 ADD MSTORE PUSH32 0x6E2069732031302A2A362028657175616C20746F203130302529000000000000 PUSH1 0x64 DUP3 ADD MSTORE PUSH1 0x84 ADD PUSH2 0x97A JUMP JUMPDEST PUSH1 0x10 DUP3 SWAP1 SSTORE PUSH1 0x40 MLOAD DUP3 DUP2 MSTORE PUSH32 0x8D9496D9654D41070E87AC1A35F8F18CBDB631E1B26C6805C9720151208AA25F SWAP1 PUSH1 0x20 ADD PUSH1 0x40 MLOAD DUP1 SWAP2 SUB SWAP1 LOG1 POP POP JUMP JUMPDEST PUSH1 0x0 DUP3 DUP2 MSTORE PUSH1 0x8 PUSH1 0x20 MSTORE PUSH1 0x40 DUP2 KECCAK256 PUSH2 0xCD7 SWAP1 DUP4 PUSH2 0x170B JUMP JUMPDEST SWAP4 SWAP3 POP POP POP JUMP JUMPDEST PUSH1 0x0 SWAP2 DUP3 MSTORE PUSH1 0x7 PUSH1 0x20 SWAP1 DUP2 MSTORE PUSH1 0x40 DUP1 DUP5 KECCAK256 PUSH1 0x1 PUSH1 0x1 PUSH1 0xA0 SHL SUB SWAP4 SWAP1 SWAP4 AND DUP5 MSTORE SWAP2 SWAP1 MSTORE SWAP1 KECCAK256 SLOAD PUSH1 0xFF AND SWAP1 JUMP JUMPDEST PUSH1 0x60 PUSH1 0x4 DUP1 SLOAD PUSH2 0x633 SWAP1 PUSH2 0x2795 JUMP JUMPDEST PUSH1 0x0 CALLER DUP2 PUSH2 0xD26 DUP3 DUP7 PUSH2 0xFC2 JUMP JUMPDEST SWAP1 POP DUP4 DUP2 LT ISZERO PUSH2 0xD86 JUMPI PUSH1 0x40 MLOAD PUSH3 0x461BCD PUSH1 0xE5 SHL DUP2 MSTORE PUSH1 0x20 PUSH1 0x4 DUP3 ADD MSTORE PUSH1 0x25 PUSH1 0x24 DUP3 ADD MSTORE PUSH32 0x45524332303A2064656372656173656420616C6C6F77616E63652062656C6F77 PUSH1 0x44 DUP3 ADD MSTORE PUSH5 0x207A65726F PUSH1 0xD8 SHL PUSH1 0x64 DUP3 ADD MSTORE PUSH1 0x84 ADD PUSH2 0x97A JUMP JUMPDEST PUSH2 0x8CA DUP3 DUP7 DUP7 DUP5 SUB PUSH2 0x10F2 JUMP JUMPDEST PUSH1 0x0 CALLER PUSH2 0x6C4 DUP2 DUP6 DUP6 PUSH2 0x12C6 JUMP JUMPDEST PUSH1 0x0 DUP1 MLOAD PUSH1 0x20 PUSH2 0x299B DUP4 CODECOPY DUP2 MLOAD SWAP2 MSTORE PUSH2 0xDB9 DUP2 PUSH2 0x1217 JUMP JUMPDEST PUSH1 0x0 JUMPDEST PUSH2 0xFFFF DUP2 AND DUP5 GT ISZERO PUSH2 0xE0E JUMPI PUSH2 0xDFC DUP6 DUP6 DUP4 PUSH2 0xFFFF AND DUP2 DUP2 LT PUSH2 0xDE1 JUMPI PUSH2 0xDE1 PUSH2 0x284F JUMP JUMPDEST SWAP1 POP PUSH1 0x20 MUL ADD PUSH1 0x20 DUP2 ADD SWAP1 PUSH2 0xDF6 SWAP2 SWAP1 PUSH2 0x258A JUMP JUMPDEST DUP5 PUSH2 0x15B9 JUMP JUMPDEST DUP1 PUSH2 0xE06 DUP2 PUSH2 0x2865 JUMP JUMPDEST SWAP2 POP POP PUSH2 0xDBC JUMP JUMPDEST POP POP POP POP POP JUMP JUMPDEST PUSH1 0x0 PUSH2 0x61E PUSH1 0xC DUP4 PUSH2 0x1717 JUMP JUMPDEST PUSH1 0x0 DUP2 DUP2 MSTORE PUSH1 0x8 PUSH1 0x20 MSTORE PUSH1 0x40 DUP2 KECCAK256 PUSH2 0x61E SWAP1 PUSH2 0x172C JUMP JUMPDEST DUP4 TIMESTAMP GT ISZERO PUSH2 0xE89 JUMPI PUSH1 0x40 MLOAD PUSH3 0x461BCD PUSH1 0xE5 SHL DUP2 MSTORE PUSH1 0x20 PUSH1 0x4 DUP3 ADD MSTORE PUSH1 0x1D PUSH1 0x24 DUP3 ADD MSTORE PUSH32 0x45524332305065726D69743A206578706972656420646561646C696E65000000 PUSH1 0x44 DUP3 ADD MSTORE PUSH1 0x64 ADD PUSH2 0x97A JUMP JUMPDEST PUSH1 0x0 PUSH32 0x6E71EDAE12B1B97F4D1F60370FEF10105FA2FAAE0126114A169C64845D6126C9 DUP9 DUP9 DUP9 PUSH2 0xEB8 DUP13 PUSH2 0x1736 JUMP JUMPDEST PUSH1 0x40 DUP1 MLOAD PUSH1 0x20 DUP2 ADD SWAP7 SWAP1 SWAP7 MSTORE PUSH1 0x1 PUSH1 0x1 PUSH1 0xA0 SHL SUB SWAP5 DUP6 AND SWAP1 DUP7 ADD MSTORE SWAP3 SWAP1 SWAP2 AND PUSH1 0x60 DUP5 ADD MSTORE PUSH1 0x80 DUP4 ADD MSTORE PUSH1 0xA0 DUP3 ADD MSTORE PUSH1 0xC0 DUP2 ADD DUP7 SWAP1 MSTORE PUSH1 0xE0 ADD PUSH1 0x40 MLOAD PUSH1 0x20 DUP2 DUP4 SUB SUB DUP2 MSTORE SWAP1 PUSH1 0x40 MSTORE DUP1 MLOAD SWAP1 PUSH1 0x20 ADD KECCAK256 SWAP1 POP PUSH1 0x0 PUSH2 0xF13 DUP3 PUSH2 0x175E JUMP JUMPDEST SWAP1 POP PUSH1 0x0 PUSH2 0xF23 DUP3 DUP8 DUP8 DUP8 PUSH2 0x17AC JUMP JUMPDEST SWAP1 POP DUP10 PUSH1 0x1 PUSH1 0x1 PUSH1 0xA0 SHL SUB AND DUP2 PUSH1 0x1 PUSH1 0x1 PUSH1 0xA0 SHL SUB AND EQ PUSH2 0xF86 JUMPI PUSH1 0x40 MLOAD PUSH3 0x461BCD PUSH1 0xE5 SHL DUP2 MSTORE PUSH1 0x20 PUSH1 0x4 DUP3 ADD MSTORE PUSH1 0x1E PUSH1 0x24 DUP3 ADD MSTORE PUSH32 0x45524332305065726D69743A20696E76616C6964207369676E61747572650000 PUSH1 0x44 DUP3 ADD MSTORE PUSH1 0x64 ADD PUSH2 0x97A JUMP JUMPDEST PUSH2 0xF91 DUP11 DUP11 DUP11 PUSH2 0x10F2 JUMP JUMPDEST POP POP POP POP POP POP POP POP POP POP JUMP JUMPDEST PUSH1 0x0 DUP3 DUP2 MSTORE PUSH1 0x7 PUSH1 0x20 MSTORE PUSH1 0x40 SWAP1 KECCAK256 PUSH1 0x1 ADD SLOAD PUSH2 0xFB8 DUP2 PUSH2 0x1217 JUMP JUMPDEST PUSH2 0x8FA DUP4 DUP4 PUSH2 0x1597 JUMP JUMPDEST PUSH1 0x1 PUSH1 0x1 PUSH1 0xA0 SHL SUB SWAP2 DUP3 AND PUSH1 0x0 SWAP1 DUP2 MSTORE PUSH1 0x1 PUSH1 0x20 SWAP1 DUP2 MSTORE PUSH1 0x40 DUP1 DUP4 KECCAK256 SWAP4 SWAP1 SWAP5 AND DUP3 MSTORE SWAP2 SWAP1 SWAP2 MSTORE KECCAK256 SLOAD SWAP1 JUMP JUMPDEST PUSH32 0x23AB0E580195340A5A67800CAFA0615701EDFA22F79534A52851336E3CF8376A PUSH2 0x1017 DUP2 PUSH2 0x1217 JUMP JUMPDEST PUSH2 0x8FA PUSH1 0xC DUP4 PUSH2 0x17D4 JUMP JUMPDEST PUSH2 0x102C DUP3 DUP3 PUSH2 0xCDE JUMP JUMPDEST PUSH2 0x98D JUMPI PUSH1 0x0 DUP3 DUP2 MSTORE PUSH1 0x7 PUSH1 0x20 SWAP1 DUP2 MSTORE PUSH1 0x40 DUP1 DUP4 KECCAK256 PUSH1 0x1 PUSH1 0x1 PUSH1 0xA0 SHL SUB DUP6 AND DUP5 MSTORE SWAP1 SWAP2 MSTORE SWAP1 KECCAK256 DUP1 SLOAD PUSH1 0xFF NOT AND PUSH1 0x1 OR SWAP1 SSTORE PUSH2 0x1064 CALLER SWAP1 JUMP JUMPDEST PUSH1 0x1 PUSH1 0x1 PUSH1 0xA0 SHL SUB AND DUP2 PUSH1 0x1 PUSH1 0x1 PUSH1 0xA0 SHL SUB AND DUP4 PUSH32 0x2F8788117E7EFF1D82E926EC794901D17C78024A50270940304540A733656F0D PUSH1 0x40 MLOAD PUSH1 0x40 MLOAD DUP1 SWAP2 SUB SWAP1 LOG4 POP POP JUMP JUMPDEST PUSH1 0x0 PUSH2 0xCD7 DUP4 PUSH1 0x1 PUSH1 0x1 PUSH1 0xA0 SHL SUB DUP5 AND PUSH2 0x17E9 JUMP JUMPDEST PUSH1 0x0 PUSH1 0x1 PUSH1 0x1 PUSH1 0xE0 SHL SUB NOT DUP3 AND PUSH4 0x7965DB0B PUSH1 0xE0 SHL EQ DUP1 PUSH2 0x61E JUMPI POP PUSH4 0x1FFC9A7 PUSH1 0xE0 SHL PUSH1 0x1 PUSH1 0x1 PUSH1 0xE0 SHL SUB NOT DUP4 AND EQ PUSH2 0x61E JUMP JUMPDEST PUSH1 0x1 PUSH1 0x1 PUSH1 0xA0 SHL SUB DUP4 AND PUSH2 0x1154 JUMPI PUSH1 0x40 MLOAD PUSH3 0x461BCD PUSH1 0xE5 SHL DUP2 MSTORE PUSH1 0x20 PUSH1 0x4 DUP3 ADD MSTORE PUSH1 0x24 DUP1 DUP3 ADD MSTORE PUSH32 0x45524332303A20617070726F76652066726F6D20746865207A65726F20616464 PUSH1 0x44 DUP3 ADD MSTORE PUSH4 0x72657373 PUSH1 0xE0 SHL PUSH1 0x64 DUP3 ADD MSTORE PUSH1 0x84 ADD PUSH2 0x97A JUMP JUMPDEST PUSH1 0x1 PUSH1 0x1 PUSH1 0xA0 SHL SUB DUP3 AND PUSH2 0x11B5 JUMPI PUSH1 0x40 MLOAD PUSH3 0x461BCD PUSH1 0xE5 SHL DUP2 MSTORE PUSH1 0x20 PUSH1 0x4 DUP3 ADD MSTORE PUSH1 0x22 PUSH1 0x24 DUP3 ADD MSTORE PUSH32 0x45524332303A20617070726F766520746F20746865207A65726F206164647265 PUSH1 0x44 DUP3 ADD MSTORE PUSH2 0x7373 PUSH1 0xF0 SHL PUSH1 0x64 DUP3 ADD MSTORE PUSH1 0x84 ADD PUSH2 0x97A JUMP JUMPDEST PUSH1 0x1 PUSH1 0x1 PUSH1 0xA0 SHL SUB DUP4 DUP2 AND PUSH1 0x0 DUP2 DUP2 MSTORE PUSH1 0x1 PUSH1 0x20 SWAP1 DUP2 MSTORE PUSH1 0x40 DUP1 DUP4 KECCAK256 SWAP5 DUP8 AND DUP1 DUP5 MSTORE SWAP5 DUP3 MSTORE SWAP2 DUP3 SWAP1 KECCAK256 DUP6 SWAP1 SSTORE SWAP1 MLOAD DUP5 DUP2 MSTORE PUSH32 0x8C5BE1E5EBEC7D5BD14F71427D1E84F3DD0314C0F7B2291E5B200AC8C7C3B925 SWAP2 ADD JUMPDEST PUSH1 0x40 MLOAD DUP1 SWAP2 SUB SWAP1 LOG3 POP POP POP JUMP JUMPDEST PUSH2 0xB73 DUP2 CALLER PUSH2 0x1838 JUMP JUMPDEST PUSH1 0x0 PUSH2 0x8A4 DUP5 PUSH1 0x1 PUSH1 0x1 PUSH1 0xA0 SHL SUB DUP6 AND DUP5 PUSH2 0x189C JUMP JUMPDEST PUSH1 0x0 PUSH2 0xCD7 DUP4 PUSH1 0x1 PUSH1 0x1 PUSH1 0xA0 SHL SUB DUP5 AND PUSH2 0x18B9 JUMP JUMPDEST PUSH1 0x0 PUSH2 0x1258 DUP5 DUP5 PUSH2 0xFC2 JUMP JUMPDEST SWAP1 POP PUSH1 0x0 NOT DUP2 EQ PUSH2 0x12C0 JUMPI DUP2 DUP2 LT ISZERO PUSH2 0x12B3 JUMPI PUSH1 0x40 MLOAD PUSH3 0x461BCD PUSH1 0xE5 SHL DUP2 MSTORE PUSH1 0x20 PUSH1 0x4 DUP3 ADD MSTORE PUSH1 0x1D PUSH1 0x24 DUP3 ADD MSTORE PUSH32 0x45524332303A20696E73756666696369656E7420616C6C6F77616E6365000000 PUSH1 0x44 DUP3 ADD MSTORE PUSH1 0x64 ADD PUSH2 0x97A JUMP JUMPDEST PUSH2 0x12C0 DUP5 DUP5 DUP5 DUP5 SUB PUSH2 0x10F2 JUMP JUMPDEST POP POP POP POP JUMP JUMPDEST PUSH1 0x1 PUSH1 0x1 PUSH1 0xA0 SHL SUB DUP4 AND PUSH2 0x132A JUMPI PUSH1 0x40 MLOAD PUSH3 0x461BCD PUSH1 0xE5 SHL DUP2 MSTORE PUSH1 0x20 PUSH1 0x4 DUP3 ADD MSTORE PUSH1 0x25 PUSH1 0x24 DUP3 ADD MSTORE PUSH32 0x45524332303A207472616E736665722066726F6D20746865207A65726F206164 PUSH1 0x44 DUP3 ADD MSTORE PUSH5 0x6472657373 PUSH1 0xD8 SHL PUSH1 0x64 DUP3 ADD MSTORE PUSH1 0x84 ADD PUSH2 0x97A JUMP JUMPDEST PUSH1 0x1 PUSH1 0x1 PUSH1 0xA0 SHL SUB DUP3 AND PUSH2 0x138C JUMPI PUSH1 0x40 MLOAD PUSH3 0x461BCD PUSH1 0xE5 SHL DUP2 MSTORE PUSH1 0x20 PUSH1 0x4 DUP3 ADD MSTORE PUSH1 0x23 PUSH1 0x24 DUP3 ADD MSTORE PUSH32 0x45524332303A207472616E7366657220746F20746865207A65726F2061646472 PUSH1 0x44 DUP3 ADD MSTORE PUSH3 0x657373 PUSH1 0xE8 SHL PUSH1 0x64 DUP3 ADD MSTORE PUSH1 0x84 ADD PUSH2 0x97A JUMP JUMPDEST PUSH2 0x1397 DUP4 DUP4 DUP4 PUSH2 0x1929 JUMP JUMPDEST PUSH1 0x1 PUSH1 0x1 PUSH1 0xA0 SHL SUB DUP4 AND PUSH1 0x0 SWAP1 DUP2 MSTORE PUSH1 0x20 DUP2 SWAP1 MSTORE PUSH1 0x40 SWAP1 KECCAK256 SLOAD DUP2 DUP2 LT ISZERO PUSH2 0x13D0 JUMPI PUSH1 0x40 MLOAD PUSH3 0x461BCD PUSH1 0xE5 SHL DUP2 MSTORE PUSH1 0x4 ADD PUSH2 0x97A SWAP1 PUSH2 0x2886 JUMP JUMPDEST PUSH1 0x1 PUSH1 0x1 PUSH1 0xA0 SHL SUB DUP1 DUP6 AND PUSH1 0x0 SWAP1 DUP2 MSTORE PUSH1 0x20 DUP2 SWAP1 MSTORE PUSH1 0x40 DUP1 DUP3 KECCAK256 DUP6 DUP6 SUB SWAP1 SSTORE SWAP2 DUP6 AND DUP2 MSTORE SWAP1 DUP2 KECCAK256 DUP1 SLOAD DUP5 SWAP3 SWAP1 PUSH2 0x1407 SWAP1 DUP5 SWAP1 PUSH2 0x2818 JUMP JUMPDEST SWAP3 POP POP DUP2 SWAP1 SSTORE POP DUP3 PUSH1 0x1 PUSH1 0x1 PUSH1 0xA0 SHL SUB AND DUP5 PUSH1 0x1 PUSH1 0x1 PUSH1 0xA0 SHL SUB AND PUSH1 0x0 DUP1 MLOAD PUSH1 0x20 PUSH2 0x29BB DUP4 CODECOPY DUP2 MLOAD SWAP2 MSTORE DUP5 PUSH1 0x40 MLOAD PUSH2 0x1441 SWAP2 DUP2 MSTORE PUSH1 0x20 ADD SWAP1 JUMP JUMPDEST PUSH1 0x40 MLOAD DUP1 SWAP2 SUB SWAP1 LOG3 PUSH2 0x12C0 JUMP JUMPDEST PUSH2 0x1458 DUP3 DUP3 PUSH2 0x1022 JUMP JUMPDEST PUSH1 0x0 DUP3 DUP2 MSTORE PUSH1 0x8 PUSH1 0x20 MSTORE PUSH1 0x40 SWAP1 KECCAK256 PUSH2 0x8FA SWAP1 DUP3 PUSH2 0x10A8 JUMP JUMPDEST PUSH1 0x0 ADDRESS PUSH1 0x1 PUSH1 0x1 PUSH1 0xA0 SHL SUB PUSH32 0x0 AND EQ DUP1 ISZERO PUSH2 0x14C9 JUMPI POP PUSH32 0x0 CHAINID EQ JUMPDEST ISZERO PUSH2 0x14F3 JUMPI POP PUSH32 0x0 SWAP1 JUMP JUMPDEST POP PUSH1 0x40 DUP1 MLOAD PUSH32 0x0 PUSH1 0x20 DUP1 DUP4 ADD SWAP2 SWAP1 SWAP2 MSTORE PUSH32 0x0 DUP3 DUP5 ADD MSTORE PUSH32 0x0 PUSH1 0x60 DUP4 ADD MSTORE CHAINID PUSH1 0x80 DUP4 ADD MSTORE ADDRESS PUSH1 0xA0 DUP1 DUP5 ADD SWAP2 SWAP1 SWAP2 MSTORE DUP4 MLOAD DUP1 DUP5 SUB SWAP1 SWAP2 ADD DUP2 MSTORE PUSH1 0xC0 SWAP1 SWAP3 ADD SWAP1 SWAP3 MSTORE DUP1 MLOAD SWAP2 ADD KECCAK256 SWAP1 JUMP JUMPDEST PUSH2 0x15A1 DUP3 DUP3 PUSH2 0x1934 JUMP JUMPDEST PUSH1 0x0 DUP3 DUP2 MSTORE PUSH1 0x8 PUSH1 0x20 MSTORE PUSH1 0x40 SWAP1 KECCAK256 PUSH2 0x8FA SWAP1 DUP3 PUSH2 0x199B JUMP JUMPDEST PUSH2 0x98D DUP3 DUP3 PUSH2 0x19B0 JUMP JUMPDEST PUSH1 0x1 PUSH1 0x1 PUSH1 0xA0 SHL SUB DUP3 AND PUSH2 0x1623 JUMPI PUSH1 0x40 MLOAD PUSH3 0x461BCD PUSH1 0xE5 SHL DUP2 MSTORE PUSH1 0x20 PUSH1 0x4 DUP3 ADD MSTORE PUSH1 0x21 PUSH1 0x24 DUP3 ADD MSTORE PUSH32 0x45524332303A206275726E2066726F6D20746865207A65726F20616464726573 PUSH1 0x44 DUP3 ADD MSTORE PUSH1 0x73 PUSH1 0xF8 SHL PUSH1 0x64 DUP3 ADD MSTORE PUSH1 0x84 ADD PUSH2 0x97A JUMP JUMPDEST PUSH2 0x162F DUP3 PUSH1 0x0 DUP4 PUSH2 0x1929 JUMP JUMPDEST PUSH1 0x1 PUSH1 0x1 PUSH1 0xA0 SHL SUB DUP3 AND PUSH1 0x0 SWAP1 DUP2 MSTORE PUSH1 0x20 DUP2 SWAP1 MSTORE PUSH1 0x40 SWAP1 KECCAK256 SLOAD DUP2 DUP2 LT ISZERO PUSH2 0x16A3 JUMPI PUSH1 0x40 MLOAD PUSH3 0x461BCD PUSH1 0xE5 SHL DUP2 MSTORE PUSH1 0x20 PUSH1 0x4 DUP3 ADD MSTORE PUSH1 0x22 PUSH1 0x24 DUP3 ADD MSTORE PUSH32 0x45524332303A206275726E20616D6F756E7420657863656564732062616C616E PUSH1 0x44 DUP3 ADD MSTORE PUSH2 0x6365 PUSH1 0xF0 SHL PUSH1 0x64 DUP3 ADD MSTORE PUSH1 0x84 ADD PUSH2 0x97A JUMP JUMPDEST PUSH1 0x1 PUSH1 0x1 PUSH1 0xA0 SHL SUB DUP4 AND PUSH1 0x0 SWAP1 DUP2 MSTORE PUSH1 0x20 DUP2 SWAP1 MSTORE PUSH1 0x40 DUP2 KECCAK256 DUP4 DUP4 SUB SWAP1 SSTORE PUSH1 0x2 DUP1 SLOAD DUP5 SWAP3 SWAP1 PUSH2 0x16D2 SWAP1 DUP5 SWAP1 PUSH2 0x27DF JUMP JUMPDEST SWAP1 SWAP2 SSTORE POP POP PUSH1 0x40 MLOAD DUP3 DUP2 MSTORE PUSH1 0x0 SWAP1 PUSH1 0x1 PUSH1 0x1 PUSH1 0xA0 SHL SUB DUP6 AND SWAP1 PUSH1 0x0 DUP1 MLOAD PUSH1 0x20 PUSH2 0x29BB DUP4 CODECOPY DUP2 MLOAD SWAP2 MSTORE SWAP1 PUSH1 0x20 ADD PUSH1 0x40 MLOAD DUP1 SWAP2 SUB SWAP1 LOG3 POP POP POP JUMP JUMPDEST PUSH1 0x0 PUSH2 0xCD7 DUP4 DUP4 PUSH2 0x1A3D JUMP JUMPDEST PUSH1 0x0 PUSH2 0xCD7 DUP4 PUSH1 0x1 PUSH1 0x1 PUSH1 0xA0 SHL SUB DUP5 AND PUSH2 0x1A67 JUMP JUMPDEST PUSH1 0x0 PUSH2 0x61E DUP3 SLOAD SWAP1 JUMP JUMPDEST PUSH1 0x1 PUSH1 0x1 PUSH1 0xA0 SHL SUB DUP2 AND PUSH1 0x0 SWAP1 DUP2 MSTORE PUSH1 0x5 PUSH1 0x20 MSTORE PUSH1 0x40 SWAP1 KECCAK256 DUP1 SLOAD PUSH1 0x1 DUP2 ADD DUP3 SSTORE SWAP1 JUMPDEST POP SWAP2 SWAP1 POP JUMP JUMPDEST PUSH1 0x0 PUSH2 0x61E PUSH2 0x176B PUSH2 0x1470 JUMP JUMPDEST DUP4 PUSH1 0x40 MLOAD PUSH2 0x1901 PUSH1 0xF0 SHL PUSH1 0x20 DUP3 ADD MSTORE PUSH1 0x22 DUP2 ADD DUP4 SWAP1 MSTORE PUSH1 0x42 DUP2 ADD DUP3 SWAP1 MSTORE PUSH1 0x0 SWAP1 PUSH1 0x62 ADD PUSH1 0x40 MLOAD PUSH1 0x20 DUP2 DUP4 SUB SUB DUP2 MSTORE SWAP1 PUSH1 0x40 MSTORE DUP1 MLOAD SWAP1 PUSH1 0x20 ADD KECCAK256 SWAP1 POP SWAP3 SWAP2 POP POP JUMP JUMPDEST PUSH1 0x0 DUP1 PUSH1 0x0 PUSH2 0x17BD DUP8 DUP8 DUP8 DUP8 PUSH2 0x1A73 JUMP JUMPDEST SWAP2 POP SWAP2 POP PUSH2 0x17CA DUP2 PUSH2 0x1B60 JUMP JUMPDEST POP SWAP6 SWAP5 POP POP POP POP POP JUMP JUMPDEST PUSH1 0x0 PUSH2 0xCD7 DUP4 PUSH1 0x1 PUSH1 0x1 PUSH1 0xA0 SHL SUB DUP5 AND PUSH2 0x1D16 JUMP JUMPDEST PUSH1 0x0 DUP2 DUP2 MSTORE PUSH1 0x1 DUP4 ADD PUSH1 0x20 MSTORE PUSH1 0x40 DUP2 KECCAK256 SLOAD PUSH2 0x1830 JUMPI POP DUP2 SLOAD PUSH1 0x1 DUP2 DUP2 ADD DUP5 SSTORE PUSH1 0x0 DUP5 DUP2 MSTORE PUSH1 0x20 DUP1 DUP3 KECCAK256 SWAP1 SWAP4 ADD DUP5 SWAP1 SSTORE DUP5 SLOAD DUP5 DUP3 MSTORE DUP3 DUP7 ADD SWAP1 SWAP4 MSTORE PUSH1 0x40 SWAP1 KECCAK256 SWAP2 SWAP1 SWAP2 SSTORE PUSH2 0x61E JUMP JUMPDEST POP PUSH1 0x0 PUSH2 0x61E JUMP JUMPDEST PUSH2 0x1842 DUP3 DUP3 PUSH2 0xCDE JUMP JUMPDEST PUSH2 0x98D JUMPI PUSH2 0x185A DUP2 PUSH1 0x1 PUSH1 0x1 PUSH1 0xA0 SHL SUB AND PUSH1 0x14 PUSH2 0x1D33 JUMP JUMPDEST PUSH2 0x1865 DUP4 PUSH1 0x20 PUSH2 0x1D33 JUMP JUMPDEST PUSH1 0x40 MLOAD PUSH1 0x20 ADD PUSH2 0x1876 SWAP3 SWAP2 SWAP1 PUSH2 0x28CC JUMP JUMPDEST PUSH1 0x40 DUP1 MLOAD PUSH1 0x1F NOT DUP2 DUP5 SUB ADD DUP2 MSTORE SWAP1 DUP3 SWAP1 MSTORE PUSH3 0x461BCD PUSH1 0xE5 SHL DUP3 MSTORE PUSH2 0x97A SWAP2 PUSH1 0x4 ADD PUSH2 0x2516 JUMP JUMPDEST PUSH1 0x0 DUP3 DUP2 MSTORE PUSH1 0x2 DUP5 ADD PUSH1 0x20 MSTORE PUSH1 0x40 DUP2 KECCAK256 DUP3 SWAP1 SSTORE PUSH2 0x8A4 DUP5 DUP5 PUSH2 0x1ECF JUMP JUMPDEST PUSH1 0x0 DUP2 DUP2 MSTORE PUSH1 0x2 DUP4 ADD PUSH1 0x20 MSTORE PUSH1 0x40 DUP2 KECCAK256 SLOAD DUP1 ISZERO ISZERO DUP1 PUSH2 0x18DD JUMPI POP PUSH2 0x18DD DUP5 DUP5 PUSH2 0x1A67 JUMP JUMPDEST PUSH2 0xCD7 JUMPI PUSH1 0x40 MLOAD PUSH3 0x461BCD PUSH1 0xE5 SHL DUP2 MSTORE PUSH1 0x20 PUSH1 0x4 DUP3 ADD MSTORE PUSH1 0x1E PUSH1 0x24 DUP3 ADD MSTORE PUSH32 0x456E756D657261626C654D61703A206E6F6E6578697374656E74206B65790000 PUSH1 0x44 DUP3 ADD MSTORE PUSH1 0x64 ADD PUSH2 0x97A JUMP JUMPDEST PUSH2 0x8FA DUP4 DUP4 DUP4 PUSH2 0x1EDB JUMP JUMPDEST PUSH2 0x193E DUP3 DUP3 PUSH2 0xCDE JUMP JUMPDEST ISZERO PUSH2 0x98D JUMPI PUSH1 0x0 DUP3 DUP2 MSTORE PUSH1 0x7 PUSH1 0x20 SWAP1 DUP2 MSTORE PUSH1 0x40 DUP1 DUP4 KECCAK256 PUSH1 0x1 PUSH1 0x1 PUSH1 0xA0 SHL SUB DUP6 AND DUP1 DUP6 MSTORE SWAP3 MSTORE DUP1 DUP4 KECCAK256 DUP1 SLOAD PUSH1 0xFF NOT AND SWAP1 SSTORE MLOAD CALLER SWAP3 DUP6 SWAP2 PUSH32 0xF6391F5C32D9C69D2A47EA670B442974B53935D1EDC7FD64EB21E047A839171B SWAP2 SWAP1 LOG4 POP POP JUMP JUMPDEST PUSH1 0x0 PUSH2 0xCD7 DUP4 PUSH1 0x1 PUSH1 0x1 PUSH1 0xA0 SHL SUB DUP5 AND PUSH2 0x1F0D JUMP JUMPDEST PUSH32 0x0 DUP2 PUSH2 0x19DB PUSH1 0x2 SLOAD SWAP1 JUMP JUMPDEST PUSH2 0x19E5 SWAP2 SWAP1 PUSH2 0x2818 JUMP JUMPDEST GT ISZERO PUSH2 0x1A33 JUMPI PUSH1 0x40 MLOAD PUSH3 0x461BCD PUSH1 0xE5 SHL DUP2 MSTORE PUSH1 0x20 PUSH1 0x4 DUP3 ADD MSTORE PUSH1 0x19 PUSH1 0x24 DUP3 ADD MSTORE PUSH32 0x45524332304361707065643A2063617020657863656564656400000000000000 PUSH1 0x44 DUP3 ADD MSTORE PUSH1 0x64 ADD PUSH2 0x97A JUMP JUMPDEST PUSH2 0x98D DUP3 DUP3 PUSH2 0x2000 JUMP JUMPDEST PUSH1 0x0 DUP3 PUSH1 0x0 ADD DUP3 DUP2 SLOAD DUP2 LT PUSH2 0x1A54 JUMPI PUSH2 0x1A54 PUSH2 0x284F JUMP JUMPDEST SWAP1 PUSH1 0x0 MSTORE PUSH1 0x20 PUSH1 0x0 KECCAK256 ADD SLOAD SWAP1 POP SWAP3 SWAP2 POP POP JUMP JUMPDEST PUSH1 0x0 PUSH2 0xCD7 DUP4 DUP4 PUSH2 0x20D9 JUMP JUMPDEST PUSH1 0x0 DUP1 PUSH32 0x7FFFFFFFFFFFFFFFFFFFFFFFFFFFFFFF5D576E7357A4501DDFE92F46681B20A0 DUP4 GT ISZERO PUSH2 0x1AAA JUMPI POP PUSH1 0x0 SWAP1 POP PUSH1 0x3 PUSH2 0x1B57 JUMP JUMPDEST DUP5 PUSH1 0xFF AND PUSH1 0x1B EQ ISZERO DUP1 ISZERO PUSH2 0x1AC2 JUMPI POP DUP5 PUSH1 0xFF AND PUSH1 0x1C EQ ISZERO JUMPDEST ISZERO PUSH2 0x1AD3 JUMPI POP PUSH1 0x0 SWAP1 POP PUSH1 0x4 PUSH2 0x1B57 JUMP JUMPDEST PUSH1 0x40 DUP1 MLOAD PUSH1 0x0 DUP1 DUP3 MSTORE PUSH1 0x20 DUP3 ADD DUP1 DUP5 MSTORE DUP10 SWAP1 MSTORE PUSH1 0xFF DUP9 AND SWAP3 DUP3 ADD SWAP3 SWAP1 SWAP3 MSTORE PUSH1 0x60 DUP2 ADD DUP7 SWAP1 MSTORE PUSH1 0x80 DUP2 ADD DUP6 SWAP1 MSTORE PUSH1 0x1 SWAP1 PUSH1 0xA0 ADD PUSH1 0x20 PUSH1 0x40 MLOAD PUSH1 0x20 DUP2 SUB SWAP1 DUP1 DUP5 SUB SWAP1 DUP6 GAS STATICCALL ISZERO DUP1 ISZERO PUSH2 0x1B27 JUMPI RETURNDATASIZE PUSH1 0x0 DUP1 RETURNDATACOPY RETURNDATASIZE PUSH1 0x0 REVERT JUMPDEST POP POP PUSH1 0x40 MLOAD PUSH1 0x1F NOT ADD MLOAD SWAP2 POP POP PUSH1 0x1 PUSH1 0x1 PUSH1 0xA0 SHL SUB DUP2 AND PUSH2 0x1B50 JUMPI PUSH1 0x0 PUSH1 0x1 SWAP3 POP SWAP3 POP POP PUSH2 0x1B57 JUMP JUMPDEST SWAP2 POP PUSH1 0x0 SWAP1 POP JUMPDEST SWAP5 POP SWAP5 SWAP3 POP POP POP JUMP JUMPDEST PUSH1 0x0 DUP2 PUSH1 0x4 DUP2 GT ISZERO PUSH2 0x1B74 JUMPI PUSH2 0x1B74 PUSH2 0x2941 JUMP JUMPDEST SUB PUSH2 0x1B7C JUMPI POP JUMP JUMPDEST PUSH1 0x1 DUP2 PUSH1 0x4 DUP2 GT ISZERO PUSH2 0x1B90 JUMPI PUSH2 0x1B90 PUSH2 0x2941 JUMP JUMPDEST SUB PUSH2 0x1BDD JUMPI PUSH1 0x40 MLOAD PUSH3 0x461BCD PUSH1 0xE5 SHL DUP2 MSTORE PUSH1 0x20 PUSH1 0x4 DUP3 ADD MSTORE PUSH1 0x18 PUSH1 0x24 DUP3 ADD MSTORE PUSH32 0x45434453413A20696E76616C6964207369676E61747572650000000000000000 PUSH1 0x44 DUP3 ADD MSTORE PUSH1 0x64 ADD PUSH2 0x97A JUMP JUMPDEST PUSH1 0x2 DUP2 PUSH1 0x4 DUP2 GT ISZERO PUSH2 0x1BF1 JUMPI PUSH2 0x1BF1 PUSH2 0x2941 JUMP JUMPDEST SUB PUSH2 0x1C3E JUMPI PUSH1 0x40 MLOAD PUSH3 0x461BCD PUSH1 0xE5 SHL DUP2 MSTORE PUSH1 0x20 PUSH1 0x4 DUP3 ADD MSTORE PUSH1 0x1F PUSH1 0x24 DUP3 ADD MSTORE PUSH32 0x45434453413A20696E76616C6964207369676E6174757265206C656E67746800 PUSH1 0x44 DUP3 ADD MSTORE PUSH1 0x64 ADD PUSH2 0x97A JUMP JUMPDEST PUSH1 0x3 DUP2 PUSH1 0x4 DUP2 GT ISZERO PUSH2 0x1C52 JUMPI PUSH2 0x1C52 PUSH2 0x2941 JUMP JUMPDEST SUB PUSH2 0x1CAA JUMPI PUSH1 0x40 MLOAD PUSH3 0x461BCD PUSH1 0xE5 SHL DUP2 MSTORE PUSH1 0x20 PUSH1 0x4 DUP3 ADD MSTORE PUSH1 0x22 PUSH1 0x24 DUP3 ADD MSTORE PUSH32 0x45434453413A20696E76616C6964207369676E6174757265202773272076616C PUSH1 0x44 DUP3 ADD MSTORE PUSH2 0x7565 PUSH1 0xF0 SHL PUSH1 0x64 DUP3 ADD MSTORE PUSH1 0x84 ADD PUSH2 0x97A JUMP JUMPDEST PUSH1 0x4 DUP2 PUSH1 0x4 DUP2 GT ISZERO PUSH2 0x1CBE JUMPI PUSH2 0x1CBE PUSH2 0x2941 JUMP JUMPDEST SUB PUSH2 0xB73 JUMPI PUSH1 0x40 MLOAD PUSH3 0x461BCD PUSH1 0xE5 SHL DUP2 MSTORE PUSH1 0x20 PUSH1 0x4 DUP3 ADD MSTORE PUSH1 0x22 PUSH1 0x24 DUP3 ADD MSTORE PUSH32 0x45434453413A20696E76616C6964207369676E6174757265202776272076616C PUSH1 0x44 DUP3 ADD MSTORE PUSH2 0x7565 PUSH1 0xF0 SHL PUSH1 0x64 DUP3 ADD MSTORE PUSH1 0x84 ADD PUSH2 0x97A JUMP JUMPDEST PUSH1 0x0 DUP2 DUP2 MSTORE PUSH1 0x2 DUP4 ADD PUSH1 0x20 MSTORE PUSH1 0x40 DUP2 KECCAK256 DUP2 SWAP1 SSTORE PUSH2 0xCD7 DUP4 DUP4 PUSH2 0x20F1 JUMP JUMPDEST PUSH1 0x60 PUSH1 0x0 PUSH2 0x1D42 DUP4 PUSH1 0x2 PUSH2 0x2830 JUMP JUMPDEST PUSH2 0x1D4D SWAP1 PUSH1 0x2 PUSH2 0x2818 JUMP JUMPDEST PUSH8 0xFFFFFFFFFFFFFFFF DUP2 GT ISZERO PUSH2 0x1D65 JUMPI PUSH2 0x1D65 PUSH2 0x2957 JUMP JUMPDEST PUSH1 0x40 MLOAD SWAP1 DUP1 DUP3 MSTORE DUP1 PUSH1 0x1F ADD PUSH1 0x1F NOT AND PUSH1 0x20 ADD DUP3 ADD PUSH1 0x40 MSTORE DUP1 ISZERO PUSH2 0x1D8F JUMPI PUSH1 0x20 DUP3 ADD DUP2 DUP1 CALLDATASIZE DUP4 CALLDATACOPY ADD SWAP1 POP JUMPDEST POP SWAP1 POP PUSH1 0x3 PUSH1 0xFC SHL DUP2 PUSH1 0x0 DUP2 MLOAD DUP2 LT PUSH2 0x1DAA JUMPI PUSH2 0x1DAA PUSH2 0x284F JUMP JUMPDEST PUSH1 0x20 ADD ADD SWAP1 PUSH1 0x1 PUSH1 0x1 PUSH1 0xF8 SHL SUB NOT AND SWAP1 DUP2 PUSH1 0x0 BYTE SWAP1 MSTORE8 POP PUSH1 0xF PUSH1 0xFB SHL DUP2 PUSH1 0x1 DUP2 MLOAD DUP2 LT PUSH2 0x1DD9 JUMPI PUSH2 0x1DD9 PUSH2 0x284F JUMP JUMPDEST PUSH1 0x20 ADD ADD SWAP1 PUSH1 0x1 PUSH1 0x1 PUSH1 0xF8 SHL SUB NOT AND SWAP1 DUP2 PUSH1 0x0 BYTE SWAP1 MSTORE8 POP PUSH1 0x0 PUSH2 0x1DFD DUP5 PUSH1 0x2 PUSH2 0x2830 JUMP JUMPDEST PUSH2 0x1E08 SWAP1 PUSH1 0x1 PUSH2 0x2818 JUMP JUMPDEST SWAP1 POP JUMPDEST PUSH1 0x1 DUP2 GT ISZERO PUSH2 0x1E80 JUMPI PUSH16 0x181899199A1A9B1B9C1CB0B131B232B3 PUSH1 0x81 SHL DUP6 PUSH1 0xF AND PUSH1 0x10 DUP2 LT PUSH2 0x1E3C JUMPI PUSH2 0x1E3C PUSH2 0x284F JUMP JUMPDEST BYTE PUSH1 0xF8 SHL DUP3 DUP3 DUP2 MLOAD DUP2 LT PUSH2 0x1E52 JUMPI PUSH2 0x1E52 PUSH2 0x284F JUMP JUMPDEST PUSH1 0x20 ADD ADD SWAP1 PUSH1 0x1 PUSH1 0x1 PUSH1 0xF8 SHL SUB NOT AND SWAP1 DUP2 PUSH1 0x0 BYTE SWAP1 MSTORE8 POP PUSH1 0x4 SWAP5 SWAP1 SWAP5 SHR SWAP4 PUSH2 0x1E79 DUP2 PUSH2 0x296D JUMP JUMPDEST SWAP1 POP PUSH2 0x1E0B JUMP JUMPDEST POP DUP4 ISZERO PUSH2 0xCD7 JUMPI PUSH1 0x40 MLOAD PUSH3 0x461BCD PUSH1 0xE5 SHL DUP2 MSTORE PUSH1 0x20 PUSH1 0x4 DUP3 ADD DUP2 SWAP1 MSTORE PUSH1 0x24 DUP3 ADD MSTORE PUSH32 0x537472696E67733A20686578206C656E67746820696E73756666696369656E74 PUSH1 0x44 DUP3 ADD MSTORE PUSH1 0x64 ADD PUSH2 0x97A JUMP JUMPDEST PUSH1 0x0 PUSH2 0xCD7 DUP4 DUP4 PUSH2 0x17E9 JUMP JUMPDEST PUSH1 0x1 PUSH1 0x1 PUSH1 0xA0 SHL SUB DUP4 AND PUSH2 0x1EF8 JUMPI PUSH2 0x1EF3 CALLER DUP3 PUSH2 0x20FD JUMP JUMPDEST PUSH2 0x1F02 JUMP JUMPDEST PUSH2 0x1F02 DUP4 DUP3 PUSH2 0x20FD JUMP JUMPDEST PUSH2 0x8FA DUP4 DUP4 DUP4 PUSH2 0x2340 JUMP JUMPDEST PUSH1 0x0 DUP2 DUP2 MSTORE PUSH1 0x1 DUP4 ADD PUSH1 0x20 MSTORE PUSH1 0x40 DUP2 KECCAK256 SLOAD DUP1 ISZERO PUSH2 0x1FF6 JUMPI PUSH1 0x0 PUSH2 0x1F31 PUSH1 0x1 DUP4 PUSH2 0x27DF JUMP JUMPDEST DUP6 SLOAD SWAP1 SWAP2 POP PUSH1 0x0 SWAP1 PUSH2 0x1F45 SWAP1 PUSH1 0x1 SWAP1 PUSH2 0x27DF JUMP JUMPDEST SWAP1 POP DUP2 DUP2 EQ PUSH2 0x1FAA JUMPI PUSH1 0x0 DUP7 PUSH1 0x0 ADD DUP3 DUP2 SLOAD DUP2 LT PUSH2 0x1F65 JUMPI PUSH2 0x1F65 PUSH2 0x284F JUMP JUMPDEST SWAP1 PUSH1 0x0 MSTORE PUSH1 0x20 PUSH1 0x0 KECCAK256 ADD SLOAD SWAP1 POP DUP1 DUP8 PUSH1 0x0 ADD DUP5 DUP2 SLOAD DUP2 LT PUSH2 0x1F88 JUMPI PUSH2 0x1F88 PUSH2 0x284F JUMP JUMPDEST PUSH1 0x0 SWAP2 DUP3 MSTORE PUSH1 0x20 DUP1 DUP4 KECCAK256 SWAP1 SWAP2 ADD SWAP3 SWAP1 SWAP3 SSTORE SWAP2 DUP3 MSTORE PUSH1 0x1 DUP9 ADD SWAP1 MSTORE PUSH1 0x40 SWAP1 KECCAK256 DUP4 SWAP1 SSTORE JUMPDEST DUP6 SLOAD DUP7 SWAP1 DUP1 PUSH2 0x1FBB JUMPI PUSH2 0x1FBB PUSH2 0x2984 JUMP JUMPDEST PUSH1 0x1 SWAP1 SUB DUP2 DUP2 SWAP1 PUSH1 0x0 MSTORE PUSH1 0x20 PUSH1 0x0 KECCAK256 ADD PUSH1 0x0 SWAP1 SSTORE SWAP1 SSTORE DUP6 PUSH1 0x1 ADD PUSH1 0x0 DUP7 DUP2 MSTORE PUSH1 0x20 ADD SWAP1 DUP2 MSTORE PUSH1 0x20 ADD PUSH1 0x0 KECCAK256 PUSH1 0x0 SWAP1 SSTORE PUSH1 0x1 SWAP4 POP POP POP POP PUSH2 0x61E JUMP JUMPDEST PUSH1 0x0 SWAP2 POP POP PUSH2 0x61E JUMP JUMPDEST PUSH1 0x1 PUSH1 0x1 PUSH1 0xA0 SHL SUB DUP3 AND PUSH2 0x2056 JUMPI PUSH1 0x40 MLOAD PUSH3 0x461BCD PUSH1 0xE5 SHL DUP2 MSTORE PUSH1 0x20 PUSH1 0x4 DUP3 ADD MSTORE PUSH1 0x1F PUSH1 0x24 DUP3 ADD MSTORE PUSH32 0x45524332303A206D696E7420746F20746865207A65726F206164647265737300 PUSH1 0x44 DUP3 ADD MSTORE PUSH1 0x64 ADD PUSH2 0x97A JUMP JUMPDEST PUSH2 0x2062 PUSH1 0x0 DUP4 DUP4 PUSH2 0x1929 JUMP JUMPDEST DUP1 PUSH1 0x2 PUSH1 0x0 DUP3 DUP3 SLOAD PUSH2 0x2074 SWAP2 SWAP1 PUSH2 0x2818 JUMP JUMPDEST SWAP1 SWAP2 SSTORE POP POP PUSH1 0x1 PUSH1 0x1 PUSH1 0xA0 SHL SUB DUP3 AND PUSH1 0x0 SWAP1 DUP2 MSTORE PUSH1 0x20 DUP2 SWAP1 MSTORE PUSH1 0x40 DUP2 KECCAK256 DUP1 SLOAD DUP4 SWAP3 SWAP1 PUSH2 0x20A1 SWAP1 DUP5 SWAP1 PUSH2 0x2818 JUMP JUMPDEST SWAP1 SWAP2 SSTORE POP POP PUSH1 0x40 MLOAD DUP2 DUP2 MSTORE PUSH1 0x1 PUSH1 0x1 PUSH1 0xA0 SHL SUB DUP4 AND SWAP1 PUSH1 0x0 SWAP1 PUSH1 0x0 DUP1 MLOAD PUSH1 0x20 PUSH2 0x29BB DUP4 CODECOPY DUP2 MLOAD SWAP2 MSTORE SWAP1 PUSH1 0x20 ADD PUSH1 0x40 MLOAD DUP1 SWAP2 SUB SWAP1 LOG3 POP POP JUMP JUMPDEST PUSH1 0x0 DUP2 DUP2 MSTORE PUSH1 0x1 DUP4 ADD PUSH1 0x20 MSTORE PUSH1 0x40 DUP2 KECCAK256 SLOAD ISZERO ISZERO PUSH2 0xCD7 JUMP JUMPDEST PUSH1 0x0 PUSH2 0xCD7 DUP4 DUP4 PUSH2 0x1F0D JUMP JUMPDEST PUSH2 0x2106 DUP3 PUSH2 0xE15 JUMP JUMPDEST ISZERO PUSH2 0x2195 JUMPI PUSH1 0x0 PUSH2 0x2118 PUSH1 0xC DUP5 PUSH2 0x1237 JUMP JUMPDEST SWAP1 POP DUP1 DUP3 GT ISZERO PUSH2 0x217E JUMPI PUSH1 0x40 MLOAD PUSH3 0x461BCD PUSH1 0xE5 SHL DUP2 MSTORE PUSH1 0x20 PUSH1 0x4 DUP3 ADD MSTORE PUSH1 0x2B PUSH1 0x24 DUP3 ADD MSTORE PUSH32 0x5472616E73666572436F6E74726F6C3A20616D6F756E74206578636565647320 PUSH1 0x44 DUP3 ADD MSTORE PUSH11 0x1CDC195B99081B1A5B5A5D PUSH1 0xAA SHL PUSH1 0x64 DUP3 ADD MSTORE PUSH1 0x84 ADD PUSH2 0x97A JUMP JUMPDEST PUSH2 0x12C0 DUP4 PUSH2 0x218C DUP5 DUP5 PUSH2 0x27DF JUMP JUMPDEST PUSH1 0xC SWAP2 SWAP1 PUSH2 0x1221 JUMP JUMPDEST PUSH3 0xF4240 PUSH1 0x10 SLOAD LT DUP1 ISZERO PUSH2 0x21BE JUMPI POP PUSH2 0x21BC PUSH1 0x0 DUP1 MLOAD PUSH1 0x20 PUSH2 0x299B DUP4 CODECOPY DUP2 MLOAD SWAP2 MSTORE CALLER PUSH2 0xCDE JUMP JUMPDEST ISZERO JUMPDEST ISZERO PUSH2 0x98D JUMPI PUSH1 0x0 PUSH3 0x278D00 PUSH2 0x21F3 PUSH32 0x0 TIMESTAMP PUSH2 0x27DF JUMP JUMPDEST PUSH2 0x21FD SWAP2 SWAP1 PUSH2 0x27F6 JUMP JUMPDEST PUSH1 0x1 PUSH1 0x1 PUSH1 0xA0 SHL SUB DUP5 AND PUSH1 0x0 SWAP1 DUP2 MSTORE PUSH1 0xF PUSH1 0x20 MSTORE PUSH1 0x40 DUP2 KECCAK256 PUSH1 0x1 ADD SLOAD SWAP2 SWAP3 POP SWAP1 DUP3 SWAP1 SUB PUSH2 0x223F JUMPI POP PUSH1 0x1 PUSH1 0x1 PUSH1 0xA0 SHL SUB DUP4 AND PUSH1 0x0 SWAP1 DUP2 MSTORE PUSH1 0xF PUSH1 0x20 MSTORE PUSH1 0x40 SWAP1 KECCAK256 SLOAD JUMPDEST PUSH1 0x0 PUSH2 0x224B DUP5 DUP4 PUSH2 0x2818 JUMP JUMPDEST SWAP1 POP PUSH1 0x0 PUSH3 0xF4240 PUSH1 0x10 SLOAD DUP5 PUSH2 0x2276 DUP10 PUSH1 0x1 PUSH1 0x1 PUSH1 0xA0 SHL SUB AND PUSH1 0x0 SWAP1 DUP2 MSTORE PUSH1 0x20 DUP2 SWAP1 MSTORE PUSH1 0x40 SWAP1 KECCAK256 SLOAD SWAP1 JUMP JUMPDEST PUSH2 0x2280 SWAP2 SWAP1 PUSH2 0x2818 JUMP JUMPDEST PUSH2 0x228A SWAP2 SWAP1 PUSH2 0x2830 JUMP JUMPDEST PUSH2 0x2294 SWAP2 SWAP1 PUSH2 0x27F6 JUMP JUMPDEST SWAP1 POP DUP1 DUP3 GT ISZERO PUSH2 0x2302 JUMPI PUSH1 0x40 MLOAD PUSH3 0x461BCD PUSH1 0xE5 SHL DUP2 MSTORE PUSH1 0x20 PUSH1 0x4 DUP3 ADD MSTORE PUSH1 0x33 PUSH1 0x24 DUP3 ADD MSTORE PUSH32 0x5472616E73666572436F6E74726F6C3A20616D6F756E74206578636565647320 PUSH1 0x44 DUP3 ADD MSTORE PUSH19 0x1B5BDB9D1A1B1E481CDC195B99081B1A5B5A5D PUSH1 0x6A SHL PUSH1 0x64 DUP3 ADD MSTORE PUSH1 0x84 ADD PUSH2 0x97A JUMP JUMPDEST POP PUSH1 0x40 DUP1 MLOAD DUP1 DUP3 ADD DUP3 MSTORE SWAP2 DUP3 MSTORE PUSH1 0x20 DUP1 DUP4 ADD SWAP5 DUP6 MSTORE PUSH1 0x1 PUSH1 0x1 PUSH1 0xA0 SHL SUB DUP8 AND PUSH1 0x0 SWAP1 DUP2 MSTORE PUSH1 0xF SWAP1 SWAP2 MSTORE KECCAK256 SWAP1 MLOAD DUP2 SSTORE SWAP2 MLOAD PUSH1 0x1 SWAP1 SWAP3 ADD SWAP2 SWAP1 SWAP2 SSTORE POP POP POP JUMP JUMPDEST PUSH2 0x8FA CALLER DUP3 PUSH2 0x235D PUSH1 0x0 DUP1 MLOAD PUSH1 0x20 PUSH2 0x299B DUP4 CODECOPY DUP2 MLOAD SWAP2 MSTORE DUP4 PUSH2 0xCDE JUMP JUMPDEST PUSH2 0x98D JUMPI PUSH1 0x0 PUSH1 0x9 SLOAD GT DUP1 PUSH2 0x2374 JUMPI POP PUSH1 0x0 PUSH1 0xA SLOAD GT JUMPDEST ISZERO PUSH2 0x98D JUMPI PUSH1 0x0 PUSH2 0x2384 DUP3 PUSH2 0xB76 JUMP JUMPDEST PUSH1 0xB SLOAD SWAP1 SWAP2 POP PUSH2 0x8FA SWAP1 DUP5 SWAP1 PUSH1 0x1 PUSH1 0x1 PUSH1 0xA0 SHL SUB AND DUP4 PUSH2 0x8FA DUP4 DUP4 DUP4 PUSH2 0x23AA DUP4 DUP3 PUSH2 0x20FD JUMP JUMPDEST PUSH2 0x8FA DUP4 DUP4 DUP4 PUSH1 0x1 PUSH1 0x1 PUSH1 0xA0 SHL SUB DUP4 AND ISZERO PUSH2 0x241B JUMPI PUSH1 0x1 PUSH1 0x1 PUSH1 0xA0 SHL SUB DUP4 AND PUSH1 0x0 SWAP1 DUP2 MSTORE PUSH1 0x20 DUP2 SWAP1 MSTORE PUSH1 0x40 SWAP1 KECCAK256 SLOAD DUP2 DUP2 LT ISZERO PUSH2 0x23F8 JUMPI PUSH1 0x40 MLOAD PUSH3 0x461BCD PUSH1 0xE5 SHL DUP2 MSTORE PUSH1 0x4 ADD PUSH2 0x97A SWAP1 PUSH2 0x2886 JUMP JUMPDEST PUSH1 0x1 PUSH1 0x1 PUSH1 0xA0 SHL SUB DUP5 AND PUSH1 0x0 SWAP1 DUP2 MSTORE PUSH1 0x20 DUP2 SWAP1 MSTORE PUSH1 0x40 SWAP1 KECCAK256 SWAP1 DUP3 SWAP1 SUB SWAP1 SSTORE PUSH2 0x2433 JUMP JUMPDEST DUP1 PUSH1 0x2 PUSH1 0x0 DUP3 DUP3 SLOAD PUSH2 0x242D SWAP2 SWAP1 PUSH2 0x2818 JUMP JUMPDEST SWAP1 SWAP2 SSTORE POP POP JUMPDEST PUSH1 0x1 PUSH1 0x1 PUSH1 0xA0 SHL SUB DUP3 AND ISZERO PUSH2 0x2475 JUMPI PUSH1 0x1 PUSH1 0x1 PUSH1 0xA0 SHL SUB DUP3 AND PUSH1 0x0 SWAP1 DUP2 MSTORE PUSH1 0x20 DUP2 SWAP1 MSTORE PUSH1 0x40 DUP2 KECCAK256 DUP1 SLOAD DUP4 SWAP3 SWAP1 PUSH2 0x246A SWAP1 DUP5 SWAP1 PUSH2 0x2818 JUMP JUMPDEST SWAP1 SWAP2 SSTORE POP PUSH2 0x248D SWAP1 POP JUMP JUMPDEST DUP1 PUSH1 0x2 PUSH1 0x0 DUP3 DUP3 SLOAD PUSH2 0x2487 SWAP2 SWAP1 PUSH2 0x27DF JUMP JUMPDEST SWAP1 SWAP2 SSTORE POP POP JUMPDEST DUP2 PUSH1 0x1 PUSH1 0x1 PUSH1 0xA0 SHL SUB AND DUP4 PUSH1 0x1 PUSH1 0x1 PUSH1 0xA0 SHL SUB AND PUSH1 0x0 DUP1 MLOAD PUSH1 0x20 PUSH2 0x29BB DUP4 CODECOPY DUP2 MLOAD SWAP2 MSTORE DUP4 PUSH1 0x40 MLOAD PUSH2 0x120A SWAP2 DUP2 MSTORE PUSH1 0x20 ADD SWAP1 JUMP JUMPDEST PUSH1 0x0 PUSH1 0x20 DUP3 DUP5 SUB SLT ISZERO PUSH2 0x24D2 JUMPI PUSH1 0x0 DUP1 REVERT JUMPDEST DUP2 CALLDATALOAD PUSH1 0x1 PUSH1 0x1 PUSH1 0xE0 SHL SUB NOT DUP2 AND DUP2 EQ PUSH2 0xCD7 JUMPI PUSH1 0x0 DUP1 REVERT JUMPDEST PUSH1 0x0 JUMPDEST DUP4 DUP2 LT ISZERO PUSH2 0x2505 JUMPI DUP2 DUP2 ADD MLOAD DUP4 DUP3 ADD MSTORE PUSH1 0x20 ADD PUSH2 0x24ED JUMP JUMPDEST DUP4 DUP2 GT ISZERO PUSH2 0x12C0 JUMPI POP POP PUSH1 0x0 SWAP2 ADD MSTORE JUMP JUMPDEST PUSH1 0x20 DUP2 MSTORE PUSH1 0x0 DUP3 MLOAD DUP1 PUSH1 0x20 DUP5 ADD MSTORE PUSH2 0x2535 DUP2 PUSH1 0x40 DUP6 ADD PUSH1 0x20 DUP8 ADD PUSH2 0x24EA JUMP JUMPDEST PUSH1 0x1F ADD PUSH1 0x1F NOT AND SWAP2 SWAP1 SWAP2 ADD PUSH1 0x40 ADD SWAP3 SWAP2 POP POP JUMP JUMPDEST DUP1 CALLDATALOAD PUSH1 0x1 PUSH1 0x1 PUSH1 0xA0 SHL SUB DUP2 AND DUP2 EQ PUSH2 0x8AC JUMPI PUSH1 0x0 DUP1 REVERT JUMPDEST PUSH1 0x0 DUP1 PUSH1 0x40 DUP4 DUP6 SUB SLT ISZERO PUSH2 0x2573 JUMPI PUSH1 0x0 DUP1 REVERT JUMPDEST PUSH2 0x257C DUP4 PUSH2 0x2549 JUMP JUMPDEST SWAP5 PUSH1 0x20 SWAP4 SWAP1 SWAP4 ADD CALLDATALOAD SWAP4 POP POP POP JUMP JUMPDEST PUSH1 0x0 PUSH1 0x20 DUP3 DUP5 SUB SLT ISZERO PUSH2 0x259C JUMPI PUSH1 0x0 DUP1 REVERT JUMPDEST PUSH2 0xCD7 DUP3 PUSH2 0x2549 JUMP JUMPDEST PUSH1 0x0 DUP1 PUSH1 0x0 PUSH1 0x60 DUP5 DUP7 SUB SLT ISZERO PUSH2 0x25BA JUMPI PUSH1 0x0 DUP1 REVERT JUMPDEST PUSH2 0x25C3 DUP5 PUSH2 0x2549 JUMP JUMPDEST SWAP3 POP PUSH2 0x25D1 PUSH1 0x20 DUP6 ADD PUSH2 0x2549 JUMP JUMPDEST SWAP2 POP PUSH1 0x40 DUP5 ADD CALLDATALOAD SWAP1 POP SWAP3 POP SWAP3 POP SWAP3 JUMP JUMPDEST PUSH1 0x0 PUSH1 0x20 DUP3 DUP5 SUB SLT ISZERO PUSH2 0x25F3 JUMPI PUSH1 0x0 DUP1 REVERT JUMPDEST POP CALLDATALOAD SWAP2 SWAP1 POP JUMP JUMPDEST PUSH1 0x0 DUP1 PUSH1 0x40 DUP4 DUP6 SUB SLT ISZERO PUSH2 0x260D JUMPI PUSH1 0x0 DUP1 REVERT JUMPDEST DUP3 CALLDATALOAD SWAP2 POP PUSH2 0x261D PUSH1 0x20 DUP5 ADD PUSH2 0x2549 JUMP JUMPDEST SWAP1 POP SWAP3 POP SWAP3 SWAP1 POP JUMP JUMPDEST PUSH1 0x0 DUP1 PUSH1 0x0 PUSH1 0x60 DUP5 DUP7 SUB SLT ISZERO PUSH2 0x263B JUMPI PUSH1 0x0 DUP1 REVERT JUMPDEST DUP4 CALLDATALOAD SWAP3 POP PUSH1 0x20 DUP5 ADD CALLDATALOAD SWAP2 POP PUSH2 0x2652 PUSH1 0x40 DUP6 ADD PUSH2 0x2549 JUMP JUMPDEST SWAP1 POP SWAP3 POP SWAP3 POP SWAP3 JUMP JUMPDEST PUSH1 0x0 DUP1 PUSH1 0x40 DUP4 DUP6 SUB SLT ISZERO PUSH2 0x266E JUMPI PUSH1 0x0 DUP1 REVERT JUMPDEST POP POP DUP1 CALLDATALOAD SWAP3 PUSH1 0x20 SWAP1 SWAP2 ADD CALLDATALOAD SWAP2 POP JUMP JUMPDEST PUSH1 0x0 DUP1 PUSH1 0x0 PUSH1 0x40 DUP5 DUP7 SUB SLT ISZERO PUSH2 0x2692 JUMPI PUSH1 0x0 DUP1 REVERT JUMPDEST DUP4 CALLDATALOAD PUSH8 0xFFFFFFFFFFFFFFFF DUP1 DUP3 GT ISZERO PUSH2 0x26AA JUMPI PUSH1 0x0 DUP1 REVERT JUMPDEST DUP2 DUP7 ADD SWAP2 POP DUP7 PUSH1 0x1F DUP4 ADD SLT PUSH2 0x26BE JUMPI PUSH1 0x0 DUP1 REVERT JUMPDEST DUP2 CALLDATALOAD DUP2 DUP2 GT ISZERO PUSH2 0x26CD JUMPI PUSH1 0x0 DUP1 REVERT JUMPDEST DUP8 PUSH1 0x20 DUP3 PUSH1 0x5 SHL DUP6 ADD ADD GT ISZERO PUSH2 0x26E2 JUMPI PUSH1 0x0 DUP1 REVERT JUMPDEST PUSH1 0x20 SWAP3 DUP4 ADD SWAP9 SWAP1 SWAP8 POP SWAP6 SWAP1 SWAP2 ADD CALLDATALOAD SWAP5 SWAP4 POP POP POP POP JUMP JUMPDEST PUSH1 0x0 DUP1 PUSH1 0x0 DUP1 PUSH1 0x0 DUP1 PUSH1 0x0 PUSH1 0xE0 DUP9 DUP11 SUB SLT ISZERO PUSH2 0x2713 JUMPI PUSH1 0x0 DUP1 REVERT JUMPDEST PUSH2 0x271C DUP9 PUSH2 0x2549 JUMP JUMPDEST SWAP7 POP PUSH2 0x272A PUSH1 0x20 DUP10 ADD PUSH2 0x2549 JUMP JUMPDEST SWAP6 POP PUSH1 0x40 DUP9 ADD CALLDATALOAD SWAP5 POP PUSH1 0x60 DUP9 ADD CALLDATALOAD SWAP4 POP PUSH1 0x80 DUP9 ADD CALLDATALOAD PUSH1 0xFF DUP2 AND DUP2 EQ PUSH2 0x274E JUMPI PUSH1 0x0 DUP1 REVERT JUMPDEST SWAP7 SWAP10 SWAP6 SWAP9 POP SWAP4 SWAP7 SWAP3 SWAP6 SWAP5 PUSH1 0xA0 DUP5 ADD CALLDATALOAD SWAP5 POP PUSH1 0xC0 SWAP1 SWAP4 ADD CALLDATALOAD SWAP3 SWAP2 POP POP JUMP JUMPDEST PUSH1 0x0 DUP1 PUSH1 0x40 DUP4 DUP6 SUB SLT ISZERO PUSH2 0x277E JUMPI PUSH1 0x0 DUP1 REVERT JUMPDEST PUSH2 0x2787 DUP4 PUSH2 0x2549 JUMP JUMPDEST SWAP2 POP PUSH2 0x261D PUSH1 0x20 DUP5 ADD PUSH2 0x2549 JUMP JUMPDEST PUSH1 0x1 DUP2 DUP2 SHR SWAP1 DUP3 AND DUP1 PUSH2 0x27A9 JUMPI PUSH1 0x7F DUP3 AND SWAP2 POP JUMPDEST PUSH1 0x20 DUP3 LT DUP2 SUB PUSH2 0x1758 JUMPI PUSH4 0x4E487B71 PUSH1 0xE0 SHL PUSH1 0x0 MSTORE PUSH1 0x22 PUSH1 0x4 MSTORE PUSH1 0x24 PUSH1 0x0 REVERT JUMPDEST PUSH4 0x4E487B71 PUSH1 0xE0 SHL PUSH1 0x0 MSTORE PUSH1 0x11 PUSH1 0x4 MSTORE PUSH1 0x24 PUSH1 0x0 REVERT JUMPDEST PUSH1 0x0 DUP3 DUP3 LT ISZERO PUSH2 0x27F1 JUMPI PUSH2 0x27F1 PUSH2 0x27C9 JUMP JUMPDEST POP SUB SWAP1 JUMP JUMPDEST PUSH1 0x0 DUP3 PUSH2 0x2813 JUMPI PUSH4 0x4E487B71 PUSH1 0xE0 SHL PUSH1 0x0 MSTORE PUSH1 0x12 PUSH1 0x4 MSTORE PUSH1 0x24 PUSH1 0x0 REVERT JUMPDEST POP DIV SWAP1 JUMP JUMPDEST PUSH1 0x0 DUP3 NOT DUP3 GT ISZERO PUSH2 0x282B JUMPI PUSH2 0x282B PUSH2 0x27C9 JUMP JUMPDEST POP ADD SWAP1 JUMP JUMPDEST PUSH1 0x0 DUP2 PUSH1 0x0 NOT DIV DUP4 GT DUP3 ISZERO ISZERO AND ISZERO PUSH2 0x284A JUMPI PUSH2 0x284A PUSH2 0x27C9 JUMP JUMPDEST POP MUL SWAP1 JUMP JUMPDEST PUSH4 0x4E487B71 PUSH1 0xE0 SHL PUSH1 0x0 MSTORE PUSH1 0x32 PUSH1 0x4 MSTORE PUSH1 0x24 PUSH1 0x0 REVERT JUMPDEST PUSH1 0x0 PUSH2 0xFFFF DUP1 DUP4 AND DUP2 DUP2 SUB PUSH2 0x287C JUMPI PUSH2 0x287C PUSH2 0x27C9 JUMP JUMPDEST PUSH1 0x1 ADD SWAP4 SWAP3 POP POP POP JUMP JUMPDEST PUSH1 0x20 DUP1 DUP3 MSTORE PUSH1 0x26 SWAP1 DUP3 ADD MSTORE PUSH32 0x45524332303A207472616E7366657220616D6F756E7420657863656564732062 PUSH1 0x40 DUP3 ADD MSTORE PUSH6 0x616C616E6365 PUSH1 0xD0 SHL PUSH1 0x60 DUP3 ADD MSTORE PUSH1 0x80 ADD SWAP1 JUMP JUMPDEST PUSH32 0x416363657373436F6E74726F6C3A206163636F756E7420000000000000000000 DUP2 MSTORE PUSH1 0x0 DUP4 MLOAD PUSH2 0x2904 DUP2 PUSH1 0x17 DUP6 ADD PUSH1 0x20 DUP9 ADD PUSH2 0x24EA JUMP JUMPDEST PUSH17 0x1034B99036B4B9B9B4B733903937B6329 PUSH1 0x7D SHL PUSH1 0x17 SWAP2 DUP5 ADD SWAP2 DUP3 ADD MSTORE DUP4 MLOAD PUSH2 0x2935 DUP2 PUSH1 0x28 DUP5 ADD PUSH1 0x20 DUP9 ADD PUSH2 0x24EA JUMP JUMPDEST ADD PUSH1 0x28 ADD SWAP5 SWAP4 POP POP POP POP JUMP JUMPDEST PUSH4 0x4E487B71 PUSH1 0xE0 SHL PUSH1 0x0 MSTORE PUSH1 0x21 PUSH1 0x4 MSTORE PUSH1 0x24 PUSH1 0x0 REVERT JUMPDEST PUSH4 0x4E487B71 PUSH1 0xE0 SHL PUSH1 0x0 MSTORE PUSH1 0x41 PUSH1 0x4 MSTORE PUSH1 0x24 PUSH1 0x0 REVERT JUMPDEST PUSH1 0x0 DUP2 PUSH2 0x297C JUMPI PUSH2 0x297C PUSH2 0x27C9 JUMP JUMPDEST POP PUSH1 0x0 NOT ADD SWAP1 JUMP JUMPDEST PUSH4 0x4E487B71 PUSH1 0xE0 SHL PUSH1 0x0 MSTORE PUSH1 0x31 PUSH1 0x4 MSTORE PUSH1 0x24 PUSH1 0x0 REVERT INVALID SWAP16 0x2D CREATE INVALID 0xD2 0xC7 PUSH23 0x48DE5860A4CC508CD0818C85B8B8A1AB4CEEEF8D981C89 JUMP 0xA6 0xDD CALLCODE MSTORE 0xAD SHL 0xE2 0xC8 SWAP12 PUSH10 0xC2B068FC378DAA952BA7 CALL PUSH4 0xC4A11628 CREATE2 GAS 0x4D CREATE2 0x23 0xB3 0xEF LOG2 PUSH5 0x6970667358 0x22 SLT KECCAK256 CREATE JUMPDEST RETURNDATASIZE BASEFEE 0xC5 0xDD 0xB4 EXTCODECOPY SWAP11 DIV DUP1 PUSH19 0xCC138B8822A2F2F2F99CB128B92EE9DFC6C2B0 DUP12 PUSH5 0x736F6C6343 STOP ADDMOD 0xF STOP CALLER "},"methodIdentifiers":{"DEFAULT_ADMIN_ROLE()":"a217fddf","DOMAIN_SEPARATOR()":"3644e515","MINTER_ROLE()":"d5391393","RESTRICTOR_ROLE()":"51bcee27","TRANSACTION_FEE_SETTER()":"0ecbd033","TRANSFER_LIMIT_SETTER()":"3e0b2cda","allowance(address,address)":"dd62ed3e","approve(address,uint256)":"095ea7b3","balanceOf(address)":"70a08231","burn(uint256)":"42966c68","burnFrom(address,uint256)":"79cc6790","canSpend(address)":"234eaedc","cap()":"355274ea","decimals()":"313ce567","decreaseAllowance(address,uint256)":"a457c2d7","district(address)":"e162533c","feeDetails()":"1f2c5443","getRoleAdmin(bytes32)":"248a9ca3","getRoleMember(bytes32,uint256)":"9010d07c","getRoleMemberCount(bytes32)":"ca15c873","grantRole(bytes32,address)":"2f2ff15d","hasRole(bytes32,address)":"91d14854","increaseAllowance(address,uint256)":"39509351","isRestricted(address)":"c01bc982","mint(address,uint256)":"40c10f19","mintBatch(address[],uint256)":"b6afc4dc","monthlyLimit()":"0a6005da","name()":"06fdde03","nonces(address)":"7ecebe00","permit(address,address,uint256,uint256,uint8,bytes32,bytes32)":"d505accf","renounceRole(bytes32,address)":"36568abe","restrict(address,uint256)":"1681f830","revokeRole(bytes32,address)":"d547741f","setMonthlyTransferLimit(uint256)":"889cad06","setTransactionFee(uint256,uint256,address)":"367065de","supportsInterface(bytes4)":"01ffc9a7","symbol()":"95d89b41","totalSupply()":"18160ddd","transactionFee(uint256)":"5d1edb87","transfer(address,uint256)":"a9059cbb","transferFrom(address,address,uint256)":"23b872dd"}}}}}