{"contracts/BLBIO/BLBIO.sol":{"BLBIO":{"abi":[{"inputs":[{"internalType":"address","name":"_BLBAddr","type":"address"},{"internalType":"address","name":"_BUSDAddr","type":"address"},{"internalType":"address","name":"_AGGREGATORAddr","type":"address"},{"internalType":"uint256","name":"_publicPrice","type":"uint256"},{"internalType":"uint256","name":"_privatePrice","type":"uint256"},{"internalType":"uint256","name":"_retailLimit","type":"uint256"}],"stateMutability":"nonpayable","type":"constructor"},{"anonymous":false,"inputs":[{"indexed":true,"internalType":"address","name":"claimant","type":"address"},{"indexed":false,"internalType":"uint256","name":"amountBLB","type":"uint256"}],"name":"Claim","type":"event"},{"anonymous":false,"inputs":[{"indexed":true,"internalType":"address","name":"previousOwner","type":"address"},{"indexed":true,"internalType":"address","name":"newOwner","type":"address"}],"name":"OwnershipTransferred","type":"event"},{"anonymous":false,"inputs":[{"indexed":true,"internalType":"address","name":"purchaser","type":"address"},{"indexed":true,"internalType":"string","name":"tokenPaid","type":"string"},{"indexed":false,"internalType":"uint256","name":"amountPaid","type":"uint256"},{"indexed":false,"internalType":"uint256","name":"amountBLB","type":"uint256"}],"name":"Purchase","type":"event"},{"anonymous":false,"inputs":[{"indexed":true,"internalType":"uint256","name":"publicPrice","type":"uint256"},{"indexed":true,"internalType":"uint256","name":"privatePrice","type":"uint256"}],"name":"SetPriceInUSD","type":"event"},{"anonymous":false,"inputs":[{"indexed":true,"internalType":"uint256","name":"_retailLimit","type":"uint256"}],"name":"SetRetailLimit","type":"event"},{"anonymous":false,"inputs":[{"indexed":false,"internalType":"bool","name":"situation","type":"bool"}],"name":"SoldOut","type":"event"},{"anonymous":false,"inputs":[{"indexed":true,"internalType":"string","name":"tokenName","type":"string"},{"indexed":false,"internalType":"uint256","name":"amount","type":"uint256"}],"name":"Withdraw","type":"event"},{"inputs":[],"name":"BLB","outputs":[{"internalType":"contract IERC20","name":"","type":"address"}],"stateMutability":"view","type":"function"},{"inputs":[],"name":"BUSD","outputs":[{"internalType":"contract IERC20","name":"","type":"address"}],"stateMutability":"view","type":"function"},{"inputs":[],"name":"TotalClaimable","outputs":[{"internalType":"uint256","name":"","type":"uint256"}],"stateMutability":"view","type":"function"},{"inputs":[],"name":"blbBalance","outputs":[{"internalType":"uint256","name":"","type":"uint256"}],"stateMutability":"view","type":"function"},{"inputs":[],"name":"bnbBalance","outputs":[{"internalType":"uint256","name":"","type":"uint256"}],"stateMutability":"view","type":"function"},{"inputs":[],"name":"busdBalance","outputs":[{"internalType":"uint256","name":"","type":"uint256"}],"stateMutability":"view","type":"function"},{"inputs":[],"name":"claim","outputs":[],"stateMutability":"nonpayable","type":"function"},{"inputs":[{"internalType":"address","name":"claimant","type":"address"}],"name":"claimable","outputs":[{"internalType":"uint256","name":"","type":"uint256"}],"stateMutability":"view","type":"function"},{"inputs":[],"name":"claimableFraction","outputs":[{"internalType":"uint256","name":"","type":"uint256"}],"stateMutability":"view","type":"function"},{"inputs":[{"internalType":"address","name":"addr","type":"address"},{"internalType":"uint256","name":"amount","type":"uint256"},{"internalType":"bool","name":"freeToClaim","type":"bool"}],"name":"giftBLB","outputs":[],"stateMutability":"nonpayable","type":"function"},{"inputs":[{"internalType":"uint256","name":"fraction","type":"uint256"}],"name":"increaseClaimableFraction","outputs":[],"stateMutability":"nonpayable","type":"function"},{"inputs":[],"name":"owner","outputs":[{"internalType":"address","name":"","type":"address"}],"stateMutability":"view","type":"function"},{"inputs":[{"internalType":"uint256","name":"amount","type":"uint256"}],"name":"priceInBNB","outputs":[{"internalType":"uint256","name":"","type":"uint256"}],"stateMutability":"view","type":"function"},{"inputs":[{"internalType":"uint256","name":"amount","type":"uint256"}],"name":"priceInUSD","outputs":[{"internalType":"uint256","name":"","type":"uint256"}],"stateMutability":"view","type":"function"},{"inputs":[],"name":"privatePriceInUSD","outputs":[{"internalType":"uint256","name":"","type":"uint256"}],"stateMutability":"view","type":"function"},{"inputs":[],"name":"publicPriceInUSD","outputs":[{"internalType":"uint256","name":"","type":"uint256"}],"stateMutability":"view","type":"function"},{"inputs":[{"internalType":"uint256","name":"amount","type":"uint256"}],"name":"purchaseInBNB","outputs":[],"stateMutability":"payable","type":"function"},{"inputs":[{"internalType":"uint256","name":"amount","type":"uint256"}],"name":"purchaseInBUSD","outputs":[],"stateMutability":"nonpayable","type":"function"},{"inputs":[],"name":"renounceOwnership","outputs":[],"stateMutability":"nonpayable","type":"function"},{"inputs":[],"name":"retailLimit","outputs":[{"internalType":"uint256","name":"","type":"uint256"}],"stateMutability":"view","type":"function"},{"inputs":[{"internalType":"uint256","name":"_publicPrice","type":"uint256"},{"internalType":"uint256","name":"_privatePrice","type":"uint256"}],"name":"setPriceInUSD","outputs":[],"stateMutability":"nonpayable","type":"function"},{"inputs":[{"internalType":"uint256","name":"_retailLimit","type":"uint256"}],"name":"setRetailLimit","outputs":[],"stateMutability":"nonpayable","type":"function"},{"inputs":[],"name":"setSoldOut","outputs":[],"stateMutability":"nonpayable","type":"function"},{"inputs":[],"name":"soldOut","outputs":[{"internalType":"bool","name":"","type":"bool"}],"stateMutability":"view","type":"function"},{"inputs":[{"internalType":"address","name":"claimant","type":"address"}],"name":"totalClaimable","outputs":[{"internalType":"uint256","name":"","type":"uint256"}],"stateMutability":"view","type":"function"},{"inputs":[{"internalType":"address","name":"newOwner","type":"address"}],"name":"transferOwnership","outputs":[],"stateMutability":"nonpayable","type":"function"},{"inputs":[{"internalType":"uint256","name":"amount","type":"uint256"}],"name":"withdrawBLB","outputs":[],"stateMutability":"nonpayable","type":"function"},{"inputs":[{"internalType":"uint256","name":"amount","type":"uint256"}],"name":"withdrawBNB","outputs":[],"stateMutability":"nonpayable","type":"function"},{"inputs":[{"internalType":"uint256","name":"amount","type":"uint256"}],"name":"withdrawBUSD","outputs":[],"stateMutability":"nonpayable","type":"function"}],"evm":{"bytecode":{"linkReferences":{},"object":"60a06040523480156200001157600080fd5b506040516200175e3803806200175e833981016040819052620000349162000277565b6200003f3362000095565b600680546001600160a01b038089166001600160a01b03199283161790925560078054888416921691909117905584166080526200007e8383620000e5565b6200008981620001bf565b505050505050620002dd565b600080546001600160a01b038381166001600160a01b0319831681178455604051919092169283917f8be0079c531659141344cd1fd0a4f28419497f9722a3daafe3b4186f6b6457e09190a35050565b620000ef620001fc565b80821015620001845760405162461bcd60e51b815260206004820152605060248201527f424c42494f41646d696e697374726174696f6e3a207075626c6963207072696360448201527f65206d7573742062652067726561746572207468616e206f7220657175616c2060648201526f746f207072697661746520707269636560801b608482015260a4015b60405180910390fd5b60028290556001819055604051819083907ff1981ab2ec7e286f52cb5d122cdb004e782c7cd2c7ec79e9c5a07f380f94bd9d90600090a35050565b620001c9620001fc565b600381905560405181907f8585f06828ed2d9126b998a9d431d18854350c2d883a903f957b1f6e77f6ca2490600090a250565b6000546001600160a01b03163314620002585760405162461bcd60e51b815260206004820181905260248201527f4f776e61626c653a2063616c6c6572206973206e6f7420746865206f776e657260448201526064016200017b565b565b80516001600160a01b03811681146200027257600080fd5b919050565b60008060008060008060c087890312156200029157600080fd5b6200029c876200025a565b9550620002ac602088016200025a565b9450620002bc604088016200025a565b9350606087015192506080870151915060a087015190509295509295509295565b608051611465620002f96000396000610ace01526114656000f3fe6080604052600436106101c25760003560e01c80637f04e0e1116100f7578063c9e3c9c711610095578063d013cbe211610064578063d013cbe2146104c3578063dc39ca7a146104d6578063e00115f6146104eb578063f2fde38b1461050057600080fd5b8063c9e3c9c714610443578063cc205db314610463578063cc3bcaf314610483578063ce9d3b09146104a357600080fd5b80638da5cb5b116100d15780638da5cb5b146103da578063be5be211146103f8578063bfa54b3f1461040d578063c73b2a431461042d57600080fd5b80637f04e0e1146103735780638380c09114610393578063893da6c9146103a957600080fd5b8063484f4ea9116101645780635d2a2c991161013e5780635d2a2c9914610308578063715018a614610328578063769bb5ac1461033d578063790b284f1461035d57600080fd5b8063484f4ea91461029b5780634e71d92d146102d35780635b0dfa95146102e857600080fd5b80631dfce5c6116101a05780631dfce5c6146102325780632c8e695b14610252578063402914f5146102655780634426a2631461028557600080fd5b806306dc693b146101c7578063127f4b2e146101fa578063158b072c1461021c575b600080fd5b3480156101d357600080fd5b506101e76101e23660046112c4565b610520565b6040519081526020015b60405180910390f35b34801561020657600080fd5b5061021a6102153660046112c4565b6105b2565b005b34801561022857600080fd5b506101e760045481565b34801561023e57600080fd5b506101e761024d3660046112f9565b610641565b61021a6102603660046112c4565b61066a565b34801561027157600080fd5b506101e76102803660046112f9565b6107c7565b34801561029157600080fd5b506101e760055481565b3480156102a757600080fd5b506007546102bb906001600160a01b031681565b6040516001600160a01b0390911681526020016101f1565b3480156102df57600080fd5b5061021a610821565b3480156102f457600080fd5b5061021a6103033660046112c4565b610a2f565b34801561031457600080fd5b506101e76103233660046112c4565b610a6a565b34801561033457600080fd5b5061021a610b68565b34801561034957600080fd5b5061021a610358366004611314565b610b7c565b34801561036957600080fd5b506101e760035481565b34801561037f57600080fd5b5061021a61038e3660046112c4565b610c4e565b34801561039f57600080fd5b506101e760025481565b3480156103b557600080fd5b506007546103ca90600160a01b900460ff1681565b60405190151581526020016101f1565b3480156103e657600080fd5b506000546001600160a01b03166102bb565b34801561040457600080fd5b5061021a610cff565b34801561041957600080fd5b506006546102bb906001600160a01b031681565b34801561043957600080fd5b506101e760015481565b34801561044f57600080fd5b5061021a61045e366004611344565b610d7c565b34801561046f57600080fd5b5061021a61047e3660046112c4565b610e51565b34801561048f57600080fd5b5061021a61049e3660046112c4565b610fc4565b3480156104af57600080fd5b5061021a6104be3660046112c4565b611076565b3480156104cf57600080fd5b50476101e7565b3480156104e257600080fd5b506101e7611100565b3480156104f757600080fd5b506101e7611173565b34801561050c57600080fd5b5061021a61051b3660046112f9565b6111a4565b600754600090600160a01b900460ff16156105755760405162461bcd60e51b815260206004820152601060248201526f424c42494f3a20736f6c64206f75742160801b60448201526064015b60405180910390fd5b600060035483116105885760025461058c565b6001545b9050670de0b6b3a76400006105a1848361139a565b6105ab91906113b1565b9392505050565b6105ba61121a565b600080546040516001600160a01b039091169183156108fc02918491818181858888f193505050501580156105f3573d6000803e3d6000fd5b506040516221272160e91b81526003015b604051908190038120828252907ffd950f75bf83187106ca979032c87af4e8bedbeff7455cba6df787f978267f299060200160405180910390a250565b6001600160a01b0381166000908152600860205260408120600181015481546105ab91906113d3565b33606461067683610a6a565b61068190606261139a565b61068b91906113b1565b3410156106da5760405162461bcd60e51b815260206004820152601760248201527f424c42494f3a20696e73756666696369656e7420666565000000000000000000604482015260640161056c565b600082116107235760405162461bcd60e51b8152602060048201526016602482015275424c42494f3a207a65726f20616d6f756e742062757960501b604482015260640161056c565b6001600160a01b0381166000908152600860205260408120805484929061074b9084906113e6565b92505081905550816005600082825461076491906113e6565b90915550506040516221272160e91b81526003016040805191829003822034835260208301859052916001600160a01b038416917facd81379883abf90827a751c8100bec3c4d1f66dbba0f8f8b412a049f0a03d70910160405180910390a35050565b6001600160a01b0381166000908152600860205260408120600281015460ff16156107f5576105ab83610641565b60018101546004548254620f42409161080d9161139a565b61081791906113b1565b6105ab91906113d3565b3360008181526008602052604081209061083a836107c7565b90508060000361088c5760405162461bcd60e51b815260206004820152601f60248201527f424c42494f3a207468657265206973206e6f20424c4220746f20636c61696d00604482015260640161056c565b6006546040516370a0823160e01b815230600482015282916001600160a01b0316906370a0823190602401602060405180830381865afa1580156108d4573d6000803e3d6000fd5b505050506040513d601f19601f820116820180604052508101906108f891906113f9565b10156109565760405162461bcd60e51b815260206004820152602760248201527f424c42494f3a20696e73756666696369656e7420424c4220696e2074686520636044820152661bdb9d1c9858dd60ca1b606482015260840161056c565b8082600101600082825461096a91906113e6565b909155505060065460405163a9059cbb60e01b81526001600160a01b038581166004830152602482018490529091169063a9059cbb906044016020604051808303816000875af11580156109c2573d6000803e3d6000fd5b505050506040513d601f19601f820116820180604052508101906109e69190611412565b50826001600160a01b03167f47cee97cb7acd717b3c0aa1435d004cd5b3c8c57d70dbceb4e4458bbd60e39d482604051610a2291815260200190565b60405180910390a2505050565b610a3761121a565b600381905560405181907f8585f06828ed2d9126b998a9d431d18854350c2d883a903f957b1f6e77f6ca2490600090a250565b600754600090600160a01b900460ff1615610aba5760405162461bcd60e51b815260206004820152601060248201526f424c42494f3a20736f6c64206f75742160801b604482015260640161056c565b670de0b6b3a7640000610acc83610520565b7f00000000000000000000000000000000000000000000000000000000000000006001600160a01b03166350d25bcd6040518163ffffffff1660e01b8152600401602060405180830381865afa158015610b2a573d6000803e3d6000fd5b505050506040513d601f19601f82011682018060405250810190610b4e91906113f9565b610b58919061139a565b610b6291906113b1565b92915050565b610b7061121a565b610b7a6000611274565b565b610b8461121a565b80821015610c135760405162461bcd60e51b815260206004820152605060248201527f424c42494f41646d696e697374726174696f6e3a207075626c6963207072696360448201527f65206d7573742062652067726561746572207468616e206f7220657175616c2060648201526f746f207072697661746520707269636560801b608482015260a40161056c565b60028290556001819055604051819083907ff1981ab2ec7e286f52cb5d122cdb004e782c7cd2c7ec79e9c5a07f380f94bd9d90600090a35050565b610c5661121a565b6006546001600160a01b031663a9059cbb610c796000546001600160a01b031690565b6040516001600160e01b031960e084901b1681526001600160a01b039091166004820152602481018490526044016020604051808303816000875af1158015610cc6573d6000803e3d6000fd5b505050506040513d601f19601f82011682018060405250810190610cea9190611412565b506040516221262160e91b8152600301610604565b610d0761121a565b600754600160a01b900460ff16610d1f576001610d22565b60005b6007805460ff60a01b1916600160a01b9215158302179081905560405160ff9290910491909116151581527f0a3cfaceb3e57ff8026ea1ea844ce08ca4b74964e184e542ea2ab22605e34f629060200160405180910390a1565b610d8461121a565b6001600160a01b03831660009081526008602052604081208054849290610dac9084906113e6565b90915550506001600160a01b0383166000908152600860205260408120600201805460ff191683151517905560058054849290610dea9084906113e6565b90915550506040516319da599d60e21b8152600401604080519182900382206000835260208301859052916001600160a01b038616917facd81379883abf90827a751c8100bec3c4d1f66dbba0f8f8b412a049f0a03d7091015b60405180910390a3505050565b60008111610e9a5760405162461bcd60e51b8152602060048201526016602482015275424c42494f3a207a65726f20616d6f756e742062757960501b604482015260640161056c565b336000610ea683610520565b6007546040516323b872dd60e01b81526001600160a01b038581166004830152306024830152604482018490529293509116906323b872dd906064016020604051808303816000875af1158015610f01573d6000803e3d6000fd5b505050506040513d601f19601f82011682018060405250810190610f259190611412565b506001600160a01b03821660009081526008602052604081208054859290610f4e9084906113e6565b925050819055508260056000828254610f6791906113e6565b909155505060405163109554d160e21b81526004016040805191829003822083835260208301869052916001600160a01b038516917facd81379883abf90827a751c8100bec3c4d1f66dbba0f8f8b412a049f0a03d709101610e44565b610fcc61121a565b6007546001600160a01b031663a9059cbb610fef6000546001600160a01b031690565b6040516001600160e01b031960e084901b1681526001600160a01b039091166004820152602481018490526044016020604051808303816000875af115801561103c573d6000803e3d6000fd5b505050506040513d601f19601f820116820180604052508101906110609190611412565b5060405163109554d160e21b8152600401610604565b61107e61121a565b806004600082825461109091906113e6565b9091555050600454620f424010156110fd5760405162461bcd60e51b815260206004820152602a60248201527f424c42494f41646d696e697374726174696f6e3a206672616374696f6e20657860448201526931b2b2b2399018982f1b60b11b606482015260840161056c565b50565b6007546040516370a0823160e01b81523060048201526000916001600160a01b0316906370a08231906024015b602060405180830381865afa15801561114a573d6000803e3d6000fd5b505050506040513d601f19601f8201168201806040525081019061116e91906113f9565b905090565b6006546040516370a0823160e01b81523060048201526000916001600160a01b0316906370a082319060240161112d565b6111ac61121a565b6001600160a01b0381166112115760405162461bcd60e51b815260206004820152602660248201527f4f776e61626c653a206e6577206f776e657220697320746865207a65726f206160448201526564647265737360d01b606482015260840161056c565b6110fd81611274565b6000546001600160a01b03163314610b7a5760405162461bcd60e51b815260206004820181905260248201527f4f776e61626c653a2063616c6c6572206973206e6f7420746865206f776e6572604482015260640161056c565b600080546001600160a01b038381166001600160a01b0319831681178455604051919092169283917f8be0079c531659141344cd1fd0a4f28419497f9722a3daafe3b4186f6b6457e09190a35050565b6000602082840312156112d657600080fd5b5035919050565b80356001600160a01b03811681146112f457600080fd5b919050565b60006020828403121561130b57600080fd5b6105ab826112dd565b6000806040838503121561132757600080fd5b50508035926020909101359150565b80151581146110fd57600080fd5b60008060006060848603121561135957600080fd5b611362846112dd565b925060208401359150604084013561137981611336565b809150509250925092565b634e487b7160e01b600052601160045260246000fd5b8082028115828204841417610b6257610b62611384565b6000826113ce57634e487b7160e01b600052601260045260246000fd5b500490565b81810381811115610b6257610b62611384565b80820180821115610b6257610b62611384565b60006020828403121561140b57600080fd5b5051919050565b60006020828403121561142457600080fd5b81516105ab8161133656fea26469706673582212206bab471d51a25d870d5d1ada30412a50404e23c3001ce018d1c2d89026f843c864736f6c63430008110033","opcodes":"PUSH1 0xA0 PUSH1 0x40 MSTORE CALLVALUE DUP1 ISZERO PUSH3 0x11 JUMPI PUSH1 0x0 DUP1 REVERT JUMPDEST POP PUSH1 0x40 MLOAD PUSH3 0x175E CODESIZE SUB DUP1 PUSH3 0x175E DUP4 CODECOPY DUP2 ADD PUSH1 0x40 DUP2 SWAP1 MSTORE PUSH3 0x34 SWAP2 PUSH3 0x277 JUMP JUMPDEST PUSH3 0x3F CALLER PUSH3 0x95 JUMP JUMPDEST PUSH1 0x6 DUP1 SLOAD PUSH1 0x1 PUSH1 0x1 PUSH1 0xA0 SHL SUB DUP1 DUP10 AND PUSH1 0x1 PUSH1 0x1 PUSH1 0xA0 SHL SUB NOT SWAP3 DUP4 AND OR SWAP1 SWAP3 SSTORE PUSH1 0x7 DUP1 SLOAD DUP9 DUP5 AND SWAP3 AND SWAP2 SWAP1 SWAP2 OR SWAP1 SSTORE DUP5 AND PUSH1 0x80 MSTORE PUSH3 0x7E DUP4 DUP4 PUSH3 0xE5 JUMP JUMPDEST PUSH3 0x89 DUP2 PUSH3 0x1BF JUMP JUMPDEST POP POP POP POP POP POP PUSH3 0x2DD JUMP JUMPDEST PUSH1 0x0 DUP1 SLOAD PUSH1 0x1 PUSH1 0x1 PUSH1 0xA0 SHL SUB DUP4 DUP2 AND PUSH1 0x1 PUSH1 0x1 PUSH1 0xA0 SHL SUB NOT DUP4 AND DUP2 OR DUP5 SSTORE PUSH1 0x40 MLOAD SWAP2 SWAP1 SWAP3 AND SWAP3 DUP4 SWAP2 PUSH32 0x8BE0079C531659141344CD1FD0A4F28419497F9722A3DAAFE3B4186F6B6457E0 SWAP2 SWAP1 LOG3 POP POP JUMP JUMPDEST PUSH3 0xEF PUSH3 0x1FC JUMP JUMPDEST DUP1 DUP3 LT ISZERO PUSH3 0x184 JUMPI PUSH1 0x40 MLOAD PUSH3 0x461BCD PUSH1 0xE5 SHL DUP2 MSTORE PUSH1 0x20 PUSH1 0x4 DUP3 ADD MSTORE PUSH1 0x50 PUSH1 0x24 DUP3 ADD MSTORE PUSH32 0x424C42494F41646D696E697374726174696F6E3A207075626C69632070726963 PUSH1 0x44 DUP3 ADD MSTORE PUSH32 0x65206D7573742062652067726561746572207468616E206F7220657175616C20 PUSH1 0x64 DUP3 ADD MSTORE PUSH16 0x746F2070726976617465207072696365 PUSH1 0x80 SHL PUSH1 0x84 DUP3 ADD MSTORE PUSH1 0xA4 ADD JUMPDEST PUSH1 0x40 MLOAD DUP1 SWAP2 SUB SWAP1 REVERT JUMPDEST PUSH1 0x2 DUP3 SWAP1 SSTORE PUSH1 0x1 DUP2 SWAP1 SSTORE PUSH1 0x40 MLOAD DUP2 SWAP1 DUP4 SWAP1 PUSH32 0xF1981AB2EC7E286F52CB5D122CDB004E782C7CD2C7EC79E9C5A07F380F94BD9D SWAP1 PUSH1 0x0 SWAP1 LOG3 POP POP JUMP JUMPDEST PUSH3 0x1C9 PUSH3 0x1FC JUMP JUMPDEST PUSH1 0x3 DUP2 SWAP1 SSTORE PUSH1 0x40 MLOAD DUP2 SWAP1 PUSH32 0x8585F06828ED2D9126B998A9D431D18854350C2D883A903F957B1F6E77F6CA24 SWAP1 PUSH1 0x0 SWAP1 LOG2 POP JUMP JUMPDEST PUSH1 0x0 SLOAD PUSH1 0x1 PUSH1 0x1 PUSH1 0xA0 SHL SUB AND CALLER EQ PUSH3 0x258 JUMPI PUSH1 0x40 MLOAD PUSH3 0x461BCD PUSH1 0xE5 SHL DUP2 MSTORE PUSH1 0x20 PUSH1 0x4 DUP3 ADD DUP2 SWAP1 MSTORE PUSH1 0x24 DUP3 ADD MSTORE PUSH32 0x4F776E61626C653A2063616C6C6572206973206E6F7420746865206F776E6572 PUSH1 0x44 DUP3 ADD MSTORE PUSH1 0x64 ADD PUSH3 0x17B JUMP JUMPDEST JUMP JUMPDEST DUP1 MLOAD PUSH1 0x1 PUSH1 0x1 PUSH1 0xA0 SHL SUB DUP2 AND DUP2 EQ PUSH3 0x272 JUMPI PUSH1 0x0 DUP1 REVERT JUMPDEST SWAP2 SWAP1 POP JUMP JUMPDEST PUSH1 0x0 DUP1 PUSH1 0x0 DUP1 PUSH1 0x0 DUP1 PUSH1 0xC0 DUP8 DUP10 SUB SLT ISZERO PUSH3 0x291 JUMPI PUSH1 0x0 DUP1 REVERT JUMPDEST PUSH3 0x29C DUP8 PUSH3 0x25A JUMP JUMPDEST SWAP6 POP PUSH3 0x2AC PUSH1 0x20 DUP9 ADD PUSH3 0x25A JUMP JUMPDEST SWAP5 POP PUSH3 0x2BC PUSH1 0x40 DUP9 ADD PUSH3 0x25A JUMP JUMPDEST SWAP4 POP PUSH1 0x60 DUP8 ADD MLOAD SWAP3 POP PUSH1 0x80 DUP8 ADD MLOAD SWAP2 POP PUSH1 0xA0 DUP8 ADD MLOAD SWAP1 POP SWAP3 SWAP6 POP SWAP3 SWAP6 POP SWAP3 SWAP6 JUMP JUMPDEST PUSH1 0x80 MLOAD PUSH2 0x1465 PUSH3 0x2F9 PUSH1 0x0 CODECOPY PUSH1 0x0 PUSH2 0xACE ADD MSTORE PUSH2 0x1465 PUSH1 0x0 RETURN INVALID PUSH1 0x80 PUSH1 0x40 MSTORE PUSH1 0x4 CALLDATASIZE LT PUSH2 0x1C2 JUMPI PUSH1 0x0 CALLDATALOAD PUSH1 0xE0 SHR DUP1 PUSH4 0x7F04E0E1 GT PUSH2 0xF7 JUMPI DUP1 PUSH4 0xC9E3C9C7 GT PUSH2 0x95 JUMPI DUP1 PUSH4 0xD013CBE2 GT PUSH2 0x64 JUMPI DUP1 PUSH4 0xD013CBE2 EQ PUSH2 0x4C3 JUMPI DUP1 PUSH4 0xDC39CA7A EQ PUSH2 0x4D6 JUMPI DUP1 PUSH4 0xE00115F6 EQ PUSH2 0x4EB JUMPI DUP1 PUSH4 0xF2FDE38B EQ PUSH2 0x500 JUMPI PUSH1 0x0 DUP1 REVERT JUMPDEST DUP1 PUSH4 0xC9E3C9C7 EQ PUSH2 0x443 JUMPI DUP1 PUSH4 0xCC205DB3 EQ PUSH2 0x463 JUMPI DUP1 PUSH4 0xCC3BCAF3 EQ PUSH2 0x483 JUMPI DUP1 PUSH4 0xCE9D3B09 EQ PUSH2 0x4A3 JUMPI PUSH1 0x0 DUP1 REVERT JUMPDEST DUP1 PUSH4 0x8DA5CB5B GT PUSH2 0xD1 JUMPI DUP1 PUSH4 0x8DA5CB5B EQ PUSH2 0x3DA JUMPI DUP1 PUSH4 0xBE5BE211 EQ PUSH2 0x3F8 JUMPI DUP1 PUSH4 0xBFA54B3F EQ PUSH2 0x40D JUMPI DUP1 PUSH4 0xC73B2A43 EQ PUSH2 0x42D JUMPI PUSH1 0x0 DUP1 REVERT JUMPDEST DUP1 PUSH4 0x7F04E0E1 EQ PUSH2 0x373 JUMPI DUP1 PUSH4 0x8380C091 EQ PUSH2 0x393 JUMPI DUP1 PUSH4 0x893DA6C9 EQ PUSH2 0x3A9 JUMPI PUSH1 0x0 DUP1 REVERT JUMPDEST DUP1 PUSH4 0x484F4EA9 GT PUSH2 0x164 JUMPI DUP1 PUSH4 0x5D2A2C99 GT PUSH2 0x13E JUMPI DUP1 PUSH4 0x5D2A2C99 EQ PUSH2 0x308 JUMPI DUP1 PUSH4 0x715018A6 EQ PUSH2 0x328 JUMPI DUP1 PUSH4 0x769BB5AC EQ PUSH2 0x33D JUMPI DUP1 PUSH4 0x790B284F EQ PUSH2 0x35D JUMPI PUSH1 0x0 DUP1 REVERT JUMPDEST DUP1 PUSH4 0x484F4EA9 EQ PUSH2 0x29B JUMPI DUP1 PUSH4 0x4E71D92D EQ PUSH2 0x2D3 JUMPI DUP1 PUSH4 0x5B0DFA95 EQ PUSH2 0x2E8 JUMPI PUSH1 0x0 DUP1 REVERT JUMPDEST DUP1 PUSH4 0x1DFCE5C6 GT PUSH2 0x1A0 JUMPI DUP1 PUSH4 0x1DFCE5C6 EQ PUSH2 0x232 JUMPI DUP1 PUSH4 0x2C8E695B EQ PUSH2 0x252 JUMPI DUP1 PUSH4 0x402914F5 EQ PUSH2 0x265 JUMPI DUP1 PUSH4 0x4426A263 EQ PUSH2 0x285 JUMPI PUSH1 0x0 DUP1 REVERT JUMPDEST DUP1 PUSH4 0x6DC693B EQ PUSH2 0x1C7 JUMPI DUP1 PUSH4 0x127F4B2E EQ PUSH2 0x1FA JUMPI DUP1 PUSH4 0x158B072C EQ PUSH2 0x21C JUMPI JUMPDEST PUSH1 0x0 DUP1 REVERT JUMPDEST CALLVALUE DUP1 ISZERO PUSH2 0x1D3 JUMPI PUSH1 0x0 DUP1 REVERT JUMPDEST POP PUSH2 0x1E7 PUSH2 0x1E2 CALLDATASIZE PUSH1 0x4 PUSH2 0x12C4 JUMP JUMPDEST PUSH2 0x520 JUMP JUMPDEST PUSH1 0x40 MLOAD SWAP1 DUP2 MSTORE PUSH1 0x20 ADD JUMPDEST PUSH1 0x40 MLOAD DUP1 SWAP2 SUB SWAP1 RETURN JUMPDEST CALLVALUE DUP1 ISZERO PUSH2 0x206 JUMPI PUSH1 0x0 DUP1 REVERT JUMPDEST POP PUSH2 0x21A PUSH2 0x215 CALLDATASIZE PUSH1 0x4 PUSH2 0x12C4 JUMP JUMPDEST PUSH2 0x5B2 JUMP JUMPDEST STOP JUMPDEST CALLVALUE DUP1 ISZERO PUSH2 0x228 JUMPI PUSH1 0x0 DUP1 REVERT JUMPDEST POP PUSH2 0x1E7 PUSH1 0x4 SLOAD DUP2 JUMP JUMPDEST CALLVALUE DUP1 ISZERO PUSH2 0x23E JUMPI PUSH1 0x0 DUP1 REVERT JUMPDEST POP PUSH2 0x1E7 PUSH2 0x24D CALLDATASIZE PUSH1 0x4 PUSH2 0x12F9 JUMP JUMPDEST PUSH2 0x641 JUMP JUMPDEST PUSH2 0x21A PUSH2 0x260 CALLDATASIZE PUSH1 0x4 PUSH2 0x12C4 JUMP JUMPDEST PUSH2 0x66A JUMP JUMPDEST CALLVALUE DUP1 ISZERO PUSH2 0x271 JUMPI PUSH1 0x0 DUP1 REVERT JUMPDEST POP PUSH2 0x1E7 PUSH2 0x280 CALLDATASIZE PUSH1 0x4 PUSH2 0x12F9 JUMP JUMPDEST PUSH2 0x7C7 JUMP JUMPDEST CALLVALUE DUP1 ISZERO PUSH2 0x291 JUMPI PUSH1 0x0 DUP1 REVERT JUMPDEST POP PUSH2 0x1E7 PUSH1 0x5 SLOAD DUP2 JUMP JUMPDEST CALLVALUE DUP1 ISZERO PUSH2 0x2A7 JUMPI PUSH1 0x0 DUP1 REVERT JUMPDEST POP PUSH1 0x7 SLOAD PUSH2 0x2BB SWAP1 PUSH1 0x1 PUSH1 0x1 PUSH1 0xA0 SHL SUB AND DUP2 JUMP JUMPDEST PUSH1 0x40 MLOAD PUSH1 0x1 PUSH1 0x1 PUSH1 0xA0 SHL SUB SWAP1 SWAP2 AND DUP2 MSTORE PUSH1 0x20 ADD PUSH2 0x1F1 JUMP JUMPDEST CALLVALUE DUP1 ISZERO PUSH2 0x2DF JUMPI PUSH1 0x0 DUP1 REVERT JUMPDEST POP PUSH2 0x21A PUSH2 0x821 JUMP JUMPDEST CALLVALUE DUP1 ISZERO PUSH2 0x2F4 JUMPI PUSH1 0x0 DUP1 REVERT JUMPDEST POP PUSH2 0x21A PUSH2 0x303 CALLDATASIZE PUSH1 0x4 PUSH2 0x12C4 JUMP JUMPDEST PUSH2 0xA2F JUMP JUMPDEST CALLVALUE DUP1 ISZERO PUSH2 0x314 JUMPI PUSH1 0x0 DUP1 REVERT JUMPDEST POP PUSH2 0x1E7 PUSH2 0x323 CALLDATASIZE PUSH1 0x4 PUSH2 0x12C4 JUMP JUMPDEST PUSH2 0xA6A JUMP JUMPDEST CALLVALUE DUP1 ISZERO PUSH2 0x334 JUMPI PUSH1 0x0 DUP1 REVERT JUMPDEST POP PUSH2 0x21A PUSH2 0xB68 JUMP JUMPDEST CALLVALUE DUP1 ISZERO PUSH2 0x349 JUMPI PUSH1 0x0 DUP1 REVERT JUMPDEST POP PUSH2 0x21A PUSH2 0x358 CALLDATASIZE PUSH1 0x4 PUSH2 0x1314 JUMP JUMPDEST PUSH2 0xB7C JUMP JUMPDEST CALLVALUE DUP1 ISZERO PUSH2 0x369 JUMPI PUSH1 0x0 DUP1 REVERT JUMPDEST POP PUSH2 0x1E7 PUSH1 0x3 SLOAD DUP2 JUMP JUMPDEST CALLVALUE DUP1 ISZERO PUSH2 0x37F JUMPI PUSH1 0x0 DUP1 REVERT JUMPDEST POP PUSH2 0x21A PUSH2 0x38E CALLDATASIZE PUSH1 0x4 PUSH2 0x12C4 JUMP JUMPDEST PUSH2 0xC4E JUMP JUMPDEST CALLVALUE DUP1 ISZERO PUSH2 0x39F JUMPI PUSH1 0x0 DUP1 REVERT JUMPDEST POP PUSH2 0x1E7 PUSH1 0x2 SLOAD DUP2 JUMP JUMPDEST CALLVALUE DUP1 ISZERO PUSH2 0x3B5 JUMPI PUSH1 0x0 DUP1 REVERT JUMPDEST POP PUSH1 0x7 SLOAD PUSH2 0x3CA SWAP1 PUSH1 0x1 PUSH1 0xA0 SHL SWAP1 DIV PUSH1 0xFF AND DUP2 JUMP JUMPDEST PUSH1 0x40 MLOAD SWAP1 ISZERO ISZERO DUP2 MSTORE PUSH1 0x20 ADD PUSH2 0x1F1 JUMP JUMPDEST CALLVALUE DUP1 ISZERO PUSH2 0x3E6 JUMPI PUSH1 0x0 DUP1 REVERT JUMPDEST POP PUSH1 0x0 SLOAD PUSH1 0x1 PUSH1 0x1 PUSH1 0xA0 SHL SUB AND PUSH2 0x2BB JUMP JUMPDEST CALLVALUE DUP1 ISZERO PUSH2 0x404 JUMPI PUSH1 0x0 DUP1 REVERT JUMPDEST POP PUSH2 0x21A PUSH2 0xCFF JUMP JUMPDEST CALLVALUE DUP1 ISZERO PUSH2 0x419 JUMPI PUSH1 0x0 DUP1 REVERT JUMPDEST POP PUSH1 0x6 SLOAD PUSH2 0x2BB SWAP1 PUSH1 0x1 PUSH1 0x1 PUSH1 0xA0 SHL SUB AND DUP2 JUMP JUMPDEST CALLVALUE DUP1 ISZERO PUSH2 0x439 JUMPI PUSH1 0x0 DUP1 REVERT JUMPDEST POP PUSH2 0x1E7 PUSH1 0x1 SLOAD DUP2 JUMP JUMPDEST CALLVALUE DUP1 ISZERO PUSH2 0x44F JUMPI PUSH1 0x0 DUP1 REVERT JUMPDEST POP PUSH2 0x21A PUSH2 0x45E CALLDATASIZE PUSH1 0x4 PUSH2 0x1344 JUMP JUMPDEST PUSH2 0xD7C JUMP JUMPDEST CALLVALUE DUP1 ISZERO PUSH2 0x46F JUMPI PUSH1 0x0 DUP1 REVERT JUMPDEST POP PUSH2 0x21A PUSH2 0x47E CALLDATASIZE PUSH1 0x4 PUSH2 0x12C4 JUMP JUMPDEST PUSH2 0xE51 JUMP JUMPDEST CALLVALUE DUP1 ISZERO PUSH2 0x48F JUMPI PUSH1 0x0 DUP1 REVERT JUMPDEST POP PUSH2 0x21A PUSH2 0x49E CALLDATASIZE PUSH1 0x4 PUSH2 0x12C4 JUMP JUMPDEST PUSH2 0xFC4 JUMP JUMPDEST CALLVALUE DUP1 ISZERO PUSH2 0x4AF JUMPI PUSH1 0x0 DUP1 REVERT JUMPDEST POP PUSH2 0x21A PUSH2 0x4BE CALLDATASIZE PUSH1 0x4 PUSH2 0x12C4 JUMP JUMPDEST PUSH2 0x1076 JUMP JUMPDEST CALLVALUE DUP1 ISZERO PUSH2 0x4CF JUMPI PUSH1 0x0 DUP1 REVERT JUMPDEST POP SELFBALANCE PUSH2 0x1E7 JUMP JUMPDEST CALLVALUE DUP1 ISZERO PUSH2 0x4E2 JUMPI PUSH1 0x0 DUP1 REVERT JUMPDEST POP PUSH2 0x1E7 PUSH2 0x1100 JUMP JUMPDEST CALLVALUE DUP1 ISZERO PUSH2 0x4F7 JUMPI PUSH1 0x0 DUP1 REVERT JUMPDEST POP PUSH2 0x1E7 PUSH2 0x1173 JUMP JUMPDEST CALLVALUE DUP1 ISZERO PUSH2 0x50C JUMPI PUSH1 0x0 DUP1 REVERT JUMPDEST POP PUSH2 0x21A PUSH2 0x51B CALLDATASIZE PUSH1 0x4 PUSH2 0x12F9 JUMP JUMPDEST PUSH2 0x11A4 JUMP JUMPDEST PUSH1 0x7 SLOAD PUSH1 0x0 SWAP1 PUSH1 0x1 PUSH1 0xA0 SHL SWAP1 DIV PUSH1 0xFF AND ISZERO PUSH2 0x575 JUMPI PUSH1 0x40 MLOAD PUSH3 0x461BCD PUSH1 0xE5 SHL DUP2 MSTORE PUSH1 0x20 PUSH1 0x4 DUP3 ADD MSTORE PUSH1 0x10 PUSH1 0x24 DUP3 ADD MSTORE PUSH16 0x424C42494F3A20736F6C64206F757421 PUSH1 0x80 SHL PUSH1 0x44 DUP3 ADD MSTORE PUSH1 0x64 ADD JUMPDEST PUSH1 0x40 MLOAD DUP1 SWAP2 SUB SWAP1 REVERT JUMPDEST PUSH1 0x0 PUSH1 0x3 SLOAD DUP4 GT PUSH2 0x588 JUMPI PUSH1 0x2 SLOAD PUSH2 0x58C JUMP JUMPDEST PUSH1 0x1 SLOAD JUMPDEST SWAP1 POP PUSH8 0xDE0B6B3A7640000 PUSH2 0x5A1 DUP5 DUP4 PUSH2 0x139A JUMP JUMPDEST PUSH2 0x5AB SWAP2 SWAP1 PUSH2 0x13B1 JUMP JUMPDEST SWAP4 SWAP3 POP POP POP JUMP JUMPDEST PUSH2 0x5BA PUSH2 0x121A JUMP JUMPDEST PUSH1 0x0 DUP1 SLOAD PUSH1 0x40 MLOAD PUSH1 0x1 PUSH1 0x1 PUSH1 0xA0 SHL SUB SWAP1 SWAP2 AND SWAP2 DUP4 ISZERO PUSH2 0x8FC MUL SWAP2 DUP5 SWAP2 DUP2 DUP2 DUP2 DUP6 DUP9 DUP9 CALL SWAP4 POP POP POP POP ISZERO DUP1 ISZERO PUSH2 0x5F3 JUMPI RETURNDATASIZE PUSH1 0x0 DUP1 RETURNDATACOPY RETURNDATASIZE PUSH1 0x0 REVERT JUMPDEST POP PUSH1 0x40 MLOAD PUSH3 0x212721 PUSH1 0xE9 SHL DUP2 MSTORE PUSH1 0x3 ADD JUMPDEST PUSH1 0x40 MLOAD SWAP1 DUP2 SWAP1 SUB DUP2 KECCAK256 DUP3 DUP3 MSTORE SWAP1 PUSH32 0xFD950F75BF83187106CA979032C87AF4E8BEDBEFF7455CBA6DF787F978267F29 SWAP1 PUSH1 0x20 ADD PUSH1 0x40 MLOAD DUP1 SWAP2 SUB SWAP1 LOG2 POP JUMP JUMPDEST PUSH1 0x1 PUSH1 0x1 PUSH1 0xA0 SHL SUB DUP2 AND PUSH1 0x0 SWAP1 DUP2 MSTORE PUSH1 0x8 PUSH1 0x20 MSTORE PUSH1 0x40 DUP2 KECCAK256 PUSH1 0x1 DUP2 ADD SLOAD DUP2 SLOAD PUSH2 0x5AB SWAP2 SWAP1 PUSH2 0x13D3 JUMP JUMPDEST CALLER PUSH1 0x64 PUSH2 0x676 DUP4 PUSH2 0xA6A JUMP JUMPDEST PUSH2 0x681 SWAP1 PUSH1 0x62 PUSH2 0x139A JUMP JUMPDEST PUSH2 0x68B SWAP2 SWAP1 PUSH2 0x13B1 JUMP JUMPDEST CALLVALUE LT ISZERO PUSH2 0x6DA JUMPI PUSH1 0x40 MLOAD PUSH3 0x461BCD PUSH1 0xE5 SHL DUP2 MSTORE PUSH1 0x20 PUSH1 0x4 DUP3 ADD MSTORE PUSH1 0x17 PUSH1 0x24 DUP3 ADD MSTORE PUSH32 0x424C42494F3A20696E73756666696369656E7420666565000000000000000000 PUSH1 0x44 DUP3 ADD MSTORE PUSH1 0x64 ADD PUSH2 0x56C JUMP JUMPDEST PUSH1 0x0 DUP3 GT PUSH2 0x723 JUMPI PUSH1 0x40 MLOAD PUSH3 0x461BCD PUSH1 0xE5 SHL DUP2 MSTORE PUSH1 0x20 PUSH1 0x4 DUP3 ADD MSTORE PUSH1 0x16 PUSH1 0x24 DUP3 ADD MSTORE PUSH22 0x424C42494F3A207A65726F20616D6F756E7420627579 PUSH1 0x50 SHL PUSH1 0x44 DUP3 ADD MSTORE PUSH1 0x64 ADD PUSH2 0x56C JUMP JUMPDEST PUSH1 0x1 PUSH1 0x1 PUSH1 0xA0 SHL SUB DUP2 AND PUSH1 0x0 SWAP1 DUP2 MSTORE PUSH1 0x8 PUSH1 0x20 MSTORE PUSH1 0x40 DUP2 KECCAK256 DUP1 SLOAD DUP5 SWAP3 SWAP1 PUSH2 0x74B SWAP1 DUP5 SWAP1 PUSH2 0x13E6 JUMP JUMPDEST SWAP3 POP POP DUP2 SWAP1 SSTORE POP DUP2 PUSH1 0x5 PUSH1 0x0 DUP3 DUP3 SLOAD PUSH2 0x764 SWAP2 SWAP1 PUSH2 0x13E6 JUMP JUMPDEST SWAP1 SWAP2 SSTORE POP POP PUSH1 0x40 MLOAD PUSH3 0x212721 PUSH1 0xE9 SHL DUP2 MSTORE PUSH1 0x3 ADD PUSH1 0x40 DUP1 MLOAD SWAP2 DUP3 SWAP1 SUB DUP3 KECCAK256 CALLVALUE DUP4 MSTORE PUSH1 0x20 DUP4 ADD DUP6 SWAP1 MSTORE SWAP2 PUSH1 0x1 PUSH1 0x1 PUSH1 0xA0 SHL SUB DUP5 AND SWAP2 PUSH32 0xACD81379883ABF90827A751C8100BEC3C4D1F66DBBA0F8F8B412A049F0A03D70 SWAP2 ADD PUSH1 0x40 MLOAD DUP1 SWAP2 SUB SWAP1 LOG3 POP POP JUMP JUMPDEST PUSH1 0x1 PUSH1 0x1 PUSH1 0xA0 SHL SUB DUP2 AND PUSH1 0x0 SWAP1 DUP2 MSTORE PUSH1 0x8 PUSH1 0x20 MSTORE PUSH1 0x40 DUP2 KECCAK256 PUSH1 0x2 DUP2 ADD SLOAD PUSH1 0xFF AND ISZERO PUSH2 0x7F5 JUMPI PUSH2 0x5AB DUP4 PUSH2 0x641 JUMP JUMPDEST PUSH1 0x1 DUP2 ADD SLOAD PUSH1 0x4 SLOAD DUP3 SLOAD PUSH3 0xF4240 SWAP2 PUSH2 0x80D SWAP2 PUSH2 0x139A JUMP JUMPDEST PUSH2 0x817 SWAP2 SWAP1 PUSH2 0x13B1 JUMP JUMPDEST PUSH2 0x5AB SWAP2 SWAP1 PUSH2 0x13D3 JUMP JUMPDEST CALLER PUSH1 0x0 DUP2 DUP2 MSTORE PUSH1 0x8 PUSH1 0x20 MSTORE PUSH1 0x40 DUP2 KECCAK256 SWAP1 PUSH2 0x83A DUP4 PUSH2 0x7C7 JUMP JUMPDEST SWAP1 POP DUP1 PUSH1 0x0 SUB PUSH2 0x88C JUMPI PUSH1 0x40 MLOAD PUSH3 0x461BCD PUSH1 0xE5 SHL DUP2 MSTORE PUSH1 0x20 PUSH1 0x4 DUP3 ADD MSTORE PUSH1 0x1F PUSH1 0x24 DUP3 ADD MSTORE PUSH32 0x424C42494F3A207468657265206973206E6F20424C4220746F20636C61696D00 PUSH1 0x44 DUP3 ADD MSTORE PUSH1 0x64 ADD PUSH2 0x56C JUMP JUMPDEST PUSH1 0x6 SLOAD PUSH1 0x40 MLOAD PUSH4 0x70A08231 PUSH1 0xE0 SHL DUP2 MSTORE ADDRESS PUSH1 0x4 DUP3 ADD MSTORE DUP3 SWAP2 PUSH1 0x1 PUSH1 0x1 PUSH1 0xA0 SHL SUB AND SWAP1 PUSH4 0x70A08231 SWAP1 PUSH1 0x24 ADD PUSH1 0x20 PUSH1 0x40 MLOAD DUP1 DUP4 SUB DUP2 DUP7 GAS STATICCALL ISZERO DUP1 ISZERO PUSH2 0x8D4 JUMPI RETURNDATASIZE PUSH1 0x0 DUP1 RETURNDATACOPY RETURNDATASIZE PUSH1 0x0 REVERT JUMPDEST POP POP POP POP PUSH1 0x40 MLOAD RETURNDATASIZE PUSH1 0x1F NOT PUSH1 0x1F DUP3 ADD AND DUP3 ADD DUP1 PUSH1 0x40 MSTORE POP DUP2 ADD SWAP1 PUSH2 0x8F8 SWAP2 SWAP1 PUSH2 0x13F9 JUMP JUMPDEST LT ISZERO PUSH2 0x956 JUMPI PUSH1 0x40 MLOAD PUSH3 0x461BCD PUSH1 0xE5 SHL DUP2 MSTORE PUSH1 0x20 PUSH1 0x4 DUP3 ADD MSTORE PUSH1 0x27 PUSH1 0x24 DUP3 ADD MSTORE PUSH32 0x424C42494F3A20696E73756666696369656E7420424C4220696E207468652063 PUSH1 0x44 DUP3 ADD MSTORE PUSH7 0x1BDB9D1C9858DD PUSH1 0xCA SHL PUSH1 0x64 DUP3 ADD MSTORE PUSH1 0x84 ADD PUSH2 0x56C JUMP JUMPDEST DUP1 DUP3 PUSH1 0x1 ADD PUSH1 0x0 DUP3 DUP3 SLOAD PUSH2 0x96A SWAP2 SWAP1 PUSH2 0x13E6 JUMP JUMPDEST SWAP1 SWAP2 SSTORE POP POP PUSH1 0x6 SLOAD PUSH1 0x40 MLOAD PUSH4 0xA9059CBB PUSH1 0xE0 SHL DUP2 MSTORE PUSH1 0x1 PUSH1 0x1 PUSH1 0xA0 SHL SUB DUP6 DUP2 AND PUSH1 0x4 DUP4 ADD MSTORE PUSH1 0x24 DUP3 ADD DUP5 SWAP1 MSTORE SWAP1 SWAP2 AND SWAP1 PUSH4 0xA9059CBB SWAP1 PUSH1 0x44 ADD PUSH1 0x20 PUSH1 0x40 MLOAD DUP1 DUP4 SUB DUP2 PUSH1 0x0 DUP8 GAS CALL ISZERO DUP1 ISZERO PUSH2 0x9C2 JUMPI RETURNDATASIZE PUSH1 0x0 DUP1 RETURNDATACOPY RETURNDATASIZE PUSH1 0x0 REVERT JUMPDEST POP POP POP POP PUSH1 0x40 MLOAD RETURNDATASIZE PUSH1 0x1F NOT PUSH1 0x1F DUP3 ADD AND DUP3 ADD DUP1 PUSH1 0x40 MSTORE POP DUP2 ADD SWAP1 PUSH2 0x9E6 SWAP2 SWAP1 PUSH2 0x1412 JUMP JUMPDEST POP DUP3 PUSH1 0x1 PUSH1 0x1 PUSH1 0xA0 SHL SUB AND PUSH32 0x47CEE97CB7ACD717B3C0AA1435D004CD5B3C8C57D70DBCEB4E4458BBD60E39D4 DUP3 PUSH1 0x40 MLOAD PUSH2 0xA22 SWAP2 DUP2 MSTORE PUSH1 0x20 ADD SWAP1 JUMP JUMPDEST PUSH1 0x40 MLOAD DUP1 SWAP2 SUB SWAP1 LOG2 POP POP POP JUMP JUMPDEST PUSH2 0xA37 PUSH2 0x121A JUMP JUMPDEST PUSH1 0x3 DUP2 SWAP1 SSTORE PUSH1 0x40 MLOAD DUP2 SWAP1 PUSH32 0x8585F06828ED2D9126B998A9D431D18854350C2D883A903F957B1F6E77F6CA24 SWAP1 PUSH1 0x0 SWAP1 LOG2 POP JUMP JUMPDEST PUSH1 0x7 SLOAD PUSH1 0x0 SWAP1 PUSH1 0x1 PUSH1 0xA0 SHL SWAP1 DIV PUSH1 0xFF AND ISZERO PUSH2 0xABA JUMPI PUSH1 0x40 MLOAD PUSH3 0x461BCD PUSH1 0xE5 SHL DUP2 MSTORE PUSH1 0x20 PUSH1 0x4 DUP3 ADD MSTORE PUSH1 0x10 PUSH1 0x24 DUP3 ADD MSTORE PUSH16 0x424C42494F3A20736F6C64206F757421 PUSH1 0x80 SHL PUSH1 0x44 DUP3 ADD MSTORE PUSH1 0x64 ADD PUSH2 0x56C JUMP JUMPDEST PUSH8 0xDE0B6B3A7640000 PUSH2 0xACC DUP4 PUSH2 0x520 JUMP JUMPDEST PUSH32 0x0 PUSH1 0x1 PUSH1 0x1 PUSH1 0xA0 SHL SUB AND PUSH4 0x50D25BCD PUSH1 0x40 MLOAD DUP2 PUSH4 0xFFFFFFFF AND PUSH1 0xE0 SHL DUP2 MSTORE PUSH1 0x4 ADD PUSH1 0x20 PUSH1 0x40 MLOAD DUP1 DUP4 SUB DUP2 DUP7 GAS STATICCALL ISZERO DUP1 ISZERO PUSH2 0xB2A JUMPI RETURNDATASIZE PUSH1 0x0 DUP1 RETURNDATACOPY RETURNDATASIZE PUSH1 0x0 REVERT JUMPDEST POP POP POP POP PUSH1 0x40 MLOAD RETURNDATASIZE PUSH1 0x1F NOT PUSH1 0x1F DUP3 ADD AND DUP3 ADD DUP1 PUSH1 0x40 MSTORE POP DUP2 ADD SWAP1 PUSH2 0xB4E SWAP2 SWAP1 PUSH2 0x13F9 JUMP JUMPDEST PUSH2 0xB58 SWAP2 SWAP1 PUSH2 0x139A JUMP JUMPDEST PUSH2 0xB62 SWAP2 SWAP1 PUSH2 0x13B1 JUMP JUMPDEST SWAP3 SWAP2 POP POP JUMP JUMPDEST PUSH2 0xB70 PUSH2 0x121A JUMP JUMPDEST PUSH2 0xB7A PUSH1 0x0 PUSH2 0x1274 JUMP JUMPDEST JUMP JUMPDEST PUSH2 0xB84 PUSH2 0x121A JUMP JUMPDEST DUP1 DUP3 LT ISZERO PUSH2 0xC13 JUMPI PUSH1 0x40 MLOAD PUSH3 0x461BCD PUSH1 0xE5 SHL DUP2 MSTORE PUSH1 0x20 PUSH1 0x4 DUP3 ADD MSTORE PUSH1 0x50 PUSH1 0x24 DUP3 ADD MSTORE PUSH32 0x424C42494F41646D696E697374726174696F6E3A207075626C69632070726963 PUSH1 0x44 DUP3 ADD MSTORE PUSH32 0x65206D7573742062652067726561746572207468616E206F7220657175616C20 PUSH1 0x64 DUP3 ADD MSTORE PUSH16 0x746F2070726976617465207072696365 PUSH1 0x80 SHL PUSH1 0x84 DUP3 ADD MSTORE PUSH1 0xA4 ADD PUSH2 0x56C JUMP JUMPDEST PUSH1 0x2 DUP3 SWAP1 SSTORE PUSH1 0x1 DUP2 SWAP1 SSTORE PUSH1 0x40 MLOAD DUP2 SWAP1 DUP4 SWAP1 PUSH32 0xF1981AB2EC7E286F52CB5D122CDB004E782C7CD2C7EC79E9C5A07F380F94BD9D SWAP1 PUSH1 0x0 SWAP1 LOG3 POP POP JUMP JUMPDEST PUSH2 0xC56 PUSH2 0x121A JUMP JUMPDEST PUSH1 0x6 SLOAD PUSH1 0x1 PUSH1 0x1 PUSH1 0xA0 SHL SUB AND PUSH4 0xA9059CBB PUSH2 0xC79 PUSH1 0x0 SLOAD PUSH1 0x1 PUSH1 0x1 PUSH1 0xA0 SHL SUB AND SWAP1 JUMP JUMPDEST PUSH1 0x40 MLOAD PUSH1 0x1 PUSH1 0x1 PUSH1 0xE0 SHL SUB NOT PUSH1 0xE0 DUP5 SWAP1 SHL AND DUP2 MSTORE PUSH1 0x1 PUSH1 0x1 PUSH1 0xA0 SHL SUB SWAP1 SWAP2 AND PUSH1 0x4 DUP3 ADD MSTORE PUSH1 0x24 DUP2 ADD DUP5 SWAP1 MSTORE PUSH1 0x44 ADD PUSH1 0x20 PUSH1 0x40 MLOAD DUP1 DUP4 SUB DUP2 PUSH1 0x0 DUP8 GAS CALL ISZERO DUP1 ISZERO PUSH2 0xCC6 JUMPI RETURNDATASIZE PUSH1 0x0 DUP1 RETURNDATACOPY RETURNDATASIZE PUSH1 0x0 REVERT JUMPDEST POP POP POP POP PUSH1 0x40 MLOAD RETURNDATASIZE PUSH1 0x1F NOT PUSH1 0x1F DUP3 ADD AND DUP3 ADD DUP1 PUSH1 0x40 MSTORE POP DUP2 ADD SWAP1 PUSH2 0xCEA SWAP2 SWAP1 PUSH2 0x1412 JUMP JUMPDEST POP PUSH1 0x40 MLOAD PUSH3 0x212621 PUSH1 0xE9 SHL DUP2 MSTORE PUSH1 0x3 ADD PUSH2 0x604 JUMP JUMPDEST PUSH2 0xD07 PUSH2 0x121A JUMP JUMPDEST PUSH1 0x7 SLOAD PUSH1 0x1 PUSH1 0xA0 SHL SWAP1 DIV PUSH1 0xFF AND PUSH2 0xD1F JUMPI PUSH1 0x1 PUSH2 0xD22 JUMP JUMPDEST PUSH1 0x0 JUMPDEST PUSH1 0x7 DUP1 SLOAD PUSH1 0xFF PUSH1 0xA0 SHL NOT AND PUSH1 0x1 PUSH1 0xA0 SHL SWAP3 ISZERO ISZERO DUP4 MUL OR SWAP1 DUP2 SWAP1 SSTORE PUSH1 0x40 MLOAD PUSH1 0xFF SWAP3 SWAP1 SWAP2 DIV SWAP2 SWAP1 SWAP2 AND ISZERO ISZERO DUP2 MSTORE PUSH32 0xA3CFACEB3E57FF8026EA1EA844CE08CA4B74964E184E542EA2AB22605E34F62 SWAP1 PUSH1 0x20 ADD PUSH1 0x40 MLOAD DUP1 SWAP2 SUB SWAP1 LOG1 JUMP JUMPDEST PUSH2 0xD84 PUSH2 0x121A JUMP JUMPDEST PUSH1 0x1 PUSH1 0x1 PUSH1 0xA0 SHL SUB DUP4 AND PUSH1 0x0 SWAP1 DUP2 MSTORE PUSH1 0x8 PUSH1 0x20 MSTORE PUSH1 0x40 DUP2 KECCAK256 DUP1 SLOAD DUP5 SWAP3 SWAP1 PUSH2 0xDAC SWAP1 DUP5 SWAP1 PUSH2 0x13E6 JUMP JUMPDEST SWAP1 SWAP2 SSTORE POP POP PUSH1 0x1 PUSH1 0x1 PUSH1 0xA0 SHL SUB DUP4 AND PUSH1 0x0 SWAP1 DUP2 MSTORE PUSH1 0x8 PUSH1 0x20 MSTORE PUSH1 0x40 DUP2 KECCAK256 PUSH1 0x2 ADD DUP1 SLOAD PUSH1 0xFF NOT AND DUP4 ISZERO ISZERO OR SWAP1 SSTORE PUSH1 0x5 DUP1 SLOAD DUP5 SWAP3 SWAP1 PUSH2 0xDEA SWAP1 DUP5 SWAP1 PUSH2 0x13E6 JUMP JUMPDEST SWAP1 SWAP2 SSTORE POP POP PUSH1 0x40 MLOAD PUSH4 0x19DA599D PUSH1 0xE2 SHL DUP2 MSTORE PUSH1 0x4 ADD PUSH1 0x40 DUP1 MLOAD SWAP2 DUP3 SWAP1 SUB DUP3 KECCAK256 PUSH1 0x0 DUP4 MSTORE PUSH1 0x20 DUP4 ADD DUP6 SWAP1 MSTORE SWAP2 PUSH1 0x1 PUSH1 0x1 PUSH1 0xA0 SHL SUB DUP7 AND SWAP2 PUSH32 0xACD81379883ABF90827A751C8100BEC3C4D1F66DBBA0F8F8B412A049F0A03D70 SWAP2 ADD JUMPDEST PUSH1 0x40 MLOAD DUP1 SWAP2 SUB SWAP1 LOG3 POP POP POP JUMP JUMPDEST PUSH1 0x0 DUP2 GT PUSH2 0xE9A JUMPI PUSH1 0x40 MLOAD PUSH3 0x461BCD PUSH1 0xE5 SHL DUP2 MSTORE PUSH1 0x20 PUSH1 0x4 DUP3 ADD MSTORE PUSH1 0x16 PUSH1 0x24 DUP3 ADD MSTORE PUSH22 0x424C42494F3A207A65726F20616D6F756E7420627579 PUSH1 0x50 SHL PUSH1 0x44 DUP3 ADD MSTORE PUSH1 0x64 ADD PUSH2 0x56C JUMP JUMPDEST CALLER PUSH1 0x0 PUSH2 0xEA6 DUP4 PUSH2 0x520 JUMP JUMPDEST PUSH1 0x7 SLOAD PUSH1 0x40 MLOAD PUSH4 0x23B872DD PUSH1 0xE0 SHL DUP2 MSTORE PUSH1 0x1 PUSH1 0x1 PUSH1 0xA0 SHL SUB DUP6 DUP2 AND PUSH1 0x4 DUP4 ADD MSTORE ADDRESS PUSH1 0x24 DUP4 ADD MSTORE PUSH1 0x44 DUP3 ADD DUP5 SWAP1 MSTORE SWAP3 SWAP4 POP SWAP2 AND SWAP1 PUSH4 0x23B872DD SWAP1 PUSH1 0x64 ADD PUSH1 0x20 PUSH1 0x40 MLOAD DUP1 DUP4 SUB DUP2 PUSH1 0x0 DUP8 GAS CALL ISZERO DUP1 ISZERO PUSH2 0xF01 JUMPI RETURNDATASIZE PUSH1 0x0 DUP1 RETURNDATACOPY RETURNDATASIZE PUSH1 0x0 REVERT JUMPDEST POP POP POP POP PUSH1 0x40 MLOAD RETURNDATASIZE PUSH1 0x1F NOT PUSH1 0x1F DUP3 ADD AND DUP3 ADD DUP1 PUSH1 0x40 MSTORE POP DUP2 ADD SWAP1 PUSH2 0xF25 SWAP2 SWAP1 PUSH2 0x1412 JUMP JUMPDEST POP PUSH1 0x1 PUSH1 0x1 PUSH1 0xA0 SHL SUB DUP3 AND PUSH1 0x0 SWAP1 DUP2 MSTORE PUSH1 0x8 PUSH1 0x20 MSTORE PUSH1 0x40 DUP2 KECCAK256 DUP1 SLOAD DUP6 SWAP3 SWAP1 PUSH2 0xF4E SWAP1 DUP5 SWAP1 PUSH2 0x13E6 JUMP JUMPDEST SWAP3 POP POP DUP2 SWAP1 SSTORE POP DUP3 PUSH1 0x5 PUSH1 0x0 DUP3 DUP3 SLOAD PUSH2 0xF67 SWAP2 SWAP1 PUSH2 0x13E6 JUMP JUMPDEST SWAP1 SWAP2 SSTORE POP POP PUSH1 0x40 MLOAD PUSH4 0x109554D1 PUSH1 0xE2 SHL DUP2 MSTORE PUSH1 0x4 ADD PUSH1 0x40 DUP1 MLOAD SWAP2 DUP3 SWAP1 SUB DUP3 KECCAK256 DUP4 DUP4 MSTORE PUSH1 0x20 DUP4 ADD DUP7 SWAP1 MSTORE SWAP2 PUSH1 0x1 PUSH1 0x1 PUSH1 0xA0 SHL SUB DUP6 AND SWAP2 PUSH32 0xACD81379883ABF90827A751C8100BEC3C4D1F66DBBA0F8F8B412A049F0A03D70 SWAP2 ADD PUSH2 0xE44 JUMP JUMPDEST PUSH2 0xFCC PUSH2 0x121A JUMP JUMPDEST PUSH1 0x7 SLOAD PUSH1 0x1 PUSH1 0x1 PUSH1 0xA0 SHL SUB AND PUSH4 0xA9059CBB PUSH2 0xFEF PUSH1 0x0 SLOAD PUSH1 0x1 PUSH1 0x1 PUSH1 0xA0 SHL SUB AND SWAP1 JUMP JUMPDEST PUSH1 0x40 MLOAD PUSH1 0x1 PUSH1 0x1 PUSH1 0xE0 SHL SUB NOT PUSH1 0xE0 DUP5 SWAP1 SHL AND DUP2 MSTORE PUSH1 0x1 PUSH1 0x1 PUSH1 0xA0 SHL SUB SWAP1 SWAP2 AND PUSH1 0x4 DUP3 ADD MSTORE PUSH1 0x24 DUP2 ADD DUP5 SWAP1 MSTORE PUSH1 0x44 ADD PUSH1 0x20 PUSH1 0x40 MLOAD DUP1 DUP4 SUB DUP2 PUSH1 0x0 DUP8 GAS CALL ISZERO DUP1 ISZERO PUSH2 0x103C JUMPI RETURNDATASIZE PUSH1 0x0 DUP1 RETURNDATACOPY RETURNDATASIZE PUSH1 0x0 REVERT JUMPDEST POP POP POP POP PUSH1 0x40 MLOAD RETURNDATASIZE PUSH1 0x1F NOT PUSH1 0x1F DUP3 ADD AND DUP3 ADD DUP1 PUSH1 0x40 MSTORE POP DUP2 ADD SWAP1 PUSH2 0x1060 SWAP2 SWAP1 PUSH2 0x1412 JUMP JUMPDEST POP PUSH1 0x40 MLOAD PUSH4 0x109554D1 PUSH1 0xE2 SHL DUP2 MSTORE PUSH1 0x4 ADD PUSH2 0x604 JUMP JUMPDEST PUSH2 0x107E PUSH2 0x121A JUMP JUMPDEST DUP1 PUSH1 0x4 PUSH1 0x0 DUP3 DUP3 SLOAD PUSH2 0x1090 SWAP2 SWAP1 PUSH2 0x13E6 JUMP JUMPDEST SWAP1 SWAP2 SSTORE POP POP PUSH1 0x4 SLOAD PUSH3 0xF4240 LT ISZERO PUSH2 0x10FD JUMPI PUSH1 0x40 MLOAD PUSH3 0x461BCD PUSH1 0xE5 SHL DUP2 MSTORE PUSH1 0x20 PUSH1 0x4 DUP3 ADD MSTORE PUSH1 0x2A PUSH1 0x24 DUP3 ADD MSTORE PUSH32 0x424C42494F41646D696E697374726174696F6E3A206672616374696F6E206578 PUSH1 0x44 DUP3 ADD MSTORE PUSH10 0x31B2B2B2399018982F1B PUSH1 0xB1 SHL PUSH1 0x64 DUP3 ADD MSTORE PUSH1 0x84 ADD PUSH2 0x56C JUMP JUMPDEST POP JUMP JUMPDEST PUSH1 0x7 SLOAD PUSH1 0x40 MLOAD PUSH4 0x70A08231 PUSH1 0xE0 SHL DUP2 MSTORE ADDRESS PUSH1 0x4 DUP3 ADD MSTORE PUSH1 0x0 SWAP2 PUSH1 0x1 PUSH1 0x1 PUSH1 0xA0 SHL SUB AND SWAP1 PUSH4 0x70A08231 SWAP1 PUSH1 0x24 ADD JUMPDEST PUSH1 0x20 PUSH1 0x40 MLOAD DUP1 DUP4 SUB DUP2 DUP7 GAS STATICCALL ISZERO DUP1 ISZERO PUSH2 0x114A JUMPI RETURNDATASIZE PUSH1 0x0 DUP1 RETURNDATACOPY RETURNDATASIZE PUSH1 0x0 REVERT JUMPDEST POP POP POP POP PUSH1 0x40 MLOAD RETURNDATASIZE PUSH1 0x1F NOT PUSH1 0x1F DUP3 ADD AND DUP3 ADD DUP1 PUSH1 0x40 MSTORE POP DUP2 ADD SWAP1 PUSH2 0x116E SWAP2 SWAP1 PUSH2 0x13F9 JUMP JUMPDEST SWAP1 POP SWAP1 JUMP JUMPDEST PUSH1 0x6 SLOAD PUSH1 0x40 MLOAD PUSH4 0x70A08231 PUSH1 0xE0 SHL DUP2 MSTORE ADDRESS PUSH1 0x4 DUP3 ADD MSTORE PUSH1 0x0 SWAP2 PUSH1 0x1 PUSH1 0x1 PUSH1 0xA0 SHL SUB AND SWAP1 PUSH4 0x70A08231 SWAP1 PUSH1 0x24 ADD PUSH2 0x112D JUMP JUMPDEST PUSH2 0x11AC PUSH2 0x121A JUMP JUMPDEST PUSH1 0x1 PUSH1 0x1 PUSH1 0xA0 SHL SUB DUP2 AND PUSH2 0x1211 JUMPI PUSH1 0x40 MLOAD PUSH3 0x461BCD PUSH1 0xE5 SHL DUP2 MSTORE PUSH1 0x20 PUSH1 0x4 DUP3 ADD MSTORE PUSH1 0x26 PUSH1 0x24 DUP3 ADD MSTORE PUSH32 0x4F776E61626C653A206E6577206F776E657220697320746865207A65726F2061 PUSH1 0x44 DUP3 ADD MSTORE PUSH6 0x646472657373 PUSH1 0xD0 SHL PUSH1 0x64 DUP3 ADD MSTORE PUSH1 0x84 ADD PUSH2 0x56C JUMP JUMPDEST PUSH2 0x10FD DUP2 PUSH2 0x1274 JUMP JUMPDEST PUSH1 0x0 SLOAD PUSH1 0x1 PUSH1 0x1 PUSH1 0xA0 SHL SUB AND CALLER EQ PUSH2 0xB7A JUMPI PUSH1 0x40 MLOAD PUSH3 0x461BCD PUSH1 0xE5 SHL DUP2 MSTORE PUSH1 0x20 PUSH1 0x4 DUP3 ADD DUP2 SWAP1 MSTORE PUSH1 0x24 DUP3 ADD MSTORE PUSH32 0x4F776E61626C653A2063616C6C6572206973206E6F7420746865206F776E6572 PUSH1 0x44 DUP3 ADD MSTORE PUSH1 0x64 ADD PUSH2 0x56C JUMP JUMPDEST PUSH1 0x0 DUP1 SLOAD PUSH1 0x1 PUSH1 0x1 PUSH1 0xA0 SHL SUB DUP4 DUP2 AND PUSH1 0x1 PUSH1 0x1 PUSH1 0xA0 SHL SUB NOT DUP4 AND DUP2 OR DUP5 SSTORE PUSH1 0x40 MLOAD SWAP2 SWAP1 SWAP3 AND SWAP3 DUP4 SWAP2 PUSH32 0x8BE0079C531659141344CD1FD0A4F28419497F9722A3DAAFE3B4186F6B6457E0 SWAP2 SWAP1 LOG3 POP POP JUMP JUMPDEST PUSH1 0x0 PUSH1 0x20 DUP3 DUP5 SUB SLT ISZERO PUSH2 0x12D6 JUMPI PUSH1 0x0 DUP1 REVERT JUMPDEST POP CALLDATALOAD SWAP2 SWAP1 POP JUMP JUMPDEST DUP1 CALLDATALOAD PUSH1 0x1 PUSH1 0x1 PUSH1 0xA0 SHL SUB DUP2 AND DUP2 EQ PUSH2 0x12F4 JUMPI PUSH1 0x0 DUP1 REVERT JUMPDEST SWAP2 SWAP1 POP JUMP JUMPDEST PUSH1 0x0 PUSH1 0x20 DUP3 DUP5 SUB SLT ISZERO PUSH2 0x130B JUMPI PUSH1 0x0 DUP1 REVERT JUMPDEST PUSH2 0x5AB DUP3 PUSH2 0x12DD JUMP JUMPDEST PUSH1 0x0 DUP1 PUSH1 0x40 DUP4 DUP6 SUB SLT ISZERO PUSH2 0x1327 JUMPI PUSH1 0x0 DUP1 REVERT JUMPDEST POP POP DUP1 CALLDATALOAD SWAP3 PUSH1 0x20 SWAP1 SWAP2 ADD CALLDATALOAD SWAP2 POP JUMP JUMPDEST DUP1 ISZERO ISZERO DUP2 EQ PUSH2 0x10FD JUMPI PUSH1 0x0 DUP1 REVERT JUMPDEST PUSH1 0x0 DUP1 PUSH1 0x0 PUSH1 0x60 DUP5 DUP7 SUB SLT ISZERO PUSH2 0x1359 JUMPI PUSH1 0x0 DUP1 REVERT JUMPDEST PUSH2 0x1362 DUP5 PUSH2 0x12DD JUMP JUMPDEST SWAP3 POP PUSH1 0x20 DUP5 ADD CALLDATALOAD SWAP2 POP PUSH1 0x40 DUP5 ADD CALLDATALOAD PUSH2 0x1379 DUP2 PUSH2 0x1336 JUMP JUMPDEST DUP1 SWAP2 POP POP SWAP3 POP SWAP3 POP SWAP3 JUMP JUMPDEST PUSH4 0x4E487B71 PUSH1 0xE0 SHL PUSH1 0x0 MSTORE PUSH1 0x11 PUSH1 0x4 MSTORE PUSH1 0x24 PUSH1 0x0 REVERT JUMPDEST DUP1 DUP3 MUL DUP2 ISZERO DUP3 DUP3 DIV DUP5 EQ OR PUSH2 0xB62 JUMPI PUSH2 0xB62 PUSH2 0x1384 JUMP JUMPDEST PUSH1 0x0 DUP3 PUSH2 0x13CE JUMPI PUSH4 0x4E487B71 PUSH1 0xE0 SHL PUSH1 0x0 MSTORE PUSH1 0x12 PUSH1 0x4 MSTORE PUSH1 0x24 PUSH1 0x0 REVERT JUMPDEST POP DIV SWAP1 JUMP JUMPDEST DUP2 DUP2 SUB DUP2 DUP2 GT ISZERO PUSH2 0xB62 JUMPI PUSH2 0xB62 PUSH2 0x1384 JUMP JUMPDEST DUP1 DUP3 ADD DUP1 DUP3 GT ISZERO PUSH2 0xB62 JUMPI PUSH2 0xB62 PUSH2 0x1384 JUMP JUMPDEST PUSH1 0x0 PUSH1 0x20 DUP3 DUP5 SUB SLT ISZERO PUSH2 0x140B JUMPI PUSH1 0x0 DUP1 REVERT JUMPDEST POP MLOAD SWAP2 SWAP1 POP JUMP JUMPDEST PUSH1 0x0 PUSH1 0x20 DUP3 DUP5 SUB SLT ISZERO PUSH2 0x1424 JUMPI PUSH1 0x0 DUP1 REVERT JUMPDEST DUP2 MLOAD PUSH2 0x5AB DUP2 PUSH2 0x1336 JUMP INVALID LOG2 PUSH5 0x6970667358 0x22 SLT KECCAK256 PUSH12 0xAB471D51A25D870D5D1ADA30 COINBASE 0x2A POP BLOCKHASH 0x4E 0x23 0xC3 STOP SHR 0xE0 XOR 0xD1 0xC2 0xD8 SWAP1 0x26 0xF8 NUMBER 0xC8 PUSH5 0x736F6C6343 STOP ADDMOD GT STOP CALLER "},"methodIdentifiers":{"BLB()":"bfa54b3f","BUSD()":"484f4ea9","TotalClaimable()":"4426a263","blbBalance()":"e00115f6","bnbBalance()":"d013cbe2","busdBalance()":"dc39ca7a","claim()":"4e71d92d","claimable(address)":"402914f5","claimableFraction()":"158b072c","giftBLB(address,uint256,bool)":"c9e3c9c7","increaseClaimableFraction(uint256)":"ce9d3b09","owner()":"8da5cb5b","priceInBNB(uint256)":"5d2a2c99","priceInUSD(uint256)":"06dc693b","privatePriceInUSD()":"c73b2a43","publicPriceInUSD()":"8380c091","purchaseInBNB(uint256)":"2c8e695b","purchaseInBUSD(uint256)":"cc205db3","renounceOwnership()":"715018a6","retailLimit()":"790b284f","setPriceInUSD(uint256,uint256)":"769bb5ac","setRetailLimit(uint256)":"5b0dfa95","setSoldOut()":"be5be211","soldOut()":"893da6c9","totalClaimable(address)":"1dfce5c6","transferOwnership(address)":"f2fde38b","withdrawBLB(uint256)":"7f04e0e1","withdrawBNB(uint256)":"127f4b2e","withdrawBUSD(uint256)":"cc3bcaf3"}}}}}