{
  "_format": "hh-sol-artifact-1",
  "contractName": "StakeBNB_BLB",
  "sourceName": "contracts/StakePool/StakeBNB_BLB.sol",
  "abi": [
    {
      "inputs": [
        {
          "internalType": "contract IERC20",
          "name": "_BLB",
          "type": "address"
        }
      ],
      "stateMutability": "nonpayable",
      "type": "constructor"
    },
    {
      "anonymous": false,
      "inputs": [
        {
          "indexed": true,
          "internalType": "address",
          "name": "investor",
          "type": "address"
        },
        {
          "indexed": true,
          "internalType": "uint256",
          "name": "investId",
          "type": "uint256"
        },
        {
          "indexed": false,
          "internalType": "uint256",
          "name": "amount",
          "type": "uint256"
        },
        {
          "indexed": false,
          "internalType": "uint256",
          "name": "start",
          "type": "uint256"
        },
        {
          "indexed": false,
          "internalType": "uint256",
          "name": "end",
          "type": "uint256"
        },
        {
          "indexed": false,
          "internalType": "uint256",
          "name": "profit",
          "type": "uint256"
        }
      ],
      "name": "NewInvestment",
      "type": "event"
    },
    {
      "anonymous": false,
      "inputs": [
        {
          "indexed": true,
          "internalType": "address",
          "name": "previousOwner",
          "type": "address"
        },
        {
          "indexed": true,
          "internalType": "address",
          "name": "newOwner",
          "type": "address"
        }
      ],
      "name": "OwnershipTransferred",
      "type": "event"
    },
    {
      "anonymous": false,
      "inputs": [
        {
          "indexed": false,
          "internalType": "address",
          "name": "account",
          "type": "address"
        }
      ],
      "name": "Paused",
      "type": "event"
    },
    {
      "anonymous": false,
      "inputs": [
        {
          "indexed": true,
          "internalType": "uint256",
          "name": "duration",
          "type": "uint256"
        },
        {
          "indexed": false,
          "internalType": "uint256",
          "name": "profit",
          "type": "uint256"
        }
      ],
      "name": "SetPlan",
      "type": "event"
    },
    {
      "anonymous": false,
      "inputs": [
        {
          "indexed": false,
          "internalType": "address",
          "name": "account",
          "type": "address"
        }
      ],
      "name": "Unpaused",
      "type": "event"
    },
    {
      "anonymous": false,
      "inputs": [
        {
          "indexed": true,
          "internalType": "address",
          "name": "investor",
          "type": "address"
        },
        {
          "indexed": true,
          "internalType": "uint256",
          "name": "investId",
          "type": "uint256"
        },
        {
          "indexed": false,
          "internalType": "uint256",
          "name": "amountBNB",
          "type": "uint256"
        },
        {
          "indexed": false,
          "internalType": "uint256",
          "name": "amountBLB",
          "type": "uint256"
        }
      ],
      "name": "Withdraw",
      "type": "event"
    },
    {
      "inputs": [],
      "name": "BLB",
      "outputs": [
        {
          "internalType": "contract IERC20",
          "name": "",
          "type": "address"
        }
      ],
      "stateMutability": "view",
      "type": "function"
    },
    {
      "inputs": [],
      "name": "checkPoint1",
      "outputs": [
        {
          "internalType": "uint256",
          "name": "passTime",
          "type": "uint256"
        },
        {
          "internalType": "uint256",
          "name": "saveBNB",
          "type": "uint256"
        },
        {
          "internalType": "uint256",
          "name": "saveBLB",
          "type": "uint256"
        }
      ],
      "stateMutability": "view",
      "type": "function"
    },
    {
      "inputs": [],
      "name": "checkPoint2",
      "outputs": [
        {
          "internalType": "uint256",
          "name": "passTime",
          "type": "uint256"
        },
        {
          "internalType": "uint256",
          "name": "saveBNB",
          "type": "uint256"
        },
        {
          "internalType": "uint256",
          "name": "saveBLB",
          "type": "uint256"
        }
      ],
      "stateMutability": "view",
      "type": "function"
    },
    {
      "inputs": [],
      "name": "checkPoint3",
      "outputs": [
        {
          "internalType": "uint256",
          "name": "passTime",
          "type": "uint256"
        },
        {
          "internalType": "uint256",
          "name": "saveBNB",
          "type": "uint256"
        },
        {
          "internalType": "uint256",
          "name": "saveBLB",
          "type": "uint256"
        }
      ],
      "stateMutability": "view",
      "type": "function"
    },
    {
      "inputs": [
        {
          "internalType": "address",
          "name": "",
          "type": "address"
        },
        {
          "internalType": "uint256",
          "name": "",
          "type": "uint256"
        }
      ],
      "name": "investments",
      "outputs": [
        {
          "internalType": "uint256",
          "name": "amount",
          "type": "uint256"
        },
        {
          "internalType": "uint256",
          "name": "start",
          "type": "uint256"
        },
        {
          "internalType": "uint256",
          "name": "end",
          "type": "uint256"
        },
        {
          "internalType": "uint256",
          "name": "profit",
          "type": "uint256"
        },
        {
          "internalType": "uint256",
          "name": "claimTime",
          "type": "uint256"
        }
      ],
      "stateMutability": "view",
      "type": "function"
    },
    {
      "inputs": [
        {
          "internalType": "address",
          "name": "borrower",
          "type": "address"
        },
        {
          "internalType": "uint256",
          "name": "amount",
          "type": "uint256"
        }
      ],
      "name": "loanBLB",
      "outputs": [],
      "stateMutability": "nonpayable",
      "type": "function"
    },
    {
      "inputs": [
        {
          "internalType": "address",
          "name": "borrower",
          "type": "address"
        },
        {
          "internalType": "uint256",
          "name": "amount",
          "type": "uint256"
        }
      ],
      "name": "loanBNB",
      "outputs": [],
      "stateMutability": "nonpayable",
      "type": "function"
    },
    {
      "inputs": [
        {
          "internalType": "uint256",
          "name": "duration",
          "type": "uint256"
        }
      ],
      "name": "newInvestment",
      "outputs": [],
      "stateMutability": "payable",
      "type": "function"
    },
    {
      "inputs": [],
      "name": "owner",
      "outputs": [
        {
          "internalType": "address",
          "name": "",
          "type": "address"
        }
      ],
      "stateMutability": "view",
      "type": "function"
    },
    {
      "inputs": [],
      "name": "pause",
      "outputs": [],
      "stateMutability": "nonpayable",
      "type": "function"
    },
    {
      "inputs": [],
      "name": "paused",
      "outputs": [
        {
          "internalType": "bool",
          "name": "",
          "type": "bool"
        }
      ],
      "stateMutability": "view",
      "type": "function"
    },
    {
      "inputs": [
        {
          "internalType": "address",
          "name": "investor",
          "type": "address"
        },
        {
          "internalType": "uint256",
          "name": "investmentId",
          "type": "uint256"
        }
      ],
      "name": "pendingWithdrawal",
      "outputs": [
        {
          "internalType": "uint256",
          "name": "amountBNB",
          "type": "uint256"
        },
        {
          "internalType": "uint256",
          "name": "amountBLB",
          "type": "uint256"
        }
      ],
      "stateMutability": "view",
      "type": "function"
    },
    {
      "inputs": [
        {
          "internalType": "address",
          "name": "investor",
          "type": "address"
        },
        {
          "internalType": "uint256",
          "name": "investmentId",
          "type": "uint256"
        }
      ],
      "name": "releaseTime",
      "outputs": [
        {
          "internalType": "uint256",
          "name": "",
          "type": "uint256"
        }
      ],
      "stateMutability": "view",
      "type": "function"
    },
    {
      "inputs": [],
      "name": "renounceOwnership",
      "outputs": [],
      "stateMutability": "nonpayable",
      "type": "function"
    },
    {
      "inputs": [
        {
          "internalType": "uint256",
          "name": "",
          "type": "uint256"
        }
      ],
      "name": "rewardPlans",
      "outputs": [
        {
          "internalType": "uint256",
          "name": "",
          "type": "uint256"
        }
      ],
      "stateMutability": "view",
      "type": "function"
    },
    {
      "inputs": [
        {
          "internalType": "uint256",
          "name": "passTime1",
          "type": "uint256"
        },
        {
          "internalType": "uint256",
          "name": "saveBNB1",
          "type": "uint256"
        },
        {
          "internalType": "uint256",
          "name": "saveBLB1",
          "type": "uint256"
        },
        {
          "internalType": "uint256",
          "name": "passTime2",
          "type": "uint256"
        },
        {
          "internalType": "uint256",
          "name": "saveBNB2",
          "type": "uint256"
        },
        {
          "internalType": "uint256",
          "name": "saveBLB2",
          "type": "uint256"
        },
        {
          "internalType": "uint256",
          "name": "passTime3",
          "type": "uint256"
        },
        {
          "internalType": "uint256",
          "name": "saveBNB3",
          "type": "uint256"
        },
        {
          "internalType": "uint256",
          "name": "saveBLB3",
          "type": "uint256"
        }
      ],
      "name": "setCheckpoints",
      "outputs": [],
      "stateMutability": "nonpayable",
      "type": "function"
    },
    {
      "inputs": [
        {
          "internalType": "uint256",
          "name": "duration",
          "type": "uint256"
        },
        {
          "internalType": "uint256",
          "name": "profit",
          "type": "uint256"
        }
      ],
      "name": "setPlan",
      "outputs": [],
      "stateMutability": "nonpayable",
      "type": "function"
    },
    {
      "inputs": [],
      "name": "totalInvestingBNB",
      "outputs": [
        {
          "internalType": "uint256",
          "name": "",
          "type": "uint256"
        }
      ],
      "stateMutability": "view",
      "type": "function"
    },
    {
      "inputs": [],
      "name": "totalPendingBLB",
      "outputs": [
        {
          "internalType": "uint256",
          "name": "",
          "type": "uint256"
        }
      ],
      "stateMutability": "view",
      "type": "function"
    },
    {
      "inputs": [
        {
          "internalType": "address",
          "name": "newOwner",
          "type": "address"
        }
      ],
      "name": "transferOwnership",
      "outputs": [],
      "stateMutability": "nonpayable",
      "type": "function"
    },
    {
      "inputs": [],
      "name": "unpause",
      "outputs": [],
      "stateMutability": "nonpayable",
      "type": "function"
    },
    {
      "inputs": [
        {
          "internalType": "uint256",
          "name": "investmentId",
          "type": "uint256"
        }
      ],
      "name": "withdraw",
      "outputs": [],
      "stateMutability": "nonpayable",
      "type": "function"
    }
  ],
  "bytecode": "0x60806040523480156200001157600080fd5b50604051620012b7380380620012b7833981016040819052620000349162000215565b6200003f33620000e4565b6000805460ff60a01b19169055600180546001600160a01b0319166001600160a01b0383161790556200007e62015180670de0b6b3a764000062000134565b6200009562093a80678ac7230489e8000062000134565b620000ad62278d006802b5e3af16b188000062000134565b620000c56276a7006809c2007651b250000062000134565b620000dd600060508160326064828482602862000150565b5062000247565b600080546001600160a01b038381166001600160a01b0319831681178455604051919092169283917f8be0079c531659141344cd1fd0a4f28419497f9722a3daafe3b4186f6b6457e09190a35050565b6200013e620001b4565b60009182526004602052604090912055565b6200015a620001b4565b60408051606080820183529a815260208082019a909a528101979097528651808a01885295865285880194909452938501919091528351958601845280865293850182905293909101839052600691909155600755600855565b6000546001600160a01b03163314620002135760405162461bcd60e51b815260206004820181905260248201527f4f776e61626c653a2063616c6c6572206973206e6f7420746865206f776e6572604482015260640160405180910390fd5b565b6000602082840312156200022857600080fd5b81516001600160a01b03811681146200024057600080fd5b9392505050565b61106080620002576000396000f3fe6080604052600436106101355760003560e01c806388a9931f116100ab578063ad33710c1161006f578063ad33710c14610397578063bfa54b3f146103b6578063c877921c146103d6578063d5d4d114146103f6578063e88cf1b414610415578063f2fde38b1461042b57600080fd5b806388a9931f146102cb57806388f89169146102f85780638a2ac3971461030b5780638da5cb5b14610345578063a2fa0c751461037757600080fd5b80633f4ba83a116100fd5780633f4ba83a146102225780634668d866146102375780634983c3ab146102575780635c975abb14610277578063715018a6146102a15780638456cb59146102b657600080fd5b80631dd6781b1461013a5780632bf0da7e146101635780632e1a7d4d146101985780633353561d146101ba5780633e6d9770146101da575b600080fd5b34801561014657600080fd5b5061015060025481565b6040519081526020015b60405180910390f35b34801561016f57600080fd5b5061018361017e366004610e97565b61044b565b6040805192835260208301919091520161015a565b3480156101a457600080fd5b506101b86101b3366004610ec1565b610674565b005b3480156101c657600080fd5b506101b86101d5366004610eda565b61083e565b3480156101e657600080fd5b506101fa6101f5366004610e97565b610858565b604080519586526020860194909452928401919091526060830152608082015260a00161015a565b34801561022e57600080fd5b506101b86108a6565b34801561024357600080fd5b506101b8610252366004610efc565b6108b8565b34801561026357600080fd5b50610150610272366004610e97565b61091a565b34801561028357600080fd5b50600054600160a01b900460ff16604051901515815260200161015a565b3480156102ad57600080fd5b506101b861095f565b3480156102c257600080fd5b506101b8610971565b3480156102d757600080fd5b506101506102e6366004610ec1565b60046020526000908152604090205481565b6101b8610306366004610ec1565b610981565b34801561031757600080fd5b50600954600a54600b5461032a92919083565b6040805193845260208401929092529082015260600161015a565b34801561035157600080fd5b506000546001600160a01b03165b6040516001600160a01b03909116815260200161015a565b34801561038357600080fd5b506101b8610392366004610e97565b610b61565b3480156103a357600080fd5b5060065460075460085461032a92919083565b3480156103c257600080fd5b5060015461035f906001600160a01b031681565b3480156103e257600080fd5b506101b86103f1366004610e97565b610be5565b34801561040257600080fd5b50600c54600d54600e5461032a92919083565b34801561042157600080fd5b5061015060035481565b34801561043757600080fd5b506101b8610446366004610f5b565b610c23565b6001600160a01b03821660009081526005602052604081208054829182918590811061047957610479610f7d565b9060005260206000209060050201905080600401546000146104fd5760405162461bcd60e51b815260206004820152603260248201527f7374616b65506f6f6c3a207468697320696e766573746d656e7420686173206260448201527165656e20636c61696d6564206265666f726560701b60648201526084015b60405180910390fd5b6001810154600282015442919060006105168383610fa9565b85546003870154919250908386111561053457819850809750610666565b84606484600c600001546105489190610fbc565b6105529190610fd3565b61055c9190610ff5565b8611156105a157600d546064906105739084610fbc565b61057d9190610fd3565b600e549099506064906105909083610fbc565b61059a9190610fd3565b9750610666565b846064846009600001546105b59190610fbc565b6105bf9190610fd3565b6105c99190610ff5565b8611156105fd57600a546064906105e09084610fbc565b6105ea9190610fd3565b600b549099506064906105909083610fbc565b846064846006600001546106119190610fbc565b61061b9190610fd3565b6106259190610ff5565b8611156106665760075460649061063c9084610fbc565b6106469190610fd3565b6008549099506064906106599083610fbc565b6106639190610fd3565b97505b505050505050509250929050565b33600081815260056020526040812080548490811061069557610695610f7d565b906000526020600020906005020190506000806106b2848661044b565b91509150600082116107065760405162461bcd60e51b815260206004820152601e60248201527f5374616b65506f6f6c3a206e6f7468696e6720746f207769746864726177000060448201526064016104f4565b4260048401556040516001600160a01b0385169083156108fc029084906000818181858888f19350505050158015610742573d6000803e3d6000fd5b5060015460405163a9059cbb60e01b81526001600160a01b038681166004830152602482018490529091169063a9059cbb906044016020604051808303816000875af1158015610796573d6000803e3d6000fd5b505050506040513d601f19601f820116820180604052508101906107ba9190611008565b508254600280546000906107cf908490610fa9565b925050819055508260030154600360008282546107ec9190610fa9565b9091555050604080518381526020810183905286916001600160a01b038716917f02f25270a4d87bea75db541cdfe559334a275b4a233520ed6c0a2429667cca94910160405180910390a35050505050565b610846610c9c565b60009182526004602052604090912055565b6005602052816000526040600020818154811061087457600080fd5b600091825260209091206005909102018054600182015460028301546003840154600490940154929550909350919085565b6108ae610c9c565b6108b6610cf6565b565b6108c0610c9c565b60408051606080820183529a815260208082019a909a528101979097528651808a01885295865285880194909452938501919091528351958601845280865293850182905293909101839052600691909155600755600855565b6001600160a01b038216600090815260056020526040812080548390811061094457610944610f7d565b90600052602060002090600502016002015490505b92915050565b610967610c9c565b6108b66000610d4b565b610979610c9c565b6108b6610d9b565b610989610dde565b60008181526004602052604081205490036109f05760405162461bcd60e51b815260206004820152602160248201527f7468657265206973206e6f20706c616e2062792074686973206475726174696f6044820152603760f91b60648201526084016104f4565b33344260006109ff8583610ff5565b60008681526004602052604081205491925090670de0b6b3a764000090610a269086610fbc565b610a309190610fd3565b6001600160a01b0386166000908152600560208181526040808420815160a0810183528a81528084018a81529281018981526060820188815260808301888152845460018181018755958a52968920935196909702909201948555925191840191909155905160028084019190915590516003830155915160049091015580549293508692909190610ac3908490610ff5565b925050819055508060036000828254610adc9190610ff5565b90915550506001600160a01b038516600090815260056020526040902054610b0690600190610fa9565b6040805186815260208101869052908101849052606081018390526001600160a01b038716907f72e5f615ebc79a295430cc50e3cdf038a03d48b17f7ef4586ab25a1d481de6959060800160405180910390a3505050505050565b610b69610c9c565b60015460405163a9059cbb60e01b81526001600160a01b038481166004830152602482018490529091169063a9059cbb906044016020604051808303816000875af1158015610bbc573d6000803e3d6000fd5b505050506040513d601f19601f82011682018060405250810190610be09190611008565b505050565b610bed610c9c565b6040516001600160a01b0383169082156108fc029083906000818181858888f19350505050158015610be0573d6000803e3d6000fd5b610c2b610c9c565b6001600160a01b038116610c905760405162461bcd60e51b815260206004820152602660248201527f4f776e61626c653a206e6577206f776e657220697320746865207a65726f206160448201526564647265737360d01b60648201526084016104f4565b610c9981610d4b565b50565b6000546001600160a01b031633146108b65760405162461bcd60e51b815260206004820181905260248201527f4f776e61626c653a2063616c6c6572206973206e6f7420746865206f776e657260448201526064016104f4565b610cfe610e2b565b6000805460ff60a01b191690557f5db9ee0a495bf2e6ff9c91a7834c1ba4fdd244a5e8aa4e537bd38aeae4b073aa335b6040516001600160a01b03909116815260200160405180910390a1565b600080546001600160a01b038381166001600160a01b0319831681178455604051919092169283917f8be0079c531659141344cd1fd0a4f28419497f9722a3daafe3b4186f6b6457e09190a35050565b610da3610dde565b6000805460ff60a01b1916600160a01b1790557f62e78cea01bee320cd4e420270b5ea74000d11b0c9f74754ebdbfc544b05a258610d2e3390565b600054600160a01b900460ff16156108b65760405162461bcd60e51b815260206004820152601060248201526f14185d5cd8589b194e881c185d5cd95960821b60448201526064016104f4565b600054600160a01b900460ff166108b65760405162461bcd60e51b815260206004820152601460248201527314185d5cd8589b194e881b9bdd081c185d5cd95960621b60448201526064016104f4565b80356001600160a01b0381168114610e9257600080fd5b919050565b60008060408385031215610eaa57600080fd5b610eb383610e7b565b946020939093013593505050565b600060208284031215610ed357600080fd5b5035919050565b60008060408385031215610eed57600080fd5b50508035926020909101359150565b60008060008060008060008060006101208a8c031215610f1b57600080fd5b505087359960208901359950604089013598606081013598506080810135975060a0810135965060c0810135955060e08101359450610100013592509050565b600060208284031215610f6d57600080fd5b610f7682610e7b565b9392505050565b634e487b7160e01b600052603260045260246000fd5b634e487b7160e01b600052601160045260246000fd5b8181038181111561095957610959610f93565b808202811582820484141761095957610959610f93565b600082610ff057634e487b7160e01b600052601260045260246000fd5b500490565b8082018082111561095957610959610f93565b60006020828403121561101a57600080fd5b81518015158114610f7657600080fdfea2646970667358221220fc1b2bd31dec2790fc472297af98503884aa5d396368d18980f3ea928ba28f3264736f6c63430008110033",
  "linkReferences": {},
  "deployedLinkReferences": {}
}