{
  "_format": "hh-sol-artifact-1",
  "contractName": "StakeBNB_BLB",
  "sourceName": "contracts/StakePool/StakeBNB_BLB.sol",
  "abi": [
    {
      "inputs": [
        {
          "internalType": "contract IERC20",
          "name": "_BLB",
          "type": "address"
        }
      ],
      "stateMutability": "nonpayable",
      "type": "constructor"
    },
    {
      "anonymous": false,
      "inputs": [
        {
          "indexed": true,
          "internalType": "address",
          "name": "investor",
          "type": "address"
        },
        {
          "indexed": true,
          "internalType": "uint256",
          "name": "investId",
          "type": "uint256"
        },
        {
          "indexed": false,
          "internalType": "uint256",
          "name": "amount",
          "type": "uint256"
        },
        {
          "indexed": false,
          "internalType": "uint256",
          "name": "start",
          "type": "uint256"
        },
        {
          "indexed": false,
          "internalType": "uint256",
          "name": "end",
          "type": "uint256"
        },
        {
          "indexed": false,
          "internalType": "uint256",
          "name": "profit",
          "type": "uint256"
        }
      ],
      "name": "NewInvestment",
      "type": "event"
    },
    {
      "anonymous": false,
      "inputs": [
        {
          "indexed": true,
          "internalType": "address",
          "name": "previousOwner",
          "type": "address"
        },
        {
          "indexed": true,
          "internalType": "address",
          "name": "newOwner",
          "type": "address"
        }
      ],
      "name": "OwnershipTransferred",
      "type": "event"
    },
    {
      "anonymous": false,
      "inputs": [
        {
          "indexed": false,
          "internalType": "address",
          "name": "account",
          "type": "address"
        }
      ],
      "name": "Paused",
      "type": "event"
    },
    {
      "anonymous": false,
      "inputs": [
        {
          "indexed": true,
          "internalType": "uint256",
          "name": "duration",
          "type": "uint256"
        },
        {
          "indexed": false,
          "internalType": "uint256",
          "name": "profit",
          "type": "uint256"
        }
      ],
      "name": "SetPlan",
      "type": "event"
    },
    {
      "anonymous": false,
      "inputs": [
        {
          "indexed": false,
          "internalType": "address",
          "name": "account",
          "type": "address"
        }
      ],
      "name": "Unpaused",
      "type": "event"
    },
    {
      "anonymous": false,
      "inputs": [
        {
          "indexed": true,
          "internalType": "address",
          "name": "investor",
          "type": "address"
        },
        {
          "indexed": true,
          "internalType": "uint256",
          "name": "investId",
          "type": "uint256"
        },
        {
          "indexed": false,
          "internalType": "uint256",
          "name": "amountBNB",
          "type": "uint256"
        },
        {
          "indexed": false,
          "internalType": "uint256",
          "name": "amountBLB",
          "type": "uint256"
        }
      ],
      "name": "Withdraw",
      "type": "event"
    },
    {
      "inputs": [],
      "name": "BLB",
      "outputs": [
        {
          "internalType": "contract IERC20",
          "name": "",
          "type": "address"
        }
      ],
      "stateMutability": "view",
      "type": "function"
    },
    {
      "inputs": [],
      "name": "checkPoint1",
      "outputs": [
        {
          "internalType": "uint256",
          "name": "passTime",
          "type": "uint256"
        },
        {
          "internalType": "uint256",
          "name": "saveBNB",
          "type": "uint256"
        },
        {
          "internalType": "uint256",
          "name": "saveBLB",
          "type": "uint256"
        }
      ],
      "stateMutability": "view",
      "type": "function"
    },
    {
      "inputs": [],
      "name": "checkPoint2",
      "outputs": [
        {
          "internalType": "uint256",
          "name": "passTime",
          "type": "uint256"
        },
        {
          "internalType": "uint256",
          "name": "saveBNB",
          "type": "uint256"
        },
        {
          "internalType": "uint256",
          "name": "saveBLB",
          "type": "uint256"
        }
      ],
      "stateMutability": "view",
      "type": "function"
    },
    {
      "inputs": [],
      "name": "checkPoint3",
      "outputs": [
        {
          "internalType": "uint256",
          "name": "passTime",
          "type": "uint256"
        },
        {
          "internalType": "uint256",
          "name": "saveBNB",
          "type": "uint256"
        },
        {
          "internalType": "uint256",
          "name": "saveBLB",
          "type": "uint256"
        }
      ],
      "stateMutability": "view",
      "type": "function"
    },
    {
      "inputs": [
        {
          "internalType": "address",
          "name": "",
          "type": "address"
        },
        {
          "internalType": "uint256",
          "name": "",
          "type": "uint256"
        }
      ],
      "name": "investments",
      "outputs": [
        {
          "internalType": "uint256",
          "name": "amount",
          "type": "uint256"
        },
        {
          "internalType": "uint256",
          "name": "start",
          "type": "uint256"
        },
        {
          "internalType": "uint256",
          "name": "end",
          "type": "uint256"
        },
        {
          "internalType": "uint256",
          "name": "profit",
          "type": "uint256"
        },
        {
          "internalType": "uint256",
          "name": "claimTime",
          "type": "uint256"
        }
      ],
      "stateMutability": "view",
      "type": "function"
    },
    {
      "inputs": [
        {
          "internalType": "address",
          "name": "borrower",
          "type": "address"
        },
        {
          "internalType": "uint256",
          "name": "amount",
          "type": "uint256"
        }
      ],
      "name": "loanBLB",
      "outputs": [],
      "stateMutability": "nonpayable",
      "type": "function"
    },
    {
      "inputs": [
        {
          "internalType": "address",
          "name": "borrower",
          "type": "address"
        },
        {
          "internalType": "uint256",
          "name": "amount",
          "type": "uint256"
        }
      ],
      "name": "loanBNB",
      "outputs": [],
      "stateMutability": "nonpayable",
      "type": "function"
    },
    {
      "inputs": [
        {
          "internalType": "uint256",
          "name": "duration",
          "type": "uint256"
        }
      ],
      "name": "newInvestment",
      "outputs": [],
      "stateMutability": "payable",
      "type": "function"
    },
    {
      "inputs": [],
      "name": "owner",
      "outputs": [
        {
          "internalType": "address",
          "name": "",
          "type": "address"
        }
      ],
      "stateMutability": "view",
      "type": "function"
    },
    {
      "inputs": [],
      "name": "pause",
      "outputs": [],
      "stateMutability": "nonpayable",
      "type": "function"
    },
    {
      "inputs": [],
      "name": "paused",
      "outputs": [
        {
          "internalType": "bool",
          "name": "",
          "type": "bool"
        }
      ],
      "stateMutability": "view",
      "type": "function"
    },
    {
      "inputs": [
        {
          "internalType": "address",
          "name": "investor",
          "type": "address"
        },
        {
          "internalType": "uint256",
          "name": "investmentId",
          "type": "uint256"
        }
      ],
      "name": "pendingWithdrawal",
      "outputs": [
        {
          "internalType": "uint256",
          "name": "amountBNB",
          "type": "uint256"
        },
        {
          "internalType": "uint256",
          "name": "amountBLB",
          "type": "uint256"
        }
      ],
      "stateMutability": "view",
      "type": "function"
    },
    {
      "inputs": [],
      "name": "plans",
      "outputs": [
        {
          "internalType": "uint256[]",
          "name": "durations",
          "type": "uint256[]"
        },
        {
          "internalType": "uint256[]",
          "name": "profits",
          "type": "uint256[]"
        }
      ],
      "stateMutability": "view",
      "type": "function"
    },
    {
      "inputs": [
        {
          "internalType": "address",
          "name": "investor",
          "type": "address"
        },
        {
          "internalType": "uint256",
          "name": "investmentId",
          "type": "uint256"
        }
      ],
      "name": "releaseTime",
      "outputs": [
        {
          "internalType": "uint256",
          "name": "",
          "type": "uint256"
        }
      ],
      "stateMutability": "view",
      "type": "function"
    },
    {
      "inputs": [],
      "name": "renounceOwnership",
      "outputs": [],
      "stateMutability": "nonpayable",
      "type": "function"
    },
    {
      "inputs": [
        {
          "internalType": "uint256",
          "name": "",
          "type": "uint256"
        }
      ],
      "name": "rewardPlans",
      "outputs": [
        {
          "internalType": "uint256",
          "name": "",
          "type": "uint256"
        }
      ],
      "stateMutability": "view",
      "type": "function"
    },
    {
      "inputs": [
        {
          "internalType": "uint256",
          "name": "passTime1",
          "type": "uint256"
        },
        {
          "internalType": "uint256",
          "name": "saveBNB1",
          "type": "uint256"
        },
        {
          "internalType": "uint256",
          "name": "saveBLB1",
          "type": "uint256"
        },
        {
          "internalType": "uint256",
          "name": "passTime2",
          "type": "uint256"
        },
        {
          "internalType": "uint256",
          "name": "saveBNB2",
          "type": "uint256"
        },
        {
          "internalType": "uint256",
          "name": "saveBLB2",
          "type": "uint256"
        },
        {
          "internalType": "uint256",
          "name": "passTime3",
          "type": "uint256"
        },
        {
          "internalType": "uint256",
          "name": "saveBNB3",
          "type": "uint256"
        },
        {
          "internalType": "uint256",
          "name": "saveBLB3",
          "type": "uint256"
        }
      ],
      "name": "setCheckpoints",
      "outputs": [],
      "stateMutability": "nonpayable",
      "type": "function"
    },
    {
      "inputs": [
        {
          "internalType": "uint256",
          "name": "duration",
          "type": "uint256"
        },
        {
          "internalType": "uint256",
          "name": "profit",
          "type": "uint256"
        }
      ],
      "name": "setPlan",
      "outputs": [],
      "stateMutability": "nonpayable",
      "type": "function"
    },
    {
      "inputs": [],
      "name": "totalInvestingBNB",
      "outputs": [
        {
          "internalType": "uint256",
          "name": "",
          "type": "uint256"
        }
      ],
      "stateMutability": "view",
      "type": "function"
    },
    {
      "inputs": [],
      "name": "totalPendingBLB",
      "outputs": [
        {
          "internalType": "uint256",
          "name": "",
          "type": "uint256"
        }
      ],
      "stateMutability": "view",
      "type": "function"
    },
    {
      "inputs": [
        {
          "internalType": "address",
          "name": "newOwner",
          "type": "address"
        }
      ],
      "name": "transferOwnership",
      "outputs": [],
      "stateMutability": "nonpayable",
      "type": "function"
    },
    {
      "inputs": [],
      "name": "unpause",
      "outputs": [],
      "stateMutability": "nonpayable",
      "type": "function"
    },
    {
      "inputs": [
        {
          "internalType": "address",
          "name": "investor",
          "type": "address"
        }
      ],
      "name": "userInvestments",
      "outputs": [
        {
          "components": [
            {
              "internalType": "uint256",
              "name": "amount",
              "type": "uint256"
            },
            {
              "internalType": "uint256",
              "name": "start",
              "type": "uint256"
            },
            {
              "internalType": "uint256",
              "name": "end",
              "type": "uint256"
            },
            {
              "internalType": "uint256",
              "name": "profit",
              "type": "uint256"
            },
            {
              "internalType": "uint256",
              "name": "claimTime",
              "type": "uint256"
            }
          ],
          "internalType": "struct StakeBNB_BLB.Investment[]",
          "name": "",
          "type": "tuple[]"
        }
      ],
      "stateMutability": "view",
      "type": "function"
    },
    {
      "inputs": [
        {
          "internalType": "uint256",
          "name": "investmentId",
          "type": "uint256"
        }
      ],
      "name": "withdraw",
      "outputs": [],
      "stateMutability": "nonpayable",
      "type": "function"
    }
  ],
  "bytecode": "0x60806040523480156200001157600080fd5b50604051620017153803806200171583398101604081905262000034916200029c565b6200003f33620000e4565b6000805460ff60a01b19169055600180546001600160a01b0319166001600160a01b0383161790556200007e62015180670de0b6b3a764000062000134565b6200009562093a80678ac7230489e8000062000134565b620000ad62278d006802b5e3af16b188000062000134565b620000c56276a7006809c2007651b250000062000134565b620000dd6000605081603260648284826028620001b4565b50620002ce565b600080546001600160a01b038381166001600160a01b0319831681178455604051919092169283917f8be0079c531659141344cd1fd0a4f28419497f9722a3daafe3b4186f6b6457e09190a35050565b6200013e6200023b565b6000828152600660209081526040808320849055600590915290205460ff16620001b0576000828152600560205260408120805460ff191660019081179091556004805491820181559091527f8a35acfbc15ff81a39ae7d344fd709f28e8600b4aa8c65c6b64bfe7fe36bd19b018290555b5050565b620001be6200023b565b60408051606080820183528b825260208083018c90529183018a905260089b909b55600999909955600a979097558651808a0188528681528089018690528701849052600b95909555600c93909355600d919091558351958601845280865293850181905293909101819052600e91909155600f91909155601055565b6000546001600160a01b031633146200029a5760405162461bcd60e51b815260206004820181905260248201527f4f776e61626c653a2063616c6c6572206973206e6f7420746865206f776e6572604482015260640160405180910390fd5b565b600060208284031215620002af57600080fd5b81516001600160a01b0381168114620002c757600080fd5b9392505050565b61143780620002de6000396000f3fe60806040526004361061014b5760003560e01c806388a9931f116100b6578063b023eba51161006f578063b023eba5146103ef578063bfa54b3f1461041c578063c877921c1461043c578063d5d4d1141461045c578063e88cf1b41461047b578063f2fde38b1461049157600080fd5b806388a9931f1461030457806388f89169146103315780638a2ac397146103445780638da5cb5b1461037e578063a2fa0c75146103b0578063ad33710c146103d057600080fd5b80634668d866116101085780634668d8661461024d5780634983c3ab1461026d5780635c975abb1461028d57806364eb1b21146102b7578063715018a6146102da5780638456cb59146102ef57600080fd5b80631dd6781b146101505780632bf0da7e146101795780632e1a7d4d146101ae5780633353561d146101d05780633e6d9770146101f05780633f4ba83a14610238575b600080fd5b34801561015c57600080fd5b5061016660025481565b6040519081526020015b60405180910390f35b34801561018557600080fd5b50610199610194366004611168565b6104b1565b60408051928352602083019190915201610170565b3480156101ba57600080fd5b506101ce6101c9366004611192565b6106d6565b005b3480156101dc57600080fd5b506101ce6101eb3660046111ab565b6108a0565b3480156101fc57600080fd5b5061021061020b366004611168565b61091d565b604080519586526020860194909452928401919091526060830152608082015260a001610170565b34801561024457600080fd5b506101ce61096b565b34801561025957600080fd5b506101ce6102683660046111cd565b61097d565b34801561027957600080fd5b50610166610288366004611168565b610a02565b34801561029957600080fd5b50600054600160a01b900460ff166040519015158152602001610170565b3480156102c357600080fd5b506102cc610a47565b604051610170929190611267565b3480156102e657600080fd5b506101ce610b86565b3480156102fb57600080fd5b506101ce610b98565b34801561031057600080fd5b5061016661031f366004611192565b60066020526000908152604090205481565b6101ce61033f366004611192565b610ba8565b34801561035057600080fd5b50600b54600c54600d5461036392919083565b60408051938452602084019290925290820152606001610170565b34801561038a57600080fd5b506000546001600160a01b03165b6040516001600160a01b039091168152602001610170565b3480156103bc57600080fd5b506101ce6103cb366004611168565b610d8b565b3480156103dc57600080fd5b50600854600954600a5461036392919083565b3480156103fb57600080fd5b5061040f61040a366004611295565b610e0f565b60405161017091906112b7565b34801561042857600080fd5b50600154610398906001600160a01b031681565b34801561044857600080fd5b506101ce610457366004611168565b610eb6565b34801561046857600080fd5b50600e54600f5460105461036392919083565b34801561048757600080fd5b5061016660035481565b34801561049d57600080fd5b506101ce6104ac366004611295565b610ef4565b6001600160a01b0382166000908152600760205260408120805482918291859081106104df576104df611325565b9060005260206000209060050201905080600401546000146105635760405162461bcd60e51b815260206004820152603260248201527f7374616b65506f6f6c3a207468697320696e766573746d656e7420686173206260448201527165656e20636c61696d6564206265666f726560701b60648201526084015b60405180910390fd5b60018101546002820154429190600061057c8383611351565b8554600387015491925090838610610599578198508097506106c8565b84606484600e600001546105ad9190611364565b6105b7919061137b565b6105c1919061139d565b861061060557600f546064906105d79084611364565b6105e1919061137b565b6010549099506064906105f49083611364565b6105fe919061137b565b97506106c8565b84606484600b600001546106199190611364565b610623919061137b565b61062d919061139d565b861061066057600c546064906106439084611364565b61064d919061137b565b600d549099506064906105f49083611364565b846064846008600001546106749190611364565b61067e919061137b565b610688919061139d565b86106106c85760095460649061069e9084611364565b6106a8919061137b565b600a549099506064906106bb9083611364565b6106c5919061137b565b97505b505050505050509250929050565b3360008181526007602052604081208054849081106106f7576106f7611325565b9060005260206000209060050201905060008061071484866104b1565b91509150600082116107685760405162461bcd60e51b815260206004820152601e60248201527f5374616b65506f6f6c3a206e6f7468696e6720746f2077697468647261770000604482015260640161055a565b4260048401556040516001600160a01b0385169083156108fc029084906000818181858888f193505050501580156107a4573d6000803e3d6000fd5b5060015460405163a9059cbb60e01b81526001600160a01b038681166004830152602482018490529091169063a9059cbb906044016020604051808303816000875af11580156107f8573d6000803e3d6000fd5b505050506040513d601f19601f8201168201806040525081019061081c91906113b0565b50825460028054600090610831908490611351565b9250508190555082600301546003600082825461084e9190611351565b9091555050604080518381526020810183905286916001600160a01b038716917f02f25270a4d87bea75db541cdfe559334a275b4a233520ed6c0a2429667cca94910160405180910390a35050505050565b6108a8610f6d565b6000828152600660209081526040808320849055600590915290205460ff16610919576000828152600560205260408120805460ff191660019081179091556004805491820181559091527f8a35acfbc15ff81a39ae7d344fd709f28e8600b4aa8c65c6b64bfe7fe36bd19b018290555b5050565b6007602052816000526040600020818154811061093957600080fd5b600091825260209091206005909102018054600182015460028301546003840154600490940154929550909350919085565b610973610f6d565b61097b610fc7565b565b610985610f6d565b60408051606080820183528b825260208083018c90529183018a905260089b909b55600999909955600a979097558651808a0188528681528089018690528701849052600b95909555600c93909355600d919091558351958601845280865293850181905293909101819052600e91909155600f91909155601055565b6001600160a01b0382166000908152600760205260408120805483908110610a2c57610a2c611325565b90600052602060002090600502016002015490505b92915050565b60045460609081908067ffffffffffffffff811115610a6857610a686113d2565b604051908082528060200260200182016040528015610a91578160200160208202803683370190505b5092508067ffffffffffffffff811115610aad57610aad6113d2565b604051908082528060200260200182016040528015610ad6578160200160208202803683370190505b50915060005b81811015610b805760048181548110610af757610af7611325565b9060005260206000200154848281518110610b1457610b14611325565b6020026020010181815250506006600060048381548110610b3757610b37611325565b9060005260206000200154815260200190815260200160002054838281518110610b6357610b63611325565b602090810291909101015280610b78816113e8565b915050610adc565b50509091565b610b8e610f6d565b61097b600061101c565b610ba0610f6d565b61097b61106c565b610bb06110af565b6000818152600660205260408120549003610c175760405162461bcd60e51b815260206004820152602160248201527f7468657265206973206e6f20706c616e2062792074686973206475726174696f6044820152603760f91b606482015260840161055a565b3334426000610c26858361139d565b60008681526006602052604081205491925090670de0b6b3a764000090610c4d9086611364565b610c57919061137b565b6001600160a01b0386166000908152600760209081526040808320815160a0810183528981528084018981529281018881526060820187815260808301878152845460018181018755958952968820935160059097029093019586559351928501929092559051600280850191909155915160038401555160049092019190915580549293508692909190610ced90849061139d565b925050819055508060036000828254610d06919061139d565b90915550506001600160a01b038516600090815260076020526040902054610d3090600190611351565b6040805186815260208101869052908101849052606081018390526001600160a01b038716907f72e5f615ebc79a295430cc50e3cdf038a03d48b17f7ef4586ab25a1d481de6959060800160405180910390a3505050505050565b610d93610f6d565b60015460405163a9059cbb60e01b81526001600160a01b038481166004830152602482018490529091169063a9059cbb906044016020604051808303816000875af1158015610de6573d6000803e3d6000fd5b505050506040513d601f19601f82011682018060405250810190610e0a91906113b0565b505050565b6001600160a01b0381166000908152600760209081526040808320805482518185028101850190935280835260609492939192909184015b82821015610eab57838290600052602060002090600502016040518060a00160405290816000820154815260200160018201548152602001600282015481526020016003820154815260200160048201548152505081526020019060010190610e47565b505050509050919050565b610ebe610f6d565b6040516001600160a01b0383169082156108fc029083906000818181858888f19350505050158015610e0a573d6000803e3d6000fd5b610efc610f6d565b6001600160a01b038116610f615760405162461bcd60e51b815260206004820152602660248201527f4f776e61626c653a206e6577206f776e657220697320746865207a65726f206160448201526564647265737360d01b606482015260840161055a565b610f6a8161101c565b50565b6000546001600160a01b0316331461097b5760405162461bcd60e51b815260206004820181905260248201527f4f776e61626c653a2063616c6c6572206973206e6f7420746865206f776e6572604482015260640161055a565b610fcf6110fc565b6000805460ff60a01b191690557f5db9ee0a495bf2e6ff9c91a7834c1ba4fdd244a5e8aa4e537bd38aeae4b073aa335b6040516001600160a01b03909116815260200160405180910390a1565b600080546001600160a01b038381166001600160a01b0319831681178455604051919092169283917f8be0079c531659141344cd1fd0a4f28419497f9722a3daafe3b4186f6b6457e09190a35050565b6110746110af565b6000805460ff60a01b1916600160a01b1790557f62e78cea01bee320cd4e420270b5ea74000d11b0c9f74754ebdbfc544b05a258610fff3390565b600054600160a01b900460ff161561097b5760405162461bcd60e51b815260206004820152601060248201526f14185d5cd8589b194e881c185d5cd95960821b604482015260640161055a565b600054600160a01b900460ff1661097b5760405162461bcd60e51b815260206004820152601460248201527314185d5cd8589b194e881b9bdd081c185d5cd95960621b604482015260640161055a565b80356001600160a01b038116811461116357600080fd5b919050565b6000806040838503121561117b57600080fd5b6111848361114c565b946020939093013593505050565b6000602082840312156111a457600080fd5b5035919050565b600080604083850312156111be57600080fd5b50508035926020909101359150565b60008060008060008060008060006101208a8c0312156111ec57600080fd5b505087359960208901359950604089013598606081013598506080810135975060a0810135965060c0810135955060e08101359450610100013592509050565b600081518084526020808501945080840160005b8381101561125c57815187529582019590820190600101611240565b509495945050505050565b60408152600061127a604083018561122c565b828103602084015261128c818561122c565b95945050505050565b6000602082840312156112a757600080fd5b6112b08261114c565b9392505050565b602080825282518282018190526000919060409081850190868401855b828110156113185781518051855286810151878601528581015186860152606080820151908601526080908101519085015260a090930192908501906001016112d4565b5091979650505050505050565b634e487b7160e01b600052603260045260246000fd5b634e487b7160e01b600052601160045260246000fd5b81810381811115610a4157610a4161133b565b8082028115828204841417610a4157610a4161133b565b60008261139857634e487b7160e01b600052601260045260246000fd5b500490565b80820180821115610a4157610a4161133b565b6000602082840312156113c257600080fd5b815180151581146112b057600080fd5b634e487b7160e01b600052604160045260246000fd5b6000600182016113fa576113fa61133b565b506001019056fea264697066735822122037b5a6511936d6026e2e49d313c2615e0e60a361e34026428fa56cb2305bc9f464736f6c63430008120033",
  "linkReferences": {},
  "deployedLinkReferences": {}
}