{
  "_format": "hh-sol-artifact-1",
  "contractName": "StakePool",
  "sourceName": "contracts/StakePool/StakePool.sol",
  "abi": [
    {
      "inputs": [
        {
          "internalType": "uint256",
          "name": "investingTime",
          "type": "uint256"
        }
      ],
      "name": "increaseFund",
      "outputs": [],
      "stateMutability": "payable",
      "type": "function"
    },
    {
      "inputs": [
        {
          "internalType": "uint256",
          "name": "investingTime",
          "type": "uint256"
        }
      ],
      "name": "invest",
      "outputs": [],
      "stateMutability": "payable",
      "type": "function"
    },
    {
      "inputs": [
        {
          "internalType": "address",
          "name": "investor",
          "type": "address"
        }
      ],
      "name": "profit",
      "outputs": [
        {
          "internalType": "uint256",
          "name": "",
          "type": "uint256"
        }
      ],
      "stateMutability": "view",
      "type": "function"
    },
    {
      "inputs": [
        {
          "internalType": "uint256",
          "name": "amount",
          "type": "uint256"
        }
      ],
      "name": "withdrawFund",
      "outputs": [],
      "stateMutability": "nonpayable",
      "type": "function"
    }
  ],
  "bytecode": "0x60a0604052600060805234801561001557600080fd5b50608051610465610031600039600061024401526104656000f3fe60806040526004361061003f5760003560e01c806302550e4d146100445780630cee1725146100765780632afcf48014610098578063dd44a8fc14610098575b600080fd5b34801561005057600080fd5b5061006461005f366004610333565b6100ab565b60405190815260200160405180910390f35b34801561008257600080fd5b50610096610091366004610363565b610171565b005b6100966100a6366004610363565b6102b8565b6001600160a01b0381166000908152600460209081526040808320815160808101835281548152600182015493810193909352600280820154928401929092526003908101546060840152549054839161010491610392565b905060008260400151836000015161011c9190610392565b836060015161012b91906103af565b9050428360400151846020015161014291906103af565b101561014f576000610168565b816001548261015e9190610392565b61016891906103c2565b95945050505050565b33600081815260046020526040902054821115610190576101906103e4565b81600260008282546101a291906103fa565b90915550506001600160a01b038116600090815260046020526040812080548492906101cf9084906103fa565b90915550506040516001600160a01b0382169083156108fc029084906000818181858888f1935050505015801561020a573d6000803e3d6000fd5b506000610216826100ab565b905080156102b35760405163a9059cbb60e01b81526001600160a01b038381166004830152602482018390527f0000000000000000000000000000000000000000000000000000000000000000169063a9059cbb906044016020604051808303816000875af115801561028d573d6000803e3d6000fd5b505050506040513d601f19601f820116820180604052508101906102b1919061040d565b505b505050565b34600260008282546102ca91906103af565b9250508190555080600360008282546102e391906103af565b909155505060408051608081018252348152426020808301918252828401948552600060608401818152338252600490925293909320915182555160018201559151600283015551600390910155565b60006020828403121561034557600080fd5b81356001600160a01b038116811461035c57600080fd5b9392505050565b60006020828403121561037557600080fd5b5035919050565b634e487b7160e01b600052601160045260246000fd5b80820281158282048414176103a9576103a961037c565b92915050565b808201808211156103a9576103a961037c565b6000826103df57634e487b7160e01b600052601260045260246000fd5b500490565b634e487b7160e01b600052600160045260246000fd5b818103818111156103a9576103a961037c565b60006020828403121561041f57600080fd5b8151801515811461035c57600080fdfea2646970667358221220ac47bf0f0000949d7493ab7b30026d7ae827289793356c70ba6526b243c5e1c164736f6c63430008110033",
  "linkReferences": {},
  "deployedLinkReferences": {}
}