{
  "_format": "hh-sol-artifact-1",
  "contractName": "SmartChef",
  "sourceName": "contracts/StakePool/SmartChef.sol",
  "abi": [
    {
      "inputs": [
        {
          "internalType": "contract IERC20Metadata",
          "name": "_stakedToken",
          "type": "address"
        },
        {
          "internalType": "contract IERC20Metadata",
          "name": "_rewardToken",
          "type": "address"
        },
        {
          "internalType": "uint256",
          "name": "_poolLimitPerUser",
          "type": "uint256"
        }
      ],
      "stateMutability": "nonpayable",
      "type": "constructor"
    },
    {
      "anonymous": false,
      "inputs": [
        {
          "indexed": false,
          "internalType": "address",
          "name": "tokenRecovered",
          "type": "address"
        },
        {
          "indexed": false,
          "internalType": "uint256",
          "name": "amount",
          "type": "uint256"
        }
      ],
      "name": "AdminTokenRecovery",
      "type": "event"
    },
    {
      "anonymous": false,
      "inputs": [
        {
          "indexed": true,
          "internalType": "address",
          "name": "user",
          "type": "address"
        },
        {
          "indexed": false,
          "internalType": "uint256",
          "name": "amount",
          "type": "uint256"
        }
      ],
      "name": "Deposit",
      "type": "event"
    },
    {
      "anonymous": false,
      "inputs": [
        {
          "indexed": true,
          "internalType": "address",
          "name": "user",
          "type": "address"
        },
        {
          "indexed": false,
          "internalType": "uint256",
          "name": "amount",
          "type": "uint256"
        }
      ],
      "name": "EmergencyWithdraw",
      "type": "event"
    },
    {
      "anonymous": false,
      "inputs": [
        {
          "indexed": false,
          "internalType": "uint256",
          "name": "poolLimitPerUser",
          "type": "uint256"
        }
      ],
      "name": "NewPoolLimit",
      "type": "event"
    },
    {
      "anonymous": false,
      "inputs": [
        {
          "indexed": false,
          "internalType": "uint256",
          "name": "rewardPerBlock",
          "type": "uint256"
        }
      ],
      "name": "NewRewardPerBlock",
      "type": "event"
    },
    {
      "anonymous": false,
      "inputs": [
        {
          "indexed": false,
          "internalType": "uint256",
          "name": "startBlock",
          "type": "uint256"
        },
        {
          "indexed": false,
          "internalType": "uint256",
          "name": "endBlock",
          "type": "uint256"
        }
      ],
      "name": "NewStartAndEndBlocks",
      "type": "event"
    },
    {
      "anonymous": false,
      "inputs": [
        {
          "indexed": true,
          "internalType": "address",
          "name": "previousOwner",
          "type": "address"
        },
        {
          "indexed": true,
          "internalType": "address",
          "name": "newOwner",
          "type": "address"
        }
      ],
      "name": "OwnershipTransferred",
      "type": "event"
    },
    {
      "anonymous": false,
      "inputs": [
        {
          "indexed": false,
          "internalType": "uint256",
          "name": "blockNumber",
          "type": "uint256"
        }
      ],
      "name": "RewardsStop",
      "type": "event"
    },
    {
      "anonymous": false,
      "inputs": [
        {
          "indexed": true,
          "internalType": "address",
          "name": "user",
          "type": "address"
        },
        {
          "indexed": false,
          "internalType": "uint256",
          "name": "amount",
          "type": "uint256"
        }
      ],
      "name": "Withdraw",
      "type": "event"
    },
    {
      "inputs": [],
      "name": "PRECISION_FACTOR",
      "outputs": [
        {
          "internalType": "uint256",
          "name": "",
          "type": "uint256"
        }
      ],
      "stateMutability": "view",
      "type": "function"
    },
    {
      "inputs": [],
      "name": "accTokenPerShare",
      "outputs": [
        {
          "internalType": "uint256",
          "name": "",
          "type": "uint256"
        }
      ],
      "stateMutability": "view",
      "type": "function"
    },
    {
      "inputs": [],
      "name": "bonusEndBlock",
      "outputs": [
        {
          "internalType": "uint256",
          "name": "",
          "type": "uint256"
        }
      ],
      "stateMutability": "view",
      "type": "function"
    },
    {
      "inputs": [
        {
          "internalType": "uint256",
          "name": "_amount",
          "type": "uint256"
        }
      ],
      "name": "deposit",
      "outputs": [],
      "stateMutability": "nonpayable",
      "type": "function"
    },
    {
      "inputs": [
        {
          "internalType": "uint256",
          "name": "_amount",
          "type": "uint256"
        }
      ],
      "name": "emergencyRewardWithdraw",
      "outputs": [],
      "stateMutability": "nonpayable",
      "type": "function"
    },
    {
      "inputs": [],
      "name": "emergencyWithdraw",
      "outputs": [],
      "stateMutability": "nonpayable",
      "type": "function"
    },
    {
      "inputs": [],
      "name": "hasUserLimit",
      "outputs": [
        {
          "internalType": "bool",
          "name": "",
          "type": "bool"
        }
      ],
      "stateMutability": "view",
      "type": "function"
    },
    {
      "inputs": [],
      "name": "lastRewardBlock",
      "outputs": [
        {
          "internalType": "uint256",
          "name": "",
          "type": "uint256"
        }
      ],
      "stateMutability": "view",
      "type": "function"
    },
    {
      "inputs": [],
      "name": "owner",
      "outputs": [
        {
          "internalType": "address",
          "name": "",
          "type": "address"
        }
      ],
      "stateMutability": "view",
      "type": "function"
    },
    {
      "inputs": [
        {
          "internalType": "address",
          "name": "_user",
          "type": "address"
        }
      ],
      "name": "pendingReward",
      "outputs": [
        {
          "internalType": "uint256",
          "name": "",
          "type": "uint256"
        }
      ],
      "stateMutability": "view",
      "type": "function"
    },
    {
      "inputs": [],
      "name": "poolLimitPerUser",
      "outputs": [
        {
          "internalType": "uint256",
          "name": "",
          "type": "uint256"
        }
      ],
      "stateMutability": "view",
      "type": "function"
    },
    {
      "inputs": [
        {
          "internalType": "address",
          "name": "_tokenAddress",
          "type": "address"
        },
        {
          "internalType": "uint256",
          "name": "_tokenAmount",
          "type": "uint256"
        }
      ],
      "name": "recoverWrongTokens",
      "outputs": [],
      "stateMutability": "nonpayable",
      "type": "function"
    },
    {
      "inputs": [],
      "name": "renounceOwnership",
      "outputs": [],
      "stateMutability": "nonpayable",
      "type": "function"
    },
    {
      "inputs": [],
      "name": "rewardPerBlock",
      "outputs": [
        {
          "internalType": "uint256",
          "name": "",
          "type": "uint256"
        }
      ],
      "stateMutability": "view",
      "type": "function"
    },
    {
      "inputs": [],
      "name": "rewardToken",
      "outputs": [
        {
          "internalType": "contract IERC20Metadata",
          "name": "",
          "type": "address"
        }
      ],
      "stateMutability": "view",
      "type": "function"
    },
    {
      "inputs": [],
      "name": "stakedToken",
      "outputs": [
        {
          "internalType": "contract IERC20Metadata",
          "name": "",
          "type": "address"
        }
      ],
      "stateMutability": "view",
      "type": "function"
    },
    {
      "inputs": [],
      "name": "startBlock",
      "outputs": [
        {
          "internalType": "uint256",
          "name": "",
          "type": "uint256"
        }
      ],
      "stateMutability": "view",
      "type": "function"
    },
    {
      "inputs": [],
      "name": "stopReward",
      "outputs": [],
      "stateMutability": "nonpayable",
      "type": "function"
    },
    {
      "inputs": [
        {
          "internalType": "address",
          "name": "newOwner",
          "type": "address"
        }
      ],
      "name": "transferOwnership",
      "outputs": [],
      "stateMutability": "nonpayable",
      "type": "function"
    },
    {
      "inputs": [
        {
          "internalType": "bool",
          "name": "_hasUserLimit",
          "type": "bool"
        },
        {
          "internalType": "uint256",
          "name": "_poolLimitPerUser",
          "type": "uint256"
        }
      ],
      "name": "updatePoolLimitPerUser",
      "outputs": [],
      "stateMutability": "nonpayable",
      "type": "function"
    },
    {
      "inputs": [
        {
          "internalType": "uint256",
          "name": "_rewardPerBlock",
          "type": "uint256"
        }
      ],
      "name": "updateRewardPerBlock",
      "outputs": [],
      "stateMutability": "nonpayable",
      "type": "function"
    },
    {
      "inputs": [
        {
          "internalType": "uint256",
          "name": "_startBlock",
          "type": "uint256"
        },
        {
          "internalType": "uint256",
          "name": "_bonusEndBlock",
          "type": "uint256"
        }
      ],
      "name": "updateStartAndEndBlocks",
      "outputs": [],
      "stateMutability": "nonpayable",
      "type": "function"
    },
    {
      "inputs": [
        {
          "internalType": "address",
          "name": "",
          "type": "address"
        }
      ],
      "name": "userInfo",
      "outputs": [
        {
          "internalType": "uint256",
          "name": "amount",
          "type": "uint256"
        },
        {
          "internalType": "uint256",
          "name": "rewardDebt",
          "type": "uint256"
        }
      ],
      "stateMutability": "view",
      "type": "function"
    },
    {
      "inputs": [
        {
          "internalType": "uint256",
          "name": "_amount",
          "type": "uint256"
        }
      ],
      "name": "withdraw",
      "outputs": [],
      "stateMutability": "nonpayable",
      "type": "function"
    }
  ],
  "bytecode": "0x60806040523480156200001157600080fd5b506040516200195338038062001953833981016040819052620000349162000392565b6200003f336200030e565b600180819055506000836001600160a01b03166318160ddd6040518163ffffffff1660e01b8152600401602060405180830381865afa15801562000087573d6000803e3d6000fd5b505050506040513d601f19601f82011682018060405250810190620000ad9190620003d3565b1015620000b957600080fd5b6000826001600160a01b03166318160ddd6040518163ffffffff1660e01b8152600401602060405180830381865afa158015620000fa573d6000803e3d6000fd5b505050506040513d601f19601f82011682018060405250810190620001209190620003d3565b10156200012c57600080fd5b816001600160a01b0316836001600160a01b031603620001935760405162461bcd60e51b815260206004820152601b60248201527f546f6b656e73206d75737420626520626520646966666572656e74000000000060448201526064015b60405180910390fd5b600b80546001600160a01b038086166001600160a01b031992831617909255600a80549285169290911691909117905564e8d4a51000600855620001d943600262000403565b6005819055620001ed90620186a062000403565b60045580156200020a576002805460ff1916600117905560078190555b600a546040805163313ce56760e01b815290516000926001600160a01b03169163313ce5679160048083019260209291908290030181865afa15801562000255573d6000803e3d6000fd5b505050506040513d601f19601f820116820180604052508101906200027b91906200041e565b60ff169050601e8110620002d25760405162461bcd60e51b815260206004820152601660248201527f4d75737420626520696e666572696f7220746f2033300000000000000000000060448201526064016200018a565b620002ed81601e6200035e60201b62000c861790919060201c565b620002fa90600a62000547565b6009555050600554600655506200056f9050565b600080546001600160a01b038381166001600160a01b0319831681178455604051919092169283917f8be0079c531659141344cd1fd0a4f28419497f9722a3daafe3b4186f6b6457e09190a35050565b60006200036c828462000555565b90505b92915050565b80516001600160a01b03811681146200038d57600080fd5b919050565b600080600060608486031215620003a857600080fd5b620003b38462000375565b9250620003c36020850162000375565b9150604084015190509250925092565b600060208284031215620003e657600080fd5b5051919050565b634e487b7160e01b600052601160045260246000fd5b60008219821115620004195762000419620003ed565b500190565b6000602082840312156200043157600080fd5b815160ff811681146200044357600080fd5b9392505050565b600181815b808511156200048b5781600019048211156200046f576200046f620003ed565b808516156200047d57918102915b93841c93908002906200044f565b509250929050565b600082620004a4575060016200036f565b81620004b3575060006200036f565b8160018114620004cc5760028114620004d757620004f7565b60019150506200036f565b60ff841115620004eb57620004eb620003ed565b50506001821b6200036f565b5060208310610133831016604e8410600b84101617156200051c575081810a6200036f565b6200052883836200044a565b80600019048211156200053f576200053f620003ed565b029392505050565b60006200036c838362000493565b6000828210156200056a576200056a620003ed565b500390565b6113d4806200057f6000396000f3fe608060405234801561001057600080fd5b50600436106101585760003560e01c80638f662915116100c3578063cc7a262e1161007c578063cc7a262e146102bb578063ccd34cd5146102ce578063db2e21bc146102d7578063f2fde38b146102df578063f40f0f52146102f2578063f7c618c11461030557600080fd5b80638f6629151461025357806392e8990e1461025c5780639513997f14610279578063a0b409051461028c578063a9f8d1811461029f578063b6b55f25146102a857600080fd5b806348cd4cb11161011557806348cd4cb11461020357806366fe9f8a1461020c578063715018a61461021557806380dc06721461021d5780638ae39cac146102255780638da5cb5b1461022e57600080fd5b806301f8a9761461015d5780631959a002146101725780631aed6553146101b35780632e1a7d4d146101ca5780633279beab146101dd5780633f138d4b146101f0575b600080fd5b61017061016b366004611168565b610318565b005b61019961018036600461119d565b600c602052600090815260409020805460019091015482565b604080519283526020830191909152015b60405180910390f35b6101bc60045481565b6040519081526020016101aa565b6101706101d8366004611168565b6103a4565b6101706101eb366004611168565b61050c565b6101706101fe3660046111b8565b61052e565b6101bc60055481565b6101bc60075481565b61017061063f565b610170610653565b6101bc60085481565b6000546001600160a01b03165b6040516001600160a01b0390911681526020016101aa565b6101bc60035481565b6002546102699060ff1681565b60405190151581526020016101aa565b6101706102873660046111e2565b610661565b61017061029a366004611212565b6107c0565b6101bc60065481565b6101706102b6366004611168565b6108b0565b600b5461023b906001600160a01b031681565b6101bc60095481565b610170610a2f565b6101706102ed36600461119d565b610ac5565b6101bc61030036600461119d565b610b3b565b600a5461023b906001600160a01b031681565b610320610c9b565b60055443106103695760405162461bcd60e51b815260206004820152601060248201526f141bdbdb081a185cc81cdd185c9d195960821b60448201526064015b60405180910390fd5b60088190556040518181527f0c4d677eef92893ac7ec52faf8140fc6c851ab4736302b4f3a89dfb20696a0df9060200160405180910390a150565b6002600154036103c65760405162461bcd60e51b815260040161036090611230565b6002600155336000908152600c60205260409020805482111561042b5760405162461bcd60e51b815260206004820152601b60248201527f416d6f756e7420746f20776974686472617720746f6f206869676800000000006044820152606401610360565b610433610cf5565b6000610468826001015461046260095461045c6003548760000154610dcf90919063ffffffff16565b90610ddb565b90610c86565b9050821561049557815461047c9084610c86565b8255600b54610495906001600160a01b03163385610de7565b80156104b257600a546104b2906001600160a01b03163383610de7565b60095460035483546104c9929161045c9190610dcf565b600183015560405183815233907f884edad9ce6fa2440d8a54cc123490eb96d2768479d49ff9c7366125a94243649060200160405180910390a250506001805550565b610514610c9b565b600a5461052b906001600160a01b03163383610de7565b50565b610536610c9b565b600b546001600160a01b039081169083160361058d5760405162461bcd60e51b815260206004820152601660248201527521b0b73737ba1031329039ba30b5b2b2103a37b5b2b760511b6044820152606401610360565b600a546001600160a01b03908116908316036105e45760405162461bcd60e51b815260206004820152601660248201527521b0b73737ba103132903932bbb0b932103a37b5b2b760511b6044820152606401610360565b6105f86001600160a01b0383163383610de7565b604080516001600160a01b0384168152602081018390527f74545154aac348a3eac92596bd1971957ca94795f4e954ec5f613b55fab7812991015b60405180910390a15050565b610647610c9b565b6106516000610e4f565b565b61065b610c9b565b43600455565b610669610c9b565b60055443106106ad5760405162461bcd60e51b815260206004820152601060248201526f141bdbdb081a185cc81cdd185c9d195960821b6044820152606401610360565b8082106107135760405162461bcd60e51b815260206004820152602e60248201527f4e6577207374617274426c6f636b206d757374206265206c6f7765722074686160448201526d6e206e657720656e64426c6f636b60901b6064820152608401610360565b81431061077b5760405162461bcd60e51b815260206004820152603060248201527f4e6577207374617274426c6f636b206d7573742062652068696768657220746860448201526f616e2063757272656e7420626c6f636b60801b6064820152608401610360565b60058290556004819055600682905560408051838152602081018390527f7cd0ab87d19036f3dfadadb232c78aa4879dda3f0c994a9d637532410ee2ce069101610633565b6107c8610c9b565b60025460ff166108085760405162461bcd60e51b815260206004820152600b60248201526a135d5cdd081899481cd95d60aa1b6044820152606401610360565b811561086957600754811161085f5760405162461bcd60e51b815260206004820152601860248201527f4e6577206c696d6974206d7573742062652068696768657200000000000000006044820152606401610360565b600781905561087d565b6002805460ff191683151517905560006007555b7f241f67ee5f41b7a5cabf911367329be7215900f602ebfc47f89dce2a6bcd847c60075460405161063391815260200190565b6002600154036108d25760405162461bcd60e51b815260040161036090611230565b60026001819055336000908152600c60205260409020905460ff1615610950576007548154610902908490610e9f565b11156109505760405162461bcd60e51b815260206004820152601760248201527f5573657220616d6f756e742061626f7665206c696d69740000000000000000006044820152606401610360565b610958610cf5565b8054156109a9576000610988826001015461046260095461045c6003548760000154610dcf90919063ffffffff16565b905080156109a757600a546109a7906001600160a01b03163383610de7565b505b81156109d55780546109bb9083610e9f565b8155600b546109d5906001600160a01b0316333085610eab565b60095460035482546109ec929161045c9190610dcf565b600182015560405182815233907fe1fffcc4923d04b559f4d29a8bfc6cda04eb5b0d3c460751c2402c5c5cc9109c906020015b60405180910390a2505060018055565b600260015403610a515760405162461bcd60e51b815260040161036090611230565b60026001908155336000908152600c60205260408120805482825592810191909155908015610a9157600b54610a91906001600160a01b03163383610de7565b815460405190815233907f5fafa99d0643513820be26656b45130b01e1c03062e1266bf36f88cbd3bd969590602001610a1f565b610acd610c9b565b6001600160a01b038116610b325760405162461bcd60e51b815260206004820152602660248201527f4f776e61626c653a206e6577206f776e657220697320746865207a65726f206160448201526564647265737360d01b6064820152608401610360565b61052b81610e4f565b6001600160a01b038181166000908152600c6020526040808220600b5491516370a0823160e01b8152306004820152929390928492909116906370a0823190602401602060405180830381865afa158015610b9a573d6000803e3d6000fd5b505050506040513d601f19601f82011682018060405250810190610bbe9190611267565b905060065443118015610bd057508015155b15610c57576000610be360065443610ee9565b90506000610bfc60085483610dcf90919063ffffffff16565b90506000610c25610c1c8561045c60095486610dcf90919063ffffffff16565b60035490610e9f565b9050610c4c856001015461046260095461045c858a60000154610dcf90919063ffffffff16565b979650505050505050565b610c7e826001015461046260095461045c6003548760000154610dcf90919063ffffffff16565b949350505050565b6000610c928284611296565b90505b92915050565b6000546001600160a01b031633146106515760405162461bcd60e51b815260206004820181905260248201527f4f776e61626c653a2063616c6c6572206973206e6f7420746865206f776e65726044820152606401610360565b6006544311610d0057565b600b546040516370a0823160e01b81523060048201526000916001600160a01b0316906370a0823190602401602060405180830381865afa158015610d49573d6000803e3d6000fd5b505050506040513d601f19601f82011682018060405250810190610d6d9190611267565b905080600003610d7e575043600655565b6000610d8c60065443610ee9565b90506000610da560085483610dcf90919063ffffffff16565b9050610dc3610c1c8461045c60095485610dcf90919063ffffffff16565b60035550504360065550565b6000610c9282846112ad565b6000610c9282846112cc565b6040516001600160a01b038316602482015260448101829052610e4a90849063a9059cbb60e01b906064015b60408051601f198184030181529190526020810180516001600160e01b03166001600160e01b031990931692909217909152610f23565b505050565b600080546001600160a01b038381166001600160a01b0319831681178455604051919092169283917f8be0079c531659141344cd1fd0a4f28419497f9722a3daafe3b4186f6b6457e09190a35050565b6000610c9282846112ee565b6040516001600160a01b0380851660248301528316604482015260648101829052610ee39085906323b872dd60e01b90608401610e13565b50505050565b60006004548211610f0557610efe8284610c86565b9050610c95565b6004548310610f1657506000610c95565b600454610efe9084610c86565b6000610f78826040518060400160405280602081526020017f5361666545524332303a206c6f772d6c6576656c2063616c6c206661696c6564815250856001600160a01b0316610ff59092919063ffffffff16565b805190915015610e4a5780806020019051810190610f969190611306565b610e4a5760405162461bcd60e51b815260206004820152602a60248201527f5361666545524332303a204552433230206f7065726174696f6e20646964206e6044820152691bdd081cdd58d8d9595960b21b6064820152608401610360565b6060611004848460008561100e565b90505b9392505050565b60608247101561106f5760405162461bcd60e51b815260206004820152602660248201527f416464726573733a20696e73756666696369656e742062616c616e636520666f6044820152651c8818d85b1b60d21b6064820152608401610360565b6001600160a01b0385163b6110c65760405162461bcd60e51b815260206004820152601d60248201527f416464726573733a2063616c6c20746f206e6f6e2d636f6e74726163740000006044820152606401610360565b600080866001600160a01b031685876040516110e2919061134f565b60006040518083038185875af1925050503d806000811461111f576040519150601f19603f3d011682016040523d82523d6000602084013e611124565b606091505b5091509150610c4c8282866060831561113e575081611007565b82511561114e5782518084602001fd5b8160405162461bcd60e51b8152600401610360919061136b565b60006020828403121561117a57600080fd5b5035919050565b80356001600160a01b038116811461119857600080fd5b919050565b6000602082840312156111af57600080fd5b610c9282611181565b600080604083850312156111cb57600080fd5b6111d483611181565b946020939093013593505050565b600080604083850312156111f557600080fd5b50508035926020909101359150565b801515811461052b57600080fd5b6000806040838503121561122557600080fd5b82356111d481611204565b6020808252601f908201527f5265656e7472616e637947756172643a207265656e7472616e742063616c6c00604082015260600190565b60006020828403121561127957600080fd5b5051919050565b634e487b7160e01b600052601160045260246000fd5b6000828210156112a8576112a8611280565b500390565b60008160001904831182151516156112c7576112c7611280565b500290565b6000826112e957634e487b7160e01b600052601260045260246000fd5b500490565b6000821982111561130157611301611280565b500190565b60006020828403121561131857600080fd5b815161100781611204565b60005b8381101561133e578181015183820152602001611326565b83811115610ee35750506000910152565b60008251611361818460208701611323565b9190910192915050565b602081526000825180602084015261138a816040850160208701611323565b601f01601f1916919091016040019291505056fea26469706673582212202de266c9a667cef7a8e618476a9ec1cbc0e1f0c92be791e56d30a097c83f719f64736f6c634300080f0033",
  "linkReferences": {},
  "deployedLinkReferences": {}
}