{
  "_format": "hh-sol-artifact-1",
  "contractName": "TestBLBSwap",
  "sourceName": "contracts/StakePool/TestBLBSwap.sol",
  "abi": [
    {
      "inputs": [
        {
          "internalType": "uint256",
          "name": "amountBNB",
          "type": "uint256"
        }
      ],
      "name": "BLBsForBNB",
      "outputs": [
        {
          "internalType": "uint256",
          "name": "",
          "type": "uint256"
        }
      ],
      "stateMutability": "pure",
      "type": "function"
    },
    {
      "inputs": [
        {
          "internalType": "uint256",
          "name": "amountBUSD",
          "type": "uint256"
        }
      ],
      "name": "BLBsForUSD",
      "outputs": [
        {
          "internalType": "uint256",
          "name": "",
          "type": "uint256"
        }
      ],
      "stateMutability": "pure",
      "type": "function"
    }
  ],
  "bytecode": "0x608060405234801561001057600080fd5b5060f68061001f6000396000f3fe6080604052348015600f57600080fd5b506004361060325760003560e01c80635fd03331146037578063bc07d85c146058575b600080fd5b604660423660046084565b6067565b60405190815260200160405180910390f35b604660633660046084565b6079565b60006073826107d0609c565b92915050565b6000607382600a609c565b600060208284031215609557600080fd5b5035919050565b8082028115828204841417607357634e487b7160e01b600052601160045260246000fdfea2646970667358221220733526710763bd662c45ce1518264d11fed745d58e6e22b6e7407df02cd1053464736f6c63430008120033",
  "linkReferences": {},
  "deployedLinkReferences": {}
}