{
  "_format": "hh-sol-artifact-1",
  "contractName": "BLBIO",
  "sourceName": "contracts/BLBIO/BLBIO.sol",
  "abi": [
    {
      "inputs": [
        {
          "internalType": "address",
          "name": "_BLBAddr",
          "type": "address"
        },
        {
          "internalType": "address",
          "name": "_BUSDAddr",
          "type": "address"
        },
        {
          "internalType": "address",
          "name": "_AGGREGATORAddr",
          "type": "address"
        },
        {
          "internalType": "uint256",
          "name": "_publicPrice",
          "type": "uint256"
        },
        {
          "internalType": "uint256",
          "name": "_privatePrice",
          "type": "uint256"
        },
        {
          "internalType": "uint256",
          "name": "_retailLimit",
          "type": "uint256"
        }
      ],
      "stateMutability": "nonpayable",
      "type": "constructor"
    },
    {
      "anonymous": false,
      "inputs": [
        {
          "indexed": true,
          "internalType": "address",
          "name": "claimant",
          "type": "address"
        },
        {
          "indexed": false,
          "internalType": "uint256",
          "name": "amountBLB",
          "type": "uint256"
        }
      ],
      "name": "Claim",
      "type": "event"
    },
    {
      "anonymous": false,
      "inputs": [
        {
          "indexed": true,
          "internalType": "address",
          "name": "previousOwner",
          "type": "address"
        },
        {
          "indexed": true,
          "internalType": "address",
          "name": "newOwner",
          "type": "address"
        }
      ],
      "name": "OwnershipTransferred",
      "type": "event"
    },
    {
      "anonymous": false,
      "inputs": [
        {
          "indexed": true,
          "internalType": "address",
          "name": "purchaser",
          "type": "address"
        },
        {
          "indexed": true,
          "internalType": "string",
          "name": "tokenPaid",
          "type": "string"
        },
        {
          "indexed": false,
          "internalType": "uint256",
          "name": "amountPaid",
          "type": "uint256"
        },
        {
          "indexed": false,
          "internalType": "uint256",
          "name": "amountBLB",
          "type": "uint256"
        }
      ],
      "name": "Purchase",
      "type": "event"
    },
    {
      "anonymous": false,
      "inputs": [
        {
          "indexed": true,
          "internalType": "uint256",
          "name": "publicPrice",
          "type": "uint256"
        },
        {
          "indexed": true,
          "internalType": "uint256",
          "name": "privatePrice",
          "type": "uint256"
        }
      ],
      "name": "SetPriceInUSD",
      "type": "event"
    },
    {
      "anonymous": false,
      "inputs": [
        {
          "indexed": true,
          "internalType": "uint256",
          "name": "_retailLimit",
          "type": "uint256"
        }
      ],
      "name": "SetRetailLimit",
      "type": "event"
    },
    {
      "anonymous": false,
      "inputs": [
        {
          "indexed": false,
          "internalType": "bool",
          "name": "situation",
          "type": "bool"
        }
      ],
      "name": "SoldOut",
      "type": "event"
    },
    {
      "anonymous": false,
      "inputs": [
        {
          "indexed": true,
          "internalType": "string",
          "name": "tokenName",
          "type": "string"
        },
        {
          "indexed": false,
          "internalType": "uint256",
          "name": "amount",
          "type": "uint256"
        }
      ],
      "name": "Withdraw",
      "type": "event"
    },
    {
      "inputs": [],
      "name": "BLB",
      "outputs": [
        {
          "internalType": "contract IERC20",
          "name": "",
          "type": "address"
        }
      ],
      "stateMutability": "view",
      "type": "function"
    },
    {
      "inputs": [],
      "name": "BUSD",
      "outputs": [
        {
          "internalType": "contract IERC20",
          "name": "",
          "type": "address"
        }
      ],
      "stateMutability": "view",
      "type": "function"
    },
    {
      "inputs": [],
      "name": "TotalClaimable",
      "outputs": [
        {
          "internalType": "uint256",
          "name": "",
          "type": "uint256"
        }
      ],
      "stateMutability": "view",
      "type": "function"
    },
    {
      "inputs": [],
      "name": "blbBalance",
      "outputs": [
        {
          "internalType": "uint256",
          "name": "",
          "type": "uint256"
        }
      ],
      "stateMutability": "view",
      "type": "function"
    },
    {
      "inputs": [],
      "name": "bnbBalance",
      "outputs": [
        {
          "internalType": "uint256",
          "name": "",
          "type": "uint256"
        }
      ],
      "stateMutability": "view",
      "type": "function"
    },
    {
      "inputs": [],
      "name": "busdBalance",
      "outputs": [
        {
          "internalType": "uint256",
          "name": "",
          "type": "uint256"
        }
      ],
      "stateMutability": "view",
      "type": "function"
    },
    {
      "inputs": [],
      "name": "claim",
      "outputs": [],
      "stateMutability": "nonpayable",
      "type": "function"
    },
    {
      "inputs": [
        {
          "internalType": "address",
          "name": "claimant",
          "type": "address"
        }
      ],
      "name": "claimable",
      "outputs": [
        {
          "internalType": "uint256",
          "name": "",
          "type": "uint256"
        }
      ],
      "stateMutability": "view",
      "type": "function"
    },
    {
      "inputs": [],
      "name": "claimableFraction",
      "outputs": [
        {
          "internalType": "uint256",
          "name": "",
          "type": "uint256"
        }
      ],
      "stateMutability": "view",
      "type": "function"
    },
    {
      "inputs": [
        {
          "internalType": "address",
          "name": "addr",
          "type": "address"
        },
        {
          "internalType": "uint256",
          "name": "amount",
          "type": "uint256"
        },
        {
          "internalType": "bool",
          "name": "freeToClaim",
          "type": "bool"
        }
      ],
      "name": "giftBLB",
      "outputs": [],
      "stateMutability": "nonpayable",
      "type": "function"
    },
    {
      "inputs": [
        {
          "internalType": "uint256",
          "name": "fraction",
          "type": "uint256"
        }
      ],
      "name": "increaseClaimableFraction",
      "outputs": [],
      "stateMutability": "nonpayable",
      "type": "function"
    },
    {
      "inputs": [],
      "name": "owner",
      "outputs": [
        {
          "internalType": "address",
          "name": "",
          "type": "address"
        }
      ],
      "stateMutability": "view",
      "type": "function"
    },
    {
      "inputs": [
        {
          "internalType": "uint256",
          "name": "amount",
          "type": "uint256"
        }
      ],
      "name": "priceInBNB",
      "outputs": [
        {
          "internalType": "uint256",
          "name": "",
          "type": "uint256"
        }
      ],
      "stateMutability": "view",
      "type": "function"
    },
    {
      "inputs": [
        {
          "internalType": "uint256",
          "name": "amount",
          "type": "uint256"
        }
      ],
      "name": "priceInUSD",
      "outputs": [
        {
          "internalType": "uint256",
          "name": "",
          "type": "uint256"
        }
      ],
      "stateMutability": "view",
      "type": "function"
    },
    {
      "inputs": [],
      "name": "privatePriceInUSD",
      "outputs": [
        {
          "internalType": "uint256",
          "name": "",
          "type": "uint256"
        }
      ],
      "stateMutability": "view",
      "type": "function"
    },
    {
      "inputs": [],
      "name": "publicPriceInUSD",
      "outputs": [
        {
          "internalType": "uint256",
          "name": "",
          "type": "uint256"
        }
      ],
      "stateMutability": "view",
      "type": "function"
    },
    {
      "inputs": [
        {
          "internalType": "uint256",
          "name": "amount",
          "type": "uint256"
        }
      ],
      "name": "purchaseInBNB",
      "outputs": [],
      "stateMutability": "payable",
      "type": "function"
    },
    {
      "inputs": [
        {
          "internalType": "uint256",
          "name": "amount",
          "type": "uint256"
        }
      ],
      "name": "purchaseInBUSD",
      "outputs": [],
      "stateMutability": "nonpayable",
      "type": "function"
    },
    {
      "inputs": [],
      "name": "renounceOwnership",
      "outputs": [],
      "stateMutability": "nonpayable",
      "type": "function"
    },
    {
      "inputs": [],
      "name": "retailLimit",
      "outputs": [
        {
          "internalType": "uint256",
          "name": "",
          "type": "uint256"
        }
      ],
      "stateMutability": "view",
      "type": "function"
    },
    {
      "inputs": [
        {
          "internalType": "uint256",
          "name": "_publicPrice",
          "type": "uint256"
        },
        {
          "internalType": "uint256",
          "name": "_privatePrice",
          "type": "uint256"
        }
      ],
      "name": "setPriceInUSD",
      "outputs": [],
      "stateMutability": "nonpayable",
      "type": "function"
    },
    {
      "inputs": [
        {
          "internalType": "uint256",
          "name": "_retailLimit",
          "type": "uint256"
        }
      ],
      "name": "setRetailLimit",
      "outputs": [],
      "stateMutability": "nonpayable",
      "type": "function"
    },
    {
      "inputs": [],
      "name": "setSoldOut",
      "outputs": [],
      "stateMutability": "nonpayable",
      "type": "function"
    },
    {
      "inputs": [],
      "name": "soldOut",
      "outputs": [
        {
          "internalType": "bool",
          "name": "",
          "type": "bool"
        }
      ],
      "stateMutability": "view",
      "type": "function"
    },
    {
      "inputs": [
        {
          "internalType": "address",
          "name": "claimant",
          "type": "address"
        }
      ],
      "name": "totalClaimable",
      "outputs": [
        {
          "internalType": "uint256",
          "name": "",
          "type": "uint256"
        }
      ],
      "stateMutability": "view",
      "type": "function"
    },
    {
      "inputs": [
        {
          "internalType": "address",
          "name": "newOwner",
          "type": "address"
        }
      ],
      "name": "transferOwnership",
      "outputs": [],
      "stateMutability": "nonpayable",
      "type": "function"
    },
    {
      "inputs": [
        {
          "internalType": "uint256",
          "name": "amount",
          "type": "uint256"
        }
      ],
      "name": "withdrawBLB",
      "outputs": [],
      "stateMutability": "nonpayable",
      "type": "function"
    },
    {
      "inputs": [
        {
          "internalType": "uint256",
          "name": "amount",
          "type": "uint256"
        }
      ],
      "name": "withdrawBNB",
      "outputs": [],
      "stateMutability": "nonpayable",
      "type": "function"
    },
    {
      "inputs": [
        {
          "internalType": "uint256",
          "name": "amount",
          "type": "uint256"
        }
      ],
      "name": "withdrawBUSD",
      "outputs": [],
      "stateMutability": "nonpayable",
      "type": "function"
    }
  ],
  "bytecode": "0x60a06040523480156200001157600080fd5b506040516200175e3803806200175e833981016040819052620000349162000277565b6200003f3362000095565b600680546001600160a01b038089166001600160a01b03199283161790925560078054888416921691909117905584166080526200007e8383620000e5565b6200008981620001bf565b505050505050620002dd565b600080546001600160a01b038381166001600160a01b0319831681178455604051919092169283917f8be0079c531659141344cd1fd0a4f28419497f9722a3daafe3b4186f6b6457e09190a35050565b620000ef620001fc565b80821015620001845760405162461bcd60e51b815260206004820152605060248201527f424c42494f41646d696e697374726174696f6e3a207075626c6963207072696360448201527f65206d7573742062652067726561746572207468616e206f7220657175616c2060648201526f746f207072697661746520707269636560801b608482015260a4015b60405180910390fd5b60028290556001819055604051819083907ff1981ab2ec7e286f52cb5d122cdb004e782c7cd2c7ec79e9c5a07f380f94bd9d90600090a35050565b620001c9620001fc565b600381905560405181907f8585f06828ed2d9126b998a9d431d18854350c2d883a903f957b1f6e77f6ca2490600090a250565b6000546001600160a01b03163314620002585760405162461bcd60e51b815260206004820181905260248201527f4f776e61626c653a2063616c6c6572206973206e6f7420746865206f776e657260448201526064016200017b565b565b80516001600160a01b03811681146200027257600080fd5b919050565b60008060008060008060c087890312156200029157600080fd5b6200029c876200025a565b9550620002ac602088016200025a565b9450620002bc604088016200025a565b9350606087015192506080870151915060a087015190509295509295509295565b608051611465620002f96000396000610ace01526114656000f3fe6080604052600436106101c25760003560e01c80637f04e0e1116100f7578063c9e3c9c711610095578063d013cbe211610064578063d013cbe2146104c3578063dc39ca7a146104d6578063e00115f6146104eb578063f2fde38b1461050057600080fd5b8063c9e3c9c714610443578063cc205db314610463578063cc3bcaf314610483578063ce9d3b09146104a357600080fd5b80638da5cb5b116100d15780638da5cb5b146103da578063be5be211146103f8578063bfa54b3f1461040d578063c73b2a431461042d57600080fd5b80637f04e0e1146103735780638380c09114610393578063893da6c9146103a957600080fd5b8063484f4ea9116101645780635d2a2c991161013e5780635d2a2c9914610308578063715018a614610328578063769bb5ac1461033d578063790b284f1461035d57600080fd5b8063484f4ea91461029b5780634e71d92d146102d35780635b0dfa95146102e857600080fd5b80631dfce5c6116101a05780631dfce5c6146102325780632c8e695b14610252578063402914f5146102655780634426a2631461028557600080fd5b806306dc693b146101c7578063127f4b2e146101fa578063158b072c1461021c575b600080fd5b3480156101d357600080fd5b506101e76101e23660046112c4565b610520565b6040519081526020015b60405180910390f35b34801561020657600080fd5b5061021a6102153660046112c4565b6105b2565b005b34801561022857600080fd5b506101e760045481565b34801561023e57600080fd5b506101e761024d3660046112f9565b610641565b61021a6102603660046112c4565b61066a565b34801561027157600080fd5b506101e76102803660046112f9565b6107c7565b34801561029157600080fd5b506101e760055481565b3480156102a757600080fd5b506007546102bb906001600160a01b031681565b6040516001600160a01b0390911681526020016101f1565b3480156102df57600080fd5b5061021a610821565b3480156102f457600080fd5b5061021a6103033660046112c4565b610a2f565b34801561031457600080fd5b506101e76103233660046112c4565b610a6a565b34801561033457600080fd5b5061021a610b68565b34801561034957600080fd5b5061021a610358366004611314565b610b7c565b34801561036957600080fd5b506101e760035481565b34801561037f57600080fd5b5061021a61038e3660046112c4565b610c4e565b34801561039f57600080fd5b506101e760025481565b3480156103b557600080fd5b506007546103ca90600160a01b900460ff1681565b60405190151581526020016101f1565b3480156103e657600080fd5b506000546001600160a01b03166102bb565b34801561040457600080fd5b5061021a610cff565b34801561041957600080fd5b506006546102bb906001600160a01b031681565b34801561043957600080fd5b506101e760015481565b34801561044f57600080fd5b5061021a61045e366004611344565b610d7c565b34801561046f57600080fd5b5061021a61047e3660046112c4565b610e51565b34801561048f57600080fd5b5061021a61049e3660046112c4565b610fc4565b3480156104af57600080fd5b5061021a6104be3660046112c4565b611076565b3480156104cf57600080fd5b50476101e7565b3480156104e257600080fd5b506101e7611100565b3480156104f757600080fd5b506101e7611173565b34801561050c57600080fd5b5061021a61051b3660046112f9565b6111a4565b600754600090600160a01b900460ff16156105755760405162461bcd60e51b815260206004820152601060248201526f424c42494f3a20736f6c64206f75742160801b60448201526064015b60405180910390fd5b600060035483116105885760025461058c565b6001545b9050670de0b6b3a76400006105a1848361139a565b6105ab91906113b1565b9392505050565b6105ba61121a565b600080546040516001600160a01b039091169183156108fc02918491818181858888f193505050501580156105f3573d6000803e3d6000fd5b506040516221272160e91b81526003015b604051908190038120828252907ffd950f75bf83187106ca979032c87af4e8bedbeff7455cba6df787f978267f299060200160405180910390a250565b6001600160a01b0381166000908152600860205260408120600181015481546105ab91906113d3565b33606461067683610a6a565b61068190606261139a565b61068b91906113b1565b3410156106da5760405162461bcd60e51b815260206004820152601760248201527f424c42494f3a20696e73756666696369656e7420666565000000000000000000604482015260640161056c565b600082116107235760405162461bcd60e51b8152602060048201526016602482015275424c42494f3a207a65726f20616d6f756e742062757960501b604482015260640161056c565b6001600160a01b0381166000908152600860205260408120805484929061074b9084906113e6565b92505081905550816005600082825461076491906113e6565b90915550506040516221272160e91b81526003016040805191829003822034835260208301859052916001600160a01b038416917facd81379883abf90827a751c8100bec3c4d1f66dbba0f8f8b412a049f0a03d70910160405180910390a35050565b6001600160a01b0381166000908152600860205260408120600281015460ff16156107f5576105ab83610641565b60018101546004548254620f42409161080d9161139a565b61081791906113b1565b6105ab91906113d3565b3360008181526008602052604081209061083a836107c7565b90508060000361088c5760405162461bcd60e51b815260206004820152601f60248201527f424c42494f3a207468657265206973206e6f20424c4220746f20636c61696d00604482015260640161056c565b6006546040516370a0823160e01b815230600482015282916001600160a01b0316906370a0823190602401602060405180830381865afa1580156108d4573d6000803e3d6000fd5b505050506040513d601f19601f820116820180604052508101906108f891906113f9565b10156109565760405162461bcd60e51b815260206004820152602760248201527f424c42494f3a20696e73756666696369656e7420424c4220696e2074686520636044820152661bdb9d1c9858dd60ca1b606482015260840161056c565b8082600101600082825461096a91906113e6565b909155505060065460405163a9059cbb60e01b81526001600160a01b038581166004830152602482018490529091169063a9059cbb906044016020604051808303816000875af11580156109c2573d6000803e3d6000fd5b505050506040513d601f19601f820116820180604052508101906109e69190611412565b50826001600160a01b03167f47cee97cb7acd717b3c0aa1435d004cd5b3c8c57d70dbceb4e4458bbd60e39d482604051610a2291815260200190565b60405180910390a2505050565b610a3761121a565b600381905560405181907f8585f06828ed2d9126b998a9d431d18854350c2d883a903f957b1f6e77f6ca2490600090a250565b600754600090600160a01b900460ff1615610aba5760405162461bcd60e51b815260206004820152601060248201526f424c42494f3a20736f6c64206f75742160801b604482015260640161056c565b670de0b6b3a7640000610acc83610520565b7f00000000000000000000000000000000000000000000000000000000000000006001600160a01b03166350d25bcd6040518163ffffffff1660e01b8152600401602060405180830381865afa158015610b2a573d6000803e3d6000fd5b505050506040513d601f19601f82011682018060405250810190610b4e91906113f9565b610b58919061139a565b610b6291906113b1565b92915050565b610b7061121a565b610b7a6000611274565b565b610b8461121a565b80821015610c135760405162461bcd60e51b815260206004820152605060248201527f424c42494f41646d696e697374726174696f6e3a207075626c6963207072696360448201527f65206d7573742062652067726561746572207468616e206f7220657175616c2060648201526f746f207072697661746520707269636560801b608482015260a40161056c565b60028290556001819055604051819083907ff1981ab2ec7e286f52cb5d122cdb004e782c7cd2c7ec79e9c5a07f380f94bd9d90600090a35050565b610c5661121a565b6006546001600160a01b031663a9059cbb610c796000546001600160a01b031690565b6040516001600160e01b031960e084901b1681526001600160a01b039091166004820152602481018490526044016020604051808303816000875af1158015610cc6573d6000803e3d6000fd5b505050506040513d601f19601f82011682018060405250810190610cea9190611412565b506040516221262160e91b8152600301610604565b610d0761121a565b600754600160a01b900460ff16610d1f576001610d22565b60005b6007805460ff60a01b1916600160a01b9215158302179081905560405160ff9290910491909116151581527f0a3cfaceb3e57ff8026ea1ea844ce08ca4b74964e184e542ea2ab22605e34f629060200160405180910390a1565b610d8461121a565b6001600160a01b03831660009081526008602052604081208054849290610dac9084906113e6565b90915550506001600160a01b0383166000908152600860205260408120600201805460ff191683151517905560058054849290610dea9084906113e6565b90915550506040516319da599d60e21b8152600401604080519182900382206000835260208301859052916001600160a01b038616917facd81379883abf90827a751c8100bec3c4d1f66dbba0f8f8b412a049f0a03d7091015b60405180910390a3505050565b60008111610e9a5760405162461bcd60e51b8152602060048201526016602482015275424c42494f3a207a65726f20616d6f756e742062757960501b604482015260640161056c565b336000610ea683610520565b6007546040516323b872dd60e01b81526001600160a01b038581166004830152306024830152604482018490529293509116906323b872dd906064016020604051808303816000875af1158015610f01573d6000803e3d6000fd5b505050506040513d601f19601f82011682018060405250810190610f259190611412565b506001600160a01b03821660009081526008602052604081208054859290610f4e9084906113e6565b925050819055508260056000828254610f6791906113e6565b909155505060405163109554d160e21b81526004016040805191829003822083835260208301869052916001600160a01b038516917facd81379883abf90827a751c8100bec3c4d1f66dbba0f8f8b412a049f0a03d709101610e44565b610fcc61121a565b6007546001600160a01b031663a9059cbb610fef6000546001600160a01b031690565b6040516001600160e01b031960e084901b1681526001600160a01b039091166004820152602481018490526044016020604051808303816000875af115801561103c573d6000803e3d6000fd5b505050506040513d601f19601f820116820180604052508101906110609190611412565b5060405163109554d160e21b8152600401610604565b61107e61121a565b806004600082825461109091906113e6565b9091555050600454620f424010156110fd5760405162461bcd60e51b815260206004820152602a60248201527f424c42494f41646d696e697374726174696f6e3a206672616374696f6e20657860448201526931b2b2b2399018982f1b60b11b606482015260840161056c565b50565b6007546040516370a0823160e01b81523060048201526000916001600160a01b0316906370a08231906024015b602060405180830381865afa15801561114a573d6000803e3d6000fd5b505050506040513d601f19601f8201168201806040525081019061116e91906113f9565b905090565b6006546040516370a0823160e01b81523060048201526000916001600160a01b0316906370a082319060240161112d565b6111ac61121a565b6001600160a01b0381166112115760405162461bcd60e51b815260206004820152602660248201527f4f776e61626c653a206e6577206f776e657220697320746865207a65726f206160448201526564647265737360d01b606482015260840161056c565b6110fd81611274565b6000546001600160a01b03163314610b7a5760405162461bcd60e51b815260206004820181905260248201527f4f776e61626c653a2063616c6c6572206973206e6f7420746865206f776e6572604482015260640161056c565b600080546001600160a01b038381166001600160a01b0319831681178455604051919092169283917f8be0079c531659141344cd1fd0a4f28419497f9722a3daafe3b4186f6b6457e09190a35050565b6000602082840312156112d657600080fd5b5035919050565b80356001600160a01b03811681146112f457600080fd5b919050565b60006020828403121561130b57600080fd5b6105ab826112dd565b6000806040838503121561132757600080fd5b50508035926020909101359150565b80151581146110fd57600080fd5b60008060006060848603121561135957600080fd5b611362846112dd565b925060208401359150604084013561137981611336565b809150509250925092565b634e487b7160e01b600052601160045260246000fd5b8082028115828204841417610b6257610b62611384565b6000826113ce57634e487b7160e01b600052601260045260246000fd5b500490565b81810381811115610b6257610b62611384565b80820180821115610b6257610b62611384565b60006020828403121561140b57600080fd5b5051919050565b60006020828403121561142457600080fd5b81516105ab8161133656fea26469706673582212206bab471d51a25d870d5d1ada30412a50404e23c3001ce018d1c2d89026f843c864736f6c63430008110033",
  "linkReferences": {},
  "deployedLinkReferences": {}
}