{
  "_format": "hh-sol-artifact-1",
  "contractName": "BLBIO",
  "sourceName": "contracts/BLBIO/BLBIO.sol",
  "abi": [
    {
      "inputs": [
        {
          "internalType": "address",
          "name": "_BLBAddr",
          "type": "address"
        },
        {
          "internalType": "address",
          "name": "_BUSDAddr",
          "type": "address"
        },
        {
          "internalType": "address",
          "name": "_AGGREGATORAddr",
          "type": "address"
        }
      ],
      "stateMutability": "nonpayable",
      "type": "constructor"
    },
    {
      "anonymous": false,
      "inputs": [
        {
          "indexed": true,
          "internalType": "address",
          "name": "buyer",
          "type": "address"
        },
        {
          "indexed": false,
          "internalType": "uint256",
          "name": "amountBLB",
          "type": "uint256"
        },
        {
          "indexed": false,
          "internalType": "uint256",
          "name": "amountBNB",
          "type": "uint256"
        }
      ],
      "name": "BuyInBNB",
      "type": "event"
    },
    {
      "anonymous": false,
      "inputs": [
        {
          "indexed": true,
          "internalType": "address",
          "name": "buyer",
          "type": "address"
        },
        {
          "indexed": false,
          "internalType": "uint256",
          "name": "amountBLB",
          "type": "uint256"
        },
        {
          "indexed": false,
          "internalType": "uint256",
          "name": "amountBUSD",
          "type": "uint256"
        }
      ],
      "name": "BuyInBUSD",
      "type": "event"
    },
    {
      "anonymous": false,
      "inputs": [
        {
          "indexed": true,
          "internalType": "address",
          "name": "claimant",
          "type": "address"
        },
        {
          "indexed": false,
          "internalType": "uint256",
          "name": "amountBLB",
          "type": "uint256"
        }
      ],
      "name": "Claim",
      "type": "event"
    },
    {
      "anonymous": false,
      "inputs": [
        {
          "indexed": true,
          "internalType": "address",
          "name": "previousOwner",
          "type": "address"
        },
        {
          "indexed": true,
          "internalType": "address",
          "name": "newOwner",
          "type": "address"
        }
      ],
      "name": "OwnershipTransferred",
      "type": "event"
    },
    {
      "anonymous": false,
      "inputs": [
        {
          "indexed": true,
          "internalType": "uint256",
          "name": "publicPrice",
          "type": "uint256"
        },
        {
          "indexed": true,
          "internalType": "uint256",
          "name": "privatePrice",
          "type": "uint256"
        }
      ],
      "name": "SetPriceInUSD",
      "type": "event"
    },
    {
      "anonymous": false,
      "inputs": [
        {
          "indexed": true,
          "internalType": "uint256",
          "name": "_retailLimit",
          "type": "uint256"
        }
      ],
      "name": "SetRetailLimit",
      "type": "event"
    },
    {
      "anonymous": false,
      "inputs": [
        {
          "indexed": true,
          "internalType": "string",
          "name": "tokenName",
          "type": "string"
        },
        {
          "indexed": false,
          "internalType": "uint256",
          "name": "amount",
          "type": "uint256"
        }
      ],
      "name": "Withdraw",
      "type": "event"
    },
    {
      "inputs": [],
      "name": "BLB",
      "outputs": [
        {
          "internalType": "contract IERC20",
          "name": "",
          "type": "address"
        }
      ],
      "stateMutability": "view",
      "type": "function"
    },
    {
      "inputs": [],
      "name": "BUSD",
      "outputs": [
        {
          "internalType": "contract IERC20",
          "name": "",
          "type": "address"
        }
      ],
      "stateMutability": "view",
      "type": "function"
    },
    {
      "inputs": [],
      "name": "TotalClaimable",
      "outputs": [
        {
          "internalType": "uint256",
          "name": "",
          "type": "uint256"
        }
      ],
      "stateMutability": "view",
      "type": "function"
    },
    {
      "inputs": [],
      "name": "blbBalance",
      "outputs": [
        {
          "internalType": "uint256",
          "name": "",
          "type": "uint256"
        }
      ],
      "stateMutability": "view",
      "type": "function"
    },
    {
      "inputs": [],
      "name": "bnbBalance",
      "outputs": [
        {
          "internalType": "uint256",
          "name": "",
          "type": "uint256"
        }
      ],
      "stateMutability": "view",
      "type": "function"
    },
    {
      "inputs": [],
      "name": "busdBalance",
      "outputs": [
        {
          "internalType": "uint256",
          "name": "",
          "type": "uint256"
        }
      ],
      "stateMutability": "view",
      "type": "function"
    },
    {
      "inputs": [
        {
          "internalType": "uint256",
          "name": "amount",
          "type": "uint256"
        }
      ],
      "name": "buyInBNB",
      "outputs": [],
      "stateMutability": "payable",
      "type": "function"
    },
    {
      "inputs": [
        {
          "internalType": "uint256",
          "name": "amount",
          "type": "uint256"
        }
      ],
      "name": "buyInBUSD",
      "outputs": [],
      "stateMutability": "nonpayable",
      "type": "function"
    },
    {
      "inputs": [],
      "name": "claim",
      "outputs": [],
      "stateMutability": "nonpayable",
      "type": "function"
    },
    {
      "inputs": [
        {
          "internalType": "address",
          "name": "claimant",
          "type": "address"
        }
      ],
      "name": "claimable",
      "outputs": [
        {
          "internalType": "uint256",
          "name": "",
          "type": "uint256"
        }
      ],
      "stateMutability": "view",
      "type": "function"
    },
    {
      "inputs": [],
      "name": "claimableFraction",
      "outputs": [
        {
          "internalType": "uint256",
          "name": "",
          "type": "uint256"
        }
      ],
      "stateMutability": "view",
      "type": "function"
    },
    {
      "inputs": [
        {
          "internalType": "address",
          "name": "addr",
          "type": "address"
        },
        {
          "internalType": "uint256",
          "name": "amount",
          "type": "uint256"
        },
        {
          "internalType": "bool",
          "name": "freeToClaim",
          "type": "bool"
        }
      ],
      "name": "giftBLB",
      "outputs": [],
      "stateMutability": "nonpayable",
      "type": "function"
    },
    {
      "inputs": [
        {
          "internalType": "uint256",
          "name": "fraction",
          "type": "uint256"
        }
      ],
      "name": "increaseClaimableFraction",
      "outputs": [],
      "stateMutability": "nonpayable",
      "type": "function"
    },
    {
      "inputs": [],
      "name": "owner",
      "outputs": [
        {
          "internalType": "address",
          "name": "",
          "type": "address"
        }
      ],
      "stateMutability": "view",
      "type": "function"
    },
    {
      "inputs": [
        {
          "internalType": "uint256",
          "name": "amount",
          "type": "uint256"
        }
      ],
      "name": "priceInBNB",
      "outputs": [
        {
          "internalType": "uint256",
          "name": "",
          "type": "uint256"
        }
      ],
      "stateMutability": "view",
      "type": "function"
    },
    {
      "inputs": [
        {
          "internalType": "uint256",
          "name": "amount",
          "type": "uint256"
        }
      ],
      "name": "priceInUSD",
      "outputs": [
        {
          "internalType": "uint256",
          "name": "",
          "type": "uint256"
        }
      ],
      "stateMutability": "view",
      "type": "function"
    },
    {
      "inputs": [],
      "name": "privatePriceInUSD",
      "outputs": [
        {
          "internalType": "uint256",
          "name": "",
          "type": "uint256"
        }
      ],
      "stateMutability": "view",
      "type": "function"
    },
    {
      "inputs": [],
      "name": "publicPriceInUSD",
      "outputs": [
        {
          "internalType": "uint256",
          "name": "",
          "type": "uint256"
        }
      ],
      "stateMutability": "view",
      "type": "function"
    },
    {
      "inputs": [],
      "name": "renounceOwnership",
      "outputs": [],
      "stateMutability": "nonpayable",
      "type": "function"
    },
    {
      "inputs": [],
      "name": "retailLimit",
      "outputs": [
        {
          "internalType": "uint256",
          "name": "",
          "type": "uint256"
        }
      ],
      "stateMutability": "view",
      "type": "function"
    },
    {
      "inputs": [
        {
          "internalType": "uint256",
          "name": "_publicPrice",
          "type": "uint256"
        },
        {
          "internalType": "uint256",
          "name": "_privatePrice",
          "type": "uint256"
        }
      ],
      "name": "setPriceInUSD",
      "outputs": [],
      "stateMutability": "nonpayable",
      "type": "function"
    },
    {
      "inputs": [
        {
          "internalType": "uint256",
          "name": "_retailLimit",
          "type": "uint256"
        }
      ],
      "name": "setRetailLimit",
      "outputs": [],
      "stateMutability": "nonpayable",
      "type": "function"
    },
    {
      "inputs": [],
      "name": "setSoldOut",
      "outputs": [],
      "stateMutability": "nonpayable",
      "type": "function"
    },
    {
      "inputs": [],
      "name": "soldOut",
      "outputs": [
        {
          "internalType": "bool",
          "name": "",
          "type": "bool"
        }
      ],
      "stateMutability": "view",
      "type": "function"
    },
    {
      "inputs": [
        {
          "internalType": "address",
          "name": "claimant",
          "type": "address"
        }
      ],
      "name": "totalClaimable",
      "outputs": [
        {
          "internalType": "uint256",
          "name": "",
          "type": "uint256"
        }
      ],
      "stateMutability": "view",
      "type": "function"
    },
    {
      "inputs": [
        {
          "internalType": "address",
          "name": "newOwner",
          "type": "address"
        }
      ],
      "name": "transferOwnership",
      "outputs": [],
      "stateMutability": "nonpayable",
      "type": "function"
    },
    {
      "inputs": [
        {
          "internalType": "uint256",
          "name": "amount",
          "type": "uint256"
        }
      ],
      "name": "withdrawBLB",
      "outputs": [],
      "stateMutability": "nonpayable",
      "type": "function"
    },
    {
      "inputs": [
        {
          "internalType": "uint256",
          "name": "amount",
          "type": "uint256"
        }
      ],
      "name": "withdrawBNB",
      "outputs": [],
      "stateMutability": "nonpayable",
      "type": "function"
    },
    {
      "inputs": [
        {
          "internalType": "uint256",
          "name": "amount",
          "type": "uint256"
        }
      ],
      "name": "withdrawBUSD",
      "outputs": [],
      "stateMutability": "nonpayable",
      "type": "function"
    }
  ],
  "bytecode": "0x60a06040523480156200001157600080fd5b506040516200154f3803806200154f8339810160408190526200003491620001fb565b6200003f33620000ab565b600680546001600160a01b038086166001600160a01b03199283161790925560078054858416921691909117905581166080526200008e670429d069189e00006703e2c284391c0000620000fb565b620000a2681b1ae4d6e2ef50000062000140565b50505062000245565b600080546001600160a01b038381166001600160a01b0319831681178455604051919092169283917f8be0079c531659141344cd1fd0a4f28419497f9722a3daafe3b4186f6b6457e09190a35050565b620001056200017d565b60058290556004819055604051819083907ff1981ab2ec7e286f52cb5d122cdb004e782c7cd2c7ec79e9c5a07f380f94bd9d90600090a35050565b6200014a6200017d565b600381905560405181907f8585f06828ed2d9126b998a9d431d18854350c2d883a903f957b1f6e77f6ca2490600090a250565b6000546001600160a01b03163314620001dc5760405162461bcd60e51b815260206004820181905260248201527f4f776e61626c653a2063616c6c6572206973206e6f7420746865206f776e6572604482015260640160405180910390fd5b565b80516001600160a01b0381168114620001f657600080fd5b919050565b6000806000606084860312156200021157600080fd5b6200021c84620001de565b92506200022c60208501620001de565b91506200023c60408501620001de565b90509250925092565b6080516112ee620002616000396000610c0c01526112ee6000f3fe6080604052600436106101c25760003560e01c8063790b284f116100f7578063c73b2a4311610095578063d013cbe211610064578063d013cbe2146104bc578063dc39ca7a146104cf578063e00115f6146104e4578063f2fde38b146104f957600080fd5b8063c73b2a4314610446578063c9e3c9c71461045c578063cc3bcaf31461047c578063ce9d3b091461049c57600080fd5b8063893da6c9116100d1578063893da6c9146103c95780638da5cb5b146103f3578063be5be21114610411578063bfa54b3f1461042657600080fd5b8063790b284f1461037d5780637f04e0e1146103935780638380c091146103b357600080fd5b8063484f4ea9116101645780635b0dfa951161013e5780635b0dfa95146103085780635d2a2c9914610328578063715018a614610348578063769bb5ac1461035d57600080fd5b8063484f4ea91461029b5780634bc37468146102d35780634e71d92d146102f357600080fd5b8063158b072c116101a0578063158b072c1461022f5780631dfce5c614610245578063402914f5146102655780634426a2631461028557600080fd5b806306dc693b146101c7578063127f4b2e146101fa57806312b132161461021c575b600080fd5b3480156101d357600080fd5b506101e76101e236600461113c565b610519565b6040519081526020015b60405180910390f35b34801561020657600080fd5b5061021a61021536600461113c565b6105a0565b005b61021a61022a36600461113c565b61062f565b34801561023b57600080fd5b506101e760025481565b34801561025157600080fd5b506101e7610260366004611171565b61071f565b34801561027157600080fd5b506101e7610280366004611171565b610750565b34801561029157600080fd5b506101e760085481565b3480156102a757600080fd5b506007546102bb906001600160a01b031681565b6040516001600160a01b0390911681526020016101f1565b3480156102df57600080fd5b5061021a6102ee36600461113c565b6107aa565b3480156102ff57600080fd5b5061021a610983565b34801561031457600080fd5b5061021a61032336600461113c565b610b74565b34801561033457600080fd5b506101e761034336600461113c565b610baf565b34801561035457600080fd5b5061021a610ca0565b34801561036957600080fd5b5061021a61037836600461118c565b610cb4565b34801561038957600080fd5b506101e760035481565b34801561039f57600080fd5b5061021a6103ae36600461113c565b610cf7565b3480156103bf57600080fd5b506101e760055481565b3480156103d557600080fd5b506009546103e39060ff1681565b60405190151581526020016101f1565b3480156103ff57600080fd5b506000546001600160a01b03166102bb565b34801561041d57600080fd5b5061021a610da8565b34801561043257600080fd5b506006546102bb906001600160a01b031681565b34801561045257600080fd5b506101e760045481565b34801561046857600080fd5b5061021a6104773660046111bc565b610dd7565b34801561048857600080fd5b5061021a61049736600461113c565b610e4f565b3480156104a857600080fd5b5061021a6104b736600461113c565b610f01565b3480156104c857600080fd5b50476101e7565b3480156104db57600080fd5b506101e7610f78565b3480156104f057600080fd5b506101e7610feb565b34801561050557600080fd5b5061021a610514366004611171565b61101c565b60095460009060ff16156105675760405162461bcd60e51b815260206004820152601060248201526f424c42494f3a20736f6c64206f75742160801b60448201526064015b60405180910390fd5b600354821161059657670de0b6b3a7640000826005546105879190611212565b6105919190611231565b61059a565b6004545b92915050565b6105a8611092565b600080546040516001600160a01b039091169183156108fc02918491818181858888f193505050501580156105e1573d6000803e3d6000fd5b506040516221272160e91b81526003015b604051908190038120828252907ffd950f75bf83187106ca979032c87af4e8bedbeff7455cba6df787f978267f299060200160405180910390a250565b33606461063b83610baf565b610646906062611212565b6106509190611231565b3410156106925760405162461bcd60e51b815260206004820152601060248201526f696e73756666696369656e742066656560801b604482015260640161055e565b6001600160a01b038116600090815260016020526040812080548492906106ba908490611253565b9250508190555081600860008282546106d39190611253565b9091555050604080518381523460208201526001600160a01b038316917f451507bd5f326ed3f76acb5340f6fd35a140805db4274994e84b230aaff29dde910160405180910390a25050565b6001600160a01b03811660009081526001602081905260408220908101548154610749919061126b565b9392505050565b6001600160a01b0381166000908152600160205260408120600281015460ff161561077e576107498361071f565b60018101546002548254620f42409161079691611212565b6107a09190611231565b610749919061126b565b6006546040516370a0823160e01b8152306004820152339183916001600160a01b03909116906370a0823190602401602060405180830381865afa1580156107f6573d6000803e3d6000fd5b505050506040513d601f19601f8201168201806040525081019061081a9190611282565b10156108685760405162461bcd60e51b815260206004820181905260248201527f696e73756666696369656e7420424c4220696e2074686520636f6e7472616374604482015260640161055e565b600061087383610519565b6007546040516323b872dd60e01b81526001600160a01b038581166004830152306024830152604482018490529293509116906323b872dd906064016020604051808303816000875af11580156108ce573d6000803e3d6000fd5b505050506040513d601f19601f820116820180604052508101906108f2919061129b565b506001600160a01b0382166000908152600160205260408120805485929061091b908490611253565b9250508190555082600860008282546109349190611253565b909155505060408051848152602081018390526001600160a01b038416917fae16ee7557ba4dc342c52849bc3a99fb8cada978f1b2c9910e52aade873b956c91015b60405180910390a2505050565b3360008181526001602052604081209061099c83610750565b9050806000036109ee5760405162461bcd60e51b815260206004820152601f60248201527f424c42494f3a207468657265206973206e6f20424c4220746f20636c61696d00604482015260640161055e565b6006546040516370a0823160e01b815230600482015282916001600160a01b0316906370a0823190602401602060405180830381865afa158015610a36573d6000803e3d6000fd5b505050506040513d601f19601f82011682018060405250810190610a5a9190611282565b1015610aa85760405162461bcd60e51b815260206004820181905260248201527f696e73756666696369656e7420424c4220696e2074686520636f6e7472616374604482015260640161055e565b80826001016000828254610abc9190611253565b909155505060065460405163a9059cbb60e01b81526001600160a01b038581166004830152602482018490529091169063a9059cbb906044016020604051808303816000875af1158015610b14573d6000803e3d6000fd5b505050506040513d601f19601f82011682018060405250810190610b38919061129b565b50826001600160a01b03167f47cee97cb7acd717b3c0aa1435d004cd5b3c8c57d70dbceb4e4458bbd60e39d48260405161097691815260200190565b610b7c611092565b600381905560405181907f8585f06828ed2d9126b998a9d431d18854350c2d883a903f957b1f6e77f6ca2490600090a250565b60095460009060ff1615610bf85760405162461bcd60e51b815260206004820152601060248201526f424c42494f3a20736f6c64206f75742160801b604482015260640161055e565b670de0b6b3a7640000610c0a83610519565b7f00000000000000000000000000000000000000000000000000000000000000006001600160a01b03166350d25bcd6040518163ffffffff1660e01b8152600401602060405180830381865afa158015610c68573d6000803e3d6000fd5b505050506040513d601f19601f82011682018060405250810190610c8c9190611282565b610c969190611212565b61059a9190611231565b610ca8611092565b610cb260006110ec565b565b610cbc611092565b60058290556004819055604051819083907ff1981ab2ec7e286f52cb5d122cdb004e782c7cd2c7ec79e9c5a07f380f94bd9d90600090a35050565b610cff611092565b6006546001600160a01b031663a9059cbb610d226000546001600160a01b031690565b6040516001600160e01b031960e084901b1681526001600160a01b039091166004820152602481018490526044016020604051808303816000875af1158015610d6f573d6000803e3d6000fd5b505050506040513d601f19601f82011682018060405250810190610d93919061129b565b506040516221262160e91b81526003016105f2565b610db0611092565b60095460ff16610dc1576001610dc4565b60005b6009805460ff1916911515919091179055565b610ddf611092565b6001600160a01b03831660009081526001602052604081208054849290610e07908490611253565b90915550506001600160a01b0383166000908152600160205260408120600201805460ff191683151517905560088054849290610e45908490611253565b9091555050505050565b610e57611092565b6007546001600160a01b031663a9059cbb610e7a6000546001600160a01b031690565b6040516001600160e01b031960e084901b1681526001600160a01b039091166004820152602481018490526044016020604051808303816000875af1158015610ec7573d6000803e3d6000fd5b505050506040513d601f19601f82011682018060405250810190610eeb919061129b565b5060405163109554d160e21b81526004016105f2565b610f09611092565b8060026000828254610f1b9190611253565b9091555050600254620f42401015610f755760405162461bcd60e51b815260206004820152601c60248201527f424c42494f3a206672616374696f6e20657863656564732031305e3600000000604482015260640161055e565b50565b6007546040516370a0823160e01b81523060048201526000916001600160a01b0316906370a08231906024015b602060405180830381865afa158015610fc2573d6000803e3d6000fd5b505050506040513d601f19601f82011682018060405250810190610fe69190611282565b905090565b6006546040516370a0823160e01b81523060048201526000916001600160a01b0316906370a0823190602401610fa5565b611024611092565b6001600160a01b0381166110895760405162461bcd60e51b815260206004820152602660248201527f4f776e61626c653a206e6577206f776e657220697320746865207a65726f206160448201526564647265737360d01b606482015260840161055e565b610f75816110ec565b6000546001600160a01b03163314610cb25760405162461bcd60e51b815260206004820181905260248201527f4f776e61626c653a2063616c6c6572206973206e6f7420746865206f776e6572604482015260640161055e565b600080546001600160a01b038381166001600160a01b0319831681178455604051919092169283917f8be0079c531659141344cd1fd0a4f28419497f9722a3daafe3b4186f6b6457e09190a35050565b60006020828403121561114e57600080fd5b5035919050565b80356001600160a01b038116811461116c57600080fd5b919050565b60006020828403121561118357600080fd5b61074982611155565b6000806040838503121561119f57600080fd5b50508035926020909101359150565b8015158114610f7557600080fd5b6000806000606084860312156111d157600080fd5b6111da84611155565b92506020840135915060408401356111f1816111ae565b809150509250925092565b634e487b7160e01b600052601160045260246000fd5b600081600019048311821515161561122c5761122c6111fc565b500290565b60008261124e57634e487b7160e01b600052601260045260246000fd5b500490565b60008219821115611266576112666111fc565b500190565b60008282101561127d5761127d6111fc565b500390565b60006020828403121561129457600080fd5b5051919050565b6000602082840312156112ad57600080fd5b8151610749816111ae56fea2646970667358221220fa2b15f9debf56a1df256c82c929cbab2e8388d733657da91ea2a0bce05da6d664736f6c634300080f0033",
  "linkReferences": {},
  "deployedLinkReferences": {}
}