{
  "_format": "hh-sol-artifact-1",
  "contractName": "BLBIO",
  "sourceName": "contracts/BLBIO/BLBIO.sol",
  "abi": [
    {
      "inputs": [],
      "stateMutability": "nonpayable",
      "type": "constructor"
    },
    {
      "anonymous": false,
      "inputs": [
        {
          "indexed": true,
          "internalType": "uint256",
          "name": "amountBLB",
          "type": "uint256"
        },
        {
          "indexed": true,
          "internalType": "uint256",
          "name": "amountBNB",
          "type": "uint256"
        }
      ],
      "name": "BuyInBNB",
      "type": "event"
    },
    {
      "anonymous": false,
      "inputs": [
        {
          "indexed": true,
          "internalType": "uint256",
          "name": "amountBLB",
          "type": "uint256"
        },
        {
          "indexed": true,
          "internalType": "uint256",
          "name": "amountBUSD",
          "type": "uint256"
        }
      ],
      "name": "BuyInBUSD",
      "type": "event"
    },
    {
      "anonymous": false,
      "inputs": [
        {
          "indexed": true,
          "internalType": "uint256",
          "name": "amountBLB",
          "type": "uint256"
        },
        {
          "indexed": true,
          "internalType": "uint256",
          "name": "amountUSDT",
          "type": "uint256"
        }
      ],
      "name": "BuyInUSDT",
      "type": "event"
    },
    {
      "anonymous": false,
      "inputs": [
        {
          "indexed": true,
          "internalType": "address",
          "name": "previousOwner",
          "type": "address"
        },
        {
          "indexed": true,
          "internalType": "address",
          "name": "newOwner",
          "type": "address"
        }
      ],
      "name": "OwnershipTransferred",
      "type": "event"
    },
    {
      "anonymous": false,
      "inputs": [
        {
          "indexed": true,
          "internalType": "uint256",
          "name": "newPrice",
          "type": "uint256"
        }
      ],
      "name": "SetPriceInUSD",
      "type": "event"
    },
    {
      "anonymous": false,
      "inputs": [
        {
          "indexed": true,
          "internalType": "address",
          "name": "tokenAddr",
          "type": "address"
        },
        {
          "indexed": true,
          "internalType": "uint256",
          "name": "amount",
          "type": "uint256"
        }
      ],
      "name": "Withdraw",
      "type": "event"
    },
    {
      "inputs": [],
      "name": "BLB",
      "outputs": [
        {
          "internalType": "contract IERC20",
          "name": "",
          "type": "address"
        }
      ],
      "stateMutability": "view",
      "type": "function"
    },
    {
      "inputs": [],
      "name": "BUSD",
      "outputs": [
        {
          "internalType": "contract IERC20",
          "name": "",
          "type": "address"
        }
      ],
      "stateMutability": "view",
      "type": "function"
    },
    {
      "inputs": [],
      "name": "USDT",
      "outputs": [
        {
          "internalType": "contract IERC20",
          "name": "",
          "type": "address"
        }
      ],
      "stateMutability": "view",
      "type": "function"
    },
    {
      "inputs": [
        {
          "internalType": "uint256",
          "name": "amount",
          "type": "uint256"
        }
      ],
      "name": "buyInBNB",
      "outputs": [],
      "stateMutability": "payable",
      "type": "function"
    },
    {
      "inputs": [
        {
          "internalType": "uint256",
          "name": "amount",
          "type": "uint256"
        }
      ],
      "name": "buyInBUSD",
      "outputs": [],
      "stateMutability": "nonpayable",
      "type": "function"
    },
    {
      "inputs": [
        {
          "internalType": "uint256",
          "name": "amount",
          "type": "uint256"
        }
      ],
      "name": "buyInUSDT",
      "outputs": [],
      "stateMutability": "nonpayable",
      "type": "function"
    },
    {
      "inputs": [],
      "name": "owner",
      "outputs": [
        {
          "internalType": "address",
          "name": "",
          "type": "address"
        }
      ],
      "stateMutability": "view",
      "type": "function"
    },
    {
      "inputs": [],
      "name": "priceInBNB",
      "outputs": [
        {
          "internalType": "uint256",
          "name": "",
          "type": "uint256"
        }
      ],
      "stateMutability": "view",
      "type": "function"
    },
    {
      "inputs": [],
      "name": "priceInUSD",
      "outputs": [
        {
          "internalType": "uint256",
          "name": "",
          "type": "uint256"
        }
      ],
      "stateMutability": "view",
      "type": "function"
    },
    {
      "inputs": [],
      "name": "renounceOwnership",
      "outputs": [],
      "stateMutability": "nonpayable",
      "type": "function"
    },
    {
      "inputs": [
        {
          "internalType": "uint256",
          "name": "_priceInUSD",
          "type": "uint256"
        }
      ],
      "name": "setPriceInUSD",
      "outputs": [],
      "stateMutability": "nonpayable",
      "type": "function"
    },
    {
      "inputs": [
        {
          "internalType": "address",
          "name": "newOwner",
          "type": "address"
        }
      ],
      "name": "transferOwnership",
      "outputs": [],
      "stateMutability": "nonpayable",
      "type": "function"
    },
    {
      "inputs": [
        {
          "internalType": "uint256",
          "name": "amount",
          "type": "uint256"
        }
      ],
      "name": "withdraw",
      "outputs": [],
      "stateMutability": "nonpayable",
      "type": "function"
    },
    {
      "inputs": [
        {
          "internalType": "address",
          "name": "tokenAddr",
          "type": "address"
        },
        {
          "internalType": "uint256",
          "name": "amount",
          "type": "uint256"
        }
      ],
      "name": "withdraw",
      "outputs": [],
      "stateMutability": "nonpayable",
      "type": "function"
    }
  ],
  "bytecode": "0x608060405234801561001057600080fd5b5061001a33610096565b600180546001600160a01b031990811673314fbbfc5c9db19bc8f8981781d326a9ba76508f17909155600280548216735a47b08a3e5058cf3b68b583851ccf585718ae44179055600380549091167376a90a822b4c797c0bfaed9453445241e5553d00179055610091670de0b6b3a76400006100e6565b610181565b600080546001600160a01b038381166001600160a01b0319831681178455604051919092169283917f8be0079c531659141344cd1fd0a4f28419497f9722a3daafe3b4186f6b6457e09190a35050565b6100ee610121565b600481905560405181907f267c5d6373c1ee1a2a235a618ca7bb122c9ad7ca6e81191f2dcd8391c9839bf090600090a250565b6000546001600160a01b0316331461017f5760405162461bcd60e51b815260206004820181905260248201527f4f776e61626c653a2063616c6c6572206973206e6f7420746865206f776e6572604482015260640160405180910390fd5b565b610c88806101906000396000f3fe6080604052600436106100dd5760003560e01c8063bcc6fc0e1161007f578063d03a404511610059578063d03a40451461022a578063d41edb7b1461024a578063f2fde38b14610260578063f3fef3a31461028057600080fd5b8063bcc6fc0e146101ca578063bfa54b3f146101ea578063c54e44eb1461020a57600080fd5b8063484f4ea9116100bb578063484f4ea91461013f5780634bc3746814610177578063715018a6146101975780638da5cb5b146101ac57600080fd5b806312b13216146100e25780632e1a7d4d146100f75780633ff6358214610117575b600080fd5b6100f56100f0366004610b12565b6102a0565b005b34801561010357600080fd5b506100f5610112366004610b12565b610448565b34801561012357600080fd5b5061012c6104ae565b6040519081526020015b60405180910390f35b34801561014b57600080fd5b5060025461015f906001600160a01b031681565b6040516001600160a01b039091168152602001610136565b34801561018357600080fd5b506100f5610192366004610b12565b61054b565b3480156101a357600080fd5b506100f561071b565b3480156101b857600080fd5b506000546001600160a01b031661015f565b3480156101d657600080fd5b506100f56101e5366004610b12565b61072f565b3480156101f657600080fd5b5060015461015f906001600160a01b031681565b34801561021657600080fd5b5060035461015f906001600160a01b031681565b34801561023657600080fd5b506100f5610245366004610b12565b610900565b34801561025657600080fd5b5061012c60045481565b34801561026c57600080fd5b506100f561027b366004610b47565b61093b565b34801561028c57600080fd5b506100f561029b366004610b69565b6109b4565b68056bc75e2d631000006102b26104ae565b6102bc9083610b93565b6102c7906062610b93565b6102d19190610bc0565b3410156103185760405162461bcd60e51b815260206004820152601060248201526f696e73756666696369656e742066656560801b60448201526064015b60405180910390fd5b6001546040516370a0823160e01b815230600482015282916001600160a01b0316906370a0823190602401602060405180830381865afa158015610360573d6000803e3d6000fd5b505050506040513d601f19601f820116820180604052508101906103849190610be2565b10156103a25760405162461bcd60e51b815260040161030f90610bfb565b60015460405163a9059cbb60e01b8152336004820152602481018390526001600160a01b039091169063a9059cbb906044016020604051808303816000875af11580156103f3573d6000803e3d6000fd5b505050506040513d601f19601f820116820180604052508101906104179190610c30565b50604051349082907f3d94153dfe80d78d2de6c8a61f1b90697fd8c09a80e182f36b1ff91b27ba12f790600090a350565b610450610a68565b604051339082156108fc029083906000818181858888f1935050505015801561047d573d6000803e3d6000fd5b5060405181906000907f884edad9ce6fa2440d8a54cc123490eb96d2768479d49ff9c7366125a9424364908290a350565b6000670de0b6b3a76400006004547374825dbc8bf76cc4e9494d0ecb210f676efa001d6001600160a01b03166350d25bcd6040518163ffffffff1660e01b8152600401602060405180830381865afa15801561050e573d6000803e3d6000fd5b505050506040513d601f19601f820116820180604052508101906105329190610be2565b61053c9190610b93565b6105469190610bc0565b905090565b6001546040516370a0823160e01b815230600482015282916001600160a01b0316906370a0823190602401602060405180830381865afa158015610593573d6000803e3d6000fd5b505050506040513d601f19601f820116820180604052508101906105b79190610be2565b10156105d55760405162461bcd60e51b815260040161030f90610bfb565b6000670de0b6b3a7640000826004546105ee9190610b93565b6105f89190610bc0565b6002546040516323b872dd60e01b8152336004820152306024820152604481018390529192506001600160a01b0316906323b872dd906064016020604051808303816000875af1158015610650573d6000803e3d6000fd5b505050506040513d601f19601f820116820180604052508101906106749190610c30565b5060015460405163a9059cbb60e01b8152336004820152602481018490526001600160a01b039091169063a9059cbb906044016020604051808303816000875af11580156106c6573d6000803e3d6000fd5b505050506040513d601f19601f820116820180604052508101906106ea9190610c30565b50604051819083907e22984ba8a5aac6f326a7850fb08b1f1ddfc0a9a809be97d6138a6d1694023090600090a35050565b610723610a68565b61072d6000610ac2565b565b6001546040516370a0823160e01b815230600482015282916001600160a01b0316906370a0823190602401602060405180830381865afa158015610777573d6000803e3d6000fd5b505050506040513d601f19601f8201168201806040525081019061079b9190610be2565b10156107b95760405162461bcd60e51b815260040161030f90610bfb565b6000670de0b6b3a7640000826004546107d29190610b93565b6107dc9190610bc0565b6003546040516323b872dd60e01b8152336004820152306024820152604481018390529192506001600160a01b0316906323b872dd906064016020604051808303816000875af1158015610834573d6000803e3d6000fd5b505050506040513d601f19601f820116820180604052508101906108589190610c30565b5060015460405163a9059cbb60e01b8152336004820152602481018490526001600160a01b039091169063a9059cbb906044016020604051808303816000875af11580156108aa573d6000803e3d6000fd5b505050506040513d601f19601f820116820180604052508101906108ce9190610c30565b50604051819083907f0a1081394265cff1f7b24996730fcf267bb1ab5d328e7060c688d1c582aa7da390600090a35050565b610908610a68565b600481905560405181907f267c5d6373c1ee1a2a235a618ca7bb122c9ad7ca6e81191f2dcd8391c9839bf090600090a250565b610943610a68565b6001600160a01b0381166109a85760405162461bcd60e51b815260206004820152602660248201527f4f776e61626c653a206e6577206f776e657220697320746865207a65726f206160448201526564647265737360d01b606482015260840161030f565b6109b181610ac2565b50565b6109bc610a68565b60405163a9059cbb60e01b8152336004820152602481018290526001600160a01b0383169063a9059cbb906044016020604051808303816000875af1158015610a09573d6000803e3d6000fd5b505050506040513d601f19601f82011682018060405250810190610a2d9190610c30565b5060405181906001600160a01b038416907f884edad9ce6fa2440d8a54cc123490eb96d2768479d49ff9c7366125a942436490600090a35050565b6000546001600160a01b0316331461072d5760405162461bcd60e51b815260206004820181905260248201527f4f776e61626c653a2063616c6c6572206973206e6f7420746865206f776e6572604482015260640161030f565b600080546001600160a01b038381166001600160a01b0319831681178455604051919092169283917f8be0079c531659141344cd1fd0a4f28419497f9722a3daafe3b4186f6b6457e09190a35050565b600060208284031215610b2457600080fd5b5035919050565b80356001600160a01b0381168114610b4257600080fd5b919050565b600060208284031215610b5957600080fd5b610b6282610b2b565b9392505050565b60008060408385031215610b7c57600080fd5b610b8583610b2b565b946020939093013593505050565b6000816000190483118215151615610bbb57634e487b7160e01b600052601160045260246000fd5b500290565b600082610bdd57634e487b7160e01b600052601260045260246000fd5b500490565b600060208284031215610bf457600080fd5b5051919050565b6020808252818101527f696e73756666696369656e7420424c4220696e2074686520636f6e7472616374604082015260600190565b600060208284031215610c4257600080fd5b81518015158114610b6257600080fdfea2646970667358221220d1a1277d7d2b9a203eec3122230d37d01921ac0807785fc892cf67a5829bb19e64736f6c634300080f0033",
  "linkReferences": {},
  "deployedLinkReferences": {}
}