{
  "_format": "hh-sol-artifact-1",
  "contractName": "BLBIO",
  "sourceName": "contracts/BLBIO/BLBIO.sol",
  "abi": [
    {
      "inputs": [
        {
          "internalType": "address",
          "name": "_BLBAddr",
          "type": "address"
        },
        {
          "internalType": "address",
          "name": "_BUSDAddr",
          "type": "address"
        },
        {
          "internalType": "address",
          "name": "_AGGREGATORAddr",
          "type": "address"
        },
        {
          "internalType": "uint256",
          "name": "_publicBLBsPerUSD",
          "type": "uint256"
        },
        {
          "internalType": "uint256",
          "name": "_privateBLBsPerUSD",
          "type": "uint256"
        },
        {
          "internalType": "uint256",
          "name": "_retailLimitUSD",
          "type": "uint256"
        },
        {
          "internalType": "uint256",
          "name": "_minUSDLimit",
          "type": "uint256"
        }
      ],
      "stateMutability": "nonpayable",
      "type": "constructor"
    },
    {
      "anonymous": false,
      "inputs": [
        {
          "indexed": true,
          "internalType": "address",
          "name": "claimant",
          "type": "address"
        },
        {
          "indexed": false,
          "internalType": "uint256",
          "name": "amountBLB",
          "type": "uint256"
        }
      ],
      "name": "Claim",
      "type": "event"
    },
    {
      "anonymous": false,
      "inputs": [
        {
          "indexed": true,
          "internalType": "address",
          "name": "previousOwner",
          "type": "address"
        },
        {
          "indexed": true,
          "internalType": "address",
          "name": "newOwner",
          "type": "address"
        }
      ],
      "name": "OwnershipTransferred",
      "type": "event"
    },
    {
      "anonymous": false,
      "inputs": [
        {
          "indexed": true,
          "internalType": "address",
          "name": "purchaser",
          "type": "address"
        },
        {
          "indexed": true,
          "internalType": "string",
          "name": "tokenPaid",
          "type": "string"
        },
        {
          "indexed": false,
          "internalType": "uint256",
          "name": "amountPaid",
          "type": "uint256"
        },
        {
          "indexed": false,
          "internalType": "uint256",
          "name": "amountBLB",
          "type": "uint256"
        }
      ],
      "name": "Purchase",
      "type": "event"
    },
    {
      "anonymous": false,
      "inputs": [
        {
          "indexed": true,
          "internalType": "uint256",
          "name": "publicBLBsAmount",
          "type": "uint256"
        },
        {
          "indexed": true,
          "internalType": "uint256",
          "name": "privateBLBsAmount",
          "type": "uint256"
        }
      ],
      "name": "SetBLBsPerUSD",
      "type": "event"
    },
    {
      "anonymous": false,
      "inputs": [
        {
          "indexed": true,
          "internalType": "uint256",
          "name": "_minAmountUSD",
          "type": "uint256"
        }
      ],
      "name": "SetMinUSDLimit",
      "type": "event"
    },
    {
      "anonymous": false,
      "inputs": [
        {
          "indexed": true,
          "internalType": "uint256",
          "name": "_retailLimit",
          "type": "uint256"
        }
      ],
      "name": "SetRetailLimit",
      "type": "event"
    },
    {
      "anonymous": false,
      "inputs": [
        {
          "indexed": false,
          "internalType": "bool",
          "name": "situation",
          "type": "bool"
        }
      ],
      "name": "SoldOut",
      "type": "event"
    },
    {
      "anonymous": false,
      "inputs": [
        {
          "indexed": true,
          "internalType": "string",
          "name": "tokenName",
          "type": "string"
        },
        {
          "indexed": false,
          "internalType": "uint256",
          "name": "amount",
          "type": "uint256"
        }
      ],
      "name": "Withdraw",
      "type": "event"
    },
    {
      "inputs": [],
      "name": "BLB",
      "outputs": [
        {
          "internalType": "contract IERC20",
          "name": "",
          "type": "address"
        }
      ],
      "stateMutability": "view",
      "type": "function"
    },
    {
      "inputs": [
        {
          "internalType": "uint256",
          "name": "amountBNB",
          "type": "uint256"
        }
      ],
      "name": "BLBsForBNB",
      "outputs": [
        {
          "internalType": "uint256",
          "name": "",
          "type": "uint256"
        }
      ],
      "stateMutability": "view",
      "type": "function"
    },
    {
      "inputs": [
        {
          "internalType": "uint256",
          "name": "amountBUSD",
          "type": "uint256"
        }
      ],
      "name": "BLBsForUSD",
      "outputs": [
        {
          "internalType": "uint256",
          "name": "",
          "type": "uint256"
        }
      ],
      "stateMutability": "view",
      "type": "function"
    },
    {
      "inputs": [],
      "name": "BUSD",
      "outputs": [
        {
          "internalType": "contract IERC20",
          "name": "",
          "type": "address"
        }
      ],
      "stateMutability": "view",
      "type": "function"
    },
    {
      "inputs": [],
      "name": "TotalClaimable",
      "outputs": [
        {
          "internalType": "uint256",
          "name": "",
          "type": "uint256"
        }
      ],
      "stateMutability": "view",
      "type": "function"
    },
    {
      "inputs": [],
      "name": "blbBalance",
      "outputs": [
        {
          "internalType": "uint256",
          "name": "",
          "type": "uint256"
        }
      ],
      "stateMutability": "view",
      "type": "function"
    },
    {
      "inputs": [],
      "name": "bnbBalance",
      "outputs": [
        {
          "internalType": "uint256",
          "name": "",
          "type": "uint256"
        }
      ],
      "stateMutability": "view",
      "type": "function"
    },
    {
      "inputs": [],
      "name": "busdBalance",
      "outputs": [
        {
          "internalType": "uint256",
          "name": "",
          "type": "uint256"
        }
      ],
      "stateMutability": "view",
      "type": "function"
    },
    {
      "inputs": [],
      "name": "claim",
      "outputs": [],
      "stateMutability": "nonpayable",
      "type": "function"
    },
    {
      "inputs": [
        {
          "internalType": "address",
          "name": "claimant",
          "type": "address"
        }
      ],
      "name": "claimable",
      "outputs": [
        {
          "internalType": "uint256",
          "name": "",
          "type": "uint256"
        }
      ],
      "stateMutability": "view",
      "type": "function"
    },
    {
      "inputs": [],
      "name": "claimableFraction",
      "outputs": [
        {
          "internalType": "uint256",
          "name": "",
          "type": "uint256"
        }
      ],
      "stateMutability": "view",
      "type": "function"
    },
    {
      "inputs": [
        {
          "internalType": "address",
          "name": "addr",
          "type": "address"
        },
        {
          "internalType": "uint256",
          "name": "amount",
          "type": "uint256"
        },
        {
          "internalType": "bool",
          "name": "freeToClaim",
          "type": "bool"
        }
      ],
      "name": "giftBLB",
      "outputs": [],
      "stateMutability": "nonpayable",
      "type": "function"
    },
    {
      "inputs": [
        {
          "internalType": "uint256",
          "name": "fraction",
          "type": "uint256"
        }
      ],
      "name": "increaseClaimableFraction",
      "outputs": [],
      "stateMutability": "nonpayable",
      "type": "function"
    },
    {
      "inputs": [],
      "name": "minUSDLimit",
      "outputs": [
        {
          "internalType": "uint256",
          "name": "",
          "type": "uint256"
        }
      ],
      "stateMutability": "view",
      "type": "function"
    },
    {
      "inputs": [],
      "name": "owner",
      "outputs": [
        {
          "internalType": "address",
          "name": "",
          "type": "address"
        }
      ],
      "stateMutability": "view",
      "type": "function"
    },
    {
      "inputs": [],
      "name": "priceBNB",
      "outputs": [
        {
          "internalType": "uint256",
          "name": "",
          "type": "uint256"
        }
      ],
      "stateMutability": "view",
      "type": "function"
    },
    {
      "inputs": [],
      "name": "privateBLBsPerUSD",
      "outputs": [
        {
          "internalType": "uint256",
          "name": "",
          "type": "uint256"
        }
      ],
      "stateMutability": "view",
      "type": "function"
    },
    {
      "inputs": [],
      "name": "publicBLBsPerUSD",
      "outputs": [
        {
          "internalType": "uint256",
          "name": "",
          "type": "uint256"
        }
      ],
      "stateMutability": "view",
      "type": "function"
    },
    {
      "inputs": [],
      "name": "purchaseInBNB",
      "outputs": [],
      "stateMutability": "payable",
      "type": "function"
    },
    {
      "inputs": [
        {
          "internalType": "uint256",
          "name": "amountBUSD",
          "type": "uint256"
        }
      ],
      "name": "purchaseInBUSD",
      "outputs": [],
      "stateMutability": "nonpayable",
      "type": "function"
    },
    {
      "inputs": [],
      "name": "renounceOwnership",
      "outputs": [],
      "stateMutability": "nonpayable",
      "type": "function"
    },
    {
      "inputs": [],
      "name": "retailLimit",
      "outputs": [
        {
          "internalType": "uint256",
          "name": "",
          "type": "uint256"
        }
      ],
      "stateMutability": "view",
      "type": "function"
    },
    {
      "inputs": [
        {
          "internalType": "uint256",
          "name": "publiceBLBsAmount",
          "type": "uint256"
        },
        {
          "internalType": "uint256",
          "name": "privateBLBsAmount",
          "type": "uint256"
        }
      ],
      "name": "setBLBsPerUSD",
      "outputs": [],
      "stateMutability": "nonpayable",
      "type": "function"
    },
    {
      "inputs": [
        {
          "internalType": "uint256",
          "name": "amountUSD",
          "type": "uint256"
        }
      ],
      "name": "setMinUSDLimit",
      "outputs": [],
      "stateMutability": "nonpayable",
      "type": "function"
    },
    {
      "inputs": [
        {
          "internalType": "uint256",
          "name": "amountUSD",
          "type": "uint256"
        }
      ],
      "name": "setRetailLimit",
      "outputs": [],
      "stateMutability": "nonpayable",
      "type": "function"
    },
    {
      "inputs": [],
      "name": "setSoldOut",
      "outputs": [],
      "stateMutability": "nonpayable",
      "type": "function"
    },
    {
      "inputs": [],
      "name": "soldOut",
      "outputs": [
        {
          "internalType": "bool",
          "name": "",
          "type": "bool"
        }
      ],
      "stateMutability": "view",
      "type": "function"
    },
    {
      "inputs": [
        {
          "internalType": "address",
          "name": "claimant",
          "type": "address"
        }
      ],
      "name": "totalClaimable",
      "outputs": [
        {
          "internalType": "uint256",
          "name": "",
          "type": "uint256"
        }
      ],
      "stateMutability": "view",
      "type": "function"
    },
    {
      "inputs": [
        {
          "internalType": "address",
          "name": "newOwner",
          "type": "address"
        }
      ],
      "name": "transferOwnership",
      "outputs": [],
      "stateMutability": "nonpayable",
      "type": "function"
    },
    {
      "inputs": [
        {
          "internalType": "uint256",
          "name": "amount",
          "type": "uint256"
        }
      ],
      "name": "withdrawBLB",
      "outputs": [],
      "stateMutability": "nonpayable",
      "type": "function"
    },
    {
      "inputs": [
        {
          "internalType": "uint256",
          "name": "amount",
          "type": "uint256"
        }
      ],
      "name": "withdrawBNB",
      "outputs": [],
      "stateMutability": "nonpayable",
      "type": "function"
    },
    {
      "inputs": [
        {
          "internalType": "uint256",
          "name": "amount",
          "type": "uint256"
        }
      ],
      "name": "withdrawBUSD",
      "outputs": [],
      "stateMutability": "nonpayable",
      "type": "function"
    }
  ],
  "bytecode": "0x60a06040523480156200001157600080fd5b5060405162001811380380620018118339810160408190526200003491620002c2565b6200003f33620000a1565b600780546001600160a01b03808a166001600160a01b03199283161790925560088054898416921691909117905585166080526200007e8484620000f1565b6200008982620001cd565b62000094816200020a565b5050505050505062000333565b600080546001600160a01b038381166001600160a01b0319831681178455604051919092169283917f8be0079c531659141344cd1fd0a4f28419497f9722a3daafe3b4186f6b6457e09190a35050565b620000fb62000247565b80821115620001925760405162461bcd60e51b815260206004820152605260248201527f424c42494f41646d696e697374726174696f6e3a207072697661746520616d6f60448201527f756e74206d7573742062652067726561746572207468616e206f7220657175616064820152711b081d1bc81c1d589b1a58c8185b5bdd5b9d60721b608482015260a4015b60405180910390fd5b60018290556002819055604051819083907f7265992886306009eee65b4e4dde87d78f812dd7e571200c26b2516940938ccd90600090a35050565b620001d762000247565b600381905560405181907f8585f06828ed2d9126b998a9d431d18854350c2d883a903f957b1f6e77f6ca2490600090a250565b6200021462000247565b600481905560405181907f804645afd4337b278832507209786ceb0ac8a6704326f397210a12287e73b86390600090a250565b6000546001600160a01b03163314620002a35760405162461bcd60e51b815260206004820181905260248201527f4f776e61626c653a2063616c6c6572206973206e6f7420746865206f776e6572604482015260640162000189565b565b80516001600160a01b0381168114620002bd57600080fd5b919050565b600080600080600080600060e0888a031215620002de57600080fd5b620002e988620002a5565b9650620002f960208901620002a5565b95506200030960408901620002a5565b9450606088015193506080880151925060a0880151915060c0880151905092959891949750929550565b6080516114c26200034f6000396000610c6d01526114c26000f3fe6080604052600436106101e35760003560e01c8063893da6c911610102578063c9e3c9c711610095578063d013cbe211610064578063d013cbe214610524578063dc39ca7a14610537578063e00115f61461054c578063f2fde38b1461056157600080fd5b8063c9e3c9c7146104a4578063cc205db3146104c4578063cc3bcaf3146104e4578063ce9d3b091461050457600080fd5b8063bc07d85c116100d1578063bc07d85c14610439578063be5be21114610459578063bfa54b3f1461046e578063c91d23e71461048e57600080fd5b8063893da6c9146103bf5780638da5cb5b146103f0578063a8f70d0f1461040e578063b1479b7f1461042357600080fd5b8063484f4ea91161017a578063715018a611610149578063715018a61461036c578063790b284f146103815780637f04e0e11461039757806384d30eaa146103b757600080fd5b8063484f4ea9146102df5780634e71d92d146103175780635b0dfa951461032c5780635fd033311461034c57600080fd5b80631dfce5c6116101b65780631dfce5c6146102695780632acbaea514610289578063402914f5146102a95780634426a263146102c957600080fd5b80630b8c6e29146101e8578063127f4b2e1461020a578063158b072c1461022a578063192ab18614610253575b600080fd5b3480156101f457600080fd5b50610208610203366004611321565b610581565b005b34801561021657600080fd5b50610208610225366004611321565b6105bc565b34801561023657600080fd5b5061024060055481565b6040519081526020015b60405180910390f35b34801561025f57600080fd5b5061024060045481565b34801561027557600080fd5b50610240610284366004611356565b61064b565b34801561029557600080fd5b506102086102a4366004611371565b61067b565b3480156102b557600080fd5b506102406102c4366004611356565b610754565b3480156102d557600080fd5b5061024060065481565b3480156102eb57600080fd5b506008546102ff906001600160a01b031681565b6040516001600160a01b03909116815260200161024a565b34801561032357600080fd5b506102086107ae565b34801561033857600080fd5b50610208610347366004611321565b6109bc565b34801561035857600080fd5b50610240610367366004611321565b6109f7565b34801561037857600080fd5b50610208610a71565b34801561038d57600080fd5b5061024060035481565b3480156103a357600080fd5b506102086103b2366004611321565b610a85565b610208610b36565b3480156103cb57600080fd5b506008546103e090600160a01b900460ff1681565b604051901515815260200161024a565b3480156103fc57600080fd5b506000546001600160a01b03166102ff565b34801561041a57600080fd5b50610240610c69565b34801561042f57600080fd5b5061024060025481565b34801561044557600080fd5b50610240610454366004611321565b610cf2565b34801561046557600080fd5b50610208610d79565b34801561047a57600080fd5b506007546102ff906001600160a01b031681565b34801561049a57600080fd5b5061024060015481565b3480156104b057600080fd5b506102086104bf3660046113a1565b610df6565b3480156104d057600080fd5b506102086104df366004611321565b610ec2565b3480156104f057600080fd5b506102086104ff366004611321565b61104a565b34801561051057600080fd5b5061020861051f366004611321565b6110fc565b34801561053057600080fd5b5047610240565b34801561054357600080fd5b50610240611186565b34801561055857600080fd5b506102406111d0565b34801561056d57600080fd5b5061020861057c366004611356565b611201565b610589611277565b600481905560405181907f804645afd4337b278832507209786ceb0ac8a6704326f397210a12287e73b86390600090a250565b6105c4611277565b600080546040516001600160a01b039091169183156108fc02918491818181858888f193505050501580156105fd573d6000803e3d6000fd5b506040516221272160e91b81526003015b604051908190038120828252907ffd950f75bf83187106ca979032c87af4e8bedbeff7455cba6df787f978267f299060200160405180910390a250565b6001600160a01b03811660009081526009602052604081206001810154815461067491906113f7565b9392505050565b610683611277565b808211156107195760405162461bcd60e51b815260206004820152605260248201527f424c42494f41646d696e697374726174696f6e3a207072697661746520616d6f60448201527f756e74206d7573742062652067726561746572207468616e206f7220657175616064820152711b081d1bc81c1d589b1a58c8185b5bdd5b9d60721b608482015260a4015b60405180910390fd5b60018290556002819055604051819083907f7265992886306009eee65b4e4dde87d78f812dd7e571200c26b2516940938ccd90600090a35050565b6001600160a01b0381166000908152600960205260408120600281015460ff1615610782576106748361064b565b60018101546005548254620f42409161079a9161140a565b6107a49190611421565b61067491906113f7565b336000818152600960205260408120906107c783610754565b9050806000036108195760405162461bcd60e51b815260206004820152601f60248201527f424c42494f3a207468657265206973206e6f20424c4220746f20636c61696d006044820152606401610710565b6007546040516370a0823160e01b815230600482015282916001600160a01b0316906370a0823190602401602060405180830381865afa158015610861573d6000803e3d6000fd5b505050506040513d601f19601f820116820180604052508101906108859190611443565b10156108e35760405162461bcd60e51b815260206004820152602760248201527f424c42494f3a20696e73756666696369656e7420424c4220696e2074686520636044820152661bdb9d1c9858dd60ca1b6064820152608401610710565b808260010160008282546108f7919061145c565b909155505060075460405163a9059cbb60e01b81526001600160a01b038581166004830152602482018490529091169063a9059cbb906044016020604051808303816000875af115801561094f573d6000803e3d6000fd5b505050506040513d601f19601f82011682018060405250810190610973919061146f565b50826001600160a01b03167f47cee97cb7acd717b3c0aa1435d004cd5b3c8c57d70dbceb4e4458bbd60e39d4826040516109af91815260200190565b60405180910390a2505050565b6109c4611277565b600381905560405181907f8585f06828ed2d9126b998a9d431d18854350c2d883a903f957b1f6e77f6ca2490600090a250565b600854600090600160a01b900460ff1615610a475760405162461bcd60e51b815260206004820152601060248201526f424c42494f3a20736f6c64206f75742160801b6044820152606401610710565b610a6b6305f5e100610a57610c69565b610a61908561140a565b6104549190611421565b92915050565b610a79611277565b610a8360006112d1565b565b610a8d611277565b6007546001600160a01b031663a9059cbb610ab06000546001600160a01b031690565b6040516001600160e01b031960e084901b1681526001600160a01b039091166004820152602481018490526044016020604051808303816000875af1158015610afd573d6000803e3d6000fd5b505050506040513d601f19601f82011682018060405250810190610b21919061146f565b506040516221262160e91b815260030161060e565b33346000610b43826109f7565b90506004546305f5e100610b55610c69565b610b5f908561140a565b610b699190611421565b1015610bc35760405162461bcd60e51b815260206004820152602360248201527f424c42494f3a206c657373207468616e206d696e696d756d20616d6f756e742060448201526221272160e91b6064820152608401610710565b6001600160a01b03831660009081526009602052604081208054839290610beb90849061145c565b925050819055508060066000828254610c04919061145c565b90915550506040516221272160e91b81526003016040805191829003822084835260208301849052916001600160a01b038616917facd81379883abf90827a751c8100bec3c4d1f66dbba0f8f8b412a049f0a03d7091015b60405180910390a3505050565b60007f00000000000000000000000000000000000000000000000000000000000000006001600160a01b03166350d25bcd6040518163ffffffff1660e01b8152600401602060405180830381865afa158015610cc9573d6000803e3d6000fd5b505050506040513d601f19601f82011682018060405250810190610ced9190611443565b905090565b600854600090600160a01b900460ff1615610d425760405162461bcd60e51b815260206004820152601060248201526f424c42494f3a20736f6c64206f75742160801b6044820152606401610710565b6000600354831015610d5657600154610d5a565b6002545b9050670de0b6b3a7640000610d6f848361140a565b6106749190611421565b610d81611277565b600854600160a01b900460ff16610d99576001610d9c565b60005b6008805460ff60a01b1916600160a01b9215158302179081905560405160ff9290910491909116151581527f0a3cfaceb3e57ff8026ea1ea844ce08ca4b74964e184e542ea2ab22605e34f629060200160405180910390a1565b610dfe611277565b6001600160a01b03831660009081526009602052604081208054849290610e2690849061145c565b90915550506001600160a01b0383166000908152600960205260408120600201805460ff191683151517905560068054849290610e6490849061145c565b90915550506040516319da599d60e21b8152600401604080519182900382206000835260208301859052916001600160a01b038616917facd81379883abf90827a751c8100bec3c4d1f66dbba0f8f8b412a049f0a03d709101610c5c565b600454811015610f205760405162461bcd60e51b8152602060048201526024808201527f424c42494f3a206c657373207468616e206d696e696d756d20616d6f756e7420604482015263109554d160e21b6064820152608401610710565b336000610f2c83610cf2565b6008546040516323b872dd60e01b81526001600160a01b038581166004830152306024830152604482018790529293509116906323b872dd906064016020604051808303816000875af1158015610f87573d6000803e3d6000fd5b505050506040513d601f19601f82011682018060405250810190610fab919061146f565b506001600160a01b03821660009081526009602052604081208054839290610fd490849061145c565b925050819055508060066000828254610fed919061145c565b909155505060405163109554d160e21b81526004016040805191829003822085835260208301849052916001600160a01b038516917facd81379883abf90827a751c8100bec3c4d1f66dbba0f8f8b412a049f0a03d709101610c5c565b611052611277565b6008546001600160a01b031663a9059cbb6110756000546001600160a01b031690565b6040516001600160e01b031960e084901b1681526001600160a01b039091166004820152602481018490526044016020604051808303816000875af11580156110c2573d6000803e3d6000fd5b505050506040513d601f19601f820116820180604052508101906110e6919061146f565b5060405163109554d160e21b815260040161060e565b611104611277565b8060056000828254611116919061145c565b9091555050600554620f424010156111835760405162461bcd60e51b815260206004820152602a60248201527f424c42494f41646d696e697374726174696f6e3a206672616374696f6e20657860448201526931b2b2b2399018982f1b60b11b6064820152608401610710565b50565b6008546040516370a0823160e01b81523060048201526000916001600160a01b0316906370a08231906024015b602060405180830381865afa158015610cc9573d6000803e3d6000fd5b6007546040516370a0823160e01b81523060048201526000916001600160a01b0316906370a08231906024016111b3565b611209611277565b6001600160a01b03811661126e5760405162461bcd60e51b815260206004820152602660248201527f4f776e61626c653a206e6577206f776e657220697320746865207a65726f206160448201526564647265737360d01b6064820152608401610710565b611183816112d1565b6000546001600160a01b03163314610a835760405162461bcd60e51b815260206004820181905260248201527f4f776e61626c653a2063616c6c6572206973206e6f7420746865206f776e65726044820152606401610710565b600080546001600160a01b038381166001600160a01b0319831681178455604051919092169283917f8be0079c531659141344cd1fd0a4f28419497f9722a3daafe3b4186f6b6457e09190a35050565b60006020828403121561133357600080fd5b5035919050565b80356001600160a01b038116811461135157600080fd5b919050565b60006020828403121561136857600080fd5b6106748261133a565b6000806040838503121561138457600080fd5b50508035926020909101359150565b801515811461118357600080fd5b6000806000606084860312156113b657600080fd5b6113bf8461133a565b92506020840135915060408401356113d681611393565b809150509250925092565b634e487b7160e01b600052601160045260246000fd5b81810381811115610a6b57610a6b6113e1565b8082028115828204841417610a6b57610a6b6113e1565b60008261143e57634e487b7160e01b600052601260045260246000fd5b500490565b60006020828403121561145557600080fd5b5051919050565b80820180821115610a6b57610a6b6113e1565b60006020828403121561148157600080fd5b81516106748161139356fea2646970667358221220ce6b3fb5baabe705ae282d8fbe58507729f1d80319c7228a09da5f6a43db991464736f6c63430008110033",
  "linkReferences": {},
  "deployedLinkReferences": {}
}