{
  "_format": "hh-sol-artifact-1",
  "contractName": "BLBIO",
  "sourceName": "contracts/BLBIO/BLBIO.sol",
  "abi": [
    {
      "inputs": [
        {
          "internalType": "address",
          "name": "_BLBAddr",
          "type": "address"
        },
        {
          "internalType": "address",
          "name": "_BUSDAddr",
          "type": "address"
        },
        {
          "internalType": "address",
          "name": "_AGGREGATORAddr",
          "type": "address"
        }
      ],
      "stateMutability": "nonpayable",
      "type": "constructor"
    },
    {
      "anonymous": false,
      "inputs": [
        {
          "indexed": true,
          "internalType": "address",
          "name": "claimant",
          "type": "address"
        },
        {
          "indexed": false,
          "internalType": "uint256",
          "name": "amountBLB",
          "type": "uint256"
        }
      ],
      "name": "Claim",
      "type": "event"
    },
    {
      "anonymous": false,
      "inputs": [
        {
          "indexed": true,
          "internalType": "address",
          "name": "previousOwner",
          "type": "address"
        },
        {
          "indexed": true,
          "internalType": "address",
          "name": "newOwner",
          "type": "address"
        }
      ],
      "name": "OwnershipTransferred",
      "type": "event"
    },
    {
      "anonymous": false,
      "inputs": [
        {
          "indexed": true,
          "internalType": "address",
          "name": "purchaser",
          "type": "address"
        },
        {
          "indexed": true,
          "internalType": "string",
          "name": "tokenPaid",
          "type": "string"
        },
        {
          "indexed": false,
          "internalType": "uint256",
          "name": "amountPaid",
          "type": "uint256"
        },
        {
          "indexed": false,
          "internalType": "uint256",
          "name": "amountBLB",
          "type": "uint256"
        }
      ],
      "name": "Purchase",
      "type": "event"
    },
    {
      "anonymous": false,
      "inputs": [
        {
          "indexed": true,
          "internalType": "uint256",
          "name": "publicPrice",
          "type": "uint256"
        },
        {
          "indexed": true,
          "internalType": "uint256",
          "name": "privatePrice",
          "type": "uint256"
        }
      ],
      "name": "SetPriceInUSD",
      "type": "event"
    },
    {
      "anonymous": false,
      "inputs": [
        {
          "indexed": true,
          "internalType": "uint256",
          "name": "_retailLimit",
          "type": "uint256"
        }
      ],
      "name": "SetRetailLimit",
      "type": "event"
    },
    {
      "anonymous": false,
      "inputs": [
        {
          "indexed": false,
          "internalType": "bool",
          "name": "situation",
          "type": "bool"
        }
      ],
      "name": "SoldOut",
      "type": "event"
    },
    {
      "anonymous": false,
      "inputs": [
        {
          "indexed": true,
          "internalType": "string",
          "name": "tokenName",
          "type": "string"
        },
        {
          "indexed": false,
          "internalType": "uint256",
          "name": "amount",
          "type": "uint256"
        }
      ],
      "name": "Withdraw",
      "type": "event"
    },
    {
      "inputs": [],
      "name": "BLB",
      "outputs": [
        {
          "internalType": "contract IERC20",
          "name": "",
          "type": "address"
        }
      ],
      "stateMutability": "view",
      "type": "function"
    },
    {
      "inputs": [],
      "name": "BUSD",
      "outputs": [
        {
          "internalType": "contract IERC20",
          "name": "",
          "type": "address"
        }
      ],
      "stateMutability": "view",
      "type": "function"
    },
    {
      "inputs": [],
      "name": "TotalClaimable",
      "outputs": [
        {
          "internalType": "uint256",
          "name": "",
          "type": "uint256"
        }
      ],
      "stateMutability": "view",
      "type": "function"
    },
    {
      "inputs": [],
      "name": "blbBalance",
      "outputs": [
        {
          "internalType": "uint256",
          "name": "",
          "type": "uint256"
        }
      ],
      "stateMutability": "view",
      "type": "function"
    },
    {
      "inputs": [],
      "name": "bnbBalance",
      "outputs": [
        {
          "internalType": "uint256",
          "name": "",
          "type": "uint256"
        }
      ],
      "stateMutability": "view",
      "type": "function"
    },
    {
      "inputs": [],
      "name": "busdBalance",
      "outputs": [
        {
          "internalType": "uint256",
          "name": "",
          "type": "uint256"
        }
      ],
      "stateMutability": "view",
      "type": "function"
    },
    {
      "inputs": [],
      "name": "claim",
      "outputs": [],
      "stateMutability": "nonpayable",
      "type": "function"
    },
    {
      "inputs": [
        {
          "internalType": "address",
          "name": "claimant",
          "type": "address"
        }
      ],
      "name": "claimable",
      "outputs": [
        {
          "internalType": "uint256",
          "name": "",
          "type": "uint256"
        }
      ],
      "stateMutability": "view",
      "type": "function"
    },
    {
      "inputs": [],
      "name": "claimableFraction",
      "outputs": [
        {
          "internalType": "uint256",
          "name": "",
          "type": "uint256"
        }
      ],
      "stateMutability": "view",
      "type": "function"
    },
    {
      "inputs": [
        {
          "internalType": "address",
          "name": "addr",
          "type": "address"
        },
        {
          "internalType": "uint256",
          "name": "amount",
          "type": "uint256"
        },
        {
          "internalType": "bool",
          "name": "freeToClaim",
          "type": "bool"
        }
      ],
      "name": "giftBLB",
      "outputs": [],
      "stateMutability": "nonpayable",
      "type": "function"
    },
    {
      "inputs": [
        {
          "internalType": "uint256",
          "name": "fraction",
          "type": "uint256"
        }
      ],
      "name": "increaseClaimableFraction",
      "outputs": [],
      "stateMutability": "nonpayable",
      "type": "function"
    },
    {
      "inputs": [],
      "name": "owner",
      "outputs": [
        {
          "internalType": "address",
          "name": "",
          "type": "address"
        }
      ],
      "stateMutability": "view",
      "type": "function"
    },
    {
      "inputs": [
        {
          "internalType": "uint256",
          "name": "amount",
          "type": "uint256"
        }
      ],
      "name": "priceInBNB",
      "outputs": [
        {
          "internalType": "uint256",
          "name": "",
          "type": "uint256"
        }
      ],
      "stateMutability": "view",
      "type": "function"
    },
    {
      "inputs": [
        {
          "internalType": "uint256",
          "name": "amount",
          "type": "uint256"
        }
      ],
      "name": "priceInUSD",
      "outputs": [
        {
          "internalType": "uint256",
          "name": "",
          "type": "uint256"
        }
      ],
      "stateMutability": "view",
      "type": "function"
    },
    {
      "inputs": [],
      "name": "privatePriceInUSD",
      "outputs": [
        {
          "internalType": "uint256",
          "name": "",
          "type": "uint256"
        }
      ],
      "stateMutability": "view",
      "type": "function"
    },
    {
      "inputs": [],
      "name": "publicPriceInUSD",
      "outputs": [
        {
          "internalType": "uint256",
          "name": "",
          "type": "uint256"
        }
      ],
      "stateMutability": "view",
      "type": "function"
    },
    {
      "inputs": [
        {
          "internalType": "uint256",
          "name": "amount",
          "type": "uint256"
        }
      ],
      "name": "purchaseInBNB",
      "outputs": [],
      "stateMutability": "payable",
      "type": "function"
    },
    {
      "inputs": [
        {
          "internalType": "uint256",
          "name": "amount",
          "type": "uint256"
        }
      ],
      "name": "purchaseInBUSD",
      "outputs": [],
      "stateMutability": "nonpayable",
      "type": "function"
    },
    {
      "inputs": [],
      "name": "renounceOwnership",
      "outputs": [],
      "stateMutability": "nonpayable",
      "type": "function"
    },
    {
      "inputs": [],
      "name": "retailLimit",
      "outputs": [
        {
          "internalType": "uint256",
          "name": "",
          "type": "uint256"
        }
      ],
      "stateMutability": "view",
      "type": "function"
    },
    {
      "inputs": [
        {
          "internalType": "uint256",
          "name": "_publicPrice",
          "type": "uint256"
        },
        {
          "internalType": "uint256",
          "name": "_privatePrice",
          "type": "uint256"
        }
      ],
      "name": "setPriceInUSD",
      "outputs": [],
      "stateMutability": "nonpayable",
      "type": "function"
    },
    {
      "inputs": [
        {
          "internalType": "uint256",
          "name": "_retailLimit",
          "type": "uint256"
        }
      ],
      "name": "setRetailLimit",
      "outputs": [],
      "stateMutability": "nonpayable",
      "type": "function"
    },
    {
      "inputs": [],
      "name": "setSoldOut",
      "outputs": [],
      "stateMutability": "nonpayable",
      "type": "function"
    },
    {
      "inputs": [],
      "name": "soldOut",
      "outputs": [
        {
          "internalType": "bool",
          "name": "",
          "type": "bool"
        }
      ],
      "stateMutability": "view",
      "type": "function"
    },
    {
      "inputs": [
        {
          "internalType": "address",
          "name": "claimant",
          "type": "address"
        }
      ],
      "name": "totalClaimable",
      "outputs": [
        {
          "internalType": "uint256",
          "name": "",
          "type": "uint256"
        }
      ],
      "stateMutability": "view",
      "type": "function"
    },
    {
      "inputs": [
        {
          "internalType": "address",
          "name": "newOwner",
          "type": "address"
        }
      ],
      "name": "transferOwnership",
      "outputs": [],
      "stateMutability": "nonpayable",
      "type": "function"
    },
    {
      "inputs": [
        {
          "internalType": "uint256",
          "name": "amount",
          "type": "uint256"
        }
      ],
      "name": "withdrawBLB",
      "outputs": [],
      "stateMutability": "nonpayable",
      "type": "function"
    },
    {
      "inputs": [
        {
          "internalType": "uint256",
          "name": "amount",
          "type": "uint256"
        }
      ],
      "name": "withdrawBNB",
      "outputs": [],
      "stateMutability": "nonpayable",
      "type": "function"
    },
    {
      "inputs": [
        {
          "internalType": "uint256",
          "name": "amount",
          "type": "uint256"
        }
      ],
      "name": "withdrawBUSD",
      "outputs": [],
      "stateMutability": "nonpayable",
      "type": "function"
    }
  ],
  "bytecode": "0x60a06040523480156200001157600080fd5b5060405162001572380380620015728339810160408190526200003491620001fb565b6200003f33620000ab565b600680546001600160a01b038086166001600160a01b03199283161790925560078054858416921691909117905581166080526200008e670429d069189e00006703e2c284391c0000620000fb565b620000a2681b1ae4d6e2ef50000062000140565b50505062000245565b600080546001600160a01b038381166001600160a01b0319831681178455604051919092169283917f8be0079c531659141344cd1fd0a4f28419497f9722a3daafe3b4186f6b6457e09190a35050565b620001056200017d565b60028290556001819055604051819083907ff1981ab2ec7e286f52cb5d122cdb004e782c7cd2c7ec79e9c5a07f380f94bd9d90600090a35050565b6200014a6200017d565b600381905560405181907f8585f06828ed2d9126b998a9d431d18854350c2d883a903f957b1f6e77f6ca2490600090a250565b6000546001600160a01b03163314620001dc5760405162461bcd60e51b815260206004820181905260248201527f4f776e61626c653a2063616c6c6572206973206e6f7420746865206f776e6572604482015260640160405180910390fd5b565b80516001600160a01b0381168114620001f657600080fd5b919050565b6000806000606084860312156200021157600080fd5b6200021c84620001de565b92506200022c60208501620001de565b91506200023c60408501620001de565b90509250925092565b608051611311620002616000396000610a6b01526113116000f3fe6080604052600436106101c25760003560e01c80637f04e0e1116100f7578063c9e3c9c711610095578063d013cbe211610064578063d013cbe2146104c3578063dc39ca7a146104d6578063e00115f6146104eb578063f2fde38b1461050057600080fd5b8063c9e3c9c714610443578063cc205db314610463578063cc3bcaf314610483578063ce9d3b09146104a357600080fd5b80638da5cb5b116100d15780638da5cb5b146103da578063be5be211146103f8578063bfa54b3f1461040d578063c73b2a431461042d57600080fd5b80637f04e0e1146103735780638380c09114610393578063893da6c9146103a957600080fd5b8063484f4ea9116101645780635d2a2c991161013e5780635d2a2c9914610308578063715018a614610328578063769bb5ac1461033d578063790b284f1461035d57600080fd5b8063484f4ea91461029b5780634e71d92d146102d35780635b0dfa95146102e857600080fd5b80631dfce5c6116101a05780631dfce5c6146102325780632c8e695b14610252578063402914f5146102655780634426a2631461028557600080fd5b806306dc693b146101c7578063127f4b2e146101fa578063158b072c1461021c575b600080fd5b3480156101d357600080fd5b506101e76101e2366004611170565b610520565b6040519081526020015b60405180910390f35b34801561020657600080fd5b5061021a610215366004611170565b6105ae565b005b34801561022857600080fd5b506101e760045481565b34801561023e57600080fd5b506101e761024d3660046111a5565b61063d565b61021a610260366004611170565b61066d565b34801561027157600080fd5b506101e76102803660046111a5565b610774565b34801561029157600080fd5b506101e760055481565b3480156102a757600080fd5b506007546102bb906001600160a01b031681565b6040516001600160a01b0390911681526020016101f1565b3480156102df57600080fd5b5061021a6107ce565b3480156102f457600080fd5b5061021a610303366004611170565b6109cc565b34801561031457600080fd5b506101e7610323366004611170565b610a07565b34801561033457600080fd5b5061021a610aff565b34801561034957600080fd5b5061021a6103583660046111c0565b610b13565b34801561036957600080fd5b506101e760035481565b34801561037f57600080fd5b5061021a61038e366004611170565b610b56565b34801561039f57600080fd5b506101e760025481565b3480156103b557600080fd5b506007546103ca90600160a01b900460ff1681565b60405190151581526020016101f1565b3480156103e657600080fd5b506000546001600160a01b03166102bb565b34801561040457600080fd5b5061021a610c07565b34801561041957600080fd5b506006546102bb906001600160a01b031681565b34801561043957600080fd5b506101e760015481565b34801561044f57600080fd5b5061021a61045e3660046111f0565b610c84565b34801561046f57600080fd5b5061021a61047e366004611170565b610d59565b34801561048f57600080fd5b5061021a61049e366004611170565b610e83565b3480156104af57600080fd5b5061021a6104be366004611170565b610f35565b3480156104cf57600080fd5b50476101e7565b3480156104e257600080fd5b506101e7610fac565b3480156104f757600080fd5b506101e761101f565b34801561050c57600080fd5b5061021a61051b3660046111a5565b611050565b600754600090600160a01b900460ff16156105755760405162461bcd60e51b815260206004820152601060248201526f424c42494f3a20736f6c64206f75742160801b60448201526064015b60405180910390fd5b60035482116105a457670de0b6b3a7640000826002546105959190611246565b61059f919061125d565b6105a8565b6001545b92915050565b6105b66110c6565b600080546040516001600160a01b039091169183156108fc02918491818181858888f193505050501580156105ef573d6000803e3d6000fd5b506040516221272160e91b81526003015b604051908190038120828252907ffd950f75bf83187106ca979032c87af4e8bedbeff7455cba6df787f978267f299060200160405180910390a250565b6001600160a01b038116600090815260086020526040812060018101548154610666919061127f565b9392505050565b33606461067983610a07565b610684906062611246565b61068e919061125d565b3410156106d05760405162461bcd60e51b815260206004820152601060248201526f696e73756666696369656e742066656560801b604482015260640161056c565b6001600160a01b038116600090815260086020526040812080548492906106f8908490611292565b9250508190555081600560008282546107119190611292565b90915550506040516221272160e91b81526003016040805191829003822034835260208301859052916001600160a01b038416917facd81379883abf90827a751c8100bec3c4d1f66dbba0f8f8b412a049f0a03d70910160405180910390a35050565b6001600160a01b0381166000908152600860205260408120600281015460ff16156107a2576106668361063d565b60018101546004548254620f4240916107ba91611246565b6107c4919061125d565b610666919061127f565b336000818152600860205260408120906107e783610774565b9050806000036108395760405162461bcd60e51b815260206004820152601f60248201527f424c42494f3a207468657265206973206e6f20424c4220746f20636c61696d00604482015260640161056c565b6006546040516370a0823160e01b815230600482015282916001600160a01b0316906370a0823190602401602060405180830381865afa158015610881573d6000803e3d6000fd5b505050506040513d601f19601f820116820180604052508101906108a591906112a5565b10156108f35760405162461bcd60e51b815260206004820181905260248201527f696e73756666696369656e7420424c4220696e2074686520636f6e7472616374604482015260640161056c565b808260010160008282546109079190611292565b909155505060065460405163a9059cbb60e01b81526001600160a01b038581166004830152602482018490529091169063a9059cbb906044016020604051808303816000875af115801561095f573d6000803e3d6000fd5b505050506040513d601f19601f8201168201806040525081019061098391906112be565b50826001600160a01b03167f47cee97cb7acd717b3c0aa1435d004cd5b3c8c57d70dbceb4e4458bbd60e39d4826040516109bf91815260200190565b60405180910390a2505050565b6109d46110c6565b600381905560405181907f8585f06828ed2d9126b998a9d431d18854350c2d883a903f957b1f6e77f6ca2490600090a250565b600754600090600160a01b900460ff1615610a575760405162461bcd60e51b815260206004820152601060248201526f424c42494f3a20736f6c64206f75742160801b604482015260640161056c565b670de0b6b3a7640000610a6983610520565b7f00000000000000000000000000000000000000000000000000000000000000006001600160a01b03166350d25bcd6040518163ffffffff1660e01b8152600401602060405180830381865afa158015610ac7573d6000803e3d6000fd5b505050506040513d601f19601f82011682018060405250810190610aeb91906112a5565b610af59190611246565b6105a8919061125d565b610b076110c6565b610b116000611120565b565b610b1b6110c6565b60028290556001819055604051819083907ff1981ab2ec7e286f52cb5d122cdb004e782c7cd2c7ec79e9c5a07f380f94bd9d90600090a35050565b610b5e6110c6565b6006546001600160a01b031663a9059cbb610b816000546001600160a01b031690565b6040516001600160e01b031960e084901b1681526001600160a01b039091166004820152602481018490526044016020604051808303816000875af1158015610bce573d6000803e3d6000fd5b505050506040513d601f19601f82011682018060405250810190610bf291906112be565b506040516221262160e91b8152600301610600565b610c0f6110c6565b600754600160a01b900460ff16610c27576001610c2a565b60005b6007805460ff60a01b1916600160a01b9215158302179081905560405160ff9290910491909116151581527f0a3cfaceb3e57ff8026ea1ea844ce08ca4b74964e184e542ea2ab22605e34f629060200160405180910390a1565b610c8c6110c6565b6001600160a01b03831660009081526008602052604081208054849290610cb4908490611292565b90915550506001600160a01b0383166000908152600860205260408120600201805460ff191683151517905560058054849290610cf2908490611292565b90915550506040516319da599d60e21b8152600401604080519182900382206000835260208301859052916001600160a01b038616917facd81379883abf90827a751c8100bec3c4d1f66dbba0f8f8b412a049f0a03d7091015b60405180910390a3505050565b336000610d6583610520565b6007546040516323b872dd60e01b81526001600160a01b038581166004830152306024830152604482018490529293509116906323b872dd906064016020604051808303816000875af1158015610dc0573d6000803e3d6000fd5b505050506040513d601f19601f82011682018060405250810190610de491906112be565b506001600160a01b03821660009081526008602052604081208054859290610e0d908490611292565b925050819055508260056000828254610e269190611292565b909155505060405163109554d160e21b81526004016040805191829003822083835260208301869052916001600160a01b038516917facd81379883abf90827a751c8100bec3c4d1f66dbba0f8f8b412a049f0a03d709101610d4c565b610e8b6110c6565b6007546001600160a01b031663a9059cbb610eae6000546001600160a01b031690565b6040516001600160e01b031960e084901b1681526001600160a01b039091166004820152602481018490526044016020604051808303816000875af1158015610efb573d6000803e3d6000fd5b505050506040513d601f19601f82011682018060405250810190610f1f91906112be565b5060405163109554d160e21b8152600401610600565b610f3d6110c6565b8060046000828254610f4f9190611292565b9091555050600454620f42401015610fa95760405162461bcd60e51b815260206004820152601c60248201527f424c42494f3a206672616374696f6e20657863656564732031305e3600000000604482015260640161056c565b50565b6007546040516370a0823160e01b81523060048201526000916001600160a01b0316906370a08231906024015b602060405180830381865afa158015610ff6573d6000803e3d6000fd5b505050506040513d601f19601f8201168201806040525081019061101a91906112a5565b905090565b6006546040516370a0823160e01b81523060048201526000916001600160a01b0316906370a0823190602401610fd9565b6110586110c6565b6001600160a01b0381166110bd5760405162461bcd60e51b815260206004820152602660248201527f4f776e61626c653a206e6577206f776e657220697320746865207a65726f206160448201526564647265737360d01b606482015260840161056c565b610fa981611120565b6000546001600160a01b03163314610b115760405162461bcd60e51b815260206004820181905260248201527f4f776e61626c653a2063616c6c6572206973206e6f7420746865206f776e6572604482015260640161056c565b600080546001600160a01b038381166001600160a01b0319831681178455604051919092169283917f8be0079c531659141344cd1fd0a4f28419497f9722a3daafe3b4186f6b6457e09190a35050565b60006020828403121561118257600080fd5b5035919050565b80356001600160a01b03811681146111a057600080fd5b919050565b6000602082840312156111b757600080fd5b61066682611189565b600080604083850312156111d357600080fd5b50508035926020909101359150565b8015158114610fa957600080fd5b60008060006060848603121561120557600080fd5b61120e84611189565b9250602084013591506040840135611225816111e2565b809150509250925092565b634e487b7160e01b600052601160045260246000fd5b80820281158282048414176105a8576105a8611230565b60008261127a57634e487b7160e01b600052601260045260246000fd5b500490565b818103818111156105a8576105a8611230565b808201808211156105a8576105a8611230565b6000602082840312156112b757600080fd5b5051919050565b6000602082840312156112d057600080fd5b8151610666816111e256fea2646970667358221220ebdbef34183979b6a1b983ad9b925f7d2ef1952177b6f9165cc8ab891d78c17564736f6c63430008110033",
  "linkReferences": {},
  "deployedLinkReferences": {}
}