{
  "_format": "hh-sol-artifact-1",
  "contractName": "BLBIO",
  "sourceName": "contracts/BLBIO/BLBIO.sol",
  "abi": [
    {
      "inputs": [
        {
          "internalType": "address",
          "name": "_BLBAddr",
          "type": "address"
        },
        {
          "internalType": "address",
          "name": "_BUSDAddr",
          "type": "address"
        },
        {
          "internalType": "address",
          "name": "_AGGREGATORAddr",
          "type": "address"
        }
      ],
      "stateMutability": "nonpayable",
      "type": "constructor"
    },
    {
      "anonymous": false,
      "inputs": [
        {
          "indexed": true,
          "internalType": "address",
          "name": "buyer",
          "type": "address"
        },
        {
          "indexed": false,
          "internalType": "uint256",
          "name": "amountBLB",
          "type": "uint256"
        },
        {
          "indexed": false,
          "internalType": "uint256",
          "name": "amountBNB",
          "type": "uint256"
        }
      ],
      "name": "BuyInBNB",
      "type": "event"
    },
    {
      "anonymous": false,
      "inputs": [
        {
          "indexed": true,
          "internalType": "address",
          "name": "buyer",
          "type": "address"
        },
        {
          "indexed": false,
          "internalType": "uint256",
          "name": "amountBLB",
          "type": "uint256"
        },
        {
          "indexed": false,
          "internalType": "uint256",
          "name": "amountBUSD",
          "type": "uint256"
        }
      ],
      "name": "BuyInBUSD",
      "type": "event"
    },
    {
      "anonymous": false,
      "inputs": [
        {
          "indexed": true,
          "internalType": "address",
          "name": "claimant",
          "type": "address"
        },
        {
          "indexed": false,
          "internalType": "uint256",
          "name": "amountBLB",
          "type": "uint256"
        }
      ],
      "name": "Claim",
      "type": "event"
    },
    {
      "anonymous": false,
      "inputs": [
        {
          "indexed": true,
          "internalType": "address",
          "name": "previousOwner",
          "type": "address"
        },
        {
          "indexed": true,
          "internalType": "address",
          "name": "newOwner",
          "type": "address"
        }
      ],
      "name": "OwnershipTransferred",
      "type": "event"
    },
    {
      "anonymous": false,
      "inputs": [
        {
          "indexed": true,
          "internalType": "uint256",
          "name": "publicPrice",
          "type": "uint256"
        },
        {
          "indexed": true,
          "internalType": "uint256",
          "name": "privatePrice",
          "type": "uint256"
        }
      ],
      "name": "SetPriceInUSD",
      "type": "event"
    },
    {
      "anonymous": false,
      "inputs": [
        {
          "indexed": true,
          "internalType": "uint256",
          "name": "_retailLimit",
          "type": "uint256"
        }
      ],
      "name": "SetRetailLimit",
      "type": "event"
    },
    {
      "anonymous": false,
      "inputs": [
        {
          "indexed": true,
          "internalType": "string",
          "name": "tokenName",
          "type": "string"
        },
        {
          "indexed": false,
          "internalType": "uint256",
          "name": "amount",
          "type": "uint256"
        }
      ],
      "name": "Withdraw",
      "type": "event"
    },
    {
      "inputs": [],
      "name": "BLB",
      "outputs": [
        {
          "internalType": "contract IERC20",
          "name": "",
          "type": "address"
        }
      ],
      "stateMutability": "view",
      "type": "function"
    },
    {
      "inputs": [],
      "name": "BUSD",
      "outputs": [
        {
          "internalType": "contract IERC20",
          "name": "",
          "type": "address"
        }
      ],
      "stateMutability": "view",
      "type": "function"
    },
    {
      "inputs": [],
      "name": "TotalClaimable",
      "outputs": [
        {
          "internalType": "uint256",
          "name": "",
          "type": "uint256"
        }
      ],
      "stateMutability": "view",
      "type": "function"
    },
    {
      "inputs": [],
      "name": "blbBalance",
      "outputs": [
        {
          "internalType": "uint256",
          "name": "",
          "type": "uint256"
        }
      ],
      "stateMutability": "view",
      "type": "function"
    },
    {
      "inputs": [],
      "name": "bnbBalance",
      "outputs": [
        {
          "internalType": "uint256",
          "name": "",
          "type": "uint256"
        }
      ],
      "stateMutability": "view",
      "type": "function"
    },
    {
      "inputs": [],
      "name": "busdBalance",
      "outputs": [
        {
          "internalType": "uint256",
          "name": "",
          "type": "uint256"
        }
      ],
      "stateMutability": "view",
      "type": "function"
    },
    {
      "inputs": [
        {
          "internalType": "uint256",
          "name": "amount",
          "type": "uint256"
        }
      ],
      "name": "buyInBNB",
      "outputs": [],
      "stateMutability": "payable",
      "type": "function"
    },
    {
      "inputs": [
        {
          "internalType": "uint256",
          "name": "amount",
          "type": "uint256"
        }
      ],
      "name": "buyInBUSD",
      "outputs": [],
      "stateMutability": "nonpayable",
      "type": "function"
    },
    {
      "inputs": [],
      "name": "claim",
      "outputs": [],
      "stateMutability": "nonpayable",
      "type": "function"
    },
    {
      "inputs": [
        {
          "internalType": "address",
          "name": "claimant",
          "type": "address"
        }
      ],
      "name": "claimable",
      "outputs": [
        {
          "internalType": "uint256",
          "name": "",
          "type": "uint256"
        }
      ],
      "stateMutability": "view",
      "type": "function"
    },
    {
      "inputs": [],
      "name": "claimableFraction",
      "outputs": [
        {
          "internalType": "uint256",
          "name": "",
          "type": "uint256"
        }
      ],
      "stateMutability": "view",
      "type": "function"
    },
    {
      "inputs": [
        {
          "internalType": "address",
          "name": "addr",
          "type": "address"
        },
        {
          "internalType": "uint256",
          "name": "amount",
          "type": "uint256"
        },
        {
          "internalType": "bool",
          "name": "freeToClaim",
          "type": "bool"
        }
      ],
      "name": "giftBLB",
      "outputs": [],
      "stateMutability": "nonpayable",
      "type": "function"
    },
    {
      "inputs": [
        {
          "internalType": "uint256",
          "name": "fraction",
          "type": "uint256"
        }
      ],
      "name": "increaseClaimableFraction",
      "outputs": [],
      "stateMutability": "nonpayable",
      "type": "function"
    },
    {
      "inputs": [],
      "name": "owner",
      "outputs": [
        {
          "internalType": "address",
          "name": "",
          "type": "address"
        }
      ],
      "stateMutability": "view",
      "type": "function"
    },
    {
      "inputs": [
        {
          "internalType": "uint256",
          "name": "amount",
          "type": "uint256"
        }
      ],
      "name": "priceInBNB",
      "outputs": [
        {
          "internalType": "uint256",
          "name": "",
          "type": "uint256"
        }
      ],
      "stateMutability": "view",
      "type": "function"
    },
    {
      "inputs": [
        {
          "internalType": "uint256",
          "name": "amount",
          "type": "uint256"
        }
      ],
      "name": "priceInUSD",
      "outputs": [
        {
          "internalType": "uint256",
          "name": "",
          "type": "uint256"
        }
      ],
      "stateMutability": "view",
      "type": "function"
    },
    {
      "inputs": [],
      "name": "privatePriceInUSD",
      "outputs": [
        {
          "internalType": "uint256",
          "name": "",
          "type": "uint256"
        }
      ],
      "stateMutability": "view",
      "type": "function"
    },
    {
      "inputs": [],
      "name": "publicPriceInUSD",
      "outputs": [
        {
          "internalType": "uint256",
          "name": "",
          "type": "uint256"
        }
      ],
      "stateMutability": "view",
      "type": "function"
    },
    {
      "inputs": [],
      "name": "renounceOwnership",
      "outputs": [],
      "stateMutability": "nonpayable",
      "type": "function"
    },
    {
      "inputs": [],
      "name": "retailLimit",
      "outputs": [
        {
          "internalType": "uint256",
          "name": "",
          "type": "uint256"
        }
      ],
      "stateMutability": "view",
      "type": "function"
    },
    {
      "inputs": [
        {
          "internalType": "uint256",
          "name": "_publicPrice",
          "type": "uint256"
        },
        {
          "internalType": "uint256",
          "name": "_privatePrice",
          "type": "uint256"
        }
      ],
      "name": "setPriceInUSD",
      "outputs": [],
      "stateMutability": "nonpayable",
      "type": "function"
    },
    {
      "inputs": [
        {
          "internalType": "uint256",
          "name": "_retailLimit",
          "type": "uint256"
        }
      ],
      "name": "setRetailLimit",
      "outputs": [],
      "stateMutability": "nonpayable",
      "type": "function"
    },
    {
      "inputs": [],
      "name": "setSoldOut",
      "outputs": [],
      "stateMutability": "nonpayable",
      "type": "function"
    },
    {
      "inputs": [],
      "name": "soldOut",
      "outputs": [
        {
          "internalType": "bool",
          "name": "",
          "type": "bool"
        }
      ],
      "stateMutability": "view",
      "type": "function"
    },
    {
      "inputs": [
        {
          "internalType": "address",
          "name": "claimant",
          "type": "address"
        }
      ],
      "name": "totalClaimable",
      "outputs": [
        {
          "internalType": "uint256",
          "name": "",
          "type": "uint256"
        }
      ],
      "stateMutability": "view",
      "type": "function"
    },
    {
      "inputs": [
        {
          "internalType": "address",
          "name": "newOwner",
          "type": "address"
        }
      ],
      "name": "transferOwnership",
      "outputs": [],
      "stateMutability": "nonpayable",
      "type": "function"
    },
    {
      "inputs": [
        {
          "internalType": "uint256",
          "name": "amount",
          "type": "uint256"
        }
      ],
      "name": "withdrawBLB",
      "outputs": [],
      "stateMutability": "nonpayable",
      "type": "function"
    },
    {
      "inputs": [
        {
          "internalType": "uint256",
          "name": "amount",
          "type": "uint256"
        }
      ],
      "name": "withdrawBNB",
      "outputs": [],
      "stateMutability": "nonpayable",
      "type": "function"
    },
    {
      "inputs": [
        {
          "internalType": "uint256",
          "name": "amount",
          "type": "uint256"
        }
      ],
      "name": "withdrawBUSD",
      "outputs": [],
      "stateMutability": "nonpayable",
      "type": "function"
    }
  ],
  "bytecode": "0x60a06040523480156200001157600080fd5b5060405162001564380380620015648339810160408190526200003491620001fb565b6200003f33620000ab565b600680546001600160a01b038086166001600160a01b03199283161790925560078054858416921691909117905581166080526200008e670429d069189e00006703e2c284391c0000620000fb565b620000a2681b1ae4d6e2ef50000062000140565b50505062000245565b600080546001600160a01b038381166001600160a01b0319831681178455604051919092169283917f8be0079c531659141344cd1fd0a4f28419497f9722a3daafe3b4186f6b6457e09190a35050565b620001056200017d565b60028290556001819055604051819083907ff1981ab2ec7e286f52cb5d122cdb004e782c7cd2c7ec79e9c5a07f380f94bd9d90600090a35050565b6200014a6200017d565b600381905560405181907f8585f06828ed2d9126b998a9d431d18854350c2d883a903f957b1f6e77f6ca2490600090a250565b6000546001600160a01b03163314620001dc5760405162461bcd60e51b815260206004820181905260248201527f4f776e61626c653a2063616c6c6572206973206e6f7420746865206f776e6572604482015260640160405180910390fd5b565b80516001600160a01b0381168114620001f657600080fd5b919050565b6000806000606084860312156200021157600080fd5b6200021c84620001de565b92506200022c60208501620001de565b91506200023c60408501620001de565b90509250925092565b608051611303620002616000396000610c2001526113036000f3fe6080604052600436106101c25760003560e01c8063790b284f116100f7578063c73b2a4311610095578063d013cbe211610064578063d013cbe2146104c3578063dc39ca7a146104d6578063e00115f6146104eb578063f2fde38b1461050057600080fd5b8063c73b2a431461044d578063c9e3c9c714610463578063cc3bcaf314610483578063ce9d3b09146104a357600080fd5b8063893da6c9116100d1578063893da6c9146103c95780638da5cb5b146103fa578063be5be21114610418578063bfa54b3f1461042d57600080fd5b8063790b284f1461037d5780637f04e0e1146103935780638380c091146103b357600080fd5b8063484f4ea9116101645780635b0dfa951161013e5780635b0dfa95146103085780635d2a2c9914610328578063715018a614610348578063769bb5ac1461035d57600080fd5b8063484f4ea91461029b5780634bc37468146102d35780634e71d92d146102f357600080fd5b8063158b072c116101a0578063158b072c1461022f5780631dfce5c614610245578063402914f5146102655780634426a2631461028557600080fd5b806306dc693b146101c7578063127f4b2e146101fa57806312b132161461021c575b600080fd5b3480156101d357600080fd5b506101e76101e2366004611162565b610520565b6040519081526020015b60405180910390f35b34801561020657600080fd5b5061021a610215366004611162565b6105ae565b005b61021a61022a366004611162565b61063d565b34801561023b57600080fd5b506101e760045481565b34801561025157600080fd5b506101e7610260366004611197565b61072d565b34801561027157600080fd5b506101e7610280366004611197565b61075d565b34801561029157600080fd5b506101e760055481565b3480156102a757600080fd5b506007546102bb906001600160a01b031681565b6040516001600160a01b0390911681526020016101f1565b3480156102df57600080fd5b5061021a6102ee366004611162565b6107b7565b3480156102ff57600080fd5b5061021a610990565b34801561031457600080fd5b5061021a610323366004611162565b610b81565b34801561033457600080fd5b506101e7610343366004611162565b610bbc565b34801561035457600080fd5b5061021a610cb4565b34801561036957600080fd5b5061021a6103783660046111b2565b610cc8565b34801561038957600080fd5b506101e760035481565b34801561039f57600080fd5b5061021a6103ae366004611162565b610d0b565b3480156103bf57600080fd5b506101e760025481565b3480156103d557600080fd5b506007546103ea90600160a01b900460ff1681565b60405190151581526020016101f1565b34801561040657600080fd5b506000546001600160a01b03166102bb565b34801561042457600080fd5b5061021a610dbc565b34801561043957600080fd5b506006546102bb906001600160a01b031681565b34801561045957600080fd5b506101e760015481565b34801561046f57600080fd5b5061021a61047e3660046111e2565b610dfd565b34801561048f57600080fd5b5061021a61049e366004611162565b610e75565b3480156104af57600080fd5b5061021a6104be366004611162565b610f27565b3480156104cf57600080fd5b50476101e7565b3480156104e257600080fd5b506101e7610f9e565b3480156104f757600080fd5b506101e7611011565b34801561050c57600080fd5b5061021a61051b366004611197565b611042565b600754600090600160a01b900460ff16156105755760405162461bcd60e51b815260206004820152601060248201526f424c42494f3a20736f6c64206f75742160801b60448201526064015b60405180910390fd5b60035482116105a457670de0b6b3a7640000826002546105959190611238565b61059f919061124f565b6105a8565b6001545b92915050565b6105b66110b8565b600080546040516001600160a01b039091169183156108fc02918491818181858888f193505050501580156105ef573d6000803e3d6000fd5b506040516221272160e91b81526003015b604051908190038120828252907ffd950f75bf83187106ca979032c87af4e8bedbeff7455cba6df787f978267f299060200160405180910390a250565b33606461064983610bbc565b610654906062611238565b61065e919061124f565b3410156106a05760405162461bcd60e51b815260206004820152601060248201526f696e73756666696369656e742066656560801b604482015260640161056c565b6001600160a01b038116600090815260086020526040812080548492906106c8908490611271565b9250508190555081600560008282546106e19190611271565b9091555050604080518381523460208201526001600160a01b038316917f451507bd5f326ed3f76acb5340f6fd35a140805db4274994e84b230aaff29dde910160405180910390a25050565b6001600160a01b0381166000908152600860205260408120600181015481546107569190611284565b9392505050565b6001600160a01b0381166000908152600860205260408120600281015460ff161561078b576107568361072d565b60018101546004548254620f4240916107a391611238565b6107ad919061124f565b6107569190611284565b6006546040516370a0823160e01b8152306004820152339183916001600160a01b03909116906370a0823190602401602060405180830381865afa158015610803573d6000803e3d6000fd5b505050506040513d601f19601f820116820180604052508101906108279190611297565b10156108755760405162461bcd60e51b815260206004820181905260248201527f696e73756666696369656e7420424c4220696e2074686520636f6e7472616374604482015260640161056c565b600061088083610520565b6007546040516323b872dd60e01b81526001600160a01b038581166004830152306024830152604482018490529293509116906323b872dd906064016020604051808303816000875af11580156108db573d6000803e3d6000fd5b505050506040513d601f19601f820116820180604052508101906108ff91906112b0565b506001600160a01b03821660009081526008602052604081208054859290610928908490611271565b9250508190555082600560008282546109419190611271565b909155505060408051848152602081018390526001600160a01b038416917fae16ee7557ba4dc342c52849bc3a99fb8cada978f1b2c9910e52aade873b956c91015b60405180910390a2505050565b336000818152600860205260408120906109a98361075d565b9050806000036109fb5760405162461bcd60e51b815260206004820152601f60248201527f424c42494f3a207468657265206973206e6f20424c4220746f20636c61696d00604482015260640161056c565b6006546040516370a0823160e01b815230600482015282916001600160a01b0316906370a0823190602401602060405180830381865afa158015610a43573d6000803e3d6000fd5b505050506040513d601f19601f82011682018060405250810190610a679190611297565b1015610ab55760405162461bcd60e51b815260206004820181905260248201527f696e73756666696369656e7420424c4220696e2074686520636f6e7472616374604482015260640161056c565b80826001016000828254610ac99190611271565b909155505060065460405163a9059cbb60e01b81526001600160a01b038581166004830152602482018490529091169063a9059cbb906044016020604051808303816000875af1158015610b21573d6000803e3d6000fd5b505050506040513d601f19601f82011682018060405250810190610b4591906112b0565b50826001600160a01b03167f47cee97cb7acd717b3c0aa1435d004cd5b3c8c57d70dbceb4e4458bbd60e39d48260405161098391815260200190565b610b896110b8565b600381905560405181907f8585f06828ed2d9126b998a9d431d18854350c2d883a903f957b1f6e77f6ca2490600090a250565b600754600090600160a01b900460ff1615610c0c5760405162461bcd60e51b815260206004820152601060248201526f424c42494f3a20736f6c64206f75742160801b604482015260640161056c565b670de0b6b3a7640000610c1e83610520565b7f00000000000000000000000000000000000000000000000000000000000000006001600160a01b03166350d25bcd6040518163ffffffff1660e01b8152600401602060405180830381865afa158015610c7c573d6000803e3d6000fd5b505050506040513d601f19601f82011682018060405250810190610ca09190611297565b610caa9190611238565b6105a8919061124f565b610cbc6110b8565b610cc66000611112565b565b610cd06110b8565b60028290556001819055604051819083907ff1981ab2ec7e286f52cb5d122cdb004e782c7cd2c7ec79e9c5a07f380f94bd9d90600090a35050565b610d136110b8565b6006546001600160a01b031663a9059cbb610d366000546001600160a01b031690565b6040516001600160e01b031960e084901b1681526001600160a01b039091166004820152602481018490526044016020604051808303816000875af1158015610d83573d6000803e3d6000fd5b505050506040513d601f19601f82011682018060405250810190610da791906112b0565b506040516221262160e91b8152600301610600565b610dc46110b8565b600754600160a01b900460ff16610ddc576001610ddf565b60005b60078054911515600160a01b0260ff60a01b19909216919091179055565b610e056110b8565b6001600160a01b03831660009081526008602052604081208054849290610e2d908490611271565b90915550506001600160a01b0383166000908152600860205260408120600201805460ff191683151517905560058054849290610e6b908490611271565b9091555050505050565b610e7d6110b8565b6007546001600160a01b031663a9059cbb610ea06000546001600160a01b031690565b6040516001600160e01b031960e084901b1681526001600160a01b039091166004820152602481018490526044016020604051808303816000875af1158015610eed573d6000803e3d6000fd5b505050506040513d601f19601f82011682018060405250810190610f1191906112b0565b5060405163109554d160e21b8152600401610600565b610f2f6110b8565b8060046000828254610f419190611271565b9091555050600454620f42401015610f9b5760405162461bcd60e51b815260206004820152601c60248201527f424c42494f3a206672616374696f6e20657863656564732031305e3600000000604482015260640161056c565b50565b6007546040516370a0823160e01b81523060048201526000916001600160a01b0316906370a08231906024015b602060405180830381865afa158015610fe8573d6000803e3d6000fd5b505050506040513d601f19601f8201168201806040525081019061100c9190611297565b905090565b6006546040516370a0823160e01b81523060048201526000916001600160a01b0316906370a0823190602401610fcb565b61104a6110b8565b6001600160a01b0381166110af5760405162461bcd60e51b815260206004820152602660248201527f4f776e61626c653a206e6577206f776e657220697320746865207a65726f206160448201526564647265737360d01b606482015260840161056c565b610f9b81611112565b6000546001600160a01b03163314610cc65760405162461bcd60e51b815260206004820181905260248201527f4f776e61626c653a2063616c6c6572206973206e6f7420746865206f776e6572604482015260640161056c565b600080546001600160a01b038381166001600160a01b0319831681178455604051919092169283917f8be0079c531659141344cd1fd0a4f28419497f9722a3daafe3b4186f6b6457e09190a35050565b60006020828403121561117457600080fd5b5035919050565b80356001600160a01b038116811461119257600080fd5b919050565b6000602082840312156111a957600080fd5b6107568261117b565b600080604083850312156111c557600080fd5b50508035926020909101359150565b8015158114610f9b57600080fd5b6000806000606084860312156111f757600080fd5b6112008461117b565b9250602084013591506040840135611217816111d4565b809150509250925092565b634e487b7160e01b600052601160045260246000fd5b80820281158282048414176105a8576105a8611222565b60008261126c57634e487b7160e01b600052601260045260246000fd5b500490565b808201808211156105a8576105a8611222565b818103818111156105a8576105a8611222565b6000602082840312156112a957600080fd5b5051919050565b6000602082840312156112c257600080fd5b8151610756816111d456fea2646970667358221220f21f05fbbf4cab4d3d70a3dedaa6080961b9f310e0898ac041244e1f5ca39b3d64736f6c63430008110033",
  "linkReferences": {},
  "deployedLinkReferences": {}
}