{
  "_format": "hh-sol-artifact-1",
  "contractName": "BLBIO",
  "sourceName": "contracts/BLBIO/BLBIO.sol",
  "abi": [
    {
      "inputs": [],
      "stateMutability": "nonpayable",
      "type": "constructor"
    },
    {
      "anonymous": false,
      "inputs": [
        {
          "indexed": true,
          "internalType": "uint256",
          "name": "amountBLB",
          "type": "uint256"
        },
        {
          "indexed": true,
          "internalType": "uint256",
          "name": "amountBNB",
          "type": "uint256"
        }
      ],
      "name": "BuyInBNB",
      "type": "event"
    },
    {
      "anonymous": false,
      "inputs": [
        {
          "indexed": true,
          "internalType": "uint256",
          "name": "amountBLB",
          "type": "uint256"
        },
        {
          "indexed": true,
          "internalType": "uint256",
          "name": "amountBUSD",
          "type": "uint256"
        }
      ],
      "name": "BuyInBUSD",
      "type": "event"
    },
    {
      "anonymous": false,
      "inputs": [
        {
          "indexed": true,
          "internalType": "address",
          "name": "previousOwner",
          "type": "address"
        },
        {
          "indexed": true,
          "internalType": "address",
          "name": "newOwner",
          "type": "address"
        }
      ],
      "name": "OwnershipTransferred",
      "type": "event"
    },
    {
      "anonymous": false,
      "inputs": [
        {
          "indexed": true,
          "internalType": "uint256",
          "name": "newPrice",
          "type": "uint256"
        }
      ],
      "name": "SetPriceInUSD",
      "type": "event"
    },
    {
      "anonymous": false,
      "inputs": [
        {
          "indexed": true,
          "internalType": "address",
          "name": "tokenAddr",
          "type": "address"
        },
        {
          "indexed": true,
          "internalType": "uint256",
          "name": "amount",
          "type": "uint256"
        }
      ],
      "name": "Withdraw",
      "type": "event"
    },
    {
      "inputs": [],
      "name": "BLB",
      "outputs": [
        {
          "internalType": "contract IERC20",
          "name": "",
          "type": "address"
        }
      ],
      "stateMutability": "view",
      "type": "function"
    },
    {
      "inputs": [],
      "name": "BUSD",
      "outputs": [
        {
          "internalType": "contract IERC20",
          "name": "",
          "type": "address"
        }
      ],
      "stateMutability": "view",
      "type": "function"
    },
    {
      "inputs": [
        {
          "internalType": "uint256",
          "name": "amount",
          "type": "uint256"
        }
      ],
      "name": "buyInBNB",
      "outputs": [],
      "stateMutability": "payable",
      "type": "function"
    },
    {
      "inputs": [
        {
          "internalType": "uint256",
          "name": "amount",
          "type": "uint256"
        }
      ],
      "name": "buyInBUSD",
      "outputs": [],
      "stateMutability": "nonpayable",
      "type": "function"
    },
    {
      "inputs": [],
      "name": "owner",
      "outputs": [
        {
          "internalType": "address",
          "name": "",
          "type": "address"
        }
      ],
      "stateMutability": "view",
      "type": "function"
    },
    {
      "inputs": [],
      "name": "priceInBNB",
      "outputs": [
        {
          "internalType": "uint256",
          "name": "",
          "type": "uint256"
        }
      ],
      "stateMutability": "view",
      "type": "function"
    },
    {
      "inputs": [],
      "name": "priceInUSD",
      "outputs": [
        {
          "internalType": "uint256",
          "name": "",
          "type": "uint256"
        }
      ],
      "stateMutability": "view",
      "type": "function"
    },
    {
      "inputs": [],
      "name": "renounceOwnership",
      "outputs": [],
      "stateMutability": "nonpayable",
      "type": "function"
    },
    {
      "inputs": [
        {
          "internalType": "uint256",
          "name": "_priceInUSD",
          "type": "uint256"
        }
      ],
      "name": "setPriceInUSD",
      "outputs": [],
      "stateMutability": "nonpayable",
      "type": "function"
    },
    {
      "inputs": [
        {
          "internalType": "address",
          "name": "newOwner",
          "type": "address"
        }
      ],
      "name": "transferOwnership",
      "outputs": [],
      "stateMutability": "nonpayable",
      "type": "function"
    },
    {
      "inputs": [
        {
          "internalType": "uint256",
          "name": "amount",
          "type": "uint256"
        }
      ],
      "name": "withdraw",
      "outputs": [],
      "stateMutability": "nonpayable",
      "type": "function"
    },
    {
      "inputs": [
        {
          "internalType": "address",
          "name": "tokenAddr",
          "type": "address"
        },
        {
          "internalType": "uint256",
          "name": "amount",
          "type": "uint256"
        }
      ],
      "name": "withdrawERC20",
      "outputs": [],
      "stateMutability": "nonpayable",
      "type": "function"
    }
  ],
  "bytecode": "0x60a060405234801561001057600080fd5b5061001a33610090565b600180546001600160a01b0319908116733034e7400f7de5559475a6f0398d26991f965ca3179091556002805490911673e9e7cea3dedca5984780bafc599bd69add087d561790557387ea38c9f24264ec1fff41b04ec94a97caf9994160805261008b670de0b6b3a76400006100e0565b61017b565b600080546001600160a01b038381166001600160a01b0319831681178455604051919092169283917f8be0079c531659141344cd1fd0a4f28419497f9722a3daafe3b4186f6b6457e09190a35050565b6100e861011b565b600381905560405181907f267c5d6373c1ee1a2a235a618ca7bb122c9ad7ca6e81191f2dcd8391c9839bf090600090a250565b6000546001600160a01b031633146101795760405162461bcd60e51b815260206004820181905260248201527f4f776e61626c653a2063616c6c6572206973206e6f7420746865206f776e6572604482015260640160405180910390fd5b565b608051610a7861019660003960006104780152610a786000f3fe6080604052600436106100a75760003560e01c80638da5cb5b116100645780638da5cb5b14610176578063a1db978214610194578063bfa54b3f146101b4578063d03a4045146101d4578063d41edb7b146101f4578063f2fde38b1461020a57600080fd5b806312b13216146100ac5780632e1a7d4d146100c15780633ff63582146100e1578063484f4ea9146101095780634bc3746814610141578063715018a614610161575b600080fd5b6100bf6100ba366004610937565b61022a565b005b3480156100cd57600080fd5b506100bf6100dc366004610937565b610402565b3480156100ed57600080fd5b506100f6610468565b6040519081526020015b60405180910390f35b34801561011557600080fd5b50600254610129906001600160a01b031681565b6040516001600160a01b039091168152602001610100565b34801561014d57600080fd5b506100bf61015c366004610937565b610511565b34801561016d57600080fd5b506100bf610711565b34801561018257600080fd5b506000546001600160a01b0316610129565b3480156101a057600080fd5b506100bf6101af36600461096c565b610725565b3480156101c057600080fd5b50600154610129906001600160a01b031681565b3480156101e057600080fd5b506100bf6101ef366004610937565b6107d9565b34801561020057600080fd5b506100f660035481565b34801561021657600080fd5b506100bf610225366004610996565b610814565b68056bc75e2d6310000061023c610468565b61024690836109b8565b6102519060626109b8565b61025b91906109e5565b3410156102a25760405162461bcd60e51b815260206004820152601060248201526f696e73756666696369656e742066656560801b60448201526064015b60405180910390fd5b6001546040516370a0823160e01b815230600482015282916001600160a01b0316906370a0823190602401602060405180830381865afa1580156102ea573d6000803e3d6000fd5b505050506040513d601f19601f8201168201806040525081019061030e9190610a07565b101561035c5760405162461bcd60e51b815260206004820181905260248201527f696e73756666696369656e7420424c4220696e2074686520636f6e74726163746044820152606401610299565b60015460405163a9059cbb60e01b8152336004820152602481018390526001600160a01b039091169063a9059cbb906044016020604051808303816000875af11580156103ad573d6000803e3d6000fd5b505050506040513d601f19601f820116820180604052508101906103d19190610a20565b50604051349082907f3d94153dfe80d78d2de6c8a61f1b90697fd8c09a80e182f36b1ff91b27ba12f790600090a350565b61040a61088d565b604051339082156108fc029083906000818181858888f19350505050158015610437573d6000803e3d6000fd5b5060405181906000907f884edad9ce6fa2440d8a54cc123490eb96d2768479d49ff9c7366125a9424364908290a350565b6000670de0b6b3a76400006003547f00000000000000000000000000000000000000000000000000000000000000006001600160a01b03166350d25bcd6040518163ffffffff1660e01b8152600401602060405180830381865afa1580156104d4573d6000803e3d6000fd5b505050506040513d601f19601f820116820180604052508101906104f89190610a07565b61050291906109b8565b61050c91906109e5565b905090565b6001546040516370a0823160e01b815230600482015282916001600160a01b0316906370a0823190602401602060405180830381865afa158015610559573d6000803e3d6000fd5b505050506040513d601f19601f8201168201806040525081019061057d9190610a07565b10156105cb5760405162461bcd60e51b815260206004820181905260248201527f696e73756666696369656e7420424c4220696e2074686520636f6e74726163746044820152606401610299565b6000670de0b6b3a7640000826003546105e491906109b8565b6105ee91906109e5565b6002546040516323b872dd60e01b8152336004820152306024820152604481018390529192506001600160a01b0316906323b872dd906064016020604051808303816000875af1158015610646573d6000803e3d6000fd5b505050506040513d601f19601f8201168201806040525081019061066a9190610a20565b5060015460405163a9059cbb60e01b8152336004820152602481018490526001600160a01b039091169063a9059cbb906044016020604051808303816000875af11580156106bc573d6000803e3d6000fd5b505050506040513d601f19601f820116820180604052508101906106e09190610a20565b50604051819083907e22984ba8a5aac6f326a7850fb08b1f1ddfc0a9a809be97d6138a6d1694023090600090a35050565b61071961088d565b61072360006108e7565b565b61072d61088d565b60405163a9059cbb60e01b8152336004820152602481018290526001600160a01b0383169063a9059cbb906044016020604051808303816000875af115801561077a573d6000803e3d6000fd5b505050506040513d601f19601f8201168201806040525081019061079e9190610a20565b5060405181906001600160a01b038416907f884edad9ce6fa2440d8a54cc123490eb96d2768479d49ff9c7366125a942436490600090a35050565b6107e161088d565b600381905560405181907f267c5d6373c1ee1a2a235a618ca7bb122c9ad7ca6e81191f2dcd8391c9839bf090600090a250565b61081c61088d565b6001600160a01b0381166108815760405162461bcd60e51b815260206004820152602660248201527f4f776e61626c653a206e6577206f776e657220697320746865207a65726f206160448201526564647265737360d01b6064820152608401610299565b61088a816108e7565b50565b6000546001600160a01b031633146107235760405162461bcd60e51b815260206004820181905260248201527f4f776e61626c653a2063616c6c6572206973206e6f7420746865206f776e65726044820152606401610299565b600080546001600160a01b038381166001600160a01b0319831681178455604051919092169283917f8be0079c531659141344cd1fd0a4f28419497f9722a3daafe3b4186f6b6457e09190a35050565b60006020828403121561094957600080fd5b5035919050565b80356001600160a01b038116811461096757600080fd5b919050565b6000806040838503121561097f57600080fd5b61098883610950565b946020939093013593505050565b6000602082840312156109a857600080fd5b6109b182610950565b9392505050565b60008160001904831182151516156109e057634e487b7160e01b600052601160045260246000fd5b500290565b600082610a0257634e487b7160e01b600052601260045260246000fd5b500490565b600060208284031215610a1957600080fd5b5051919050565b600060208284031215610a3257600080fd5b815180151581146109b157600080fdfea26469706673582212205740b0800e7d6564190ac8c022eb877a24746ab954f3100a5afcd93542e53a1664736f6c634300080f0033",
  "linkReferences": {},
  "deployedLinkReferences": {}
}