{
  "_format": "hh-sol-artifact-1",
  "contractName": "BLBIO",
  "sourceName": "contracts/BLBIO/BLBIO.sol",
  "abi": [
    {
      "inputs": [],
      "stateMutability": "nonpayable",
      "type": "constructor"
    },
    {
      "anonymous": false,
      "inputs": [
        {
          "indexed": true,
          "internalType": "uint256",
          "name": "amountBLB",
          "type": "uint256"
        },
        {
          "indexed": true,
          "internalType": "uint256",
          "name": "amountBNB",
          "type": "uint256"
        }
      ],
      "name": "BuyInBNB",
      "type": "event"
    },
    {
      "anonymous": false,
      "inputs": [
        {
          "indexed": true,
          "internalType": "uint256",
          "name": "amountBLB",
          "type": "uint256"
        },
        {
          "indexed": true,
          "internalType": "uint256",
          "name": "amountBUSD",
          "type": "uint256"
        }
      ],
      "name": "BuyInBUSD",
      "type": "event"
    },
    {
      "anonymous": false,
      "inputs": [
        {
          "indexed": true,
          "internalType": "address",
          "name": "previousOwner",
          "type": "address"
        },
        {
          "indexed": true,
          "internalType": "address",
          "name": "newOwner",
          "type": "address"
        }
      ],
      "name": "OwnershipTransferred",
      "type": "event"
    },
    {
      "anonymous": false,
      "inputs": [
        {
          "indexed": true,
          "internalType": "uint256",
          "name": "publicPrice",
          "type": "uint256"
        },
        {
          "indexed": true,
          "internalType": "uint256",
          "name": "privatePrice",
          "type": "uint256"
        }
      ],
      "name": "SetPriceInUSD",
      "type": "event"
    },
    {
      "anonymous": false,
      "inputs": [
        {
          "indexed": true,
          "internalType": "uint256",
          "name": "_retailLimit",
          "type": "uint256"
        }
      ],
      "name": "SetRetailLimit",
      "type": "event"
    },
    {
      "anonymous": false,
      "inputs": [
        {
          "indexed": true,
          "internalType": "address",
          "name": "tokenAddr",
          "type": "address"
        },
        {
          "indexed": true,
          "internalType": "uint256",
          "name": "amount",
          "type": "uint256"
        }
      ],
      "name": "Withdraw",
      "type": "event"
    },
    {
      "inputs": [],
      "name": "BLB",
      "outputs": [
        {
          "internalType": "contract IERC20",
          "name": "",
          "type": "address"
        }
      ],
      "stateMutability": "view",
      "type": "function"
    },
    {
      "inputs": [],
      "name": "BUSD",
      "outputs": [
        {
          "internalType": "contract IERC20",
          "name": "",
          "type": "address"
        }
      ],
      "stateMutability": "view",
      "type": "function"
    },
    {
      "inputs": [
        {
          "internalType": "uint256",
          "name": "amount",
          "type": "uint256"
        }
      ],
      "name": "buyInBNB",
      "outputs": [],
      "stateMutability": "payable",
      "type": "function"
    },
    {
      "inputs": [
        {
          "internalType": "uint256",
          "name": "amount",
          "type": "uint256"
        }
      ],
      "name": "buyInBUSD",
      "outputs": [],
      "stateMutability": "nonpayable",
      "type": "function"
    },
    {
      "inputs": [],
      "name": "owner",
      "outputs": [
        {
          "internalType": "address",
          "name": "",
          "type": "address"
        }
      ],
      "stateMutability": "view",
      "type": "function"
    },
    {
      "inputs": [
        {
          "internalType": "uint256",
          "name": "amount",
          "type": "uint256"
        }
      ],
      "name": "priceInBNB",
      "outputs": [
        {
          "internalType": "uint256",
          "name": "",
          "type": "uint256"
        }
      ],
      "stateMutability": "view",
      "type": "function"
    },
    {
      "inputs": [
        {
          "internalType": "uint256",
          "name": "amount",
          "type": "uint256"
        }
      ],
      "name": "priceInUSD",
      "outputs": [
        {
          "internalType": "uint256",
          "name": "",
          "type": "uint256"
        }
      ],
      "stateMutability": "view",
      "type": "function"
    },
    {
      "inputs": [],
      "name": "privatePriceInUSD",
      "outputs": [
        {
          "internalType": "uint256",
          "name": "",
          "type": "uint256"
        }
      ],
      "stateMutability": "view",
      "type": "function"
    },
    {
      "inputs": [],
      "name": "publicPriceInUSD",
      "outputs": [
        {
          "internalType": "uint256",
          "name": "",
          "type": "uint256"
        }
      ],
      "stateMutability": "view",
      "type": "function"
    },
    {
      "inputs": [],
      "name": "renounceOwnership",
      "outputs": [],
      "stateMutability": "nonpayable",
      "type": "function"
    },
    {
      "inputs": [],
      "name": "retailLimit",
      "outputs": [
        {
          "internalType": "uint256",
          "name": "",
          "type": "uint256"
        }
      ],
      "stateMutability": "view",
      "type": "function"
    },
    {
      "inputs": [
        {
          "internalType": "uint256",
          "name": "_publicPrice",
          "type": "uint256"
        },
        {
          "internalType": "uint256",
          "name": "_privatePrice",
          "type": "uint256"
        }
      ],
      "name": "setPriceInUSD",
      "outputs": [],
      "stateMutability": "nonpayable",
      "type": "function"
    },
    {
      "inputs": [
        {
          "internalType": "uint256",
          "name": "_retailLimit",
          "type": "uint256"
        }
      ],
      "name": "setRetailLimit",
      "outputs": [],
      "stateMutability": "nonpayable",
      "type": "function"
    },
    {
      "inputs": [
        {
          "internalType": "address",
          "name": "newOwner",
          "type": "address"
        }
      ],
      "name": "transferOwnership",
      "outputs": [],
      "stateMutability": "nonpayable",
      "type": "function"
    },
    {
      "inputs": [
        {
          "internalType": "uint256",
          "name": "amount",
          "type": "uint256"
        }
      ],
      "name": "withdraw",
      "outputs": [],
      "stateMutability": "nonpayable",
      "type": "function"
    },
    {
      "inputs": [
        {
          "internalType": "address",
          "name": "tokenAddr",
          "type": "address"
        },
        {
          "internalType": "uint256",
          "name": "amount",
          "type": "uint256"
        }
      ],
      "name": "withdrawERC20",
      "outputs": [],
      "stateMutability": "nonpayable",
      "type": "function"
    }
  ],
  "bytecode": "0x60a060405234801561001057600080fd5b5061001a336100ab565b600480546001600160a01b031990811673134341a04b11b1fd697fc57eab7d96bdbcdea414179091556005805490911673cd57b180aea8b61c7b273785748988a3a8eab9c2179055730630521ac362bc7a19a4ee44b57ce72ea34ad01c608052610094670429d069189e00006703e2c284391c00006100fb565b6100a6681b1ae4d6e2ef50000061013e565b6101d9565b600080546001600160a01b038381166001600160a01b0319831681178455604051919092169283917f8be0079c531659141344cd1fd0a4f28419497f9722a3daafe3b4186f6b6457e09190a35050565b610103610179565b60038290556002819055604051819083907ff1981ab2ec7e286f52cb5d122cdb004e782c7cd2c7ec79e9c5a07f380f94bd9d90600090a35050565b610146610179565b600181905560405181907f8585f06828ed2d9126b998a9d431d18854350c2d883a903f957b1f6e77f6ca2490600090a250565b6000546001600160a01b031633146101d75760405162461bcd60e51b815260206004820181905260248201527f4f776e61626c653a2063616c6c6572206973206e6f7420746865206f776e6572604482015260640160405180910390fd5b565b608051610bbf6101f4600039600061079a0152610bbf6000f3fe6080604052600436106100f35760003560e01c8063769bb5ac1161008a578063a1db978211610059578063a1db978214610277578063bfa54b3f14610297578063c73b2a43146102b7578063f2fde38b146102cd57600080fd5b8063769bb5ac1461020d578063790b284f1461022d5780638380c091146102435780638da5cb5b1461025957600080fd5b80634bc37468116100c65780634bc37468146101985780635b0dfa95146101b85780635d2a2c99146101d8578063715018a6146101f857600080fd5b806306dc693b146100f857806312b132161461012b5780632e1a7d4d14610140578063484f4ea914610160575b600080fd5b34801561010457600080fd5b50610118610113366004610a5c565b6102ed565b6040519081526020015b60405180910390f35b61013e610139366004610a5c565b610328565b005b34801561014c57600080fd5b5061013e61015b366004610a5c565b6104f5565b34801561016c57600080fd5b50600554610180906001600160a01b031681565b6040516001600160a01b039091168152602001610122565b3480156101a457600080fd5b5061013e6101b3366004610a5c565b61055b565b3480156101c457600080fd5b5061013e6101d3366004610a5c565b610749565b3480156101e457600080fd5b506101186101f3366004610a5c565b610784565b34801561020457600080fd5b5061013e61082e565b34801561021957600080fd5b5061013e610228366004610a75565b610842565b34801561023957600080fd5b5061011860015481565b34801561024f57600080fd5b5061011860035481565b34801561026557600080fd5b506000546001600160a01b0316610180565b34801561028357600080fd5b5061013e610292366004610ab3565b610885565b3480156102a357600080fd5b50600454610180906001600160a01b031681565b3480156102c357600080fd5b5061011860025481565b3480156102d957600080fd5b5061013e6102e8366004610add565b610939565b6000600154821161031e57670de0b6b3a76400008260035461030f9190610aff565b6103199190610b2c565b610322565b6002545b92915050565b606461033382610784565b61033e906062610aff565b6103489190610b2c565b34101561038f5760405162461bcd60e51b815260206004820152601060248201526f696e73756666696369656e742066656560801b60448201526064015b60405180910390fd5b600480546040516370a0823160e01b8152309281019290925282916001600160a01b03909116906370a0823190602401602060405180830381865afa1580156103dc573d6000803e3d6000fd5b505050506040513d601f19601f820116820180604052508101906104009190610b4e565b101561044e5760405162461bcd60e51b815260206004820181905260248201527f696e73756666696369656e7420424c4220696e2074686520636f6e74726163746044820152606401610386565b6004805460405163a9059cbb60e01b81523392810192909252602482018390526001600160a01b03169063a9059cbb906044016020604051808303816000875af11580156104a0573d6000803e3d6000fd5b505050506040513d601f19601f820116820180604052508101906104c49190610b67565b50604051349082907f3d94153dfe80d78d2de6c8a61f1b90697fd8c09a80e182f36b1ff91b27ba12f790600090a350565b6104fd6109b2565b604051339082156108fc029083906000818181858888f1935050505015801561052a573d6000803e3d6000fd5b5060405181906000907f884edad9ce6fa2440d8a54cc123490eb96d2768479d49ff9c7366125a9424364908290a350565b600480546040516370a0823160e01b8152309281019290925282916001600160a01b03909116906370a0823190602401602060405180830381865afa1580156105a8573d6000803e3d6000fd5b505050506040513d601f19601f820116820180604052508101906105cc9190610b4e565b101561061a5760405162461bcd60e51b815260206004820181905260248201527f696e73756666696369656e7420424c4220696e2074686520636f6e74726163746044820152606401610386565b6000610625826102ed565b6005546040516323b872dd60e01b8152336004820152306024820152604481018390529192506001600160a01b0316906323b872dd906064016020604051808303816000875af115801561067d573d6000803e3d6000fd5b505050506040513d601f19601f820116820180604052508101906106a19190610b67565b506004805460405163a9059cbb60e01b81523392810192909252602482018490526001600160a01b03169063a9059cbb906044016020604051808303816000875af11580156106f4573d6000803e3d6000fd5b505050506040513d601f19601f820116820180604052508101906107189190610b67565b50604051819083907e22984ba8a5aac6f326a7850fb08b1f1ddfc0a9a809be97d6138a6d1694023090600090a35050565b6107516109b2565b600181905560405181907f8585f06828ed2d9126b998a9d431d18854350c2d883a903f957b1f6e77f6ca2490600090a250565b6000670de0b6b3a7640000610798836102ed565b7f00000000000000000000000000000000000000000000000000000000000000006001600160a01b03166350d25bcd6040518163ffffffff1660e01b8152600401602060405180830381865afa1580156107f6573d6000803e3d6000fd5b505050506040513d601f19601f8201168201806040525081019061081a9190610b4e565b6108249190610aff565b6103229190610b2c565b6108366109b2565b6108406000610a0c565b565b61084a6109b2565b60038290556002819055604051819083907ff1981ab2ec7e286f52cb5d122cdb004e782c7cd2c7ec79e9c5a07f380f94bd9d90600090a35050565b61088d6109b2565b60405163a9059cbb60e01b8152336004820152602481018290526001600160a01b0383169063a9059cbb906044016020604051808303816000875af11580156108da573d6000803e3d6000fd5b505050506040513d601f19601f820116820180604052508101906108fe9190610b67565b5060405181906001600160a01b038416907f884edad9ce6fa2440d8a54cc123490eb96d2768479d49ff9c7366125a942436490600090a35050565b6109416109b2565b6001600160a01b0381166109a65760405162461bcd60e51b815260206004820152602660248201527f4f776e61626c653a206e6577206f776e657220697320746865207a65726f206160448201526564647265737360d01b6064820152608401610386565b6109af81610a0c565b50565b6000546001600160a01b031633146108405760405162461bcd60e51b815260206004820181905260248201527f4f776e61626c653a2063616c6c6572206973206e6f7420746865206f776e65726044820152606401610386565b600080546001600160a01b038381166001600160a01b0319831681178455604051919092169283917f8be0079c531659141344cd1fd0a4f28419497f9722a3daafe3b4186f6b6457e09190a35050565b600060208284031215610a6e57600080fd5b5035919050565b60008060408385031215610a8857600080fd5b50508035926020909101359150565b80356001600160a01b0381168114610aae57600080fd5b919050565b60008060408385031215610ac657600080fd5b610acf83610a97565b946020939093013593505050565b600060208284031215610aef57600080fd5b610af882610a97565b9392505050565b6000816000190483118215151615610b2757634e487b7160e01b600052601160045260246000fd5b500290565b600082610b4957634e487b7160e01b600052601260045260246000fd5b500490565b600060208284031215610b6057600080fd5b5051919050565b600060208284031215610b7957600080fd5b81518015158114610af857600080fdfea2646970667358221220877b9ac21604b7adb19e581a50d5aba69079dfae798394fd9ad76b42a90cba6064736f6c634300080f0033",
  "linkReferences": {},
  "deployedLinkReferences": {}
}