{
  "_format": "hh-sol-artifact-1",
  "contractName": "StakeBLB_BLB",
  "sourceName": "contracts/StakePool/StakeBLB_BLB.sol",
  "abi": [
    {
      "inputs": [
        {
          "internalType": "contract IERC20",
          "name": "_BUSD",
          "type": "address"
        },
        {
          "internalType": "contract IERC20",
          "name": "_BLB",
          "type": "address"
        },
        {
          "internalType": "address",
          "name": "blbSwap",
          "type": "address"
        },
        {
          "internalType": "uint256[]",
          "name": "_timePlans_",
          "type": "uint256[]"
        },
        {
          "internalType": "uint256[]",
          "name": "_investPlanAmounts_",
          "type": "uint256[]"
        },
        {
          "internalType": "uint256[]",
          "name": "_investPlanProfits_",
          "type": "uint256[]"
        }
      ],
      "stateMutability": "nonpayable",
      "type": "constructor"
    },
    {
      "anonymous": false,
      "inputs": [
        {
          "indexed": true,
          "internalType": "address",
          "name": "previousOwner",
          "type": "address"
        },
        {
          "indexed": true,
          "internalType": "address",
          "name": "newOwner",
          "type": "address"
        }
      ],
      "name": "OwnershipTransferred",
      "type": "event"
    },
    {
      "anonymous": false,
      "inputs": [
        {
          "indexed": false,
          "internalType": "address",
          "name": "account",
          "type": "address"
        }
      ],
      "name": "Paused",
      "type": "event"
    },
    {
      "anonymous": false,
      "inputs": [
        {
          "indexed": false,
          "internalType": "address",
          "name": "account",
          "type": "address"
        }
      ],
      "name": "Unpaused",
      "type": "event"
    },
    {
      "inputs": [],
      "name": "BLB",
      "outputs": [
        {
          "internalType": "contract IERC20",
          "name": "",
          "type": "address"
        }
      ],
      "stateMutability": "view",
      "type": "function"
    },
    {
      "inputs": [],
      "name": "BLBSwap",
      "outputs": [
        {
          "internalType": "contract IBLBSwap",
          "name": "",
          "type": "address"
        }
      ],
      "stateMutability": "view",
      "type": "function"
    },
    {
      "inputs": [
        {
          "internalType": "uint256",
          "name": "amountBNB",
          "type": "uint256"
        }
      ],
      "name": "BLBsForBNB",
      "outputs": [
        {
          "internalType": "uint256",
          "name": "",
          "type": "uint256"
        }
      ],
      "stateMutability": "view",
      "type": "function"
    },
    {
      "inputs": [
        {
          "internalType": "uint256",
          "name": "amountBUSD",
          "type": "uint256"
        }
      ],
      "name": "BLBsForUSD",
      "outputs": [
        {
          "internalType": "uint256",
          "name": "",
          "type": "uint256"
        }
      ],
      "stateMutability": "view",
      "type": "function"
    },
    {
      "inputs": [],
      "name": "BUSD",
      "outputs": [
        {
          "internalType": "contract IERC20",
          "name": "",
          "type": "address"
        }
      ],
      "stateMutability": "view",
      "type": "function"
    },
    {
      "inputs": [
        {
          "internalType": "uint256",
          "name": "timeInDays",
          "type": "uint256"
        }
      ],
      "name": "addTimePlan",
      "outputs": [],
      "stateMutability": "nonpayable",
      "type": "function"
    },
    {
      "inputs": [
        {
          "internalType": "uint256",
          "name": "amountBUSD",
          "type": "uint256"
        },
        {
          "internalType": "uint256",
          "name": "timeInDays",
          "type": "uint256"
        }
      ],
      "name": "buyAndStake",
      "outputs": [],
      "stateMutability": "payable",
      "type": "function"
    },
    {
      "inputs": [
        {
          "internalType": "address",
          "name": "_BLBSwap",
          "type": "address"
        }
      ],
      "name": "changeBLBSwap",
      "outputs": [],
      "stateMutability": "nonpayable",
      "type": "function"
    },
    {
      "inputs": [],
      "name": "checkpoints",
      "outputs": [
        {
          "components": [
            {
              "internalType": "uint256",
              "name": "passTime",
              "type": "uint256"
            },
            {
              "internalType": "uint256",
              "name": "saveDeposit",
              "type": "uint256"
            },
            {
              "internalType": "uint256",
              "name": "saveProfit",
              "type": "uint256"
            }
          ],
          "internalType": "struct StakeBLB_BLB.Checkpoint",
          "name": "checkpoint1_",
          "type": "tuple"
        },
        {
          "components": [
            {
              "internalType": "uint256",
              "name": "passTime",
              "type": "uint256"
            },
            {
              "internalType": "uint256",
              "name": "saveDeposit",
              "type": "uint256"
            },
            {
              "internalType": "uint256",
              "name": "saveProfit",
              "type": "uint256"
            }
          ],
          "internalType": "struct StakeBLB_BLB.Checkpoint",
          "name": "checkpoint2_",
          "type": "tuple"
        },
        {
          "components": [
            {
              "internalType": "uint256",
              "name": "passTime",
              "type": "uint256"
            },
            {
              "internalType": "uint256",
              "name": "saveDeposit",
              "type": "uint256"
            },
            {
              "internalType": "uint256",
              "name": "saveProfit",
              "type": "uint256"
            }
          ],
          "internalType": "struct StakeBLB_BLB.Checkpoint",
          "name": "checkpoint3_",
          "type": "tuple"
        }
      ],
      "stateMutability": "view",
      "type": "function"
    },
    {
      "inputs": [],
      "name": "investPlans",
      "outputs": [
        {
          "internalType": "uint256[]",
          "name": "_investPlanAmounts_",
          "type": "uint256[]"
        },
        {
          "internalType": "uint256[]",
          "name": "_investPlanProfits_",
          "type": "uint256[]"
        }
      ],
      "stateMutability": "view",
      "type": "function"
    },
    {
      "inputs": [
        {
          "internalType": "address",
          "name": "",
          "type": "address"
        },
        {
          "internalType": "uint256",
          "name": "",
          "type": "uint256"
        }
      ],
      "name": "investments",
      "outputs": [
        {
          "internalType": "uint256",
          "name": "amount",
          "type": "uint256"
        },
        {
          "internalType": "uint256",
          "name": "start",
          "type": "uint256"
        },
        {
          "internalType": "uint256",
          "name": "end",
          "type": "uint256"
        },
        {
          "internalType": "uint256",
          "name": "profit",
          "type": "uint256"
        },
        {
          "internalType": "uint256",
          "name": "claimTime",
          "type": "uint256"
        }
      ],
      "stateMutability": "view",
      "type": "function"
    },
    {
      "inputs": [
        {
          "internalType": "address",
          "name": "borrower",
          "type": "address"
        },
        {
          "internalType": "uint256",
          "name": "amount",
          "type": "uint256"
        }
      ],
      "name": "loanBLB",
      "outputs": [],
      "stateMutability": "nonpayable",
      "type": "function"
    },
    {
      "inputs": [
        {
          "internalType": "uint256",
          "name": "amount",
          "type": "uint256"
        },
        {
          "internalType": "uint256",
          "name": "timeInDays",
          "type": "uint256"
        }
      ],
      "name": "newInvestment",
      "outputs": [],
      "stateMutability": "nonpayable",
      "type": "function"
    },
    {
      "inputs": [],
      "name": "owner",
      "outputs": [
        {
          "internalType": "address",
          "name": "",
          "type": "address"
        }
      ],
      "stateMutability": "view",
      "type": "function"
    },
    {
      "inputs": [],
      "name": "pause",
      "outputs": [],
      "stateMutability": "nonpayable",
      "type": "function"
    },
    {
      "inputs": [],
      "name": "paused",
      "outputs": [
        {
          "internalType": "bool",
          "name": "",
          "type": "bool"
        }
      ],
      "stateMutability": "view",
      "type": "function"
    },
    {
      "inputs": [
        {
          "internalType": "address[]",
          "name": "users",
          "type": "address[]"
        },
        {
          "internalType": "uint256[]",
          "name": "amounts",
          "type": "uint256[]"
        }
      ],
      "name": "pay",
      "outputs": [],
      "stateMutability": "nonpayable",
      "type": "function"
    },
    {
      "inputs": [
        {
          "internalType": "address",
          "name": "user",
          "type": "address"
        },
        {
          "internalType": "uint256",
          "name": "amount",
          "type": "uint256"
        }
      ],
      "name": "pay",
      "outputs": [],
      "stateMutability": "nonpayable",
      "type": "function"
    },
    {
      "inputs": [
        {
          "internalType": "address",
          "name": "investor",
          "type": "address"
        }
      ],
      "name": "pendingWithdrawal",
      "outputs": [
        {
          "internalType": "uint256",
          "name": "total",
          "type": "uint256"
        }
      ],
      "stateMutability": "view",
      "type": "function"
    },
    {
      "inputs": [
        {
          "internalType": "address",
          "name": "investor",
          "type": "address"
        },
        {
          "internalType": "uint256",
          "name": "investmentId",
          "type": "uint256"
        }
      ],
      "name": "pendingWithdrawal",
      "outputs": [
        {
          "internalType": "uint256",
          "name": "",
          "type": "uint256"
        }
      ],
      "stateMutability": "view",
      "type": "function"
    },
    {
      "inputs": [
        {
          "internalType": "uint256",
          "name": "investingAmount",
          "type": "uint256"
        },
        {
          "internalType": "uint256",
          "name": "duration",
          "type": "uint256"
        }
      ],
      "name": "profitCalculator",
      "outputs": [
        {
          "internalType": "uint256",
          "name": "profit",
          "type": "uint256"
        }
      ],
      "stateMutability": "view",
      "type": "function"
    },
    {
      "inputs": [
        {
          "internalType": "address",
          "name": "investor",
          "type": "address"
        },
        {
          "internalType": "uint256",
          "name": "investmentId",
          "type": "uint256"
        }
      ],
      "name": "releaseTime",
      "outputs": [
        {
          "internalType": "uint256",
          "name": "",
          "type": "uint256"
        }
      ],
      "stateMutability": "view",
      "type": "function"
    },
    {
      "inputs": [
        {
          "internalType": "uint256",
          "name": "timeInDays",
          "type": "uint256"
        }
      ],
      "name": "removeTimePlan",
      "outputs": [],
      "stateMutability": "nonpayable",
      "type": "function"
    },
    {
      "inputs": [],
      "name": "renounceOwnership",
      "outputs": [],
      "stateMutability": "nonpayable",
      "type": "function"
    },
    {
      "inputs": [
        {
          "internalType": "uint256",
          "name": "passTime1",
          "type": "uint256"
        },
        {
          "internalType": "uint256",
          "name": "saveDeposit1",
          "type": "uint256"
        },
        {
          "internalType": "uint256",
          "name": "saveProfit1",
          "type": "uint256"
        },
        {
          "internalType": "uint256",
          "name": "passTime2",
          "type": "uint256"
        },
        {
          "internalType": "uint256",
          "name": "saveDeposit2",
          "type": "uint256"
        },
        {
          "internalType": "uint256",
          "name": "saveProfit2",
          "type": "uint256"
        },
        {
          "internalType": "uint256",
          "name": "passTime3",
          "type": "uint256"
        },
        {
          "internalType": "uint256",
          "name": "saveDeposit3",
          "type": "uint256"
        },
        {
          "internalType": "uint256",
          "name": "saveProfit3",
          "type": "uint256"
        }
      ],
      "name": "setCheckpoints",
      "outputs": [],
      "stateMutability": "nonpayable",
      "type": "function"
    },
    {
      "inputs": [
        {
          "internalType": "uint256[]",
          "name": "_investPlanAmounts_",
          "type": "uint256[]"
        },
        {
          "internalType": "uint256[]",
          "name": "_investPlanProfits_",
          "type": "uint256[]"
        }
      ],
      "name": "setInvestPlans",
      "outputs": [],
      "stateMutability": "nonpayable",
      "type": "function"
    },
    {
      "inputs": [],
      "name": "timePlans",
      "outputs": [
        {
          "internalType": "uint256[]",
          "name": "",
          "type": "uint256[]"
        }
      ],
      "stateMutability": "view",
      "type": "function"
    },
    {
      "inputs": [
        {
          "internalType": "uint256",
          "name": "addingAmount",
          "type": "uint256"
        },
        {
          "internalType": "uint256",
          "name": "investmentId",
          "type": "uint256"
        }
      ],
      "name": "topUp",
      "outputs": [],
      "stateMutability": "nonpayable",
      "type": "function"
    },
    {
      "inputs": [
        {
          "internalType": "uint256",
          "name": "amountBUSD",
          "type": "uint256"
        },
        {
          "internalType": "uint256",
          "name": "investmentId",
          "type": "uint256"
        }
      ],
      "name": "topUpPayable",
      "outputs": [],
      "stateMutability": "payable",
      "type": "function"
    },
    {
      "inputs": [],
      "name": "totalDepositBLB",
      "outputs": [
        {
          "internalType": "uint256",
          "name": "",
          "type": "uint256"
        }
      ],
      "stateMutability": "view",
      "type": "function"
    },
    {
      "inputs": [],
      "name": "totalPendingBLB",
      "outputs": [
        {
          "internalType": "uint256",
          "name": "",
          "type": "uint256"
        }
      ],
      "stateMutability": "view",
      "type": "function"
    },
    {
      "inputs": [
        {
          "internalType": "address",
          "name": "newOwner",
          "type": "address"
        }
      ],
      "name": "transferOwnership",
      "outputs": [],
      "stateMutability": "nonpayable",
      "type": "function"
    },
    {
      "inputs": [],
      "name": "unpause",
      "outputs": [],
      "stateMutability": "nonpayable",
      "type": "function"
    },
    {
      "inputs": [
        {
          "internalType": "address",
          "name": "investor",
          "type": "address"
        }
      ],
      "name": "userInvestments",
      "outputs": [
        {
          "components": [
            {
              "internalType": "uint256",
              "name": "amount",
              "type": "uint256"
            },
            {
              "internalType": "uint256",
              "name": "start",
              "type": "uint256"
            },
            {
              "internalType": "uint256",
              "name": "end",
              "type": "uint256"
            },
            {
              "internalType": "uint256",
              "name": "profit",
              "type": "uint256"
            },
            {
              "internalType": "uint256",
              "name": "claimTime",
              "type": "uint256"
            }
          ],
          "internalType": "struct StakeBLB_BLB.Investment[]",
          "name": "",
          "type": "tuple[]"
        }
      ],
      "stateMutability": "view",
      "type": "function"
    },
    {
      "inputs": [
        {
          "internalType": "address",
          "name": "investor",
          "type": "address"
        }
      ],
      "name": "userTotalStake",
      "outputs": [
        {
          "internalType": "uint256",
          "name": "totalStake",
          "type": "uint256"
        }
      ],
      "stateMutability": "view",
      "type": "function"
    },
    {
      "inputs": [
        {
          "internalType": "uint256",
          "name": "investmentId",
          "type": "uint256"
        }
      ],
      "name": "withdraw",
      "outputs": [],
      "stateMutability": "nonpayable",
      "type": "function"
    }
  ],
  "bytecode": "0x60806040523480156200001157600080fd5b50604051620035ab380380620035ab833981016040819052620000349162000723565b6200003f3362000115565b6000805460ff60a01b19168155600180546001600160a01b03808a166001600160a01b031992831617909255600280548984169083161790556003805492881692909116919091179055620000a09060508160326064828482602862000165565b825160005b81811015620000fb57620000e5858281518110620000c757620000c7620007f4565b602002602001015160106200032660201b6200235e1790919060201c565b5080620000f28162000820565b915050620000a5565b506200010883836200033d565b5050505050505062000852565b600080546001600160a01b038381166001600160a01b0319831681178455604051919092169283917f8be0079c531659141344cd1fd0a4f28419497f9722a3daafe3b4186f6b6457e09190a35050565b6200016f62000539565b85891080156200017e57508286105b620001df5760405162461bcd60e51b815260206004820152602660248201527f506173732054696d6573206d75737420626520696e6372656173696e6720696e604482015265206120726f7760d01b60648201526084015b60405180910390fd5b848811158015620001f05750818511155b620002445760405162461bcd60e51b815260206004820152602e60248201526000805160206200358b83398151915260448201526d6173696e6720696e206120726f7760901b6064820152608401620001d6565b838711158015620002555750808411155b620002a95760405162461bcd60e51b815260206004820152602e60248201526000805160206200358b83398151915260448201526d6173696e6720696e206120726f7760901b6064820152608401620001d6565b60408051606080820183528b825260208083018c90529183018a905260079b909b556008999099556009979097558651808a0188528681528089018690528701849052600a95909555600b93909355600c919091558351958601845280865293850181905293909101819052600d91909155600e91909155600f55565b600062000334838362000597565b90505b92915050565b6200034762000539565b8151815181146200039b5760405162461bcd60e51b815260206004820152601a60248201527f617272617973206c656e677468206d7573742062652073616d650000000000006044820152606401620001d6565b60015b81811015620005075783620003b56001836200083c565b81518110620003c857620003c8620007f4565b6020026020010151848281518110620003e557620003e5620007f4565b602002602001015111620004485760405162461bcd60e51b815260206004820152602360248201527f616d6f756e7473206d75737420626520696e6372656173696e6720696e206120604482015262726f7760e81b6064820152608401620001d6565b82620004566001836200083c565b81518110620004695762000469620007f4565b6020026020010151838281518110620004865762000486620007f4565b60200260200101511015620004f25760405162461bcd60e51b815260206004820152602b60248201527f70726f66697473206d7573742062652073616d65206f7220696e63726561736960448201526a6e6720696e206120726f7760a81b6064820152608401620001d6565b80620004fe8162000820565b9150506200039e565b5082516200051d906012906020860190620005e9565b50815162000533906013906020850190620005e9565b50505050565b6000546001600160a01b03163314620005955760405162461bcd60e51b815260206004820181905260248201527f4f776e61626c653a2063616c6c6572206973206e6f7420746865206f776e65726044820152606401620001d6565b565b6000818152600183016020526040812054620005e05750815460018181018455600084815260208082209093018490558454848252828601909352604090209190915562000337565b50600062000337565b82805482825590600052602060002090810192821562000627579160200282015b82811115620006275782518255916020019190600101906200060a565b506200063592915062000639565b5090565b5b808211156200063557600081556001016200063a565b6001600160a01b03811681146200066657600080fd5b50565b634e487b7160e01b600052604160045260246000fd5b600082601f8301126200069157600080fd5b815160206001600160401b0380831115620006b057620006b062000669565b8260051b604051601f19603f83011681018181108482111715620006d857620006d862000669565b604052938452858101830193838101925087851115620006f757600080fd5b83870191505b848210156200071857815183529183019190830190620006fd565b979650505050505050565b60008060008060008060c087890312156200073d57600080fd5b86516200074a8162000650565b60208801519096506200075d8162000650565b6040880151909550620007708162000650565b60608801519094506001600160401b03808211156200078e57600080fd5b6200079c8a838b016200067f565b94506080890151915080821115620007b357600080fd5b620007c18a838b016200067f565b935060a0890151915080821115620007d857600080fd5b50620007e789828a016200067f565b9150509295509295509295565b634e487b7160e01b600052603260045260246000fd5b634e487b7160e01b600052601160045260246000fd5b6000600182016200083557620008356200080a565b5060010190565b818103818111156200033757620003376200080a565b612d2980620008626000396000f3fe60806040526004361061020f5760003560e01c806378f45b4411610118578063bdba43f1116100a0578063de643a711161006f578063de643a7114610676578063e753f5ac14610696578063e88cf1b4146106b6578063f2fde38b146106cc578063fe22f4cc146106ec57600080fd5b8063bdba43f1146105f4578063bfa54b3f14610616578063c407687614610636578063d3399e001461065657600080fd5b806394f88b1d116100e757806394f88b1d14610547578063a2fa0c7514610567578063af635ad014610587578063b023eba5146105a7578063bc07d85c146105d457600080fd5b806378f45b44146104d15780637fa95fa9146104f45780638456cb59146105145780638da5cb5b1461052957600080fd5b80634668d8661161019b5780635b7533511161016a5780635b753351146104325780635b91c512146104525780635c975abb146104725780635fd033311461049c578063715018a6146104bc57600080fd5b80634668d8661461034f578063484f4ea91461036f5780634983c3ab146103a75780635a48c0b0146103c757600080fd5b80632bf0da7e116101e25780632bf0da7e1461029f5780632cc711c1146102bf5780632e1a7d4d146102d25780633e6d9770146102f25780633f4ba83a1461033a57600080fd5b8063084ce708146102145780630964c95b146102365780630c736b3514610269578063285833651461027f575b600080fd5b34801561022057600080fd5b5061023461022f3660046127cb565b6106ff565b005b34801561024257600080fd5b50610256610251366004612853565b61082f565b6040519081526020015b60405180910390f35b34801561027557600080fd5b5061025660045481565b34801561028b57600080fd5b5061023461029a36600461286e565b610881565b3480156102ab57600080fd5b506102566102ba366004612890565b610a07565b6102346102cd36600461286e565b610bc9565b3480156102de57600080fd5b506102346102ed3660046128ba565b610f00565b3480156102fe57600080fd5b5061031261030d366004612890565b61111a565b604080519586526020860194909452928401919091526060830152608082015260a001610260565b34801561034657600080fd5b50610234611168565b34801561035b57600080fd5b5061023461036a3660046128d3565b61117a565b34801561037b57600080fd5b5060015461038f906001600160a01b031681565b6040516001600160a01b039091168152602001610260565b3480156103b357600080fd5b506102566103c2366004612890565b6112c0565b3480156103d357600080fd5b506103dc611304565b6040805184518152602080860151818301529482015181830152835160608201528484015160808201529281015160a0840152815160c08401529281015160e08301529091015161010082015261012001610260565b34801561043e57600080fd5b5061023461044d3660046128ba565b6113d7565b34801561045e57600080fd5b5061025661046d366004612853565b611455565b34801561047e57600080fd5b50600054600160a01b900460ff166040519015158152602001610260565b3480156104a857600080fd5b506102566104b73660046128ba565b6114f0565b3480156104c857600080fd5b5061023461155f565b3480156104dd57600080fd5b506104e6611571565b60405161026092919061296d565b34801561050057600080fd5b5061023461050f3660046128ba565b61161e565b34801561052057600080fd5b50610234611694565b34801561053557600080fd5b506000546001600160a01b031661038f565b34801561055357600080fd5b5061025661056236600461286e565b6116a4565b34801561057357600080fd5b50610234610582366004612890565b6117aa565b34801561059357600080fd5b506102346105a2366004612a4c565b61182f565b3480156105b357600080fd5b506105c76105c2366004612853565b611a0b565b6040516102609190612ab0565b3480156105e057600080fd5b506102566105ef3660046128ba565b611ab2565b34801561060057600080fd5b50610609611ae4565b6040516102609190612b1e565b34801561062257600080fd5b5060025461038f906001600160a01b031681565b34801561064257600080fd5b50610234610651366004612890565b611af5565b34801561066257600080fd5b50610234610671366004612853565b611b29565b34801561068257600080fd5b5061023461069136600461286e565b611b53565b3480156106a257600080fd5b5060035461038f906001600160a01b031681565b3480156106c257600080fd5b5061025660055481565b3480156106d857600080fd5b506102346106e7366004612853565b611e47565b6102346106fa36600461286e565b611ec0565b828181146107545760405162461bcd60e51b815260206004820152601c60248201527f4c69737473206d7573742062652073616d6520696e206c656e6774680000000060448201526064015b60405180910390fd5b3360005b82811015610826576002546001600160a01b03166323b872dd8389898581811061078457610784612b31565b90506020020160208101906107999190612853565b8888868181106107ab576107ab612b31565b905060200201356040518463ffffffff1660e01b81526004016107d093929190612b47565b6020604051808303816000875af11580156107ef573d6000803e3d6000fd5b505050506040513d601f19601f820116820180604052508101906108139190612b6b565b508061081e81612ba3565b915050610758565b50505050505050565b6001600160a01b038116600090815260066020526040812054815b8181101561087a5761085c8482610a07565b6108669084612bbc565b92508061087281612ba3565b91505061084a565b5050919050565b610889612371565b6108946010826123be565b6108b05760405162461bcd60e51b815260040161074b90612bcf565b60006108bf8262015180612c13565b9050334260006108cf8483612bbc565b905060006108dd87866116a4565b6002546040516323b872dd60e01b81529192506001600160a01b0316906323b872dd9061091290879030908c90600401612b47565b6020604051808303816000875af1158015610931573d6000803e3d6000fd5b505050506040513d601f19601f820116820180604052508101906109559190612b6b565b506001600160a01b0384166000908152600660209081526040808320815160a0810183528b815280840188815292810187815260608201878152608083018781528454600181810187559589529688209351600590970290930195865593519285019290925590516002840155905160038301555160049182015580548992906109e0908490612bbc565b9250508190555080600560008282546109f99190612bbc565b909155505050505050505050565b6001600160a01b0382166000908152600660205260408120805482919084908110610a3457610a34612b31565b6000918252602082206001600590920201908101546002820154919350829142919083610a618383612c2a565b8754600389015491925090838610610a7e57819750809650610bad565b84606484600d60000154610a929190612c13565b610a9c9190612c3d565b610aa69190612bbc565b8610610aea57600e54606490610abc9084612c13565b610ac69190612c3d565b600f54909850606490610ad99083612c13565b610ae39190612c3d565b9650610bad565b84606484600a60000154610afe9190612c13565b610b089190612c3d565b610b129190612bbc565b8610610b4557600b54606490610b289084612c13565b610b329190612c3d565b600c54909850606490610ad99083612c13565b84606484600760000154610b599190612c13565b610b639190612c3d565b610b6d9190612bbc565b8610610bad57600854606490610b839084612c13565b610b8d9190612c3d565b600954909850606490610ba09083612c13565b610baa9190612c3d565b96505b610bb78789612bbc565b99505050505050505050505b92915050565b610bd1612371565b610bdc6010826123be565b610bf85760405162461bcd60e51b815260040161074b90612bcf565b6000610c078262015180612c13565b90503360008415610d74573415610c785760405162461bcd60e51b815260206004820152602f60248201527f6e6f7420616c6c6f77656420746f2062757920696e204255534420616e64204260448201526e4e4220696e2073616d652074696d6560881b606482015260840161074b565b600354604051632f01f61760e21b8152600481018790526001600160a01b039091169063bc07d85c90602401602060405180830381865afa158015610cc1573d6000803e3d6000fd5b505050506040513d601f19601f82011682018060405250810190610ce59190612c5f565b6001549091506001600160a01b03166323b872dd83610d0c6000546001600160a01b031690565b886040518463ffffffff1660e01b8152600401610d2b93929190612b47565b6020604051808303816000875af1158015610d4a573d6000803e3d6000fd5b505050506040513d601f19601f82011682018060405250810190610d6e9190612b6b565b50610e2e565b600354604051635fd0333160e01b81523460048201526001600160a01b0390911690635fd0333190602401602060405180830381865afa158015610dbc573d6000803e3d6000fd5b505050506040513d601f19601f82011682018060405250810190610de09190612c5f565b9050610df46000546001600160a01b031690565b6001600160a01b03166108fc349081150290604051600060405180830381858888f19350505050158015610e2c573d6000803e3d6000fd5b505b426000610e3b8583612bbc565b90506000610e4984876116a4565b6001600160a01b0386166000908152600660209081526040808320815160a08101835289815280840189815292810188815260608201878152608083018781528454600181810187559589529688209351600590970290930195865593519285019290925590516002840155905160038301555160049182015580549293508692909190610ed8908490612bbc565b925050819055508060056000828254610ef19190612bbc565b90915550505050505050505050565b336000818152600660205260408120805484908110610f2157610f21612b31565b906000526020600020906005020190506000610f3d8385610a07565b905060008111610f8f5760405162461bcd60e51b815260206004820152601e60248201527f5374616b65506f6f6c3a206e6f7468696e6720746f2077697468647261770000604482015260640161074b565b426004838101919091556002546040516370a0823160e01b8152309281019290925282916001600160a01b03909116906370a0823190602401602060405180830381865afa158015610fe5573d6000803e3d6000fd5b505050506040513d601f19601f820116820180604052508101906110099190612c5f565b116110675760405162461bcd60e51b815260206004820152602860248201527f696e73756666696369656e7420424c422062616c616e636520696e207468652060448201526718dbdb9d1c9858dd60c21b606482015260840161074b565b60025460405163a9059cbb60e01b81526001600160a01b038581166004830152602482018490529091169063a9059cbb906044016020604051808303816000875af11580156110ba573d6000803e3d6000fd5b505050506040513d601f19601f820116820180604052508101906110de9190612b6b565b508154600480546000906110f3908490612c2a565b909155505060038201546005805460009061110f908490612c2a565b909155505050505050565b6006602052816000526040600020818154811061113657600080fd5b600091825260209091206005909102018054600182015460028301546003840154600490940154929550909350919085565b6111706123d6565b611178612430565b565b6111826123d6565b858910801561119057508286105b6111eb5760405162461bcd60e51b815260206004820152602660248201527f506173732054696d6573206d75737420626520696e6372656173696e6720696e604482015265206120726f7760d01b606482015260840161074b565b8488111580156111fb5750818511155b6112175760405162461bcd60e51b815260040161074b90612c78565b8387111580156112275750808411155b6112435760405162461bcd60e51b815260040161074b90612c78565b60408051606080820183528b825260208083018c90529183018a905260079b909b556008999099556009979097558651808a0188528681528089018690528701849052600a95909555600b93909355600c919091558351958601845280865293850181905293909101819052600d91909155600e91909155600f55565b6001600160a01b03821660009081526006602052604081208054839081106112ea576112ea612b31565b906000526020600020906005020160020154905092915050565b61132860405180606001604052806000815260200160008152602001600081525090565b61134c60405180606001604052806000815260200160008152602001600081525090565b61137060405180606001604052806000815260200160008152602001600081525090565b5050604080516060808201835260075482526008546020808401919091526009548385015283518083018552600a548152600b5481830152600c548186015284519283018552600d548352600e5491830191909152600f5493820193909352909391925090565b6113df6123d6565b6113ea6010826123be565b156114465760405162461bcd60e51b815260206004820152602660248201527f54696d6520706c616e20616c72656164792065786973747320696e205f74696d60448201526565506c616e7360d01b606482015260840161074b565b61145160108261235e565b5050565b6001600160a01b03811660009081526006602052604081208054825b818110156114e85782818154811061148b5761148b612b31565b9060005260206000209060050201600401546000036114d6578281815481106114b6576114b6612b31565b906000526020600020906005020160000154846114d39190612bbc565b93505b806114e081612ba3565b915050611471565b505050919050565b600354604051635fd0333160e01b8152600481018390526000916001600160a01b031690635fd03331906024015b602060405180830381865afa15801561153b573d6000803e3d6000fd5b505050506040513d601f19601f82011682018060405250810190610bc39190612c5f565b6115676123d6565b6111786000612485565b60608060128054806020026020016040519081016040528092919081815260200182805480156115c057602002820191906000526020600020905b8154815260200190600101908083116115ac575b50505050509150601380548060200260200160405190810160405280929190818152602001828054801561161357602002820191906000526020600020905b8154815260200190600101908083116115ff575b505050505090509091565b6116266123d6565b6116316010826123be565b6116895760405162461bcd60e51b815260206004820152602360248201527f54696d6520706c616e73206d75737420657869737420696e205f74696d65506c604482015262616e7360e81b606482015260840161074b565b6114516010826124d5565b61169c6123d6565b6111786124e1565b601254600090805b80156117525760126116bf600183612c2a565b815481106116cf576116cf612b31565b906000526020600020015485106117405762278d008461271060136116f5600186612c2a565b8154811061170557611705612b31565b90600052602060002001548861171b9190612c13565b6117259190612c3d565b61172f9190612c13565b6117399190612c3d565b9250611752565b8061174a81612cc6565b9150506116ac565b50816000036117a35760405162461bcd60e51b815260206004820152601760248201527f6e6f20706c616e20666f72207468697320616d6f756e74000000000000000000604482015260640161074b565b5092915050565b6117b26123d6565b60025460405163a9059cbb60e01b81526001600160a01b038481166004830152602482018490529091169063a9059cbb906044015b6020604051808303816000875af1158015611806573d6000803e3d6000fd5b505050506040513d601f19601f8201168201806040525081019061182a9190612b6b565b505050565b6118376123d6565b8151815181146118895760405162461bcd60e51b815260206004820152601a60248201527f617272617973206c656e677468206d7573742062652073616d65000000000000604482015260640161074b565b60015b818110156119dd57836118a0600183612c2a565b815181106118b0576118b0612b31565b60200260200101518482815181106118ca576118ca612b31565b60200260200101511161192b5760405162461bcd60e51b815260206004820152602360248201527f616d6f756e7473206d75737420626520696e6372656173696e6720696e206120604482015262726f7760e81b606482015260840161074b565b82611937600183612c2a565b8151811061194757611947612b31565b602002602001015183828151811061196157611961612b31565b602002602001015110156119cb5760405162461bcd60e51b815260206004820152602b60248201527f70726f66697473206d7573742062652073616d65206f7220696e63726561736960448201526a6e6720696e206120726f7760a81b606482015260840161074b565b806119d581612ba3565b91505061188c565b5082516119f190601290602086019061271f565b508151611a0590601390602085019061271f565b50505050565b6001600160a01b0381166000908152600660209081526040808320805482518185028101850190935280835260609492939192909184015b82821015611aa757838290600052602060002090600502016040518060a00160405290816000820154815260200160018201548152602001600282015481526020016003820154815260200160048201548152505081526020019060010190611a43565b505050509050919050565b600354604051632f01f61760e21b8152600481018390526000916001600160a01b03169063bc07d85c9060240161151e565b6060611af06010612524565b905090565b6002546040516323b872dd60e01b81526001600160a01b03909116906323b872dd906117e790339086908690600401612b47565b611b316123d6565b600380546001600160a01b0319166001600160a01b0392909216919091179055565b611b5b612371565b33600081815260066020526040812080544292919085908110611b8057611b80612b31565b600091825260208083206040805160a0810182526005909402909101805484526001810154928401839052600281015491840182905260038101546060850152600401546080840152919350611bd591612c2a565b905081604001518310611c1f5760405162461bcd60e51b81526020600482015260126024820152711a5b9d995cdd1b595b9d08195e1c1a5c995960721b604482015260640161074b565b600081836020015185611c329190612c2a565b8460600151611c419190612c13565b611c4b9190612c3d565b90506000611c72888560000151611c629190612bbc565b8686604001516105629190612c2a565b6060850151909150611c848284612bbc565b11611cd15760405162461bcd60e51b815260206004820152601c60248201527f7468652070726f666974206973206e6f7420696e6372656173696e6700000000604482015260640161074b565b6060840151600090611ce38385612bbc565b611ced9190612c2a565b6002546040516323b872dd60e01b81529192506001600160a01b0316906323b872dd90611d22908a9030908e90600401612b47565b6020604051808303816000875af1158015611d41573d6000803e3d6000fd5b505050506040513d601f19601f82011682018060405250810190611d659190612b6b565b506001600160a01b038716600090815260066020526040902080548a91908a908110611d9357611d93612b31565b90600052602060002090600502016000016000828254611db39190612bbc565b90915550506001600160a01b038716600090815260066020526040902080548291908a908110611de557611de5612b31565b90600052602060002090600502016003016000828254611e059190612bbc565b925050819055508860046000828254611e1e9190612bbc565b925050819055508060056000828254611e379190612bbc565b9091555050505050505050505050565b611e4f6123d6565b6001600160a01b038116611eb45760405162461bcd60e51b815260206004820152602660248201527f4f776e61626c653a206e6577206f776e657220697320746865207a65726f206160448201526564647265737360d01b606482015260840161074b565b611ebd81612485565b50565b611ec8612371565b6000338315612035573415611f395760405162461bcd60e51b815260206004820152603160248201527f6e6f7420616c6c6f77656420746f20746f70557020696e204255534420616e6460448201527020424e4220696e2073616d652074696d6560781b606482015260840161074b565b600354604051632f01f61760e21b8152600481018690526001600160a01b039091169063bc07d85c90602401602060405180830381865afa158015611f82573d6000803e3d6000fd5b505050506040513d601f19601f82011682018060405250810190611fa69190612c5f565b6001549092506001600160a01b03166323b872dd82611fcd6000546001600160a01b031690565b876040518463ffffffff1660e01b8152600401611fec93929190612b47565b6020604051808303816000875af115801561200b573d6000803e3d6000fd5b505050506040513d601f19601f8201168201806040525081019061202f9190612b6b565b506120ef565b600354604051635fd0333160e01b81523460048201526001600160a01b0390911690635fd0333190602401602060405180830381865afa15801561207d573d6000803e3d6000fd5b505050506040513d601f19601f820116820180604052508101906120a19190612c5f565b91506120b56000546001600160a01b031690565b6001600160a01b03166108fc349081150290604051600060405180830381858888f193505050501580156120ed573d6000803e3d6000fd5b505b6001600160a01b03811660009081526006602052604081208054429291908690811061211d5761211d612b31565b600091825260208083206040805160a081018252600590940290910180548452600181015492840183905260028101549184018290526003810154606085015260040154608084015291935061217291612c2a565b9050816040015183106121bc5760405162461bcd60e51b81526020600482015260126024820152711a5b9d995cdd1b595b9d08195e1c1a5c995960721b604482015260640161074b565b6000818360200151856121cf9190612c2a565b84606001516121de9190612c13565b6121e89190612c3d565b905060006121ff878560000151611c629190612bbc565b60608501519091506122118284612bbc565b1161225e5760405162461bcd60e51b815260206004820152601c60248201527f7468652070726f666974206973206e6f7420696e6372656173696e6700000000604482015260640161074b565b60608401516000906122708385612bbc565b61227a9190612c2a565b6001600160a01b0388166000908152600660205260409020805491925089918b9081106122a9576122a9612b31565b906000526020600020906005020160000160008282546122c99190612bbc565b90915550506001600160a01b038716600090815260066020526040902080548291908b9081106122fb576122fb612b31565b9060005260206000209060050201600301600082825461231b9190612bbc565b9250508190555087600460008282546123349190612bbc565b92505081905550806005600082825461234d9190612bbc565b909155505050505050505050505050565b600061236a8383612531565b9392505050565b600054600160a01b900460ff16156111785760405162461bcd60e51b815260206004820152601060248201526f14185d5cd8589b194e881c185d5cd95960821b604482015260640161074b565b6000818152600183016020526040812054151561236a565b6000546001600160a01b031633146111785760405162461bcd60e51b815260206004820181905260248201527f4f776e61626c653a2063616c6c6572206973206e6f7420746865206f776e6572604482015260640161074b565b612438612580565b6000805460ff60a01b191690557f5db9ee0a495bf2e6ff9c91a7834c1ba4fdd244a5e8aa4e537bd38aeae4b073aa335b6040516001600160a01b03909116815260200160405180910390a1565b600080546001600160a01b038381166001600160a01b0319831681178455604051919092169283917f8be0079c531659141344cd1fd0a4f28419497f9722a3daafe3b4186f6b6457e09190a35050565b600061236a83836125d0565b6124e9612371565b6000805460ff60a01b1916600160a01b1790557f62e78cea01bee320cd4e420270b5ea74000d11b0c9f74754ebdbfc544b05a2586124683390565b6060600061236a836126c3565b600081815260018301602052604081205461257857508154600181810184556000848152602080822090930184905584548482528286019093526040902091909155610bc3565b506000610bc3565b600054600160a01b900460ff166111785760405162461bcd60e51b815260206004820152601460248201527314185d5cd8589b194e881b9bdd081c185d5cd95960621b604482015260640161074b565b600081815260018301602052604081205480156126b95760006125f4600183612c2a565b855490915060009061260890600190612c2a565b905081811461266d57600086600001828154811061262857612628612b31565b906000526020600020015490508087600001848154811061264b5761264b612b31565b6000918252602080832090910192909255918252600188019052604090208390555b855486908061267e5761267e612cdd565b600190038181906000526020600020016000905590558560010160008681526020019081526020016000206000905560019350505050610bc3565b6000915050610bc3565b60608160000180548060200260200160405190810160405280929190818152602001828054801561271357602002820191906000526020600020905b8154815260200190600101908083116126ff575b50505050509050919050565b82805482825590600052602060002090810192821561275a579160200282015b8281111561275a57825182559160200191906001019061273f565b5061276692915061276a565b5090565b5b80821115612766576000815560010161276b565b60008083601f84011261279157600080fd5b50813567ffffffffffffffff8111156127a957600080fd5b6020830191508360208260051b85010111156127c457600080fd5b9250929050565b600080600080604085870312156127e157600080fd5b843567ffffffffffffffff808211156127f957600080fd5b6128058883890161277f565b9096509450602087013591508082111561281e57600080fd5b5061282b8782880161277f565b95989497509550505050565b80356001600160a01b038116811461284e57600080fd5b919050565b60006020828403121561286557600080fd5b61236a82612837565b6000806040838503121561288157600080fd5b50508035926020909101359150565b600080604083850312156128a357600080fd5b6128ac83612837565b946020939093013593505050565b6000602082840312156128cc57600080fd5b5035919050565b60008060008060008060008060006101208a8c0312156128f257600080fd5b505087359960208901359950604089013598606081013598506080810135975060a0810135965060c0810135955060e08101359450610100013592509050565b600081518084526020808501945080840160005b8381101561296257815187529582019590820190600101612946565b509495945050505050565b6040815260006129806040830185612932565b82810360208401526129928185612932565b95945050505050565b634e487b7160e01b600052604160045260246000fd5b600082601f8301126129c257600080fd5b8135602067ffffffffffffffff808311156129df576129df61299b565b8260051b604051601f19603f83011681018181108482111715612a0457612a0461299b565b604052938452858101830193838101925087851115612a2257600080fd5b83870191505b84821015612a4157813583529183019190830190612a28565b979650505050505050565b60008060408385031215612a5f57600080fd5b823567ffffffffffffffff80821115612a7757600080fd5b612a83868387016129b1565b93506020850135915080821115612a9957600080fd5b50612aa6858286016129b1565b9150509250929050565b602080825282518282018190526000919060409081850190868401855b82811015612b115781518051855286810151878601528581015186860152606080820151908601526080908101519085015260a09093019290850190600101612acd565b5091979650505050505050565b60208152600061236a6020830184612932565b634e487b7160e01b600052603260045260246000fd5b6001600160a01b039384168152919092166020820152604081019190915260600190565b600060208284031215612b7d57600080fd5b8151801515811461236a57600080fd5b634e487b7160e01b600052601160045260246000fd5b600060018201612bb557612bb5612b8d565b5060010190565b80820180821115610bc357610bc3612b8d565b60208082526024908201527f7468657265206973206e6f20737563682074696d6520706c616e20617661696c60408201526361626c6560e01b606082015260800190565b8082028115828204841417610bc357610bc3612b8d565b81810381811115610bc357610bc3612b8d565b600082612c5a57634e487b7160e01b600052601260045260246000fd5b500490565b600060208284031215612c7157600080fd5b5051919050565b6020808252602e908201527f506173732054696d6573206d7573742062652073616d65206f7220696e63726560408201526d6173696e6720696e206120726f7760901b606082015260800190565b600081612cd557612cd5612b8d565b506000190190565b634e487b7160e01b600052603160045260246000fdfea2646970667358221220a1e8215bc0adfe618d7432cad75441ee7d0ca5739d6c09adc8f31a1fa3dca7fe64736f6c63430008120033506173732054696d6573206d7573742062652073616d65206f7220696e637265",
  "linkReferences": {},
  "deployedLinkReferences": {}
}