{
  "_format": "hh-sol-artifact-1",
  "contractName": "StakeBLB_BLB",
  "sourceName": "contracts/StakePool/StakeBLB_BLB.sol",
  "abi": [
    {
      "inputs": [
        {
          "internalType": "contract IERC20",
          "name": "_BLB",
          "type": "address"
        }
      ],
      "stateMutability": "nonpayable",
      "type": "constructor"
    },
    {
      "anonymous": false,
      "inputs": [
        {
          "indexed": true,
          "internalType": "address",
          "name": "previousOwner",
          "type": "address"
        },
        {
          "indexed": true,
          "internalType": "address",
          "name": "newOwner",
          "type": "address"
        }
      ],
      "name": "OwnershipTransferred",
      "type": "event"
    },
    {
      "anonymous": false,
      "inputs": [
        {
          "indexed": false,
          "internalType": "address",
          "name": "account",
          "type": "address"
        }
      ],
      "name": "Paused",
      "type": "event"
    },
    {
      "anonymous": false,
      "inputs": [
        {
          "indexed": false,
          "internalType": "address",
          "name": "account",
          "type": "address"
        }
      ],
      "name": "Unpaused",
      "type": "event"
    },
    {
      "inputs": [],
      "name": "BLB",
      "outputs": [
        {
          "internalType": "contract IERC20",
          "name": "",
          "type": "address"
        }
      ],
      "stateMutability": "view",
      "type": "function"
    },
    {
      "inputs": [],
      "name": "checkpoints",
      "outputs": [
        {
          "components": [
            {
              "internalType": "uint256",
              "name": "passTime",
              "type": "uint256"
            },
            {
              "internalType": "uint256",
              "name": "saveDeposit",
              "type": "uint256"
            },
            {
              "internalType": "uint256",
              "name": "saveProfit",
              "type": "uint256"
            }
          ],
          "internalType": "struct StakeBLB_BLB.Checkpoint",
          "name": "checkpoint1_",
          "type": "tuple"
        },
        {
          "components": [
            {
              "internalType": "uint256",
              "name": "passTime",
              "type": "uint256"
            },
            {
              "internalType": "uint256",
              "name": "saveDeposit",
              "type": "uint256"
            },
            {
              "internalType": "uint256",
              "name": "saveProfit",
              "type": "uint256"
            }
          ],
          "internalType": "struct StakeBLB_BLB.Checkpoint",
          "name": "checkpoint2_",
          "type": "tuple"
        },
        {
          "components": [
            {
              "internalType": "uint256",
              "name": "passTime",
              "type": "uint256"
            },
            {
              "internalType": "uint256",
              "name": "saveDeposit",
              "type": "uint256"
            },
            {
              "internalType": "uint256",
              "name": "saveProfit",
              "type": "uint256"
            }
          ],
          "internalType": "struct StakeBLB_BLB.Checkpoint",
          "name": "checkpoint3_",
          "type": "tuple"
        }
      ],
      "stateMutability": "view",
      "type": "function"
    },
    {
      "inputs": [
        {
          "internalType": "address",
          "name": "",
          "type": "address"
        },
        {
          "internalType": "uint256",
          "name": "",
          "type": "uint256"
        }
      ],
      "name": "investments",
      "outputs": [
        {
          "internalType": "uint256",
          "name": "amount",
          "type": "uint256"
        },
        {
          "internalType": "uint256",
          "name": "start",
          "type": "uint256"
        },
        {
          "internalType": "uint256",
          "name": "end",
          "type": "uint256"
        },
        {
          "internalType": "uint256",
          "name": "profit",
          "type": "uint256"
        },
        {
          "internalType": "uint256",
          "name": "claimTime",
          "type": "uint256"
        }
      ],
      "stateMutability": "view",
      "type": "function"
    },
    {
      "inputs": [
        {
          "internalType": "address",
          "name": "borrower",
          "type": "address"
        },
        {
          "internalType": "uint256",
          "name": "amount",
          "type": "uint256"
        }
      ],
      "name": "loanBLB",
      "outputs": [],
      "stateMutability": "nonpayable",
      "type": "function"
    },
    {
      "inputs": [
        {
          "internalType": "uint256",
          "name": "amount",
          "type": "uint256"
        },
        {
          "internalType": "uint256",
          "name": "duration",
          "type": "uint256"
        }
      ],
      "name": "newInvestment",
      "outputs": [],
      "stateMutability": "nonpayable",
      "type": "function"
    },
    {
      "inputs": [],
      "name": "owner",
      "outputs": [
        {
          "internalType": "address",
          "name": "",
          "type": "address"
        }
      ],
      "stateMutability": "view",
      "type": "function"
    },
    {
      "inputs": [],
      "name": "pause",
      "outputs": [],
      "stateMutability": "nonpayable",
      "type": "function"
    },
    {
      "inputs": [],
      "name": "paused",
      "outputs": [
        {
          "internalType": "bool",
          "name": "",
          "type": "bool"
        }
      ],
      "stateMutability": "view",
      "type": "function"
    },
    {
      "inputs": [
        {
          "internalType": "address",
          "name": "investor",
          "type": "address"
        }
      ],
      "name": "pendingWithdrawal",
      "outputs": [
        {
          "internalType": "uint256",
          "name": "total",
          "type": "uint256"
        }
      ],
      "stateMutability": "view",
      "type": "function"
    },
    {
      "inputs": [
        {
          "internalType": "address",
          "name": "investor",
          "type": "address"
        },
        {
          "internalType": "uint256",
          "name": "investmentId",
          "type": "uint256"
        }
      ],
      "name": "pendingWithdrawal",
      "outputs": [
        {
          "internalType": "uint256",
          "name": "",
          "type": "uint256"
        }
      ],
      "stateMutability": "view",
      "type": "function"
    },
    {
      "inputs": [],
      "name": "plans",
      "outputs": [
        {
          "internalType": "uint256[]",
          "name": "durations",
          "type": "uint256[]"
        },
        {
          "internalType": "uint256[]",
          "name": "profits",
          "type": "uint256[]"
        }
      ],
      "stateMutability": "view",
      "type": "function"
    },
    {
      "inputs": [
        {
          "internalType": "address",
          "name": "investor",
          "type": "address"
        },
        {
          "internalType": "uint256",
          "name": "investmentId",
          "type": "uint256"
        }
      ],
      "name": "releaseTime",
      "outputs": [
        {
          "internalType": "uint256",
          "name": "",
          "type": "uint256"
        }
      ],
      "stateMutability": "view",
      "type": "function"
    },
    {
      "inputs": [],
      "name": "renounceOwnership",
      "outputs": [],
      "stateMutability": "nonpayable",
      "type": "function"
    },
    {
      "inputs": [
        {
          "internalType": "uint256",
          "name": "",
          "type": "uint256"
        }
      ],
      "name": "rewardPlans",
      "outputs": [
        {
          "internalType": "uint256",
          "name": "",
          "type": "uint256"
        }
      ],
      "stateMutability": "view",
      "type": "function"
    },
    {
      "inputs": [
        {
          "internalType": "uint256",
          "name": "passTime1",
          "type": "uint256"
        },
        {
          "internalType": "uint256",
          "name": "saveDeposit1",
          "type": "uint256"
        },
        {
          "internalType": "uint256",
          "name": "saveProfit1",
          "type": "uint256"
        },
        {
          "internalType": "uint256",
          "name": "passTime2",
          "type": "uint256"
        },
        {
          "internalType": "uint256",
          "name": "saveDeposit2",
          "type": "uint256"
        },
        {
          "internalType": "uint256",
          "name": "saveProfit2",
          "type": "uint256"
        },
        {
          "internalType": "uint256",
          "name": "passTime3",
          "type": "uint256"
        },
        {
          "internalType": "uint256",
          "name": "saveDeposit3",
          "type": "uint256"
        },
        {
          "internalType": "uint256",
          "name": "saveProfit3",
          "type": "uint256"
        }
      ],
      "name": "setCheckpoints",
      "outputs": [],
      "stateMutability": "nonpayable",
      "type": "function"
    },
    {
      "inputs": [
        {
          "internalType": "uint256",
          "name": "duration",
          "type": "uint256"
        },
        {
          "internalType": "uint256",
          "name": "profit",
          "type": "uint256"
        }
      ],
      "name": "setPlan",
      "outputs": [],
      "stateMutability": "nonpayable",
      "type": "function"
    },
    {
      "inputs": [],
      "name": "totalDepositBLB",
      "outputs": [
        {
          "internalType": "uint256",
          "name": "",
          "type": "uint256"
        }
      ],
      "stateMutability": "view",
      "type": "function"
    },
    {
      "inputs": [],
      "name": "totalPendingBLB",
      "outputs": [
        {
          "internalType": "uint256",
          "name": "",
          "type": "uint256"
        }
      ],
      "stateMutability": "view",
      "type": "function"
    },
    {
      "inputs": [
        {
          "internalType": "address",
          "name": "newOwner",
          "type": "address"
        }
      ],
      "name": "transferOwnership",
      "outputs": [],
      "stateMutability": "nonpayable",
      "type": "function"
    },
    {
      "inputs": [],
      "name": "unpause",
      "outputs": [],
      "stateMutability": "nonpayable",
      "type": "function"
    },
    {
      "inputs": [
        {
          "internalType": "address",
          "name": "investor",
          "type": "address"
        }
      ],
      "name": "userInvestments",
      "outputs": [
        {
          "components": [
            {
              "internalType": "uint256",
              "name": "amount",
              "type": "uint256"
            },
            {
              "internalType": "uint256",
              "name": "start",
              "type": "uint256"
            },
            {
              "internalType": "uint256",
              "name": "end",
              "type": "uint256"
            },
            {
              "internalType": "uint256",
              "name": "profit",
              "type": "uint256"
            },
            {
              "internalType": "uint256",
              "name": "claimTime",
              "type": "uint256"
            }
          ],
          "internalType": "struct StakeBLB_BLB.Investment[]",
          "name": "",
          "type": "tuple[]"
        }
      ],
      "stateMutability": "view",
      "type": "function"
    },
    {
      "inputs": [
        {
          "internalType": "address",
          "name": "investor",
          "type": "address"
        }
      ],
      "name": "userTotalStake",
      "outputs": [
        {
          "internalType": "uint256",
          "name": "totalStake",
          "type": "uint256"
        }
      ],
      "stateMutability": "view",
      "type": "function"
    },
    {
      "inputs": [
        {
          "internalType": "uint256",
          "name": "investmentId",
          "type": "uint256"
        }
      ],
      "name": "withdraw",
      "outputs": [],
      "stateMutability": "nonpayable",
      "type": "function"
    }
  ],
  "bytecode": "0x60806040523480156200001157600080fd5b50604051620016b5380380620016b58339810160408190526200003491620002b1565b6200003f33620000f9565b6000805460ff60a01b19169055600180546001600160a01b0319166001600160a01b0383161790556200007d6203f48066038d7ea4c6800062000149565b6200009462278d00670214e8348c4f000062000149565b620000ab6276a7006706f05b59d3b2000062000149565b620000c262ed4e006710a741a46278000062000149565b620000da6301da9c006722b1c8c1227a000062000149565b620000f26000605081603260648284826028620001c9565b50620002e3565b600080546001600160a01b038381166001600160a01b0319831681178455604051919092169283917f8be0079c531659141344cd1fd0a4f28419497f9722a3daafe3b4186f6b6457e09190a35050565b6200015362000250565b6000828152600660209081526040808320849055600590915290205460ff16620001c5576000828152600560205260408120805460ff191660019081179091556004805491820181559091527f8a35acfbc15ff81a39ae7d344fd709f28e8600b4aa8c65c6b64bfe7fe36bd19b018290555b5050565b620001d362000250565b60408051606080820183528b825260208083018c90529183018a905260089b909b55600999909955600a979097558651808a0188528681528089018690528701849052600b95909555600c93909355600d919091558351958601845280865293850181905293909101819052600e91909155600f91909155601055565b6000546001600160a01b03163314620002af5760405162461bcd60e51b815260206004820181905260248201527f4f776e61626c653a2063616c6c6572206973206e6f7420746865206f776e6572604482015260640160405180910390fd5b565b600060208284031215620002c457600080fd5b81516001600160a01b0381168114620002dc57600080fd5b9392505050565b6113c280620002f36000396000f3fe608060405234801561001057600080fd5b506004361061014d5760003560e01c80635b91c512116100c35780638da5cb5b1161007c5780638da5cb5b1461030c578063a2fa0c7514610331578063b023eba514610344578063bfa54b3f14610364578063e88cf1b414610377578063f2fde38b1461038057600080fd5b80635b91c512146102965780635c975abb146102a957806364eb1b21146102c6578063715018a6146102dc5780638456cb59146102e457806388a9931f146102ec57600080fd5b80633353561d116101155780633353561d146101bc5780633e6d9770146101cf5780633f4ba83a1461020a5780634668d866146102125780634983c3ab146102255780635a48c0b01461023857600080fd5b80630964c95b146101525780630c736b351461017857806328583365146101815780632bf0da7e146101965780632e1a7d4d146101a9575b600080fd5b6101656101603660046110f3565b610393565b6040519081526020015b60405180910390f35b61016560025481565b61019461018f366004611115565b6103e5565b005b6101656101a4366004611137565b6105cf565b6101946101b7366004611161565b610791565b6101946101ca366004611115565b6108df565b6101e26101dd366004611137565b61095c565b604080519586526020860194909452928401919091526060830152608082015260a00161016f565b6101946109aa565b61019461022036600461117a565b6109bc565b610165610233366004611137565b610a41565b610240610a85565b6040805184518152602080860151818301529482015181830152835160608201528484015160808201529281015160a0840152815160c08401529281015160e0830152909101516101008201526101200161016f565b6101656102a43660046110f3565b610b58565b600054600160a01b900460ff16604051901515815260200161016f565b6102ce610bf3565b60405161016f929190611214565b610194610d32565b610194610d44565b6101656102fa366004611161565b60066020526000908152604090205481565b6000546001600160a01b03165b6040516001600160a01b03909116815260200161016f565b61019461033f366004611137565b610d54565b6103576103523660046110f3565b610dd8565b60405161016f9190611242565b600154610319906001600160a01b031681565b61016560035481565b61019461038e3660046110f3565b610e7f565b6001600160a01b038116600090815260076020526040812054815b818110156103de576103c084826105cf565b6103ca90846112c6565b9250806103d6816112d9565b9150506103ae565b5050919050565b6103ed610ef8565b60008181526006602052604081205490036104595760405162461bcd60e51b815260206004820152602160248201527f7468657265206973206e6f20706c616e2062792074686973206475726174696f6044820152603760f91b60648201526084015b60405180910390fd5b3342600061046784836112c6565b60008581526006602052604081205491925090670de0b6b3a76400009061048e90886112f2565b6104989190611309565b6001546040516323b872dd60e01b81526001600160a01b038781166004830152306024830152604482018a90529293509116906323b872dd906064016020604051808303816000875af11580156104f3573d6000803e3d6000fd5b505050506040513d601f19601f82011682018060405250810190610517919061132b565b506001600160a01b0384166000908152600760209081526040808320815160a0810183528a81528084018881529281018781526060820187815260808301878152845460018181018755958952968820935160059097029093019586559351928501929092559051600280850191909155915160038401555160049092019190915580548892906105a99084906112c6565b9250508190555080600360008282546105c291906112c6565b9091555050505050505050565b6001600160a01b03821660009081526007602052604081208054829190849081106105fc576105fc61134d565b60009182526020822060016005909202019081015460028201549193508291429190836106298383611363565b875460038901549192509083861061064657819750809650610775565b84606484600e6000015461065a91906112f2565b6106649190611309565b61066e91906112c6565b86106106b257600f5460649061068490846112f2565b61068e9190611309565b6010549098506064906106a190836112f2565b6106ab9190611309565b9650610775565b84606484600b600001546106c691906112f2565b6106d09190611309565b6106da91906112c6565b861061070d57600c546064906106f090846112f2565b6106fa9190611309565b600d549098506064906106a190836112f2565b8460648460086000015461072191906112f2565b61072b9190611309565b61073591906112c6565b86106107755760095460649061074b90846112f2565b6107559190611309565b600a5490985060649061076890836112f2565b6107729190611309565b96505b61077f87896112c6565b99505050505050505050505b92915050565b3360008181526007602052604081208054849081106107b2576107b261134d565b9060005260206000209060050201905060006107ce83856105cf565b9050600081116108205760405162461bcd60e51b815260206004820152601e60248201527f5374616b65506f6f6c3a206e6f7468696e6720746f20776974686472617700006044820152606401610450565b4260048381019190915560015460405163a9059cbb60e01b81526001600160a01b03868116938201939093526024810184905291169063a9059cbb906044016020604051808303816000875af115801561087e573d6000803e3d6000fd5b505050506040513d601f19601f820116820180604052508101906108a2919061132b565b508154600280546000906108b7908490611363565b925050819055508160030154600360008282546108d49190611363565b909155505050505050565b6108e7610f45565b6000828152600660209081526040808320849055600590915290205460ff16610958576000828152600560205260408120805460ff191660019081179091556004805491820181559091527f8a35acfbc15ff81a39ae7d344fd709f28e8600b4aa8c65c6b64bfe7fe36bd19b018290555b5050565b6007602052816000526040600020818154811061097857600080fd5b600091825260209091206005909102018054600182015460028301546003840154600490940154929550909350919085565b6109b2610f45565b6109ba610f9f565b565b6109c4610f45565b60408051606080820183528b825260208083018c90529183018a905260089b909b55600999909955600a979097558651808a0188528681528089018690528701849052600b95909555600c93909355600d919091558351958601845280865293850181905293909101819052600e91909155600f91909155601055565b6001600160a01b0382166000908152600760205260408120805483908110610a6b57610a6b61134d565b906000526020600020906005020160020154905092915050565b610aa960405180606001604052806000815260200160008152602001600081525090565b610acd60405180606001604052806000815260200160008152602001600081525090565b610af160405180606001604052806000815260200160008152602001600081525090565b505060408051606080820183526008548252600954602080840191909152600a548385015283518083018552600b548152600c5481830152600d548186015284519283018552600e548352600f549183019190915260105493820193909352909391925090565b6001600160a01b03811660009081526007602052604081208054825b81811015610beb57828181548110610b8e57610b8e61134d565b906000526020600020906005020160040154600003610bd957828181548110610bb957610bb961134d565b90600052602060002090600502016000015484610bd691906112c6565b93505b80610be3816112d9565b915050610b74565b505050919050565b60045460609081908067ffffffffffffffff811115610c1457610c14611376565b604051908082528060200260200182016040528015610c3d578160200160208202803683370190505b5092508067ffffffffffffffff811115610c5957610c59611376565b604051908082528060200260200182016040528015610c82578160200160208202803683370190505b50915060005b81811015610d2c5760048181548110610ca357610ca361134d565b9060005260206000200154848281518110610cc057610cc061134d565b6020026020010181815250506006600060048381548110610ce357610ce361134d565b9060005260206000200154815260200190815260200160002054838281518110610d0f57610d0f61134d565b602090810291909101015280610d24816112d9565b915050610c88565b50509091565b610d3a610f45565b6109ba6000610ff4565b610d4c610f45565b6109ba611044565b610d5c610f45565b60015460405163a9059cbb60e01b81526001600160a01b038481166004830152602482018490529091169063a9059cbb906044016020604051808303816000875af1158015610daf573d6000803e3d6000fd5b505050506040513d601f19601f82011682018060405250810190610dd3919061132b565b505050565b6001600160a01b0381166000908152600760209081526040808320805482518185028101850190935280835260609492939192909184015b82821015610e7457838290600052602060002090600502016040518060a00160405290816000820154815260200160018201548152602001600282015481526020016003820154815260200160048201548152505081526020019060010190610e10565b505050509050919050565b610e87610f45565b6001600160a01b038116610eec5760405162461bcd60e51b815260206004820152602660248201527f4f776e61626c653a206e6577206f776e657220697320746865207a65726f206160448201526564647265737360d01b6064820152608401610450565b610ef581610ff4565b50565b600054600160a01b900460ff16156109ba5760405162461bcd60e51b815260206004820152601060248201526f14185d5cd8589b194e881c185d5cd95960821b6044820152606401610450565b6000546001600160a01b031633146109ba5760405162461bcd60e51b815260206004820181905260248201527f4f776e61626c653a2063616c6c6572206973206e6f7420746865206f776e65726044820152606401610450565b610fa7611087565b6000805460ff60a01b191690557f5db9ee0a495bf2e6ff9c91a7834c1ba4fdd244a5e8aa4e537bd38aeae4b073aa335b6040516001600160a01b03909116815260200160405180910390a1565b600080546001600160a01b038381166001600160a01b0319831681178455604051919092169283917f8be0079c531659141344cd1fd0a4f28419497f9722a3daafe3b4186f6b6457e09190a35050565b61104c610ef8565b6000805460ff60a01b1916600160a01b1790557f62e78cea01bee320cd4e420270b5ea74000d11b0c9f74754ebdbfc544b05a258610fd73390565b600054600160a01b900460ff166109ba5760405162461bcd60e51b815260206004820152601460248201527314185d5cd8589b194e881b9bdd081c185d5cd95960621b6044820152606401610450565b80356001600160a01b03811681146110ee57600080fd5b919050565b60006020828403121561110557600080fd5b61110e826110d7565b9392505050565b6000806040838503121561112857600080fd5b50508035926020909101359150565b6000806040838503121561114a57600080fd5b611153836110d7565b946020939093013593505050565b60006020828403121561117357600080fd5b5035919050565b60008060008060008060008060006101208a8c03121561119957600080fd5b505087359960208901359950604089013598606081013598506080810135975060a0810135965060c0810135955060e08101359450610100013592509050565b600081518084526020808501945080840160005b83811015611209578151875295820195908201906001016111ed565b509495945050505050565b60408152600061122760408301856111d9565b828103602084015261123981856111d9565b95945050505050565b602080825282518282018190526000919060409081850190868401855b828110156112a35781518051855286810151878601528581015186860152606080820151908601526080908101519085015260a0909301929085019060010161125f565b5091979650505050505050565b634e487b7160e01b600052601160045260246000fd5b8082018082111561078b5761078b6112b0565b6000600182016112eb576112eb6112b0565b5060010190565b808202811582820484141761078b5761078b6112b0565b60008261132657634e487b7160e01b600052601260045260246000fd5b500490565b60006020828403121561133d57600080fd5b8151801515811461110e57600080fd5b634e487b7160e01b600052603260045260246000fd5b8181038181111561078b5761078b6112b0565b634e487b7160e01b600052604160045260246000fdfea2646970667358221220ee74ce64c09da3556cc5c6dec728d588f35d5134274cad583925efe2b355368064736f6c63430008120033",
  "linkReferences": {},
  "deployedLinkReferences": {}
}