{
  "_format": "hh-sol-artifact-1",
  "contractName": "StakeBLB_BLB",
  "sourceName": "contracts/StakePool/StakeBLB_BLB.sol",
  "abi": [
    {
      "inputs": [
        {
          "internalType": "contract IERC20",
          "name": "_BUSD",
          "type": "address"
        },
        {
          "internalType": "contract IERC20",
          "name": "_BLB",
          "type": "address"
        },
        {
          "internalType": "address",
          "name": "blbSwap",
          "type": "address"
        },
        {
          "internalType": "uint256[]",
          "name": "durationsInDays",
          "type": "uint256[]"
        },
        {
          "internalType": "uint256[]",
          "name": "profits",
          "type": "uint256[]"
        }
      ],
      "stateMutability": "nonpayable",
      "type": "constructor"
    },
    {
      "anonymous": false,
      "inputs": [
        {
          "indexed": true,
          "internalType": "address",
          "name": "userAddr",
          "type": "address"
        },
        {
          "indexed": true,
          "internalType": "uint256",
          "name": "investmentId",
          "type": "uint256"
        },
        {
          "indexed": false,
          "internalType": "uint256",
          "name": "amountBLB",
          "type": "uint256"
        }
      ],
      "name": "Claim",
      "type": "event"
    },
    {
      "anonymous": false,
      "inputs": [
        {
          "indexed": true,
          "internalType": "address",
          "name": "userAddr",
          "type": "address"
        },
        {
          "indexed": true,
          "internalType": "uint256",
          "name": "investmentId",
          "type": "uint256"
        },
        {
          "indexed": false,
          "internalType": "uint256",
          "name": "amountBLB",
          "type": "uint256"
        },
        {
          "indexed": false,
          "internalType": "uint256",
          "name": "amountUSD",
          "type": "uint256"
        },
        {
          "indexed": true,
          "internalType": "string",
          "name": "depositToken",
          "type": "string"
        }
      ],
      "name": "Deposit",
      "type": "event"
    },
    {
      "anonymous": false,
      "inputs": [
        {
          "indexed": true,
          "internalType": "address",
          "name": "previousOwner",
          "type": "address"
        },
        {
          "indexed": true,
          "internalType": "address",
          "name": "newOwner",
          "type": "address"
        }
      ],
      "name": "OwnershipTransferred",
      "type": "event"
    },
    {
      "anonymous": false,
      "inputs": [
        {
          "indexed": false,
          "internalType": "address",
          "name": "account",
          "type": "address"
        }
      ],
      "name": "Paused",
      "type": "event"
    },
    {
      "anonymous": false,
      "inputs": [
        {
          "indexed": false,
          "internalType": "address",
          "name": "account",
          "type": "address"
        }
      ],
      "name": "Unpaused",
      "type": "event"
    },
    {
      "anonymous": false,
      "inputs": [
        {
          "indexed": true,
          "internalType": "address",
          "name": "userAddr",
          "type": "address"
        },
        {
          "indexed": true,
          "internalType": "uint256",
          "name": "investmentId",
          "type": "uint256"
        },
        {
          "indexed": false,
          "internalType": "uint256",
          "name": "amountBLB",
          "type": "uint256"
        }
      ],
      "name": "Withdraw",
      "type": "event"
    },
    {
      "inputs": [],
      "name": "BLB",
      "outputs": [
        {
          "internalType": "contract IERC20",
          "name": "",
          "type": "address"
        }
      ],
      "stateMutability": "view",
      "type": "function"
    },
    {
      "inputs": [],
      "name": "BLBSwap",
      "outputs": [
        {
          "internalType": "contract IBLBSwap",
          "name": "",
          "type": "address"
        }
      ],
      "stateMutability": "view",
      "type": "function"
    },
    {
      "inputs": [
        {
          "internalType": "uint256",
          "name": "amountBNB",
          "type": "uint256"
        }
      ],
      "name": "BLBsForBNB",
      "outputs": [
        {
          "internalType": "uint256",
          "name": "",
          "type": "uint256"
        }
      ],
      "stateMutability": "view",
      "type": "function"
    },
    {
      "inputs": [
        {
          "internalType": "uint256",
          "name": "amountBUSD",
          "type": "uint256"
        }
      ],
      "name": "BLBsForUSD",
      "outputs": [
        {
          "internalType": "uint256",
          "name": "",
          "type": "uint256"
        }
      ],
      "stateMutability": "view",
      "type": "function"
    },
    {
      "inputs": [],
      "name": "BUSD",
      "outputs": [
        {
          "internalType": "contract IERC20",
          "name": "",
          "type": "address"
        }
      ],
      "stateMutability": "view",
      "type": "function"
    },
    {
      "inputs": [
        {
          "internalType": "uint256",
          "name": "amountBUSD",
          "type": "uint256"
        },
        {
          "internalType": "uint256",
          "name": "duration",
          "type": "uint256"
        }
      ],
      "name": "buyAndStake",
      "outputs": [],
      "stateMutability": "payable",
      "type": "function"
    },
    {
      "inputs": [
        {
          "internalType": "address",
          "name": "_BLBSwap",
          "type": "address"
        }
      ],
      "name": "changeBLBSwap",
      "outputs": [],
      "stateMutability": "nonpayable",
      "type": "function"
    },
    {
      "inputs": [],
      "name": "checkpoints",
      "outputs": [
        {
          "components": [
            {
              "internalType": "uint256",
              "name": "passTime",
              "type": "uint256"
            },
            {
              "internalType": "uint256",
              "name": "saveDeposit",
              "type": "uint256"
            },
            {
              "internalType": "uint256",
              "name": "saveProfit",
              "type": "uint256"
            }
          ],
          "internalType": "struct StakeBLB_BLB.Checkpoint",
          "name": "checkpoint1_",
          "type": "tuple"
        },
        {
          "components": [
            {
              "internalType": "uint256",
              "name": "passTime",
              "type": "uint256"
            },
            {
              "internalType": "uint256",
              "name": "saveDeposit",
              "type": "uint256"
            },
            {
              "internalType": "uint256",
              "name": "saveProfit",
              "type": "uint256"
            }
          ],
          "internalType": "struct StakeBLB_BLB.Checkpoint",
          "name": "checkpoint2_",
          "type": "tuple"
        },
        {
          "components": [
            {
              "internalType": "uint256",
              "name": "passTime",
              "type": "uint256"
            },
            {
              "internalType": "uint256",
              "name": "saveDeposit",
              "type": "uint256"
            },
            {
              "internalType": "uint256",
              "name": "saveProfit",
              "type": "uint256"
            }
          ],
          "internalType": "struct StakeBLB_BLB.Checkpoint",
          "name": "checkpoint3_",
          "type": "tuple"
        }
      ],
      "stateMutability": "view",
      "type": "function"
    },
    {
      "inputs": [
        {
          "internalType": "address",
          "name": "",
          "type": "address"
        },
        {
          "internalType": "uint256",
          "name": "",
          "type": "uint256"
        }
      ],
      "name": "investments",
      "outputs": [
        {
          "internalType": "uint256",
          "name": "amount",
          "type": "uint256"
        },
        {
          "internalType": "uint256",
          "name": "start",
          "type": "uint256"
        },
        {
          "internalType": "uint256",
          "name": "end",
          "type": "uint256"
        },
        {
          "internalType": "uint256",
          "name": "profit",
          "type": "uint256"
        },
        {
          "internalType": "uint256",
          "name": "claimTime",
          "type": "uint256"
        }
      ],
      "stateMutability": "view",
      "type": "function"
    },
    {
      "inputs": [
        {
          "internalType": "address",
          "name": "borrower",
          "type": "address"
        },
        {
          "internalType": "uint256",
          "name": "amount",
          "type": "uint256"
        }
      ],
      "name": "loanBLB",
      "outputs": [],
      "stateMutability": "nonpayable",
      "type": "function"
    },
    {
      "inputs": [
        {
          "internalType": "uint256",
          "name": "amount",
          "type": "uint256"
        },
        {
          "internalType": "uint256",
          "name": "duration",
          "type": "uint256"
        }
      ],
      "name": "newInvestment",
      "outputs": [],
      "stateMutability": "nonpayable",
      "type": "function"
    },
    {
      "inputs": [],
      "name": "owner",
      "outputs": [
        {
          "internalType": "address",
          "name": "",
          "type": "address"
        }
      ],
      "stateMutability": "view",
      "type": "function"
    },
    {
      "inputs": [],
      "name": "pause",
      "outputs": [],
      "stateMutability": "nonpayable",
      "type": "function"
    },
    {
      "inputs": [],
      "name": "paused",
      "outputs": [
        {
          "internalType": "bool",
          "name": "",
          "type": "bool"
        }
      ],
      "stateMutability": "view",
      "type": "function"
    },
    {
      "inputs": [
        {
          "internalType": "address",
          "name": "user",
          "type": "address"
        },
        {
          "internalType": "uint256",
          "name": "amount",
          "type": "uint256"
        }
      ],
      "name": "pay",
      "outputs": [],
      "stateMutability": "nonpayable",
      "type": "function"
    },
    {
      "inputs": [
        {
          "internalType": "address[]",
          "name": "users",
          "type": "address[]"
        },
        {
          "internalType": "uint256[]",
          "name": "amounts",
          "type": "uint256[]"
        }
      ],
      "name": "payBatch",
      "outputs": [],
      "stateMutability": "nonpayable",
      "type": "function"
    },
    {
      "inputs": [
        {
          "internalType": "uint256",
          "name": "amountBUSD",
          "type": "uint256"
        }
      ],
      "name": "payToOwner",
      "outputs": [],
      "stateMutability": "payable",
      "type": "function"
    },
    {
      "inputs": [
        {
          "internalType": "address",
          "name": "investor",
          "type": "address"
        }
      ],
      "name": "pendingWithdrawal",
      "outputs": [
        {
          "internalType": "uint256",
          "name": "total",
          "type": "uint256"
        }
      ],
      "stateMutability": "view",
      "type": "function"
    },
    {
      "inputs": [
        {
          "internalType": "address",
          "name": "investor",
          "type": "address"
        },
        {
          "internalType": "uint256",
          "name": "investmentId",
          "type": "uint256"
        }
      ],
      "name": "pendingWithdrawal",
      "outputs": [
        {
          "internalType": "uint256",
          "name": "",
          "type": "uint256"
        }
      ],
      "stateMutability": "view",
      "type": "function"
    },
    {
      "inputs": [],
      "name": "plans",
      "outputs": [
        {
          "internalType": "uint256[]",
          "name": "durations",
          "type": "uint256[]"
        },
        {
          "internalType": "uint256[]",
          "name": "profits",
          "type": "uint256[]"
        }
      ],
      "stateMutability": "view",
      "type": "function"
    },
    {
      "inputs": [
        {
          "internalType": "address",
          "name": "investor",
          "type": "address"
        },
        {
          "internalType": "uint256",
          "name": "investmentId",
          "type": "uint256"
        }
      ],
      "name": "releaseTime",
      "outputs": [
        {
          "internalType": "uint256",
          "name": "",
          "type": "uint256"
        }
      ],
      "stateMutability": "view",
      "type": "function"
    },
    {
      "inputs": [],
      "name": "renounceOwnership",
      "outputs": [],
      "stateMutability": "nonpayable",
      "type": "function"
    },
    {
      "inputs": [
        {
          "internalType": "uint256",
          "name": "",
          "type": "uint256"
        }
      ],
      "name": "rewardPlans",
      "outputs": [
        {
          "internalType": "uint256",
          "name": "",
          "type": "uint256"
        }
      ],
      "stateMutability": "view",
      "type": "function"
    },
    {
      "inputs": [
        {
          "internalType": "uint256",
          "name": "passTime1",
          "type": "uint256"
        },
        {
          "internalType": "uint256",
          "name": "saveDeposit1",
          "type": "uint256"
        },
        {
          "internalType": "uint256",
          "name": "saveProfit1",
          "type": "uint256"
        },
        {
          "internalType": "uint256",
          "name": "passTime2",
          "type": "uint256"
        },
        {
          "internalType": "uint256",
          "name": "saveDeposit2",
          "type": "uint256"
        },
        {
          "internalType": "uint256",
          "name": "saveProfit2",
          "type": "uint256"
        },
        {
          "internalType": "uint256",
          "name": "passTime3",
          "type": "uint256"
        },
        {
          "internalType": "uint256",
          "name": "saveDeposit3",
          "type": "uint256"
        },
        {
          "internalType": "uint256",
          "name": "saveProfit3",
          "type": "uint256"
        }
      ],
      "name": "setCheckpoints",
      "outputs": [],
      "stateMutability": "nonpayable",
      "type": "function"
    },
    {
      "inputs": [
        {
          "internalType": "uint256[]",
          "name": "durationsInDays",
          "type": "uint256[]"
        },
        {
          "internalType": "uint256[]",
          "name": "profits",
          "type": "uint256[]"
        }
      ],
      "name": "setPlans",
      "outputs": [],
      "stateMutability": "nonpayable",
      "type": "function"
    },
    {
      "inputs": [],
      "name": "totalDepositBLB",
      "outputs": [
        {
          "internalType": "uint256",
          "name": "",
          "type": "uint256"
        }
      ],
      "stateMutability": "view",
      "type": "function"
    },
    {
      "inputs": [],
      "name": "totalPendingBLB",
      "outputs": [
        {
          "internalType": "uint256",
          "name": "",
          "type": "uint256"
        }
      ],
      "stateMutability": "view",
      "type": "function"
    },
    {
      "inputs": [
        {
          "internalType": "address",
          "name": "newOwner",
          "type": "address"
        }
      ],
      "name": "transferOwnership",
      "outputs": [],
      "stateMutability": "nonpayable",
      "type": "function"
    },
    {
      "inputs": [],
      "name": "unpause",
      "outputs": [],
      "stateMutability": "nonpayable",
      "type": "function"
    },
    {
      "inputs": [
        {
          "internalType": "address",
          "name": "investor",
          "type": "address"
        }
      ],
      "name": "userInvestments",
      "outputs": [
        {
          "components": [
            {
              "internalType": "uint256",
              "name": "amount",
              "type": "uint256"
            },
            {
              "internalType": "uint256",
              "name": "start",
              "type": "uint256"
            },
            {
              "internalType": "uint256",
              "name": "end",
              "type": "uint256"
            },
            {
              "internalType": "uint256",
              "name": "profit",
              "type": "uint256"
            },
            {
              "internalType": "uint256",
              "name": "claimTime",
              "type": "uint256"
            }
          ],
          "internalType": "struct StakeBLB_BLB.Investment[]",
          "name": "",
          "type": "tuple[]"
        }
      ],
      "stateMutability": "view",
      "type": "function"
    },
    {
      "inputs": [
        {
          "internalType": "address",
          "name": "investor",
          "type": "address"
        }
      ],
      "name": "userTotalStake",
      "outputs": [
        {
          "internalType": "uint256",
          "name": "totalStake",
          "type": "uint256"
        }
      ],
      "stateMutability": "view",
      "type": "function"
    },
    {
      "inputs": [
        {
          "internalType": "uint256",
          "name": "investmentId",
          "type": "uint256"
        }
      ],
      "name": "withdraw",
      "outputs": [],
      "stateMutability": "nonpayable",
      "type": "function"
    }
  ],
  "bytecode": "0x60806040523480156200001157600080fd5b5060405162002905380380620029058339810160408190526200003491620005d0565b6200003f33620000b8565b6000805460ff60a01b19169055600180546001600160a01b038088166001600160a01b03199283161790925560028054878416908316179055600380549286169290911691909117905562000095828262000108565b620000ad6000605081603260648284826028620002a7565b5050505050620006e3565b600080546001600160a01b038381166001600160a01b0319831681178455604051919092169283917f8be0079c531659141344cd1fd0a4f28419497f9722a3daafe3b4186f6b6457e09190a35050565b6200011262000464565b8151815181146200016a5760405162461bcd60e51b815260206004820152601d60248201527f6c69737473206d757374206265207468652073616d65206c656e67746800000060448201526064015b60405180910390fd5b60105460005b81811015620001d65760126000601083815481106200019357620001936200067b565b906000526020600020015462015180620001ae9190620006a7565b8152602001908152602001600020600090558080620001cd90620006c7565b91505062000170565b50620001e560106000620004c2565b6000805b838110156200029f578581815181106200020757620002076200067b565b6020026020010151620151806200021f9190620006a7565b601080546001810182556000919091527f1b6847dc741a1b0cd08d278845f9d819d87b734759afb55fe2de5cb82a9ae6720181905585519092508590829081106200026e576200026e6200067b565b60209081029190910181015160008481526012909252604090912055806200029681620006c7565b915050620001e9565b505050505050565b620002b162000464565b8589108015620002c057508286105b6200031d5760405162461bcd60e51b815260206004820152602660248201527f506173732054696d6573206d75737420626520696e6372656173696e6720696e604482015265206120726f7760d01b606482015260840162000161565b8488111580156200032e5750818511155b620003825760405162461bcd60e51b815260206004820152602e6024820152600080516020620028e583398151915260448201526d6173696e6720696e206120726f7760901b606482015260840162000161565b838711158015620003935750808411155b620003e75760405162461bcd60e51b815260206004820152602e6024820152600080516020620028e583398151915260448201526d6173696e6720696e206120726f7760901b606482015260840162000161565b60408051606080820183528b825260208083018c90529183018a905260079b909b556008999099556009979097558651808a0188528681528089018690528701849052600a95909555600b93909355600c919091558351958601845280865293850181905293909101819052600d91909155600e91909155600f55565b6000546001600160a01b03163314620004c05760405162461bcd60e51b815260206004820181905260248201527f4f776e61626c653a2063616c6c6572206973206e6f7420746865206f776e6572604482015260640162000161565b565b5080546000825590600052602060002090810190620004e29190620004e5565b50565b5b80821115620004fc5760008155600101620004e6565b5090565b6001600160a01b0381168114620004e257600080fd5b634e487b7160e01b600052604160045260246000fd5b600082601f8301126200053e57600080fd5b815160206001600160401b03808311156200055d576200055d62000516565b8260051b604051601f19603f8301168101818110848211171562000585576200058562000516565b604052938452858101830193838101925087851115620005a457600080fd5b83870191505b84821015620005c557815183529183019190830190620005aa565b979650505050505050565b600080600080600060a08688031215620005e957600080fd5b8551620005f68162000500565b6020870151909550620006098162000500565b60408701519094506200061c8162000500565b60608701519093506001600160401b03808211156200063a57600080fd5b6200064889838a016200052c565b935060808801519150808211156200065f57600080fd5b506200066e888289016200052c565b9150509295509295909350565b634e487b7160e01b600052603260045260246000fd5b634e487b7160e01b600052601160045260246000fd5b8082028115828204841417620006c157620006c162000691565b92915050565b600060018201620006dc57620006dc62000691565b5060010190565b6121f280620006f36000396000f3fe6080604052600436106101e35760003560e01c80635c975abb11610102578063b023eba511610095578063d3399e0011610064578063d3399e00146105e8578063e753f5ac14610608578063e88cf1b414610628578063f2fde38b1461063e57600080fd5b8063b023eba51461055b578063bc07d85c14610588578063bfa54b3f146105a8578063c4076876146105c857600080fd5b80638456cb59116100d15780638456cb59146104db57806388a9931f146104f05780638da5cb5b1461051d578063a2fa0c751461053b57600080fd5b80635c975abb146104595780635fd033311461048357806364eb1b21146104a3578063715018a6146104c657600080fd5b80633f4ba83a1161017a5780634983c3ab116101495780634983c3ab1461038e578063538e4f36146103ae5780635a48c0b0146103ce5780635b91c5121461043957600080fd5b80633f4ba83a1461030e578063407ac4b2146103235780634668d86614610336578063484f4ea91461035657600080fd5b80632bf0da7e116101b65780632bf0da7e146102735780632cc711c1146102935780632e1a7d4d146102a65780633e6d9770146102c657600080fd5b80630964c95b146101e85780630c736b351461021b57806326348e5c146102315780632858336514610253575b600080fd5b3480156101f457600080fd5b50610208610203366004611c51565b61065e565b6040519081526020015b60405180910390f35b34801561022757600080fd5b5061020860045481565b34801561023d57600080fd5b5061025161024c366004611d24565b6106b0565b005b34801561025f57600080fd5b5061025161026e366004611d88565b610835565b34801561027f57600080fd5b5061020861028e366004611daa565b6109d2565b6102516102a1366004611d88565b610b94565b3480156102b257600080fd5b506102516102c1366004611dd4565b610e9a565b3480156102d257600080fd5b506102e66102e1366004611daa565b6110b4565b604080519586526020860194909452928401919091526060830152608082015260a001610212565b34801561031a57600080fd5b50610251611102565b610251610331366004611dd4565b611114565b34801561034257600080fd5b50610251610351366004611ded565b6111ff565b34801561036257600080fd5b50600154610376906001600160a01b031681565b6040516001600160a01b039091168152602001610212565b34801561039a57600080fd5b506102086103a9366004611daa565b611345565b3480156103ba57600080fd5b506102516103c9366004611e98565b611389565b3480156103da57600080fd5b506103e36114b4565b6040805184518152602080860151818301529482015181830152835160608201528484015160808201529281015160a0840152815160c08401529281015160e08301529091015161010082015261012001610212565b34801561044557600080fd5b50610208610454366004611c51565b611587565b34801561046557600080fd5b50600054600160a01b900460ff166040519015158152602001610212565b34801561048f57600080fd5b5061020861049e366004611dd4565b611622565b3480156104af57600080fd5b506104b8611691565b604051610212929190611f3f565b3480156104d257600080fd5b506102516117d0565b3480156104e757600080fd5b506102516117e2565b3480156104fc57600080fd5b5061020861050b366004611dd4565b60126020526000908152604090205481565b34801561052957600080fd5b506000546001600160a01b0316610376565b34801561054757600080fd5b50610251610556366004611daa565b6117f2565b34801561056757600080fd5b5061057b610576366004611c51565b611877565b6040516102129190611f6d565b34801561059457600080fd5b506102086105a3366004611dd4565b61191e565b3480156105b457600080fd5b50600254610376906001600160a01b031681565b3480156105d457600080fd5b506102516105e3366004611daa565b611950565b3480156105f457600080fd5b50610251610603366004611c51565b611984565b34801561061457600080fd5b50600354610376906001600160a01b031681565b34801561063457600080fd5b5061020860055481565b34801561064a57600080fd5b50610251610659366004611c51565b6119ae565b6001600160a01b038116600090815260066020526040812054815b818110156106a95761068b84826109d2565b6106959084611ff1565b9250806106a181612004565b915050610679565b5050919050565b6106b8611a24565b81518151811461070f5760405162461bcd60e51b815260206004820152601d60248201527f6c69737473206d757374206265207468652073616d65206c656e67746800000060448201526064015b60405180910390fd5b60105460005b818110156107725760126000601083815481106107345761073461201d565b90600052602060002001546201518061074d9190612033565b815260200190815260200160002060009055808061076a90612004565b915050610715565b5061077f60106000611c03565b6000805b8381101561082d5785818151811061079d5761079d61201d565b6020026020010151620151806107b39190612033565b601080546001810182556000919091527f1b6847dc741a1b0cd08d278845f9d819d87b734759afb55fe2de5cb82a9ae6720181905585519092508590829081106107ff576107ff61201d565b602090810291909101810151600084815260129092526040909120558061082581612004565b915050610783565b505050505050565b61083d611a7e565b600081815260126020526040812054900361086a5760405162461bcd60e51b81526004016107069061204a565b334260006108788483611ff1565b60008581526012602052604081205491925090670de0b6b3a76400009061089f9088612033565b6108a9919061208b565b6002546040516323b872dd60e01b81529192506001600160a01b0316906323b872dd906108de90879030908b906004016120ad565b6020604051808303816000875af11580156108fd573d6000803e3d6000fd5b505050506040513d601f19601f8201168201806040525081019061092191906120d1565b506001600160a01b0384166000908152600660209081526040808320815160a0810183528a815280840188815292810187815260608201878152608083018781528454600181810187559589529688209351600590970290930195865593519285019290925590516002840155905160038301555160049182015580548892906109ac908490611ff1565b9250508190555080600560008282546109c59190611ff1565b9091555050505050505050565b6001600160a01b03821660009081526006602052604081208054829190849081106109ff576109ff61201d565b6000918252602082206001600590920201908101546002820154919350829142919083610a2c83836120f3565b8754600389015491925090838610610a4957819750809650610b78565b84606484600d60000154610a5d9190612033565b610a67919061208b565b610a719190611ff1565b8610610ab557600e54606490610a879084612033565b610a91919061208b565b600f54909850606490610aa49083612033565b610aae919061208b565b9650610b78565b84606484600a60000154610ac99190612033565b610ad3919061208b565b610add9190611ff1565b8610610b1057600b54606490610af39084612033565b610afd919061208b565b600c54909850606490610aa49083612033565b84606484600760000154610b249190612033565b610b2e919061208b565b610b389190611ff1565b8610610b7857600854606490610b4e9084612033565b610b58919061208b565b600954909850606490610b6b9083612033565b610b75919061208b565b96505b610b828789611ff1565b99505050505050505050505b92915050565b610b9c611a7e565b6000818152601260205260408120549003610bc95760405162461bcd60e51b81526004016107069061204a565b3360008315610cec573415610bf05760405162461bcd60e51b815260040161070690612106565b600354604051632f01f61760e21b8152600481018690526001600160a01b039091169063bc07d85c90602401602060405180830381865afa158015610c39573d6000803e3d6000fd5b505050506040513d601f19601f82011682018060405250810190610c5d9190612155565b6001549091506001600160a01b03166323b872dd83610c846000546001600160a01b031690565b876040518463ffffffff1660e01b8152600401610ca3939291906120ad565b6020604051808303816000875af1158015610cc2573d6000803e3d6000fd5b505050506040513d601f19601f82011682018060405250810190610ce691906120d1565b50610da6565b600354604051635fd0333160e01b81523460048201526001600160a01b0390911690635fd0333190602401602060405180830381865afa158015610d34573d6000803e3d6000fd5b505050506040513d601f19601f82011682018060405250810190610d589190612155565b9050610d6c6000546001600160a01b031690565b6001600160a01b03166108fc349081150290604051600060405180830381858888f19350505050158015610da4573d6000803e3d6000fd5b505b426000610db38583611ff1565b60008681526012602052604081205491925090670de0b6b3a764000090610dda9086612033565b610de4919061208b565b6001600160a01b0386166000908152600660209081526040808320815160a08101835289815280840189815292810188815260608201878152608083018781528454600181810187559589529688209351600590970290930195865593519285019290925590516002840155905160038301555160049182015580549293508692909190610e73908490611ff1565b925050819055508060056000828254610e8c9190611ff1565b909155505050505050505050565b336000818152600660205260408120805484908110610ebb57610ebb61201d565b906000526020600020906005020190506000610ed783856109d2565b905060008111610f295760405162461bcd60e51b815260206004820152601e60248201527f5374616b65506f6f6c3a206e6f7468696e6720746f20776974686472617700006044820152606401610706565b426004838101919091556002546040516370a0823160e01b8152309281019290925282916001600160a01b03909116906370a0823190602401602060405180830381865afa158015610f7f573d6000803e3d6000fd5b505050506040513d601f19601f82011682018060405250810190610fa39190612155565b116110015760405162461bcd60e51b815260206004820152602860248201527f696e73756666696369656e7420424c422062616c616e636520696e207468652060448201526718dbdb9d1c9858dd60c21b6064820152608401610706565b60025460405163a9059cbb60e01b81526001600160a01b038581166004830152602482018490529091169063a9059cbb906044016020604051808303816000875af1158015611054573d6000803e3d6000fd5b505050506040513d601f19601f8201168201806040525081019061107891906120d1565b5081546004805460009061108d9084906120f3565b90915550506003820154600580546000906110a99084906120f3565b909155505050505050565b600660205281600052604060002081815481106110d057600080fd5b600091825260209091206005909102018054600182015460028301546003840154600490940154929550909350919085565b61110a611a24565b611112611acb565b565b80156111c25734156111385760405162461bcd60e51b815260040161070690612106565b6001546001600160a01b03166323b872dd3361115c6000546001600160a01b031690565b846040518463ffffffff1660e01b815260040161117b939291906120ad565b6020604051808303816000875af115801561119a573d6000803e3d6000fd5b505050506040513d601f19601f820116820180604052508101906111be91906120d1565b5050565b600080546040516001600160a01b03909116913480156108fc02929091818181858888f193505050501580156111be573d6000803e3d6000fd5b50565b611207611a24565b858910801561121557508286105b6112705760405162461bcd60e51b815260206004820152602660248201527f506173732054696d6573206d75737420626520696e6372656173696e6720696e604482015265206120726f7760d01b6064820152608401610706565b8488111580156112805750818511155b61129c5760405162461bcd60e51b81526004016107069061216e565b8387111580156112ac5750808411155b6112c85760405162461bcd60e51b81526004016107069061216e565b60408051606080820183528b825260208083018c90529183018a905260079b909b556008999099556009979097558651808a0188528681528089018690528701849052600a95909555600b93909355600c919091558351958601845280865293850181905293909101819052600d91909155600e91909155600f55565b6001600160a01b038216600090815260066020526040812080548390811061136f5761136f61201d565b906000526020600020906005020160020154905092915050565b828181146113d95760405162461bcd60e51b815260206004820152601c60248201527f4c69737473206d7573742062652073616d6520696e206c656e677468000000006044820152606401610706565b3360005b828110156114ab576002546001600160a01b03166323b872dd838989858181106114095761140961201d565b905060200201602081019061141e9190611c51565b8888868181106114305761143061201d565b905060200201356040518463ffffffff1660e01b8152600401611455939291906120ad565b6020604051808303816000875af1158015611474573d6000803e3d6000fd5b505050506040513d601f19601f8201168201806040525081019061149891906120d1565b50806114a381612004565b9150506113dd565b50505050505050565b6114d860405180606001604052806000815260200160008152602001600081525090565b6114fc60405180606001604052806000815260200160008152602001600081525090565b61152060405180606001604052806000815260200160008152602001600081525090565b5050604080516060808201835260075482526008546020808401919091526009548385015283518083018552600a548152600b5481830152600c548186015284519283018552600d548352600e5491830191909152600f5493820193909352909391925090565b6001600160a01b03811660009081526006602052604081208054825b8181101561161a578281815481106115bd576115bd61201d565b906000526020600020906005020160040154600003611608578281815481106115e8576115e861201d565b906000526020600020906005020160000154846116059190611ff1565b93505b8061161281612004565b9150506115a3565b505050919050565b600354604051635fd0333160e01b8152600481018390526000916001600160a01b031690635fd03331906024015b602060405180830381865afa15801561166d573d6000803e3d6000fd5b505050506040513d601f19601f82011682018060405250810190610b8e9190612155565b60105460609081908067ffffffffffffffff8111156116b2576116b2611c73565b6040519080825280602002602001820160405280156116db578160200160208202803683370190505b5092508067ffffffffffffffff8111156116f7576116f7611c73565b604051908082528060200260200182016040528015611720578160200160208202803683370190505b50915060005b818110156117ca57601081815481106117415761174161201d565b906000526020600020015484828151811061175e5761175e61201d565b60200260200101818152505060126000601083815481106117815761178161201d565b90600052602060002001548152602001908152602001600020548382815181106117ad576117ad61201d565b6020908102919091010152806117c281612004565b915050611726565b50509091565b6117d8611a24565b6111126000611b20565b6117ea611a24565b611112611b70565b6117fa611a24565b60025460405163a9059cbb60e01b81526001600160a01b038481166004830152602482018490529091169063a9059cbb906044015b6020604051808303816000875af115801561184e573d6000803e3d6000fd5b505050506040513d601f19601f8201168201806040525081019061187291906120d1565b505050565b6001600160a01b0381166000908152600660209081526040808320805482518185028101850190935280835260609492939192909184015b8282101561191357838290600052602060002090600502016040518060a001604052908160008201548152602001600182015481526020016002820154815260200160038201548152602001600482015481525050815260200190600101906118af565b505050509050919050565b600354604051632f01f61760e21b8152600481018390526000916001600160a01b03169063bc07d85c90602401611650565b6002546040516323b872dd60e01b81526001600160a01b03909116906323b872dd9061182f903390869086906004016120ad565b61198c611a24565b600380546001600160a01b0319166001600160a01b0392909216919091179055565b6119b6611a24565b6001600160a01b038116611a1b5760405162461bcd60e51b815260206004820152602660248201527f4f776e61626c653a206e6577206f776e657220697320746865207a65726f206160448201526564647265737360d01b6064820152608401610706565b6111fc81611b20565b6000546001600160a01b031633146111125760405162461bcd60e51b815260206004820181905260248201527f4f776e61626c653a2063616c6c6572206973206e6f7420746865206f776e65726044820152606401610706565b600054600160a01b900460ff16156111125760405162461bcd60e51b815260206004820152601060248201526f14185d5cd8589b194e881c185d5cd95960821b6044820152606401610706565b611ad3611bb3565b6000805460ff60a01b191690557f5db9ee0a495bf2e6ff9c91a7834c1ba4fdd244a5e8aa4e537bd38aeae4b073aa335b6040516001600160a01b03909116815260200160405180910390a1565b600080546001600160a01b038381166001600160a01b0319831681178455604051919092169283917f8be0079c531659141344cd1fd0a4f28419497f9722a3daafe3b4186f6b6457e09190a35050565b611b78611a7e565b6000805460ff60a01b1916600160a01b1790557f62e78cea01bee320cd4e420270b5ea74000d11b0c9f74754ebdbfc544b05a258611b033390565b600054600160a01b900460ff166111125760405162461bcd60e51b815260206004820152601460248201527314185d5cd8589b194e881b9bdd081c185d5cd95960621b6044820152606401610706565b50805460008255906000526020600020908101906111fc91905b80821115611c315760008155600101611c1d565b5090565b80356001600160a01b0381168114611c4c57600080fd5b919050565b600060208284031215611c6357600080fd5b611c6c82611c35565b9392505050565b634e487b7160e01b600052604160045260246000fd5b600082601f830112611c9a57600080fd5b8135602067ffffffffffffffff80831115611cb757611cb7611c73565b8260051b604051601f19603f83011681018181108482111715611cdc57611cdc611c73565b604052938452858101830193838101925087851115611cfa57600080fd5b83870191505b84821015611d1957813583529183019190830190611d00565b979650505050505050565b60008060408385031215611d3757600080fd5b823567ffffffffffffffff80821115611d4f57600080fd5b611d5b86838701611c89565b93506020850135915080821115611d7157600080fd5b50611d7e85828601611c89565b9150509250929050565b60008060408385031215611d9b57600080fd5b50508035926020909101359150565b60008060408385031215611dbd57600080fd5b611dc683611c35565b946020939093013593505050565b600060208284031215611de657600080fd5b5035919050565b60008060008060008060008060006101208a8c031215611e0c57600080fd5b505087359960208901359950604089013598606081013598506080810135975060a0810135965060c0810135955060e08101359450610100013592509050565b60008083601f840112611e5e57600080fd5b50813567ffffffffffffffff811115611e7657600080fd5b6020830191508360208260051b8501011115611e9157600080fd5b9250929050565b60008060008060408587031215611eae57600080fd5b843567ffffffffffffffff80821115611ec657600080fd5b611ed288838901611e4c565b90965094506020870135915080821115611eeb57600080fd5b50611ef887828801611e4c565b95989497509550505050565b600081518084526020808501945080840160005b83811015611f3457815187529582019590820190600101611f18565b509495945050505050565b604081526000611f526040830185611f04565b8281036020840152611f648185611f04565b95945050505050565b602080825282518282018190526000919060409081850190868401855b82811015611fce5781518051855286810151878601528581015186860152606080820151908601526080908101519085015260a09093019290850190600101611f8a565b5091979650505050505050565b634e487b7160e01b600052601160045260246000fd5b80820180821115610b8e57610b8e611fdb565b60006001820161201657612016611fdb565b5060010190565b634e487b7160e01b600052603260045260246000fd5b8082028115828204841417610b8e57610b8e611fdb565b60208082526021908201527f7468657265206973206e6f20706c616e2062792074686973206475726174696f6040820152603760f91b606082015260800190565b6000826120a857634e487b7160e01b600052601260045260246000fd5b500490565b6001600160a01b039384168152919092166020820152604081019190915260600190565b6000602082840312156120e357600080fd5b81518015158114611c6c57600080fd5b81810381811115610b8e57610b8e611fdb565b6020808252602f908201527f6e6f7420616c6c6f77656420746f2062757920696e204255534420616e64204260408201526e4e4220696e2073616d652074696d6560881b606082015260800190565b60006020828403121561216757600080fd5b5051919050565b6020808252602e908201527f506173732054696d6573206d7573742062652073616d65206f7220696e63726560408201526d6173696e6720696e206120726f7760901b60608201526080019056fea2646970667358221220d8f7e37e58aab0b841ba79a6ab584b3174fc9a15be0e8e1231c7bc36cffa220a64736f6c63430008120033506173732054696d6573206d7573742062652073616d65206f7220696e637265",
  "linkReferences": {},
  "deployedLinkReferences": {}
}