{
  "_format": "hh-sol-artifact-1",
  "contractName": "StakeBLB_BLB",
  "sourceName": "contracts/StakePool/StakeBLB_BLB.sol",
  "abi": [
    {
      "inputs": [
        {
          "internalType": "contract IERC20",
          "name": "_BUSD",
          "type": "address"
        },
        {
          "internalType": "contract IERC20",
          "name": "_BLB",
          "type": "address"
        },
        {
          "internalType": "address",
          "name": "blbIo",
          "type": "address"
        }
      ],
      "stateMutability": "nonpayable",
      "type": "constructor"
    },
    {
      "anonymous": false,
      "inputs": [
        {
          "indexed": true,
          "internalType": "address",
          "name": "previousOwner",
          "type": "address"
        },
        {
          "indexed": true,
          "internalType": "address",
          "name": "newOwner",
          "type": "address"
        }
      ],
      "name": "OwnershipTransferred",
      "type": "event"
    },
    {
      "anonymous": false,
      "inputs": [
        {
          "indexed": false,
          "internalType": "address",
          "name": "account",
          "type": "address"
        }
      ],
      "name": "Paused",
      "type": "event"
    },
    {
      "anonymous": false,
      "inputs": [
        {
          "indexed": false,
          "internalType": "address",
          "name": "account",
          "type": "address"
        }
      ],
      "name": "Unpaused",
      "type": "event"
    },
    {
      "inputs": [],
      "name": "BLB",
      "outputs": [
        {
          "internalType": "contract IERC20",
          "name": "",
          "type": "address"
        }
      ],
      "stateMutability": "view",
      "type": "function"
    },
    {
      "inputs": [],
      "name": "BLBIO",
      "outputs": [
        {
          "internalType": "contract IBLBIO",
          "name": "",
          "type": "address"
        }
      ],
      "stateMutability": "view",
      "type": "function"
    },
    {
      "inputs": [
        {
          "internalType": "uint256",
          "name": "amountBNB",
          "type": "uint256"
        }
      ],
      "name": "BLBsForBNB",
      "outputs": [
        {
          "internalType": "uint256",
          "name": "",
          "type": "uint256"
        }
      ],
      "stateMutability": "view",
      "type": "function"
    },
    {
      "inputs": [
        {
          "internalType": "uint256",
          "name": "amountBUSD",
          "type": "uint256"
        }
      ],
      "name": "BLBsForUSD",
      "outputs": [
        {
          "internalType": "uint256",
          "name": "",
          "type": "uint256"
        }
      ],
      "stateMutability": "view",
      "type": "function"
    },
    {
      "inputs": [],
      "name": "BUSD",
      "outputs": [
        {
          "internalType": "contract IERC20",
          "name": "",
          "type": "address"
        }
      ],
      "stateMutability": "view",
      "type": "function"
    },
    {
      "inputs": [
        {
          "internalType": "uint256",
          "name": "amountBUSD",
          "type": "uint256"
        },
        {
          "internalType": "uint256",
          "name": "duration",
          "type": "uint256"
        }
      ],
      "name": "buyAndStake",
      "outputs": [],
      "stateMutability": "payable",
      "type": "function"
    },
    {
      "inputs": [],
      "name": "checkpoints",
      "outputs": [
        {
          "components": [
            {
              "internalType": "uint256",
              "name": "passTime",
              "type": "uint256"
            },
            {
              "internalType": "uint256",
              "name": "saveDeposit",
              "type": "uint256"
            },
            {
              "internalType": "uint256",
              "name": "saveProfit",
              "type": "uint256"
            }
          ],
          "internalType": "struct StakeBLB_BLB.Checkpoint",
          "name": "checkpoint1_",
          "type": "tuple"
        },
        {
          "components": [
            {
              "internalType": "uint256",
              "name": "passTime",
              "type": "uint256"
            },
            {
              "internalType": "uint256",
              "name": "saveDeposit",
              "type": "uint256"
            },
            {
              "internalType": "uint256",
              "name": "saveProfit",
              "type": "uint256"
            }
          ],
          "internalType": "struct StakeBLB_BLB.Checkpoint",
          "name": "checkpoint2_",
          "type": "tuple"
        },
        {
          "components": [
            {
              "internalType": "uint256",
              "name": "passTime",
              "type": "uint256"
            },
            {
              "internalType": "uint256",
              "name": "saveDeposit",
              "type": "uint256"
            },
            {
              "internalType": "uint256",
              "name": "saveProfit",
              "type": "uint256"
            }
          ],
          "internalType": "struct StakeBLB_BLB.Checkpoint",
          "name": "checkpoint3_",
          "type": "tuple"
        }
      ],
      "stateMutability": "view",
      "type": "function"
    },
    {
      "inputs": [
        {
          "internalType": "address",
          "name": "",
          "type": "address"
        },
        {
          "internalType": "uint256",
          "name": "",
          "type": "uint256"
        }
      ],
      "name": "investments",
      "outputs": [
        {
          "internalType": "uint256",
          "name": "amount",
          "type": "uint256"
        },
        {
          "internalType": "uint256",
          "name": "start",
          "type": "uint256"
        },
        {
          "internalType": "uint256",
          "name": "end",
          "type": "uint256"
        },
        {
          "internalType": "uint256",
          "name": "profit",
          "type": "uint256"
        },
        {
          "internalType": "uint256",
          "name": "claimTime",
          "type": "uint256"
        }
      ],
      "stateMutability": "view",
      "type": "function"
    },
    {
      "inputs": [
        {
          "internalType": "address",
          "name": "borrower",
          "type": "address"
        },
        {
          "internalType": "uint256",
          "name": "amount",
          "type": "uint256"
        }
      ],
      "name": "loanBLB",
      "outputs": [],
      "stateMutability": "nonpayable",
      "type": "function"
    },
    {
      "inputs": [
        {
          "internalType": "uint256",
          "name": "amount",
          "type": "uint256"
        },
        {
          "internalType": "uint256",
          "name": "duration",
          "type": "uint256"
        }
      ],
      "name": "newInvestment",
      "outputs": [],
      "stateMutability": "nonpayable",
      "type": "function"
    },
    {
      "inputs": [],
      "name": "owner",
      "outputs": [
        {
          "internalType": "address",
          "name": "",
          "type": "address"
        }
      ],
      "stateMutability": "view",
      "type": "function"
    },
    {
      "inputs": [],
      "name": "pause",
      "outputs": [],
      "stateMutability": "nonpayable",
      "type": "function"
    },
    {
      "inputs": [],
      "name": "paused",
      "outputs": [
        {
          "internalType": "bool",
          "name": "",
          "type": "bool"
        }
      ],
      "stateMutability": "view",
      "type": "function"
    },
    {
      "inputs": [
        {
          "internalType": "address",
          "name": "investor",
          "type": "address"
        }
      ],
      "name": "pendingWithdrawal",
      "outputs": [
        {
          "internalType": "uint256",
          "name": "total",
          "type": "uint256"
        }
      ],
      "stateMutability": "view",
      "type": "function"
    },
    {
      "inputs": [
        {
          "internalType": "address",
          "name": "investor",
          "type": "address"
        },
        {
          "internalType": "uint256",
          "name": "investmentId",
          "type": "uint256"
        }
      ],
      "name": "pendingWithdrawal",
      "outputs": [
        {
          "internalType": "uint256",
          "name": "",
          "type": "uint256"
        }
      ],
      "stateMutability": "view",
      "type": "function"
    },
    {
      "inputs": [],
      "name": "plans",
      "outputs": [
        {
          "internalType": "uint256[]",
          "name": "durations",
          "type": "uint256[]"
        },
        {
          "internalType": "uint256[]",
          "name": "profits",
          "type": "uint256[]"
        }
      ],
      "stateMutability": "view",
      "type": "function"
    },
    {
      "inputs": [
        {
          "internalType": "address",
          "name": "investor",
          "type": "address"
        },
        {
          "internalType": "uint256",
          "name": "investmentId",
          "type": "uint256"
        }
      ],
      "name": "releaseTime",
      "outputs": [
        {
          "internalType": "uint256",
          "name": "",
          "type": "uint256"
        }
      ],
      "stateMutability": "view",
      "type": "function"
    },
    {
      "inputs": [],
      "name": "renounceOwnership",
      "outputs": [],
      "stateMutability": "nonpayable",
      "type": "function"
    },
    {
      "inputs": [
        {
          "internalType": "uint256",
          "name": "",
          "type": "uint256"
        }
      ],
      "name": "rewardPlans",
      "outputs": [
        {
          "internalType": "uint256",
          "name": "",
          "type": "uint256"
        }
      ],
      "stateMutability": "view",
      "type": "function"
    },
    {
      "inputs": [
        {
          "internalType": "uint256",
          "name": "passTime1",
          "type": "uint256"
        },
        {
          "internalType": "uint256",
          "name": "saveDeposit1",
          "type": "uint256"
        },
        {
          "internalType": "uint256",
          "name": "saveProfit1",
          "type": "uint256"
        },
        {
          "internalType": "uint256",
          "name": "passTime2",
          "type": "uint256"
        },
        {
          "internalType": "uint256",
          "name": "saveDeposit2",
          "type": "uint256"
        },
        {
          "internalType": "uint256",
          "name": "saveProfit2",
          "type": "uint256"
        },
        {
          "internalType": "uint256",
          "name": "passTime3",
          "type": "uint256"
        },
        {
          "internalType": "uint256",
          "name": "saveDeposit3",
          "type": "uint256"
        },
        {
          "internalType": "uint256",
          "name": "saveProfit3",
          "type": "uint256"
        }
      ],
      "name": "setCheckpoints",
      "outputs": [],
      "stateMutability": "nonpayable",
      "type": "function"
    },
    {
      "inputs": [
        {
          "internalType": "uint256",
          "name": "duration",
          "type": "uint256"
        },
        {
          "internalType": "uint256",
          "name": "profit",
          "type": "uint256"
        }
      ],
      "name": "setPlan",
      "outputs": [],
      "stateMutability": "nonpayable",
      "type": "function"
    },
    {
      "inputs": [],
      "name": "totalDepositBLB",
      "outputs": [
        {
          "internalType": "uint256",
          "name": "",
          "type": "uint256"
        }
      ],
      "stateMutability": "view",
      "type": "function"
    },
    {
      "inputs": [],
      "name": "totalPendingBLB",
      "outputs": [
        {
          "internalType": "uint256",
          "name": "",
          "type": "uint256"
        }
      ],
      "stateMutability": "view",
      "type": "function"
    },
    {
      "inputs": [
        {
          "internalType": "address",
          "name": "newOwner",
          "type": "address"
        }
      ],
      "name": "transferOwnership",
      "outputs": [],
      "stateMutability": "nonpayable",
      "type": "function"
    },
    {
      "inputs": [],
      "name": "unpause",
      "outputs": [],
      "stateMutability": "nonpayable",
      "type": "function"
    },
    {
      "inputs": [
        {
          "internalType": "address",
          "name": "investor",
          "type": "address"
        }
      ],
      "name": "userInvestments",
      "outputs": [
        {
          "components": [
            {
              "internalType": "uint256",
              "name": "amount",
              "type": "uint256"
            },
            {
              "internalType": "uint256",
              "name": "start",
              "type": "uint256"
            },
            {
              "internalType": "uint256",
              "name": "end",
              "type": "uint256"
            },
            {
              "internalType": "uint256",
              "name": "profit",
              "type": "uint256"
            },
            {
              "internalType": "uint256",
              "name": "claimTime",
              "type": "uint256"
            }
          ],
          "internalType": "struct StakeBLB_BLB.Investment[]",
          "name": "",
          "type": "tuple[]"
        }
      ],
      "stateMutability": "view",
      "type": "function"
    },
    {
      "inputs": [
        {
          "internalType": "address",
          "name": "investor",
          "type": "address"
        }
      ],
      "name": "userTotalStake",
      "outputs": [
        {
          "internalType": "uint256",
          "name": "totalStake",
          "type": "uint256"
        }
      ],
      "stateMutability": "view",
      "type": "function"
    },
    {
      "inputs": [
        {
          "internalType": "uint256",
          "name": "investmentId",
          "type": "uint256"
        }
      ],
      "name": "withdraw",
      "outputs": [],
      "stateMutability": "nonpayable",
      "type": "function"
    }
  ],
  "bytecode": "0x60806040523480156200001157600080fd5b5060405162001d6138038062001d618339810160408190526200003491620002ee565b6200003f336200011d565b6000805460ff60a01b19169055600180546001600160a01b038086166001600160a01b0319928316179092556002805485841690831617905560038054928416929091169190911790556200009f6203f48066038d7ea4c680006200016d565b620000b662278d00670214e8348c4f00006200016d565b620000cd6276a7006706f05b59d3b200006200016d565b620000e462ed4e006710a741a4627800006200016d565b620000fc6301da9c006722b1c8c1227a00006200016d565b620001146000605081603260648284826028620001ed565b50505062000342565b600080546001600160a01b038381166001600160a01b0319831681178455604051919092169283917f8be0079c531659141344cd1fd0a4f28419497f9722a3daafe3b4186f6b6457e09190a35050565b6200017762000274565b6000828152600860209081526040808320849055600790915290205460ff16620001e9576000828152600760205260408120805460ff191660019081179091556006805491820181559091527ff652222313e28459528d920b65115c16c04f3efc82aaedc97be59f3f377c0d3f018290555b5050565b620001f762000274565b60408051606080820183528b825260208083018c90529183018a9052600a9b909b55600b99909955600c979097558651808a0188528681528089018690528701849052600d95909555600e93909355600f919091558351958601845280865293850181905293909101819052601091909155601191909155601255565b6000546001600160a01b03163314620002d35760405162461bcd60e51b815260206004820181905260248201527f4f776e61626c653a2063616c6c6572206973206e6f7420746865206f776e6572604482015260640160405180910390fd5b565b6001600160a01b0381168114620002eb57600080fd5b50565b6000806000606084860312156200030457600080fd5b83516200031181620002d5565b60208501519093506200032481620002d5565b60408501519092506200033781620002d5565b809150509250925092565b611a0f80620003526000396000f3fe6080604052600436106101b75760003560e01c80635c975abb116100ec578063947d8bef1161008a578063bc07d85c11610064578063bc07d85c14610549578063bfa54b3f14610569578063e88cf1b414610589578063f2fde38b1461059f57600080fd5b8063947d8bef146104dc578063a2fa0c75146104fc578063b023eba51461051c57600080fd5b8063715018a6116100c6578063715018a6146104675780638456cb591461047c57806388a9931f146104915780638da5cb5b146104be57600080fd5b80635c975abb146103fa5780635fd033311461042457806364eb1b211461044457600080fd5b80633e6d977011610159578063484f4ea911610133578063484f4ea9146103175780634983c3ab1461034f5780635a48c0b01461036f5780635b91c512146103da57600080fd5b80633e6d97701461029a5780633f4ba83a146102e25780634668d866146102f757600080fd5b80632bf0da7e116101955780632bf0da7e146102275780632cc711c1146102475780632e1a7d4d1461025a5780633353561d1461027a57600080fd5b80630964c95b146101bc5780630c736b35146101ef5780632858336514610205575b600080fd5b3480156101c857600080fd5b506101dc6101d73660046116e6565b6105bf565b6040519081526020015b60405180910390f35b3480156101fb57600080fd5b506101dc60045481565b34801561021157600080fd5b50610225610220366004611708565b610611565b005b34801561023357600080fd5b506101dc61024236600461172a565b6107be565b610225610255366004611708565b610980565b34801561026657600080fd5b50610225610275366004611754565b610ce4565b34801561028657600080fd5b50610225610295366004611708565b610e31565b3480156102a657600080fd5b506102ba6102b536600461172a565b610eae565b604080519586526020860194909452928401919091526060830152608082015260a0016101e6565b3480156102ee57600080fd5b50610225610efc565b34801561030357600080fd5b5061022561031236600461176d565b610f0e565b34801561032357600080fd5b50600154610337906001600160a01b031681565b6040516001600160a01b0390911681526020016101e6565b34801561035b57600080fd5b506101dc61036a36600461172a565b610f93565b34801561037b57600080fd5b50610384610fd7565b6040805184518152602080860151818301529482015181830152835160608201528484015160808201529281015160a0840152815160c08401529281015160e083015290910151610100820152610120016101e6565b3480156103e657600080fd5b506101dc6103f53660046116e6565b6110aa565b34801561040657600080fd5b50600054600160a01b900460ff1660405190151581526020016101e6565b34801561043057600080fd5b506101dc61043f366004611754565b611145565b34801561045057600080fd5b506104596111b4565b6040516101e6929190611807565b34801561047357600080fd5b506102256112f3565b34801561048857600080fd5b50610225611305565b34801561049d57600080fd5b506101dc6104ac366004611754565b60086020526000908152604090205481565b3480156104ca57600080fd5b506000546001600160a01b0316610337565b3480156104e857600080fd5b50600354610337906001600160a01b031681565b34801561050857600080fd5b5061022561051736600461172a565b611315565b34801561052857600080fd5b5061053c6105373660046116e6565b611399565b6040516101e69190611835565b34801561055557600080fd5b506101dc610564366004611754565b611440565b34801561057557600080fd5b50600254610337906001600160a01b031681565b34801561059557600080fd5b506101dc60055481565b3480156105ab57600080fd5b506102256105ba3660046116e6565b611472565b6001600160a01b038116600090815260096020526040812054815b8181101561060a576105ec84826107be565b6105f690846118b9565b925080610602816118cc565b9150506105da565b5050919050565b6106196114eb565b600081815260086020526040812054900361064f5760405162461bcd60e51b8152600401610646906118e5565b60405180910390fd5b3342600061065d84836118b9565b60008581526008602052604081205491925090670de0b6b3a7640000906106849088611926565b61068e919061193d565b6002546040516323b872dd60e01b81526001600160a01b038781166004830152306024830152604482018a90529293509116906323b872dd906064016020604051808303816000875af11580156106e9573d6000803e3d6000fd5b505050506040513d601f19601f8201168201806040525081019061070d919061195f565b506001600160a01b0384166000908152600960209081526040808320815160a0810183528a815280840188815292810187815260608201878152608083018781528454600181810187559589529688209351600590970290930195865593519285019290925590516002840155905160038301555160049182015580548892906107989084906118b9565b9250508190555080600560008282546107b191906118b9565b9091555050505050505050565b6001600160a01b03821660009081526009602052604081208054829190849081106107eb576107eb611981565b60009182526020822060016005909202019081015460028201549193508291429190836108188383611997565b875460038901549192509083861061083557819750809650610964565b846064846010600001546108499190611926565b610853919061193d565b61085d91906118b9565b86106108a1576011546064906108739084611926565b61087d919061193d565b6012549098506064906108909083611926565b61089a919061193d565b9650610964565b84606484600d600001546108b59190611926565b6108bf919061193d565b6108c991906118b9565b86106108fc57600e546064906108df9084611926565b6108e9919061193d565b600f549098506064906108909083611926565b84606484600a600001546109109190611926565b61091a919061193d565b61092491906118b9565b861061096457600b5460649061093a9084611926565b610944919061193d565b600c549098506064906109579083611926565b610961919061193d565b96505b61096e87896118b9565b99505050505050505050505b92915050565b6109886114eb565b60008181526008602052604081205490036109b55760405162461bcd60e51b8152600401610646906118e5565b3360008315610b36573415610a245760405162461bcd60e51b815260206004820152602f60248201527f6e6f7420616c6c6f77656420746f2062757920696e204255534420616e64204260448201526e4e4220696e2073616d652074696d6560881b6064820152608401610646565b600354604051632f01f61760e21b8152600481018690526001600160a01b039091169063bc07d85c90602401602060405180830381865afa158015610a6d573d6000803e3d6000fd5b505050506040513d601f19601f82011682018060405250810190610a9191906119aa565b6001549091506001600160a01b03166323b872dd83610ab86000546001600160a01b031690565b6040516001600160e01b031960e085901b1681526001600160a01b03928316600482015291166024820152604481018790526064016020604051808303816000875af1158015610b0c573d6000803e3d6000fd5b505050506040513d601f19601f82011682018060405250810190610b30919061195f565b50610bf0565b600354604051635fd0333160e01b81523460048201526001600160a01b0390911690635fd0333190602401602060405180830381865afa158015610b7e573d6000803e3d6000fd5b505050506040513d601f19601f82011682018060405250810190610ba291906119aa565b9050610bb66000546001600160a01b031690565b6001600160a01b03166108fc349081150290604051600060405180830381858888f19350505050158015610bee573d6000803e3d6000fd5b505b426000610bfd85836118b9565b60008681526008602052604081205491925090670de0b6b3a764000090610c249086611926565b610c2e919061193d565b6001600160a01b0386166000908152600960209081526040808320815160a08101835289815280840189815292810188815260608201878152608083018781528454600181810187559589529688209351600590970290930195865593519285019290925590516002840155905160038301555160049182015580549293508692909190610cbd9084906118b9565b925050819055508060056000828254610cd691906118b9565b909155505050505050505050565b336000818152600960205260408120805484908110610d0557610d05611981565b906000526020600020906005020190506000610d2183856107be565b905060008111610d735760405162461bcd60e51b815260206004820152601e60248201527f5374616b65506f6f6c3a206e6f7468696e6720746f20776974686472617700006044820152606401610646565b4260048381019190915560025460405163a9059cbb60e01b81526001600160a01b03868116938201939093526024810184905291169063a9059cbb906044016020604051808303816000875af1158015610dd1573d6000803e3d6000fd5b505050506040513d601f19601f82011682018060405250810190610df5919061195f565b50815460048054600090610e0a908490611997565b9091555050600382015460058054600090610e26908490611997565b909155505050505050565b610e39611538565b6000828152600860209081526040808320849055600790915290205460ff16610eaa576000828152600760205260408120805460ff191660019081179091556006805491820181559091527ff652222313e28459528d920b65115c16c04f3efc82aaedc97be59f3f377c0d3f018290555b5050565b60096020528160005260406000208181548110610eca57600080fd5b600091825260209091206005909102018054600182015460028301546003840154600490940154929550909350919085565b610f04611538565b610f0c611592565b565b610f16611538565b60408051606080820183528b825260208083018c90529183018a9052600a9b909b55600b99909955600c979097558651808a0188528681528089018690528701849052600d95909555600e93909355600f919091558351958601845280865293850181905293909101819052601091909155601191909155601255565b6001600160a01b0382166000908152600960205260408120805483908110610fbd57610fbd611981565b906000526020600020906005020160020154905092915050565b610ffb60405180606001604052806000815260200160008152602001600081525090565b61101f60405180606001604052806000815260200160008152602001600081525090565b61104360405180606001604052806000815260200160008152602001600081525090565b50506040805160608082018352600a548252600b54602080840191909152600c548385015283518083018552600d548152600e5481830152600f54818601528451928301855260105483526011549183019190915260125493820193909352909391925090565b6001600160a01b03811660009081526009602052604081208054825b8181101561113d578281815481106110e0576110e0611981565b90600052602060002090600502016004015460000361112b5782818154811061110b5761110b611981565b9060005260206000209060050201600001548461112891906118b9565b93505b80611135816118cc565b9150506110c6565b505050919050565b600354604051635fd0333160e01b8152600481018390526000916001600160a01b031690635fd03331906024015b602060405180830381865afa158015611190573d6000803e3d6000fd5b505050506040513d601f19601f8201168201806040525081019061097a91906119aa565b60065460609081908067ffffffffffffffff8111156111d5576111d56119c3565b6040519080825280602002602001820160405280156111fe578160200160208202803683370190505b5092508067ffffffffffffffff81111561121a5761121a6119c3565b604051908082528060200260200182016040528015611243578160200160208202803683370190505b50915060005b818110156112ed576006818154811061126457611264611981565b906000526020600020015484828151811061128157611281611981565b60200260200101818152505060086000600683815481106112a4576112a4611981565b90600052602060002001548152602001908152602001600020548382815181106112d0576112d0611981565b6020908102919091010152806112e5816118cc565b915050611249565b50509091565b6112fb611538565b610f0c60006115e7565b61130d611538565b610f0c611637565b61131d611538565b60025460405163a9059cbb60e01b81526001600160a01b038481166004830152602482018490529091169063a9059cbb906044016020604051808303816000875af1158015611370573d6000803e3d6000fd5b505050506040513d601f19601f82011682018060405250810190611394919061195f565b505050565b6001600160a01b0381166000908152600960209081526040808320805482518185028101850190935280835260609492939192909184015b8282101561143557838290600052602060002090600502016040518060a001604052908160008201548152602001600182015481526020016002820154815260200160038201548152602001600482015481525050815260200190600101906113d1565b505050509050919050565b600354604051632f01f61760e21b8152600481018390526000916001600160a01b03169063bc07d85c90602401611173565b61147a611538565b6001600160a01b0381166114df5760405162461bcd60e51b815260206004820152602660248201527f4f776e61626c653a206e6577206f776e657220697320746865207a65726f206160448201526564647265737360d01b6064820152608401610646565b6114e8816115e7565b50565b600054600160a01b900460ff1615610f0c5760405162461bcd60e51b815260206004820152601060248201526f14185d5cd8589b194e881c185d5cd95960821b6044820152606401610646565b6000546001600160a01b03163314610f0c5760405162461bcd60e51b815260206004820181905260248201527f4f776e61626c653a2063616c6c6572206973206e6f7420746865206f776e65726044820152606401610646565b61159a61167a565b6000805460ff60a01b191690557f5db9ee0a495bf2e6ff9c91a7834c1ba4fdd244a5e8aa4e537bd38aeae4b073aa335b6040516001600160a01b03909116815260200160405180910390a1565b600080546001600160a01b038381166001600160a01b0319831681178455604051919092169283917f8be0079c531659141344cd1fd0a4f28419497f9722a3daafe3b4186f6b6457e09190a35050565b61163f6114eb565b6000805460ff60a01b1916600160a01b1790557f62e78cea01bee320cd4e420270b5ea74000d11b0c9f74754ebdbfc544b05a2586115ca3390565b600054600160a01b900460ff16610f0c5760405162461bcd60e51b815260206004820152601460248201527314185d5cd8589b194e881b9bdd081c185d5cd95960621b6044820152606401610646565b80356001600160a01b03811681146116e157600080fd5b919050565b6000602082840312156116f857600080fd5b611701826116ca565b9392505050565b6000806040838503121561171b57600080fd5b50508035926020909101359150565b6000806040838503121561173d57600080fd5b611746836116ca565b946020939093013593505050565b60006020828403121561176657600080fd5b5035919050565b60008060008060008060008060006101208a8c03121561178c57600080fd5b505087359960208901359950604089013598606081013598506080810135975060a0810135965060c0810135955060e08101359450610100013592509050565b600081518084526020808501945080840160005b838110156117fc578151875295820195908201906001016117e0565b509495945050505050565b60408152600061181a60408301856117cc565b828103602084015261182c81856117cc565b95945050505050565b602080825282518282018190526000919060409081850190868401855b828110156118965781518051855286810151878601528581015186860152606080820151908601526080908101519085015260a09093019290850190600101611852565b5091979650505050505050565b634e487b7160e01b600052601160045260246000fd5b8082018082111561097a5761097a6118a3565b6000600182016118de576118de6118a3565b5060010190565b60208082526021908201527f7468657265206973206e6f20706c616e2062792074686973206475726174696f6040820152603760f91b606082015260800190565b808202811582820484141761097a5761097a6118a3565b60008261195a57634e487b7160e01b600052601260045260246000fd5b500490565b60006020828403121561197157600080fd5b8151801515811461170157600080fd5b634e487b7160e01b600052603260045260246000fd5b8181038181111561097a5761097a6118a3565b6000602082840312156119bc57600080fd5b5051919050565b634e487b7160e01b600052604160045260246000fdfea26469706673582212207c53ac49b4589fd2fb9e50145d8401a81f78d001329ec35a836aebc6b3338cc564736f6c63430008120033",
  "linkReferences": {},
  "deployedLinkReferences": {}
}