{
  "_format": "hh-sol-artifact-1",
  "contractName": "StakeBLB_BLB",
  "sourceName": "contracts/StakePool/StakeBLB_BLB.sol",
  "abi": [
    {
      "inputs": [
        {
          "internalType": "contract IERC20",
          "name": "_BUSD",
          "type": "address"
        },
        {
          "internalType": "contract IERC20",
          "name": "_BLB",
          "type": "address"
        },
        {
          "internalType": "address",
          "name": "blbSwap",
          "type": "address"
        },
        {
          "internalType": "uint256[]",
          "name": "_timePlans_",
          "type": "uint256[]"
        },
        {
          "internalType": "uint256[]",
          "name": "_investPlanAmounts_",
          "type": "uint256[]"
        },
        {
          "internalType": "uint256[]",
          "name": "_investPlanProfits_",
          "type": "uint256[]"
        }
      ],
      "stateMutability": "nonpayable",
      "type": "constructor"
    },
    {
      "anonymous": false,
      "inputs": [
        {
          "indexed": true,
          "internalType": "address",
          "name": "previousOwner",
          "type": "address"
        },
        {
          "indexed": true,
          "internalType": "address",
          "name": "newOwner",
          "type": "address"
        }
      ],
      "name": "OwnershipTransferred",
      "type": "event"
    },
    {
      "anonymous": false,
      "inputs": [
        {
          "indexed": false,
          "internalType": "address",
          "name": "account",
          "type": "address"
        }
      ],
      "name": "Paused",
      "type": "event"
    },
    {
      "anonymous": false,
      "inputs": [
        {
          "indexed": false,
          "internalType": "address",
          "name": "account",
          "type": "address"
        }
      ],
      "name": "Unpaused",
      "type": "event"
    },
    {
      "inputs": [],
      "name": "BLB",
      "outputs": [
        {
          "internalType": "contract IERC20",
          "name": "",
          "type": "address"
        }
      ],
      "stateMutability": "view",
      "type": "function"
    },
    {
      "inputs": [],
      "name": "BLBSwap",
      "outputs": [
        {
          "internalType": "contract IBLBSwap",
          "name": "",
          "type": "address"
        }
      ],
      "stateMutability": "view",
      "type": "function"
    },
    {
      "inputs": [
        {
          "internalType": "uint256",
          "name": "amountBNB",
          "type": "uint256"
        }
      ],
      "name": "BLBsForBNB",
      "outputs": [
        {
          "internalType": "uint256",
          "name": "",
          "type": "uint256"
        }
      ],
      "stateMutability": "view",
      "type": "function"
    },
    {
      "inputs": [
        {
          "internalType": "uint256",
          "name": "amountBUSD",
          "type": "uint256"
        }
      ],
      "name": "BLBsForUSD",
      "outputs": [
        {
          "internalType": "uint256",
          "name": "",
          "type": "uint256"
        }
      ],
      "stateMutability": "view",
      "type": "function"
    },
    {
      "inputs": [],
      "name": "BUSD",
      "outputs": [
        {
          "internalType": "contract IERC20",
          "name": "",
          "type": "address"
        }
      ],
      "stateMutability": "view",
      "type": "function"
    },
    {
      "inputs": [
        {
          "internalType": "uint256",
          "name": "timeInDays",
          "type": "uint256"
        }
      ],
      "name": "addTimePlan",
      "outputs": [],
      "stateMutability": "nonpayable",
      "type": "function"
    },
    {
      "inputs": [
        {
          "internalType": "uint256",
          "name": "amountBUSD",
          "type": "uint256"
        },
        {
          "internalType": "uint256",
          "name": "timeInDays",
          "type": "uint256"
        }
      ],
      "name": "buyAndStake",
      "outputs": [],
      "stateMutability": "payable",
      "type": "function"
    },
    {
      "inputs": [
        {
          "internalType": "address",
          "name": "_BLBSwap",
          "type": "address"
        }
      ],
      "name": "changeBLBSwap",
      "outputs": [],
      "stateMutability": "nonpayable",
      "type": "function"
    },
    {
      "inputs": [],
      "name": "checkpoints",
      "outputs": [
        {
          "components": [
            {
              "internalType": "uint256",
              "name": "passTime",
              "type": "uint256"
            },
            {
              "internalType": "uint256",
              "name": "saveDeposit",
              "type": "uint256"
            },
            {
              "internalType": "uint256",
              "name": "saveProfit",
              "type": "uint256"
            }
          ],
          "internalType": "struct StakeBLB_BLB.Checkpoint",
          "name": "checkpoint1_",
          "type": "tuple"
        },
        {
          "components": [
            {
              "internalType": "uint256",
              "name": "passTime",
              "type": "uint256"
            },
            {
              "internalType": "uint256",
              "name": "saveDeposit",
              "type": "uint256"
            },
            {
              "internalType": "uint256",
              "name": "saveProfit",
              "type": "uint256"
            }
          ],
          "internalType": "struct StakeBLB_BLB.Checkpoint",
          "name": "checkpoint2_",
          "type": "tuple"
        },
        {
          "components": [
            {
              "internalType": "uint256",
              "name": "passTime",
              "type": "uint256"
            },
            {
              "internalType": "uint256",
              "name": "saveDeposit",
              "type": "uint256"
            },
            {
              "internalType": "uint256",
              "name": "saveProfit",
              "type": "uint256"
            }
          ],
          "internalType": "struct StakeBLB_BLB.Checkpoint",
          "name": "checkpoint3_",
          "type": "tuple"
        }
      ],
      "stateMutability": "view",
      "type": "function"
    },
    {
      "inputs": [
        {
          "internalType": "address",
          "name": "",
          "type": "address"
        },
        {
          "internalType": "uint256",
          "name": "",
          "type": "uint256"
        }
      ],
      "name": "investments",
      "outputs": [
        {
          "internalType": "uint256",
          "name": "amount",
          "type": "uint256"
        },
        {
          "internalType": "uint256",
          "name": "amountUSD",
          "type": "uint256"
        },
        {
          "internalType": "uint256",
          "name": "start",
          "type": "uint256"
        },
        {
          "internalType": "uint256",
          "name": "end",
          "type": "uint256"
        },
        {
          "internalType": "uint256",
          "name": "profit",
          "type": "uint256"
        },
        {
          "internalType": "uint256",
          "name": "claimTime",
          "type": "uint256"
        }
      ],
      "stateMutability": "view",
      "type": "function"
    },
    {
      "inputs": [
        {
          "internalType": "address",
          "name": "borrower",
          "type": "address"
        },
        {
          "internalType": "uint256",
          "name": "amount",
          "type": "uint256"
        }
      ],
      "name": "loanBLB",
      "outputs": [],
      "stateMutability": "nonpayable",
      "type": "function"
    },
    {
      "inputs": [
        {
          "internalType": "uint256",
          "name": "amount",
          "type": "uint256"
        },
        {
          "internalType": "uint256",
          "name": "timeInDays",
          "type": "uint256"
        }
      ],
      "name": "newInvestment",
      "outputs": [],
      "stateMutability": "nonpayable",
      "type": "function"
    },
    {
      "inputs": [],
      "name": "owner",
      "outputs": [
        {
          "internalType": "address",
          "name": "",
          "type": "address"
        }
      ],
      "stateMutability": "view",
      "type": "function"
    },
    {
      "inputs": [],
      "name": "pause",
      "outputs": [],
      "stateMutability": "nonpayable",
      "type": "function"
    },
    {
      "inputs": [],
      "name": "paused",
      "outputs": [
        {
          "internalType": "bool",
          "name": "",
          "type": "bool"
        }
      ],
      "stateMutability": "view",
      "type": "function"
    },
    {
      "inputs": [
        {
          "internalType": "address",
          "name": "user",
          "type": "address"
        },
        {
          "internalType": "uint256",
          "name": "amount",
          "type": "uint256"
        }
      ],
      "name": "pay",
      "outputs": [],
      "stateMutability": "nonpayable",
      "type": "function"
    },
    {
      "inputs": [
        {
          "internalType": "address[]",
          "name": "users",
          "type": "address[]"
        },
        {
          "internalType": "uint256[]",
          "name": "amounts",
          "type": "uint256[]"
        }
      ],
      "name": "payBatch",
      "outputs": [],
      "stateMutability": "nonpayable",
      "type": "function"
    },
    {
      "inputs": [
        {
          "internalType": "address",
          "name": "investor",
          "type": "address"
        }
      ],
      "name": "pendingWithdrawal",
      "outputs": [
        {
          "internalType": "uint256",
          "name": "total",
          "type": "uint256"
        }
      ],
      "stateMutability": "view",
      "type": "function"
    },
    {
      "inputs": [
        {
          "internalType": "address",
          "name": "investor",
          "type": "address"
        },
        {
          "internalType": "uint256",
          "name": "investmentId",
          "type": "uint256"
        }
      ],
      "name": "pendingWithdrawal",
      "outputs": [
        {
          "internalType": "uint256",
          "name": "",
          "type": "uint256"
        }
      ],
      "stateMutability": "view",
      "type": "function"
    },
    {
      "inputs": [],
      "name": "plans",
      "outputs": [
        {
          "internalType": "uint256[]",
          "name": "_investPlanAmounts_",
          "type": "uint256[]"
        },
        {
          "internalType": "uint256[]",
          "name": "_investPlanProfits_",
          "type": "uint256[]"
        }
      ],
      "stateMutability": "view",
      "type": "function"
    },
    {
      "inputs": [
        {
          "internalType": "uint256",
          "name": "investingAmount",
          "type": "uint256"
        },
        {
          "internalType": "uint256",
          "name": "duration",
          "type": "uint256"
        }
      ],
      "name": "profitCalculator",
      "outputs": [
        {
          "internalType": "uint256",
          "name": "profit",
          "type": "uint256"
        }
      ],
      "stateMutability": "view",
      "type": "function"
    },
    {
      "inputs": [
        {
          "internalType": "address",
          "name": "investor",
          "type": "address"
        },
        {
          "internalType": "uint256",
          "name": "investmentId",
          "type": "uint256"
        }
      ],
      "name": "releaseTime",
      "outputs": [
        {
          "internalType": "uint256",
          "name": "",
          "type": "uint256"
        }
      ],
      "stateMutability": "view",
      "type": "function"
    },
    {
      "inputs": [
        {
          "internalType": "uint256",
          "name": "timeInDays",
          "type": "uint256"
        }
      ],
      "name": "removeTimePlan",
      "outputs": [],
      "stateMutability": "nonpayable",
      "type": "function"
    },
    {
      "inputs": [],
      "name": "renounceOwnership",
      "outputs": [],
      "stateMutability": "nonpayable",
      "type": "function"
    },
    {
      "inputs": [
        {
          "internalType": "uint256",
          "name": "passTime1",
          "type": "uint256"
        },
        {
          "internalType": "uint256",
          "name": "saveDeposit1",
          "type": "uint256"
        },
        {
          "internalType": "uint256",
          "name": "saveProfit1",
          "type": "uint256"
        },
        {
          "internalType": "uint256",
          "name": "passTime2",
          "type": "uint256"
        },
        {
          "internalType": "uint256",
          "name": "saveDeposit2",
          "type": "uint256"
        },
        {
          "internalType": "uint256",
          "name": "saveProfit2",
          "type": "uint256"
        },
        {
          "internalType": "uint256",
          "name": "passTime3",
          "type": "uint256"
        },
        {
          "internalType": "uint256",
          "name": "saveDeposit3",
          "type": "uint256"
        },
        {
          "internalType": "uint256",
          "name": "saveProfit3",
          "type": "uint256"
        }
      ],
      "name": "setCheckpoints",
      "outputs": [],
      "stateMutability": "nonpayable",
      "type": "function"
    },
    {
      "inputs": [
        {
          "internalType": "uint256[]",
          "name": "_investPlanAmounts_",
          "type": "uint256[]"
        },
        {
          "internalType": "uint256[]",
          "name": "_investPlanProfits_",
          "type": "uint256[]"
        }
      ],
      "name": "setInvestPlans",
      "outputs": [],
      "stateMutability": "nonpayable",
      "type": "function"
    },
    {
      "inputs": [],
      "name": "timePlans",
      "outputs": [
        {
          "internalType": "uint256[]",
          "name": "",
          "type": "uint256[]"
        }
      ],
      "stateMutability": "view",
      "type": "function"
    },
    {
      "inputs": [
        {
          "internalType": "uint256",
          "name": "addingAmount",
          "type": "uint256"
        },
        {
          "internalType": "uint256",
          "name": "investmentId",
          "type": "uint256"
        }
      ],
      "name": "topUp",
      "outputs": [],
      "stateMutability": "nonpayable",
      "type": "function"
    },
    {
      "inputs": [
        {
          "internalType": "uint256",
          "name": "amountBUSD",
          "type": "uint256"
        },
        {
          "internalType": "uint256",
          "name": "investmentId",
          "type": "uint256"
        }
      ],
      "name": "topUpPayable",
      "outputs": [],
      "stateMutability": "payable",
      "type": "function"
    },
    {
      "inputs": [],
      "name": "totalDepositBLB",
      "outputs": [
        {
          "internalType": "uint256",
          "name": "",
          "type": "uint256"
        }
      ],
      "stateMutability": "view",
      "type": "function"
    },
    {
      "inputs": [],
      "name": "totalPendingBLB",
      "outputs": [
        {
          "internalType": "uint256",
          "name": "",
          "type": "uint256"
        }
      ],
      "stateMutability": "view",
      "type": "function"
    },
    {
      "inputs": [
        {
          "internalType": "address",
          "name": "newOwner",
          "type": "address"
        }
      ],
      "name": "transferOwnership",
      "outputs": [],
      "stateMutability": "nonpayable",
      "type": "function"
    },
    {
      "inputs": [],
      "name": "unpause",
      "outputs": [],
      "stateMutability": "nonpayable",
      "type": "function"
    },
    {
      "inputs": [
        {
          "internalType": "address",
          "name": "investor",
          "type": "address"
        }
      ],
      "name": "userInvestments",
      "outputs": [
        {
          "components": [
            {
              "internalType": "uint256",
              "name": "amount",
              "type": "uint256"
            },
            {
              "internalType": "uint256",
              "name": "amountUSD",
              "type": "uint256"
            },
            {
              "internalType": "uint256",
              "name": "start",
              "type": "uint256"
            },
            {
              "internalType": "uint256",
              "name": "end",
              "type": "uint256"
            },
            {
              "internalType": "uint256",
              "name": "profit",
              "type": "uint256"
            },
            {
              "internalType": "uint256",
              "name": "claimTime",
              "type": "uint256"
            }
          ],
          "internalType": "struct StakeBLB_BLB.Investment[]",
          "name": "",
          "type": "tuple[]"
        }
      ],
      "stateMutability": "view",
      "type": "function"
    },
    {
      "inputs": [
        {
          "internalType": "address",
          "name": "investor",
          "type": "address"
        }
      ],
      "name": "userTotalStake",
      "outputs": [
        {
          "internalType": "uint256",
          "name": "totalStake",
          "type": "uint256"
        }
      ],
      "stateMutability": "view",
      "type": "function"
    },
    {
      "inputs": [
        {
          "internalType": "uint256",
          "name": "investmentId",
          "type": "uint256"
        }
      ],
      "name": "withdraw",
      "outputs": [],
      "stateMutability": "nonpayable",
      "type": "function"
    }
  ],
  "bytecode": "0x60806040523480156200001157600080fd5b506040516200392f3803806200392f833981016040819052620000349162000723565b6200003f3362000115565b6000805460ff60a01b19168155600180546001600160a01b03808a166001600160a01b031992831617909255600280548984169083161790556003805492881692909116919091179055620000a09060508160326064828482602862000165565b825160005b81811015620000fb57620000e5858281518110620000c757620000c7620007f4565b602002602001015160106200032660201b620026d81790919060201c565b5080620000f28162000820565b915050620000a5565b506200010883836200033d565b5050505050505062000852565b600080546001600160a01b038381166001600160a01b0319831681178455604051919092169283917f8be0079c531659141344cd1fd0a4f28419497f9722a3daafe3b4186f6b6457e09190a35050565b6200016f62000539565b85891080156200017e57508286105b620001df5760405162461bcd60e51b815260206004820152602660248201527f506173732054696d6573206d75737420626520696e6372656173696e6720696e604482015265206120726f7760d01b60648201526084015b60405180910390fd5b848811158015620001f05750818511155b620002445760405162461bcd60e51b815260206004820152602e60248201526000805160206200390f83398151915260448201526d6173696e6720696e206120726f7760901b6064820152608401620001d6565b838711158015620002555750808411155b620002a95760405162461bcd60e51b815260206004820152602e60248201526000805160206200390f83398151915260448201526d6173696e6720696e206120726f7760901b6064820152608401620001d6565b60408051606080820183528b825260208083018c90529183018a905260079b909b556008999099556009979097558651808a0188528681528089018690528701849052600a95909555600b93909355600c919091558351958601845280865293850181905293909101819052600d91909155600e91909155600f55565b600062000334838362000597565b90505b92915050565b6200034762000539565b8151815181146200039b5760405162461bcd60e51b815260206004820152601a60248201527f617272617973206c656e677468206d7573742062652073616d650000000000006044820152606401620001d6565b60015b81811015620005075783620003b56001836200083c565b81518110620003c857620003c8620007f4565b6020026020010151848281518110620003e557620003e5620007f4565b602002602001015111620004485760405162461bcd60e51b815260206004820152602360248201527f616d6f756e7473206d75737420626520696e6372656173696e6720696e206120604482015262726f7760e81b6064820152608401620001d6565b82620004566001836200083c565b81518110620004695762000469620007f4565b6020026020010151838281518110620004865762000486620007f4565b60200260200101511015620004f25760405162461bcd60e51b815260206004820152602b60248201527f70726f66697473206d7573742062652073616d65206f7220696e63726561736960448201526a6e6720696e206120726f7760a81b6064820152608401620001d6565b80620004fe8162000820565b9150506200039e565b5082516200051d906012906020860190620005e9565b50815162000533906013906020850190620005e9565b50505050565b6000546001600160a01b03163314620005955760405162461bcd60e51b815260206004820181905260248201527f4f776e61626c653a2063616c6c6572206973206e6f7420746865206f776e65726044820152606401620001d6565b565b6000818152600183016020526040812054620005e05750815460018181018455600084815260208082209093018490558454848252828601909352604090209190915562000337565b50600062000337565b82805482825590600052602060002090810192821562000627579160200282015b82811115620006275782518255916020019190600101906200060a565b506200063592915062000639565b5090565b5b808211156200063557600081556001016200063a565b6001600160a01b03811681146200066657600080fd5b50565b634e487b7160e01b600052604160045260246000fd5b600082601f8301126200069157600080fd5b815160206001600160401b0380831115620006b057620006b062000669565b8260051b604051601f19603f83011681018181108482111715620006d857620006d862000669565b604052938452858101830193838101925087851115620006f757600080fd5b83870191505b848210156200071857815183529183019190830190620006fd565b979650505050505050565b60008060008060008060c087890312156200073d57600080fd5b86516200074a8162000650565b60208801519096506200075d8162000650565b6040880151909550620007708162000650565b60608801519094506001600160401b03808211156200078e57600080fd5b6200079c8a838b016200067f565b94506080890151915080821115620007b357600080fd5b620007c18a838b016200067f565b935060a0890151915080821115620007d857600080fd5b50620007e789828a016200067f565b9150509295509295509295565b634e487b7160e01b600052603260045260246000fd5b634e487b7160e01b600052601160045260246000fd5b6000600182016200083557620008356200080a565b5060010190565b818103818111156200033757620003376200080a565b6130ad80620008626000396000f3fe60806040526004361061020f5760003560e01c8063715018a611610118578063bdba43f1116100a0578063de643a711161006f578063de643a711461067b578063e753f5ac1461069b578063e88cf1b4146106bb578063f2fde38b146106d1578063fe22f4cc146106f157600080fd5b8063bdba43f1146105f9578063bfa54b3f1461061b578063c40768761461063b578063d3399e001461065b57600080fd5b806394f88b1d116100e757806394f88b1d1461054c578063a2fa0c751461056c578063af635ad01461058c578063b023eba5146105ac578063bc07d85c146105d957600080fd5b8063715018a6146104e45780637fa95fa9146104f95780638456cb59146105195780638da5cb5b1461052e57600080fd5b8063484f4ea91161019b5780635b7533511161016a5780635b753351146104375780635b91c512146104575780635c975abb146104775780635fd03331146104a157806364eb1b21146104c157600080fd5b8063484f4ea9146103545780634983c3ab1461038c578063538e4f36146103ac5780635a48c0b0146103cc57600080fd5b80632cc711c1116101e25780632cc711c11461029f5780632e1a7d4d146102b25780633e6d9770146102d25780633f4ba83a1461031f5780634668d8661461033457600080fd5b80630964c95b146102145780630c736b3514610247578063285833651461025d5780632bf0da7e1461027f575b600080fd5b34801561022057600080fd5b5061023461022f366004612b15565b610704565b6040519081526020015b60405180910390f35b34801561025357600080fd5b5061023460045481565b34801561026957600080fd5b5061027d610278366004612b30565b610756565b005b34801561028b57600080fd5b5061023461029a366004612b52565b61098d565b61027d6102ad366004612b30565b610b4f565b3480156102be57600080fd5b5061027d6102cd366004612b7c565b610f2d565b3480156102de57600080fd5b506102f26102ed366004612b52565b61113f565b604080519687526020870195909552938501929092526060840152608083015260a082015260c00161023e565b34801561032b57600080fd5b5061027d611193565b34801561034057600080fd5b5061027d61034f366004612b95565b6111a5565b34801561036057600080fd5b50600154610374906001600160a01b031681565b6040516001600160a01b03909116815260200161023e565b34801561039857600080fd5b506102346103a7366004612b52565b6112eb565b3480156103b857600080fd5b5061027d6103c7366004612c40565b61132f565b3480156103d857600080fd5b506103e161145a565b6040805184518152602080860151818301529482015181830152835160608201528484015160808201529281015160a0840152815160c08401529281015160e0830152909101516101008201526101200161023e565b34801561044357600080fd5b5061027d610452366004612b7c565b61152d565b34801561046357600080fd5b50610234610472366004612b15565b6115ab565b34801561048357600080fd5b50600054600160a01b900460ff16604051901515815260200161023e565b3480156104ad57600080fd5b506102346104bc366004612b7c565b611646565b3480156104cd57600080fd5b506104d66116b5565b60405161023e929190612ce7565b3480156104f057600080fd5b5061027d611762565b34801561050557600080fd5b5061027d610514366004612b7c565b611774565b34801561052557600080fd5b5061027d6117ea565b34801561053a57600080fd5b506000546001600160a01b0316610374565b34801561055857600080fd5b50610234610567366004612b30565b6117fa565b34801561057857600080fd5b5061027d610587366004612b52565b611900565b34801561059857600080fd5b5061027d6105a7366004612dc6565b611985565b3480156105b857600080fd5b506105cc6105c7366004612b15565b611b61565b60405161023e9190612e2a565b3480156105e557600080fd5b506102346105f4366004612b7c565b611c12565b34801561060557600080fd5b5061060e611c44565b60405161023e9190612ea2565b34801561062757600080fd5b50600254610374906001600160a01b031681565b34801561064757600080fd5b5061027d610656366004612b52565b611c55565b34801561066757600080fd5b5061027d610676366004612b15565b611c89565b34801561068757600080fd5b5061027d610696366004612b30565b611cb3565b3480156106a757600080fd5b50600354610374906001600160a01b031681565b3480156106c757600080fd5b5061023460055481565b3480156106dd57600080fd5b5061027d6106ec366004612b15565b6120b1565b61027d6106ff366004612b30565b61212a565b6001600160a01b038116600090815260066020526040812054815b8181101561074f57610731848261098d565b61073b9084612ecb565b92508061074781612ede565b91505061071f565b5050919050565b61075e6126eb565b610769601082612738565b61078e5760405162461bcd60e51b815260040161078590612ef7565b60405180910390fd5b600061079d8262015180612f3b565b9050334260006107ad8483612ecb565b600354604051632f01f61760e21b8152670de0b6b3a764000060048201529192506000916001600160a01b039091169063bc07d85c90602401602060405180830381865afa158015610803573d6000803e3d6000fd5b505050506040513d601f19601f820116820180604052508101906108279190612f52565b61083988670de0b6b3a7640000612f3b565b6108439190612f6b565b9050600061085182876117fa565b6002546040516323b872dd60e01b81529192506001600160a01b0316906323b872dd9061088690889030908d90600401612f8d565b6020604051808303816000875af11580156108a5573d6000803e3d6000fd5b505050506040513d601f19601f820116820180604052508101906108c99190612fb1565b506001600160a01b0385166000908152600660208181526040808420815160c0810183528d81528084018881529281018a8152606082018a81526080830189815260a08401898152855460018181018855968b52978a20945197909802909301958655935192850192909255905160028401559051600383015551600480830191909155915160059091015580548a9290610965908490612ecb565b92505081905550806005600082825461097e9190612ecb565b90915550505050505050505050565b6001600160a01b03821660009081526006602052604081208054829190849081106109ba576109ba612fd3565b60009182526020822060026006909202019081015460038201549193508291429190836109e78383612fe9565b8754600489015491925090838610610a0457819750809650610b33565b84606484600d60000154610a189190612f3b565b610a229190612f6b565b610a2c9190612ecb565b8610610a7057600e54606490610a429084612f3b565b610a4c9190612f6b565b600f54909850606490610a5f9083612f3b565b610a699190612f6b565b9650610b33565b84606484600a60000154610a849190612f3b565b610a8e9190612f6b565b610a989190612ecb565b8610610acb57600b54606490610aae9084612f3b565b610ab89190612f6b565b600c54909850606490610a5f9083612f3b565b84606484600760000154610adf9190612f3b565b610ae99190612f6b565b610af39190612ecb565b8610610b3357600854606490610b099084612f3b565b610b139190612f6b565b600954909850606490610b269083612f3b565b610b309190612f6b565b96505b610b3d8789612ecb565b99505050505050505050505b92915050565b610b576126eb565b610b62601082612738565b610b7e5760405162461bcd60e51b815260040161078590612ef7565b6000610b8d8262015180612f3b565b9050336000808515610cfe573415610bff5760405162461bcd60e51b815260206004820152602f60248201527f6e6f7420616c6c6f77656420746f2062757920696e204255534420616e64204260448201526e4e4220696e2073616d652074696d6560881b6064820152608401610785565b600354604051632f01f61760e21b8152600481018890526001600160a01b039091169063bc07d85c90602401602060405180830381865afa158015610c48573d6000803e3d6000fd5b505050506040513d601f19601f82011682018060405250810190610c6c9190612f52565b6001549092508691506001600160a01b03166323b872dd84610c966000546001600160a01b031690565b896040518463ffffffff1660e01b8152600401610cb593929190612f8d565b6020604051808303816000875af1158015610cd4573d6000803e3d6000fd5b505050506040513d601f19601f82011682018060405250810190610cf89190612fb1565b50610e49565b600354604051635fd0333160e01b81523460048201526001600160a01b0390911690635fd0333190602401602060405180830381865afa158015610d46573d6000803e3d6000fd5b505050506040513d601f19601f82011682018060405250810190610d6a9190612f52565b600354604051632f01f61760e21b8152670de0b6b3a764000060048201529193506001600160a01b03169063bc07d85c90602401602060405180830381865afa158015610dbb573d6000803e3d6000fd5b505050506040513d601f19601f82011682018060405250810190610ddf9190612f52565b610df183670de0b6b3a7640000612f3b565b610dfb9190612f6b565b9050610e0f6000546001600160a01b031690565b6001600160a01b03166108fc349081150290604051600060405180830381858888f19350505050158015610e47573d6000803e3d6000fd5b505b426000610e568683612ecb565b90506000610e6484886117fa565b6001600160a01b0387166000908152600660208181526040808420815160c0810183528b81528084018b81529281018a8152606082018a81526080830189815260a08401898152855460018181018855968b52978a20945197909802909301958655935192850192909255905160028401559051600383015551600480830191909155915160059091015580549293508792909190610f04908490612ecb565b925050819055508060056000828254610f1d9190612ecb565b9091555050505050505050505050565b336000818152600660205260408120805484908110610f4e57610f4e612fd3565b906000526020600020906006020190506000610f6a838561098d565b905060008111610fbc5760405162461bcd60e51b815260206004820152601e60248201527f5374616b65506f6f6c3a206e6f7468696e6720746f20776974686472617700006044820152606401610785565b4260058301556002546040516370a0823160e01b815230600482015282916001600160a01b0316906370a0823190602401602060405180830381865afa15801561100a573d6000803e3d6000fd5b505050506040513d601f19601f8201168201806040525081019061102e9190612f52565b1161108c5760405162461bcd60e51b815260206004820152602860248201527f696e73756666696369656e7420424c422062616c616e636520696e207468652060448201526718dbdb9d1c9858dd60c21b6064820152608401610785565b60025460405163a9059cbb60e01b81526001600160a01b038581166004830152602482018490529091169063a9059cbb906044016020604051808303816000875af11580156110df573d6000803e3d6000fd5b505050506040513d601f19601f820116820180604052508101906111039190612fb1565b50815460048054600090611118908490612fe9565b9091555050600482015460058054600090611134908490612fe9565b909155505050505050565b6006602052816000526040600020818154811061115b57600080fd5b600091825260209091206006909102018054600182015460028301546003840154600485015460059095015493965091945092909186565b61119b612750565b6111a36127aa565b565b6111ad612750565b85891080156111bb57508286105b6112165760405162461bcd60e51b815260206004820152602660248201527f506173732054696d6573206d75737420626520696e6372656173696e6720696e604482015265206120726f7760d01b6064820152608401610785565b8488111580156112265750818511155b6112425760405162461bcd60e51b815260040161078590612ffc565b8387111580156112525750808411155b61126e5760405162461bcd60e51b815260040161078590612ffc565b60408051606080820183528b825260208083018c90529183018a905260079b909b556008999099556009979097558651808a0188528681528089018690528701849052600a95909555600b93909355600c919091558351958601845280865293850181905293909101819052600d91909155600e91909155600f55565b6001600160a01b038216600090815260066020526040812080548390811061131557611315612fd3565b906000526020600020906006020160030154905092915050565b8281811461137f5760405162461bcd60e51b815260206004820152601c60248201527f4c69737473206d7573742062652073616d6520696e206c656e677468000000006044820152606401610785565b3360005b82811015611451576002546001600160a01b03166323b872dd838989858181106113af576113af612fd3565b90506020020160208101906113c49190612b15565b8888868181106113d6576113d6612fd3565b905060200201356040518463ffffffff1660e01b81526004016113fb93929190612f8d565b6020604051808303816000875af115801561141a573d6000803e3d6000fd5b505050506040513d601f19601f8201168201806040525081019061143e9190612fb1565b508061144981612ede565b915050611383565b50505050505050565b61147e60405180606001604052806000815260200160008152602001600081525090565b6114a260405180606001604052806000815260200160008152602001600081525090565b6114c660405180606001604052806000815260200160008152602001600081525090565b5050604080516060808201835260075482526008546020808401919091526009548385015283518083018552600a548152600b5481830152600c548186015284519283018552600d548352600e5491830191909152600f5493820193909352909391925090565b611535612750565b611540601082612738565b1561159c5760405162461bcd60e51b815260206004820152602660248201527f54696d6520706c616e20616c72656164792065786973747320696e205f74696d60448201526565506c616e7360d01b6064820152608401610785565b6115a76010826126d8565b5050565b6001600160a01b03811660009081526006602052604081208054825b8181101561163e578281815481106115e1576115e1612fd3565b90600052602060002090600602016005015460000361162c5782818154811061160c5761160c612fd3565b906000526020600020906006020160000154846116299190612ecb565b93505b8061163681612ede565b9150506115c7565b505050919050565b600354604051635fd0333160e01b8152600481018390526000916001600160a01b031690635fd03331906024015b602060405180830381865afa158015611691573d6000803e3d6000fd5b505050506040513d601f19601f82011682018060405250810190610b499190612f52565b606080601280548060200260200160405190810160405280929190818152602001828054801561170457602002820191906000526020600020905b8154815260200190600101908083116116f0575b50505050509150601380548060200260200160405190810160405280929190818152602001828054801561175757602002820191906000526020600020905b815481526020019060010190808311611743575b505050505090509091565b61176a612750565b6111a360006127ff565b61177c612750565b611787601082612738565b6117df5760405162461bcd60e51b815260206004820152602360248201527f54696d6520706c616e73206d75737420657869737420696e205f74696d65506c604482015262616e7360e81b6064820152608401610785565b6115a760108261284f565b6117f2612750565b6111a361285b565b601254600090805b80156118a8576012611815600183612fe9565b8154811061182557611825612fd3565b906000526020600020015485106118965762278d0084612710601361184b600186612fe9565b8154811061185b5761185b612fd3565b9060005260206000200154886118719190612f3b565b61187b9190612f6b565b6118859190612f3b565b61188f9190612f6b565b92506118a8565b806118a08161304a565b915050611802565b50816000036118f95760405162461bcd60e51b815260206004820152601760248201527f6e6f20706c616e20666f72207468697320616d6f756e740000000000000000006044820152606401610785565b5092915050565b611908612750565b60025460405163a9059cbb60e01b81526001600160a01b038481166004830152602482018490529091169063a9059cbb906044015b6020604051808303816000875af115801561195c573d6000803e3d6000fd5b505050506040513d601f19601f820116820180604052508101906119809190612fb1565b505050565b61198d612750565b8151815181146119df5760405162461bcd60e51b815260206004820152601a60248201527f617272617973206c656e677468206d7573742062652073616d650000000000006044820152606401610785565b60015b81811015611b3357836119f6600183612fe9565b81518110611a0657611a06612fd3565b6020026020010151848281518110611a2057611a20612fd3565b602002602001015111611a815760405162461bcd60e51b815260206004820152602360248201527f616d6f756e7473206d75737420626520696e6372656173696e6720696e206120604482015262726f7760e81b6064820152608401610785565b82611a8d600183612fe9565b81518110611a9d57611a9d612fd3565b6020026020010151838281518110611ab757611ab7612fd3565b60200260200101511015611b215760405162461bcd60e51b815260206004820152602b60248201527f70726f66697473206d7573742062652073616d65206f7220696e63726561736960448201526a6e6720696e206120726f7760a81b6064820152608401610785565b80611b2b81612ede565b9150506119e2565b508251611b47906012906020860190612a99565b508151611b5b906013906020850190612a99565b50505050565b6001600160a01b0381166000908152600660209081526040808320805482518185028101850190935280835260609492939192909184015b82821015611c0757838290600052602060002090600602016040518060c0016040529081600082015481526020016001820154815260200160028201548152602001600382015481526020016004820154815260200160058201548152505081526020019060010190611b99565b505050509050919050565b600354604051632f01f61760e21b8152600481018390526000916001600160a01b03169063bc07d85c90602401611674565b6060611c50601061289e565b905090565b6002546040516323b872dd60e01b81526001600160a01b03909116906323b872dd9061193d90339086908690600401612f8d565b611c91612750565b600380546001600160a01b0319166001600160a01b0392909216919091179055565b611cbb6126eb565b600354604051632f01f61760e21b8152670de0b6b3a76400006004820152339142916000916001600160a01b03169063bc07d85c90602401602060405180830381865afa158015611d10573d6000803e3d6000fd5b505050506040513d601f19601f82011682018060405250810190611d349190612f52565b611d4686670de0b6b3a7640000612f3b565b611d509190612f6b565b6001600160a01b03841660009081526006602052604081208054929350909186908110611d7f57611d7f612fd3565b90600052602060002090600602016040518060c001604052908160008201548152602001600182015481526020016002820154815260200160038201548152602001600482015481526020016005820154815250509050600081604001518260600151611dec9190612fe9565b905081606001518410611e365760405162461bcd60e51b81526020600482015260126024820152711a5b9d995cdd1b595b9d08195e1c1a5c995960721b6044820152606401610785565b600081836040015186611e499190612fe9565b8460800151611e589190612f3b565b611e629190612f6b565b90506000611e89858560200151611e799190612ecb565b8786606001516105679190612fe9565b6080850151909150611e9b8284612ecb565b11611ee85760405162461bcd60e51b815260206004820152601c60248201527f7468652070726f666974206973206e6f7420696e6372656173696e67000000006044820152606401610785565b6080840151600090611efa8385612ecb565b611f049190612fe9565b6002546040516323b872dd60e01b81529192506001600160a01b0316906323b872dd90611f39908b9030908f90600401612f8d565b6020604051808303816000875af1158015611f58573d6000803e3d6000fd5b505050506040513d601f19601f82011682018060405250810190611f7c9190612fb1565b506001600160a01b038816600090815260066020526040902080548b91908b908110611faa57611faa612fd3565b90600052602060002090600602016000016000828254611fca9190612ecb565b90915550506001600160a01b038816600090815260066020526040902080548791908b908110611ffc57611ffc612fd3565b9060005260206000209060060201600101600082825461201c9190612ecb565b90915550506001600160a01b038816600090815260066020526040902080548291908b90811061204e5761204e612fd3565b9060005260206000209060060201600401600082825461206e9190612ecb565b9250508190555089600460008282546120879190612ecb565b9250508190555080600560008282546120a09190612ecb565b909155505050505050505050505050565b6120b9612750565b6001600160a01b03811661211e5760405162461bcd60e51b815260206004820152602660248201527f4f776e61626c653a206e6577206f776e657220697320746865207a65726f206160448201526564647265737360d01b6064820152608401610785565b612127816127ff565b50565b6121326126eb565b6000803384156122a35734156121a45760405162461bcd60e51b815260206004820152603160248201527f6e6f7420616c6c6f77656420746f20746f70557020696e204255534420616e6460448201527020424e4220696e2073616d652074696d6560781b6064820152608401610785565b600354604051632f01f61760e21b8152600481018790526001600160a01b039091169063bc07d85c90602401602060405180830381865afa1580156121ed573d6000803e3d6000fd5b505050506040513d601f19601f820116820180604052508101906122119190612f52565b6001549093508592506001600160a01b03166323b872dd8261223b6000546001600160a01b031690565b886040518463ffffffff1660e01b815260040161225a93929190612f8d565b6020604051808303816000875af1158015612279573d6000803e3d6000fd5b505050506040513d601f19601f8201168201806040525081019061229d9190612fb1565b506123ee565b600354604051635fd0333160e01b81523460048201526001600160a01b0390911690635fd0333190602401602060405180830381865afa1580156122eb573d6000803e3d6000fd5b505050506040513d601f19601f8201168201806040525081019061230f9190612f52565b600354604051632f01f61760e21b8152670de0b6b3a764000060048201529194506001600160a01b03169063bc07d85c90602401602060405180830381865afa158015612360573d6000803e3d6000fd5b505050506040513d601f19601f820116820180604052508101906123849190612f52565b61239684670de0b6b3a7640000612f3b565b6123a09190612f6b565b91506123b46000546001600160a01b031690565b6001600160a01b03166108fc349081150290604051600060405180830381858888f193505050501580156123ec573d6000803e3d6000fd5b505b6001600160a01b03811660009081526006602052604081208054429291908790811061241c5761241c612fd3565b90600052602060002090600602016040518060c0016040529081600082015481526020016001820154815260200160028201548152602001600382015481526020016004820154815260200160058201548152505090506000816040015182606001516124899190612fe9565b9050816060015183106124d35760405162461bcd60e51b81526020600482015260126024820152711a5b9d995cdd1b595b9d08195e1c1a5c995960721b6044820152606401610785565b6000818360400151856124e69190612fe9565b84608001516124f59190612f3b565b6124ff9190612f6b565b905060006125268785602001516125169190612ecb565b8686606001516105679190612fe9565b60808501519091506125388284612ecb565b116125855760405162461bcd60e51b815260206004820152601c60248201527f7468652070726f666974206973206e6f7420696e6372656173696e67000000006044820152606401610785565b60808401516000906125978385612ecb565b6125a19190612fe9565b6001600160a01b038816600090815260066020526040902080549192508a918c9081106125d0576125d0612fd3565b906000526020600020906006020160000160008282546125f09190612ecb565b90915550506001600160a01b038716600090815260066020526040902080548991908c90811061262257612622612fd3565b906000526020600020906006020160010160008282546126429190612ecb565b90915550506001600160a01b038716600090815260066020526040902080548291908c90811061267457612674612fd3565b906000526020600020906006020160040160008282546126949190612ecb565b9250508190555088600460008282546126ad9190612ecb565b9250508190555080600560008282546126c69190612ecb565b90915550505050505050505050505050565b60006126e483836128ab565b9392505050565b600054600160a01b900460ff16156111a35760405162461bcd60e51b815260206004820152601060248201526f14185d5cd8589b194e881c185d5cd95960821b6044820152606401610785565b600081815260018301602052604081205415156126e4565b6000546001600160a01b031633146111a35760405162461bcd60e51b815260206004820181905260248201527f4f776e61626c653a2063616c6c6572206973206e6f7420746865206f776e65726044820152606401610785565b6127b26128fa565b6000805460ff60a01b191690557f5db9ee0a495bf2e6ff9c91a7834c1ba4fdd244a5e8aa4e537bd38aeae4b073aa335b6040516001600160a01b03909116815260200160405180910390a1565b600080546001600160a01b038381166001600160a01b0319831681178455604051919092169283917f8be0079c531659141344cd1fd0a4f28419497f9722a3daafe3b4186f6b6457e09190a35050565b60006126e4838361294a565b6128636126eb565b6000805460ff60a01b1916600160a01b1790557f62e78cea01bee320cd4e420270b5ea74000d11b0c9f74754ebdbfc544b05a2586127e23390565b606060006126e483612a3d565b60008181526001830160205260408120546128f257508154600181810184556000848152602080822090930184905584548482528286019093526040902091909155610b49565b506000610b49565b600054600160a01b900460ff166111a35760405162461bcd60e51b815260206004820152601460248201527314185d5cd8589b194e881b9bdd081c185d5cd95960621b6044820152606401610785565b60008181526001830160205260408120548015612a3357600061296e600183612fe9565b855490915060009061298290600190612fe9565b90508181146129e75760008660000182815481106129a2576129a2612fd3565b90600052602060002001549050808760000184815481106129c5576129c5612fd3565b6000918252602080832090910192909255918252600188019052604090208390555b85548690806129f8576129f8613061565b600190038181906000526020600020016000905590558560010160008681526020019081526020016000206000905560019350505050610b49565b6000915050610b49565b606081600001805480602002602001604051908101604052809291908181526020018280548015612a8d57602002820191906000526020600020905b815481526020019060010190808311612a79575b50505050509050919050565b828054828255906000526020600020908101928215612ad4579160200282015b82811115612ad4578251825591602001919060010190612ab9565b50612ae0929150612ae4565b5090565b5b80821115612ae05760008155600101612ae5565b80356001600160a01b0381168114612b1057600080fd5b919050565b600060208284031215612b2757600080fd5b6126e482612af9565b60008060408385031215612b4357600080fd5b50508035926020909101359150565b60008060408385031215612b6557600080fd5b612b6e83612af9565b946020939093013593505050565b600060208284031215612b8e57600080fd5b5035919050565b60008060008060008060008060006101208a8c031215612bb457600080fd5b505087359960208901359950604089013598606081013598506080810135975060a0810135965060c0810135955060e08101359450610100013592509050565b60008083601f840112612c0657600080fd5b50813567ffffffffffffffff811115612c1e57600080fd5b6020830191508360208260051b8501011115612c3957600080fd5b9250929050565b60008060008060408587031215612c5657600080fd5b843567ffffffffffffffff80821115612c6e57600080fd5b612c7a88838901612bf4565b90965094506020870135915080821115612c9357600080fd5b50612ca087828801612bf4565b95989497509550505050565b600081518084526020808501945080840160005b83811015612cdc57815187529582019590820190600101612cc0565b509495945050505050565b604081526000612cfa6040830185612cac565b8281036020840152612d0c8185612cac565b95945050505050565b634e487b7160e01b600052604160045260246000fd5b600082601f830112612d3c57600080fd5b8135602067ffffffffffffffff80831115612d5957612d59612d15565b8260051b604051601f19603f83011681018181108482111715612d7e57612d7e612d15565b604052938452858101830193838101925087851115612d9c57600080fd5b83870191505b84821015612dbb57813583529183019190830190612da2565b979650505050505050565b60008060408385031215612dd957600080fd5b823567ffffffffffffffff80821115612df157600080fd5b612dfd86838701612d2b565b93506020850135915080821115612e1357600080fd5b50612e2085828601612d2b565b9150509250929050565b602080825282518282018190526000919060409081850190868401855b82811015612e955781518051855286810151878601528581015186860152606080820151908601526080808201519086015260a0908101519085015260c09093019290850190600101612e47565b5091979650505050505050565b6020815260006126e46020830184612cac565b634e487b7160e01b600052601160045260246000fd5b80820180821115610b4957610b49612eb5565b600060018201612ef057612ef0612eb5565b5060010190565b60208082526024908201527f7468657265206973206e6f20737563682074696d6520706c616e20617661696c60408201526361626c6560e01b606082015260800190565b8082028115828204841417610b4957610b49612eb5565b600060208284031215612f6457600080fd5b5051919050565b600082612f8857634e487b7160e01b600052601260045260246000fd5b500490565b6001600160a01b039384168152919092166020820152604081019190915260600190565b600060208284031215612fc357600080fd5b815180151581146126e457600080fd5b634e487b7160e01b600052603260045260246000fd5b81810381811115610b4957610b49612eb5565b6020808252602e908201527f506173732054696d6573206d7573742062652073616d65206f7220696e63726560408201526d6173696e6720696e206120726f7760901b606082015260800190565b60008161305957613059612eb5565b506000190190565b634e487b7160e01b600052603160045260246000fdfea26469706673582212204a645b9b725416ae7acec7a880d508befd3feeecd45deddeabf84e0c0525b44364736f6c63430008120033506173732054696d6573206d7573742062652073616d65206f7220696e637265",
  "linkReferences": {},
  "deployedLinkReferences": {}
}