{
  "_format": "hh-sol-artifact-1",
  "contractName": "StakeBLB_BLB",
  "sourceName": "contracts/StakePool/StakeBLB_BLB.sol",
  "abi": [
    {
      "inputs": [
        {
          "internalType": "contract IERC20",
          "name": "_BLB",
          "type": "address"
        }
      ],
      "stateMutability": "nonpayable",
      "type": "constructor"
    },
    {
      "anonymous": false,
      "inputs": [
        {
          "indexed": true,
          "internalType": "address",
          "name": "previousOwner",
          "type": "address"
        },
        {
          "indexed": true,
          "internalType": "address",
          "name": "newOwner",
          "type": "address"
        }
      ],
      "name": "OwnershipTransferred",
      "type": "event"
    },
    {
      "anonymous": false,
      "inputs": [
        {
          "indexed": false,
          "internalType": "address",
          "name": "account",
          "type": "address"
        }
      ],
      "name": "Paused",
      "type": "event"
    },
    {
      "anonymous": false,
      "inputs": [
        {
          "indexed": false,
          "internalType": "address",
          "name": "account",
          "type": "address"
        }
      ],
      "name": "Unpaused",
      "type": "event"
    },
    {
      "inputs": [],
      "name": "BLB",
      "outputs": [
        {
          "internalType": "contract IERC20",
          "name": "",
          "type": "address"
        }
      ],
      "stateMutability": "view",
      "type": "function"
    },
    {
      "inputs": [],
      "name": "checkpoints",
      "outputs": [
        {
          "components": [
            {
              "internalType": "uint256",
              "name": "passTime",
              "type": "uint256"
            },
            {
              "internalType": "uint256",
              "name": "saveDeposit",
              "type": "uint256"
            },
            {
              "internalType": "uint256",
              "name": "saveProfit",
              "type": "uint256"
            }
          ],
          "internalType": "struct StakeBLB_BLB.Checkpoint",
          "name": "checkpoint1_",
          "type": "tuple"
        },
        {
          "components": [
            {
              "internalType": "uint256",
              "name": "passTime",
              "type": "uint256"
            },
            {
              "internalType": "uint256",
              "name": "saveDeposit",
              "type": "uint256"
            },
            {
              "internalType": "uint256",
              "name": "saveProfit",
              "type": "uint256"
            }
          ],
          "internalType": "struct StakeBLB_BLB.Checkpoint",
          "name": "checkpoint2_",
          "type": "tuple"
        },
        {
          "components": [
            {
              "internalType": "uint256",
              "name": "passTime",
              "type": "uint256"
            },
            {
              "internalType": "uint256",
              "name": "saveDeposit",
              "type": "uint256"
            },
            {
              "internalType": "uint256",
              "name": "saveProfit",
              "type": "uint256"
            }
          ],
          "internalType": "struct StakeBLB_BLB.Checkpoint",
          "name": "checkpoint3_",
          "type": "tuple"
        }
      ],
      "stateMutability": "view",
      "type": "function"
    },
    {
      "inputs": [
        {
          "internalType": "address",
          "name": "",
          "type": "address"
        },
        {
          "internalType": "uint256",
          "name": "",
          "type": "uint256"
        }
      ],
      "name": "investments",
      "outputs": [
        {
          "internalType": "uint256",
          "name": "amount",
          "type": "uint256"
        },
        {
          "internalType": "uint256",
          "name": "start",
          "type": "uint256"
        },
        {
          "internalType": "uint256",
          "name": "end",
          "type": "uint256"
        },
        {
          "internalType": "uint256",
          "name": "profit",
          "type": "uint256"
        },
        {
          "internalType": "uint256",
          "name": "claimTime",
          "type": "uint256"
        }
      ],
      "stateMutability": "view",
      "type": "function"
    },
    {
      "inputs": [
        {
          "internalType": "address",
          "name": "borrower",
          "type": "address"
        },
        {
          "internalType": "uint256",
          "name": "amount",
          "type": "uint256"
        }
      ],
      "name": "loanBLB",
      "outputs": [],
      "stateMutability": "nonpayable",
      "type": "function"
    },
    {
      "inputs": [
        {
          "internalType": "uint256",
          "name": "amount",
          "type": "uint256"
        },
        {
          "internalType": "uint256",
          "name": "duration",
          "type": "uint256"
        }
      ],
      "name": "newInvestment",
      "outputs": [],
      "stateMutability": "nonpayable",
      "type": "function"
    },
    {
      "inputs": [],
      "name": "owner",
      "outputs": [
        {
          "internalType": "address",
          "name": "",
          "type": "address"
        }
      ],
      "stateMutability": "view",
      "type": "function"
    },
    {
      "inputs": [],
      "name": "pause",
      "outputs": [],
      "stateMutability": "nonpayable",
      "type": "function"
    },
    {
      "inputs": [],
      "name": "paused",
      "outputs": [
        {
          "internalType": "bool",
          "name": "",
          "type": "bool"
        }
      ],
      "stateMutability": "view",
      "type": "function"
    },
    {
      "inputs": [
        {
          "internalType": "address",
          "name": "investor",
          "type": "address"
        }
      ],
      "name": "pendingWithdrawal",
      "outputs": [
        {
          "internalType": "uint256",
          "name": "total",
          "type": "uint256"
        }
      ],
      "stateMutability": "view",
      "type": "function"
    },
    {
      "inputs": [
        {
          "internalType": "address",
          "name": "investor",
          "type": "address"
        },
        {
          "internalType": "uint256",
          "name": "investmentId",
          "type": "uint256"
        }
      ],
      "name": "pendingWithdrawal",
      "outputs": [
        {
          "internalType": "uint256",
          "name": "",
          "type": "uint256"
        }
      ],
      "stateMutability": "view",
      "type": "function"
    },
    {
      "inputs": [],
      "name": "plans",
      "outputs": [
        {
          "internalType": "uint256[]",
          "name": "durations",
          "type": "uint256[]"
        },
        {
          "internalType": "uint256[]",
          "name": "profits",
          "type": "uint256[]"
        }
      ],
      "stateMutability": "view",
      "type": "function"
    },
    {
      "inputs": [
        {
          "internalType": "address",
          "name": "investor",
          "type": "address"
        },
        {
          "internalType": "uint256",
          "name": "investmentId",
          "type": "uint256"
        }
      ],
      "name": "releaseTime",
      "outputs": [
        {
          "internalType": "uint256",
          "name": "",
          "type": "uint256"
        }
      ],
      "stateMutability": "view",
      "type": "function"
    },
    {
      "inputs": [],
      "name": "renounceOwnership",
      "outputs": [],
      "stateMutability": "nonpayable",
      "type": "function"
    },
    {
      "inputs": [
        {
          "internalType": "uint256",
          "name": "",
          "type": "uint256"
        }
      ],
      "name": "rewardPlans",
      "outputs": [
        {
          "internalType": "uint256",
          "name": "",
          "type": "uint256"
        }
      ],
      "stateMutability": "view",
      "type": "function"
    },
    {
      "inputs": [
        {
          "internalType": "uint256",
          "name": "passTime1",
          "type": "uint256"
        },
        {
          "internalType": "uint256",
          "name": "saveDeposit1",
          "type": "uint256"
        },
        {
          "internalType": "uint256",
          "name": "saveProfit1",
          "type": "uint256"
        },
        {
          "internalType": "uint256",
          "name": "passTime2",
          "type": "uint256"
        },
        {
          "internalType": "uint256",
          "name": "saveDeposit2",
          "type": "uint256"
        },
        {
          "internalType": "uint256",
          "name": "saveProfit2",
          "type": "uint256"
        },
        {
          "internalType": "uint256",
          "name": "passTime3",
          "type": "uint256"
        },
        {
          "internalType": "uint256",
          "name": "saveDeposit3",
          "type": "uint256"
        },
        {
          "internalType": "uint256",
          "name": "saveProfit3",
          "type": "uint256"
        }
      ],
      "name": "setCheckpoints",
      "outputs": [],
      "stateMutability": "nonpayable",
      "type": "function"
    },
    {
      "inputs": [
        {
          "internalType": "uint256",
          "name": "duration",
          "type": "uint256"
        },
        {
          "internalType": "uint256",
          "name": "profit",
          "type": "uint256"
        }
      ],
      "name": "setPlan",
      "outputs": [],
      "stateMutability": "nonpayable",
      "type": "function"
    },
    {
      "inputs": [],
      "name": "totalDepositBLB",
      "outputs": [
        {
          "internalType": "uint256",
          "name": "",
          "type": "uint256"
        }
      ],
      "stateMutability": "view",
      "type": "function"
    },
    {
      "inputs": [],
      "name": "totalPendingBLB",
      "outputs": [
        {
          "internalType": "uint256",
          "name": "",
          "type": "uint256"
        }
      ],
      "stateMutability": "view",
      "type": "function"
    },
    {
      "inputs": [
        {
          "internalType": "address",
          "name": "newOwner",
          "type": "address"
        }
      ],
      "name": "transferOwnership",
      "outputs": [],
      "stateMutability": "nonpayable",
      "type": "function"
    },
    {
      "inputs": [],
      "name": "unpause",
      "outputs": [],
      "stateMutability": "nonpayable",
      "type": "function"
    },
    {
      "inputs": [
        {
          "internalType": "address",
          "name": "investor",
          "type": "address"
        }
      ],
      "name": "userInvestments",
      "outputs": [
        {
          "components": [
            {
              "internalType": "uint256",
              "name": "amount",
              "type": "uint256"
            },
            {
              "internalType": "uint256",
              "name": "start",
              "type": "uint256"
            },
            {
              "internalType": "uint256",
              "name": "end",
              "type": "uint256"
            },
            {
              "internalType": "uint256",
              "name": "profit",
              "type": "uint256"
            },
            {
              "internalType": "uint256",
              "name": "claimTime",
              "type": "uint256"
            }
          ],
          "internalType": "struct StakeBLB_BLB.Investment[]",
          "name": "",
          "type": "tuple[]"
        }
      ],
      "stateMutability": "view",
      "type": "function"
    },
    {
      "inputs": [
        {
          "internalType": "uint256",
          "name": "investmentId",
          "type": "uint256"
        }
      ],
      "name": "withdraw",
      "outputs": [],
      "stateMutability": "nonpayable",
      "type": "function"
    }
  ],
  "bytecode": "0x60806040523480156200001157600080fd5b50604051620015fc380380620015fc8339810160408190526200003491620002b1565b6200003f33620000f9565b6000805460ff60a01b19169055600180546001600160a01b0319166001600160a01b0383161790556200007d6203f48066038d7ea4c6800062000149565b6200009462278d00670214e8348c4f000062000149565b620000ab6276a7006706f05b59d3b2000062000149565b620000c262ed4e006710a741a46278000062000149565b620000da6301da9c006722b1c8c1227a000062000149565b620000f26000605081603260648284826028620001c9565b50620002e3565b600080546001600160a01b038381166001600160a01b0319831681178455604051919092169283917f8be0079c531659141344cd1fd0a4f28419497f9722a3daafe3b4186f6b6457e09190a35050565b6200015362000250565b6000828152600660209081526040808320849055600590915290205460ff16620001c5576000828152600560205260408120805460ff191660019081179091556004805491820181559091527f8a35acfbc15ff81a39ae7d344fd709f28e8600b4aa8c65c6b64bfe7fe36bd19b018290555b5050565b620001d362000250565b60408051606080820183528b825260208083018c90529183018a905260089b909b55600999909955600a979097558651808a0188528681528089018690528701849052600b95909555600c93909355600d919091558351958601845280865293850181905293909101819052600e91909155600f91909155601055565b6000546001600160a01b03163314620002af5760405162461bcd60e51b815260206004820181905260248201527f4f776e61626c653a2063616c6c6572206973206e6f7420746865206f776e6572604482015260640160405180910390fd5b565b600060208284031215620002c457600080fd5b81516001600160a01b0381168114620002dc57600080fd5b9392505050565b61130980620002f36000396000f3fe608060405234801561001057600080fd5b50600436106101425760003560e01c80635c975abb116100b85780638da5cb5b1161007c5780638da5cb5b146102ee578063a2fa0c7514610313578063b023eba514610326578063bfa54b3f14610346578063e88cf1b414610359578063f2fde38b1461036257600080fd5b80635c975abb1461028b57806364eb1b21146102a8578063715018a6146102be5780638456cb59146102c657806388a9931f146102ce57600080fd5b80633353561d1161010a5780633353561d146101b15780633e6d9770146101c45780633f4ba83a146101ff5780634668d866146102075780634983c3ab1461021a5780635a48c0b01461022d57600080fd5b80630964c95b146101475780630c736b351461016d57806328583365146101765780632bf0da7e1461018b5780632e1a7d4d1461019e575b600080fd5b61015a61015536600461103a565b610375565b6040519081526020015b60405180910390f35b61015a60025481565b61018961018436600461105c565b6103c7565b005b61015a61019936600461107e565b6105b1565b6101896101ac3660046110a8565b610773565b6101896101bf36600461105c565b6108c1565b6101d76101d236600461107e565b61093e565b604080519586526020860194909452928401919091526060830152608082015260a001610164565b61018961098c565b6101896102153660046110c1565b61099e565b61015a61022836600461107e565b610a23565b610235610a67565b6040805184518152602080860151818301529482015181830152835160608201528484015160808201529281015160a0840152815160c08401529281015160e08301529091015161010082015261012001610164565b600054600160a01b900460ff166040519015158152602001610164565b6102b0610b3a565b60405161016492919061115b565b610189610c79565b610189610c8b565b61015a6102dc3660046110a8565b60066020526000908152604090205481565b6000546001600160a01b03165b6040516001600160a01b039091168152602001610164565b61018961032136600461107e565b610c9b565b61033961033436600461103a565b610d1f565b6040516101649190611189565b6001546102fb906001600160a01b031681565b61015a60035481565b61018961037036600461103a565b610dc6565b6001600160a01b038116600090815260076020526040812054815b818110156103c0576103a284826105b1565b6103ac908461120d565b9250806103b881611220565b915050610390565b5050919050565b6103cf610e3f565b600081815260066020526040812054900361043b5760405162461bcd60e51b815260206004820152602160248201527f7468657265206973206e6f20706c616e2062792074686973206475726174696f6044820152603760f91b60648201526084015b60405180910390fd5b33426000610449848361120d565b60008581526006602052604081205491925090670de0b6b3a7640000906104709088611239565b61047a9190611250565b6001546040516323b872dd60e01b81526001600160a01b038781166004830152306024830152604482018a90529293509116906323b872dd906064016020604051808303816000875af11580156104d5573d6000803e3d6000fd5b505050506040513d601f19601f820116820180604052508101906104f99190611272565b506001600160a01b0384166000908152600760209081526040808320815160a0810183528a815280840188815292810187815260608201878152608083018781528454600181810187559589529688209351600590970290930195865593519285019290925590516002808501919091559151600384015551600490920191909155805488929061058b90849061120d565b9250508190555080600360008282546105a4919061120d565b9091555050505050505050565b6001600160a01b03821660009081526007602052604081208054829190849081106105de576105de611294565b600091825260208220600160059092020190810154600282015491935082914291908361060b83836112aa565b875460038901549192509083861061062857819750809650610757565b84606484600e6000015461063c9190611239565b6106469190611250565b610650919061120d565b861061069457600f546064906106669084611239565b6106709190611250565b6010549098506064906106839083611239565b61068d9190611250565b9650610757565b84606484600b600001546106a89190611239565b6106b29190611250565b6106bc919061120d565b86106106ef57600c546064906106d29084611239565b6106dc9190611250565b600d549098506064906106839083611239565b846064846008600001546107039190611239565b61070d9190611250565b610717919061120d565b86106107575760095460649061072d9084611239565b6107379190611250565b600a5490985060649061074a9083611239565b6107549190611250565b96505b610761878961120d565b99505050505050505050505b92915050565b33600081815260076020526040812080548490811061079457610794611294565b9060005260206000209060050201905060006107b083856105b1565b9050600081116108025760405162461bcd60e51b815260206004820152601e60248201527f5374616b65506f6f6c3a206e6f7468696e6720746f20776974686472617700006044820152606401610432565b4260048381019190915560015460405163a9059cbb60e01b81526001600160a01b03868116938201939093526024810184905291169063a9059cbb906044016020604051808303816000875af1158015610860573d6000803e3d6000fd5b505050506040513d601f19601f820116820180604052508101906108849190611272565b508154600280546000906108999084906112aa565b925050819055508160030154600360008282546108b691906112aa565b909155505050505050565b6108c9610e8c565b6000828152600660209081526040808320849055600590915290205460ff1661093a576000828152600560205260408120805460ff191660019081179091556004805491820181559091527f8a35acfbc15ff81a39ae7d344fd709f28e8600b4aa8c65c6b64bfe7fe36bd19b018290555b5050565b6007602052816000526040600020818154811061095a57600080fd5b600091825260209091206005909102018054600182015460028301546003840154600490940154929550909350919085565b610994610e8c565b61099c610ee6565b565b6109a6610e8c565b60408051606080820183528b825260208083018c90529183018a905260089b909b55600999909955600a979097558651808a0188528681528089018690528701849052600b95909555600c93909355600d919091558351958601845280865293850181905293909101819052600e91909155600f91909155601055565b6001600160a01b0382166000908152600760205260408120805483908110610a4d57610a4d611294565b906000526020600020906005020160020154905092915050565b610a8b60405180606001604052806000815260200160008152602001600081525090565b610aaf60405180606001604052806000815260200160008152602001600081525090565b610ad360405180606001604052806000815260200160008152602001600081525090565b505060408051606080820183526008548252600954602080840191909152600a548385015283518083018552600b548152600c5481830152600d548186015284519283018552600e548352600f549183019190915260105493820193909352909391925090565b60045460609081908067ffffffffffffffff811115610b5b57610b5b6112bd565b604051908082528060200260200182016040528015610b84578160200160208202803683370190505b5092508067ffffffffffffffff811115610ba057610ba06112bd565b604051908082528060200260200182016040528015610bc9578160200160208202803683370190505b50915060005b81811015610c735760048181548110610bea57610bea611294565b9060005260206000200154848281518110610c0757610c07611294565b6020026020010181815250506006600060048381548110610c2a57610c2a611294565b9060005260206000200154815260200190815260200160002054838281518110610c5657610c56611294565b602090810291909101015280610c6b81611220565b915050610bcf565b50509091565b610c81610e8c565b61099c6000610f3b565b610c93610e8c565b61099c610f8b565b610ca3610e8c565b60015460405163a9059cbb60e01b81526001600160a01b038481166004830152602482018490529091169063a9059cbb906044016020604051808303816000875af1158015610cf6573d6000803e3d6000fd5b505050506040513d601f19601f82011682018060405250810190610d1a9190611272565b505050565b6001600160a01b0381166000908152600760209081526040808320805482518185028101850190935280835260609492939192909184015b82821015610dbb57838290600052602060002090600502016040518060a00160405290816000820154815260200160018201548152602001600282015481526020016003820154815260200160048201548152505081526020019060010190610d57565b505050509050919050565b610dce610e8c565b6001600160a01b038116610e335760405162461bcd60e51b815260206004820152602660248201527f4f776e61626c653a206e6577206f776e657220697320746865207a65726f206160448201526564647265737360d01b6064820152608401610432565b610e3c81610f3b565b50565b600054600160a01b900460ff161561099c5760405162461bcd60e51b815260206004820152601060248201526f14185d5cd8589b194e881c185d5cd95960821b6044820152606401610432565b6000546001600160a01b0316331461099c5760405162461bcd60e51b815260206004820181905260248201527f4f776e61626c653a2063616c6c6572206973206e6f7420746865206f776e65726044820152606401610432565b610eee610fce565b6000805460ff60a01b191690557f5db9ee0a495bf2e6ff9c91a7834c1ba4fdd244a5e8aa4e537bd38aeae4b073aa335b6040516001600160a01b03909116815260200160405180910390a1565b600080546001600160a01b038381166001600160a01b0319831681178455604051919092169283917f8be0079c531659141344cd1fd0a4f28419497f9722a3daafe3b4186f6b6457e09190a35050565b610f93610e3f565b6000805460ff60a01b1916600160a01b1790557f62e78cea01bee320cd4e420270b5ea74000d11b0c9f74754ebdbfc544b05a258610f1e3390565b600054600160a01b900460ff1661099c5760405162461bcd60e51b815260206004820152601460248201527314185d5cd8589b194e881b9bdd081c185d5cd95960621b6044820152606401610432565b80356001600160a01b038116811461103557600080fd5b919050565b60006020828403121561104c57600080fd5b6110558261101e565b9392505050565b6000806040838503121561106f57600080fd5b50508035926020909101359150565b6000806040838503121561109157600080fd5b61109a8361101e565b946020939093013593505050565b6000602082840312156110ba57600080fd5b5035919050565b60008060008060008060008060006101208a8c0312156110e057600080fd5b505087359960208901359950604089013598606081013598506080810135975060a0810135965060c0810135955060e08101359450610100013592509050565b600081518084526020808501945080840160005b8381101561115057815187529582019590820190600101611134565b509495945050505050565b60408152600061116e6040830185611120565b82810360208401526111808185611120565b95945050505050565b602080825282518282018190526000919060409081850190868401855b828110156111ea5781518051855286810151878601528581015186860152606080820151908601526080908101519085015260a090930192908501906001016111a6565b5091979650505050505050565b634e487b7160e01b600052601160045260246000fd5b8082018082111561076d5761076d6111f7565b600060018201611232576112326111f7565b5060010190565b808202811582820484141761076d5761076d6111f7565b60008261126d57634e487b7160e01b600052601260045260246000fd5b500490565b60006020828403121561128457600080fd5b8151801515811461105557600080fd5b634e487b7160e01b600052603260045260246000fd5b8181038181111561076d5761076d6111f7565b634e487b7160e01b600052604160045260246000fdfea2646970667358221220b9a805e77621457bffd64e216f5090efe89644c1883ca8bd486d9361e311af5b64736f6c63430008120033",
  "linkReferences": {},
  "deployedLinkReferences": {}
}