{
  "_format": "hh-sol-artifact-1",
  "contractName": "StakeBLB_BLB",
  "sourceName": "contracts/StakePool/StakeBLB_BLB.sol",
  "abi": [
    {
      "inputs": [
        {
          "internalType": "contract IERC20",
          "name": "_BLB",
          "type": "address"
        }
      ],
      "stateMutability": "nonpayable",
      "type": "constructor"
    },
    {
      "anonymous": false,
      "inputs": [
        {
          "indexed": true,
          "internalType": "address",
          "name": "investor",
          "type": "address"
        },
        {
          "indexed": true,
          "internalType": "uint256",
          "name": "investId",
          "type": "uint256"
        },
        {
          "indexed": false,
          "internalType": "uint256",
          "name": "amount",
          "type": "uint256"
        },
        {
          "indexed": false,
          "internalType": "uint256",
          "name": "start",
          "type": "uint256"
        },
        {
          "indexed": false,
          "internalType": "uint256",
          "name": "end",
          "type": "uint256"
        },
        {
          "indexed": false,
          "internalType": "uint256",
          "name": "profit",
          "type": "uint256"
        }
      ],
      "name": "NewInvestment",
      "type": "event"
    },
    {
      "anonymous": false,
      "inputs": [
        {
          "indexed": true,
          "internalType": "address",
          "name": "previousOwner",
          "type": "address"
        },
        {
          "indexed": true,
          "internalType": "address",
          "name": "newOwner",
          "type": "address"
        }
      ],
      "name": "OwnershipTransferred",
      "type": "event"
    },
    {
      "anonymous": false,
      "inputs": [
        {
          "indexed": false,
          "internalType": "address",
          "name": "account",
          "type": "address"
        }
      ],
      "name": "Paused",
      "type": "event"
    },
    {
      "anonymous": false,
      "inputs": [
        {
          "indexed": true,
          "internalType": "uint256",
          "name": "duration",
          "type": "uint256"
        },
        {
          "indexed": false,
          "internalType": "uint256",
          "name": "profit",
          "type": "uint256"
        }
      ],
      "name": "SetPlan",
      "type": "event"
    },
    {
      "anonymous": false,
      "inputs": [
        {
          "indexed": false,
          "internalType": "address",
          "name": "account",
          "type": "address"
        }
      ],
      "name": "Unpaused",
      "type": "event"
    },
    {
      "anonymous": false,
      "inputs": [
        {
          "indexed": true,
          "internalType": "address",
          "name": "investor",
          "type": "address"
        },
        {
          "indexed": true,
          "internalType": "uint256",
          "name": "investId",
          "type": "uint256"
        },
        {
          "indexed": false,
          "internalType": "uint256",
          "name": "amountDeposit",
          "type": "uint256"
        },
        {
          "indexed": false,
          "internalType": "uint256",
          "name": "amountProfit",
          "type": "uint256"
        }
      ],
      "name": "Withdraw",
      "type": "event"
    },
    {
      "inputs": [],
      "name": "BLB",
      "outputs": [
        {
          "internalType": "contract IERC20",
          "name": "",
          "type": "address"
        }
      ],
      "stateMutability": "view",
      "type": "function"
    },
    {
      "inputs": [],
      "name": "checkPoint1",
      "outputs": [
        {
          "internalType": "uint256",
          "name": "passTime",
          "type": "uint256"
        },
        {
          "internalType": "uint256",
          "name": "saveDeposit",
          "type": "uint256"
        },
        {
          "internalType": "uint256",
          "name": "saveProfit",
          "type": "uint256"
        }
      ],
      "stateMutability": "view",
      "type": "function"
    },
    {
      "inputs": [],
      "name": "checkPoint2",
      "outputs": [
        {
          "internalType": "uint256",
          "name": "passTime",
          "type": "uint256"
        },
        {
          "internalType": "uint256",
          "name": "saveDeposit",
          "type": "uint256"
        },
        {
          "internalType": "uint256",
          "name": "saveProfit",
          "type": "uint256"
        }
      ],
      "stateMutability": "view",
      "type": "function"
    },
    {
      "inputs": [],
      "name": "checkPoint3",
      "outputs": [
        {
          "internalType": "uint256",
          "name": "passTime",
          "type": "uint256"
        },
        {
          "internalType": "uint256",
          "name": "saveDeposit",
          "type": "uint256"
        },
        {
          "internalType": "uint256",
          "name": "saveProfit",
          "type": "uint256"
        }
      ],
      "stateMutability": "view",
      "type": "function"
    },
    {
      "inputs": [
        {
          "internalType": "address",
          "name": "",
          "type": "address"
        },
        {
          "internalType": "uint256",
          "name": "",
          "type": "uint256"
        }
      ],
      "name": "investments",
      "outputs": [
        {
          "internalType": "uint256",
          "name": "amount",
          "type": "uint256"
        },
        {
          "internalType": "uint256",
          "name": "start",
          "type": "uint256"
        },
        {
          "internalType": "uint256",
          "name": "end",
          "type": "uint256"
        },
        {
          "internalType": "uint256",
          "name": "profit",
          "type": "uint256"
        },
        {
          "internalType": "uint256",
          "name": "claimTime",
          "type": "uint256"
        }
      ],
      "stateMutability": "view",
      "type": "function"
    },
    {
      "inputs": [
        {
          "internalType": "address",
          "name": "borrower",
          "type": "address"
        },
        {
          "internalType": "uint256",
          "name": "amount",
          "type": "uint256"
        }
      ],
      "name": "loanBLB",
      "outputs": [],
      "stateMutability": "nonpayable",
      "type": "function"
    },
    {
      "inputs": [
        {
          "internalType": "uint256",
          "name": "duration",
          "type": "uint256"
        }
      ],
      "name": "newInvestment",
      "outputs": [],
      "stateMutability": "payable",
      "type": "function"
    },
    {
      "inputs": [],
      "name": "owner",
      "outputs": [
        {
          "internalType": "address",
          "name": "",
          "type": "address"
        }
      ],
      "stateMutability": "view",
      "type": "function"
    },
    {
      "inputs": [],
      "name": "pause",
      "outputs": [],
      "stateMutability": "nonpayable",
      "type": "function"
    },
    {
      "inputs": [],
      "name": "paused",
      "outputs": [
        {
          "internalType": "bool",
          "name": "",
          "type": "bool"
        }
      ],
      "stateMutability": "view",
      "type": "function"
    },
    {
      "inputs": [
        {
          "internalType": "address",
          "name": "investor",
          "type": "address"
        },
        {
          "internalType": "uint256",
          "name": "investmentId",
          "type": "uint256"
        }
      ],
      "name": "pendingWithdrawal",
      "outputs": [
        {
          "internalType": "uint256",
          "name": "amountDeposit",
          "type": "uint256"
        },
        {
          "internalType": "uint256",
          "name": "amountProfit",
          "type": "uint256"
        }
      ],
      "stateMutability": "view",
      "type": "function"
    },
    {
      "inputs": [
        {
          "internalType": "address",
          "name": "investor",
          "type": "address"
        },
        {
          "internalType": "uint256",
          "name": "investmentId",
          "type": "uint256"
        }
      ],
      "name": "releaseTime",
      "outputs": [
        {
          "internalType": "uint256",
          "name": "",
          "type": "uint256"
        }
      ],
      "stateMutability": "view",
      "type": "function"
    },
    {
      "inputs": [],
      "name": "renounceOwnership",
      "outputs": [],
      "stateMutability": "nonpayable",
      "type": "function"
    },
    {
      "inputs": [
        {
          "internalType": "uint256",
          "name": "",
          "type": "uint256"
        }
      ],
      "name": "rewardPlans",
      "outputs": [
        {
          "internalType": "uint256",
          "name": "",
          "type": "uint256"
        }
      ],
      "stateMutability": "view",
      "type": "function"
    },
    {
      "inputs": [
        {
          "internalType": "uint256",
          "name": "passTime1",
          "type": "uint256"
        },
        {
          "internalType": "uint256",
          "name": "saveDeposit1",
          "type": "uint256"
        },
        {
          "internalType": "uint256",
          "name": "saveProfit1",
          "type": "uint256"
        },
        {
          "internalType": "uint256",
          "name": "passTime2",
          "type": "uint256"
        },
        {
          "internalType": "uint256",
          "name": "saveDeposit2",
          "type": "uint256"
        },
        {
          "internalType": "uint256",
          "name": "saveProfit2",
          "type": "uint256"
        },
        {
          "internalType": "uint256",
          "name": "passTime3",
          "type": "uint256"
        },
        {
          "internalType": "uint256",
          "name": "saveDeposit3",
          "type": "uint256"
        },
        {
          "internalType": "uint256",
          "name": "saveProfit3",
          "type": "uint256"
        }
      ],
      "name": "setCheckpoints",
      "outputs": [],
      "stateMutability": "nonpayable",
      "type": "function"
    },
    {
      "inputs": [
        {
          "internalType": "uint256",
          "name": "duration",
          "type": "uint256"
        },
        {
          "internalType": "uint256",
          "name": "profit",
          "type": "uint256"
        }
      ],
      "name": "setPlan",
      "outputs": [],
      "stateMutability": "nonpayable",
      "type": "function"
    },
    {
      "inputs": [],
      "name": "totalDepositBLB",
      "outputs": [
        {
          "internalType": "uint256",
          "name": "",
          "type": "uint256"
        }
      ],
      "stateMutability": "view",
      "type": "function"
    },
    {
      "inputs": [],
      "name": "totalPendingBLB",
      "outputs": [
        {
          "internalType": "uint256",
          "name": "",
          "type": "uint256"
        }
      ],
      "stateMutability": "view",
      "type": "function"
    },
    {
      "inputs": [
        {
          "internalType": "address",
          "name": "newOwner",
          "type": "address"
        }
      ],
      "name": "transferOwnership",
      "outputs": [],
      "stateMutability": "nonpayable",
      "type": "function"
    },
    {
      "inputs": [],
      "name": "unpause",
      "outputs": [],
      "stateMutability": "nonpayable",
      "type": "function"
    },
    {
      "inputs": [
        {
          "internalType": "uint256",
          "name": "investmentId",
          "type": "uint256"
        }
      ],
      "name": "withdraw",
      "outputs": [],
      "stateMutability": "nonpayable",
      "type": "function"
    }
  ],
  "bytecode": "0x60806040523480156200001157600080fd5b506040516200124b3803806200124b833981016040819052620000349162000212565b6200003f33620000e1565b6000805460ff60a01b19169055600180546001600160a01b0319166001600160a01b0383161790556200007d62015180662386f26fc1000062000131565b6200009462093a8067016345785d8a000062000131565b620000ab62278d006706f05b59d3b2000062000131565b620000c26276a7006718fae27693b4000062000131565b620000da60006050816032606482848260286200014d565b5062000244565b600080546001600160a01b038381166001600160a01b0319831681178455604051919092169283917f8be0079c531659141344cd1fd0a4f28419497f9722a3daafe3b4186f6b6457e09190a35050565b6200013b620001b1565b60009182526004602052604090912055565b62000157620001b1565b60408051606080820183529a815260208082019a909a528101979097528651808a01885295865285880194909452938501919091528351958601845280865293850182905293909101839052600691909155600755600855565b6000546001600160a01b03163314620002105760405162461bcd60e51b815260206004820181905260248201527f4f776e61626c653a2063616c6c6572206973206e6f7420746865206f776e6572604482015260640160405180910390fd5b565b6000602082840312156200022557600080fd5b81516001600160a01b03811681146200023d57600080fd5b9392505050565b610ff780620002546000396000f3fe60806040526004361061012a5760003560e01c80638456cb59116100ab578063a2fa0c751161006f578063a2fa0c751461036c578063ad33710c1461038c578063bfa54b3f146103ab578063d5d4d114146103cb578063e88cf1b4146103ea578063f2fde38b1461040057600080fd5b80638456cb59146102ab57806388a9931f146102c057806388f89169146102ed5780638a2ac397146103005780638da5cb5b1461033a57600080fd5b80633f4ba83a116100f25780633f4ba83a146102175780634668d8661461022c5780634983c3ab1461024c5780635c975abb1461026c578063715018a61461029657600080fd5b80630c736b351461012f5780632bf0da7e146101585780632e1a7d4d1461018d5780633353561d146101af5780633e6d9770146101cf575b600080fd5b34801561013b57600080fd5b5061014560025481565b6040519081526020015b60405180910390f35b34801561016457600080fd5b50610178610173366004610e2e565b610420565b6040805192835260208301919091520161014f565b34801561019957600080fd5b506101ad6101a8366004610e58565b610649565b005b3480156101bb57600080fd5b506101ad6101ca366004610e71565b610813565b3480156101db57600080fd5b506101ef6101ea366004610e2e565b61082d565b604080519586526020860194909452928401919091526060830152608082015260a00161014f565b34801561022357600080fd5b506101ad61087b565b34801561023857600080fd5b506101ad610247366004610e93565b61088d565b34801561025857600080fd5b50610145610267366004610e2e565b6108ef565b34801561027857600080fd5b50600054600160a01b900460ff16604051901515815260200161014f565b3480156102a257600080fd5b506101ad610934565b3480156102b757600080fd5b506101ad610946565b3480156102cc57600080fd5b506101456102db366004610e58565b60046020526000908152604090205481565b6101ad6102fb366004610e58565b610956565b34801561030c57600080fd5b50600954600a54600b5461031f92919083565b6040805193845260208401929092529082015260600161014f565b34801561034657600080fd5b506000546001600160a01b03165b6040516001600160a01b03909116815260200161014f565b34801561037857600080fd5b506101ad610387366004610e2e565b610b36565b34801561039857600080fd5b5060065460075460085461031f92919083565b3480156103b757600080fd5b50600154610354906001600160a01b031681565b3480156103d757600080fd5b50600c54600d54600e5461031f92919083565b3480156103f657600080fd5b5061014560035481565b34801561040c57600080fd5b506101ad61041b366004610ef2565b610bba565b6001600160a01b03821660009081526005602052604081208054829182918590811061044e5761044e610f14565b9060005260206000209060050201905080600401546000146104d25760405162461bcd60e51b815260206004820152603260248201527f7374616b65506f6f6c3a207468697320696e766573746d656e7420686173206260448201527165656e20636c61696d6564206265666f726560701b60648201526084015b60405180910390fd5b6001810154600282015442919060006104eb8383610f40565b8554600387015491925090838611156105095781985080975061063b565b84606484600c6000015461051d9190610f53565b6105279190610f6a565b6105319190610f8c565b86111561057657600d546064906105489084610f53565b6105529190610f6a565b600e549099506064906105659083610f53565b61056f9190610f6a565b975061063b565b8460648460096000015461058a9190610f53565b6105949190610f6a565b61059e9190610f8c565b8611156105d257600a546064906105b59084610f53565b6105bf9190610f6a565b600b549099506064906105659083610f53565b846064846006600001546105e69190610f53565b6105f09190610f6a565b6105fa9190610f8c565b86111561063b576007546064906106119084610f53565b61061b9190610f6a565b60085490995060649061062e9083610f53565b6106389190610f6a565b97505b505050505050509250929050565b33600081815260056020526040812080548490811061066a5761066a610f14565b906000526020600020906005020190506000806106878486610420565b91509150600082116106db5760405162461bcd60e51b815260206004820152601e60248201527f5374616b65506f6f6c3a206e6f7468696e6720746f207769746864726177000060448201526064016104c9565b4260048401556040516001600160a01b0385169083156108fc029084906000818181858888f19350505050158015610717573d6000803e3d6000fd5b5060015460405163a9059cbb60e01b81526001600160a01b038681166004830152602482018490529091169063a9059cbb906044016020604051808303816000875af115801561076b573d6000803e3d6000fd5b505050506040513d601f19601f8201168201806040525081019061078f9190610f9f565b508254600280546000906107a4908490610f40565b925050819055508260030154600360008282546107c19190610f40565b9091555050604080518381526020810183905286916001600160a01b038716917f02f25270a4d87bea75db541cdfe559334a275b4a233520ed6c0a2429667cca94910160405180910390a35050505050565b61081b610c33565b60009182526004602052604090912055565b6005602052816000526040600020818154811061084957600080fd5b600091825260209091206005909102018054600182015460028301546003840154600490940154929550909350919085565b610883610c33565b61088b610c8d565b565b610895610c33565b60408051606080820183529a815260208082019a909a528101979097528651808a01885295865285880194909452938501919091528351958601845280865293850182905293909101839052600691909155600755600855565b6001600160a01b038216600090815260056020526040812080548390811061091957610919610f14565b90600052602060002090600502016002015490505b92915050565b61093c610c33565b61088b6000610ce2565b61094e610c33565b61088b610d32565b61095e610d75565b60008181526004602052604081205490036109c55760405162461bcd60e51b815260206004820152602160248201527f7468657265206973206e6f20706c616e2062792074686973206475726174696f6044820152603760f91b60648201526084016104c9565b33344260006109d48583610f8c565b60008681526004602052604081205491925090670de0b6b3a7640000906109fb9086610f53565b610a059190610f6a565b6001600160a01b0386166000908152600560208181526040808420815160a0810183528a81528084018a81529281018981526060820188815260808301888152845460018181018755958a52968920935196909702909201948555925191840191909155905160028084019190915590516003830155915160049091015580549293508692909190610a98908490610f8c565b925050819055508060036000828254610ab19190610f8c565b90915550506001600160a01b038516600090815260056020526040902054610adb90600190610f40565b6040805186815260208101869052908101849052606081018390526001600160a01b038716907f72e5f615ebc79a295430cc50e3cdf038a03d48b17f7ef4586ab25a1d481de6959060800160405180910390a3505050505050565b610b3e610c33565b60015460405163a9059cbb60e01b81526001600160a01b038481166004830152602482018490529091169063a9059cbb906044016020604051808303816000875af1158015610b91573d6000803e3d6000fd5b505050506040513d601f19601f82011682018060405250810190610bb59190610f9f565b505050565b610bc2610c33565b6001600160a01b038116610c275760405162461bcd60e51b815260206004820152602660248201527f4f776e61626c653a206e6577206f776e657220697320746865207a65726f206160448201526564647265737360d01b60648201526084016104c9565b610c3081610ce2565b50565b6000546001600160a01b0316331461088b5760405162461bcd60e51b815260206004820181905260248201527f4f776e61626c653a2063616c6c6572206973206e6f7420746865206f776e657260448201526064016104c9565b610c95610dc2565b6000805460ff60a01b191690557f5db9ee0a495bf2e6ff9c91a7834c1ba4fdd244a5e8aa4e537bd38aeae4b073aa335b6040516001600160a01b03909116815260200160405180910390a1565b600080546001600160a01b038381166001600160a01b0319831681178455604051919092169283917f8be0079c531659141344cd1fd0a4f28419497f9722a3daafe3b4186f6b6457e09190a35050565b610d3a610d75565b6000805460ff60a01b1916600160a01b1790557f62e78cea01bee320cd4e420270b5ea74000d11b0c9f74754ebdbfc544b05a258610cc53390565b600054600160a01b900460ff161561088b5760405162461bcd60e51b815260206004820152601060248201526f14185d5cd8589b194e881c185d5cd95960821b60448201526064016104c9565b600054600160a01b900460ff1661088b5760405162461bcd60e51b815260206004820152601460248201527314185d5cd8589b194e881b9bdd081c185d5cd95960621b60448201526064016104c9565b80356001600160a01b0381168114610e2957600080fd5b919050565b60008060408385031215610e4157600080fd5b610e4a83610e12565b946020939093013593505050565b600060208284031215610e6a57600080fd5b5035919050565b60008060408385031215610e8457600080fd5b50508035926020909101359150565b60008060008060008060008060006101208a8c031215610eb257600080fd5b505087359960208901359950604089013598606081013598506080810135975060a0810135965060c0810135955060e08101359450610100013592509050565b600060208284031215610f0457600080fd5b610f0d82610e12565b9392505050565b634e487b7160e01b600052603260045260246000fd5b634e487b7160e01b600052601160045260246000fd5b8181038181111561092e5761092e610f2a565b808202811582820484141761092e5761092e610f2a565b600082610f8757634e487b7160e01b600052601260045260246000fd5b500490565b8082018082111561092e5761092e610f2a565b600060208284031215610fb157600080fd5b81518015158114610f0d57600080fdfea2646970667358221220c4e5653f1e2d7c1271851fc08fff16dfdc06682b1b0f41dc8755adc01ca2103564736f6c63430008110033",
  "linkReferences": {},
  "deployedLinkReferences": {}
}