{
  "_format": "hh-sol-artifact-1",
  "contractName": "StakeBLB_BLB",
  "sourceName": "contracts/StakePool/StakeBLB_BLB.sol",
  "abi": [
    {
      "inputs": [
        {
          "internalType": "contract IERC20",
          "name": "_BUSD",
          "type": "address"
        },
        {
          "internalType": "contract IERC20",
          "name": "_BLB",
          "type": "address"
        },
        {
          "internalType": "address",
          "name": "blbSwap",
          "type": "address"
        }
      ],
      "stateMutability": "nonpayable",
      "type": "constructor"
    },
    {
      "anonymous": false,
      "inputs": [
        {
          "indexed": true,
          "internalType": "address",
          "name": "previousOwner",
          "type": "address"
        },
        {
          "indexed": true,
          "internalType": "address",
          "name": "newOwner",
          "type": "address"
        }
      ],
      "name": "OwnershipTransferred",
      "type": "event"
    },
    {
      "anonymous": false,
      "inputs": [
        {
          "indexed": false,
          "internalType": "address",
          "name": "account",
          "type": "address"
        }
      ],
      "name": "Paused",
      "type": "event"
    },
    {
      "anonymous": false,
      "inputs": [
        {
          "indexed": false,
          "internalType": "address",
          "name": "account",
          "type": "address"
        }
      ],
      "name": "Unpaused",
      "type": "event"
    },
    {
      "inputs": [],
      "name": "BLB",
      "outputs": [
        {
          "internalType": "contract IERC20",
          "name": "",
          "type": "address"
        }
      ],
      "stateMutability": "view",
      "type": "function"
    },
    {
      "inputs": [],
      "name": "BLBSwap",
      "outputs": [
        {
          "internalType": "contract IBLBSwap",
          "name": "",
          "type": "address"
        }
      ],
      "stateMutability": "view",
      "type": "function"
    },
    {
      "inputs": [
        {
          "internalType": "uint256",
          "name": "amountBNB",
          "type": "uint256"
        }
      ],
      "name": "BLBsForBNB",
      "outputs": [
        {
          "internalType": "uint256",
          "name": "",
          "type": "uint256"
        }
      ],
      "stateMutability": "view",
      "type": "function"
    },
    {
      "inputs": [
        {
          "internalType": "uint256",
          "name": "amountBUSD",
          "type": "uint256"
        }
      ],
      "name": "BLBsForUSD",
      "outputs": [
        {
          "internalType": "uint256",
          "name": "",
          "type": "uint256"
        }
      ],
      "stateMutability": "view",
      "type": "function"
    },
    {
      "inputs": [],
      "name": "BUSD",
      "outputs": [
        {
          "internalType": "contract IERC20",
          "name": "",
          "type": "address"
        }
      ],
      "stateMutability": "view",
      "type": "function"
    },
    {
      "inputs": [
        {
          "internalType": "uint256",
          "name": "amountBUSD",
          "type": "uint256"
        },
        {
          "internalType": "uint256",
          "name": "duration",
          "type": "uint256"
        }
      ],
      "name": "buyAndStake",
      "outputs": [],
      "stateMutability": "payable",
      "type": "function"
    },
    {
      "inputs": [
        {
          "internalType": "address",
          "name": "_BLBSwap",
          "type": "address"
        }
      ],
      "name": "changeBLBSwap",
      "outputs": [],
      "stateMutability": "nonpayable",
      "type": "function"
    },
    {
      "inputs": [],
      "name": "checkpoints",
      "outputs": [
        {
          "components": [
            {
              "internalType": "uint256",
              "name": "passTime",
              "type": "uint256"
            },
            {
              "internalType": "uint256",
              "name": "saveDeposit",
              "type": "uint256"
            },
            {
              "internalType": "uint256",
              "name": "saveProfit",
              "type": "uint256"
            }
          ],
          "internalType": "struct StakeBLB_BLB.Checkpoint",
          "name": "checkpoint1_",
          "type": "tuple"
        },
        {
          "components": [
            {
              "internalType": "uint256",
              "name": "passTime",
              "type": "uint256"
            },
            {
              "internalType": "uint256",
              "name": "saveDeposit",
              "type": "uint256"
            },
            {
              "internalType": "uint256",
              "name": "saveProfit",
              "type": "uint256"
            }
          ],
          "internalType": "struct StakeBLB_BLB.Checkpoint",
          "name": "checkpoint2_",
          "type": "tuple"
        },
        {
          "components": [
            {
              "internalType": "uint256",
              "name": "passTime",
              "type": "uint256"
            },
            {
              "internalType": "uint256",
              "name": "saveDeposit",
              "type": "uint256"
            },
            {
              "internalType": "uint256",
              "name": "saveProfit",
              "type": "uint256"
            }
          ],
          "internalType": "struct StakeBLB_BLB.Checkpoint",
          "name": "checkpoint3_",
          "type": "tuple"
        }
      ],
      "stateMutability": "view",
      "type": "function"
    },
    {
      "inputs": [
        {
          "internalType": "address",
          "name": "",
          "type": "address"
        },
        {
          "internalType": "uint256",
          "name": "",
          "type": "uint256"
        }
      ],
      "name": "investments",
      "outputs": [
        {
          "internalType": "uint256",
          "name": "amount",
          "type": "uint256"
        },
        {
          "internalType": "uint256",
          "name": "start",
          "type": "uint256"
        },
        {
          "internalType": "uint256",
          "name": "end",
          "type": "uint256"
        },
        {
          "internalType": "uint256",
          "name": "profit",
          "type": "uint256"
        },
        {
          "internalType": "uint256",
          "name": "claimTime",
          "type": "uint256"
        }
      ],
      "stateMutability": "view",
      "type": "function"
    },
    {
      "inputs": [
        {
          "internalType": "address",
          "name": "borrower",
          "type": "address"
        },
        {
          "internalType": "uint256",
          "name": "amount",
          "type": "uint256"
        }
      ],
      "name": "loanBLB",
      "outputs": [],
      "stateMutability": "nonpayable",
      "type": "function"
    },
    {
      "inputs": [
        {
          "internalType": "uint256",
          "name": "amount",
          "type": "uint256"
        },
        {
          "internalType": "uint256",
          "name": "duration",
          "type": "uint256"
        }
      ],
      "name": "newInvestment",
      "outputs": [],
      "stateMutability": "nonpayable",
      "type": "function"
    },
    {
      "inputs": [],
      "name": "owner",
      "outputs": [
        {
          "internalType": "address",
          "name": "",
          "type": "address"
        }
      ],
      "stateMutability": "view",
      "type": "function"
    },
    {
      "inputs": [],
      "name": "pause",
      "outputs": [],
      "stateMutability": "nonpayable",
      "type": "function"
    },
    {
      "inputs": [],
      "name": "paused",
      "outputs": [
        {
          "internalType": "bool",
          "name": "",
          "type": "bool"
        }
      ],
      "stateMutability": "view",
      "type": "function"
    },
    {
      "inputs": [
        {
          "internalType": "address[]",
          "name": "users",
          "type": "address[]"
        },
        {
          "internalType": "uint256[]",
          "name": "amounts",
          "type": "uint256[]"
        }
      ],
      "name": "pay",
      "outputs": [],
      "stateMutability": "nonpayable",
      "type": "function"
    },
    {
      "inputs": [
        {
          "internalType": "address",
          "name": "user",
          "type": "address"
        },
        {
          "internalType": "uint256",
          "name": "amount",
          "type": "uint256"
        }
      ],
      "name": "pay",
      "outputs": [],
      "stateMutability": "nonpayable",
      "type": "function"
    },
    {
      "inputs": [
        {
          "internalType": "address",
          "name": "investor",
          "type": "address"
        }
      ],
      "name": "pendingWithdrawal",
      "outputs": [
        {
          "internalType": "uint256",
          "name": "total",
          "type": "uint256"
        }
      ],
      "stateMutability": "view",
      "type": "function"
    },
    {
      "inputs": [
        {
          "internalType": "address",
          "name": "investor",
          "type": "address"
        },
        {
          "internalType": "uint256",
          "name": "investmentId",
          "type": "uint256"
        }
      ],
      "name": "pendingWithdrawal",
      "outputs": [
        {
          "internalType": "uint256",
          "name": "",
          "type": "uint256"
        }
      ],
      "stateMutability": "view",
      "type": "function"
    },
    {
      "inputs": [],
      "name": "plans",
      "outputs": [
        {
          "internalType": "uint256[]",
          "name": "durations",
          "type": "uint256[]"
        },
        {
          "internalType": "uint256[]",
          "name": "profits",
          "type": "uint256[]"
        }
      ],
      "stateMutability": "view",
      "type": "function"
    },
    {
      "inputs": [
        {
          "internalType": "address",
          "name": "investor",
          "type": "address"
        },
        {
          "internalType": "uint256",
          "name": "investmentId",
          "type": "uint256"
        }
      ],
      "name": "releaseTime",
      "outputs": [
        {
          "internalType": "uint256",
          "name": "",
          "type": "uint256"
        }
      ],
      "stateMutability": "view",
      "type": "function"
    },
    {
      "inputs": [],
      "name": "renounceOwnership",
      "outputs": [],
      "stateMutability": "nonpayable",
      "type": "function"
    },
    {
      "inputs": [
        {
          "internalType": "uint256",
          "name": "",
          "type": "uint256"
        }
      ],
      "name": "rewardPlans",
      "outputs": [
        {
          "internalType": "uint256",
          "name": "",
          "type": "uint256"
        }
      ],
      "stateMutability": "view",
      "type": "function"
    },
    {
      "inputs": [
        {
          "internalType": "uint256",
          "name": "passTime1",
          "type": "uint256"
        },
        {
          "internalType": "uint256",
          "name": "saveDeposit1",
          "type": "uint256"
        },
        {
          "internalType": "uint256",
          "name": "saveProfit1",
          "type": "uint256"
        },
        {
          "internalType": "uint256",
          "name": "passTime2",
          "type": "uint256"
        },
        {
          "internalType": "uint256",
          "name": "saveDeposit2",
          "type": "uint256"
        },
        {
          "internalType": "uint256",
          "name": "saveProfit2",
          "type": "uint256"
        },
        {
          "internalType": "uint256",
          "name": "passTime3",
          "type": "uint256"
        },
        {
          "internalType": "uint256",
          "name": "saveDeposit3",
          "type": "uint256"
        },
        {
          "internalType": "uint256",
          "name": "saveProfit3",
          "type": "uint256"
        }
      ],
      "name": "setCheckpoints",
      "outputs": [],
      "stateMutability": "nonpayable",
      "type": "function"
    },
    {
      "inputs": [
        {
          "internalType": "uint256",
          "name": "duration",
          "type": "uint256"
        },
        {
          "internalType": "uint256",
          "name": "profit",
          "type": "uint256"
        }
      ],
      "name": "setPlan",
      "outputs": [],
      "stateMutability": "nonpayable",
      "type": "function"
    },
    {
      "inputs": [],
      "name": "totalDepositBLB",
      "outputs": [
        {
          "internalType": "uint256",
          "name": "",
          "type": "uint256"
        }
      ],
      "stateMutability": "view",
      "type": "function"
    },
    {
      "inputs": [],
      "name": "totalPendingBLB",
      "outputs": [
        {
          "internalType": "uint256",
          "name": "",
          "type": "uint256"
        }
      ],
      "stateMutability": "view",
      "type": "function"
    },
    {
      "inputs": [
        {
          "internalType": "address",
          "name": "newOwner",
          "type": "address"
        }
      ],
      "name": "transferOwnership",
      "outputs": [],
      "stateMutability": "nonpayable",
      "type": "function"
    },
    {
      "inputs": [],
      "name": "unpause",
      "outputs": [],
      "stateMutability": "nonpayable",
      "type": "function"
    },
    {
      "inputs": [
        {
          "internalType": "address",
          "name": "investor",
          "type": "address"
        }
      ],
      "name": "userInvestments",
      "outputs": [
        {
          "components": [
            {
              "internalType": "uint256",
              "name": "amount",
              "type": "uint256"
            },
            {
              "internalType": "uint256",
              "name": "start",
              "type": "uint256"
            },
            {
              "internalType": "uint256",
              "name": "end",
              "type": "uint256"
            },
            {
              "internalType": "uint256",
              "name": "profit",
              "type": "uint256"
            },
            {
              "internalType": "uint256",
              "name": "claimTime",
              "type": "uint256"
            }
          ],
          "internalType": "struct StakeBLB_BLB.Investment[]",
          "name": "",
          "type": "tuple[]"
        }
      ],
      "stateMutability": "view",
      "type": "function"
    },
    {
      "inputs": [
        {
          "internalType": "address",
          "name": "investor",
          "type": "address"
        }
      ],
      "name": "userTotalStake",
      "outputs": [
        {
          "internalType": "uint256",
          "name": "totalStake",
          "type": "uint256"
        }
      ],
      "stateMutability": "view",
      "type": "function"
    },
    {
      "inputs": [
        {
          "internalType": "uint256",
          "name": "investmentId",
          "type": "uint256"
        }
      ],
      "name": "withdraw",
      "outputs": [],
      "stateMutability": "nonpayable",
      "type": "function"
    }
  ],
  "bytecode": "0x60806040523480156200001157600080fd5b50604051620020f4380380620020f48339810160408190526200003491620002ee565b6200003f336200011d565b6000805460ff60a01b19169055600180546001600160a01b038086166001600160a01b0319928316179092556002805485841690831617905560038054928416929091169190911790556200009f6203f48066038d7ea4c680006200016d565b620000b662278d00670214e8348c4f00006200016d565b620000cd6276a7006706f05b59d3b200006200016d565b620000e462ed4e006710a741a4627800006200016d565b620000fc6301da9c006722b1c8c1227a00006200016d565b620001146000605081603260648284826028620001ed565b50505062000342565b600080546001600160a01b038381166001600160a01b0319831681178455604051919092169283917f8be0079c531659141344cd1fd0a4f28419497f9722a3daafe3b4186f6b6457e09190a35050565b6200017762000274565b6000828152600860209081526040808320849055600790915290205460ff16620001e9576000828152600760205260408120805460ff191660019081179091556006805491820181559091527ff652222313e28459528d920b65115c16c04f3efc82aaedc97be59f3f377c0d3f018290555b5050565b620001f762000274565b60408051606080820183528b825260208083018c90529183018a9052600a9b909b55600b99909955600c979097558651808a0188528681528089018690528701849052600d95909555600e93909355600f919091558351958601845280865293850181905293909101819052601091909155601191909155601255565b6000546001600160a01b03163314620002d35760405162461bcd60e51b815260206004820181905260248201527f4f776e61626c653a2063616c6c6572206973206e6f7420746865206f776e6572604482015260640160405180910390fd5b565b6001600160a01b0381168114620002eb57600080fd5b50565b6000806000606084860312156200030457600080fd5b83516200031181620002d5565b60208501519093506200032481620002d5565b60408501519092506200033781620002d5565b809150509250925092565b611da280620003526000396000f3fe6080604052600436106101d85760003560e01c80635c975abb11610102578063b023eba511610095578063d3399e0011610064578063d3399e00146105ca578063e753f5ac146105ea578063e88cf1b41461060a578063f2fde38b1461062057600080fd5b8063b023eba51461053d578063bc07d85c1461056a578063bfa54b3f1461058a578063c4076876146105aa57600080fd5b80638456cb59116100d15780638456cb59146104bd57806388a9931f146104d25780638da5cb5b146104ff578063a2fa0c751461051d57600080fd5b80635c975abb1461043b5780635fd033311461046557806364eb1b2114610485578063715018a6146104a857600080fd5b80633353561d1161017a578063484f4ea911610149578063484f4ea9146103585780634983c3ab146103905780635a48c0b0146103b05780635b91c5121461041b57600080fd5b80633353561d146102bb5780633e6d9770146102db5780633f4ba83a146103235780634668d8661461033857600080fd5b806328583365116101b657806328583365146102485780632bf0da7e146102685780632cc711c1146102885780632e1a7d4d1461029b57600080fd5b8063084ce708146101dd5780630964c95b146101ff5780630c736b3514610232575b600080fd5b3480156101e957600080fd5b506101fd6101f83660046119cd565b610640565b005b34801561020b57600080fd5b5061021f61021a366004611a55565b610770565b6040519081526020015b60405180910390f35b34801561023e57600080fd5b5061021f60045481565b34801561025457600080fd5b506101fd610263366004611a77565b6107c2565b34801561027457600080fd5b5061021f610283366004611a99565b61095f565b6101fd610296366004611a77565b610b21565b3480156102a757600080fd5b506101fd6102b6366004611ac3565b610e6f565b3480156102c757600080fd5b506101fd6102d6366004611a77565b611089565b3480156102e757600080fd5b506102fb6102f6366004611a99565b611106565b604080519586526020860194909452928401919091526060830152608082015260a001610229565b34801561032f57600080fd5b506101fd611154565b34801561034457600080fd5b506101fd610353366004611adc565b611166565b34801561036457600080fd5b50600154610378906001600160a01b031681565b6040516001600160a01b039091168152602001610229565b34801561039c57600080fd5b5061021f6103ab366004611a99565b6111eb565b3480156103bc57600080fd5b506103c561122f565b6040805184518152602080860151818301529482015181830152835160608201528484015160808201529281015160a0840152815160c08401529281015160e08301529091015161010082015261012001610229565b34801561042757600080fd5b5061021f610436366004611a55565b611302565b34801561044757600080fd5b50600054600160a01b900460ff166040519015158152602001610229565b34801561047157600080fd5b5061021f610480366004611ac3565b61139d565b34801561049157600080fd5b5061049a61140c565b604051610229929190611b76565b3480156104b457600080fd5b506101fd61154b565b3480156104c957600080fd5b506101fd61155d565b3480156104de57600080fd5b5061021f6104ed366004611ac3565b60086020526000908152604090205481565b34801561050b57600080fd5b506000546001600160a01b0316610378565b34801561052957600080fd5b506101fd610538366004611a99565b61156d565b34801561054957600080fd5b5061055d610558366004611a55565b6115f2565b6040516102299190611ba4565b34801561057657600080fd5b5061021f610585366004611ac3565b611699565b34801561059657600080fd5b50600254610378906001600160a01b031681565b3480156105b657600080fd5b506101fd6105c5366004611a99565b6116cb565b3480156105d657600080fd5b506101fd6105e5366004611a55565b6116ff565b3480156105f657600080fd5b50600354610378906001600160a01b031681565b34801561061657600080fd5b5061021f60055481565b34801561062c57600080fd5b506101fd61063b366004611a55565b611729565b828181146106955760405162461bcd60e51b815260206004820152601c60248201527f4c69737473206d7573742062652073616d6520696e206c656e6774680000000060448201526064015b60405180910390fd5b3360005b82811015610767576002546001600160a01b03166323b872dd838989858181106106c5576106c5611c12565b90506020020160208101906106da9190611a55565b8888868181106106ec576106ec611c12565b905060200201356040518463ffffffff1660e01b815260040161071193929190611c28565b6020604051808303816000875af1158015610730573d6000803e3d6000fd5b505050506040513d601f19601f820116820180604052508101906107549190611c4c565b508061075f81611c84565b915050610699565b50505050505050565b6001600160a01b038116600090815260096020526040812054815b818110156107bb5761079d848261095f565b6107a79084611c9d565b9250806107b381611c84565b91505061078b565b5050919050565b6107ca6117a2565b60008181526008602052604081205490036107f75760405162461bcd60e51b815260040161068c90611cb0565b334260006108058483611c9d565b60008581526008602052604081205491925090670de0b6b3a76400009061082c9088611cf1565b6108369190611d08565b6002546040516323b872dd60e01b81529192506001600160a01b0316906323b872dd9061086b90879030908b90600401611c28565b6020604051808303816000875af115801561088a573d6000803e3d6000fd5b505050506040513d601f19601f820116820180604052508101906108ae9190611c4c565b506001600160a01b0384166000908152600960209081526040808320815160a0810183528a81528084018881529281018781526060820187815260808301878152845460018181018755958952968820935160059097029093019586559351928501929092559051600284015590516003830155516004918201558054889290610939908490611c9d565b9250508190555080600560008282546109529190611c9d565b9091555050505050505050565b6001600160a01b038216600090815260096020526040812080548291908490811061098c5761098c611c12565b60009182526020822060016005909202019081015460028201549193508291429190836109b98383611d2a565b87546003890154919250908386106109d657819750809650610b05565b846064846010600001546109ea9190611cf1565b6109f49190611d08565b6109fe9190611c9d565b8610610a4257601154606490610a149084611cf1565b610a1e9190611d08565b601254909850606490610a319083611cf1565b610a3b9190611d08565b9650610b05565b84606484600d60000154610a569190611cf1565b610a609190611d08565b610a6a9190611c9d565b8610610a9d57600e54606490610a809084611cf1565b610a8a9190611d08565b600f54909850606490610a319083611cf1565b84606484600a60000154610ab19190611cf1565b610abb9190611d08565b610ac59190611c9d565b8610610b0557600b54606490610adb9084611cf1565b610ae59190611d08565b600c54909850606490610af89083611cf1565b610b029190611d08565b96505b610b0f8789611c9d565b99505050505050505050505b92915050565b610b296117a2565b6000818152600860205260408120549003610b565760405162461bcd60e51b815260040161068c90611cb0565b3360008315610cc1573415610bc55760405162461bcd60e51b815260206004820152602f60248201527f6e6f7420616c6c6f77656420746f2062757920696e204255534420616e64204260448201526e4e4220696e2073616d652074696d6560881b606482015260840161068c565b600354604051632f01f61760e21b8152600481018690526001600160a01b039091169063bc07d85c90602401602060405180830381865afa158015610c0e573d6000803e3d6000fd5b505050506040513d601f19601f82011682018060405250810190610c329190611d3d565b6001549091506001600160a01b03166323b872dd83610c596000546001600160a01b031690565b876040518463ffffffff1660e01b8152600401610c7893929190611c28565b6020604051808303816000875af1158015610c97573d6000803e3d6000fd5b505050506040513d601f19601f82011682018060405250810190610cbb9190611c4c565b50610d7b565b600354604051635fd0333160e01b81523460048201526001600160a01b0390911690635fd0333190602401602060405180830381865afa158015610d09573d6000803e3d6000fd5b505050506040513d601f19601f82011682018060405250810190610d2d9190611d3d565b9050610d416000546001600160a01b031690565b6001600160a01b03166108fc349081150290604051600060405180830381858888f19350505050158015610d79573d6000803e3d6000fd5b505b426000610d888583611c9d565b60008681526008602052604081205491925090670de0b6b3a764000090610daf9086611cf1565b610db99190611d08565b6001600160a01b0386166000908152600960209081526040808320815160a08101835289815280840189815292810188815260608201878152608083018781528454600181810187559589529688209351600590970290930195865593519285019290925590516002840155905160038301555160049182015580549293508692909190610e48908490611c9d565b925050819055508060056000828254610e619190611c9d565b909155505050505050505050565b336000818152600960205260408120805484908110610e9057610e90611c12565b906000526020600020906005020190506000610eac838561095f565b905060008111610efe5760405162461bcd60e51b815260206004820152601e60248201527f5374616b65506f6f6c3a206e6f7468696e6720746f2077697468647261770000604482015260640161068c565b426004838101919091556002546040516370a0823160e01b8152309281019290925282916001600160a01b03909116906370a0823190602401602060405180830381865afa158015610f54573d6000803e3d6000fd5b505050506040513d601f19601f82011682018060405250810190610f789190611d3d565b11610fd65760405162461bcd60e51b815260206004820152602860248201527f696e73756666696369656e7420424c422062616c616e636520696e207468652060448201526718dbdb9d1c9858dd60c21b606482015260840161068c565b60025460405163a9059cbb60e01b81526001600160a01b038581166004830152602482018490529091169063a9059cbb906044016020604051808303816000875af1158015611029573d6000803e3d6000fd5b505050506040513d601f19601f8201168201806040525081019061104d9190611c4c565b50815460048054600090611062908490611d2a565b909155505060038201546005805460009061107e908490611d2a565b909155505050505050565b6110916117ef565b6000828152600860209081526040808320849055600790915290205460ff16611102576000828152600760205260408120805460ff191660019081179091556006805491820181559091527ff652222313e28459528d920b65115c16c04f3efc82aaedc97be59f3f377c0d3f018290555b5050565b6009602052816000526040600020818154811061112257600080fd5b600091825260209091206005909102018054600182015460028301546003840154600490940154929550909350919085565b61115c6117ef565b611164611849565b565b61116e6117ef565b60408051606080820183528b825260208083018c90529183018a9052600a9b909b55600b99909955600c979097558651808a0188528681528089018690528701849052600d95909555600e93909355600f919091558351958601845280865293850181905293909101819052601091909155601191909155601255565b6001600160a01b038216600090815260096020526040812080548390811061121557611215611c12565b906000526020600020906005020160020154905092915050565b61125360405180606001604052806000815260200160008152602001600081525090565b61127760405180606001604052806000815260200160008152602001600081525090565b61129b60405180606001604052806000815260200160008152602001600081525090565b50506040805160608082018352600a548252600b54602080840191909152600c548385015283518083018552600d548152600e5481830152600f54818601528451928301855260105483526011549183019190915260125493820193909352909391925090565b6001600160a01b03811660009081526009602052604081208054825b818110156113955782818154811061133857611338611c12565b9060005260206000209060050201600401546000036113835782818154811061136357611363611c12565b906000526020600020906005020160000154846113809190611c9d565b93505b8061138d81611c84565b91505061131e565b505050919050565b600354604051635fd0333160e01b8152600481018390526000916001600160a01b031690635fd03331906024015b602060405180830381865afa1580156113e8573d6000803e3d6000fd5b505050506040513d601f19601f82011682018060405250810190610b1b9190611d3d565b60065460609081908067ffffffffffffffff81111561142d5761142d611d56565b604051908082528060200260200182016040528015611456578160200160208202803683370190505b5092508067ffffffffffffffff81111561147257611472611d56565b60405190808252806020026020018201604052801561149b578160200160208202803683370190505b50915060005b8181101561154557600681815481106114bc576114bc611c12565b90600052602060002001548482815181106114d9576114d9611c12565b60200260200101818152505060086000600683815481106114fc576114fc611c12565b906000526020600020015481526020019081526020016000205483828151811061152857611528611c12565b60209081029190910101528061153d81611c84565b9150506114a1565b50509091565b6115536117ef565b611164600061189e565b6115656117ef565b6111646118ee565b6115756117ef565b60025460405163a9059cbb60e01b81526001600160a01b038481166004830152602482018490529091169063a9059cbb906044015b6020604051808303816000875af11580156115c9573d6000803e3d6000fd5b505050506040513d601f19601f820116820180604052508101906115ed9190611c4c565b505050565b6001600160a01b0381166000908152600960209081526040808320805482518185028101850190935280835260609492939192909184015b8282101561168e57838290600052602060002090600502016040518060a0016040529081600082015481526020016001820154815260200160028201548152602001600382015481526020016004820154815250508152602001906001019061162a565b505050509050919050565b600354604051632f01f61760e21b8152600481018390526000916001600160a01b03169063bc07d85c906024016113cb565b6002546040516323b872dd60e01b81526001600160a01b03909116906323b872dd906115aa90339086908690600401611c28565b6117076117ef565b600380546001600160a01b0319166001600160a01b0392909216919091179055565b6117316117ef565b6001600160a01b0381166117965760405162461bcd60e51b815260206004820152602660248201527f4f776e61626c653a206e6577206f776e657220697320746865207a65726f206160448201526564647265737360d01b606482015260840161068c565b61179f8161189e565b50565b600054600160a01b900460ff16156111645760405162461bcd60e51b815260206004820152601060248201526f14185d5cd8589b194e881c185d5cd95960821b604482015260640161068c565b6000546001600160a01b031633146111645760405162461bcd60e51b815260206004820181905260248201527f4f776e61626c653a2063616c6c6572206973206e6f7420746865206f776e6572604482015260640161068c565b611851611931565b6000805460ff60a01b191690557f5db9ee0a495bf2e6ff9c91a7834c1ba4fdd244a5e8aa4e537bd38aeae4b073aa335b6040516001600160a01b03909116815260200160405180910390a1565b600080546001600160a01b038381166001600160a01b0319831681178455604051919092169283917f8be0079c531659141344cd1fd0a4f28419497f9722a3daafe3b4186f6b6457e09190a35050565b6118f66117a2565b6000805460ff60a01b1916600160a01b1790557f62e78cea01bee320cd4e420270b5ea74000d11b0c9f74754ebdbfc544b05a2586118813390565b600054600160a01b900460ff166111645760405162461bcd60e51b815260206004820152601460248201527314185d5cd8589b194e881b9bdd081c185d5cd95960621b604482015260640161068c565b60008083601f84011261199357600080fd5b50813567ffffffffffffffff8111156119ab57600080fd5b6020830191508360208260051b85010111156119c657600080fd5b9250929050565b600080600080604085870312156119e357600080fd5b843567ffffffffffffffff808211156119fb57600080fd5b611a0788838901611981565b90965094506020870135915080821115611a2057600080fd5b50611a2d87828801611981565b95989497509550505050565b80356001600160a01b0381168114611a5057600080fd5b919050565b600060208284031215611a6757600080fd5b611a7082611a39565b9392505050565b60008060408385031215611a8a57600080fd5b50508035926020909101359150565b60008060408385031215611aac57600080fd5b611ab583611a39565b946020939093013593505050565b600060208284031215611ad557600080fd5b5035919050565b60008060008060008060008060006101208a8c031215611afb57600080fd5b505087359960208901359950604089013598606081013598506080810135975060a0810135965060c0810135955060e08101359450610100013592509050565b600081518084526020808501945080840160005b83811015611b6b57815187529582019590820190600101611b4f565b509495945050505050565b604081526000611b896040830185611b3b565b8281036020840152611b9b8185611b3b565b95945050505050565b602080825282518282018190526000919060409081850190868401855b82811015611c055781518051855286810151878601528581015186860152606080820151908601526080908101519085015260a09093019290850190600101611bc1565b5091979650505050505050565b634e487b7160e01b600052603260045260246000fd5b6001600160a01b039384168152919092166020820152604081019190915260600190565b600060208284031215611c5e57600080fd5b81518015158114611a7057600080fd5b634e487b7160e01b600052601160045260246000fd5b600060018201611c9657611c96611c6e565b5060010190565b80820180821115610b1b57610b1b611c6e565b60208082526021908201527f7468657265206973206e6f20706c616e2062792074686973206475726174696f6040820152603760f91b606082015260800190565b8082028115828204841417610b1b57610b1b611c6e565b600082611d2557634e487b7160e01b600052601260045260246000fd5b500490565b81810381811115610b1b57610b1b611c6e565b600060208284031215611d4f57600080fd5b5051919050565b634e487b7160e01b600052604160045260246000fdfea26469706673582212203975b8d64d70153d41329f2f83e6b41bbe54f4ad27efa84e811133d8d3381e1964736f6c63430008120033",
  "linkReferences": {},
  "deployedLinkReferences": {}
}