{
  "_format": "hh-sol-artifact-1",
  "contractName": "StakeBLB_BLB",
  "sourceName": "contracts/StakePool/StakeBLB_BLB.sol",
  "abi": [
    {
      "inputs": [
        {
          "internalType": "contract IERC20",
          "name": "_BLB",
          "type": "address"
        }
      ],
      "stateMutability": "nonpayable",
      "type": "constructor"
    },
    {
      "anonymous": false,
      "inputs": [
        {
          "indexed": true,
          "internalType": "address",
          "name": "previousOwner",
          "type": "address"
        },
        {
          "indexed": true,
          "internalType": "address",
          "name": "newOwner",
          "type": "address"
        }
      ],
      "name": "OwnershipTransferred",
      "type": "event"
    },
    {
      "anonymous": false,
      "inputs": [
        {
          "indexed": false,
          "internalType": "address",
          "name": "account",
          "type": "address"
        }
      ],
      "name": "Paused",
      "type": "event"
    },
    {
      "anonymous": false,
      "inputs": [
        {
          "indexed": false,
          "internalType": "address",
          "name": "account",
          "type": "address"
        }
      ],
      "name": "Unpaused",
      "type": "event"
    },
    {
      "inputs": [],
      "name": "BLB",
      "outputs": [
        {
          "internalType": "contract IERC20",
          "name": "",
          "type": "address"
        }
      ],
      "stateMutability": "view",
      "type": "function"
    },
    {
      "inputs": [],
      "name": "checkPoint1",
      "outputs": [
        {
          "internalType": "uint256",
          "name": "passTime",
          "type": "uint256"
        },
        {
          "internalType": "uint256",
          "name": "saveDeposit",
          "type": "uint256"
        },
        {
          "internalType": "uint256",
          "name": "saveProfit",
          "type": "uint256"
        }
      ],
      "stateMutability": "view",
      "type": "function"
    },
    {
      "inputs": [],
      "name": "checkPoint2",
      "outputs": [
        {
          "internalType": "uint256",
          "name": "passTime",
          "type": "uint256"
        },
        {
          "internalType": "uint256",
          "name": "saveDeposit",
          "type": "uint256"
        },
        {
          "internalType": "uint256",
          "name": "saveProfit",
          "type": "uint256"
        }
      ],
      "stateMutability": "view",
      "type": "function"
    },
    {
      "inputs": [],
      "name": "checkPoint3",
      "outputs": [
        {
          "internalType": "uint256",
          "name": "passTime",
          "type": "uint256"
        },
        {
          "internalType": "uint256",
          "name": "saveDeposit",
          "type": "uint256"
        },
        {
          "internalType": "uint256",
          "name": "saveProfit",
          "type": "uint256"
        }
      ],
      "stateMutability": "view",
      "type": "function"
    },
    {
      "inputs": [
        {
          "internalType": "address",
          "name": "",
          "type": "address"
        },
        {
          "internalType": "uint256",
          "name": "",
          "type": "uint256"
        }
      ],
      "name": "investments",
      "outputs": [
        {
          "internalType": "uint256",
          "name": "amount",
          "type": "uint256"
        },
        {
          "internalType": "uint256",
          "name": "start",
          "type": "uint256"
        },
        {
          "internalType": "uint256",
          "name": "end",
          "type": "uint256"
        },
        {
          "internalType": "uint256",
          "name": "profit",
          "type": "uint256"
        },
        {
          "internalType": "uint256",
          "name": "claimTime",
          "type": "uint256"
        }
      ],
      "stateMutability": "view",
      "type": "function"
    },
    {
      "inputs": [
        {
          "internalType": "address",
          "name": "borrower",
          "type": "address"
        },
        {
          "internalType": "uint256",
          "name": "amount",
          "type": "uint256"
        }
      ],
      "name": "loanBLB",
      "outputs": [],
      "stateMutability": "nonpayable",
      "type": "function"
    },
    {
      "inputs": [
        {
          "internalType": "uint256",
          "name": "amount",
          "type": "uint256"
        },
        {
          "internalType": "uint256",
          "name": "duration",
          "type": "uint256"
        }
      ],
      "name": "newInvestment",
      "outputs": [],
      "stateMutability": "nonpayable",
      "type": "function"
    },
    {
      "inputs": [],
      "name": "owner",
      "outputs": [
        {
          "internalType": "address",
          "name": "",
          "type": "address"
        }
      ],
      "stateMutability": "view",
      "type": "function"
    },
    {
      "inputs": [],
      "name": "pause",
      "outputs": [],
      "stateMutability": "nonpayable",
      "type": "function"
    },
    {
      "inputs": [],
      "name": "paused",
      "outputs": [
        {
          "internalType": "bool",
          "name": "",
          "type": "bool"
        }
      ],
      "stateMutability": "view",
      "type": "function"
    },
    {
      "inputs": [
        {
          "internalType": "address",
          "name": "investor",
          "type": "address"
        },
        {
          "internalType": "uint256",
          "name": "investmentId",
          "type": "uint256"
        }
      ],
      "name": "pendingWithdrawal",
      "outputs": [
        {
          "internalType": "uint256",
          "name": "",
          "type": "uint256"
        }
      ],
      "stateMutability": "view",
      "type": "function"
    },
    {
      "inputs": [],
      "name": "plans",
      "outputs": [
        {
          "internalType": "uint256[]",
          "name": "durations",
          "type": "uint256[]"
        },
        {
          "internalType": "uint256[]",
          "name": "profits",
          "type": "uint256[]"
        }
      ],
      "stateMutability": "view",
      "type": "function"
    },
    {
      "inputs": [
        {
          "internalType": "address",
          "name": "investor",
          "type": "address"
        },
        {
          "internalType": "uint256",
          "name": "investmentId",
          "type": "uint256"
        }
      ],
      "name": "releaseTime",
      "outputs": [
        {
          "internalType": "uint256",
          "name": "",
          "type": "uint256"
        }
      ],
      "stateMutability": "view",
      "type": "function"
    },
    {
      "inputs": [],
      "name": "renounceOwnership",
      "outputs": [],
      "stateMutability": "nonpayable",
      "type": "function"
    },
    {
      "inputs": [
        {
          "internalType": "uint256",
          "name": "",
          "type": "uint256"
        }
      ],
      "name": "rewardPlans",
      "outputs": [
        {
          "internalType": "uint256",
          "name": "",
          "type": "uint256"
        }
      ],
      "stateMutability": "view",
      "type": "function"
    },
    {
      "inputs": [
        {
          "internalType": "uint256",
          "name": "passTime1",
          "type": "uint256"
        },
        {
          "internalType": "uint256",
          "name": "saveDeposit1",
          "type": "uint256"
        },
        {
          "internalType": "uint256",
          "name": "saveProfit1",
          "type": "uint256"
        },
        {
          "internalType": "uint256",
          "name": "passTime2",
          "type": "uint256"
        },
        {
          "internalType": "uint256",
          "name": "saveDeposit2",
          "type": "uint256"
        },
        {
          "internalType": "uint256",
          "name": "saveProfit2",
          "type": "uint256"
        },
        {
          "internalType": "uint256",
          "name": "passTime3",
          "type": "uint256"
        },
        {
          "internalType": "uint256",
          "name": "saveDeposit3",
          "type": "uint256"
        },
        {
          "internalType": "uint256",
          "name": "saveProfit3",
          "type": "uint256"
        }
      ],
      "name": "setCheckpoints",
      "outputs": [],
      "stateMutability": "nonpayable",
      "type": "function"
    },
    {
      "inputs": [
        {
          "internalType": "uint256",
          "name": "duration",
          "type": "uint256"
        },
        {
          "internalType": "uint256",
          "name": "profit",
          "type": "uint256"
        }
      ],
      "name": "setPlan",
      "outputs": [],
      "stateMutability": "nonpayable",
      "type": "function"
    },
    {
      "inputs": [],
      "name": "totalDepositBLB",
      "outputs": [
        {
          "internalType": "uint256",
          "name": "",
          "type": "uint256"
        }
      ],
      "stateMutability": "view",
      "type": "function"
    },
    {
      "inputs": [],
      "name": "totalPendingBLB",
      "outputs": [
        {
          "internalType": "uint256",
          "name": "",
          "type": "uint256"
        }
      ],
      "stateMutability": "view",
      "type": "function"
    },
    {
      "inputs": [
        {
          "internalType": "address",
          "name": "newOwner",
          "type": "address"
        }
      ],
      "name": "transferOwnership",
      "outputs": [],
      "stateMutability": "nonpayable",
      "type": "function"
    },
    {
      "inputs": [],
      "name": "unpause",
      "outputs": [],
      "stateMutability": "nonpayable",
      "type": "function"
    },
    {
      "inputs": [
        {
          "internalType": "address",
          "name": "investor",
          "type": "address"
        }
      ],
      "name": "userInvestments",
      "outputs": [
        {
          "components": [
            {
              "internalType": "uint256",
              "name": "amount",
              "type": "uint256"
            },
            {
              "internalType": "uint256",
              "name": "start",
              "type": "uint256"
            },
            {
              "internalType": "uint256",
              "name": "end",
              "type": "uint256"
            },
            {
              "internalType": "uint256",
              "name": "profit",
              "type": "uint256"
            },
            {
              "internalType": "uint256",
              "name": "claimTime",
              "type": "uint256"
            }
          ],
          "internalType": "struct StakeBLB_BLB.Investment[]",
          "name": "",
          "type": "tuple[]"
        }
      ],
      "stateMutability": "view",
      "type": "function"
    },
    {
      "inputs": [
        {
          "internalType": "uint256",
          "name": "investmentId",
          "type": "uint256"
        }
      ],
      "name": "withdraw",
      "outputs": [],
      "stateMutability": "nonpayable",
      "type": "function"
    }
  ],
  "bytecode": "0x60806040523480156200001157600080fd5b506040516200151938038062001519833981016040819052620000349162000299565b6200003f33620000e1565b6000805460ff60a01b19169055600180546001600160a01b0319166001600160a01b0383161790556200007d62015180662386f26fc1000062000131565b6200009462093a8067016345785d8a000062000131565b620000ab62278d006706f05b59d3b2000062000131565b620000c26276a7006718fae27693b4000062000131565b620000da6000605081603260648284826028620001b1565b50620002cb565b600080546001600160a01b038381166001600160a01b0319831681178455604051919092169283917f8be0079c531659141344cd1fd0a4f28419497f9722a3daafe3b4186f6b6457e09190a35050565b6200013b62000238565b6000828152600660209081526040808320849055600590915290205460ff16620001ad576000828152600560205260408120805460ff191660019081179091556004805491820181559091527f8a35acfbc15ff81a39ae7d344fd709f28e8600b4aa8c65c6b64bfe7fe36bd19b018290555b5050565b620001bb62000238565b60408051606080820183528b825260208083018c90529183018a905260089b909b55600999909955600a979097558651808a0188528681528089018690528701849052600b95909555600c93909355600d919091558351958601845280865293850181905293909101819052600e91909155600f91909155601055565b6000546001600160a01b03163314620002975760405162461bcd60e51b815260206004820181905260248201527f4f776e61626c653a2063616c6c6572206973206e6f7420746865206f776e6572604482015260640160405180910390fd5b565b600060208284031215620002ac57600080fd5b81516001600160a01b0381168114620002c457600080fd5b9392505050565b61123e80620002db6000396000f3fe608060405234801561001057600080fd5b506004361061014d5760003560e01c8063715018a6116100c3578063ad33710c1161007c578063ad33710c146102ed578063b023eba5146102ff578063bfa54b3f1461031f578063d5d4d11414610332578063e88cf1b414610344578063f2fde38b1461034d57600080fd5b8063715018a6146102585780638456cb591461026057806388a9931f146102685780638a2ac397146102885780638da5cb5b146102b5578063a2fa0c75146102da57600080fd5b80633e6d9770116101155780633e6d9770146101bc5780633f4ba83a146101f75780634668d866146101ff5780634983c3ab146102125780635c975abb1461022557806364eb1b211461024257600080fd5b80630c736b3514610152578063285833651461016e5780632bf0da7e146101835780632e1a7d4d146101965780633353561d146101a9575b600080fd5b61015b60025481565b6040519081526020015b60405180910390f35b61018161017c366004610f53565b610360565b005b61015b610191366004610f91565b61054a565b6101816101a4366004610fbb565b61077b565b6101816101b7366004610f53565b6108c9565b6101cf6101ca366004610f91565b610946565b604080519586526020860194909452928401919091526060830152608082015260a001610165565b610181610994565b61018161020d366004610fd4565b6109a6565b61015b610220366004610f91565b610a2b565b600054600160a01b900460ff166040519015158152602001610165565b61024a610a6f565b60405161016592919061106e565b610181610bae565b610181610bc0565b61015b610276366004610fbb565b60066020526000908152604090205481565b600b54600c54600d5461029a92919083565b60408051938452602084019290925290820152606001610165565b6000546001600160a01b03165b6040516001600160a01b039091168152602001610165565b6101816102e8366004610f91565b610bd0565b600854600954600a5461029a92919083565b61031261030d36600461109c565b610c54565b60405161016591906110be565b6001546102c2906001600160a01b031681565b600e54600f5460105461029a92919083565b61015b60035481565b61018161035b36600461109c565b610cfb565b610368610d74565b60008181526006602052604081205490036103d45760405162461bcd60e51b815260206004820152602160248201527f7468657265206973206e6f20706c616e2062792074686973206475726174696f6044820152603760f91b60648201526084015b60405180910390fd5b334260006103e28483611142565b60008581526006602052604081205491925090670de0b6b3a7640000906104099088611155565b610413919061116c565b6001546040516323b872dd60e01b81526001600160a01b038781166004830152306024830152604482018a90529293509116906323b872dd906064016020604051808303816000875af115801561046e573d6000803e3d6000fd5b505050506040513d601f19601f82011682018060405250810190610492919061118e565b506001600160a01b0384166000908152600760209081526040808320815160a0810183528a8152808401888152928101878152606082018781526080830187815284546001818101875595895296882093516005909702909301958655935192850192909255905160028085019190915591516003840155516004909201919091558054889290610524908490611142565b92505081905550806003600082825461053d9190611142565b9091555050505050505050565b6001600160a01b0382166000908152600760205260408120805482919084908110610577576105776111b0565b9060005260206000209060050201905080600401546000146105f65760405162461bcd60e51b815260206004820152603260248201527f7374616b65506f6f6c3a207468697320696e766573746d656e7420686173206260448201527165656e20636c61696d6564206265666f726560701b60648201526084016103cb565b6001810154600282015460009182914291908361061383836111c6565b87546003890154919250908386106106305781975080965061075f565b84606484600e600001546106449190611155565b61064e919061116c565b6106589190611142565b861061069c57600f5460649061066e9084611155565b610678919061116c565b60105490985060649061068b9083611155565b610695919061116c565b965061075f565b84606484600b600001546106b09190611155565b6106ba919061116c565b6106c49190611142565b86106106f757600c546064906106da9084611155565b6106e4919061116c565b600d5490985060649061068b9083611155565b8460648460086000015461070b9190611155565b610715919061116c565b61071f9190611142565b861061075f576009546064906107359084611155565b61073f919061116c565b600a549098506064906107529083611155565b61075c919061116c565b96505b6107698789611142565b99505050505050505050505b92915050565b33600081815260076020526040812080548490811061079c5761079c6111b0565b9060005260206000209060050201905060006107b8838561054a565b90506000811161080a5760405162461bcd60e51b815260206004820152601e60248201527f5374616b65506f6f6c3a206e6f7468696e6720746f207769746864726177000060448201526064016103cb565b4260048381019190915560015460405163a9059cbb60e01b81526001600160a01b03868116938201939093526024810184905291169063a9059cbb906044016020604051808303816000875af1158015610868573d6000803e3d6000fd5b505050506040513d601f19601f8201168201806040525081019061088c919061118e565b508154600280546000906108a19084906111c6565b925050819055508160030154600360008282546108be91906111c6565b909155505050505050565b6108d1610dc1565b6000828152600660209081526040808320849055600590915290205460ff16610942576000828152600560205260408120805460ff191660019081179091556004805491820181559091527f8a35acfbc15ff81a39ae7d344fd709f28e8600b4aa8c65c6b64bfe7fe36bd19b018290555b5050565b6007602052816000526040600020818154811061096257600080fd5b600091825260209091206005909102018054600182015460028301546003840154600490940154929550909350919085565b61099c610dc1565b6109a4610e1b565b565b6109ae610dc1565b60408051606080820183528b825260208083018c90529183018a905260089b909b55600999909955600a979097558651808a0188528681528089018690528701849052600b95909555600c93909355600d919091558351958601845280865293850181905293909101819052600e91909155600f91909155601055565b6001600160a01b0382166000908152600760205260408120805483908110610a5557610a556111b0565b906000526020600020906005020160020154905092915050565b60045460609081908067ffffffffffffffff811115610a9057610a906111d9565b604051908082528060200260200182016040528015610ab9578160200160208202803683370190505b5092508067ffffffffffffffff811115610ad557610ad56111d9565b604051908082528060200260200182016040528015610afe578160200160208202803683370190505b50915060005b81811015610ba85760048181548110610b1f57610b1f6111b0565b9060005260206000200154848281518110610b3c57610b3c6111b0565b6020026020010181815250506006600060048381548110610b5f57610b5f6111b0565b9060005260206000200154815260200190815260200160002054838281518110610b8b57610b8b6111b0565b602090810291909101015280610ba0816111ef565b915050610b04565b50509091565b610bb6610dc1565b6109a46000610e70565b610bc8610dc1565b6109a4610ec0565b610bd8610dc1565b60015460405163a9059cbb60e01b81526001600160a01b038481166004830152602482018490529091169063a9059cbb906044016020604051808303816000875af1158015610c2b573d6000803e3d6000fd5b505050506040513d601f19601f82011682018060405250810190610c4f919061118e565b505050565b6001600160a01b0381166000908152600760209081526040808320805482518185028101850190935280835260609492939192909184015b82821015610cf057838290600052602060002090600502016040518060a00160405290816000820154815260200160018201548152602001600282015481526020016003820154815260200160048201548152505081526020019060010190610c8c565b505050509050919050565b610d03610dc1565b6001600160a01b038116610d685760405162461bcd60e51b815260206004820152602660248201527f4f776e61626c653a206e6577206f776e657220697320746865207a65726f206160448201526564647265737360d01b60648201526084016103cb565b610d7181610e70565b50565b600054600160a01b900460ff16156109a45760405162461bcd60e51b815260206004820152601060248201526f14185d5cd8589b194e881c185d5cd95960821b60448201526064016103cb565b6000546001600160a01b031633146109a45760405162461bcd60e51b815260206004820181905260248201527f4f776e61626c653a2063616c6c6572206973206e6f7420746865206f776e657260448201526064016103cb565b610e23610f03565b6000805460ff60a01b191690557f5db9ee0a495bf2e6ff9c91a7834c1ba4fdd244a5e8aa4e537bd38aeae4b073aa335b6040516001600160a01b03909116815260200160405180910390a1565b600080546001600160a01b038381166001600160a01b0319831681178455604051919092169283917f8be0079c531659141344cd1fd0a4f28419497f9722a3daafe3b4186f6b6457e09190a35050565b610ec8610d74565b6000805460ff60a01b1916600160a01b1790557f62e78cea01bee320cd4e420270b5ea74000d11b0c9f74754ebdbfc544b05a258610e533390565b600054600160a01b900460ff166109a45760405162461bcd60e51b815260206004820152601460248201527314185d5cd8589b194e881b9bdd081c185d5cd95960621b60448201526064016103cb565b60008060408385031215610f6657600080fd5b50508035926020909101359150565b80356001600160a01b0381168114610f8c57600080fd5b919050565b60008060408385031215610fa457600080fd5b610fad83610f75565b946020939093013593505050565b600060208284031215610fcd57600080fd5b5035919050565b60008060008060008060008060006101208a8c031215610ff357600080fd5b505087359960208901359950604089013598606081013598506080810135975060a0810135965060c0810135955060e08101359450610100013592509050565b600081518084526020808501945080840160005b8381101561106357815187529582019590820190600101611047565b509495945050505050565b6040815260006110816040830185611033565b82810360208401526110938185611033565b95945050505050565b6000602082840312156110ae57600080fd5b6110b782610f75565b9392505050565b602080825282518282018190526000919060409081850190868401855b8281101561111f5781518051855286810151878601528581015186860152606080820151908601526080908101519085015260a090930192908501906001016110db565b5091979650505050505050565b634e487b7160e01b600052601160045260246000fd5b808201808211156107755761077561112c565b80820281158282048414176107755761077561112c565b60008261118957634e487b7160e01b600052601260045260246000fd5b500490565b6000602082840312156111a057600080fd5b815180151581146110b757600080fd5b634e487b7160e01b600052603260045260246000fd5b818103818111156107755761077561112c565b634e487b7160e01b600052604160045260246000fd5b6000600182016112015761120161112c565b506001019056fea2646970667358221220662188c8edc23cdd3b40d1b6e9e5f9ad0dde8d47dc89a692a2a3768d263a133f64736f6c63430008110033",
  "linkReferences": {},
  "deployedLinkReferences": {}
}