{
  "_format": "hh-sol-artifact-1",
  "contractName": "BnbStaking",
  "sourceName": "contracts/StakePool/BNBStaking.sol",
  "abi": [
    {
      "inputs": [],
      "stateMutability": "nonpayable",
      "type": "constructor"
    },
    {
      "anonymous": false,
      "inputs": [
        {
          "indexed": true,
          "internalType": "address",
          "name": "user",
          "type": "address"
        },
        {
          "indexed": false,
          "internalType": "uint256",
          "name": "amount",
          "type": "uint256"
        }
      ],
      "name": "Deposit",
      "type": "event"
    },
    {
      "anonymous": false,
      "inputs": [
        {
          "indexed": true,
          "internalType": "address",
          "name": "user",
          "type": "address"
        },
        {
          "indexed": false,
          "internalType": "uint256",
          "name": "amount",
          "type": "uint256"
        }
      ],
      "name": "EmergencyWithdraw",
      "type": "event"
    },
    {
      "anonymous": false,
      "inputs": [
        {
          "indexed": true,
          "internalType": "address",
          "name": "previousOwner",
          "type": "address"
        },
        {
          "indexed": true,
          "internalType": "address",
          "name": "newOwner",
          "type": "address"
        }
      ],
      "name": "OwnershipTransferred",
      "type": "event"
    },
    {
      "anonymous": false,
      "inputs": [
        {
          "indexed": true,
          "internalType": "address",
          "name": "user",
          "type": "address"
        },
        {
          "indexed": false,
          "internalType": "uint256",
          "name": "amount",
          "type": "uint256"
        }
      ],
      "name": "Withdraw",
      "type": "event"
    },
    {
      "inputs": [],
      "name": "WBNB",
      "outputs": [
        {
          "internalType": "address",
          "name": "",
          "type": "address"
        }
      ],
      "stateMutability": "view",
      "type": "function"
    },
    {
      "inputs": [],
      "name": "adminAddress",
      "outputs": [
        {
          "internalType": "address",
          "name": "",
          "type": "address"
        }
      ],
      "stateMutability": "view",
      "type": "function"
    },
    {
      "inputs": [],
      "name": "bonusEndBlock",
      "outputs": [
        {
          "internalType": "uint256",
          "name": "",
          "type": "uint256"
        }
      ],
      "stateMutability": "view",
      "type": "function"
    },
    {
      "inputs": [],
      "name": "deposit",
      "outputs": [],
      "stateMutability": "payable",
      "type": "function"
    },
    {
      "inputs": [
        {
          "internalType": "uint256",
          "name": "_amount",
          "type": "uint256"
        }
      ],
      "name": "emergencyRewardWithdraw",
      "outputs": [],
      "stateMutability": "nonpayable",
      "type": "function"
    },
    {
      "inputs": [],
      "name": "emergencyWithdraw",
      "outputs": [],
      "stateMutability": "nonpayable",
      "type": "function"
    },
    {
      "inputs": [
        {
          "internalType": "uint256",
          "name": "_from",
          "type": "uint256"
        },
        {
          "internalType": "uint256",
          "name": "_to",
          "type": "uint256"
        }
      ],
      "name": "getMultiplier",
      "outputs": [
        {
          "internalType": "uint256",
          "name": "",
          "type": "uint256"
        }
      ],
      "stateMutability": "view",
      "type": "function"
    },
    {
      "inputs": [],
      "name": "limitAmount",
      "outputs": [
        {
          "internalType": "uint256",
          "name": "",
          "type": "uint256"
        }
      ],
      "stateMutability": "view",
      "type": "function"
    },
    {
      "inputs": [],
      "name": "massUpdatePools",
      "outputs": [],
      "stateMutability": "nonpayable",
      "type": "function"
    },
    {
      "inputs": [],
      "name": "owner",
      "outputs": [
        {
          "internalType": "address",
          "name": "",
          "type": "address"
        }
      ],
      "stateMutability": "view",
      "type": "function"
    },
    {
      "inputs": [
        {
          "internalType": "address",
          "name": "_user",
          "type": "address"
        }
      ],
      "name": "pendingReward",
      "outputs": [
        {
          "internalType": "uint256",
          "name": "",
          "type": "uint256"
        }
      ],
      "stateMutability": "view",
      "type": "function"
    },
    {
      "inputs": [
        {
          "internalType": "uint256",
          "name": "",
          "type": "uint256"
        }
      ],
      "name": "poolInfo",
      "outputs": [
        {
          "internalType": "contract IERC20",
          "name": "lpToken",
          "type": "address"
        },
        {
          "internalType": "uint256",
          "name": "allocPoint",
          "type": "uint256"
        },
        {
          "internalType": "uint256",
          "name": "lastRewardBlock",
          "type": "uint256"
        },
        {
          "internalType": "uint256",
          "name": "accCakePerShare",
          "type": "uint256"
        }
      ],
      "stateMutability": "view",
      "type": "function"
    },
    {
      "inputs": [
        {
          "internalType": "address",
          "name": "_blacklistAddress",
          "type": "address"
        }
      ],
      "name": "removeBlackList",
      "outputs": [],
      "stateMutability": "nonpayable",
      "type": "function"
    },
    {
      "inputs": [],
      "name": "renounceOwnership",
      "outputs": [],
      "stateMutability": "nonpayable",
      "type": "function"
    },
    {
      "inputs": [],
      "name": "rewardPerBlock",
      "outputs": [
        {
          "internalType": "uint256",
          "name": "",
          "type": "uint256"
        }
      ],
      "stateMutability": "view",
      "type": "function"
    },
    {
      "inputs": [],
      "name": "rewardToken",
      "outputs": [
        {
          "internalType": "contract IERC20",
          "name": "",
          "type": "address"
        }
      ],
      "stateMutability": "view",
      "type": "function"
    },
    {
      "inputs": [
        {
          "internalType": "address",
          "name": "_adminAddress",
          "type": "address"
        }
      ],
      "name": "setAdmin",
      "outputs": [],
      "stateMutability": "nonpayable",
      "type": "function"
    },
    {
      "inputs": [
        {
          "internalType": "address",
          "name": "_blacklistAddress",
          "type": "address"
        }
      ],
      "name": "setBlackList",
      "outputs": [],
      "stateMutability": "nonpayable",
      "type": "function"
    },
    {
      "inputs": [
        {
          "internalType": "uint256",
          "name": "_amount",
          "type": "uint256"
        }
      ],
      "name": "setLimitAmount",
      "outputs": [],
      "stateMutability": "nonpayable",
      "type": "function"
    },
    {
      "inputs": [],
      "name": "startBlock",
      "outputs": [
        {
          "internalType": "uint256",
          "name": "",
          "type": "uint256"
        }
      ],
      "stateMutability": "view",
      "type": "function"
    },
    {
      "inputs": [],
      "name": "totalAllocPoint",
      "outputs": [
        {
          "internalType": "uint256",
          "name": "",
          "type": "uint256"
        }
      ],
      "stateMutability": "view",
      "type": "function"
    },
    {
      "inputs": [
        {
          "internalType": "address",
          "name": "newOwner",
          "type": "address"
        }
      ],
      "name": "transferOwnership",
      "outputs": [],
      "stateMutability": "nonpayable",
      "type": "function"
    },
    {
      "inputs": [
        {
          "internalType": "uint256",
          "name": "_pid",
          "type": "uint256"
        }
      ],
      "name": "updatePool",
      "outputs": [],
      "stateMutability": "nonpayable",
      "type": "function"
    },
    {
      "inputs": [
        {
          "internalType": "address",
          "name": "",
          "type": "address"
        }
      ],
      "name": "userInfo",
      "outputs": [
        {
          "internalType": "uint256",
          "name": "amount",
          "type": "uint256"
        },
        {
          "internalType": "uint256",
          "name": "rewardDebt",
          "type": "uint256"
        },
        {
          "internalType": "bool",
          "name": "inBlackList",
          "type": "bool"
        }
      ],
      "stateMutability": "view",
      "type": "function"
    },
    {
      "inputs": [
        {
          "internalType": "uint256",
          "name": "_amount",
          "type": "uint256"
        }
      ],
      "name": "withdraw",
      "outputs": [],
      "stateMutability": "nonpayable",
      "type": "function"
    },
    {
      "stateMutability": "payable",
      "type": "receive"
    }
  ],
  "bytecode": "0x60a0604052678ac7230489e80000600655600060075534801561002157600080fd5b5061002b336101af565b600180546001600160a01b03191673314fbbfc5c9db19bc8f8981781d326a9ba76508f17815573c778417e063141139fce010982780140aa0cd5ab60805264e8d4a5100060035573ac424337cf073fa0a3e0dec0c3da83b8cc3c9f39906100939043906101ff565b60088190556100a590620186a06101ff565b600955600280546001600160a01b03199081163317909155604080516080810182526001600160a01b0393841681526103e86020820181815260085493830193845260006060840181815260048054600181018255928190529451919094027f8a35acfbc15ff81a39ae7d344fd709f28e8600b4aa8c65c6b64bfe7fe36bd19b8101805492909816919096161790955593517f8a35acfbc15ff81a39ae7d344fd709f28e8600b4aa8c65c6b64bfe7fe36bd19c84015590517f8a35acfbc15ff81a39ae7d344fd709f28e8600b4aa8c65c6b64bfe7fe36bd19d830155517f8a35acfbc15ff81a39ae7d344fd709f28e8600b4aa8c65c6b64bfe7fe36bd19e90910155600755610225565b600080546001600160a01b038381166001600160a01b0319831681178455604051919092169283917f8be0079c531659141344cd1fd0a4f28419497f9722a3daafe3b4186f6b6457e09190a35050565b6000821982111561022057634e487b7160e01b600052601160045260246000fd5b500190565b60805161162961025c6000396000818161017a015281816104230152818161067601528181610b840152610c0e01526116296000f3fe60806040526004361061016a5760003560e01c806372700241116100d1578063d0e30db01161008a578063f2fde38b11610064578063f2fde38b14610482578063f40f0f52146104a2578063f7c618c1146104c2578063fc6f9468146104e257600080fd5b8063d0e30db014610445578063db2e21bc1461044d578063e4997dc51461046257600080fd5b8063727002411461037357806378abafaf146103935780638ae39cac146103a95780638da5cb5b146103bf5780638dbb1e3a146103f15780638dd950021461041157600080fd5b80633279beab116101235780633279beab146102d357806348cd4cb1146102f357806351eb05a614610309578063630b5ba114610329578063704b6c021461033e578063715018a61461035e57600080fd5b80631526fe27146101ae57806317caf6f1146101fd5780631959a002146102215780631aed65531461027d5780631f107a45146102935780632e1a7d4d146102b357600080fd5b366101a957336001600160a01b037f000000000000000000000000000000000000000000000000000000000000000016146101a7576101a761140a565b005b600080fd5b3480156101ba57600080fd5b506101ce6101c9366004611420565b610502565b604080516001600160a01b03909516855260208501939093529183015260608201526080015b60405180910390f35b34801561020957600080fd5b5061021360075481565b6040519081526020016101f4565b34801561022d57600080fd5b5061026061023c366004611439565b60056020526000908152604090208054600182015460029092015490919060ff1683565b6040805193845260208401929092521515908201526060016101f4565b34801561028957600080fd5b5061021360095481565b34801561029f57600080fd5b506101a76102ae366004611420565b610546565b3480156102bf57600080fd5b506101a76102ce366004611420565b610553565b3480156102df57600080fd5b506101a76102ee366004611420565b61073f565b3480156102ff57600080fd5b5061021360085481565b34801561031557600080fd5b506101a7610324366004611420565b61080e565b34801561033557600080fd5b506101a7610938565b34801561034a57600080fd5b506101a7610359366004611439565b610963565b34801561036a57600080fd5b506101a761098d565b34801561037f57600080fd5b506101a761038e366004611439565b6109a1565b34801561039f57600080fd5b5061021360065481565b3480156103b557600080fd5b5061021360035481565b3480156103cb57600080fd5b506000546001600160a01b03165b6040516001600160a01b0390911681526020016101f4565b3480156103fd57600080fd5b5061021361040c366004611462565b610a10565b34801561041d57600080fd5b506103d97f000000000000000000000000000000000000000000000000000000000000000081565b6101a7610a50565b34801561045957600080fd5b506101a7610cfb565b34801561046e57600080fd5b506101a761047d366004611439565b610d94565b34801561048e57600080fd5b506101a761049d366004611439565b610e00565b3480156104ae57600080fd5b506102136104bd366004611439565b610e76565b3480156104ce57600080fd5b506001546103d9906001600160a01b031681565b3480156104ee57600080fd5b506002546103d9906001600160a01b031681565b6004818154811061051257600080fd5b600091825260209091206004909102018054600182015460028301546003909301546001600160a01b039092169350919084565b61054e610fcc565b600655565b6000600460008154811061056957610569611484565b60009182526020808320338452600590915260409092208054600490920290920192508311156105d55760405162461bcd60e51b81526020600482015260126024820152711dda5d1a191c985dce881b9bdd0819dbdbd960721b60448201526064015b60405180910390fd5b6105df600061080e565b6000610619826001015461061364e8d4a5100061060d8760030154876000015461102690919063ffffffff16565b90611039565b90611045565b90506000811180156106305750600282015460ff16155b1561064c5760015461064c906001600160a01b03163383611051565b83156106e457815461065e9085611045565b8255604051632e1a7d4d60e01b8152600481018590527f00000000000000000000000000000000000000000000000000000000000000006001600160a01b031690632e1a7d4d90602401600060405180830381600087803b1580156106c257600080fd5b505af11580156106d6573d6000803e3d6000fd5b505050506106e433856110a8565b600383015482546106ff9164e8d4a510009161060d91611026565b600183015560405184815233907f884edad9ce6fa2440d8a54cc123490eb96d2768479d49ff9c7366125a94243649060200160405180910390a250505050565b610747610fcc565b6001546040516370a0823160e01b81523060048201526001600160a01b03909116906370a0823190602401602060405180830381865afa15801561078f573d6000803e3d6000fd5b505050506040513d601f19601f820116820180604052508101906107b3919061149a565b81106107f45760405162461bcd60e51b815260206004820152601060248201526f3737ba1032b737bab3b4103a37b5b2b760811b60448201526064016105cc565b60015461080b906001600160a01b03163383611051565b50565b60006004828154811061082357610823611484565b9060005260206000209060040201905080600201544311610842575050565b80546040516370a0823160e01b81523060048201526000916001600160a01b0316906370a0823190602401602060405180830381865afa15801561088a573d6000803e3d6000fd5b505050506040513d601f19601f820116820180604052508101906108ae919061149a565b9050806000036108c357504360029091015550565b60006108d3836002015443610a10565b9050600061090060075461060d86600101546108fa6003548761102690919063ffffffff16565b90611026565b90506109236109188461060d8464e8d4a51000611026565b60038601549061115b565b60038501555050436002909201919091555050565b60045460005b8181101561095f5761094f8161080e565b610958816114c9565b905061093e565b5050565b61096b610fcc565b600280546001600160a01b0319166001600160a01b0392909216919091179055565b610995610fcc565b61099f6000611167565b565b6002546001600160a01b031633146109e95760405162461bcd60e51b815260206004820152600b60248201526a61646d696e3a207775743f60a81b60448201526064016105cc565b6001600160a01b03166000908152600560205260409020600201805460ff19166001179055565b60006009548211610a2c57610a258284611045565b9050610a4a565b6009548310610a3d57506000610a4a565b600954610a259084611045565b92915050565b60006004600081548110610a6657610a66611484565b60009182526020808320338452600590915260409092206006548154600490930290930193509190610a98903461115b565b1115610ad75760405162461bcd60e51b815260206004820152600e60248201526d06578636565642074686520746f760941b60448201526064016105cc565b600281015460ff1615610b1c5760405162461bcd60e51b815260206004820152600d60248201526c1a5b88189b1858dac81b1a5cdd609a1b60448201526064016105cc565b610b26600061080e565b805415610b7c576000610b5b826001015461061364e8d4a5100061060d8760030154876000015461102690919063ffffffff16565b90508015610b7a57600154610b7a906001600160a01b03163383611051565b505b3415610ca2577f00000000000000000000000000000000000000000000000000000000000000006001600160a01b031663d0e30db0346040518263ffffffff1660e01b81526004016000604051808303818588803b158015610bdd57600080fd5b505af1158015610bf1573d6000803e3d6000fd5b505060405163a9059cbb60e01b81523060048201523460248201527f00000000000000000000000000000000000000000000000000000000000000006001600160a01b0316935063a9059cbb925060440190506020604051808303816000875af1158015610c63573d6000803e3d6000fd5b505050506040513d601f19601f82011682018060405250810190610c8791906114e2565b610c9357610c9361140a565b8054610c9f903461115b565b81555b60038201548154610cbd9164e8d4a510009161060d91611026565b600182015560405134815233907fe1fffcc4923d04b559f4d29a8bfc6cda04eb5b0d3c460751c2402c5c5cc9109c9060200160405180910390a25050565b60006004600081548110610d1157610d11611484565b600091825260208083203380855260059092526040909320805460049093029093018054909450610d4f926001600160a01b03919091169190611051565b805460405190815233907f5fafa99d0643513820be26656b45130b01e1c03062e1266bf36f88cbd3bd96959060200160405180910390a2600080825560019091015550565b6002546001600160a01b03163314610ddc5760405162461bcd60e51b815260206004820152600b60248201526a61646d696e3a207775743f60a81b60448201526064016105cc565b6001600160a01b03166000908152600560205260409020600201805460ff19169055565b610e08610fcc565b6001600160a01b038116610e6d5760405162461bcd60e51b815260206004820152602660248201527f4f776e61626c653a206e6577206f776e657220697320746865207a65726f206160448201526564647265737360d01b60648201526084016105cc565b61080b81611167565b6000806004600081548110610e8d57610e8d611484565b600091825260208083206001600160a01b0387811685526005909252604080852060049485029092016003810154815492516370a0823160e01b8152309681019690965290965091949193919216906370a0823190602401602060405180830381865afa158015610f02573d6000803e3d6000fd5b505050506040513d601f19601f82011682018060405250810190610f26919061149a565b9050836002015443118015610f3a57508015155b15610f9a576000610f4f856002015443610a10565b90506000610f7660075461060d88600101546108fa6003548761102690919063ffffffff16565b9050610f95610f8e8461060d8464e8d4a51000611026565b859061115b565b935050505b610fc2836001015461061364e8d4a5100061060d86886000015461102690919063ffffffff16565b9695505050505050565b6000546001600160a01b0316331461099f5760405162461bcd60e51b815260206004820181905260248201527f4f776e61626c653a2063616c6c6572206973206e6f7420746865206f776e657260448201526064016105cc565b60006110328284611504565b9392505050565b60006110328284611523565b60006110328284611545565b604080516001600160a01b038416602482015260448082018490528251808303909101815260649091019091526020810180516001600160e01b031663a9059cbb60e01b1790526110a39084906111b7565b505050565b6000826001600160a01b03166159d883604051600060405180830381858888f193505050503d80600081146110f9576040519150601f19603f3d011682016040523d82523d6000602084013e6110fe565b606091505b50509050806110a35760405162461bcd60e51b815260206004820152602360248201527f5472616e7366657248656c7065723a204554485f5452414e534645525f46414960448201526213115160ea1b60648201526084016105cc565b6000611032828461155c565b600080546001600160a01b038381166001600160a01b0319831681178455604051919092169283917f8be0079c531659141344cd1fd0a4f28419497f9722a3daafe3b4186f6b6457e09190a35050565b600061120c826040518060400160405280602081526020017f5361666545524332303a206c6f772d6c6576656c2063616c6c206661696c6564815250856001600160a01b03166112899092919063ffffffff16565b8051909150156110a3578080602001905181019061122a91906114e2565b6110a35760405162461bcd60e51b815260206004820152602a60248201527f5361666545524332303a204552433230206f7065726174696f6e20646964206e6044820152691bdd081cdd58d8d9595960b21b60648201526084016105cc565b606061129884846000856112a0565b949350505050565b6060824710156113015760405162461bcd60e51b815260206004820152602660248201527f416464726573733a20696e73756666696369656e742062616c616e636520666f6044820152651c8818d85b1b60d21b60648201526084016105cc565b6001600160a01b0385163b6113585760405162461bcd60e51b815260206004820152601d60248201527f416464726573733a2063616c6c20746f206e6f6e2d636f6e747261637400000060448201526064016105cc565b600080866001600160a01b0316858760405161137491906115a4565b60006040518083038185875af1925050503d80600081146113b1576040519150601f19603f3d011682016040523d82523d6000602084013e6113b6565b606091505b50915091506113c68282866113d1565b979650505050505050565b606083156113e0575081611032565b8251156113f05782518084602001fd5b8160405162461bcd60e51b81526004016105cc91906115c0565b634e487b7160e01b600052600160045260246000fd5b60006020828403121561143257600080fd5b5035919050565b60006020828403121561144b57600080fd5b81356001600160a01b038116811461103257600080fd5b6000806040838503121561147557600080fd5b50508035926020909101359150565b634e487b7160e01b600052603260045260246000fd5b6000602082840312156114ac57600080fd5b5051919050565b634e487b7160e01b600052601160045260246000fd5b6000600182016114db576114db6114b3565b5060010190565b6000602082840312156114f457600080fd5b8151801515811461103257600080fd5b600081600019048311821515161561151e5761151e6114b3565b500290565b60008261154057634e487b7160e01b600052601260045260246000fd5b500490565b600082821015611557576115576114b3565b500390565b6000821982111561156f5761156f6114b3565b500190565b60005b8381101561158f578181015183820152602001611577565b8381111561159e576000848401525b50505050565b600082516115b6818460208701611574565b9190910192915050565b60208152600082518060208401526115df816040850160208701611574565b601f01601f1916919091016040019291505056fea264697066735822122061b7e591243c3dce3b92920f667c142642e2431ec4538709636b7c417dd465ba64736f6c634300080f0033",
  "linkReferences": {},
  "deployedLinkReferences": {}
}