{
  "_format": "hh-sol-artifact-1",
  "contractName": "BnbStaking",
  "sourceName": "contracts/StakePool/BNBStaking.sol",
  "abi": [
    {
      "inputs": [],
      "stateMutability": "nonpayable",
      "type": "constructor"
    },
    {
      "anonymous": false,
      "inputs": [
        {
          "indexed": true,
          "internalType": "address",
          "name": "user",
          "type": "address"
        },
        {
          "indexed": false,
          "internalType": "uint256",
          "name": "amount",
          "type": "uint256"
        }
      ],
      "name": "Deposit",
      "type": "event"
    },
    {
      "anonymous": false,
      "inputs": [
        {
          "indexed": true,
          "internalType": "address",
          "name": "user",
          "type": "address"
        },
        {
          "indexed": false,
          "internalType": "uint256",
          "name": "amount",
          "type": "uint256"
        }
      ],
      "name": "EmergencyWithdraw",
      "type": "event"
    },
    {
      "anonymous": false,
      "inputs": [
        {
          "indexed": true,
          "internalType": "address",
          "name": "previousOwner",
          "type": "address"
        },
        {
          "indexed": true,
          "internalType": "address",
          "name": "newOwner",
          "type": "address"
        }
      ],
      "name": "OwnershipTransferred",
      "type": "event"
    },
    {
      "anonymous": false,
      "inputs": [
        {
          "indexed": true,
          "internalType": "address",
          "name": "user",
          "type": "address"
        },
        {
          "indexed": false,
          "internalType": "uint256",
          "name": "amount",
          "type": "uint256"
        }
      ],
      "name": "Withdraw",
      "type": "event"
    },
    {
      "inputs": [],
      "name": "WBNB",
      "outputs": [
        {
          "internalType": "address",
          "name": "",
          "type": "address"
        }
      ],
      "stateMutability": "view",
      "type": "function"
    },
    {
      "inputs": [],
      "name": "adminAddress",
      "outputs": [
        {
          "internalType": "address",
          "name": "",
          "type": "address"
        }
      ],
      "stateMutability": "view",
      "type": "function"
    },
    {
      "inputs": [],
      "name": "bonusEndBlock",
      "outputs": [
        {
          "internalType": "uint256",
          "name": "",
          "type": "uint256"
        }
      ],
      "stateMutability": "view",
      "type": "function"
    },
    {
      "inputs": [],
      "name": "deposit",
      "outputs": [],
      "stateMutability": "payable",
      "type": "function"
    },
    {
      "inputs": [
        {
          "internalType": "uint256",
          "name": "_amount",
          "type": "uint256"
        }
      ],
      "name": "emergencyRewardWithdraw",
      "outputs": [],
      "stateMutability": "nonpayable",
      "type": "function"
    },
    {
      "inputs": [],
      "name": "emergencyWithdraw",
      "outputs": [],
      "stateMutability": "nonpayable",
      "type": "function"
    },
    {
      "inputs": [
        {
          "internalType": "uint256",
          "name": "_from",
          "type": "uint256"
        },
        {
          "internalType": "uint256",
          "name": "_to",
          "type": "uint256"
        }
      ],
      "name": "getMultiplier",
      "outputs": [
        {
          "internalType": "uint256",
          "name": "",
          "type": "uint256"
        }
      ],
      "stateMutability": "view",
      "type": "function"
    },
    {
      "inputs": [],
      "name": "limitAmount",
      "outputs": [
        {
          "internalType": "uint256",
          "name": "",
          "type": "uint256"
        }
      ],
      "stateMutability": "view",
      "type": "function"
    },
    {
      "inputs": [
        {
          "internalType": "uint256",
          "name": "_amount",
          "type": "uint256"
        }
      ],
      "name": "loanBNB",
      "outputs": [],
      "stateMutability": "nonpayable",
      "type": "function"
    },
    {
      "inputs": [],
      "name": "massUpdatePools",
      "outputs": [],
      "stateMutability": "nonpayable",
      "type": "function"
    },
    {
      "inputs": [],
      "name": "owner",
      "outputs": [
        {
          "internalType": "address",
          "name": "",
          "type": "address"
        }
      ],
      "stateMutability": "view",
      "type": "function"
    },
    {
      "inputs": [
        {
          "internalType": "address",
          "name": "_user",
          "type": "address"
        }
      ],
      "name": "pendingReward",
      "outputs": [
        {
          "internalType": "uint256",
          "name": "",
          "type": "uint256"
        }
      ],
      "stateMutability": "view",
      "type": "function"
    },
    {
      "inputs": [
        {
          "internalType": "uint256",
          "name": "",
          "type": "uint256"
        }
      ],
      "name": "poolInfo",
      "outputs": [
        {
          "internalType": "contract IERC20",
          "name": "lpToken",
          "type": "address"
        },
        {
          "internalType": "uint256",
          "name": "allocPoint",
          "type": "uint256"
        },
        {
          "internalType": "uint256",
          "name": "lastRewardBlock",
          "type": "uint256"
        },
        {
          "internalType": "uint256",
          "name": "accCakePerShare",
          "type": "uint256"
        }
      ],
      "stateMutability": "view",
      "type": "function"
    },
    {
      "inputs": [
        {
          "internalType": "address",
          "name": "_blacklistAddress",
          "type": "address"
        }
      ],
      "name": "removeBlackList",
      "outputs": [],
      "stateMutability": "nonpayable",
      "type": "function"
    },
    {
      "inputs": [],
      "name": "renounceOwnership",
      "outputs": [],
      "stateMutability": "nonpayable",
      "type": "function"
    },
    {
      "inputs": [],
      "name": "rewardPerBlock",
      "outputs": [
        {
          "internalType": "uint256",
          "name": "",
          "type": "uint256"
        }
      ],
      "stateMutability": "view",
      "type": "function"
    },
    {
      "inputs": [],
      "name": "rewardToken",
      "outputs": [
        {
          "internalType": "contract IERC20",
          "name": "",
          "type": "address"
        }
      ],
      "stateMutability": "view",
      "type": "function"
    },
    {
      "inputs": [
        {
          "internalType": "address",
          "name": "_adminAddress",
          "type": "address"
        }
      ],
      "name": "setAdmin",
      "outputs": [],
      "stateMutability": "nonpayable",
      "type": "function"
    },
    {
      "inputs": [
        {
          "internalType": "address",
          "name": "_blacklistAddress",
          "type": "address"
        }
      ],
      "name": "setBlackList",
      "outputs": [],
      "stateMutability": "nonpayable",
      "type": "function"
    },
    {
      "inputs": [
        {
          "internalType": "uint256",
          "name": "_amount",
          "type": "uint256"
        }
      ],
      "name": "setLimitAmount",
      "outputs": [],
      "stateMutability": "nonpayable",
      "type": "function"
    },
    {
      "inputs": [],
      "name": "startBlock",
      "outputs": [
        {
          "internalType": "uint256",
          "name": "",
          "type": "uint256"
        }
      ],
      "stateMutability": "view",
      "type": "function"
    },
    {
      "inputs": [],
      "name": "totalAllocPoint",
      "outputs": [
        {
          "internalType": "uint256",
          "name": "",
          "type": "uint256"
        }
      ],
      "stateMutability": "view",
      "type": "function"
    },
    {
      "inputs": [
        {
          "internalType": "address",
          "name": "newOwner",
          "type": "address"
        }
      ],
      "name": "transferOwnership",
      "outputs": [],
      "stateMutability": "nonpayable",
      "type": "function"
    },
    {
      "inputs": [
        {
          "internalType": "uint256",
          "name": "_pid",
          "type": "uint256"
        }
      ],
      "name": "updatePool",
      "outputs": [],
      "stateMutability": "nonpayable",
      "type": "function"
    },
    {
      "inputs": [
        {
          "internalType": "address",
          "name": "",
          "type": "address"
        }
      ],
      "name": "userInfo",
      "outputs": [
        {
          "internalType": "uint256",
          "name": "amount",
          "type": "uint256"
        },
        {
          "internalType": "uint256",
          "name": "rewardDebt",
          "type": "uint256"
        },
        {
          "internalType": "bool",
          "name": "inBlackList",
          "type": "bool"
        }
      ],
      "stateMutability": "view",
      "type": "function"
    },
    {
      "inputs": [
        {
          "internalType": "uint256",
          "name": "_amount",
          "type": "uint256"
        }
      ],
      "name": "withdraw",
      "outputs": [],
      "stateMutability": "nonpayable",
      "type": "function"
    },
    {
      "stateMutability": "payable",
      "type": "receive"
    }
  ],
  "bytecode": "0x60a0604052678ac7230489e80000600655600060075534801561002157600080fd5b5061002b336101af565b600180546001600160a01b03191673314fbbfc5c9db19bc8f8981781d326a9ba76508f17815573c778417e063141139fce010982780140aa0cd5ab60805264e8d4a5100060035573ac424337cf073fa0a3e0dec0c3da83b8cc3c9f39906100939043906101ff565b60088190556100a590620186a06101ff565b600955600280546001600160a01b03199081163317909155604080516080810182526001600160a01b0393841681526103e86020820181815260085493830193845260006060840181815260048054600181018255928190529451919094027f8a35acfbc15ff81a39ae7d344fd709f28e8600b4aa8c65c6b64bfe7fe36bd19b8101805492909816919096161790955593517f8a35acfbc15ff81a39ae7d344fd709f28e8600b4aa8c65c6b64bfe7fe36bd19c84015590517f8a35acfbc15ff81a39ae7d344fd709f28e8600b4aa8c65c6b64bfe7fe36bd19d830155517f8a35acfbc15ff81a39ae7d344fd709f28e8600b4aa8c65c6b64bfe7fe36bd19e90910155600755610225565b600080546001600160a01b038381166001600160a01b0319831681178455604051919092169283917f8be0079c531659141344cd1fd0a4f28419497f9722a3daafe3b4186f6b6457e09190a35050565b6000821982111561022057634e487b7160e01b600052601160045260246000fd5b500190565b60805161175d6200026b60003960008181610195015281816101bc015281816104cb01528181610619015281816107ad01528181610cb80152610d42015261175d6000f3fe6080604052600436106101855760003560e01c806372700241116100d1578063d0e30db01161008a578063f2fde38b11610064578063f2fde38b1461052a578063f40f0f521461054a578063f7c618c11461056a578063fc6f94681461058a57600080fd5b8063d0e30db0146104ed578063db2e21bc146104f5578063e4997dc51461050a57600080fd5b8063727002411461041b57806378abafaf1461043b5780638ae39cac146104515780638da5cb5b146104675780638dbb1e3a146104995780638dd95002146104b957600080fd5b80632e1a7d4d1161013e57806351eb05a61161011857806351eb05a6146103b1578063630b5ba1146103d1578063704b6c02146103e6578063715018a61461040657600080fd5b80632e1a7d4d1461035b5780633279beab1461037b57806348cd4cb11461039b57600080fd5b80631526fe271461023657806317caf6f1146102855780631959a002146102a95780631aed6553146103055780631f107a451461031b5780632158f8411461033b57600080fd5b3661023157336001600160a01b037f0000000000000000000000000000000000000000000000000000000000000000161461022f577f00000000000000000000000000000000000000000000000000000000000000006001600160a01b031663d0e30db0346040518263ffffffff1660e01b81526004016000604051808303818588803b15801561021557600080fd5b505af1158015610229573d6000803e3d6000fd5b50505050505b005b600080fd5b34801561024257600080fd5b5061025661025136600461153e565b6105aa565b604080516001600160a01b03909516855260208501939093529183015260608201526080015b60405180910390f35b34801561029157600080fd5b5061029b60075481565b60405190815260200161027c565b3480156102b557600080fd5b506102e86102c4366004611557565b60056020526000908152604090208054600182015460029092015490919060ff1683565b60408051938452602084019290925215159082015260600161027c565b34801561031157600080fd5b5061029b60095481565b34801561032757600080fd5b5061022f61033636600461153e565b6105ee565b34801561034757600080fd5b5061022f61035636600461153e565b6105fb565b34801561036757600080fd5b5061022f61037636600461153e565b61068a565b34801561038757600080fd5b5061022f61039636600461153e565b610876565b3480156103a757600080fd5b5061029b60085481565b3480156103bd57600080fd5b5061022f6103cc36600461153e565b610942565b3480156103dd57600080fd5b5061022f610a6c565b3480156103f257600080fd5b5061022f610401366004611557565b610a97565b34801561041257600080fd5b5061022f610ac1565b34801561042757600080fd5b5061022f610436366004611557565b610ad5565b34801561044757600080fd5b5061029b60065481565b34801561045d57600080fd5b5061029b60035481565b34801561047357600080fd5b506000546001600160a01b03165b6040516001600160a01b03909116815260200161027c565b3480156104a557600080fd5b5061029b6104b4366004611580565b610b44565b3480156104c557600080fd5b506104817f000000000000000000000000000000000000000000000000000000000000000081565b61022f610b84565b34801561050157600080fd5b5061022f610e2f565b34801561051657600080fd5b5061022f610525366004611557565b610ec8565b34801561053657600080fd5b5061022f610545366004611557565b610f34565b34801561055657600080fd5b5061029b610565366004611557565b610faa565b34801561057657600080fd5b50600154610481906001600160a01b031681565b34801561059657600080fd5b50600254610481906001600160a01b031681565b600481815481106105ba57600080fd5b600091825260209091206004909102018054600182015460028301546003909301546001600160a01b039092169350919084565b6105f6611100565b600655565b610603611100565b604051632e1a7d4d60e01b8152600481018290527f00000000000000000000000000000000000000000000000000000000000000006001600160a01b031690632e1a7d4d90602401600060405180830381600087803b15801561066557600080fd5b505af1158015610679573d6000803e3d6000fd5b50505050610687338261115a565b50565b600060046000815481106106a0576106a06115a2565b600091825260208083203384526005909152604090922080546004909202909201925083111561070c5760405162461bcd60e51b81526020600482015260126024820152711dda5d1a191c985dce881b9bdd0819dbdbd960721b60448201526064015b60405180910390fd5b6107166000610942565b6000610750826001015461074a64e8d4a510006107448760030154876000015461121290919063ffffffff16565b90611225565b90611231565b90506000811180156107675750600282015460ff16155b1561078357600154610783906001600160a01b0316338361123d565b831561081b5781546107959085611231565b8255604051632e1a7d4d60e01b8152600481018590527f00000000000000000000000000000000000000000000000000000000000000006001600160a01b031690632e1a7d4d90602401600060405180830381600087803b1580156107f957600080fd5b505af115801561080d573d6000803e3d6000fd5b5050505061081b338561115a565b600383015482546108369164e8d4a510009161074491611212565b600183015560405184815233907f884edad9ce6fa2440d8a54cc123490eb96d2768479d49ff9c7366125a94243649060200160405180910390a250505050565b61087e611100565b6001546040516370a0823160e01b81523060048201526001600160a01b03909116906370a0823190602401602060405180830381865afa1580156108c6573d6000803e3d6000fd5b505050506040513d601f19601f820116820180604052508101906108ea91906115b8565b811061092b5760405162461bcd60e51b815260206004820152601060248201526f3737ba1032b737bab3b4103a37b5b2b760811b6044820152606401610703565b600154610687906001600160a01b0316338361123d565b600060048281548110610957576109576115a2565b9060005260206000209060040201905080600201544311610976575050565b80546040516370a0823160e01b81523060048201526000916001600160a01b0316906370a0823190602401602060405180830381865afa1580156109be573d6000803e3d6000fd5b505050506040513d601f19601f820116820180604052508101906109e291906115b8565b9050806000036109f757504360029091015550565b6000610a07836002015443610b44565b90506000610a346007546107448660010154610a2e6003548761121290919063ffffffff16565b90611212565b9050610a57610a4c846107448464e8d4a51000611212565b60038601549061128f565b60038501555050436002909201919091555050565b60045460005b81811015610a9357610a8381610942565b610a8c816115e7565b9050610a72565b5050565b610a9f611100565b600280546001600160a01b0319166001600160a01b0392909216919091179055565b610ac9611100565b610ad3600061129b565b565b6002546001600160a01b03163314610b1d5760405162461bcd60e51b815260206004820152600b60248201526a61646d696e3a207775743f60a81b6044820152606401610703565b6001600160a01b03166000908152600560205260409020600201805460ff19166001179055565b60006009548211610b6057610b598284611231565b9050610b7e565b6009548310610b7157506000610b7e565b600954610b599084611231565b92915050565b60006004600081548110610b9a57610b9a6115a2565b60009182526020808320338452600590915260409092206006548154600490930290930193509190610bcc903461128f565b1115610c0b5760405162461bcd60e51b815260206004820152600e60248201526d06578636565642074686520746f760941b6044820152606401610703565b600281015460ff1615610c505760405162461bcd60e51b815260206004820152600d60248201526c1a5b88189b1858dac81b1a5cdd609a1b6044820152606401610703565b610c5a6000610942565b805415610cb0576000610c8f826001015461074a64e8d4a510006107448760030154876000015461121290919063ffffffff16565b90508015610cae57600154610cae906001600160a01b0316338361123d565b505b3415610dd6577f00000000000000000000000000000000000000000000000000000000000000006001600160a01b031663d0e30db0346040518263ffffffff1660e01b81526004016000604051808303818588803b158015610d1157600080fd5b505af1158015610d25573d6000803e3d6000fd5b505060405163a9059cbb60e01b81523060048201523460248201527f00000000000000000000000000000000000000000000000000000000000000006001600160a01b0316935063a9059cbb925060440190506020604051808303816000875af1158015610d97573d6000803e3d6000fd5b505050506040513d601f19601f82011682018060405250810190610dbb9190611600565b610dc757610dc7611622565b8054610dd3903461128f565b81555b60038201548154610df19164e8d4a510009161074491611212565b600182015560405134815233907fe1fffcc4923d04b559f4d29a8bfc6cda04eb5b0d3c460751c2402c5c5cc9109c9060200160405180910390a25050565b60006004600081548110610e4557610e456115a2565b600091825260208083203380855260059092526040909320805460049093029093018054909450610e83926001600160a01b0391909116919061123d565b805460405190815233907f5fafa99d0643513820be26656b45130b01e1c03062e1266bf36f88cbd3bd96959060200160405180910390a2600080825560019091015550565b6002546001600160a01b03163314610f105760405162461bcd60e51b815260206004820152600b60248201526a61646d696e3a207775743f60a81b6044820152606401610703565b6001600160a01b03166000908152600560205260409020600201805460ff19169055565b610f3c611100565b6001600160a01b038116610fa15760405162461bcd60e51b815260206004820152602660248201527f4f776e61626c653a206e6577206f776e657220697320746865207a65726f206160448201526564647265737360d01b6064820152608401610703565b6106878161129b565b6000806004600081548110610fc157610fc16115a2565b600091825260208083206001600160a01b0387811685526005909252604080852060049485029092016003810154815492516370a0823160e01b8152309681019690965290965091949193919216906370a0823190602401602060405180830381865afa158015611036573d6000803e3d6000fd5b505050506040513d601f19601f8201168201806040525081019061105a91906115b8565b905083600201544311801561106e57508015155b156110ce576000611083856002015443610b44565b905060006110aa6007546107448860010154610a2e6003548761121290919063ffffffff16565b90506110c96110c2846107448464e8d4a51000611212565b859061128f565b935050505b6110f6836001015461074a64e8d4a5100061074486886000015461121290919063ffffffff16565b9695505050505050565b6000546001600160a01b03163314610ad35760405162461bcd60e51b815260206004820181905260248201527f4f776e61626c653a2063616c6c6572206973206e6f7420746865206f776e65726044820152606401610703565b6000826001600160a01b03166159d883604051600060405180830381858888f193505050503d80600081146111ab576040519150601f19603f3d011682016040523d82523d6000602084013e6111b0565b606091505b505090508061120d5760405162461bcd60e51b815260206004820152602360248201527f5472616e7366657248656c7065723a204554485f5452414e534645525f46414960448201526213115160ea1b6064820152608401610703565b505050565b600061121e8284611638565b9392505050565b600061121e8284611657565b600061121e8284611679565b604080516001600160a01b038416602482015260448082018490528251808303909101815260649091019091526020810180516001600160e01b031663a9059cbb60e01b17905261120d9084906112eb565b600061121e8284611690565b600080546001600160a01b038381166001600160a01b0319831681178455604051919092169283917f8be0079c531659141344cd1fd0a4f28419497f9722a3daafe3b4186f6b6457e09190a35050565b6000611340826040518060400160405280602081526020017f5361666545524332303a206c6f772d6c6576656c2063616c6c206661696c6564815250856001600160a01b03166113bd9092919063ffffffff16565b80519091501561120d578080602001905181019061135e9190611600565b61120d5760405162461bcd60e51b815260206004820152602a60248201527f5361666545524332303a204552433230206f7065726174696f6e20646964206e6044820152691bdd081cdd58d8d9595960b21b6064820152608401610703565b60606113cc84846000856113d4565b949350505050565b6060824710156114355760405162461bcd60e51b815260206004820152602660248201527f416464726573733a20696e73756666696369656e742062616c616e636520666f6044820152651c8818d85b1b60d21b6064820152608401610703565b6001600160a01b0385163b61148c5760405162461bcd60e51b815260206004820152601d60248201527f416464726573733a2063616c6c20746f206e6f6e2d636f6e74726163740000006044820152606401610703565b600080866001600160a01b031685876040516114a891906116d8565b60006040518083038185875af1925050503d80600081146114e5576040519150601f19603f3d011682016040523d82523d6000602084013e6114ea565b606091505b50915091506114fa828286611505565b979650505050505050565b6060831561151457508161121e565b8251156115245782518084602001fd5b8160405162461bcd60e51b815260040161070391906116f4565b60006020828403121561155057600080fd5b5035919050565b60006020828403121561156957600080fd5b81356001600160a01b038116811461121e57600080fd5b6000806040838503121561159357600080fd5b50508035926020909101359150565b634e487b7160e01b600052603260045260246000fd5b6000602082840312156115ca57600080fd5b5051919050565b634e487b7160e01b600052601160045260246000fd5b6000600182016115f9576115f96115d1565b5060010190565b60006020828403121561161257600080fd5b8151801515811461121e57600080fd5b634e487b7160e01b600052600160045260246000fd5b6000816000190483118215151615611652576116526115d1565b500290565b60008261167457634e487b7160e01b600052601260045260246000fd5b500490565b60008282101561168b5761168b6115d1565b500390565b600082198211156116a3576116a36115d1565b500190565b60005b838110156116c35781810151838201526020016116ab565b838111156116d2576000848401525b50505050565b600082516116ea8184602087016116a8565b9190910192915050565b60208152600082518060208401526117138160408501602087016116a8565b601f01601f1916919091016040019291505056fea264697066735822122030b54706e16f2e919a244b277b3de99272fdfa62377d45642a2f41d9f398cab264736f6c634300080f0033",
  "linkReferences": {},
  "deployedLinkReferences": {}
}