{
  "_format": "hh-sol-artifact-1",
  "contractName": "BLBSwap",
  "sourceName": "contracts/BLBSwap/BLBSwap.sol",
  "abi": [
    {
      "inputs": [
        {
          "internalType": "uint256",
          "name": "_BLBsPerUSD",
          "type": "uint256"
        }
      ],
      "stateMutability": "nonpayable",
      "type": "constructor"
    },
    {
      "anonymous": false,
      "inputs": [
        {
          "indexed": true,
          "internalType": "address",
          "name": "previousOwner",
          "type": "address"
        },
        {
          "indexed": true,
          "internalType": "address",
          "name": "newOwner",
          "type": "address"
        }
      ],
      "name": "OwnershipTransferred",
      "type": "event"
    },
    {
      "anonymous": false,
      "inputs": [
        {
          "indexed": true,
          "internalType": "address",
          "name": "userAddr",
          "type": "address"
        },
        {
          "indexed": true,
          "internalType": "string",
          "name": "tokenIn",
          "type": "string"
        },
        {
          "indexed": true,
          "internalType": "string",
          "name": "tokenOut",
          "type": "string"
        },
        {
          "indexed": false,
          "internalType": "uint256",
          "name": "amountIn",
          "type": "uint256"
        },
        {
          "indexed": false,
          "internalType": "uint256",
          "name": "amountOut",
          "type": "uint256"
        }
      ],
      "name": "Swap",
      "type": "event"
    },
    {
      "inputs": [],
      "name": "BLB",
      "outputs": [
        {
          "internalType": "address",
          "name": "",
          "type": "address"
        }
      ],
      "stateMutability": "view",
      "type": "function"
    },
    {
      "inputs": [],
      "name": "BLB_BNB",
      "outputs": [
        {
          "internalType": "uint256",
          "name": "",
          "type": "uint256"
        }
      ],
      "stateMutability": "view",
      "type": "function"
    },
    {
      "inputs": [],
      "name": "BLB_BUSD",
      "outputs": [
        {
          "internalType": "uint256",
          "name": "",
          "type": "uint256"
        }
      ],
      "stateMutability": "view",
      "type": "function"
    },
    {
      "inputs": [
        {
          "internalType": "uint256",
          "name": "amountBNB",
          "type": "uint256"
        }
      ],
      "name": "BLBsForBNB",
      "outputs": [
        {
          "internalType": "uint256",
          "name": "",
          "type": "uint256"
        }
      ],
      "stateMutability": "view",
      "type": "function"
    },
    {
      "inputs": [
        {
          "internalType": "uint256",
          "name": "amountBUSD",
          "type": "uint256"
        }
      ],
      "name": "BLBsForUSD",
      "outputs": [
        {
          "internalType": "uint256",
          "name": "",
          "type": "uint256"
        }
      ],
      "stateMutability": "view",
      "type": "function"
    },
    {
      "inputs": [],
      "name": "BLBsPerUSD",
      "outputs": [
        {
          "internalType": "uint256",
          "name": "",
          "type": "uint256"
        }
      ],
      "stateMutability": "view",
      "type": "function"
    },
    {
      "inputs": [],
      "name": "BNB_BLB",
      "outputs": [
        {
          "internalType": "uint256",
          "name": "",
          "type": "uint256"
        }
      ],
      "stateMutability": "view",
      "type": "function"
    },
    {
      "inputs": [],
      "name": "BNB_BUSD",
      "outputs": [
        {
          "internalType": "uint256",
          "name": "",
          "type": "uint256"
        }
      ],
      "stateMutability": "view",
      "type": "function"
    },
    {
      "inputs": [
        {
          "internalType": "uint256",
          "name": "amountBLB",
          "type": "uint256"
        }
      ],
      "name": "BNBsForBLB",
      "outputs": [
        {
          "internalType": "uint256",
          "name": "",
          "type": "uint256"
        }
      ],
      "stateMutability": "view",
      "type": "function"
    },
    {
      "inputs": [],
      "name": "BUSD_BLB",
      "outputs": [
        {
          "internalType": "uint256",
          "name": "",
          "type": "uint256"
        }
      ],
      "stateMutability": "view",
      "type": "function"
    },
    {
      "inputs": [],
      "name": "BUSD_BNB",
      "outputs": [
        {
          "internalType": "uint256",
          "name": "",
          "type": "uint256"
        }
      ],
      "stateMutability": "view",
      "type": "function"
    },
    {
      "inputs": [
        {
          "internalType": "uint256",
          "name": "amountBLB",
          "type": "uint256"
        }
      ],
      "name": "USDsForBLB",
      "outputs": [
        {
          "internalType": "uint256",
          "name": "",
          "type": "uint256"
        }
      ],
      "stateMutability": "view",
      "type": "function"
    },
    {
      "inputs": [],
      "name": "blbBalance",
      "outputs": [
        {
          "internalType": "uint256",
          "name": "",
          "type": "uint256"
        }
      ],
      "stateMutability": "view",
      "type": "function"
    },
    {
      "inputs": [],
      "name": "bnbBalance",
      "outputs": [
        {
          "internalType": "uint256",
          "name": "",
          "type": "uint256"
        }
      ],
      "stateMutability": "view",
      "type": "function"
    },
    {
      "inputs": [],
      "name": "busdBalance",
      "outputs": [
        {
          "internalType": "uint256",
          "name": "",
          "type": "uint256"
        }
      ],
      "stateMutability": "view",
      "type": "function"
    },
    {
      "inputs": [],
      "name": "onPancake",
      "outputs": [
        {
          "internalType": "bool",
          "name": "",
          "type": "bool"
        }
      ],
      "stateMutability": "view",
      "type": "function"
    },
    {
      "inputs": [],
      "name": "owner",
      "outputs": [
        {
          "internalType": "address",
          "name": "",
          "type": "address"
        }
      ],
      "stateMutability": "view",
      "type": "function"
    },
    {
      "inputs": [
        {
          "internalType": "uint256",
          "name": "amountBUSD",
          "type": "uint256"
        }
      ],
      "name": "purchaseBLB",
      "outputs": [
        {
          "internalType": "uint256",
          "name": "amountBLB",
          "type": "uint256"
        }
      ],
      "stateMutability": "payable",
      "type": "function"
    },
    {
      "inputs": [],
      "name": "renounceOwnership",
      "outputs": [],
      "stateMutability": "nonpayable",
      "type": "function"
    },
    {
      "inputs": [
        {
          "internalType": "uint256",
          "name": "amountBLB",
          "type": "uint256"
        },
        {
          "internalType": "bool",
          "name": "toBUSD",
          "type": "bool"
        }
      ],
      "name": "sellBLB",
      "outputs": [
        {
          "internalType": "uint256",
          "name": "amountOut",
          "type": "uint256"
        }
      ],
      "stateMutability": "nonpayable",
      "type": "function"
    },
    {
      "inputs": [
        {
          "internalType": "uint256",
          "name": "BLBsAmount",
          "type": "uint256"
        }
      ],
      "name": "setBLBsPerUSD",
      "outputs": [],
      "stateMutability": "nonpayable",
      "type": "function"
    },
    {
      "inputs": [],
      "name": "setOnPancake",
      "outputs": [],
      "stateMutability": "nonpayable",
      "type": "function"
    },
    {
      "inputs": [
        {
          "internalType": "address",
          "name": "newOwner",
          "type": "address"
        }
      ],
      "name": "transferOwnership",
      "outputs": [],
      "stateMutability": "nonpayable",
      "type": "function"
    },
    {
      "inputs": [
        {
          "internalType": "uint256",
          "name": "amount",
          "type": "uint256"
        }
      ],
      "name": "withdrawBLB",
      "outputs": [],
      "stateMutability": "nonpayable",
      "type": "function"
    },
    {
      "inputs": [
        {
          "internalType": "uint256",
          "name": "amount",
          "type": "uint256"
        }
      ],
      "name": "withdrawBNB",
      "outputs": [],
      "stateMutability": "nonpayable",
      "type": "function"
    },
    {
      "inputs": [
        {
          "internalType": "uint256",
          "name": "amount",
          "type": "uint256"
        }
      ],
      "name": "withdrawBUSD",
      "outputs": [],
      "stateMutability": "nonpayable",
      "type": "function"
    },
    {
      "stateMutability": "payable",
      "type": "receive"
    }
  ],
  "bytecode": "0x6080604052600180546001600160a01b0319167313d67fd10bdbe8301e978e4adcbd2c0ad26f75491790553480156200003757600080fd5b5060405162002230380380620022308339810160408190526200005a9162000137565b620000653362000077565b6200007081620000c7565b5062000151565b600080546001600160a01b038381166001600160a01b0319831681178455604051919092169283917f8be0079c531659141344cd1fd0a4f28419497f9722a3daafe3b4186f6b6457e09190a35050565b620000d1620000d6565b600255565b6000546001600160a01b03163314620001355760405162461bcd60e51b815260206004820181905260248201527f4f776e61626c653a2063616c6c6572206973206e6f7420746865206f776e6572604482015260640160405180910390fd5b565b6000602082840312156200014a57600080fd5b5051919050565b6120cf80620001616000396000f3fe6080604052600436106101855760003560e01c80636f03bfdb116100d1578063cc3bcaf31161008a578063e00115f611610064578063e00115f6146103f1578063e483a6c314610406578063f2fde38b14610426578063fd64500c1461044657600080fd5b8063cc3bcaf3146103a9578063d013cbe2146103c9578063dc39ca7a146103dc57600080fd5b80636f03bfdb146102ed578063715018a6146103025780637f04e0e1146103175780638da5cb5b14610337578063bc07d85c14610369578063bfa54b3f1461038957600080fd5b80634e91341b1161013e5780636601fd26116101185780636601fd26146102985780636ad2690a146102ad5780636c54fe9a146102c35780636ebd467d146102d857600080fd5b80634e91341b1461024357806357d846f9146102585780635fd033311461027857600080fd5b8063067a3dce146101915780630cb41d60146101b3578063127f4b2e146101e657806322233ac01461020657806348f90a901461021b5780634d1d226e1461023057600080fd5b3661018c57005b600080fd5b34801561019d57600080fd5b506101b16101ac366004611c47565b610470565b005b3480156101bf57600080fd5b506101d36101ce366004611c47565b61047d565b6040519081526020015b60405180910390f35b3480156101f257600080fd5b506101b1610201366004611c47565b6104be565b34801561021257600080fd5b506101d3610503565b34801561022757600080fd5b506101d36106d8565b6101d361023e366004611c47565b6108a1565b34801561024f57600080fd5b506101b1610b22565b34801561026457600080fd5b506101d3610273366004611c47565b610b51565b34801561028457600080fd5b506101d3610293366004611c47565b610b8c565b3480156102a457600080fd5b506101d3610bcb565b3480156102b957600080fd5b506101d360025481565b3480156102cf57600080fd5b506101d3610bff565b3480156102e457600080fd5b506101d3610d6a565b3480156102f957600080fd5b506101d3610ed5565b34801561030e57600080fd5b506101b1610ef0565b34801561032357600080fd5b506101b1610332366004611c47565b610f04565b34801561034357600080fd5b506000546001600160a01b03165b6040516001600160a01b0390911681526020016101dd565b34801561037557600080fd5b506101d3610384366004611c47565b610fa0565b34801561039557600080fd5b50600154610351906001600160a01b031681565b3480156103b557600080fd5b506101b16103c4366004611c47565b610fce565b3480156103d557600080fd5b50476101d3565b3480156103e857600080fd5b506101d3611002565b3480156103fd57600080fd5b506101d3611079565b34801561041257600080fd5b506101d3610421366004611c6e565b6110aa565b34801561043257600080fd5b506101b1610441366004611cb3565b61132d565b34801561045257600080fd5b506003546104609060ff1681565b60405190151581526020016101dd565b6104786113a6565b600255565b60035460009060ff161561049a5761049482611400565b92915050565b6002546104af83670de0b6b3a7640000611ce6565b6104949190611cfd565b919050565b6104c66113a6565b600080546040516001600160a01b039091169183156108fc02918491818181858888f193505050501580156104ff573d6000803e3d6000fd5b5050565b604051630b4c774160e11b81526000908190730bfbcf9fa4f9c56b0f40a671ad40e0805a09186590631698ee829061056d9073bb4cdb9cbd36b01bd1cbaebf2de08d9173bc095c9073e9e7cea3dedca5984780bafc599bd69add087d56906101f490600401611d1f565b602060405180830381865afa15801561058a573d6000803e3d6000fd5b505050506040513d601f19601f820116820180604052508101906105ae9190611d47565b90506000816001600160a01b0316633850c7bd6040518163ffffffff1660e01b815260040160e060405180830381865afa1580156105f0573d6000803e3d6000fd5b505050506040513d601f19601f820116820180604052508101906106149190611db2565b60000151905073bb4cdb9cbd36b01bd1cbaebf2de08d9173bc095c6001600160a01b0316826001600160a01b0316630dfe16816040518163ffffffff1660e01b8152600401602060405180830381865afa158015610676573d6000803e3d6000fd5b505050506040513d601f19601f8201168201806040525081019061069a9190611d47565b6001600160a01b0316146106bf576106ba816001600160a01b031661141d565b6106d1565b6106d1816001600160a01b0316611455565b9250505090565b604051630b4c774160e11b81526000908190730bfbcf9fa4f9c56b0f40a671ad40e0805a09186590631698ee82906107429073bb4cdb9cbd36b01bd1cbaebf2de08d9173bc095c9073e9e7cea3dedca5984780bafc599bd69add087d56906101f490600401611d1f565b602060405180830381865afa15801561075f573d6000803e3d6000fd5b505050506040513d601f19601f820116820180604052508101906107839190611d47565b90506000816001600160a01b0316633850c7bd6040518163ffffffff1660e01b815260040160e060405180830381865afa1580156107c5573d6000803e3d6000fd5b505050506040513d601f19601f820116820180604052508101906107e99190611db2565b60000151905073bb4cdb9cbd36b01bd1cbaebf2de08d9173bc095c6001600160a01b0316826001600160a01b0316630dfe16816040518163ffffffff1660e01b8152600401602060405180830381865afa15801561084b573d6000803e3d6000fd5b505050506040513d601f19601f8201168201806040525081019061086f9190611d47565b6001600160a01b03161461088f576106ba816001600160a01b0316611455565b6106d1816001600160a01b031661141d565b6003546000903390349060ff16156108c5576108be828583611486565b9250610b1b565b83600003610a09576108d681610b8c565b9250826108e1611079565b101561092e5760405162461bcd60e51b8152602060048201526017602482015276696e73756666696369656e7420424c4220746f2070617960481b60448201526064015b60405180910390fd5b60015460405163a9059cbb60e01b81526001600160a01b038481166004830152602482018690529091169063a9059cbb906044016020604051808303816000875af1158015610981573d6000803e3d6000fd5b505050506040513d601f19601f820116820180604052508101906109a59190611e70565b506040516221262160e91b81526003016040519081900381206221272160e91b8252906003016040805191829003822084835260208301879052916001600160a01b0386169160008051602061207a833981519152910160405180910390a4610b1b565b8015610a275760405162461bcd60e51b815260040161092590611e8d565b610a3084610fa0565b925082610a3b611079565b1015610a835760405162461bcd60e51b8152602060048201526017602482015276696e73756666696369656e7420424c4220746f2070617960481b6044820152606401610925565b610aa373e9e7cea3dedca5984780bafc599bd69add087d56833087611719565b600154610abb906001600160a01b0316308486611719565b6040516221262160e91b815260030160405190819003812063109554d160e21b8252906004016040805191829003822087835260208301879052916001600160a01b0386169160008051602061207a833981519152910160405180910390a45b5050919050565b610b2a6113a6565b60035460ff16610b3b576001610b3e565b60005b6003805460ff1916911515919091179055565b60035460009060ff1615610b685761049482611823565b670de0b6b3a7640000610b796106d8565b610b828461047d565b6104af9190611ce6565b60035460009060ff1615610ba35761049482611836565b610494670de0b6b3a7640000610bb7610503565b610bc19085611ce6565b6103849190611cfd565b6000670de0b6b3a7640000610bde610d6a565b610be6610503565b610bf09190611ce6565b610bfa9190611cfd565b905090565b600154604051630b4c774160e11b81526000918291730bfbcf9fa4f9c56b0f40a671ad40e0805a09186591631698ee8291610c60916001600160a01b03169073e9e7cea3dedca5984780bafc599bd69add087d56906101f490600401611d1f565b602060405180830381865afa158015610c7d573d6000803e3d6000fd5b505050506040513d601f19601f82011682018060405250810190610ca19190611d47565b90506000816001600160a01b0316633850c7bd6040518163ffffffff1660e01b815260040160e060405180830381865afa158015610ce3573d6000803e3d6000fd5b505050506040513d601f19601f82011682018060405250810190610d079190611db2565b600001519050600160009054906101000a90046001600160a01b03166001600160a01b0316826001600160a01b0316630dfe16816040518163ffffffff1660e01b8152600401602060405180830381865afa158015610676573d6000803e3d6000fd5b600154604051630b4c774160e11b81526000918291730bfbcf9fa4f9c56b0f40a671ad40e0805a09186591631698ee8291610dcb916001600160a01b03169073e9e7cea3dedca5984780bafc599bd69add087d56906101f490600401611d1f565b602060405180830381865afa158015610de8573d6000803e3d6000fd5b505050506040513d601f19601f82011682018060405250810190610e0c9190611d47565b90506000816001600160a01b0316633850c7bd6040518163ffffffff1660e01b815260040160e060405180830381865afa158015610e4e573d6000803e3d6000fd5b505050506040513d601f19601f82011682018060405250810190610e729190611db2565b600001519050600160009054906101000a90046001600160a01b03166001600160a01b0316826001600160a01b0316630dfe16816040518163ffffffff1660e01b8152600401602060405180830381865afa15801561084b573d6000803e3d6000fd5b6000670de0b6b3a7640000610ee86106d8565b610be6610bff565b610ef86113a6565b610f026000611849565b565b610f0c6113a6565b6001546001600160a01b031663a9059cbb610f2f6000546001600160a01b031690565b6040516001600160e01b031960e084901b1681526001600160a01b039091166004820152602481018490526044016020604051808303816000875af1158015610f7c573d6000803e3d6000fd5b505050506040513d601f19601f820116820180604052508101906104ff9190611e70565b60035460009060ff1615610fb75761049482611899565b670de0b6b3a7640000826002546104af9190611ce6565b610fd66113a6565b73e9e7cea3dedca5984780bafc599bd69add087d5663a9059cbb610f2f6000546001600160a01b031690565b6040516370a0823160e01b815230600482015260009073e9e7cea3dedca5984780bafc599bd69add087d56906370a08231906024015b602060405180830381865afa158015611055573d6000803e3d6000fd5b505050506040513d601f19601f82011682018060405250810190610bfa9190611ee0565b6001546040516370a0823160e01b81523060048201526000916001600160a01b0316906370a0823190602401611038565b60015460009033906110c7906001600160a01b0316823087611719565b60035460ff16156110e3576110dd8185856118ac565b50611326565b8215611235576110f28461047d565b9150816110fd611002565b101561114b5760405162461bcd60e51b815260206004820152601860248201527f696e73756666696369656e74204255534420746f2070617900000000000000006044820152606401610925565b60405163a9059cbb60e01b81526001600160a01b03821660048201526024810183905273e9e7cea3dedca5984780bafc599bd69add087d569063a9059cbb906044016020604051808303816000875af11580156111ac573d6000803e3d6000fd5b505050506040513d601f19601f820116820180604052508101906111d09190611e70565b5060405163109554d160e21b81526004016040519081900381206221262160e91b8252906003016040805191829003822087835260208301869052916001600160a01b0385169160008051602061207a833981519152910160405180910390a4611326565b61123e84610b51565b9150814710156112905760405162461bcd60e51b815260206004820152601760248201527f696e73756666696369656e7420424e4220746f207061790000000000000000006044820152606401610925565b6040516001600160a01b0382169083156108fc029084906000818181858888f193505050501580156112c6573d6000803e3d6000fd5b506040516221272160e91b81526003016040519081900381206221262160e91b8252906003016040805191829003822087835260208301869052916001600160a01b0385169160008051602061207a833981519152910160405180910390a45b5092915050565b6113356113a6565b6001600160a01b03811661139a5760405162461bcd60e51b815260206004820152602660248201527f4f776e61626c653a206e6577206f776e657220697320746865207a65726f206160448201526564647265737360d01b6064820152608401610925565b6113a381611849565b50565b6000546001600160a01b03163314610f025760405162461bcd60e51b815260206004820181905260248201527f4f776e61626c653a2063616c6c6572206973206e6f7420746865206f776e65726044820152606401610925565b6000670de0b6b3a7640000611413610bff565b6104af9084611ce6565b600080670de0b6b3a7640000611434600285611fdd565b61143e9190611cfd565b905061144e81600160c01b611cfd565b9392505050565b6000600160c01b61146e670de0b6b3a764000082611cfd565b90508061147c600285611fdd565b61144e9190611cfd565b6040805160e081018252600080825260208201819052918101829052606081018290526080810182905260a0810182905260c08101829052836000036115c857600073bb4cdb9cbd36b01bd1cbaebf2de08d9173bc095c9050806001600160a01b031663d0e30db0856040518263ffffffff1660e01b81526004016000604051808303818588803b15801561151a57600080fd5b505af115801561152e573d6000803e3d6000fd5b505050505061156673bb4cdb9cbd36b01bd1cbaebf2de08d9173bc095c7313f4ea83d0bd40e75c8222255bc855a974568dd486611b47565b50506040805160e08101825273bb4cdb9cbd36b01bd1cbaebf2de08d9173bc095c81526001546001600160a01b0390811660208301526101f492820192909252908516606082015260808101839052600060a0820181905260c0820152611696565b82156115e65760405162461bcd60e51b815260040161092590611e8d565b61160673e9e7cea3dedca5984780bafc599bd69add087d56863087611719565b61163973e9e7cea3dedca5984780bafc599bd69add087d567313f4ea83d0bd40e75c8222255bc855a974568dd486611b47565b506040805160e08101825273e9e7cea3dedca5984780bafc599bd69add087d5681526001546001600160a01b0390811660208301526101f492820192909252908516606082015260808101849052600060a0820181905260c08201525b6040516304e45aaf60e01b81527313f4ea83d0bd40e75c8222255bc855a974568dd4906304e45aaf906116cd908490600401611fec565b6020604051808303816000875af11580156116ec573d6000803e3d6000fd5b505050506040513d601f19601f820116820180604052508101906117109190611ee0565b95945050505050565b604080516001600160a01b0385811660248301528481166044830152606480830185905283518084039091018152608490920183526020820180516001600160e01b03166323b872dd60e01b179052915160009283929088169161177d919061204a565b6000604051808303816000865af19150503d80600081146117ba576040519150601f19603f3d011682016040523d82523d6000602084013e6117bf565b606091505b50915091508180156117e95750805115806117e95750808060200190518101906117e99190611e70565b61181b5760405162461bcd60e51b815260206004820152600360248201526229aa2360e91b6044820152606401610925565b505050505050565b6000670de0b6b3a7640000611413610ed5565b6000670de0b6b3a7640000611413610bcb565b600080546001600160a01b038381166001600160a01b0319831681178455604051919092169283917f8be0079c531659141344cd1fd0a4f28419497f9722a3daafe3b4186f6b6457e09190a35050565b6000670de0b6b3a7640000611413610d6a565b6001546000906118c7906001600160a01b0316853086611719565b6001546118f2906001600160a01b03167313f4ea83d0bd40e75c8222255bc855a974568dd485611b47565b81156119d0576040805160e0810182526001546001600160a01b03908116825273e9e7cea3dedca5984780bafc599bd69add087d5660208301526101f4828401528616606082015260808101859052600060a0820181905260c082015290516304e45aaf60e01b81527313f4ea83d0bd40e75c8222255bc855a974568dd4906304e45aaf90611985908490600401611fec565b6020604051808303816000875af11580156119a4573d6000803e3d6000fd5b505050506040513d601f19601f820116820180604052508101906119c89190611ee0565b91505061144e565b6040805160e0810182526001546001600160a01b0316815273bb4cdb9cbd36b01bd1cbaebf2de08d9173bc095c60208201526101f48183015230606082015260808101859052600060a0820181905260c082015290516304e45aaf60e01b81527313f4ea83d0bd40e75c8222255bc855a974568dd4906304e45aaf90611a5a908490600401611fec565b6020604051808303816000875af1158015611a79573d6000803e3d6000fd5b505050506040513d601f19601f82011682018060405250810190611a9d9190611ee0565b604051632e1a7d4d60e01b81526004810182905290925073bb4cdb9cbd36b01bd1cbaebf2de08d9173bc095c908190632e1a7d4d90602401600060405180830381600087803b158015611aef57600080fd5b505af1158015611b03573d6000803e3d6000fd5b50506040516001600160a01b038916925085156108fc02915085906000818181858888f19350505050158015611b3d573d6000803e3d6000fd5b5050509392505050565b604080516001600160a01b038481166024830152604480830185905283518084039091018152606490920183526020820180516001600160e01b031663095ea7b360e01b1790529151600092839290871691611ba3919061204a565b6000604051808303816000865af19150503d8060008114611be0576040519150601f19603f3d011682016040523d82523d6000602084013e611be5565b606091505b5091509150818015611c0f575080511580611c0f575080806020019051810190611c0f9190611e70565b611c405760405162461bcd60e51b8152602060048201526002602482015261534160f01b6044820152606401610925565b5050505050565b600060208284031215611c5957600080fd5b5035919050565b80151581146113a357600080fd5b60008060408385031215611c8157600080fd5b823591506020830135611c9381611c60565b809150509250929050565b6001600160a01b03811681146113a357600080fd5b600060208284031215611cc557600080fd5b813561144e81611c9e565b634e487b7160e01b600052601160045260246000fd5b808202811582820484141761049457610494611cd0565b600082611d1a57634e487b7160e01b600052601260045260246000fd5b500490565b6001600160a01b03938416815291909216602082015262ffffff909116604082015260600190565b600060208284031215611d5957600080fd5b815161144e81611c9e565b80516104b981611c9e565b8051600281900b81146104b957600080fd5b805161ffff811681146104b957600080fd5b805163ffffffff811681146104b957600080fd5b80516104b981611c60565b600060e08284031215611dc457600080fd5b60405160e0810181811067ffffffffffffffff82111715611df557634e487b7160e01b600052604160045260246000fd5b604052611e0183611d64565b8152611e0f60208401611d6f565b6020820152611e2060408401611d81565b6040820152611e3160608401611d81565b6060820152611e4260808401611d81565b6080820152611e5360a08401611d93565b60a0820152611e6460c08401611da7565b60c08201529392505050565b600060208284031215611e8257600080fd5b815161144e81611c60565b60208082526033908201527f6e6f7420616c6c6f77656420746f20707572636861736520696e204255534420604082015272616e6420424e4220696e2073616d6554696d6560681b606082015260800190565b600060208284031215611ef257600080fd5b5051919050565b600181815b80851115611f34578160001904821115611f1a57611f1a611cd0565b80851615611f2757918102915b93841c9390800290611efe565b509250929050565b600082611f4b57506001610494565b81611f5857506000610494565b8160018114611f6e5760028114611f7857611f94565b6001915050610494565b60ff841115611f8957611f89611cd0565b50506001821b610494565b5060208310610133831016604e8410600b8410161715611fb7575081810a610494565b611fc18383611ef9565b8060001904821115611fd557611fd5611cd0565b029392505050565b600061144e60ff841683611f3c565b81516001600160a01b03908116825260208084015182169083015260408084015162ffffff16908301526060808401518216908301526080808401519083015260a0838101519083015260c092830151169181019190915260e00190565b6000825160005b8181101561206b5760208186018101518583015201612051565b50600092019182525091905056fe9882a73e249e93f2148a87b5f12b4ebedb657a77e07653469a47651bee85257ca2646970667358221220f5fe5bd2931dce7d6f234a512d53b79434e7e3c212713e335dfdedd23742c34e64736f6c63430008120033",
  "linkReferences": {},
  "deployedLinkReferences": {}
}