{
  "_format": "hh-sol-artifact-1",
  "contractName": "BLBSwap",
  "sourceName": "contracts/BLBSwap/BLBSwap.sol",
  "abi": [
    {
      "inputs": [
        {
          "internalType": "uint256",
          "name": "_BLBsPerUSD",
          "type": "uint256"
        },
        {
          "internalType": "address",
          "name": "_BLB",
          "type": "address"
        },
        {
          "internalType": "address",
          "name": "_BUSD",
          "type": "address"
        }
      ],
      "stateMutability": "nonpayable",
      "type": "constructor"
    },
    {
      "anonymous": false,
      "inputs": [
        {
          "indexed": true,
          "internalType": "address",
          "name": "previousOwner",
          "type": "address"
        },
        {
          "indexed": true,
          "internalType": "address",
          "name": "newOwner",
          "type": "address"
        }
      ],
      "name": "OwnershipTransferred",
      "type": "event"
    },
    {
      "anonymous": false,
      "inputs": [
        {
          "indexed": true,
          "internalType": "address",
          "name": "userAddr",
          "type": "address"
        },
        {
          "indexed": true,
          "internalType": "string",
          "name": "tokenIn",
          "type": "string"
        },
        {
          "indexed": true,
          "internalType": "string",
          "name": "tokenOut",
          "type": "string"
        },
        {
          "indexed": false,
          "internalType": "uint256",
          "name": "amountIn",
          "type": "uint256"
        },
        {
          "indexed": false,
          "internalType": "uint256",
          "name": "amountOut",
          "type": "uint256"
        }
      ],
      "name": "Swap",
      "type": "event"
    },
    {
      "inputs": [],
      "name": "BLB",
      "outputs": [
        {
          "internalType": "address",
          "name": "",
          "type": "address"
        }
      ],
      "stateMutability": "view",
      "type": "function"
    },
    {
      "inputs": [],
      "name": "BLB_BNB",
      "outputs": [
        {
          "internalType": "uint256",
          "name": "",
          "type": "uint256"
        }
      ],
      "stateMutability": "view",
      "type": "function"
    },
    {
      "inputs": [],
      "name": "BLB_BUSD",
      "outputs": [
        {
          "internalType": "uint256",
          "name": "",
          "type": "uint256"
        }
      ],
      "stateMutability": "view",
      "type": "function"
    },
    {
      "inputs": [
        {
          "internalType": "uint256",
          "name": "amountBNB",
          "type": "uint256"
        }
      ],
      "name": "BLBsForBNB",
      "outputs": [
        {
          "internalType": "uint256",
          "name": "",
          "type": "uint256"
        }
      ],
      "stateMutability": "view",
      "type": "function"
    },
    {
      "inputs": [
        {
          "internalType": "uint256",
          "name": "amountBUSD",
          "type": "uint256"
        }
      ],
      "name": "BLBsForUSD",
      "outputs": [
        {
          "internalType": "uint256",
          "name": "",
          "type": "uint256"
        }
      ],
      "stateMutability": "view",
      "type": "function"
    },
    {
      "inputs": [],
      "name": "BLBsPerUSD",
      "outputs": [
        {
          "internalType": "uint256",
          "name": "",
          "type": "uint256"
        }
      ],
      "stateMutability": "view",
      "type": "function"
    },
    {
      "inputs": [],
      "name": "BNB_BLB",
      "outputs": [
        {
          "internalType": "uint256",
          "name": "",
          "type": "uint256"
        }
      ],
      "stateMutability": "view",
      "type": "function"
    },
    {
      "inputs": [],
      "name": "BNB_BUSD",
      "outputs": [
        {
          "internalType": "uint256",
          "name": "",
          "type": "uint256"
        }
      ],
      "stateMutability": "view",
      "type": "function"
    },
    {
      "inputs": [
        {
          "internalType": "uint256",
          "name": "amountBLB",
          "type": "uint256"
        }
      ],
      "name": "BNBsForBLB",
      "outputs": [
        {
          "internalType": "uint256",
          "name": "",
          "type": "uint256"
        }
      ],
      "stateMutability": "view",
      "type": "function"
    },
    {
      "inputs": [],
      "name": "BUSD",
      "outputs": [
        {
          "internalType": "address",
          "name": "",
          "type": "address"
        }
      ],
      "stateMutability": "view",
      "type": "function"
    },
    {
      "inputs": [],
      "name": "BUSD_BLB",
      "outputs": [
        {
          "internalType": "uint256",
          "name": "",
          "type": "uint256"
        }
      ],
      "stateMutability": "view",
      "type": "function"
    },
    {
      "inputs": [],
      "name": "BUSD_BNB",
      "outputs": [
        {
          "internalType": "uint256",
          "name": "",
          "type": "uint256"
        }
      ],
      "stateMutability": "view",
      "type": "function"
    },
    {
      "inputs": [
        {
          "internalType": "uint256",
          "name": "amountBLB",
          "type": "uint256"
        }
      ],
      "name": "USDsForBLB",
      "outputs": [
        {
          "internalType": "uint256",
          "name": "",
          "type": "uint256"
        }
      ],
      "stateMutability": "view",
      "type": "function"
    },
    {
      "inputs": [],
      "name": "blbBalance",
      "outputs": [
        {
          "internalType": "uint256",
          "name": "",
          "type": "uint256"
        }
      ],
      "stateMutability": "view",
      "type": "function"
    },
    {
      "inputs": [],
      "name": "bnbBalance",
      "outputs": [
        {
          "internalType": "uint256",
          "name": "",
          "type": "uint256"
        }
      ],
      "stateMutability": "view",
      "type": "function"
    },
    {
      "inputs": [],
      "name": "busdBalance",
      "outputs": [
        {
          "internalType": "uint256",
          "name": "",
          "type": "uint256"
        }
      ],
      "stateMutability": "view",
      "type": "function"
    },
    {
      "inputs": [],
      "name": "onPancake",
      "outputs": [
        {
          "internalType": "bool",
          "name": "",
          "type": "bool"
        }
      ],
      "stateMutability": "view",
      "type": "function"
    },
    {
      "inputs": [],
      "name": "owner",
      "outputs": [
        {
          "internalType": "address",
          "name": "",
          "type": "address"
        }
      ],
      "stateMutability": "view",
      "type": "function"
    },
    {
      "inputs": [
        {
          "internalType": "uint256",
          "name": "amountBUSD",
          "type": "uint256"
        }
      ],
      "name": "purchaseBLB",
      "outputs": [
        {
          "internalType": "uint256",
          "name": "amountBLB",
          "type": "uint256"
        }
      ],
      "stateMutability": "payable",
      "type": "function"
    },
    {
      "inputs": [],
      "name": "renounceOwnership",
      "outputs": [],
      "stateMutability": "nonpayable",
      "type": "function"
    },
    {
      "inputs": [
        {
          "internalType": "uint256",
          "name": "amountBLB",
          "type": "uint256"
        },
        {
          "internalType": "bool",
          "name": "toBUSD",
          "type": "bool"
        }
      ],
      "name": "sellBLB",
      "outputs": [
        {
          "internalType": "uint256",
          "name": "amountOut",
          "type": "uint256"
        }
      ],
      "stateMutability": "nonpayable",
      "type": "function"
    },
    {
      "inputs": [
        {
          "internalType": "uint256",
          "name": "BLBsAmount",
          "type": "uint256"
        }
      ],
      "name": "setBLBsPerUSD",
      "outputs": [],
      "stateMutability": "nonpayable",
      "type": "function"
    },
    {
      "inputs": [],
      "name": "setOnPancake",
      "outputs": [],
      "stateMutability": "nonpayable",
      "type": "function"
    },
    {
      "inputs": [
        {
          "internalType": "address",
          "name": "newOwner",
          "type": "address"
        }
      ],
      "name": "transferOwnership",
      "outputs": [],
      "stateMutability": "nonpayable",
      "type": "function"
    },
    {
      "inputs": [
        {
          "internalType": "uint256",
          "name": "amount",
          "type": "uint256"
        }
      ],
      "name": "withdrawBLB",
      "outputs": [],
      "stateMutability": "nonpayable",
      "type": "function"
    },
    {
      "inputs": [
        {
          "internalType": "uint256",
          "name": "amount",
          "type": "uint256"
        }
      ],
      "name": "withdrawBNB",
      "outputs": [],
      "stateMutability": "nonpayable",
      "type": "function"
    },
    {
      "inputs": [
        {
          "internalType": "uint256",
          "name": "amount",
          "type": "uint256"
        }
      ],
      "name": "withdrawBUSD",
      "outputs": [],
      "stateMutability": "nonpayable",
      "type": "function"
    },
    {
      "stateMutability": "payable",
      "type": "receive"
    }
  ],
  "bytecode": "0x60806040523480156200001157600080fd5b50604051620023993803806200239983398101604081905262000034916200015e565b8181620000413362000081565b600280546001600160a01b039384166001600160a01b031991821617909155600180549290931691161790556200007883620000d1565b5050506200019f565b600080546001600160a01b038381166001600160a01b0319831681178455604051919092169283917f8be0079c531659141344cd1fd0a4f28419497f9722a3daafe3b4186f6b6457e09190a35050565b620000db620000e0565b600355565b6000546001600160a01b031633146200013f5760405162461bcd60e51b815260206004820181905260248201527f4f776e61626c653a2063616c6c6572206973206e6f7420746865206f776e6572604482015260640160405180910390fd5b565b80516001600160a01b03811681146200015957600080fd5b919050565b6000806000606084860312156200017457600080fd5b83519250620001866020850162000141565b9150620001966040850162000141565b90509250925092565b6121ea80620001af6000396000f3fe6080604052600436106101a05760003560e01c80636ebd467d116100ec578063cc3bcaf31161008a578063e00115f611610064578063e00115f614610430578063e483a6c314610445578063f2fde38b14610465578063fd64500c1461048557600080fd5b8063cc3bcaf3146103e8578063d013cbe214610408578063dc39ca7a1461041b57600080fd5b80637f04e0e1116100c65780637f04e0e11461036a5780638da5cb5b1461038a578063bc07d85c146103a8578063bfa54b3f146103c857600080fd5b80636ebd467d1461032b5780636f03bfdb14610340578063715018a61461035557600080fd5b80634d1d226e116101595780635fd03331116101335780635fd03331146102cb5780636601fd26146102eb5780636ad2690a146103005780636c54fe9a1461031657600080fd5b80634d1d226e146102835780634e91341b1461029657806357d846f9146102ab57600080fd5b8063067a3dce146101ac5780630cb41d60146101ce578063127f4b2e1461020157806322233ac014610221578063484f4ea91461023657806348f90a901461026e57600080fd5b366101a757005b600080fd5b3480156101b857600080fd5b506101cc6101c7366004611c9c565b6104af565b005b3480156101da57600080fd5b506101ee6101e9366004611c9c565b6104bc565b6040519081526020015b60405180910390f35b34801561020d57600080fd5b506101cc61021c366004611c9c565b6104fd565b34801561022d57600080fd5b506101ee610542565b34801561024257600080fd5b50600154610256906001600160a01b031681565b6040516001600160a01b0390911681526020016101f8565b34801561027a57600080fd5b506101ee610704565b6101ee610291366004611c9c565b6108ba565b3480156102a257600080fd5b506101cc610ad1565b3480156102b757600080fd5b506101ee6102c6366004611c9c565b610b00565b3480156102d757600080fd5b506101ee6102e6366004611c9c565b610b3b565b3480156102f757600080fd5b506101ee610b7a565b34801561030c57600080fd5b506101ee60035481565b34801561032257600080fd5b506101ee610cdf565b34801561033757600080fd5b506101ee610d13565b34801561034c57600080fd5b506101ee610d2e565b34801561036157600080fd5b506101cc610e93565b34801561037657600080fd5b506101cc610385366004611c9c565b610ea7565b34801561039657600080fd5b506000546001600160a01b0316610256565b3480156103b457600080fd5b506101ee6103c3366004611c9c565b610f43565b3480156103d457600080fd5b50600254610256906001600160a01b031681565b3480156103f457600080fd5b506101cc610403366004611c9c565b610f71565b34801561041457600080fd5b50476101ee565b34801561042757600080fd5b506101ee610f9c565b34801561043c57600080fd5b506101ee61100a565b34801561045157600080fd5b506101ee610460366004611cc3565b61103b565b34801561047157600080fd5b506101cc610480366004611d08565b61124f565b34801561049157600080fd5b5060045461049f9060ff1681565b60405190151581526020016101f8565b6104b76112c8565b600355565b60045460009060ff16156104d9576104d382611322565b92915050565b6003546104ee83670de0b6b3a7640000611d3b565b6104d39190611d52565b919050565b6105056112c8565b600080546040516001600160a01b039091169183156108fc02918491818181858888f1935050505015801561053e573d6000803e3d6000fd5b5050565b600154604051630b4c774160e11b81526000918291730bfbcf9fa4f9c56b0f40a671ad40e0805a09186591631698ee829161059f91600080516020612175833981519152916001600160a01b03909116906101f490600401611d74565b602060405180830381865afa1580156105bc573d6000803e3d6000fd5b505050506040513d601f19601f820116820180604052508101906105e09190611d9c565b90506000816001600160a01b0316633850c7bd6040518163ffffffff1660e01b815260040160e060405180830381865afa158015610622573d6000803e3d6000fd5b505050506040513d601f19601f820116820180604052508101906106469190611e07565b6000015190506000805160206121758339815191526001600160a01b0316826001600160a01b0316630dfe16816040518163ffffffff1660e01b8152600401602060405180830381865afa1580156106a2573d6000803e3d6000fd5b505050506040513d601f19601f820116820180604052508101906106c69190611d9c565b6001600160a01b0316146106eb576106e6816001600160a01b031661133f565b6106fd565b6106fd816001600160a01b0316611377565b9250505090565b600154604051630b4c774160e11b81526000918291730bfbcf9fa4f9c56b0f40a671ad40e0805a09186591631698ee829161076191600080516020612175833981519152916001600160a01b03909116906101f490600401611d74565b602060405180830381865afa15801561077e573d6000803e3d6000fd5b505050506040513d601f19601f820116820180604052508101906107a29190611d9c565b90506000816001600160a01b0316633850c7bd6040518163ffffffff1660e01b815260040160e060405180830381865afa1580156107e4573d6000803e3d6000fd5b505050506040513d601f19601f820116820180604052508101906108089190611e07565b6000015190506000805160206121758339815191526001600160a01b0316826001600160a01b0316630dfe16816040518163ffffffff1660e01b8152600401602060405180830381865afa158015610864573d6000803e3d6000fd5b505050506040513d601f19601f820116820180604052508101906108889190611d9c565b6001600160a01b0316146108a8576106e6816001600160a01b0316611377565b6106fd816001600160a01b031661133f565b6004546000903390349060ff16156108de576108d78285836113a8565b9250610aca565b836000036109c1576108ef81610b3b565b9250826108fa61100a565b10156109475760405162461bcd60e51b8152602060048201526017602482015276696e73756666696369656e7420424c4220746f2070617960481b60448201526064015b60405180910390fd5b60025461095e906001600160a01b0316838561162f565b6040516221262160e91b81526003016040519081900381206221272160e91b8252906003016040805191829003822084835260208301879052916001600160a01b03861691600080516020612195833981519152910160405180910390a4610aca565b80156109df5760405162461bcd60e51b815260040161093e90611ec5565b6109e884610f43565b9250826109f361100a565b1015610a3b5760405162461bcd60e51b8152602060048201526017602482015276696e73756666696369656e7420424c4220746f2070617960481b604482015260640161093e565b600154610a53906001600160a01b031683308761172f565b600254610a6a906001600160a01b0316838561162f565b6040516221262160e91b815260030160405190819003812063109554d160e21b8252906004016040805191829003822087835260208301879052916001600160a01b03861691600080516020612195833981519152910160405180910390a45b5050919050565b610ad96112c8565b60045460ff16610aea576001610aed565b60005b6004805460ff1916911515919091179055565b60045460009060ff1615610b17576104d382611839565b670de0b6b3a7640000610b28610704565b610b31846104bc565b6104ee9190611d3b565b60045460009060ff1615610b52576104d38261184c565b6104d3670de0b6b3a7640000610b66610542565b610b709085611d3b565b6103c39190611d52565b600254604051630b4c774160e11b81526000918291730bfbcf9fa4f9c56b0f40a671ad40e0805a09186591631698ee8291610bd5916001600160a01b031690600080516020612175833981519152906101f490600401611d74565b602060405180830381865afa158015610bf2573d6000803e3d6000fd5b505050506040513d601f19601f82011682018060405250810190610c169190611d9c565b90506000816001600160a01b0316633850c7bd6040518163ffffffff1660e01b815260040160e060405180830381865afa158015610c58573d6000803e3d6000fd5b505050506040513d601f19601f82011682018060405250810190610c7c9190611e07565b600001519050600260009054906101000a90046001600160a01b03166001600160a01b0316826001600160a01b0316630dfe16816040518163ffffffff1660e01b8152600401602060405180830381865afa158015610864573d6000803e3d6000fd5b6000670de0b6b3a7640000610cf2610542565b610cfa610d2e565b610d049190611d3b565b610d0e9190611d52565b905090565b6000670de0b6b3a7640000610d26610b7a565b610cfa610704565b600254604051630b4c774160e11b81526000918291730bfbcf9fa4f9c56b0f40a671ad40e0805a09186591631698ee8291610d89916001600160a01b031690600080516020612175833981519152906101f490600401611d74565b602060405180830381865afa158015610da6573d6000803e3d6000fd5b505050506040513d601f19601f82011682018060405250810190610dca9190611d9c565b90506000816001600160a01b0316633850c7bd6040518163ffffffff1660e01b815260040160e060405180830381865afa158015610e0c573d6000803e3d6000fd5b505050506040513d601f19601f82011682018060405250810190610e309190611e07565b600001519050600260009054906101000a90046001600160a01b03166001600160a01b0316826001600160a01b0316630dfe16816040518163ffffffff1660e01b8152600401602060405180830381865afa1580156106a2573d6000803e3d6000fd5b610e9b6112c8565b610ea5600061185f565b565b610eaf6112c8565b6002546001600160a01b031663a9059cbb610ed26000546001600160a01b031690565b6040516001600160e01b031960e084901b1681526001600160a01b039091166004820152602481018490526044016020604051808303816000875af1158015610f1f573d6000803e3d6000fd5b505050506040513d601f19601f8201168201806040525081019061053e9190611f18565b60045460009060ff1615610f5a576104d3826118af565b670de0b6b3a7640000826003546104ee9190611d3b565b610f796112c8565b6001546001600160a01b031663a9059cbb610ed26000546001600160a01b031690565b6001546040516370a0823160e01b81523060048201526000916001600160a01b0316906370a08231906024015b602060405180830381865afa158015610fe6573d6000803e3d6000fd5b505050506040513d601f19601f82011682018060405250810190610d0e9190611f35565b6002546040516370a0823160e01b81523060048201526000916001600160a01b0316906370a0823190602401610fc9565b6002546000903390611058906001600160a01b031682308761172f565b60045460ff16156110745761106e8185856118c2565b50611248565b821561115757611083846104bc565b91508161108e610f9c565b10156110dc5760405162461bcd60e51b815260206004820152601860248201527f696e73756666696369656e74204255534420746f207061790000000000000000604482015260640161093e565b6001546110f3906001600160a01b0316828461162f565b60405163109554d160e21b81526004016040519081900381206221262160e91b8252906003016040805191829003822087835260208301869052916001600160a01b03851691600080516020612195833981519152910160405180910390a4611248565b61116084610b00565b9150814710156111b25760405162461bcd60e51b815260206004820152601760248201527f696e73756666696369656e7420424e4220746f20706179000000000000000000604482015260640161093e565b6040516001600160a01b0382169083156108fc029084906000818181858888f193505050501580156111e8573d6000803e3d6000fd5b506040516221272160e91b81526003016040519081900381206221262160e91b8252906003016040805191829003822087835260208301869052916001600160a01b03851691600080516020612195833981519152910160405180910390a45b5092915050565b6112576112c8565b6001600160a01b0381166112bc5760405162461bcd60e51b815260206004820152602660248201527f4f776e61626c653a206e6577206f776e657220697320746865207a65726f206160448201526564647265737360d01b606482015260840161093e565b6112c58161185f565b50565b6000546001600160a01b03163314610ea55760405162461bcd60e51b815260206004820181905260248201527f4f776e61626c653a2063616c6c6572206973206e6f7420746865206f776e6572604482015260640161093e565b6000670de0b6b3a7640000611335610cdf565b6104ee9084611d3b565b600080670de0b6b3a7640000611356600285612032565b6113609190611d52565b905061137081600160c01b611d52565b9392505050565b6000600160c01b611390670de0b6b3a764000082611d52565b90508061139e600285612032565b6113709190611d52565b6040805160808101825260608082526000602083018190529282018390528101829052836000036114d75760006000805160206121758339815191529050806001600160a01b031663d0e30db0856040518263ffffffff1660e01b81526004016000604051808303818588803b15801561142157600080fd5b505af1158015611435573d6000803e3d6000fd5b50505050506114676000805160206121758339815191527313f4ea83d0bd40e75c8222255bc855a974568dd486611ba3565b604080516080810190915260025481906114a190600080516020612175833981519152906101f4906001600160a01b031660a08501612041565b6040516020818303038152906040528152602001876001600160a01b0316815260200185815260200160008152509150506115ac565b82156114f55760405162461bcd60e51b815260040161093e90611ec5565b60015461150d906001600160a01b031686308761172f565b600154611538906001600160a01b03167313f4ea83d0bd40e75c8222255bc855a974568dd486611ba3565b6040805160808101909152600154600254829161157b916001600160a01b03918216916101f4916000805160206121758339815191529183911660a0870161207c565b6040516020818303038152906040528152602001866001600160a01b03168152602001858152602001600081525090505b60405163b858183f60e01b81527313f4ea83d0bd40e75c8222255bc855a974568dd49063b858183f906115e39084906004016120f2565b6020604051808303816000875af1158015611602573d6000803e3d6000fd5b505050506040513d601f19601f820116820180604052508101906116269190611f35565b95945050505050565b604080516001600160a01b038481166024830152604480830185905283518084039091018152606490920183526020820180516001600160e01b031663a9059cbb60e01b179052915160009283929087169161168b9190612158565b6000604051808303816000865af19150503d80600081146116c8576040519150601f19603f3d011682016040523d82523d6000602084013e6116cd565b606091505b50915091508180156116f75750805115806116f75750808060200190518101906116f79190611f18565b6117285760405162461bcd60e51b815260206004820152600260248201526114d560f21b604482015260640161093e565b5050505050565b604080516001600160a01b0385811660248301528481166044830152606480830185905283518084039091018152608490920183526020820180516001600160e01b03166323b872dd60e01b17905291516000928392908816916117939190612158565b6000604051808303816000865af19150503d80600081146117d0576040519150601f19603f3d011682016040523d82523d6000602084013e6117d5565b606091505b50915091508180156117ff5750805115806117ff5750808060200190518101906117ff9190611f18565b6118315760405162461bcd60e51b815260206004820152600360248201526229aa2360e91b604482015260640161093e565b505050505050565b6000670de0b6b3a7640000611335610d2e565b6000670de0b6b3a7640000611335610b7a565b600080546001600160a01b038381166001600160a01b0319831681178455604051919092169283917f8be0079c531659141344cd1fd0a4f28419497f9722a3daafe3b4186f6b6457e09190a35050565b6000670de0b6b3a7640000611335610d13565b6002546000906118dd906001600160a01b031685308661172f565b600254611908906001600160a01b03167313f4ea83d0bd40e75c8222255bc855a974568dd485611ba3565b8115611a10576040805160808101909152600254600154600092918291611955916001600160a01b03908116916101f4916000805160206121758339815191529183911660a0870161207c565b6040516020818303038152906040528152602001866001600160a01b03168152602001858152602001600081525090507313f4ea83d0bd40e75c8222255bc855a974568dd46001600160a01b031663b858183f826040518263ffffffff1660e01b81526004016119c591906120f2565b6020604051808303816000875af11580156119e4573d6000803e3d6000fd5b505050506040513d601f19601f82011682018060405250810190611a089190611f35565b915050611370565b6040805160808101909152600254600091908190611a4c906001600160a01b03166101f460008051602061217583398151915260a08501612041565b6040516020818303038152906040528152602001306001600160a01b03168152602001858152602001600081525090507313f4ea83d0bd40e75c8222255bc855a974568dd46001600160a01b031663b858183f826040518263ffffffff1660e01b8152600401611abc91906120f2565b6020604051808303816000875af1158015611adb573d6000803e3d6000fd5b505050506040513d601f19601f82011682018060405250810190611aff9190611f35565b604051632e1a7d4d60e01b815260048101829052909250600080516020612175833981519152908190632e1a7d4d90602401600060405180830381600087803b158015611b4b57600080fd5b505af1158015611b5f573d6000803e3d6000fd5b50506040516001600160a01b038916925085156108fc02915085906000818181858888f19350505050158015611b99573d6000803e3d6000fd5b5050509392505050565b604080516001600160a01b038481166024830152604480830185905283518084039091018152606490920183526020820180516001600160e01b031663095ea7b360e01b1790529151600092839290871691611bff9190612158565b6000604051808303816000865af19150503d8060008114611c3c576040519150601f19603f3d011682016040523d82523d6000602084013e611c41565b606091505b5091509150818015611c6b575080511580611c6b575080806020019051810190611c6b9190611f18565b6117285760405162461bcd60e51b8152602060048201526002602482015261534160f01b604482015260640161093e565b600060208284031215611cae57600080fd5b5035919050565b80151581146112c557600080fd5b60008060408385031215611cd657600080fd5b823591506020830135611ce881611cb5565b809150509250929050565b6001600160a01b03811681146112c557600080fd5b600060208284031215611d1a57600080fd5b813561137081611cf3565b634e487b7160e01b600052601160045260246000fd5b80820281158282048414176104d3576104d3611d25565b600082611d6f57634e487b7160e01b600052601260045260246000fd5b500490565b6001600160a01b03938416815291909216602082015262ffffff909116604082015260600190565b600060208284031215611dae57600080fd5b815161137081611cf3565b80516104f881611cf3565b8051600281900b81146104f857600080fd5b805161ffff811681146104f857600080fd5b805163ffffffff811681146104f857600080fd5b80516104f881611cb5565b600060e08284031215611e1957600080fd5b60405160e0810181811067ffffffffffffffff82111715611e4a57634e487b7160e01b600052604160045260246000fd5b604052611e5683611db9565b8152611e6460208401611dc4565b6020820152611e7560408401611dd6565b6040820152611e8660608401611dd6565b6060820152611e9760808401611dd6565b6080820152611ea860a08401611de8565b60a0820152611eb960c08401611dfc565b60c08201529392505050565b60208082526033908201527f6e6f7420616c6c6f77656420746f20707572636861736520696e204255534420604082015272616e6420424e4220696e2073616d6554696d6560681b606082015260800190565b600060208284031215611f2a57600080fd5b815161137081611cb5565b600060208284031215611f4757600080fd5b5051919050565b600181815b80851115611f89578160001904821115611f6f57611f6f611d25565b80851615611f7c57918102915b93841c9390800290611f53565b509250929050565b600082611fa0575060016104d3565b81611fad575060006104d3565b8160018114611fc35760028114611fcd57611fe9565b60019150506104d3565b60ff841115611fde57611fde611d25565b50506001821b6104d3565b5060208310610133831016604e8410600b841016171561200c575081810a6104d3565b6120168383611f4e565b806000190482111561202a5761202a611d25565b029392505050565b600061137060ff841683611f91565b606093841b6bffffffffffffffffffffffff19908116825260e89390931b6001600160e81b0319166014820152921b166017820152602b0190565b6bffffffffffffffffffffffff19606096871b811682526001600160e81b031960e896871b8116601484015294871b811660178301529290941b909216602b840152921b909116602e82015260420190565b60005b838110156120e95781810151838201526020016120d1565b50506000910152565b60208152600082516080602084015280518060a085015261211a8160c08601602085016120ce565b60208501516001600160a01b0316604085810191909152850151606080860191909152909401516080840152505060c0601f909201601f1916010190565b6000825161216a8184602087016120ce565b919091019291505056fe000000000000000000000000bb4cdb9cbd36b01bd1cbaebf2de08d9173bc095c9882a73e249e93f2148a87b5f12b4ebedb657a77e07653469a47651bee85257ca264697066735822122050b87a26249259b9b8080e520211690b58dda950e42ab851e1f7913ca654a54c64736f6c63430008120033",
  "linkReferences": {},
  "deployedLinkReferences": {}
}