{
  "_format": "hh-sol-artifact-1",
  "contractName": "BLB_ICO",
  "sourceName": "contracts/BLBMarket/BLBMarket.sol",
  "abi": [
    {
      "inputs": [],
      "stateMutability": "nonpayable",
      "type": "constructor"
    },
    {
      "anonymous": false,
      "inputs": [
        {
          "indexed": true,
          "internalType": "address",
          "name": "previousOwner",
          "type": "address"
        },
        {
          "indexed": true,
          "internalType": "address",
          "name": "newOwner",
          "type": "address"
        }
      ],
      "name": "OwnershipTransferred",
      "type": "event"
    },
    {
      "inputs": [],
      "name": "BLB",
      "outputs": [
        {
          "internalType": "contract IERC20",
          "name": "",
          "type": "address"
        }
      ],
      "stateMutability": "view",
      "type": "function"
    },
    {
      "inputs": [],
      "name": "BUSD",
      "outputs": [
        {
          "internalType": "contract IERC20",
          "name": "",
          "type": "address"
        }
      ],
      "stateMutability": "view",
      "type": "function"
    },
    {
      "inputs": [],
      "name": "USDT",
      "outputs": [
        {
          "internalType": "contract IERC20",
          "name": "",
          "type": "address"
        }
      ],
      "stateMutability": "view",
      "type": "function"
    },
    {
      "inputs": [
        {
          "internalType": "uint256",
          "name": "amount",
          "type": "uint256"
        }
      ],
      "name": "buyInBNB",
      "outputs": [],
      "stateMutability": "payable",
      "type": "function"
    },
    {
      "inputs": [
        {
          "internalType": "uint256",
          "name": "amount",
          "type": "uint256"
        }
      ],
      "name": "buyInBUSD",
      "outputs": [],
      "stateMutability": "nonpayable",
      "type": "function"
    },
    {
      "inputs": [
        {
          "internalType": "uint256",
          "name": "amount",
          "type": "uint256"
        }
      ],
      "name": "buyInUSDT",
      "outputs": [],
      "stateMutability": "payable",
      "type": "function"
    },
    {
      "inputs": [],
      "name": "owner",
      "outputs": [
        {
          "internalType": "address",
          "name": "",
          "type": "address"
        }
      ],
      "stateMutability": "view",
      "type": "function"
    },
    {
      "inputs": [],
      "name": "priceInBNB_18",
      "outputs": [
        {
          "internalType": "uint256",
          "name": "",
          "type": "uint256"
        }
      ],
      "stateMutability": "view",
      "type": "function"
    },
    {
      "inputs": [],
      "name": "priceInUSD_10",
      "outputs": [
        {
          "internalType": "uint256",
          "name": "",
          "type": "uint256"
        }
      ],
      "stateMutability": "view",
      "type": "function"
    },
    {
      "inputs": [],
      "name": "renounceOwnership",
      "outputs": [],
      "stateMutability": "nonpayable",
      "type": "function"
    },
    {
      "inputs": [
        {
          "internalType": "uint256",
          "name": "_priceInUSD_10",
          "type": "uint256"
        }
      ],
      "name": "set_priceInUSD_10",
      "outputs": [],
      "stateMutability": "nonpayable",
      "type": "function"
    },
    {
      "inputs": [
        {
          "internalType": "address",
          "name": "newOwner",
          "type": "address"
        }
      ],
      "name": "transferOwnership",
      "outputs": [],
      "stateMutability": "nonpayable",
      "type": "function"
    },
    {
      "inputs": [
        {
          "internalType": "address",
          "name": "tokenAddr",
          "type": "address"
        },
        {
          "internalType": "uint256",
          "name": "amount",
          "type": "uint256"
        }
      ],
      "name": "withdraw",
      "outputs": [],
      "stateMutability": "nonpayable",
      "type": "function"
    }
  ],
  "bytecode": "0x608060405234801561001057600080fd5b5061001a33610043565b600180546001600160a01b03199081169091556002805482169055600380549091169055610093565b600080546001600160a01b038381166001600160a01b0319831681178455604051919092169283917f8be0079c531659141344cd1fd0a4f28419497f9722a3daafe3b4186f6b6457e09190a35050565b610936806100a26000396000f3fe6080604052600436106100c25760003560e01c8063bcc6fc0e1161007f578063d6114e2811610059578063d6114e28146101dd578063dee288c6146101f3578063f2fde38b14610213578063f3fef3a31461023357600080fd5b8063bcc6fc0e1461018f578063bfa54b3f1461019d578063c54e44eb146101bd57600080fd5b806312b13216146100c757806313d7b354146100dc578063484f4ea9146101045780634bc374681461013c578063715018a61461015c5780638da5cb5b14610171575b600080fd5b6100da6100d53660046107f5565b610253565b005b3480156100e857600080fd5b506100f16103f7565b6040519081526020015b60405180910390f35b34801561011057600080fd5b50600254610124906001600160a01b031681565b6040516001600160a01b0390911681526020016100fb565b34801561014857600080fd5b506100da6101573660046107f5565b610491565b34801561016857600080fd5b506100da610633565b34801561017d57600080fd5b506000546001600160a01b0316610124565b6100da6101573660046107f5565b3480156101a957600080fd5b50600154610124906001600160a01b031681565b3480156101c957600080fd5b50600354610124906001600160a01b031681565b3480156101e957600080fd5b506100f160045481565b3480156101ff57600080fd5b506100da61020e3660046107f5565b610647565b34801561021f57600080fd5b506100da61022e36600461082a565b610654565b34801561023f57600080fd5b506100da61024e36600461084c565b6106cd565b606461025d6103f7565b6102679083610876565b61027191906108a3565b61027c906062610876565b3410156102c35760405162461bcd60e51b815260206004820152601060248201526f696e73756666696369656e742066656560801b60448201526064015b60405180910390fd5b6001546040516370a0823160e01b815230600482015282916001600160a01b0316906370a0823190602401602060405180830381865afa15801561030b573d6000803e3d6000fd5b505050506040513d601f19601f8201168201806040525081019061032f91906108c5565b101561037d5760405162461bcd60e51b815260206004820181905260248201527f696e73756666696369656e7420424c4220696e2074686520636f6e747261637460448201526064016102ba565b60015460405163a9059cbb60e01b8152336004820152602481018390526001600160a01b039091169063a9059cbb906044015b6020604051808303816000875af11580156103cf573d6000803e3d6000fd5b505050506040513d601f19601f820116820180604052508101906103f391906108de565b5050565b60006402540be4006004547374825dbc8bf76cc4e9494d0ecb210f676efa001d6001600160a01b03166350d25bcd6040518163ffffffff1660e01b8152600401602060405180830381865afa158015610454573d6000803e3d6000fd5b505050506040513d601f19601f8201168201806040525081019061047891906108c5565b6104829190610876565b61048c91906108a3565b905090565b6001546040516370a0823160e01b815230600482015282916001600160a01b0316906370a0823190602401602060405180830381865afa1580156104d9573d6000803e3d6000fd5b505050506040513d601f19601f820116820180604052508101906104fd91906108c5565b101561054b5760405162461bcd60e51b815260206004820181905260248201527f696e73756666696369656e7420424c4220696e2074686520636f6e747261637460448201526064016102ba565b6002546004546001600160a01b03909116906323b872dd90339030906402540be40090610579908790610876565b61058391906108a3565b6040516001600160e01b031960e086901b1681526001600160a01b03938416600482015292909116602483015260448201526064016020604051808303816000875af11580156105d7573d6000803e3d6000fd5b505050506040513d601f19601f820116820180604052508101906105fb91906108de565b5060015460405163a9059cbb60e01b8152336004820152602481018390526001600160a01b039091169063a9059cbb906044016103b0565b61063b61074b565b61064560006107a5565b565b61064f61074b565b600455565b61065c61074b565b6001600160a01b0381166106c15760405162461bcd60e51b815260206004820152602660248201527f4f776e61626c653a206e6577206f776e657220697320746865207a65726f206160448201526564647265737360d01b60648201526084016102ba565b6106ca816107a5565b50565b6106d561074b565b60405163a9059cbb60e01b8152336004820152602481018290526001600160a01b0383169063a9059cbb906044016020604051808303816000875af1158015610722573d6000803e3d6000fd5b505050506040513d601f19601f8201168201806040525081019061074691906108de565b505050565b6000546001600160a01b031633146106455760405162461bcd60e51b815260206004820181905260248201527f4f776e61626c653a2063616c6c6572206973206e6f7420746865206f776e657260448201526064016102ba565b600080546001600160a01b038381166001600160a01b0319831681178455604051919092169283917f8be0079c531659141344cd1fd0a4f28419497f9722a3daafe3b4186f6b6457e09190a35050565b60006020828403121561080757600080fd5b5035919050565b80356001600160a01b038116811461082557600080fd5b919050565b60006020828403121561083c57600080fd5b6108458261080e565b9392505050565b6000806040838503121561085f57600080fd5b6108688361080e565b946020939093013593505050565b600081600019048311821515161561089e57634e487b7160e01b600052601160045260246000fd5b500290565b6000826108c057634e487b7160e01b600052601260045260246000fd5b500490565b6000602082840312156108d757600080fd5b5051919050565b6000602082840312156108f057600080fd5b8151801515811461084557600080fdfea26469706673582212206953eb9c554f0780558fab2ddbf73414e8e7e080a0aefc7c63045fb6dd65185e64736f6c634300080f0033",
  "linkReferences": {},
  "deployedLinkReferences": {}
}