{
  "_format": "hh-sol-artifact-1",
  "contractName": "PancakeSwapper",
  "sourceName": "contracts/BLBSwap/PancakeSwapper.sol",
  "abi": [
    {
      "inputs": [],
      "name": "BLB",
      "outputs": [
        {
          "internalType": "address",
          "name": "",
          "type": "address"
        }
      ],
      "stateMutability": "view",
      "type": "function"
    },
    {
      "inputs": [],
      "name": "BLB_BNB",
      "outputs": [
        {
          "internalType": "uint256",
          "name": "",
          "type": "uint256"
        }
      ],
      "stateMutability": "view",
      "type": "function"
    },
    {
      "inputs": [],
      "name": "BLB_BUSD",
      "outputs": [
        {
          "internalType": "uint256",
          "name": "",
          "type": "uint256"
        }
      ],
      "stateMutability": "view",
      "type": "function"
    },
    {
      "inputs": [],
      "name": "BNB_BLB",
      "outputs": [
        {
          "internalType": "uint256",
          "name": "",
          "type": "uint256"
        }
      ],
      "stateMutability": "view",
      "type": "function"
    },
    {
      "inputs": [],
      "name": "BNB_BUSD",
      "outputs": [
        {
          "internalType": "uint256",
          "name": "",
          "type": "uint256"
        }
      ],
      "stateMutability": "view",
      "type": "function"
    },
    {
      "inputs": [],
      "name": "BUSD_BLB",
      "outputs": [
        {
          "internalType": "uint256",
          "name": "",
          "type": "uint256"
        }
      ],
      "stateMutability": "view",
      "type": "function"
    },
    {
      "inputs": [],
      "name": "BUSD_BNB",
      "outputs": [
        {
          "internalType": "uint256",
          "name": "",
          "type": "uint256"
        }
      ],
      "stateMutability": "view",
      "type": "function"
    },
    {
      "stateMutability": "payable",
      "type": "receive"
    }
  ],
  "bytecode": "0x6080604052600080546001600160a01b0319167313d67fd10bdbe8301e978e4adcbd2c0ad26f754917905534801561003657600080fd5b50610b62806100466000396000f3fe6080604052600436106100745760003560e01c80636c54fe9a1161004e5780636c54fe9a146100d25780636ebd467d146100e75780636f03bfdb146100fc578063bfa54b3f1461011157600080fd5b806322233ac01461008057806348f90a90146100a85780636601fd26146100bd57600080fd5b3661007b57005b600080fd5b34801561008c57600080fd5b50610095610149565b6040519081526020015b60405180910390f35b3480156100b457600080fd5b5061009561031e565b3480156100c957600080fd5b506100956104e7565b3480156100de57600080fd5b5061009561051b565b3480156100f357600080fd5b50610095610684565b34801561010857600080fd5b506100956107ed565b34801561011d57600080fd5b50600054610131906001600160a01b031681565b6040516001600160a01b03909116815260200161009f565b604051630b4c774160e11b81526000908190730bfbcf9fa4f9c56b0f40a671ad40e0805a09186590631698ee82906101b39073bb4cdb9cbd36b01bd1cbaebf2de08d9173bc095c9073e9e7cea3dedca5984780bafc599bd69add087d56906101f490600401610871565b602060405180830381865afa1580156101d0573d6000803e3d6000fd5b505050506040513d601f19601f820116820180604052508101906101f491906108b1565b90506000816001600160a01b0316633850c7bd6040518163ffffffff1660e01b815260040160e060405180830381865afa158015610236573d6000803e3d6000fd5b505050506040513d601f19601f8201168201806040525081019061025a9190610926565b60000151905073bb4cdb9cbd36b01bd1cbaebf2de08d9173bc095c6001600160a01b0316826001600160a01b0316630dfe16816040518163ffffffff1660e01b8152600401602060405180830381865afa1580156102bc573d6000803e3d6000fd5b505050506040513d601f19601f820116820180604052508101906102e091906108b1565b6001600160a01b03161461030557610300816001600160a01b0316610808565b610317565b610317816001600160a01b0316610840565b9250505090565b604051630b4c774160e11b81526000908190730bfbcf9fa4f9c56b0f40a671ad40e0805a09186590631698ee82906103889073bb4cdb9cbd36b01bd1cbaebf2de08d9173bc095c9073e9e7cea3dedca5984780bafc599bd69add087d56906101f490600401610871565b602060405180830381865afa1580156103a5573d6000803e3d6000fd5b505050506040513d601f19601f820116820180604052508101906103c991906108b1565b90506000816001600160a01b0316633850c7bd6040518163ffffffff1660e01b815260040160e060405180830381865afa15801561040b573d6000803e3d6000fd5b505050506040513d601f19601f8201168201806040525081019061042f9190610926565b60000151905073bb4cdb9cbd36b01bd1cbaebf2de08d9173bc095c6001600160a01b0316826001600160a01b0316630dfe16816040518163ffffffff1660e01b8152600401602060405180830381865afa158015610491573d6000803e3d6000fd5b505050506040513d601f19601f820116820180604052508101906104b591906108b1565b6001600160a01b0316146104d557610300816001600160a01b0316610840565b610317816001600160a01b0316610808565b6000670de0b6b3a76400006104fa610684565b610502610149565b61050c91906109fa565b6105169190610a17565b905090565b60008054604051630b4c774160e11b81528291730bfbcf9fa4f9c56b0f40a671ad40e0805a09186591631698ee829161057c916001600160a01b039091169073e9e7cea3dedca5984780bafc599bd69add087d56906101f490600401610871565b602060405180830381865afa158015610599573d6000803e3d6000fd5b505050506040513d601f19601f820116820180604052508101906105bd91906108b1565b90506000816001600160a01b0316633850c7bd6040518163ffffffff1660e01b815260040160e060405180830381865afa1580156105ff573d6000803e3d6000fd5b505050506040513d601f19601f820116820180604052508101906106239190610926565b60000151905060008054906101000a90046001600160a01b03166001600160a01b0316826001600160a01b0316630dfe16816040518163ffffffff1660e01b8152600401602060405180830381865afa1580156102bc573d6000803e3d6000fd5b60008054604051630b4c774160e11b81528291730bfbcf9fa4f9c56b0f40a671ad40e0805a09186591631698ee82916106e5916001600160a01b039091169073e9e7cea3dedca5984780bafc599bd69add087d56906101f490600401610871565b602060405180830381865afa158015610702573d6000803e3d6000fd5b505050506040513d601f19601f8201168201806040525081019061072691906108b1565b90506000816001600160a01b0316633850c7bd6040518163ffffffff1660e01b815260040160e060405180830381865afa158015610768573d6000803e3d6000fd5b505050506040513d601f19601f8201168201806040525081019061078c9190610926565b60000151905060008054906101000a90046001600160a01b03166001600160a01b0316826001600160a01b0316630dfe16816040518163ffffffff1660e01b8152600401602060405180830381865afa158015610491573d6000803e3d6000fd5b6000670de0b6b3a764000061080061031e565b61050261051b565b600080670de0b6b3a764000061081f600285610b1d565b6108299190610a17565b905061083981600160c01b610a17565b9392505050565b6000600160c01b610859670de0b6b3a764000082610a17565b905080610867600285610b1d565b6108399190610a17565b6001600160a01b03938416815291909216602082015262ffffff909116604082015260600190565b6001600160a01b03811681146108ae57600080fd5b50565b6000602082840312156108c357600080fd5b815161083981610899565b80516108d981610899565b919050565b8051600281900b81146108d957600080fd5b805161ffff811681146108d957600080fd5b805163ffffffff811681146108d957600080fd5b805180151581146108d957600080fd5b600060e0828403121561093857600080fd5b60405160e0810181811067ffffffffffffffff8211171561096957634e487b7160e01b600052604160045260246000fd5b604052610975836108ce565b8152610983602084016108de565b6020820152610994604084016108f0565b60408201526109a5606084016108f0565b60608201526109b6608084016108f0565b60808201526109c760a08401610902565b60a08201526109d860c08401610916565b60c08201529392505050565b634e487b7160e01b600052601160045260246000fd5b8082028115828204841417610a1157610a116109e4565b92915050565b600082610a3457634e487b7160e01b600052601260045260246000fd5b500490565b600181815b80851115610a74578160001904821115610a5a57610a5a6109e4565b80851615610a6757918102915b93841c9390800290610a3e565b509250929050565b600082610a8b57506001610a11565b81610a9857506000610a11565b8160018114610aae5760028114610ab857610ad4565b6001915050610a11565b60ff841115610ac957610ac96109e4565b50506001821b610a11565b5060208310610133831016604e8410600b8410161715610af7575081810a610a11565b610b018383610a39565b8060001904821115610b1557610b156109e4565b029392505050565b600061083960ff841683610a7c56fea26469706673582212203e895dcaaa44cf9ab2bd04557ab2db8a34838e47e173933905ca2b51caf29be964736f6c63430008120033",
  "linkReferences": {},
  "deployedLinkReferences": {}
}