{
  "_format": "hh-sol-artifact-1",
  "contractName": "PancakeSwapper",
  "sourceName": "contracts/BLBSwap/PancakeSwapper.sol",
  "abi": [
    {
      "inputs": [
        {
          "internalType": "address",
          "name": "_BLB",
          "type": "address"
        },
        {
          "internalType": "address",
          "name": "_BUSD",
          "type": "address"
        }
      ],
      "stateMutability": "nonpayable",
      "type": "constructor"
    },
    {
      "inputs": [],
      "name": "BLB",
      "outputs": [
        {
          "internalType": "address",
          "name": "",
          "type": "address"
        }
      ],
      "stateMutability": "view",
      "type": "function"
    },
    {
      "inputs": [],
      "name": "BLB_BNB",
      "outputs": [
        {
          "internalType": "uint256",
          "name": "",
          "type": "uint256"
        }
      ],
      "stateMutability": "view",
      "type": "function"
    },
    {
      "inputs": [],
      "name": "BLB_BUSD",
      "outputs": [
        {
          "internalType": "uint256",
          "name": "",
          "type": "uint256"
        }
      ],
      "stateMutability": "view",
      "type": "function"
    },
    {
      "inputs": [],
      "name": "BNB_BLB",
      "outputs": [
        {
          "internalType": "uint256",
          "name": "",
          "type": "uint256"
        }
      ],
      "stateMutability": "view",
      "type": "function"
    },
    {
      "inputs": [],
      "name": "BNB_BUSD",
      "outputs": [
        {
          "internalType": "uint256",
          "name": "",
          "type": "uint256"
        }
      ],
      "stateMutability": "view",
      "type": "function"
    },
    {
      "inputs": [],
      "name": "BUSD",
      "outputs": [
        {
          "internalType": "address",
          "name": "",
          "type": "address"
        }
      ],
      "stateMutability": "view",
      "type": "function"
    },
    {
      "inputs": [],
      "name": "BUSD_BLB",
      "outputs": [
        {
          "internalType": "uint256",
          "name": "",
          "type": "uint256"
        }
      ],
      "stateMutability": "view",
      "type": "function"
    },
    {
      "inputs": [],
      "name": "BUSD_BNB",
      "outputs": [
        {
          "internalType": "uint256",
          "name": "",
          "type": "uint256"
        }
      ],
      "stateMutability": "view",
      "type": "function"
    },
    {
      "stateMutability": "payable",
      "type": "receive"
    }
  ],
  "bytecode": "0x608060405234801561001057600080fd5b50604051610c39380380610c3983398101604081905261002f9161007c565b600180546001600160a01b039384166001600160a01b031991821617909155600080549290931691161790556100af565b80516001600160a01b038116811461007757600080fd5b919050565b6000806040838503121561008f57600080fd5b61009883610060565b91506100a660208401610060565b90509250929050565b610b7b806100be6000396000f3fe60806040526004361061007f5760003560e01c80636c54fe9a1161004e5780636c54fe9a146101155780636ebd467d1461012a5780636f03bfdb1461013f578063bfa54b3f1461015457600080fd5b806322233ac01461008b578063484f4ea9146100b357806348f90a90146100eb5780636601fd261461010057600080fd5b3661008657005b600080fd5b34801561009757600080fd5b506100a0610174565b6040519081526020015b60405180910390f35b3480156100bf57600080fd5b506000546100d3906001600160a01b031681565b6040516001600160a01b0390911681526020016100aa565b3480156100f757600080fd5b506100a061033e565b34801561010c57600080fd5b506100a06104fc565b34801561012157600080fd5b506100a0610667565b34801561013657600080fd5b506100a061069b565b34801561014b57600080fd5b506100a06106b6565b34801561016057600080fd5b506001546100d3906001600160a01b031681565b60008054604051630b4c774160e11b81528291730bfbcf9fa4f9c56b0f40a671ad40e0805a09186591631698ee82916101d39173bb4cdb9cbd36b01bd1cbaebf2de08d9173bc095c916001600160a01b0316906101f49060040161088a565b602060405180830381865afa1580156101f0573d6000803e3d6000fd5b505050506040513d601f19601f8201168201806040525081019061021491906108ca565b90506000816001600160a01b0316633850c7bd6040518163ffffffff1660e01b815260040160e060405180830381865afa158015610256573d6000803e3d6000fd5b505050506040513d601f19601f8201168201806040525081019061027a919061093f565b60000151905073bb4cdb9cbd36b01bd1cbaebf2de08d9173bc095c6001600160a01b0316826001600160a01b0316630dfe16816040518163ffffffff1660e01b8152600401602060405180830381865afa1580156102dc573d6000803e3d6000fd5b505050506040513d601f19601f8201168201806040525081019061030091906108ca565b6001600160a01b03161461032557610320816001600160a01b0316610821565b610337565b610337816001600160a01b0316610859565b9250505090565b60008054604051630b4c774160e11b81528291730bfbcf9fa4f9c56b0f40a671ad40e0805a09186591631698ee829161039d9173bb4cdb9cbd36b01bd1cbaebf2de08d9173bc095c916001600160a01b0316906101f49060040161088a565b602060405180830381865afa1580156103ba573d6000803e3d6000fd5b505050506040513d601f19601f820116820180604052508101906103de91906108ca565b90506000816001600160a01b0316633850c7bd6040518163ffffffff1660e01b815260040160e060405180830381865afa158015610420573d6000803e3d6000fd5b505050506040513d601f19601f82011682018060405250810190610444919061093f565b60000151905073bb4cdb9cbd36b01bd1cbaebf2de08d9173bc095c6001600160a01b0316826001600160a01b0316630dfe16816040518163ffffffff1660e01b8152600401602060405180830381865afa1580156104a6573d6000803e3d6000fd5b505050506040513d601f19601f820116820180604052508101906104ca91906108ca565b6001600160a01b0316146104ea57610320816001600160a01b0316610859565b610337816001600160a01b0316610821565b600154604051630b4c774160e11b81526000918291730bfbcf9fa4f9c56b0f40a671ad40e0805a09186591631698ee829161055d916001600160a01b03169073bb4cdb9cbd36b01bd1cbaebf2de08d9173bc095c906101f49060040161088a565b602060405180830381865afa15801561057a573d6000803e3d6000fd5b505050506040513d601f19601f8201168201806040525081019061059e91906108ca565b90506000816001600160a01b0316633850c7bd6040518163ffffffff1660e01b815260040160e060405180830381865afa1580156105e0573d6000803e3d6000fd5b505050506040513d601f19601f82011682018060405250810190610604919061093f565b600001519050600160009054906101000a90046001600160a01b03166001600160a01b0316826001600160a01b0316630dfe16816040518163ffffffff1660e01b8152600401602060405180830381865afa1580156104a6573d6000803e3d6000fd5b6000670de0b6b3a764000061067a610174565b6106826106b6565b61068c9190610a13565b6106969190610a30565b905090565b6000670de0b6b3a76400006106ae6104fc565b61068261033e565b600154604051630b4c774160e11b81526000918291730bfbcf9fa4f9c56b0f40a671ad40e0805a09186591631698ee8291610717916001600160a01b03169073bb4cdb9cbd36b01bd1cbaebf2de08d9173bc095c906101f49060040161088a565b602060405180830381865afa158015610734573d6000803e3d6000fd5b505050506040513d601f19601f8201168201806040525081019061075891906108ca565b90506000816001600160a01b0316633850c7bd6040518163ffffffff1660e01b815260040160e060405180830381865afa15801561079a573d6000803e3d6000fd5b505050506040513d601f19601f820116820180604052508101906107be919061093f565b600001519050600160009054906101000a90046001600160a01b03166001600160a01b0316826001600160a01b0316630dfe16816040518163ffffffff1660e01b8152600401602060405180830381865afa1580156102dc573d6000803e3d6000fd5b600080670de0b6b3a7640000610838600285610b36565b6108429190610a30565b905061085281600160c01b610a30565b9392505050565b6000600160c01b610872670de0b6b3a764000082610a30565b905080610880600285610b36565b6108529190610a30565b6001600160a01b03938416815291909216602082015262ffffff909116604082015260600190565b6001600160a01b03811681146108c757600080fd5b50565b6000602082840312156108dc57600080fd5b8151610852816108b2565b80516108f2816108b2565b919050565b8051600281900b81146108f257600080fd5b805161ffff811681146108f257600080fd5b805163ffffffff811681146108f257600080fd5b805180151581146108f257600080fd5b600060e0828403121561095157600080fd5b60405160e0810181811067ffffffffffffffff8211171561098257634e487b7160e01b600052604160045260246000fd5b60405261098e836108e7565b815261099c602084016108f7565b60208201526109ad60408401610909565b60408201526109be60608401610909565b60608201526109cf60808401610909565b60808201526109e060a0840161091b565b60a08201526109f160c0840161092f565b60c08201529392505050565b634e487b7160e01b600052601160045260246000fd5b8082028115828204841417610a2a57610a2a6109fd565b92915050565b600082610a4d57634e487b7160e01b600052601260045260246000fd5b500490565b600181815b80851115610a8d578160001904821115610a7357610a736109fd565b80851615610a8057918102915b93841c9390800290610a57565b509250929050565b600082610aa457506001610a2a565b81610ab157506000610a2a565b8160018114610ac75760028114610ad157610aed565b6001915050610a2a565b60ff841115610ae257610ae26109fd565b50506001821b610a2a565b5060208310610133831016604e8410600b8410161715610b10575081810a610a2a565b610b1a8383610a52565b8060001904821115610b2e57610b2e6109fd565b029392505050565b600061085260ff841683610a9556fea26469706673582212202e531e52fb84eb9755150d6f17978e3e4bc45bacf4f629e301bbe4b3b3e97e3764736f6c63430008120033",
  "linkReferences": {},
  "deployedLinkReferences": {}
}