{
  "_format": "hh-sol-artifact-1",
  "contractName": "BNBStakePool",
  "sourceName": "contracts/StakePool/BNBStakePool.sol",
  "abi": [
    {
      "inputs": [],
      "stateMutability": "nonpayable",
      "type": "constructor"
    },
    {
      "anonymous": false,
      "inputs": [
        {
          "indexed": true,
          "internalType": "address",
          "name": "investor",
          "type": "address"
        },
        {
          "indexed": true,
          "internalType": "uint256",
          "name": "investId",
          "type": "uint256"
        },
        {
          "indexed": false,
          "internalType": "uint256",
          "name": "amount",
          "type": "uint256"
        },
        {
          "indexed": false,
          "internalType": "uint256",
          "name": "start",
          "type": "uint256"
        },
        {
          "indexed": false,
          "internalType": "uint256",
          "name": "end",
          "type": "uint256"
        },
        {
          "indexed": false,
          "internalType": "uint256",
          "name": "profit",
          "type": "uint256"
        }
      ],
      "name": "NewInvestment",
      "type": "event"
    },
    {
      "anonymous": false,
      "inputs": [
        {
          "indexed": true,
          "internalType": "address",
          "name": "previousOwner",
          "type": "address"
        },
        {
          "indexed": true,
          "internalType": "address",
          "name": "newOwner",
          "type": "address"
        }
      ],
      "name": "OwnershipTransferred",
      "type": "event"
    },
    {
      "anonymous": false,
      "inputs": [
        {
          "indexed": false,
          "internalType": "address",
          "name": "account",
          "type": "address"
        }
      ],
      "name": "Paused",
      "type": "event"
    },
    {
      "anonymous": false,
      "inputs": [
        {
          "indexed": true,
          "internalType": "uint256",
          "name": "duration",
          "type": "uint256"
        },
        {
          "indexed": false,
          "internalType": "uint256",
          "name": "profit",
          "type": "uint256"
        }
      ],
      "name": "SetPlan",
      "type": "event"
    },
    {
      "anonymous": false,
      "inputs": [
        {
          "indexed": false,
          "internalType": "address",
          "name": "account",
          "type": "address"
        }
      ],
      "name": "Unpaused",
      "type": "event"
    },
    {
      "anonymous": false,
      "inputs": [
        {
          "indexed": true,
          "internalType": "address",
          "name": "investor",
          "type": "address"
        },
        {
          "indexed": true,
          "internalType": "uint256",
          "name": "investId",
          "type": "uint256"
        },
        {
          "indexed": false,
          "internalType": "uint256",
          "name": "amountBNB",
          "type": "uint256"
        },
        {
          "indexed": false,
          "internalType": "uint256",
          "name": "amountBLB",
          "type": "uint256"
        }
      ],
      "name": "Withdraw",
      "type": "event"
    },
    {
      "inputs": [],
      "name": "checkPoint1",
      "outputs": [
        {
          "internalType": "uint256",
          "name": "passTime",
          "type": "uint256"
        },
        {
          "internalType": "uint256",
          "name": "saveBNB",
          "type": "uint256"
        },
        {
          "internalType": "uint256",
          "name": "saveBLB",
          "type": "uint256"
        }
      ],
      "stateMutability": "view",
      "type": "function"
    },
    {
      "inputs": [],
      "name": "checkPoint2",
      "outputs": [
        {
          "internalType": "uint256",
          "name": "passTime",
          "type": "uint256"
        },
        {
          "internalType": "uint256",
          "name": "saveBNB",
          "type": "uint256"
        },
        {
          "internalType": "uint256",
          "name": "saveBLB",
          "type": "uint256"
        }
      ],
      "stateMutability": "view",
      "type": "function"
    },
    {
      "inputs": [],
      "name": "checkPoint3",
      "outputs": [
        {
          "internalType": "uint256",
          "name": "passTime",
          "type": "uint256"
        },
        {
          "internalType": "uint256",
          "name": "saveBNB",
          "type": "uint256"
        },
        {
          "internalType": "uint256",
          "name": "saveBLB",
          "type": "uint256"
        }
      ],
      "stateMutability": "view",
      "type": "function"
    },
    {
      "inputs": [
        {
          "internalType": "address",
          "name": "",
          "type": "address"
        },
        {
          "internalType": "uint256",
          "name": "",
          "type": "uint256"
        }
      ],
      "name": "investments",
      "outputs": [
        {
          "internalType": "uint256",
          "name": "amount",
          "type": "uint256"
        },
        {
          "internalType": "uint256",
          "name": "start",
          "type": "uint256"
        },
        {
          "internalType": "uint256",
          "name": "end",
          "type": "uint256"
        },
        {
          "internalType": "uint256",
          "name": "profit",
          "type": "uint256"
        },
        {
          "internalType": "uint256",
          "name": "claimTime",
          "type": "uint256"
        }
      ],
      "stateMutability": "view",
      "type": "function"
    },
    {
      "inputs": [
        {
          "internalType": "address",
          "name": "borrower",
          "type": "address"
        },
        {
          "internalType": "uint256",
          "name": "amount",
          "type": "uint256"
        }
      ],
      "name": "loanBLB",
      "outputs": [],
      "stateMutability": "nonpayable",
      "type": "function"
    },
    {
      "inputs": [
        {
          "internalType": "address",
          "name": "borrower",
          "type": "address"
        },
        {
          "internalType": "uint256",
          "name": "amount",
          "type": "uint256"
        }
      ],
      "name": "loanBNB",
      "outputs": [],
      "stateMutability": "nonpayable",
      "type": "function"
    },
    {
      "inputs": [
        {
          "internalType": "uint256",
          "name": "duration",
          "type": "uint256"
        }
      ],
      "name": "newInvestment",
      "outputs": [],
      "stateMutability": "payable",
      "type": "function"
    },
    {
      "inputs": [],
      "name": "owner",
      "outputs": [
        {
          "internalType": "address",
          "name": "",
          "type": "address"
        }
      ],
      "stateMutability": "view",
      "type": "function"
    },
    {
      "inputs": [],
      "name": "pause",
      "outputs": [],
      "stateMutability": "nonpayable",
      "type": "function"
    },
    {
      "inputs": [],
      "name": "paused",
      "outputs": [
        {
          "internalType": "bool",
          "name": "",
          "type": "bool"
        }
      ],
      "stateMutability": "view",
      "type": "function"
    },
    {
      "inputs": [
        {
          "internalType": "address",
          "name": "investor",
          "type": "address"
        },
        {
          "internalType": "uint256",
          "name": "investmentId",
          "type": "uint256"
        }
      ],
      "name": "pendingWithdrawal",
      "outputs": [
        {
          "internalType": "uint256",
          "name": "amountBNB",
          "type": "uint256"
        },
        {
          "internalType": "uint256",
          "name": "amountBLB",
          "type": "uint256"
        }
      ],
      "stateMutability": "view",
      "type": "function"
    },
    {
      "inputs": [
        {
          "internalType": "address",
          "name": "investor",
          "type": "address"
        },
        {
          "internalType": "uint256",
          "name": "investmentId",
          "type": "uint256"
        }
      ],
      "name": "releaseTime",
      "outputs": [
        {
          "internalType": "uint256",
          "name": "",
          "type": "uint256"
        }
      ],
      "stateMutability": "view",
      "type": "function"
    },
    {
      "inputs": [],
      "name": "renounceOwnership",
      "outputs": [],
      "stateMutability": "nonpayable",
      "type": "function"
    },
    {
      "inputs": [
        {
          "internalType": "uint256",
          "name": "",
          "type": "uint256"
        }
      ],
      "name": "rewardPlans",
      "outputs": [
        {
          "internalType": "uint256",
          "name": "",
          "type": "uint256"
        }
      ],
      "stateMutability": "view",
      "type": "function"
    },
    {
      "inputs": [
        {
          "internalType": "uint256",
          "name": "passTime1",
          "type": "uint256"
        },
        {
          "internalType": "uint256",
          "name": "saveBNB1",
          "type": "uint256"
        },
        {
          "internalType": "uint256",
          "name": "saveBLB1",
          "type": "uint256"
        },
        {
          "internalType": "uint256",
          "name": "passTime2",
          "type": "uint256"
        },
        {
          "internalType": "uint256",
          "name": "saveBNB2",
          "type": "uint256"
        },
        {
          "internalType": "uint256",
          "name": "saveBLB2",
          "type": "uint256"
        },
        {
          "internalType": "uint256",
          "name": "passTime3",
          "type": "uint256"
        },
        {
          "internalType": "uint256",
          "name": "saveBNB3",
          "type": "uint256"
        },
        {
          "internalType": "uint256",
          "name": "saveBLB3",
          "type": "uint256"
        }
      ],
      "name": "setCheckpoints",
      "outputs": [],
      "stateMutability": "nonpayable",
      "type": "function"
    },
    {
      "inputs": [
        {
          "internalType": "uint256",
          "name": "duration",
          "type": "uint256"
        },
        {
          "internalType": "uint256",
          "name": "profit",
          "type": "uint256"
        }
      ],
      "name": "setPlan",
      "outputs": [],
      "stateMutability": "nonpayable",
      "type": "function"
    },
    {
      "inputs": [],
      "name": "totalInvestingBNB",
      "outputs": [
        {
          "internalType": "uint256",
          "name": "",
          "type": "uint256"
        }
      ],
      "stateMutability": "view",
      "type": "function"
    },
    {
      "inputs": [],
      "name": "totalPendingBLB",
      "outputs": [
        {
          "internalType": "uint256",
          "name": "",
          "type": "uint256"
        }
      ],
      "stateMutability": "view",
      "type": "function"
    },
    {
      "inputs": [
        {
          "internalType": "address",
          "name": "newOwner",
          "type": "address"
        }
      ],
      "name": "transferOwnership",
      "outputs": [],
      "stateMutability": "nonpayable",
      "type": "function"
    },
    {
      "inputs": [],
      "name": "unpause",
      "outputs": [],
      "stateMutability": "nonpayable",
      "type": "function"
    },
    {
      "inputs": [
        {
          "internalType": "uint256",
          "name": "investmentId",
          "type": "uint256"
        }
      ],
      "name": "withdraw",
      "outputs": [],
      "stateMutability": "nonpayable",
      "type": "function"
    }
  ],
  "bytecode": "0x60a060405273880ba82fcc12fe7de255fa62c9d0befb7960c9866080523480156200002957600080fd5b506000805460ff191690556200003f33620000bb565b6200005662015180670de0b6b3a764000062000114565b6200006d62093a80678ac7230489e8000062000114565b6200008562278d006802b5e3af16b188000062000114565b6200009d6276a7006809c2007651b250000062000114565b620000b5600060508160326064828482602862000130565b620001fb565b600080546001600160a01b03838116610100818102610100600160a81b0319851617855560405193049190911692909183917f8be0079c531659141344cd1fd0a4f28419497f9722a3daafe3b4186f6b6457e091a35050565b6200011e62000194565b60009182526003602052604090912055565b6200013a62000194565b60408051606080820183529a815260208082019a909a528101979097528651808a01885295865285880194909452938501919091528351958601845280865293850182905293909101839052600591909155600655600755565b6000546001600160a01b03610100909104163314620001f95760405162461bcd60e51b815260206004820181905260248201527f4f776e61626c653a2063616c6c6572206973206e6f7420746865206f776e6572604482015260640160405180910390fd5b565b6080516110696200021e6000396000818161073b0152610b7301526110696000f3fe60806040526004361061012a5760003560e01c80638456cb59116100ab578063a2fa0c751161006f578063a2fa0c7514610369578063ad33710c14610389578063c877921c146103a8578063d5d4d114146103c8578063e88cf1b4146103e7578063f2fde38b146103fd57600080fd5b80638456cb59146102a457806388a9931f146102b957806388f89169146102e65780638a2ac397146102f95780638da5cb5b1461033357600080fd5b80633f4ba83a116100f25780633f4ba83a146102175780634668d8661461022c5780634983c3ab1461024c5780635c975abb1461026c578063715018a61461028f57600080fd5b80631dd6781b1461012f5780632bf0da7e146101585780632e1a7d4d1461018d5780633353561d146101af5780633e6d9770146101cf575b600080fd5b34801561013b57600080fd5b5061014560015481565b6040519081526020015b60405180910390f35b34801561016457600080fd5b50610178610173366004610e8f565b61041d565b6040805192835260208301919091520161014f565b34801561019957600080fd5b506101ad6101a8366004610eb9565b610646565b005b3480156101bb57600080fd5b506101ad6101ca366004610ed2565b61082b565b3480156101db57600080fd5b506101ef6101ea366004610e8f565b610845565b604080519586526020860194909452928401919091526060830152608082015260a00161014f565b34801561022357600080fd5b506101ad610893565b34801561023857600080fd5b506101ad610247366004610ef4565b6108a5565b34801561025857600080fd5b50610145610267366004610e8f565b610907565b34801561027857600080fd5b5060005460ff16604051901515815260200161014f565b34801561029b57600080fd5b506101ad61094b565b3480156102b057600080fd5b506101ad61095d565b3480156102c557600080fd5b506101456102d4366004610eb9565b60036020526000908152604090205481565b6101ad6102f4366004610eb9565b61096d565b34801561030557600080fd5b50600854600954600a5461031892919083565b6040805193845260208401929092529082015260600161014f565b34801561033f57600080fd5b5060005461010090046001600160a01b03166040516001600160a01b03909116815260200161014f565b34801561037557600080fd5b506101ad610384366004610e8f565b610b45565b34801561039557600080fd5b5060055460065460075461031892919083565b3480156103b457600080fd5b506101ad6103c3366004610e8f565b610be5565b3480156103d457600080fd5b50600b54600c54600d5461031892919083565b3480156103f357600080fd5b5061014560025481565b34801561040957600080fd5b506101ad610418366004610f53565b610c23565b6001600160a01b03821660009081526004602052604081208054829182918590811061044b5761044b610f75565b9060005260206000209060050201905080600401546000146104cf5760405162461bcd60e51b815260206004820152603260248201527f7374616b65506f6f6c3a207468697320696e766573746d656e7420686173206260448201527165656e20636c61696d6564206265666f726560701b60648201526084015b60405180910390fd5b6001810154600282015442919060006104e88383610fa1565b85546003870154919250908386111561050657819850809750610638565b84606484600b6000015461051a9190610fb8565b6105249190610fd7565b61052e9190610ff9565b86111561057357600c546064906105459084610fb8565b61054f9190610fd7565b600d549099506064906105629083610fb8565b61056c9190610fd7565b9750610638565b846064846008600001546105879190610fb8565b6105919190610fd7565b61059b9190610ff9565b8611156105cf576009546064906105b29084610fb8565b6105bc9190610fd7565b600a549099506064906105629083610fb8565b846064846005600001546105e39190610fb8565b6105ed9190610fd7565b6105f79190610ff9565b8611156106385760065460649061060e9084610fb8565b6106189190610fd7565b60075490995060649061062b9083610fb8565b6106359190610fd7565b97505b505050505050509250929050565b33600081815260046020526040812080548490811061066757610667610f75565b90600052602060002090600502019050600080610684848661041d565b91509150600082116106d85760405162461bcd60e51b815260206004820152601e60248201527f5374616b65506f6f6c3a206e6f7468696e6720746f207769746864726177000060448201526064016104c6565b4260048401556040516001600160a01b0385169083156108fc029084906000818181858888f19350505050158015610714573d6000803e3d6000fd5b5060405163a9059cbb60e01b81526001600160a01b038581166004830152602482018390527f0000000000000000000000000000000000000000000000000000000000000000169063a9059cbb906044016020604051808303816000875af1158015610784573d6000803e3d6000fd5b505050506040513d601f19601f820116820180604052508101906107a89190611011565b508254600180546000906107bd908490610fa1565b90915550506003830154600280546000906107d9908490610fa1565b9091555050604080518381526020810183905286916001600160a01b038716917f02f25270a4d87bea75db541cdfe559334a275b4a233520ed6c0a2429667cca94910160405180910390a35050505050565b610833610c9c565b60009182526003602052604090912055565b6004602052816000526040600020818154811061086157600080fd5b600091825260209091206005909102018054600182015460028301546003840154600490940154929550909350919085565b61089b610c9c565b6108a3610cfc565b565b6108ad610c9c565b60408051606080820183529a815260208082019a909a528101979097528651808a01885295865285880194909452938501919091528351958601845280865293850182905293909101839052600591909155600655600755565b6001600160a01b038216600090815260046020526040812080548390811061093157610931610f75565b906000526020600020906005020160020154905092915050565b610953610c9c565b6108a36000610d4e565b610965610c9c565b6108a3610da7565b610975610de4565b60008181526003602052604081205490036109dc5760405162461bcd60e51b815260206004820152602160248201527f7468657265206973206e6f20706c616e2062792074686973206475726174696f6044820152603760f91b60648201526084016104c6565b33344260006109eb8583610ff9565b60008681526003602052604081205491925090670de0b6b3a764000090610a129086610fb8565b610a1c9190610fd7565b6001600160a01b0386166000908152600460208181526040808420815160a0810183528a81528084018a81529281018981526060820188815260808301888152845460018181018755958a5296892093516005909702909301958655935185840155516002850155915160038401559051919092015580549293508692909190610aa7908490610ff9565b925050819055508060026000828254610ac09190610ff9565b90915550506001600160a01b038516600090815260046020526040902054610aea90600190610fa1565b6040805186815260208101869052908101849052606081018390526001600160a01b038716907f72e5f615ebc79a295430cc50e3cdf038a03d48b17f7ef4586ab25a1d481de6959060800160405180910390a3505050505050565b610b4d610c9c565b60405163a9059cbb60e01b81526001600160a01b038381166004830152602482018390527f0000000000000000000000000000000000000000000000000000000000000000169063a9059cbb906044016020604051808303816000875af1158015610bbc573d6000803e3d6000fd5b505050506040513d601f19601f82011682018060405250810190610be09190611011565b505050565b610bed610c9c565b6040516001600160a01b0383169082156108fc029083906000818181858888f19350505050158015610be0573d6000803e3d6000fd5b610c2b610c9c565b6001600160a01b038116610c905760405162461bcd60e51b815260206004820152602660248201527f4f776e61626c653a206e6577206f776e657220697320746865207a65726f206160448201526564647265737360d01b60648201526084016104c6565b610c9981610d4e565b50565b6000546001600160a01b036101009091041633146108a35760405162461bcd60e51b815260206004820181905260248201527f4f776e61626c653a2063616c6c6572206973206e6f7420746865206f776e657260448201526064016104c6565b610d04610e2a565b6000805460ff191690557f5db9ee0a495bf2e6ff9c91a7834c1ba4fdd244a5e8aa4e537bd38aeae4b073aa335b6040516001600160a01b03909116815260200160405180910390a1565b600080546001600160a01b03838116610100818102610100600160a81b0319851617855560405193049190911692909183917f8be0079c531659141344cd1fd0a4f28419497f9722a3daafe3b4186f6b6457e091a35050565b610daf610de4565b6000805460ff191660011790557f62e78cea01bee320cd4e420270b5ea74000d11b0c9f74754ebdbfc544b05a258610d313390565b60005460ff16156108a35760405162461bcd60e51b815260206004820152601060248201526f14185d5cd8589b194e881c185d5cd95960821b60448201526064016104c6565b60005460ff166108a35760405162461bcd60e51b815260206004820152601460248201527314185d5cd8589b194e881b9bdd081c185d5cd95960621b60448201526064016104c6565b80356001600160a01b0381168114610e8a57600080fd5b919050565b60008060408385031215610ea257600080fd5b610eab83610e73565b946020939093013593505050565b600060208284031215610ecb57600080fd5b5035919050565b60008060408385031215610ee557600080fd5b50508035926020909101359150565b60008060008060008060008060006101208a8c031215610f1357600080fd5b505087359960208901359950604089013598606081013598506080810135975060a0810135965060c0810135955060e08101359450610100013592509050565b600060208284031215610f6557600080fd5b610f6e82610e73565b9392505050565b634e487b7160e01b600052603260045260246000fd5b634e487b7160e01b600052601160045260246000fd5b600082821015610fb357610fb3610f8b565b500390565b6000816000190483118215151615610fd257610fd2610f8b565b500290565b600082610ff457634e487b7160e01b600052601260045260246000fd5b500490565b6000821982111561100c5761100c610f8b565b500190565b60006020828403121561102357600080fd5b81518015158114610f6e57600080fdfea26469706673582212204873d5a6b5323f5c62ce546089347677401e57565d33385979544dc54646533a64736f6c634300080f0033",
  "linkReferences": {},
  "deployedLinkReferences": {}
}