{
  "_format": "hh-sol-artifact-1",
  "contractName": "BLB_ICO",
  "sourceName": "contracts/BLB_ICO/BLB_ICO.sol",
  "abi": [
    {
      "inputs": [],
      "stateMutability": "nonpayable",
      "type": "constructor"
    },
    {
      "anonymous": false,
      "inputs": [
        {
          "indexed": true,
          "internalType": "address",
          "name": "previousOwner",
          "type": "address"
        },
        {
          "indexed": true,
          "internalType": "address",
          "name": "newOwner",
          "type": "address"
        }
      ],
      "name": "OwnershipTransferred",
      "type": "event"
    },
    {
      "inputs": [],
      "name": "BLB",
      "outputs": [
        {
          "internalType": "contract IERC20",
          "name": "",
          "type": "address"
        }
      ],
      "stateMutability": "view",
      "type": "function"
    },
    {
      "inputs": [],
      "name": "BUSD",
      "outputs": [
        {
          "internalType": "contract IERC20",
          "name": "",
          "type": "address"
        }
      ],
      "stateMutability": "view",
      "type": "function"
    },
    {
      "inputs": [],
      "name": "USDT",
      "outputs": [
        {
          "internalType": "contract IERC20",
          "name": "",
          "type": "address"
        }
      ],
      "stateMutability": "view",
      "type": "function"
    },
    {
      "inputs": [
        {
          "internalType": "uint256",
          "name": "amount",
          "type": "uint256"
        }
      ],
      "name": "buyInBNB",
      "outputs": [],
      "stateMutability": "payable",
      "type": "function"
    },
    {
      "inputs": [
        {
          "internalType": "uint256",
          "name": "amount",
          "type": "uint256"
        }
      ],
      "name": "buyInBUSD",
      "outputs": [],
      "stateMutability": "nonpayable",
      "type": "function"
    },
    {
      "inputs": [
        {
          "internalType": "uint256",
          "name": "amount",
          "type": "uint256"
        }
      ],
      "name": "buyInUSDT",
      "outputs": [],
      "stateMutability": "payable",
      "type": "function"
    },
    {
      "inputs": [],
      "name": "owner",
      "outputs": [
        {
          "internalType": "address",
          "name": "",
          "type": "address"
        }
      ],
      "stateMutability": "view",
      "type": "function"
    },
    {
      "inputs": [],
      "name": "priceInBNB",
      "outputs": [
        {
          "internalType": "uint256",
          "name": "",
          "type": "uint256"
        }
      ],
      "stateMutability": "view",
      "type": "function"
    },
    {
      "inputs": [],
      "name": "priceInUSD",
      "outputs": [
        {
          "internalType": "uint256",
          "name": "",
          "type": "uint256"
        }
      ],
      "stateMutability": "view",
      "type": "function"
    },
    {
      "inputs": [],
      "name": "renounceOwnership",
      "outputs": [],
      "stateMutability": "nonpayable",
      "type": "function"
    },
    {
      "inputs": [
        {
          "internalType": "uint256",
          "name": "_priceInUSD",
          "type": "uint256"
        }
      ],
      "name": "set_priceInUSD",
      "outputs": [],
      "stateMutability": "nonpayable",
      "type": "function"
    },
    {
      "inputs": [
        {
          "internalType": "address",
          "name": "newOwner",
          "type": "address"
        }
      ],
      "name": "transferOwnership",
      "outputs": [],
      "stateMutability": "nonpayable",
      "type": "function"
    },
    {
      "inputs": [
        {
          "internalType": "uint256",
          "name": "amount",
          "type": "uint256"
        }
      ],
      "name": "withdraw",
      "outputs": [],
      "stateMutability": "nonpayable",
      "type": "function"
    },
    {
      "inputs": [
        {
          "internalType": "address",
          "name": "tokenAddr",
          "type": "address"
        },
        {
          "internalType": "uint256",
          "name": "amount",
          "type": "uint256"
        }
      ],
      "name": "withdraw",
      "outputs": [],
      "stateMutability": "nonpayable",
      "type": "function"
    }
  ],
  "bytecode": "0x608060405234801561001057600080fd5b5061001a33610085565b600180546001600160a01b031990811673314fbbfc5c9db19bc8f8981781d326a9ba76508f179091556002805482167376a90a822b4c797c0bfaed9453445241e5553d0017905560038054909116735a47b08a3e5058cf3b68b583851ccf585718ae441790556100d5565b600080546001600160a01b038381166001600160a01b0319831681178455604051919092169283917f8be0079c531659141344cd1fd0a4f28419497f9722a3daafe3b4186f6b6457e09190a35050565b6109ac806100e46000396000f3fe6080604052600436106100dd5760003560e01c806392ae8f491161007f578063c54e44eb11610059578063c54e44eb14610218578063d41edb7b14610238578063f2fde38b1461024e578063f3fef3a31461026e57600080fd5b806392ae8f49146101ca578063bcc6fc0e146101ea578063bfa54b3f146101f857600080fd5b8063484f4ea9116100bb578063484f4ea91461013f5780634bc3746814610177578063715018a6146101975780638da5cb5b146101ac57600080fd5b806312b13216146100e25780632e1a7d4d146100f75780633ff6358214610117575b600080fd5b6100f56100f036600461086b565b61028e565b005b34801561010357600080fd5b506100f561011236600461086b565b610432565b34801561012357600080fd5b5061012c610467565b6040519081526020015b60405180910390f35b34801561014b57600080fd5b5060025461015f906001600160a01b031681565b6040516001600160a01b039091168152602001610136565b34801561018357600080fd5b506100f561019236600461086b565b610504565b3480156101a357600080fd5b506100f56106a9565b3480156101b857600080fd5b506000546001600160a01b031661015f565b3480156101d657600080fd5b506100f56101e536600461086b565b6106bd565b6100f561019236600461086b565b34801561020457600080fd5b5060015461015f906001600160a01b031681565b34801561022457600080fd5b5060035461015f906001600160a01b031681565b34801561024457600080fd5b5061012c60045481565b34801561025a57600080fd5b506100f56102693660046108a0565b6106ca565b34801561027a57600080fd5b506100f56102893660046108c2565b610743565b6064610298610467565b6102a290836108ec565b6102ac9190610919565b6102b79060626108ec565b3410156102fe5760405162461bcd60e51b815260206004820152601060248201526f696e73756666696369656e742066656560801b60448201526064015b60405180910390fd5b6001546040516370a0823160e01b815230600482015282916001600160a01b0316906370a0823190602401602060405180830381865afa158015610346573d6000803e3d6000fd5b505050506040513d601f19601f8201168201806040525081019061036a919061093b565b10156103b85760405162461bcd60e51b815260206004820181905260248201527f696e73756666696369656e7420424c4220696e2074686520636f6e747261637460448201526064016102f5565b60015460405163a9059cbb60e01b8152336004820152602481018390526001600160a01b039091169063a9059cbb906044015b6020604051808303816000875af115801561040a573d6000803e3d6000fd5b505050506040513d601f19601f8201168201806040525081019061042e9190610954565b5050565b61043a6107c1565b604051339082156108fc029083906000818181858888f1935050505015801561042e573d6000803e3d6000fd5b6000670de0b6b3a76400006004547374825dbc8bf76cc4e9494d0ecb210f676efa001d6001600160a01b03166350d25bcd6040518163ffffffff1660e01b8152600401602060405180830381865afa1580156104c7573d6000803e3d6000fd5b505050506040513d601f19601f820116820180604052508101906104eb919061093b565b6104f591906108ec565b6104ff9190610919565b905090565b6001546040516370a0823160e01b815230600482015282916001600160a01b0316906370a0823190602401602060405180830381865afa15801561054c573d6000803e3d6000fd5b505050506040513d601f19601f82011682018060405250810190610570919061093b565b10156105be5760405162461bcd60e51b815260206004820181905260248201527f696e73756666696369656e7420424c4220696e2074686520636f6e747261637460448201526064016102f5565b6002546004546001600160a01b03909116906323b872dd9033903090670de0b6b3a7640000906105ef9087906108ec565b6105f99190610919565b6040516001600160e01b031960e086901b1681526001600160a01b03938416600482015292909116602483015260448201526064016020604051808303816000875af115801561064d573d6000803e3d6000fd5b505050506040513d601f19601f820116820180604052508101906106719190610954565b5060015460405163a9059cbb60e01b8152336004820152602481018390526001600160a01b039091169063a9059cbb906044016103eb565b6106b16107c1565b6106bb600061081b565b565b6106c56107c1565b600455565b6106d26107c1565b6001600160a01b0381166107375760405162461bcd60e51b815260206004820152602660248201527f4f776e61626c653a206e6577206f776e657220697320746865207a65726f206160448201526564647265737360d01b60648201526084016102f5565b6107408161081b565b50565b61074b6107c1565b60405163a9059cbb60e01b8152336004820152602481018290526001600160a01b0383169063a9059cbb906044016020604051808303816000875af1158015610798573d6000803e3d6000fd5b505050506040513d601f19601f820116820180604052508101906107bc9190610954565b505050565b6000546001600160a01b031633146106bb5760405162461bcd60e51b815260206004820181905260248201527f4f776e61626c653a2063616c6c6572206973206e6f7420746865206f776e657260448201526064016102f5565b600080546001600160a01b038381166001600160a01b0319831681178455604051919092169283917f8be0079c531659141344cd1fd0a4f28419497f9722a3daafe3b4186f6b6457e09190a35050565b60006020828403121561087d57600080fd5b5035919050565b80356001600160a01b038116811461089b57600080fd5b919050565b6000602082840312156108b257600080fd5b6108bb82610884565b9392505050565b600080604083850312156108d557600080fd5b6108de83610884565b946020939093013593505050565b600081600019048311821515161561091457634e487b7160e01b600052601160045260246000fd5b500290565b60008261093657634e487b7160e01b600052601260045260246000fd5b500490565b60006020828403121561094d57600080fd5b5051919050565b60006020828403121561096657600080fd5b815180151581146108bb57600080fdfea26469706673582212208e175999dc115767beaf159f1bd642bef52b3aaad7fafea14b7a9e00f4bdb38064736f6c634300080f0033",
  "linkReferences": {},
  "deployedLinkReferences": {}
}