{
  "_format": "hh-sol-artifact-1",
  "contractName": "BLB_ICO",
  "sourceName": "contracts/BLB_ICO/BLB_ICO.sol",
  "abi": [
    {
      "inputs": [],
      "stateMutability": "nonpayable",
      "type": "constructor"
    },
    {
      "anonymous": false,
      "inputs": [
        {
          "indexed": true,
          "internalType": "address",
          "name": "previousOwner",
          "type": "address"
        },
        {
          "indexed": true,
          "internalType": "address",
          "name": "newOwner",
          "type": "address"
        }
      ],
      "name": "OwnershipTransferred",
      "type": "event"
    },
    {
      "inputs": [],
      "name": "BLB",
      "outputs": [
        {
          "internalType": "contract IERC20",
          "name": "",
          "type": "address"
        }
      ],
      "stateMutability": "view",
      "type": "function"
    },
    {
      "inputs": [],
      "name": "BUSD",
      "outputs": [
        {
          "internalType": "contract IERC20",
          "name": "",
          "type": "address"
        }
      ],
      "stateMutability": "view",
      "type": "function"
    },
    {
      "inputs": [],
      "name": "USDT",
      "outputs": [
        {
          "internalType": "contract IERC20",
          "name": "",
          "type": "address"
        }
      ],
      "stateMutability": "view",
      "type": "function"
    },
    {
      "inputs": [
        {
          "internalType": "uint256",
          "name": "amount",
          "type": "uint256"
        }
      ],
      "name": "buyInBNB",
      "outputs": [],
      "stateMutability": "payable",
      "type": "function"
    },
    {
      "inputs": [
        {
          "internalType": "uint256",
          "name": "amount",
          "type": "uint256"
        }
      ],
      "name": "buyInBUSD",
      "outputs": [],
      "stateMutability": "nonpayable",
      "type": "function"
    },
    {
      "inputs": [
        {
          "internalType": "uint256",
          "name": "amount",
          "type": "uint256"
        }
      ],
      "name": "buyInUSDT",
      "outputs": [],
      "stateMutability": "payable",
      "type": "function"
    },
    {
      "inputs": [],
      "name": "owner",
      "outputs": [
        {
          "internalType": "address",
          "name": "",
          "type": "address"
        }
      ],
      "stateMutability": "view",
      "type": "function"
    },
    {
      "inputs": [],
      "name": "priceInBNB",
      "outputs": [
        {
          "internalType": "uint256",
          "name": "",
          "type": "uint256"
        }
      ],
      "stateMutability": "view",
      "type": "function"
    },
    {
      "inputs": [],
      "name": "priceInUSD",
      "outputs": [
        {
          "internalType": "uint256",
          "name": "",
          "type": "uint256"
        }
      ],
      "stateMutability": "view",
      "type": "function"
    },
    {
      "inputs": [],
      "name": "renounceOwnership",
      "outputs": [],
      "stateMutability": "nonpayable",
      "type": "function"
    },
    {
      "inputs": [
        {
          "internalType": "uint256",
          "name": "_priceInUSD",
          "type": "uint256"
        }
      ],
      "name": "set_priceInUSD",
      "outputs": [],
      "stateMutability": "nonpayable",
      "type": "function"
    },
    {
      "inputs": [
        {
          "internalType": "address",
          "name": "newOwner",
          "type": "address"
        }
      ],
      "name": "transferOwnership",
      "outputs": [],
      "stateMutability": "nonpayable",
      "type": "function"
    },
    {
      "inputs": [
        {
          "internalType": "uint256",
          "name": "amount",
          "type": "uint256"
        }
      ],
      "name": "withdraw",
      "outputs": [],
      "stateMutability": "nonpayable",
      "type": "function"
    },
    {
      "inputs": [
        {
          "internalType": "address",
          "name": "tokenAddr",
          "type": "address"
        },
        {
          "internalType": "uint256",
          "name": "amount",
          "type": "uint256"
        }
      ],
      "name": "withdraw",
      "outputs": [],
      "stateMutability": "nonpayable",
      "type": "function"
    }
  ],
  "bytecode": "0x608060405234801561001057600080fd5b5061001a33610085565b600180546001600160a01b031990811673314fbbfc5c9db19bc8f8981781d326a9ba76508f179091556002805482167376a90a822b4c797c0bfaed9453445241e5553d0017905560038054909116735a47b08a3e5058cf3b68b583851ccf585718ae441790556100d5565b600080546001600160a01b038381166001600160a01b0319831681178455604051919092169283917f8be0079c531659141344cd1fd0a4f28419497f9722a3daafe3b4186f6b6457e09190a35050565b6109b4806100e46000396000f3fe6080604052600436106100dd5760003560e01c806392ae8f491161007f578063c54e44eb11610059578063c54e44eb14610218578063d41edb7b14610238578063f2fde38b1461024e578063f3fef3a31461026e57600080fd5b806392ae8f49146101ca578063bcc6fc0e146101ea578063bfa54b3f146101f857600080fd5b8063484f4ea9116100bb578063484f4ea91461013f5780634bc3746814610177578063715018a6146101975780638da5cb5b146101ac57600080fd5b806312b13216146100e25780632e1a7d4d146100f75780633ff6358214610117575b600080fd5b6100f56100f0366004610873565b61028e565b005b34801561010357600080fd5b506100f5610112366004610873565b61043a565b34801561012357600080fd5b5061012c61046f565b6040519081526020015b60405180910390f35b34801561014b57600080fd5b5060025461015f906001600160a01b031681565b6040516001600160a01b039091168152602001610136565b34801561018357600080fd5b506100f5610192366004610873565b61050c565b3480156101a357600080fd5b506100f56106b1565b3480156101b857600080fd5b506000546001600160a01b031661015f565b3480156101d657600080fd5b506100f56101e5366004610873565b6106c5565b6100f5610192366004610873565b34801561020457600080fd5b5060015461015f906001600160a01b031681565b34801561022457600080fd5b5060035461015f906001600160a01b031681565b34801561024457600080fd5b5061012c60045481565b34801561025a57600080fd5b506100f56102693660046108a8565b6106d2565b34801561027a57600080fd5b506100f56102893660046108ca565b61074b565b68056bc75e2d631000006102a061046f565b6102aa90836108f4565b6102b59060626108f4565b6102bf9190610921565b3410156103065760405162461bcd60e51b815260206004820152601060248201526f696e73756666696369656e742066656560801b60448201526064015b60405180910390fd5b6001546040516370a0823160e01b815230600482015282916001600160a01b0316906370a0823190602401602060405180830381865afa15801561034e573d6000803e3d6000fd5b505050506040513d601f19601f820116820180604052508101906103729190610943565b10156103c05760405162461bcd60e51b815260206004820181905260248201527f696e73756666696369656e7420424c4220696e2074686520636f6e747261637460448201526064016102fd565b60015460405163a9059cbb60e01b8152336004820152602481018390526001600160a01b039091169063a9059cbb906044015b6020604051808303816000875af1158015610412573d6000803e3d6000fd5b505050506040513d601f19601f82011682018060405250810190610436919061095c565b5050565b6104426107c9565b604051339082156108fc029083906000818181858888f19350505050158015610436573d6000803e3d6000fd5b6000670de0b6b3a76400006004547374825dbc8bf76cc4e9494d0ecb210f676efa001d6001600160a01b03166350d25bcd6040518163ffffffff1660e01b8152600401602060405180830381865afa1580156104cf573d6000803e3d6000fd5b505050506040513d601f19601f820116820180604052508101906104f39190610943565b6104fd91906108f4565b6105079190610921565b905090565b6001546040516370a0823160e01b815230600482015282916001600160a01b0316906370a0823190602401602060405180830381865afa158015610554573d6000803e3d6000fd5b505050506040513d601f19601f820116820180604052508101906105789190610943565b10156105c65760405162461bcd60e51b815260206004820181905260248201527f696e73756666696369656e7420424c4220696e2074686520636f6e747261637460448201526064016102fd565b6002546004546001600160a01b03909116906323b872dd9033903090670de0b6b3a7640000906105f79087906108f4565b6106019190610921565b6040516001600160e01b031960e086901b1681526001600160a01b03938416600482015292909116602483015260448201526064016020604051808303816000875af1158015610655573d6000803e3d6000fd5b505050506040513d601f19601f82011682018060405250810190610679919061095c565b5060015460405163a9059cbb60e01b8152336004820152602481018390526001600160a01b039091169063a9059cbb906044016103f3565b6106b96107c9565b6106c36000610823565b565b6106cd6107c9565b600455565b6106da6107c9565b6001600160a01b03811661073f5760405162461bcd60e51b815260206004820152602660248201527f4f776e61626c653a206e6577206f776e657220697320746865207a65726f206160448201526564647265737360d01b60648201526084016102fd565b61074881610823565b50565b6107536107c9565b60405163a9059cbb60e01b8152336004820152602481018290526001600160a01b0383169063a9059cbb906044016020604051808303816000875af11580156107a0573d6000803e3d6000fd5b505050506040513d601f19601f820116820180604052508101906107c4919061095c565b505050565b6000546001600160a01b031633146106c35760405162461bcd60e51b815260206004820181905260248201527f4f776e61626c653a2063616c6c6572206973206e6f7420746865206f776e657260448201526064016102fd565b600080546001600160a01b038381166001600160a01b0319831681178455604051919092169283917f8be0079c531659141344cd1fd0a4f28419497f9722a3daafe3b4186f6b6457e09190a35050565b60006020828403121561088557600080fd5b5035919050565b80356001600160a01b03811681146108a357600080fd5b919050565b6000602082840312156108ba57600080fd5b6108c38261088c565b9392505050565b600080604083850312156108dd57600080fd5b6108e68361088c565b946020939093013593505050565b600081600019048311821515161561091c57634e487b7160e01b600052601160045260246000fd5b500290565b60008261093e57634e487b7160e01b600052601260045260246000fd5b500490565b60006020828403121561095557600080fd5b5051919050565b60006020828403121561096e57600080fd5b815180151581146108c357600080fdfea264697066735822122039b89b47ff10c4c099716d3442994d7e55d1cc8f73c74b38bccc8ca21d82a89c64736f6c634300080f0033",
  "linkReferences": {},
  "deployedLinkReferences": {}
}