{
  "_format": "hh-sol-artifact-1",
  "contractName": "FarmBLB",
  "sourceName": "contracts/StakePool/FarmBLB.sol",
  "abi": [
    {
      "inputs": [
        {
          "internalType": "contract IERC20",
          "name": "_BUSD",
          "type": "address"
        },
        {
          "internalType": "contract IERC20",
          "name": "_BLB",
          "type": "address"
        },
        {
          "internalType": "address",
          "name": "blbSwap",
          "type": "address"
        },
        {
          "internalType": "uint256[]",
          "name": "_investPlanAmounts_",
          "type": "uint256[]"
        },
        {
          "internalType": "uint256[]",
          "name": "_investPlanProfits_",
          "type": "uint256[]"
        }
      ],
      "stateMutability": "nonpayable",
      "type": "constructor"
    },
    {
      "anonymous": false,
      "inputs": [
        {
          "indexed": true,
          "internalType": "address",
          "name": "previousOwner",
          "type": "address"
        },
        {
          "indexed": true,
          "internalType": "address",
          "name": "newOwner",
          "type": "address"
        }
      ],
      "name": "OwnershipTransferred",
      "type": "event"
    },
    {
      "anonymous": false,
      "inputs": [
        {
          "indexed": false,
          "internalType": "address",
          "name": "account",
          "type": "address"
        }
      ],
      "name": "Paused",
      "type": "event"
    },
    {
      "anonymous": false,
      "inputs": [
        {
          "indexed": false,
          "internalType": "address",
          "name": "account",
          "type": "address"
        }
      ],
      "name": "Unpaused",
      "type": "event"
    },
    {
      "inputs": [],
      "name": "BLB",
      "outputs": [
        {
          "internalType": "contract IERC20",
          "name": "",
          "type": "address"
        }
      ],
      "stateMutability": "view",
      "type": "function"
    },
    {
      "inputs": [],
      "name": "BLBSwap",
      "outputs": [
        {
          "internalType": "contract IBLBSwap",
          "name": "",
          "type": "address"
        }
      ],
      "stateMutability": "view",
      "type": "function"
    },
    {
      "inputs": [
        {
          "internalType": "uint256",
          "name": "amountBNB",
          "type": "uint256"
        }
      ],
      "name": "BLBsForBNB",
      "outputs": [
        {
          "internalType": "uint256",
          "name": "",
          "type": "uint256"
        }
      ],
      "stateMutability": "view",
      "type": "function"
    },
    {
      "inputs": [
        {
          "internalType": "uint256",
          "name": "amountBUSD",
          "type": "uint256"
        }
      ],
      "name": "BLBsForUSD",
      "outputs": [
        {
          "internalType": "uint256",
          "name": "",
          "type": "uint256"
        }
      ],
      "stateMutability": "view",
      "type": "function"
    },
    {
      "inputs": [],
      "name": "BUSD",
      "outputs": [
        {
          "internalType": "contract IERC20",
          "name": "",
          "type": "address"
        }
      ],
      "stateMutability": "view",
      "type": "function"
    },
    {
      "inputs": [
        {
          "internalType": "uint256",
          "name": "amountBUSD",
          "type": "uint256"
        }
      ],
      "name": "buyAndStake",
      "outputs": [],
      "stateMutability": "payable",
      "type": "function"
    },
    {
      "inputs": [
        {
          "internalType": "address",
          "name": "_BLBSwap",
          "type": "address"
        }
      ],
      "name": "changeBLBSwap",
      "outputs": [],
      "stateMutability": "nonpayable",
      "type": "function"
    },
    {
      "inputs": [],
      "name": "checkpoints",
      "outputs": [
        {
          "components": [
            {
              "internalType": "uint256",
              "name": "passTime",
              "type": "uint256"
            },
            {
              "internalType": "uint256",
              "name": "saveDeposit",
              "type": "uint256"
            },
            {
              "internalType": "uint256",
              "name": "saveProfit",
              "type": "uint256"
            }
          ],
          "internalType": "struct FarmBLB.Checkpoint",
          "name": "checkpoint1_",
          "type": "tuple"
        },
        {
          "components": [
            {
              "internalType": "uint256",
              "name": "passTime",
              "type": "uint256"
            },
            {
              "internalType": "uint256",
              "name": "saveDeposit",
              "type": "uint256"
            },
            {
              "internalType": "uint256",
              "name": "saveProfit",
              "type": "uint256"
            }
          ],
          "internalType": "struct FarmBLB.Checkpoint",
          "name": "checkpoint2_",
          "type": "tuple"
        },
        {
          "components": [
            {
              "internalType": "uint256",
              "name": "passTime",
              "type": "uint256"
            },
            {
              "internalType": "uint256",
              "name": "saveDeposit",
              "type": "uint256"
            },
            {
              "internalType": "uint256",
              "name": "saveProfit",
              "type": "uint256"
            }
          ],
          "internalType": "struct FarmBLB.Checkpoint",
          "name": "checkpoint3_",
          "type": "tuple"
        }
      ],
      "stateMutability": "view",
      "type": "function"
    },
    {
      "inputs": [
        {
          "internalType": "uint256",
          "name": "investmentId",
          "type": "uint256"
        }
      ],
      "name": "claimById",
      "outputs": [],
      "stateMutability": "nonpayable",
      "type": "function"
    },
    {
      "inputs": [
        {
          "internalType": "address",
          "name": "investor",
          "type": "address"
        },
        {
          "internalType": "uint256",
          "name": "investmentId",
          "type": "uint256"
        }
      ],
      "name": "claimable",
      "outputs": [
        {
          "internalType": "uint256",
          "name": "amountBLB",
          "type": "uint256"
        }
      ],
      "stateMutability": "view",
      "type": "function"
    },
    {
      "inputs": [
        {
          "internalType": "address",
          "name": "investor",
          "type": "address"
        },
        {
          "internalType": "uint256",
          "name": "investmentId",
          "type": "uint256"
        }
      ],
      "name": "investmentPayments",
      "outputs": [
        {
          "components": [
            {
              "internalType": "uint256",
              "name": "amountBLB",
              "type": "uint256"
            },
            {
              "internalType": "uint256",
              "name": "amountUSD",
              "type": "uint256"
            },
            {
              "internalType": "uint256",
              "name": "monthId",
              "type": "uint256"
            },
            {
              "internalType": "uint256",
              "name": "monthlyProfitBLB",
              "type": "uint256"
            }
          ],
          "internalType": "struct FarmBLB.Payment[]",
          "name": "_payments_",
          "type": "tuple[]"
        }
      ],
      "stateMutability": "view",
      "type": "function"
    },
    {
      "inputs": [
        {
          "internalType": "address",
          "name": "borrower",
          "type": "address"
        },
        {
          "internalType": "uint256",
          "name": "amount",
          "type": "uint256"
        }
      ],
      "name": "loanBLB",
      "outputs": [],
      "stateMutability": "nonpayable",
      "type": "function"
    },
    {
      "inputs": [],
      "name": "minStakeTime",
      "outputs": [
        {
          "internalType": "uint256",
          "name": "",
          "type": "uint256"
        }
      ],
      "stateMutability": "view",
      "type": "function"
    },
    {
      "inputs": [
        {
          "internalType": "uint256",
          "name": "amountBLB",
          "type": "uint256"
        },
        {
          "internalType": "uint256",
          "name": "amountUSD",
          "type": "uint256"
        }
      ],
      "name": "monthlyProfit",
      "outputs": [
        {
          "internalType": "uint256",
          "name": "profitBLB",
          "type": "uint256"
        }
      ],
      "stateMutability": "view",
      "type": "function"
    },
    {
      "inputs": [
        {
          "internalType": "uint256",
          "name": "amountBLB",
          "type": "uint256"
        }
      ],
      "name": "newInvestment",
      "outputs": [],
      "stateMutability": "nonpayable",
      "type": "function"
    },
    {
      "inputs": [],
      "name": "owner",
      "outputs": [
        {
          "internalType": "address",
          "name": "",
          "type": "address"
        }
      ],
      "stateMutability": "view",
      "type": "function"
    },
    {
      "inputs": [],
      "name": "pause",
      "outputs": [],
      "stateMutability": "nonpayable",
      "type": "function"
    },
    {
      "inputs": [],
      "name": "paused",
      "outputs": [
        {
          "internalType": "bool",
          "name": "",
          "type": "bool"
        }
      ],
      "stateMutability": "view",
      "type": "function"
    },
    {
      "inputs": [
        {
          "internalType": "address",
          "name": "user",
          "type": "address"
        },
        {
          "internalType": "uint256",
          "name": "amount",
          "type": "uint256"
        }
      ],
      "name": "pay",
      "outputs": [],
      "stateMutability": "nonpayable",
      "type": "function"
    },
    {
      "inputs": [
        {
          "internalType": "address[]",
          "name": "users",
          "type": "address[]"
        },
        {
          "internalType": "uint256[]",
          "name": "amounts",
          "type": "uint256[]"
        }
      ],
      "name": "payBatch",
      "outputs": [],
      "stateMutability": "nonpayable",
      "type": "function"
    },
    {
      "inputs": [
        {
          "internalType": "uint256",
          "name": "amountBUSD",
          "type": "uint256"
        }
      ],
      "name": "payToOwner",
      "outputs": [],
      "stateMutability": "payable",
      "type": "function"
    },
    {
      "inputs": [
        {
          "internalType": "address",
          "name": "investor",
          "type": "address"
        }
      ],
      "name": "pendingWithdrawal",
      "outputs": [
        {
          "internalType": "uint256",
          "name": "total",
          "type": "uint256"
        }
      ],
      "stateMutability": "view",
      "type": "function"
    },
    {
      "inputs": [
        {
          "internalType": "address",
          "name": "investor",
          "type": "address"
        },
        {
          "internalType": "uint256",
          "name": "investmentId",
          "type": "uint256"
        }
      ],
      "name": "pendingWithdrawalById",
      "outputs": [
        {
          "internalType": "uint256",
          "name": "",
          "type": "uint256"
        }
      ],
      "stateMutability": "view",
      "type": "function"
    },
    {
      "inputs": [],
      "name": "plans",
      "outputs": [
        {
          "internalType": "uint256[]",
          "name": "_investPlanAmounts_",
          "type": "uint256[]"
        },
        {
          "internalType": "uint256[]",
          "name": "_investPlanProfits_",
          "type": "uint256[]"
        }
      ],
      "stateMutability": "view",
      "type": "function"
    },
    {
      "inputs": [
        {
          "internalType": "address",
          "name": "investor",
          "type": "address"
        },
        {
          "internalType": "uint256",
          "name": "investmentId",
          "type": "uint256"
        }
      ],
      "name": "releaseTime",
      "outputs": [
        {
          "internalType": "uint256",
          "name": "",
          "type": "uint256"
        }
      ],
      "stateMutability": "view",
      "type": "function"
    },
    {
      "inputs": [],
      "name": "renounceOwnership",
      "outputs": [],
      "stateMutability": "nonpayable",
      "type": "function"
    },
    {
      "inputs": [
        {
          "internalType": "uint256",
          "name": "passTime1",
          "type": "uint256"
        },
        {
          "internalType": "uint256",
          "name": "saveDeposit1",
          "type": "uint256"
        },
        {
          "internalType": "uint256",
          "name": "saveProfit1",
          "type": "uint256"
        },
        {
          "internalType": "uint256",
          "name": "passTime2",
          "type": "uint256"
        },
        {
          "internalType": "uint256",
          "name": "saveDeposit2",
          "type": "uint256"
        },
        {
          "internalType": "uint256",
          "name": "saveProfit2",
          "type": "uint256"
        },
        {
          "internalType": "uint256",
          "name": "passTime3",
          "type": "uint256"
        },
        {
          "internalType": "uint256",
          "name": "saveDeposit3",
          "type": "uint256"
        },
        {
          "internalType": "uint256",
          "name": "saveProfit3",
          "type": "uint256"
        }
      ],
      "name": "setCheckpoints",
      "outputs": [],
      "stateMutability": "nonpayable",
      "type": "function"
    },
    {
      "inputs": [
        {
          "internalType": "uint256[]",
          "name": "_investPlanAmounts_",
          "type": "uint256[]"
        },
        {
          "internalType": "uint256[]",
          "name": "_investPlanProfits_",
          "type": "uint256[]"
        }
      ],
      "name": "setInvestPlans",
      "outputs": [],
      "stateMutability": "nonpayable",
      "type": "function"
    },
    {
      "inputs": [
        {
          "internalType": "uint256",
          "name": "_minStakeTime",
          "type": "uint256"
        }
      ],
      "name": "setMinStakeTime",
      "outputs": [],
      "stateMutability": "nonpayable",
      "type": "function"
    },
    {
      "inputs": [
        {
          "internalType": "uint256",
          "name": "addingAmount",
          "type": "uint256"
        },
        {
          "internalType": "uint256",
          "name": "investmentId",
          "type": "uint256"
        }
      ],
      "name": "topUp",
      "outputs": [],
      "stateMutability": "nonpayable",
      "type": "function"
    },
    {
      "inputs": [
        {
          "internalType": "uint256",
          "name": "amountBUSD",
          "type": "uint256"
        },
        {
          "internalType": "uint256",
          "name": "investmentId",
          "type": "uint256"
        }
      ],
      "name": "topUpPayable",
      "outputs": [],
      "stateMutability": "payable",
      "type": "function"
    },
    {
      "inputs": [],
      "name": "totalDepositBLB",
      "outputs": [
        {
          "internalType": "uint256",
          "name": "",
          "type": "uint256"
        }
      ],
      "stateMutability": "view",
      "type": "function"
    },
    {
      "inputs": [
        {
          "internalType": "address",
          "name": "newOwner",
          "type": "address"
        }
      ],
      "name": "transferOwnership",
      "outputs": [],
      "stateMutability": "nonpayable",
      "type": "function"
    },
    {
      "inputs": [],
      "name": "unpause",
      "outputs": [],
      "stateMutability": "nonpayable",
      "type": "function"
    },
    {
      "inputs": [
        {
          "internalType": "address",
          "name": "investor",
          "type": "address"
        }
      ],
      "name": "userInvestments",
      "outputs": [
        {
          "components": [
            {
              "internalType": "uint256",
              "name": "start",
              "type": "uint256"
            },
            {
              "internalType": "uint256",
              "name": "end",
              "type": "uint256"
            },
            {
              "internalType": "uint256",
              "name": "claimedMonth",
              "type": "uint256"
            },
            {
              "internalType": "uint256",
              "name": "claimedBLB",
              "type": "uint256"
            },
            {
              "internalType": "uint256",
              "name": "withdrawTime",
              "type": "uint256"
            },
            {
              "internalType": "uint256",
              "name": "amountBLB",
              "type": "uint256"
            },
            {
              "internalType": "uint256",
              "name": "amountUSD",
              "type": "uint256"
            },
            {
              "internalType": "uint256",
              "name": "monthId",
              "type": "uint256"
            },
            {
              "internalType": "uint256",
              "name": "monthlyProfitBLB",
              "type": "uint256"
            },
            {
              "internalType": "uint256",
              "name": "claimable",
              "type": "uint256"
            }
          ],
          "internalType": "struct FarmBLB.InvestInfo[]",
          "name": "_investments_",
          "type": "tuple[]"
        }
      ],
      "stateMutability": "view",
      "type": "function"
    },
    {
      "inputs": [
        {
          "internalType": "address",
          "name": "investor",
          "type": "address"
        }
      ],
      "name": "userTotalStake",
      "outputs": [
        {
          "internalType": "uint256",
          "name": "totalStake",
          "type": "uint256"
        }
      ],
      "stateMutability": "view",
      "type": "function"
    },
    {
      "inputs": [
        {
          "internalType": "address",
          "name": "investor",
          "type": "address"
        }
      ],
      "name": "userTotalStakeUSD",
      "outputs": [
        {
          "internalType": "uint256",
          "name": "totalStake",
          "type": "uint256"
        }
      ],
      "stateMutability": "view",
      "type": "function"
    },
    {
      "inputs": [
        {
          "internalType": "uint256",
          "name": "investmentId",
          "type": "uint256"
        }
      ],
      "name": "withdraw",
      "outputs": [],
      "stateMutability": "nonpayable",
      "type": "function"
    }
  ],
  "bytecode": "0x60806040523480156200001157600080fd5b5060405162003ef238038062003ef2833981016040819052620000349162000664565b6200003f33620000bf565b6000805460ff60a01b19168155600180546001600160a01b038089166001600160a01b0319928316179092556002805488841690831617905560038054928716929091169190911790556301da9c00601255620000a8906050816032606482848260286200010f565b620000b48282620002d0565b505050505062000773565b600080546001600160a01b038381166001600160a01b0319831681178455604051919092169283917f8be0079c531659141344cd1fd0a4f28419497f9722a3daafe3b4186f6b6457e09190a35050565b62000119620004cc565b85891080156200012857508286105b620001895760405162461bcd60e51b815260206004820152602660248201527f506173732054696d6573206d75737420626520696e6372656173696e6720696e604482015265206120726f7760d01b60648201526084015b60405180910390fd5b8488111580156200019a5750818511155b620001ee5760405162461bcd60e51b815260206004820152602e602482015260008051602062003ed283398151915260448201526d6173696e6720696e206120726f7760901b606482015260840162000180565b838711158015620001ff5750808411155b620002535760405162461bcd60e51b815260206004820152602e602482015260008051602062003ed283398151915260448201526d6173696e6720696e206120726f7760901b606482015260840162000180565b60408051606080820183528b825260208083018c90529183018a905260079b909b556008999099556009979097558651808a0188528681528089018690528701849052600a95909555600b93909355600c919091558351958601845280865293850181905293909101819052600d91909155600e91909155600f55565b620002da620004cc565b8151815181146200032e5760405162461bcd60e51b815260206004820152601a60248201527f617272617973206c656e677468206d7573742062652073616d65000000000000604482015260640162000180565b60015b818110156200049a57836200034860018362000725565b815181106200035b576200035b62000741565b602002602001015184828151811062000378576200037862000741565b602002602001015111620003db5760405162461bcd60e51b815260206004820152602360248201527f616d6f756e7473206d75737420626520696e6372656173696e6720696e206120604482015262726f7760e81b606482015260840162000180565b82620003e960018362000725565b81518110620003fc57620003fc62000741565b602002602001015183828151811062000419576200041962000741565b60200260200101511015620004855760405162461bcd60e51b815260206004820152602b60248201527f70726f66697473206d7573742062652073616d65206f7220696e63726561736960448201526a6e6720696e206120726f7760a81b606482015260840162000180565b80620004918162000757565b91505062000331565b508251620004b09060109060208601906200052a565b508151620004c69060119060208501906200052a565b50505050565b6000546001600160a01b03163314620005285760405162461bcd60e51b815260206004820181905260248201527f4f776e61626c653a2063616c6c6572206973206e6f7420746865206f776e6572604482015260640162000180565b565b82805482825590600052602060002090810192821562000568579160200282015b82811115620005685782518255916020019190600101906200054b565b50620005769291506200057a565b5090565b5b808211156200057657600081556001016200057b565b6001600160a01b0381168114620005a757600080fd5b50565b634e487b7160e01b600052604160045260246000fd5b600082601f830112620005d257600080fd5b815160206001600160401b0380831115620005f157620005f1620005aa565b8260051b604051601f19603f83011681018181108482111715620006195762000619620005aa565b6040529384528581018301938381019250878511156200063857600080fd5b83870191505b8482101562000659578151835291830191908301906200063e565b979650505050505050565b600080600080600060a086880312156200067d57600080fd5b85516200068a8162000591565b60208701519095506200069d8162000591565b6040870151909450620006b08162000591565b60608701519093506001600160401b0380821115620006ce57600080fd5b620006dc89838a01620005c0565b93506080880151915080821115620006f357600080fd5b506200070288828901620005c0565b9150509295509295909350565b634e487b7160e01b600052601160045260246000fd5b818103818111156200073b576200073b6200070f565b92915050565b634e487b7160e01b600052603260045260246000fd5b6000600182016200076c576200076c6200070f565b5060010190565b61374f80620007836000396000f3fe6080604052600436106102255760003560e01c806388f8916911610123578063c4076876116100ab578063df72083f1161006f578063df72083f14610698578063e753f5ac146106b8578063f2fde38b146106d8578063fcd826d4146106f8578063fe22f4cc1461071857600080fd5b8063c407687614610605578063d182a16a14610625578063d3399e0014610638578063de643a7114610658578063df4eafd41461067857600080fd5b8063af635ad0116100f2578063af635ad014610558578063b023eba514610578578063bc07d85c146105a5578063becf7741146105c5578063bfa54b3f146105e557600080fd5b806388f89169146104cd5780638da5cb5b146104ed5780639150764c1461050b578063a2fa0c751461053857600080fd5b8063538e4f36116101b15780635fd03331116101755780635fd033311461044057806360efe3341461046057806364eb1b2114610480578063715018a6146104a35780638456cb59146104b857600080fd5b8063538e4f361461034b578063598d519b1461036b5780635a48c0b01461038b5780635b91c512146103f65780635c975abb1461041657600080fd5b80633f4ba83a116101f85780633f4ba83a146102ab578063407ac4b2146102c05780634668d866146102d3578063484f4ea9146102f35780634983c3ab1461032b57600080fd5b80630964c95b1461022a5780630c736b351461025d5780631f7678ce146102735780632e1a7d4d14610289575b600080fd5b34801561023657600080fd5b5061024a6102453660046130f4565b61072b565b6040519081526020015b60405180910390f35b34801561026957600080fd5b5061024a60045481565b34801561027f57600080fd5b5061024a60125481565b34801561029557600080fd5b506102a96102a4366004613116565b61077d565b005b3480156102b757600080fd5b506102a96109ab565b6102a96102ce366004613116565b6109bd565b3480156102df57600080fd5b506102a96102ee36600461312f565b610aa8565b3480156102ff57600080fd5b50600154610313906001600160a01b031681565b6040516001600160a01b039091168152602001610254565b34801561033757600080fd5b5061024a61034636600461318e565b610bee565b34801561035757600080fd5b506102a9610366366004613204565b610c33565b34801561037757600080fd5b5061024a6103863660046130f4565b610d5e565b34801561039757600080fd5b506103a0610e28565b6040805184518152602080860151818301529482015181830152835160608201528484015160808201529281015160a0840152815160c08401529281015160e08301529091015161010082015261012001610254565b34801561040257600080fd5b5061024a6104113660046130f4565b610efb565b34801561042257600080fd5b50600054600160a01b900460ff166040519015158152602001610254565b34801561044c57600080fd5b5061024a61045b366004613116565b610fbd565b34801561046c57600080fd5b5061024a61047b36600461318e565b61102c565b34801561048c57600080fd5b506104956111ee565b6040516102549291906132ab565b3480156104af57600080fd5b506102a961129b565b3480156104c457600080fd5b506102a96112ad565b3480156104d957600080fd5b506102a96104e8366004613116565b6112bd565b3480156104f957600080fd5b506000546001600160a01b0316610313565b34801561051757600080fd5b5061052b61052636600461318e565b61150c565b60405161025491906132d9565b34801561054457600080fd5b506102a961055336600461318e565b6115b2565b34801561056457600080fd5b506102a96105733660046133ee565b611637565b34801561058457600080fd5b506105986105933660046130f4565b611813565b6040516102549190613452565b3480156105b157600080fd5b5061024a6105c0366004613116565b611b52565b3480156105d157600080fd5b506102a96105e0366004613116565b611b84565b3480156105f157600080fd5b50600254610313906001600160a01b031681565b34801561061157600080fd5b506102a961062036600461318e565b611de4565b6102a9610633366004613116565b611e18565b34801561064457600080fd5b506102a96106533660046130f4565b6121ce565b34801561066457600080fd5b506102a96106733660046134e8565b6121f8565b34801561068457600080fd5b506102a9610693366004613116565b61252c565b3480156106a457600080fd5b5061024a6106b336600461318e565b612539565b3480156106c457600080fd5b50600354610313906001600160a01b031681565b3480156106e457600080fd5b506102a96106f33660046130f4565b612856565b34801561070457600080fd5b5061024a6107133660046134e8565b6128cc565b6102a96107263660046134e8565b6129b9565b6001600160a01b038116600090815260056020526040812054815b81811015610776576107588482612539565b6107629084613520565b92508061076e81613533565b915050610746565b5050919050565b3360008181526005602052604090205482106107b45760405162461bcd60e51b81526004016107ab9061354c565b60405180910390fd5b6001600160a01b03811660009081526005602052604081208054849081106107de576107de61357a565b906000526020600020906005020190506107f783611b84565b60006108038385612539565b9050600081116108555760405162461bcd60e51b815260206004820152601e60248201527f5374616b65506f6f6c3a206e6f7468696e6720746f207769746864726177000060448201526064016107ab565b426004838101919091556002546040516370a0823160e01b8152309281019290925282916001600160a01b03909116906370a0823190602401602060405180830381865afa1580156108ab573d6000803e3d6000fd5b505050506040513d601f19601f820116820180604052508101906108cf9190613590565b1161092d5760405162461bcd60e51b815260206004820152602860248201527f696e73756666696369656e7420424c422062616c616e636520696e207468652060448201526718dbdb9d1c9858dd60c21b60648201526084016107ab565b60025460405163a9059cbb60e01b81526001600160a01b038581166004830152602482018490529091169063a9059cbb906044016020604051808303816000875af1158015610980573d6000803e3d6000fd5b505050506040513d601f19601f820116820180604052508101906109a491906135a9565b5050505050565b6109b3612e99565b6109bb612ef3565b565b8015610a6b5734156109e15760405162461bcd60e51b81526004016107ab906135cb565b6001546001600160a01b03166323b872dd33610a056000546001600160a01b031690565b846040518463ffffffff1660e01b8152600401610a249392919061361a565b6020604051808303816000875af1158015610a43573d6000803e3d6000fd5b505050506040513d601f19601f82011682018060405250810190610a6791906135a9565b5050565b600080546040516001600160a01b03909116913480156108fc02929091818181858888f19350505050158015610a67573d6000803e3d6000fd5b50565b610ab0612e99565b8589108015610abe57508286105b610b195760405162461bcd60e51b815260206004820152602660248201527f506173732054696d6573206d75737420626520696e6372656173696e6720696e604482015265206120726f7760d01b60648201526084016107ab565b848811158015610b295750818511155b610b455760405162461bcd60e51b81526004016107ab9061363e565b838711158015610b555750808411155b610b715760405162461bcd60e51b81526004016107ab9061363e565b60408051606080820183528b825260208083018c90529183018a905260079b909b556008999099556009979097558651808a0188528681528089018690528701849052600a95909555600b93909355600c919091558351958601845280865293850181905293909101819052600d91909155600e91909155600f55565b6001600160a01b0382166000908152600560205260408120805483908110610c1857610c1861357a565b90600052602060002090600502016001015490505b92915050565b82818114610c835760405162461bcd60e51b815260206004820152601c60248201527f4c69737473206d7573742062652073616d6520696e206c656e6774680000000060448201526064016107ab565b3360005b82811015610d55576002546001600160a01b03166323b872dd83898985818110610cb357610cb361357a565b9050602002016020810190610cc891906130f4565b888886818110610cda57610cda61357a565b905060200201356040518463ffffffff1660e01b8152600401610cff9392919061361a565b6020604051808303816000875af1158015610d1e573d6000803e3d6000fd5b505050506040513d601f19601f82011682018060405250810190610d4291906135a9565b5080610d4d81613533565b915050610c87565b50505050505050565b6001600160a01b03811660009081526005602052604081208054825b81811015610e2057828181548110610d9457610d9461357a565b906000526020600020906005020160040154600003610e0e576001600160a01b038516600090815260066020908152604080832084845290915290208054610dde9060019061368c565b81548110610dee57610dee61357a565b90600052602060002090600402016001015484610e0b9190613520565b93505b80610e1881613533565b915050610d7a565b505050919050565b610e4c60405180606001604052806000815260200160008152602001600081525090565b610e7060405180606001604052806000815260200160008152602001600081525090565b610e9460405180606001604052806000815260200160008152602001600081525090565b5050604080516060808201835260075482526008546020808401919091526009548385015283518083018552600a548152600b5481830152600c548186015284519283018552600d548352600e5491830191909152600f5493820193909352909391925090565b6001600160a01b03811660009081526005602052604081208054825b81811015610e2057828181548110610f3157610f3161357a565b906000526020600020906005020160040154600003610fab576001600160a01b038516600090815260066020908152604080832084845290915290208054610f7b9060019061368c565b81548110610f8b57610f8b61357a565b90600052602060002090600402016000015484610fa89190613520565b93505b80610fb581613533565b915050610f17565b600354604051635fd0333160e01b8152600481018390526000916001600160a01b031690635fd03331906024015b602060405180830381865afa158015611008573d6000803e3d6000fd5b505050506040513d601f19601f82011682018060405250810190610c2d9190613590565b6001600160a01b03821660009081526005602052604081205482106110635760405162461bcd60e51b81526004016107ab9061354c565b6001600160a01b038316600090815260056020526040812080548490811061108d5761108d61357a565b9060005260206000209060050201905080600401546000146110b3576000915050610c2d565b8054429060009062278d00906110c9908461368c565b6110d3919061369f565b60028401546001600160a01b03881660009081526006602090815260408083208a8452909152812054929350909161110d9060019061368c565b9050825b828111156111e2575b6001600160a01b03891660009081526006602090815260408083208b845290915290208054829190849081106111525761115261357a565b906000526020600020906004020160020154111561117c5781611174816136c1565b92505061111a565b6001600160a01b03891660009081526006602090815260408083208b845290915290208054839081106111b1576111b161357a565b906000526020600020906004020160030154876111ce9190613520565b9650806111da816136c1565b915050611111565b50505050505092915050565b606080601080548060200260200160405190810160405280929190818152602001828054801561123d57602002820191906000526020600020905b815481526020019060010190808311611229575b50505050509150601180548060200260200160405190810160405280929190818152602001828054801561129057602002820191906000526020600020905b81548152602001906001019080831161127c575b505050505090509091565b6112a3612e99565b6109bb6000612f48565b6112b5612e99565b6109bb612f98565b6112c5612fdb565b601254334260006112d68483613520565b600354604051632f01f61760e21b8152670de0b6b3a764000060048201529192506000916001600160a01b039091169063bc07d85c90602401602060405180830381865afa15801561132c573d6000803e3d6000fd5b505050506040513d601f19601f820116820180604052508101906113509190613590565b61136287670de0b6b3a76400006136d8565b61136c919061369f565b6002546040516323b872dd60e01b81529192506001600160a01b0316906323b872dd906113a190879030908b9060040161361a565b6020604051808303816000875af11580156113c0573d6000803e3d6000fd5b505050506040513d601f19601f820116820180604052508101906113e491906135a9565b506001600160a01b0384166000818152600560208181526040808420815160a0810183528981528084018981528184018781526060830188815260808401898152855460018181018855878c52898c209651918b02909601908155935184860155915160028401555160038301555160049091015595855260068352908420929091525490926114739161368c565b81526020019081526020016000206040518060800160405280888152602001838152602001600181526020016114a989856128cc565b9052815460018181018455600093845260208085208451600494850290910190815590840151918101919091556040830151600282015560609092015160039092019190915580548892906114ff908490613520565b9091555050505050505050565b6001600160a01b03821660009081526006602090815260408083208484528252808320805482518185028101850190935280835260609492939192909184015b828210156115a657838290600052602060002090600402016040518060800160405290816000820154815260200160018201548152602001600282015481526020016003820154815250508152602001906001019061154c565b50505050905092915050565b6115ba612e99565b60025460405163a9059cbb60e01b81526001600160a01b038481166004830152602482018490529091169063a9059cbb906044015b6020604051808303816000875af115801561160e573d6000803e3d6000fd5b505050506040513d601f19601f8201168201806040525081019061163291906135a9565b505050565b61163f612e99565b8151815181146116915760405162461bcd60e51b815260206004820152601a60248201527f617272617973206c656e677468206d7573742062652073616d6500000000000060448201526064016107ab565b60015b818110156117e557836116a860018361368c565b815181106116b8576116b861357a565b60200260200101518482815181106116d2576116d261357a565b6020026020010151116117335760405162461bcd60e51b815260206004820152602360248201527f616d6f756e7473206d75737420626520696e6372656173696e6720696e206120604482015262726f7760e81b60648201526084016107ab565b8261173f60018361368c565b8151811061174f5761174f61357a565b60200260200101518382815181106117695761176961357a565b602002602001015110156117d35760405162461bcd60e51b815260206004820152602b60248201527f70726f66697473206d7573742062652073616d65206f7220696e63726561736960448201526a6e6720696e206120726f7760a81b60648201526084016107ab565b806117dd81613533565b915050611694565b5082516117f9906010906020860190613078565b50815161180d906011906020850190613078565b50505050565b6001600160a01b0381166000908152600560209081526040808320805482518185028101850190935280835260609493849084015b828210156118ac57838290600052602060002090600502016040518060a00160405290816000820154815260200160018201548152602001600282015481526020016003820154815260200160048201548152505081526020019060010190611848565b505050506001600160a01b0384166000908152600560205260409020549091508067ffffffffffffffff8111156118e5576118e561333d565b60405190808252806020026020018201604052801561196c57816020015b611959604051806101400160405280600081526020016000815260200160008152602001600081526020016000815260200160008152602001600081526020016000815260200160008152602001600081525090565b8152602001906001900390816119035790505b50925061199a6040518060800160405280600081526020016000815260200160008152602001600081525090565b60005b82811015611b49576001600160a01b0386166000908152600660209081526040808320848452909152902080546119d69060019061368c565b815481106119e6576119e661357a565b90600052602060002090600402016040518060800160405290816000820154815260200160018201548152602001600282015481526020016003820154815250509150604051806101400160405280858381518110611a4757611a4761357a565b6020026020010151600001518152602001858381518110611a6a57611a6a61357a565b6020026020010151602001518152602001858381518110611a8d57611a8d61357a565b6020026020010151604001518152602001858381518110611ab057611ab061357a565b6020026020010151606001518152602001858381518110611ad357611ad361357a565b602002602001015160800151815260200183600001518152602001836020015181526020018360400151815260200183606001518152602001611b16888461102c565b815250858281518110611b2b57611b2b61357a565b60200260200101819052508080611b4190613533565b91505061199d565b50505050919050565b600354604051632f01f61760e21b8152600481018390526000916001600160a01b03169063bc07d85c90602401610feb565b336000818152600560205260408120548310611bb25760405162461bcd60e51b81526004016107ab9061354c565b6001600160a01b0382166000908152600560205260408120805485908110611bdc57611bdc61357a565b906000526020600020906005020190508060040154600014611c105760405162461bcd60e51b81526004016107ab906136ef565b8054429060009062278d0090611c26908461368c565b611c30919061369f565b60028401546001600160a01b03871660009081526006602090815260408083208b84529091528120549293509091611c6a9060019061368c565b9050825b82811115611d3f575b6001600160a01b03881660009081526006602090815260408083208c84529091529020805482919084908110611caf57611caf61357a565b9060005260206000209060040201600201541115611cd95781611cd1816136c1565b925050611c77565b6001600160a01b03881660009081526006602090815260408083208c84529091529020805483908110611d0e57611d0e61357a565b90600052602060002090600402016003015487611d2b9190613520565b965080611d37816136c1565b915050611c6e565b5082856002018190555085856003016000828254611d5d9190613520565b909155505060025460405163a9059cbb60e01b81526001600160a01b038981166004830152602482018990529091169063a9059cbb906044016020604051808303816000875af1158015611db5573d6000803e3d6000fd5b505050506040513d601f19601f82011682018060405250810190611dd991906135a9565b505050505050505050565b6002546040516323b872dd60e01b81526001600160a01b03909116906323b872dd906115ef9033908690869060040161361a565b611e20612fdb565b601254336000808415611f4a573415611e4b5760405162461bcd60e51b81526004016107ab906135cb565b600354604051632f01f61760e21b8152600481018790526001600160a01b039091169063bc07d85c90602401602060405180830381865afa158015611e94573d6000803e3d6000fd5b505050506040513d601f19601f82011682018060405250810190611eb89190613590565b6001549092508591506001600160a01b03166323b872dd84611ee26000546001600160a01b031690565b886040518463ffffffff1660e01b8152600401611f019392919061361a565b6020604051808303816000875af1158015611f20573d6000803e3d6000fd5b505050506040513d601f19601f82011682018060405250810190611f4491906135a9565b50612095565b600354604051635fd0333160e01b81523460048201526001600160a01b0390911690635fd0333190602401602060405180830381865afa158015611f92573d6000803e3d6000fd5b505050506040513d601f19601f82011682018060405250810190611fb69190613590565b600354604051632f01f61760e21b8152670de0b6b3a764000060048201529193506001600160a01b03169063bc07d85c90602401602060405180830381865afa158015612007573d6000803e3d6000fd5b505050506040513d601f19601f8201168201806040525081019061202b9190613590565b61203d83670de0b6b3a76400006136d8565b612047919061369f565b905061205b6000546001600160a01b031690565b6001600160a01b03166108fc349081150290604051600060405180830381858888f19350505050158015612093573d6000803e3d6000fd5b505b4260006120a28683613520565b6001600160a01b0386166000818152600560208181526040808420815160a0810183528981528084018881528184018781526060830188815260808401898152855460018181018855878c52898c209651918b0290960190815593518486015591516002840155516003830155516004909101559585526006835290842092909152549394509290916121349161368c565b815260200190815260200160002060405180608001604052808681526020018581526020016001815260200161216a87876128cc565b9052815460018181018455600093845260208085208451600494850290910190815590840151918101919091556040830151600282015560609092015160039092019190915580548692906121c0908490613520565b909155505050505050505050565b6121d6612e99565b600380546001600160a01b0319166001600160a01b0392909216919091179055565b612200612fdb565b600354604051632f01f61760e21b8152670de0b6b3a76400006004820152339142916000916001600160a01b03169063bc07d85c90602401602060405180830381865afa158015612255573d6000803e3d6000fd5b505050506040513d601f19601f820116820180604052508101906122799190613590565b61228b86670de0b6b3a76400006136d8565b612295919061369f565b6001600160a01b038416600090815260056020526040812080549293509091869081106122c4576122c461357a565b600091825260208083206040805160a08101825260059490940290910180548452600180820154858501526002820154858401526003820154606086015260049091015460808501526001600160a01b0389168552600683528185208a86529092528320805492945091612338919061368c565b815481106123485761234861357a565b9060005260206000209060040201604051806080016040529081600082015481526020016001820154815260200160028201548152602001600382015481525050905081608001516000146123af5760405162461bcd60e51b81526004016107ab906136ef565b6002546040516323b872dd60e01b81526001600160a01b03909116906323b872dd906123e390889030908c9060040161361a565b6020604051808303816000875af1158015612402573d6000803e3d6000fd5b505050506040513d601f19601f8201168201806040525081019061242691906135a9565b50815160009062278d009061243b908761368c565b612445919061369f565b612450906002613520565b905060008883600001516124649190613520565b905060008584602001516124789190613520565b6001600160a01b03891660009081526006602090815260408083208d8452825291829020825160808101845286815291820184905291810186905291925090606081016124c585856128cc565b9052815460018181018455600093845260208085208451600494850290910190815590840151918101919091556040830151600282015560609092015160039092019190915580548c929061251b908490613520565b909155505050505050505050505050565b612534612e99565b601255565b6001600160a01b03821660009081526005602052604081208054829190849081106125665761256661357a565b600091825260208083206001600160a01b03881684526006825260408085208886528352808520805482518186028101860190935280835260059095029092019550929091849084015b8282101561260a5783829060005260206000209060040201604051806080016040529081600082015481526020016001820154815260200160028201548152602001600382015481525050815260200190600101906125b0565b50505050905060008160018351612621919061368c565b815181106126315761263161357a565b6020026020010151905082600401546000146126535760009350505050610c2d565b825460018401544291906000612669838361368c565b90506000600162278d0061267d868861368c565b612687919061369f565b61269462278d008561369f565b61269e919061368c565b6126a8919061368c565b865160038a0154606089015192935090916000906126c690856136d8565b8b600301546126d59190613520565b9050600080878a106126eb57508390508161281a565b88606488600d600001546126ff91906136d8565b612709919061369f565b6127139190613520565b8a1061275757600e5460649061272990876136d8565b612733919061369f565b600f5490925060649061274690856136d8565b612750919061369f565b905061281a565b88606488600a6000015461276b91906136d8565b612775919061369f565b61277f9190613520565b8a106127b257600b5460649061279590876136d8565b61279f919061369f565b600c5490925060649061274690856136d8565b886064886007600001546127c691906136d8565b6127d0919061369f565b6127da9190613520565b8a1061281a576008546064906127f090876136d8565b6127fa919061369f565b60095490925060649061280d90856136d8565b612817919061369f565b90505b60006128268284613520565b9050848111612836576000612840565b612840858261368c565b9e50505050505050505050505050505092915050565b61285e612e99565b6001600160a01b0381166128c35760405162461bcd60e51b815260206004820152602660248201527f4f776e61626c653a206e6577206f776e657220697320746865207a65726f206160448201526564647265737360d01b60648201526084016107ab565b610aa581612f48565b601054600090805b80156129615760106128e760018361368c565b815481106128f7576128f761357a565b9060005260206000200154841061294f57612710601161291860018461368c565b815481106129285761292861357a565b90600052602060002001548661293e91906136d8565b612948919061369f565b9250612961565b80612959816136c1565b9150506128d4565b50816000036129b25760405162461bcd60e51b815260206004820152601760248201527f6e6f20706c616e20666f72207468697320616d6f756e7400000000000000000060448201526064016107ab565b5092915050565b6129c1612fdb565b60008033428515612b33573415612a345760405162461bcd60e51b815260206004820152603160248201527f6e6f7420616c6c6f77656420746f20746f70557020696e204255534420616e6460448201527020424e4220696e2073616d652074696d6560781b60648201526084016107ab565b600354604051632f01f61760e21b8152600481018890526001600160a01b039091169063bc07d85c90602401602060405180830381865afa158015612a7d573d6000803e3d6000fd5b505050506040513d601f19601f82011682018060405250810190612aa19190613590565b6001549094508693506001600160a01b03166323b872dd83612acb6000546001600160a01b031690565b896040518463ffffffff1660e01b8152600401612aea9392919061361a565b6020604051808303816000875af1158015612b09573d6000803e3d6000fd5b505050506040513d601f19601f82011682018060405250810190612b2d91906135a9565b50612c7e565b600354604051635fd0333160e01b81523460048201526001600160a01b0390911690635fd0333190602401602060405180830381865afa158015612b7b573d6000803e3d6000fd5b505050506040513d601f19601f82011682018060405250810190612b9f9190613590565b600354604051632f01f61760e21b8152670de0b6b3a764000060048201529195506001600160a01b03169063bc07d85c90602401602060405180830381865afa158015612bf0573d6000803e3d6000fd5b505050506040513d601f19601f82011682018060405250810190612c149190613590565b612c2685670de0b6b3a76400006136d8565b612c30919061369f565b9250612c446000546001600160a01b031690565b6001600160a01b03166108fc349081150290604051600060405180830381858888f19350505050158015612c7c573d6000803e3d6000fd5b505b6001600160a01b0382166000908152600560205260408120805487908110612ca857612ca861357a565b600091825260208083206040805160a08101825260059490940290910180548452600180820154858501526002820154858401526003820154606086015260049091015460808501526001600160a01b0388168552600683528185208b86529092528320805492945091612d1c919061368c565b81548110612d2c57612d2c61357a565b906000526020600020906004020160405180608001604052908160008201548152602001600182015481526020016002820154815260200160038201548152505090508160800151600014612d935760405162461bcd60e51b81526004016107ab906136ef565b815160009062278d0090612da7908661368c565b612db1919061369f565b612dbc906002613520565b90506000878360000151612dd09190613520565b90506000878460200151612de49190613520565b6001600160a01b03881660009081526006602090815260408083208e845282529182902082516080810184528681529182018490529181018690529192509060608101612e3185856128cc565b9052815460018181018455600093845260208085208451600494850290910190815590840151918101919091556040830151600282015560609092015160039092019190915580548b9290612e87908490613520565b90915550505050505050505050505050565b6000546001600160a01b031633146109bb5760405162461bcd60e51b815260206004820181905260248201527f4f776e61626c653a2063616c6c6572206973206e6f7420746865206f776e657260448201526064016107ab565b612efb613028565b6000805460ff60a01b191690557f5db9ee0a495bf2e6ff9c91a7834c1ba4fdd244a5e8aa4e537bd38aeae4b073aa335b6040516001600160a01b03909116815260200160405180910390a1565b600080546001600160a01b038381166001600160a01b0319831681178455604051919092169283917f8be0079c531659141344cd1fd0a4f28419497f9722a3daafe3b4186f6b6457e09190a35050565b612fa0612fdb565b6000805460ff60a01b1916600160a01b1790557f62e78cea01bee320cd4e420270b5ea74000d11b0c9f74754ebdbfc544b05a258612f2b3390565b600054600160a01b900460ff16156109bb5760405162461bcd60e51b815260206004820152601060248201526f14185d5cd8589b194e881c185d5cd95960821b60448201526064016107ab565b600054600160a01b900460ff166109bb5760405162461bcd60e51b815260206004820152601460248201527314185d5cd8589b194e881b9bdd081c185d5cd95960621b60448201526064016107ab565b8280548282559060005260206000209081019282156130b3579160200282015b828111156130b3578251825591602001919060010190613098565b506130bf9291506130c3565b5090565b5b808211156130bf57600081556001016130c4565b80356001600160a01b03811681146130ef57600080fd5b919050565b60006020828403121561310657600080fd5b61310f826130d8565b9392505050565b60006020828403121561312857600080fd5b5035919050565b60008060008060008060008060006101208a8c03121561314e57600080fd5b505087359960208901359950604089013598606081013598506080810135975060a0810135965060c0810135955060e08101359450610100013592509050565b600080604083850312156131a157600080fd5b6131aa836130d8565b946020939093013593505050565b60008083601f8401126131ca57600080fd5b50813567ffffffffffffffff8111156131e257600080fd5b6020830191508360208260051b85010111156131fd57600080fd5b9250929050565b6000806000806040858703121561321a57600080fd5b843567ffffffffffffffff8082111561323257600080fd5b61323e888389016131b8565b9096509450602087013591508082111561325757600080fd5b50613264878288016131b8565b95989497509550505050565b600081518084526020808501945080840160005b838110156132a057815187529582019590820190600101613284565b509495945050505050565b6040815260006132be6040830185613270565b82810360208401526132d08185613270565b95945050505050565b602080825282518282018190526000919060409081850190868401855b82811015613330578151805185528681015187860152858101518686015260609081015190850152608090930192908501906001016132f6565b5091979650505050505050565b634e487b7160e01b600052604160045260246000fd5b600082601f83011261336457600080fd5b8135602067ffffffffffffffff808311156133815761338161333d565b8260051b604051601f19603f830116810181811084821117156133a6576133a661333d565b6040529384528581018301938381019250878511156133c457600080fd5b83870191505b848210156133e3578135835291830191908301906133ca565b979650505050505050565b6000806040838503121561340157600080fd5b823567ffffffffffffffff8082111561341957600080fd5b61342586838701613353565b9350602085013591508082111561343b57600080fd5b5061344885828601613353565b9150509250929050565b602080825282518282018190526000919060409081850190868401855b828110156133305781518051855286810151878601528581015186860152606080820151908601526080808201519086015260a0808201519086015260c0808201519086015260e0808201519086015261010080820151908601526101209081015190850152610140909301929085019060010161346f565b600080604083850312156134fb57600080fd5b50508035926020909101359150565b634e487b7160e01b600052601160045260246000fd5b80820180821115610c2d57610c2d61350a565b6000600182016135455761354561350a565b5060010190565b6020808252601490820152731a5b9d985b1a59081a5b9d995cdd1b595b9d125960621b604082015260600190565b634e487b7160e01b600052603260045260246000fd5b6000602082840312156135a257600080fd5b5051919050565b6000602082840312156135bb57600080fd5b8151801515811461310f57600080fd5b6020808252602f908201527f6e6f7420616c6c6f77656420746f2062757920696e204255534420616e64204260408201526e4e4220696e2073616d652074696d6560881b606082015260800190565b6001600160a01b039384168152919092166020820152604081019190915260600190565b6020808252602e908201527f506173732054696d6573206d7573742062652073616d65206f7220696e63726560408201526d6173696e6720696e206120726f7760901b606082015260800190565b81810381811115610c2d57610c2d61350a565b6000826136bc57634e487b7160e01b600052601260045260246000fd5b500490565b6000816136d0576136d061350a565b506000190190565b8082028115828204841417610c2d57610c2d61350a565b60208082526010908201526f1a5b9d995cdd1b595b9d08195b99195960821b60408201526060019056fea2646970667358221220c808328bb9f031f4f191ba00cf08de403bcf595554d8467ec860a2983d89aba264736f6c63430008120033506173732054696d6573206d7573742062652073616d65206f7220696e637265",
  "linkReferences": {},
  "deployedLinkReferences": {}
}