{
  "_format": "hh-sol-artifact-1",
  "contractName": "FarmBLB",
  "sourceName": "contracts/StakePool/FarmBLB.sol",
  "abi": [
    {
      "inputs": [
        {
          "internalType": "contract IERC20",
          "name": "_BUSD",
          "type": "address"
        },
        {
          "internalType": "contract IERC20",
          "name": "_BLB",
          "type": "address"
        },
        {
          "internalType": "address",
          "name": "blbSwap",
          "type": "address"
        },
        {
          "internalType": "uint256[]",
          "name": "_investPlanAmounts_",
          "type": "uint256[]"
        },
        {
          "internalType": "uint256[]",
          "name": "_investPlanProfits_",
          "type": "uint256[]"
        }
      ],
      "stateMutability": "nonpayable",
      "type": "constructor"
    },
    {
      "anonymous": false,
      "inputs": [
        {
          "indexed": true,
          "internalType": "address",
          "name": "userAddr",
          "type": "address"
        },
        {
          "indexed": true,
          "internalType": "uint256",
          "name": "investmentId",
          "type": "uint256"
        },
        {
          "indexed": false,
          "internalType": "uint256",
          "name": "amountBLB",
          "type": "uint256"
        }
      ],
      "name": "Claim",
      "type": "event"
    },
    {
      "anonymous": false,
      "inputs": [
        {
          "indexed": true,
          "internalType": "address",
          "name": "userAddr",
          "type": "address"
        },
        {
          "indexed": true,
          "internalType": "uint256",
          "name": "investmentId",
          "type": "uint256"
        },
        {
          "indexed": false,
          "internalType": "uint256",
          "name": "amountBLB",
          "type": "uint256"
        },
        {
          "indexed": false,
          "internalType": "uint256",
          "name": "amountUSD",
          "type": "uint256"
        },
        {
          "indexed": true,
          "internalType": "string",
          "name": "depositToken",
          "type": "string"
        }
      ],
      "name": "Deposit",
      "type": "event"
    },
    {
      "anonymous": false,
      "inputs": [
        {
          "indexed": true,
          "internalType": "address",
          "name": "previousOwner",
          "type": "address"
        },
        {
          "indexed": true,
          "internalType": "address",
          "name": "newOwner",
          "type": "address"
        }
      ],
      "name": "OwnershipTransferred",
      "type": "event"
    },
    {
      "anonymous": false,
      "inputs": [
        {
          "indexed": false,
          "internalType": "address",
          "name": "account",
          "type": "address"
        }
      ],
      "name": "Paused",
      "type": "event"
    },
    {
      "anonymous": false,
      "inputs": [
        {
          "indexed": false,
          "internalType": "address",
          "name": "account",
          "type": "address"
        }
      ],
      "name": "Unpaused",
      "type": "event"
    },
    {
      "anonymous": false,
      "inputs": [
        {
          "indexed": true,
          "internalType": "address",
          "name": "userAddr",
          "type": "address"
        },
        {
          "indexed": true,
          "internalType": "uint256",
          "name": "investmentId",
          "type": "uint256"
        },
        {
          "indexed": false,
          "internalType": "uint256",
          "name": "amountBLB",
          "type": "uint256"
        }
      ],
      "name": "Withdraw",
      "type": "event"
    },
    {
      "inputs": [],
      "name": "BLB",
      "outputs": [
        {
          "internalType": "contract IERC20",
          "name": "",
          "type": "address"
        }
      ],
      "stateMutability": "view",
      "type": "function"
    },
    {
      "inputs": [],
      "name": "BLBSwap",
      "outputs": [
        {
          "internalType": "contract IBLBSwap",
          "name": "",
          "type": "address"
        }
      ],
      "stateMutability": "view",
      "type": "function"
    },
    {
      "inputs": [
        {
          "internalType": "uint256",
          "name": "amountBNB",
          "type": "uint256"
        }
      ],
      "name": "BLBsForBNB",
      "outputs": [
        {
          "internalType": "uint256",
          "name": "",
          "type": "uint256"
        }
      ],
      "stateMutability": "view",
      "type": "function"
    },
    {
      "inputs": [
        {
          "internalType": "uint256",
          "name": "amountBUSD",
          "type": "uint256"
        }
      ],
      "name": "BLBsForUSD",
      "outputs": [
        {
          "internalType": "uint256",
          "name": "",
          "type": "uint256"
        }
      ],
      "stateMutability": "view",
      "type": "function"
    },
    {
      "inputs": [],
      "name": "BUSD",
      "outputs": [
        {
          "internalType": "contract IERC20",
          "name": "",
          "type": "address"
        }
      ],
      "stateMutability": "view",
      "type": "function"
    },
    {
      "inputs": [
        {
          "internalType": "uint256",
          "name": "amountBUSD",
          "type": "uint256"
        }
      ],
      "name": "buyAndStake",
      "outputs": [],
      "stateMutability": "payable",
      "type": "function"
    },
    {
      "inputs": [
        {
          "internalType": "address",
          "name": "_BLBSwap",
          "type": "address"
        }
      ],
      "name": "changeBLBSwap",
      "outputs": [],
      "stateMutability": "nonpayable",
      "type": "function"
    },
    {
      "inputs": [],
      "name": "checkpoints",
      "outputs": [
        {
          "components": [
            {
              "internalType": "uint256",
              "name": "passTime",
              "type": "uint256"
            },
            {
              "internalType": "uint256",
              "name": "saveDeposit",
              "type": "uint256"
            },
            {
              "internalType": "uint256",
              "name": "saveProfit",
              "type": "uint256"
            }
          ],
          "internalType": "struct FarmBLB.Checkpoint",
          "name": "checkpoint1_",
          "type": "tuple"
        },
        {
          "components": [
            {
              "internalType": "uint256",
              "name": "passTime",
              "type": "uint256"
            },
            {
              "internalType": "uint256",
              "name": "saveDeposit",
              "type": "uint256"
            },
            {
              "internalType": "uint256",
              "name": "saveProfit",
              "type": "uint256"
            }
          ],
          "internalType": "struct FarmBLB.Checkpoint",
          "name": "checkpoint2_",
          "type": "tuple"
        },
        {
          "components": [
            {
              "internalType": "uint256",
              "name": "passTime",
              "type": "uint256"
            },
            {
              "internalType": "uint256",
              "name": "saveDeposit",
              "type": "uint256"
            },
            {
              "internalType": "uint256",
              "name": "saveProfit",
              "type": "uint256"
            }
          ],
          "internalType": "struct FarmBLB.Checkpoint",
          "name": "checkpoint3_",
          "type": "tuple"
        }
      ],
      "stateMutability": "view",
      "type": "function"
    },
    {
      "inputs": [
        {
          "internalType": "uint256",
          "name": "investmentId",
          "type": "uint256"
        }
      ],
      "name": "claimById",
      "outputs": [],
      "stateMutability": "nonpayable",
      "type": "function"
    },
    {
      "inputs": [
        {
          "internalType": "address",
          "name": "investor",
          "type": "address"
        },
        {
          "internalType": "uint256",
          "name": "investmentId",
          "type": "uint256"
        }
      ],
      "name": "claimable",
      "outputs": [
        {
          "internalType": "uint256",
          "name": "amountBLB",
          "type": "uint256"
        }
      ],
      "stateMutability": "view",
      "type": "function"
    },
    {
      "inputs": [
        {
          "internalType": "address",
          "name": "investor",
          "type": "address"
        },
        {
          "internalType": "uint256",
          "name": "investmentId",
          "type": "uint256"
        }
      ],
      "name": "investmentPayments",
      "outputs": [
        {
          "components": [
            {
              "internalType": "uint256",
              "name": "amountBLB",
              "type": "uint256"
            },
            {
              "internalType": "uint256",
              "name": "amountUSD",
              "type": "uint256"
            },
            {
              "internalType": "uint256",
              "name": "monthId",
              "type": "uint256"
            },
            {
              "internalType": "uint256",
              "name": "monthlyProfitBLB",
              "type": "uint256"
            }
          ],
          "internalType": "struct FarmBLB.Payment[]",
          "name": "_payments_",
          "type": "tuple[]"
        }
      ],
      "stateMutability": "view",
      "type": "function"
    },
    {
      "inputs": [
        {
          "internalType": "address",
          "name": "borrower",
          "type": "address"
        },
        {
          "internalType": "uint256",
          "name": "amount",
          "type": "uint256"
        }
      ],
      "name": "loanBLB",
      "outputs": [],
      "stateMutability": "nonpayable",
      "type": "function"
    },
    {
      "inputs": [],
      "name": "minStakeTime",
      "outputs": [
        {
          "internalType": "uint256",
          "name": "",
          "type": "uint256"
        }
      ],
      "stateMutability": "view",
      "type": "function"
    },
    {
      "inputs": [
        {
          "internalType": "uint256",
          "name": "amountBLB",
          "type": "uint256"
        },
        {
          "internalType": "uint256",
          "name": "amountUSD",
          "type": "uint256"
        }
      ],
      "name": "monthlyProfit",
      "outputs": [
        {
          "internalType": "uint256",
          "name": "profitBLB",
          "type": "uint256"
        }
      ],
      "stateMutability": "view",
      "type": "function"
    },
    {
      "inputs": [
        {
          "internalType": "uint256",
          "name": "amountBLB",
          "type": "uint256"
        }
      ],
      "name": "newInvestment",
      "outputs": [],
      "stateMutability": "nonpayable",
      "type": "function"
    },
    {
      "inputs": [],
      "name": "owner",
      "outputs": [
        {
          "internalType": "address",
          "name": "",
          "type": "address"
        }
      ],
      "stateMutability": "view",
      "type": "function"
    },
    {
      "inputs": [],
      "name": "pause",
      "outputs": [],
      "stateMutability": "nonpayable",
      "type": "function"
    },
    {
      "inputs": [],
      "name": "paused",
      "outputs": [
        {
          "internalType": "bool",
          "name": "",
          "type": "bool"
        }
      ],
      "stateMutability": "view",
      "type": "function"
    },
    {
      "inputs": [
        {
          "internalType": "address",
          "name": "user",
          "type": "address"
        },
        {
          "internalType": "uint256",
          "name": "amount",
          "type": "uint256"
        }
      ],
      "name": "pay",
      "outputs": [],
      "stateMutability": "nonpayable",
      "type": "function"
    },
    {
      "inputs": [
        {
          "internalType": "address[]",
          "name": "users",
          "type": "address[]"
        },
        {
          "internalType": "uint256[]",
          "name": "amounts",
          "type": "uint256[]"
        }
      ],
      "name": "payBatch",
      "outputs": [],
      "stateMutability": "nonpayable",
      "type": "function"
    },
    {
      "inputs": [
        {
          "internalType": "uint256",
          "name": "amountBUSD",
          "type": "uint256"
        }
      ],
      "name": "payToOwner",
      "outputs": [],
      "stateMutability": "payable",
      "type": "function"
    },
    {
      "inputs": [
        {
          "internalType": "address",
          "name": "investor",
          "type": "address"
        }
      ],
      "name": "pendingWithdrawal",
      "outputs": [
        {
          "internalType": "uint256",
          "name": "total",
          "type": "uint256"
        }
      ],
      "stateMutability": "view",
      "type": "function"
    },
    {
      "inputs": [
        {
          "internalType": "address",
          "name": "investor",
          "type": "address"
        },
        {
          "internalType": "uint256",
          "name": "investmentId",
          "type": "uint256"
        }
      ],
      "name": "pendingWithdrawalById",
      "outputs": [
        {
          "internalType": "uint256",
          "name": "",
          "type": "uint256"
        }
      ],
      "stateMutability": "view",
      "type": "function"
    },
    {
      "inputs": [],
      "name": "plans",
      "outputs": [
        {
          "internalType": "uint256[]",
          "name": "_investPlanAmounts_",
          "type": "uint256[]"
        },
        {
          "internalType": "uint256[]",
          "name": "_investPlanProfits_",
          "type": "uint256[]"
        }
      ],
      "stateMutability": "view",
      "type": "function"
    },
    {
      "inputs": [
        {
          "internalType": "address",
          "name": "investor",
          "type": "address"
        },
        {
          "internalType": "uint256",
          "name": "investmentId",
          "type": "uint256"
        }
      ],
      "name": "releaseTime",
      "outputs": [
        {
          "internalType": "uint256",
          "name": "",
          "type": "uint256"
        }
      ],
      "stateMutability": "view",
      "type": "function"
    },
    {
      "inputs": [],
      "name": "renounceOwnership",
      "outputs": [],
      "stateMutability": "nonpayable",
      "type": "function"
    },
    {
      "inputs": [
        {
          "internalType": "uint256",
          "name": "passTime1",
          "type": "uint256"
        },
        {
          "internalType": "uint256",
          "name": "saveDeposit1",
          "type": "uint256"
        },
        {
          "internalType": "uint256",
          "name": "saveProfit1",
          "type": "uint256"
        },
        {
          "internalType": "uint256",
          "name": "passTime2",
          "type": "uint256"
        },
        {
          "internalType": "uint256",
          "name": "saveDeposit2",
          "type": "uint256"
        },
        {
          "internalType": "uint256",
          "name": "saveProfit2",
          "type": "uint256"
        },
        {
          "internalType": "uint256",
          "name": "passTime3",
          "type": "uint256"
        },
        {
          "internalType": "uint256",
          "name": "saveDeposit3",
          "type": "uint256"
        },
        {
          "internalType": "uint256",
          "name": "saveProfit3",
          "type": "uint256"
        }
      ],
      "name": "setCheckpoints",
      "outputs": [],
      "stateMutability": "nonpayable",
      "type": "function"
    },
    {
      "inputs": [
        {
          "internalType": "uint256[]",
          "name": "_investPlanAmounts_",
          "type": "uint256[]"
        },
        {
          "internalType": "uint256[]",
          "name": "_investPlanProfits_",
          "type": "uint256[]"
        }
      ],
      "name": "setInvestPlans",
      "outputs": [],
      "stateMutability": "nonpayable",
      "type": "function"
    },
    {
      "inputs": [
        {
          "internalType": "uint256",
          "name": "_minStakeTime",
          "type": "uint256"
        }
      ],
      "name": "setMinStakeTime",
      "outputs": [],
      "stateMutability": "nonpayable",
      "type": "function"
    },
    {
      "inputs": [
        {
          "internalType": "uint256",
          "name": "addingAmount",
          "type": "uint256"
        },
        {
          "internalType": "uint256",
          "name": "investmentId",
          "type": "uint256"
        }
      ],
      "name": "topUp",
      "outputs": [],
      "stateMutability": "nonpayable",
      "type": "function"
    },
    {
      "inputs": [
        {
          "internalType": "uint256",
          "name": "amountBUSD",
          "type": "uint256"
        },
        {
          "internalType": "uint256",
          "name": "investmentId",
          "type": "uint256"
        }
      ],
      "name": "topUpPayable",
      "outputs": [],
      "stateMutability": "payable",
      "type": "function"
    },
    {
      "inputs": [],
      "name": "totalDepositBLB",
      "outputs": [
        {
          "internalType": "uint256",
          "name": "",
          "type": "uint256"
        }
      ],
      "stateMutability": "view",
      "type": "function"
    },
    {
      "inputs": [
        {
          "internalType": "address",
          "name": "newOwner",
          "type": "address"
        }
      ],
      "name": "transferOwnership",
      "outputs": [],
      "stateMutability": "nonpayable",
      "type": "function"
    },
    {
      "inputs": [],
      "name": "unpause",
      "outputs": [],
      "stateMutability": "nonpayable",
      "type": "function"
    },
    {
      "inputs": [
        {
          "internalType": "address",
          "name": "investor",
          "type": "address"
        }
      ],
      "name": "userInvestments",
      "outputs": [
        {
          "components": [
            {
              "internalType": "uint256",
              "name": "start",
              "type": "uint256"
            },
            {
              "internalType": "uint256",
              "name": "end",
              "type": "uint256"
            },
            {
              "internalType": "uint256",
              "name": "claimedMonth",
              "type": "uint256"
            },
            {
              "internalType": "uint256",
              "name": "claimedBLB",
              "type": "uint256"
            },
            {
              "internalType": "uint256",
              "name": "withdrawTime",
              "type": "uint256"
            },
            {
              "internalType": "uint256",
              "name": "amountBLB",
              "type": "uint256"
            },
            {
              "internalType": "uint256",
              "name": "amountUSD",
              "type": "uint256"
            },
            {
              "internalType": "uint256",
              "name": "monthId",
              "type": "uint256"
            },
            {
              "internalType": "uint256",
              "name": "monthlyProfitBLB",
              "type": "uint256"
            },
            {
              "internalType": "uint256",
              "name": "claimable",
              "type": "uint256"
            }
          ],
          "internalType": "struct FarmBLB.InvestInfo[]",
          "name": "_investments_",
          "type": "tuple[]"
        }
      ],
      "stateMutability": "view",
      "type": "function"
    },
    {
      "inputs": [
        {
          "internalType": "address",
          "name": "investor",
          "type": "address"
        }
      ],
      "name": "userTotalStake",
      "outputs": [
        {
          "internalType": "uint256",
          "name": "totalStake",
          "type": "uint256"
        }
      ],
      "stateMutability": "view",
      "type": "function"
    },
    {
      "inputs": [
        {
          "internalType": "address",
          "name": "investor",
          "type": "address"
        }
      ],
      "name": "userTotalStakeUSD",
      "outputs": [
        {
          "internalType": "uint256",
          "name": "totalStake",
          "type": "uint256"
        }
      ],
      "stateMutability": "view",
      "type": "function"
    },
    {
      "inputs": [
        {
          "internalType": "uint256",
          "name": "investmentId",
          "type": "uint256"
        }
      ],
      "name": "withdraw",
      "outputs": [],
      "stateMutability": "nonpayable",
      "type": "function"
    }
  ],
  "bytecode": "0x60806040523480156200001157600080fd5b506040516200417038038062004170833981016040819052620000349162000664565b6200003f33620000bf565b6000805460ff60a01b19168155600180546001600160a01b038089166001600160a01b0319928316179092556002805488841690831617905560038054928716929091169190911790556301da9c00601255620000a8906050816032606482848260286200010f565b620000b48282620002d0565b505050505062000773565b600080546001600160a01b038381166001600160a01b0319831681178455604051919092169283917f8be0079c531659141344cd1fd0a4f28419497f9722a3daafe3b4186f6b6457e09190a35050565b62000119620004cc565b85891080156200012857508286105b620001895760405162461bcd60e51b815260206004820152602660248201527f506173732054696d6573206d75737420626520696e6372656173696e6720696e604482015265206120726f7760d01b60648201526084015b60405180910390fd5b8488111580156200019a5750818511155b620001ee5760405162461bcd60e51b815260206004820152602e60248201526000805160206200415083398151915260448201526d6173696e6720696e206120726f7760901b606482015260840162000180565b838711158015620001ff5750808411155b620002535760405162461bcd60e51b815260206004820152602e60248201526000805160206200415083398151915260448201526d6173696e6720696e206120726f7760901b606482015260840162000180565b60408051606080820183528b825260208083018c90529183018a905260079b909b556008999099556009979097558651808a0188528681528089018690528701849052600a95909555600b93909355600c919091558351958601845280865293850181905293909101819052600d91909155600e91909155600f55565b620002da620004cc565b8151815181146200032e5760405162461bcd60e51b815260206004820152601a60248201527f617272617973206c656e677468206d7573742062652073616d65000000000000604482015260640162000180565b60015b818110156200049a57836200034860018362000725565b815181106200035b576200035b62000741565b602002602001015184828151811062000378576200037862000741565b602002602001015111620003db5760405162461bcd60e51b815260206004820152602360248201527f616d6f756e7473206d75737420626520696e6372656173696e6720696e206120604482015262726f7760e81b606482015260840162000180565b82620003e960018362000725565b81518110620003fc57620003fc62000741565b602002602001015183828151811062000419576200041962000741565b60200260200101511015620004855760405162461bcd60e51b815260206004820152602b60248201527f70726f66697473206d7573742062652073616d65206f7220696e63726561736960448201526a6e6720696e206120726f7760a81b606482015260840162000180565b80620004918162000757565b91505062000331565b508251620004b09060109060208601906200052a565b508151620004c69060119060208501906200052a565b50505050565b6000546001600160a01b03163314620005285760405162461bcd60e51b815260206004820181905260248201527f4f776e61626c653a2063616c6c6572206973206e6f7420746865206f776e6572604482015260640162000180565b565b82805482825590600052602060002090810192821562000568579160200282015b82811115620005685782518255916020019190600101906200054b565b50620005769291506200057a565b5090565b5b808211156200057657600081556001016200057b565b6001600160a01b0381168114620005a757600080fd5b50565b634e487b7160e01b600052604160045260246000fd5b600082601f830112620005d257600080fd5b815160206001600160401b0380831115620005f157620005f1620005aa565b8260051b604051601f19603f83011681018181108482111715620006195762000619620005aa565b6040529384528581018301938381019250878511156200063857600080fd5b83870191505b8482101562000659578151835291830191908301906200063e565b979650505050505050565b600080600080600060a086880312156200067d57600080fd5b85516200068a8162000591565b60208701519095506200069d8162000591565b6040870151909450620006b08162000591565b60608701519093506001600160401b0380821115620006ce57600080fd5b620006dc89838a01620005c0565b93506080880151915080821115620006f357600080fd5b506200070288828901620005c0565b9150509295509295909350565b634e487b7160e01b600052601160045260246000fd5b818103818111156200073b576200073b6200070f565b92915050565b634e487b7160e01b600052603260045260246000fd5b6000600182016200076c576200076c6200070f565b5060010190565b6139cd80620007836000396000f3fe6080604052600436106102255760003560e01c806388f8916911610123578063c4076876116100ab578063df72083f1161006f578063df72083f14610698578063e753f5ac146106b8578063f2fde38b146106d8578063fcd826d4146106f8578063fe22f4cc1461071857600080fd5b8063c407687614610605578063d182a16a14610625578063d3399e0014610638578063de643a7114610658578063df4eafd41461067857600080fd5b8063af635ad0116100f2578063af635ad014610558578063b023eba514610578578063bc07d85c146105a5578063becf7741146105c5578063bfa54b3f146105e557600080fd5b806388f89169146104cd5780638da5cb5b146104ed5780639150764c1461050b578063a2fa0c751461053857600080fd5b8063538e4f36116101b15780635fd03331116101755780635fd033311461044057806360efe3341461046057806364eb1b2114610480578063715018a6146104a35780638456cb59146104b857600080fd5b8063538e4f361461034b578063598d519b1461036b5780635a48c0b01461038b5780635b91c512146103f65780635c975abb1461041657600080fd5b80633f4ba83a116101f85780633f4ba83a146102ab578063407ac4b2146102c05780634668d866146102d3578063484f4ea9146102f35780634983c3ab1461032b57600080fd5b80630964c95b1461022a5780630c736b351461025d5780631f7678ce146102735780632e1a7d4d14610289575b600080fd5b34801561023657600080fd5b5061024a610245366004613323565b61072b565b6040519081526020015b60405180910390f35b34801561026957600080fd5b5061024a60045481565b34801561027f57600080fd5b5061024a60125481565b34801561029557600080fd5b506102a96102a4366004613345565b61077d565b005b3480156102b757600080fd5b506102a96109ef565b6102a96102ce366004613345565b610a01565b3480156102df57600080fd5b506102a96102ee36600461335e565b610aec565b3480156102ff57600080fd5b50600154610313906001600160a01b031681565b6040516001600160a01b039091168152602001610254565b34801561033757600080fd5b5061024a6103463660046133bd565b610c32565b34801561035757600080fd5b506102a9610366366004613433565b610c77565b34801561037757600080fd5b5061024a610386366004613323565b610da2565b34801561039757600080fd5b506103a0610e6c565b6040805184518152602080860151818301529482015181830152835160608201528484015160808201529281015160a0840152815160c08401529281015160e08301529091015161010082015261012001610254565b34801561040257600080fd5b5061024a610411366004613323565b610f3f565b34801561042257600080fd5b50600054600160a01b900460ff166040519015158152602001610254565b34801561044c57600080fd5b5061024a61045b366004613345565b611001565b34801561046c57600080fd5b5061024a61047b3660046133bd565b611070565b34801561048c57600080fd5b50610495611232565b6040516102549291906134da565b3480156104af57600080fd5b506102a96112df565b3480156104c457600080fd5b506102a96112f1565b3480156104d957600080fd5b506102a96104e8366004613345565b611301565b3480156104f957600080fd5b506000546001600160a01b0316610313565b34801561051757600080fd5b5061052b6105263660046133bd565b6115a2565b6040516102549190613508565b34801561054457600080fd5b506102a96105533660046133bd565b611648565b34801561056457600080fd5b506102a961057336600461361d565b6116cd565b34801561058457600080fd5b50610598610593366004613323565b6118a9565b6040516102549190613681565b3480156105b157600080fd5b5061024a6105c0366004613345565b611be8565b3480156105d157600080fd5b506102a96105e0366004613345565b611c1a565b3480156105f157600080fd5b50600254610313906001600160a01b031681565b34801561061157600080fd5b506102a96106203660046133bd565b611ebe565b6102a9610633366004613345565b611ef2565b34801561064457600080fd5b506102a9610653366004613323565b612330565b34801561066457600080fd5b506102a9610673366004613717565b61235a565b34801561068457600080fd5b506102a9610693366004613345565b6126d8565b3480156106a457600080fd5b5061024a6106b33660046133bd565b6126e5565b3480156106c457600080fd5b50600354610313906001600160a01b031681565b3480156106e457600080fd5b506102a96106f3366004613323565b612a02565b34801561070457600080fd5b5061024a610713366004613717565b612a78565b6102a9610726366004613717565b612b65565b6001600160a01b038116600090815260056020526040812054815b818110156107765761075884826126e5565b610762908461374f565b92508061076e81613762565b915050610746565b5050919050565b3360008181526005602052604090205482106107b45760405162461bcd60e51b81526004016107ab9061377b565b60405180910390fd5b6001600160a01b03811660009081526005602052604081208054849081106107de576107de6137a9565b906000526020600020906005020190506107f783611c1a565b600061080383856126e5565b9050600081116108555760405162461bcd60e51b815260206004820152601e60248201527f5374616b65506f6f6c3a206e6f7468696e6720746f207769746864726177000060448201526064016107ab565b426004838101919091556002546040516370a0823160e01b8152309281019290925282916001600160a01b03909116906370a0823190602401602060405180830381865afa1580156108ab573d6000803e3d6000fd5b505050506040513d601f19601f820116820180604052508101906108cf91906137bf565b1161092d5760405162461bcd60e51b815260206004820152602860248201527f696e73756666696369656e7420424c422062616c616e636520696e207468652060448201526718dbdb9d1c9858dd60c21b60648201526084016107ab565b60025460405163a9059cbb60e01b81526001600160a01b038581166004830152602482018490529091169063a9059cbb906044016020604051808303816000875af1158015610980573d6000803e3d6000fd5b505050506040513d601f19601f820116820180604052508101906109a491906137d8565b5083836001600160a01b03167ff279e6a1f5e320cca91135676d9cb6e44ca8a08c0b88342bcdb1144f6511b568836040516109e191815260200190565b60405180910390a350505050565b6109f76130c8565b6109ff613122565b565b8015610aaf573415610a255760405162461bcd60e51b81526004016107ab906137fa565b6001546001600160a01b03166323b872dd33610a496000546001600160a01b031690565b846040518463ffffffff1660e01b8152600401610a6893929190613849565b6020604051808303816000875af1158015610a87573d6000803e3d6000fd5b505050506040513d601f19601f82011682018060405250810190610aab91906137d8565b5050565b600080546040516001600160a01b03909116913480156108fc02929091818181858888f19350505050158015610aab573d6000803e3d6000fd5b50565b610af46130c8565b8589108015610b0257508286105b610b5d5760405162461bcd60e51b815260206004820152602660248201527f506173732054696d6573206d75737420626520696e6372656173696e6720696e604482015265206120726f7760d01b60648201526084016107ab565b848811158015610b6d5750818511155b610b895760405162461bcd60e51b81526004016107ab9061386d565b838711158015610b995750808411155b610bb55760405162461bcd60e51b81526004016107ab9061386d565b60408051606080820183528b825260208083018c90529183018a905260079b909b556008999099556009979097558651808a0188528681528089018690528701849052600a95909555600b93909355600c919091558351958601845280865293850181905293909101819052600d91909155600e91909155600f55565b6001600160a01b0382166000908152600560205260408120805483908110610c5c57610c5c6137a9565b90600052602060002090600502016001015490505b92915050565b82818114610cc75760405162461bcd60e51b815260206004820152601c60248201527f4c69737473206d7573742062652073616d6520696e206c656e6774680000000060448201526064016107ab565b3360005b82811015610d99576002546001600160a01b03166323b872dd83898985818110610cf757610cf76137a9565b9050602002016020810190610d0c9190613323565b888886818110610d1e57610d1e6137a9565b905060200201356040518463ffffffff1660e01b8152600401610d4393929190613849565b6020604051808303816000875af1158015610d62573d6000803e3d6000fd5b505050506040513d601f19601f82011682018060405250810190610d8691906137d8565b5080610d9181613762565b915050610ccb565b50505050505050565b6001600160a01b03811660009081526005602052604081208054825b81811015610e6457828181548110610dd857610dd86137a9565b906000526020600020906005020160040154600003610e52576001600160a01b038516600090815260066020908152604080832084845290915290208054610e22906001906138bb565b81548110610e3257610e326137a9565b90600052602060002090600402016001015484610e4f919061374f565b93505b80610e5c81613762565b915050610dbe565b505050919050565b610e9060405180606001604052806000815260200160008152602001600081525090565b610eb460405180606001604052806000815260200160008152602001600081525090565b610ed860405180606001604052806000815260200160008152602001600081525090565b5050604080516060808201835260075482526008546020808401919091526009548385015283518083018552600a548152600b5481830152600c548186015284519283018552600d548352600e5491830191909152600f5493820193909352909391925090565b6001600160a01b03811660009081526005602052604081208054825b81811015610e6457828181548110610f7557610f756137a9565b906000526020600020906005020160040154600003610fef576001600160a01b038516600090815260066020908152604080832084845290915290208054610fbf906001906138bb565b81548110610fcf57610fcf6137a9565b90600052602060002090600402016000015484610fec919061374f565b93505b80610ff981613762565b915050610f5b565b600354604051635fd0333160e01b8152600481018390526000916001600160a01b031690635fd03331906024015b602060405180830381865afa15801561104c573d6000803e3d6000fd5b505050506040513d601f19601f82011682018060405250810190610c7191906137bf565b6001600160a01b03821660009081526005602052604081205482106110a75760405162461bcd60e51b81526004016107ab9061377b565b6001600160a01b03831660009081526005602052604081208054849081106110d1576110d16137a9565b9060005260206000209060050201905080600401546000146110f7576000915050610c71565b8054429060009062278d009061110d90846138bb565b61111791906138ce565b60028401546001600160a01b03881660009081526006602090815260408083208a84529091528120549293509091611151906001906138bb565b9050825b82811115611226575b6001600160a01b03891660009081526006602090815260408083208b84529091529020805482919084908110611196576111966137a9565b90600052602060002090600402016002015411156111c057816111b8816138f0565b92505061115e565b6001600160a01b03891660009081526006602090815260408083208b845290915290208054839081106111f5576111f56137a9565b90600052602060002090600402016003015487611212919061374f565b96508061121e816138f0565b915050611155565b50505050505092915050565b606080601080548060200260200160405190810160405280929190818152602001828054801561128157602002820191906000526020600020905b81548152602001906001019080831161126d575b5050505050915060118054806020026020016040519081016040528092919081815260200182805480156112d457602002820191906000526020600020905b8154815260200190600101908083116112c0575b505050505090509091565b6112e76130c8565b6109ff6000613177565b6112f96130c8565b6109ff6131c7565b61130961320a565b6012543342600061131a848361374f565b600354604051632f01f61760e21b8152670de0b6b3a764000060048201529192506000916001600160a01b039091169063bc07d85c90602401602060405180830381865afa158015611370573d6000803e3d6000fd5b505050506040513d601f19601f8201168201806040525081019061139491906137bf565b6113a687670de0b6b3a7640000613907565b6113b091906138ce565b6002546040516323b872dd60e01b81529192506001600160a01b0316906323b872dd906113e590879030908b90600401613849565b6020604051808303816000875af1158015611404573d6000803e3d6000fd5b505050506040513d601f19601f8201168201806040525081019061142891906137d8565b506001600160a01b03841660008181526005602081815260408084208054825160a0810184528a81528085018a815281850188815260608301898152608084018a815260018087018855878c52898c209551878c0290960195865593518585015591516002850155516003840155516004909201919091559686526006845291852093909252905490939192916114be916138bb565b81526020019081526020016000206040518060800160405280898152602001848152602001600181526020016114f48a86612a78565b90528154600181810184556000938452602080852084516004948502909101908155908401519181019190915560408301516002820155606090920151600390920191909155805489929061154a90849061374f565b90915550506040516221262160e91b815260030160408051918290038220898352602083018590529183916001600160a01b03891691600080516020613978833981519152910160405180910390a450505050505050565b6001600160a01b03821660009081526006602090815260408083208484528252808320805482518185028101850190935280835260609492939192909184015b8282101561163c5783829060005260206000209060040201604051806080016040529081600082015481526020016001820154815260200160028201548152602001600382015481525050815260200190600101906115e2565b50505050905092915050565b6116506130c8565b60025460405163a9059cbb60e01b81526001600160a01b038481166004830152602482018490529091169063a9059cbb906044015b6020604051808303816000875af11580156116a4573d6000803e3d6000fd5b505050506040513d601f19601f820116820180604052508101906116c891906137d8565b505050565b6116d56130c8565b8151815181146117275760405162461bcd60e51b815260206004820152601a60248201527f617272617973206c656e677468206d7573742062652073616d6500000000000060448201526064016107ab565b60015b8181101561187b578361173e6001836138bb565b8151811061174e5761174e6137a9565b6020026020010151848281518110611768576117686137a9565b6020026020010151116117c95760405162461bcd60e51b815260206004820152602360248201527f616d6f756e7473206d75737420626520696e6372656173696e6720696e206120604482015262726f7760e81b60648201526084016107ab565b826117d56001836138bb565b815181106117e5576117e56137a9565b60200260200101518382815181106117ff576117ff6137a9565b602002602001015110156118695760405162461bcd60e51b815260206004820152602b60248201527f70726f66697473206d7573742062652073616d65206f7220696e63726561736960448201526a6e6720696e206120726f7760a81b60648201526084016107ab565b8061187381613762565b91505061172a565b50825161188f9060109060208601906132a7565b5081516118a39060119060208501906132a7565b50505050565b6001600160a01b0381166000908152600560209081526040808320805482518185028101850190935280835260609493849084015b8282101561194257838290600052602060002090600502016040518060a001604052908160008201548152602001600182015481526020016002820154815260200160038201548152602001600482015481525050815260200190600101906118de565b505050506001600160a01b0384166000908152600560205260409020549091508067ffffffffffffffff81111561197b5761197b61356c565b604051908082528060200260200182016040528015611a0257816020015b6119ef604051806101400160405280600081526020016000815260200160008152602001600081526020016000815260200160008152602001600081526020016000815260200160008152602001600081525090565b8152602001906001900390816119995790505b509250611a306040518060800160405280600081526020016000815260200160008152602001600081525090565b60005b82811015611bdf576001600160a01b038616600090815260066020908152604080832084845290915290208054611a6c906001906138bb565b81548110611a7c57611a7c6137a9565b90600052602060002090600402016040518060800160405290816000820154815260200160018201548152602001600282015481526020016003820154815250509150604051806101400160405280858381518110611add57611add6137a9565b6020026020010151600001518152602001858381518110611b0057611b006137a9565b6020026020010151602001518152602001858381518110611b2357611b236137a9565b6020026020010151604001518152602001858381518110611b4657611b466137a9565b6020026020010151606001518152602001858381518110611b6957611b696137a9565b602002602001015160800151815260200183600001518152602001836020015181526020018360400151815260200183606001518152602001611bac8884611070565b815250858281518110611bc157611bc16137a9565b60200260200101819052508080611bd790613762565b915050611a33565b50505050919050565b600354604051632f01f61760e21b8152600481018390526000916001600160a01b03169063bc07d85c9060240161102f565b336000818152600560205260408120548310611c485760405162461bcd60e51b81526004016107ab9061377b565b6001600160a01b0382166000908152600560205260408120805485908110611c7257611c726137a9565b906000526020600020906005020190508060040154600014611ca65760405162461bcd60e51b81526004016107ab9061391e565b8054429060009062278d0090611cbc90846138bb565b611cc691906138ce565b60028401546001600160a01b03871660009081526006602090815260408083208b84529091528120549293509091611d00906001906138bb565b9050825b82811115611dd5575b6001600160a01b03881660009081526006602090815260408083208c84529091529020805482919084908110611d4557611d456137a9565b9060005260206000209060040201600201541115611d6f5781611d67816138f0565b925050611d0d565b6001600160a01b03881660009081526006602090815260408083208c84529091529020805483908110611da457611da46137a9565b90600052602060002090600402016003015487611dc1919061374f565b965080611dcd816138f0565b915050611d04565b5082856002018190555085856003016000828254611df3919061374f565b909155505060025460405163a9059cbb60e01b81526001600160a01b038981166004830152602482018990529091169063a9059cbb906044016020604051808303816000875af1158015611e4b573d6000803e3d6000fd5b505050506040513d601f19601f82011682018060405250810190611e6f91906137d8565b5087876001600160a01b03167f34fcbac0073d7c3d388e51312faf357774904998eeb8fca628b9e6f65ee1cbf788604051611eac91815260200190565b60405180910390a35050505050505050565b6002546040516323b872dd60e01b81526001600160a01b03909116906323b872dd9061168590339086908690600401613849565b611efa61320a565b6012543360008060608515612042573415611f275760405162461bcd60e51b81526004016107ab906137fa565b600354604051632f01f61760e21b8152600481018890526001600160a01b039091169063bc07d85c90602401602060405180830381865afa158015611f70573d6000803e3d6000fd5b505050506040513d601f19601f82011682018060405250810190611f9491906137bf565b6001549093508692506001600160a01b03166323b872dd85611fbe6000546001600160a01b031690565b896040518463ffffffff1660e01b8152600401611fdd93929190613849565b6020604051808303816000875af1158015611ffc573d6000803e3d6000fd5b505050506040513d601f19601f8201168201806040525081019061202091906137d8565b5050604080518082019091526004815263109554d160e21b60208201526121a8565b600354604051635fd0333160e01b81523460048201526001600160a01b0390911690635fd0333190602401602060405180830381865afa15801561208a573d6000803e3d6000fd5b505050506040513d601f19601f820116820180604052508101906120ae91906137bf565b600354604051632f01f61760e21b8152670de0b6b3a764000060048201529194506001600160a01b03169063bc07d85c90602401602060405180830381865afa1580156120ff573d6000803e3d6000fd5b505050506040513d601f19601f8201168201806040525081019061212391906137bf565b61213584670de0b6b3a7640000613907565b61213f91906138ce565b91506121536000546001600160a01b031690565b6001600160a01b03166108fc349081150290604051600060405180830381858888f1935050505015801561218b573d6000803e3d6000fd5b505060408051808201909152600381526221272160e91b60208201525b4260006121b5878361374f565b6001600160a01b03871660008181526005602081815260408084208054825160a0810184528a815280850189815281850188815260608301898152608084018a815260018087018855878c52898c209551878c0290960195865593518585015591516002850155516003840155516004909201919091559686526006845291852093909252905494955093909261224b916138bb565b81526020019081526020016000206040518060800160405280888152602001878152602001600181526020016122818989612a78565b9052815460018181018455600093845260208085208451600494850290910190815590840151918101919091556040830151600282015560609092015160039092019190915580548892906122d790849061374f565b90915550506040516122ea908590613948565b60408051918290038220888352602083018890529183916001600160a01b038b1691600080516020613978833981519152910160405180910390a4505050505050505050565b6123386130c8565b600380546001600160a01b0319166001600160a01b0392909216919091179055565b61236261320a565b600354604051632f01f61760e21b8152670de0b6b3a76400006004820152339142916000916001600160a01b03169063bc07d85c90602401602060405180830381865afa1580156123b7573d6000803e3d6000fd5b505050506040513d601f19601f820116820180604052508101906123db91906137bf565b6123ed86670de0b6b3a7640000613907565b6123f791906138ce565b6001600160a01b03841660009081526005602052604081208054929350909186908110612426576124266137a9565b600091825260208083206040805160a08101825260059490940290910180548452600180820154858501526002820154858401526003820154606086015260049091015460808501526001600160a01b0389168552600683528185208a8652909252832080549294509161249a91906138bb565b815481106124aa576124aa6137a9565b9060005260206000209060040201604051806080016040529081600082015481526020016001820154815260200160028201548152602001600382015481525050905081608001516000146125115760405162461bcd60e51b81526004016107ab9061391e565b6002546040516323b872dd60e01b81526001600160a01b03909116906323b872dd9061254590889030908c90600401613849565b6020604051808303816000875af1158015612564573d6000803e3d6000fd5b505050506040513d601f19601f8201168201806040525081019061258891906137d8565b50815160009062278d009061259d90876138bb565b6125a791906138ce565b6125b290600261374f565b905060008883600001516125c6919061374f565b905060008584602001516125da919061374f565b6001600160a01b03891660009081526006602090815260408083208d8452825291829020825160808101845286815291820184905291810186905291925090606081016126278585612a78565b9052815460018181018455600093845260208085208451600494850290910190815590840151918101919091556040830151600282015560609092015160039092019190915580548c929061267d90849061374f565b90915550506040516221262160e91b8152600301604080519182900382208c835260208301899052918b916001600160a01b038c1691600080516020613978833981519152910160405180910390a450505050505050505050565b6126e06130c8565b601255565b6001600160a01b0382166000908152600560205260408120805482919084908110612712576127126137a9565b600091825260208083206001600160a01b03881684526006825260408085208886528352808520805482518186028101860190935280835260059095029092019550929091849084015b828210156127b657838290600052602060002090600402016040518060800160405290816000820154815260200160018201548152602001600282015481526020016003820154815250508152602001906001019061275c565b505050509050600081600183516127cd91906138bb565b815181106127dd576127dd6137a9565b6020026020010151905082600401546000146127ff5760009350505050610c71565b82546001840154429190600061281583836138bb565b90506000600162278d0061282986886138bb565b61283391906138ce565b61284062278d00856138ce565b61284a91906138bb565b61285491906138bb565b865160038a0154606089015192935090916000906128729085613907565b8b60030154612881919061374f565b9050600080878a106128975750839050816129c6565b88606488600d600001546128ab9190613907565b6128b591906138ce565b6128bf919061374f565b8a1061290357600e546064906128d59087613907565b6128df91906138ce565b600f549092506064906128f29085613907565b6128fc91906138ce565b90506129c6565b88606488600a600001546129179190613907565b61292191906138ce565b61292b919061374f565b8a1061295e57600b546064906129419087613907565b61294b91906138ce565b600c549092506064906128f29085613907565b886064886007600001546129729190613907565b61297c91906138ce565b612986919061374f565b8a106129c65760085460649061299c9087613907565b6129a691906138ce565b6009549092506064906129b99085613907565b6129c391906138ce565b90505b60006129d2828461374f565b90508481116129e25760006129ec565b6129ec85826138bb565b9e50505050505050505050505050505092915050565b612a0a6130c8565b6001600160a01b038116612a6f5760405162461bcd60e51b815260206004820152602660248201527f4f776e61626c653a206e6577206f776e657220697320746865207a65726f206160448201526564647265737360d01b60648201526084016107ab565b610ae981613177565b601054600090805b8015612b0d576010612a936001836138bb565b81548110612aa357612aa36137a9565b90600052602060002001548410612afb576127106011612ac46001846138bb565b81548110612ad457612ad46137a9565b906000526020600020015486612aea9190613907565b612af491906138ce565b9250612b0d565b80612b05816138f0565b915050612a80565b5081600003612b5e5760405162461bcd60e51b815260206004820152601760248201527f6e6f20706c616e20666f72207468697320616d6f756e7400000000000000000060448201526064016107ab565b5092915050565b612b6d61320a565b600080334260608615612cfd573415612be25760405162461bcd60e51b815260206004820152603160248201527f6e6f7420616c6c6f77656420746f20746f70557020696e204255534420616e6460448201527020424e4220696e2073616d652074696d6560781b60648201526084016107ab565b600354604051632f01f61760e21b8152600481018990526001600160a01b039091169063bc07d85c90602401602060405180830381865afa158015612c2b573d6000803e3d6000fd5b505050506040513d601f19601f82011682018060405250810190612c4f91906137bf565b6001549095508794506001600160a01b03166323b872dd84612c796000546001600160a01b031690565b8a6040518463ffffffff1660e01b8152600401612c9893929190613849565b6020604051808303816000875af1158015612cb7573d6000803e3d6000fd5b505050506040513d601f19601f82011682018060405250810190612cdb91906137d8565b5050604080518082019091526004815263109554d160e21b6020820152612e63565b600354604051635fd0333160e01b81523460048201526001600160a01b0390911690635fd0333190602401602060405180830381865afa158015612d45573d6000803e3d6000fd5b505050506040513d601f19601f82011682018060405250810190612d6991906137bf565b600354604051632f01f61760e21b8152670de0b6b3a764000060048201529196506001600160a01b03169063bc07d85c90602401602060405180830381865afa158015612dba573d6000803e3d6000fd5b505050506040513d601f19601f82011682018060405250810190612dde91906137bf565b612df086670de0b6b3a7640000613907565b612dfa91906138ce565b9350612e0e6000546001600160a01b031690565b6001600160a01b03166108fc349081150290604051600060405180830381858888f19350505050158015612e46573d6000803e3d6000fd5b505060408051808201909152600381526221272160e91b60208201525b6001600160a01b0383166000908152600560205260408120805488908110612e8d57612e8d6137a9565b600091825260208083206040805160a08101825260059490940290910180548452600180820154858501526002820154858401526003820154606086015260049091015460808501526001600160a01b0389168552600683528185208c86529092528320805492945091612f0191906138bb565b81548110612f1157612f116137a9565b906000526020600020906004020160405180608001604052908160008201548152602001600182015481526020016002820154815260200160038201548152505090508160800151600014612f785760405162461bcd60e51b81526004016107ab9061391e565b815160009062278d0090612f8c90876138bb565b612f9691906138ce565b612fa190600261374f565b90506000888360000151612fb5919061374f565b90506000888460200151612fc9919061374f565b6001600160a01b03891660009081526006602090815260408083208f8452825291829020825160808101845286815291820184905291810186905291925090606081016130168585612a78565b9052815460018181018455600093845260208085208451600494850290910190815590840151918101919091556040830151600282015560609092015160039092019190915580548c929061306c90849061374f565b909155505060405161307f908790613948565b604080519182900382208c8352602083018c9052918d916001600160a01b038c1691600080516020613978833981519152910160405180910390a4505050505050505050505050565b6000546001600160a01b031633146109ff5760405162461bcd60e51b815260206004820181905260248201527f4f776e61626c653a2063616c6c6572206973206e6f7420746865206f776e657260448201526064016107ab565b61312a613257565b6000805460ff60a01b191690557f5db9ee0a495bf2e6ff9c91a7834c1ba4fdd244a5e8aa4e537bd38aeae4b073aa335b6040516001600160a01b03909116815260200160405180910390a1565b600080546001600160a01b038381166001600160a01b0319831681178455604051919092169283917f8be0079c531659141344cd1fd0a4f28419497f9722a3daafe3b4186f6b6457e09190a35050565b6131cf61320a565b6000805460ff60a01b1916600160a01b1790557f62e78cea01bee320cd4e420270b5ea74000d11b0c9f74754ebdbfc544b05a25861315a3390565b600054600160a01b900460ff16156109ff5760405162461bcd60e51b815260206004820152601060248201526f14185d5cd8589b194e881c185d5cd95960821b60448201526064016107ab565b600054600160a01b900460ff166109ff5760405162461bcd60e51b815260206004820152601460248201527314185d5cd8589b194e881b9bdd081c185d5cd95960621b60448201526064016107ab565b8280548282559060005260206000209081019282156132e2579160200282015b828111156132e25782518255916020019190600101906132c7565b506132ee9291506132f2565b5090565b5b808211156132ee57600081556001016132f3565b80356001600160a01b038116811461331e57600080fd5b919050565b60006020828403121561333557600080fd5b61333e82613307565b9392505050565b60006020828403121561335757600080fd5b5035919050565b60008060008060008060008060006101208a8c03121561337d57600080fd5b505087359960208901359950604089013598606081013598506080810135975060a0810135965060c0810135955060e08101359450610100013592509050565b600080604083850312156133d057600080fd5b6133d983613307565b946020939093013593505050565b60008083601f8401126133f957600080fd5b50813567ffffffffffffffff81111561341157600080fd5b6020830191508360208260051b850101111561342c57600080fd5b9250929050565b6000806000806040858703121561344957600080fd5b843567ffffffffffffffff8082111561346157600080fd5b61346d888389016133e7565b9096509450602087013591508082111561348657600080fd5b50613493878288016133e7565b95989497509550505050565b600081518084526020808501945080840160005b838110156134cf578151875295820195908201906001016134b3565b509495945050505050565b6040815260006134ed604083018561349f565b82810360208401526134ff818561349f565b95945050505050565b602080825282518282018190526000919060409081850190868401855b8281101561355f57815180518552868101518786015285810151868601526060908101519085015260809093019290850190600101613525565b5091979650505050505050565b634e487b7160e01b600052604160045260246000fd5b600082601f83011261359357600080fd5b8135602067ffffffffffffffff808311156135b0576135b061356c565b8260051b604051601f19603f830116810181811084821117156135d5576135d561356c565b6040529384528581018301938381019250878511156135f357600080fd5b83870191505b84821015613612578135835291830191908301906135f9565b979650505050505050565b6000806040838503121561363057600080fd5b823567ffffffffffffffff8082111561364857600080fd5b61365486838701613582565b9350602085013591508082111561366a57600080fd5b5061367785828601613582565b9150509250929050565b602080825282518282018190526000919060409081850190868401855b8281101561355f5781518051855286810151878601528581015186860152606080820151908601526080808201519086015260a0808201519086015260c0808201519086015260e0808201519086015261010080820151908601526101209081015190850152610140909301929085019060010161369e565b6000806040838503121561372a57600080fd5b50508035926020909101359150565b634e487b7160e01b600052601160045260246000fd5b80820180821115610c7157610c71613739565b60006001820161377457613774613739565b5060010190565b6020808252601490820152731a5b9d985b1a59081a5b9d995cdd1b595b9d125960621b604082015260600190565b634e487b7160e01b600052603260045260246000fd5b6000602082840312156137d157600080fd5b5051919050565b6000602082840312156137ea57600080fd5b8151801515811461333e57600080fd5b6020808252602f908201527f6e6f7420616c6c6f77656420746f2062757920696e204255534420616e64204260408201526e4e4220696e2073616d652074696d6560881b606082015260800190565b6001600160a01b039384168152919092166020820152604081019190915260600190565b6020808252602e908201527f506173732054696d6573206d7573742062652073616d65206f7220696e63726560408201526d6173696e6720696e206120726f7760901b606082015260800190565b81810381811115610c7157610c71613739565b6000826138eb57634e487b7160e01b600052601260045260246000fd5b500490565b6000816138ff576138ff613739565b506000190190565b8082028115828204841417610c7157610c71613739565b60208082526010908201526f1a5b9d995cdd1b595b9d08195b99195960821b604082015260600190565b6000825160005b81811015613969576020818601810151858301520161394f565b50600092019182525091905056fe7e93f8be26fa1ac0d2690bbb8b57b3f13e751c3bdf3e76110413b95db2ca058ca2646970667358221220bba19eb95ec8548b302f9b7d6648a1625f0a402a2b9c6ac8f03e23a6a7705a5664736f6c63430008120033506173732054696d6573206d7573742062652073616d65206f7220696e637265",
  "linkReferences": {},
  "deployedLinkReferences": {}
}